{
  "_format": "hh-sol-artifact-1",
  "contractName": "Account",
  "sourceName": "contracts/Account.sol",
  "abi": [
    {
      "inputs": [],
      "name": "E10",
      "type": "error"
    },
    {
      "inputs": [],
      "name": "E2",
      "type": "error"
    },
    {
      "inputs": [],
      "name": "E3",
      "type": "error"
    },
    {
      "inputs": [],
      "name": "E4",
      "type": "error"
    },
    {
      "inputs": [],
      "name": "E5",
      "type": "error"
    },
    {
      "inputs": [],
      "name": "E6",
      "type": "error"
    },
    {
      "inputs": [],
      "name": "E7",
      "type": "error"
    },
    {
      "inputs": [],
      "name": "E8",
      "type": "error"
    },
    {
      "inputs": [],
      "name": "E9",
      "type": "error"
    },
    {
      "anonymous": false,
      "inputs": [
        {
          "components": [
            {
              "internalType": "bytes32",
              "name": "left",
              "type": "bytes32"
            },
            {
              "internalType": "bytes32",
              "name": "right",
              "type": "bytes32"
            },
            {
              "components": [
                {
                  "internalType": "uint256",
                  "name": "tokenId",
                  "type": "uint256"
                },
                {
                  "internalType": "uint256",
                  "name": "leftReserve",
                  "type": "uint256"
                },
                {
                  "internalType": "uint256",
                  "name": "rightReserve",
                  "type": "uint256"
                },
                {
                  "internalType": "uint256",
                  "name": "collateral",
                  "type": "uint256"
                },
                {
                  "internalType": "int256",
                  "name": "ondelta",
                  "type": "int256"
                }
              ],
              "internalType": "struct TokenSettlement[]",
              "name": "tokens",
              "type": "tuple[]"
            },
            {
              "internalType": "uint256",
              "name": "nonce",
              "type": "uint256"
            }
          ],
          "indexed": false,
          "internalType": "struct AccountSettlement[]",
          "name": "settled",
          "type": "tuple[]"
        }
      ],
      "name": "AccountSettled",
      "type": "event"
    },
    {
      "anonymous": false,
      "inputs": [
        {
          "indexed": true,
          "internalType": "bytes32",
          "name": "debtor",
          "type": "bytes32"
        },
        {
          "indexed": true,
          "internalType": "bytes32",
          "name": "creditor",
          "type": "bytes32"
        },
        {
          "indexed": true,
          "internalType": "uint256",
          "name": "tokenId",
          "type": "uint256"
        },
        {
          "indexed": false,
          "internalType": "uint256",
          "name": "amount",
          "type": "uint256"
        },
        {
          "indexed": false,
          "internalType": "uint256",
          "name": "debtIndex",
          "type": "uint256"
        }
      ],
      "name": "DebtCreated",
      "type": "event"
    },
    {
      "anonymous": false,
      "inputs": [
        {
          "indexed": true,
          "internalType": "bytes32",
          "name": "debtor",
          "type": "bytes32"
        },
        {
          "indexed": true,
          "internalType": "bytes32",
          "name": "creditor",
          "type": "bytes32"
        },
        {
          "indexed": true,
          "internalType": "uint256",
          "name": "tokenId",
          "type": "uint256"
        },
        {
          "indexed": false,
          "internalType": "uint256",
          "name": "amountForgiven",
          "type": "uint256"
        },
        {
          "indexed": false,
          "internalType": "uint256",
          "name": "debtIndex",
          "type": "uint256"
        }
      ],
      "name": "DebtForgiven",
      "type": "event"
    },
    {
      "anonymous": false,
      "inputs": [
        {
          "indexed": true,
          "internalType": "bytes32",
          "name": "sender",
          "type": "bytes32"
        },
        {
          "indexed": true,
          "internalType": "bytes32",
          "name": "counterentity",
          "type": "bytes32"
        },
        {
          "indexed": true,
          "internalType": "uint256",
          "name": "nonce",
          "type": "uint256"
        },
        {
          "indexed": false,
          "internalType": "bytes32",
          "name": "proofbodyHash",
          "type": "bytes32"
        },
        {
          "indexed": false,
          "internalType": "bytes32",
          "name": "watchSeed",
          "type": "bytes32"
        },
        {
          "indexed": false,
          "internalType": "bytes",
          "name": "starterInitialArguments",
          "type": "bytes"
        },
        {
          "indexed": false,
          "internalType": "bytes",
          "name": "starterIncrementedArguments",
          "type": "bytes"
        },
        {
          "indexed": false,
          "internalType": "uint256",
          "name": "disputeTimeout",
          "type": "uint256"
        }
      ],
      "name": "DisputeStarted",
      "type": "event"
    },
    {
      "anonymous": false,
      "inputs": [
        {
          "indexed": true,
          "internalType": "uint256",
          "name": "tokenId",
          "type": "uint256"
        },
        {
          "indexed": true,
          "internalType": "bytes32",
          "name": "debtor",
          "type": "bytes32"
        },
        {
          "indexed": false,
          "internalType": "uint256",
          "name": "requestedDebt",
          "type": "uint256"
        },
        {
          "indexed": false,
          "internalType": "uint256",
          "name": "acceptedDebt",
          "type": "uint256"
        },
        {
          "indexed": false,
          "internalType": "uint256",
          "name": "supply",
          "type": "uint256"
        },
        {
          "indexed": false,
          "internalType": "uint256",
          "name": "outstanding",
          "type": "uint256"
        }
      ],
      "name": "FatalTokenError",
      "type": "event"
    },
    {
      "anonymous": false,
      "inputs": [
        {
          "indexed": true,
          "internalType": "bytes32",
          "name": "entity",
          "type": "bytes32"
        },
        {
          "indexed": true,
          "internalType": "uint256",
          "name": "tokenId",
          "type": "uint256"
        },
        {
          "indexed": false,
          "internalType": "uint256",
          "name": "newBalance",
          "type": "uint256"
        }
      ],
      "name": "ReserveUpdated",
      "type": "event"
    },
    {
      "anonymous": false,
      "inputs": [
        {
          "indexed": true,
          "internalType": "bytes32",
          "name": "accountKeyHash",
          "type": "bytes32"
        },
        {
          "indexed": true,
          "internalType": "uint256",
          "name": "clauseIndex",
          "type": "uint256"
        },
        {
          "indexed": true,
          "internalType": "address",
          "name": "transformer",
          "type": "address"
        },
        {
          "indexed": false,
          "internalType": "uint8",
          "name": "reason",
          "type": "uint8"
        }
      ],
      "name": "TransformerClauseSkipped",
      "type": "event"
    },
    {
      "anonymous": false,
      "inputs": [
        {
          "indexed": true,
          "internalType": "bytes32",
          "name": "accountKeyHash",
          "type": "bytes32"
        },
        {
          "indexed": true,
          "internalType": "uint256",
          "name": "clauseIndex",
          "type": "uint256"
        },
        {
          "indexed": true,
          "internalType": "address",
          "name": "transformer",
          "type": "address"
        },
        {
          "indexed": false,
          "internalType": "uint256",
          "name": "tokenId",
          "type": "uint256"
        },
        {
          "indexed": false,
          "internalType": "int256",
          "name": "requestedValue",
          "type": "int256"
        },
        {
          "indexed": false,
          "internalType": "int256",
          "name": "appliedValue",
          "type": "int256"
        }
      ],
      "name": "TransformerDeltaClamped",
      "type": "event"
    },
    {
      "inputs": [
        {
          "internalType": "bytes32",
          "name": "e1",
          "type": "bytes32"
        },
        {
          "internalType": "bytes32",
          "name": "e2",
          "type": "bytes32"
        }
      ],
      "name": "accountKey",
      "outputs": [
        {
          "internalType": "bytes",
          "name": "",
          "type": "bytes"
        }
      ],
      "stateMutability": "pure",
      "type": "function"
    },
    {
      "inputs": [
        {
          "internalType": "bytes32",
          "name": "domainSep",
          "type": "bytes32"
        },
        {
          "internalType": "bytes",
          "name": "encodedBatch",
          "type": "bytes"
        },
        {
          "internalType": "uint256",
          "name": "nonce",
          "type": "uint256"
        }
      ],
      "name": "computeBatchHankoHash",
      "outputs": [
        {
          "internalType": "bytes32",
          "name": "",
          "type": "bytes32"
        }
      ],
      "stateMutability": "view",
      "type": "function"
    },
    {
      "inputs": [
        {
          "internalType": "uint256",
          "name": "nonce",
          "type": "uint256"
        },
        {
          "internalType": "bool",
          "name": "startedByLeft",
          "type": "bool"
        },
        {
          "internalType": "uint256",
          "name": "timeout",
          "type": "uint256"
        },
        {
          "internalType": "bytes32",
          "name": "proofbodyHash",
          "type": "bytes32"
        },
        {
          "internalType": "uint256",
          "name": "disputeStartTimestamp",
          "type": "uint256"
        },
        {
          "internalType": "bytes",
          "name": "starterInitialArguments",
          "type": "bytes"
        },
        {
          "internalType": "bytes",
          "name": "starterIncrementedArguments",
          "type": "bytes"
        }
      ],
      "name": "encodeDisputeHash",
      "outputs": [
        {
          "internalType": "bytes32",
          "name": "",
          "type": "bytes32"
        }
      ],
      "stateMutability": "pure",
      "type": "function"
    },
    {
      "inputs": [
        {
          "internalType": "uint256",
          "name": "nonce",
          "type": "uint256"
        },
        {
          "internalType": "bool",
          "name": "startedByLeft",
          "type": "bool"
        },
        {
          "internalType": "uint256",
          "name": "timeout",
          "type": "uint256"
        },
        {
          "internalType": "bytes32",
          "name": "proofbodyHash",
          "type": "bytes32"
        },
        {
          "internalType": "uint256",
          "name": "disputeStartTimestamp",
          "type": "uint256"
        },
        {
          "internalType": "bytes32",
          "name": "starterInitialArgumentsCommitment",
          "type": "bytes32"
        },
        {
          "internalType": "bytes32",
          "name": "starterIncrementedArgumentsCommitment",
          "type": "bytes32"
        }
      ],
      "name": "encodeDisputeHashFromCommitments",
      "outputs": [
        {
          "internalType": "bytes32",
          "name": "",
          "type": "bytes32"
        }
      ],
      "stateMutability": "pure",
      "type": "function"
    },
    {
      "inputs": [
        {
          "internalType": "uint8",
          "name": "tokenType",
          "type": "uint8"
        },
        {
          "internalType": "address",
          "name": "token",
          "type": "address"
        },
        {
          "internalType": "uint96",
          "name": "externalTokenId",
          "type": "uint96"
        }
      ],
      "name": "readFixedTokenSupply",
      "outputs": [
        {
          "internalType": "uint256",
          "name": "supply",
          "type": "uint256"
        },
        {
          "internalType": "bool",
          "name": "valid",
          "type": "bool"
        }
      ],
      "stateMutability": "view",
      "type": "function"
    },
    {
      "inputs": [
        {
          "internalType": "bytes",
          "name": "starterArguments",
          "type": "bytes"
        },
        {
          "internalType": "bool",
          "name": "startedByLeft",
          "type": "bool"
        },
        {
          "internalType": "uint256",
          "name": "disputeStartTimestamp",
          "type": "uint256"
        },
        {
          "internalType": "bytes32",
          "name": "expectedCommitment",
          "type": "bytes32"
        }
      ],
      "name": "requireStarterArgumentCommitment",
      "outputs": [],
      "stateMutability": "pure",
      "type": "function"
    },
    {
      "inputs": [
        {
          "components": [
            {
              "internalType": "bytes32",
              "name": "counterentity",
              "type": "bytes32"
            },
            {
              "internalType": "uint256",
              "name": "nonce",
              "type": "uint256"
            },
            {
              "internalType": "bytes32",
              "name": "proofbodyHash",
              "type": "bytes32"
            },
            {
              "components": [
                {
                  "internalType": "bytes32",
                  "name": "watchSeed",
                  "type": "bytes32"
                },
                {
                  "internalType": "int256[]",
                  "name": "offdeltas",
                  "type": "int256[]"
                },
                {
                  "internalType": "uint256[]",
                  "name": "tokenIds",
                  "type": "uint256[]"
                },
                {
                  "components": [
                    {
                      "internalType": "address",
                      "name": "transformerAddress",
                      "type": "address"
                    },
                    {
                      "internalType": "bytes",
                      "name": "encodedBatch",
                      "type": "bytes"
                    },
                    {
                      "components": [
                        {
                          "internalType": "uint256",
                          "name": "deltaIndex",
                          "type": "uint256"
                        },
                        {
                          "internalType": "uint256",
                          "name": "rightAllowance",
                          "type": "uint256"
                        },
                        {
                          "internalType": "uint256",
                          "name": "leftAllowance",
                          "type": "uint256"
                        }
                      ],
                      "internalType": "struct Allowance[]",
                      "name": "allowances",
                      "type": "tuple[]"
                    }
                  ],
                  "internalType": "struct TransformerClause[]",
                  "name": "transformers",
                  "type": "tuple[]"
                }
              ],
              "internalType": "struct ProofBody",
              "name": "initialProofbody",
              "type": "tuple"
            },
            {
              "internalType": "bytes32",
              "name": "watchSeed",
              "type": "bytes32"
            },
            {
              "internalType": "bytes",
              "name": "sig",
              "type": "bytes"
            },
            {
              "internalType": "bytes",
              "name": "starterInitialArguments",
              "type": "bytes"
            },
            {
              "internalType": "bytes",
              "name": "starterIncrementedArguments",
              "type": "bytes"
            }
          ],
          "internalType": "struct InitialDisputeProof[]",
          "name": "disputeStarts",
          "type": "tuple[]"
        },
        {
          "components": [
            {
              "internalType": "bytes32",
              "name": "counterentity",
              "type": "bytes32"
            },
            {
              "internalType": "uint256",
              "name": "initialNonce",
              "type": "uint256"
            },
            {
              "internalType": "uint256",
              "name": "finalNonce",
              "type": "uint256"
            },
            {
              "internalType": "bytes32",
              "name": "initialProofbodyHash",
              "type": "bytes32"
            },
            {
              "components": [
                {
                  "internalType": "bytes32",
                  "name": "watchSeed",
                  "type": "bytes32"
                },
                {
                  "internalType": "int256[]",
                  "name": "offdeltas",
                  "type": "int256[]"
                },
                {
                  "internalType": "uint256[]",
                  "name": "tokenIds",
                  "type": "uint256[]"
                },
                {
                  "components": [
                    {
                      "internalType": "address",
                      "name": "transformerAddress",
                      "type": "address"
                    },
                    {
                      "internalType": "bytes",
                      "name": "encodedBatch",
                      "type": "bytes"
                    },
                    {
                      "components": [
                        {
                          "internalType": "uint256",
                          "name": "deltaIndex",
                          "type": "uint256"
                        },
                        {
                          "internalType": "uint256",
                          "name": "rightAllowance",
                          "type": "uint256"
                        },
                        {
                          "internalType": "uint256",
                          "name": "leftAllowance",
                          "type": "uint256"
                        }
                      ],
                      "internalType": "struct Allowance[]",
                      "name": "allowances",
                      "type": "tuple[]"
                    }
                  ],
                  "internalType": "struct TransformerClause[]",
                  "name": "transformers",
                  "type": "tuple[]"
                }
              ],
              "internalType": "struct ProofBody",
              "name": "finalProofbody",
              "type": "tuple"
            },
            {
              "internalType": "bytes",
              "name": "starterArguments",
              "type": "bytes"
            },
            {
              "internalType": "bytes",
              "name": "otherArguments",
              "type": "bytes"
            },
            {
              "internalType": "bytes",
              "name": "sig",
              "type": "bytes"
            },
            {
              "internalType": "bool",
              "name": "startedByLeft",
              "type": "bool"
            },
            {
              "internalType": "bool",
              "name": "cooperative",
              "type": "bool"
            }
          ],
          "internalType": "struct FinalDisputeProof[]",
          "name": "disputeFinalizations",
          "type": "tuple[]"
        }
      ],
      "name": "validateDisputeProofs",
      "outputs": [],
      "stateMutability": "pure",
      "type": "function"
    }
  ],
  "bytecode": "0x6080806040523461001c576139c590816100228239308160070152f35b600080fdfe60a0604052307f000000000000000000000000000000000000000000000000000000000000000014600436101561003557600080fd5b60003560e01c90816305a73689146111755781634893fd461461112a5781635147f14e146110715781635895c6b4146110585781638350abc114610f7957816392beedbd14610ef557816397b55ac814610bda578163a160f514146108ea578163a88ec11c146107a5578163ab1f757214610770578163bf38450714610716578163d5cc3bd914610698578163e089392e14610190578163ea73e64214610120575063f176e326146100e657600080fd5b604036600319011261011b57610117610103602435600435612507565b60405191829160208352602083019061179a565b0390f35b600080fd5b61011b5761014036600319011261011b5760e43560ff8116810361011b5761010435906001600160a01b038216820361011b57610124356001600160601b038116810361011b576020926101889260c43560a43560843560643560443560243560043561232d565b604051908152f35b61011b57608036600319011261011b576044356001600160401b03811161011b576101bf90369060040161168e565b6064356001600160a01b038116810361011b576101df608083015161355c565b90620100008060a08501515111908115610689575b50610677576102068351602435612507565b91610213600435846118a8565b6020850151610120860151919442949192156104af57855490811561049d578160208901510361048b5760408801918251111561048b5760e08801918251511561041d5761010093848a015115156024358b5110036104795789946102b56102d46040956102fa955160a08a01516020815191012098519951988851948593602085019760038952468c87015230606087015260e0608087015285019061179a565b9160a08401528c60c084015260e083015203601f198101835282611265565b519020948351809681948293631155a0c560e31b8452876004850152604484019061179a565b602483019190915203916001600160a01b03165afa91821561046d57600090600093610439575b508261042f575b50501561041d576103b6945b61010081015115801594906104125760a0820151955b85156104075760c0830151915b429661012042950151156103dd575b505090600782600060016103c495015560006002820155600060038201556000600482015560006005820155600060068201550160ff19815416905560405197889760c0895260c089019061179a565b90878203602089015261179a565b9360408601526060850152608084015260a08301520390f35b91969091156103f757509060076103c492965b9192610366565b9592509060076103c492936103f0565b60a083015191610357565b60c08201519561034a565b604051631bd18a1960e31b8152600490fd5b1490508680610328565b905061045e91925060403d604011610466575b6104568183611265565b810190611941565b919088610321565b503d61044c565b6040513d6000823e3d90fd5b604051633c4117f160e21b8152600490fd5b604051633485c51360e21b8152600490fd5b6040516388d0662b60e01b8152600490fd5b935093949050600185015492831561049d57602082015193865480950361048b57606083015160048801548091036105ef5761010084015115159260ff60078a01541693841515036105ef5788976006899386956105278b600360028901549801549e8f858a600584015498899401549c8d95613770565b036105ef5760e088018051519095901561062f5750505060408601888151111561048b5780516020880151101561048b576040916105766105999251958a60808b0151519151978b5197613892565b948351809681948293631155a0c560e31b8452876004850152604484019061179a565b602483019190915203916001600160a01b03165afa91821561046d5760009060009361060b575b5082610601575b50501561041d57866105df91925b60a085015161254a565b036105ef576103b6949290610334565b604051630cba69cb60e01b8152600490fd5b14905088806105c7565b905061062791925060403d604011610466576104568183611265565b91908a6105c0565b935093509350508660408601510361048b57610100850151151585516024351014908161066d575b5061048b5784036105ef57866105df91926105d5565b9050431089610657565b60405163e217c62b60e01b8152600490fd5b905060c08401515111846101f4565b60e036600319011261011b576106ac6112ea565b608435906001600160401b039060a43582811161011b576106d19036906004016112a3565b60c43592831161011b578361070581846106ff602098826106f96101889a36906004016112a3565b9761254a565b9461254a565b926064359060443590600435613770565b606036600319011261011b5760043560ff8116810361011b57602435906001600160a01b038216820361011b576044356001600160601b038116810361011b57604092610762926137b2565b825191825215156020820152f35b60e036600319011261011b5760206101886107896112ea565b60c4359060a43590608435906064359060443590600435613770565b604036600319011261011b576001600160401b0360043581811161011b576107d1903690600401611559565b9060249060243581811161011b573660238201121561011b578060040135926107f98461131a565b936108076040519586611265565b8085526020936024602087019260051b8501019336851161011b5760248101925b8584106108c457888860005b8251811015610859578061085361084d6001938661192d565b51613517565b01610834565b5060005b81518110156108c25761087d6080610875838561192d565b51015161355c565b50620100008060a061088f848661192d565b51015151119081156108a9575b506106775760010161085d565b905060c06108b7838561192d565b51015151118361089c565b005b833583811161011b5787916108df839288369187010161168e565b815201930192610828565b61011b5760e036600319011261011b576001600160401b0360a4351161011b5736602360a43501121561011b5761092660a4356004013561131a565b6109336040519182611265565b60a4356004013581526020810136602460a4356004013560051b60a43501011161011b57602460a43501905b602460a4356004013560051b60a435010182106109f35760c435836001600160a01b038216820361011b5760019182916000835b6109a5575b6020846040519015158152f35b81518110156109ee5790816109d5846109c08896958561192d565b51608435606435604435602435600435612c06565b156109e5575b8301909192610993565b600094506109db565b610998565b81356001600160401b03811161011b5761010060a43582013603602319011261011b5760405191610a23836111dd565b60a43582016024810135845260448101356020850152606401356001600160401b03811161011b57366043828560a435010101121561011b576024818460a4350101013590610a718261131a565b91610a7f6040519384611265565b8083526020830136604460a08402858960a435010101011161011b576044838760a435010101905b604460a08402858960a435010101018210610b8a5750505050604084015260a4358201608401356001600160401b03811161011b57610af090602436918560a435010101611331565b606084015260a48035830101356001600160401b03811161011b57610b1f90602436918560a4350101016112a3565b6080840152610b3460c48360a4350101611306565b60a08401526001600160401b0360a435830160e401351161011b57602092839261010490610b6f3660a435830160e4810135016024016112a3565b60c084015260a43501013560e082015281520191019061095f565b60a08236031261011b57602060a091604051610ba5816111ac565b843581528285013583820152604085013560408201526060808601359082015260808086013590820152815201910190610aa7565b61011b5760a036600319011261011b576044356001600160401b03811161011b57610c09903690600401611559565b6064906084356001600160a01b038116810361011b5760005b8251811015610eea57610c35818461192d565b5190610c4082613517565b610c4d8251602435612507565b916020810151610c5f600435856118a8565b54101561048b5760a08101515115610ea657610c8b602082015160408301516060840151519186613892565b6040610cb660a084015182519384928392631155a0c560e31b8452856004850152604484019061179a565b602483019190915203816001600160a01b0389165afa801561046d57600091600091610e85575b5015908115610e79575b5061041d576001610cfa600435856118a8565b0154610e6757600192610d0f606435436117e2565b82516024351091610d25428460c087015161254a565b9260e0850193610d374283875161254a565b90610d518282896020810151898860404294015192613770565b89610d5e600435876118a8565b0155846002610d6f600435876118a8565b0155426003610d80600435876118a8565b015560408701516004610d948135876118a8565b01556005610da4600435866118a8565b01556006610db4600435856118a8565b01556007610dc4600435846118a8565b019060ff80198354169116179055610de4602085015191600435906118a8565b557f5c61a90d657f23ccfe717e761483a7d93278644818a7fe0a675b26ce141353d1835192610e53602086015195610e4560408201519360c0606084015151930151905192604051958652602086015260a0604086015260a085019061179a565b90838203606085015261179a565b92608082015280602435930390a401610c22565b604051639ce22bbb60e01b8152600490fd5b90508151141587610ce7565b9050610ea0915060403d604011610466576104568183611265565b88610cdd565b60405162461bcd60e51b815260206004820152601e60248201527f5369676e617475726520726571756972656420666f722064697370757465000060448201528690fd5b602060405160018152f35b606036600319011261011b576024356001600160401b03811161011b57610f2260209136906004016112a3565b604051610f6e6094828581019460043586524660408301523060601b6060830152610f568151809289607486019101611777565b81016044356074820152036074810184520182611265565b519020604051908152f35b61011b5761010036600319011261011b576001600160401b0360243581811161011b57610faa903690600401611391565b60443582811161011b57610fc2903690600401611331565b90606435801515810361011b5760843584811161011b57610fe79036906004016112a3565b60a43594851161011b576110026110139536906004016112a3565b9160e4359460c43594600435611eec565b6040518091602080830160208452825180915260206040850193019160005b82811061104157505050500390f35b835185528695509381019392810192600101611032565b61011b576108c26110683661118e565b92919091611e78565b61011b5760031960c03682011261011b57608435906001600160401b039081831161011b5760a090833603011261011b57604051916110af836111ac565b80600401358352602481013560208401526044810135604084015260648101356060840152608481013591821161011b5760046110ef92369201016112a3565b608082015260a435906001600160a01b038216820361011b5760209161112091606435604435602435600435611a9f565b6040519015158152f35b608036600319011261011b576004356001600160401b03811161011b576111559036906004016112a3565b61116e6111606112ea565b91606435926044359161254a565b036105ef57005b61011b576108c26111853661118e565b929190916117ef565b608090600319011261011b5760043590602435906044359060643590565b60a081019081106001600160401b038211176111c757604052565b634e487b7160e01b600052604160045260246000fd5b61010081019081106001600160401b038211176111c757604052565b608081019081106001600160401b038211176111c757604052565b606081019081106001600160401b038211176111c757604052565b604081019081106001600160401b038211176111c757604052565b602081019081106001600160401b038211176111c757604052565b601f909101601f19168101906001600160401b038211908210176111c757604052565b6001600160401b0381116111c757601f01601f191660200190565b81601f8201121561011b578035906112ba82611288565b926112c86040519485611265565b8284526020838301011161011b57816000926020809301838601378301015290565b60243590811515820361011b57565b3590811515820361011b57565b35906001600160a01b038216820361011b57565b6001600160401b0381116111c75760051b60200190565b9080601f8301121561011b57602090823561134b8161131a565b936113596040519586611265565b81855260208086019260051b82010192831161011b57602001905b828210611382575050505090565b81358152908301908301611374565b91909160808184031261011b5760409081516113ac816111f9565b813581529384906020906001600160401b03908285013582811161011b57816113d6918701611331565b838501528585013582811161011b57816113f1918701611331565b86850152606094858101359083821161011b57019181601f8401121561011b5782359161141d8361131a565b9761142a8151998a611265565b83895285808a019460051b8601019482861161011b57868101945b8686106114585750505050505050500152565b853585811161011b5782018a601f19828703011261011b5783519061147c82611214565b6114878a8201611306565b82528481013587811161011b57868b6114a2928401016112a3565b8a8301528b8101359087821161011b570185603f8201121561011b57808a8d920135866114ce8261131a565b936114db82519586611265565b8285528d850192028301019188831161011b57918e959391888e969401905b8282106115165750505083945086820152815201950194611445565b91939550919395828a031261011b578c8f91895161153381611214565b8435815282850135838201528a8501358b8201528152019101918c94928f9694926114fa565b81601f8201121561011b578035916020916115738461131a565b936040926115846040519687611265565b818652848087019260051b8401019381851161011b57858401925b8584106115b0575050505050505090565b6001600160401b03843581811161011b5786019161010080601f19858803011261011b578451906115e0826111dd565b8a8501358252858501358b83015260609081860135878401526080918287013586811161011b57898e611615928a0101611391565b9084015260a091828701359084015260c0918287013586811161011b57898e611640928a01016112a3565b9084015260e0918287013586811161011b57898e611660928a01016112a3565b9084015285013593841161011b5761167f878c809796819701016112a3565b9082015281520193019261159f565b91909161014090818185031261011b57604051916001600160401b03908301818111848210176111c757604052829482358452602083013560208501526040830135604085015260608301356060850152608083013582811161011b57816116f7918501611391565b608085015260a083013582811161011b57816117149185016112a3565b60a085015260c083013582811161011b57816117319185016112a3565b60c085015260e083013591821161011b5761174d9183016112a3565b60e08301526101006117608183016112f9565b908301526117726101208092016112f9565b910152565b60005b83811061178a5750506000910152565b818101518382015260200161177a565b906020916117b381518092818552858086019101611777565b601f01601f1916010190565b919082039182116117cc57565b634e487b7160e01b600052601160045260246000fd5b919082018092116117cc57565b90919280156118a257600083815282602052604092838220868352602052838220549160018060ff1b0380841190811561187b575b5061186a579282611862928660209661184d856000805160206139508339815191529a986117e2565b928a825288528181208b8252885220556117e2565b9051908152a3565b84516329be7c4760e11b8152600490fd5b8481039150811161188e57841138611824565b634e487b7160e01b82526011600452602482fd5b50505050565b6020906118c2928260405194838680955193849201611777565b82019081520301902090565b604051906118db826111ac565b60006080838281528260208201528260408201528260608201520152565b600160ff1b81146117cc5760000390565b8051156119175760200190565b634e487b7160e01b600052603260045260246000fd5b80518210156119175760209160051b010190565b919082604091031261011b5760208251920151801515810361011b5790565b604090604051916119708361122f565b6001835282916000805b6020808210156119b157845160209291611993826111f9565b8482528481830152846060808985015283015282890101520161197a565b50505091925050565b602080820190808352835180925260409283810182858560051b8401019601946000906000935b8685106119f357505050505050505090565b9091929394959697603f198282030185528689516080908184019181518552838201518486015286820151928188870152835180915260a090858288019501928a925b828410611a635750505050509060019383926060809101519101529a0195019501939695949291906119e1565b84518051885280890151888a0152808c01518c89015260608082015190890152820151878301528e979681019690940193600190930192611a36565b919492939485518086109586600014611e725780915b8715611e6b575b611ac68184612507565b9460019687611ad583896118a8565b0154610e675760608b018051611aeb848a6118a8565b54101561048b5760409687519b611b018d61122f565b8a8d5260005b602080821015611b2957908e60209282611b1f6118ce565b9201015201611b07565b50509091929395979a98809c95979a9d8c9a60209b8c988984019485519087600014611e635783860151925b8815611e59576000925b8588019d8e948551611b70906118f9565b908c60001497611bd897611c0099611e5057611b8c90516118f9565b935b8a5195611b9a876111ac565b86528501528884015260608301526080820152611bb68261190a565b52611bc08161190a565b508a51855192611bcf8461124a565b6000845261258c565b9260808501518351809581948293631155a0c560e31b8452876004850152604484019061179a565b602483019190915203916001600160a01b03165afa908115611e4557908e91600092600092611e24575b505015918215611e18575b5050611e0557611c4990519551928d6118a8565b8560005289528a6000209782895410611df457806000805160206139508339815191528b8e89946000528882528060002085600052825280600020611c8f8882546117e2565b9055836000528882528060002085600052825280600020549051908152a3611cb88289546117bf565b8855611dd1575b5051611ccb848b6118a8565b55875194611cd88661122f565b8a865260005b878110611dbb575092611db598969492611d7b928997956000805160206139308339815191529c9a60005281885289600020836000528852896000205491866000528852896000208360005288528d8a60002054908254920154928b5194611d45866111ac565b8552898501528a84015260608301526080820152611d628561190a565b52611d6c8461190a565b50611d75611960565b976118a8565b5492855194611d89866111f9565b8552840152838301526060820152611da08361190a565b52611daa8261190a565b5051918291826119ba565b0390a190565b8790611dc56118ce565b82828a01015201611cde565b8b87018054600083820393128184128116918413901516176117cc575538611cbf565b8b51632fd8225d60e21b8152600490fd5b5050505050505050505050505050600090565b51141590503880611c35565b611e3e935080919250903d10610466576104568183611265565b388f611c2a565b8e513d6000823e3d90fd5b50600093611b8e565b8487015192611b5f565b600092611b55565b5080611abc565b81611ab5565b90919280156118a2576000838152826020526040928382208683526020528382205491838310611edb5792826118629286602096611ec6856000805160206139508339815191529a986117bf565b928a825288528181208b8252885220556117bf565b8451632fd8225d60e21b8152600490fd5b929693909695919495156122ce57611f0a611f10919792949761265c565b9561265c565b95627a1200936000965b606084018051518910156122c157602089108015906122b6575b61228d5788611f43915161192d565b5195611f55604088015189519061281a565b1561225c579982918b611fb0611fbc9d878998978f8f8f918f9060405a9f0151908a5184106000906000146122475750611f8f848c61192d565b51935b81516000929082101561223057611fa9925061192d565b51936128cd565b92919e90985a906117bf565b81811061222257505060005b9c156121e9575060009a8b5b8a518110156121d757611fe7818961192d565b51611ff2828d61192d565b511415806121c2575b61200757600101611fd4565b5091939b90929495969798999a5060015b61218a5760005b60408a0151805182101561216c57908b8b6120548f8b908e8e61205b6120478960019b61192d565b519182519687809261192d565b519861192d565b51602082015160409092015160ff8b901b928984189284189081811061215c57506000915b8215612154575b8119811115612145575050600019905b80831061213d575b50808211612135575b50801561212e575b18958087036120c7575b505050505050500161201f565b60607f2d58d8af99c9759064693d6b4d2f61c2783fe9510d44ac6c68ecc6161eccc0ea916121068760406121209a8e8060a01b0390511698015161192d565b51906040519182526020820152886040820152a48b61192d565b52388b818f8b908e836120ba565b50886120b0565b9050386120a8565b91503861209f565b61214e916117e2565b90612097565b8c9250612087565b61216690826117bf565b91612080565b5050949997509594600191985099929199965b019697929497611f1a565b9499909695506001919897828060a09d96959d1b039051168187600080516020613970833981519152602060405160068152a461217f565b506121d18160408c0151612bb4565b15611ffb565b5091939b90929495969798999a612018565b909980929c965087600080516020613970833981519152602060019697989e9b878060a01b039051169460ff60405191168152a461217f565b61222b916117bf565b611fc8565b50506040519061223f8261124a565b8152936128cd565b604051906122548261124a565b815293611f92565b9398959760019198828060a01b039051168187600080516020613970833981519152602060405160058152a461217f565b50505050509050600092919350600080516020613970833981519152602060405160028152a490565b506161a88710611f34565b5050505050505091505090565b50509250509260005b60608401518051821015612325576060916001916001600160a01b03906122ff90839061192d565b5151168186600080516020613970833981519152602060405160078152a40190506122d7565b509092505050565b909496929599989397998660005282602052868961235f604097886000208360005260205288600020549e8f986137b2565b9d8e829f906124fe575b156124f557612377916117bf565b808410156124ef5750825b839d8185036124ab575b505050501561249d57600086815260208281528582208a835290528490208451908186016001600160401b038111838210176111c7578652888252602082018c81528154600160401b8110156111c7576001810180845581101561191757600192600052602060002090831b01925183555191015585600052602052826000208760005260205282600020549160001983019283116117cc5789612459917fae767eeb0c57abd46e2e0b422895ba3b89372fbd0510a58f00d996faf66f027d96851561247f575b506117e2565b9085600052602052826000208760005260205282600020558151908882526020820152a4565b88600052602052856000208a60005260205260008681205538612453565b506000985050505050505050565b7f6553a3b9ab6741bc5e9b4e7e7f100c91caf465f4f62ce4bac2ff4957bcd3bffa916080918a519182528660208301528a820152886060820152a38689388061238c565b92612382565b50506000612377565b50808211612369565b908082101561252e5760405191602083015260408201526040815261252b81611214565b90565b9060405191602083015260408201526040815261252b81611214565b916125869060405192839161256b602084019660608852608085019061179a565b9115156040840152606083015203601f198101835282611265565b51902090565b9291909260408051938491602096878401976000895246604086015260603060608701526125c860809760e0608089015261010088019061179a565b9260a09060a0880152601f1997888886030160c089015283808b5196878152019a01956000935b8685106126215750505050505050508361261591848461258697030160e0850152612899565b03908101835282611265565b875180518d52808701518d880152808301518d840152808201518d8301528301518c8401529a83019a8c9950968501966001909401936125ef565b8051156127f957805160121c1580159061280d575b6127f9576040908151906020916126b1816126a38582019463e3af37e360e01b8652866024840152604483019061179a565b03601f198101835282611265565b6000809281925190306207a120fa923d156127f1573d936126d185611288565b946126de83519687611265565b85523d838587013e5b156127de57835184019083858184019303126127da57848401516001600160401b03958682116127d657019282603f850112156127d357848401519261272c8461131a565b9661273984519889611265565b848852838789019560051b870101958287116127cf57848101955b8787106127675750505050505050505090565b86518381116127cb57820184605f820112156127cb578681015160609161278d82611288565b9261279a8a519485611265565b828452878184840101116127c7578c949284926127bc92878097019101611777565b815201960195612754565b8880fd5b8580fd5b8380fd5b80fd5b8480fd5b8280fd5b51925090506127ec8261124a565b815290565b6060936126e7565b506040516128068161124a565b6000815290565b506216e3605a1115612671565b818151116128925760005b815181101561288a5782612839828461192d565b515110156128825760005b8181106128545750600101612825565b61285e818461192d565b515161286a838561192d565b51511461287957600101612844565b50505050600090565b505050600090565b505050600190565b5050600090565b90815180825260208080930193019160005b8281106128b9575050505090565b8351855293810193928101926001016128ab565b9490979593929660609360018060a01b0392838551163b15612b9e576161a883108015612b91575b612b7d57602085019661291761290f8951518d51906117e2565b8451906117e2565b60121c612b68575a9751604080516318c2d6df60e31b602082015260e06024820152909d909c8d959261294e61010488018e612899565b9260231993848982030160448a015261296691612899565b838882030160648901526129799161179a565b8287820301608488015261298c9161179a565b908582030160a486015261299f9161179a565b9160c484015260e48301520394601f19958681018a526129bf908a611265565b5a6129c9916117bf565b9080821015612b5557906129dc916117bf565b915a926202ab98841115612b5557620249ef1984019384116117cc57623d0900808511612b4d575b50808411612b45575b506161a88310612b335751166000968792839260208351930191fa913d9215612b27578351916005928060051b9080820460201490151715612b13578801808911612b13578403612afa57612a6184611288565b93612a6e89519586611265565b808552612a7a81611288565b908360208701920136833788823e5194602089860151961490811591612b07575b50612afa5750612ab6612aad8561131a565b97519788611265565b838752612ac28461131a565b01366020880137845b838110612add57505050506001929190565b806060600192841b85010151612af3828a61192d565b5201612acb565b9596506004949350505050565b90505185141538612a9b565b634e487b7160e01b88526011600452602488fd5b50939450600392915050565b50505094505050905060009190600290565b925038612a0d565b935038612a04565b5050505094505050905060009190600290565b50505050505094505050905060009190600290565b505050505094505050905060009190600290565b506216e3605a11156128f5565b5050505050505050915050600090606090600190565b9060005b82518110156128825781612bcc828561192d565b51511461288a57600101612bb8565b919091600083820193841291129080158216911516176117cc57565b60001981146117cc5760010190565b949693929092875195602089015193848814801561350d575b61048b57878314928584159182613502575b505061047957612c418589612507565b92156134fb5784985b6001612c5683866118a8565b0154610e6757602060408c0151511161067757602060608c015151116106775760005b60408c015151811015612cc65760005b818110612c995750600101612c79565b8c612cb7826040612cad868286015161192d565b515193015161192d565b51511461048b57600101612c89565b50909294969899919395979960e0830151612ce185886118a8565b54101561048b57608083015151156134ac57604083015151158061349f575b61048b576040612d49612d2160e0860151838701516060880151918b61258c565b9360808601518351809681948293631155a0c560e31b8452876004850152604484019061179a565b602483019190915203916001600160a01b03165afa8060009360009261347b575b50612d7f575060009a50505050505050505050565b15918215613470575b50506134635760005b6040820151805182101561308b5781612da99161192d565b51908151612dce612dc36020850151604086015190612bdb565b606085015190612bdb565b61048b576020830151600081121561301c5750612ded818d8c896138e6565b612dfa60208501516118f9565b11612f6f57612e0c60208401516118f9565b8c60005286602052604060002082600052602052612e3060406000209182546117bf565b90558b60005285602052604060002081600052602052808c6000805160206139508339815191526020604060002054604051908152a35b60408301516000811215612fad5750612e82818a8c896138e6565b612e8f60408501516118f9565b11612f6f57612ea160408401516118f9565b8960005286602052604060002082600052602052612ec560406000209182546117bf565b9055886000528560205260406000208160005260205280896000805160206139508339815191526020604060002054604051908152a35b612f0688886118a8565b906000526020526040600020606083015160008112600014612f8157508054612f3260608501516118f9565b8110612f6f576001608085612f58612f6794612f526060869a01516118f9565b906117bf565b85555b01519201918254612bdb565b905501612d91565b604051632fd8225d60e21b8152600490fd5b600160808195836000612f679513612f9a575b50612f5b565b612fa59086546117e2565b855538612f94565b60008113612fbc575b50612efc565b8960005286602052604060002082600052602052612fe060406000209182546117e2565b9055886000528560205260406000208160005260205280896000805160206139508339815191526020604060002054604051908152a338612fb6565b6000811361302b575b50612e67565b8c6000528660205260406000208260005260205261304f60406000209182546117e2565b90558b60005285602052604060002081600052602052808c6000805160206139508339815191526020604060002054604051908152a338613025565b50509497909693955091909160e08501516130a688846118a8565b55604085015151926000945b6060870151805187101561316d57866130ca9161192d565b51976000998a5b60408a01518051821015613103576130ea828d9261192d565b5151146130fa575b6001016130d1565b60019b506130f2565b50509599909691979a929860005b8c8482106131465750505015613132575b60010194969098959793976130b2565b9761313e600191612bf7565b989050613122565b6131558260608593015161192d565b5114613164575b600101613111565b6001925061315c565b50909193959796989294506131818661131a565b9561318f6040519788611265565b80875261319e601f199161131a565b0160005b81811061344c575050600096875b60408a0151805182101561327757906131cb8160019361192d565b51516131d78d8a6118a8565b8160005260205260406000208860005286602052604060002082600052602052604060002054886000528760205260406000208360005260205260406000205490858354930154936040516080526132306080516111ac565b6080515260206080510152604060805101526060608051015260808051015261327061325b8b612bf7565b9a608051613269828d61192d565b528a61192d565b50016131b0565b50509795919496929098936000955b606088015180518810156133d5578761329e9161192d565b519860009a8b5b60408b015180518210156132d7576132be828e9261192d565b5151146132ce575b6001016132a5565b60019c506132c6565b50509b97919995909a8b889160005b898d8783106133a557505050613399579161330761338d92600195946118a8565b886000526020526040600020856000528c60205260406000208960005260205260406000205490876000528d60205260406000208a600052602052604060002054868254920154926040519b61335c8d6111ac565b8c5260208c015260408b015260608a0152608089015261337b81612bf7565b97613386828961192d565b528661192d565b505b0195999897613286565b5050945060019061338f565b8294506133b992919395506060015161192d565b51146133cc575b60010188918d916132e6565b600191506133c0565b5050945092509050613444949350613404600080516020613930833981519152966133fe611960565b956118a8565b549160405193613413856111f9565b845260208401526040830152606082015261342d8261190a565b526134378161190a565b50604051918291826119ba565b0390a1600190565b6020906134576118ce565b82828b010152016131a2565b5060009750505050505050565b141590503880612d88565b909350613497915060403d604011610466576104568183611265565b909238612d6a565b5060608301515115612d00565b60405162461bcd60e51b815260206004820152602160248201527f5369676e617475726520726571756972656420666f7220736574746c656d656e6044820152601d60fa1b6064820152608490fd5b8798612c4a565b141590508538612c31565b5084881015612c1f565b60608101613525815161355c565b6040830151036105ef5751516080820151036105ef576135558160e060c0620100009401515191015151906117e2565b1161067757565b906040908183019081515190602094858101928351510361186a5760808451511161375f576060926060820193878551511161374e5760015b865180518210156135f65760001982018281116135e1576135b59161192d565b516135c182895161192d565b5111156135d057600101613595565b87516329be7c4760e11b8152600490fd5b60246000634e487b7160e01b81526011600452fd5b5050929693613629959192969461363f86519788958387019a848c525189880152516080606088015260c0870190612899565b935193603f199485878303016080880152612899565b9151928483030160a085015282519182815281810182808560051b8401019501966000906000935b8685106136aa5750505050505050613688925003601f198101845283611265565b6202c00082511161369a575051902090565b5163e217c62b60e01b8152600490fd5b9193959750919395601f1982820301855286895160018060a01b0381511683528b6136e08383015187858701528786019061179a565b910151928c8183039101528b8280855193848152019401918688925b828410613722575050505050806001929a01950195019290918a97959298969498613667565b95868597600195979496518051845285810151868501520151908201520194019201899291868e6136fc565b865163e217c62b60e01b8152600490fd5b845163e217c62b60e01b8152600490fd5b959391949290946040519560208701978852151560f81b604087015260418601526061850152608184015260a183015260c182015260c18152612586816111dd565b9092919060ff1660028111613886576001811461387b57602091901590811561386d576318160ddd60e01b915b1561384657506040519082820152600481526137fa8161122f565b818101938480925191617530fa915191153d811561383a575b5061383257811515806138235790565b506001600160ff1b0382111590565b600091508190565b60209150141538613813565b604051918383015260018060601b031660248201526024815261386881611214565b6137fa565b63bd85b03960e01b916137df565b505090506001908190565b50509050600090600090565b9291612586916040519384926138c860208501976001895246604087015230606087015260e0608087015261010086019061179a565b9260a085015260c084015260e083015203601f198101835282611265565b92906000938385526020526040842082855260205260408420549284526020526040832090835260205260408220549081811160001461392a5761252b92506117bf565b50509056fe784575545124eef27f8fcc1472fb5f2483beb9cc23e6fe3dbf588eb7bd501f7cab4d21442efe134c3d0c087e2b687e9593a1c09176f498d37873210cde052c450d4ecdaa4cfd057225c8238624fe92e8965ba17a3152e29b410f9f105647e3d3a26469706673582212204fc5d66aece18e962eb4d107719e0e9cd69472deaa5713f4a3536cacfb880aa364736f6c63430008180033",
  "linkReferences": {},
  "deployedLinkReferences": {},
  "immutableReferences": {
    "library_deploy_address": [
      {
        "length": 32,
        "start": 7
      }
    ]
  }
}