{
  "_format": "hh-sol-artifact-1",
  "contractName": "Account",
  "sourceName": "contracts/Account.sol",
  "abi": [
    {
      "inputs": [],
      "name": "E2",
      "type": "error"
    },
    {
      "inputs": [],
      "name": "E3",
      "type": "error"
    },
    {
      "inputs": [],
      "name": "E4",
      "type": "error"
    },
    {
      "inputs": [],
      "name": "E5",
      "type": "error"
    },
    {
      "inputs": [],
      "name": "E6",
      "type": "error"
    },
    {
      "inputs": [],
      "name": "E7",
      "type": "error"
    },
    {
      "inputs": [],
      "name": "E8",
      "type": "error"
    },
    {
      "inputs": [],
      "name": "E9",
      "type": "error"
    },
    {
      "anonymous": false,
      "inputs": [
        {
          "components": [
            {
              "internalType": "bytes32",
              "name": "left",
              "type": "bytes32"
            },
            {
              "internalType": "bytes32",
              "name": "right",
              "type": "bytes32"
            },
            {
              "internalType": "uint256",
              "name": "tokenId",
              "type": "uint256"
            },
            {
              "internalType": "uint256",
              "name": "leftReserve",
              "type": "uint256"
            },
            {
              "internalType": "uint256",
              "name": "rightReserve",
              "type": "uint256"
            },
            {
              "internalType": "uint256",
              "name": "collateral",
              "type": "uint256"
            },
            {
              "internalType": "int256",
              "name": "ondelta",
              "type": "int256"
            }
          ],
          "indexed": false,
          "internalType": "struct Settled[]",
          "name": "settled",
          "type": "tuple[]"
        }
      ],
      "name": "AccountSettled",
      "type": "event"
    },
    {
      "anonymous": false,
      "inputs": [
        {
          "indexed": true,
          "internalType": "bytes32",
          "name": "debtor",
          "type": "bytes32"
        },
        {
          "indexed": true,
          "internalType": "bytes32",
          "name": "creditor",
          "type": "bytes32"
        },
        {
          "indexed": true,
          "internalType": "uint256",
          "name": "tokenId",
          "type": "uint256"
        },
        {
          "indexed": false,
          "internalType": "uint256",
          "name": "amount",
          "type": "uint256"
        },
        {
          "indexed": false,
          "internalType": "uint256",
          "name": "debtIndex",
          "type": "uint256"
        }
      ],
      "name": "DebtCreated",
      "type": "event"
    },
    {
      "anonymous": false,
      "inputs": [
        {
          "indexed": true,
          "internalType": "bytes32",
          "name": "debtor",
          "type": "bytes32"
        },
        {
          "indexed": true,
          "internalType": "bytes32",
          "name": "creditor",
          "type": "bytes32"
        },
        {
          "indexed": true,
          "internalType": "uint256",
          "name": "tokenId",
          "type": "uint256"
        },
        {
          "indexed": false,
          "internalType": "uint256",
          "name": "amountForgiven",
          "type": "uint256"
        },
        {
          "indexed": false,
          "internalType": "uint256",
          "name": "debtIndex",
          "type": "uint256"
        }
      ],
      "name": "DebtForgiven",
      "type": "event"
    },
    {
      "anonymous": false,
      "inputs": [
        {
          "indexed": true,
          "internalType": "bytes32",
          "name": "sender",
          "type": "bytes32"
        },
        {
          "indexed": true,
          "internalType": "bytes32",
          "name": "counterentity",
          "type": "bytes32"
        },
        {
          "indexed": true,
          "internalType": "uint256",
          "name": "disputeNonce",
          "type": "uint256"
        },
        {
          "indexed": false,
          "internalType": "bytes",
          "name": "initialArguments",
          "type": "bytes"
        }
      ],
      "name": "DisputeStarted",
      "type": "event"
    },
    {
      "anonymous": false,
      "inputs": [
        {
          "indexed": true,
          "internalType": "bytes32",
          "name": "insured",
          "type": "bytes32"
        },
        {
          "indexed": true,
          "internalType": "bytes32",
          "name": "insurer",
          "type": "bytes32"
        },
        {
          "indexed": true,
          "internalType": "uint256",
          "name": "tokenId",
          "type": "uint256"
        },
        {
          "indexed": false,
          "internalType": "uint256",
          "name": "limit",
          "type": "uint256"
        },
        {
          "indexed": false,
          "internalType": "uint256",
          "name": "expiresAt",
          "type": "uint256"
        }
      ],
      "name": "InsuranceRegistered",
      "type": "event"
    },
    {
      "anonymous": false,
      "inputs": [
        {
          "indexed": true,
          "internalType": "bytes32",
          "name": "entity",
          "type": "bytes32"
        },
        {
          "indexed": true,
          "internalType": "uint256",
          "name": "tokenId",
          "type": "uint256"
        },
        {
          "indexed": false,
          "internalType": "uint256",
          "name": "newBalance",
          "type": "uint256"
        }
      ],
      "name": "ReserveUpdated",
      "type": "event"
    },
    {
      "inputs": [
        {
          "internalType": "bytes32",
          "name": "e1",
          "type": "bytes32"
        },
        {
          "internalType": "bytes32",
          "name": "e2",
          "type": "bytes32"
        }
      ],
      "name": "accountKey",
      "outputs": [
        {
          "internalType": "bytes",
          "name": "",
          "type": "bytes"
        }
      ],
      "stateMutability": "pure",
      "type": "function"
    },
    {
      "inputs": [
        {
          "internalType": "bytes32",
          "name": "domainSep",
          "type": "bytes32"
        },
        {
          "internalType": "uint256",
          "name": "chainId",
          "type": "uint256"
        },
        {
          "internalType": "address",
          "name": "depository",
          "type": "address"
        },
        {
          "internalType": "bytes",
          "name": "encodedBatch",
          "type": "bytes"
        },
        {
          "internalType": "uint256",
          "name": "nonce",
          "type": "uint256"
        }
      ],
      "name": "computeBatchHankoHash",
      "outputs": [
        {
          "internalType": "bytes32",
          "name": "",
          "type": "bytes32"
        }
      ],
      "stateMutability": "pure",
      "type": "function"
    },
    {
      "inputs": [
        {
          "internalType": "uint256",
          "name": "cooperativeNonce",
          "type": "uint256"
        },
        {
          "internalType": "uint256",
          "name": "disputeNonce",
          "type": "uint256"
        },
        {
          "internalType": "bool",
          "name": "startedByLeft",
          "type": "bool"
        },
        {
          "internalType": "uint256",
          "name": "timeout",
          "type": "uint256"
        },
        {
          "internalType": "bytes32",
          "name": "proofbodyHash",
          "type": "bytes32"
        },
        {
          "internalType": "bytes",
          "name": "initialArguments",
          "type": "bytes"
        }
      ],
      "name": "encodeDisputeHash",
      "outputs": [
        {
          "internalType": "bytes32",
          "name": "",
          "type": "bytes32"
        }
      ],
      "stateMutability": "pure",
      "type": "function"
    },
    {
      "inputs": [
        {
          "internalType": "uint8",
          "name": "tokenType",
          "type": "uint8"
        },
        {
          "internalType": "address",
          "name": "contractAddress",
          "type": "address"
        },
        {
          "internalType": "uint96",
          "name": "externalTokenId",
          "type": "uint96"
        }
      ],
      "name": "packTokenReference",
      "outputs": [
        {
          "internalType": "bytes32",
          "name": "",
          "type": "bytes32"
        }
      ],
      "stateMutability": "pure",
      "type": "function"
    },
    {
      "inputs": [
        {
          "internalType": "bytes32",
          "name": "packed",
          "type": "bytes32"
        }
      ],
      "name": "unpackTokenReference",
      "outputs": [
        {
          "internalType": "address",
          "name": "contractAddress",
          "type": "address"
        },
        {
          "internalType": "uint96",
          "name": "externalTokenId",
          "type": "uint96"
        },
        {
          "internalType": "uint8",
          "name": "tokenType",
          "type": "uint8"
        }
      ],
      "stateMutability": "pure",
      "type": "function"
    },
    {
      "inputs": [
        {
          "internalType": "bytes",
          "name": "ch_key",
          "type": "bytes"
        },
        {
          "internalType": "uint256",
          "name": "cooperativeNonce",
          "type": "uint256"
        },
        {
          "internalType": "bytes32",
          "name": "proofbodyHash",
          "type": "bytes32"
        },
        {
          "internalType": "bytes32",
          "name": "initialArgumentsHash",
          "type": "bytes32"
        },
        {
          "internalType": "bytes",
          "name": "sig",
          "type": "bytes"
        },
        {
          "internalType": "bytes32",
          "name": "expectedSigner",
          "type": "bytes32"
        }
      ],
      "name": "verifyCooperativeProofSig",
      "outputs": [
        {
          "internalType": "bool",
          "name": "",
          "type": "bool"
        }
      ],
      "stateMutability": "pure",
      "type": "function"
    },
    {
      "inputs": [
        {
          "internalType": "bytes",
          "name": "ch_key",
          "type": "bytes"
        },
        {
          "internalType": "uint256",
          "name": "cooperativeNonce",
          "type": "uint256"
        },
        {
          "internalType": "uint256",
          "name": "disputeNonce",
          "type": "uint256"
        },
        {
          "internalType": "bytes32",
          "name": "proofbodyHash",
          "type": "bytes32"
        },
        {
          "internalType": "bytes",
          "name": "sig",
          "type": "bytes"
        },
        {
          "internalType": "bytes32",
          "name": "expectedSigner",
          "type": "bytes32"
        }
      ],
      "name": "verifyDisputeProofSig",
      "outputs": [
        {
          "internalType": "bool",
          "name": "",
          "type": "bool"
        }
      ],
      "stateMutability": "pure",
      "type": "function"
    },
    {
      "inputs": [
        {
          "internalType": "bytes",
          "name": "ch_key",
          "type": "bytes"
        },
        {
          "internalType": "uint256",
          "name": "finalCooperativeNonce",
          "type": "uint256"
        },
        {
          "internalType": "uint256",
          "name": "initialDisputeNonce",
          "type": "uint256"
        },
        {
          "internalType": "uint256",
          "name": "finalDisputeNonce",
          "type": "uint256"
        },
        {
          "internalType": "bytes",
          "name": "sig",
          "type": "bytes"
        },
        {
          "internalType": "bytes32",
          "name": "expectedSigner",
          "type": "bytes32"
        }
      ],
      "name": "verifyFinalDisputeProofSig",
      "outputs": [
        {
          "internalType": "bool",
          "name": "",
          "type": "bool"
        }
      ],
      "stateMutability": "pure",
      "type": "function"
    },
    {
      "inputs": [
        {
          "internalType": "bytes",
          "name": "ch_key",
          "type": "bytes"
        },
        {
          "internalType": "uint256",
          "name": "cooperativeNonce",
          "type": "uint256"
        },
        {
          "components": [
            {
              "internalType": "uint256",
              "name": "tokenId",
              "type": "uint256"
            },
            {
              "internalType": "int256",
              "name": "leftDiff",
              "type": "int256"
            },
            {
              "internalType": "int256",
              "name": "rightDiff",
              "type": "int256"
            },
            {
              "internalType": "int256",
              "name": "collateralDiff",
              "type": "int256"
            },
            {
              "internalType": "int256",
              "name": "ondeltaDiff",
              "type": "int256"
            }
          ],
          "internalType": "struct SettlementDiff[]",
          "name": "diffs",
          "type": "tuple[]"
        },
        {
          "internalType": "uint256[]",
          "name": "forgiveDebtsInTokenIds",
          "type": "uint256[]"
        },
        {
          "components": [
            {
              "internalType": "bytes32",
              "name": "insured",
              "type": "bytes32"
            },
            {
              "internalType": "bytes32",
              "name": "insurer",
              "type": "bytes32"
            },
            {
              "internalType": "uint256",
              "name": "tokenId",
              "type": "uint256"
            },
            {
              "internalType": "uint256",
              "name": "limit",
              "type": "uint256"
            },
            {
              "internalType": "uint256",
              "name": "expiresAt",
              "type": "uint256"
            }
          ],
          "internalType": "struct InsuranceRegistration[]",
          "name": "insuranceRegs",
          "type": "tuple[]"
        },
        {
          "internalType": "bytes",
          "name": "sig",
          "type": "bytes"
        },
        {
          "internalType": "bytes32",
          "name": "expectedSigner",
          "type": "bytes32"
        }
      ],
      "name": "verifySettlementSig",
      "outputs": [
        {
          "internalType": "bool",
          "name": "",
          "type": "bool"
        }
      ],
      "stateMutability": "pure",
      "type": "function"
    }
  ],
  "bytecode": "0x6080806040523461001c576117a690816100228239308160070152f35b600080fdfe6080604052307f000000000000000000000000000000000000000000000000000000000000000014600436101561003557600080fd5b60003560e01c90816325e7af89146100f75781633c2934c1146100f25781633d0627d0146100ed57816359516e5f146100e857816381aaac07146100e357816392cf61e5146100de578163b3f1ff7d146100d4578163bb2c250c146100cf578163d017d699146100c457508063e9b70ad1146100bf5763f176e326146100ba57600080fd5b610a3c565b61097a565b156107ee575b600080fd5b61077a565b1561066057600080fd5b61062f565b610580565b6103c5565b610342565b6102de565b610214565b634e487b7160e01b600052604160045260246000fd5b60a081019081106001600160401b0382111761012d57604052565b6100fc565b60e081019081106001600160401b0382111761012d57604052565b601f909101601f19168101906001600160401b0382119082101761012d57604052565b6040519060c082016001600160401b0381118382101761012d57604052565b6040519061012082016001600160401b0381118382101761012d57604052565b604051906101bc82610132565b565b81601f820112156100ca578035906001600160401b03821161012d57604051926101f2601f8401601f19166020018561014d565b828452602083830101116100ca57816000926020809301838601378301015290565b60c03660031901126100ca576001600160401b036004358181116100ca576102409036906004016101be565b6084359182116100ca576102b761025e6102bc9336906004016101be565b916040516102af8161028960208201946102788660029052565b60a0604084015260c0830190610a17565b6024356060830152604435608083015260643560a083015203601f19810183528261014d565b519020611363565b6113b8565b60405160a4356001600160a01b039081169216919091148152602090f35b0390f35b60c03660031901126100ca576001600160401b036004358181116100ca5761030a9036906004016101be565b6084359182116100ca576102b76103286102bc9336906004016101be565b916040516102af8161028960208201946102788660039052565b60c03660031901126100ca5760443580151581036100ca5760a4356001600160401b0381116100ca5760209161037f6103939236906004016101be565b906084359060643590602435600435610a6d565b604051908152f35b604435906001600160a01b03821682036100ca57565b35906001600160a01b03821682036100ca57565b60a03660031901126100ca576103d961039b565b606435906001600160401b0382116100ca576103fc6102da9236906004016101be565b6104566094604051809360208201956004358752602435604084015260018060601b03199060601b16606083015261043e8151809260206074860191016109f4565b8101608435607482015203607481018452018261014d565b5190206040519081529081906020820190565b6001600160401b03811161012d5760051b60200190565b81601f820112156100ca57803590602061049983610469565b9360406104a9604051968761014d565b848652828601918360a0809702860101948186116100ca578401925b8584106104d6575050505050505090565b86848303126100ca5784879184516104ed81610112565b863581528287013583820152858701358682015260608088013590820152608080880135908201528152019301926104c5565b9080601f830112156100ca57602090823561053a81610469565b93610548604051958661014d565b81855260208086019260051b8201019283116100ca57602001905b828210610571575050505090565b81358152908301908301610563565b60e03660031901126100ca576001600160401b03600480358281116100ca576105ac90369083016101be565b6044358381116100ca576105c39036908401610480565b6064358481116100ca576105da9036908501610520565b6084358581116100ca576105f19036908601610480565b9060a4359586116100ca5761060f61061d956102da973691016101be565b9260c4359460243590610c24565b60405191829182901515815260200190565b60203660031901126100ca5760606004356040519080831c8252600180841b038116602083015260f81c6040820152f35b6080806003193601126100ca576001600160401b039060249060448035908482116100ca57366023830112156100ca5781600401359061069f82610469565b9560406106af604051988961014d565b8388526020958760208a019560051b870101953687116100ca57888101955b8787106106e9576102da61061d6064358d8d35600435610c82565b86358581116100ca57820160c060231982360301126100ca5761070a610170565b918b8201358352878201358b8401526064820135868401526084820135606084015260a48201358781116100ca57610747908d36918501016101be565b8584015260c4820135928784116100ca5761076a8c94938e8695369201016101be565b60a08201528152019601956106ce565b60603660031901126100ca5760043560ff811681036100ca576024356001600160a01b03811681036100ca576044356001600160601b038116908190036100ca5760405160f89390931b6001600160f81b03191660609290921b6001600160601b0319169190911717815280602081010390f35b60a0806003193601126100ca5760849060248235606460446001600160401b038084116100ca57366023850112156100ca5783600401359261082f84610469565b96604098610840604051998a61014d565b8589526020998860208b019760051b890101973689116100ca57898101975b89891061087d576102da61061d8d6064356044358f35600435610e19565b88358781116100ca57820161012060231982360301126100ca578d916108a161018f565b928d83013584528a83013590840152878201358981116100ca576108ca908e3691850101610480565b85840152858201358981116100ca576108e8908e3691850101610520565b606084015260a48201358981116100ca57610908908e3691850101610480565b608084015260c48201358981116100ca57610928908e36918501016101be565b8784015261093860e483016103b1565b60c0840152610104820135928984116100ca578f9384938f610124926109629136918401016101be565b60e0840152013561010082015281520198019761085f565b60c03660031901126100ca576001600160401b036004358181116100ca576109a69036906004016101be565b6084359182116100ca576102b76109c46102bc9336906004016101be565b916040516102af816109e66020820194606435906044359060243590886112f1565b03601f19810183528261014d565b60005b838110610a075750506000910152565b81810151838201526020016109f7565b90602091610a30815180928185528580860191016109f4565b601f01601f1916010190565b60403660031901126100ca576102da610a59602435600435611320565b604051918291602083526020830190610a17565b949391929093604051610a9d60208281610a9081830196878151938492016109f4565b810103808452018261014d565b5190209260405194602086019687526040860152151560f81b60608501526061840152608183015260a182015260a18152610ad781610132565b51902090565b90815180825260208080930193019160005b828110610afd575050505090565b835185529381019392810192600101610aef565b90815180825260208080930193019160005b828110610b31575050505090565b835180518652808301518684015260408082015190870152606080820151908701526080908101519086015260a09094019392810192600101610b23565b9391909594929560008552610b9060209160c08388015260c0870190610a17565b9060409260408701526060868303606088015281808a5194858152019901936000915b848310610be75750505050505084610bd69184610be49697036080860152610add565b9160a0818403910152610b11565b90565b855180518c52808501518c860152808301518c840152808201518c830152608090810151908c015260a0909a019994830194600190920191610bb3565b91906102af906109e6610c4797966102b796604051958694602086019889610b6f565b6001600160a01b0390811691161490565b8051821015610c6c5760209160051b010190565b634e487b7160e01b600052603260045260246000fd5b9093919260019485946000965b610c9d575b50505050909150565b8051871015610e1457610cb08782610c58565b51610cbc815184611320565b610cc686826114ff565b549060209283810192835110610e0257825192604092610d0f610d048585019687516102af606088019a6109e68c518b519485938401968a886112f1565b6080850151906113b8565b8351610d3190610d25906001600160a01b031681565b6001600160a01b031690565b6001600160a01b0390911603610df1578b610d4c8b836114ff565b0154610de057928b9c949288928d9c9d97958c8c4390610d6b9161153b565b925187518551881099518560a088019b8c5193610d8795610a6d565b8a610d9283856114ff565b0155610d9d916114ff565b6002015551925193519051610db381928261154d565b037fa0f8bb3fdedd90066dd6f9a942e9f269c1c16e04950ff90c158175b032e35b0f91a401969594610c8f565b8351639ce22bbb60e01b8152600490fd5b8351631bd18a1960e31b8152600490fd5b604051633485c51360e21b8152600490fd5b610c94565b60019594600094929390875b610e32575b505050505050565b80518610156112ec57610e458682610c58565b5195865160208801519788821480156112e2575b610e0257818714918215806112d8575b6112c65789610e798d9b83611320565b93156112c057805b60a0840180515115158061128f575b61121c575b50508a6000905b610ffc575b50918a9493918a9360408301515180610ed6575b5050505090610ec3916114ff565b610ecd81546116b7565b90550195610e25565b610edf906115a7565b9260008b8b8a5b610f34575b505050505050907f11e95b31ceefa95a59034392a3de4f79c9fe7d7e441d3746a1f82e64f7a32bcc610f27610ec394936040519182918261163a565b0390a19091388080610eb5565b909192949698999395976040860151908151851015610fec57509187610f91610f7e93610f7e8a610f8a8f610f7e610f83610f718d8f9e9d610c58565b5151809b819882956114ff565b61157a565b978961157a565b549561157a565b5485825492015492610fa16101af565b948b86528a602087015260408601526060850152608084015260a083015260c0820152610fce8289610c58565b52610fd98188610c58565b50019181979694928b8b8f989694610ee6565b9896505083999896508190610eeb565b9a5060408301518d81518d101561121557508b61101891610c58565b519a8b519b61103e611033602083015160408401519061155e565b60608301519061155e565b610e02578e8d8b86602085015192600084126000146111e75792506110679350610f7e9161157a565b546110756020830151611589565b11611165578e8a6110a38f61109b90610f7e896110956020890151611589565b9561157a565b91825461159a565b90555b604082015160008112156111a85750506110c48d610f7e858d61157a565b546110d26040830151611589565b11611165576111028f9d8b6110f561109b83610f7e8961109560408a0151611589565b90555b610f7e8b896114ff565b9c6060820151600081126000146111775750508c54916111256060830151611589565b8310611165578f9d61115c8f60808561114d83986111476060869a0151611589565b9061159a565b85555b0151920191825461155e565b90550190610e9c565b604051632fd8225d60e21b8152600490fd5b9d61115c829f92608081969495866000849813611195575b50611150565b6111a090865461153b565b85553861118f565b9d8e611102929f86838f926000126111c4575b505050506110f8565b610f7e6111d4926111dc9461157a565b91825461153b565b9055388c86836111bb565b600084136111f9575b505050506110a6565b610f7e6111d4926112099461157a565b9055388b8f87906111f0565b9b50610ea1565b61126291929c5061125a866112318e826114ff565b546102af6040890151916109e660608b015160808c015190604051958694602086019889610b6f565b9051906113b8565b6001600160a01b0391821691160361127d578b993880610e95565b604051631bd18a1960e31b8152600490fd5b50604085015151158015906112b2575b80610e9057506080850151511515610e90565b50606085015151151561129f565b81610e81565b604051633c4117f160e21b8152600490fd5b5089881415610e69565b5088821015610e59565b610e2a565b90926113116080939695946001845260a0602085015260a0840190610a17565b95604083015260608201520152565b8181101561134757604080516020810192909252810191909152610be481606081016109e6565b604080516020810193909352820152610be481606081016109e6565b6040517b0ca2ba3432b932bab69029b4b3b732b21026b2b9b9b0b3b29d05199960211b60208201908152603c80830193909352918152606081016001600160401b0381118282101761012d5760405251902090565b9060418151036114ba576020810151916060604083015192015160001a906fa2a8918ca85bafe22016d0b997e4df60600160ff1b03831161146a57611436600093602095601b85148015611460575b611410906116c6565b604051948594859094939260ff6060936080840197845216602083015260408201520152565b838052039060015afa1561145b57600051610be46001600160a01b0382161515611729565b61171d565b50601c8514611407565b60405162461bcd60e51b815260206004820152602260248201527f45434453413a20696e76616c6964207369676e6174757265202773272076616c604482015261756560f01b6064820152608490fd5b60405162461bcd60e51b815260206004820152601f60248201527f45434453413a20696e76616c6964207369676e6174757265206c656e677468006044820152606490fd5b6020906115199282604051948386809551938492016109f4565b82019081520301902090565b634e487b7160e01b600052601160045260246000fd5b9190820180921161154857565b611525565b906020610be4928181520190610a17565b9190916000838201938412911290801582169115161761154857565b90600052602052604060002090565b600160ff1b81146115485760000390565b9190820391821161154857565b906115b182610469565b60406115c0604051928361014d565b83825281936115d1601f1991610469565b019060005b8281106115e35750505050565b815160e0810191906001600160401b0383118184101761012d57602092845260008152826000818301526000858301526000606083015260006080830152600060a0830152600060c08301528287010152016115d6565b60208082019080835283518092528060408094019401926000905b83821061166457505050505090565b84518051875280840151878501528082015187830152606080820151908801526080808201519088015260a0808201519088015260c0908101519087015260e09095019493820193600190910190611655565b60001981146115485760010190565b156116cd57565b60405162461bcd60e51b815260206004820152602260248201527f45434453413a20696e76616c6964207369676e6174757265202776272076616c604482015261756560f01b6064820152608490fd5b6040513d6000823e3d90fd5b1561173057565b60405162461bcd60e51b815260206004820152601860248201527745434453413a20696e76616c6964207369676e617475726560401b6044820152606490fdfea2646970667358221220ffd47356d08c8f3f117f7a3025c3e4a89f69d5899bdf2b15d2292447b738768564736f6c63430008180033",
  "linkReferences": {},
  "deployedLinkReferences": {}
}