{
  "_format": "hh-sol-artifact-1",
  "contractName": "Account",
  "sourceName": "contracts/Account.sol",
  "abi": [
    {
      "inputs": [],
      "name": "E2",
      "type": "error"
    },
    {
      "inputs": [],
      "name": "E3",
      "type": "error"
    },
    {
      "inputs": [],
      "name": "E4",
      "type": "error"
    },
    {
      "inputs": [],
      "name": "E5",
      "type": "error"
    },
    {
      "inputs": [],
      "name": "E6",
      "type": "error"
    },
    {
      "inputs": [],
      "name": "E7",
      "type": "error"
    },
    {
      "inputs": [],
      "name": "E8",
      "type": "error"
    },
    {
      "inputs": [],
      "name": "E9",
      "type": "error"
    },
    {
      "anonymous": false,
      "inputs": [
        {
          "components": [
            {
              "internalType": "bytes32",
              "name": "left",
              "type": "bytes32"
            },
            {
              "internalType": "bytes32",
              "name": "right",
              "type": "bytes32"
            },
            {
              "internalType": "uint256",
              "name": "tokenId",
              "type": "uint256"
            },
            {
              "internalType": "uint256",
              "name": "leftReserve",
              "type": "uint256"
            },
            {
              "internalType": "uint256",
              "name": "rightReserve",
              "type": "uint256"
            },
            {
              "internalType": "uint256",
              "name": "collateral",
              "type": "uint256"
            },
            {
              "internalType": "int256",
              "name": "ondelta",
              "type": "int256"
            }
          ],
          "indexed": false,
          "internalType": "struct Settled[]",
          "name": "settled",
          "type": "tuple[]"
        }
      ],
      "name": "AccountSettled",
      "type": "event"
    },
    {
      "anonymous": false,
      "inputs": [
        {
          "indexed": true,
          "internalType": "bytes32",
          "name": "debtor",
          "type": "bytes32"
        },
        {
          "indexed": true,
          "internalType": "bytes32",
          "name": "creditor",
          "type": "bytes32"
        },
        {
          "indexed": true,
          "internalType": "uint256",
          "name": "tokenId",
          "type": "uint256"
        },
        {
          "indexed": false,
          "internalType": "uint256",
          "name": "amount",
          "type": "uint256"
        },
        {
          "indexed": false,
          "internalType": "uint256",
          "name": "debtIndex",
          "type": "uint256"
        }
      ],
      "name": "DebtCreated",
      "type": "event"
    },
    {
      "anonymous": false,
      "inputs": [
        {
          "indexed": true,
          "internalType": "bytes32",
          "name": "debtor",
          "type": "bytes32"
        },
        {
          "indexed": true,
          "internalType": "bytes32",
          "name": "creditor",
          "type": "bytes32"
        },
        {
          "indexed": true,
          "internalType": "uint256",
          "name": "tokenId",
          "type": "uint256"
        },
        {
          "indexed": false,
          "internalType": "uint256",
          "name": "amountForgiven",
          "type": "uint256"
        },
        {
          "indexed": false,
          "internalType": "uint256",
          "name": "debtIndex",
          "type": "uint256"
        }
      ],
      "name": "DebtForgiven",
      "type": "event"
    },
    {
      "anonymous": false,
      "inputs": [
        {
          "indexed": false,
          "internalType": "bytes32",
          "name": "recoveredEntity",
          "type": "bytes32"
        },
        {
          "indexed": false,
          "internalType": "bool",
          "name": "valid",
          "type": "bool"
        }
      ],
      "name": "DebugHankoResult",
      "type": "event"
    },
    {
      "anonymous": false,
      "inputs": [
        {
          "indexed": false,
          "internalType": "uint256",
          "name": "step",
          "type": "uint256"
        },
        {
          "indexed": false,
          "internalType": "bytes32",
          "name": "val1",
          "type": "bytes32"
        },
        {
          "indexed": false,
          "internalType": "bytes32",
          "name": "val2",
          "type": "bytes32"
        },
        {
          "indexed": false,
          "internalType": "bool",
          "name": "boolVal",
          "type": "bool"
        }
      ],
      "name": "DebugHankoStep",
      "type": "event"
    },
    {
      "anonymous": false,
      "inputs": [
        {
          "indexed": false,
          "internalType": "bytes32",
          "name": "leftEntity",
          "type": "bytes32"
        },
        {
          "indexed": false,
          "internalType": "bytes32",
          "name": "rightEntity",
          "type": "bytes32"
        },
        {
          "indexed": false,
          "internalType": "bytes32",
          "name": "initiator",
          "type": "bytes32"
        },
        {
          "indexed": false,
          "internalType": "uint256",
          "name": "sigLen",
          "type": "uint256"
        }
      ],
      "name": "DebugSettleEntry",
      "type": "event"
    },
    {
      "anonymous": false,
      "inputs": [
        {
          "indexed": false,
          "internalType": "bytes32",
          "name": "computedHash",
          "type": "bytes32"
        },
        {
          "indexed": false,
          "internalType": "bytes32",
          "name": "counterparty",
          "type": "bytes32"
        },
        {
          "indexed": false,
          "internalType": "uint256",
          "name": "cooperativeNonce",
          "type": "uint256"
        },
        {
          "indexed": false,
          "internalType": "uint256",
          "name": "diffsLength",
          "type": "uint256"
        },
        {
          "indexed": false,
          "internalType": "uint256",
          "name": "encodedMsgLength",
          "type": "uint256"
        }
      ],
      "name": "DebugSettlementHash",
      "type": "event"
    },
    {
      "anonymous": false,
      "inputs": [
        {
          "indexed": true,
          "internalType": "bytes32",
          "name": "sender",
          "type": "bytes32"
        },
        {
          "indexed": true,
          "internalType": "bytes32",
          "name": "counterentity",
          "type": "bytes32"
        },
        {
          "indexed": true,
          "internalType": "uint256",
          "name": "disputeNonce",
          "type": "uint256"
        },
        {
          "indexed": false,
          "internalType": "bytes32",
          "name": "proofbodyHash",
          "type": "bytes32"
        },
        {
          "indexed": false,
          "internalType": "bytes",
          "name": "initialArguments",
          "type": "bytes"
        }
      ],
      "name": "DisputeStarted",
      "type": "event"
    },
    {
      "anonymous": false,
      "inputs": [
        {
          "indexed": true,
          "internalType": "bytes32",
          "name": "insured",
          "type": "bytes32"
        },
        {
          "indexed": true,
          "internalType": "bytes32",
          "name": "insurer",
          "type": "bytes32"
        },
        {
          "indexed": true,
          "internalType": "uint256",
          "name": "tokenId",
          "type": "uint256"
        },
        {
          "indexed": false,
          "internalType": "uint256",
          "name": "limit",
          "type": "uint256"
        },
        {
          "indexed": false,
          "internalType": "uint256",
          "name": "expiresAt",
          "type": "uint256"
        }
      ],
      "name": "InsuranceRegistered",
      "type": "event"
    },
    {
      "anonymous": false,
      "inputs": [
        {
          "indexed": true,
          "internalType": "bytes32",
          "name": "entity",
          "type": "bytes32"
        },
        {
          "indexed": true,
          "internalType": "uint256",
          "name": "tokenId",
          "type": "uint256"
        },
        {
          "indexed": false,
          "internalType": "uint256",
          "name": "newBalance",
          "type": "uint256"
        }
      ],
      "name": "ReserveUpdated",
      "type": "event"
    },
    {
      "inputs": [
        {
          "internalType": "bytes32",
          "name": "e1",
          "type": "bytes32"
        },
        {
          "internalType": "bytes32",
          "name": "e2",
          "type": "bytes32"
        }
      ],
      "name": "accountKey",
      "outputs": [
        {
          "internalType": "bytes",
          "name": "",
          "type": "bytes"
        }
      ],
      "stateMutability": "pure",
      "type": "function"
    },
    {
      "inputs": [
        {
          "internalType": "bytes32",
          "name": "domainSep",
          "type": "bytes32"
        },
        {
          "internalType": "uint256",
          "name": "chainId",
          "type": "uint256"
        },
        {
          "internalType": "address",
          "name": "depository",
          "type": "address"
        },
        {
          "internalType": "bytes",
          "name": "encodedBatch",
          "type": "bytes"
        },
        {
          "internalType": "uint256",
          "name": "nonce",
          "type": "uint256"
        }
      ],
      "name": "computeBatchHankoHash",
      "outputs": [
        {
          "internalType": "bytes32",
          "name": "",
          "type": "bytes32"
        }
      ],
      "stateMutability": "pure",
      "type": "function"
    },
    {
      "inputs": [
        {
          "internalType": "uint256",
          "name": "cooperativeNonce",
          "type": "uint256"
        },
        {
          "internalType": "uint256",
          "name": "disputeNonce",
          "type": "uint256"
        },
        {
          "internalType": "bool",
          "name": "startedByLeft",
          "type": "bool"
        },
        {
          "internalType": "uint256",
          "name": "timeout",
          "type": "uint256"
        },
        {
          "internalType": "bytes32",
          "name": "proofbodyHash",
          "type": "bytes32"
        },
        {
          "internalType": "bytes",
          "name": "initialArguments",
          "type": "bytes"
        }
      ],
      "name": "encodeDisputeHash",
      "outputs": [
        {
          "internalType": "bytes32",
          "name": "",
          "type": "bytes32"
        }
      ],
      "stateMutability": "pure",
      "type": "function"
    }
  ],
  "bytecode": "0x6080806040523461001c5761209890816100228239308160070152f35b600080fdfe6080604052307f000000000000000000000000000000000000000000000000000000000000000014600436101561003557600080fd5b6000803560e01c9182633d0627d0146100e05782635147f14e146100d857826359516e5f146100d357826397b55ac8146100cb578263bba8d947146100c3578263d017d699146100bb578263d3eff6c6146100b3578263e2d54b36146100ab57505063f176e326146100a657600080fd5b610b74565b15610ab25780fd5b156109c85780fd5b1561083c5780fd5b156105e75780fd5b156104c35780fd5b610408565b1561035d5780fd5b610276565b801515036100ef57565b600080fd5b634e487b7160e01b600052604160045260246000fd5b608081019081106001600160401b0382111761012557604052565b6100f4565b60a081019081106001600160401b0382111761012557604052565b60e081019081106001600160401b0382111761012557604052565b604081019081106001600160401b0382111761012557604052565b602081019081106001600160401b0382111761012557604052565b601f909101601f19168101906001600160401b0382119082101761012557604052565b6040519060c082016001600160401b0381118382101761012557604052565b6040519061012082016001600160401b0381118382101761012557604052565b604051906102058261012a565b565b6040519061020582610145565b6001600160401b03811161012557601f01601f191660200190565b81601f820112156100ef5780359061024682610214565b926102546040519485610196565b828452602083830101116100ef57816000926020809301838601378301015290565b60c03660031901126100ef5760443561028e816100e5565b60a4356001600160401b0381116100ef576020916102b36102c792369060040161022f565b906084359060643590602435600435610ba5565b604051908152f35b6001600160a01b031690565b60a435906001600160a01b03821682036100ef57565b604435906001600160a01b03821682036100ef57565b608435906001600160a01b03821682036100ef57565b600435906001600160a01b03821682036100ef57565b602435906001600160a01b03821682036100ef57565b35906001600160a01b03821682036100ef57565b60031960c0368201126100ef576001600160401b0390608435908282116100ef5760809082360301126100ef576040516103968161010a565b81600401358152602482013560208201526044820135604082015260648201359283116100ef576103d36103f2926004610404953692010161022f565b60608201526103e06102db565b90606435604435602435600435611084565b60405191829182901515815260200190565b0390f35b60a03660031901126100ef5761041c6102f1565b606435906001600160401b0382116100ef5761043f61040492369060040161022f565b6104996094604051809360208201956004358752602435604084015260018060601b03199060601b166060830152610481815180926020607486019101610b2c565b81016084356074820152036074810184520182610196565b5190206040519081529081906020820190565b6001600160401b0381116101255760051b60200190565b60a0806003193601126100ef576001600160401b0390602460448035908482116100ef57366023830112156100ef57816004013590610501826104ac565b946040966105126040519788610196565b83875260209786602089019560051b870101953687116100ef57878101955b878710610556576104046103f28b8b610548610307565b916064359135600435611345565b86358481116100ef57820160c060231982360301126100ef576105776101b9565b918a8201358352878201358d8401526064820135858401526084820135606084015260a48201358681116100ef576105b4908c369185010161022f565b608084015260c4820135928684116100ef576105d88e94938d86953692010161022f565b88820152815201960195610531565b6101003660031901126100ef576105fc61031d565b610604610333565b6001600160401b03906044358281116100ef5761062590369060040161022f565b9060c4359283116100ef576106c693610644600094369060040161022f565b604094859485516106a78161068160208201946106618660039052565b6001600160a01b03998a16838c015260c0606084015260e0830190610b4f565b606435608083015260843560a083015260a43560c083015203601f198101835282610196565b519020938551809881968295631155a0c560e31b845260048401610ea2565b0393165af19081156107375761040492600090600093610705575b50826106f9575b505191829182901515815260200190565b60e435149150386106e8565b9050816107289293503d8411610730575b6107208183610196565b810190610e86565b9190386106e1565b503d610716565b610ebe565b81601f820112156100ef578035906020610755836104ac565b9360406107656040519687610196565b848652828601918360a0809702860101948186116100ef578401925b858410610792575050505050505090565b86848303126100ef5784879184516107a98161012a565b86358152828701358382015285870135868201526060808801359082015260808088013590820152815201930192610781565b9080601f830112156100ef5760209082356107f6816104ac565b936108046040519586610196565b81855260208086019260051b8201019283116100ef57602001905b82821061082d575050505090565b8135815290830190830161081f565b60a0806003193601126100ef5760849060248235606460446001600160401b038084116100ef57366023850112156100ef5783600401359261087d846104ac565b9660409861088e604051998a610196565b8589526020998860208b019760051b890101973689116100ef57898101975b8989106108cb576104046103f28d6064356044358f3560043561153a565b88358781116100ef57820161012060231982360301126100ef578d916108ef6101d8565b928d83013584528a83013590840152878201358981116100ef57610918908e369185010161073c565b85840152858201358981116100ef57610936908e36918501016107dc565b606084015260a48201358981116100ef57610956908e369185010161073c565b608084015260c48201358981116100ef57610976908e369185010161022f565b8784015261098660e48301610349565b60c0840152610104820135928984116100ef578f9384938f610124926109b091369184010161022f565b60e084015201356101008201528152019801976108ad565b6101003660031901126100ef576109dd61031d565b6109e5610333565b6001600160401b03906044358281116100ef57610a0690369060040161022f565b60c4359283116100ef57610a7993610a25610a5894369060040161022f565b91610a4a60409586958651928391602083019560a4359160843591606435918961159f565b03601f198101835282610196565b5190209160008451809781958294631155a0c560e31b845260048401610ea2565b03926001600160a01b03165af190811561073757610404926000906000936107055750826106f957505191829182901515815260200190565b6101003660031901126100ef57610ac761031d565b610acf610333565b6001600160401b03906044358281116100ef57610af090369060040161022f565b9060c4359283116100ef576106c693610b0f600094369060040161022f565b604094859485516106a78161068160208201946106618660029052565b60005b838110610b3f5750506000910152565b8181015183820152602001610b2f565b90602091610b6881518092818552858086019101610b2c565b601f01601f1916010190565b60403660031901126100ef57610404610b916024356004356115db565b604051918291602083526020830190610b4f565b949391929093604051610bd560208281610bc88183019687815193849201610b2c565b8101038084520182610196565b5190209260405194602086019687526040860152151560f81b60608501526061840152608183015260a182015260a18152610c0f81610145565b51902090565b60409060405191610c2583610160565b60018352829160005b602080821015610c7057835160209291610c478261012a565b600082526000818301526000868301526000606083015260006080830152828801015201610c2e565b505091925050565b634e487b7160e01b600052601160045260246000fd5b600160ff1b8114610c9f5760000390565b610c78565b634e487b7160e01b600052603260045260246000fd5b805115610cc75760200190565b610ca4565b8051821015610cc75760209160051b010190565b602090610cfa928260405194838680955193849201610b2c565b82019081520301902090565b604051610d128161017b565b60008152906000368137565b604051610d2a8161017b565b6000815290565b90815180825260208080930193019160005b828110610d51575050505090565b835185529381019392810192600101610d43565b90815180825260208080930193019160005b828110610d85575050505090565b835180518652808301518684015260408082015190870152606080820151908701526080908101519086015260a09094019392810192600101610d77565b949290969593966000865260209060018060a01b031681870152610df460409360e0604089015260e0880190610b4f565b9160609060608801526080878403608089015282808b5195868152019a01946000925b858410610e4c575050505050505084610e3b9184610e4996970360a0860152610d31565b9160c0818403910152610d65565b90565b865180518d52808601518d870152808301518d840152808201518d8301528301518c84015260a0909b019a95840195600190930192610e17565b91908260409103126100ef5760208251920151610e49816100e5565b929190610eb9602091604086526040860190610b4f565b930152565b6040513d6000823e3d90fd5b90600052602052604060002090565b91908201809211610c9f57565b91908203918211610c9f57565b81810392916000138015828513169184121617610c9f57565b60409060405191610f1c83610160565b60018352829160005b602080821015610c7057835160209291610f3e82610145565b600082526000818301526000868301526000606083015260006080830152600060a0830152600060c0830152828801015201610f25565b90610f7f826104ac565b604090610f8f6040519182610196565b8381528093610fa0601f19916104ac565b019160005b838110610fb25750505050565b6020908251610fc081610145565b60008152826000818301526000858301526000606083015260006080830152600060a0830152600060c0830152828601015201610fa5565b60208082019080835283518092528060408094019401926000905b83821061102257505050505090565b84518051875280840151878501528082015187830152606080820151908801526080808201519088015260a0808201519088015260c0908101519087015260e09095019493820193600190910190611013565b6000198114610c9f5760010190565b9492909380519182811060001461133e57805b838110156113385783905b61118d60406110b184866115db565b98898b6111676111416110c2610c15565b928c8c8a602082015192808210600014611330578a830151925b81831015611326576000915b6110f48d830151610c8e565b93101561131d578b611107910151610c8e565b925b6111116101f8565b94855260208501528a8401526060830152608082015261113085610cba565b5261113a84610cba565b5084610ce0565b54610a4a61114d610d06565b611155610d1e565b9088519586946020860198308a610dc3565b51902090606088015160008451809681958294631155a0c560e31b845260048401610ea2565b03926001600160a01b03165af18015610737576000916000916112fc575b50159081156112f0575b506112e2576111d9846111d4602060409701519687920151988a610ce0565b610eca565b868154106112d0576112a899600080516020612043833981519152976112a097611207886111d48786610eca565b611212838254610ed9565b905561121f828554610ee6565b94858555106112b9575b50611232610f0c565b956001611252826111d48861124b836111d48d8a610eca565b5496610eca565b549301549461125f610207565b968752602087015260408601526060850152608084015260a083015260c082015261128982610cba565b5261129381610cba565b5060405191829182610ff8565b0390a1610ce0565b6112b28154611075565b9055600190565b6112c860018401918254610ef3565b905538611229565b604051632fd8225d60e21b8152600490fd5b505050505050505050600090565b905084511415386111b5565b9050611317915060403d604011610730576107208183610196565b386111ab565b50600092611109565b8b810151916110e8565b6000926110dc565b806110a2565b8290611097565b600095600195909493919291865b611362575b5050505050909150565b8051881015611535576113758882610ccc565b51976113828951856115db565b9861138d868b610ce0565b549960209a8b8301511061152357608082019a6113ad8c5151151561161e565b6113f98184015160409d8e91828701516113da606089015191610a4a86519384928a8401968c308961159f565b51902090518251631155a0c560e31b8152938492839260048401610ea2565b038160006001600160a01b038c165af18015610737576000918291611504575b50159081156114f8575b506114e7578a6114338984610ce0565b01546114d65790867fb401bdfa7f39ef4f45a82ae4be47ca8ae03cbc1a167d301723dfb99c798f49eb8c9d8d9c9d96959460026114ac8d8f6114759043610ed9565b938901519761149a868b0151998b8781518c1060a0606084015193019d8e5194610ba5565b8c6114a58484610ce0565b0155610ce0565b01558451936114ca606083880151970151915192519283928361166a565b0390a401979695611353565b8b51639ce22bbb60e01b8152600490fd5b8b51631bd18a1960e31b8152600490fd5b90508351141538611423565b905061151d91508d803d10610730576107208183610196565b38611419565b604051633485c51360e21b8152600490fd5b611358565b94929093919360019586926001966000936000995b611560575b50505050505050909150565b86518a101561159a576115806115768b89610ccc565b51848484886118a0565b15611590575b988501988561154f565b9397508793611586565b611554565b916115cc9060a0949796959260018552600180871b0316602085015260c0604085015260c0840190610b4f565b95606083015260808201520152565b8181101561160257604080516020810192909252810191909152610e498160608101610a4a565b604080516020810193909352820152610e498160608101610a4a565b1561162557565b60405162461bcd60e51b815260206004820152601e60248201527f5369676e617475726520726571756972656420666f72206469737075746500006044820152606490fd5b604090610e49939281528160208201520190610b4f565b9094939260609260808301968352602083015260408201520152565b156116a457565b60405162461bcd60e51b815260206004820152602160248201527f5369676e617475726520726571756972656420666f7220736574746c656d656e6044820152601d60fa1b6064820152608490fd5b9192608093969594919660a084019784526020840152604083015260608201520152565b1561171e57565b60405162461bcd60e51b815260206004820152600760248201526645505f5a45524f60c81b6044820152606490fd5b1561175457565b60405162461bcd60e51b81526020600482015260096024820152685349475f454d50545960b81b6044820152606490fd5b60009060033d1161179257565b905060046000803e60005160e01c90565b600060443d10610e4957604051600319913d83016004833e81516001600160401b03918282113d60248401111761180057818401948551938411611808573d850101602084870101116118005750610e4992910160200190610196565b949350505050565b50949350505050565b602081519101519060208110611825575090565b6000199060200360031b1b1690565b6000809160233d1161184257565b9150506020600460003e600051600191565b3d1561187f573d9061186582610214565b916118736040519384610196565b82523d6000602084013e565b606090565b91909160008382019384129112908015821691151617610c9f57565b9294939091815192602083019283519460a08201906118ec8251516040519182918d7f1d3ba9cf4b97c0201bb3a71ec8c430c809bc811b93a32fc8e4e19a60e0c43e149b8c9685611681565b0390a18151958551958688148015612038575b61152357878b149a878c15918261202d575b505061201b5761192187896115db565b9a156120145786915b60408501515115801590612006575b8015611ff8575b611c45575b5050505060005b60408201518051821015611b35578161196491610ccc565b5190815161198961197e6020850151604086015190611884565b606085015190611884565b6115235760208301516000811215611b0557506119aa816111d48a8c610eca565b546119b86020850151610c8e565b116112d057886119e46119dc836111d48c6119d660208a0151610c8e565b95610eca565b918254610ee6565b90555b60408301516000811215611ac85750611a04816111d4898c610eca565b54611a126040850151610c8e565b116112d0578089611a346119dc611a41946111d48c6119d660408b0151610c8e565b90555b6111d4878d610ce0565b60608301516000811215611a9c57508054611a5f6060850151610c8e565b81106112d0576001608085611a85611a9494611a7f6060869a0151610c8e565b90610ee6565b85555b01519201918254611884565b90550161194c565b600160808195836000611a949513611ab5575b50611a88565b611ac0908654610ed9565b855538611aaf565b90818a89836000611a419613611ae2575b50505050611a37565b6111d4611af292611afa94610eca565b918254610ed9565b9055388a8983611ad9565b89898360008413611b1a575b505050506119e7565b6111d4611af292611b2a94610eca565b905538898983611b11565b50509693929194909460408801515180611b5a575b50505050506112a8929350610ce0565b611b6a9096919395929496610f75565b9660005b60408a01518051821015611c0b57818989611b8d604095600195610ccc565b5151611b9d816111d48c8c610ce0565b908b611bbc826111d486611bb5836111d48b88610eca565b5494610eca565b549187845494015494611bcd610207565b9687526020870152888601526060850152608084015260a083015260c0820152611bf7828d610ccc565b52611c02818c610ccc565b50019050611b6e565b50509750945092505050600080516020612043833981519152611c376112a89460405191829182610ff8565b0390a1839238808080611b4a565b908594939a9b9998979695918b51511515611c5f9061169d565b611c69838c610ce0565b54906040860151906060870151918d608089015160405194859360208501973094611c94958a610dc3565b03601f1981018352611ca69083610196565b858d8351852096611cb691610ce0565b54956040890151518451916040519283927ffbbb6d4d06aaf2052fc51e20914df816f8750fae713b339363aad62de0f8db9e9a8b96611cf594866116f3565b0390a18d8751945160c08901958651611d0d906102cf565b611d16906102cf565b611d1f906102cf565b925151604051938493611d329385611681565b0390a1519020918151611d44906102cf565b611d4d906102cf565b611d56906102cf565b8c5151905a916040519282611d6e92859489866116f3565b0390a1516001600160a01b0390611d84906102cf565b16611d90811515611717565b8a51511515611d9e9061174d565b8a51602080820151915160408051606481529283019390935291810182905261026090911460608201527f420e9d5d3605ffaefb08b27c5fac848a23186bec357341beb8bdf0b0c6ff5ed19b908c90608090a151604051631155a0c560e31b81529283918291611e119160048401610ea2565b03815a604094600091f1806000928392611fd4575b50611f265750505050505050505050611e3d611785565b806308c379a014611ede57634e487b7114611ea3575b611e5b611854565b60008151916020831015611e97575b5060408051610140815260208101929092528101919091526000606082015280608081015b0390a1600090565b60209150015138611e6a565b611eab611834565b90611eb65750611e53565b6040805161013681526020810192909252600090820181905260608201528060808101611e8f565b50611ee76117a3565b80611ef25750611e53565b611efe611e8f91611811565b604051918291826060600091939293608081019461012c825260208201528260408201520152565b8a60409c9b9495969798999a9c5180611f5d8487878491926060919493608084019560c88552602085015260408401521515910152565b0390a1158015611fca575b611f96576040805160ca8152602081019290925281019190915260016060820152608090a138808080611945565b9650965096975050505050611e8f604051928392836060906000929493608082019560c98352602083015260408201520152565b5081811415611f68565b909250611ff0915060403d604011610730576107208183610196565b909138611e26565b506080850151511515611940565b506060850151511515611939565b879161192a565b604051633c4117f160e21b8152600490fd5b141590508738611911565b50868810156118ff56fe11e95b31ceefa95a59034392a3de4f79c9fe7d7e441d3746a1f82e64f7a32bcca264697066735822122012d8f857f17ff237163e6627456881944ace3c3661aa18776c707f6cd9e8711364736f6c63430008180033",
  "linkReferences": {},
  "deployedLinkReferences": {}
}