{
  "_format": "hh-sol-artifact-1",
  "contractName": "Account",
  "sourceName": "contracts/Account.sol",
  "abi": [
    {
      "inputs": [],
      "name": "E10",
      "type": "error"
    },
    {
      "inputs": [],
      "name": "E2",
      "type": "error"
    },
    {
      "inputs": [],
      "name": "E3",
      "type": "error"
    },
    {
      "inputs": [],
      "name": "E4",
      "type": "error"
    },
    {
      "inputs": [],
      "name": "E5",
      "type": "error"
    },
    {
      "inputs": [],
      "name": "E6",
      "type": "error"
    },
    {
      "inputs": [],
      "name": "E7",
      "type": "error"
    },
    {
      "inputs": [],
      "name": "E8",
      "type": "error"
    },
    {
      "inputs": [],
      "name": "E9",
      "type": "error"
    },
    {
      "anonymous": false,
      "inputs": [
        {
          "components": [
            {
              "internalType": "bytes32",
              "name": "left",
              "type": "bytes32"
            },
            {
              "internalType": "bytes32",
              "name": "right",
              "type": "bytes32"
            },
            {
              "components": [
                {
                  "internalType": "uint256",
                  "name": "tokenId",
                  "type": "uint256"
                },
                {
                  "internalType": "uint256",
                  "name": "leftReserve",
                  "type": "uint256"
                },
                {
                  "internalType": "uint256",
                  "name": "rightReserve",
                  "type": "uint256"
                },
                {
                  "internalType": "uint256",
                  "name": "collateral",
                  "type": "uint256"
                },
                {
                  "internalType": "int256",
                  "name": "ondelta",
                  "type": "int256"
                }
              ],
              "internalType": "struct TokenSettlement[]",
              "name": "tokens",
              "type": "tuple[]"
            },
            {
              "internalType": "uint256",
              "name": "nonce",
              "type": "uint256"
            }
          ],
          "indexed": false,
          "internalType": "struct AccountSettlement[]",
          "name": "settled",
          "type": "tuple[]"
        }
      ],
      "name": "AccountSettled",
      "type": "event"
    },
    {
      "anonymous": false,
      "inputs": [
        {
          "indexed": true,
          "internalType": "bytes32",
          "name": "debtor",
          "type": "bytes32"
        },
        {
          "indexed": true,
          "internalType": "bytes32",
          "name": "creditor",
          "type": "bytes32"
        },
        {
          "indexed": true,
          "internalType": "uint256",
          "name": "tokenId",
          "type": "uint256"
        },
        {
          "indexed": false,
          "internalType": "uint256",
          "name": "amount",
          "type": "uint256"
        },
        {
          "indexed": false,
          "internalType": "uint256",
          "name": "debtIndex",
          "type": "uint256"
        }
      ],
      "name": "DebtCreated",
      "type": "event"
    },
    {
      "anonymous": false,
      "inputs": [
        {
          "indexed": true,
          "internalType": "bytes32",
          "name": "debtor",
          "type": "bytes32"
        },
        {
          "indexed": true,
          "internalType": "bytes32",
          "name": "creditor",
          "type": "bytes32"
        },
        {
          "indexed": true,
          "internalType": "uint256",
          "name": "tokenId",
          "type": "uint256"
        },
        {
          "indexed": false,
          "internalType": "uint256",
          "name": "amountForgiven",
          "type": "uint256"
        },
        {
          "indexed": false,
          "internalType": "uint256",
          "name": "debtIndex",
          "type": "uint256"
        }
      ],
      "name": "DebtForgiven",
      "type": "event"
    },
    {
      "anonymous": false,
      "inputs": [
        {
          "indexed": true,
          "internalType": "bytes32",
          "name": "sender",
          "type": "bytes32"
        },
        {
          "indexed": true,
          "internalType": "bytes32",
          "name": "counterentity",
          "type": "bytes32"
        },
        {
          "indexed": true,
          "internalType": "uint256",
          "name": "nonce",
          "type": "uint256"
        },
        {
          "indexed": false,
          "internalType": "bytes32",
          "name": "proofbodyHash",
          "type": "bytes32"
        },
        {
          "indexed": false,
          "internalType": "bytes32",
          "name": "watchSeed",
          "type": "bytes32"
        },
        {
          "indexed": false,
          "internalType": "bytes",
          "name": "starterInitialArguments",
          "type": "bytes"
        },
        {
          "indexed": false,
          "internalType": "bytes",
          "name": "starterIncrementedArguments",
          "type": "bytes"
        },
        {
          "indexed": false,
          "internalType": "uint256",
          "name": "disputeTimeout",
          "type": "uint256"
        }
      ],
      "name": "DisputeStarted",
      "type": "event"
    },
    {
      "anonymous": false,
      "inputs": [
        {
          "indexed": true,
          "internalType": "bytes32",
          "name": "entity",
          "type": "bytes32"
        },
        {
          "indexed": true,
          "internalType": "uint256",
          "name": "tokenId",
          "type": "uint256"
        },
        {
          "indexed": false,
          "internalType": "uint256",
          "name": "newBalance",
          "type": "uint256"
        }
      ],
      "name": "ReserveUpdated",
      "type": "event"
    },
    {
      "anonymous": false,
      "inputs": [
        {
          "indexed": true,
          "internalType": "bytes32",
          "name": "accountKeyHash",
          "type": "bytes32"
        },
        {
          "indexed": true,
          "internalType": "uint256",
          "name": "clauseIndex",
          "type": "uint256"
        },
        {
          "indexed": true,
          "internalType": "address",
          "name": "transformer",
          "type": "address"
        },
        {
          "indexed": false,
          "internalType": "uint8",
          "name": "reason",
          "type": "uint8"
        }
      ],
      "name": "TransformerClauseSkipped",
      "type": "event"
    },
    {
      "anonymous": false,
      "inputs": [
        {
          "indexed": true,
          "internalType": "bytes32",
          "name": "accountKeyHash",
          "type": "bytes32"
        },
        {
          "indexed": true,
          "internalType": "uint256",
          "name": "clauseIndex",
          "type": "uint256"
        },
        {
          "indexed": true,
          "internalType": "address",
          "name": "transformer",
          "type": "address"
        },
        {
          "indexed": false,
          "internalType": "uint256",
          "name": "tokenId",
          "type": "uint256"
        },
        {
          "indexed": false,
          "internalType": "int256",
          "name": "requestedValue",
          "type": "int256"
        },
        {
          "indexed": false,
          "internalType": "int256",
          "name": "appliedValue",
          "type": "int256"
        }
      ],
      "name": "TransformerDeltaClamped",
      "type": "event"
    },
    {
      "inputs": [
        {
          "internalType": "bytes32",
          "name": "e1",
          "type": "bytes32"
        },
        {
          "internalType": "bytes32",
          "name": "e2",
          "type": "bytes32"
        }
      ],
      "name": "accountKey",
      "outputs": [
        {
          "internalType": "bytes",
          "name": "",
          "type": "bytes"
        }
      ],
      "stateMutability": "pure",
      "type": "function"
    },
    {
      "inputs": [
        {
          "internalType": "bytes32",
          "name": "domainSep",
          "type": "bytes32"
        },
        {
          "internalType": "bytes",
          "name": "encodedBatch",
          "type": "bytes"
        },
        {
          "internalType": "uint256",
          "name": "nonce",
          "type": "uint256"
        }
      ],
      "name": "computeBatchHankoHash",
      "outputs": [
        {
          "internalType": "bytes32",
          "name": "",
          "type": "bytes32"
        }
      ],
      "stateMutability": "view",
      "type": "function"
    },
    {
      "inputs": [
        {
          "internalType": "uint256",
          "name": "nonce",
          "type": "uint256"
        },
        {
          "internalType": "bool",
          "name": "startedByLeft",
          "type": "bool"
        },
        {
          "internalType": "uint256",
          "name": "timeout",
          "type": "uint256"
        },
        {
          "internalType": "bytes32",
          "name": "proofbodyHash",
          "type": "bytes32"
        },
        {
          "internalType": "uint256",
          "name": "disputeStartTimestamp",
          "type": "uint256"
        },
        {
          "internalType": "bytes",
          "name": "starterInitialArguments",
          "type": "bytes"
        },
        {
          "internalType": "bytes",
          "name": "starterIncrementedArguments",
          "type": "bytes"
        }
      ],
      "name": "encodeDisputeHash",
      "outputs": [
        {
          "internalType": "bytes32",
          "name": "",
          "type": "bytes32"
        }
      ],
      "stateMutability": "pure",
      "type": "function"
    },
    {
      "inputs": [
        {
          "internalType": "uint256",
          "name": "nonce",
          "type": "uint256"
        },
        {
          "internalType": "bool",
          "name": "startedByLeft",
          "type": "bool"
        },
        {
          "internalType": "uint256",
          "name": "timeout",
          "type": "uint256"
        },
        {
          "internalType": "bytes32",
          "name": "proofbodyHash",
          "type": "bytes32"
        },
        {
          "internalType": "uint256",
          "name": "disputeStartTimestamp",
          "type": "uint256"
        },
        {
          "internalType": "bytes32",
          "name": "starterInitialArgumentsCommitment",
          "type": "bytes32"
        },
        {
          "internalType": "bytes32",
          "name": "starterIncrementedArgumentsCommitment",
          "type": "bytes32"
        }
      ],
      "name": "encodeDisputeHashFromCommitments",
      "outputs": [
        {
          "internalType": "bytes32",
          "name": "",
          "type": "bytes32"
        }
      ],
      "stateMutability": "pure",
      "type": "function"
    },
    {
      "inputs": [
        {
          "internalType": "uint8",
          "name": "tokenType",
          "type": "uint8"
        },
        {
          "internalType": "address",
          "name": "token",
          "type": "address"
        },
        {
          "internalType": "uint96",
          "name": "externalTokenId",
          "type": "uint96"
        }
      ],
      "name": "readFixedTokenSupply",
      "outputs": [
        {
          "internalType": "uint256",
          "name": "supply",
          "type": "uint256"
        },
        {
          "internalType": "bool",
          "name": "valid",
          "type": "bool"
        }
      ],
      "stateMutability": "view",
      "type": "function"
    },
    {
      "inputs": [
        {
          "internalType": "bytes",
          "name": "starterArguments",
          "type": "bytes"
        },
        {
          "internalType": "bool",
          "name": "startedByLeft",
          "type": "bool"
        },
        {
          "internalType": "uint256",
          "name": "disputeStartTimestamp",
          "type": "uint256"
        },
        {
          "internalType": "bytes32",
          "name": "expectedCommitment",
          "type": "bytes32"
        }
      ],
      "name": "requireStarterArgumentCommitment",
      "outputs": [],
      "stateMutability": "pure",
      "type": "function"
    },
    {
      "inputs": [
        {
          "components": [
            {
              "internalType": "bytes32",
              "name": "counterentity",
              "type": "bytes32"
            },
            {
              "internalType": "uint256",
              "name": "nonce",
              "type": "uint256"
            },
            {
              "internalType": "bytes32",
              "name": "proofbodyHash",
              "type": "bytes32"
            },
            {
              "components": [
                {
                  "internalType": "bytes32",
                  "name": "watchSeed",
                  "type": "bytes32"
                },
                {
                  "internalType": "int256[]",
                  "name": "offdeltas",
                  "type": "int256[]"
                },
                {
                  "internalType": "uint256[]",
                  "name": "tokenIds",
                  "type": "uint256[]"
                },
                {
                  "components": [
                    {
                      "internalType": "address",
                      "name": "transformerAddress",
                      "type": "address"
                    },
                    {
                      "internalType": "bytes",
                      "name": "encodedBatch",
                      "type": "bytes"
                    },
                    {
                      "components": [
                        {
                          "internalType": "uint256",
                          "name": "deltaIndex",
                          "type": "uint256"
                        },
                        {
                          "internalType": "uint256",
                          "name": "rightAllowance",
                          "type": "uint256"
                        },
                        {
                          "internalType": "uint256",
                          "name": "leftAllowance",
                          "type": "uint256"
                        }
                      ],
                      "internalType": "struct Allowance[]",
                      "name": "allowances",
                      "type": "tuple[]"
                    }
                  ],
                  "internalType": "struct TransformerClause[]",
                  "name": "transformers",
                  "type": "tuple[]"
                }
              ],
              "internalType": "struct ProofBody",
              "name": "initialProofbody",
              "type": "tuple"
            },
            {
              "internalType": "bytes32",
              "name": "watchSeed",
              "type": "bytes32"
            },
            {
              "internalType": "bytes",
              "name": "sig",
              "type": "bytes"
            },
            {
              "internalType": "bytes",
              "name": "starterInitialArguments",
              "type": "bytes"
            },
            {
              "internalType": "bytes",
              "name": "starterIncrementedArguments",
              "type": "bytes"
            }
          ],
          "internalType": "struct InitialDisputeProof[]",
          "name": "disputeStarts",
          "type": "tuple[]"
        },
        {
          "components": [
            {
              "internalType": "bytes32",
              "name": "counterentity",
              "type": "bytes32"
            },
            {
              "internalType": "uint256",
              "name": "initialNonce",
              "type": "uint256"
            },
            {
              "internalType": "uint256",
              "name": "finalNonce",
              "type": "uint256"
            },
            {
              "internalType": "bytes32",
              "name": "initialProofbodyHash",
              "type": "bytes32"
            },
            {
              "components": [
                {
                  "internalType": "bytes32",
                  "name": "watchSeed",
                  "type": "bytes32"
                },
                {
                  "internalType": "int256[]",
                  "name": "offdeltas",
                  "type": "int256[]"
                },
                {
                  "internalType": "uint256[]",
                  "name": "tokenIds",
                  "type": "uint256[]"
                },
                {
                  "components": [
                    {
                      "internalType": "address",
                      "name": "transformerAddress",
                      "type": "address"
                    },
                    {
                      "internalType": "bytes",
                      "name": "encodedBatch",
                      "type": "bytes"
                    },
                    {
                      "components": [
                        {
                          "internalType": "uint256",
                          "name": "deltaIndex",
                          "type": "uint256"
                        },
                        {
                          "internalType": "uint256",
                          "name": "rightAllowance",
                          "type": "uint256"
                        },
                        {
                          "internalType": "uint256",
                          "name": "leftAllowance",
                          "type": "uint256"
                        }
                      ],
                      "internalType": "struct Allowance[]",
                      "name": "allowances",
                      "type": "tuple[]"
                    }
                  ],
                  "internalType": "struct TransformerClause[]",
                  "name": "transformers",
                  "type": "tuple[]"
                }
              ],
              "internalType": "struct ProofBody",
              "name": "finalProofbody",
              "type": "tuple"
            },
            {
              "internalType": "bytes",
              "name": "starterArguments",
              "type": "bytes"
            },
            {
              "internalType": "bytes",
              "name": "otherArguments",
              "type": "bytes"
            },
            {
              "internalType": "bytes",
              "name": "sig",
              "type": "bytes"
            },
            {
              "internalType": "bool",
              "name": "startedByLeft",
              "type": "bool"
            },
            {
              "internalType": "bool",
              "name": "cooperative",
              "type": "bool"
            }
          ],
          "internalType": "struct FinalDisputeProof[]",
          "name": "disputeFinalizations",
          "type": "tuple[]"
        }
      ],
      "name": "validateDisputeProofs",
      "outputs": [],
      "stateMutability": "pure",
      "type": "function"
    }
  ],
  "bytecode": "0x6080806040523461001c5761392e90816100228239308160070152f35b600080fdfe60a0604052307f000000000000000000000000000000000000000000000000000000000000000014600436101561003557600080fd5b60003560e01c90816305a736891461111e5781634893fd46146110d35781635147f14e1461101a5781635895c6b4146110015781637ec9584f14610fd45781638350abc114610ef557816392beedbd14610e7157816397b55ac814610b56578163a160f51414610882578163a88ec11c1461073d578163ab1f757214610708578163bf384507146106ae578163d5cc3bd914610628578163e089392e14610120575063f176e326146100e657600080fd5b604036600319011261011b576101176101036024356004356123af565b604051918291602083526020830190611782565b0390f35b600080fd5b61011b57608036600319011261011b576044356001600160401b03811161011b5761014f903690600401611676565b6064356001600160a01b038116810361011b5761016f60808301516134af565b90620100008060a08501515111908115610619575b506106075761019683516024356123af565b916101a3600435846117a7565b60208501516101208601519194429491921561043f57855490811561042d578160208901510361041b5760408801918251111561041b5760e0880191825151156103ad5761010093848a015115156024358b51100361040957899461024561026460409561028a955160a08a01516020815191012098519951988851948593602085019760038952468c87015230606087015260e06080870152850190611782565b9160a08401528c60c084015260e083015203601f1981018352826111dc565b519020948351809681948293631155a0c560e31b84528760048501526044840190611782565b602483019190915203916001600160a01b03165afa9182156103fd576000906000936103c9575b50826103bf575b5050156103ad57610346945b61010081015115801594906103a25760a0820151955b85156103975760c0830151915b4296610120429501511561036d575b5050906007826000600161035495015560006002820155600060038201556000600482015560006005820155600060068201550160ff19815416905560405197889760c0895260c0890190611782565b908782036020890152611782565b9360408601526060850152608084015260a08301520390f35b9196909115610387575090600761035492965b91926102f6565b9592509060076103549293610380565b60a0830151916102e7565b60c0820151956102da565b604051631bd18a1960e31b8152600490fd5b14905086806102b8565b90506103ee91925060403d6040116103f6575b6103e681836111dc565b810190611856565b9190886102b1565b503d6103dc565b6040513d6000823e3d90fd5b604051633c4117f160e21b8152600490fd5b604051633485c51360e21b8152600490fd5b6040516388d0662b60e01b8152600490fd5b935093949050600185015492831561042d57602082015193865480950361041b576060830151600488015480910361057f5761010084015115159260ff60078a015416938415150361057f5788976006899386956104b78b600360028901549801549e8f858a600584015498899401549c8d956136c3565b0361057f5760e08801805151909590156105bf5750505060408601888151111561041b5780516020880151101561041b576040916105066105299251958a60808b0151519151978b51976137fb565b948351809681948293631155a0c560e31b84528760048501526044840190611782565b602483019190915203916001600160a01b03165afa9182156103fd5760009060009361059b575b5082610591575b5050156103ad578661056f91925b60a085015161249d565b0361057f576103469492906102c4565b604051630cba69cb60e01b8152600490fd5b1490508880610557565b90506105b791925060403d6040116103f6576103e681836111dc565b91908a610550565b935093509350508660408601510361041b5761010085015115158551602435101490816105fd575b5061041b57840361057f578661056f9192610565565b90504310896105e7565b60405163e217c62b60e01b8152600490fd5b905060c0840151511184610184565b60e036600319011261011b5761063c611261565b608435906001600160401b039060a43582811161011b5761066190369060040161121a565b60c43592831161011b5783610695818461068f602098826106896106a69a369060040161121a565b9761249d565b9461249d565b9260643590604435906004356136c3565b604051908152f35b606036600319011261011b5760043560ff8116810361011b57602435906001600160a01b038216820361011b576044356001600160601b038116810361011b576040926106fa9261371b565b825191825215156020820152f35b60e036600319011261011b5760206106a6610721611261565b60c4359060a435906084359060643590604435906004356136c3565b604036600319011261011b576001600160401b0360043581811161011b57610769903690600401611525565b9060249060243581811161011b573660238201121561011b578060040135926107918461127d565b9361079f60405195866111dc565b8085526020936024602087019260051b8501019336851161011b5760248101925b85841061085c57888860005b82518110156107f157806107eb6107e560019386611842565b5161346a565b016107cc565b5060005b815181101561085a57610815608061080d8385611842565b5101516134af565b50620100008060a06108278486611842565b5101515111908115610841575b50610607576001016107f5565b905060c061084f8385611842565b510151511183610834565b005b833583811161011b5787916108778392883691870101611676565b8152019301926107c0565b61011b5760e036600319011261011b576001600160401b0360a4351161011b5736602360a43501121561011b576108be60a4356004013561127d565b6108cb60405191826111dc565b60a4356004013581526020810136602460a4356004013560051b60a43501011161011b57602460a43501905b602460a4356004013560051b60a4350101821061098b5760c435836001600160a01b038216820361011b5760019182916000835b61093d575b6020846040519015158152f35b815181101561098657908161096d8461095888969585611842565b51608435606435604435602435600435612b59565b1561097d575b830190919261092b565b60009450610973565b610930565b81356001600160401b03811161011b5760c060a43582013603602319011261011b57604051916001600160401b0360c0840190811190841117610b405760c0830160405260a43582016024810135845260448101356020850152606401356001600160401b03811161011b57366043828560a435010101121561011b576024818460a4350101013590610a1d8261127d565b91610a2b60405193846111dc565b8083526020830136604460a08402858960a435010101011161011b576044838760a435010101905b604460a08402858960a435010101018210610af05750505050604084015260a4358201608401356001600160401b03811161011b57610a9c90602436918560a4350101016112f4565b60608401526001600160401b0360a48035840101351161011b57602092839260c490610ad53660a480358401908101350160240161121a565b608084015260a43501013560a08201528152019101906108f7565b60a08236031261011b57602060a091604051610b0b81611155565b843581528285013583820152604085013560408201526060808601359082015260808086013590820152815201910190610a53565b634e487b7160e01b600052604160045260246000fd5b61011b5760a036600319011261011b576044356001600160401b03811161011b57610b85903690600401611525565b6064906084356001600160a01b038116810361011b5760005b8251811015610e6657610bb18184611842565b5190610bbc8261346a565b610bc982516024356123af565b916020810151610bdb600435856117a7565b54101561041b5760a08101515115610e2257610c076020820151604083015160608401515191866137fb565b6040610c3260a084015182519384928392631155a0c560e31b84528560048501526044840190611782565b602483019190915203816001600160a01b0389165afa80156103fd57600091600091610e01575b5015908115610df5575b506103ad576001610c76600435856117a7565b0154610de357600192610c8b60643543611de8565b82516024351091610ca1428460c087015161249d565b9260e0850193610cb34283875161249d565b90610ccd82828960208101518988604042940151926136c3565b89610cda600435876117a7565b0155846002610ceb600435876117a7565b0155426003610cfc600435876117a7565b015560408701516004610d108135876117a7565b01556005610d20600435866117a7565b01556006610d30600435856117a7565b01556007610d40600435846117a7565b019060ff80198354169116179055610d60602085015191600435906117a7565b557f5c61a90d657f23ccfe717e761483a7d93278644818a7fe0a675b26ce141353d1835192610dcf602086015195610dc160408201519360c0606084015151930151905192604051958652602086015260a0604086015260a0850190611782565b908382036060850152611782565b92608082015280602435930390a401610b9e565b604051639ce22bbb60e01b8152600490fd5b90508151141587610c63565b9050610e1c915060403d6040116103f6576103e681836111dc565b88610c59565b60405162461bcd60e51b815260206004820152601e60248201527f5369676e617475726520726571756972656420666f722064697370757465000060448201528690fd5b602060405160018152f35b606036600319011261011b576024356001600160401b03811161011b57610e9e602091369060040161121a565b604051610eea6094828581019460043586524660408301523060601b6060830152610ed2815180928960748601910161175f565b810160443560748201520360748101845201826111dc565b519020604051908152f35b61011b5761010036600319011261011b576001600160401b0360243581811161011b57610f26903690600401611354565b60443582811161011b57610f3e903690600401611294565b90606435801515810361011b5760843584811161011b57610f6390369060040161121a565b60a43594851161011b57610f7e610f8f95369060040161121a565b9160e4359460c43594600435611f6e565b6040518091602080830160208452825180915260206040850193019160005b828110610fbd57505050500390f35b835185528695509381019392810192600101610fae565b61011b5760e036600319011261011b5761085a60c43560a435608435606435604435602435600435611df5565b61011b5761085a61101136611137565b92919091611d66565b61011b5760031960c03682011261011b57608435906001600160401b039081831161011b5760a090833603011261011b576040519161105883611155565b80600401358352602481013560208401526044810135604084015260648101356060840152608481013591821161011b576004611098923692010161121a565b608082015260a435906001600160a01b038216820361011b576020916110c9916064356044356024356004356119c1565b6040519015158152f35b608036600319011261011b576004356001600160401b03811161011b576110fe90369060040161121a565b611117611109611261565b91606435926044359161249d565b0361057f57005b61011b5761085a61112e36611137565b929190916123f2565b608090600319011261011b5760043590602435906044359060643590565b60a081019081106001600160401b03821117610b4057604052565b608081019081106001600160401b03821117610b4057604052565b606081019081106001600160401b03821117610b4057604052565b604081019081106001600160401b03821117610b4057604052565b602081019081106001600160401b03821117610b4057604052565b601f909101601f19168101906001600160401b03821190821017610b4057604052565b6001600160401b038111610b4057601f01601f191660200190565b81601f8201121561011b57803590611231826111ff565b9261123f60405194856111dc565b8284526020838301011161011b57816000926020809301838601378301015290565b60243590811515820361011b57565b3590811515820361011b57565b6001600160401b038111610b405760051b60200190565b9080601f8301121561011b5760209082356112ae8161127d565b936112bc60405195866111dc565b81855260208086019260051b82010192831161011b57602001905b8282106112e5575050505090565b813581529083019083016112d7565b9080601f8301121561011b57602090823561130e8161127d565b9361131c60405195866111dc565b81855260208086019260051b82010192831161011b57602001905b828210611345575050505090565b81358152908301908301611337565b91909160808184031261011b57604090815161136f81611170565b813581529384906020906001600160401b03908285013582811161011b5781611399918701611294565b838501528585013582811161011b57816113b49187016112f4565b86850152606094858101359083821161011b57019181601f8401121561011b578235916113e08361127d565b976113ed8151998a6111dc565b83895285808a019460051b8601019482861161011b57868101945b86861061141b5750505050505050500152565b853585811161011b5782018a601f19828703011261011b5783519061143f8261118b565b808a01356001600160a01b038116810361011b5782528481013587811161011b57868b61146e9284010161121a565b8a8301528b8101359087821161011b570185603f8201121561011b57808a8d9201358661149a8261127d565b936114a7825195866111dc565b8285528d850192028301019188831161011b57918e959391888e969401905b8282106114e25750505083945086820152815201950194611408565b91939550919395828a031261011b578c8f9189516114ff8161118b565b8435815282850135838201528a8501358b8201528152019101918c94928f9694926114c6565b81601f8201121561011b5780359160209161153f8461127d565b9360409261155060405196876111dc565b818652848087019260051b8401019381851161011b57858401925b85841061157c575050505050505090565b6001600160401b03843581811161011b5786019161010080601f19858803011261011b57845190808201828110858211176116615786528a8501358252858501358b83015260609081860135878401526080918287013586811161011b57898e6115e8928a0101611354565b9084015260a091828701359084015260c0918287013586811161011b57898e611613928a010161121a565b9084015260e0918287013586811161011b57898e611633928a010161121a565b9084015285013593841161011b57611652878c8097968197010161121a565b9082015281520193019261156b565b60246000634e487b7160e01b81526041600452fd5b91909161014090818185031261011b57604051916001600160401b0390830181811184821017610b4057604052829482358452602083013560208501526040830135604085015260608301356060850152608083013582811161011b57816116df918501611354565b608085015260a083013582811161011b57816116fc91850161121a565b60a085015260c083013582811161011b578161171991850161121a565b60c085015260e083013591821161011b5761173591830161121a565b60e0830152610100611748818301611270565b9083015261175a610120809201611270565b910152565b60005b8381106117725750506000910152565b8181015183820152602001611762565b9060209161179b8151809281855285808601910161175f565b601f01601f1916010190565b6020906117c192826040519483868095519384920161175f565b82019081520301902090565b604051906117da82611155565b60006080838281528260208201528260408201528260608201520152565b600160ff1b81146118095760000390565b634e487b7160e01b600052601160045260246000fd5b80511561182c5760200190565b634e487b7160e01b600052603260045260246000fd5b805182101561182c5760209160051b010190565b919082604091031261011b5760208251920151801515810361011b5790565b9190820391821161180957565b60409060405191611892836111a6565b6001835282916000805b6020808210156118d3578451602092916118b582611170565b8482528481830152846060808985015283015282890101520161189c565b50505091925050565b602080820190808352835180925260409283810182858560051b8401019601946000906000935b86851061191557505050505050505090565b9091929394959697603f198282030185528689516080908184019181518552838201518486015286820151928188870152835180915260a090858288019501928a925b8284106119855750505050509060019383926060809101519101529a019501950193969594929190611903565b84518051885280890151888a0152808c01518c89015260608082015190890152820151878301528e979681019690940193600190930192611958565b8451808510979693948815611d605780915b8915611d59575b6119e481846123af565b94600197886119f383896117a7565b0154610de35760608a01958651611a0a848a6117a7565b54101561041b5760408b8101519097906001600160ff1b038111611d48578b9c9d9e899c9b9c519d8e611a3c816111a6565b5260005b602080821015611a6257908f60209282611a586117cd565b9201015201611a40565b5050919395979a9d8a9d91939597999c8d611b27611aff60209e8f96878701978851908a600014611d3f578a8c805b8215611d39576000915b611aa4816117f8565b9315611d3057611ab3906117f8565b935b8a5195611ac187611155565b86528501528884015260608301526080820152611add8261181f565b52611ae78161181f565b508a51855192611af6846111c1565b600084526124df565b9260808501518351809581948293631155a0c560e31b84528760048501526044840190611782565b602483019190915203916001600160a01b03165afa908115611d2557908e91600092600092611d04575b505015918215611cf8575b5050611ce557611b6e9051958d6117a7565b8560005289528a6000209782895410611cd4578286611b8d92876123f2565b611b98828954611875565b8855611cb1575b5051611bab848b6117a7565b55875194611bb8866111a6565b8a865260005b878110611c9b575092611c9598969492611c5b928997956000805160206138998339815191529c9a60005281885289600020836000528852896000205491866000528852896000208360005288528d8a60002054908254920154928b5194611c2586611155565b8552898501528a84015260608301526080820152611c428561181f565b52611c4c8461181f565b50611c55611882565b976117a7565b5492855194611c6986611170565b8552840152838301526060820152611c808361181f565b52611c8a8261181f565b5051918291826118dc565b0390a190565b8790611ca56117cd565b82828a01015201611bbe565b8b8701805460008382039312818412811691841390151617611809575538611b9f565b8b51632fd8225d60e21b8152600490fd5b5050505050505050505050505050600090565b51141590503880611b5c565b611d1e935080919250903d106103f6576103e681836111dc565b388f611b51565b8e513d6000823e3d90fd5b50600093611ab5565b81611a9b565b8a8c6000611a91565b88516329be7c4760e11b8152600490fd5b50806119da565b816119d3565b9091928015611de2576000838152826020526040928382208683526020528382205491838310611dd1579282611dc99286602096611db4856000805160206138b98339815191529a98611875565b928a825288528181208b825288522055611875565b9051908152a3565b8451632fd8225d60e21b8152600490fd5b50505050565b9190820180921161180957565b919695909493948115611f6457600097848952602090808252604094858b20898c528352858b205490878c52808452868c208a8d528452868c2087519088820182811060018060401b03821117611f505789528a825285820188815281549091600160401b821015611f3b5760018201808255821015611f26578f52868f209251600191821b9093019283559051910155878c528352858b20898c528352858b2054600019810194908511611f12579a611ede8688937fae767eeb0c57abd46e2e0b422895ba3b89372fbd0510a58f00d996faf66f027d9a9b9c9d9e8815611ef9575b50611de8565b9289825284528181208b8252845220558351928352820152a4565b8c855287528d8585209085528752838581205538611ed8565b634e487b7160e01b8c52601160045260248cfd5b50634e487b7160e01b8f52603260045260248ffd5b50634e487b7160e01b8f52604160045260248ffd5b634e487b7160e01b8f52604160045260248ffd5b5050505050509050565b9296939096959194951561235057611f8c611f9291979294976125af565b956125af565b95627a1200936000965b606084018051518910156123435760208910801590612338575b61230f5788611fc59151611842565b5195611fd7604088015189519061276d565b156122de579982918b61203261203e9d878998978f8f8f918f9060405a9f0151908a5184106000906000146122c95750612011848c611842565b51935b8151600092908210156122b25761202b9250611842565b5193612820565b92919e90985a90611875565b8181106122a457505060005b9c1561226b575060009a8b5b8a51811015612259576120698189611842565b51612074828d611842565b51141580612244575b61208957600101612056565b5091939b90929495969798999a5060015b61220c5760005b60408a015180518210156121ee57908b8b6120d68f8b908e8e6120dd6120c98960019b611842565b5191825196878092611842565b5198611842565b51602082015160409092015160ff8b901b92898418928418908181106121de57506000915b82156121d6575b81198111156121c7575050600019905b8083106121bf575b508082116121b7575b5080156121b0575b1895808703612149575b50505050505050016120a1565b60607f2d58d8af99c9759064693d6b4d2f61c2783fe9510d44ac6c68ecc6161eccc0ea916121888760406121a29a8e8060a01b03905116980151611842565b51906040519182526020820152886040820152a48b611842565b52388b818f8b908e8361213c565b5088612132565b90503861212a565b915038612121565b6121d091611de8565b90612119565b8c9250612109565b6121e89082611875565b91612102565b5050949997509594600191985099929199965b019697929497611f9c565b9499909695506001919897828060a09d96959d1b0390511681876000805160206138d9833981519152602060405160068152a4612201565b506122538160408c0151612b07565b1561207d565b5091939b90929495969798999a61209a565b909980929c9650876000805160206138d9833981519152602060019697989e9b878060a01b039051169460ff60405191168152a4612201565b6122ad91611875565b61204a565b5050604051906122c1826111c1565b815293612820565b604051906122d6826111c1565b815293612014565b9398959760019198828060a01b0390511681876000805160206138d9833981519152602060405160058152a4612201565b505050505090506000929193506000805160206138d9833981519152602060405160028152a490565b506161a88710611fb6565b5050505050505091505090565b50509250509260005b606084015180518210156123a7576060916001916001600160a01b0390612381908390611842565b51511681866000805160206138d9833981519152602060405160078152a4019050612359565b509092505050565b90808210156123d6576040519160208301526040820152604081526123d38161118b565b90565b906040519160208301526040820152604081526123d38161118b565b9091928015611de257600083815282602052604092838220868352602052838220549160018060ff1b03808411908115612476575b50612465579282611dc99286602096612450856000805160206138b98339815191529a98611de8565b928a825288528181208b825288522055611de8565b84516329be7c4760e11b8152600490fd5b8481039150811161248957841138612427565b634e487b7160e01b82526011600452602482fd5b916124d9906040519283916124be6020840196606088526080850190611782565b9115156040840152606083015203601f1981018352826111dc565b51902090565b92919092604080519384916020968784019760008952466040860152606030606087015261251b60809760e06080890152610100880190611782565b9260a09060a0880152601f1997888886030160c089015283808b5196878152019a01956000935b868510612574575050505050505050836125689184846124d997030160e08501526127ec565b039081018352826111dc565b875180518d52808701518d880152808301518d840152808201518d8301528301518c8401529a83019a8c995096850196600190940193612542565b80511561274c57805160121c15801590612760575b61274c57604090815190602091612604816125f68582019463e3af37e360e01b86528660248401526044830190611782565b03601f1981018352826111dc565b6000809281925190306207a120fa923d15612744573d93612624856111ff565b94612631835196876111dc565b85523d838587013e5b15612731578351840190838581840193031261272d57848401516001600160401b039586821161272957019282603f8501121561272657848401519261267f8461127d565b9661268c845198896111dc565b848852838789019560051b8701019582871161272257848101955b8787106126ba5750505050505050505090565b865183811161271e57820184605f8201121561271e57868101516060916126e0826111ff565b926126ed8a5194856111dc565b8284528781848401011161271a578c9492849261270f9287809701910161175f565b8152019601956126a7565b8880fd5b8580fd5b8380fd5b80fd5b8480fd5b8280fd5b519250905061273f826111c1565b815290565b60609361263a565b50604051612759816111c1565b6000815290565b506216e3605a11156125c4565b818151116127e55760005b81518110156127dd578261278c8284611842565b515110156127d55760005b8181106127a75750600101612778565b6127b18184611842565b51516127bd8385611842565b5151146127cc57600101612797565b50505050600090565b505050600090565b505050600190565b5050600090565b90815180825260208080930193019160005b82811061280c575050505090565b8351855293810193928101926001016127fe565b9490979593929660609360018060a01b0392838551163b15612af1576161a883108015612ae4575b612ad057602085019661286a6128628951518d5190611de8565b845190611de8565b60121c612abb575a9751604080516318c2d6df60e31b602082015260e06024820152909d909c8d95926128a161010488018e6127ec565b9260231993848982030160448a01526128b9916127ec565b838882030160648901526128cc91611782565b828782030160848801526128df91611782565b908582030160a48601526128f291611782565b9160c484015260e48301520394601f19958681018a52612912908a6111dc565b5a61291c91611875565b9080821015612aa8579061292f91611875565b915a926202ab98841115612aa857620249ef19840193841161180957623d0900808511612aa0575b50808411612a98575b506161a88310612a865751166000968792839260208351930191fa913d9215612a7a578351916005928060051b9080820460201490151715612a66578801808911612a66578403612a4d576129b4846111ff565b936129c1895195866111dc565b8085526129cd816111ff565b908360208701920136833788823e5194602089860151961490811591612a5a575b50612a4d5750612a09612a008561127d565b975197886111dc565b838752612a158461127d565b01366020880137845b838110612a3057505050506001929190565b806060600192841b85010151612a46828a611842565b5201612a1e565b9596506004949350505050565b905051851415386129ee565b634e487b7160e01b88526011600452602488fd5b50939450600392915050565b50505094505050905060009190600290565b925038612960565b935038612957565b5050505094505050905060009190600290565b50505050505094505050905060009190600290565b505050505094505050905060009190600290565b506216e3605a1115612848565b5050505050505050915050600090606090600190565b9060005b82518110156127d55781612b1f8285611842565b5151146127dd57600101612b0b565b9190916000838201938412911290801582169115161761180957565b60001981146118095760010190565b9496939290928751956020890151938488148015613460575b61041b57878314928584159182613455575b505061040957612b9485896123af565b921561344e5784985b6001612ba983866117a7565b0154610de357602060408c0151511161060757602060608c015151116106075760005b60408c015151811015612c195760005b818110612bec5750600101612bcc565b8c612c0a826040612c008682860151611842565b5151930151611842565b51511461041b57600101612bdc565b50909294969899919395979960a0830151612c3485886117a7565b54101561041b57608083015151156133ff5760408301515115806133f2575b61041b576040612c9c612c7460a0860151838701516060880151918b6124df565b9360808601518351809681948293631155a0c560e31b84528760048501526044840190611782565b602483019190915203916001600160a01b03165afa806000936000926133ce575b50612cd2575060009a50505050505050505050565b159182156133c3575b50506133b65760005b60408201518051821015612fde5781612cfc91611842565b51908151612d21612d166020850151604086015190612b2e565b606085015190612b2e565b61041b5760208301516000811215612f6f5750612d40818d8c8961384f565b612d4d60208501516117f8565b11612ec257612d5f60208401516117f8565b8c60005286602052604060002082600052602052612d836040600020918254611875565b90558b60005285602052604060002081600052602052808c6000805160206138b98339815191526020604060002054604051908152a35b60408301516000811215612f005750612dd5818a8c8961384f565b612de260408501516117f8565b11612ec257612df460408401516117f8565b8960005286602052604060002082600052602052612e186040600020918254611875565b9055886000528560205260406000208160005260205280896000805160206138b98339815191526020604060002054604051908152a35b612e5988886117a7565b906000526020526040600020606083015160008112600014612ed457508054612e8560608501516117f8565b8110612ec2576001608085612eab612eba94612ea56060869a01516117f8565b90611875565b85555b01519201918254612b2e565b905501612ce4565b604051632fd8225d60e21b8152600490fd5b600160808195836000612eba9513612eed575b50612eae565b612ef8908654611de8565b855538612ee7565b60008113612f0f575b50612e4f565b8960005286602052604060002082600052602052612f336040600020918254611de8565b9055886000528560205260406000208160005260205280896000805160206138b98339815191526020604060002054604051908152a338612f09565b60008113612f7e575b50612dba565b8c60005286602052604060002082600052602052612fa26040600020918254611de8565b90558b60005285602052604060002081600052602052808c6000805160206138b98339815191526020604060002054604051908152a338612f78565b50509497909693955091909160a0850151612ff988846117a7565b55604085015151926000945b606087015180518710156130c0578661301d91611842565b51976000998a5b60408a015180518210156130565761303d828d92611842565b51511461304d575b600101613024565b60019b50613045565b50509599909691979a929860005b8c8482106130995750505015613085575b6001019496909895979397613005565b97613091600191612b4a565b989050613075565b6130a882606085930151611842565b51146130b7575b600101613064565b600192506130af565b50909193959796989294506130d48661127d565b956130e260405197886111dc565b8087526130f1601f199161127d565b0160005b81811061339f575050600096875b60408a015180518210156131ca579061311e81600193611842565b515161312a8d8a6117a7565b816000526020526040600020886000528660205260406000208260005260205260406000205488600052876020526040600020836000526020526040600020549085835493015493604051608052613183608051611155565b608051526020608051015260406080510152606060805101526080805101526131c36131ae8b612b4a565b9a6080516131bc828d611842565b528a611842565b5001613103565b50509795919496929098936000955b6060880151805188101561332857876131f191611842565b519860009a8b5b60408b0151805182101561322a57613211828e92611842565b515114613221575b6001016131f8565b60019c50613219565b50509b97919995909a8b889160005b898d8783106132f8575050506132ec579161325a6132e092600195946117a7565b886000526020526040600020856000528c60205260406000208960005260205260406000205490876000528d60205260406000208a600052602052604060002054868254920154926040519b6132af8d611155565b8c5260208c015260408b015260608a015260808901526132ce81612b4a565b976132d98289611842565b5286611842565b505b01959998976131d9565b505094506001906132e2565b82945061330c929193955060600151611842565b511461331f575b60010188918d91613239565b60019150613313565b505094509250905061339794935061335760008051602061389983398151915296613351611882565b956117a7565b54916040519361336685611170565b84526020840152604083015260608201526133808261181f565b5261338a8161181f565b50604051918291826118dc565b0390a1600190565b6020906133aa6117cd565b82828b010152016130f5565b5060009750505050505050565b141590503880612cdb565b9093506133ea915060403d6040116103f6576103e681836111dc565b909238612cbd565b5060608301515115612c53565b60405162461bcd60e51b815260206004820152602160248201527f5369676e617475726520726571756972656420666f7220736574746c656d656e6044820152601d60fa1b6064820152608490fd5b8798612b9d565b141590508538612b84565b5084881015612b72565b6060810161347881516134af565b60408301510361057f57515160808201510361057f576134a88160e060c062010000940151519101515190611de8565b1161060757565b9060409081830190815151906020948581019283515103612465576080845151116136b257606092606082019387855151116136a15760015b865180518210156135495760001982018281116135345761350891611842565b51613514828951611842565b511115613523576001016134e8565b87516329be7c4760e11b8152600490fd5b60246000634e487b7160e01b81526011600452fd5b505092969361357c959192969461359286519788958387019a848c525189880152516080606088015260c08701906127ec565b935193603f1994858783030160808801526127ec565b9151928483030160a085015282519182815281810182808560051b8401019501966000906000935b8685106135fd57505050505050506135db925003601f1981018452836111dc565b6202c0008251116135ed575051902090565b5163e217c62b60e01b8152600490fd5b9193959750919395601f1982820301855286895160018060a01b0381511683528b61363383830151878587015287860190611782565b910151928c8183039101528b8280855193848152019401918688925b828410613675575050505050806001929a01950195019290918a979592989694986135ba565b95868597600195979496518051845285810151868501520151908201520194019201899291868e61364f565b865163e217c62b60e01b8152600490fd5b845163e217c62b60e01b8152600490fd5b959391949290946040519560208701978852151560f81b604087015260418601526061850152608184015260a183015260c182015260c18152610100810181811060018060401b03821117610b405760405251902090565b9092919060ff16600281116137ef57600181146137e45760209190159081156137d6576318160ddd60e01b915b156137af5750604051908282015260048152613763816111a6565b818101938480925191617530fa915191153d81156137a3575b5061379b578115158061378c5790565b506001600160ff1b0382111590565b600091508190565b6020915014153861377c565b604051918383015260018060601b03166024820152602481526137d18161118b565b613763565b63bd85b03960e01b91613748565b505090506001908190565b50509050600090600090565b92916124d99160405193849261383160208501976001895246604087015230606087015260e06080870152610100860190611782565b9260a085015260c084015260e083015203601f1981018352826111dc565b929060009383855260205260408420828552602052604084205492845260205260408320908352602052604082205490818111600014613893576123d39250611875565b50509056fe784575545124eef27f8fcc1472fb5f2483beb9cc23e6fe3dbf588eb7bd501f7cab4d21442efe134c3d0c087e2b687e9593a1c09176f498d37873210cde052c450d4ecdaa4cfd057225c8238624fe92e8965ba17a3152e29b410f9f105647e3d3a2646970667358221220b35883b1324feffeaee20fc3c546c858a20b1c1695d144401254965e7902e84c64736f6c63430008180033",
  "linkReferences": {},
  "deployedLinkReferences": {},
  "immutableReferences": {
    "library_deploy_address": [
      {
        "length": 32,
        "start": 7
      }
    ]
  }
}