{
  "_format": "hh-sol-artifact-1",
  "contractName": "Account",
  "sourceName": "contracts/Account.sol",
  "abi": [
    {
      "inputs": [],
      "name": "E2",
      "type": "error"
    },
    {
      "inputs": [],
      "name": "E3",
      "type": "error"
    },
    {
      "inputs": [],
      "name": "E4",
      "type": "error"
    },
    {
      "inputs": [],
      "name": "E5",
      "type": "error"
    },
    {
      "inputs": [],
      "name": "E6",
      "type": "error"
    },
    {
      "inputs": [],
      "name": "E7",
      "type": "error"
    },
    {
      "inputs": [],
      "name": "E8",
      "type": "error"
    },
    {
      "inputs": [],
      "name": "E9",
      "type": "error"
    },
    {
      "anonymous": false,
      "inputs": [
        {
          "components": [
            {
              "internalType": "bytes32",
              "name": "left",
              "type": "bytes32"
            },
            {
              "internalType": "bytes32",
              "name": "right",
              "type": "bytes32"
            },
            {
              "internalType": "uint256",
              "name": "tokenId",
              "type": "uint256"
            },
            {
              "internalType": "uint256",
              "name": "leftReserve",
              "type": "uint256"
            },
            {
              "internalType": "uint256",
              "name": "rightReserve",
              "type": "uint256"
            },
            {
              "internalType": "uint256",
              "name": "collateral",
              "type": "uint256"
            },
            {
              "internalType": "int256",
              "name": "ondelta",
              "type": "int256"
            }
          ],
          "indexed": false,
          "internalType": "struct Settled[]",
          "name": "settled",
          "type": "tuple[]"
        }
      ],
      "name": "AccountSettled",
      "type": "event"
    },
    {
      "anonymous": false,
      "inputs": [
        {
          "indexed": true,
          "internalType": "bytes32",
          "name": "debtor",
          "type": "bytes32"
        },
        {
          "indexed": true,
          "internalType": "bytes32",
          "name": "creditor",
          "type": "bytes32"
        },
        {
          "indexed": true,
          "internalType": "uint256",
          "name": "tokenId",
          "type": "uint256"
        },
        {
          "indexed": false,
          "internalType": "uint256",
          "name": "amount",
          "type": "uint256"
        },
        {
          "indexed": false,
          "internalType": "uint256",
          "name": "debtIndex",
          "type": "uint256"
        }
      ],
      "name": "DebtCreated",
      "type": "event"
    },
    {
      "anonymous": false,
      "inputs": [
        {
          "indexed": true,
          "internalType": "bytes32",
          "name": "debtor",
          "type": "bytes32"
        },
        {
          "indexed": true,
          "internalType": "bytes32",
          "name": "creditor",
          "type": "bytes32"
        },
        {
          "indexed": true,
          "internalType": "uint256",
          "name": "tokenId",
          "type": "uint256"
        },
        {
          "indexed": false,
          "internalType": "uint256",
          "name": "amountForgiven",
          "type": "uint256"
        },
        {
          "indexed": false,
          "internalType": "uint256",
          "name": "debtIndex",
          "type": "uint256"
        }
      ],
      "name": "DebtForgiven",
      "type": "event"
    },
    {
      "anonymous": false,
      "inputs": [
        {
          "indexed": false,
          "internalType": "bytes32",
          "name": "recoveredEntity",
          "type": "bytes32"
        },
        {
          "indexed": false,
          "internalType": "bool",
          "name": "valid",
          "type": "bool"
        }
      ],
      "name": "DebugHankoResult",
      "type": "event"
    },
    {
      "anonymous": false,
      "inputs": [
        {
          "indexed": false,
          "internalType": "uint256",
          "name": "step",
          "type": "uint256"
        },
        {
          "indexed": false,
          "internalType": "bytes32",
          "name": "val1",
          "type": "bytes32"
        },
        {
          "indexed": false,
          "internalType": "bytes32",
          "name": "val2",
          "type": "bytes32"
        },
        {
          "indexed": false,
          "internalType": "bool",
          "name": "boolVal",
          "type": "bool"
        }
      ],
      "name": "DebugHankoStep",
      "type": "event"
    },
    {
      "anonymous": false,
      "inputs": [
        {
          "indexed": false,
          "internalType": "bytes32",
          "name": "leftEntity",
          "type": "bytes32"
        },
        {
          "indexed": false,
          "internalType": "bytes32",
          "name": "rightEntity",
          "type": "bytes32"
        },
        {
          "indexed": false,
          "internalType": "bytes32",
          "name": "initiator",
          "type": "bytes32"
        },
        {
          "indexed": false,
          "internalType": "uint256",
          "name": "sigLen",
          "type": "uint256"
        }
      ],
      "name": "DebugSettleEntry",
      "type": "event"
    },
    {
      "anonymous": false,
      "inputs": [
        {
          "indexed": false,
          "internalType": "bytes32",
          "name": "computedHash",
          "type": "bytes32"
        },
        {
          "indexed": false,
          "internalType": "bytes32",
          "name": "counterparty",
          "type": "bytes32"
        },
        {
          "indexed": false,
          "internalType": "uint256",
          "name": "cooperativeNonce",
          "type": "uint256"
        },
        {
          "indexed": false,
          "internalType": "uint256",
          "name": "diffsLength",
          "type": "uint256"
        },
        {
          "indexed": false,
          "internalType": "uint256",
          "name": "encodedMsgLength",
          "type": "uint256"
        }
      ],
      "name": "DebugSettlementHash",
      "type": "event"
    },
    {
      "anonymous": false,
      "inputs": [
        {
          "indexed": true,
          "internalType": "bytes32",
          "name": "sender",
          "type": "bytes32"
        },
        {
          "indexed": true,
          "internalType": "bytes32",
          "name": "counterentity",
          "type": "bytes32"
        },
        {
          "indexed": true,
          "internalType": "uint256",
          "name": "disputeNonce",
          "type": "uint256"
        },
        {
          "indexed": false,
          "internalType": "bytes32",
          "name": "proofbodyHash",
          "type": "bytes32"
        },
        {
          "indexed": false,
          "internalType": "bytes",
          "name": "initialArguments",
          "type": "bytes"
        }
      ],
      "name": "DisputeStarted",
      "type": "event"
    },
    {
      "anonymous": false,
      "inputs": [
        {
          "indexed": true,
          "internalType": "bytes32",
          "name": "insured",
          "type": "bytes32"
        },
        {
          "indexed": true,
          "internalType": "bytes32",
          "name": "insurer",
          "type": "bytes32"
        },
        {
          "indexed": true,
          "internalType": "uint256",
          "name": "tokenId",
          "type": "uint256"
        },
        {
          "indexed": false,
          "internalType": "uint256",
          "name": "limit",
          "type": "uint256"
        },
        {
          "indexed": false,
          "internalType": "uint256",
          "name": "expiresAt",
          "type": "uint256"
        }
      ],
      "name": "InsuranceRegistered",
      "type": "event"
    },
    {
      "anonymous": false,
      "inputs": [
        {
          "indexed": true,
          "internalType": "bytes32",
          "name": "entity",
          "type": "bytes32"
        },
        {
          "indexed": true,
          "internalType": "uint256",
          "name": "tokenId",
          "type": "uint256"
        },
        {
          "indexed": false,
          "internalType": "uint256",
          "name": "newBalance",
          "type": "uint256"
        }
      ],
      "name": "ReserveUpdated",
      "type": "event"
    },
    {
      "inputs": [
        {
          "internalType": "bytes32",
          "name": "e1",
          "type": "bytes32"
        },
        {
          "internalType": "bytes32",
          "name": "e2",
          "type": "bytes32"
        }
      ],
      "name": "accountKey",
      "outputs": [
        {
          "internalType": "bytes",
          "name": "",
          "type": "bytes"
        }
      ],
      "stateMutability": "pure",
      "type": "function"
    },
    {
      "inputs": [
        {
          "internalType": "bytes32",
          "name": "domainSep",
          "type": "bytes32"
        },
        {
          "internalType": "uint256",
          "name": "chainId",
          "type": "uint256"
        },
        {
          "internalType": "address",
          "name": "depository",
          "type": "address"
        },
        {
          "internalType": "bytes",
          "name": "encodedBatch",
          "type": "bytes"
        },
        {
          "internalType": "uint256",
          "name": "nonce",
          "type": "uint256"
        }
      ],
      "name": "computeBatchHankoHash",
      "outputs": [
        {
          "internalType": "bytes32",
          "name": "",
          "type": "bytes32"
        }
      ],
      "stateMutability": "pure",
      "type": "function"
    },
    {
      "inputs": [
        {
          "internalType": "uint256",
          "name": "cooperativeNonce",
          "type": "uint256"
        },
        {
          "internalType": "uint256",
          "name": "disputeNonce",
          "type": "uint256"
        },
        {
          "internalType": "bool",
          "name": "startedByLeft",
          "type": "bool"
        },
        {
          "internalType": "uint256",
          "name": "timeout",
          "type": "uint256"
        },
        {
          "internalType": "bytes32",
          "name": "proofbodyHash",
          "type": "bytes32"
        },
        {
          "internalType": "bytes",
          "name": "initialArguments",
          "type": "bytes"
        }
      ],
      "name": "encodeDisputeHash",
      "outputs": [
        {
          "internalType": "bytes32",
          "name": "",
          "type": "bytes32"
        }
      ],
      "stateMutability": "pure",
      "type": "function"
    },
    {
      "inputs": [
        {
          "internalType": "uint8",
          "name": "tokenType",
          "type": "uint8"
        },
        {
          "internalType": "address",
          "name": "contractAddress",
          "type": "address"
        },
        {
          "internalType": "uint96",
          "name": "externalTokenId",
          "type": "uint96"
        }
      ],
      "name": "packTokenReference",
      "outputs": [
        {
          "internalType": "bytes32",
          "name": "",
          "type": "bytes32"
        }
      ],
      "stateMutability": "pure",
      "type": "function"
    },
    {
      "inputs": [
        {
          "internalType": "bytes32",
          "name": "packed",
          "type": "bytes32"
        }
      ],
      "name": "unpackTokenReference",
      "outputs": [
        {
          "internalType": "address",
          "name": "contractAddress",
          "type": "address"
        },
        {
          "internalType": "uint96",
          "name": "externalTokenId",
          "type": "uint96"
        },
        {
          "internalType": "uint8",
          "name": "tokenType",
          "type": "uint8"
        }
      ],
      "stateMutability": "pure",
      "type": "function"
    }
  ],
  "bytecode": "0x6080806040523461001c5761214e90816100228239308160070152f35b600080fdfe6080604052307f000000000000000000000000000000000000000000000000000000000000000014600436101561003557600080fd5b6000803560e01c9182633d0627d0146101005782635147f14e146100f857826359516e5f146100f357826392cf61e5146100ee57826397b55ac8146100e6578263bb2c250c146100e1578263bba8d947146100d9578263d017d699146100d1578263d3eff6c6146100c9578263e2d54b36146100c157505063f176e326146100bc57600080fd5b610c2a565b15610b685780fd5b15610a7e5780fd5b156108f25780fd5b1561069d5780fd5b610638565b156105145780fd5b6104cc565b610428565b1561037d5780fd5b610296565b8015150361010f57565b600080fd5b634e487b7160e01b600052604160045260246000fd5b608081019081106001600160401b0382111761014557604052565b610114565b60a081019081106001600160401b0382111761014557604052565b60e081019081106001600160401b0382111761014557604052565b604081019081106001600160401b0382111761014557604052565b602081019081106001600160401b0382111761014557604052565b601f909101601f19168101906001600160401b0382119082101761014557604052565b6040519060c082016001600160401b0381118382101761014557604052565b6040519061012082016001600160401b0381118382101761014557604052565b604051906102258261014a565b565b6040519061022582610165565b6001600160401b03811161014557601f01601f191660200190565b81601f8201121561010f5780359061026682610234565b9261027460405194856101b6565b8284526020838301011161010f57816000926020809301838601378301015290565b60c036600319011261010f576044356102ae81610105565b60a4356001600160401b03811161010f576020916102d36102e792369060040161024f565b906084359060643590602435600435610c5b565b604051908152f35b6001600160a01b031690565b60a435906001600160a01b038216820361010f57565b604435906001600160a01b038216820361010f57565b608435906001600160a01b038216820361010f57565b602435906001600160a01b038216820361010f57565b600435906001600160a01b038216820361010f57565b35906001600160a01b038216820361010f57565b60031960c03682011261010f576001600160401b03906084359082821161010f57608090823603011261010f576040516103b68161012a565b816004013581526024820135602082015260448201356040820152606482013592831161010f576103f3610412926004610424953692010161024f565b60608201526104006102fb565b9060643560443560243560043561113a565b60405191829182901515815260200190565b0390f35b60a036600319011261010f5761043c610311565b606435906001600160401b03821161010f5761045f61042492369060040161024f565b6104b96094604051809360208201956004358752602435604084015260018060601b03199060601b1660608301526104a1815180926020607486019101610be2565b810160843560748201520360748101845201826101b6565b5190206040519081529081906020820190565b602036600319011261010f5760606004356040519080831c8252600180841b038116602083015260f81c6040820152f35b6001600160401b0381116101455760051b60200190565b60a08060031936011261010f576001600160401b03906024604480359084821161010f573660238301121561010f57816004013590610552826104fd565b9460409661056360405197886101b6565b83875260209786602089019560051b8701019536871161010f57878101955b8787106105a7576104246104128b8b610599610327565b9160643591356004356113fb565b863584811161010f57820160c0602319823603011261010f576105c86101d9565b918a8201358352878201358d8401526064820135858401526084820135606084015260a482013586811161010f57610605908c369185010161024f565b608084015260c48201359286841161010f576106298e94938d86953692010161024f565b88820152815201960195610582565b606036600319011261010f5760043560ff8116810361010f5761065961033d565b6044356001600160601b0381169081900361010f5760405160f89390931b6001600160f81b03191660609290921b6001600160601b03191691909117178152602090f35b61010036600319011261010f576106b2610353565b6106ba61033d565b6001600160401b039060443582811161010f576106db90369060040161024f565b9060c43592831161010f5761077c936106fa600094369060040161024f565b6040948594855161075d8161073760208201946107178660039052565b6001600160a01b03998a16838c015260c0606084015260e0830190610c05565b606435608083015260843560a083015260a43560c083015203601f1981018352826101b6565b519020938551809881968295631155a0c560e31b845260048401610f58565b0393165af19081156107ed57610424926000906000936107bb575b50826107af575b505191829182901515815260200190565b60e4351491503861079e565b9050816107de9293503d84116107e6575b6107d681836101b6565b810190610f3c565b919038610797565b503d6107cc565b610f74565b81601f8201121561010f57803590602061080b836104fd565b93604061081b60405196876101b6565b848652828601918360a08097028601019481861161010f578401925b858410610848575050505050505090565b868483031261010f57848791845161085f8161014a565b86358152828701358382015285870135868201526060808801359082015260808088013590820152815201930192610837565b9080601f8301121561010f5760209082356108ac816104fd565b936108ba60405195866101b6565b81855260208086019260051b82010192831161010f57602001905b8282106108e3575050505090565b813581529083019083016108d5565b60a08060031936011261010f5760849060248235606460446001600160401b0380841161010f573660238501121561010f57836004013592610933846104fd565b96604098610944604051998a6101b6565b8589526020998860208b019760051b8901019736891161010f57898101975b898910610981576104246104128d6064356044358f356004356115f0565b883587811161010f578201610120602319823603011261010f578d916109a56101f8565b928d83013584528a830135908401528782013589811161010f576109ce908e36918501016107f2565b858401528582013589811161010f576109ec908e3691850101610892565b606084015260a482013589811161010f57610a0c908e36918501016107f2565b608084015260c482013589811161010f57610a2c908e369185010161024f565b87840152610a3c60e48301610369565b60c08401526101048201359289841161010f578f9384938f61012492610a6691369184010161024f565b60e08401520135610100820152815201980197610963565b61010036600319011261010f57610a93610353565b610a9b61033d565b6001600160401b039060443582811161010f57610abc90369060040161024f565b60c43592831161010f57610b2f93610adb610b0e94369060040161024f565b91610b0060409586958651928391602083019560a43591608435916064359189611655565b03601f1981018352826101b6565b5190209160008451809781958294631155a0c560e31b845260048401610f58565b03926001600160a01b03165af19081156107ed57610424926000906000936107bb5750826107af57505191829182901515815260200190565b61010036600319011261010f57610b7d610353565b610b8561033d565b6001600160401b039060443582811161010f57610ba690369060040161024f565b9060c43592831161010f5761077c93610bc5600094369060040161024f565b6040948594855161075d8161073760208201946107178660029052565b60005b838110610bf55750506000910152565b8181015183820152602001610be5565b90602091610c1e81518092818552858086019101610be2565b601f01601f1916010190565b604036600319011261010f57610424610c47602435600435611691565b604051918291602083526020830190610c05565b949391929093604051610c8b60208281610c7e8183019687815193849201610be2565b81010380845201826101b6565b5190209260405194602086019687526040860152151560f81b60608501526061840152608183015260a182015260a18152610cc581610165565b51902090565b60409060405191610cdb83610180565b60018352829160005b602080821015610d2657835160209291610cfd8261014a565b600082526000818301526000868301526000606083015260006080830152828801015201610ce4565b505091925050565b634e487b7160e01b600052601160045260246000fd5b600160ff1b8114610d555760000390565b610d2e565b634e487b7160e01b600052603260045260246000fd5b805115610d7d5760200190565b610d5a565b8051821015610d7d5760209160051b010190565b602090610db0928260405194838680955193849201610be2565b82019081520301902090565b604051610dc88161019b565b60008152906000368137565b604051610de08161019b565b6000815290565b90815180825260208080930193019160005b828110610e07575050505090565b835185529381019392810192600101610df9565b90815180825260208080930193019160005b828110610e3b575050505090565b835180518652808301518684015260408082015190870152606080820151908701526080908101519086015260a09094019392810192600101610e2d565b949290969593966000865260209060018060a01b031681870152610eaa60409360e0604089015260e0880190610c05565b9160609060608801526080878403608089015282808b5195868152019a01946000925b858410610f02575050505050505084610ef19184610eff96970360a0860152610de7565b9160c0818403910152610e1b565b90565b865180518d52808601518d870152808301518d840152808201518d8301528301518c84015260a0909b019a95840195600190930192610ecd565b919082604091031261010f5760208251920151610eff81610105565b929190610f6f602091604086526040860190610c05565b930152565b6040513d6000823e3d90fd5b90600052602052604060002090565b91908201809211610d5557565b91908203918211610d5557565b81810392916000138015828513169184121617610d5557565b60409060405191610fd283610180565b60018352829160005b602080821015610d2657835160209291610ff482610165565b600082526000818301526000868301526000606083015260006080830152600060a0830152600060c0830152828801015201610fdb565b90611035826104fd565b60409061104560405191826101b6565b8381528093611056601f19916104fd565b019160005b8381106110685750505050565b602090825161107681610165565b60008152826000818301526000858301526000606083015260006080830152600060a0830152600060c083015282860101520161105b565b60208082019080835283518092528060408094019401926000905b8382106110d857505050505090565b84518051875280840151878501528082015187830152606080820151908801526080808201519088015260a0808201519088015260c0908101519087015260e090950194938201936001909101906110c9565b6000198114610d555760010190565b949290938051918281106000146113f457805b838110156113ee5783905b61124360406111678486611691565b98898b61121d6111f7611178610ccb565b928c8c8a6020820151928082106000146113e6578a830151925b818310156113dc576000915b6111aa8d830151610d44565b9310156113d3578b6111bd910151610d44565b925b6111c7610218565b94855260208501528a840152606083015260808201526111e685610d70565b526111f084610d70565b5084610d96565b54610b00611203610dbc565b61120b610dd4565b9088519586946020860198308a610e79565b51902090606088015160008451809681958294631155a0c560e31b845260048401610f58565b03926001600160a01b03165af180156107ed576000916000916113b2575b50159081156113a6575b506113985761128f8461128a602060409701519687920151988a610d96565b610f80565b868154106113865761135e996000805160206120f983398151915297611356976112bd8861128a8786610f80565b6112c8838254610f8f565b90556112d5828554610f9c565b948585551061136f575b506112e8610fc2565b9560016113088261128a886113018361128a8d8a610f80565b5496610f80565b5493015494611315610227565b968752602087015260408601526060850152608084015260a083015260c082015261133f82610d70565b5261134981610d70565b50604051918291826110ae565b0390a1610d96565b611368815461112b565b9055600190565b61137e60018401918254610fa9565b9055386112df565b604051632fd8225d60e21b8152600490fd5b505050505050505050600090565b9050845114153861126b565b90506113cd915060403d6040116107e6576107d681836101b6565b38611261565b506000926111bf565b8b8101519161119e565b600092611192565b80611158565b829061114d565b600095600195909493919291865b611418575b5050505050909150565b80518810156115eb5761142b8882610d82565b5197611438895185611691565b98611443868b610d96565b549960209a8b830151106115d957608082019a6114638c515115156116d4565b6114af8184015160409d8e9182870151611490606089015191610b0086519384928a8401968c3089611655565b51902090518251631155a0c560e31b8152938492839260048401610f58565b038160006001600160a01b038c165af180156107ed5760009182916115ba575b50159081156115ae575b5061159d578a6114e98984610d96565b015461158c5790867fb401bdfa7f39ef4f45a82ae4be47ca8ae03cbc1a167d301723dfb99c798f49eb8c9d8d9c9d96959460026115628d8f61152b9043610f8f565b9389015197611550868b0151998b8781518c1060a0606084015193019d8e5194610c5b565b8c61155b8484610d96565b0155610d96565b01558451936115806060838801519701519151925192839283611720565b0390a401979695611409565b8b51639ce22bbb60e01b8152600490fd5b8b51631bd18a1960e31b8152600490fd5b905083511415386114d9565b90506115d391508d803d106107e6576107d681836101b6565b386114cf565b604051633485c51360e21b8152600490fd5b61140e565b94929093919360019586926001966000936000995b611616575b50505050505050909150565b86518a10156116505761163661162c8b89610d82565b5184848488611956565b15611646575b9885019885611605565b939750879361163c565b61160a565b916116829060a0949796959260018552600180871b0316602085015260c0604085015260c0840190610c05565b95606083015260808201520152565b818110156116b857604080516020810192909252810191909152610eff8160608101610b00565b604080516020810193909352820152610eff8160608101610b00565b156116db57565b60405162461bcd60e51b815260206004820152601e60248201527f5369676e617475726520726571756972656420666f72206469737075746500006044820152606490fd5b604090610eff939281528160208201520190610c05565b9094939260609260808301968352602083015260408201520152565b1561175a57565b60405162461bcd60e51b815260206004820152602160248201527f5369676e617475726520726571756972656420666f7220736574746c656d656e6044820152601d60fa1b6064820152608490fd5b9192608093969594919660a084019784526020840152604083015260608201520152565b156117d457565b60405162461bcd60e51b815260206004820152600760248201526645505f5a45524f60c81b6044820152606490fd5b1561180a57565b60405162461bcd60e51b81526020600482015260096024820152685349475f454d50545960b81b6044820152606490fd5b60009060033d1161184857565b905060046000803e60005160e01c90565b600060443d10610eff57604051600319913d83016004833e81516001600160401b03918282113d6024840111176118b6578184019485519384116118be573d850101602084870101116118b65750610eff929101602001906101b6565b949350505050565b50949350505050565b6020815191015190602081106118db575090565b6000199060200360031b1b1690565b6000809160233d116118f857565b9150506020600460003e600051600191565b3d15611935573d9061191b82610234565b9161192960405193846101b6565b82523d6000602084013e565b606090565b91909160008382019384129112908015821691151617610d5557565b9294939091815192602083019283519460a08201906119a28251516040519182918d7f1d3ba9cf4b97c0201bb3a71ec8c430c809bc811b93a32fc8e4e19a60e0c43e149b8c9685611737565b0390a181519585519586881480156120ee575b6115d957878b149a878c1591826120e3575b50506120d1576119d78789611691565b9a156120ca5786915b604085015151158015906120bc575b80156120ae575b611cfb575b5050505060005b60408201518051821015611beb5781611a1a91610d82565b51908151611a3f611a34602085015160408601519061193a565b60608501519061193a565b6115d95760208301516000811215611bbb5750611a608161128a8a8c610f80565b54611a6e6020850151610d44565b116113865788611a9a611a928361128a8c611a8c60208a0151610d44565b95610f80565b918254610f9c565b90555b60408301516000811215611b7e5750611aba8161128a898c610f80565b54611ac86040850151610d44565b11611386578089611aea611a92611af79461128a8c611a8c60408b0151610d44565b90555b61128a878d610d96565b60608301516000811215611b5257508054611b156060850151610d44565b8110611386576001608085611b3b611b4a94611b356060869a0151610d44565b90610f9c565b85555b0151920191825461193a565b905501611a02565b600160808195836000611b4a9513611b6b575b50611b3e565b611b76908654610f8f565b855538611b65565b90818a89836000611af79613611b98575b50505050611aed565b61128a611ba892611bb094610f80565b918254610f8f565b9055388a8983611b8f565b89898360008413611bd0575b50505050611a9d565b61128a611ba892611be094610f80565b905538898983611bc7565b50509693929194909460408801515180611c10575b505050505061135e929350610d96565b611c20909691939592949661102b565b9660005b60408a01518051821015611cc157818989611c43604095600195610d82565b5151611c538161128a8c8c610d96565b908b611c728261128a86611c6b8361128a8b88610f80565b5494610f80565b549187845494015494611c83610227565b9687526020870152888601526060850152608084015260a083015260c0820152611cad828d610d82565b52611cb8818c610d82565b50019050611c24565b505097509450925050506000805160206120f9833981519152611ced61135e94604051918291826110ae565b0390a1839238808080611c00565b908594939a9b9998979695918b51511515611d1590611753565b611d1f838c610d96565b54906040860151906060870151918d608089015160405194859360208501973094611d4a958a610e79565b03601f1981018352611d5c90836101b6565b858d8351852096611d6c91610d96565b54956040890151518451916040519283927ffbbb6d4d06aaf2052fc51e20914df816f8750fae713b339363aad62de0f8db9e9a8b96611dab94866117a9565b0390a18d8751945160c08901958651611dc3906102ef565b611dcc906102ef565b611dd5906102ef565b925151604051938493611de89385611737565b0390a1519020918151611dfa906102ef565b611e03906102ef565b611e0c906102ef565b8c5151905a916040519282611e2492859489866117a9565b0390a1516001600160a01b0390611e3a906102ef565b16611e468115156117cd565b8a51511515611e5490611803565b8a51602080820151915160408051606481529283019390935291810182905261026090911460608201527f420e9d5d3605ffaefb08b27c5fac848a23186bec357341beb8bdf0b0c6ff5ed19b908c90608090a151604051631155a0c560e31b81529283918291611ec79160048401610f58565b03815a604094600091f180600092839261208a575b50611fdc5750505050505050505050611ef361183b565b806308c379a014611f9457634e487b7114611f59575b611f1161190a565b60008151916020831015611f4d575b5060408051610140815260208101929092528101919091526000606082015280608081015b0390a1600090565b60209150015138611f20565b611f616118ea565b90611f6c5750611f09565b6040805161013681526020810192909252600090820181905260608201528060808101611f45565b50611f9d611859565b80611fa85750611f09565b611fb4611f45916118c7565b604051918291826060600091939293608081019461012c825260208201528260408201520152565b8a60409c9b9495969798999a9c51806120138487878491926060919493608084019560c88552602085015260408401521515910152565b0390a1158015612080575b61204c576040805160ca8152602081019290925281019190915260016060820152608090a1388080806119fb565b9650965096975050505050611f45604051928392836060906000929493608082019560c98352602083015260408201520152565b508181141561201e565b9092506120a6915060403d6040116107e6576107d681836101b6565b909138611edc565b5060808501515115156119f6565b5060608501515115156119ef565b87916119e0565b604051633c4117f160e21b8152600490fd5b1415905087386119c7565b50868810156119b556fe11e95b31ceefa95a59034392a3de4f79c9fe7d7e441d3746a1f82e64f7a32bcca26469706673582212208a05a3f6f84a3bfb5d918759b41f19345e6cfe2a65abb8051446495db2371fca64736f6c63430008180033",
  "linkReferences": {},
  "deployedLinkReferences": {}
}