{
  "_format": "hh-sol-artifact-1",
  "contractName": "Account",
  "sourceName": "contracts/Account.sol",
  "abi": [
    {
      "inputs": [],
      "name": "E2",
      "type": "error"
    },
    {
      "inputs": [],
      "name": "E3",
      "type": "error"
    },
    {
      "inputs": [],
      "name": "E4",
      "type": "error"
    },
    {
      "inputs": [],
      "name": "E5",
      "type": "error"
    },
    {
      "inputs": [],
      "name": "E6",
      "type": "error"
    },
    {
      "inputs": [],
      "name": "E7",
      "type": "error"
    },
    {
      "inputs": [],
      "name": "E8",
      "type": "error"
    },
    {
      "inputs": [],
      "name": "E9",
      "type": "error"
    },
    {
      "anonymous": false,
      "inputs": [
        {
          "components": [
            {
              "internalType": "bytes32",
              "name": "left",
              "type": "bytes32"
            },
            {
              "internalType": "bytes32",
              "name": "right",
              "type": "bytes32"
            },
            {
              "components": [
                {
                  "internalType": "uint256",
                  "name": "tokenId",
                  "type": "uint256"
                },
                {
                  "internalType": "uint256",
                  "name": "leftReserve",
                  "type": "uint256"
                },
                {
                  "internalType": "uint256",
                  "name": "rightReserve",
                  "type": "uint256"
                },
                {
                  "internalType": "uint256",
                  "name": "collateral",
                  "type": "uint256"
                },
                {
                  "internalType": "int256",
                  "name": "ondelta",
                  "type": "int256"
                }
              ],
              "internalType": "struct TokenSettlement[]",
              "name": "tokens",
              "type": "tuple[]"
            },
            {
              "internalType": "uint256",
              "name": "nonce",
              "type": "uint256"
            }
          ],
          "indexed": false,
          "internalType": "struct AccountSettlement[]",
          "name": "settled",
          "type": "tuple[]"
        }
      ],
      "name": "AccountSettled",
      "type": "event"
    },
    {
      "anonymous": false,
      "inputs": [
        {
          "indexed": true,
          "internalType": "bytes32",
          "name": "debtor",
          "type": "bytes32"
        },
        {
          "indexed": true,
          "internalType": "bytes32",
          "name": "creditor",
          "type": "bytes32"
        },
        {
          "indexed": true,
          "internalType": "uint256",
          "name": "tokenId",
          "type": "uint256"
        },
        {
          "indexed": false,
          "internalType": "uint256",
          "name": "amount",
          "type": "uint256"
        },
        {
          "indexed": false,
          "internalType": "uint256",
          "name": "debtIndex",
          "type": "uint256"
        }
      ],
      "name": "DebtCreated",
      "type": "event"
    },
    {
      "anonymous": false,
      "inputs": [
        {
          "indexed": true,
          "internalType": "bytes32",
          "name": "debtor",
          "type": "bytes32"
        },
        {
          "indexed": true,
          "internalType": "bytes32",
          "name": "creditor",
          "type": "bytes32"
        },
        {
          "indexed": true,
          "internalType": "uint256",
          "name": "tokenId",
          "type": "uint256"
        },
        {
          "indexed": false,
          "internalType": "uint256",
          "name": "amountForgiven",
          "type": "uint256"
        },
        {
          "indexed": false,
          "internalType": "uint256",
          "name": "debtIndex",
          "type": "uint256"
        }
      ],
      "name": "DebtForgiven",
      "type": "event"
    },
    {
      "anonymous": false,
      "inputs": [
        {
          "indexed": true,
          "internalType": "bytes32",
          "name": "sender",
          "type": "bytes32"
        },
        {
          "indexed": true,
          "internalType": "bytes32",
          "name": "counterentity",
          "type": "bytes32"
        },
        {
          "indexed": true,
          "internalType": "uint256",
          "name": "nonce",
          "type": "uint256"
        },
        {
          "indexed": false,
          "internalType": "bytes32",
          "name": "proofbodyHash",
          "type": "bytes32"
        },
        {
          "indexed": false,
          "internalType": "bytes",
          "name": "initialArguments",
          "type": "bytes"
        }
      ],
      "name": "DisputeStarted",
      "type": "event"
    },
    {
      "anonymous": false,
      "inputs": [
        {
          "indexed": true,
          "internalType": "bytes32",
          "name": "entity",
          "type": "bytes32"
        },
        {
          "indexed": true,
          "internalType": "uint256",
          "name": "tokenId",
          "type": "uint256"
        },
        {
          "indexed": false,
          "internalType": "uint256",
          "name": "newBalance",
          "type": "uint256"
        }
      ],
      "name": "ReserveUpdated",
      "type": "event"
    },
    {
      "inputs": [
        {
          "internalType": "bytes32",
          "name": "e1",
          "type": "bytes32"
        },
        {
          "internalType": "bytes32",
          "name": "e2",
          "type": "bytes32"
        }
      ],
      "name": "accountKey",
      "outputs": [
        {
          "internalType": "bytes",
          "name": "",
          "type": "bytes"
        }
      ],
      "stateMutability": "pure",
      "type": "function"
    },
    {
      "inputs": [
        {
          "internalType": "bytes32",
          "name": "domainSep",
          "type": "bytes32"
        },
        {
          "internalType": "uint256",
          "name": "chainId",
          "type": "uint256"
        },
        {
          "internalType": "address",
          "name": "depository",
          "type": "address"
        },
        {
          "internalType": "bytes",
          "name": "encodedBatch",
          "type": "bytes"
        },
        {
          "internalType": "uint256",
          "name": "nonce",
          "type": "uint256"
        }
      ],
      "name": "computeBatchHankoHash",
      "outputs": [
        {
          "internalType": "bytes32",
          "name": "",
          "type": "bytes32"
        }
      ],
      "stateMutability": "pure",
      "type": "function"
    },
    {
      "inputs": [
        {
          "internalType": "uint256",
          "name": "nonce",
          "type": "uint256"
        },
        {
          "internalType": "bool",
          "name": "startedByLeft",
          "type": "bool"
        },
        {
          "internalType": "uint256",
          "name": "timeout",
          "type": "uint256"
        },
        {
          "internalType": "bytes32",
          "name": "proofbodyHash",
          "type": "bytes32"
        },
        {
          "internalType": "bytes",
          "name": "initialArguments",
          "type": "bytes"
        }
      ],
      "name": "encodeDisputeHash",
      "outputs": [
        {
          "internalType": "bytes32",
          "name": "",
          "type": "bytes32"
        }
      ],
      "stateMutability": "pure",
      "type": "function"
    }
  ],
  "bytecode": "0x6080806040523461001c57611d8090816100228239308160070152f35b600080fdfe6080604052307f000000000000000000000000000000000000000000000000000000000000000014600436101561003557600080fd5b60003560e01c9081634d857c1b14610c2e5781635147f14e14610b7557816359516e5f14610ad15781637d413df214610a7b57816397b55ac8146106d25781639dd6b364146105b6578163bba8d9471461045a578163d017d699146100de575063f176e326146100a457600080fd5b60403660031901126100d9576100d56100c1602435600435611622565b604051918291602083526020830190610e81565b0390f35b600080fd5b6100d95760a03660031901126100d9576001600160401b03608435116100d9573660236084350112156100d95761011a60843560040135610e47565b6101276040519182610dce565b608435600401358152602081013660246084356004013560051b6084350101116100d957602460843501905b60246084356004013560051b608435010182106101cc57600180846000825b610184575b6020836040519015158152f35b81518110156101c75790816101af61019d869484610f60565b51606435604435602435600435611681565b156101be575b82019091610172565b600093506101b5565b610177565b81356001600160401b0381116100d9576101006084358201360360231901126100d957604051916001600160401b0361010084019081119084111761044457610100830160405260843582016024810135845260448101356020850152606401356001600160401b0381116100d957366043828560843501010112156100d95760248184608435010101359061026182610e47565b9161026f6040519384610dce565b8083526020830136604460a08402858960843501010101116100d95760448387608435010101905b604460a0840285896084350101010182106103f45750505050604084015260848035830101356001600160401b0381116100d957366043828560843501010112156100d95760248184608435010101356102f081610e47565b916102fe6040519384610dce565b81835260208301903660448460051b838960843501010101116100d95760448187608435010101915b60448460051b83896084350101010183106103e457505050506060840152608435820160a401356001600160401b0381116100d957610370906024369185608435010101610df1565b6080840152608435820160c401356001600160a01b03811681036100d95760a08401526001600160401b03608435830160e40135116100d9576020928392610104906103c936608435830160e481013501602401610df1565b60c084015260843501013560e0820152815201910190610153565b8235815260209283019201610327565b60a0823603126100d957602060a09160405161040f81610d62565b843581528285013583820152604085013560408201526060808601359082015260808086013590820152815201910190610297565b634e487b7160e01b600052604160045260246000fd5b6100d9576101003660031901126100d957610473610d36565b61047b610d4c565b906001600160401b036044358181116100d95761049c903690600401610df1565b9160c4359182116100d95760409260006104bd61053b943690600401610df1565b918551610515816104ef60208201946003865260018060a01b03809c168b84015260c0606084015260e0830190610e81565b606435608083015260843560a083015260a43560c083015203601f198101835282610dce565b519020958551809781968295631155a0c560e31b84528960048501526044840190610e81565b9060248301520393165af180156105aa57602091600090600092610578575b508161056c575b506040519015158152f35b905060e4351482610561565b905061059c915060403d6040116105a3575b6105948183610dce565b810190610ea6565b908361055a565b503d61058a565b6040513d6000823e3d90fd5b6100d95760e03660031901126100d9576105ce610d36565b6105d6610d4c565b6001600160401b036044358181116100d9576105f6903690600401610df1565b9260a4359182116100d95760409261063461064261061b61066a953690600401610df1565b96865192839160208301956084359160643591886115e8565b03601f198101835282610dce565b5190209360008451809681958294631155a0c560e31b84528860048501526044840190610e81565b602483019190915203926001600160a01b03165af180156105aa576020916000906000926106b0575b50816106a457506040519015158152f35b905060c4351482610561565b90506106cb915060403d6040116105a3576105948183610dce565b9083610693565b6100d95760a03660031901126100d9576001600160401b03604435116100d9573660236044350112156100d9576044356004013561070f81610e47565b9061071d6040519283610dce565b80825260208201903660248260051b6044350101116100d957602460443501915b60248260051b604435010183106109ba57608435846001600160a01b03821682036100d95760005b81518110156109af576107798183610f60565b51906107888251602435611622565b91602081015161079a60043585610ec5565b54101561099d57606081015151156109585760208101516106346107cf604084015160405192839160208301958930886115e8565b51902060406107fd606084015182519384928392631155a0c560e31b84528560048501526044840190610e81565b6024830191909152038160006001600160a01b038b165af180156105aa57600091600091610937575b501590811561092b575b5061091957600161084360043585610ec5565b01546109075760019261085860643543610f74565b9060208301519161087c845160243510936040860151836080880196875193611570565b8661088960043585610ec5565b0155600261089960043584610ec5565b01556108ad60208401519160043590610ec5565b558151907fb401bdfa7f39ef4f45a82ae4be47ca8ae03cbc1a167d301723dfb99c798f49eb6040602085015194015191519160405190815260406020820152806108fe602435946040830190610e81565b0390a401610766565b604051639ce22bbb60e01b8152600490fd5b604051631bd18a1960e31b8152600490fd5b90508151141586610830565b9050610952915060403d6040116105a3576105948183610dce565b87610826565b60405162461bcd60e51b815260206004820152601e60248201527f5369676e617475726520726571756972656420666f72206469737075746500006044820152606490fd5b604051633485c51360e21b8152600490fd5b602060405160018152f35b82356001600160401b0381116100d95760a06044358201360360231901126100d957604051906109e982610d62565b6044803582016024810135845290810135602084015260648101356040840152608401356001600160401b0381116100d957610a2f906024369184604435010101610df1565b60608301526001600160401b03604435820160a40135116100d9576024926020928392610a699036906044350160a4810135018701610df1565b6080820152815201930192905061073e565b60a03660031901126100d95760243580151581036100d9576084356001600160401b0381116100d957602091610ab8610ac9923690600401610df1565b906064359060443590600435611570565b604051908152f35b60a03660031901126100d9576044356001600160a01b03811681036100d957606435906001600160401b0382116100d957610b126020923690600401610df1565b610b6a60946040518093868201956004358752602435604084015260018060601b03199060601b166060830152610b528151809289607486019101610e5e565b81016084356074820152036074810184520182610dce565b519020604051908152f35b6100d95760031960c0368201126100d957608435906001600160401b03908183116100d95760a09083360301126100d95760405191610bb383610d62565b8060040135835260248101356020840152604481013560408401526064810135606084015260848101359182116100d9576004610bf39236920101610df1565b608082015260a435906001600160a01b03821682036100d957602091610c24916064356044356024356004356110cd565b6040519015158152f35b6100d95760c03660031901126100d957610c46610d36565b610c4e610d4c565b906001600160401b036044358181116100d957610c6f903690600401610df1565b916084359182116100d9576040926000610c90610cd8943690600401610df1565b91855161051581610cc260208201946002865260018060a01b03809c168b8401526080606084015260a0830190610e81565b606435608083015203601f198101835282610dce565b9060248301520393165af180156105aa57602091600090600092610d14575b5081610d0857506040519015158152f35b905060a4351482610561565b9050610d2f915060403d6040116105a3576105948183610dce565b9083610cf7565b600435906001600160a01b03821682036100d957565b602435906001600160a01b03821682036100d957565b60a081019081106001600160401b0382111761044457604052565b608081019081106001600160401b0382111761044457604052565b604081019081106001600160401b0382111761044457604052565b606081019081106001600160401b0382111761044457604052565b601f909101601f19168101906001600160401b0382119082101761044457604052565b81601f820112156100d9578035906001600160401b0382116104445760405192610e25601f8401601f191660200185610dce565b828452602083830101116100d957816000926020809301838601378301015290565b6001600160401b0381116104445760051b60200190565b60005b838110610e715750506000910152565b8181015183820152602001610e61565b90602091610e9a81518092818552858086019101610e5e565b601f01601f1916010190565b91908260409103126100d9576020825192015180151581036100d95790565b602090610edf928260405194838680955193849201610e5e565b82019081520301902090565b60405190610ef882610d62565b60006080838281528260208201528260408201528260608201520152565b600160ff1b8114610f275760000390565b634e487b7160e01b600052601160045260246000fd5b805115610f4a5760200190565b634e487b7160e01b600052603260045260246000fd5b8051821015610f4a5760209160051b010190565b91908201809211610f2757565b91908203918211610f2757565b60409060405191610f9e83610d98565b6001835282916000805b602080821015610fdf57845160209291610fc182610d7d565b84825284818301528460608089850152830152828901015201610fa8565b50505091925050565b602080820190808352835180925260409283810182858560051b8401019601946000906000935b86851061102157505050505050505090565b9091929394959697603f198282030185528689516080908184019181518552838201518486015286820151928188870152835180915260a090858288019501928a925b8284106110915750505050509060019383926060809101519101529a01950195019396959492919061100f565b84518051885280890151888a0152808c01518c89015260608082015190890152820151878301528e979681019690940193600190930192611064565b919394928551908181106000146115695780925b8282101561156257825b6110f58486611622565b9560608a01516111058489610ec5565b54101561099d57604051986111198a610d98565b60018a5260005b60208082101561114257908b60209282611138610eeb565b9201015201611120565b50509295989991949790939699602083015186891060001461155b5760408401515b878a10156115515760005b61117c6040870151610f16565b90898c1015611549576111926040880151610f16565b925b604051946111a186610d62565b855260208501526040840152606083015260808201526111c082610f3d565b526111ca81610f3d565b50606083015160405190916001600160401b036020830190811190831117610444578c92602083016040526000835261121e604051946000602087015230604087015260c0606087015260e0860190610e81565b906080850152601f198482030160a08501526020808351928381520192019060005b81811061150757505050601f198382030160c08401526020808351928381520192019060005b8181106114f157505050816112896040936112ba9303601f198101835282610dce565b6020815191012092608085015160008451809681958294631155a0c560e31b84528860048501526044840190610e81565b602483019190915203926001600160a01b03165af180156105aa576000916000916114d0575b50159081156114c4575b506114b6576020810151936113046040830151938b610ec5565b85600052602052604060002096838854106114a4578060005284602052604060002086600052602052604060002061133d858254610f74565b905561134a848954610f81565b88551061147d575b6060915001516113628489610ec5565b556040519361137085610d98565b6001855260005b6020811061146657509286949261141e92600080516020611d2b83398151915299979561145e996000528160205260406000208360005260205260406000205491876000526020526040600020836000526020526040600020546001825492015492604051946113e686610d62565b8552602085015260408401526060830152608082015261140584610f3d565b5261140f83610f3d565b50611418610f8e565b95610ec5565b54916040519361142d85610d7d565b845260208401526040830152606082015261144782610f3d565b5261145181610f3d565b5060405191829182610fe8565b0390a1600190565b602090611471610eeb565b82828901015201611377565b6001860191825460008282039212818312811691831390151617610f275760609255611352565b604051632fd8225d60e21b8152600490fd5b505050505050505050600090565b905081511415386112ea565b90506114eb915060403d6040116105a3576105948183610dce565b386112e0565b8251845260209384019390920191600101611266565b909192602060a0600192608087518051835284810151858401526040810151604084015260608101516060840152015160808201520194019101919091611240565b600092611194565b604085015161116f565b6000611164565b81926110eb565b81926110e1565b9392909260405161159e602082816115918183019687815193849201610e5e565b8101038084520182610dce565b519020916040519360208501958652151560f81b60408501526041840152606183015260818201526081815260c0810181811060018060401b038211176104445760405251902090565b600181526001600160a01b03909116602082015260a0604082018190529294939260809261161891830190610e81565b9460608201520152565b90808210156116495760405191602083015260408201526040815261164681610db3565b90565b9060405191602083015260408201526040815261164681610db3565b91909160008382019384129112908015821691151617610f2757565b909392918351926020850151958685148015611d20575b61099d57848214918783159182611d15575b5050611d03576116ba8786611622565b9115611cfd57865b60e08701516116d18385610ec5565b54101561099d5760408701515115801590611cef575b611a97575b509091929394959660005b6040880151805182101561192b578161170f91610f60565b519081516117346117296020850151604086015190611665565b606085015190611665565b61099d57602083015160008112156118f05750886000528760205260406000208160005260205260406000205461176e6020850151610f16565b116114a4576117806020840151610f16565b89600052886020526040600020826000526020526117a46040600020918254610f81565b90555b604083015160008112156118b557508a600052876020526040600020816000526020526040600020546117dd6040850151610f16565b116114a4576117ef6040840151610f16565b8b600052886020526040600020826000526020526118136040600020918254610f81565b90555b6118208787610ec5565b9060005260205260406000206060830151600081126000146118895750805461184c6060850151610f16565b81106114a45760016080856118726118819461186c6060869a0151610f16565b90610f81565b85555b01519201918254611665565b9055016116f7565b60016080819583600061188195136118a2575b50611875565b6118ad908654610f74565b85553861189c565b600081136118c4575b50611816565b8b600052886020526040600020826000526020526118e86040600020918254610f74565b9055386118be565b600081136118ff575b506117a7565b89600052886020526040600020826000526020526119236040600020918254610f74565b9055386118f9565b5050969594919293909360e08601516119448686610ec5565b55604086015151948561195f575b5050505050505050600190565b909192939495969761197087610e47565b9661197e6040519889610dce565b80885261198d601f1991610e47565b0160005b818110611a8057505060005b60408901518051821015611a4857816119ba604093600193610f60565b51516119c6878b610ec5565b816000526020528c846000208a600052896020528560002083600052602052856000205491600052896020528560002083600052602052856000205485825492015492875194611a1586610d62565b855260208501528684015260608301526080820152611a34828c610f60565b52611a3f818b610f60565b5001905061199d565b5050979250600080516020611d2b8339815191529650611a7095915061141e90611418610f8e565b0390a13880808080808080611952565b602090611a8b610eeb565b82828c01015201611991565b60808701515115611ca05760e087015160408801516060890151916040519283916000602084015230604084015260c06060840152611ad960e0840189610e81565b906080840152601f198382030160a08401526020808551928381520194019060005b818110611c5a57505050601f198284030160c08301526020808251948581520191019260005b818110611c41575050611b3d925003601f198101835282610dce565b602081519101209060018060a01b0360a0890151168015611c1257611b8760409160808b015160008451809781958294631155a0c560e31b84528860048501526044840190610e81565b90602483015203925af180600093600092611bee575b50611bb15750505050505050505050600090565b99929394959697989915918215611be3575b5050611bd65796959493929190386116ec565b9650505050505050600090565b141590503880611bc3565b909350611c0a915060403d6040116105a3576105948183610dce565b909238611b9d565b60405162461bcd60e51b815260206004820152600760248201526645505f5a45524f60c81b6044820152606490fd5b8451835260209485019486945090920191600101611b21565b9193509193602060a06001926080875180518352848101518584015260408101516040840152606081015160608401520151608082015201940191019185939492611afb565b60405162461bcd60e51b815260206004820152602160248201527f5369676e617475726520726571756972656420666f7220736574746c656d656e6044820152601d60fa1b6064820152608490fd5b5060608701515115156116e7565b846116c2565b604051633c4117f160e21b8152600490fd5b1415905087386116aa565b508685101561169856fe784575545124eef27f8fcc1472fb5f2483beb9cc23e6fe3dbf588eb7bd501f7ca2646970667358221220066d155499cb4a756704804e2d39110a6e533071b40fbc28f700699e01b8193b64736f6c63430008180033",
  "linkReferences": {},
  "deployedLinkReferences": {}
}