{
  "_format": "hh-sol-artifact-1",
  "contractName": "Account",
  "sourceName": "contracts/Account.sol",
  "abi": [
    {
      "inputs": [],
      "name": "E10",
      "type": "error"
    },
    {
      "inputs": [],
      "name": "E2",
      "type": "error"
    },
    {
      "inputs": [],
      "name": "E3",
      "type": "error"
    },
    {
      "inputs": [],
      "name": "E4",
      "type": "error"
    },
    {
      "inputs": [],
      "name": "E5",
      "type": "error"
    },
    {
      "inputs": [],
      "name": "E6",
      "type": "error"
    },
    {
      "inputs": [],
      "name": "E7",
      "type": "error"
    },
    {
      "inputs": [],
      "name": "E8",
      "type": "error"
    },
    {
      "inputs": [],
      "name": "E9",
      "type": "error"
    },
    {
      "anonymous": false,
      "inputs": [
        {
          "components": [
            {
              "internalType": "bytes32",
              "name": "left",
              "type": "bytes32"
            },
            {
              "internalType": "bytes32",
              "name": "right",
              "type": "bytes32"
            },
            {
              "components": [
                {
                  "internalType": "uint256",
                  "name": "tokenId",
                  "type": "uint256"
                },
                {
                  "internalType": "uint256",
                  "name": "leftReserve",
                  "type": "uint256"
                },
                {
                  "internalType": "uint256",
                  "name": "rightReserve",
                  "type": "uint256"
                },
                {
                  "internalType": "uint256",
                  "name": "collateral",
                  "type": "uint256"
                },
                {
                  "internalType": "int256",
                  "name": "ondelta",
                  "type": "int256"
                }
              ],
              "internalType": "struct TokenSettlement[]",
              "name": "tokens",
              "type": "tuple[]"
            },
            {
              "internalType": "uint256",
              "name": "nonce",
              "type": "uint256"
            }
          ],
          "indexed": false,
          "internalType": "struct AccountSettlement[]",
          "name": "settled",
          "type": "tuple[]"
        }
      ],
      "name": "AccountSettled",
      "type": "event"
    },
    {
      "anonymous": false,
      "inputs": [
        {
          "indexed": true,
          "internalType": "bytes32",
          "name": "debtor",
          "type": "bytes32"
        },
        {
          "indexed": true,
          "internalType": "bytes32",
          "name": "creditor",
          "type": "bytes32"
        },
        {
          "indexed": true,
          "internalType": "uint256",
          "name": "tokenId",
          "type": "uint256"
        },
        {
          "indexed": false,
          "internalType": "uint256",
          "name": "amount",
          "type": "uint256"
        },
        {
          "indexed": false,
          "internalType": "uint256",
          "name": "debtIndex",
          "type": "uint256"
        }
      ],
      "name": "DebtCreated",
      "type": "event"
    },
    {
      "anonymous": false,
      "inputs": [
        {
          "indexed": true,
          "internalType": "bytes32",
          "name": "debtor",
          "type": "bytes32"
        },
        {
          "indexed": true,
          "internalType": "bytes32",
          "name": "creditor",
          "type": "bytes32"
        },
        {
          "indexed": true,
          "internalType": "uint256",
          "name": "tokenId",
          "type": "uint256"
        },
        {
          "indexed": false,
          "internalType": "uint256",
          "name": "amountForgiven",
          "type": "uint256"
        },
        {
          "indexed": false,
          "internalType": "uint256",
          "name": "debtIndex",
          "type": "uint256"
        }
      ],
      "name": "DebtForgiven",
      "type": "event"
    },
    {
      "anonymous": false,
      "inputs": [
        {
          "indexed": true,
          "internalType": "bytes32",
          "name": "sender",
          "type": "bytes32"
        },
        {
          "indexed": true,
          "internalType": "bytes32",
          "name": "counterentity",
          "type": "bytes32"
        },
        {
          "indexed": true,
          "internalType": "uint256",
          "name": "nonce",
          "type": "uint256"
        },
        {
          "indexed": false,
          "internalType": "bytes32",
          "name": "proofbodyHash",
          "type": "bytes32"
        },
        {
          "indexed": false,
          "internalType": "bytes",
          "name": "initialArguments",
          "type": "bytes"
        }
      ],
      "name": "DisputeStarted",
      "type": "event"
    },
    {
      "anonymous": false,
      "inputs": [
        {
          "indexed": true,
          "internalType": "bytes32",
          "name": "entity",
          "type": "bytes32"
        },
        {
          "indexed": true,
          "internalType": "uint256",
          "name": "tokenId",
          "type": "uint256"
        },
        {
          "indexed": false,
          "internalType": "uint256",
          "name": "newBalance",
          "type": "uint256"
        }
      ],
      "name": "ReserveUpdated",
      "type": "event"
    },
    {
      "inputs": [
        {
          "internalType": "bytes32",
          "name": "e1",
          "type": "bytes32"
        },
        {
          "internalType": "bytes32",
          "name": "e2",
          "type": "bytes32"
        }
      ],
      "name": "accountKey",
      "outputs": [
        {
          "internalType": "bytes",
          "name": "",
          "type": "bytes"
        }
      ],
      "stateMutability": "pure",
      "type": "function"
    },
    {
      "inputs": [
        {
          "internalType": "bytes32",
          "name": "domainSep",
          "type": "bytes32"
        },
        {
          "internalType": "uint256",
          "name": "chainId",
          "type": "uint256"
        },
        {
          "internalType": "address",
          "name": "depository",
          "type": "address"
        },
        {
          "internalType": "bytes",
          "name": "encodedBatch",
          "type": "bytes"
        },
        {
          "internalType": "uint256",
          "name": "nonce",
          "type": "uint256"
        }
      ],
      "name": "computeBatchHankoHash",
      "outputs": [
        {
          "internalType": "bytes32",
          "name": "",
          "type": "bytes32"
        }
      ],
      "stateMutability": "pure",
      "type": "function"
    },
    {
      "inputs": [
        {
          "internalType": "uint256",
          "name": "nonce",
          "type": "uint256"
        },
        {
          "internalType": "bool",
          "name": "startedByLeft",
          "type": "bool"
        },
        {
          "internalType": "uint256",
          "name": "timeout",
          "type": "uint256"
        },
        {
          "internalType": "bytes32",
          "name": "proofbodyHash",
          "type": "bytes32"
        },
        {
          "internalType": "bytes",
          "name": "initialArguments",
          "type": "bytes"
        }
      ],
      "name": "encodeDisputeHash",
      "outputs": [
        {
          "internalType": "bytes32",
          "name": "",
          "type": "bytes32"
        }
      ],
      "stateMutability": "pure",
      "type": "function"
    }
  ],
  "bytecode": "0x6080806040523461001c57611ea490816100228239308160070152f35b600080fdfe6080604052307f000000000000000000000000000000000000000000000000000000000000000014600436101561003557600080fd5b60003560e01c9081634d857c1b14610c5a5781635147f14e14610ba157816359516e5f14610afd5781637d413df214610aa757816397b55ac8146106ed5781639dd6b364146105d1578163a160f5141461023a578163bba8d947146100de575063f176e326146100a457600080fd5b60403660031901126100d9576100d56100c1602435600435611673565b604051918291602083526020830190610ead565b0390f35b600080fd5b6100d9576101003660031901126100d9576100f7610d62565b6100ff610d78565b906001600160401b036044358181116100d957610120903690600401610e1d565b9160c4359182116100d95760409260006101416101bf943690600401610e1d565b9185516101998161017360208201946003865260018060a01b03809c168b84015260c0606084015260e0830190610ead565b606435608083015260843560a083015260a43560c083015203601f198101835282610dfa565b519020958551809781968295631155a0c560e31b84528960048501526044840190610ead565b9060248301520393165af1801561022e576020916000906000926101fc575b50816101f0575b506040519015158152f35b905060e43514826101e5565b9050610220915060403d604011610227575b6102188183610dfa565b810190610ed2565b90836101de565b503d61020e565b6040513d6000823e3d90fd5b6100d95760e03660031901126100d9576001600160401b0360a435116100d95736602360a4350112156100d95761027660a43560040135610e73565b6102836040519182610dfa565b60a4356004013581526020810136602460a4356004013560051b60a4350101116100d957602460a43501905b602460a4356004013560051b60a435010182106103435760c435836001600160a01b03821682036100d95760019182916000835b6102f5575b6020846040519015158152f35b815181101561033e5790816103258461031088969585610f8c565b516084356064356044356024356004356116d2565b15610335575b83019091926102e3565b6000945061032b565b6102e8565b81356001600160401b0381116100d95761010060a4358201360360231901126100d957604051916001600160401b036101008401908111908411176105bb57610100830160405260a43582016024810135845260448101356020850152606401356001600160401b0381116100d957366043828560a43501010112156100d9576024818460a43501010135906103d882610e73565b916103e66040519384610dfa565b8083526020830136604460a08402858960a43501010101116100d9576044838760a435010101905b604460a08402858960a43501010101821061056b5750505050604084015260a4358201608401356001600160401b0381116100d957366043828560a43501010112156100d9576024818460a4350101013561046881610e73565b916104766040519384610dfa565b81835260208301903660448460051b838960a43501010101116100d9576044818760a435010101915b60448460051b838960a43501010101831061055b5750505050606084015260a48035830101356001600160401b0381116100d9576104e790602436918560a435010101610e1d565b608084015260a435820160c401356001600160a01b03811681036100d95760a08401526001600160401b0360a435830160e40135116100d9576020928392610104906105403660a435830160e481013501602401610e1d565b60c084015260a43501013560e08201528152019101906102af565b823581526020928301920161049f565b60a0823603126100d957602060a09160405161058681610d8e565b84358152828501358382015260408501356040820152606080860135908201526080808601359082015281520191019061040e565b634e487b7160e01b600052604160045260246000fd5b6100d95760e03660031901126100d9576105e9610d62565b6105f1610d78565b6001600160401b036044358181116100d957610611903690600401610e1d565b9260a4359182116100d95760409261064f61065d610636610685953690600401610e1d565b9686519283916020830195608435916064359188611639565b03601f198101835282610dfa565b5190209360008451809681958294631155a0c560e31b84528860048501526044840190610ead565b602483019190915203926001600160a01b03165af1801561022e576020916000906000926106cb575b50816106bf57506040519015158152f35b905060c43514826101e5565b90506106e6915060403d604011610227576102188183610dfa565b90836106ae565b6100d95760a03660031901126100d9576001600160401b03604435116100d9573660236044350112156100d9576044356004013561072a81610e73565b906107386040519283610dfa565b80825260208201903660248260051b6044350101116100d957602460443501915b60248260051b604435010183106109e657608435846001600160a01b03821682036100d95760005b81518110156109db576107948183610f8c565b51906107a38251602435611673565b9160208101516107b560043585610ef1565b5410156109c9576060810151511561098457602081015161064f6107ea60408401516040519283916020830195893088611639565b5190206040610818606084015182519384928392631155a0c560e31b84528560048501526044840190610ead565b6024830191909152038160006001600160a01b038b165af1801561022e57600091600091610963575b5015908115610957575b5061094557600161085e60043585610ef1565b01546109335760019261087360643543611071565b906020830151916108978451602435109360408601518360808801968751936115c1565b866108a460043585610ef1565b015560026108b460043584610ef1565b01554260036108c560043584610ef1565b01556108d960208401519160043590610ef1565b558151907fb401bdfa7f39ef4f45a82ae4be47ca8ae03cbc1a167d301723dfb99c798f49eb60406020850151940151915191604051908152604060208201528061092a602435946040830190610ead565b0390a401610781565b604051639ce22bbb60e01b8152600490fd5b604051631bd18a1960e31b8152600490fd5b9050815114158661084b565b905061097e915060403d604011610227576102188183610dfa565b87610841565b60405162461bcd60e51b815260206004820152601e60248201527f5369676e617475726520726571756972656420666f72206469737075746500006044820152606490fd5b604051633485c51360e21b8152600490fd5b602060405160018152f35b82356001600160401b0381116100d95760a06044358201360360231901126100d95760405190610a1582610d8e565b6044803582016024810135845290810135602084015260648101356040840152608401356001600160401b0381116100d957610a5b906024369184604435010101610e1d565b60608301526001600160401b03604435820160a40135116100d9576024926020928392610a959036906044350160a4810135018701610e1d565b60808201528152019301929050610759565b60a03660031901126100d95760243580151581036100d9576084356001600160401b0381116100d957602091610ae4610af5923690600401610e1d565b9060643590604435906004356115c1565b604051908152f35b60a03660031901126100d9576044356001600160a01b03811681036100d957606435906001600160401b0382116100d957610b3e6020923690600401610e1d565b610b9660946040518093868201956004358752602435604084015260018060601b03199060601b166060830152610b7e8151809289607486019101610e8a565b81016084356074820152036074810184520182610dfa565b519020604051908152f35b6100d95760031960c0368201126100d957608435906001600160401b03908183116100d95760a09083360301126100d95760405191610bdf83610d8e565b8060040135835260248101356020840152604481013560408401526064810135606084015260848101359182116100d9576004610c1f9236920101610e1d565b608082015260a435906001600160a01b03821682036100d957602091610c50916064356044356024356004356111ca565b6040519015158152f35b6100d95760c03660031901126100d957610c72610d62565b610c7a610d78565b906001600160401b036044358181116100d957610c9b903690600401610e1d565b916084359182116100d9576040926000610cbc610d04943690600401610e1d565b91855161019981610cee60208201946002865260018060a01b03809c168b8401526080606084015260a0830190610ead565b606435608083015203601f198101835282610dfa565b9060248301520393165af1801561022e57602091600090600092610d40575b5081610d3457506040519015158152f35b905060a43514826101e5565b9050610d5b915060403d604011610227576102188183610dfa565b9083610d23565b600435906001600160a01b03821682036100d957565b602435906001600160a01b03821682036100d957565b60a081019081106001600160401b038211176105bb57604052565b608081019081106001600160401b038211176105bb57604052565b604081019081106001600160401b038211176105bb57604052565b606081019081106001600160401b038211176105bb57604052565b601f909101601f19168101906001600160401b038211908210176105bb57604052565b81601f820112156100d9578035906001600160401b0382116105bb5760405192610e51601f8401601f191660200185610dfa565b828452602083830101116100d957816000926020809301838601378301015290565b6001600160401b0381116105bb5760051b60200190565b60005b838110610e9d5750506000910152565b8181015183820152602001610e8d565b90602091610ec681518092818552858086019101610e8a565b601f01601f1916010190565b91908260409103126100d9576020825192015180151581036100d95790565b602090610f0b928260405194838680955193849201610e8a565b82019081520301902090565b60405190610f2482610d8e565b60006080838281528260208201528260408201528260608201520152565b600160ff1b8114610f535760000390565b634e487b7160e01b600052601160045260246000fd5b805115610f765760200190565b634e487b7160e01b600052603260045260246000fd5b8051821015610f765760209160051b010190565b919093926000835260209460018060a01b031685840152610fce60409260c0604086015260c0850190610ead565b906060906060850152608084830360808601528680875194858152019601936000925b8484106110375750505050505060a081830391015281808451928381520193019160005b828110611023575050505090565b835185529381019392810192600101611015565b855180518952808a0151898b0152808301518984015280820151898301528301518884015260a09097019694880194600190930192610ff1565b91908201809211610f5357565b91908203918211610f5357565b6040906040519161109b83610dc4565b6001835282916000805b6020808210156110dc578451602092916110be82610da9565b848252848183015284606080898501528301528289010152016110a5565b50505091925050565b602080820190808352835180925260409283810182858560051b8401019601946000906000935b86851061111e57505050505050505090565b9091929394959697603f198282030185528689516080908184019181518552838201518486015286820151928188870152835180915260a090858288019501928a925b82841061118e5750505050509060019383926060809101519101529a01950195019396959492919061110c565b84518051885280890151888a0152808c01518c89015260608082015190890152820151878301528e979681019690940193600190930192611161565b845180851096939594929387156115bb5783915b88156115b457935b6111f08584611673565b94600196876111ff8289610ef1565b01546109335760608901958651611216838a610ef1565b5410156109c95760409687519b61122c8d610dc4565b8a8d5260005b60208082101561125457908e6020928261124a610f17565b9201015201611232565b5050919396999c90929598809c95989b60209a8d8c8084019485519a876000146115ac57838601519b5b88156115a25760009c5b858801809e6112978251610f42565b918c15611599576112a89051610f42565b925b8851946112b686610d8e565b85528785015287840152606083015260808201526112d382610f69565b526112dd81610f69565b5089518451939091908085016001600160401b038111868210176105bb576113499561131c9361064f9289526000825288519586948501973089610fa0565b51902092608085015160008451809681958294631155a0c560e31b84528860048501526044840190610ead565b602483019190915203926001600160a01b03165af190811561158e57908e9160009260009261156d575b505015918215611561575b505061154e5761139290519551928d610ef1565b8560005289528a600020978289541061153d5780600080516020611e4f8339815191528b8e899460005288825280600020856000528252806000206113d8888254611071565b9055836000528882528060002085600052825280600020549051908152a361140182895461107e565b885561151a575b5051611414848b610ef1565b5587519461142186610dc4565b8a865260005b8781106115045750926114fe989694926114c492899795600080516020611e2f8339815191529c9a60005281885289600020836000528852896000205491866000528852896000208360005288528d8a60002054908254920154928b519461148e86610d8e565b8552898501528a840152606083015260808201526114ab85610f69565b526114b584610f69565b506114be61108b565b97610ef1565b54928551946114d286610da9565b85528401528383015260608201526114e983610f69565b526114f382610f69565b5051918291826110e5565b0390a190565b879061150e610f17565b82828a01015201611427565b8b8701805460008382039312818412811691841390151617610f53575538611408565b8b51632fd8225d60e21b8152600490fd5b5050505050505050505050505050600090565b5114159050388061137e565b611587935080919250903d10610227576102188183610dfa565b388f611373565b8e513d6000823e3d90fd5b506000926112aa565b848701519c611288565b60009b61127e565b50836111e6565b816111de565b939290926040516115ef602082816115e28183019687815193849201610e8a565b8101038084520182610dfa565b519020916040519360208501958652151560f81b60408501526041840152606183015260818201526081815260c0810181811060018060401b038211176105bb5760405251902090565b600181526001600160a01b03909116602082015260a0604082018190529294939260809261166991830190610ead565b9460608201520152565b908082101561169a5760405191602083015260408201526040815261169781610ddf565b90565b9060405191602083015260408201526040815261169781610ddf565b91909160008382019384129112908015821691151617610f5357565b939694969290928751946020890151938487148015611ddb575b6109c957868314928584159182611dd0575b5050611dbe5761170e8588611673565b9215611db75784985b60016117238386610ef1565b015461093357602060408c01515111611da557602060608c01515111611da55760005b60408c0151518110156117935760005b8181106117665750600101611746565b8c61178482604061177a8682860151610f8c565b5151930151610f8c565b5151146109c957600101611756565b50909192939495969899979960e08901516117ae8487610ef1565b5410156109c95760808901515115611d5657604061181b8a6117ea60e082015161064f60608685015194015186519485938d3060208701610fa0565b602081519101209360808c015160008451809781958294631155a0c560e31b84528860048501526044840190610ead565b602483019190915203926001600160a01b03165af180600093600092611d32575b50611851575050505050505050505050600090565b9a92939495969798999a15918215611d27575b5050611d195760005b60408901518051821015611b67578161188591610f8c565b519081516118aa61189f60208501516040860151906116b6565b6060850151906116b6565b6109c95760208301516000811215611af857506118c9818d8c89611de5565b6118d66020850151610f42565b11611a4b576118e86020840151610f42565b8c6000528660205260406000208260005260205261190c604060002091825461107e565b90558b60005285602052604060002081600052602052808c600080516020611e4f8339815191526020604060002054604051908152a35b60408301516000811215611a89575061195e818a8c89611de5565b61196b6040850151610f42565b11611a4b5761197d6040840151610f42565b89600052866020526040600020826000526020526119a1604060002091825461107e565b905588600052856020526040600020816000526020528089600080516020611e4f8339815191526020604060002054604051908152a35b6119e28888610ef1565b906000526020526040600020606083015160008112600014611a5d57508054611a0e6060850151610f42565b8110611a4b576001608085611a34611a4394611a2e6060869a0151610f42565b9061107e565b85555b015192019182546116b6565b90550161186d565b604051632fd8225d60e21b8152600490fd5b600160808195836000611a439513611a76575b50611a37565b611a81908654611071565b855538611a70565b60008113611a98575b506119d8565b8960005286602052604060002082600052602052611abc6040600020918254611071565b905588600052856020526040600020816000526020528089600080516020611e4f8339815191526020604060002054604051908152a338611a92565b60008113611b07575b50611943565b8c60005286602052604060002082600052602052611b2b6040600020918254611071565b90558b60005285602052604060002081600052602052808c600080516020611e4f8339815191526020604060002054604051908152a338611b01565b5050979293909496955060e0860151611b808686610ef1565b556040860151519485611b9b575b5050505050505050600190565b9091929394959697611bac87610e73565b96611bba6040519889610dfa565b808852611bc9601f1991610e73565b0160005b818110611d0257505060005b60408901518051821015611c845781611bf6604093600193610f8c565b5151611c02878b610ef1565b816000526020528c846000208a600052896020528560002083600052602052856000205491600052896020528560002083600052602052856000205485825492015492875194611c5186610d8e565b855260208501528684015260608301526080820152611c70828c610f8c565b52611c7b818b610f8c565b50019050611bd9565b5050979250600080516020611e2f8339815191529650611cf2959150611cb290611cac61108b565b95610ef1565b549160405193611cc185610da9565b8452602084015260408301526060820152611cdb82610f69565b52611ce581610f69565b50604051918291826110e5565b0390a13880808080808080611b8e565b602090611d0d610f17565b82828c01015201611bcd565b975050505050505050600090565b141590503880611864565b909350611d4e915060403d604011610227576102188183610dfa565b90923861183c565b60405162461bcd60e51b815260206004820152602160248201527f5369676e617475726520726571756972656420666f7220736574746c656d656e6044820152601d60fa1b6064820152608490fd5b60405163e217c62b60e01b8152600490fd5b8698611717565b604051633c4117f160e21b8152600490fd5b1415905085386116fe565b50848710156116ec565b929060009383855260205260408420828552602052604084205492845260205260408320908352602052604082205490818111600014611e2957611697925061107e565b50509056fe784575545124eef27f8fcc1472fb5f2483beb9cc23e6fe3dbf588eb7bd501f7cab4d21442efe134c3d0c087e2b687e9593a1c09176f498d37873210cde052c45a26469706673582212208bc4e2fbbf22c31af6066ead3594802705fd4bbfd616b677bb547a7d4f4b826d64736f6c63430008180033",
  "linkReferences": {},
  "deployedLinkReferences": {}
}