{
  "_format": "hh-sol-artifact-1",
  "contractName": "Account",
  "sourceName": "contracts/Account.sol",
  "abi": [
    {
      "inputs": [],
      "name": "E2",
      "type": "error"
    },
    {
      "inputs": [],
      "name": "E3",
      "type": "error"
    },
    {
      "inputs": [],
      "name": "E4",
      "type": "error"
    },
    {
      "inputs": [],
      "name": "E5",
      "type": "error"
    },
    {
      "inputs": [],
      "name": "E6",
      "type": "error"
    },
    {
      "inputs": [],
      "name": "E7",
      "type": "error"
    },
    {
      "inputs": [],
      "name": "E8",
      "type": "error"
    },
    {
      "inputs": [],
      "name": "E9",
      "type": "error"
    },
    {
      "anonymous": false,
      "inputs": [
        {
          "components": [
            {
              "internalType": "bytes32",
              "name": "left",
              "type": "bytes32"
            },
            {
              "internalType": "bytes32",
              "name": "right",
              "type": "bytes32"
            },
            {
              "internalType": "uint256",
              "name": "tokenId",
              "type": "uint256"
            },
            {
              "internalType": "uint256",
              "name": "leftReserve",
              "type": "uint256"
            },
            {
              "internalType": "uint256",
              "name": "rightReserve",
              "type": "uint256"
            },
            {
              "internalType": "uint256",
              "name": "collateral",
              "type": "uint256"
            },
            {
              "internalType": "int256",
              "name": "ondelta",
              "type": "int256"
            }
          ],
          "indexed": false,
          "internalType": "struct Settled[]",
          "name": "settled",
          "type": "tuple[]"
        }
      ],
      "name": "AccountSettled",
      "type": "event"
    },
    {
      "anonymous": false,
      "inputs": [
        {
          "indexed": true,
          "internalType": "bytes32",
          "name": "debtor",
          "type": "bytes32"
        },
        {
          "indexed": true,
          "internalType": "bytes32",
          "name": "creditor",
          "type": "bytes32"
        },
        {
          "indexed": true,
          "internalType": "uint256",
          "name": "tokenId",
          "type": "uint256"
        },
        {
          "indexed": false,
          "internalType": "uint256",
          "name": "amount",
          "type": "uint256"
        },
        {
          "indexed": false,
          "internalType": "uint256",
          "name": "debtIndex",
          "type": "uint256"
        }
      ],
      "name": "DebtCreated",
      "type": "event"
    },
    {
      "anonymous": false,
      "inputs": [
        {
          "indexed": true,
          "internalType": "bytes32",
          "name": "debtor",
          "type": "bytes32"
        },
        {
          "indexed": true,
          "internalType": "bytes32",
          "name": "creditor",
          "type": "bytes32"
        },
        {
          "indexed": true,
          "internalType": "uint256",
          "name": "tokenId",
          "type": "uint256"
        },
        {
          "indexed": false,
          "internalType": "uint256",
          "name": "amountForgiven",
          "type": "uint256"
        },
        {
          "indexed": false,
          "internalType": "uint256",
          "name": "debtIndex",
          "type": "uint256"
        }
      ],
      "name": "DebtForgiven",
      "type": "event"
    },
    {
      "anonymous": false,
      "inputs": [
        {
          "indexed": false,
          "internalType": "bytes32",
          "name": "recoveredEntity",
          "type": "bytes32"
        },
        {
          "indexed": false,
          "internalType": "bool",
          "name": "valid",
          "type": "bool"
        }
      ],
      "name": "DebugHankoResult",
      "type": "event"
    },
    {
      "anonymous": false,
      "inputs": [
        {
          "indexed": false,
          "internalType": "uint256",
          "name": "step",
          "type": "uint256"
        },
        {
          "indexed": false,
          "internalType": "bytes32",
          "name": "val1",
          "type": "bytes32"
        },
        {
          "indexed": false,
          "internalType": "bytes32",
          "name": "val2",
          "type": "bytes32"
        },
        {
          "indexed": false,
          "internalType": "bool",
          "name": "boolVal",
          "type": "bool"
        }
      ],
      "name": "DebugHankoStep",
      "type": "event"
    },
    {
      "anonymous": false,
      "inputs": [
        {
          "indexed": false,
          "internalType": "bytes32",
          "name": "leftEntity",
          "type": "bytes32"
        },
        {
          "indexed": false,
          "internalType": "bytes32",
          "name": "rightEntity",
          "type": "bytes32"
        },
        {
          "indexed": false,
          "internalType": "bytes32",
          "name": "initiator",
          "type": "bytes32"
        },
        {
          "indexed": false,
          "internalType": "uint256",
          "name": "sigLen",
          "type": "uint256"
        }
      ],
      "name": "DebugSettleEntry",
      "type": "event"
    },
    {
      "anonymous": false,
      "inputs": [
        {
          "indexed": false,
          "internalType": "bytes32",
          "name": "computedHash",
          "type": "bytes32"
        },
        {
          "indexed": false,
          "internalType": "bytes32",
          "name": "counterparty",
          "type": "bytes32"
        },
        {
          "indexed": false,
          "internalType": "uint256",
          "name": "cooperativeNonce",
          "type": "uint256"
        },
        {
          "indexed": false,
          "internalType": "uint256",
          "name": "diffsLength",
          "type": "uint256"
        },
        {
          "indexed": false,
          "internalType": "uint256",
          "name": "encodedMsgLength",
          "type": "uint256"
        }
      ],
      "name": "DebugSettlementHash",
      "type": "event"
    },
    {
      "anonymous": false,
      "inputs": [
        {
          "indexed": true,
          "internalType": "bytes32",
          "name": "sender",
          "type": "bytes32"
        },
        {
          "indexed": true,
          "internalType": "bytes32",
          "name": "counterentity",
          "type": "bytes32"
        },
        {
          "indexed": true,
          "internalType": "uint256",
          "name": "disputeNonce",
          "type": "uint256"
        },
        {
          "indexed": false,
          "internalType": "bytes32",
          "name": "proofbodyHash",
          "type": "bytes32"
        },
        {
          "indexed": false,
          "internalType": "bytes",
          "name": "initialArguments",
          "type": "bytes"
        }
      ],
      "name": "DisputeStarted",
      "type": "event"
    },
    {
      "anonymous": false,
      "inputs": [
        {
          "indexed": true,
          "internalType": "bytes32",
          "name": "insured",
          "type": "bytes32"
        },
        {
          "indexed": true,
          "internalType": "bytes32",
          "name": "insurer",
          "type": "bytes32"
        },
        {
          "indexed": true,
          "internalType": "uint256",
          "name": "tokenId",
          "type": "uint256"
        },
        {
          "indexed": false,
          "internalType": "uint256",
          "name": "limit",
          "type": "uint256"
        },
        {
          "indexed": false,
          "internalType": "uint256",
          "name": "expiresAt",
          "type": "uint256"
        }
      ],
      "name": "InsuranceRegistered",
      "type": "event"
    },
    {
      "anonymous": false,
      "inputs": [
        {
          "indexed": true,
          "internalType": "bytes32",
          "name": "entity",
          "type": "bytes32"
        },
        {
          "indexed": true,
          "internalType": "uint256",
          "name": "tokenId",
          "type": "uint256"
        },
        {
          "indexed": false,
          "internalType": "uint256",
          "name": "newBalance",
          "type": "uint256"
        }
      ],
      "name": "ReserveUpdated",
      "type": "event"
    },
    {
      "inputs": [
        {
          "internalType": "bytes32",
          "name": "e1",
          "type": "bytes32"
        },
        {
          "internalType": "bytes32",
          "name": "e2",
          "type": "bytes32"
        }
      ],
      "name": "accountKey",
      "outputs": [
        {
          "internalType": "bytes",
          "name": "",
          "type": "bytes"
        }
      ],
      "stateMutability": "pure",
      "type": "function"
    },
    {
      "inputs": [
        {
          "internalType": "bytes32",
          "name": "domainSep",
          "type": "bytes32"
        },
        {
          "internalType": "uint256",
          "name": "chainId",
          "type": "uint256"
        },
        {
          "internalType": "address",
          "name": "depository",
          "type": "address"
        },
        {
          "internalType": "bytes",
          "name": "encodedBatch",
          "type": "bytes"
        },
        {
          "internalType": "uint256",
          "name": "nonce",
          "type": "uint256"
        }
      ],
      "name": "computeBatchHankoHash",
      "outputs": [
        {
          "internalType": "bytes32",
          "name": "",
          "type": "bytes32"
        }
      ],
      "stateMutability": "pure",
      "type": "function"
    },
    {
      "inputs": [
        {
          "internalType": "uint256",
          "name": "cooperativeNonce",
          "type": "uint256"
        },
        {
          "internalType": "uint256",
          "name": "disputeNonce",
          "type": "uint256"
        },
        {
          "internalType": "bool",
          "name": "startedByLeft",
          "type": "bool"
        },
        {
          "internalType": "uint256",
          "name": "timeout",
          "type": "uint256"
        },
        {
          "internalType": "bytes32",
          "name": "proofbodyHash",
          "type": "bytes32"
        },
        {
          "internalType": "bytes",
          "name": "initialArguments",
          "type": "bytes"
        }
      ],
      "name": "encodeDisputeHash",
      "outputs": [
        {
          "internalType": "bytes32",
          "name": "",
          "type": "bytes32"
        }
      ],
      "stateMutability": "pure",
      "type": "function"
    },
    {
      "inputs": [
        {
          "internalType": "uint8",
          "name": "tokenType",
          "type": "uint8"
        },
        {
          "internalType": "address",
          "name": "contractAddress",
          "type": "address"
        },
        {
          "internalType": "uint96",
          "name": "externalTokenId",
          "type": "uint96"
        }
      ],
      "name": "packTokenReference",
      "outputs": [
        {
          "internalType": "bytes32",
          "name": "",
          "type": "bytes32"
        }
      ],
      "stateMutability": "pure",
      "type": "function"
    },
    {
      "inputs": [
        {
          "internalType": "bytes32",
          "name": "packed",
          "type": "bytes32"
        }
      ],
      "name": "unpackTokenReference",
      "outputs": [
        {
          "internalType": "address",
          "name": "contractAddress",
          "type": "address"
        },
        {
          "internalType": "uint96",
          "name": "externalTokenId",
          "type": "uint96"
        },
        {
          "internalType": "uint8",
          "name": "tokenType",
          "type": "uint8"
        }
      ],
      "stateMutability": "pure",
      "type": "function"
    }
  ],
  "bytecode": "0x6080806040523461001c57611bcf90816100228239308160070152f35b600080fdfe6080604052307f000000000000000000000000000000000000000000000000000000000000000014600436101561003557600080fd5b600090813560e01c80633d0627d0146100ef57806359516e5f146100ea57806392cf61e5146100e557806397b55ac8146100dc578063bb2c250c146100d7578063c67c5e6b146100ce578063d017d699146100c5578063f06f2101146100bc578063f176e326146100b75763ff828d91146100af57600080fd5b15610a305780fd5b6109ff565b501561094a5780fd5b50156107be5780fd5b501561057c5780fd5b610508565b50156103d25780fd5b61038a565b6102e2565b610227565b801515036100fe57565b600080fd5b634e487b7160e01b600052604160045260246000fd5b60a081019081106001600160401b0382111761013457604052565b610103565b60e081019081106001600160401b0382111761013457604052565b601f909101601f19168101906001600160401b0382119082101761013457604052565b6040519060c082016001600160401b0381118382101761013457604052565b6040519061012082016001600160401b0381118382101761013457604052565b604051906101c382610139565b565b6001600160401b03811161013457601f01601f191660200190565b81601f820112156100fe578035906101f7826101c5565b926102056040519485610154565b828452602083830101116100fe57816000926020809301838601378301015290565b60c03660031901126100fe5760443561023f816100f4565b60a4356001600160401b0381116100fe576020916102646102789236906004016101e0565b906084359060643590602435600435610ab3565b604051908152f35b6001600160a01b031690565b604435906001600160a01b03821682036100fe57565b608435906001600160a01b03821682036100fe57565b600435906001600160a01b03821682036100fe57565b35906001600160a01b03821682036100fe57565b60a03660031901126100fe576102f661028c565b606435906001600160401b0382116100fe576103196103869236906004016101e0565b6103736094604051809360208201956004358752602435604084015260018060601b03199060601b16606083015261035b8151809260206074860191016109b7565b81016084356074820152036074810184520182610154565b5190206040519081529081906020820190565b0390f35b60203660031901126100fe5760606004356040519080831c8252600180841b038116602083015260f81c6040820152f35b6001600160401b0381116101345760051b60200190565b60a0806003193601126100fe576001600160401b0390602460448035908482116100fe57366023830112156100fe57816004013590610410826103bb565b946040966104216040519788610154565b83875260209786602089019560051b870101953687116100fe57878101955b878710610477576103866104658b8b6104576102a2565b916064359135600435610b4d565b60405191829182901515815260200190565b86358481116100fe57820160c060231982360301126100fe57610498610177565b918a8201358352878201358d8401526064820135858401526084820135606084015260a48201358681116100fe576104d5908c36918501016101e0565b608084015260c4820135928684116100fe576104f98e94938d8695369201016101e0565b88820152815201960195610440565b60603660031901126100fe5760043560ff811681036100fe576024356001600160a01b03811681036100fe576044356001600160601b038116908190036100fe5760405160f89390931b6001600160f81b03191660609290921b6001600160601b0319169190911717815280602081010390f35b60e03660031901126100fe576105906102b8565b6001600160401b03906024358281116100fe576105b19036906004016101e0565b60a4359283116100fe576105cc6106409336906004016101e0565b6040928392835161061f816105f960208201946105e98660029052565b60a08984015260c08301906109da565b6044356060830152606435608083015260843560a083015203601f198101835282610154565b5190209160008451809781958294631155a0c560e31b845260048401610d60565b03926001600160a01b03165af19081156106b95761038692600090600093610687575b508261067b575b505191829182901515815260200190565b60c4351491503861066a565b9050816106aa9293503d84116106b2575b6106a28183610154565b810190610d41565b919038610663565b503d610698565b610d7c565b81601f820112156100fe5780359060206106d7836103bb565b9360406106e76040519687610154565b848652828601918360a0809702860101948186116100fe578401925b858410610714575050505050505090565b86848303126100fe57848791845161072b81610119565b86358152828701358382015285870135868201526060808801359082015260808088013590820152815201930192610703565b9080601f830112156100fe576020908235610778816103bb565b936107866040519586610154565b81855260208086019260051b8201019283116100fe57602001905b8282106107af575050505090565b813581529083019083016107a1565b60a0806003193601126100fe5760849060248235606460446001600160401b038084116100fe57366023850112156100fe578360040135926107ff846103bb565b96604098610810604051998a610154565b8589526020998860208b019760051b890101973689116100fe57898101975b89891061084d576103866104658d6064356044358f35600435610d88565b88358781116100fe57820161012060231982360301126100fe578d91610871610196565b928d83013584528a83013590840152878201358981116100fe5761089a908e36918501016106be565b85840152858201358981116100fe576108b8908e369185010161075e565b606084015260a48201358981116100fe576108d8908e36918501016106be565b608084015260c48201358981116100fe576108f8908e36918501016101e0565b8784015261090860e483016102ce565b60c0840152610104820135928984116100fe578f9384938f610124926109329136918401016101e0565b60e0840152013561010082015281520198019761082f565b60e03660031901126100fe5761095e6102b8565b6001600160401b03906024358281116100fe5761097f9036906004016101e0565b60a4359283116100fe5761099a6106409336906004016101e0565b6040928392835161061f816105f960208201946105e98660039052565b60005b8381106109ca5750506000910152565b81810151838201526020016109ba565b906020916109f3815180928185528580860191016109b7565b601f01601f1916010190565b60403660031901126100fe57610386610a1c602435600435610ded565b6040519182916020835260208301906109da565b60e03660031901126100fe57610a446102b8565b6001600160401b03906024358281116100fe57610a659036906004016101e0565b60a4359283116100fe57610a806106409336906004016101e0565b6040928392835161061f81610aa5602082019460843590606435906044359088610e30565b03601f198101835282610154565b949391929093604051610ae360208281610ad681830196878151938492016109b7565b8101038084520182610154565b5190209260405194602086019687526040860152151560f81b60608501526061840152608183015260a182015260a18152610b1d81610139565b51902090565b8051821015610b375760209160051b010190565b634e487b7160e01b600052603260045260246000fd5b600095600195909493919291865b610b6a575b5050505050909150565b8051881015610d3c57610b7d8882610b23565b5197610b8a895185610ded565b98610b95868b610e5f565b549960209a8b83015110610d2a57608082019a610bb58c51511515610e85565b610c008184015160409d8e9182870151610be1606089015191610aa586519384928a8401968c88610e30565b51902090518251631155a0c560e31b8152938492839260048401610d60565b038160006001600160a01b038c165af180156106b9576000918291610d0b575b5015908115610cff575b50610cee578a610c3a8984610e5f565b0154610cdd5790867fb401bdfa7f39ef4f45a82ae4be47ca8ae03cbc1a167d301723dfb99c798f49eb8c9d8d9c9d9695946002610cb38d8f610c7c9043610ee7565b9389015197610ca1868b0151998b8781518c1060a0606084015193019d8e5194610ab3565b8c610cac8484610e5f565b0155610e5f565b0155845193610cd16060838801519701519151925192839283610ef9565b0390a401979695610b5b565b8b51639ce22bbb60e01b8152600490fd5b8b51631bd18a1960e31b8152600490fd5b90508351141538610c2a565b9050610d2491508d803d106106b2576106a28183610154565b38610c20565b604051633485c51360e21b8152600490fd5b610b60565b91908260409103126100fe5760208251920151610d5d816100f4565b90565b929190610d776020916040865260408601906109da565b930152565b6040513d6000823e3d90fd5b94929093919360019586926001966000936000995b610dae575b50505050505050909150565b86518a1015610de857610dce610dc48b89610b23565b51848484886113bf565b15610dde575b9885019885610d9d565b9397508793610dd4565b610da2565b81811015610e1457604080516020810192909252810191909152610d5d8160608101610aa5565b604080516020810193909352820152610d5d8160608101610aa5565b9092610e506080939695946001845260a0602085015260a08401906109da565b95604083015260608201520152565b602090610e799282604051948386809551938492016109b7565b82019081520301902090565b15610e8c57565b60405162461bcd60e51b815260206004820152601e60248201527f5369676e617475726520726571756972656420666f72206469737075746500006044820152606490fd5b634e487b7160e01b600052601160045260246000fd5b91908201809211610ef457565b610ed1565b604090610d5d9392815281602082015201906109da565b9094939260609260808301968352602083015260408201520152565b15610f3357565b60405162461bcd60e51b815260206004820152602160248201527f5369676e617475726520726571756972656420666f7220736574746c656d656e6044820152601d60fa1b6064820152608490fd5b90815180825260208080930193019160005b828110610fa2575050505090565b835185529381019392810192600101610f94565b90815180825260208080930193019160005b828110610fd6575050505090565b835180518652808301518684015260408082015190870152606080820151908701526080908101519086015260a09094019392810192600101610fc8565b939190959492956000855261103560209160c08388015260c08701906109da565b9060409260408701526060868303606088015281808a5194858152019901936000915b848310611089575050505050508461107b9184610d5d9697036080860152610f82565b9160a0818403910152610fb6565b855180518c52808501518c860152808301518c840152808201518c830152608090810151908c015260a0909a019994830194600190920191611058565b9192608093969594919660a084019784526020840152604083015260608201520152565b156110f157565b60405162461bcd60e51b815260206004820152600760248201526645505f5a45524f60c81b6044820152606490fd5b1561112757565b60405162461bcd60e51b81526020600482015260096024820152685349475f454d50545960b81b6044820152606490fd5b60009060033d1161116557565b905060046000803e60005160e01c90565b600060443d10610d5d57604051600319913d83016004833e81516001600160401b03918282113d6024840111176111d3578184019485519384116111db573d850101602084870101116111d35750610d5d92910160200190610154565b949350505050565b50949350505050565b6020815191015190602081106111f8575090565b6000199060200360031b1b1690565b6000809160233d1161121557565b9150506020600460003e600051600191565b3d15611252573d90611238826101c5565b916112466040519384610154565b82523d6000602084013e565b606090565b91909160008382019384129112908015821691151617610ef457565b90600052602052604060002090565b600160ff1b8114610ef45760000390565b91908203918211610ef457565b906112aa826103bb565b60406112b96040519283610154565b83825281936112ca601f19916103bb565b019060005b8281106112dc5750505050565b815160e0810191906001600160401b0383118184101761013457602092845260008152826000818301526000858301526000606083015260006080830152600060a0830152600060c08301528287010152016112cf565b60208082019080835283518092528060408094019401926000905b83821061135d57505050505090565b84518051875280840151878501528082015187830152606080820151908801526080808201519088015260a0808201519088015260c0908101519087015260e0909501949382019360019091019061134e565b6000198114610ef45760010190565b9294939091815192602083019283519460a082019061140b8251516040519182918d7f1d3ba9cf4b97c0201bb3a71ec8c430c809bc811b93a32fc8e4e19a60e0c43e149b8c9685610f10565b0390a18151958551958688148015611b8f575b610d2a57878b149a878c159182611b84575b5050611b72576114408789610ded565b9a15611b6b5786915b60408501515115801590611b5d575b8015611b4f575b61179e575b5050505060005b6040820151805182101561166b578161148391610b23565b519081516114a861149d6020850151604086015190611257565b606085015190611257565b610d2a576020830151600081121561163b57506114ce816114c98a8c611273565b611273565b546114dc6020850151611282565b116115c05788611508611500836114c98c6114fa60208a0151611282565b95611273565b918254611293565b90555b604083015160008112156115fe5750611528816114c9898c611273565b546115366040850151611282565b116115c0578089611558611500611565946114c98c6114fa60408b0151611282565b90555b6114c9878d610e5f565b606083015160008112156115d2575080546115836060850151611282565b81106115c05760016080856115a96115b8946115a36060869a0151611282565b90611293565b85555b01519201918254611257565b90550161146b565b604051632fd8225d60e21b8152600490fd5b6001608081958360006115b895136115eb575b506115ac565b6115f6908654610ee7565b8555386115e5565b90818a898360006115659613611618575b5050505061155b565b6114c96116289261163094611273565b918254610ee7565b9055388a898361160f565b89898360008413611650575b5050505061150b565b6114c96116289261166094611273565b905538898983611647565b505096939291949094604088015151806116a1575b5050505050611690929350610e5f565b61169a81546113b0565b9055600190565b6116b190969193959294966112a0565b9660005b60408a01518051821015611752578189896116d4604095600195610b23565b51516116e4816114c98c8c610e5f565b908b611703826114c9866116fc836114c98b88611273565b5494611273565b5491878454940154946117146101b6565b9687526020870152888601526060850152608084015260a083015260c082015261173e828d610b23565b52611749818c610b23565b500190506116b5565b505097509450925050507f11e95b31ceefa95a59034392a3de4f79c9fe7d7e441d3746a1f82e64f7a32bcc6117906116909460405191829182611333565b0390a1839238808080611680565b908594939a9b9998979695918b515115156117b890610f2c565b6117c2838c610e5f565b54906040860151906060870151918d608089015160405194859360208501976117eb9489611014565b03601f19810183526117fd9083610154565b858d835185209661180d91610e5f565b54956040890151518451916040519283927ffbbb6d4d06aaf2052fc51e20914df816f8750fae713b339363aad62de0f8db9e9a8b9661184c94866110c6565b0390a18d8751945160c0890195865161186490610280565b61186d90610280565b61187690610280565b9251516040519384936118899385610f10565b0390a151902091815161189b90610280565b6118a490610280565b6118ad90610280565b8c5151905a9160405192826118c592859489866110c6565b0390a1516001600160a01b03906118db90610280565b166118e78115156110ea565b8a515115156118f590611120565b8a51602080820151915160408051606481529283019390935291810182905261026090911460608201527f420e9d5d3605ffaefb08b27c5fac848a23186bec357341beb8bdf0b0c6ff5ed19b908c90608090a151604051631155a0c560e31b815292839182916119689160048401610d60565b03815a604094600091f1806000928392611b2b575b50611a7d5750505050505050505050611994611158565b806308c379a014611a3557634e487b71146119fa575b6119b2611227565b600081519160208310156119ee575b5060408051610140815260208101929092528101919091526000606082015280608081015b0390a1600090565b602091500151386119c1565b611a02611207565b90611a0d57506119aa565b60408051610136815260208101929092526000908201819052606082015280608081016119e6565b50611a3e611176565b80611a4957506119aa565b611a556119e6916111e4565b604051918291826060600091939293608081019461012c825260208201528260408201520152565b8a60409c9b9495969798999a9c5180611ab48487878491926060919493608084019560c88552602085015260408401521515910152565b0390a1158015611b21575b611aed576040805160ca8152602081019290925281019190915260016060820152608090a138808080611464565b96509650969750505050506119e6604051928392836060906000929493608082019560c98352602083015260408201520152565b5081811415611abf565b909250611b47915060403d6040116106b2576106a28183610154565b90913861197d565b50608085015151151561145f565b506060850151511515611458565b8791611449565b604051633c4117f160e21b8152600490fd5b141590508738611430565b508688101561141e56fea2646970667358221220988905d5305fa8dd254413387ccd10431611d181aef3e4e38c5bfcd5dfe5149964736f6c63430008180033",
  "linkReferences": {},
  "deployedLinkReferences": {}
}