{
  "_format": "hh-sol-artifact-1",
  "contractName": "CrossSwapPull",
  "sourceName": "contracts/CrossSwapPull.sol",
  "abi": [
    {
      "inputs": [],
      "name": "InvalidDeltaIndex",
      "type": "error"
    },
    {
      "inputs": [],
      "name": "InvalidNibbleIndex",
      "type": "error"
    },
    {
      "inputs": [],
      "name": "InvalidNibbleValue",
      "type": "error"
    },
    {
      "inputs": [],
      "name": "SecretRegistryDisabled",
      "type": "error"
    },
    {
      "inputs": [
        {
          "internalType": "int256[]",
          "name": "deltas",
          "type": "int256[]"
        },
        {
          "internalType": "bytes",
          "name": "encodedBatch",
          "type": "bytes"
        },
        {
          "internalType": "bytes",
          "name": "leftArguments",
          "type": "bytes"
        },
        {
          "internalType": "bytes",
          "name": "rightArguments",
          "type": "bytes"
        }
      ],
      "name": "applyBatch",
      "outputs": [
        {
          "internalType": "int256[]",
          "name": "",
          "type": "int256[]"
        }
      ],
      "stateMutability": "view",
      "type": "function"
    },
    {
      "inputs": [
        {
          "internalType": "int256[]",
          "name": "deltas",
          "type": "int256[]"
        },
        {
          "internalType": "bytes",
          "name": "encodedBatch",
          "type": "bytes"
        },
        {
          "internalType": "bytes",
          "name": "leftArguments",
          "type": "bytes"
        },
        {
          "internalType": "bytes",
          "name": "rightArguments",
          "type": "bytes"
        },
        {
          "internalType": "uint256",
          "name": "leftArgumentsBlock",
          "type": "uint256"
        },
        {
          "internalType": "uint256",
          "name": "rightArgumentsBlock",
          "type": "uint256"
        }
      ],
      "name": "applyBatchWithArgumentBlocks",
      "outputs": [
        {
          "internalType": "int256[]",
          "name": "",
          "type": "int256[]"
        }
      ],
      "stateMutability": "pure",
      "type": "function"
    },
    {
      "inputs": [
        {
          "components": [
            {
              "components": [
                {
                  "internalType": "bool",
                  "name": "ownerIsLeft",
                  "type": "bool"
                },
                {
                  "internalType": "uint256",
                  "name": "addDeltaIndex",
                  "type": "uint256"
                },
                {
                  "internalType": "uint256",
                  "name": "amount",
                  "type": "uint256"
                },
                {
                  "internalType": "uint256",
                  "name": "subDeltaIndex",
                  "type": "uint256"
                },
                {
                  "internalType": "uint256",
                  "name": "revealedUntilBlock",
                  "type": "uint256"
                },
                {
                  "internalType": "bytes32",
                  "name": "fullHash",
                  "type": "bytes32"
                },
                {
                  "internalType": "bytes32",
                  "name": "partialRoot",
                  "type": "bytes32"
                }
              ],
              "internalType": "struct CrossSwapPull.Pull[]",
              "name": "pulls",
              "type": "tuple[]"
            }
          ],
          "internalType": "struct CrossSwapPull.Batch",
          "name": "b",
          "type": "tuple"
        }
      ],
      "name": "encodeBatch",
      "outputs": [
        {
          "internalType": "bytes",
          "name": "",
          "type": "bytes"
        }
      ],
      "stateMutability": "pure",
      "type": "function"
    },
    {
      "inputs": [
        {
          "internalType": "bytes32",
          "name": "",
          "type": "bytes32"
        }
      ],
      "name": "hashToBlock",
      "outputs": [
        {
          "internalType": "uint256",
          "name": "",
          "type": "uint256"
        }
      ],
      "stateMutability": "pure",
      "type": "function"
    },
    {
      "inputs": [
        {
          "internalType": "bytes32",
          "name": "",
          "type": "bytes32"
        }
      ],
      "name": "revealSecret",
      "outputs": [],
      "stateMutability": "pure",
      "type": "function"
    },
    {
      "inputs": [],
      "name": "supportsArgumentBlocks",
      "outputs": [
        {
          "internalType": "bool",
          "name": "",
          "type": "bool"
        }
      ],
      "stateMutability": "pure",
      "type": "function"
    }
  ],
  "bytecode": "0x6080806040523461001657610bd9908161001c8239f35b600080fdfe608060408181526004918236101561001657600080fd5b60009260e091843560e01c92836301e7917814610210575050816318c323f21461017a57816351672fac1461015e578163603075451461013d578163649330f714610089575063a88c1d4e1461006b57600080fd5b346100855781600319360112610085576020905160018152f35b5080fd5b8284346101325760c0366003190112610132576001600160401b03908335828111610085576100bb90369086016104a8565b91602435818111610139576100d3903690870161050d565b919095604435828111610135576100ed903690830161050d565b92909460643591821161013257509161011361012396949261012e99969436910161050d565b93909260a43596608435966105c5565b90519182918261053a565b0390f35b80fd5b8480fd5b8280fd5b82843461013257602036600319011261013257505163132207b360e01b8152fd5b5050346100855760203660031901126100855751908152602090f35b828434610132576080366003190112610132576001600160401b03908335828111610085576101ac90369086016104a8565b91602435818111610139576101c4903690870161050d565b919095604435828111610135576101de903690830161050d565b92909460643591821161013257509161020461012396949261012e99969436910161050d565b939092439643966105c5565b8491869134610139576020946003198681360112610135576001600160401b03908235908282116103ff57889082360301126104035761024f85610407565b8083013591821161040357019036602383011215610135578101359061027482610491565b916102818751938461046e565b808352602460e08985019202830101913683116103ff57939493602401905b82821061038f57505050815283519185808401526060916060840190519287878601528351809252608092886080870195019387925b8a85851061033f578a898b818b036102f6601f199182810185528461046e565b8351948592818452845191828186015281955b8387106103275750508394508582601f949501015201168101030190f35b86810182015189880189015295810195889550610309565b865180511515895281810151828a01528b8101518c8a015280830151838a015280840151848a015260a080820151908a015260c090810151908901529683019690950194600193909301926102d6565b85829695963603126103ff5787516103a681610438565b823580151581036103fb578152828a01358a8201528883013589820152606080840135908201526080808401359082015260a0808401359082015260c0808401359082015281529394939085019088016102a0565b8880fd5b8680fd5b8580fd5b602081019081106001600160401b0382111761042257604052565b634e487b7160e01b600052604160045260246000fd5b60e081019081106001600160401b0382111761042257604052565b608081019081106001600160401b0382111761042257604052565b601f909101601f19168101906001600160401b0382119082101761042257604052565b6001600160401b0381116104225760051b60200190565b9080601f830112156105085760209082356104c281610491565b936104d0604051958661046e565b81855260208086019260051b82010192831161050857602001905b8282106104f9575050505090565b813581529083019083016104eb565b600080fd5b9181601f84011215610508578235916001600160401b038311610508576020838186019501011161050857565b602090602060408183019282815285518094520193019160005b828110610562575050505090565b835185529381019392810192600101610554565b805182101561058a5760209160051b010190565b634e487b7160e01b600052603260045260246000fd5b60001981146105af5760010190565b634e487b7160e01b600052601160045260246000fd5b94939092979695918301976020988985820312610508576001600160401b0394803590868211610508570199808b8303126105085760409586519b6106098d610407565b8035918211610508570182601f820112156105085780359161062a83610491565b936106378951958661046e565b838552818501908260e080960285010193818511610508578301915b84831061072757505050505050916106719161067794938b52610791565b93610791565b6000809581965b8951805189101561071957610694898b92610576565b518051156106eb57916106c96106ce92600194885184106000906000146106d757506106c0848a610576565b51905b8c61089d565b6105a0565b975b019661067e565b8a51906106e382610407565b8152906106c3565b6107139150936106c9846001949b968a5184106000906000146106d757506106c0848c610576565b926106d0565b505050505050509250505090565b8583830312610508578a519061073c82610438565b83359081151582036105085790825283850135858301528b8401358c830152606080850135908301526080808501359083015260a0808501359083015260c08085013590830152908152918501918301610653565b90806107ac5750506040516107a581610407565b6000815290565b8101906020908181840312610508576001600160401b0390803590828211610508570190601f84601f84011215610508578235906107e982610491565b9560406107f9604051988961046e565b838852868089019460051b8701019582871161050857878101945b8786106108275750505050505050505090565b853587811161050857820184603f8201121561050857898101359188831161088857845161085d848901601f19168d018261046e565b838152868685850101116105085760008c858196898397018386013783010152815201950194610814565b60246000634e487b7160e01b81526041600452fd5b90919260208301938451835180911090811591610990575b5061097e576108c961ffff9283928661099f565b1680156109775760408401518181029181830414901517156105af57049251916108f38383610576565b5192848401908582126000809612908015821691151617610963579061091c6060939285610576565b5201519161092a8383610576565b5181858203951281861281169186139015161761094f57509061094c91610576565b52565b634e487b7160e01b81526011600452602490fd5b634e487b7160e01b85526011600452602485fd5b5050505050565b60405163121e18c360e01b8152600490fd5b905060608501511015386108b5565b90918251908115610a8057608083015110610a4957602014610a5c57815160828103610a49571561058a5761ff00602083015160f01c1682516001101561058a57602183015160f81c179182158015610a51575b610a49578260c0610a3b93608260405194610a0d86610453565b6080368737602281015186526042810151602087015260628101516040870152015160608501520151610a89565b15610a435790565b50600090565b505050600090565b5061ffff83146109f3565b90602060a091015191015190600052602060002003610a7b5761ffff90565b600090565b50505050600090565b92909161ffff809316928314610b8957604090815191610aa883610453565b608036843760005b60ff808216600480821015610b3357610ac98287610b92565b51600f91828b60fc8860030360021b161c16928311610b25575092600091905b8181841610610b0d5750505091600191610b0560ff9488610b92565b520116610ab0565b90919360005280600160206000209501169190610ae9565b8651632dc0277f60e21b8152fd5b505050509294935050805191602082015191606082820151910151908251936020850195865283850152606084015260808301526080825260a082019082821060018060401b0383111761042257525190201490565b50915050600090565b90600481101561058a5760051b019056fea2646970667358221220ed9d2f990be99326dc90f52b52606c1a254165a9b7e6cdd08f9db9e70174f31064736f6c63430008180033",
  "linkReferences": {},
  "deployedLinkReferences": {}
}