{
  "_format": "hh-sol-artifact-1",
  "contractName": "DeltaTransformer",
  "sourceName": "contracts/DeltaTransformer.sol",
  "abi": [
    {
      "inputs": [],
      "name": "AlreadyRevealed",
      "type": "error"
    },
    {
      "inputs": [],
      "name": "InvalidDeltaIndex",
      "type": "error"
    },
    {
      "inputs": [],
      "name": "InvalidNibbleIndex",
      "type": "error"
    },
    {
      "inputs": [],
      "name": "InvalidNibbleValue",
      "type": "error"
    },
    {
      "inputs": [
        {
          "internalType": "int256[]",
          "name": "deltas",
          "type": "int256[]"
        },
        {
          "internalType": "bytes",
          "name": "encodedBatch",
          "type": "bytes"
        },
        {
          "internalType": "bytes",
          "name": "leftArguments",
          "type": "bytes"
        },
        {
          "internalType": "bytes",
          "name": "rightArguments",
          "type": "bytes"
        }
      ],
      "name": "applyBatch",
      "outputs": [
        {
          "internalType": "int256[]",
          "name": "",
          "type": "int256[]"
        }
      ],
      "stateMutability": "view",
      "type": "function"
    },
    {
      "inputs": [
        {
          "internalType": "int256[]",
          "name": "deltas",
          "type": "int256[]"
        },
        {
          "internalType": "bytes",
          "name": "encodedBatch",
          "type": "bytes"
        },
        {
          "internalType": "bytes",
          "name": "leftArguments",
          "type": "bytes"
        },
        {
          "internalType": "bytes",
          "name": "rightArguments",
          "type": "bytes"
        },
        {
          "internalType": "uint256",
          "name": "leftArgumentsTimestamp",
          "type": "uint256"
        },
        {
          "internalType": "uint256",
          "name": "rightArgumentsTimestamp",
          "type": "uint256"
        }
      ],
      "name": "applyBatchWithArgumentTimestamps",
      "outputs": [
        {
          "internalType": "int256[]",
          "name": "",
          "type": "int256[]"
        }
      ],
      "stateMutability": "view",
      "type": "function"
    },
    {
      "inputs": [
        {
          "internalType": "bytes32",
          "name": "hash",
          "type": "bytes32"
        }
      ],
      "name": "cleanSecret",
      "outputs": [],
      "stateMutability": "nonpayable",
      "type": "function"
    },
    {
      "inputs": [
        {
          "internalType": "bytes",
          "name": "encoded",
          "type": "bytes"
        }
      ],
      "name": "decodeArgumentsStrict",
      "outputs": [
        {
          "components": [
            {
              "internalType": "uint16[]",
              "name": "fillRatios",
              "type": "uint16[]"
            },
            {
              "internalType": "bytes32[]",
              "name": "secrets",
              "type": "bytes32[]"
            },
            {
              "internalType": "bytes[]",
              "name": "pulls",
              "type": "bytes[]"
            }
          ],
          "internalType": "struct DeltaTransformer.Arguments",
          "name": "",
          "type": "tuple"
        }
      ],
      "stateMutability": "pure",
      "type": "function"
    },
    {
      "inputs": [
        {
          "components": [
            {
              "components": [
                {
                  "internalType": "uint256",
                  "name": "deltaIndex",
                  "type": "uint256"
                },
                {
                  "internalType": "int256",
                  "name": "amount",
                  "type": "int256"
                },
                {
                  "internalType": "uint256",
                  "name": "revealedUntilTimestamp",
                  "type": "uint256"
                },
                {
                  "internalType": "bytes32",
                  "name": "hash",
                  "type": "bytes32"
                }
              ],
              "internalType": "struct DeltaTransformer.Payment[]",
              "name": "payment",
              "type": "tuple[]"
            },
            {
              "components": [
                {
                  "internalType": "bool",
                  "name": "ownerIsLeft",
                  "type": "bool"
                },
                {
                  "internalType": "uint256",
                  "name": "addDeltaIndex",
                  "type": "uint256"
                },
                {
                  "internalType": "uint256",
                  "name": "addAmount",
                  "type": "uint256"
                },
                {
                  "internalType": "uint256",
                  "name": "subDeltaIndex",
                  "type": "uint256"
                },
                {
                  "internalType": "uint256",
                  "name": "subAmount",
                  "type": "uint256"
                }
              ],
              "internalType": "struct DeltaTransformer.Swap[]",
              "name": "swap",
              "type": "tuple[]"
            },
            {
              "components": [
                {
                  "internalType": "uint256",
                  "name": "deltaIndex",
                  "type": "uint256"
                },
                {
                  "internalType": "int256",
                  "name": "amount",
                  "type": "int256"
                },
                {
                  "internalType": "uint16",
                  "name": "claimedRatio",
                  "type": "uint16"
                },
                {
                  "internalType": "uint256",
                  "name": "revealedUntilTimestamp",
                  "type": "uint256"
                },
                {
                  "internalType": "bytes32",
                  "name": "fullHash",
                  "type": "bytes32"
                },
                {
                  "internalType": "bytes32",
                  "name": "partialRoot",
                  "type": "bytes32"
                }
              ],
              "internalType": "struct DeltaTransformer.Pull[]",
              "name": "pull",
              "type": "tuple[]"
            }
          ],
          "internalType": "struct DeltaTransformer.Batch",
          "name": "b",
          "type": "tuple"
        }
      ],
      "name": "encodeBatch",
      "outputs": [
        {
          "internalType": "bytes",
          "name": "",
          "type": "bytes"
        }
      ],
      "stateMutability": "pure",
      "type": "function"
    },
    {
      "inputs": [
        {
          "internalType": "bytes32",
          "name": "",
          "type": "bytes32"
        }
      ],
      "name": "hashRevealed",
      "outputs": [
        {
          "internalType": "bool",
          "name": "",
          "type": "bool"
        }
      ],
      "stateMutability": "view",
      "type": "function"
    },
    {
      "inputs": [
        {
          "internalType": "bytes32",
          "name": "",
          "type": "bytes32"
        }
      ],
      "name": "hashToBlock",
      "outputs": [
        {
          "internalType": "uint256",
          "name": "",
          "type": "uint256"
        }
      ],
      "stateMutability": "view",
      "type": "function"
    },
    {
      "inputs": [
        {
          "internalType": "bytes32",
          "name": "",
          "type": "bytes32"
        }
      ],
      "name": "hashToTimestamp",
      "outputs": [
        {
          "internalType": "uint256",
          "name": "",
          "type": "uint256"
        }
      ],
      "stateMutability": "view",
      "type": "function"
    },
    {
      "inputs": [
        {
          "internalType": "bytes32",
          "name": "secret",
          "type": "bytes32"
        }
      ],
      "name": "revealSecret",
      "outputs": [],
      "stateMutability": "nonpayable",
      "type": "function"
    },
    {
      "inputs": [],
      "name": "supportsArgumentTimestamps",
      "outputs": [
        {
          "internalType": "bool",
          "name": "",
          "type": "bool"
        }
      ],
      "stateMutability": "pure",
      "type": "function"
    }
  ],
  "bytecode": "0x6080806040523461001657611949908161001c8239f35b600080fdfe6080604081815260048036101561001557600080fd5b600092833560e01c908163180f9af31461067b5750806318c323f2146105e557806337d6d0731461055c57806349fbda291461054057806351672fac1461051a57806355d426c0146104ee57806360307545146104775780639c317cdc146103ce578063ddbc7ef3146100bb5763fac5db201461009157600080fd5b346100b75760203660031901126100b75760209282913581526001845220549051908152f35b8280fd5b5082346103cb57602092836003193601126103c7576001600160401b039280358481116103bf576100ee91369101610bdd565b6100f9959195610c46565b5085019481818703126103bf578035908582116103c35701936060858703126103bf5782519561012887610a2f565b853582811161038f57860181601f8201121561038f5780359061014a82610b0a565b9161015787519384610ae7565b808352858084019160051b8301019184831161038b5786809101915b8383106103a7575050505087528286013582811161038f5786019581601f8801121561038f578635966101a588610b0a565b976101b28751998a610ae7565b80895285808a019160051b8301019184831161038b5786809101915b83831061039757508a019889525050808501359083821161039357019080601f8301121561038f5781359061020282610b0a565b9361020f87519586610ae7565b828552858086019360051b8501019382851161038b5786819998979901935b85851061031f575050505050508186019081528151948486526080860196519660608688015287518091528560a08801980190855b818110610307575050505195601f1992838783030190870152848088519283815201970190845b8181106102f3575050505192818587030160608601528351918287528187019082808560051b8a0101960194975b8489106102c55787870388f35b90919293949584806102e1838686600196030188528a51610b58565b980194019801979190949392946102b8565b82518952978601979186019160010161028a565b825161ffff168a529887019891870191600101610263565b84999798993583811161038757820184603f82011215610387578881013561034681610c65565b916103538c519384610ae7565b818352868c838301011161038357918c8b838196948f83970183860137830101528152019401939897969861022e565b8c80fd5b8a80fd5b8880fd5b8580fd5b8680fd5b82358152918101918791016101ce565b81906103b284610b21565b8152019101908690610173565b8380fd5b8480fd5b5080fd5b80fd5b5091346103cb5760c03660031901126103cb576001600160401b039083358281116103c7576104009036908601610b7d565b916024358181116100b7576104189036908701610bdd565b9190956044358281116103c3576104329036908301610bdd565b9290946064359182116103cb575091610458610468969492610473999694369101610bdd565b93909260a4359660843596610ccf565b905191829182610c0a565b0390f35b50346100b757602090816003193601126103bf57825182810190823582528381526104a181610ab1565b519020908185526002835260ff84862054166104e05750906001918452600281528284208260ff19825416179055838152438385205552429082205580f35b835163a89ac15160e01b8152fd5b50346100b75760203660031901126100b7578160209360ff923581526002855220541690519015158152f35b50346100b75760203660031901126100b757602092829135815280845220549051908152f35b5050346103c757816003193601126103c7576020905160018152f35b509190346103c75760203660031901126103c7578235620186a04311806105d2575b8061059b575b83945061058f575050f35b82528160205281205580f35b5080835282602052818320546201869f194301904382116105bf5784955010610584565b634e487b7160e01b855260118652602485fd5b508083528260205281832054151561057e565b5091346103cb5760803660031901126103cb576001600160401b039083358281116103c7576106179036908601610b7d565b916024358181116100b75761062f9036908701610bdd565b9190956044358281116103c3576106499036908301610bdd565b9290946064359182116103cb57509161066f610468969492610473999694369101610bdd565b93909242964296610ccf565b91929050346103bf576020916003199483863601126103cb576001600160401b039480358681116100b7576060809882360301126100b7576106bc84610a2f565b808201358781116103bf57810193366023860112156103bf57828501356024956106e582610b0a565b916106f289519384610ae7565b808352878a84019160071b83010191368311610992578801905b8282106109ec575050508152848201358881116103c3578201973660238a0112156103c357838901359261073f84610b0a565b9961074c89519b8c610ae7565b848b52898b018860a08097028301019136831161038b578901905b82821061099657505050888301998a52604481013591821161038f570192366023850112156103c3578301359261079d84610b0a565b956107aa88519788610ae7565b848752888701908060c080970284010192368411610992579b9594939b97969701905b8282106109295750505085890193845285519787808a015281890199519984888b01528a518091528860c08b019b0190875b8181106108fa575050505193603f19998a8a820301858b0152888087519283815201960190875b8181106108c05750505051986080908986030160808a015287808b5196878152019a0195935b85851061087c575088886104738961086d848f03601f198101865285610ae7565b51928284938452830190610b58565b865180518c52808a01518a8d01528881015161ffff16898d0152808201518c830152808301518c8401528301518b840152998301999588019560019094019361084c565b8251805115158952808c01518c8a0152808b01518b8a015280880151888a01526080908101519089015296840196918a0191600101610826565b825180518e52808c01518c8f0152808b01518b8f01528701518d8801526080909c019b918a01916001016107ff565b84829c9495969c989798360312610393578986918d8b519061094a82610a96565b8535825283860135848301526109618d8701610b21565b8d83015280860135908201526080808601359082015287850135888201528152019101909a9493929a9695966107cd565b8780fd5b868236031261038b578a516109aa81610a7b565b8235801515810361038757918f918e928e8b95835284870135858401528087013590830152808601359082015260808086013590820152815201910190610767565b608082360312610992578a6080918e8c5190610a0782610a60565b8535825283860135848301528d8087013590830152808601359082015281520191019061070c565b606081019081106001600160401b03821117610a4a57604052565b634e487b7160e01b600052604160045260246000fd5b608081019081106001600160401b03821117610a4a57604052565b60a081019081106001600160401b03821117610a4a57604052565b60c081019081106001600160401b03821117610a4a57604052565b604081019081106001600160401b03821117610a4a57604052565b602081019081106001600160401b03821117610a4a57604052565b601f909101601f19168101906001600160401b03821190821017610a4a57604052565b6001600160401b038111610a4a5760051b60200190565b359061ffff82168203610b3057565b600080fd5b60005b838110610b485750506000910152565b8181015183820152602001610b38565b90602091610b7181518092818552858086019101610b35565b601f01601f1916010190565b9080601f83011215610b30576020908235610b9781610b0a565b93610ba56040519586610ae7565b81855260208086019260051b820101928311610b3057602001905b828210610bce575050505090565b81358152908301908301610bc0565b9181601f84011215610b30578235916001600160401b038311610b305760208381860195010111610b3057565b602090602060408183019282815285518094520193019160005b828110610c32575050505090565b835185529381019392810192600101610c24565b60405190610c5382610a2f565b60606040838281528260208201520152565b6001600160401b038111610a4a57601f01601f191660200190565b8051821015610c945760209160051b010190565b634e487b7160e01b600052603260045260246000fd5b6000198114610cb95760010190565b634e487b7160e01b600052601160045260246000fd5b959290989798949391946020818781010312610b30576001600160401b03958135878111610b30578201966060888385010312610b305760405197610d1389610a2f565b8035828111610b30578101838501601f82011215610b3057803590610d3782610b0a565b91610d456040519384610ae7565b808352602083019186880160208360071b83010111610b30579160208301925b60208360071b82010184106111a3575050505089526020810135828111610b30578101838501601f82011215610b3057803590610da182610b0a565b91610daf6040519384610ae7565b8083526020830191868801602060a0840283010111610b30579160208301925b602060a08402820101841061113f575050505060208a01526040810135918211610b30570190808301601f83011215610b3057813590610e0e82610b0a565b93610e1c6040519586610ae7565b8285526020850193828201602060c0860283010111610b3057936020859e9b9e01945b602060c0860282010186106110d15750505050505091610e6891610e6e949360408b01526111ee565b926111ee565b600092602083019260208301945b88518051821015610eab5790610ea58b8a610e9984600196610c80565b5189518b51918d611473565b01610e7c565b50509495969350969091506000968793885b60208201518051821015610ffd5781610ed591610c80565b519060009682511515600014610fc457865180518210610fa8575b50610efa90610caa565b965b60208301518a5180911090811591610f99575b50610f8757610f80610f5d84610f7a6060610f478f96610f6f9088610f64610f5d604060019e01519361ffff96878092168096611574565b04610f5760208b01518095610c80565b51611457565b918b610c80565b526080860151611574565b049201518095610c80565b51611587565b5201610ebd565b60405163121e18c360e01b8152600490fd5b90506060840151101538610f0f565b819850610fbb610efa9261ffff92610c80565b51169790610ef0565b969a885180518210610fe1575b50610fdb90610caa565b9a610efc565b819c50610ff4610fdb9261ffff92610c80565b51169b90610fd1565b5050969593509650926000938490855b604089015180518810156110c457611026888a92610c80565b51602081015160001361108e5760409261106860019361106d93868a01848151518110916000926000146110785761105f925051610c80565b51905b8c6115a0565b610caa565b975b0196905061100d565b505087519061108682610acc565b815290611062565b600191506040929894611068856110be93868b01848151518110916000926000146110785761105f925051610c80565b9361106f565b5050505050509250505090565b60c09b9e9b868585010312610b305760c080602080946040516110f381610a96565b8a358152828b01358382015261110b60408c01610b21565b604082015260608b013560608201526080808c01359082015260a08b013560a08201528152019701969250509d9a9d610e3f565b60a084898b010312610b30576040519161115883610a7b565b8435928315158403610b3057602060a092828296859452828901358382015260408901356040820152606089013560608201526080808a013590820152815201950194925050610dcf565b608084898b010312610b30576080602080936040516111c181610a60565b87358152828801358382015260408801356040820152606088013560608201528152019401939150610d65565b6111f6610c46565b50811561144d576040918251809163ddbc7ef360e01b8252806020948560048501528160248501526044840137816044600094838683819684010152601f80199101168101030181305afa9384938395611263575b5050505015600014611260575061126061168b565b90565b9091929394503d8085853e6112788185610ae7565b830181848203126103c35783516001600160401b03948582116103935701946060868303126103cb578351956112ad87610a2f565b80518681116100b757810183601f820112156100b7578051906112cf82610b0a565b916112dc88519384610ae7565b808352868084019160051b8301019186831161038f578701905b828210611433575050508752838101518681116100b757810183601f820112156100b75780519061132682610b0a565b9161133388519384610ae7565b808352868084019160051b8301019186831161038f5787809101915b838310611423575091505088015284810151908682116100b757019180601f840112156103c75782519161138283610b0a565b9661138f87519889610ae7565b838852858089019460051b860101948386116100b757868101945b8686106113c6575050505050505050820152903880808061124b565b85518381116103c357820185603f820112156103c357888101516113e981610c65565b916113f68c519384610ae7565b818352878c838301011161039357916114188b949285948e8685019101610b35565b8152019501946113aa565b825181529181019188910161134f565b815161ffff811681036103935781529087019087016112f6565b505061126061168b565b91909160008382019384129112908015821691151617610cb957565b949391929093606085019081516000526001602052604060002054946000958015159081611565575b5061155c575b85156114e3575b5050505050156114df57805182511115610f8757806114d660206114dc930151915191610f578386610c80565b92610c80565b52565b5050565b604087019485511015908161154a575b50611541575b84159384611535575b505082611523575b505061151b575b38808080806114a9565b506001611511565b61152e9250516116d2565b388061150a565b51101592503880611502565b600194506114f9565b611556915083516116d2565b386114f3565b600195506114a2565b9050604088015110153861149c565b81810292918115918404141715610cb957565b81810392916000138015828513169184121617610cb957565b929091825184511115610f87576115bc61ffff92839285611720565b16908115801561167b575b6116755760208301805190919060008082126116465750506115ff816115f08451955b86611574565b04938260408701511690611574565b048083111561163f578203918211610cb9575160001361162c576114d66114dc925191610f578386610c80565b6114d66114dc925191610f7a8386610c80565b5050505050565b600160ff1b8214611661576115f06115ff92849203956115ea565b634e487b7160e01b81526011600452602490fd5b50505050565b50806040840151168211156115c7565b611693610c46565b60405161169f81610acc565b6000815281526040516116b181610acc565b6000815260208201526040516116c681610acc565b60008152604082015290565b60005b825181101561171857816116e98285610c80565b516040516020808201928352815261170081610ab1565b51902014611710576001016116d5565b505050600190565b505050600090565b909182519081156117f957606083015110611718576020146117d5578151608281036117185715610c945761ff00602083015160f01c16825160011015610c9457602183015160f81c1791821580156117ca575b611718578260a06117bc9360826040519461178e86610a60565b6080368737602281015186526042810151602087015260628101516040870152015160608501520151611802565b156117c45790565b50600090565b5061ffff8314611774565b9060206080910151910151906000526020600020036117f45761ffff90565b600090565b50505050600090565b92909161ffff8093169283146118f9576040906040519161182283610a60565b608036843760005b60ff8082166004808210156118ad576118438287611902565b51600f91828b60fc8860030360021b161c1692831161189f575092600091905b8181841610611887575050509160019161187f60ff9488611902565b52011661182a565b90919360005280600160206000209501169190611863565b8651632dc0277f60e21b8152fd5b5050505050509092915080519060208101519060606040820151910151906040519260208401948552604084015260608301526080820152608081526118f281610a7b565b5190201490565b50915050600090565b906004811015610c945760051b019056fea264697066735822122037f8a3a74384d5bfb3c84b58b9d068ecd6cee0453bc5a580fa715dcda10d4eaa64736f6c63430008180033",
  "linkReferences": {},
  "deployedLinkReferences": {}
}