{
  "_format": "hh-sol-artifact-1",
  "contractName": "DeltaTransformer",
  "sourceName": "contracts/DeltaTransformer.sol",
  "abi": [
    {
      "inputs": [],
      "name": "AlreadyRevealed",
      "type": "error"
    },
    {
      "inputs": [],
      "name": "InvalidDeltaIndex",
      "type": "error"
    },
    {
      "inputs": [],
      "name": "InvalidNibbleIndex",
      "type": "error"
    },
    {
      "inputs": [],
      "name": "InvalidNibbleValue",
      "type": "error"
    },
    {
      "inputs": [
        {
          "internalType": "int256[]",
          "name": "deltas",
          "type": "int256[]"
        },
        {
          "internalType": "bytes",
          "name": "encodedBatch",
          "type": "bytes"
        },
        {
          "internalType": "bytes",
          "name": "leftArguments",
          "type": "bytes"
        },
        {
          "internalType": "bytes",
          "name": "rightArguments",
          "type": "bytes"
        }
      ],
      "name": "applyBatch",
      "outputs": [
        {
          "internalType": "int256[]",
          "name": "",
          "type": "int256[]"
        }
      ],
      "stateMutability": "view",
      "type": "function"
    },
    {
      "inputs": [
        {
          "internalType": "int256[]",
          "name": "deltas",
          "type": "int256[]"
        },
        {
          "internalType": "bytes",
          "name": "encodedBatch",
          "type": "bytes"
        },
        {
          "internalType": "bytes",
          "name": "leftArguments",
          "type": "bytes"
        },
        {
          "internalType": "bytes",
          "name": "rightArguments",
          "type": "bytes"
        },
        {
          "internalType": "uint256",
          "name": "leftArgumentsTimestamp",
          "type": "uint256"
        },
        {
          "internalType": "uint256",
          "name": "rightArgumentsTimestamp",
          "type": "uint256"
        }
      ],
      "name": "applyBatchWithArgumentTimestamps",
      "outputs": [
        {
          "internalType": "int256[]",
          "name": "",
          "type": "int256[]"
        }
      ],
      "stateMutability": "view",
      "type": "function"
    },
    {
      "inputs": [
        {
          "internalType": "bytes32",
          "name": "hash",
          "type": "bytes32"
        }
      ],
      "name": "cleanSecret",
      "outputs": [],
      "stateMutability": "nonpayable",
      "type": "function"
    },
    {
      "inputs": [
        {
          "components": [
            {
              "components": [
                {
                  "internalType": "uint256",
                  "name": "deltaIndex",
                  "type": "uint256"
                },
                {
                  "internalType": "int256",
                  "name": "amount",
                  "type": "int256"
                },
                {
                  "internalType": "uint256",
                  "name": "revealedUntilTimestamp",
                  "type": "uint256"
                },
                {
                  "internalType": "bytes32",
                  "name": "hash",
                  "type": "bytes32"
                }
              ],
              "internalType": "struct DeltaTransformer.Payment[]",
              "name": "payment",
              "type": "tuple[]"
            },
            {
              "components": [
                {
                  "internalType": "bool",
                  "name": "ownerIsLeft",
                  "type": "bool"
                },
                {
                  "internalType": "uint256",
                  "name": "addDeltaIndex",
                  "type": "uint256"
                },
                {
                  "internalType": "uint256",
                  "name": "addAmount",
                  "type": "uint256"
                },
                {
                  "internalType": "uint256",
                  "name": "subDeltaIndex",
                  "type": "uint256"
                },
                {
                  "internalType": "uint256",
                  "name": "subAmount",
                  "type": "uint256"
                }
              ],
              "internalType": "struct DeltaTransformer.Swap[]",
              "name": "swap",
              "type": "tuple[]"
            },
            {
              "components": [
                {
                  "internalType": "uint256",
                  "name": "deltaIndex",
                  "type": "uint256"
                },
                {
                  "internalType": "int256",
                  "name": "amount",
                  "type": "int256"
                },
                {
                  "internalType": "uint16",
                  "name": "claimedRatio",
                  "type": "uint16"
                },
                {
                  "internalType": "uint256",
                  "name": "revealedUntilTimestamp",
                  "type": "uint256"
                },
                {
                  "internalType": "bytes32",
                  "name": "fullHash",
                  "type": "bytes32"
                },
                {
                  "internalType": "bytes32",
                  "name": "partialRoot",
                  "type": "bytes32"
                }
              ],
              "internalType": "struct DeltaTransformer.Pull[]",
              "name": "pull",
              "type": "tuple[]"
            }
          ],
          "internalType": "struct DeltaTransformer.Batch",
          "name": "b",
          "type": "tuple"
        }
      ],
      "name": "encodeBatch",
      "outputs": [
        {
          "internalType": "bytes",
          "name": "",
          "type": "bytes"
        }
      ],
      "stateMutability": "pure",
      "type": "function"
    },
    {
      "inputs": [
        {
          "internalType": "bytes32",
          "name": "",
          "type": "bytes32"
        }
      ],
      "name": "hashRevealed",
      "outputs": [
        {
          "internalType": "bool",
          "name": "",
          "type": "bool"
        }
      ],
      "stateMutability": "view",
      "type": "function"
    },
    {
      "inputs": [
        {
          "internalType": "bytes32",
          "name": "",
          "type": "bytes32"
        }
      ],
      "name": "hashToBlock",
      "outputs": [
        {
          "internalType": "uint256",
          "name": "",
          "type": "uint256"
        }
      ],
      "stateMutability": "view",
      "type": "function"
    },
    {
      "inputs": [
        {
          "internalType": "bytes32",
          "name": "",
          "type": "bytes32"
        }
      ],
      "name": "hashToTimestamp",
      "outputs": [
        {
          "internalType": "uint256",
          "name": "",
          "type": "uint256"
        }
      ],
      "stateMutability": "view",
      "type": "function"
    },
    {
      "inputs": [
        {
          "internalType": "bytes32",
          "name": "secret",
          "type": "bytes32"
        }
      ],
      "name": "revealSecret",
      "outputs": [],
      "stateMutability": "nonpayable",
      "type": "function"
    },
    {
      "inputs": [],
      "name": "supportsArgumentTimestamps",
      "outputs": [
        {
          "internalType": "bool",
          "name": "",
          "type": "bool"
        }
      ],
      "stateMutability": "pure",
      "type": "function"
    }
  ],
  "bytecode": "0x60808060405234610016576115a3908161001c8239f35b600080fdfe6080604081815260048036101561001557600080fd5b600092833560e01c908163180f9af3146103535750806318c323f2146102bd57806337d6d0731461024d57806349fbda291461023157806351672fac1461020b57806355d426c0146101df57806360307545146101645780639c317cdc146100b05763fac5db201461008657600080fd5b346100ac5760203660031901126100ac5760209282913581526001845220549051908152f35b8280fd5b5091346101595760c0366003190112610159576001600160401b03908335828111610160576100e2903690860161086b565b916024358181116100ac576100fa90369087016108cb565b91909560443582811161015c5761011490369083016108cb565b92909460643591821161015957509161013a61014a9694926101559996943691016108cb565b93909260a4359660843596610983565b9051918291826108f8565b0390f35b80fd5b8480fd5b5080fd5b50346100ac57602090816003193601126101db578251828101908235825283815261018e816107e7565b519020908185526002835260ff84862054166101cd5750906001918452600281528284208260ff19825416179055838152438385205552429082205580f35b835163a89ac15160e01b8152fd5b8380fd5b50346100ac5760203660031901126100ac578160209360ff923581526002855220541690519015158152f35b50346100ac5760203660031901126100ac57602092829135815280845220549051908152f35b5050346101605781600319360112610160576020905160018152f35b5091903461016057602036600319011261016057823580835282602052818320548015159081610290575b50839450610284575050f35b82528160205281205580f35b436201869f198101925082116102aa578495501038610278565b634e487b7160e01b855260118652602485fd5b509134610159576080366003190112610159576001600160401b03908335828111610160576102ef903690860161086b565b916024358181116100ac5761030790369087016108cb565b91909560443582811161015c5761032190369083016108cb565b92909460643591821161015957509161034761014a9694926101559996943691016108cb565b93909242964296610983565b838584346101605760209360031985813601126101db576001600160401b039280359190848311610761576060809284360301126107615761039484610765565b8281013585811161075d578301923660238501121561075d57818401356024946103bd82610840565b916103ca8b51938461081d565b808352868c84019160071b830101913683116106b3578701905b82821061071b575050508552838101358681116106b757810195366023880112156106b757828701359161041783610840565b976104248b51998a61081d565b8389528b89018760a080960283010191368311610717578801905b8282106106bf575050508a870197885260448101359182116106bb570191366023840112156106b7578201359161047583610840565b946104828a51968761081d565b8386528a8601908060c0809602840101923684116106b35797969594939701905b82821061064b575050508784019283528751958980880152858701945194838a89015285518091528a60c08901960190895b8c8c8383106106195750505050505192603f19948588820301848901528a8086519283815201950190895b8c8c8383106105dc575050505050519460809487850301608088015289808751958681520196019488935b8b8b878710610594578a8c818c0361054b601f199182810185528461081d565b8351948592818452845191828186015281955b83871061057c5750508394508582601f949501015201168101030190f35b8681018201518988018901529581019588955061055e565b885180518b5282810151838c01528082015161ffff16918b019190915280830151838b015280840151848b0152840151848a015297840197909601956001949094019361052b565b8451805115158a5282810151838b015280820151918a01919091528088015189890152608090810151908901529689019690920191600101610500565b845180518b5282810151838c015280820151918b019190915287015189880152608090980197909201916001016104d5565b83829894959697983603126106af578b85918c51610668816107cc565b8435815282850135838201528d610680818701610857565b9082015288850135898201526080808601359082015286850135878201528152019101909695949392966104a3565b8980fd5b8a80fd5b8780fd5b8880fd5b8582360312610717578c516106d3816107b1565b8235801515810361071357918f918f89948252838601358483015280860135908201528a8501358b8201526080808601359082015281520191019061043f565b8d80fd5b8b80fd5b6080823603126106b3578c6080918d80519061073682610796565b8535825283860135848301528086013590820152898501358a8201528152019101906103e4565b8680fd5b8580fd5b606081019081106001600160401b0382111761078057604052565b634e487b7160e01b600052604160045260246000fd5b608081019081106001600160401b0382111761078057604052565b60a081019081106001600160401b0382111761078057604052565b60c081019081106001600160401b0382111761078057604052565b604081019081106001600160401b0382111761078057604052565b602081019081106001600160401b0382111761078057604052565b601f909101601f19168101906001600160401b0382119082101761078057604052565b6001600160401b0381116107805760051b60200190565b359061ffff8216820361086657565b600080fd5b9080601f8301121561086657602090823561088581610840565b93610893604051958661081d565b81855260208086019260051b82010192831161086657602001905b8282106108bc575050505090565b813581529083019083016108ae565b9181601f84011215610866578235916001600160401b038311610866576020838186019501011161086657565b602090602060408183019282815285518094520193019160005b828110610920575050505090565b835185529381019392810192600101610912565b80518210156109485760209160051b010190565b634e487b7160e01b600052603260045260246000fd5b600019811461096d5760010190565b634e487b7160e01b600052601160045260246000fd5b959290989798949391946020818781010312610866576001600160401b0395813587811161086657820196606088838501031261086657604051976109c789610765565b8035828111610866578101838501601f82011215610866578035906109eb82610840565b916109f9604051938461081d565b808352602083019186880160208360071b83010111610866579160208301925b60208360071b8201018410610e57575050505089526020810135828111610866578101838501601f8201121561086657803590610a5582610840565b91610a63604051938461081d565b8083526020830191868801602060a0840283010111610866579160208301925b602060a084028201018410610df3575050505060208a01526040810135918211610866570190808301601f8301121561086657813590610ac282610840565b93610ad0604051958661081d565b8285526020850193828201602060c086028301011161086657936020859e9b9e01945b602060c086028201018610610d855750505050505091610b1c91610b22949360408b0152610ea2565b92610ea2565b600092602083019260208301945b88518051821015610b5f5790610b598b8a610b4d84600196610934565b5189518b51918d611114565b01610b30565b50509495969350969091506000968793885b60208201518051821015610cb15781610b8991610934565b519060009682511515600014610c7857865180518210610c5c575b50610bae9061095e565b965b60208301518a5180911090811591610c4d575b50610c3b57610c34610c1184610c2e6060610bfb8f96610c239088610c18610c11604060019e01519361ffff96878092168096611215565b04610c0b60208b01518095610934565b516110f8565b918b610934565b526080860151611215565b049201518095610934565b51611228565b5201610b71565b60405163121e18c360e01b8152600490fd5b90506060840151101538610bc3565b819850610c6f610bae9261ffff92610934565b51169790610ba4565b969a885180518210610c95575b50610c8f9061095e565b9a610bb0565b819c50610ca8610c8f9261ffff92610934565b51169b90610c85565b5050969593509650926000938490855b60408901518051881015610d7857610cda888a92610934565b516020810151600013610d4257604092610d1c600193610d2193868a0184815151811091600092600014610d2c57610d13925051610934565b51905b8c611241565b61095e565b975b01969050610cc1565b5050875190610d3a82610802565b815290610d16565b600191506040929894610d1c85610d7293868b0184815151811091600092600014610d2c57610d13925051610934565b93610d23565b5050505050509250505090565b60c09b9e9b8685850103126108665760c08060208094604051610da7816107cc565b8a358152828b013583820152610dbf60408c01610857565b604082015260608b013560608201526080808c01359082015260a08b013560a08201528152019701969250509d9a9d610af3565b60a084898b0103126108665760405191610e0c836107b1565b843592831515840361086657602060a092828296859452828901358382015260408901356040820152606089013560608201526080808a013590820152815201950194925050610a83565b608084898b01031261086657608060208093604051610e7581610796565b87358152828801358382015260408801356040820152606088013560608201528152019401939150610a19565b906040805191610eb183610765565b6060835260209283810160608152838201906060825283156110bd575050508301918084840312610866576001600160401b0393803590858211610866570160608185031261086657825194610f0686610765565b813581811161086657820191601f9286601f8201121561086657803590610f2c82610840565b91610f398851938461081d565b808352868084019160051b830101918983116108665787809101915b8383106110a5575050505087528381013582811161086657810186601f8201121561086657803590610f8682610840565b91610f938851938461081d565b808352868084019160051b830101918983116108665787809101915b8383106110955750915050880152848101359082821161086657019185601f8401121561086657823590610fe282610840565b96610fef8751988961081d565b828852858089019360051b8601019481861161086657868101935b86851061101f57505050505050505082015290565b843586811161086657820183603f82011215610866578881013591878311611080578a51611055848801601f19168c018261081d565b838152858c85850101116108665760008b8581968f839701838601378301015281520194019361100a565b60246000634e487b7160e01b81526041600452fd5b8235815291810191889101610faf565b81906110b084610857565b8152019101908790610f55565b92509350935081516110ce81610802565b6000815284528151906110e082610802565b600082525251906110f082610802565b600082525290565b9190916000838201938412911290801582169115161761096d57565b949391929093606085019081516000526001602052604060002054946000958015159081611206575b506111fd575b8515611184575b50505050501561118057805182511115610c3b5780611177602061117d930151915191610c0b8386610934565b92610934565b52565b5050565b60408701948551101590816111eb575b506111e2575b841593846111d6575b5050826111c4575b50506111bc575b388080808061114a565b5060016111b2565b6111cf92505161132c565b38806111ab565b511015925038806111a3565b6001945061119a565b6111f79150835161132c565b38611194565b60019550611143565b9050604088015110153861113d565b8181029291811591840414171561096d57565b8181039291600013801582851316918412161761096d57565b929091825184511115610c3b5761125d61ffff9283928561137a565b16908115801561131c575b6113165760208301805190919060008082126112e75750506112a0816112918451955b86611215565b04938260408701511690611215565b04808311156112e057820391821161096d57516000136112cd5761117761117d925191610c0b8386610934565b61117761117d925191610c2e8386610934565b5050505050565b600160ff1b8214611302576112916112a0928492039561128b565b634e487b7160e01b81526011600452602490fd5b50505050565b5080604084015116821115611268565b60005b825181101561137257816113438285610934565b516040516020808201928352815261135a816107e7565b5190201461136a5760010161132f565b505050600190565b505050600090565b90918251908115611453576060830151106113725760201461142f5781516082810361137257156109485761ff00602083015160f01c1682516001101561094857602183015160f81c179182158015611424575b611372578260a0611416936082604051946113e886610796565b608036873760228101518652604281015160208701526062810151604087015201516060850152015161145c565b1561141e5790565b50600090565b5061ffff83146113ce565b90602060809101519101519060005260206000200361144e5761ffff90565b600090565b50505050600090565b92909161ffff809316928314611553576040906040519161147c83610796565b608036843760005b60ff8082166004808210156115075761149d828761155c565b51600f91828b60fc8860030360021b161c169283116114f9575092600091905b81818416106114e157505050916001916114d960ff948861155c565b520116611484565b909193600052806001602060002095011691906114bd565b8651632dc0277f60e21b8152fd5b50505050505090929150805190602081015190606060408201519101519060405192602084019485526040840152606083015260808201526080815261154c816107b1565b5190201490565b50915050600090565b9060048110156109485760051b019056fea2646970667358221220ce5f4ecd739c0d5eed89a21f04572bb435e1cb67cbf87cfc50ecdbd0c44eca3364736f6c63430008180033",
  "linkReferences": {},
  "deployedLinkReferences": {}
}