{
  "_format": "hh-sol-artifact-1",
  "contractName": "DeltaTransformer",
  "sourceName": "contracts/DeltaTransformer.sol",
  "abi": [
    {
      "inputs": [],
      "name": "ContextLengthMismatch",
      "type": "error"
    },
    {
      "inputs": [],
      "name": "InvalidDeltaIndex",
      "type": "error"
    },
    {
      "inputs": [],
      "name": "InvalidNibbleIndex",
      "type": "error"
    },
    {
      "inputs": [],
      "name": "InvalidNibbleValue",
      "type": "error"
    },
    {
      "inputs": [
        {
          "internalType": "int256[]",
          "name": "deltas",
          "type": "int256[]"
        },
        {
          "internalType": "uint256[]",
          "name": "tokenIds",
          "type": "uint256[]"
        },
        {
          "internalType": "bytes",
          "name": "encodedBatch",
          "type": "bytes"
        },
        {
          "internalType": "bytes",
          "name": "leftArguments",
          "type": "bytes"
        },
        {
          "internalType": "bytes",
          "name": "rightArguments",
          "type": "bytes"
        },
        {
          "internalType": "uint256",
          "name": "leftArgumentsTimestamp",
          "type": "uint256"
        },
        {
          "internalType": "uint256",
          "name": "rightArgumentsTimestamp",
          "type": "uint256"
        }
      ],
      "name": "applyBatch",
      "outputs": [
        {
          "internalType": "int256[]",
          "name": "",
          "type": "int256[]"
        }
      ],
      "stateMutability": "view",
      "type": "function"
    },
    {
      "inputs": [
        {
          "internalType": "bytes32",
          "name": "hash",
          "type": "bytes32"
        }
      ],
      "name": "cleanSecret",
      "outputs": [],
      "stateMutability": "nonpayable",
      "type": "function"
    },
    {
      "inputs": [
        {
          "internalType": "bytes",
          "name": "encoded",
          "type": "bytes"
        }
      ],
      "name": "decodeArgumentsStrict",
      "outputs": [
        {
          "components": [
            {
              "internalType": "uint16[]",
              "name": "fillRatios",
              "type": "uint16[]"
            },
            {
              "internalType": "bytes32[]",
              "name": "secrets",
              "type": "bytes32[]"
            },
            {
              "internalType": "bytes[]",
              "name": "pulls",
              "type": "bytes[]"
            }
          ],
          "internalType": "struct DeltaTransformer.Arguments",
          "name": "",
          "type": "tuple"
        }
      ],
      "stateMutability": "pure",
      "type": "function"
    },
    {
      "inputs": [
        {
          "components": [
            {
              "components": [
                {
                  "internalType": "uint256",
                  "name": "deltaIndex",
                  "type": "uint256"
                },
                {
                  "internalType": "int256",
                  "name": "amount",
                  "type": "int256"
                },
                {
                  "internalType": "uint256",
                  "name": "revealedUntilTimestamp",
                  "type": "uint256"
                },
                {
                  "internalType": "bytes32",
                  "name": "hash",
                  "type": "bytes32"
                }
              ],
              "internalType": "struct DeltaTransformer.Payment[]",
              "name": "payment",
              "type": "tuple[]"
            },
            {
              "components": [
                {
                  "internalType": "bool",
                  "name": "ownerIsLeft",
                  "type": "bool"
                },
                {
                  "internalType": "uint256",
                  "name": "addDeltaIndex",
                  "type": "uint256"
                },
                {
                  "internalType": "uint256",
                  "name": "addAmount",
                  "type": "uint256"
                },
                {
                  "internalType": "uint256",
                  "name": "subDeltaIndex",
                  "type": "uint256"
                },
                {
                  "internalType": "uint256",
                  "name": "subAmount",
                  "type": "uint256"
                }
              ],
              "internalType": "struct DeltaTransformer.Swap[]",
              "name": "swap",
              "type": "tuple[]"
            },
            {
              "components": [
                {
                  "internalType": "uint256",
                  "name": "deltaIndex",
                  "type": "uint256"
                },
                {
                  "internalType": "int256",
                  "name": "amount",
                  "type": "int256"
                },
                {
                  "internalType": "uint16",
                  "name": "claimedRatio",
                  "type": "uint16"
                },
                {
                  "internalType": "uint256",
                  "name": "revealedUntilTimestamp",
                  "type": "uint256"
                },
                {
                  "internalType": "bytes32",
                  "name": "fullHash",
                  "type": "bytes32"
                },
                {
                  "internalType": "bytes32",
                  "name": "partialRoot",
                  "type": "bytes32"
                }
              ],
              "internalType": "struct DeltaTransformer.Pull[]",
              "name": "pull",
              "type": "tuple[]"
            }
          ],
          "internalType": "struct DeltaTransformer.Batch",
          "name": "b",
          "type": "tuple"
        }
      ],
      "name": "encodeBatch",
      "outputs": [
        {
          "internalType": "bytes",
          "name": "",
          "type": "bytes"
        }
      ],
      "stateMutability": "pure",
      "type": "function"
    },
    {
      "inputs": [
        {
          "internalType": "bytes32",
          "name": "",
          "type": "bytes32"
        }
      ],
      "name": "hashRevealed",
      "outputs": [
        {
          "internalType": "bool",
          "name": "",
          "type": "bool"
        }
      ],
      "stateMutability": "view",
      "type": "function"
    },
    {
      "inputs": [
        {
          "internalType": "bytes32",
          "name": "",
          "type": "bytes32"
        }
      ],
      "name": "hashToBlock",
      "outputs": [
        {
          "internalType": "uint256",
          "name": "",
          "type": "uint256"
        }
      ],
      "stateMutability": "view",
      "type": "function"
    },
    {
      "inputs": [
        {
          "internalType": "bytes32",
          "name": "",
          "type": "bytes32"
        }
      ],
      "name": "hashToTimestamp",
      "outputs": [
        {
          "internalType": "uint256",
          "name": "",
          "type": "uint256"
        }
      ],
      "stateMutability": "view",
      "type": "function"
    },
    {
      "inputs": [
        {
          "internalType": "bytes32",
          "name": "secret",
          "type": "bytes32"
        }
      ],
      "name": "revealSecret",
      "outputs": [],
      "stateMutability": "nonpayable",
      "type": "function"
    }
  ],
  "bytecode": "0x60808060405234601557611958908161001b8239f35b600080fdfe6080604052600436101561001257600080fd5b60003560e01c8063180f9af314610b6a57806337d6d07314610ad857806351672fac14610aac57806355d426c014610a7b5780636030754514610a5d578063c616b6f8146103d8578063ddbc7ef3146100a55763fac5db201461007457600080fd5b346100a05760203660031901126100a05760043560005260016020526020604060002054604051908152f35b600080fd5b346100a05760203660031901126100a0576004356001600160401b0381116100a0576100d59036906004016110ae565b6100dd61114a565b508101906020818303126100a0578035906001600160401b0382116100a05701906060828203126100a0576040519061011582610f6b565b82356001600160401b0381116100a057830181601f820112156100a05780359061013e82611010565b9161014c6040519384610fed565b80835260208084019160051b830101918483116100a057602001905b8282106103c057505050825260208301356001600160401b0381116100a05783019281601f850112156100a0578335936101a185611010565b946101af6040519687610fed565b80865260208087019160051b830101918483116100a057602001905b8282106103b057505050602083019384526040810135906001600160401b0382116100a057019080601f830112156100a05781359161020983611010565b926102176040519485610fed565b80845260208085019160051b830101918383116100a0576020819796959701915b83831061034157878787604081019283526040519283926020845260808401925192606060208601528351809152602060a0860194019060005b818110610324575050505191601f198482030160408501526020808451928381520193019060005b81811061030b575050505190601f19838203016060840152815180825260208201916020808360051b8301019401926000915b8383106102da5786860387f35b9193955091936020806102f9600193601f198682030187528951611059565b970193019301909286959492936102cd565b825185528695506020948501949092019160010161029a565b825161ffff16865287965060209586019590920191600101610272565b9596949582356001600160401b0381116100a057820185603f820112156100a05760208101359161037183611169565b61037e6040519182610fed565b83815260408385010188106100a057600060208581966040839701838601378301015281520192019196959496610238565b81358152602091820191016101cb565b602080916103cd84611027565b815201910190610168565b346100a05760e03660031901126100a0576004356001600160401b0381116100a05761040890369060040161107e565b6024356001600160401b0381116100a05761042790369060040161107e565b9290506044356001600160401b0381116100a0576104499036906004016110ae565b91906064356001600160401b0381116100a05761046a9036906004016110ae565b946084356001600160401b0381116100a05761048a9036906004016110ae565b60a435968360c4359a03610a4c576104a184611010565b966104af6040519889610fed565b84885260208801809560051b8201913683116100a057905b828210610a3c575050508501976000956020818b03126109e9578035906001600160401b038211610a385701946060868b03126109e9576040519661050b88610f6b565b86356001600160401b0381116109895787018b601f820112156109895780358c61053482611010565b926105426040519485610fed565b82845260208085019360071b8201019182116109ed57602001918e5b8284106109f1575050509089525060208701356001600160401b038111610989578701968b601f890112156109895787358c61059982611010565b996105a76040519b8c610fed565b828b52602060a0818d0194028201019182116109ed57602001918e5b82841061098d5750505050602089019788526040810135906001600160401b03821161098557018b601f820112156109895780359161060183611010565b9c6040519d610610908f610fed565b8d8481526020019360c002830160200192818411610985579a9d9a602001935b83851061091e57505050505061065792916106519160408c019889526111bd565b926111bd565b92600094602083019460208101965b8a51805182101561069657906106908d8c8c8c61068586600198611184565b518d51915192611463565b01610666565b5050908888928c876000948594865b8951805182101561081a57816106ba91611184565b5190600097825115156000146107e1578751805182106107c5575b506106df906111ae565b975b6020830180518c51809110908115916107b6575b506107a557838c9261ffff6107248161071881604060019b015195168095611564565b04926080850151611564565b04928251151560001461077e57606061076f93610776959361075f610758610769955192610752848c611184565b51611577565b9189611184565b5201518095611184565b51611447565b918c611184565b525b016106a5565b606061076f9361079f959361075f610758610752955192610769848c611184565b52610778565b63121e18c360e01b60005260046000fd5b9050606085015110158f6106f5565b8199506107d86106df9261ffff92611184565b511698906106d5565b97988c51805182106107fe575b506107f8906111ae565b986106e1565b819a506108116107f89261ffff92611184565b511699906107ee565b506000905088868c8388815b885180518810156108d95761083c888a92611184565b5160208101516000136108a4579161087d61088292600194604089018481515181109160009260001461088b57610874925051611184565b51905b8b611590565b6111ae565b965b0195610826565b50506040519061089c602083610fed565b815290610877565b6108d391509361087d846001949a9660408a018481515181109160009260001461088b57610874925051611184565b92610884565b8a876040519182916020830190602084525180915260408301919060005b818110610905575050500390f35b82518452859450602093840193909201916001016108f7565b60c09b9e9b8583031261098557602060c09160405161093c81610fd2565b87358152828801358382015261095460408901611027565b6040820152606088013560608201526080880135608082015260a088013560a08201528152019401939d9a9d610630565b8280fd5b5080fd5b8360a09103126109ed576040516109a381610fb7565b833580151581036109e957918160a0936020935282860135838201526040860135604082015260608601356060820152608086013560808201528152019201918e6105c3565b8680fd5b8480fd5b8360809103126109ed576020608091604051610a0c81610f9c565b85358152828601358382015260408601356040820152606086013560608201528152019201918e61055e565b8780fd5b81358152602091820191016104c7565b63530247fb60e11b60005260046000fd5b346100a05760203660031901126100a057610a796004356110db565b005b346100a05760203660031901126100a0576004356000526002602052602060ff604060002054166040519015158152f35b346100a05760203660031901126100a05760043560005260006020526020604060002054604051908152f35b346100a05760203660031901126100a057600435620186a0431180610b53575b80610b18575b610b0457005b600052600060205260006040812055600080f35b508060005260006020526040600020546201869f19430190438211610b3d5710610afe565b634e487b7160e01b600052601160045260246000fd5b508060005260006020526040600020541515610af8565b346100a05760006020366003190112610f68576004356001600160401b03811161098957606060031982360301126109895760405191610ba983610f6b565b60048201356001600160401b03811161098957820136602382011215610989576004810135610bd781611010565b91610be56040519384610fed565b818352602060048185019360071b83010101903682116109ed57602401915b818310610f2257505050835260248201356001600160401b0381116109895782019136602384011215610989576004830135610c3f81611010565b93610c4d6040519586610fed565b8185526020600460a0828801940283010101903682116109ed57602401915b818310610ec757505050602084019283526044810135906001600160401b03821161098557013660238201121561098957600481013590610cac82611010565b92610cba6040519485610fed565b8284526020600460c08287019502840101019136831161098957602401925b828410610e665750505050604083019081526040519160208084015260a08301935193606060408501528451809152602060c0850195019060005b818110610e2e575050505192603f198382030160608401526020808551928381520194019060005b818110610dea575050505191603f198282030160808301526020808451928381520193019060005b818110610d9a57610d9684610d82818803601f198101835282610fed565b604051918291602083526020830190611059565b0390f35b909193602060c060019260a0885180518352848101518584015261ffff60408201511660408401526060810151606084015260808101516080840152015160a08201520195019101919091610d64565b909194602060a06001926080895180511515835284810151858401526040810151604084015260608101516060840152015160808201520196019101919091610d3c565b9091956020608060019260608a5180518352848101518584015260408101516040840152015160608201520197019101919091610d14565b60c08436031261098957602060c091604051610e8181610fd2565b863581528287013583820152610e9960408801611027565b6040820152606087013560608201526080870135608082015260a087013560a0820152815201930192610cd9565b60a0833603126109ed57604051610edd81610fb7565b833580151581036109e957918160a093602093528286013583820152604086013560408201526060860135606082015260808601356080820152815201920191610c6c565b6080833603126109ed576020608091604051610f3d81610f9c565b8535815282860135838201526040860135604082015260608601356060820152815201920191610c04565b80fd5b606081019081106001600160401b03821117610f8657604052565b634e487b7160e01b600052604160045260246000fd5b608081019081106001600160401b03821117610f8657604052565b60a081019081106001600160401b03821117610f8657604052565b60c081019081106001600160401b03821117610f8657604052565b601f909101601f19168101906001600160401b03821190821017610f8657604052565b6001600160401b038111610f865760051b60200190565b359061ffff821682036100a057565b60005b8381106110495750506000910152565b8181015183820152602001611039565b9060209161107281518092818552858086019101611036565b601f01601f1916010190565b9181601f840112156100a0578235916001600160401b0383116100a0576020808501948460051b0101116100a057565b9181601f840112156100a0578235916001600160401b0383116100a057602083818601950101116100a057565b60405160208101918252602081526110f4604082610fed565b51902080600052600260205260ff60406000205416611147578060005260026020526040600020600160ff1982541617905580600052600060205243604060002055600052600160205242604060002055565b50565b6040519061115782610f6b565b60606040838281528260208201520152565b6001600160401b038111610f8657601f01601f191660200190565b80518210156111985760209160051b010190565b634e487b7160e01b600052603260045260246000fd5b6000198114610b3d5760010190565b6111c561114a565b50811561143d57816044600092604051948593849263ddbc7ef360e01b845260206004850152816024850152848401378181018301859052601f01601f19168101030181305afa60009181611226575b50611223575061122361167d565b90565b90913d8082843e6112378184610fed565b820191602081840312610989578051906001600160401b038211610985570191606083820312610989576040519261126e84610f6b565b80516001600160401b03811161140e57810182601f8201121561140e57805161129681611010565b916112a46040519384610fed565b81835260208084019260051b820101908582116109e957602001915b81831061142257505050845260208101516001600160401b03811161140e57810182601f8201121561140e578051906112f882611010565b916113066040519384610fed565b80835260208084019160051b830101918583116109e957602001905b8282106114125750505060208501526040810151906001600160401b03821161140e570181601f820112156109855780519161135d83611010565b9361136b6040519586610fed565b83855260208086019460051b840101928284116109895760208101945b8486106113a15750505050505060408201529038611215565b85516001600160401b03811161140e57820184603f8201121561140e5760208101516113cc81611169565b916113da6040519384610fed565b818352604081830101871061140a57916113ff60209492859460408685019101611036565b815201950194611388565b8580fd5b8380fd5b8151815260209182019101611322565b825161ffff81168103610a38578152602092830192016112c0565b505061122361167d565b91909160008382019384129112908015821691151617610b3d57565b949391929093606085019081516000526001602052604060002054946000958015159081611555575b5061154c575b85156114d3575b5050505050156114cf578051825111156107a557806114c660206114cc9301519151916107698386611184565b92611184565b52565b5050565b604087019485511015908161153a575b50611531575b84159384611525575b505082611513575b505061150b575b3880808080611499565b506001611501565b61151e9250516116e0565b38806114fa565b511015925038806114f2565b600194506114e9565b611546915083516116e0565b386114e3565b60019550611492565b9050604088015110153861148c565b81810292918115918404141715610b3d57565b81810392916000138015828513169184121617610b3d57565b9290918251845111156107a55761ffff916115ab9184611731565b168015801561166b575b61166657602082018051600080821261163457505061ffff6115ed816115de8451955b86611564565b04938260408701511690611564565b048083111561162d578203918211610b3d575160001361161a576114c66114cc9251916107698386611184565b6114c66114cc9251916107528386611184565b5050505050565b600160ff1b82146116525761ffff6115de81936115ed9303956115d8565b634e487b7160e01b81526011600452602490fd5b505050565b5061ffff6040830151168111156115b5565b61168561114a565b60206040516116948282610fed565b60008152600036813782526040516116ac8282610fed565b600081526000368137818301526001604051916116c98184610fed565b60008352506116db575b604082015290565b6116d3565b60005b825181101561172957816116f78285611184565b516040516020810191825260208152611711604082610fed565b51902014611721576001016116e3565b505050600190565b505050600090565b9091825190811561180e57606083015110611729576020146117ea5781516082810361172957156111985761ff0080602084015160f01c161682516001101561119857602183015160f81c1791821580156117df575b611729578260a06117d1936082608094604051956117a58188610fed565b368737602281015186526042810151602087015260628101516040870152015160608501520151611817565b156117d95790565b50600090565b5061ffff8314611787565b9060206080910151910151906000526020600020036118095761ffff90565b600090565b50505050600090565b92919061ffff169161ffff831461190857608091604051916118398484610fed565b8336843760005b60ff811660048110156118c1576118578185611911565b51906000600f8960fc8660030360021b161c1692600f84116118b2579281905b8060ff84161061189c575050509160019161189460ff9488611911565b520116611840565b9381526020812093600190920160ff1691611877565b632dc0277f60e21b8252600482fd5b505094935050805191602082015191606060408201519101519060405193602085019586526040850152606084015281830152815261190160a082610fed565b5190201490565b92505050600090565b9060048110156111985760051b019056fea26469706673582212204969341b74ee3394391b92a78283855845d2f169737d5d0d7ec5fd540c003c7764736f6c63430008240033",
  "linkReferences": {},
  "deployedLinkReferences": {},
  "immutableReferences": {}
}