{
  "_format": "hh-sol-artifact-1",
  "contractName": "DeltaTransformer",
  "sourceName": "contracts/DeltaTransformer.sol",
  "abi": [
    {
      "inputs": [],
      "stateMutability": "nonpayable",
      "type": "constructor"
    },
    {
      "inputs": [],
      "name": "InvalidDeltaIndex",
      "type": "error"
    },
    {
      "inputs": [
        {
          "internalType": "int256[]",
          "name": "deltas",
          "type": "int256[]"
        },
        {
          "internalType": "bytes",
          "name": "encodedBatch",
          "type": "bytes"
        },
        {
          "internalType": "bytes",
          "name": "leftArguments",
          "type": "bytes"
        },
        {
          "internalType": "bytes",
          "name": "rightArguments",
          "type": "bytes"
        }
      ],
      "name": "applyBatch",
      "outputs": [
        {
          "internalType": "int256[]",
          "name": "",
          "type": "int256[]"
        }
      ],
      "stateMutability": "view",
      "type": "function"
    },
    {
      "inputs": [
        {
          "internalType": "bytes32",
          "name": "hash",
          "type": "bytes32"
        }
      ],
      "name": "cleanSecret",
      "outputs": [],
      "stateMutability": "nonpayable",
      "type": "function"
    },
    {
      "inputs": [
        {
          "components": [
            {
              "components": [
                {
                  "internalType": "uint256",
                  "name": "deltaIndex",
                  "type": "uint256"
                },
                {
                  "internalType": "int256",
                  "name": "amount",
                  "type": "int256"
                },
                {
                  "internalType": "uint256",
                  "name": "revealedUntilBlock",
                  "type": "uint256"
                },
                {
                  "internalType": "bytes32",
                  "name": "hash",
                  "type": "bytes32"
                }
              ],
              "internalType": "struct DeltaTransformer.Payment[]",
              "name": "payment",
              "type": "tuple[]"
            },
            {
              "components": [
                {
                  "internalType": "bool",
                  "name": "ownerIsLeft",
                  "type": "bool"
                },
                {
                  "internalType": "uint256",
                  "name": "addDeltaIndex",
                  "type": "uint256"
                },
                {
                  "internalType": "uint256",
                  "name": "addAmount",
                  "type": "uint256"
                },
                {
                  "internalType": "uint256",
                  "name": "subDeltaIndex",
                  "type": "uint256"
                },
                {
                  "internalType": "uint256",
                  "name": "subAmount",
                  "type": "uint256"
                }
              ],
              "internalType": "struct DeltaTransformer.Swap[]",
              "name": "swap",
              "type": "tuple[]"
            }
          ],
          "internalType": "struct DeltaTransformer.Batch",
          "name": "b",
          "type": "tuple"
        }
      ],
      "name": "encodeBatch",
      "outputs": [
        {
          "internalType": "bytes",
          "name": "",
          "type": "bytes"
        }
      ],
      "stateMutability": "pure",
      "type": "function"
    },
    {
      "inputs": [
        {
          "internalType": "bytes32",
          "name": "",
          "type": "bytes32"
        }
      ],
      "name": "hashToBlock",
      "outputs": [
        {
          "internalType": "uint256",
          "name": "",
          "type": "uint256"
        }
      ],
      "stateMutability": "view",
      "type": "function"
    },
    {
      "inputs": [
        {
          "internalType": "bytes32",
          "name": "secret",
          "type": "bytes32"
        }
      ],
      "name": "revealSecret",
      "outputs": [],
      "stateMutability": "nonpayable",
      "type": "function"
    }
  ],
  "bytecode": "0x60803461005d576000602082810182815290835260408301926001600160401b038411818510176100495783604052519020815280602052604043912055610cbb90816100638239f35b634e487b7160e01b83526041600452602483fd5b600080fdfe6080604052600436101561001257600080fd5b60003560e01c806318c323f21461041257806337d6d0731461039d57806351672fac14610371578063603075451461032f5763fd287b5d1461005357600080fd5b346102e557602060031981813601126102e557600435906001600160401b03908183116102e55760409083360301126102e557604051916100938361092b565b80600401358281116102e5578101366023820112156102e55760048101356100ba816109d0565b916100c860405193846109ad565b81835260248784019260071b820101903682116102e557602401915b8183106102ea57505050835260248101359182116102e5570190366023830112156102e557600482013590610118826109d0565b9261012660405194856109ad565b828452848401602460a0809502830101913683116102e557602401905b82821061028c575050509083820192835260405192839285808501526080916080850191519160408087015282518091528760a0870193019060005b8982821061025757505050505192606090603f198684030160608701528780865194858152019501936000925b898585106102175788808903916101cb601f19938481018452836109ad565b604051928184928352835190818185015260005b8281106102005750506040935080600085601f938601015201168101030190f35b8086018201518782016040015286945081016101df565b865180511515895281810151828a0152604080820151908a015282810151838a0152830151838901528998509683019690950194600193909301926101ac565b83518051875281810151828801526040808201519088015260609081015190870152899850948601949092019160010161017f565b84823603126102e557604051906102a282610977565b82359081151582036102e5578289928894528285013583820152604085013560408201526060808601359082015260808086013590820152815201910190610143565b600080fd5b6080833603126102e557876080916040516103048161095c565b85358152828601358382015260408601356040820152606080870135908201528152019201916100e4565b346102e55760203660031901126102e557604051602081019060043582526020815261035a8161092b565b519020600052600060205243604060002055600080f35b346102e55760203660031901126102e55760043560005260006020526020604060002054604051908152f35b346102e55760203660031901126102e55760043580600052600060205260406000205480151590816103e5575b506103d157005b600052600060205260006040812055600080f35b436201869f198101925082116103fc5710826103ca565b634e487b7160e01b600052601160045260246000fd5b346102e55760803660031901126102e5576004356001600160401b0381116102e557366023820112156102e557806004013561044d816109d0565b9161045b60405193846109ad565b818352602083016024819360051b830101913683116102e557602401905b82821061091b57505060243590506001600160401b0381116102e5576104a39036906004016109e7565b91906044356001600160401b0381116102e5576104c49036906004016109e7565b9290916064356001600160401b0381116102e5576104e69036906004016109e7565b93909460208388810103126102e5578235966001600160401b0388116102e557604088850182860103126102e557604051976105218961092b565b6001600160401b0385820135116102e557848201818601803501601f0112156102e55784810180350135610554816109d0565b9061056260405192836109ad565b808252602082019084880160208260071b868b0135878c01010101116102e557878401803501602001915b888501803501600783901b0160200183106108d057505050895284810160200135906001600160401b0382116102e55785010190808501601f830112156102e5578135906105da826109d0565b956105e860405197886109ad565b8287526020870193828201602060a08602830101116102e5579360208501945b602060a08602820101861061086d57505050505060208801938452508015610841579061063791810190610a14565b9390945b81156108195761064d91810190610a14565b945b60005b8751805182101561067c5790610676888861066f84600196610b01565b518d610b56565b01610652565b5050879360009260009160005b865180518210156107d4578161069e91610b01565b51906000948251151560001461079e5784518110610782575b6106c090610b2b565b945b602083019081518b5180911090811591610773575b5061076157610727610702918c61071c60609561071660408a01519461ffff97888092168097610c24565b049151916107108386610b01565b51610b3a565b92610b01565b526080860151610c24565b0492015191610736838b610b01565b51600082820392128183128116918313901516176103fc5761075a6001938b610b01565b5201610689565b60405163121e18c360e01b8152600490fd5b9050606085015110158c6106d7565b94506106c061ffff6107948787610b01565b51169590506106b7565b9496865181106107b8575b6107b290610b2b565b966106c2565b96506107b261ffff6107ca8989610b01565b51169790506107a9565b82896040519182916020830190602084525180915260408301919060005b818110610800575050500390f35b82518452859450602093840193909201916001016107f2565b505060405161082781610992565b6000815260405161083781610992565b600081529461064f565b505060409392935161085281610992565b600081529360405161086381610992565b600081529361063b565b60a08685850103126102e55760405161088581610977565b863515158735036102e55760a06020809482938a358152828b01358382015260408b013560408201526060808c01359082015260808b01356080820152815201970196925050610608565b608083878b0103126102e5576080602080926040516108ee8161095c565b8635815282870135838201526040870135604082015260608088013590820152815201930192905061058d565b8135815260209182019101610479565b604081019081106001600160401b0382111761094657604052565b634e487b7160e01b600052604160045260246000fd5b608081019081106001600160401b0382111761094657604052565b60a081019081106001600160401b0382111761094657604052565b602081019081106001600160401b0382111761094657604052565b601f909101601f19168101906001600160401b0382119082101761094657604052565b6001600160401b0381116109465760051b60200190565b9181601f840112156102e5578235916001600160401b0383116102e557602083818601950101116102e557565b91906040838203126102e5576001600160401b0383358181116102e55784019082601f830112156102e5578135602092610a4d826109d0565b91610a5b60405193846109ad565b808352848084019160051b830101918683116102e5578501905b828210610ae75750505094828101359182116102e557019180601f840112156102e5578235610aa3816109d0565b93610ab160405195866109ad565b818552838086019260051b8201019283116102e5578301905b828210610ad8575050505090565b81358152908301908301610aca565b813561ffff811681036102e5578152908501908501610a75565b8051821015610b155760209160051b010190565b634e487b7160e01b600052603260045260246000fd5b60001981146103fc5760010190565b919091600083820193841291129080158216911516176103fc57565b92919091606083019081516000526000602052604060002054926000938015159081610c15575b50610c0c575b831580610bfe575b610bc2575b50505015610bbe5780518251111561076157806107166020610bbb9301519151916107108386610b01565b52565b5050565b610bcd908351610c37565b918215610bec575b5050610be4575b388080610b90565b506001610bdc565b610bf7925051610c37565b3880610bd5565b506040850151431115610b8b565b60019350610b83565b90506040860151101538610b7d565b818102929181159184041417156103fc57565b60005b8251811015610c7d5781610c4e8285610b01565b5160405160208082019283528152610c658161092b565b51902014610c7557600101610c3a565b505050600190565b50505060009056fea2646970667358221220a94c8b61d6f8d8bf5e435d9d831c24fdeefa41a4a5a97f1b5d3d32a9a69fe81364736f6c63430008180033",
  "linkReferences": {},
  "deployedLinkReferences": {}
}