{
  "_format": "hh-sol-artifact-1",
  "contractName": "DeltaTransformer",
  "sourceName": "contracts/DeltaTransformer.sol",
  "abi": [
    {
      "inputs": [],
      "name": "AlreadyRevealed",
      "type": "error"
    },
    {
      "inputs": [],
      "name": "InvalidDeltaIndex",
      "type": "error"
    },
    {
      "inputs": [],
      "name": "InvalidNibbleIndex",
      "type": "error"
    },
    {
      "inputs": [],
      "name": "InvalidNibbleValue",
      "type": "error"
    },
    {
      "inputs": [
        {
          "internalType": "int256[]",
          "name": "deltas",
          "type": "int256[]"
        },
        {
          "internalType": "bytes",
          "name": "encodedBatch",
          "type": "bytes"
        },
        {
          "internalType": "bytes",
          "name": "leftArguments",
          "type": "bytes"
        },
        {
          "internalType": "bytes",
          "name": "rightArguments",
          "type": "bytes"
        }
      ],
      "name": "applyBatch",
      "outputs": [
        {
          "internalType": "int256[]",
          "name": "",
          "type": "int256[]"
        }
      ],
      "stateMutability": "view",
      "type": "function"
    },
    {
      "inputs": [
        {
          "internalType": "int256[]",
          "name": "deltas",
          "type": "int256[]"
        },
        {
          "internalType": "bytes",
          "name": "encodedBatch",
          "type": "bytes"
        },
        {
          "internalType": "bytes",
          "name": "leftArguments",
          "type": "bytes"
        },
        {
          "internalType": "bytes",
          "name": "rightArguments",
          "type": "bytes"
        },
        {
          "internalType": "uint256",
          "name": "leftArgumentsTimestamp",
          "type": "uint256"
        },
        {
          "internalType": "uint256",
          "name": "rightArgumentsTimestamp",
          "type": "uint256"
        }
      ],
      "name": "applyBatchWithArgumentTimestamps",
      "outputs": [
        {
          "internalType": "int256[]",
          "name": "",
          "type": "int256[]"
        }
      ],
      "stateMutability": "view",
      "type": "function"
    },
    {
      "inputs": [
        {
          "internalType": "bytes32",
          "name": "hash",
          "type": "bytes32"
        }
      ],
      "name": "cleanSecret",
      "outputs": [],
      "stateMutability": "nonpayable",
      "type": "function"
    },
    {
      "inputs": [
        {
          "internalType": "bytes",
          "name": "encoded",
          "type": "bytes"
        }
      ],
      "name": "decodeArgumentsStrict",
      "outputs": [
        {
          "components": [
            {
              "internalType": "uint16[]",
              "name": "fillRatios",
              "type": "uint16[]"
            },
            {
              "internalType": "bytes32[]",
              "name": "secrets",
              "type": "bytes32[]"
            },
            {
              "internalType": "bytes[]",
              "name": "pulls",
              "type": "bytes[]"
            }
          ],
          "internalType": "struct DeltaTransformer.Arguments",
          "name": "",
          "type": "tuple"
        }
      ],
      "stateMutability": "pure",
      "type": "function"
    },
    {
      "inputs": [
        {
          "components": [
            {
              "components": [
                {
                  "internalType": "uint256",
                  "name": "deltaIndex",
                  "type": "uint256"
                },
                {
                  "internalType": "int256",
                  "name": "amount",
                  "type": "int256"
                },
                {
                  "internalType": "uint256",
                  "name": "revealedUntilTimestamp",
                  "type": "uint256"
                },
                {
                  "internalType": "bytes32",
                  "name": "hash",
                  "type": "bytes32"
                }
              ],
              "internalType": "struct DeltaTransformer.Payment[]",
              "name": "payment",
              "type": "tuple[]"
            },
            {
              "components": [
                {
                  "internalType": "bool",
                  "name": "ownerIsLeft",
                  "type": "bool"
                },
                {
                  "internalType": "uint256",
                  "name": "addDeltaIndex",
                  "type": "uint256"
                },
                {
                  "internalType": "uint256",
                  "name": "addAmount",
                  "type": "uint256"
                },
                {
                  "internalType": "uint256",
                  "name": "subDeltaIndex",
                  "type": "uint256"
                },
                {
                  "internalType": "uint256",
                  "name": "subAmount",
                  "type": "uint256"
                }
              ],
              "internalType": "struct DeltaTransformer.Swap[]",
              "name": "swap",
              "type": "tuple[]"
            },
            {
              "components": [
                {
                  "internalType": "uint256",
                  "name": "deltaIndex",
                  "type": "uint256"
                },
                {
                  "internalType": "int256",
                  "name": "amount",
                  "type": "int256"
                },
                {
                  "internalType": "uint16",
                  "name": "claimedRatio",
                  "type": "uint16"
                },
                {
                  "internalType": "uint256",
                  "name": "revealedUntilTimestamp",
                  "type": "uint256"
                },
                {
                  "internalType": "bytes32",
                  "name": "fullHash",
                  "type": "bytes32"
                },
                {
                  "internalType": "bytes32",
                  "name": "partialRoot",
                  "type": "bytes32"
                }
              ],
              "internalType": "struct DeltaTransformer.Pull[]",
              "name": "pull",
              "type": "tuple[]"
            }
          ],
          "internalType": "struct DeltaTransformer.Batch",
          "name": "b",
          "type": "tuple"
        }
      ],
      "name": "encodeBatch",
      "outputs": [
        {
          "internalType": "bytes",
          "name": "",
          "type": "bytes"
        }
      ],
      "stateMutability": "pure",
      "type": "function"
    },
    {
      "inputs": [
        {
          "internalType": "bytes32",
          "name": "",
          "type": "bytes32"
        }
      ],
      "name": "hashRevealed",
      "outputs": [
        {
          "internalType": "bool",
          "name": "",
          "type": "bool"
        }
      ],
      "stateMutability": "view",
      "type": "function"
    },
    {
      "inputs": [
        {
          "internalType": "bytes32",
          "name": "",
          "type": "bytes32"
        }
      ],
      "name": "hashToBlock",
      "outputs": [
        {
          "internalType": "uint256",
          "name": "",
          "type": "uint256"
        }
      ],
      "stateMutability": "view",
      "type": "function"
    },
    {
      "inputs": [
        {
          "internalType": "bytes32",
          "name": "",
          "type": "bytes32"
        }
      ],
      "name": "hashToTimestamp",
      "outputs": [
        {
          "internalType": "uint256",
          "name": "",
          "type": "uint256"
        }
      ],
      "stateMutability": "view",
      "type": "function"
    },
    {
      "inputs": [
        {
          "internalType": "bytes32",
          "name": "secret",
          "type": "bytes32"
        }
      ],
      "name": "revealSecret",
      "outputs": [],
      "stateMutability": "nonpayable",
      "type": "function"
    },
    {
      "inputs": [],
      "name": "supportsArgumentTimestamps",
      "outputs": [
        {
          "internalType": "bool",
          "name": "",
          "type": "bool"
        }
      ],
      "stateMutability": "pure",
      "type": "function"
    }
  ],
  "bytecode": "0x6080806040523461001657611930908161001c8239f35b600080fdfe6080604081815260048036101561001557600080fd5b600092833560e01c908163180f9af3146106625750806318c323f2146105cc57806337d6d0731461055c57806349fbda291461054057806351672fac1461051a57806355d426c0146104ee57806360307545146104775780639c317cdc146103ce578063ddbc7ef3146100bb5763fac5db201461009157600080fd5b346100b75760203660031901126100b75760209282913581526001845220549051908152f35b8280fd5b5082346103cb57602092836003193601126103c7576001600160401b039280358481116103bf576100ee91369101610bc4565b6100f9959195610c2d565b5085019481818703126103bf578035908582116103c35701936060858703126103bf5782519561012887610a16565b853582811161038f57860181601f8201121561038f5780359061014a82610af1565b9161015787519384610ace565b808352858084019160051b8301019184831161038b5786809101915b8383106103a7575050505087528286013582811161038f5786019581601f8801121561038f578635966101a588610af1565b976101b28751998a610ace565b80895285808a019160051b8301019184831161038b5786809101915b83831061039757508a019889525050808501359083821161039357019080601f8301121561038f5781359061020282610af1565b9361020f87519586610ace565b828552858086019360051b8501019382851161038b5786819998979901935b85851061031f575050505050508186019081528151948486526080860196519660608688015287518091528560a08801980190855b818110610307575050505195601f1992838783030190870152848088519283815201970190845b8181106102f3575050505192818587030160608601528351918287528187019082808560051b8a0101960194975b8489106102c55787870388f35b90919293949584806102e1838686600196030188528a51610b3f565b980194019801979190949392946102b8565b82518952978601979186019160010161028a565b825161ffff168a529887019891870191600101610263565b84999798993583811161038757820184603f82011215610387578881013561034681610c4c565b916103538c519384610ace565b818352868c838301011161038357918c8b838196948f83970183860137830101528152019401939897969861022e565b8c80fd5b8a80fd5b8880fd5b8580fd5b8680fd5b82358152918101918791016101ce565b81906103b284610b08565b8152019101908690610173565b8380fd5b8480fd5b5080fd5b80fd5b5091346103cb5760c03660031901126103cb576001600160401b039083358281116103c7576104009036908601610b64565b916024358181116100b7576104189036908701610bc4565b9190956044358281116103c3576104329036908301610bc4565b9290946064359182116103cb575091610458610468969492610473999694369101610bc4565b93909260a4359660843596610cb6565b905191829182610bf1565b0390f35b50346100b757602090816003193601126103bf57825182810190823582528381526104a181610a98565b519020908185526002835260ff84862054166104e05750906001918452600281528284208260ff19825416179055838152438385205552429082205580f35b835163a89ac15160e01b8152fd5b50346100b75760203660031901126100b7578160209360ff923581526002855220541690519015158152f35b50346100b75760203660031901126100b757602092829135815280845220549051908152f35b5050346103c757816003193601126103c7576020905160018152f35b509190346103c75760203660031901126103c75782358083528260205281832054801515908161059f575b50839450610593575050f35b82528160205281205580f35b436201869f198101925082116105b9578495501038610587565b634e487b7160e01b855260118652602485fd5b5091346103cb5760803660031901126103cb576001600160401b039083358281116103c7576105fe9036908601610b64565b916024358181116100b7576106169036908701610bc4565b9190956044358281116103c3576106309036908301610bc4565b9290946064359182116103cb575091610656610468969492610473999694369101610bc4565b93909242964296610cb6565b91929050346103bf576020916003199483863601126103cb576001600160401b039480358681116100b7576060809882360301126100b7576106a384610a16565b808201358781116103bf57810193366023860112156103bf57828501356024956106cc82610af1565b916106d989519384610ace565b808352878a84019160071b83010191368311610979578801905b8282106109d3575050508152848201358881116103c3578201973660238a0112156103c357838901359261072684610af1565b9961073389519b8c610ace565b848b52898b018860a08097028301019136831161038b578901905b82821061097d57505050888301998a52604481013591821161038f570192366023850112156103c3578301359261078484610af1565b9561079188519788610ace565b848752888701908060c080970284010192368411610979579b9594939b97969701905b8282106109105750505085890193845285519787808a015281890199519984888b01528a518091528860c08b019b0190875b8181106108e1575050505193603f19998a8a820301858b0152888087519283815201960190875b8181106108a75750505051986080908986030160808a015287808b5196878152019a0195935b8585106108635750888861047389610854848f03601f198101865285610ace565b51928284938452830190610b3f565b865180518c52808a01518a8d01528881015161ffff16898d0152808201518c830152808301518c8401528301518b8401529983019995880195600190940193610833565b8251805115158952808c01518c8a0152808b01518b8a015280880151888a01526080908101519089015296840196918a019160010161080d565b825180518e52808c01518c8f0152808b01518b8f01528701518d8801526080909c019b918a01916001016107e6565b84829c9495969c989798360312610393578986918d8b519061093182610a7d565b8535825283860135848301526109488d8701610b08565b8d83015280860135908201526080808601359082015287850135888201528152019101909a9493929a9695966107b4565b8780fd5b868236031261038b578a5161099181610a62565b8235801515810361038757918f918e928e8b9583528487013585840152808701359083015280860135908201526080808601359082015281520191019061074e565b608082360312610979578a6080918e8c51906109ee82610a47565b8535825283860135848301528d808701359083015280860135908201528152019101906106f3565b606081019081106001600160401b03821117610a3157604052565b634e487b7160e01b600052604160045260246000fd5b608081019081106001600160401b03821117610a3157604052565b60a081019081106001600160401b03821117610a3157604052565b60c081019081106001600160401b03821117610a3157604052565b604081019081106001600160401b03821117610a3157604052565b602081019081106001600160401b03821117610a3157604052565b601f909101601f19168101906001600160401b03821190821017610a3157604052565b6001600160401b038111610a315760051b60200190565b359061ffff82168203610b1757565b600080fd5b60005b838110610b2f5750506000910152565b8181015183820152602001610b1f565b90602091610b5881518092818552858086019101610b1c565b601f01601f1916010190565b9080601f83011215610b17576020908235610b7e81610af1565b93610b8c6040519586610ace565b81855260208086019260051b820101928311610b1757602001905b828210610bb5575050505090565b81358152908301908301610ba7565b9181601f84011215610b17578235916001600160401b038311610b175760208381860195010111610b1757565b602090602060408183019282815285518094520193019160005b828110610c19575050505090565b835185529381019392810192600101610c0b565b60405190610c3a82610a16565b60606040838281528260208201520152565b6001600160401b038111610a3157601f01601f191660200190565b8051821015610c7b5760209160051b010190565b634e487b7160e01b600052603260045260246000fd5b6000198114610ca05760010190565b634e487b7160e01b600052601160045260246000fd5b959290989798949391946020818781010312610b17576001600160401b03958135878111610b17578201966060888385010312610b175760405197610cfa89610a16565b8035828111610b17578101838501601f82011215610b1757803590610d1e82610af1565b91610d2c6040519384610ace565b808352602083019186880160208360071b83010111610b17579160208301925b60208360071b820101841061118a575050505089526020810135828111610b17578101838501601f82011215610b1757803590610d8882610af1565b91610d966040519384610ace565b8083526020830191868801602060a0840283010111610b17579160208301925b602060a084028201018410611126575050505060208a01526040810135918211610b17570190808301601f83011215610b1757813590610df582610af1565b93610e036040519586610ace565b8285526020850193828201602060c0860283010111610b1757936020859e9b9e01945b602060c0860282010186106110b85750505050505091610e4f91610e55949360408b01526111d5565b926111d5565b600092602083019260208301945b88518051821015610e925790610e8c8b8a610e8084600196610c67565b5189518b51918d61145a565b01610e63565b50509495969350969091506000968793885b60208201518051821015610fe45781610ebc91610c67565b519060009682511515600014610fab57865180518210610f8f575b50610ee190610c91565b965b60208301518a5180911090811591610f80575b50610f6e57610f67610f4484610f616060610f2e8f96610f569088610f4b610f44604060019e01519361ffff9687809216809661155b565b04610f3e60208b01518095610c67565b5161143e565b918b610c67565b52608086015161155b565b049201518095610c67565b5161156e565b5201610ea4565b60405163121e18c360e01b8152600490fd5b90506060840151101538610ef6565b819850610fa2610ee19261ffff92610c67565b51169790610ed7565b969a885180518210610fc8575b50610fc290610c91565b9a610ee3565b819c50610fdb610fc29261ffff92610c67565b51169b90610fb8565b5050969593509650926000938490855b604089015180518810156110ab5761100d888a92610c67565b5160208101516000136110755760409261104f60019361105493868a018481515181109160009260001461105f57611046925051610c67565b51905b8c611587565b610c91565b975b01969050610ff4565b505087519061106d82610ab3565b815290611049565b60019150604092989461104f856110a593868b018481515181109160009260001461105f57611046925051610c67565b93611056565b5050505050509250505090565b60c09b9e9b868585010312610b175760c080602080946040516110da81610a7d565b8a358152828b0135838201526110f260408c01610b08565b604082015260608b013560608201526080808c01359082015260a08b013560a08201528152019701969250509d9a9d610e26565b60a084898b010312610b17576040519161113f83610a62565b8435928315158403610b1757602060a092828296859452828901358382015260408901356040820152606089013560608201526080808a013590820152815201950194925050610db6565b608084898b010312610b17576080602080936040516111a881610a47565b87358152828801358382015260408801356040820152606088013560608201528152019401939150610d4c565b6111dd610c2d565b508115611434576040918251809163ddbc7ef360e01b8252806020948560048501528160248501526044840137816044600094838683819684010152601f80199101168101030181305afa938493839561124a575b50505050156000146112475750611247611672565b90565b9091929394503d8085853e61125f8185610ace565b830181848203126103c35783516001600160401b03948582116103935701946060868303126103cb5783519561129487610a16565b80518681116100b757810183601f820112156100b7578051906112b682610af1565b916112c388519384610ace565b808352868084019160051b8301019186831161038f578701905b82821061141a575050508752838101518681116100b757810183601f820112156100b75780519061130d82610af1565b9161131a88519384610ace565b808352868084019160051b8301019186831161038f5787809101915b83831061140a575091505088015284810151908682116100b757019180601f840112156103c75782519161136983610af1565b9661137687519889610ace565b838852858089019460051b860101948386116100b757868101945b8686106113ad5750505050505050508201529038808080611232565b85518381116103c357820185603f820112156103c357888101516113d081610c4c565b916113dd8c519384610ace565b818352878c838301011161039357916113ff8b949285948e8685019101610b1c565b815201950194611391565b8251815291810191889101611336565b815161ffff811681036103935781529087019087016112dd565b5050611247611672565b91909160008382019384129112908015821691151617610ca057565b94939192909360608501908151600052600160205260406000205494600095801515908161154c575b50611543575b85156114ca575b5050505050156114c657805182511115610f6e57806114bd60206114c3930151915191610f3e8386610c67565b92610c67565b52565b5050565b6040870194855110159081611531575b50611528575b8415938461151c575b50508261150a575b5050611502575b3880808080611490565b5060016114f8565b6115159250516116b9565b38806114f1565b511015925038806114e9565b600194506114e0565b61153d915083516116b9565b386114da565b60019550611489565b90506040880151101538611483565b81810292918115918404141715610ca057565b81810392916000138015828513169184121617610ca057565b929091825184511115610f6e576115a361ffff92839285611707565b169081158015611662575b61165c57602083018051909190600080821261162d5750506115e6816115d78451955b8661155b565b0493826040870151169061155b565b0480831115611626578203918211610ca05751600013611613576114bd6114c3925191610f3e8386610c67565b6114bd6114c3925191610f618386610c67565b5050505050565b600160ff1b8214611648576115d76115e692849203956115d1565b634e487b7160e01b81526011600452602490fd5b50505050565b50806040840151168211156115ae565b61167a610c2d565b60405161168681610ab3565b60008152815260405161169881610ab3565b6000815260208201526040516116ad81610ab3565b60008152604082015290565b60005b82518110156116ff57816116d08285610c67565b51604051602080820192835281526116e781610a98565b519020146116f7576001016116bc565b505050600190565b505050600090565b909182519081156117e0576060830151106116ff576020146117bc578151608281036116ff5715610c7b5761ff00602083015160f01c16825160011015610c7b57602183015160f81c1791821580156117b1575b6116ff578260a06117a39360826040519461177586610a47565b60803687376022810151865260428101516020870152606281015160408701520151606085015201516117e9565b156117ab5790565b50600090565b5061ffff831461175b565b9060206080910151910151906000526020600020036117db5761ffff90565b600090565b50505050600090565b92909161ffff8093169283146118e0576040906040519161180983610a47565b608036843760005b60ff8082166004808210156118945761182a82876118e9565b51600f91828b60fc8860030360021b161c16928311611886575092600091905b818184161061186e575050509160019161186660ff94886118e9565b520116611811565b9091936000528060016020600020950116919061184a565b8651632dc0277f60e21b8152fd5b5050505050509092915080519060208101519060606040820151910151906040519260208401948552604084015260608301526080820152608081526118d981610a62565b5190201490565b50915050600090565b906004811015610c7b5760051b019056fea26469706673582212208ddfdea2ac77de3f7551954fe250a4851133d006ab26c37070cda03d35914d0564736f6c63430008180033",
  "linkReferences": {},
  "deployedLinkReferences": {}
}