{
  "_format": "hh-sol-artifact-1",
  "contractName": "DeltaTransformer",
  "sourceName": "contracts/DeltaTransformer.sol",
  "abi": [
    {
      "inputs": [],
      "stateMutability": "nonpayable",
      "type": "constructor"
    },
    {
      "anonymous": false,
      "inputs": [
        {
          "indexed": false,
          "internalType": "string",
          "name": "",
          "type": "string"
        },
        {
          "indexed": false,
          "internalType": "address",
          "name": "",
          "type": "address"
        }
      ],
      "name": "LogAddress",
      "type": "event"
    },
    {
      "anonymous": false,
      "inputs": [
        {
          "indexed": false,
          "internalType": "string",
          "name": "",
          "type": "string"
        },
        {
          "indexed": false,
          "internalType": "bool",
          "name": "",
          "type": "bool"
        }
      ],
      "name": "LogBool",
      "type": "event"
    },
    {
      "anonymous": false,
      "inputs": [
        {
          "indexed": false,
          "internalType": "string",
          "name": "",
          "type": "string"
        },
        {
          "indexed": false,
          "internalType": "bytes",
          "name": "",
          "type": "bytes"
        }
      ],
      "name": "LogBytes",
      "type": "event"
    },
    {
      "anonymous": false,
      "inputs": [
        {
          "indexed": false,
          "internalType": "string",
          "name": "",
          "type": "string"
        },
        {
          "indexed": false,
          "internalType": "bytes32",
          "name": "",
          "type": "bytes32"
        }
      ],
      "name": "LogBytes32",
      "type": "event"
    },
    {
      "anonymous": false,
      "inputs": [
        {
          "indexed": false,
          "internalType": "string",
          "name": "",
          "type": "string"
        },
        {
          "indexed": false,
          "internalType": "int256",
          "name": "",
          "type": "int256"
        }
      ],
      "name": "LogInt",
      "type": "event"
    },
    {
      "anonymous": false,
      "inputs": [
        {
          "indexed": false,
          "internalType": "string",
          "name": "",
          "type": "string"
        },
        {
          "indexed": false,
          "internalType": "string",
          "name": "",
          "type": "string"
        }
      ],
      "name": "LogString",
      "type": "event"
    },
    {
      "anonymous": false,
      "inputs": [
        {
          "indexed": false,
          "internalType": "string",
          "name": "",
          "type": "string"
        },
        {
          "indexed": false,
          "internalType": "uint256",
          "name": "",
          "type": "uint256"
        }
      ],
      "name": "LogUint",
      "type": "event"
    },
    {
      "inputs": [
        {
          "internalType": "int256[]",
          "name": "deltas",
          "type": "int256[]"
        },
        {
          "internalType": "bytes",
          "name": "encodedBatch",
          "type": "bytes"
        },
        {
          "internalType": "bytes",
          "name": "leftArguments",
          "type": "bytes"
        },
        {
          "internalType": "bytes",
          "name": "rightArguments",
          "type": "bytes"
        }
      ],
      "name": "applyBatch",
      "outputs": [
        {
          "internalType": "int256[]",
          "name": "",
          "type": "int256[]"
        }
      ],
      "stateMutability": "nonpayable",
      "type": "function"
    },
    {
      "inputs": [
        {
          "internalType": "bytes32",
          "name": "hash",
          "type": "bytes32"
        }
      ],
      "name": "cleanSecret",
      "outputs": [],
      "stateMutability": "nonpayable",
      "type": "function"
    },
    {
      "inputs": [
        {
          "components": [
            {
              "components": [
                {
                  "internalType": "uint256",
                  "name": "deltaIndex",
                  "type": "uint256"
                },
                {
                  "internalType": "int256",
                  "name": "amount",
                  "type": "int256"
                },
                {
                  "internalType": "uint256",
                  "name": "revealedUntilBlock",
                  "type": "uint256"
                },
                {
                  "internalType": "bytes32",
                  "name": "hash",
                  "type": "bytes32"
                }
              ],
              "internalType": "struct DeltaTransformer.Payment[]",
              "name": "payment",
              "type": "tuple[]"
            },
            {
              "components": [
                {
                  "internalType": "bool",
                  "name": "ownerIsLeft",
                  "type": "bool"
                },
                {
                  "internalType": "uint256",
                  "name": "addDeltaIndex",
                  "type": "uint256"
                },
                {
                  "internalType": "uint256",
                  "name": "addAmount",
                  "type": "uint256"
                },
                {
                  "internalType": "uint256",
                  "name": "subDeltaIndex",
                  "type": "uint256"
                },
                {
                  "internalType": "uint256",
                  "name": "subAmount",
                  "type": "uint256"
                }
              ],
              "internalType": "struct DeltaTransformer.Swap[]",
              "name": "swap",
              "type": "tuple[]"
            }
          ],
          "internalType": "struct DeltaTransformer.Batch",
          "name": "b",
          "type": "tuple"
        }
      ],
      "name": "encodeBatch",
      "outputs": [
        {
          "internalType": "bytes",
          "name": "",
          "type": "bytes"
        }
      ],
      "stateMutability": "pure",
      "type": "function"
    },
    {
      "inputs": [
        {
          "internalType": "bytes32",
          "name": "",
          "type": "bytes32"
        }
      ],
      "name": "hashToBlock",
      "outputs": [
        {
          "internalType": "uint256",
          "name": "",
          "type": "uint256"
        }
      ],
      "stateMutability": "view",
      "type": "function"
    },
    {
      "inputs": [
        {
          "internalType": "string",
          "name": "_msg",
          "type": "string"
        },
        {
          "internalType": "int256[]",
          "name": "deltas",
          "type": "int256[]"
        }
      ],
      "name": "logDeltas",
      "outputs": [],
      "stateMutability": "pure",
      "type": "function"
    },
    {
      "inputs": [
        {
          "internalType": "bytes32",
          "name": "secret",
          "type": "bytes32"
        }
      ],
      "name": "revealSecret",
      "outputs": [],
      "stateMutability": "nonpayable",
      "type": "function"
    }
  ],
  "bytecode": "0x6080346101a45763ffffffff60015560406001600160401b038282018181118482101761018e578252601683526020907f52657665616c696e672048544c43207365637265743a000000000000000000008285015282518281019163104c13eb60e21b83526024958487840152828151918260448301528660005b84811061017657505050808260006064601f95608395010152831993849101168101036044810185520116820190828210908211176101615760009392868580809581958a52516a636f6e736f6c652e6c6f6794855afa5086519083808784016327b7cf8560e01b9485825282858201528481526100f7816101a9565b5190865afa50875186810190858252878152610112816101c4565b5190209088519187830193845281830152815261012e816101a9565b51915afa50825181810190838252828152610148816101c4565b51902082525243816000205551610e1a90816101e08239f35b85634e487b7160e01b60005260416004526000fd5b8281018201518782016064015286935088910161007a565b634e487b7160e01b600052604160045260246000fd5b600080fd5b606081019081106001600160401b0382111761018e57604052565b604081019081106001600160401b0382111761018e5760405256fe608060405260048036101561001357600080fd5b60003560e01c806318c323f2146104f3578063322d0ac71461044a57806337d6d073146103cf57806351672fac146103a457806360307545146103085763fd287b5d1461005f57600080fd5b346102be57602060031981813601126102be578235906001600160401b03908183116102be5760409083360301126102be576040519161009e8361098a565b808501358281116102be578101366023820112156102be57858101356100c381610a2f565b916100d16040519384610a0c565b81835260248784019260071b820101903682116102be57602401915b8183106102c357505050835260248101359182116102be570192366023850112156102be578301359061011f82610a2f565b9361012d6040519586610a0c565b828552838501602460a0809502830101913683116102be57939593602401905b82821061025f5750505082810191825260405193849184808401526080936080840191519160408086015282518091528660a0860193019060005b8882821061022a57505050505191606090603f198584030160608601528680855194858152019401956000925b888585106101ea5787906101d2828903601f198101845283610a0c565b6101e6604051928284938452830190610ad3565b0390f35b88518051151588528082015188830152604080820151908901528083015188840152830151878401529790970196899650948201946001909301926101b5565b835180518752818101518288015260408082015190880152606090810151908701528a97509488019490920191600101610188565b86829795973603126102be5760405190610278826109d6565b82359081151582036102be57828892889452828501358382015260408501356040820152606080860135908201526080808601359082015281520191019095939561014d565b600080fd5b6080833603126102be57876080916040516102dd816109bb565b85358152828601358382015260408601356040820152606080870135908201528152019201916100ed565b50346102be576020806003193601126102be576000913561035560405161032e8161098a565b60168152752932bb32b0b634b73390242a26219039b2b1b932ba1d60511b84820152610d6d565b61035e81610dbc565b61037f604051838101908382528481526103778161098a565b519020610dbc565b6040518281019182528281526103948161098a565b5190208252526040600020439055005b50346102be5760203660031901126102be573560005260006020526020604060002054604051908152f35b50346102be5760203660031901126102be5780359081600052600060205260406000205490811515918261041a575b505061040657005b600052600060205260006040812055600080f35b9091506201869f1943019143831161043557501038806103fe565b601190634e487b7160e01b6000525260246000fd5b50346102be5760403660031901126102be5780356001600160401b038082116102be57366023830112156102be57818301358181116104de576040519261049b601f8301601f191660200185610a0c565b81845236602483830101116102be578160009260246020930183870137840101526024359081116102be576104dc926104d691369101610a46565b90610bb6565b005b604184634e487b7160e01b6000525260246000fd5b50346102be5760803660031901126102be5780356001600160401b0381116102be576105229036908301610a46565b6024356001600160401b0381116102be576105409036908401610aa6565b9092906044356001600160401b0381116102be576105619036908401610aa6565b9091906064356001600160401b0381116102be576105829036908601610aa6565b93909160208885810103126102be5787356001600160401b0381116102be578801604081868b0103126102be57604051986105bc8a61098a565b81356001600160401b0381116102be578201868201601f820112156102be5780356105e681610a2f565b916105f46040519384610a0c565b81835260208084019260071b8201019089850182116102be57602001915b818310610942575050508a526020820135956001600160401b0387116102be57808201601f8885010112156102be57868301359161064f83610a2f565b9761065d604051998a610a0c565b8389526020890194838301602060a087028484010101116102be5780820160200195915b602060a08702828401010187106108de57505050505050506106ba92916106b19160208a01958652810190610b13565b93810190610b13565b60005b865180518210156106e557906106df6106d882600194610b8c565b5188610c87565b016106bd565b5050849360009160006001958691600154925b610743575b50505050505050604051906020820160208352835180915260206040840194019060005b81811061072e5784860385f35b82518652602095860195909201918301610721565b8698965180518210156108d5578161075a91610b8c565b5180511561089a576107ed846107be63ffffffff6107788b88610b8c565b515b166107a88c60405161078b8161098a565b600b81526a04265666f726520737761760ac1b6020820152610bb6565b8b6107e26107c3856107be8560408b0151610d3a565b610d4d565b6107dc6020890151916107d68386610b8c565b51610c55565b92610b8c565b526080850151610d3a565b60608201516107fc818b610b8c565b51600083820393128184128116918413901516176108855761081e908a610b8c565b5261084b8860405161082f8161098a565b600a8152690416674657220737761760b41b6020820152610bb6565b5161085c575b9597958701876106f8565b949760001989146108705797870194610851565b601185634e487b7160e01b6000525260246000fd5b601188634e487b7160e01b6000525260246000fd5b8682038281116108c057846107be63ffffffff6108ba6107ed948a610b8c565b5161077a565b601187634e487b7160e01b6000525260246000fd5b508698506106fd565b60a08786860103126102be57604051926108f7846109d6565b87359384151585036102be57602060a092828297859452828c01358382015260408c013560408201526060808d01359082015260808c01356080820152815201980197935050610681565b6080838b870103126102be57602060809160405161095f816109bb565b8535815282860135838201526040860135604082015260608087013590820152815201920191610612565b604081019081106001600160401b038211176109a557604052565b634e487b7160e01b600052604160045260246000fd5b608081019081106001600160401b038211176109a557604052565b60a081019081106001600160401b038211176109a557604052565b606081019081106001600160401b038211176109a557604052565b601f909101601f19168101906001600160401b038211908210176109a557604052565b6001600160401b0381116109a55760051b60200190565b9080601f830112156102be576020908235610a6081610a2f565b93610a6e6040519586610a0c565b81855260208086019260051b8201019283116102be57602001905b828210610a97575050505090565b81358152908301908301610a89565b9181601f840112156102be578235916001600160401b0383116102be57602083818601950101116102be57565b919082519283825260005b848110610aff575050826000602080949584010152601f8019910116010190565b602081830181015184830182015201610ade565b60209081818403126102be578035906001600160401b0382116102be57019180601f840112156102be578235610b4881610a2f565b93610b566040519586610a0c565b818552838086019260051b8201019283116102be578301905b828210610b7d575050505090565b81358152908301908301610b6f565b8051821015610ba05760209160051b010190565b634e487b7160e01b600052603260045260246000fd5b610bc290929192610d6d565b6000805b8351811015610c1a57808280610bde60019488610b8c565b516040516020810191632d5b6cb960e01b8352602490818301528152610c03816109f1565b51906a636f6e736f6c652e6c6f675afa5001610bc6565b50509050610c53604051610c2d8161098a565b60148152733d3d3d3d3d3d3d3d3d3d3d3d3d3d3d3d3d3d3d3d60601b6020820152610d6d565b565b91909160008382019384129112908015821691151617610c7157565b634e487b7160e01b600052601160045260246000fd5b606082015160005260006020526040600020548015908115610d2c575b50610d2857610c5391610cdd82604051610cbd8161098a565b600e81526d1099599bdc99481c185e5b595b9d60921b6020820152610bb6565b610cfc610cf560208301519251926107d68486610b8c565b9183610b8c565b52604051610d098161098a565b600d81526c10599d195c881c185e5b595b9d609a1b6020820152610bb6565b5050565b905060408301511038610ca4565b81810292918115918404141715610c7157565b8115610d57570490565b634e487b7160e01b600052601260045260246000fd5b60008091604051610da981610d9b602082019463104c13eb60e21b8652602060248401526044830190610ad3565b03601f198101835282610a0c565b51906a636f6e736f6c652e6c6f675afa50565b6000809160405160208101916327b7cf8560e01b8352602482015260248152610da9816109f156fea26469706673582212205f0f81225385ac9e970e8a794e2e65e5f7d8ec55e4ac408540338560fa5cea1764736f6c63430008180033",
  "linkReferences": {},
  "deployedLinkReferences": {}
}