{
  "_format": "hh-sol-artifact-1",
  "contractName": "DeltaTransformer",
  "sourceName": "contracts/DeltaTransformer.sol",
  "abi": [
    {
      "inputs": [],
      "name": "AlreadyRevealed",
      "type": "error"
    },
    {
      "inputs": [],
      "name": "InvalidDeltaIndex",
      "type": "error"
    },
    {
      "inputs": [],
      "name": "InvalidNibbleIndex",
      "type": "error"
    },
    {
      "inputs": [],
      "name": "InvalidNibbleValue",
      "type": "error"
    },
    {
      "inputs": [
        {
          "internalType": "int256[]",
          "name": "deltas",
          "type": "int256[]"
        },
        {
          "internalType": "bytes",
          "name": "encodedBatch",
          "type": "bytes"
        },
        {
          "internalType": "bytes",
          "name": "leftArguments",
          "type": "bytes"
        },
        {
          "internalType": "bytes",
          "name": "rightArguments",
          "type": "bytes"
        }
      ],
      "name": "applyBatch",
      "outputs": [
        {
          "internalType": "int256[]",
          "name": "",
          "type": "int256[]"
        }
      ],
      "stateMutability": "view",
      "type": "function"
    },
    {
      "inputs": [
        {
          "internalType": "int256[]",
          "name": "deltas",
          "type": "int256[]"
        },
        {
          "internalType": "bytes",
          "name": "encodedBatch",
          "type": "bytes"
        },
        {
          "internalType": "bytes",
          "name": "leftArguments",
          "type": "bytes"
        },
        {
          "internalType": "bytes",
          "name": "rightArguments",
          "type": "bytes"
        },
        {
          "internalType": "uint256",
          "name": "leftArgumentsTimestamp",
          "type": "uint256"
        },
        {
          "internalType": "uint256",
          "name": "rightArgumentsTimestamp",
          "type": "uint256"
        }
      ],
      "name": "applyBatchWithArgumentTimestamps",
      "outputs": [
        {
          "internalType": "int256[]",
          "name": "",
          "type": "int256[]"
        }
      ],
      "stateMutability": "view",
      "type": "function"
    },
    {
      "inputs": [
        {
          "internalType": "bytes32",
          "name": "hash",
          "type": "bytes32"
        }
      ],
      "name": "cleanSecret",
      "outputs": [],
      "stateMutability": "nonpayable",
      "type": "function"
    },
    {
      "inputs": [
        {
          "components": [
            {
              "components": [
                {
                  "internalType": "uint256",
                  "name": "deltaIndex",
                  "type": "uint256"
                },
                {
                  "internalType": "int256",
                  "name": "amount",
                  "type": "int256"
                },
                {
                  "internalType": "uint256",
                  "name": "revealedUntilBlock",
                  "type": "uint256"
                },
                {
                  "internalType": "bytes32",
                  "name": "hash",
                  "type": "bytes32"
                }
              ],
              "internalType": "struct DeltaTransformer.Payment[]",
              "name": "payment",
              "type": "tuple[]"
            },
            {
              "components": [
                {
                  "internalType": "bool",
                  "name": "ownerIsLeft",
                  "type": "bool"
                },
                {
                  "internalType": "uint256",
                  "name": "addDeltaIndex",
                  "type": "uint256"
                },
                {
                  "internalType": "uint256",
                  "name": "addAmount",
                  "type": "uint256"
                },
                {
                  "internalType": "uint256",
                  "name": "subDeltaIndex",
                  "type": "uint256"
                },
                {
                  "internalType": "uint256",
                  "name": "subAmount",
                  "type": "uint256"
                }
              ],
              "internalType": "struct DeltaTransformer.Swap[]",
              "name": "swap",
              "type": "tuple[]"
            },
            {
              "components": [
                {
                  "internalType": "uint256",
                  "name": "deltaIndex",
                  "type": "uint256"
                },
                {
                  "internalType": "int256",
                  "name": "amount",
                  "type": "int256"
                },
                {
                  "internalType": "uint16",
                  "name": "claimedRatio",
                  "type": "uint16"
                },
                {
                  "internalType": "uint256",
                  "name": "revealedUntilTimestamp",
                  "type": "uint256"
                },
                {
                  "internalType": "bytes32",
                  "name": "fullHash",
                  "type": "bytes32"
                },
                {
                  "internalType": "bytes32",
                  "name": "partialRoot",
                  "type": "bytes32"
                }
              ],
              "internalType": "struct DeltaTransformer.Pull[]",
              "name": "pull",
              "type": "tuple[]"
            }
          ],
          "internalType": "struct DeltaTransformer.Batch",
          "name": "b",
          "type": "tuple"
        }
      ],
      "name": "encodeBatch",
      "outputs": [
        {
          "internalType": "bytes",
          "name": "",
          "type": "bytes"
        }
      ],
      "stateMutability": "pure",
      "type": "function"
    },
    {
      "inputs": [
        {
          "internalType": "bytes32",
          "name": "",
          "type": "bytes32"
        }
      ],
      "name": "hashRevealed",
      "outputs": [
        {
          "internalType": "bool",
          "name": "",
          "type": "bool"
        }
      ],
      "stateMutability": "view",
      "type": "function"
    },
    {
      "inputs": [
        {
          "internalType": "bytes32",
          "name": "",
          "type": "bytes32"
        }
      ],
      "name": "hashToBlock",
      "outputs": [
        {
          "internalType": "uint256",
          "name": "",
          "type": "uint256"
        }
      ],
      "stateMutability": "view",
      "type": "function"
    },
    {
      "inputs": [
        {
          "internalType": "bytes32",
          "name": "secret",
          "type": "bytes32"
        }
      ],
      "name": "revealSecret",
      "outputs": [],
      "stateMutability": "nonpayable",
      "type": "function"
    },
    {
      "inputs": [],
      "name": "supportsArgumentTimestamps",
      "outputs": [
        {
          "internalType": "bool",
          "name": "",
          "type": "bool"
        }
      ],
      "stateMutability": "pure",
      "type": "function"
    }
  ],
  "bytecode": "0x608080604052346100165761156d908161001c8239f35b600080fdfe608060408181526004918236101561001657600080fd5b600090813560e01c908163180f9af31461031a5750806318c323f21461028557806337d6d0731461021657806349fbda29146101fa57806351672fac146101d357806355d426c0146101a6578063603075451461013257639c317cdc1461007c57600080fd5b346101235760c0366003190112610123576001600160401b0390833582811161012e576100ac9036908601610832565b9160243581811161012a576100c49036908701610892565b919095604435828111610126576100de9036908301610892565b92909460643591821161012357509161010461011496949261011f999694369101610892565b93909260a435966084359661094a565b9051918291826108bf565b0390f35b80fd5b8480fd5b8280fd5b5080fd5b50913461012a57602090816003193601126101a2578251828101908235825283815261015d816107ae565b519020908185526001835260ff84862054166101945750908391825260018152828220600160ff1982541617905552439082205580f35b835163a89ac15160e01b8152fd5b8380fd5b50913461012a57602036600319011261012a578160209360ff923581526001855220541690519015158152f35b50913461012a57602036600319011261012a57602092829135815280845220549051908152f35b50903461012e578160031936011261012e576020905160018152f35b50903461012e57602036600319011261012e57823580835282602052818320548015159081610258575b5083945061024c575050f35b82528160205281205580f35b436201869f19810192508211610272578495501038610240565b634e487b7160e01b855260118652602485fd5b5034610123576080366003190112610123576001600160401b0390833582811161012e576102b69036908601610832565b9160243581811161012a576102ce9036908701610892565b919095604435828111610126576102e89036908301610892565b92909460643591821161012357509161030e61011496949261011f999694369101610892565b9390924296429661094a565b9390503461012e5760209360031985813601126101a2576001600160401b039280359190848311610728576060809284360301126107285761035b8461072c565b828101358581116107245783019236602385011215610724578184013560249461038482610807565b916103918b5193846107e4565b808352868c84019160071b8301019136831161067a578701905b8282106106e25750505085528381013586811161067e578101953660238801121561067e5782870135916103de83610807565b976103eb8b51998a6107e4565b8389528b89018760a0809602830101913683116106de578801905b828210610686575050508a870197885260448101359182116106825701913660238401121561067e578201359161043c83610807565b946104498a5196876107e4565b8386528a8601908060c08096028401019236841161067a5797969594939701905b828210610612575050508784019283528751958980880152858701945194838a89015285518091528a60c08901960190895b8c8c8383106105e05750505050505192603f19948588820301848901528a8086519283815201950190895b8c8c8383106105a3575050505050519460809487850301608088015289808751958681520196019488935b8b8b87871061055b578a8c818c03610512601f19918281018552846107e4565b8351948592818452845191828186015281955b8387106105435750508394508582601f949501015201168101030190f35b86810182015189880189015295810195889550610525565b885180518b5282810151838c01528082015161ffff16918b019190915280830151838b015280840151848b0152840151848a01529784019790960195600194909401936104f2565b8451805115158a5282810151838b015280820151918a019190915280880151898901526080908101519089015296890196909201916001016104c7565b845180518b5282810151838c015280820151918b0191909152870151898801526080909801979092019160010161049c565b8382989495969798360312610676578b85918c5161062f81610793565b8435815282850135838201528d61064781870161081e565b90820152888501358982015260808086013590820152868501358782015281520191019096959493929661046a565b8980fd5b8a80fd5b8780fd5b8880fd5b85823603126106de578c5161069a81610778565b823580151581036106da57918f918f89948252838601358483015280860135908201528a8501358b82015260808086013590820152815201910190610406565b8d80fd5b8b80fd5b60808236031261067a578c6080918d8051906106fd8261075d565b8535825283860135848301528086013590820152898501358a8201528152019101906103ab565b8680fd5b8580fd5b606081019081106001600160401b0382111761074757604052565b634e487b7160e01b600052604160045260246000fd5b608081019081106001600160401b0382111761074757604052565b60a081019081106001600160401b0382111761074757604052565b60c081019081106001600160401b0382111761074757604052565b604081019081106001600160401b0382111761074757604052565b602081019081106001600160401b0382111761074757604052565b601f909101601f19168101906001600160401b0382119082101761074757604052565b6001600160401b0381116107475760051b60200190565b359061ffff8216820361082d57565b600080fd5b9080601f8301121561082d57602090823561084c81610807565b9361085a60405195866107e4565b81855260208086019260051b82010192831161082d57602001905b828210610883575050505090565b81358152908301908301610875565b9181601f8401121561082d578235916001600160401b03831161082d576020838186019501011161082d57565b602090602060408183019282815285518094520193019160005b8281106108e7575050505090565b8351855293810193928101926001016108d9565b805182101561090f5760209160051b010190565b634e487b7160e01b600052603260045260246000fd5b60001981146109345760010190565b634e487b7160e01b600052601160045260246000fd5b9698939197949795929095602087828101031261082d578635966001600160401b03881161082d576060888201838301031261082d576040519761098d8961072c565b818101356001600160401b03811161082d57838301601f828486010101121561082d57808284010135906109c082610807565b916109ce60405193846107e4565b808352602083019186860160208360071b83888a010101011161082d57916020838688010101925b60208360071b82888a010101018410610e4e57505050908a5250818101602001356001600160401b03811161082d57838301601f828486010101121561082d5780828401013590610a4682610807565b91610a5460405193846107e4565b8083526020830191868601602060a0840283888a010101011161082d57916020838688010101925b602060a0840282888a010101018410610deb575050505060208a015281810160400135906001600160401b03821161082d57820101828201601f8201121561082d57803591610aca83610807565b93610ad860405195866107e4565b8385526020850191602060c080960285010193828201851161082d579d9e9d602001925b848410610d845750505050505091610b1d91610b2394936040890152610e99565b97610e99565b94600096602081019460208801985b81518051821015610b5f5790610b59610b4d826001946108fb565b5189518d51918c61110b565b01610b32565b505093919692975093506000968793885b60208201518051821015610cb05781610b88916108fb565b519060009682511515600014610c7757865180518210610c5b575b50610bad90610925565b965b60208301518a5180911090811591610c4c575b50610c3a57610c33610c1084610c2d6060610bfa8f96610c229088610c17610c10604060019e01519361ffff968780921680966111df565b04610c0a60208b015180956108fb565b516110ef565b918b6108fb565b5260808601516111df565b0492015180956108fb565b516111f2565b5201610b70565b60405163121e18c360e01b8152600490fd5b90506060840151101538610bc2565b819850610c6e610bad9261ffff926108fb565b51169790610ba3565b969a885180518210610c94575b50610c8e90610925565b9a610baf565b819c50610ca7610c8e9261ffff926108fb565b51169b90610c84565b5050969593509650926000938490855b60408901518051881015610d7757610cd9888a926108fb565b516020810151600013610d4157604092610d1b600193610d2093868a0184815151811091600092600014610d2b57610d129250516108fb565b51905b8c61120b565b610925565b975b01969050610cc0565b5050875190610d39826107c9565b815290610d15565b600191506040929894610d1b85610d7193868b0184815151811091600092600014610d2b57610d129250516108fb565b93610d22565b5050505050509250505090565b9d9e9d8584848401031261082d5760208691604051610da281610793565b863581528287013583820152610dba6040880161081e565b6040820152606087013560608201526080808801359082015260a087013560a08201528152019301929e9d9e610afc565b60a084898901031261082d57604051610e0381610778565b8435151585350361082d5760a060208094829388358152828901358382015260408901356040820152606089013560608201526080808a013590820152815201950194925050610a7c565b608084898901031261082d57608060208093604051610e6c8161075d565b873581528288013583820152604088013560408201526060880135606082015281520194019391506109f6565b906040805191610ea88361072c565b6060835260209283810160608152838201906060825283156110b457505050830191808484031261082d576001600160401b039380359085821161082d570160608185031261082d57825194610efd8661072c565b813581811161082d57820191601f9286601f8201121561082d57803590610f2382610807565b91610f30885193846107e4565b808352868084019160051b8301019189831161082d5787809101915b83831061109c575050505087528381013582811161082d57810186601f8201121561082d57803590610f7d82610807565b91610f8a885193846107e4565b808352868084019160051b8301019189831161082d5787809101915b83831061108c5750915050880152848101359082821161082d57019185601f8401121561082d57823590610fd982610807565b96610fe6875198896107e4565b828852858089019360051b8601019481861161082d57868101935b86851061101657505050505050505082015290565b843586811161082d57820183603f8201121561082d578881013591878311611077578a5161104c848801601f19168c01826107e4565b838152858c858501011161082d5760008b8581968f8397018386013783010152815201940193611001565b60246000634e487b7160e01b81526041600452fd5b8235815291810191889101610fa6565b81906110a78461081e565b8152019101908790610f4c565b92509350935081516110c5816107c9565b6000815284528151906110d7826107c9565b600082525251906110e7826107c9565b600082525290565b9190916000838201938412911290801582169115161761093457565b929190916060830190815160005260006020526040600020549260009380151590816111d0575b506111c7575b8315806111b9575b61117d575b5050501561117957805182511115610c3a57806111706020611176930151915191610c0a83866108fb565b926108fb565b52565b5050565b6111889083516112f6565b9182156111a7575b505061119f575b388080611145565b506001611197565b6111b29250516112f6565b3880611190565b506040850151431115611140565b60019350611138565b90506040860151101538611132565b8181029291811591840414171561093457565b8181039291600013801582851316918412161761093457565b929091825184511115610c3a5761122761ffff92839285611344565b1690811580156112e6575b6112e05760208301805190919060008082126112b157505061126a8161125b8451955b866111df565b049382604087015116906111df565b04808311156112aa578203918211610934575160001361129757611170611176925191610c0a83866108fb565b611170611176925191610c2d83866108fb565b5050505050565b600160ff1b82146112cc5761125b61126a9284920395611255565b634e487b7160e01b81526011600452602490fd5b50505050565b5080604084015116821115611232565b60005b825181101561133c578161130d82856108fb565b5160405160208082019283528152611324816107ae565b51902014611334576001016112f9565b505050600190565b505050600090565b9091825190811561141d5760608301511061133c576020146113f95781516082810361133c571561090f5761ff00602083015160f01c1682516001101561090f57602183015160f81c1791821580156113ee575b61133c578260a06113e0936082604051946113b28661075d565b6080368737602281015186526042810151602087015260628101516040870152015160608501520151611426565b156113e85790565b50600090565b5061ffff8314611398565b9060206080910151910151906000526020600020036114185761ffff90565b600090565b50505050600090565b92909161ffff80931692831461151d57604090604051916114468361075d565b608036843760005b60ff8082166004808210156114d1576114678287611526565b51600f91828b60fc8860030360021b161c169283116114c3575092600091905b81818416106114ab57505050916001916114a360ff9488611526565b52011661144e565b90919360005280600160206000209501169190611487565b8651632dc0277f60e21b8152fd5b50505050505090929150805190602081015190606060408201519101519060405192602084019485526040840152606083015260808201526080815261151681610778565b5190201490565b50915050600090565b90600481101561090f5760051b019056fea2646970667358221220fd133b21fd6facb3996ab1d09a80d851a1f78dd38d81457b292b2e4e694287fd64736f6c63430008180033",
  "linkReferences": {},
  "deployedLinkReferences": {}
}