{
  "_format": "hh-sol-artifact-1",
  "contractName": "Depository",
  "sourceName": "contracts/Depository.sol",
  "abi": [
    {
      "inputs": [
        {
          "internalType": "address",
          "name": "_entityProvider",
          "type": "address"
        }
      ],
      "stateMutability": "nonpayable",
      "type": "constructor"
    },
    {
      "inputs": [],
      "name": "E0",
      "type": "error"
    },
    {
      "inputs": [],
      "name": "E1",
      "type": "error"
    },
    {
      "inputs": [],
      "name": "E10",
      "type": "error"
    },
    {
      "inputs": [],
      "name": "E2",
      "type": "error"
    },
    {
      "inputs": [],
      "name": "E3",
      "type": "error"
    },
    {
      "inputs": [],
      "name": "E4",
      "type": "error"
    },
    {
      "inputs": [],
      "name": "E5",
      "type": "error"
    },
    {
      "inputs": [],
      "name": "E6",
      "type": "error"
    },
    {
      "inputs": [],
      "name": "E7",
      "type": "error"
    },
    {
      "inputs": [],
      "name": "E8",
      "type": "error"
    },
    {
      "inputs": [],
      "name": "E9",
      "type": "error"
    },
    {
      "anonymous": false,
      "inputs": [
        {
          "components": [
            {
              "internalType": "bytes32",
              "name": "left",
              "type": "bytes32"
            },
            {
              "internalType": "bytes32",
              "name": "right",
              "type": "bytes32"
            },
            {
              "components": [
                {
                  "internalType": "uint256",
                  "name": "tokenId",
                  "type": "uint256"
                },
                {
                  "internalType": "uint256",
                  "name": "leftReserve",
                  "type": "uint256"
                },
                {
                  "internalType": "uint256",
                  "name": "rightReserve",
                  "type": "uint256"
                },
                {
                  "internalType": "uint256",
                  "name": "collateral",
                  "type": "uint256"
                },
                {
                  "internalType": "int256",
                  "name": "ondelta",
                  "type": "int256"
                }
              ],
              "internalType": "struct TokenSettlement[]",
              "name": "tokens",
              "type": "tuple[]"
            },
            {
              "internalType": "uint256",
              "name": "nonce",
              "type": "uint256"
            }
          ],
          "indexed": false,
          "internalType": "struct AccountSettlement[]",
          "name": "settled",
          "type": "tuple[]"
        }
      ],
      "name": "AccountSettled",
      "type": "event"
    },
    {
      "anonymous": false,
      "inputs": [
        {
          "indexed": true,
          "internalType": "bytes32",
          "name": "sender",
          "type": "bytes32"
        },
        {
          "indexed": true,
          "internalType": "bytes32",
          "name": "counterentity",
          "type": "bytes32"
        },
        {
          "indexed": true,
          "internalType": "uint256",
          "name": "nonce",
          "type": "uint256"
        }
      ],
      "name": "CooperativeClose",
      "type": "event"
    },
    {
      "anonymous": false,
      "inputs": [
        {
          "indexed": true,
          "internalType": "bytes32",
          "name": "debtor",
          "type": "bytes32"
        },
        {
          "indexed": true,
          "internalType": "bytes32",
          "name": "creditor",
          "type": "bytes32"
        },
        {
          "indexed": true,
          "internalType": "uint256",
          "name": "tokenId",
          "type": "uint256"
        },
        {
          "indexed": false,
          "internalType": "uint256",
          "name": "amount",
          "type": "uint256"
        },
        {
          "indexed": false,
          "internalType": "uint256",
          "name": "debtIndex",
          "type": "uint256"
        }
      ],
      "name": "DebtCreated",
      "type": "event"
    },
    {
      "anonymous": false,
      "inputs": [
        {
          "indexed": true,
          "internalType": "bytes32",
          "name": "debtor",
          "type": "bytes32"
        },
        {
          "indexed": true,
          "internalType": "bytes32",
          "name": "creditor",
          "type": "bytes32"
        },
        {
          "indexed": true,
          "internalType": "uint256",
          "name": "tokenId",
          "type": "uint256"
        },
        {
          "indexed": false,
          "internalType": "uint256",
          "name": "amountPaid",
          "type": "uint256"
        },
        {
          "indexed": false,
          "internalType": "uint256",
          "name": "remainingAmount",
          "type": "uint256"
        },
        {
          "indexed": false,
          "internalType": "uint256",
          "name": "newDebtIndex",
          "type": "uint256"
        }
      ],
      "name": "DebtEnforced",
      "type": "event"
    },
    {
      "anonymous": false,
      "inputs": [
        {
          "indexed": true,
          "internalType": "bytes32",
          "name": "debtor",
          "type": "bytes32"
        },
        {
          "indexed": true,
          "internalType": "bytes32",
          "name": "creditor",
          "type": "bytes32"
        },
        {
          "indexed": true,
          "internalType": "uint256",
          "name": "tokenId",
          "type": "uint256"
        },
        {
          "indexed": false,
          "internalType": "uint256",
          "name": "amountForgiven",
          "type": "uint256"
        },
        {
          "indexed": false,
          "internalType": "uint256",
          "name": "debtIndex",
          "type": "uint256"
        }
      ],
      "name": "DebtForgiven",
      "type": "event"
    },
    {
      "anonymous": false,
      "inputs": [
        {
          "indexed": true,
          "internalType": "bytes32",
          "name": "sender",
          "type": "bytes32"
        },
        {
          "indexed": true,
          "internalType": "bytes32",
          "name": "counterentity",
          "type": "bytes32"
        },
        {
          "indexed": true,
          "internalType": "uint256",
          "name": "nonce",
          "type": "uint256"
        },
        {
          "indexed": false,
          "internalType": "bytes32",
          "name": "initialProofbodyHash",
          "type": "bytes32"
        },
        {
          "indexed": false,
          "internalType": "bytes32",
          "name": "finalProofbodyHash",
          "type": "bytes32"
        }
      ],
      "name": "DisputeFinalized",
      "type": "event"
    },
    {
      "anonymous": false,
      "inputs": [
        {
          "indexed": true,
          "internalType": "bytes32",
          "name": "sender",
          "type": "bytes32"
        },
        {
          "indexed": true,
          "internalType": "bytes32",
          "name": "counterentity",
          "type": "bytes32"
        },
        {
          "indexed": true,
          "internalType": "uint256",
          "name": "nonce",
          "type": "uint256"
        },
        {
          "indexed": false,
          "internalType": "bytes32",
          "name": "proofbodyHash",
          "type": "bytes32"
        },
        {
          "indexed": false,
          "internalType": "bytes",
          "name": "starterInitialArguments",
          "type": "bytes"
        },
        {
          "indexed": false,
          "internalType": "bytes",
          "name": "starterIncrementedArguments",
          "type": "bytes"
        }
      ],
      "name": "DisputeStartedV2",
      "type": "event"
    },
    {
      "anonymous": false,
      "inputs": [
        {
          "indexed": true,
          "internalType": "bytes32",
          "name": "entityId",
          "type": "bytes32"
        },
        {
          "indexed": true,
          "internalType": "bytes32",
          "name": "hankoHash",
          "type": "bytes32"
        },
        {
          "indexed": false,
          "internalType": "uint256",
          "name": "nonce",
          "type": "uint256"
        },
        {
          "indexed": false,
          "internalType": "bool",
          "name": "success",
          "type": "bool"
        }
      ],
      "name": "HankoBatchProcessed",
      "type": "event"
    },
    {
      "anonymous": false,
      "inputs": [
        {
          "indexed": true,
          "internalType": "bytes32",
          "name": "entity",
          "type": "bytes32"
        },
        {
          "indexed": true,
          "internalType": "uint256",
          "name": "tokenId",
          "type": "uint256"
        },
        {
          "indexed": false,
          "internalType": "uint256",
          "name": "newBalance",
          "type": "uint256"
        }
      ],
      "name": "ReserveUpdated",
      "type": "event"
    },
    {
      "anonymous": false,
      "inputs": [
        {
          "indexed": true,
          "internalType": "bytes32",
          "name": "hashlock",
          "type": "bytes32"
        },
        {
          "indexed": true,
          "internalType": "bytes32",
          "name": "revealer",
          "type": "bytes32"
        },
        {
          "indexed": false,
          "internalType": "bytes32",
          "name": "secret",
          "type": "bytes32"
        }
      ],
      "name": "SecretRevealed",
      "type": "event"
    },
    {
      "anonymous": false,
      "inputs": [
        {
          "indexed": true,
          "internalType": "address",
          "name": "tower",
          "type": "address"
        },
        {
          "indexed": true,
          "internalType": "bytes32",
          "name": "entityId",
          "type": "bytes32"
        },
        {
          "indexed": true,
          "internalType": "bytes32",
          "name": "counterentity",
          "type": "bytes32"
        },
        {
          "indexed": false,
          "internalType": "uint256",
          "name": "finalNonce",
          "type": "uint256"
        },
        {
          "indexed": false,
          "internalType": "uint256",
          "name": "appointmentSequence",
          "type": "uint256"
        }
      ],
      "name": "WatchtowerCounterDisputeExecuted",
      "type": "event"
    },
    {
      "inputs": [],
      "name": "DOMAIN_SEPARATOR",
      "outputs": [
        {
          "internalType": "bytes32",
          "name": "",
          "type": "bytes32"
        }
      ],
      "stateMutability": "view",
      "type": "function"
    },
    {
      "inputs": [],
      "name": "WATCHTOWER_COUNTER_DISPUTE_DOMAIN_SEPARATOR",
      "outputs": [
        {
          "internalType": "bytes32",
          "name": "",
          "type": "bytes32"
        }
      ],
      "stateMutability": "view",
      "type": "function"
    },
    {
      "inputs": [
        {
          "internalType": "bytes",
          "name": "",
          "type": "bytes"
        }
      ],
      "name": "_accounts",
      "outputs": [
        {
          "internalType": "uint256",
          "name": "nonce",
          "type": "uint256"
        },
        {
          "internalType": "bytes32",
          "name": "disputeHash",
          "type": "bytes32"
        },
        {
          "internalType": "uint256",
          "name": "disputeTimeout",
          "type": "uint256"
        },
        {
          "internalType": "uint256",
          "name": "disputeStartTimestamp",
          "type": "uint256"
        }
      ],
      "stateMutability": "view",
      "type": "function"
    },
    {
      "inputs": [
        {
          "internalType": "bytes32",
          "name": "",
          "type": "bytes32"
        }
      ],
      "name": "_activeDebts",
      "outputs": [
        {
          "internalType": "uint256",
          "name": "",
          "type": "uint256"
        }
      ],
      "stateMutability": "view",
      "type": "function"
    },
    {
      "inputs": [
        {
          "internalType": "bytes32",
          "name": "",
          "type": "bytes32"
        },
        {
          "internalType": "uint256",
          "name": "",
          "type": "uint256"
        }
      ],
      "name": "_activeDebtsByToken",
      "outputs": [
        {
          "internalType": "uint256",
          "name": "",
          "type": "uint256"
        }
      ],
      "stateMutability": "view",
      "type": "function"
    },
    {
      "inputs": [
        {
          "internalType": "bytes",
          "name": "",
          "type": "bytes"
        },
        {
          "internalType": "uint256",
          "name": "",
          "type": "uint256"
        }
      ],
      "name": "_collaterals",
      "outputs": [
        {
          "internalType": "uint256",
          "name": "collateral",
          "type": "uint256"
        },
        {
          "internalType": "int256",
          "name": "ondelta",
          "type": "int256"
        }
      ],
      "stateMutability": "view",
      "type": "function"
    },
    {
      "inputs": [
        {
          "internalType": "bytes32",
          "name": "",
          "type": "bytes32"
        },
        {
          "internalType": "uint256",
          "name": "",
          "type": "uint256"
        }
      ],
      "name": "_debtIndex",
      "outputs": [
        {
          "internalType": "uint256",
          "name": "",
          "type": "uint256"
        }
      ],
      "stateMutability": "view",
      "type": "function"
    },
    {
      "inputs": [
        {
          "internalType": "bytes32",
          "name": "",
          "type": "bytes32"
        },
        {
          "internalType": "uint256",
          "name": "",
          "type": "uint256"
        },
        {
          "internalType": "uint256",
          "name": "",
          "type": "uint256"
        }
      ],
      "name": "_debts",
      "outputs": [
        {
          "internalType": "bytes32",
          "name": "creditor",
          "type": "bytes32"
        },
        {
          "internalType": "uint256",
          "name": "amount",
          "type": "uint256"
        }
      ],
      "stateMutability": "view",
      "type": "function"
    },
    {
      "inputs": [
        {
          "internalType": "bytes32",
          "name": "",
          "type": "bytes32"
        },
        {
          "internalType": "uint256",
          "name": "",
          "type": "uint256"
        }
      ],
      "name": "_reserves",
      "outputs": [
        {
          "internalType": "uint256",
          "name": "",
          "type": "uint256"
        }
      ],
      "stateMutability": "view",
      "type": "function"
    },
    {
      "inputs": [
        {
          "internalType": "uint256",
          "name": "",
          "type": "uint256"
        }
      ],
      "name": "_tokens",
      "outputs": [
        {
          "internalType": "address",
          "name": "contractAddress",
          "type": "address"
        },
        {
          "internalType": "uint96",
          "name": "externalTokenId",
          "type": "uint96"
        },
        {
          "internalType": "uint8",
          "name": "tokenType",
          "type": "uint8"
        }
      ],
      "stateMutability": "view",
      "type": "function"
    },
    {
      "inputs": [
        {
          "internalType": "bytes32",
          "name": "e1",
          "type": "bytes32"
        },
        {
          "internalType": "bytes32",
          "name": "e2",
          "type": "bytes32"
        }
      ],
      "name": "accountKey",
      "outputs": [
        {
          "internalType": "bytes",
          "name": "",
          "type": "bytes"
        }
      ],
      "stateMutability": "pure",
      "type": "function"
    },
    {
      "inputs": [],
      "name": "admin",
      "outputs": [
        {
          "internalType": "address",
          "name": "",
          "type": "address"
        }
      ],
      "stateMutability": "view",
      "type": "function"
    },
    {
      "inputs": [
        {
          "components": [
            {
              "internalType": "bytes32",
              "name": "entity",
              "type": "bytes32"
            },
            {
              "internalType": "address",
              "name": "contractAddress",
              "type": "address"
            },
            {
              "internalType": "uint96",
              "name": "externalTokenId",
              "type": "uint96"
            },
            {
              "internalType": "uint8",
              "name": "tokenType",
              "type": "uint8"
            },
            {
              "internalType": "uint256",
              "name": "internalTokenId",
              "type": "uint256"
            },
            {
              "internalType": "uint256",
              "name": "amount",
              "type": "uint256"
            }
          ],
          "internalType": "struct ExternalTokenToReserve",
          "name": "params",
          "type": "tuple"
        }
      ],
      "name": "adminRegisterExternalToken",
      "outputs": [],
      "stateMutability": "nonpayable",
      "type": "function"
    },
    {
      "inputs": [
        {
          "internalType": "address",
          "name": "tower",
          "type": "address"
        },
        {
          "internalType": "bytes32",
          "name": "entityId",
          "type": "bytes32"
        },
        {
          "internalType": "bytes32",
          "name": "counterentity",
          "type": "bytes32"
        },
        {
          "internalType": "uint256",
          "name": "finalNonce",
          "type": "uint256"
        },
        {
          "internalType": "bytes32",
          "name": "finalProofbodyHash",
          "type": "bytes32"
        },
        {
          "internalType": "uint256",
          "name": "lastResortWindowBlocks",
          "type": "uint256"
        },
        {
          "internalType": "uint256",
          "name": "appointmentSequence",
          "type": "uint256"
        }
      ],
      "name": "computeWatchtowerCounterDisputeHash",
      "outputs": [
        {
          "internalType": "bytes32",
          "name": "",
          "type": "bytes32"
        }
      ],
      "stateMutability": "view",
      "type": "function"
    },
    {
      "inputs": [
        {
          "internalType": "bytes32",
          "name": "",
          "type": "bytes32"
        },
        {
          "internalType": "uint256",
          "name": "",
          "type": "uint256"
        }
      ],
      "name": "debtOutstanding",
      "outputs": [
        {
          "internalType": "uint256",
          "name": "",
          "type": "uint256"
        }
      ],
      "stateMutability": "view",
      "type": "function"
    },
    {
      "inputs": [
        {
          "internalType": "bytes",
          "name": "encoded",
          "type": "bytes"
        }
      ],
      "name": "decodeTransformerArgumentListStrict",
      "outputs": [
        {
          "internalType": "bytes[]",
          "name": "",
          "type": "bytes[]"
        }
      ],
      "stateMutability": "pure",
      "type": "function"
    },
    {
      "inputs": [],
      "name": "defaultDisputeDelay",
      "outputs": [
        {
          "internalType": "uint256",
          "name": "",
          "type": "uint256"
        }
      ],
      "stateMutability": "view",
      "type": "function"
    },
    {
      "inputs": [
        {
          "internalType": "bytes32",
          "name": "entity",
          "type": "bytes32"
        },
        {
          "internalType": "uint256",
          "name": "tokenId",
          "type": "uint256"
        },
        {
          "internalType": "uint256",
          "name": "maxIterations",
          "type": "uint256"
        }
      ],
      "name": "enforceDebts",
      "outputs": [],
      "stateMutability": "nonpayable",
      "type": "function"
    },
    {
      "inputs": [
        {
          "internalType": "bytes32",
          "name": "",
          "type": "bytes32"
        }
      ],
      "name": "entityNonces",
      "outputs": [
        {
          "internalType": "uint256",
          "name": "",
          "type": "uint256"
        }
      ],
      "stateMutability": "view",
      "type": "function"
    },
    {
      "inputs": [],
      "name": "entityProvider",
      "outputs": [
        {
          "internalType": "address",
          "name": "",
          "type": "address"
        }
      ],
      "stateMutability": "view",
      "type": "function"
    },
    {
      "inputs": [],
      "name": "getTokensLength",
      "outputs": [
        {
          "internalType": "uint256",
          "name": "",
          "type": "uint256"
        }
      ],
      "stateMutability": "view",
      "type": "function"
    },
    {
      "inputs": [
        {
          "internalType": "bytes32",
          "name": "entity",
          "type": "bytes32"
        },
        {
          "internalType": "uint256",
          "name": "tokenId",
          "type": "uint256"
        },
        {
          "internalType": "uint256",
          "name": "amount",
          "type": "uint256"
        }
      ],
      "name": "mintToReserve",
      "outputs": [],
      "stateMutability": "nonpayable",
      "type": "function"
    },
    {
      "inputs": [
        {
          "internalType": "address",
          "name": "",
          "type": "address"
        },
        {
          "internalType": "address",
          "name": "",
          "type": "address"
        },
        {
          "internalType": "uint256[]",
          "name": "",
          "type": "uint256[]"
        },
        {
          "internalType": "uint256[]",
          "name": "",
          "type": "uint256[]"
        },
        {
          "internalType": "bytes",
          "name": "",
          "type": "bytes"
        }
      ],
      "name": "onERC1155BatchReceived",
      "outputs": [
        {
          "internalType": "bytes4",
          "name": "",
          "type": "bytes4"
        }
      ],
      "stateMutability": "pure",
      "type": "function"
    },
    {
      "inputs": [
        {
          "internalType": "address",
          "name": "",
          "type": "address"
        },
        {
          "internalType": "address",
          "name": "",
          "type": "address"
        },
        {
          "internalType": "uint256",
          "name": "id",
          "type": "uint256"
        },
        {
          "internalType": "uint256",
          "name": "",
          "type": "uint256"
        },
        {
          "internalType": "bytes",
          "name": "",
          "type": "bytes"
        }
      ],
      "name": "onERC1155Received",
      "outputs": [
        {
          "internalType": "bytes4",
          "name": "",
          "type": "bytes4"
        }
      ],
      "stateMutability": "nonpayable",
      "type": "function"
    },
    {
      "inputs": [
        {
          "internalType": "bytes",
          "name": "encodedBatch",
          "type": "bytes"
        },
        {
          "internalType": "bytes",
          "name": "hankoData",
          "type": "bytes"
        },
        {
          "internalType": "uint256",
          "name": "nonce",
          "type": "uint256"
        }
      ],
      "name": "processBatch",
      "outputs": [
        {
          "internalType": "bool",
          "name": "completeSuccess",
          "type": "bool"
        }
      ],
      "stateMutability": "nonpayable",
      "type": "function"
    },
    {
      "inputs": [
        {
          "internalType": "bytes32",
          "name": "entity",
          "type": "bytes32"
        },
        {
          "internalType": "uint256",
          "name": "tokenId",
          "type": "uint256"
        }
      ],
      "name": "spendableReserve",
      "outputs": [
        {
          "internalType": "uint256",
          "name": "",
          "type": "uint256"
        }
      ],
      "stateMutability": "view",
      "type": "function"
    },
    {
      "inputs": [
        {
          "internalType": "bytes32",
          "name": "",
          "type": "bytes32"
        }
      ],
      "name": "tokenToId",
      "outputs": [
        {
          "internalType": "uint256",
          "name": "",
          "type": "uint256"
        }
      ],
      "stateMutability": "view",
      "type": "function"
    },
    {
      "inputs": [
        {
          "internalType": "bytes32",
          "name": "entityId",
          "type": "bytes32"
        },
        {
          "components": [
            {
              "internalType": "bytes32",
              "name": "counterentity",
              "type": "bytes32"
            },
            {
              "internalType": "uint256",
              "name": "initialNonce",
              "type": "uint256"
            },
            {
              "internalType": "uint256",
              "name": "finalNonce",
              "type": "uint256"
            },
            {
              "internalType": "bytes32",
              "name": "initialProofbodyHash",
              "type": "bytes32"
            },
            {
              "components": [
                {
                  "internalType": "int256[]",
                  "name": "offdeltas",
                  "type": "int256[]"
                },
                {
                  "internalType": "uint256[]",
                  "name": "tokenIds",
                  "type": "uint256[]"
                },
                {
                  "components": [
                    {
                      "internalType": "address",
                      "name": "transformerAddress",
                      "type": "address"
                    },
                    {
                      "internalType": "bytes",
                      "name": "encodedBatch",
                      "type": "bytes"
                    },
                    {
                      "components": [
                        {
                          "internalType": "uint256",
                          "name": "deltaIndex",
                          "type": "uint256"
                        },
                        {
                          "internalType": "uint256",
                          "name": "rightAllowance",
                          "type": "uint256"
                        },
                        {
                          "internalType": "uint256",
                          "name": "leftAllowance",
                          "type": "uint256"
                        }
                      ],
                      "internalType": "struct Allowance[]",
                      "name": "allowances",
                      "type": "tuple[]"
                    }
                  ],
                  "internalType": "struct TransformerClause[]",
                  "name": "transformers",
                  "type": "tuple[]"
                }
              ],
              "internalType": "struct ProofBody",
              "name": "finalProofbody",
              "type": "tuple"
            },
            {
              "internalType": "bytes",
              "name": "leftArguments",
              "type": "bytes"
            },
            {
              "internalType": "bytes",
              "name": "rightArguments",
              "type": "bytes"
            },
            {
              "internalType": "bytes",
              "name": "starterInitialArguments",
              "type": "bytes"
            },
            {
              "internalType": "bytes",
              "name": "starterIncrementedArguments",
              "type": "bytes"
            },
            {
              "internalType": "bytes",
              "name": "sig",
              "type": "bytes"
            },
            {
              "internalType": "bool",
              "name": "startedByLeft",
              "type": "bool"
            },
            {
              "internalType": "uint256",
              "name": "disputeUntilBlock",
              "type": "uint256"
            },
            {
              "internalType": "bool",
              "name": "cooperative",
              "type": "bool"
            }
          ],
          "internalType": "struct FinalDisputeProof",
          "name": "params",
          "type": "tuple"
        },
        {
          "internalType": "uint256",
          "name": "lastResortWindowBlocks",
          "type": "uint256"
        },
        {
          "internalType": "uint256",
          "name": "appointmentSequence",
          "type": "uint256"
        },
        {
          "internalType": "bytes",
          "name": "ownerAuthorizationHanko",
          "type": "bytes"
        }
      ],
      "name": "watchtowerCounterDispute",
      "outputs": [
        {
          "internalType": "bool",
          "name": "completeSuccess",
          "type": "bool"
        }
      ],
      "stateMutability": "nonpayable",
      "type": "function"
    }
  ],
  "bytecode": "0x60c034620001a057601f6200612d38819003918201601f19168301926001600160401b0392909183851183861017620001a5578160209284926040978852833981010312620001a057516001600160a01b038082169291838103620001a05760009360018555156200018f576080523360a05283519160608301908111838210176200017b57845282825260208201908382528483019380855260095490680100000000000000008210156200016757600182018060095582101562000153579160019391602084600960ff9896522090851b0192511690838060a01b0319905160a01b161781550191511660ff1982541617905551615f719081620001bc82396080518181816106a301528181610db10152818161189d01528181611e4a0152818161208401528181612b93015281816143120152614c86015260a0518181816101c80152818161026d015261092f0152f35b634e487b7160e01b81526032600452602490fd5b634e487b7160e01b81526041600452602490fd5b634e487b7160e01b84526041600452602484fd5b8451633c4117f160e21b8152600490fd5b600080fd5b634e487b7160e01b600052604160045260246000fdfe6101a0604052600436101561001357600080fd5b60003560e01c80630dedd62414612caa57806310340ce314612c93578063125c2cc414612c145780633644e51514612beb57806340530a9a14612bc25780634318cdd014612b7d5780636b79134d14612b515780637508b91614612b1e57806378152e6a14612b0557806378bc542a14612ad25780637a4ef02514610ca957806382f437b114610c6657806388a1cd7614610c15578063907efb1b14610bf85780639e8de81914610bc5578063acd6f20814610b92578063b0c26ecf14610b74578063bc197c8114610ae9578063d19fd92e14610abd578063e3af37e3146109a0578063e812c5691461091d578063e9e1059e14610452578063ed70554d14610400578063edcc1b04146103d4578063f176e3261461039a578063f23a6e611461029c578063f851a440146102575763fdfef2011461015157600080fd5b346102525760c03660031901126102525760405161016e81612d5c565b60043581526001600160a01b0360243581811681036102525760208301526044356001600160601b038116810361025257604083015260643560ff81168103610252576060830152608435608083015260a43560a08301527f0000000000000000000000000000000000000000000000000000000000000000163314801590610239575b610227576002600054146102155761020e906002600055614fe6565b6001600055005b604051633018d46b60e11b8152600490fd5b604051633485c51360e21b8152600490fd5b50617a6946141580156101f25750617a6a4614156101f2565b600080fd5b34610252576000366003190112610252576040517f00000000000000000000000000000000000000000000000000000000000000006001600160a01b03168152602090f35b346102525760a0366003190112610252576102b5612ef9565b506102be612f0f565b506084356001600160401b038111610252576102de903690600401612ecc565b505060018060601b03604435166040516020810190600282523360408201528260608201526060815261031081612d8a565b5190209081600052600a6020526040600020541561033b575b60405163f23a6e6160e01b8152602090f35b60405161035f9161034b82612d26565b338252602082015260026040820152613dd7565b60095460001981019190821161038457600052600a6020526040600020558080610329565b634e487b7160e01b600052601160045260246000fd5b34610252576040366003190112610252576103d06103bc602435600435613d97565b604051918291602083526020830190612fba565b0390f35b3461025257602036600319011261025257600435600052600b6020526020604060002054604051908152f35b346102525760203660031901126102525760043560095481101561025257610429606091612f39565b5060ff60018254920154166040519160018060a01b038116835260a01c60208301526040820152f35b346102525760031960a03682011261025257602435906001600160401b038211610252576101a082360391820112610252576084356001600160401b038111610252576104a3903690600401612ecc565b90916002600054146102155760026000556104cc6104c78560040135600435613d97565b612e76565b60018101541561090b576101848501358015158103610252576102275761012485013560221983018112156102525785016004810135906001600160401b03821161025257602482360391011361025257156102275760443515610227578054604486013511156102275760248501356044860135111561022757600261055560443543612ffb565b910154116102275760848401359060621901811215610252576040516020808201529060a082019061058c86820160040180613d62565b606060408601529283905260c084019260005b8181106108f5575050506105bd602482880101600483890101613d62565b848403603f190160608601528084526001600160fb1b0381116102525760051b92919083906020840137818301602001906106019088016044810190600401613d62565b809192601f198787870103016080880152526040848401019360408260051b82860101019483946000925b8484106107b957508a61069760408c8c6106758d610653818f03601f198101835282612dc0565b6064359060443590602081519101206044890135896004013560043533613ce4565b8351631155a0c560e31b815260048101859052948593849360448501916138c0565b602483019190915203817f00000000000000000000000000000000000000000000000000000000000000006001600160a01b03165afa80156107ad5760009160009161077c575b501590811561076f575b5061075d576107056106fd36836004016139be565b60043561420f565b158061075d576020916040519060448101358252606435848301526004013590600435907fb209bafd9234f5eaba22fb2de42069934e9a20bb838ffc9afa40ede47dbe7d8760403392a4600160005560405190158152f35b604051631bd18a1960e31b8152600490fd5b90506004351415826106e8565b90506107a0915060403d6040116107a6575b6107988183612dc0565b8101906138ee565b836106de565b503d61078e565b6040513d6000823e3d90fd5b90919293949596603f198284018203018452605e198736030188351215610252576001600160a01b036107ee89358901612f25565b1681528735870136819003601e1901602090910135121561025257873587016020810135016001600160401b03813511610252578035360360208201136102525761084a906060602084015260608301906020813591016138c0565b908835880136819003601e190160409091013512156102525788358801604081013501916001600160401b038335116102525760608335023603602084011361025257816040602093830391015282358152019060208101906000905b803582106108c95750505060208060019299019401940192959493919061062c565b9091926060806001928635815260208701356020820152604087013560408201520194019201906108a7565b823585526020948501949092019160010161059f565b6040516388d0662b60e01b8152600490fd5b346102525761092b36612e9c565b90337f00000000000000000000000000000000000000000000000000000000000000006001600160a01b031614801590610987575b6102275781156109755761097392613eca565b005b60405163440a57bf60e01b8152600490fd5b50617a6946141580156109605750617a6a461415610960565b3461025257602080600319360112610252576001600160401b03600435818111610252576109d2903690600401612ecc565b81019083818303126102525780359083821161025257019080601f8301121561025257813591610a0183613908565b93610a0f6040519586612dc0565b8385528585019086829560051b8401019380851161025257878498979801925b858410610a9257604080518981528a51818b01819052600092600582901b83018101918b918d9085015b828710610a665785850386f35b909192938280610a82600193603f198a82030186528851612fba565b9601920196019592919092610a59565b8398979835838111610252578991610aaf848480948a0101612e35565b815201930192979697610a2f565b3461025257602036600319011261025257600435600052600a6020526020604060002054604051908152f35b346102525760a036600319011261025257610b02612ef9565b50610b0b612f0f565b506001600160401b0360443581811161025257610b2c903690600401612f8a565b505060643581811161025257610b46903690600401612f8a565b505060843590811161025257610b60903690600401612ecc565b5050604051633c4117f160e21b8152600490fd5b34610252576000366003190112610252576020600954604051908152f35b3461025257610ba036612eb6565b9060005260016020526040600020906000526020526020604060002054604051908152f35b3461025257610bd336612eb6565b9060005260066020526040600020906000526020526020604060002054604051908152f35b346102525760003660031901126102525760206040516116808152f35b3461025257610c2336612e9c565b9160005260046020526040600020906000526020526040600020805482101561025257604091610c5291612f6e565b506001815491015482519182526020820152f35b346102525760e0366003190112610252576020610ca1610c84612ef9565b60c4359060a4359060843590606435906044359060243590613ce4565b604051908152f35b34610252576060366003190112610252576004356001600160401b03811161025257610cd9903690600401612ecc565b6024356001600160401b03811161025257610cf8903690600401612ecc565b926002600054146102155760026000556040516359516e5f60e01b8152600080516020615f1c833981519152600482015246602482015230604482015260a060648201529060208280610d4f60a4820188866138c0565b6044356084830152038173__$1a0918a2aa2208593bb0a5d7644cd0946b$__5af49182156107ad57600092612a9e575b5060408051808094631155a0c560e31b8252836004830152610da5604483018a896138c0565b602483019190915203817f00000000000000000000000000000000000000000000000000000000000000006001600160a01b03165afa80156107ad57600092600091612a79575b50158015612a71575b61075d5781600052600b60205260406000205460018101811161038457600101604435036102275781600052600b6020526044356040600020556020818581010312610252576001600160401b038135116102525761016081358201858301031261025257604051936001600160401b036101608601908111908611176127f35761016085016040526001600160401b038235830135116102525781810182358301803501601f011215610252578135820180350135610eb481613908565b90610ec26040519283612dc0565b808252602082019083850160208260061b873588013588358901010101116102525784358501803501602001915b85358601803501600683901b016020018310612a3b5750505085526001600160401b038235830160200135116102525781810182358301602081013501601f011215610252578135820160208101350135610f4a81613908565b90610f586040519283612dc0565b8082526020820183850160206060840281883589010135883589010101011161025257602085358601818101350101905b853586016020818101359091016060850201018210612a1a5750505060208601526001600160401b038235830160400135116102525781810182358301604081013501601f01121561025257610fe88235830160408101350135613908565b610ff56040519182612dc0565b82358301604081013501803580835260208084019285870160059390931b0101116102525783358401604081013501602001905b84358501604081013501803560051b0160200182106128c357505060408601526001600160401b038235830160600135116102525781810182358301606081013501601f01121561025257813582016060810135013561108881613908565b906110966040519283612dc0565b8082526020820183850160208360051b606088358901013588358901010101116102525784358501606081013501602001905b85358601606081013501600584901b0160200182106128095750505060608601526001600160401b038235830160800135116102525781810182358301608081013501601f01121561025257813582016080810135013561112981613908565b906111376040519283612dc0565b8082526020820183850160208360051b608088358901013588358901010101116102525784358501608081013501602001905b85358601608081013501600584901b0160200182106125695750505060808601526001600160401b038235830160a0013511610252578181018235830160a081013501601f011215610252578135820160a081013501356111ca81613908565b906111d86040519283612dc0565b8082526020820183850160208360051b60a08835890101358835890101010111610252578435850160a081013501602001905b8535860160a081013501600584901b0160200182106124385750505060a08601526001600160401b038235830160c0013511610252578181018235830160c081013501601f0112156102525761126a8235830160c08101350135613908565b6112776040519182612dc0565b8235830160c081013501803580835260208084019285870160059390931b010111610252578335840160c081013501602001905b8435850160c081013501803560051b0160200182106123ff57505060c08601526001600160401b038235830160e0013511610252578181018235830160e081013501601f011215610252576113098235830160e08101350135613908565b6113166040519182612dc0565b8235830160e081013501803580835260208084019285870160c0909302010111610252578335840160e081013501602001905b8435850160e081013501803560c00201602001821061237557505060e08601526001600160401b0382358301610100013511610252578181018235830161010081013501601f011215610252576113aa823583016101008101350135613908565b6113b76040519182612dc0565b823583016101008101350180358083526020808401928587016060909302010111610252578335840161010081013501602001905b843585016101008101350180356060020160200182106123595750506101008601526001600160401b0382358301610120013511610252578181018235830161012081013501601f011215610252578135820161012081013501359061145182613908565b9161145f6040519384612dc0565b808352602083019180850160208360061b6101208835890101358835890101010111610252578435850161012081013501602001925b8535860161012081013501600684901b01602001841061231c57505050506101208501526101408181923501013590840152603261155661154961153c61153061152461151861150c6115006114f48c60208151519101515190612ffb565b60408d01515190612ffb565b60608c01515190612ffb565b60808b01515190612ffb565b60a08a01515190612ffb565b60c08901515190612ffb565b60e08801515190612ffb565b6101008701515190612ffb565b6101208601515190612ffb565b1161160a5760088351511161160a5760406020840151511161160a57604080840151511161160a5760406060840151511161160a5760206080840151511161160a57600860a0840151511161160a57600860c0840151511161160a57604060e0840151511161160a576040610100840151511161160a576020610120840151511161160a5760005b6040840151805182101561161c5760406115f9838293614051565b510151511161160a576001016115de565b60405163e217c62b60e01b8152600490fd5b5050838361162b815151614012565b90611637815151614012565b91611643825151614012565b92600080915b84518051841015611726578361165e91614051565b515192602061166e828851614051565b510151936000905b848210611705575b8a878684146116b6575b5050506116ad6116a660019495966116a0848c614051565b51612ffb565b9189614051565b52019190611649565b86836116a6936116ad956116d060019a9b6116fa96614051565b52600052876020526040600020906000526020526040600020546116f4828a614051565b52612fdf565b959450508a87611688565b90816117118289614051565b51146117205760010190611676565b9061167e565b5093915093918760005b8681106122f3575060019660005b60e08501518051821015611777579061176961175c82600194614051565b5180511561176f57614fe6565b0161173e565b8c8152614fe6565b505087899760005b60208701518051821015611804578161179791614051565b51906117a760208301518c613095565b60408201516117ba60208401518d613fc7565b106117f2576117ec826117d98d60206001960151604084015191613e3e565b8051906040602082015191015191613eca565b0161177f565b604051632fd8225d60e21b8152600490fd5b505087899760005b6060890151805182101561194457602061182883608093614051565b518c61189b60405194859384936328a3f8a760e11b8552600160048601526002602486015260036044860152606485015260c06084850152805160c48501528581015160e485015260408101516101048501526060810151610124850152015160a0610144840152610164830190612fba565b7f00000000000000000000000000000000000000000000000000000000000000006001600160a01b031660a4830152038173__$1a0918a2aa2208593bb0a5d7644cd0946b$__5af49081156107ad5760009161190a575b5015611901575b60010161180c565b600094506118f9565b90506020813d60201161193c575b8161192560209383612dc0565b8101031261025257611936906138e1565b8b6118f2565b3d9150611918565b505087899760808201518051611f74575b5060a08201518051611df2575b5060005b6101208301518051821015611a3b578161197f91614051565b5180519091906001600160a01b0316156102275760018060a01b03825116916020810151833b1561025257600093602485926040519687938492636030754560e01b845260048401525af19081156107ad576001938d92611a2c575b507f47172349c05bf58f7f6a376def3bbc250cd3295a7eead0290d8fa3531c6ca9fb60208080840151604051828101918252828152611a1981612d0b565b519020930151604051908152a301611966565b611a3590612d77565b8d6119db565b505087899760005b60c08501518051821015611a7c57611a5e82611a6592614051565b518b61420f565b15611a73575b600101611a43565b60009850611a6b565b505087899760005b60408701518051821015611abd57611a9f82611aa692614051565b518b6154e1565b15611ab4575b600101611a84565b60009250611aac565b505087899760005b6101008901518051821015611cf05781611ade91614051565b519060408201511561097557611af860208301518c613095565b611b0e611b086020840151612f39565b50614f5d565b916040810151611b238d602084015190613fc7565b106117f25780516001600160a01b03106102275760018060a01b0381511690600160ff6040860151161480611ce1575b61097557611b6b8d6020830151604084015191613e3e565b604084015160ff1680611bc8575060019291611bc091604061010096868060a01b039051169101516040519263a9059cbb60e01b60208501526024840152604483015260448252611bbb82612d8a565b615caa565b019050611ac5565b60018103611c4757505082516020909301516001600160a01b03909316926001600160601b0316833b1561025257611c1b93600092836040518097819582946323b872dd60e01b84523060048501614fc4565b03925af19081156107ad5761010092600192611c38575b50611bc0565b611c4190612d77565b8c611c32565b909390600214611c61575b50506101009150600190611bc0565b8051602090910151604094909401516001600160601b0390941693906001600160a01b0316803b1561025257611cb3946000809460405197889586948593637921219560e11b85523060048601614f90565b03925af19081156107ad5761010092600192611cd2575b819250611c52565b611cdb90612d77565b8c611cca565b50600160408201511415611b53565b50508894959660005b848110611d60575050505050159182159261075d57602093611d1c913691612dfe565b838151910120907fbd6e57133956b4a3944b483a9e595b4aab16071cf15a39384fdb1b7015865aab6040805160443581528587820152a36001600055604051908152f35b611d6a8183614051565b51611d8a611d788387614051565b51611d838487614051565b5190612ffb565b886000526001602052604060002082600052602052604060002054106117f257611dbf611db78386614051565b51828a613e3e565b876000526001602052604060002090600052602052604060002054611de48286614051565b51116117f257600101611cf9565b604051906312f6ab5960e31b82528160a48101600260048301528c602483015260a06044830152825180915260c4820190602060c48260051b8501019401916000905b828210611ef4575050611680606484015250507f00000000000000000000000000000000000000000000000000000000000000006001600160a01b031660848201526020918190038173__$1a0918a2aa2208593bb0a5d7644cd0946b$__5af49081156107ad57600091611eba575b5015611eb1575b89611962565b60009550611eab565b90506020813d602011611eec575b81611ed560209383612dc0565b8101031261025257611ee6906138e1565b8a611ea4565b3d9150611ec8565b9193509193602080611f6560019360c3198a82030186528851908151815283820151848201526040820151604082015260a0611f54611f42606085015160c0606086015260c0850190612fba565b60808501518482036080860152612fba565b9201519060a0818403910152612fba565b96019201920185939192611e35565b94989092939596976000985b86518a101561200f57611f938a88614051565b519860005b60408b0151805182101561200057908b611fb482600194614051565b516000602082015112611fee575b6000604082015112611fd7575b505001611f98565b6020611fe7920151905190613095565b8b8f611fcf565b611ffb8251825190613095565b611fc2565b50506001909a01999850611f80565b95509591975095929791976080880151604051906328583d4560e21b82528160e48101600160048301526006602483015260026044830152600360648301528a608483015260e060a48301528251809152610104906020828401928260051b8501019401916000905b8282106121c7575050507f00000000000000000000000000000000000000000000000000000000000000006001600160a01b031660c4830152506020918190038173__$1a0918a2aa2208593bb0a5d7644cd0946b$__5af49081156107ad5760009161218d575b5015612184575b94969095600098929398975b608083015180518a1015612174578961210f919b9896999b614051565b5195600097606088019960208901995b8b51805182101561215c57906121568c61214c8d61213f85600197614051565b519283915190519061533b565b8d518d519061533b565b0161211f565b50919c6001909c019b9a509698509096506120f29050565b5097509794919592939589611955565b600093506120e6565b90506020813d6020116121bf575b816121a860209383612dc0565b81010312610252576121b9906138e1565b8a6120df565b3d915061219b565b9193509193610103198682030182528451906101008101825182526020830151602083015260408301519061010060408401528151809152602061012084019201906000905b8082106122b3575050506060830151908281036060840152602080835192838152019201906000905b80821061229b575050508260209260e0806122866122638796608060019a01518682036080880152612fba565b888060a01b0360a08701511660a086015260c086015185820360c0870152612fba565b93015191015296019201920185939192612078565b90919260208060019286518152019401920190612236565b909192602060a06001926080875180518352848101518584015260408101516040840152606081015160608401520151608082015201940192019061220d565b8061231661230360019386614051565b5161230e8389614051565b51908c613eca565b01611730565b604084838801031261025257604060208092825161233981612d0b565b61234288612f25565b815282880135838201528152019401939050611495565b602060609161236a8688018561391f565b8152019101906113ec565b60c08285870103126102525760405161238d81612d5c565b8235815261239d60208401612f25565b602082015260408301356001600160601b03811690036102525760408381013590820152606083013560ff811690036102525760c091602091606085013560608201526080850135608082015260a085013560a0820152815201910190611349565b6001600160401b0382351161025257602090819061242d8787018835890160c08101350186350184016139be565b8152019101906112ab565b81356001600160401b0381116102525760c08735880160a081013501820187890103601f190112610252576040519061247082612d5c565b8735880160a08101350181016020818101358452604080830135918501919091526060820135908401526001600160401b0360809091013511610252576124cd88880189358a0160a0810135018301608081013501602001612e35565b60608301526001600160401b0360a089358a01818101350183010135116102525761250e878901602060a08b358c0181810135018501908101350101612e35565b60808301526001600160401b038835890160a081013501820160c00135116102525760209283928392612557908a8c01908c358d0160a0810135010160c0810135018501612e35565b60a0820152815201920191905061120b565b81356001600160401b0381116102525761010087358801608081013501820187890103601f19011261025257604051906001600160401b036101008301908111908311176127f35761010082016040908152602060808a358b01908101350183018181013585529182013590840152606001356001600160401b0381116102525788880189358a0160808101350183018201603f011215610252578835890160808101350182018101602001359061262082613908565b9161262e6040519384612dc0565b808352602083018b8b018c358d016080810135018601840160a084020160400111610252578b358c0160808101350185018301604001905b8b8d803581016080810135018801860160a086020160400184106127a15750505050506040840191909152506001600160401b03608089358a0181810135018301013511610252576126ce878901602060808b358c0181810135018501908101350101613951565b60608301526001600160401b0388358901608081013501820160a00135116102525761271088880189358a01608081013501830160a081013501602001612e35565b608083015261272f60c08260808b358c0101358b358c01010101612f25565b60a08301526001600160401b0388358901608081013501820160e001351161025257602092839283926101009061277b8b8d018d358e01608081013501830160e0810135018701612e35565b60c08401528b358c0160808101350101013560e08201528152919093019201905061116a565b60a091849101031261025257602060a0916040516127be81612d41565b843581528285013583820152604085013560408201526060850135606082015260808501356080820152815201910190612666565b634e487b7160e01b600052604160045260246000fd5b81356001600160401b0381116102525760a087358801606081013501820187890103601f190112610252576040519061284182612d41565b6020606089358a01818101350183018281013585526040808201359386019390935280820135928501929092526080820135908401526001600160401b0360a0909101351161025257602092839283926128b1908a8c01908c358d016060810135010160a0810135018501612e35565b608082015281520192019190506110c9565b81356001600160401b03811161025257606086358701604081013501820186880103601f19011261025257604051906128fb82612d26565b6020604088358901818101350183018281013585529081013591840191909152606001356001600160401b038111610252578787018835890160408101350183018201603f0112156102525787358801604081013501820181016020013561296281613908565b926129706040519485612dc0565b81845260208401908a8a018b358c0160408181013590910183018601600686901b0101116102525760408b358c0181810135018201850101915b8a8c60408660061b88868385358601013585358601010101010185106129e757505050505050509181602093604085940152815201910190611029565b60409185910103126102525760206040918251612a0381612d0b565b8535815282860135838201528152019201916129aa565b60608060208093612a2d898b018761391f565b815201930192915050610f89565b6040838688010312610252576040602080928251612a5881612d0b565b8635815282870135838201528152019301929050610ef0565b508115610df5565b9050612a9591925060403d6040116107a6576107988183612dc0565b91909186610dec565b9091506020813d602011612aca575b81612aba60209383612dc0565b8101031261025257519085610d7f565b3d9150612aad565b3461025257612ae036612eb6565b9060005260076020526040600020906000526020526020604060002054604051908152f35b34610252576020610ca1612b1836612eb6565b90613fc7565b3461025257612b2c36612eb6565b9060005260056020526040600020906000526020526020604060002054604051908152f35b346102525760203660031901126102525760043560005260086020526020604060002054604051908152f35b34610252576000366003190112610252576040517f00000000000000000000000000000000000000000000000000000000000000006001600160a01b03168152602090f35b34610252576000366003190112610252576020604051600080516020615efc8339815191528152f35b34610252576000366003190112610252576020604051600080516020615f1c8339815191528152f35b34610252576020366003190112610252576004356001600160401b03811161025257612c5e6020612c4b6080933690600401612e35565b8160405193828580945193849201612e53565b810160028152030190208054906001810154906003600282015491015491604051938452602084015260408301526060820152f35b3461025257610973612ca436612e9c565b91613640565b34610252576040366003190112610252576004356001600160401b038111610252576020612c4b612cdf923690600401612e35565b810160038152030190206024356000526020526040806000206001815491015482519182526020820152f35b604081019081106001600160401b038211176127f357604052565b606081019081106001600160401b038211176127f357604052565b60a081019081106001600160401b038211176127f357604052565b60c081019081106001600160401b038211176127f357604052565b6001600160401b0381116127f357604052565b608081019081106001600160401b038211176127f357604052565b602081019081106001600160401b038211176127f357604052565b601f909101601f19168101906001600160401b038211908210176127f357604052565b6001600160401b0381116127f357601f01601f191660200190565b929192612e0a82612de3565b91612e186040519384612dc0565b829481845281830111610252578281602093846000960137010152565b9080601f8301121561025257816020612e5093359101612dfe565b90565b60005b838110612e665750506000910152565b8181015183820152602001612e56565b6020612e8f918160405193828580945193849201612e53565b8101600281520301902090565b606090600319011261025257600435906024359060443590565b6040906003190112610252576004359060243590565b9181601f84011215610252578235916001600160401b038311610252576020838186019501011161025257565b600435906001600160a01b038216820361025257565b602435906001600160a01b038216820361025257565b35906001600160a01b038216820361025257565b600954811015612f5857600960005260206000209060011b0190600090565b634e487b7160e01b600052603260045260246000fd5b8054821015612f585760005260206000209060011b0190600090565b9181601f84011215610252578235916001600160401b038311610252576020808501948460051b01011161025257565b90602091612fd381518092818552858086019101612e53565b601f01601f1916010190565b60001981146103845760010190565b9190820391821161038457565b9190820180921161038457565b906130195760018160008093550155565b634e487b7160e01b600052600060045260246000fd5b8054906000908181558261304257505050565b6001906001600160ff1b0384168403613081578252602082209260011b8301925b8381106130705750505050565b808360029255838382015501613063565b634e487b7160e01b83526011600452602483fd5b600081815260049260206004815260409384842083855282528484209586549081156132d4578286526005845286862085875284528686205497828910156132cb575b90838752600191600186528888208789528652888820548389905b613143575b505050505086101561311557835260058152838320918352522055565b61314195508084526005825284842083855282528385812055835260048152838320918352522061302f565b565b858c929394959c10806132c2575b156132ba57906131628c9392612fdf565b9161316d8286612f6e565b50908482019182549586156132a55750811561329c575491906131c9908c906131c3908c908981101561328f576131be81809581945b6131ae838383613e3e565b6131b983838d613eca565b613f22565b612fee565b96612fee565b906131d5828254612fee565b918061325a57508c90558d83018084116132475761323d928f969594928f8f8f94928f938f9493606093600080516020615ebc833981519152958251948552840152820152a46132258b8a613f65565b6132386132328288612f6e565b90613008565b612fdf565b9b5b9493926130f3565b634e487b7160e01b8d526011885260248dfd5b849f9695948f8e94600080516020615ebc833981519152928f928f95606094818e9b99558251948552840152820152a461323f565b6131be8a809581946131a3565b5050509a6130f8565b95505092916132b49150612fdf565b9b61323f565b819b506130f8565b50878110613151565b975085976130d8565b5050835260058152838320918352529081205550565b600081815260049260206004815260409384842083855282528484209586549081156132d45782865260058452868620858752845286862054978289101561348c575b90838752600191600186528888208789528652888820548389905b61336957505050505086101561311557835260058152838320918352522055565b858c929394959c1080613483575b156132ba57906133888c9392612fdf565b916133938286612f6e565b509084820191825495861561346e5750811561329c575491906133d3908c906131c3908c908981101561328f576131be81809581946131ae838383613e3e565b906133df828254612fee565b918061343957508c90558d83018084116132475761342f928f969594928f8f8f94928f938f9493606093600080516020615ebc833981519152958251948552840152820152a46132258b8a613f65565b9b5b949392613348565b849f9695948f8e94600080516020615ebc833981519152928f928f95606094818e9b99558251948552840152820152a4613431565b955050929161347d9150612fdf565b9b613431565b50878110613377565b9750859761332d565b600081815260049260206004815260409384842083855282528484209586549081156132d457828652600584528686208587528452868620549782891015613637575b90838752600191600186528888208789528652888820548389905b61351457505050505086101561311557835260058152838320918352522055565b858c929394959c108061362e575b156132ba57906135338c9392612fdf565b9161353e8286612f6e565b50908482019182549586156136195750811561329c5754919061357e908c906131c3908c908981101561328f576131be81809581946131ae838383613e3e565b9061358a828254612fee565b91806135e457508c90558d8301808411613247576135da928f969594928f8f8f94928f938f9493606093600080516020615ebc833981519152958251948552840152820152a46132258b8a613f65565b9b5b9493926134f3565b849f9695948f8e94600080516020615ebc833981519152928f928f95606094818e9b99558251948552840152820152a46135dc565b95505092916136289150612fdf565b9b6135dc565b50878110613522565b975085976134d8565b8060005260046020526040600020826000526020526040600020805490811561389e578260005260056020526040600020846000526020526040600020549482861015613895575b8360005260019060016020526040600020866000526020528160406000205491801560001461388b5750919291506000195b6000845b61372b575b50505050508310156136eb576000526005602052604060002090600052602052604060002055565b809192506000526005602052604060002082600052602052600060408120556000526004602052604060002090600052602052613141604060002061302f565b8589939495991080613882575b1561387a5761374690612fdf565b916137518186612f6e565b509089820154948a86156138655750801561385d57906137a26131b96131c38c86956131be8e839c9b9a99549c8d918d851060001461385157849788809781955b61379d838387613e3e565b613eca565b916137b0838d830154612fee565b928061381857508b60009101558a810191828211610384578b968a600080516020615ebc83398151915260608e9461380c97604051918252600060208301526040820152a46137ff8a8a613f65565b6132386132328289612f6e565b985b94939190916136be565b600080516020615ebc83398151915260608e999395859f96958f96948f95898291015560405192835260208301526040820152a461380e565b8d978880978195613792565b5098506136c3565b95509392915061387490612fdf565b9861380e565b8298506136c3565b50818110613738565b90509291926136ba565b60009550613688565b5050909150600052600560205260406000209060005260205260006040812055565b908060209392818452848401376000828201840152601f01601f1916010190565b5190811515820361025257565b919082604091031261025257612e506020835193016138e1565b6001600160401b0381116127f35760051b60200190565b91908260609103126102525760405161393781612d26565b604080829480358452602081013560208501520135910152565b9080601f8301121561025257602090823561396b81613908565b936139796040519586612dc0565b81855260208086019260051b82010192831161025257602001905b8282106139a2575050505090565b81358152908301908301613994565b3590811515820361025257565b9190916101a09081818503126102525760408051909490926001600160401b03908401818111858210176127f35786528395833585526020808501358187015281850135828701526060918286013583880152608086013584811161025257860192808487031261025257815193613a3585612d26565b803586811161025257810187601f8201121561025257803590613a5782613908565b91613a6486519384612dc0565b808352868084019160051b830101918a83116102525787809101915b838310613cd457505050508552838101358681116102525787613aa4918301613951565b84860152828101359086821161025257019286601f8501121561025257833593613acd85613908565b94613ada85519687612dc0565b808652828087019160051b8301019189831161025257838101915b838310613bcd57505050505050820152608085015260a08301358181116102525782613b22918501612e35565b60a085015260c08301358181116102525782613b3f918501612e35565b60c085015260e08301358181116102525782613b5c918501612e35565b60e0850152610100808401358281116102525783613b7b918601612e35565b90850152610120918284013591821161025257613b99918401612e35565b90830152610140613bab8183016139b1565b908301526101608082013590830152613bc86101808092016139b1565b910152565b82358a8111610252578201808c03601f1901871361025257875190613bf182612d26565b613bfc878201612f25565b8252888101358c8111610252578d88613c1792840101612e35565b8783015287810135908c821161025257018c603f82011215610252578c87820135613c4181613908565b92613c4e8c519485612dc0565b8184528b8b8b8601930282010192831161025257918f9593918b8d8c979501975b838910613c8c57505050508394508a820152815201920191613af5565b88949698919293959750031261025257898b918d805190613cac82612d26565b85358252838601358483015280860135908201528152019101949290918f928b8b9694613c6f565b8235815291810191889101613a80565b95939194929094604051956020870197600080516020615efc833981519152895246604089015230606089015260018060a01b0316608088015260a087015260c086015260e085015261010084015261012083015261014090818301528152610160810181811060018060401b038211176127f35760405251902090565b9035601e1982360301811215610252570160208101919035906001600160401b038211610252578160051b3603831361025257565b9080821015613dbb57604051916020830152604082015260408152612e5081612d26565b90604051916020830152604082015260408152612e5081612d26565b600954600160401b8110156127f357806001613df69201600955612f39565b613019578151602083015160a01b6001600160a01b0319166001600160a01b039190911617815560409190910151600191909101805460ff191660ff92909216919091179055565b90918015613ec557600090828252602091600183526040918282208683528452808383205410613eb4579181600080516020615edc833981519152949386839452600185528282208883528552613e99838320918254612fee565b905585815260018452818120878252845220549051908152a3565b8251632fd8225d60e21b8152600490fd5b505050565b90918015613ec55760206040600080516020615edc83398151915292600090858252600184528282208783528452613f06838320918254612ffb565b90558481526001835281812086825283522054604051908152a3565b90918015613ec5576000928284526006602052604084208185526020526040842054908282106117f2576040938552600660205283852090855260205203912055565b90600090828252600860205260408220805480613fba575b50506007602052604082208183526020526040822054613f9c57505050565b60409282526007602052828220908252602052206000198154019055565b6000190190553880613f7d565b600091818352600160205260408320818452602052604083205491835260066020526040832090835260205260408220549081811160001461400d57612e509250612fee565b505090565b9061401c82613908565b6140296040519182612dc0565b828152809261403a601f1991613908565b0190602036910137565b805115612f585760200190565b8051821015612f585760209160051b010190565b90815180825260208080930193019160005b828110614085575050505090565b835185529381019392810192600101614077565b9060208083528151906140b86060926060838701526080860190614065565b8184015190601f199460409186888203018389015284808551928381520194019060005b8181106141bd5750505081015195606086828503019101528551938483528383019184808760051b8601019801966000945b8786106141215750505050505050505090565b90919293949596979882828203018652878a5160018060a01b0381511683528561415683830151898587015289860190612fba565b91015192868183039101528180845192838152019301906000905b888183106141945750505050806001929b0196019601949796959392919061410e565b8395896001949693955180518352848101518584015201518a82015201940192018a9291614171565b8251865294860194918601916001016140dc565b926141f3612e5095936142019315158652608060208701526080860190612fba565b908482036040860152612fba565b916060818403910152612fba565b9061014052614228610140515160006101805282613d97565b610160526101405161018001805115614ae35760408051610160515160209182818161016051019361425b818387612e53565b810160028152030190205415614ad2578261014051019061428c838351928651809381926101605151928391612e53565b81016002815203019020541015614ac15761012061014051019081515115614ab05782905191608061014051015185516142db816142cd8682019485614099565b03601f198101835282612dc0565b51902060e06101405101518381519101209151936143776101405151918851968795869563bba8d94760e01b875260018060a01b037f00000000000000000000000000000000000000000000000000000000000000001660048801523060248801526101006044880152614356610104880161016051612fba565b936064880152608487015260a48601526003198583030160c4860152612fba565b9060e4830152038173__$1a0918a2aa2208593bb0a5d7644cd0946b$__5af4918215614aa3576101805192614a66575b505015614a5657505b42815115614a27575b604051600161016051516143d4818460206101605101612e53565b82019160028352602081610180519403019020015560405160026101605151614404818460206101605101612e53565b820191818352602081610180519403019020015560405160036101605151614433818460206101605101612e53565b820191600283526020816101805194030190200155429042925115614a08575b50610140515160806101405101519360a06101405101519460c061014051015195602082015151825151036146ea57838310938415614a015783945b156149f25794929097969593955b6144a78688613d97565b986020840151516144b781613908565b906144c56040519283612dc0565b8082526144d181613908565b601f19013660208401378160a052610180515b81811061494957505050906144fb61450492615861565b61010052615861565b9161018051985b604082015180518b1015614731578a61452391614051565b516101205261010051518a10156147155761456c86866145468d61010051614051565b515b87518e908110156146fc5761455d9089614051565b51905b6101205160a051615a7b565b60e05260e0515160a05151036146ea576101805160c0525b6040610120510151805160c05110156146635760c0516145a391614051565b51805160a051511115610227576145bd815160e051614051565b51906145cc815160a051614051565b5161018051811283828103128116908483810313901516176146495761018051818403138061463a575b610227576101805181840312928361461e575b50505061022757600160c0510160c052614584565b60209293509061462e9103615850565b91015110388080614609565b506040820151818403116145f6565b634e487b7160e01b61018051526011600452602461018051fd5b5090919293949596610180516080525b60a0515160805110156146d2576146936080516040610120510151615c73565b15806146ac575b61022757600160805101608052614673565b506146bb60805160e051614051565b516146ca60805160a051614051565b51141561469a565b60e05160a0526001909901989695949392919061450b565b6040516329be7c4760e11b8152600490fd5b5060405161470981612da5565b61018051815290614560565b61456c868660405161472681612da5565b610180518152614548565b5096959450969250965050610180515b60208601518051821015614861578161475e602093600193614051565b518661476c8360a051614051565b5191614786868b8160405193828580945193849201612e53565b8101600381520301902081610180515286526040610180512092835461018051821315600014614801576147c2929350806147f0575b50615850565b806147de575b50505b6101805180825590830155019050614741565b6147e991888a615d0b565b38806147c8565b6147fb90848b613eca565b386147bc565b90818110614843576148199293508161483857612fee565b80614826575b50506147cb565b614831918989615d0b565b388061481f565b6131be82858d613eca565b614855916131be828561485c97613eca565b9088613eca565b6147cb565b5050949350505050610120610140510151511515600014614913576040610140510151604051602081610160515161489f8183856101605101612e53565b81016002815203019020555b61014051516020610140510151917f6d46d52b5fda2a9055705ba74bf5e95807cfa39decf819cdfeaa14f9b2ba346a6040606061014051015160806101405101518251614900816142cd602082019485614099565b51902082519182526020820152a4600190565b604051602081610160515161492e8183856101605101612e53565b810160028152030190206149428154612fdf565b90556148ab565b6149608160209d9e97999b9d899d9b9d0151614051565b51610180515b8281106149d5575090600191604051602081816149898c83815193849201612e53565b810160038152030190209061018051526020526149bb826040610180512001546149b4838b51614051565b51906154c5565b6149c58286614051565b52019b9a9896949b9997996144e4565b816149e48260208c0151614051565b51146146ea57600101614966565b5082949290979695939561449d565b809461448f565b6101408051015190919015614a1f57505b38614453565b915090614a19565b5060036040516020816101605151614a458183856101605101612e53565b8101600281520301902001546143b9565b51631bd18a1960e31b8152600490fd5b90809250813d8311614a9c575b614a7d8183612dc0565b81010312614a9557614a8e906138e1565b38806143a7565b6101805180fd5b503d614a73565b83513d61018051823e3d90fd5b8351631bd18a1960e31b8152600490fd5b8251633485c51360e21b8152600490fd5b82516388d0662b60e01b8152600490fd5b60016040516020816101605151614b008183856101605101612e53565b810160028152030190200154801561090b576020610140510151906020610140805101511515600260405183816101605151614b428183856101605101612e53565b810184815203019020015493614bb76060610140510151614ba560e061014051015161010061014051015192604051998a978897637fa40de560e01b8952600489015260248801526044870152606486015260c0608486015260c4850190612fba565b8381036003190160a485015290612fba565b038173__$1a0918a2aa2208593bb0a5d7644cd0946b$__5af4918215614dbd576101805192614f29575b5003614f1757610140516101200180515115614e05576040610140510180516040516020816101605151614c1b8183856101605101612e53565b8101600281520301902054101561022757805160206101405101511015610227576020906080610140510151604051614c5b816142cd8682019485614099565b51902090519251906101405151614ce46040519586948594632775acd960e21b865260018060a01b037f000000000000000000000000000000000000000000000000000000000000000016600487015230602487015260e06044870152614cc860e4870161016051612fba565b92606487015260848601526003198583030160a4860152612fba565b9060c4830152038173__$1a0918a2aa2208593bb0a5d7644cd0946b$__5af4908115614dbd576101805191614dcb575b501561075d5761014080510151151560a06101405101519060c06101405101516101006101405101519273__$1a0918a2aa2208593bb0a5d7644cd0946b$__3b15614a9557614d7c604051948593849363065339c960e21b85526101805196600486016141d1565b038173__$1a0918a2aa2208593bb0a5d7644cd0946b$__5af48015614dbd57614da6575b506143b0565b614daf90612d77565b61018051614a955738614da0565b6040513d61018051823e3d90fd5b90506020813d602011614dfd575b81614de660209383612dc0565b81010312614a9557614df7906138e1565b38614d14565b3d9150614dd9565b50610140805101511515610140515183101480614ee7575b6102275760606101405101516080610140510151604051614e46816142cd602082019485614099565b519020036102275761014080510151151560a06101405101519060c061014051015160e06101405101519273__$1a0918a2aa2208593bb0a5d7644cd0946b$__3b15614a9557614eaf604051948593849363065339c960e21b85526101805196600486016141d1565b038173__$1a0918a2aa2208593bb0a5d7644cd0946b$__5af48015614dbd57614ed857506143b0565b614ee190612d77565b38614da0565b5060026040516020816101605151614f058183856101605101612e53565b81018481520301902001544310614e1d565b604051630cba69cb60e01b8152600490fd5b9091506020813d602011614f55575b81614f4560209383612dc0565b81010312614a9557519038614be1565b3d9150614f38565b90604051614f6a81612d26565b82546001600160a01b038116825260a01c602082015260019092015460ff166040830152565b929060c0949260018060a01b0380921685521660208401526040830152606082015260a06080820152600060a08201520190565b6001600160a01b03918216815291166020820152604081019190915260600190565b90815180156000146153365750335b60a08301805115610975576060840160ff8151166020908187019060018060a01b03908183511660409960808b8201938c60018060601b039485875116908251928b840194855283015260608201526060815261505181612d8a565b5190209101968b8851801560001461530c57505081600052600a87528b60002054808952156152b9575b60ff91505b5116806151c757505050808251169288519181836024816370a0823160e01b988982523060048301525afa9283156151bc5760009361518c575b50836150f96150eb8c611bbb858798995116918c5190519384916323b872dd60e01b8a840152303360248501614fc4565b03601f198101845283612dc0565b51169360248a518096819382523060048301525afa90811561518157600091615151575b506151289250612fee565b80835215615140576131419394505b51905191613eca565b8451632fd8225d60e21b8152600490fd5b905082813d831161517a575b6151678183612dc0565b810103126102525761512891513861511d565b503d61515d565b88513d6000823e3d90fd5b9180935082813d83116151b5575b6151a48183612dc0565b8101031261025257829151926150ba565b503d61519a565b8a513d6000823e3d90fd5b9194509290600181036152425750511691511690803b156102525786516323b872dd60e01b815291600091839182908490829061520990303360048501614fc4565b03925af1801561523757613141959650615228575b5060018252615137565b61523190612d77565b3861521e565b86513d6000823e3d90fd5b600214615259575b50505050613141939450615137565b51169151168351823b156102525761528c92600092838a51809681958294637921219560e11b8452303360048601614f90565b03925af18015615237576131419596506152aa575b8594818061524a565b6152b390612d77565b386152a1565b6152e6858751168d858751169060ff855116918151936152d885612d26565b84528b840152820152613dd7565b60095460001981019081116103845760ff92818a52600052600a88528c6000205561507b565b60ff93509061531e611b088593612f39565b878151168952858a8201511687520151168152615080565b614ff5565b90916000908282526020600581526040938484208385528252848420548185526004835285852084865283528585209081546000199888835b83811061540357505050811091826153ea575b5050615396575b505050505050565b60001986036153d6576153cb95508084526005825284842083855282528385812055835260048152838320918352522061302f565b38808080808061538e565b8352600581528383209183525220556153cb565b60019250906153f891612f6e565b500154153880615387565b8883888c8b615412868c612f6e565b50916001809301549283156154b5578c8661542d8a83612f6e565b50540361549157927f0971ac81b80f99fe0089c3fbe4af4fa1148f2ce78bc6345e76b05be73500de1f949289926154678460019d97612f6e565b500155615475838988613f22565b61547f8887613f65565b8351928352820152a45b018990615374565b505050505050505090506000198b146154ad575b600190615489565b9950896154a5565b5050505050505060019150615489565b9190916000838201938412911290801582169115161761038457565b919091825190602080850151906154f884846132ea565b60005b60408088019081518051841015615842576155248461551b818894614051565b51519451614051565b510151906155328387613d97565b61553c8989613fc7565b831161583357856155599181845193828580945193849201612e53565b8101600381520301902088600052855280600020615578838a8a613e3e565b615583838254612ffb565b93848255808810938461581c575b5083156158155787935b1561580c57929390935b8251936155b185612d0b565b8a6001968787528960005b8181106157c957505083600052878a5285600020826000528a5285600020549083600052888b5286600020836000528b528887600020549101549187519361560385612d41565b84528b8401528683015260609485830152608082015261562286614044565b5261562c85614044565b5083519461563986612d0b565b8686528860005b8181106157955750506156566104c78385613d97565b549185519361566485612d8a565b845289840152848301528282015261567b84614044565b5261568583614044565b5081519386850187865284518091528386019288858360051b8901019601946000905b8382106156e6575050505050505081600193927f784575545124eef27f8fcc1472fb5f2483beb9cc23e6fe3dbf588eb7bd501f7c920390a1016154fb565b9091848b829596979899603f198c8203018a528a51906080810191805182528381015184830152868101519260808884015283518091528460a084019401906000905b80821061574e57505050948084959601519101529901970192019094939291946156a8565b939692959197509360a090608089518051835284810151858401528b8101518c8401528d8082015190840152015160808201520196019201928f93928996938c9693615729565b86989598516157a381612d8a565b60008152600083820152898882015260008a82015282828a010152018990979497615640565b9091925086989598516157db81612d41565b60008152600083820152600088820152600060608201526000608082015282828a0101520190898d929895986155bc565b509286926155a5565b809361559b565b61582b600184019182546154c5565b905538615591565b50600099505050505050505050565b506001985050505050505050565b600160ff1b81146103845760000390565b8051156159be576040805163e3af37e360e01b8152602060048201819052600093849083908190615896906024830190612fba565b0381305afa91829185936158c2575b50506158bc575051906158b782612da5565b815290565b91505090565b909192503d8086843e6158d58184612dc0565b820181838203126159ba5782516001600160401b03938482116159b657019080601f830112156159b25781519061590b82613908565b9461591888519687612dc0565b828652848087019360051b850101938285116159ae57858101935b85851061594957505050505050509038806158a5565b84518381116159aa57820184603f820112156159aa578781015161596c81612de3565b916159798d519384612dc0565b818352868d83830101116159a6579161599b8a949285948f8685019101612e53565b815201940193615933565b8d80fd5b8b80fd5b8980fd5b8680fd5b8780fd5b8580fd5b506040516159cb81612da5565b6000815290565b3d156159fd573d906159e382612de3565b916159f16040519384612dc0565b82523d6000602084013e565b606090565b6020908181840312610252578051906001600160401b03821161025257019180601f84011215610252578251615a3781613908565b93615a456040519586612dc0565b818552838086019260051b820101928311610252578301905b828210615a6c575050505090565b81518152908301908301615a5e565b90919260018060a01b03808451169560405197602098898101906349fbda2960e01b825260048152615aac81612d0b565b6000998a92839251915afa615abf6159d2565b81615c66575b81615c43575b50615b8357505091615b45615b139287988695615b2697999899511695015190615b36604051998a9889978897630c6191f960e11b8952608060048a01526084890190614065565b60031995868983030160248a0152612fba565b9084878303016044880152612fba565b91848303016064850152612fba565b03915afa918215615b77578092615b5b57505090565b612e5092503d8091833e615b6f8183612dc0565b810190615a02565b604051903d90823e3d90fd5b908891615bf88998615bc696615be986615c11988c51169b015192615bd96040519a8b998a019c8d63270c5f3760e21b905260c060248c015260e48b0190614065565b60231995868b83030160448c0152612fba565b90848983030160648a0152612fba565b91868303016084870152612fba565b9160a484015260c483015203601f198101835282612dc0565b51915afa90615c1e6159d2565b9115615c36579081612e509282518301019101615a02565b8151156102275781519101fd5b90508981805181010312615c625789615c5c91016138e1565b38615acb565b8880fd5b9050898151101590615ac5565b9060005b8251811015615ca25781615c8b8285614051565b515114615c9a57600101615c77565b505050600190565b505050600090565b600091829182602083519301915af1615cc16159d2565b90156117f2578051908115615d075760208210918215615ce4575b50506117f257565b8192509060209181010312610252576020615cff91016138e1565b153880615cdc565b5050565b9091928015615eb557615d4090615d228584613495565b615d2c8584613fc7565b818110615eaf5750805b81615e9957612fee565b80158015615d50575b5050505050565b8315610227578383146102275761097557816000526020906004825260409081600020866000528352816000208251615d8881612d0b565b868152848101918383528054600160401b8110156127f357615daf91600182018155612f6e565b929092613019576001915183555191015583600052600483528160002086600052835281600020546000198101908111610384577fae767eeb0c57abd46e2e0b422895ba3b89372fbd0510a58f00d996faf66f027d938115615e7c575b85600052600681528360002088600052815283600020615e2d848254612ffb565b9055856000526008815283600020615e458154612fdf565b905585600052600781528360002088600052815283600020615e678154612fdf565b90558351928352820152a43880808080615d49565b856000526005815283600020886000528152600084812055615e0c565b615ea4828786613e3e565b6131be828787613eca565b90615d36565b5050505056fe1ffe8e6348fe244a8988797c02b57999821149e7b25c9f93a85c77819efdde67ab4d21442efe134c3d0c087e2b687e9593a1c09176f498d37873210cde052c45a18590ca9739b1d76d19b9d85b6a395a7cf75acb1e21e93c88207bf9abce5ae6990f4c22d4b046a9a7d673c4a252b906cadd4f3290465e297f998c28a449652ba264697066735822122097a2b2e997ae6dcfe2b90e23f22a7183730e4d06c3e07819ed1b6bb3a239ab3564736f6c63430008180033",
  "linkReferences": {
    "contracts/Account.sol": {
      "Account": [
        {
          "length": 20,
          "start": 3863
        },
        {
          "length": 20,
          "start": 6794
        },
        {
          "length": 20,
          "start": 8252
        },
        {
          "length": 20,
          "start": 8823
        },
        {
          "length": 20,
          "start": 17725
        },
        {
          "length": 20,
          "start": 19831
        },
        {
          "length": 20,
          "start": 20138
        },
        {
          "length": 20,
          "start": 20220
        },
        {
          "length": 20,
          "start": 20284
        },
        {
          "length": 20,
          "start": 20527
        },
        {
          "length": 20,
          "start": 20591
        }
      ]
    }
  },
  "deployedLinkReferences": {
    "contracts/Account.sol": {
      "Account": [
        {
          "length": 20,
          "start": 3419
        },
        {
          "length": 20,
          "start": 6350
        },
        {
          "length": 20,
          "start": 7808
        },
        {
          "length": 20,
          "start": 8379
        },
        {
          "length": 20,
          "start": 17281
        },
        {
          "length": 20,
          "start": 19387
        },
        {
          "length": 20,
          "start": 19694
        },
        {
          "length": 20,
          "start": 19776
        },
        {
          "length": 20,
          "start": 19840
        },
        {
          "length": 20,
          "start": 20083
        },
        {
          "length": 20,
          "start": 20147
        }
      ]
    }
  }
}