{
  "_format": "hh-sol-artifact-1",
  "contractName": "Depository",
  "sourceName": "contracts/Depository.sol",
  "abi": [
    {
      "inputs": [
        {
          "internalType": "address",
          "name": "_entityProvider",
          "type": "address"
        }
      ],
      "stateMutability": "nonpayable",
      "type": "constructor"
    },
    {
      "inputs": [],
      "name": "E0",
      "type": "error"
    },
    {
      "inputs": [],
      "name": "E1",
      "type": "error"
    },
    {
      "inputs": [],
      "name": "E10",
      "type": "error"
    },
    {
      "inputs": [],
      "name": "E2",
      "type": "error"
    },
    {
      "inputs": [],
      "name": "E3",
      "type": "error"
    },
    {
      "inputs": [],
      "name": "E4",
      "type": "error"
    },
    {
      "inputs": [],
      "name": "E5",
      "type": "error"
    },
    {
      "inputs": [],
      "name": "E6",
      "type": "error"
    },
    {
      "inputs": [],
      "name": "E7",
      "type": "error"
    },
    {
      "inputs": [],
      "name": "E8",
      "type": "error"
    },
    {
      "inputs": [],
      "name": "E9",
      "type": "error"
    },
    {
      "anonymous": false,
      "inputs": [
        {
          "components": [
            {
              "internalType": "bytes32",
              "name": "left",
              "type": "bytes32"
            },
            {
              "internalType": "bytes32",
              "name": "right",
              "type": "bytes32"
            },
            {
              "components": [
                {
                  "internalType": "uint256",
                  "name": "tokenId",
                  "type": "uint256"
                },
                {
                  "internalType": "uint256",
                  "name": "leftReserve",
                  "type": "uint256"
                },
                {
                  "internalType": "uint256",
                  "name": "rightReserve",
                  "type": "uint256"
                },
                {
                  "internalType": "uint256",
                  "name": "collateral",
                  "type": "uint256"
                },
                {
                  "internalType": "int256",
                  "name": "ondelta",
                  "type": "int256"
                }
              ],
              "internalType": "struct TokenSettlement[]",
              "name": "tokens",
              "type": "tuple[]"
            },
            {
              "internalType": "uint256",
              "name": "nonce",
              "type": "uint256"
            }
          ],
          "indexed": false,
          "internalType": "struct AccountSettlement[]",
          "name": "settled",
          "type": "tuple[]"
        }
      ],
      "name": "AccountSettled",
      "type": "event"
    },
    {
      "anonymous": false,
      "inputs": [
        {
          "indexed": true,
          "internalType": "bytes32",
          "name": "sender",
          "type": "bytes32"
        },
        {
          "indexed": true,
          "internalType": "bytes32",
          "name": "counterentity",
          "type": "bytes32"
        },
        {
          "indexed": true,
          "internalType": "uint256",
          "name": "nonce",
          "type": "uint256"
        }
      ],
      "name": "CooperativeClose",
      "type": "event"
    },
    {
      "anonymous": false,
      "inputs": [
        {
          "indexed": true,
          "internalType": "bytes32",
          "name": "debtor",
          "type": "bytes32"
        },
        {
          "indexed": true,
          "internalType": "bytes32",
          "name": "creditor",
          "type": "bytes32"
        },
        {
          "indexed": true,
          "internalType": "uint256",
          "name": "tokenId",
          "type": "uint256"
        },
        {
          "indexed": false,
          "internalType": "uint256",
          "name": "amount",
          "type": "uint256"
        },
        {
          "indexed": false,
          "internalType": "uint256",
          "name": "debtIndex",
          "type": "uint256"
        }
      ],
      "name": "DebtCreated",
      "type": "event"
    },
    {
      "anonymous": false,
      "inputs": [
        {
          "indexed": true,
          "internalType": "bytes32",
          "name": "debtor",
          "type": "bytes32"
        },
        {
          "indexed": true,
          "internalType": "bytes32",
          "name": "creditor",
          "type": "bytes32"
        },
        {
          "indexed": true,
          "internalType": "uint256",
          "name": "tokenId",
          "type": "uint256"
        },
        {
          "indexed": false,
          "internalType": "uint256",
          "name": "amountPaid",
          "type": "uint256"
        },
        {
          "indexed": false,
          "internalType": "uint256",
          "name": "remainingAmount",
          "type": "uint256"
        },
        {
          "indexed": false,
          "internalType": "uint256",
          "name": "newDebtIndex",
          "type": "uint256"
        }
      ],
      "name": "DebtEnforced",
      "type": "event"
    },
    {
      "anonymous": false,
      "inputs": [
        {
          "indexed": true,
          "internalType": "bytes32",
          "name": "debtor",
          "type": "bytes32"
        },
        {
          "indexed": true,
          "internalType": "bytes32",
          "name": "creditor",
          "type": "bytes32"
        },
        {
          "indexed": true,
          "internalType": "uint256",
          "name": "tokenId",
          "type": "uint256"
        },
        {
          "indexed": false,
          "internalType": "uint256",
          "name": "amountForgiven",
          "type": "uint256"
        },
        {
          "indexed": false,
          "internalType": "uint256",
          "name": "debtIndex",
          "type": "uint256"
        }
      ],
      "name": "DebtForgiven",
      "type": "event"
    },
    {
      "anonymous": false,
      "inputs": [
        {
          "indexed": true,
          "internalType": "bytes32",
          "name": "sender",
          "type": "bytes32"
        },
        {
          "indexed": true,
          "internalType": "bytes32",
          "name": "counterentity",
          "type": "bytes32"
        },
        {
          "indexed": true,
          "internalType": "uint256",
          "name": "nonce",
          "type": "uint256"
        },
        {
          "indexed": false,
          "internalType": "bytes32",
          "name": "initialProofbodyHash",
          "type": "bytes32"
        },
        {
          "indexed": false,
          "internalType": "bytes32",
          "name": "finalProofbodyHash",
          "type": "bytes32"
        }
      ],
      "name": "DisputeFinalized",
      "type": "event"
    },
    {
      "anonymous": false,
      "inputs": [
        {
          "indexed": true,
          "internalType": "bytes32",
          "name": "sender",
          "type": "bytes32"
        },
        {
          "indexed": true,
          "internalType": "bytes32",
          "name": "counterentity",
          "type": "bytes32"
        },
        {
          "indexed": true,
          "internalType": "uint256",
          "name": "nonce",
          "type": "uint256"
        },
        {
          "indexed": false,
          "internalType": "bytes32",
          "name": "proofbodyHash",
          "type": "bytes32"
        },
        {
          "indexed": false,
          "internalType": "bytes",
          "name": "starterInitialArguments",
          "type": "bytes"
        },
        {
          "indexed": false,
          "internalType": "bytes",
          "name": "starterIncrementedArguments",
          "type": "bytes"
        }
      ],
      "name": "DisputeStartedV2",
      "type": "event"
    },
    {
      "anonymous": false,
      "inputs": [
        {
          "indexed": true,
          "internalType": "bytes32",
          "name": "entityId",
          "type": "bytes32"
        },
        {
          "indexed": true,
          "internalType": "bytes32",
          "name": "hankoHash",
          "type": "bytes32"
        },
        {
          "indexed": false,
          "internalType": "uint256",
          "name": "nonce",
          "type": "uint256"
        },
        {
          "indexed": false,
          "internalType": "bool",
          "name": "success",
          "type": "bool"
        }
      ],
      "name": "HankoBatchProcessed",
      "type": "event"
    },
    {
      "anonymous": false,
      "inputs": [
        {
          "indexed": true,
          "internalType": "bytes32",
          "name": "entity",
          "type": "bytes32"
        },
        {
          "indexed": true,
          "internalType": "uint256",
          "name": "tokenId",
          "type": "uint256"
        },
        {
          "indexed": false,
          "internalType": "uint256",
          "name": "newBalance",
          "type": "uint256"
        }
      ],
      "name": "ReserveUpdated",
      "type": "event"
    },
    {
      "anonymous": false,
      "inputs": [
        {
          "indexed": true,
          "internalType": "bytes32",
          "name": "hashlock",
          "type": "bytes32"
        },
        {
          "indexed": true,
          "internalType": "bytes32",
          "name": "revealer",
          "type": "bytes32"
        },
        {
          "indexed": false,
          "internalType": "bytes32",
          "name": "secret",
          "type": "bytes32"
        }
      ],
      "name": "SecretRevealed",
      "type": "event"
    },
    {
      "anonymous": false,
      "inputs": [
        {
          "indexed": true,
          "internalType": "address",
          "name": "tower",
          "type": "address"
        },
        {
          "indexed": true,
          "internalType": "bytes32",
          "name": "entityId",
          "type": "bytes32"
        },
        {
          "indexed": true,
          "internalType": "bytes32",
          "name": "counterentity",
          "type": "bytes32"
        },
        {
          "indexed": false,
          "internalType": "uint256",
          "name": "finalNonce",
          "type": "uint256"
        },
        {
          "indexed": false,
          "internalType": "uint256",
          "name": "appointmentSequence",
          "type": "uint256"
        }
      ],
      "name": "WatchtowerCounterDisputeExecuted",
      "type": "event"
    },
    {
      "inputs": [],
      "name": "DOMAIN_SEPARATOR",
      "outputs": [
        {
          "internalType": "bytes32",
          "name": "",
          "type": "bytes32"
        }
      ],
      "stateMutability": "view",
      "type": "function"
    },
    {
      "inputs": [],
      "name": "WATCHTOWER_COUNTER_DISPUTE_DOMAIN_SEPARATOR",
      "outputs": [
        {
          "internalType": "bytes32",
          "name": "",
          "type": "bytes32"
        }
      ],
      "stateMutability": "view",
      "type": "function"
    },
    {
      "inputs": [
        {
          "internalType": "bytes",
          "name": "",
          "type": "bytes"
        }
      ],
      "name": "_accounts",
      "outputs": [
        {
          "internalType": "uint256",
          "name": "nonce",
          "type": "uint256"
        },
        {
          "internalType": "bytes32",
          "name": "disputeHash",
          "type": "bytes32"
        },
        {
          "internalType": "uint256",
          "name": "disputeTimeout",
          "type": "uint256"
        },
        {
          "internalType": "uint256",
          "name": "disputeStartTimestamp",
          "type": "uint256"
        }
      ],
      "stateMutability": "view",
      "type": "function"
    },
    {
      "inputs": [
        {
          "internalType": "bytes32",
          "name": "",
          "type": "bytes32"
        }
      ],
      "name": "_activeDebts",
      "outputs": [
        {
          "internalType": "uint256",
          "name": "",
          "type": "uint256"
        }
      ],
      "stateMutability": "view",
      "type": "function"
    },
    {
      "inputs": [
        {
          "internalType": "bytes32",
          "name": "",
          "type": "bytes32"
        },
        {
          "internalType": "uint256",
          "name": "",
          "type": "uint256"
        }
      ],
      "name": "_activeDebtsByToken",
      "outputs": [
        {
          "internalType": "uint256",
          "name": "",
          "type": "uint256"
        }
      ],
      "stateMutability": "view",
      "type": "function"
    },
    {
      "inputs": [
        {
          "internalType": "bytes",
          "name": "",
          "type": "bytes"
        },
        {
          "internalType": "uint256",
          "name": "",
          "type": "uint256"
        }
      ],
      "name": "_collaterals",
      "outputs": [
        {
          "internalType": "uint256",
          "name": "collateral",
          "type": "uint256"
        },
        {
          "internalType": "int256",
          "name": "ondelta",
          "type": "int256"
        }
      ],
      "stateMutability": "view",
      "type": "function"
    },
    {
      "inputs": [
        {
          "internalType": "bytes32",
          "name": "",
          "type": "bytes32"
        },
        {
          "internalType": "uint256",
          "name": "",
          "type": "uint256"
        }
      ],
      "name": "_debtIndex",
      "outputs": [
        {
          "internalType": "uint256",
          "name": "",
          "type": "uint256"
        }
      ],
      "stateMutability": "view",
      "type": "function"
    },
    {
      "inputs": [
        {
          "internalType": "bytes32",
          "name": "",
          "type": "bytes32"
        },
        {
          "internalType": "uint256",
          "name": "",
          "type": "uint256"
        },
        {
          "internalType": "uint256",
          "name": "",
          "type": "uint256"
        }
      ],
      "name": "_debts",
      "outputs": [
        {
          "internalType": "bytes32",
          "name": "creditor",
          "type": "bytes32"
        },
        {
          "internalType": "uint256",
          "name": "amount",
          "type": "uint256"
        }
      ],
      "stateMutability": "view",
      "type": "function"
    },
    {
      "inputs": [
        {
          "internalType": "bytes32",
          "name": "",
          "type": "bytes32"
        },
        {
          "internalType": "uint256",
          "name": "",
          "type": "uint256"
        }
      ],
      "name": "_reserves",
      "outputs": [
        {
          "internalType": "uint256",
          "name": "",
          "type": "uint256"
        }
      ],
      "stateMutability": "view",
      "type": "function"
    },
    {
      "inputs": [
        {
          "internalType": "uint256",
          "name": "",
          "type": "uint256"
        }
      ],
      "name": "_tokens",
      "outputs": [
        {
          "internalType": "address",
          "name": "contractAddress",
          "type": "address"
        },
        {
          "internalType": "uint96",
          "name": "externalTokenId",
          "type": "uint96"
        },
        {
          "internalType": "uint8",
          "name": "tokenType",
          "type": "uint8"
        }
      ],
      "stateMutability": "view",
      "type": "function"
    },
    {
      "inputs": [
        {
          "internalType": "bytes32",
          "name": "e1",
          "type": "bytes32"
        },
        {
          "internalType": "bytes32",
          "name": "e2",
          "type": "bytes32"
        }
      ],
      "name": "accountKey",
      "outputs": [
        {
          "internalType": "bytes",
          "name": "",
          "type": "bytes"
        }
      ],
      "stateMutability": "pure",
      "type": "function"
    },
    {
      "inputs": [],
      "name": "admin",
      "outputs": [
        {
          "internalType": "address",
          "name": "",
          "type": "address"
        }
      ],
      "stateMutability": "view",
      "type": "function"
    },
    {
      "inputs": [
        {
          "components": [
            {
              "internalType": "bytes32",
              "name": "entity",
              "type": "bytes32"
            },
            {
              "internalType": "address",
              "name": "contractAddress",
              "type": "address"
            },
            {
              "internalType": "uint96",
              "name": "externalTokenId",
              "type": "uint96"
            },
            {
              "internalType": "uint8",
              "name": "tokenType",
              "type": "uint8"
            },
            {
              "internalType": "uint256",
              "name": "internalTokenId",
              "type": "uint256"
            },
            {
              "internalType": "uint256",
              "name": "amount",
              "type": "uint256"
            }
          ],
          "internalType": "struct ExternalTokenToReserve",
          "name": "params",
          "type": "tuple"
        }
      ],
      "name": "adminRegisterExternalToken",
      "outputs": [],
      "stateMutability": "nonpayable",
      "type": "function"
    },
    {
      "inputs": [
        {
          "internalType": "address",
          "name": "tower",
          "type": "address"
        },
        {
          "internalType": "bytes32",
          "name": "entityId",
          "type": "bytes32"
        },
        {
          "internalType": "bytes32",
          "name": "counterentity",
          "type": "bytes32"
        },
        {
          "internalType": "uint256",
          "name": "finalNonce",
          "type": "uint256"
        },
        {
          "internalType": "bytes32",
          "name": "finalProofbodyHash",
          "type": "bytes32"
        },
        {
          "internalType": "uint256",
          "name": "lastResortWindowBlocks",
          "type": "uint256"
        },
        {
          "internalType": "uint256",
          "name": "appointmentSequence",
          "type": "uint256"
        }
      ],
      "name": "computeWatchtowerCounterDisputeHash",
      "outputs": [
        {
          "internalType": "bytes32",
          "name": "",
          "type": "bytes32"
        }
      ],
      "stateMutability": "view",
      "type": "function"
    },
    {
      "inputs": [
        {
          "internalType": "bytes32",
          "name": "",
          "type": "bytes32"
        },
        {
          "internalType": "uint256",
          "name": "",
          "type": "uint256"
        }
      ],
      "name": "debtOutstanding",
      "outputs": [
        {
          "internalType": "uint256",
          "name": "",
          "type": "uint256"
        }
      ],
      "stateMutability": "view",
      "type": "function"
    },
    {
      "inputs": [],
      "name": "defaultDisputeDelay",
      "outputs": [
        {
          "internalType": "uint256",
          "name": "",
          "type": "uint256"
        }
      ],
      "stateMutability": "view",
      "type": "function"
    },
    {
      "inputs": [
        {
          "internalType": "bytes32",
          "name": "entity",
          "type": "bytes32"
        },
        {
          "internalType": "uint256",
          "name": "tokenId",
          "type": "uint256"
        },
        {
          "internalType": "uint256",
          "name": "maxIterations",
          "type": "uint256"
        }
      ],
      "name": "enforceDebts",
      "outputs": [],
      "stateMutability": "nonpayable",
      "type": "function"
    },
    {
      "inputs": [
        {
          "internalType": "bytes32",
          "name": "",
          "type": "bytes32"
        }
      ],
      "name": "entityNonces",
      "outputs": [
        {
          "internalType": "uint256",
          "name": "",
          "type": "uint256"
        }
      ],
      "stateMutability": "view",
      "type": "function"
    },
    {
      "inputs": [],
      "name": "entityProvider",
      "outputs": [
        {
          "internalType": "address",
          "name": "",
          "type": "address"
        }
      ],
      "stateMutability": "view",
      "type": "function"
    },
    {
      "inputs": [
        {
          "internalType": "bytes32",
          "name": "leftEntity",
          "type": "bytes32"
        },
        {
          "internalType": "bytes32",
          "name": "rightEntity",
          "type": "bytes32"
        },
        {
          "internalType": "uint256",
          "name": "tokenId",
          "type": "uint256"
        }
      ],
      "name": "getCollateral",
      "outputs": [
        {
          "internalType": "uint256",
          "name": "collateral",
          "type": "uint256"
        },
        {
          "internalType": "int256",
          "name": "ondelta",
          "type": "int256"
        }
      ],
      "stateMutability": "view",
      "type": "function"
    },
    {
      "inputs": [
        {
          "internalType": "uint256",
          "name": "tokenId",
          "type": "uint256"
        }
      ],
      "name": "getTokenMetadata",
      "outputs": [
        {
          "internalType": "address",
          "name": "contractAddress",
          "type": "address"
        },
        {
          "internalType": "uint96",
          "name": "externalTokenId",
          "type": "uint96"
        },
        {
          "internalType": "uint8",
          "name": "tokenType",
          "type": "uint8"
        }
      ],
      "stateMutability": "view",
      "type": "function"
    },
    {
      "inputs": [],
      "name": "getTokensLength",
      "outputs": [
        {
          "internalType": "uint256",
          "name": "",
          "type": "uint256"
        }
      ],
      "stateMutability": "view",
      "type": "function"
    },
    {
      "inputs": [
        {
          "internalType": "bytes32",
          "name": "entity",
          "type": "bytes32"
        },
        {
          "internalType": "uint256",
          "name": "tokenId",
          "type": "uint256"
        },
        {
          "internalType": "uint256",
          "name": "amount",
          "type": "uint256"
        }
      ],
      "name": "mintToReserve",
      "outputs": [],
      "stateMutability": "nonpayable",
      "type": "function"
    },
    {
      "inputs": [
        {
          "components": [
            {
              "internalType": "bytes32",
              "name": "entity",
              "type": "bytes32"
            },
            {
              "internalType": "uint256",
              "name": "tokenId",
              "type": "uint256"
            },
            {
              "internalType": "uint256",
              "name": "amount",
              "type": "uint256"
            }
          ],
          "internalType": "struct Depository.ReserveMint[]",
          "name": "mints",
          "type": "tuple[]"
        }
      ],
      "name": "mintToReserveBatch",
      "outputs": [],
      "stateMutability": "nonpayable",
      "type": "function"
    },
    {
      "inputs": [
        {
          "internalType": "address",
          "name": "",
          "type": "address"
        },
        {
          "internalType": "address",
          "name": "",
          "type": "address"
        },
        {
          "internalType": "uint256[]",
          "name": "",
          "type": "uint256[]"
        },
        {
          "internalType": "uint256[]",
          "name": "",
          "type": "uint256[]"
        },
        {
          "internalType": "bytes",
          "name": "",
          "type": "bytes"
        }
      ],
      "name": "onERC1155BatchReceived",
      "outputs": [
        {
          "internalType": "bytes4",
          "name": "",
          "type": "bytes4"
        }
      ],
      "stateMutability": "pure",
      "type": "function"
    },
    {
      "inputs": [
        {
          "internalType": "address",
          "name": "",
          "type": "address"
        },
        {
          "internalType": "address",
          "name": "",
          "type": "address"
        },
        {
          "internalType": "uint256",
          "name": "id",
          "type": "uint256"
        },
        {
          "internalType": "uint256",
          "name": "",
          "type": "uint256"
        },
        {
          "internalType": "bytes",
          "name": "",
          "type": "bytes"
        }
      ],
      "name": "onERC1155Received",
      "outputs": [
        {
          "internalType": "bytes4",
          "name": "",
          "type": "bytes4"
        }
      ],
      "stateMutability": "nonpayable",
      "type": "function"
    },
    {
      "inputs": [
        {
          "internalType": "uint8",
          "name": "tokenType",
          "type": "uint8"
        },
        {
          "internalType": "address",
          "name": "contractAddress",
          "type": "address"
        },
        {
          "internalType": "uint96",
          "name": "externalTokenId",
          "type": "uint96"
        }
      ],
      "name": "packTokenReference",
      "outputs": [
        {
          "internalType": "bytes32",
          "name": "",
          "type": "bytes32"
        }
      ],
      "stateMutability": "pure",
      "type": "function"
    },
    {
      "inputs": [
        {
          "internalType": "bytes",
          "name": "encodedBatch",
          "type": "bytes"
        },
        {
          "internalType": "bytes",
          "name": "hankoData",
          "type": "bytes"
        },
        {
          "internalType": "uint256",
          "name": "nonce",
          "type": "uint256"
        }
      ],
      "name": "processBatch",
      "outputs": [
        {
          "internalType": "bool",
          "name": "completeSuccess",
          "type": "bool"
        }
      ],
      "stateMutability": "nonpayable",
      "type": "function"
    },
    {
      "inputs": [
        {
          "internalType": "bytes32",
          "name": "entity",
          "type": "bytes32"
        },
        {
          "internalType": "uint256",
          "name": "tokenId",
          "type": "uint256"
        }
      ],
      "name": "spendableReserve",
      "outputs": [
        {
          "internalType": "uint256",
          "name": "",
          "type": "uint256"
        }
      ],
      "stateMutability": "view",
      "type": "function"
    },
    {
      "inputs": [
        {
          "internalType": "bytes32",
          "name": "",
          "type": "bytes32"
        }
      ],
      "name": "tokenToId",
      "outputs": [
        {
          "internalType": "uint256",
          "name": "",
          "type": "uint256"
        }
      ],
      "stateMutability": "view",
      "type": "function"
    },
    {
      "inputs": [
        {
          "internalType": "bytes32",
          "name": "packed",
          "type": "bytes32"
        }
      ],
      "name": "unpackTokenReference",
      "outputs": [
        {
          "internalType": "address",
          "name": "contractAddress",
          "type": "address"
        },
        {
          "internalType": "uint96",
          "name": "externalTokenId",
          "type": "uint96"
        },
        {
          "internalType": "uint8",
          "name": "tokenType",
          "type": "uint8"
        }
      ],
      "stateMutability": "view",
      "type": "function"
    },
    {
      "inputs": [
        {
          "internalType": "bytes32",
          "name": "entityId",
          "type": "bytes32"
        },
        {
          "components": [
            {
              "internalType": "bytes32",
              "name": "counterentity",
              "type": "bytes32"
            },
            {
              "internalType": "uint256",
              "name": "initialNonce",
              "type": "uint256"
            },
            {
              "internalType": "uint256",
              "name": "finalNonce",
              "type": "uint256"
            },
            {
              "internalType": "bytes32",
              "name": "initialProofbodyHash",
              "type": "bytes32"
            },
            {
              "components": [
                {
                  "internalType": "int256[]",
                  "name": "offdeltas",
                  "type": "int256[]"
                },
                {
                  "internalType": "uint256[]",
                  "name": "tokenIds",
                  "type": "uint256[]"
                },
                {
                  "components": [
                    {
                      "internalType": "address",
                      "name": "transformerAddress",
                      "type": "address"
                    },
                    {
                      "internalType": "bytes",
                      "name": "encodedBatch",
                      "type": "bytes"
                    },
                    {
                      "components": [
                        {
                          "internalType": "uint256",
                          "name": "deltaIndex",
                          "type": "uint256"
                        },
                        {
                          "internalType": "uint256",
                          "name": "rightAllowance",
                          "type": "uint256"
                        },
                        {
                          "internalType": "uint256",
                          "name": "leftAllowance",
                          "type": "uint256"
                        }
                      ],
                      "internalType": "struct Allowance[]",
                      "name": "allowances",
                      "type": "tuple[]"
                    }
                  ],
                  "internalType": "struct TransformerClause[]",
                  "name": "transformers",
                  "type": "tuple[]"
                }
              ],
              "internalType": "struct ProofBody",
              "name": "finalProofbody",
              "type": "tuple"
            },
            {
              "internalType": "bytes",
              "name": "leftArguments",
              "type": "bytes"
            },
            {
              "internalType": "bytes",
              "name": "rightArguments",
              "type": "bytes"
            },
            {
              "internalType": "bytes",
              "name": "starterInitialArguments",
              "type": "bytes"
            },
            {
              "internalType": "bytes",
              "name": "starterIncrementedArguments",
              "type": "bytes"
            },
            {
              "internalType": "bytes",
              "name": "sig",
              "type": "bytes"
            },
            {
              "internalType": "bool",
              "name": "startedByLeft",
              "type": "bool"
            },
            {
              "internalType": "uint256",
              "name": "disputeUntilBlock",
              "type": "uint256"
            },
            {
              "internalType": "bool",
              "name": "cooperative",
              "type": "bool"
            }
          ],
          "internalType": "struct FinalDisputeProof",
          "name": "params",
          "type": "tuple"
        },
        {
          "internalType": "uint256",
          "name": "lastResortWindowBlocks",
          "type": "uint256"
        },
        {
          "internalType": "uint256",
          "name": "appointmentSequence",
          "type": "uint256"
        },
        {
          "internalType": "bytes",
          "name": "ownerAuthorizationHanko",
          "type": "bytes"
        }
      ],
      "name": "watchtowerCounterDispute",
      "outputs": [
        {
          "internalType": "bool",
          "name": "completeSuccess",
          "type": "bool"
        }
      ],
      "stateMutability": "nonpayable",
      "type": "function"
    }
  ],
  "bytecode": "0x60c034620001e857601f620060b338819003918201601f19168301926001600160401b0392909183851183861017620001ed578160209284926040978852833981010312620001e857516001600160a01b038082169291838103620001e857600093600185551562000196576080523360a05283519160608301908111838210176200018257845282825260208201908382528483019380855260095490680100000000000000008210156200016e5760018201806009558210156200015a579160019391602084600960ff9896522090851b0192511690838060a01b0319905160a01b161781550191511660ff1982541617905551615eaf90816200020482396080518181816107bc01528181610e700152818161189a01528181611e410152818161207b01528181612c17015281816142a60152614cb1015260a0518181816101f401528181610299015281816103190152610a480152f35b634e487b7160e01b81526032600452602490fd5b634e487b7160e01b81526041600452602490fd5b634e487b7160e01b84526041600452602484fd5b845162461bcd60e51b815260206004820152602560248201527f456e7469747950726f76696465722063616e6e6f74206265207a65726f206164604482015264647265737360d81b6064820152608490fd5b600080fd5b634e487b7160e01b600052604160045260246000fdfe6101a0604052600436101561001357600080fd5b60003560e01c80630dedd62414612d1b57806310340ce314612d04578063125c2cc414612c985780633644e51514612c6f57806340530a9a14612c465780634318cdd014612c015780635fed788214612b9e5780636031680114612b775780636b79134d14612b4b5780637508b91614612b1857806378152e6a14612aff57806378bc542a14612acc5780637a4ef02514610d6857806382f437b114610d2d57806388a1cd7614610cdc578063907efb1b14610cbf57806392cf61e514610c4c5780639e8de81914610c19578063acd6f20814610be6578063b0c26ecf14610bc8578063bb2c250c14610b7a578063bc197c8114610ad3578063d19fd92e14610aa7578063e812c56914610a36578063e9e1059e1461056b578063ed70554d1461051c578063edcc1b04146104f0578063f176e326146104b6578063f23a6e61146103b8578063f43ac1fb146102c8578063f851a440146102835763fdfef2011461017d57600080fd5b3461027e5760c036600319011261027e5760405161019a81612dcd565b60043581526001600160a01b03602435818116810361027e5760208301526044356001600160601b038116810361027e57604083015260643560ff8116810361027e576060830152608435608083015260a43560a08301527f0000000000000000000000000000000000000000000000000000000000000000163314801590610265575b610253576002600054146102415761023a906002600055614fde565b6001600055005b604051633018d46b60e11b8152600490fd5b604051633485c51360e21b8152600490fd5b50617a69461415801561021e5750617a6a46141561021e565b600080fd5b3461027e57600036600319011261027e576040517f00000000000000000000000000000000000000000000000000000000000000006001600160a01b03168152602090f35b3461027e57602036600319011261027e576004356001600160401b0380821161027e573660238301121561027e57816004013590811161027e576024916060366024606085028401011161027e57337f00000000000000000000000000000000000000000000000000000000000000006001600160a01b03161480159061039f575b61025357821561038d5760005b83811061036057005b818102830190606482013591821561038d5760019281886044610387940135910135613e5e565b01610357565b60405163440a57bf60e01b8152600490fd5b50617a69461415801561034a5750617a6a46141561034a565b3461027e5760a036600319011261027e576103d1612f97565b506103da612fad565b506084356001600160401b03811161027e576103fa903690600401612f6a565b505060018060601b03604435166040516020810190600282523360408201528260608201526060815261042c81612dfb565b5190209081600052600a60205260406000205415610457575b60405163f23a6e6160e01b8152602090f35b60405161047b9161046782612d97565b338252602082015260026040820152613d6b565b6009546000198101919082116104a057600052600a6020526040600020558080610445565b634e487b7160e01b600052601160045260246000fd5b3461027e57604036600319011261027e576104ec6104d8602435600435613d2b565b604051918291602083526020830190613058565b0390f35b3461027e57602036600319011261027e57600435600052600b6020526020604060002054604051908152f35b3461027e57602036600319011261027e5760043560095481101561027e5761054390612fd7565b5060ff6001825492015416906104ec6040519282849360a01c9060018060a01b031684612f27565b3461027e5760031960a03682011261027e57602435906001600160401b03821161027e576101a08236039182011261027e576084356001600160401b03811161027e576105bc903690600401612f6a565b90916002600054146102415760026000556105e56105e08560040135600435613d2b565b612ee7565b600181015415610a2457610184850135801515810361027e5761025357610124850135602219830181121561027e5785016004810135906001600160401b03821161027e57602482360391011361027e57156102535760443515610253578054604486013511156102535760248501356044860135111561025357600261066e60443543613099565b91015411610253576084840135906062190181121561027e576040516020808201529060a08201906106a586820160040180613cf6565b606060408601529283905260c084019260005b818110610a0e575050506106d6602482880101600483890101613cf6565b848403603f190160608601528084526001600160fb1b03811161027e5760051b929190839060208401378183016020019061071a9088016044810190600401613cf6565b809192601f198787870103016080880152526040848401019360408260051b82860101019483946000925b8484106108d257508a6107b060408c8c61078e8d61076c818f03601f198101835282612e31565b6064359060443590602081519101206044890135896004013560043533613c3c565b8351631155a0c560e31b81526004810185905294859384936044850191613818565b602483019190915203817f00000000000000000000000000000000000000000000000000000000000000006001600160a01b03165afa80156108c657600091600091610895575b5015908115610888575b506108765761081e6108163683600401613916565b6004356141a3565b1580610876576020916040519060448101358252606435848301526004013590600435907fb209bafd9234f5eaba22fb2de42069934e9a20bb838ffc9afa40ede47dbe7d8760403392a4600160005560405190158152f35b604051631bd18a1960e31b8152600490fd5b9050600435141582610801565b90506108b9915060403d6040116108bf575b6108b18183612e31565b810190613846565b836107f7565b503d6108a7565b6040513d6000823e3d90fd5b90919293949596603f198284018203018452605e19873603018835121561027e576001600160a01b0361090789358901612fc3565b1681528735870136819003601e1901602090910135121561027e57873587016020810135016001600160401b0381351161027e5780353603602082011361027e5761096390606060208401526060830190602081359101613818565b908835880136819003601e1901604090910135121561027e5788358801604081013501916001600160401b0383351161027e5760608335023603602084011361027e57816040602093830391015282358152019060208101906000905b803582106109e257505050602080600192990194019401929594939190610745565b9091926060806001928635815260208701356020820152604087013560408201520194019201906109c0565b82358552602094850194909201916001016106b8565b6040516388d0662b60e01b8152600490fd5b3461027e57610a4436612f0d565b90337f00000000000000000000000000000000000000000000000000000000000000006001600160a01b031614801590610a8e575b61025357811561038d57610a8c92613e5e565b005b50617a694614158015610a795750617a6a461415610a79565b3461027e57602036600319011261027e57600435600052600a6020526020604060002054604051908152f35b3461027e5760a036600319011261027e57610aec612f97565b50610af5612fad565b506001600160401b0360443581811161027e57610b16903690600401613028565b505060643581811161027e57610b30903690600401613028565b505060843590811161027e57610b4a903690600401612f6a565b505060405162461bcd60e51b8152602060048201526006602482015265042c4c2e8c6d60d31b6044820152606490fd5b3461027e57606036600319011261027e5760043560ff8116810361027e57610ba0612fad565b906044356001600160601b038116810361027e57602092610bc092613cba565b604051908152f35b3461027e57600036600319011261027e576020600954604051908152f35b3461027e57610bf436612f54565b9060005260016020526040600020906000526020526020604060002054604051908152f35b3461027e57610c2736612f54565b9060005260066020526040600020906000526020526020604060002054604051908152f35b3461027e57602036600319011261027e57600435600052600a602052610c8a610c84604060002054610c7f8115156137b3565b612fd7565b506137e5565b8051602082015160409283015192519283926104ec9260ff909216916001600160601b0316906001600160a01b031684612f27565b3461027e57600036600319011261027e5760206040516116808152f35b3461027e57610cea36612f0d565b9160005260046020526040600020906000526020526040600020805482101561027e57604091610d199161300c565b506001815491015482519182526020820152f35b3461027e5760e036600319011261027e576020610bc0610d4b612f97565b60c4359060a4359060843590606435906044359060243590613c3c565b3461027e57606036600319011261027e576004356001600160401b03811161027e57610d98903690600401612f6a565b6024356001600160401b03811161027e57610db7903690600401612f6a565b926002600054146102415760026000556040516359516e5f60e01b8152600080516020615e5a833981519152600482015246602482015230604482015260a060648201529060208280610e0e60a482018886613818565b6044356084830152038173__$1a0918a2aa2208593bb0a5d7644cd0946b$__5af49182156108c657600092612a98575b5060408051808094631155a0c560e31b8252836004830152610e64604483018a89613818565b602483019190915203817f00000000000000000000000000000000000000000000000000000000000000006001600160a01b03165afa80156108c657600092600091612a73575b50158015612a6b575b6108765781600052600b6020526040600020546001810181116104a057600101604435036102535781600052600b602052604435604060002055602081858101031261027e576001600160401b0381351161027e5761016081358201858301031261027e57604051936001600160401b036101608601908111908611176127ed5761016085016040526001600160401b0382358301351161027e5781810182358301803501601f01121561027e578135820180350135610f7381613860565b90610f816040519283612e31565b808252602082019083850160208260061b8735880135883589010101011161027e5784358501803501602001915b85358601803501600683901b016020018310612a355750505085526001600160401b0382358301602001351161027e5781810182358301602081013501601f01121561027e57813582016020810135013561100981613860565b906110176040519283612e31565b8082526020820183850160206060840281883589010135883589010101011161027e57602085358601818101350101905b853586016020818101359091016060850201018210612a145750505060208601526001600160401b0382358301604001351161027e5781810182358301604081013501601f01121561027e576110a78235830160408101350135613860565b6110b46040519182612e31565b82358301604081013501803580835260208084019285870160059390931b01011161027e5783358401604081013501602001905b84358501604081013501803560051b0160200182106128bd57505060408601526001600160401b0382358301606001351161027e5781810182358301606081013501601f01121561027e57813582016060810135013561114781613860565b906111556040519283612e31565b8082526020820183850160208360051b6060883589010135883589010101011161027e5784358501606081013501602001905b85358601606081013501600584901b0160200182106128035750505060608601526001600160401b0382358301608001351161027e5781810182358301608081013501601f01121561027e5781358201608081013501356111e881613860565b906111f66040519283612e31565b8082526020820183850160208360051b6080883589010135883589010101011161027e5784358501608081013501602001905b85358601608081013501600584901b0160200182106125635750505060808601526001600160401b038235830160a001351161027e578181018235830160a081013501601f01121561027e578135820160a0810135013561128981613860565b906112976040519283612e31565b8082526020820183850160208360051b60a0883589010135883589010101011161027e578435850160a081013501602001905b8535860160a081013501600584901b0160200182106124325750505060a08601526001600160401b038235830160c001351161027e578181018235830160c081013501601f01121561027e576113298235830160c08101350135613860565b6113366040519182612e31565b8235830160c081013501803580835260208084019285870160059390931b01011161027e578335840160c081013501602001905b8435850160c081013501803560051b0160200182106123f957505060c08601526001600160401b038235830160e001351161027e578181018235830160e081013501601f01121561027e576113c88235830160e08101350135613860565b6113d56040519182612e31565b8235830160e081013501803580835260208084019285870160c090930201011161027e578335840160e081013501602001905b8435850160e081013501803560c00201602001821061236f57505060e08601528135820161010001356001600160401b03811161027e57818301601f82853586010101121561027e5761146081843585010135613860565b9061146e6040519283612e31565b8335840181018035808452602080850192868801606090930201011161027e57602082863587010101905b853586018301803560600201602001821061235057505050610100860152813582016101200135906001600160401b03821161027e57808301601f83853586010101121561027e576114f082843585010135613860565b916114fe6040519384612e31565b83358401810180358085526020808601949283880160069390931b01011161027e57602082863587010101925b853586018301803560061b0160200184106123135750505050610120850152610140818192350101359084015260088351511161160757604060208401515111611607576040808401515111611607576040606084015151116116075760206080840151511161160757600860a0840151511161160757600860c0840151511161160757604060e08401515111611607576040610100840151511161160757602061012084015151116116075760005b604084015180518210156116195760406115f6838293613fe5565b5101515111611607576001016115db565b60405163e217c62b60e01b8152600490fd5b50508383611628815151613fa6565b90611634815151613fa6565b91611640825151613fa6565b92600080915b84518051841015611723578361165b91613fe5565b515192602061166b828851613fe5565b510151936000905b848210611702575b8a878684146116b3575b5050506116aa6116a3600194959661169d848c613fe5565b51613099565b9189613fe5565b52019190611646565b86836116a3936116aa956116cd60019a9b6116f796613fe5565b52600052876020526040600020906000526020526040600020546116f1828a613fe5565b5261307d565b959450508a87611685565b908161170e8289613fe5565b511461171d5760010190611673565b9061167b565b5093915093918760005b8681106122ea575060019660005b60e08501518051821015611774579061176661175982600194613fe5565b5180511561176c57614fde565b0161173b565b8c8152614fde565b505087899760005b60208701518051821015611801578161179491613fe5565b51906117a460208301518c613133565b60408201516117b760208401518d613f5b565b106117ef576117e9826117d68d60206001960151604084015191613dd2565b8051906040602082015191015191613e5e565b0161177c565b604051632fd8225d60e21b8152600490fd5b505087899760005b6060890151805182101561194157602061182583608093613fe5565b518c61189860405194859384936328a3f8a760e11b8552600160048601526002602486015260036044860152606485015260c06084850152805160c48501528581015160e485015260408101516101048501526060810151610124850152015160a0610144840152610164830190613058565b7f00000000000000000000000000000000000000000000000000000000000000006001600160a01b031660a4830152038173__$1a0918a2aa2208593bb0a5d7644cd0946b$__5af49081156108c657600091611907575b50156118fe575b600101611809565b600094506118f6565b90506020813d602011611939575b8161192260209383612e31565b8101031261027e5761193390613839565b8b6118ef565b3d9150611915565b505087899760808201518051611f6b575b5060a08201518051611de9575b5060005b6101208301518051821015611a38578161197c91613fe5565b5180519091906001600160a01b0316156102535760018060a01b03825116916020810151833b1561027e57600093602485926040519687938492636030754560e01b845260048401525af19081156108c6576001938d92611a29575b507f47172349c05bf58f7f6a376def3bbc250cd3295a7eead0290d8fa3531c6ca9fb60208080840151604051828101918252828152611a1681612d7c565b519020930151604051908152a301611963565b611a3290612de8565b8d6119d8565b505087899760005b60c08501518051821015611a7957611a5b82611a6292613fe5565b518b6141a3565b15611a70575b600101611a40565b60009850611a68565b505087899760005b60408701518051821015611aba57611a9c82611aa392613fe5565b518b6154bf565b15611ab1575b600101611a81565b60009250611aa9565b505087899760005b6101008901518051821015611ce75781611adb91613fe5565b519060408201511561038d57611af560208301518c613133565b611b05610c846020840151612fd7565b916040810151611b1a8d602084015190613f5b565b106117ef5780516001600160a01b03106102535760018060a01b0381511690600160ff6040860151161480611cd8575b61038d57611b628d6020830151604084015191613dd2565b604084015160ff1680611bbf575060019291611bb791604061010096868060a01b039051169101516040519263a9059cbb60e01b60208501526024840152604483015260448252611bb282612dfb565b615be8565b019050611ac2565b60018103611c3e57505082516020909301516001600160a01b03909316926001600160601b0316833b1561027e57611c1293600092836040518097819582946323b872dd60e01b84523060048501614fbc565b03925af19081156108c65761010092600192611c2f575b50611bb7565b611c3890612de8565b8c611c29565b909390600214611c58575b50506101009150600190611bb7565b8051602090910151604094909401516001600160601b0390941693906001600160a01b0316803b1561027e57611caa946000809460405197889586948593637921219560e11b85523060048601614f88565b03925af19081156108c65761010092600192611cc9575b819250611c49565b611cd290612de8565b8c611cc1565b50600160408201511415611b4a565b50508894959660005b848110611d57575050505050159182159261087657602093611d13913691612e6f565b838151910120907fbd6e57133956b4a3944b483a9e595b4aab16071cf15a39384fdb1b7015865aab6040805160443581528587820152a36001600055604051908152f35b611d618183613fe5565b51611d81611d6f8387613fe5565b51611d7a8487613fe5565b5190613099565b886000526001602052604060002082600052602052604060002054106117ef57611db6611dae8386613fe5565b51828a613dd2565b876000526001602052604060002090600052602052604060002054611ddb8286613fe5565b51116117ef57600101611cf0565b604051906312f6ab5960e31b82528160a48101600260048301528c602483015260a06044830152825180915260c4820190602060c48260051b8501019401916000905b828210611eeb575050611680606484015250507f00000000000000000000000000000000000000000000000000000000000000006001600160a01b031660848201526020918190038173__$1a0918a2aa2208593bb0a5d7644cd0946b$__5af49081156108c657600091611eb1575b5015611ea8575b8961195f565b60009550611ea2565b90506020813d602011611ee3575b81611ecc60209383612e31565b8101031261027e57611edd90613839565b8a611e9b565b3d9150611ebf565b9193509193602080611f5c60019360c3198a82030186528851908151815283820151848201526040820151604082015260a0611f4b611f39606085015160c0606086015260c0850190613058565b60808501518482036080860152613058565b9201519060a0818403910152613058565b96019201920185939192611e2c565b94989092939596976000985b86518a101561200657611f8a8a88613fe5565b519860005b60408b01518051821015611ff757908b611fab82600194613fe5565b516000602082015112611fe5575b6000604082015112611fce575b505001611f8f565b6020611fde920151905190613133565b8b8f611fc6565b611ff28251825190613133565b611fb9565b50506001909a01999850611f77565b95509591975095929791976080880151604051906328583d4560e21b82528160e48101600160048301526006602483015260026044830152600360648301528a608483015260e060a48301528251809152610104906020828401928260051b8501019401916000905b8282106121be575050507f00000000000000000000000000000000000000000000000000000000000000006001600160a01b031660c4830152506020918190038173__$1a0918a2aa2208593bb0a5d7644cd0946b$__5af49081156108c657600091612184575b501561217b575b94969095600098929398975b608083015180518a101561216b5789612106919b9896999b613fe5565b5195600097606088019960208901995b8b518051821015612153579061214d8c6121438d61213685600197613fe5565b5192839151905190615319565b8d518d5190615319565b01612116565b50919c6001909c019b9a509698509096506120e99050565b5097509794919592939589611952565b600093506120dd565b90506020813d6020116121b6575b8161219f60209383612e31565b8101031261027e576121b090613839565b8a6120d6565b3d9150612192565b9193509193610103198682030182528451906101008101825182526020830151602083015260408301519061010060408401528151809152602061012084019201906000905b8082106122aa575050506060830151908281036060840152602080835192838152019201906000905b808210612292575050508260209260e08061227d61225a8796608060019a01518682036080880152613058565b888060a01b0360a08701511660a086015260c086015185820360c0870152613058565b9301519101529601920192018593919261206f565b9091926020806001928651815201940192019061222d565b909192602060a060019260808751805183528481015185840152604081015160408401526060810151606084015201516080820152019401920190612204565b8061230d6122fa60019386613fe5565b516123058389613fe5565b51908c613e5e565b0161172d565b604084838801031261027e57604060208092825161233081612d7c565b61233988612fc3565b81528288013583820152815201940193905061152b565b606060208092612362888a0186613877565b8152019201919050611499565b60c082858701031261027e5760405161238781612dcd565b8235815261239760208401612fc3565b602082015260408301356001600160601b038116900361027e5760408381013590820152606083013560ff8116900361027e5760c091602091606085013560608201526080850135608082015260a085013560a0820152815201910190611408565b6001600160401b0382351161027e5760209081906124278787018835890160c0810135018635018401613916565b81520191019061136a565b81356001600160401b03811161027e5760c08735880160a081013501820187890103601f19011261027e576040519061246a82612dcd565b8735880160a08101350181016020818101358452604080830135918501919091526060820135908401526001600160401b036080909101351161027e576124c788880189358a0160a0810135018301608081013501602001612ea6565b60608301526001600160401b0360a089358a018181013501830101351161027e57612508878901602060a08b358c0181810135018501908101350101612ea6565b60808301526001600160401b038835890160a081013501820160c001351161027e5760209283928392612551908a8c01908c358d0160a0810135010160c0810135018501612ea6565b60a082015281520192019190506112ca565b81356001600160401b03811161027e5761010087358801608081013501820187890103601f19011261027e57604051906001600160401b036101008301908111908311176127ed5761010082016040908152602060808a358b01908101350183018181013585529182013590840152606001356001600160401b03811161027e5788880189358a0160808101350183018201603f01121561027e578835890160808101350182018101602001359061261a82613860565b916126286040519384612e31565b808352602083018b8b018c358d016080810135018601840160a08402016040011161027e578b358c0160808101350185018301604001905b8b8d803581016080810135018801860160a0860201604001841061279b5750505050506040840191909152506001600160401b03608089358a018181013501830101351161027e576126c8878901602060808b358c01818101350185019081013501016138a9565b60608301526001600160401b0388358901608081013501820160a001351161027e5761270a88880189358a01608081013501830160a081013501602001612ea6565b608083015261272960c08260808b358c0101358b358c01010101612fc3565b60a08301526001600160401b0388358901608081013501820160e001351161027e5760209283928392610100906127758b8d018d358e01608081013501830160e0810135018701612ea6565b60c08401528b358c0160808101350101013560e082015281529190930192019050611229565b60a091849101031261027e57602060a0916040516127b881612db2565b843581528285013583820152604085013560408201526060850135606082015260808501356080820152815201910190612660565b634e487b7160e01b600052604160045260246000fd5b81356001600160401b03811161027e5760a087358801606081013501820187890103601f19011261027e576040519061283b82612db2565b6020606089358a01818101350183018281013585526040808201359386019390935280820135928501929092526080820135908401526001600160401b0360a0909101351161027e57602092839283926128ab908a8c01908c358d016060810135010160a0810135018501612ea6565b60808201528152019201919050611188565b81356001600160401b03811161027e57606086358701604081013501820186880103601f19011261027e57604051906128f582612d97565b6020604088358901818101350183018281013585529081013591840191909152606001356001600160401b03811161027e578787018835890160408101350183018201603f01121561027e5787358801604081013501820181016020013561295c81613860565b9261296a6040519485612e31565b81845260208401908a8a018b358c0160408181013590910183018601600686901b01011161027e5760408b358c0181810135018201850101915b8a8c60408660061b88868385358601013585358601010101010185106129e1575050505050505091816020936040859401528152019101906110e8565b604091859101031261027e57602060409182516129fd81612d7c565b8535815282860135838201528152019201916129a4565b60608060208093612a27898b0187613877565b815201930192915050611048565b604083868801031261027e576040602080928251612a5281612d7c565b8635815282870135838201528152019301929050610faf565b508115610eb4565b9050612a8f91925060403d6040116108bf576108b18183612e31565b91909186610eab565b9091506020813d602011612ac4575b81612ab460209383612e31565b8101031261027e57519085610e3e565b3d9150612aa7565b3461027e57612ada36612f54565b9060005260076020526040600020906000526020526020604060002054604051908152f35b3461027e576020610bc0612b1236612f54565b90613f5b565b3461027e57612b2636612f54565b9060005260056020526040600020906000526020526020604060002054604051908152f35b3461027e57602036600319011261027e5760043560005260086020526020604060002054604051908152f35b3461027e57602036600319011261027e57610c8a610c84600435610c7f60095482106137b3565b3461027e57606036600319011261027e57612bd56020612bc2602435600435613d2b565b8160405193828580945193849201612ec4565b810160038152030190206044356000526020526040806000206001815491015482519182526020820152f35b3461027e57600036600319011261027e576040517f00000000000000000000000000000000000000000000000000000000000000006001600160a01b03168152602090f35b3461027e57600036600319011261027e576020604051600080516020615e3a8339815191528152f35b3461027e57600036600319011261027e576020604051600080516020615e5a8339815191528152f35b3461027e57602036600319011261027e576004356001600160401b03811161027e57612ccf6020612bc26080933690600401612ea6565b810160028152030190208054906001810154906003600282015491015491604051938452602084015260408301526060820152f35b3461027e57610a8c612d1536612f0d565b91613533565b3461027e57604036600319011261027e576004356001600160401b03811161027e576020612bc2612d50923690600401612ea6565b810160038152030190206024356000526020526040806000206001815491015482519182526020820152f35b604081019081106001600160401b038211176127ed57604052565b606081019081106001600160401b038211176127ed57604052565b60a081019081106001600160401b038211176127ed57604052565b60c081019081106001600160401b038211176127ed57604052565b6001600160401b0381116127ed57604052565b608081019081106001600160401b038211176127ed57604052565b602081019081106001600160401b038211176127ed57604052565b601f909101601f19168101906001600160401b038211908210176127ed57604052565b6001600160401b0381116127ed57601f01601f191660200190565b929192612e7b82612e54565b91612e896040519384612e31565b82948184528183011161027e578281602093846000960137010152565b9080601f8301121561027e57816020612ec193359101612e6f565b90565b60005b838110612ed75750506000910152565b8181015183820152602001612ec7565b6020612f00918160405193828580945193849201612ec4565b8101600281520301902090565b606090600319011261027e57600435906024359060443590565b6001600160a01b0390911681526001600160601b03909116602082015260ff909116604082015260600190565b604090600319011261027e576004359060243590565b9181601f8401121561027e578235916001600160401b03831161027e576020838186019501011161027e57565b600435906001600160a01b038216820361027e57565b602435906001600160a01b038216820361027e57565b35906001600160a01b038216820361027e57565b600954811015612ff657600960005260206000209060011b0190600090565b634e487b7160e01b600052603260045260246000fd5b8054821015612ff65760005260206000209060011b0190600090565b9181601f8401121561027e578235916001600160401b03831161027e576020808501948460051b01011161027e57565b9060209161307181518092818552858086019101612ec4565b601f01601f1916010190565b60001981146104a05760010190565b919082039182116104a057565b919082018092116104a057565b906130b75760018160008093550155565b634e487b7160e01b600052600060045260246000fd5b805490600090818155826130e057505050565b6001906001600160ff1b038416840361311f578252602082209260011b8301925b83811061310e5750505050565b808360029255838382015501613101565b634e487b7160e01b83526011600452602483fd5b6000818152600492602060048152604093848420838552825284842095865490811561337257828652600584528686208587528452868620549782891015613369575b90838752600191600186528888208789528652888820548389905b6131e1575b50505050508610156131b357835260058152838320918352522055565b6131df9550808452600582528484208385528252838581205583526004815283832091835252206130cd565b565b858c929394959c1080613360575b1561335857906132008c939261307d565b9161320b828661300c565b50908482019182549586156133435750811561333a57549190613267908c90613261908c908981101561332d5761325c81809581945b61324c838383613dd2565b61325783838d613e5e565b613eb6565b61308c565b9661308c565b9061327382825461308c565b91806132f857508c90558d83018084116132e5576132db928f969594928f8f8f94928f938f9493606093600080516020615dfa833981519152958251948552840152820152a46132c38b8a613ef9565b6132d66132d0828861300c565b906130a6565b61307d565b9b5b949392613191565b634e487b7160e01b8d526011885260248dfd5b849f9695948f8e94600080516020615dfa833981519152928f928f95606094818e9b99558251948552840152820152a46132dd565b61325c8a80958194613241565b5050509a613196565b9550509291613352915061307d565b9b6132dd565b819b50613196565b508781106131ef565b97508597613176565b5050835260058152838320918352529081205550565b600081815260049260206004815260409384842083855282528484209586549081156133725782865260058452868620858752845286862054978289101561352a575b90838752600191600186528888208789528652888820548389905b6134075750505050508610156131b357835260058152838320918352522055565b858c929394959c1080613521575b1561335857906134268c939261307d565b91613431828661300c565b509084820191825495861561350c5750811561333a57549190613471908c90613261908c908981101561332d5761325c818095819461324c838383613dd2565b9061347d82825461308c565b91806134d757508c90558d83018084116132e5576134cd928f969594928f8f8f94928f938f9493606093600080516020615dfa833981519152958251948552840152820152a46132c38b8a613ef9565b9b5b9493926133e6565b849f9695948f8e94600080516020615dfa833981519152928f928f95606094818e9b99558251948552840152820152a46134cf565b955050929161351b915061307d565b9b6134cf565b50878110613415565b975085976133cb565b80600052600460205260406000208260005260205260406000208054908115613791578260005260056020526040600020846000526020526040600020549482861015613788575b8360005260019060016020526040600020866000526020528160406000205491801560001461377e5750919291506000195b6000845b61361e575b50505050508310156135de576000526005602052604060002090600052602052604060002055565b8091925060005260056020526040600020826000526020526000604081205560005260046020526040600020906000526020526131df60406000206130cd565b8589939495991080613775575b1561376d576136399061307d565b91613644818661300c565b509089820154948a86156137585750801561375057906136956132576132618c869561325c8e839c9b9a99549c8d918d851060001461374457849788809781955b613690838387613dd2565b613e5e565b916136a3838d83015461308c565b928061370b57508b60009101558a8101918282116104a0578b968a600080516020615dfa83398151915260608e946136ff97604051918252600060208301526040820152a46136f28a8a613ef9565b6132d66132d0828961300c565b985b94939190916135b1565b600080516020615dfa83398151915260608e999395859f96958f96948f95898291015560405192835260208301526040820152a4613701565b8d978880978195613685565b5098506135b6565b9550939291506137679061307d565b98613701565b8298506135b6565b5081811061362b565b90509291926135ad565b6000955061357b565b5050909150600052600560205260406000209060005260205260006040812055565b156137ba57565b606460405162461bcd60e51b815260206004820152600460248201526321746f6b60e01b6044820152fd5b906040516137f281612d97565b82546001600160a01b038116825260a01c602082015260019092015460ff166040830152565b908060209392818452848401376000828201840152601f01601f1916010190565b5190811515820361027e57565b919082604091031261027e57612ec1602083519301613839565b6001600160401b0381116127ed5760051b60200190565b919082606091031261027e5760405161388f81612d97565b604080829480358452602081013560208501520135910152565b9080601f8301121561027e5760209082356138c381613860565b936138d16040519586612e31565b81855260208086019260051b82010192831161027e57602001905b8282106138fa575050505090565b813581529083019083016138ec565b3590811515820361027e57565b9190916101a090818185031261027e5760408051909490926001600160401b03908401818111858210176127ed5786528395833585526020808501358187015281850135828701526060918286013583880152608086013584811161027e57860192808487031261027e5781519361398d85612d97565b803586811161027e57810187601f8201121561027e578035906139af82613860565b916139bc86519384612e31565b808352868084019160051b830101918a831161027e5787809101915b838310613c2c575050505085528381013586811161027e57876139fc9183016138a9565b84860152828101359086821161027e57019286601f8501121561027e57833593613a2585613860565b94613a3285519687612e31565b808652828087019160051b8301019189831161027e57838101915b838310613b2557505050505050820152608085015260a083013581811161027e5782613a7a918501612ea6565b60a085015260c083013581811161027e5782613a97918501612ea6565b60c085015260e083013581811161027e5782613ab4918501612ea6565b60e08501526101008084013582811161027e5783613ad3918601612ea6565b90850152610120918284013591821161027e57613af1918401612ea6565b90830152610140613b03818301613909565b908301526101608082013590830152613b20610180809201613909565b910152565b82358a811161027e578201808c03601f1901871361027e57875190613b4982612d97565b613b54878201612fc3565b8252888101358c811161027e578d88613b6f92840101612ea6565b8783015287810135908c821161027e57018c603f8201121561027e578c87820135613b9981613860565b92613ba68c519485612e31565b8184528b8b8b8601930282010192831161027e57918f9593918b8d8c979501975b838910613be457505050508394508a820152815201920191613a4d565b88949698919293959750031261027e57898b918d805190613c0482612d97565b85358252838601358483015280860135908201528152019101949290918f928b8b9694613bc7565b82358152918101918891016139d8565b95939194929094604051956020870197600080516020615e3a833981519152895246604089015230606089015260018060a01b0316608088015260a087015260c086015260e085015261010084015261012083015261014090818301528152610160810181811060018060401b038211176127ed5760405251902090565b916040519160ff602084019416845260018060a01b0316604083015260018060601b0316606082015260608152613cf081612dfb565b51902090565b9035601e198236030181121561027e570160208101919035906001600160401b03821161027e578160051b3603831361027e57565b9080821015613d4f57604051916020830152604082015260408152612ec181612d97565b90604051916020830152604082015260408152612ec181612d97565b600954600160401b8110156127ed57806001613d8a9201600955612fd7565b6130b7578151602083015160a01b6001600160a01b0319166001600160a01b039190911617815560409190910151600191909101805460ff191660ff92909216919091179055565b90918015613e5957600090828252602091600183526040918282208683528452808383205410613e48579181600080516020615e1a833981519152949386839452600185528282208883528552613e2d83832091825461308c565b905585815260018452818120878252845220549051908152a3565b8251632fd8225d60e21b8152600490fd5b505050565b90918015613e595760206040600080516020615e1a83398151915292600090858252600184528282208783528452613e9a838320918254613099565b90558481526001835281812086825283522054604051908152a3565b90918015613e59576000928284526006602052604084208185526020526040842054908282106117ef576040938552600660205283852090855260205203912055565b90600090828252600860205260408220805480613f4e575b50506007602052604082208183526020526040822054613f3057505050565b60409282526007602052828220908252602052206000198154019055565b6000190190553880613f11565b6000918183526001602052604083208184526020526040832054918352600660205260408320908352602052604082205490818111600014613fa157612ec1925061308c565b505090565b90613fb082613860565b613fbd6040519182612e31565b8281528092613fce601f1991613860565b0190602036910137565b805115612ff65760200190565b8051821015612ff65760209160051b010190565b90815180825260208080930193019160005b828110614019575050505090565b83518552938101939281019260010161400b565b90602080835281519061404c6060926060838701526080860190613ff9565b8184015190601f199460409186888203018389015284808551928381520194019060005b8181106141515750505081015195606086828503019101528551938483528383019184808760051b8601019801966000945b8786106140b55750505050505050505090565b90919293949596979882828203018652878a5160018060a01b038151168352856140ea83830151898587015289860190613058565b91015192868183039101528180845192838152019301906000905b888183106141285750505050806001929b019601960194979695939291906140a2565b8395896001949693955180518352848101518584015201518a82015201940192018a9291614105565b825186529486019491860191600101614070565b92614187612ec195936141959315158652608060208701526080860190613058565b908482036040860152613058565b916060818403910152613058565b90610140526141bc610140515160006101805282613d2b565b610160526101405161018001805115614b0e576040805161016051516020918281816101605101936141ef818387612ec4565b810160028152030190205415614afd5782610140510190614220838351928651809381926101605151928391612ec4565b81016002815203019020541015614aec5761012061014051019081515115614a9457829051916080610140510151855161426f81614261868201948561402d565b03601f198101835282612e31565b51902060e061014051015183815191012091519361430b6101405151918851968795869563bba8d94760e01b875260018060a01b037f000000000000000000000000000000000000000000000000000000000000000016600488015230602488015261010060448801526142ea610104880161016051613058565b936064880152608487015260a48601526003198583030160c4860152613058565b9060e4830152038173__$1a0918a2aa2208593bb0a5d7644cd0946b$__5af4918215614a87576101805192614a4a575b505015614a3a57505b42815115614a0b575b60405160016101605151614368818460206101605101612ec4565b82019160028352602081610180519403019020015560405160026101605151614398818460206101605101612ec4565b8201918183526020816101805194030190200155604051600361016051516143c7818460206101605101612ec4565b8201916002835260208161018051940301902001554290429251156149ec575b50610140515160806101405101519360a06101405101519460c061014051015195602082015151825151036146ad578383109384156149e55783945b156149dd57965b6144348886613d2b565b9160208401515161444481613860565b906144526040519283612e31565b80825261445e81613860565b601f19013660208401378160a052610180515b8181106149465750508151610180516101005215905061492c578060208061449e9351830101910161582e565b610100525b80511561490c57806020806144bd9351830101910161582e565b919796949290979593955b61018051985b604082015180518b10156146f4578a6144e691613fe5565b516101205261010051518a10156146d85761452f86866145098d61010051613fe5565b515b87518e908110156146bf576145209089613fe5565b51905b6101205160a0516159b9565b60e05260e0515160a05151036146ad576101805160c0525b6040610120510151805160c05110156146265760c05161456691613fe5565b51805160a05151111561025357614580815160e051613fe5565b519061458f815160a051613fe5565b51610180518112838281031281169084838103139015161761460c576101805181840313806145fd575b61025357610180518184031292836145e1575b50505061025357600160c0510160c052614547565b6020929350906145f191036158ff565b910151103880806145cc565b506040820151818403116145b9565b634e487b7160e01b61018051526011600452602461018051fd5b5090919293949596610180516080525b60a051516080511015614695576146566080516040610120510151615bb1565b158061466f575b61025357600160805101608052614636565b5061467e60805160e051613fe5565b5161468d60805160a051613fe5565b51141561465d565b60e05160a052600190990198969594939291906144ce565b6040516329be7c4760e11b8152600490fd5b506040516146cc81612e16565b61018051815290614523565b61452f86866040516146e981612e16565b61018051815261450b565b5096959450969250965050610180515b602086015180518210156148245781614721602093600193613fe5565b518661472f8360a051613fe5565b5191614749868b8160405193828580945193849201612ec4565b81016003815203019020816101805152865260406101805120928354610180518213156000146147c457614785929350806147b3575b506158ff565b806147a1575b50505b6101805180825590830155019050614704565b6147ac91888a615c49565b388061478b565b6147be90848b613e5e565b3861477f565b90818110614806576147dc929350816147fb5761308c565b806147e9575b505061478e565b6147f4918989615c49565b38806147e2565b61325c82858d613e5e565b6148189161325c828561481f97613e5e565b9088613e5e565b61478e565b50509493505050506101206101405101515115156000146148d657604061014051015160405160208161016051516148628183856101605101612ec4565b81016002815203019020555b61014051516020610140510151917f6d46d52b5fda2a9055705ba74bf5e95807cfa39decf819cdfeaa14f9b2ba346a60406060610140510151608061014051015182516148c38161426160208201948561402d565b51902082519182526020820152a4600190565b60405160208161016051516148f18183856101605101612ec4565b81016002815203019020614905815461307d565b905561486e565b5060405161491981612e16565b60008152919796949290979593956144c8565b5060405161493981612e16565b60008152610100526144a3565b614954816020890151613fe5565b51610180515b8281106149c05750906001916040516020818161497d8c83815193849201612ec4565b810160038152030190209061018051526020526149af826040610180512001546149a8838b51613fe5565b51906154a3565b6149b98286613fe5565b5201614471565b816149cf8260208c0151613fe5565b51146146ad5760010161495a565b50829661442a565b8094614423565b6101408051015190919015614a0357505b386143e7565b9150906149fd565b5060036040516020816101605151614a298183856101605101612ec4565b81016002815203019020015461434d565b51631bd18a1960e31b8152600490fd5b90809250813d8311614a80575b614a618183612e31565b81010312614a7957614a7290613839565b388061433b565b6101805180fd5b503d614a57565b83513d61018051823e3d90fd5b835162461bcd60e51b815260048101849052602b60248201527f5369676e617475726520726571756972656420666f7220636f6f70657261746960448201526a76652066696e616c697a6560a81b6064820152608490fd5b8251633485c51360e21b8152600490fd5b82516388d0662b60e01b8152600490fd5b60016040516020816101605151614b2b8183856101605101612ec4565b8101600281520301902001548015610a24576020610140510151906020610140805101511515600260405183816101605151614b6d8183856101605101612ec4565b810184815203019020015493614be26060610140510151614bd060e061014051015161010061014051015192604051998a978897637fa40de560e01b8952600489015260248801526044870152606486015260c0608486015260c4850190613058565b8381036003190160a485015290613058565b038173__$1a0918a2aa2208593bb0a5d7644cd0946b$__5af4918215614de8576101805192614f54575b5003614f4257610140516101200180515115614e30576040610140510180516040516020816101605151614c468183856101605101612ec4565b8101600281520301902054101561025357805160206101405101511015610253576020906080610140510151604051614c8681614261868201948561402d565b51902090519251906101405151614d0f6040519586948594632775acd960e21b865260018060a01b037f000000000000000000000000000000000000000000000000000000000000000016600487015230602487015260e06044870152614cf360e4870161016051613058565b92606487015260848601526003198583030160a4860152613058565b9060c4830152038173__$1a0918a2aa2208593bb0a5d7644cd0946b$__5af4908115614de8576101805191614df6575b50156108765761014080510151151560a06101405101519060c06101405101516101006101405101519273__$1a0918a2aa2208593bb0a5d7644cd0946b$__3b15614a7957614da7604051948593849363065339c960e21b8552610180519660048601614165565b038173__$1a0918a2aa2208593bb0a5d7644cd0946b$__5af48015614de857614dd1575b50614344565b614dda90612de8565b61018051614a795738614dcb565b6040513d61018051823e3d90fd5b90506020813d602011614e28575b81614e1160209383612e31565b81010312614a7957614e2290613839565b38614d3f565b3d9150614e04565b50610140805101511515610140515183101480614f12575b6102535760606101405101516080610140510151604051614e718161426160208201948561402d565b519020036102535761014080510151151560a06101405101519060c061014051015160e06101405101519273__$1a0918a2aa2208593bb0a5d7644cd0946b$__3b15614a7957614eda604051948593849363065339c960e21b8552610180519660048601614165565b038173__$1a0918a2aa2208593bb0a5d7644cd0946b$__5af48015614de857614f035750614344565b614f0c90612de8565b38614dcb565b5060026040516020816101605151614f308183856101605101612ec4565b81018481520301902001544310614e48565b604051630cba69cb60e01b8152600490fd5b9091506020813d602011614f80575b81614f7060209383612e31565b81010312614a7957519038614c0c565b3d9150614f63565b929060c0949260018060a01b0380921685521660208401526040830152606082015260a06080820152600060a08201520190565b6001600160a01b03918216815291166020820152604081019190915260600190565b90815180156000146153145750335b60a0830180511561038d576060840160ff8151166020908187019060018060a01b03908183511660409960806150328c83019460018060601b03948587511691613cba565b9101968b885180156000146152ea57505081600052600a87528b6000205480895215615297575b60ff91505b5116806151a557505050808251169288519181836024816370a0823160e01b988982523060048301525afa92831561519a5760009361516a575b50836150d76150c98c611bb2858798995116918c5190519384916323b872dd60e01b8a840152303360248501614fbc565b03601f198101845283612e31565b51169360248a518096819382523060048301525afa90811561515f5760009161512f575b50615106925061308c565b8083521561511e576131df9394505b51905191613e5e565b8451632fd8225d60e21b8152600490fd5b905082813d8311615158575b6151458183612e31565b8101031261027e576151069151386150fb565b503d61513b565b88513d6000823e3d90fd5b9180935082813d8311615193575b6151828183612e31565b8101031261027e5782915192615098565b503d615178565b8a513d6000823e3d90fd5b9194509290600181036152205750511691511690803b1561027e5786516323b872dd60e01b81529160009183918290849082906151e790303360048501614fbc565b03925af18015615215576131df959650615206575b5060018252615115565b61520f90612de8565b386151fc565b86513d6000823e3d90fd5b600214615237575b505050506131df939450615115565b51169151168351823b1561027e5761526a92600092838a51809681958294637921219560e11b8452303360048601614f88565b03925af18015615215576131df959650615288575b85948180615228565b61529190612de8565b3861527f565b6152c4858751168d858751169060ff855116918151936152b685612d97565b84528b840152820152613d6b565b60095460001981019081116104a05760ff92818a52600052600a88528c60002055615059565b60ff9350906152fc610c848593612fd7565b878151168952858a820151168752015116815261505e565b614fed565b90916000908282526020600581526040938484208385528252848420548185526004835285852084865283528585209081546000199888835b8381106153e157505050811091826153c8575b5050615374575b505050505050565b60001986036153b4576153a99550808452600582528484208385528252838581205583526004815283832091835252206130cd565b38808080808061536c565b8352600581528383209183525220556153a9565b60019250906153d69161300c565b500154153880615365565b8883888c8b6153f0868c61300c565b5091600180930154928315615493578c8661540b8a8361300c565b50540361546f57927f0971ac81b80f99fe0089c3fbe4af4fa1148f2ce78bc6345e76b05be73500de1f949289926154458460019d9761300c565b500155615453838988613eb6565b61545d8887613ef9565b8351928352820152a45b018990615352565b505050505050505090506000198b1461548b575b600190615467565b995089615483565b5050505050505060019150615467565b919091600083820193841291129080158216911516176104a057565b919091825190602080850151906154d68484613388565b60005b6040808801908151805184101561582057615502846154f9818894613fe5565b51519451613fe5565b510151906155108387613d2b565b61551a8989613f5b565b831161581157856155379181845193828580945193849201612ec4565b8101600381520301902088600052855280600020615556838a8a613dd2565b615561838254613099565b9384825580881093846157fa575b5083156157f35787935b156157ea57929390935b82519361558f85612d7c565b8a6001968787528960005b8181106157a757505083600052878a5285600020826000528a5285600020549083600052888b5286600020836000528b52888760002054910154918751936155e185612db2565b84528b8401528683015260609485830152608082015261560086613fd8565b5261560a85613fd8565b5083519461561786612d7c565b8686528860005b8181106157735750506156346105e08385613d2b565b549185519361564285612dfb565b845289840152848301528282015261565984613fd8565b5261566383613fd8565b5081519386850187865284518091528386019288858360051b8901019601946000905b8382106156c4575050505050505081600193927f784575545124eef27f8fcc1472fb5f2483beb9cc23e6fe3dbf588eb7bd501f7c920390a1016154d9565b9091848b829596979899603f198c8203018a528a51906080810191805182528381015184830152868101519260808884015283518091528460a084019401906000905b80821061572c5750505094808495960151910152990197019201909493929194615686565b939692959197509360a090608089518051835284810151858401528b8101518c8401528d8082015190840152015160808201520196019201928f93928996938c9693615707565b869895985161578181612dfb565b60008152600083820152898882015260008a82015282828a01015201899097949761561e565b9091925086989598516157b981612db2565b60008152600083820152600088820152600060608201526000608082015282828a0101520190898d9298959861559a565b50928692615583565b8093615579565b615809600184019182546154a3565b90553861556f565b50600099505050505050505050565b506001985050505050505050565b602090818184031261027e5780516001600160401b039182821161027e57019083601f8301121561027e57815161586481613860565b946040926158756040519788612e31565b828752858088019360051b8601019482861161027e57868101935b8685106158a257505050505050505090565b845183811161027e5782019084603f8301121561027e5788820151906158c782612e54565b6158d389519182612e31565b8281528689848601011161027e576158f48b949385948b8685019101612ec4565b815201940193615890565b600160ff1b81146104a05760000390565b3d1561593b573d9061592182612e54565b9161592f6040519384612e31565b82523d6000602084013e565b606090565b602090818184031261027e578051906001600160401b03821161027e57019180601f8401121561027e57825161597581613860565b936159836040519586612e31565b818552838086019260051b82010192831161027e578301905b8282106159aa575050505090565b8151815290830190830161599c565b90919260018060a01b03808451169560405197602098898101906349fbda2960e01b8252600481526159ea81612d7c565b6000998a92839251915afa6159fd615910565b81615ba4575b81615b81575b50615ac157505091615a83615a519287988695615a6497999899511695015190615a74604051998a9889978897630c6191f960e11b8952608060048a01526084890190613ff9565b60031995868983030160248a0152613058565b9084878303016044880152613058565b91848303016064850152613058565b03915afa918215615ab5578092615a9957505090565b612ec192503d8091833e615aad8183612e31565b810190615940565b604051903d90823e3d90fd5b908891615b368998615b0496615b2786615b4f988c51169b015192615b176040519a8b998a019c8d63270c5f3760e21b905260c060248c015260e48b0190613ff9565b60231995868b83030160448c0152613058565b90848983030160648a0152613058565b91868303016084870152613058565b9160a484015260c483015203601f198101835282612e31565b51915afa90615b5c615910565b9115615b74579081612ec19282518301019101615940565b8151156102535781519101fd5b90508981805181010312615ba05789615b9a9101613839565b38615a09565b8880fd5b9050898151101590615a03565b9060005b8251811015615be05781615bc98285613fe5565b515114615bd857600101615bb5565b505050600190565b505050600090565b600091829182602083519301915af1615bff615910565b90156117ef578051908115615c455760208210918215615c22575b50506117ef57565b819250906020918101031261027e576020615c3d9101613839565b153880615c1a565b5050565b9091928015615df357615c7e90615c608584613388565b615c6a8584613f5b565b818110615ded5750805b81615dd75761308c565b80158015615c8e575b5050505050565b8315610253578383146102535761038d57816000526020906004825260409081600020866000528352816000208251615cc681612d7c565b868152848101918383528054600160401b8110156127ed57615ced9160018201815561300c565b9290926130b75760019151835551910155836000526004835281600020866000528352816000205460001981019081116104a0577fae767eeb0c57abd46e2e0b422895ba3b89372fbd0510a58f00d996faf66f027d938115615dba575b85600052600681528360002088600052815283600020615d6b848254613099565b9055856000526008815283600020615d83815461307d565b905585600052600781528360002088600052815283600020615da5815461307d565b90558351928352820152a43880808080615c87565b856000526005815283600020886000528152600084812055615d4a565b615de2828786613dd2565b61325c828787613e5e565b90615c74565b5050505056fe1ffe8e6348fe244a8988797c02b57999821149e7b25c9f93a85c77819efdde67ab4d21442efe134c3d0c087e2b687e9593a1c09176f498d37873210cde052c45a18590ca9739b1d76d19b9d85b6a395a7cf75acb1e21e93c88207bf9abce5ae6990f4c22d4b046a9a7d673c4a252b906cadd4f3290465e297f998c28a449652ba264697066735822122017db3868766e826bf50688ca7e4fa416070dff7042b9b0b74d2311a718cbae3c64736f6c63430008180033",
  "linkReferences": {
    "contracts/Account.sol": {
      "Account": [
        {
          "length": 20,
          "start": 4126
        },
        {
          "length": 20,
          "start": 6863
        },
        {
          "length": 20,
          "start": 8315
        },
        {
          "length": 20,
          "start": 8886
        },
        {
          "length": 20,
          "start": 17689
        },
        {
          "length": 20,
          "start": 19946
        },
        {
          "length": 20,
          "start": 20253
        },
        {
          "length": 20,
          "start": 20335
        },
        {
          "length": 20,
          "start": 20399
        },
        {
          "length": 20,
          "start": 20642
        },
        {
          "length": 20,
          "start": 20706
        }
      ]
    }
  },
  "deployedLinkReferences": {
    "contracts/Account.sol": {
      "Account": [
        {
          "length": 20,
          "start": 3610
        },
        {
          "length": 20,
          "start": 6347
        },
        {
          "length": 20,
          "start": 7799
        },
        {
          "length": 20,
          "start": 8370
        },
        {
          "length": 20,
          "start": 17173
        },
        {
          "length": 20,
          "start": 19430
        },
        {
          "length": 20,
          "start": 19737
        },
        {
          "length": 20,
          "start": 19819
        },
        {
          "length": 20,
          "start": 19883
        },
        {
          "length": 20,
          "start": 20126
        },
        {
          "length": 20,
          "start": 20190
        }
      ]
    }
  }
}