{
  "_format": "hh-sol-artifact-1",
  "contractName": "Depository",
  "sourceName": "contracts/Depository.sol",
  "abi": [
    {
      "inputs": [
        {
          "internalType": "address",
          "name": "_entityProvider",
          "type": "address"
        }
      ],
      "stateMutability": "nonpayable",
      "type": "constructor"
    },
    {
      "inputs": [],
      "name": "E0",
      "type": "error"
    },
    {
      "inputs": [],
      "name": "E1",
      "type": "error"
    },
    {
      "inputs": [],
      "name": "E2",
      "type": "error"
    },
    {
      "inputs": [],
      "name": "E3",
      "type": "error"
    },
    {
      "inputs": [],
      "name": "E4",
      "type": "error"
    },
    {
      "inputs": [],
      "name": "E5",
      "type": "error"
    },
    {
      "inputs": [],
      "name": "E6",
      "type": "error"
    },
    {
      "inputs": [],
      "name": "E7",
      "type": "error"
    },
    {
      "inputs": [],
      "name": "E8",
      "type": "error"
    },
    {
      "inputs": [],
      "name": "E9",
      "type": "error"
    },
    {
      "anonymous": false,
      "inputs": [
        {
          "components": [
            {
              "internalType": "bytes32",
              "name": "left",
              "type": "bytes32"
            },
            {
              "internalType": "bytes32",
              "name": "right",
              "type": "bytes32"
            },
            {
              "internalType": "uint256",
              "name": "tokenId",
              "type": "uint256"
            },
            {
              "internalType": "uint256",
              "name": "leftReserve",
              "type": "uint256"
            },
            {
              "internalType": "uint256",
              "name": "rightReserve",
              "type": "uint256"
            },
            {
              "internalType": "uint256",
              "name": "collateral",
              "type": "uint256"
            },
            {
              "internalType": "int256",
              "name": "ondelta",
              "type": "int256"
            }
          ],
          "indexed": false,
          "internalType": "struct Settled[]",
          "name": "settled",
          "type": "tuple[]"
        }
      ],
      "name": "AccountSettled",
      "type": "event"
    },
    {
      "anonymous": false,
      "inputs": [
        {
          "indexed": true,
          "internalType": "bytes32",
          "name": "sender",
          "type": "bytes32"
        },
        {
          "indexed": true,
          "internalType": "bytes32",
          "name": "counterentity",
          "type": "bytes32"
        },
        {
          "indexed": true,
          "internalType": "uint256",
          "name": "cooperativeNonce",
          "type": "uint256"
        }
      ],
      "name": "CooperativeClose",
      "type": "event"
    },
    {
      "anonymous": false,
      "inputs": [
        {
          "indexed": true,
          "internalType": "bytes32",
          "name": "debtor",
          "type": "bytes32"
        },
        {
          "indexed": true,
          "internalType": "bytes32",
          "name": "creditor",
          "type": "bytes32"
        },
        {
          "indexed": true,
          "internalType": "uint256",
          "name": "tokenId",
          "type": "uint256"
        },
        {
          "indexed": false,
          "internalType": "uint256",
          "name": "amount",
          "type": "uint256"
        },
        {
          "indexed": false,
          "internalType": "uint256",
          "name": "debtIndex",
          "type": "uint256"
        }
      ],
      "name": "DebtCreated",
      "type": "event"
    },
    {
      "anonymous": false,
      "inputs": [
        {
          "indexed": true,
          "internalType": "bytes32",
          "name": "debtor",
          "type": "bytes32"
        },
        {
          "indexed": true,
          "internalType": "bytes32",
          "name": "creditor",
          "type": "bytes32"
        },
        {
          "indexed": true,
          "internalType": "uint256",
          "name": "tokenId",
          "type": "uint256"
        },
        {
          "indexed": false,
          "internalType": "uint256",
          "name": "amountPaid",
          "type": "uint256"
        },
        {
          "indexed": false,
          "internalType": "uint256",
          "name": "remainingAmount",
          "type": "uint256"
        },
        {
          "indexed": false,
          "internalType": "uint256",
          "name": "newDebtIndex",
          "type": "uint256"
        }
      ],
      "name": "DebtEnforced",
      "type": "event"
    },
    {
      "anonymous": false,
      "inputs": [
        {
          "indexed": true,
          "internalType": "bytes32",
          "name": "debtor",
          "type": "bytes32"
        },
        {
          "indexed": true,
          "internalType": "bytes32",
          "name": "creditor",
          "type": "bytes32"
        },
        {
          "indexed": true,
          "internalType": "uint256",
          "name": "tokenId",
          "type": "uint256"
        },
        {
          "indexed": false,
          "internalType": "uint256",
          "name": "amountForgiven",
          "type": "uint256"
        },
        {
          "indexed": false,
          "internalType": "uint256",
          "name": "debtIndex",
          "type": "uint256"
        }
      ],
      "name": "DebtForgiven",
      "type": "event"
    },
    {
      "anonymous": false,
      "inputs": [
        {
          "indexed": false,
          "internalType": "bytes32",
          "name": "leftEntity",
          "type": "bytes32"
        },
        {
          "indexed": false,
          "internalType": "bytes32",
          "name": "rightEntity",
          "type": "bytes32"
        },
        {
          "indexed": false,
          "internalType": "uint256",
          "name": "sigLen",
          "type": "uint256"
        },
        {
          "indexed": false,
          "internalType": "address",
          "name": "entityProvider",
          "type": "address"
        }
      ],
      "name": "DebugSettleStart",
      "type": "event"
    },
    {
      "anonymous": false,
      "inputs": [
        {
          "indexed": true,
          "internalType": "bytes32",
          "name": "sender",
          "type": "bytes32"
        },
        {
          "indexed": true,
          "internalType": "bytes32",
          "name": "counterentity",
          "type": "bytes32"
        },
        {
          "indexed": true,
          "internalType": "uint256",
          "name": "initialDisputeNonce",
          "type": "uint256"
        },
        {
          "indexed": false,
          "internalType": "bytes32",
          "name": "initialProofbodyHash",
          "type": "bytes32"
        },
        {
          "indexed": false,
          "internalType": "bytes32",
          "name": "finalProofbodyHash",
          "type": "bytes32"
        }
      ],
      "name": "DisputeFinalized",
      "type": "event"
    },
    {
      "anonymous": false,
      "inputs": [
        {
          "indexed": true,
          "internalType": "bytes32",
          "name": "sender",
          "type": "bytes32"
        },
        {
          "indexed": true,
          "internalType": "bytes32",
          "name": "counterentity",
          "type": "bytes32"
        },
        {
          "indexed": true,
          "internalType": "uint256",
          "name": "disputeNonce",
          "type": "uint256"
        },
        {
          "indexed": false,
          "internalType": "bytes32",
          "name": "proofbodyHash",
          "type": "bytes32"
        },
        {
          "indexed": false,
          "internalType": "bytes",
          "name": "initialArguments",
          "type": "bytes"
        }
      ],
      "name": "DisputeStarted",
      "type": "event"
    },
    {
      "anonymous": false,
      "inputs": [
        {
          "indexed": false,
          "internalType": "bool",
          "name": "isPaused",
          "type": "bool"
        }
      ],
      "name": "EmergencyPauseToggled",
      "type": "event"
    },
    {
      "anonymous": false,
      "inputs": [
        {
          "indexed": true,
          "internalType": "address",
          "name": "provider",
          "type": "address"
        }
      ],
      "name": "EntityProviderAdded",
      "type": "event"
    },
    {
      "anonymous": false,
      "inputs": [
        {
          "indexed": true,
          "internalType": "address",
          "name": "provider",
          "type": "address"
        }
      ],
      "name": "EntityProviderRemoved",
      "type": "event"
    },
    {
      "anonymous": false,
      "inputs": [
        {
          "indexed": true,
          "internalType": "bytes32",
          "name": "entityId",
          "type": "bytes32"
        },
        {
          "indexed": true,
          "internalType": "bytes32",
          "name": "hankoHash",
          "type": "bytes32"
        },
        {
          "indexed": false,
          "internalType": "uint256",
          "name": "nonce",
          "type": "uint256"
        },
        {
          "indexed": false,
          "internalType": "bool",
          "name": "success",
          "type": "bool"
        }
      ],
      "name": "HankoBatchProcessed",
      "type": "event"
    },
    {
      "anonymous": false,
      "inputs": [
        {
          "indexed": true,
          "internalType": "bytes32",
          "name": "insured",
          "type": "bytes32"
        },
        {
          "indexed": true,
          "internalType": "bytes32",
          "name": "insurer",
          "type": "bytes32"
        },
        {
          "indexed": true,
          "internalType": "bytes32",
          "name": "creditor",
          "type": "bytes32"
        },
        {
          "indexed": false,
          "internalType": "uint256",
          "name": "tokenId",
          "type": "uint256"
        },
        {
          "indexed": false,
          "internalType": "uint256",
          "name": "amount",
          "type": "uint256"
        }
      ],
      "name": "InsuranceClaimed",
      "type": "event"
    },
    {
      "anonymous": false,
      "inputs": [
        {
          "indexed": true,
          "internalType": "bytes32",
          "name": "insured",
          "type": "bytes32"
        },
        {
          "indexed": true,
          "internalType": "bytes32",
          "name": "insurer",
          "type": "bytes32"
        },
        {
          "indexed": true,
          "internalType": "uint256",
          "name": "tokenId",
          "type": "uint256"
        },
        {
          "indexed": false,
          "internalType": "uint256",
          "name": "limit",
          "type": "uint256"
        },
        {
          "indexed": false,
          "internalType": "uint256",
          "name": "expiresAt",
          "type": "uint256"
        }
      ],
      "name": "InsuranceRegistered",
      "type": "event"
    },
    {
      "anonymous": false,
      "inputs": [
        {
          "indexed": true,
          "internalType": "bytes32",
          "name": "entity",
          "type": "bytes32"
        },
        {
          "indexed": true,
          "internalType": "uint256",
          "name": "tokenId",
          "type": "uint256"
        },
        {
          "indexed": false,
          "internalType": "uint256",
          "name": "newBalance",
          "type": "uint256"
        }
      ],
      "name": "ReserveUpdated",
      "type": "event"
    },
    {
      "anonymous": false,
      "inputs": [
        {
          "indexed": true,
          "internalType": "bytes32",
          "name": "hashlock",
          "type": "bytes32"
        },
        {
          "indexed": true,
          "internalType": "bytes32",
          "name": "revealer",
          "type": "bytes32"
        },
        {
          "indexed": false,
          "internalType": "bytes32",
          "name": "secret",
          "type": "bytes32"
        }
      ],
      "name": "SecretRevealed",
      "type": "event"
    },
    {
      "inputs": [],
      "name": "DOMAIN_SEPARATOR",
      "outputs": [
        {
          "internalType": "bytes32",
          "name": "",
          "type": "bytes32"
        }
      ],
      "stateMutability": "view",
      "type": "function"
    },
    {
      "inputs": [
        {
          "internalType": "bytes",
          "name": "",
          "type": "bytes"
        }
      ],
      "name": "_accounts",
      "outputs": [
        {
          "internalType": "uint256",
          "name": "cooperativeNonce",
          "type": "uint256"
        },
        {
          "internalType": "bytes32",
          "name": "disputeHash",
          "type": "bytes32"
        },
        {
          "internalType": "uint256",
          "name": "disputeTimeout",
          "type": "uint256"
        }
      ],
      "stateMutability": "view",
      "type": "function"
    },
    {
      "inputs": [
        {
          "internalType": "bytes32",
          "name": "",
          "type": "bytes32"
        }
      ],
      "name": "_activeDebts",
      "outputs": [
        {
          "internalType": "uint256",
          "name": "",
          "type": "uint256"
        }
      ],
      "stateMutability": "view",
      "type": "function"
    },
    {
      "inputs": [
        {
          "internalType": "bytes",
          "name": "",
          "type": "bytes"
        },
        {
          "internalType": "uint256",
          "name": "",
          "type": "uint256"
        }
      ],
      "name": "_collaterals",
      "outputs": [
        {
          "internalType": "uint256",
          "name": "collateral",
          "type": "uint256"
        },
        {
          "internalType": "int256",
          "name": "ondelta",
          "type": "int256"
        }
      ],
      "stateMutability": "view",
      "type": "function"
    },
    {
      "inputs": [
        {
          "internalType": "bytes32",
          "name": "",
          "type": "bytes32"
        },
        {
          "internalType": "uint256",
          "name": "",
          "type": "uint256"
        }
      ],
      "name": "_debtIndex",
      "outputs": [
        {
          "internalType": "uint256",
          "name": "",
          "type": "uint256"
        }
      ],
      "stateMutability": "view",
      "type": "function"
    },
    {
      "inputs": [
        {
          "internalType": "bytes32",
          "name": "",
          "type": "bytes32"
        },
        {
          "internalType": "uint256",
          "name": "",
          "type": "uint256"
        },
        {
          "internalType": "uint256",
          "name": "",
          "type": "uint256"
        }
      ],
      "name": "_debts",
      "outputs": [
        {
          "internalType": "bytes32",
          "name": "creditor",
          "type": "bytes32"
        },
        {
          "internalType": "uint256",
          "name": "amount",
          "type": "uint256"
        }
      ],
      "stateMutability": "view",
      "type": "function"
    },
    {
      "inputs": [
        {
          "internalType": "bytes32",
          "name": "",
          "type": "bytes32"
        },
        {
          "internalType": "uint256",
          "name": "",
          "type": "uint256"
        }
      ],
      "name": "_reserves",
      "outputs": [
        {
          "internalType": "uint256",
          "name": "",
          "type": "uint256"
        }
      ],
      "stateMutability": "view",
      "type": "function"
    },
    {
      "inputs": [
        {
          "internalType": "uint256",
          "name": "",
          "type": "uint256"
        }
      ],
      "name": "_tokens",
      "outputs": [
        {
          "internalType": "bytes32",
          "name": "",
          "type": "bytes32"
        }
      ],
      "stateMutability": "view",
      "type": "function"
    },
    {
      "inputs": [
        {
          "internalType": "bytes32",
          "name": "e1",
          "type": "bytes32"
        },
        {
          "internalType": "bytes32",
          "name": "e2",
          "type": "bytes32"
        }
      ],
      "name": "accountKey",
      "outputs": [
        {
          "internalType": "bytes",
          "name": "",
          "type": "bytes"
        }
      ],
      "stateMutability": "pure",
      "type": "function"
    },
    {
      "inputs": [
        {
          "internalType": "address",
          "name": "provider",
          "type": "address"
        }
      ],
      "name": "addEntityProvider",
      "outputs": [],
      "stateMutability": "nonpayable",
      "type": "function"
    },
    {
      "inputs": [],
      "name": "admin",
      "outputs": [
        {
          "internalType": "address",
          "name": "",
          "type": "address"
        }
      ],
      "stateMutability": "view",
      "type": "function"
    },
    {
      "inputs": [
        {
          "internalType": "address",
          "name": "",
          "type": "address"
        }
      ],
      "name": "approvedEntityProviders",
      "outputs": [
        {
          "internalType": "bool",
          "name": "",
          "type": "bool"
        }
      ],
      "stateMutability": "view",
      "type": "function"
    },
    {
      "inputs": [
        {
          "internalType": "bytes32",
          "name": "leftEntity",
          "type": "bytes32"
        },
        {
          "internalType": "bytes32",
          "name": "rightEntity",
          "type": "bytes32"
        },
        {
          "components": [
            {
              "internalType": "uint256",
              "name": "tokenId",
              "type": "uint256"
            },
            {
              "internalType": "int256",
              "name": "leftDiff",
              "type": "int256"
            },
            {
              "internalType": "int256",
              "name": "rightDiff",
              "type": "int256"
            },
            {
              "internalType": "int256",
              "name": "collateralDiff",
              "type": "int256"
            },
            {
              "internalType": "int256",
              "name": "ondeltaDiff",
              "type": "int256"
            }
          ],
          "internalType": "struct SettlementDiff[]",
          "name": "diffs",
          "type": "tuple[]"
        },
        {
          "internalType": "uint256[]",
          "name": "forgiveDebtsInTokenIds",
          "type": "uint256[]"
        },
        {
          "components": [
            {
              "internalType": "bytes32",
              "name": "insured",
              "type": "bytes32"
            },
            {
              "internalType": "bytes32",
              "name": "insurer",
              "type": "bytes32"
            },
            {
              "internalType": "uint256",
              "name": "tokenId",
              "type": "uint256"
            },
            {
              "internalType": "uint256",
              "name": "limit",
              "type": "uint256"
            },
            {
              "internalType": "uint256",
              "name": "expiresAt",
              "type": "uint256"
            }
          ],
          "internalType": "struct InsuranceRegistration[]",
          "name": "insuranceRegs",
          "type": "tuple[]"
        }
      ],
      "name": "computeSettlementHash",
      "outputs": [
        {
          "internalType": "bytes32",
          "name": "hash",
          "type": "bytes32"
        },
        {
          "internalType": "uint256",
          "name": "nonce",
          "type": "uint256"
        },
        {
          "internalType": "uint256",
          "name": "encodedMsgLength",
          "type": "uint256"
        }
      ],
      "stateMutability": "view",
      "type": "function"
    },
    {
      "inputs": [],
      "name": "defaultDisputeDelay",
      "outputs": [
        {
          "internalType": "uint256",
          "name": "",
          "type": "uint256"
        }
      ],
      "stateMutability": "view",
      "type": "function"
    },
    {
      "inputs": [
        {
          "components": [
            {
              "internalType": "bytes32",
              "name": "counterentity",
              "type": "bytes32"
            },
            {
              "internalType": "uint256",
              "name": "initialCooperativeNonce",
              "type": "uint256"
            },
            {
              "internalType": "uint256",
              "name": "finalCooperativeNonce",
              "type": "uint256"
            },
            {
              "internalType": "uint256",
              "name": "initialDisputeNonce",
              "type": "uint256"
            },
            {
              "internalType": "uint256",
              "name": "finalDisputeNonce",
              "type": "uint256"
            },
            {
              "internalType": "bytes32",
              "name": "initialProofbodyHash",
              "type": "bytes32"
            },
            {
              "components": [
                {
                  "internalType": "int256[]",
                  "name": "offdeltas",
                  "type": "int256[]"
                },
                {
                  "internalType": "uint256[]",
                  "name": "tokenIds",
                  "type": "uint256[]"
                },
                {
                  "components": [
                    {
                      "internalType": "address",
                      "name": "transformerAddress",
                      "type": "address"
                    },
                    {
                      "internalType": "bytes",
                      "name": "encodedBatch",
                      "type": "bytes"
                    },
                    {
                      "components": [
                        {
                          "internalType": "uint256",
                          "name": "deltaIndex",
                          "type": "uint256"
                        },
                        {
                          "internalType": "uint256",
                          "name": "rightAllowance",
                          "type": "uint256"
                        },
                        {
                          "internalType": "uint256",
                          "name": "leftAllowance",
                          "type": "uint256"
                        }
                      ],
                      "internalType": "struct Allowance[]",
                      "name": "allowances",
                      "type": "tuple[]"
                    }
                  ],
                  "internalType": "struct TransformerClause[]",
                  "name": "transformers",
                  "type": "tuple[]"
                }
              ],
              "internalType": "struct ProofBody",
              "name": "finalProofbody",
              "type": "tuple"
            },
            {
              "internalType": "bytes",
              "name": "finalArguments",
              "type": "bytes"
            },
            {
              "internalType": "bytes",
              "name": "initialArguments",
              "type": "bytes"
            },
            {
              "internalType": "bytes",
              "name": "sig",
              "type": "bytes"
            },
            {
              "internalType": "bool",
              "name": "startedByLeft",
              "type": "bool"
            },
            {
              "internalType": "uint256",
              "name": "disputeUntilBlock",
              "type": "uint256"
            },
            {
              "internalType": "bool",
              "name": "cooperative",
              "type": "bool"
            }
          ],
          "internalType": "struct FinalDisputeProof",
          "name": "params",
          "type": "tuple"
        }
      ],
      "name": "disputeFinalize",
      "outputs": [
        {
          "internalType": "bool",
          "name": "",
          "type": "bool"
        }
      ],
      "stateMutability": "nonpayable",
      "type": "function"
    },
    {
      "inputs": [
        {
          "components": [
            {
              "internalType": "bytes32",
              "name": "counterentity",
              "type": "bytes32"
            },
            {
              "internalType": "uint256",
              "name": "cooperativeNonce",
              "type": "uint256"
            },
            {
              "internalType": "uint256",
              "name": "disputeNonce",
              "type": "uint256"
            },
            {
              "internalType": "bytes32",
              "name": "proofbodyHash",
              "type": "bytes32"
            },
            {
              "internalType": "bytes",
              "name": "sig",
              "type": "bytes"
            },
            {
              "internalType": "bytes",
              "name": "initialArguments",
              "type": "bytes"
            }
          ],
          "internalType": "struct InitialDisputeProof",
          "name": "params",
          "type": "tuple"
        }
      ],
      "name": "disputeStart",
      "outputs": [
        {
          "internalType": "bool",
          "name": "",
          "type": "bool"
        }
      ],
      "stateMutability": "nonpayable",
      "type": "function"
    },
    {
      "inputs": [],
      "name": "emergencyPause",
      "outputs": [
        {
          "internalType": "bool",
          "name": "",
          "type": "bool"
        }
      ],
      "stateMutability": "view",
      "type": "function"
    },
    {
      "inputs": [
        {
          "internalType": "bytes32",
          "name": "entity",
          "type": "bytes32"
        },
        {
          "internalType": "uint256",
          "name": "tokenId",
          "type": "uint256"
        }
      ],
      "name": "enforceDebts",
      "outputs": [
        {
          "internalType": "uint256",
          "name": "",
          "type": "uint256"
        }
      ],
      "stateMutability": "nonpayable",
      "type": "function"
    },
    {
      "inputs": [
        {
          "internalType": "bytes32",
          "name": "",
          "type": "bytes32"
        }
      ],
      "name": "entityDisputeDelays",
      "outputs": [
        {
          "internalType": "uint256",
          "name": "",
          "type": "uint256"
        }
      ],
      "stateMutability": "view",
      "type": "function"
    },
    {
      "inputs": [
        {
          "internalType": "address",
          "name": "",
          "type": "address"
        }
      ],
      "name": "entityNonces",
      "outputs": [
        {
          "internalType": "uint256",
          "name": "",
          "type": "uint256"
        }
      ],
      "stateMutability": "view",
      "type": "function"
    },
    {
      "inputs": [],
      "name": "entityProvider",
      "outputs": [
        {
          "internalType": "address",
          "name": "",
          "type": "address"
        }
      ],
      "stateMutability": "view",
      "type": "function"
    },
    {
      "inputs": [
        {
          "internalType": "uint256",
          "name": "",
          "type": "uint256"
        }
      ],
      "name": "entityProvidersList",
      "outputs": [
        {
          "internalType": "address",
          "name": "",
          "type": "address"
        }
      ],
      "stateMutability": "view",
      "type": "function"
    },
    {
      "inputs": [
        {
          "components": [
            {
              "internalType": "bytes32",
              "name": "entity",
              "type": "bytes32"
            },
            {
              "internalType": "bytes32",
              "name": "packedToken",
              "type": "bytes32"
            },
            {
              "internalType": "uint256",
              "name": "internalTokenId",
              "type": "uint256"
            },
            {
              "internalType": "uint256",
              "name": "amount",
              "type": "uint256"
            }
          ],
          "internalType": "struct ExternalTokenToReserve",
          "name": "params",
          "type": "tuple"
        }
      ],
      "name": "externalTokenToReserve",
      "outputs": [],
      "stateMutability": "nonpayable",
      "type": "function"
    },
    {
      "inputs": [],
      "name": "getApprovedProviders",
      "outputs": [
        {
          "internalType": "address[]",
          "name": "",
          "type": "address[]"
        }
      ],
      "stateMutability": "view",
      "type": "function"
    },
    {
      "inputs": [
        {
          "internalType": "uint256",
          "name": "tokenId",
          "type": "uint256"
        }
      ],
      "name": "getTokenMetadata",
      "outputs": [
        {
          "internalType": "address",
          "name": "contractAddress",
          "type": "address"
        },
        {
          "internalType": "uint96",
          "name": "externalTokenId",
          "type": "uint96"
        },
        {
          "internalType": "uint8",
          "name": "tokenType",
          "type": "uint8"
        }
      ],
      "stateMutability": "view",
      "type": "function"
    },
    {
      "inputs": [],
      "name": "getTokensLength",
      "outputs": [
        {
          "internalType": "uint256",
          "name": "",
          "type": "uint256"
        }
      ],
      "stateMutability": "view",
      "type": "function"
    },
    {
      "inputs": [
        {
          "internalType": "bytes32",
          "name": "",
          "type": "bytes32"
        }
      ],
      "name": "insuranceCursor",
      "outputs": [
        {
          "internalType": "uint256",
          "name": "",
          "type": "uint256"
        }
      ],
      "stateMutability": "view",
      "type": "function"
    },
    {
      "inputs": [
        {
          "internalType": "bytes32",
          "name": "",
          "type": "bytes32"
        },
        {
          "internalType": "uint256",
          "name": "",
          "type": "uint256"
        }
      ],
      "name": "insuranceLines",
      "outputs": [
        {
          "internalType": "bytes32",
          "name": "insurer",
          "type": "bytes32"
        },
        {
          "internalType": "uint256",
          "name": "tokenId",
          "type": "uint256"
        },
        {
          "internalType": "uint256",
          "name": "remaining",
          "type": "uint256"
        },
        {
          "internalType": "uint256",
          "name": "expiresAt",
          "type": "uint256"
        }
      ],
      "stateMutability": "view",
      "type": "function"
    },
    {
      "inputs": [
        {
          "internalType": "bytes32",
          "name": "entity",
          "type": "bytes32"
        },
        {
          "internalType": "uint256",
          "name": "tokenId",
          "type": "uint256"
        },
        {
          "internalType": "uint256",
          "name": "amount",
          "type": "uint256"
        }
      ],
      "name": "mintToReserve",
      "outputs": [],
      "stateMutability": "nonpayable",
      "type": "function"
    },
    {
      "inputs": [
        {
          "internalType": "address",
          "name": "",
          "type": "address"
        },
        {
          "internalType": "address",
          "name": "",
          "type": "address"
        },
        {
          "internalType": "uint256[]",
          "name": "",
          "type": "uint256[]"
        },
        {
          "internalType": "uint256[]",
          "name": "",
          "type": "uint256[]"
        },
        {
          "internalType": "bytes",
          "name": "",
          "type": "bytes"
        }
      ],
      "name": "onERC1155BatchReceived",
      "outputs": [
        {
          "internalType": "bytes4",
          "name": "",
          "type": "bytes4"
        }
      ],
      "stateMutability": "pure",
      "type": "function"
    },
    {
      "inputs": [
        {
          "internalType": "address",
          "name": "",
          "type": "address"
        },
        {
          "internalType": "address",
          "name": "from",
          "type": "address"
        },
        {
          "internalType": "uint256",
          "name": "id",
          "type": "uint256"
        },
        {
          "internalType": "uint256",
          "name": "value",
          "type": "uint256"
        },
        {
          "internalType": "bytes",
          "name": "",
          "type": "bytes"
        }
      ],
      "name": "onERC1155Received",
      "outputs": [
        {
          "internalType": "bytes4",
          "name": "",
          "type": "bytes4"
        }
      ],
      "stateMutability": "nonpayable",
      "type": "function"
    },
    {
      "inputs": [
        {
          "internalType": "uint8",
          "name": "tokenType",
          "type": "uint8"
        },
        {
          "internalType": "address",
          "name": "contractAddress",
          "type": "address"
        },
        {
          "internalType": "uint96",
          "name": "externalTokenId",
          "type": "uint96"
        }
      ],
      "name": "packTokenReference",
      "outputs": [
        {
          "internalType": "bytes32",
          "name": "",
          "type": "bytes32"
        }
      ],
      "stateMutability": "pure",
      "type": "function"
    },
    {
      "inputs": [
        {
          "internalType": "bytes",
          "name": "encodedBatch",
          "type": "bytes"
        },
        {
          "internalType": "address",
          "name": "entityProvider",
          "type": "address"
        },
        {
          "internalType": "bytes",
          "name": "hankoData",
          "type": "bytes"
        },
        {
          "internalType": "uint256",
          "name": "nonce",
          "type": "uint256"
        }
      ],
      "name": "processBatch",
      "outputs": [
        {
          "internalType": "bool",
          "name": "completeSuccess",
          "type": "bool"
        }
      ],
      "stateMutability": "nonpayable",
      "type": "function"
    },
    {
      "inputs": [
        {
          "internalType": "address",
          "name": "provider",
          "type": "address"
        }
      ],
      "name": "removeEntityProvider",
      "outputs": [],
      "stateMutability": "nonpayable",
      "type": "function"
    },
    {
      "inputs": [
        {
          "internalType": "bytes32",
          "name": "fromEntity",
          "type": "bytes32"
        },
        {
          "internalType": "bytes32",
          "name": "toEntity",
          "type": "bytes32"
        },
        {
          "internalType": "uint256",
          "name": "tokenId",
          "type": "uint256"
        },
        {
          "internalType": "uint256",
          "name": "amount",
          "type": "uint256"
        }
      ],
      "name": "reserveToReserve",
      "outputs": [
        {
          "internalType": "bool",
          "name": "",
          "type": "bool"
        }
      ],
      "stateMutability": "nonpayable",
      "type": "function"
    },
    {
      "inputs": [
        {
          "internalType": "uint256",
          "name": "delayBlocks",
          "type": "uint256"
        }
      ],
      "name": "setDefaultDisputeDelay",
      "outputs": [],
      "stateMutability": "nonpayable",
      "type": "function"
    },
    {
      "inputs": [
        {
          "internalType": "bool",
          "name": "isPaused",
          "type": "bool"
        }
      ],
      "name": "setEmergencyPause",
      "outputs": [],
      "stateMutability": "nonpayable",
      "type": "function"
    },
    {
      "inputs": [
        {
          "internalType": "bytes32",
          "name": "entity",
          "type": "bytes32"
        },
        {
          "internalType": "uint256",
          "name": "delayBlocks",
          "type": "uint256"
        }
      ],
      "name": "setEntityDisputeDelay",
      "outputs": [],
      "stateMutability": "nonpayable",
      "type": "function"
    },
    {
      "inputs": [
        {
          "internalType": "bytes32",
          "name": "leftEntity",
          "type": "bytes32"
        },
        {
          "internalType": "bytes32",
          "name": "rightEntity",
          "type": "bytes32"
        },
        {
          "components": [
            {
              "internalType": "uint256",
              "name": "tokenId",
              "type": "uint256"
            },
            {
              "internalType": "int256",
              "name": "leftDiff",
              "type": "int256"
            },
            {
              "internalType": "int256",
              "name": "rightDiff",
              "type": "int256"
            },
            {
              "internalType": "int256",
              "name": "collateralDiff",
              "type": "int256"
            },
            {
              "internalType": "int256",
              "name": "ondeltaDiff",
              "type": "int256"
            }
          ],
          "internalType": "struct SettlementDiff[]",
          "name": "diffs",
          "type": "tuple[]"
        },
        {
          "internalType": "uint256[]",
          "name": "forgiveDebtsInTokenIds",
          "type": "uint256[]"
        },
        {
          "components": [
            {
              "internalType": "bytes32",
              "name": "insured",
              "type": "bytes32"
            },
            {
              "internalType": "bytes32",
              "name": "insurer",
              "type": "bytes32"
            },
            {
              "internalType": "uint256",
              "name": "tokenId",
              "type": "uint256"
            },
            {
              "internalType": "uint256",
              "name": "limit",
              "type": "uint256"
            },
            {
              "internalType": "uint256",
              "name": "expiresAt",
              "type": "uint256"
            }
          ],
          "internalType": "struct InsuranceRegistration[]",
          "name": "insuranceRegs",
          "type": "tuple[]"
        },
        {
          "internalType": "bytes",
          "name": "sig",
          "type": "bytes"
        }
      ],
      "name": "settle",
      "outputs": [
        {
          "internalType": "bool",
          "name": "",
          "type": "bool"
        }
      ],
      "stateMutability": "nonpayable",
      "type": "function"
    },
    {
      "inputs": [
        {
          "internalType": "bytes32",
          "name": "",
          "type": "bytes32"
        }
      ],
      "name": "tokenToId",
      "outputs": [
        {
          "internalType": "uint256",
          "name": "",
          "type": "uint256"
        }
      ],
      "stateMutability": "view",
      "type": "function"
    },
    {
      "inputs": [
        {
          "internalType": "bytes32",
          "name": "packed",
          "type": "bytes32"
        }
      ],
      "name": "unpackTokenReference",
      "outputs": [
        {
          "internalType": "address",
          "name": "contractAddress",
          "type": "address"
        },
        {
          "internalType": "uint96",
          "name": "externalTokenId",
          "type": "uint96"
        },
        {
          "internalType": "uint8",
          "name": "tokenType",
          "type": "uint8"
        }
      ],
      "stateMutability": "pure",
      "type": "function"
    },
    {
      "inputs": [
        {
          "internalType": "bytes32",
          "name": "entity",
          "type": "bytes32"
        },
        {
          "components": [
            {
              "components": [
                {
                  "internalType": "uint256",
                  "name": "tokenId",
                  "type": "uint256"
                },
                {
                  "internalType": "uint256",
                  "name": "amount",
                  "type": "uint256"
                }
              ],
              "internalType": "struct Flashloan[]",
              "name": "flashloans",
              "type": "tuple[]"
            },
            {
              "components": [
                {
                  "internalType": "bytes32",
                  "name": "receivingEntity",
                  "type": "bytes32"
                },
                {
                  "internalType": "uint256",
                  "name": "tokenId",
                  "type": "uint256"
                },
                {
                  "internalType": "uint256",
                  "name": "amount",
                  "type": "uint256"
                }
              ],
              "internalType": "struct ReserveToReserve[]",
              "name": "reserveToReserve",
              "type": "tuple[]"
            },
            {
              "components": [
                {
                  "internalType": "uint256",
                  "name": "tokenId",
                  "type": "uint256"
                },
                {
                  "internalType": "bytes32",
                  "name": "receivingEntity",
                  "type": "bytes32"
                },
                {
                  "components": [
                    {
                      "internalType": "bytes32",
                      "name": "entity",
                      "type": "bytes32"
                    },
                    {
                      "internalType": "uint256",
                      "name": "amount",
                      "type": "uint256"
                    }
                  ],
                  "internalType": "struct EntityAmount[]",
                  "name": "pairs",
                  "type": "tuple[]"
                }
              ],
              "internalType": "struct ReserveToCollateral[]",
              "name": "reserveToCollateral",
              "type": "tuple[]"
            },
            {
              "components": [
                {
                  "internalType": "bytes32",
                  "name": "counterparty",
                  "type": "bytes32"
                },
                {
                  "internalType": "uint256",
                  "name": "tokenId",
                  "type": "uint256"
                },
                {
                  "internalType": "uint256",
                  "name": "amount",
                  "type": "uint256"
                },
                {
                  "internalType": "bytes",
                  "name": "sig",
                  "type": "bytes"
                }
              ],
              "internalType": "struct CollateralToReserve[]",
              "name": "collateralToReserve",
              "type": "tuple[]"
            },
            {
              "components": [
                {
                  "internalType": "bytes32",
                  "name": "leftEntity",
                  "type": "bytes32"
                },
                {
                  "internalType": "bytes32",
                  "name": "rightEntity",
                  "type": "bytes32"
                },
                {
                  "components": [
                    {
                      "internalType": "uint256",
                      "name": "tokenId",
                      "type": "uint256"
                    },
                    {
                      "internalType": "int256",
                      "name": "leftDiff",
                      "type": "int256"
                    },
                    {
                      "internalType": "int256",
                      "name": "rightDiff",
                      "type": "int256"
                    },
                    {
                      "internalType": "int256",
                      "name": "collateralDiff",
                      "type": "int256"
                    },
                    {
                      "internalType": "int256",
                      "name": "ondeltaDiff",
                      "type": "int256"
                    }
                  ],
                  "internalType": "struct SettlementDiff[]",
                  "name": "diffs",
                  "type": "tuple[]"
                },
                {
                  "internalType": "uint256[]",
                  "name": "forgiveDebtsInTokenIds",
                  "type": "uint256[]"
                },
                {
                  "components": [
                    {
                      "internalType": "bytes32",
                      "name": "insured",
                      "type": "bytes32"
                    },
                    {
                      "internalType": "bytes32",
                      "name": "insurer",
                      "type": "bytes32"
                    },
                    {
                      "internalType": "uint256",
                      "name": "tokenId",
                      "type": "uint256"
                    },
                    {
                      "internalType": "uint256",
                      "name": "limit",
                      "type": "uint256"
                    },
                    {
                      "internalType": "uint256",
                      "name": "expiresAt",
                      "type": "uint256"
                    }
                  ],
                  "internalType": "struct InsuranceRegistration[]",
                  "name": "insuranceRegs",
                  "type": "tuple[]"
                },
                {
                  "internalType": "bytes",
                  "name": "sig",
                  "type": "bytes"
                },
                {
                  "internalType": "address",
                  "name": "entityProvider",
                  "type": "address"
                },
                {
                  "internalType": "bytes",
                  "name": "hankoData",
                  "type": "bytes"
                },
                {
                  "internalType": "uint256",
                  "name": "nonce",
                  "type": "uint256"
                }
              ],
              "internalType": "struct Settlement[]",
              "name": "settlements",
              "type": "tuple[]"
            },
            {
              "components": [
                {
                  "internalType": "bytes32",
                  "name": "counterentity",
                  "type": "bytes32"
                },
                {
                  "internalType": "uint256",
                  "name": "cooperativeNonce",
                  "type": "uint256"
                },
                {
                  "internalType": "uint256",
                  "name": "disputeNonce",
                  "type": "uint256"
                },
                {
                  "internalType": "bytes32",
                  "name": "proofbodyHash",
                  "type": "bytes32"
                },
                {
                  "internalType": "bytes",
                  "name": "sig",
                  "type": "bytes"
                },
                {
                  "internalType": "bytes",
                  "name": "initialArguments",
                  "type": "bytes"
                }
              ],
              "internalType": "struct InitialDisputeProof[]",
              "name": "disputeStarts",
              "type": "tuple[]"
            },
            {
              "components": [
                {
                  "internalType": "bytes32",
                  "name": "counterentity",
                  "type": "bytes32"
                },
                {
                  "internalType": "uint256",
                  "name": "initialCooperativeNonce",
                  "type": "uint256"
                },
                {
                  "internalType": "uint256",
                  "name": "finalCooperativeNonce",
                  "type": "uint256"
                },
                {
                  "internalType": "uint256",
                  "name": "initialDisputeNonce",
                  "type": "uint256"
                },
                {
                  "internalType": "uint256",
                  "name": "finalDisputeNonce",
                  "type": "uint256"
                },
                {
                  "internalType": "bytes32",
                  "name": "initialProofbodyHash",
                  "type": "bytes32"
                },
                {
                  "components": [
                    {
                      "internalType": "int256[]",
                      "name": "offdeltas",
                      "type": "int256[]"
                    },
                    {
                      "internalType": "uint256[]",
                      "name": "tokenIds",
                      "type": "uint256[]"
                    },
                    {
                      "components": [
                        {
                          "internalType": "address",
                          "name": "transformerAddress",
                          "type": "address"
                        },
                        {
                          "internalType": "bytes",
                          "name": "encodedBatch",
                          "type": "bytes"
                        },
                        {
                          "components": [
                            {
                              "internalType": "uint256",
                              "name": "deltaIndex",
                              "type": "uint256"
                            },
                            {
                              "internalType": "uint256",
                              "name": "rightAllowance",
                              "type": "uint256"
                            },
                            {
                              "internalType": "uint256",
                              "name": "leftAllowance",
                              "type": "uint256"
                            }
                          ],
                          "internalType": "struct Allowance[]",
                          "name": "allowances",
                          "type": "tuple[]"
                        }
                      ],
                      "internalType": "struct TransformerClause[]",
                      "name": "transformers",
                      "type": "tuple[]"
                    }
                  ],
                  "internalType": "struct ProofBody",
                  "name": "finalProofbody",
                  "type": "tuple"
                },
                {
                  "internalType": "bytes",
                  "name": "finalArguments",
                  "type": "bytes"
                },
                {
                  "internalType": "bytes",
                  "name": "initialArguments",
                  "type": "bytes"
                },
                {
                  "internalType": "bytes",
                  "name": "sig",
                  "type": "bytes"
                },
                {
                  "internalType": "bool",
                  "name": "startedByLeft",
                  "type": "bool"
                },
                {
                  "internalType": "uint256",
                  "name": "disputeUntilBlock",
                  "type": "uint256"
                },
                {
                  "internalType": "bool",
                  "name": "cooperative",
                  "type": "bool"
                }
              ],
              "internalType": "struct FinalDisputeProof[]",
              "name": "disputeFinalizations",
              "type": "tuple[]"
            },
            {
              "components": [
                {
                  "internalType": "bytes32",
                  "name": "entity",
                  "type": "bytes32"
                },
                {
                  "internalType": "bytes32",
                  "name": "packedToken",
                  "type": "bytes32"
                },
                {
                  "internalType": "uint256",
                  "name": "internalTokenId",
                  "type": "uint256"
                },
                {
                  "internalType": "uint256",
                  "name": "amount",
                  "type": "uint256"
                }
              ],
              "internalType": "struct ExternalTokenToReserve[]",
              "name": "externalTokenToReserve",
              "type": "tuple[]"
            },
            {
              "components": [
                {
                  "internalType": "bytes32",
                  "name": "receivingEntity",
                  "type": "bytes32"
                },
                {
                  "internalType": "uint256",
                  "name": "tokenId",
                  "type": "uint256"
                },
                {
                  "internalType": "uint256",
                  "name": "amount",
                  "type": "uint256"
                }
              ],
              "internalType": "struct ReserveToExternalToken[]",
              "name": "reserveToExternalToken",
              "type": "tuple[]"
            },
            {
              "components": [
                {
                  "internalType": "address",
                  "name": "transformer",
                  "type": "address"
                },
                {
                  "internalType": "bytes32",
                  "name": "secret",
                  "type": "bytes32"
                }
              ],
              "internalType": "struct SecretReveal[]",
              "name": "revealSecrets",
              "type": "tuple[]"
            },
            {
              "internalType": "uint256",
              "name": "hub_id",
              "type": "uint256"
            }
          ],
          "internalType": "struct Batch",
          "name": "batch",
          "type": "tuple"
        }
      ],
      "name": "unsafeProcessBatch",
      "outputs": [
        {
          "internalType": "bool",
          "name": "completeSuccess",
          "type": "bool"
        }
      ],
      "stateMutability": "nonpayable",
      "type": "function"
    }
  ],
  "bytecode": "0x60c0346200024857601f6200637938819003918201601f19168301916001600160401b038311848410176200024d578084926020946040528339810103126200024857516001600160a01b03811680820362000248576000916001835560146006558115620001f557608052808252600160205260408220600160ff1982541617905560025490680100000000000000009182811015620001e1576001810180600255811015620001cd57600284527f405787fa12a823e0f2b7631cc41b3ba8828b3321ca811111fa75cd3aa3bb5ace0180546001600160a01b03191690911790553360a052600d5490811015620001b9576001810180600d55811015620001a557600d82527fd7b6990105719101dabeb77144f2a3385c8033acd3af97e9423a695e81ad1eb501556040516161159081620002648239608051818181610b9c0152818161150301528181612499015281816133b101528181613c9a015261419b015260a05181818161022c0152818161028f015281816104c40152818161057d015281816107aa01528181610cc601528181611314015281816113d501526116d00152f35b634e487b7160e01b82526032600452602482fd5b634e487b7160e01b82526041600452602482fd5b634e487b7160e01b84526032600452602484fd5b634e487b7160e01b84526041600452602484fd5b60405162461bcd60e51b815260206004820152602560248201527f456e7469747950726f76696465722063616e6e6f74206265207a65726f206164604482015264647265737360d81b6064820152608490fd5b600080fd5b634e487b7160e01b600052604160045260246000fdfe60a060408181526004918236101561001657600080fd5b600092833560e01c9182630c0a46a814611a56575081630dedd624146119e8578163125c2cc4146119755781631e40079c14611918578163266afe1b146118535781632f84cf7d146117f857816331cf2a56146117315781633644e515146117085781633925cd44146115325781634318cdd0146114ee57816351858e27146114ca57816358d642bc146113b0578163603168011461134b578163664b8b21146112335781636b79134d1461120b5781637508b916146111df57816388a1cd7614611194578163907efb1b1461117557816392cf61e5146111235781639304677d146110eb57816396954a9f146110c3578163abc8d1ac14611085578163acd6f20814611059578163b0c26ecf1461103a578163bb2c250c14610f5d578163bc197c8114610eb7578163c408a90914610d2e578163d148b4c814610cae578163d19fd92e14610c86578163d57bb1d614610b11578163d595b4f5146107f2578163d8d1a65714610789578163dd865c8b14610724578163ddc3948014610555578163e812c569146104ae578163ec6d8e061461046d578163ed70554d14610434578163f176e326146103f6578163f23a6e61146102be578163f851a4401461027a578163fbd6d63f14610218575063fc3c4c3e146101f357600080fd5b346102145760209061020d61020736611c1d565b90614e83565b9051908152f35b5080fd5b919050346102765761022936611c1d565b927f00000000000000000000000000000000000000000000000000000000000000006001600160a01b0316330361026857508352600760205282205580f35b8251633485c51360e21b8152fd5b8280fd5b505034610214578160031936011261021457517f00000000000000000000000000000000000000000000000000000000000000006001600160a01b03168152602090f35b9050346102765760a0366003190112610276576102d9611cdc565b506102e2611cf2565b506084356001600160401b0381116103f2576103019036908301612155565b50508151632ecb094360e21b8152600282820152336024820152604480356001600160601b03169082015260209390848160648173__$1a0918a2aa2208593bb0a5d7644cd0946b$__5af49081156103e85782916103bb575b50808252600e8552838220541561037c575b5050505163f23a6e6160e01b8152f35b6103858161318c565b600d546000198101939084116103a857508152600e84528290205538808061036c565b634e487b7160e01b835260119052602482fd5b90508481813d83116103e1575b6103d28183611b62565b8101031261021457513861035a565b503d6103c8565b84513d84823e3d90fd5b8380fd5b8284346104315781600319360112610431575061041a61042d92602435903561314c565b9051918291602083526020830190612234565b0390f35b80fd5b905034610276576020366003190112610276573591600d54831015610431575061045f602092612219565b91905490519160031b1c8152f35b90503461027657602036600319011261027657359160025483101561043157506104986020926121fe565b905491519160018060a01b039160031b1c168152f35b905034610276576104be366120ef565b909391927f00000000000000000000000000000000000000000000000000000000000000006001600160a01b0316330361026857811561054757506000805160206160808339815191529160209184875260038352818720868852835261052982882091825461268a565b9055838652600382528086208587528252808620549051908152a380f35b825163440a57bf60e01b8152fd5b8391503461021457602036600319011261021457610571611cdc565b6001600160a01b0391907f000000000000000000000000000000000000000000000000000000000000000083163303610715578216916105b2831515612697565b828452600191600160205260ff8686205416156106ec57849584849596526001602052862060ff19815416905585935b610610575b85857f67c5a35d33d48c47ef33c82c62eda6254aad034fab4c51abe26a6d06ad174a348280a280f35b6002805490818610156106e557839187610629886121fe565b949054600395861b1c16146106455750505082809401936105e2565b919590945060001992918381019081116106d257906106778561066a610695946121fe565b9054908a1b1c16916121fe565b90919060018060a01b038084549260031b9316831b921b1916179055565b83549081156106bf575001926106aa846121fe565b81939154921b1b1916905555828080806105e7565b634e487b7160e01b885260319052602487fd5b634e487b7160e01b895260118352602489fd5b50506105e7565b606490602087519162461bcd60e51b83528201526003602482015262216f6b60e81b6044820152fd5b508351633485c51360e21b8152fd5b9050346102765760803660031901126102765781519161074383611ac7565b813583526024356020840152604435818401526064356060840152600284541461077c57836107758460028355614b73565b6001815580f35b51633018d46b60e11b8152fd5b9050346102765760203660031901126102765780359182151583036103f2577f00000000000000000000000000000000000000000000000000000000000000006001600160a01b031633036107e557836107e2846130fb565b80f35b51633485c51360e21b8152fd5b91905034610276576080366003190112610276576001600160401b03928235848111610214576108259036908501612155565b610830959195611cf2565b95604435838111610b0d576108489036908801612155565b9390926064359760ff600b5416610aff576002875414610af157600287556001600160a01b03998a168088526001602090815289892054909b919060ff1615610ac25789516359516e5f60e01b81526000805160206160a08339815191528185015246602482015230604482015260a06064820152969594939291908c88808e6108d660a48301898c6130da565b906084830152038173__$1a0918a2aa2208593bb0a5d7644cd0946b$__5af4978815610ab857908b918b99610a7f575b5061093090888c8c85519c8d9586948593631155a0c560e31b8552898c86015260448501916130da565b90602483015203925af18015610a755789978a91610a36575b50158015610a2e575b610a1f57861690818952600f8c528989205460018101809111610a0c578b036109fe57508752600f8a52888888205582019189818403126109fa5780359182116109fa576001969594936109d66109d07fbd6e57133956b4a3944b483a9e595b4aab16071cf15a39384fdb1b7015865aab958b956109de9501612749565b8661403e565b953691611ba0565b898151910120938151988952151597888a820152a35551908152f35b8680fd5b8951633485c51360e21b8152fd5b634e487b7160e01b8a526011825260248afd5b508851631bd18a1960e31b8152fd5b508615610952565b8098508b8092503d8311610a6e575b610a4f8183611b62565b81010312610a6a57610a648c8851980161227a565b38610949565b8880fd5b503d610a45565b8a513d8b823e3d90fd5b8e80929a508193503d8311610ab1575b610a998183611b62565b81010312610aad5751968a90610930610906565b8980fd5b503d610a8f565b8b513d8c823e3d90fd5b895162461bcd60e51b81528084018d9052600960248201526810b83937bb34b232b960b91b6044820152606490fd5b8751633018d46b60e11b8152fd5b8751633485c51360e21b8152fd5b8480fd5b9190503461027657602092836003193601126104315782356001600160401b03811161021457610b449036908501612182565b6002825414610c77576002825582518591610b5e82611afe565b6001825282845b818110610c3f575050610b7782612259565b52610b8181612259565b5060065484516312f6ab5960e31b81529586928392610bc6927f0000000000000000000000000000000000000000000000000000000000000000929033908601612ffe565b038173__$1a0918a2aa2208593bb0a5d7644cd0946b$__5af4928315610c33578193610bfa575b5060019055519015158152f35b9092508381813d8311610c2c575b610c128183611b62565b8101031261027657610c2560019161227a565b9290610bed565b503d610c08565b509051903d90823e3d90fd5b8651610c4a81611a7b565b868152868382015286888201526060878183015280608083015260a0820152828286010152018390610b65565b505051633018d46b60e11b8152fd5b905034610276576020366003190112610276576020928291358152600e845220549051908152f35b905034610276576020366003190112610276578035917f00000000000000000000000000000000000000000000000000000000000000006001600160a01b031633036107e5578215610d0257505060065580f35b906020606492519162461bcd60e51b835282015260066024820152652164656c617960d01b6044820152fd5b9050346102765760a09160a06003193601126103f2576001600160401b039360443585811161021457610d649036908501612029565b60643586811161027657610d7b9036908601611c7c565b9560843590811161027657610d969095929536908601612029565b95610da4602435863561314c565b9586958551978880928251610dbf8160209d8e809701611bfa565b8201908152030190205493855193610de789860198848a5260c08988015260e0870190612234565b93866060870152601f1994858782030160808801528a8084519283815201930190855b8c828210610e94575050505090610e2a91858783030160a0880152612fca565b90838583030160c086015288808b5193848152019a0192905b828210610e745750505050610e62908260609803908101835282611b62565b51809320938251948552840152820152f35b90919299898282610e886001948f51612287565b019b0193920190610e43565b8686610ea9869860019596979b9a9b51612287565b979897019501929101610e0a565b905082346104315760a036600319011261043157610ed3611cdc565b50610edc611cf2565b506001600160401b039060443582811161021457610efd9036908501612125565b505060643582811161021457610f169036908501612125565b50506084359182116104315750606492610f3560209236908501612155565b50505162461bcd60e51b8152918201526006602482015265042c4c2e8c6d60d31b6044820152fd5b9190503461027657606036600319011261027657813560ff81168091036103f257610f86611cf2565b6044356001600160601b0381169290839003611036578351632ecb094360e21b8152948501526001600160a01b03166024840152604483015260208260648173__$1a0918a2aa2208593bb0a5d7644cd0946b$__5af491821561102c578392610ff4575b6020838351908152f35b9091506020813d602011611024575b8161101060209383611b62565b810103126102765760209250519038610fea565b3d9150611003565b81513d85823e3d90fd5b8580fd5b505034610214578160031936011261021457602090600d549051908152f35b505034610214578060209261106d36611c1d565b90825260038552828220908252845220549051908152f35b5050346102145760203660031901126102145760209160ff9082906001600160a01b036110b0611cdc565b1681526001855220541690519015158152f35b9050346102765760203660031901126102765760209282913581526007845220549051908152f35b5050346102145760203660031901126102145760209181906001600160a01b03611113611cdc565b168152600f845220549051908152f35b828434610431576020366003190112610431575061114461042d9235612f07565b92516001600160a01b0390921682526001600160601b0316602082015260ff90911660408201529081906060820190565b5050346102145781600319360112610214576020906006549051908152f35b505034610214576111a4366120ef565b918452600860205282842090845260205281832080548210156103f257906111cb91612109565b506001815491015482519182526020820152f35b50503461021457806020926111f336611c1d565b90825260098552828220908252845220549051908152f35b905034610276576020366003190112610276576020928291358152600a845220549051908152f35b839150346102145760031990838236011261027657803591602435906001600160401b038211610b0d576101609082360301126103f25760ff600b541661071557600284541461133c57600284556001600160a01b038381163314908115611310575b50156112c257602094926112b26001936112b893369101612749565b9061403e565b9255519015158152f35b845162461bcd60e51b8152602081840152602260248201527f45323a2063616c6c6572206d75737420626520656e74697479206f722061646d60448201526134b760f11b6064820152608490fd5b90507f000000000000000000000000000000000000000000000000000000000000000016331486611296565b508351633018d46b60e11b8152fd5b8284346104315760203660031901126104315750813591600d54831015611388575061114461137c61042d93612219565b90549060031b1c612f07565b606491519062461bcd60e51b825260208183015260248201526321746f6b60e01b6044820152fd5b838334610214576020366003190112610214576113cb611cdc565b6001600160a01b037f0000000000000000000000000000000000000000000000000000000000000000811633036114ba5781169161140a831515612697565b828452600160205260ff818520541661148f5782845260016020528320600160ff19825416179055600254600160401b81101561147c579061067782600161145594016002556121fe565b7fc395b1bd803c744a815bc34a0426e5eaac03513b9d76bf237a734a004916499c8280a280f35b634e487b7160e01b845260418552602484fd5b5162461bcd60e51b8152602081860152600660248201526565786973747360d01b6044820152606490fd5b8251633485c51360e21b81528590fd5b50503461021457816003193601126102145760209060ff600b541690519015158152f35b505034610214578160031936011261021457517f00000000000000000000000000000000000000000000000000000000000000006001600160a01b03168152602090f35b8284346104315760803660031901126104315782356024356044359160643560ff600b541661166a5760028554146116f857600285556001600160a01b0382811633149081156116cc575b501561167a5782821461166a57801561165a5761159a8483614e83565b5081855260209660038852868620858752885281878720541061164c57508382889287969594600198526003845288872083885284528887206115de828254612667565b90558487526003845288872083885284526115fd89882091825461268a565b9055808652600383528786208287528352878620548851908152600080516020616080833981519152938491a381845260038752858420838552875286868520548751908152a3555160018152f35b8651632fd8225d60e21b8152fd5b855163440a57bf60e01b81528790fd5b8551633485c51360e21b81528790fd5b855162461bcd60e51b8152602081890152602660248201527f45323a2063616c6c6572206d7573742062652066726f6d456e74697479206f726044820152651030b236b4b760d11b6064820152608490fd5b90507f00000000000000000000000000000000000000000000000000000000000000001633148861157d565b8551633018d46b60e11b81528790fd5b505034610214578160031936011261021457602090516000805160206160a08339815191528152f35b8383346102145760c0366003190112610214576001600160401b036044358181116103f2576117639036908601612029565b90606435818111610b0d5761177b9036908701611c7c565b608435828111611036576117929036908801612029565b9160a435908111611036576117aa9036908801611bdc565b9260ff600b54166117e85760028654146117d85791600193916112b893602098600289556024359035612470565b8451633018d46b60e11b81528790fd5b8451633485c51360e21b81528790fd5b8383346102145760203660031901126102145782356001600160401b038111610276576118289036908501611d29565b926002835414611845575060016112b860209460028555336132de565b9051633018d46b60e11b8152fd5b8284346104315780600319360112610431578151600280548083529083526020939284830192909183907f405787fa12a823e0f2b7631cc41b3ba8828b3321ca811111fa75cd3aa3bb5ace90845b8181106118fb57505050816118b7910382611b62565b83519485948186019282875251809352850193925b8281106118db57505050500390f35b83516001600160a01b0316855286955093810193928101926001016118cc565b82546001600160a01b0316845292880192600192830192016118a1565b5050346102145761192836611c1d565b929081526010602052818120908154841015610431575060809261194b91611c33565b50908154916001810154916003600283015492015492815194855260208501528301526060820152f35b828434610431576020366003190112610431578235906001600160401b038211610431575060206060936119af6119c29336908301611bdc565b9082855194838680955193849201611bfa565b820190815203019020805491600260018301549201549181519384526020840152820152f35b90503461027657816003193601126102765780356001600160401b0381116103f2576020611a1e849593611a3093369101611bdc565b81855193828580945193849201611bfa565b810160058152030190206024358252602052206001815491015482519182526020820152f35b929150346103f25760203660031901126103f25792602093358152600c845220548152f35b60c081019081106001600160401b03821117611a9657604052565b634e487b7160e01b600052604160045260246000fd5b606081019081106001600160401b03821117611a9657604052565b608081019081106001600160401b03821117611a9657604052565b61012081019081106001600160401b03821117611a9657604052565b604081019081106001600160401b03821117611a9657604052565b6001600160401b038111611a9657604052565b60e081019081106001600160401b03821117611a9657604052565b602081019081106001600160401b03821117611a9657604052565b601f909101601f19168101906001600160401b03821190821017611a9657604052565b6001600160401b038111611a9657601f01601f191660200190565b929192611bac82611b85565b91611bba6040519384611b62565b829481845281830111611bd7578281602093846000960137010152565b600080fd5b9080601f83011215611bd757816020611bf793359101611ba0565b90565b60005b838110611c0d5750506000910152565b8181015183820152602001611bfd565b6040906003190112611bd7576004359060243590565b8054821015611c4f5760005260206000209060021b0190600090565b634e487b7160e01b600052603260045260246000fd5b6001600160401b038111611a965760051b60200190565b9080601f83011215611bd7576020908235611c9681611c65565b93611ca46040519586611b62565b81855260208086019260051b820101928311611bd757602001905b828210611ccd575050505090565b81358152908301908301611cbf565b600435906001600160a01b0382168203611bd757565b602435906001600160a01b0382168203611bd757565b35906001600160a01b0382168203611bd757565b35908115158203611bd757565b9190916101a0908181850312611bd75760408051909490926001600160401b0390840181811185821017611a9657865283958335855260208085013581870152818501358287015260609182860135838801526080860135608088015260a086013560a088015260c0860135848111611bd7578601928084870312611bd757815193611db485611aac565b8035868111611bd757810187601f82011215611bd757803590611dd682611c65565b91611de386519384611b62565b808352868084019160051b830101918a8311611bd75787809101915b8383106120195750505050855283810135868111611bd75787611e23918301611c7c565b848601528281013590868211611bd757019286601f85011215611bd757833593611e4c85611c65565b94611e5985519687611b62565b808652828087019160051b83010191898311611bd757838101915b838310611f125750505050505082015260c085015260e0830135818111611bd75782611ea1918501611bdc565b60e085015261010080840135828111611bd75783611ec0918601611bdc565b908501526101209182840135918211611bd757611ede918401611bdc565b90830152610140611ef0818301611d1c565b908301526101608082013590830152611f0d610180809201611d1c565b910152565b82358a8111611bd7578201808c03601f19018713611bd757875190611f3682611aac565b611f41878201611d08565b8252888101358c8111611bd7578d88611f5c92840101611bdc565b8783015287810135908c8211611bd757018c603f82011215611bd7578c87820135611f8681611c65565b92611f938c519485611b62565b8184528b8b8b86019302820101928311611bd757918f9593918b8d8c979501975b838910611fd157505050508394508a820152815201920191611e74565b889496989192939597500312611bd757898b918d805190611ff182611aac565b85358252838601358483015280860135908201528152019101949290918f928b8b9694611fb4565b8235815291810191889101611dff565b81601f82011215611bd757803590602061204283611c65565b9360406120526040519687611b62565b848652828601918360a080970286010194818611611bd7578401925b85841061207f575050505050505090565b8684830312611bd757825190878201906001600160401b038211838310176120da578892879286528635815282870135838201528587013586820152606080880135908201526080808801359082015281520193019261206e565b60246000634e487b7160e01b81526041600452fd5b6060906003190112611bd757600435906024359060443590565b8054821015611c4f5760005260206000209060011b0190600090565b9181601f84011215611bd7578235916001600160401b038311611bd7576020808501948460051b010111611bd757565b9181601f84011215611bd7578235916001600160401b038311611bd75760208381860195010111611bd757565b919060c083820312611bd7576040519061219b82611a7b565b81938035835260208101356020840152604081013560408401526060810135606084015260808101359160018060401b0392838111611bd757816121e0918401611bdc565b608085015260a0820135928311611bd75760a092611f0d9201611bdc565b600254811015611c4f57600260005260206000200190600090565b600d54811015611c4f57600d60005260206000200190600090565b9060209161224d81518092818552858086019101611bfa565b601f01601f1916010190565b805115611c4f5760200190565b8051821015611c4f5760209160051b010190565b51908115158203611bd757565b60808091805184526020810151602085015260408101516040850152606081015160608501520151910152565b60a0808201916003815260209160048383015260406005604084015260609560608401526080826080850152875180965260c09060c08501938660c08960051b8801019a01986000965b89881061231357505050505050505050505090565b909192939495969798999a60bf19828203018852898c51916101208082018451835283850151848401528a850151918b84015281518091528361014084019201906000905b8981831061244e57505050508584015190828103878401528380835192838152019201906000905b808210612434575050508784015190828103898401528380835192838152019201906000905b8981831061241257869593506123f292506123d0915093879460019801518482038c860152612234565b868060a01b038c850151168c84015260e0808501519084830390850152612234565b91610100809101519101529d0198019801969998979594939291906122fe565b8461242560019496869899949651612287565b01940192018e949392916123a6565b825184528f95938401939092019160019190910190612380565b8461246160019496869899949651612287565b01940192018e94939291612358565b949190918051604092878451938185526020938785870152868601526060908860018060a01b037f0000000000000000000000000000000000000000000000000000000000000000169283818901527fa264fed2aeca4c017f79af95a85d585564f8bcd0f423908892f3920e8b8e6c2360808099a18851956124f187611afe565b600187526000985b888a106126095750612582985090879695949392918a519561251a87611ae2565b86528b888701528a8601528401528a608084015260a083015260c0820152855161254381611b47565b6000815260e0820152600061010082015261255d82612259565b5261256781612259565b5084518094819263d017d69960e01b83528b600484016122b4565b038173__$1a0918a2aa2208593bb0a5d7644cd0946b$__5af49283156125ff57506000926125c9575b5050156125c0576125bb93613e4c565b600190565b50505050600090565b90809250813d83116125f8575b6125e08183611b62565b81010312611bd7576125f19061227a565b38806125ab565b503d6125d6565b513d6000823e3d90fd5b92509294509294958097895161261e81611ae2565b60008152600083820152858b820152858082015285848201528560a0820152600060c08201528560e0820152600061010082015282828a01015201969594928c94928b926124f9565b9190820391821161267457565b634e487b7160e01b600052601160045260246000fd5b9190820180921161267457565b1561269e57565b60405162461bcd60e51b815260206004820152600560248201526410b0b2323960d91b6044820152606490fd5b9291926126d782611c65565b6040946126e76040519283611b62565b81958483526020809301916060809602850194818611611bd757925b8584106127135750505050505050565b8684830312611bd757848791845161272a81611aac565b8635815282870135838201528587013586820152815201930192612703565b919091610160908181850312611bd7576040519182016001600160401b03811183821017611a9657604052909283919081356001600160401b038111611bd757820181601f82011215611bd7578035906127a282611c65565b906127b06040519283611b62565b8282526020820190602060069460061b82010190858211611bd757602001915b818310612ed657505050845260208301356001600160401b038111611bd757830182601f82011215611bd7578281602061280c933591016126cb565b602085015260408301356001600160401b038111611bd75783019082601f83011215611bd75781359161283e83611c65565b9261284c6040519485611b62565b80845260208085019160051b83010191858311611bd75760208101915b838310612df2575050505050604084015260608201356001600160401b038111611bd757820181601f82011215611bd7578035906128a682611c65565b916128b46040519384611b62565b80835260208084019160051b83010191848311611bd75760208101915b838310612d745750505050606084015260808201356001600160401b038111611bd75781601f828501011215611bd757808301359061290f82611c65565b9161291d6040519384611b62565b808352602083018460208360051b858901010111611bd757602083870101905b60208360051b85890101018210612c075750505050608084015260a08201356001600160401b038111611bd757820181601f82011215611bd757803561298281611c65565b916129906040519384611b62565b81835260208084019260051b82010191848311611bd75760208201905b838210612bda575050505060a084015260c08201356001600160401b038111611bd757820181601f82011215611bd75780356129e881611c65565b916129f66040519384611b62565b81835260208084019260051b82010191848311611bd75760208201905b838210612bad575050505060c084015260e08201356001600160401b038111611bd757820181601f82011215611bd7578035612a4e81611c65565b91612a5c6040519384611b62565b81835260208084019260071b82010190848211611bd757602001915b818310612b675750505060e0840152610100828101356001600160401b038111611bd757830182601f82011215611bd75782816020612ab9933591016126cb565b90840152610120828101356001600160401b038111611bd757830182601f82011215611bd757803590612aeb82611c65565b93612af96040519586611b62565b82855260208086019360061b83010191818311611bd757602001925b828410612b2f575050505083015261014080910135910152565b604084830312611bd75760206040918251612b4981611afe565b612b5287611d08565b81528287013583820152815201930192612b15565b608083860312611bd7576020608091604051612b8281611ac7565b8535815282860135838201526040860135604082015260608601356060820152815201920191612a78565b81356001600160401b038111611bd757602091612bcf88848094880101611d29565b815201910190612a13565b81356001600160401b038111611bd757602091612bfc88848094880101612182565b8152019101906129ad565b8135906001600160401b038211611bd75761012080601f1984888c01018a030112611bd75760405191612c3983611ae2565b89870184016020818101358552604082013590850152606001356001600160401b038111611bd757896020612c7492878b8f01010101612029565b60408401528987018401608001356001600160401b038111611bd757896020612ca392878b8f01010101611c7c565b60608401526001600160401b038a8801850160a0013511611bd757612cd589888c01860160a081013501602001612029565b608084015260c0878b01850181013593906001600160401b038511611bd757612d098b60208b978f898b9101010101611bdc565b60a0830152612d208c8760e0978892010101611d08565b90820152610100888c018601810135936001600160401b038511611bd757868a8e602099988f612d5b908c809c9b819c878701010101611bdc565b908701520101013590820152815201920191905061293d565b82356001600160401b038111611bd75782019060809081601f19848a030112611bd75760405191612da483611ac7565b6020840135835260408401356020840152606084013560408401528301359160018060401b038311611bd757612de289602080969581960101611bdc565b60608201528152019201916128d1565b82356001600160401b038111611bd757820160609081601f19828b030112611bd75760405191612e2183611aac565b6020828101358452604083013590840152810135906001600160401b038211611bd7570188603f82011215611bd7576020810135612e5e81611c65565b91612e6c6040519384611b62565b818352604060208401928a1b820101908b8211611bd757604001915b818310612ea5575050506040820152815260209283019201612869565b6040838d0312611bd75760206040918251612ebf81611afe565b853581528286013583820152815201920191612e88565b604083870312611bd75760206040918251612ef081611afe565b8535815282860135838201528152019201916127d0565b90604051916392cf61e560e01b8352600483015260608260248173__$1a0918a2aa2208593bb0a5d7644cd0946b$__5af4908115612fbe57600080938193612f50575b50929190565b925092506060823d606011612fb6575b81612f6d60609383611b62565b810103126102765781516001600160a01b03811681036103f2576020830151926001600160601b0384168403610b0d57604001519360ff85168503610431575091929138612f4a565b3d9150612f60565b6040513d6000823e3d90fd5b90815180825260208080930193019160005b828110612fea575050505090565b835185529381019392810192600101612fdc565b929493919060a09060a08501906004865260209081870152604060a06040880152845180935260c09060c08801908360c08660051b8b01019701956000935b8a878610613065575050505050505050509060809194606084015260018060a01b0316910152565b95806130c881999a9b600194959697989960bf199082030189528c5190815181528382015184820152888201518982015260608083015190820152876130b8608089818601519185015289840190612234565b9201519088818403910152612234565b9a01950195019396959492919061303d565b908060209392818452848401376000828201840152601f01601f1916010190565b600b54901515908160ff82161515146131485760ff191660ff821617600b556040519081527fb5838f871ddee4623a406029b1a0b6013e0ec30f2dc114307f21459a800a829690602090a1565b5050565b908082101561317057604051916020830152604082015260408152611bf781611aac565b90604051916020830152604082015260408152611bf781611aac565b600d54600160401b811015611a96578060016131ab9201600d55612219565b819291549060031b91821b91600019901b1916179055565b906020908183528051916131e36060936060838701526080860190612fca565b9181810151601f19906132026040958692848a830301848b0152612fca565b92015195606082828503019101528551938483528383019184808760051b8601019801966000916000955b888710613241575050505050505050505090565b9091929394959697989982828203018752888b5160018060a01b0381511683528761327783830151888587015288860190612234565b910151928881830391015281808451928381520193019087905b878183106132b55750505050806001929c019701970195989796949392919061322d565b83958b6001949693955180518352848101518584015201518c82015201940192018b9291613291565b6132e982518261314c565b61018083015115613b3f57604080519082516020908185019061330d818684611bfa565b8401938281600496878152030190205415613b305761012087019081515115613ad9578591856133498580948851809381928951928391611bfa565b8101848152030190205461340c60c08c0151885161337c8161336e89820194856131c3565b03601f198101835282611b62565b519020918c610100958682015188815191012090519151946133eb8c519a8b998a9963bba8d94760e01b8b5260018060a01b037f000000000000000000000000000000000000000000000000000000000000000016908b01523060248b015260448a0152610104890190612234565b936064880152608487015260a48601526003198583030160c4860152612234565b9060e4830152038173__$1a0918a2aa2208593bb0a5d7644cd0946b$__5af4918215613ace57600092613a98575b505015613a8b575050600261348660206000935b6040519085600182519385818186019661346981838a611bfa565b810160048152030190200155604051938492839251928391611bfa565b810160048152030190200155815160c08301519260e08101516101008201519460208101515181515103613a7957838510958615613a735785945b8715613a6b57925b8715613a645780975b15613a5c5750935b6134e4838261314c565b90602083015151976134f589611c65565b986135036040519a8b611b62565b808a5261350f81611c65565b601f19013660208c01378960005b8281106139f457505081511590506139dd578060208061354293518301019101615593565b955b8051156139be578060208061355e93518301019101615593565b9298939694909591965b6000995b604081015180518c10156137f0578b61358491612266565b51608081905280516020909101518551909a916001600160a01b0316908d10156137d8578c8c6135b48289612266565b51915b89518110156137c2576135ca908a612266565b515b604051630c6191f960e11b8152608060048201529d8e9384936135f3906084860190612fca565b91600319928386820301602487015261360b91612234565b8285820301604486015261361e91612234565b9083820301606484015261363191612234565b03815a6000948591f1998a15612fbe5760009a613717575b5060005b604060805101518051821015613707578b61368461367a8f938561367091612266565b5192835190612266565b5192825190612266565b5160008112838281031281169084838103139015161761267457600081840313806136f8575b6136ca5760008184031292836136dc575b5050506136ca5760010161364d565b604051633485c51360e21b8152600490fd5b6020929350906136ec9103615664565b910151103880806136bb565b506040820151818403116136aa565b50506001909b019a98995061356c565b9099503d90816000823e61372b8282611b62565b6020818381010312611bd7578051916001600160401b038311611bd757808201601f848401011215611bd757828201519161376583611c65565b936137736040519586611b62565b8385526020850192820160208560051b838501010111611bd757602081830101925b60208560051b838501010184106137b25750505050509838613649565b8351815260209384019301613795565b506040516137cf81611b47565b600081526135cc565b8c8c6040516137e681611b47565b60008152916135b7565b5098959493509850905060005b602088015180518210156139285781600060018a8a8e8b613845602061383089613829839d8a9d612266565b5194612266565b51958160405193828580945193849201611bfa565b81016005815203019020818752895260408620938454908781131588146138b25781613876926138a1575b50615664565b918261388f575b505050505b82815501550190506137fd565b61389893615f78565b8a388f8061387d565b6138ac908486615de5565b38613870565b81811015881461390657829394826138d294816138f5575b505050612667565b908d826138e3575b50505050613882565b6138ec93615f78565b8d38808d6138da565b6138fe92615de5565b8f82856138ca565b61391d91613918828561392398615de5565b612667565b91615de5565b613882565b5050955095509261394b9250602091508160405193828580945193849201611bfa565b8101600481520301902061395f815461402f565b90558151907f6d46d52b5fda2a9055705ba74bf5e95807cfa39decf819cdfeaa14f9b2ba346a604060608501519460c060a082015191015182516139ab8161336e6020820194856131c3565b51902082519182526020820152a4600190565b506040516139cb81611b47565b60008152929893969490959196613568565b506040516139ea81611b47565b6000815295613544565b80613a0560019260208a0151612266565b5160405160208181613a1d8c83815193849201611bfa565b8101600581520301902090600052602052613a4b8260406000200154613a44838b51612266565b5190615577565b613a558285612266565b520161351d565b9050936134da565b81976134d2565b5085926134c9565b846134c1565b6040516329be7c4760e11b8152600490fd5b51631bd18a1960e31b8152fd5b90809250813d8311613ac7575b613aaf8183611b62565b81010312611bd757613ac09061227a565b388061343a565b503d613aa5565b83513d6000823e3d90fd5b835162461bcd60e51b8152808601849052602b60248201527f5369676e617475726520726571756972656420666f7220636f6f70657261746960448201526a76652066696e616c697a6560a81b6064820152608490fd5b5050516388d0662b60e01b8152fd5b604080519082516020600181860192613b59818786611bfa565b8501948281600497888152030190200154908115613e3c5773__$1a0918a2aa2208593bb0a5d7644cd0946b$__888783820151956060830195865190866101408601998c8c8c51151597848251809251613bb481838d611bfa565b810185815203019020600201549760a08a0198895191610100809c0151935198899687966303d0627d60e41b8852870152602486015260448501526064840152608483015260a4820160c0905260c48201613c0e91612234565b0381895af4918215613e3157600092613e02575b5003613df257878c8b9594938b9361012083019a8b51511515600014613d5e57505050916133eb959391613cd48460c08a989601518351613c6a8161336e8c820194856131c3565b519020908381015191608082019d8e519051925195519b8c9a8b998a996369f7fb6360e11b8b5260018060a01b037f000000000000000000000000000000000000000000000000000000000000000016908b01523060248b015260448a0152610104890190612234565b9060e483015203915af4918215613d5357600092613d1d575b505015613d0e5751905111156107e55750506002613486602060009361344e565b505051631bd18a1960e31b8152fd5b90809250813d8311613d4c575b613d348183611b62565b81010312611bd757613d459061227a565b3880613ced565b503d613d2a565b85513d6000823e3d90fd5b965097995097505050505084915051151589518910149182613dc5575b5050613db657519061336e613d9d60c0890151928551928391820194856131c3565b519020036107e55750506002613486602060009361344e565b505051633485c51360e21b8152fd5b6002925090613dde918651809381928b51928391611bfa565b810188815203019020015443108238613d7b565b8751630cba69cb60e01b81528990fd5b9091508681813d8311613e2a575b613e1a8183611b62565b81010312611bd757519038613c22565b503d613e10565b8a513d6000823e3d90fd5b505050516388d0662b60e01b8152fd5b9391909160005b8251811015613e855780613e7f613e6c60019386612266565b51613e7881888b615675565b8887615675565b01613e53565b5092905060005b8151811015613ff657613e9f8183612266565b5190602080830190815186898214159182613feb575b5050613fce57835186898214159182613fe0575b5050613fce5781518451148015613fc2575b6136ca57608084019142835111156136ca57845160005260108252604094856000209582519481830194855193606080820198895191855190875192613f2084611ac7565b835285830198895287830193845282019081528c54600160401b811015611a9657613f529060019e8f82018155611c33565b939093613fac5760019d7fbfd7274449bb908ddf203ddf1c94d588d62b66048e4a9b4b0bc4835067b0353699600394518655519085015551600284015551910155519451955196519151908351928352820152a401613e8c565b634e487b7160e01b600052600060045260246000fd5b50606084015115613edb565b604051633c4117f160e21b8152600490fd5b141590508638613ec9565b141590508638613eb5565b5050509050565b9061400782611c65565b6140146040519182611b62565b8281528092614025601f1991611c65565b0190602036910137565b60001981146126745760010190565b919061404b815151613ffd565b90614057815151613ffd565b93614063825151613ffd565b94600091825b84518051821015614157578161407e91612266565b51516020898161408f858a51612266565b510151916000935b88851061412e575b8a8986146140d4575b5050506140c683926140c0600196956140cd94612266565b5161268a565b918b612266565b5201614069565b856141208b8b61411a826140cd999f98888f60019f9e9d9a6140fc6140c69d6140c09c612266565b52600052600382526040918260002091600052526000205492612266565b5261402f565b9a945050509293948a6140a8565b9390918461413c838d612266565b511461414f575060010192908b91614097565b91909361409f565b5050919395949560005b858110614ad357506001966000885b614a81575b506000885b614960575b5060009773__$1a0918a2aa2208593bb0a5d7644cd0946b$__967f00000000000000000000000000000000000000000000000000000000000000009460018060a01b0386169a5b6060808a015180518310156142b7578d916141e2848e93612266565b518b604093845180809781946328a3f8a760e11b83526004600381850152602484015260056044840152606483015260c06084830152855160c483015261424f60209787898099015160e48601528a81015161010486015201516080610124850152610144840190612234565b9060a483015203915af49182156125ff5750600091614283575b5090501561427a575b6001016141c6565b60009350614272565b82813d83116142b0575b6142978183611b62565b8101031261043157506142a99061227a565b8038614269565b503d61428d565b50505094919692979095995097929760808301518051614883575b5060a083015180516147f6575b50505060005b61012082015180518210156143c357816142fe91612266565b5180516001600160a01b0316156136ca578051602091820180519092916001600160a01b0316803b15611bd75760008091602460409485519485938492636030754560e01b845260048401525af180156143b8579260019594927f47172349c05bf58f7f6a376def3bbc250cd3295a7eead0290d8fa3531c6ca9fb928f956143a9575b508351815183810191825283815261439881611afe565b51902093519051908152a3016142e5565b6143b290611b19565b38614381565b82513d6000823e3d90fd5b505091939590929460005b60c08401518051821015614407576143e9826143f092612266565b518a6132de565b156143fe575b6001016143ce565b600097506143f6565b505091939590929460005b6040860151805182101561444b5761442d8261443492612266565b518a6157ab565b15614442575b600101614412565b6000925061443a565b505091939590929460005b610100880151805182101561470f578161446f91612266565b519061447f60208301518b615177565b5061449061137c6020840151612219565b8c600095939295526003602052604060002060208401516000526020526040600020546040840151116146fd5760ff908d6040850151906000526003602052604060002060208601516000526020526144ef6040600020918254612667565b90558d602085015190806000526003602052604060002060208701516000526020526000805160206160808339815191526020604060002054604051908152a31693846145e757506000919293506020906044604060018060a01b03865116950151604051948593849263a9059cbb60e01b845260049889850152602484015260018060a01b03165af1908115612fbe576000916145ad575b501561459e57506001610100915b019050614456565b604051632fd8225d60e21b8152fd5b906020823d6020116145df575b816145c760209383611b62565b8101031261043157506145d99061227a565b38614588565b3d91506145ba565b919360018103614667575092516001600160a01b039384169316833b15611bd7576040516323b872dd60e01b815293600092859283918591839161463b916001600160601b03909116903060048501614b51565b03925af1908115612fbe5761010092600192614658575b50614596565b61466190611b19565b38614652565b60021461467e575b50506101009150600190614596565b83516040909401516001600160a01b0394851694909116803b15611bd757604051637921219560e11b81529460009386938492869284926146cf9290916001600160601b0316903060048601614b1d565b03925af1908115612fbe57610100926001926146ee575b81925061466f565b6146f790611b19565b386146e6565b604051632fd8225d60e21b8152600490fd5b505091949092955095929560005b85811061472d5750505050505090565b6147378183612266565b516147576147458387612266565b516147508487612266565b519061268a565b90866000526003602090808252604093846000208460005283528460002054106147e5576147858588612266565b5189600052818352846000208460005283526147a685600020918254612667565b905588600052815282600020916000525280600020546147c68387612266565b51116147d5575060010161471d565b51632fd8225d60e21b8152600490fd5b8351632fd8225d60e21b8152600490fd5b602091600654918c61481e604051968795869485946312f6ab5960e31b865260048601612ffe565b03915af4908115612fbe57600091614849575b5015614840575b3880806142df565b60009450614838565b90506020813d60201161487b575b8161486460209383611b62565b81010312611bd7576148759061227a565b38614831565b3d9150614857565b60206148b291838d60409e9c9a98969d9b9997959e5180958194829363d017d69960e01b8452600484016122b4565b03915af4908115612fbe57600091614926575b501561491d575b60005b6080820151805182101561490c57906149066148ed82600194612266565b5180519060208101516080606083015192015192613e4c565b016148cf565b5050919395979092949698386142d2565b600094506148cc565b90506020813d602011614958575b8161494160209383611b62565b81010312611bd7576149529061227a565b386148c5565b3d9150614934565b6020989798808701518051831015614a77578261497c91612266565b51908082019061498d825189615177565b508760005260039283825260409081810182600020855160005284528260002054815111614a6657928d9694928192858d8a9997519060005287855283600020875160005285526149e384600020918254612667565b90555181516000528684528260002086516000528452614a088360002091825461268a565b905584518d60005286845282600020865160005284528d83600020548451908152600080516020616080833981519152968791a35193805195856000528352816000209051600052825280600020549051908152a30190989761417a565b8251632fd8225d60e21b8152600490fd5b505097969761417f565b60e08699989901518051821015614aca5781614a9c91612266565b51805115614ac2575b858151036136ca578891614ab98392614b73565b01909897614170565b858152614aa5565b50979697614175565b80614ae2600192899a99612266565b5185600052614b126020600381526040908160002090614b028689612266565b516000525260002091825461268a565b905501969596614161565b929060c0949260018060a01b0380921685521660208401526040830152606082015260a06080820152600060a08201520190565b6001600160a01b03918216815291166020820152604081019190915260600190565b9081516000908015600014614e6d5750335b6060840191825115614e5b576040908186019384518015600014614e3957506020870180518352600e6020528383205480875215614df6575b5081614bd7949596975b60ff6020968780930151612f07565b919290911680614cb9575050614c0690845187519485809481936323b872dd60e01b8352303360048501614b51565b03926001600160a01b03165af1908115614caf578391614c7a575b5015614a665791809160008051602061608083398151915294935b5186825260038552828220885183528552614c5b83832091825461268a565b90558651968682526003855282822090518252845220549051908152a3565b90508481813d8311614ca8575b614c918183611b62565b8101031261027657614ca29061227a565b38614c21565b503d614c87565b84513d85823e3d90fd5b90935090915060018103614d4a57506001600160a01b031690813b156103f25784516323b872dd60e01b8152918491839190829084908290614d09906001600160601b0316303360048501614b51565b03925af18015614caf57614d36575b50918091836001600080516020616080833981519152969552614c3c565b614d408391611b19565b6102145738614d18565b9295949392600214614d70575b5050819060008051602061608083398151915294614c3c565b60018060a0979596971b0316835191813b156103f2578551637921219560e11b815292849284929091839185918391614db891906001600160601b0316303360048601614b1d565b03925af180156103e85791849391600080516020616080833981519152969593614de7575b5091819550614d57565b614df090611b19565b38614ddd565b614e00815161318c565b600d54600019810191908211614e2557818752518352600e6020528383205581614bbe565b634e487b7160e01b84526011600452602484fd5b614bd794959697614e4a8492612219565b90549060031b1c6020820152614bc8565b60405163440a57bf60e01b8152600490fd5b614b85565b90613fac5760018160008093550155565b600081815260209060088252604091828220858352815282822093845495861561515e57818452600983528484208185528352848420549787891015615155575b82855260038452858520828652845285852054908598821561512f5798995b89811080615126575b8061511b575b156150a657614f01818a612109565b506001908181019182549182156150905754928287101561508a57865b8c8c8a8d8461504a575b505050505082151580615042575b615019575b614f46838254612667565b9280614fe457508a90558301808411614fd057614fb492886000805160206160608339815191526060614fba97958f958f968f978e988251948552840152820152a4868952600a8852898920805480614fc3575b5050614faf614fa9828d612109565b90614e72565b61402f565b9a61402f565b985b9899614ee3565b6000190190553880614f9a565b634e487b7160e01b8a52601160045260248afd5b859f94925060608994614fba978f848f8f979660008051602061606083398151915297558251948552840152820152a461402f565b6150258389868c615bf2565b61502f8185612667565b61503a575b50614f3b565b925038615034565b508615614f36565b928261507f96989c92615079958b88965260038152838320918352522061507283825461268a565b9055612667565b97612667565b91388c8c8a8d614f28565b82614f1e565b505050506150a0909a999a61402f565b99614fbc565b93985098509092955086845260038652848420838552865284842055858352600985528383208284528552838320556150df8186615a73565b8482526008845282822081835284528282209384541561511257611bf79583526009815283832091835252205490615b9c565b50509250505090565b506000198b10614ef2565b50821515614eec565b509892975050919450858352600985528383208284528552838320556150df8186615a73565b97508397614ec4565b9280965080955052600981528284209184525281205590565b600081815260209060088252604091828220858352815282822093845495861561515e5781845260098352848420818552835284842054978789101561536e575b82855260038452858520828652845285852054908598821561512f5798995b89811080615365575b8061535a575b156150a6576151f5818a612109565b506001908181019182549182156153445754928287101561533e57865b8c8c8a8d8461530b575b505050505082151580615303575b6152da575b61523a838254612667565b92806152a557508a90558301808411614fd057614fb49288600080516020616060833981519152606061529c97958f958f968f978e988251948552840152820152a4868952600a8852898920805480614fc3575050614faf614fa9828d612109565b985b98996151d7565b859f9492506060899461529c978f848f8f979660008051602061606083398151915297558251948552840152820152a461402f565b6152e68389868c615bf2565b6152f08185612667565b6152fb575b5061522f565b9250386152f5565b50861561522a565b928261533396989c92615079958b88965260038152838320918352522061507283825461268a565b91388c8c8a8d61521c565b82615212565b50505050615354909a999a61402f565b9961529e565b506000198b106151e6565b508215156151e0565b975083976151b8565b600081815260209060088252604091828220858352815282822093845495861561515e5781845260098352848420818552835284842054978789101561556e575b82855260038452858520828652845285852054908598821561512f5798995b89811080615565575b8061555a575b156150a6576153f5818a612109565b506001908181019182549182156155445754928287101561553e57865b8c8c8a8d8461550b575b505050505082151580615503575b6154da575b61543a838254612667565b92806154a557508a90558301808411614fd057614fb49288600080516020616060833981519152606061549c97958f958f968f978e988251948552840152820152a4868952600a8852898920805480614fc3575050614faf614fa9828d612109565b985b98996153d7565b859f9492506060899461549c978f848f8f979660008051602061606083398151915297558251948552840152820152a461402f565b6154e68389868c615bf2565b6154f08185612667565b6154fb575b5061542f565b9250386154f5565b50861561542a565b928261553396989c92615079958b88965260038152838320918352522061507283825461268a565b91388c8c8a8d61541c565b82615412565b50505050615554909a999a61402f565b9961549e565b506000198b106153e6565b508215156153e0565b975083976153b8565b9190916000838201938412911290801582169115161761267457565b6020908181840312611bd75780516001600160401b0391828211611bd757019083601f83011215611bd75781516155c981611c65565b946040926155da6040519788611b62565b828752858088019360051b86010194828611611bd757868101935b86851061560757505050505050505090565b8451838111611bd75782019084603f83011215611bd757888201519061562c82611b85565b61563889519182611b62565b82815286898486010111611bd7576156598b949385948b8685019101611bfa565b8152019401936155f5565b600160ff1b81146126745760000390565b929190926000938185526020906009825260409586812085825283528681205492848252600881528782208683528152878220918254945b8581106156c7575050505050506156c5929350615a73565b565b80856156d48c9387612109565b50541480615794575b6156ec575b60019150016156ad565b8886896156f98489612109565b50866001809201549161570c878c612109565b500155818752600a885285872080548015801561574d575b505050856000805160206160c08339815191529160019751908152868a820152a48a91506156e2565b935093509350939450615780576000190190558a9190899087908a90856000805160206160c08339815191526001615724565b634e487b7160e01b85526011600452602485fd5b5060016157a18287612109565b50015415156156dd565b919091825160209182850151926157c28383615377565b5060005b604080880180518051841015615a65576157ee846157e5818894612266565b51519351612266565b510151906157fc818961314c565b9186600052600392838752846000208960005287528185600020541015600014615a5557866158379181875193828580945193849201611bfa565b81016005815203019020886000528652836000209187600052838752846000208960005287528460002061586c838254612667565b905561587982845461268a565b90818455808b109283615a3e575b508215615a37578a925b15615a2b5794929190925b8051946158a886611afe565b6001928387528960005b8181106159d757505080600052818a52826000208c6000528a52826000205491886000528a52826000208c6000528a52838360002054950154978351916158f883611b2c565b82528a8201528b83820152606091828201526080948582015260a0958682015260c0978882015261592887612259565b5261593286612259565b50815196898801928a895287518094528a818a019801966000965b8c86891061598f575050505050505050505081600193927f11e95b31ceefa95a59034392a3de4f79c9fe7d7e441d3746a1f82e64f7a32bcc920390a1016157c6565b895180518c5281810151828d015284810151858d015286810151878d015282810151838d015283810151848d0152850151858c015260e0909a0199909801979686019661594d565b8499939497959697516159e981611b2c565b6000815260008382015260008b8201526000606082015260006080820152600060a0820152600060c082015282828b010152018a9098939298969594966158b2565b5089949291909261589c565b8092615891565b615a4d60018601918254615577565b905538615887565b5060009a50505050505050505050565b506001985050505050505050565b9060008281526020916008835260409081832081845284528183209485548015615b8557818552600986528385208386528652838520549681881015615b7c575b965b81811080615b66575b15615ad257615acd9061402f565b615ab6565b91929394959650811015600014615b52575080845260098552828420828552855283838120558352600884528183209083528352812080549282825583615b1a575b50505050565b6001916001600160ff1b0385168503614e2557835282209260011b8301925b83811015615b1457808360029255838382015501615b39565b908452600985528284209184529352902055565b506001615b73828a612109565b50015415615abf565b96508496615ab4565b508352600984528183209083529092529081205550565b919060009280549182811015615be9575b828110615bb957505050565b6001615bc58284612109565b500154615bd5575b600101615bad565b93615be160019161402f565b949050615bcd565b50600093505050565b91839260009581875260209260108452604091828920908154988915615dd85750600c8652838a20549788905b8a821080615dcf575b15615dbb57615c378285611c33565b50998a918d8760018095015414801590615dae575b8015615da2575b615d94578a8d91825480825260038093528d8c8320908c84525260028c832054940193845490808210600014615d8c5750955b858711615d83575b8615615d7057508f8f968f92968f968f958f80859b917f4f02c680c56246ffd693c94e5f46c036a01b12950c88219159645a302816307b9a6000805160206160808339815191528a8c87615d269c8c98615d1b9a528584528282208783528452828220615cfc8a8254612667565b905554948582528352818120868252835220548d51908152a38c615de5565b615072838254612667565b9f615d35868d83549088615e42565b5054948251918c8352820152a48101808211615d5c57615d55909161402f565b9098615c1f565b634e487b7160e01b8c52601160045260248cfd5b979550505050509a50615d55915061402f565b95508495615c8e565b905095615c86565b509a5091615d55915061402f565b5060028d015415615c53565b5060038d01544211615c4c565b9a969497505097505050600c918352522055565b50801515615c28565b9950975050505050505050565b90918015615e3d576020604060008051602061608083398151915292600090858252600384528282208783528452615e2183832091825461268a565b90558481526003835281812086825283522054604051908152a3565b505050565b93929391909181156136ca578415614e5b57600094818652602090600882526040918288208689528152828820835190615e7b82611afe565b86825282820184815281549091600160401b821015615f645790615ea491600182018155612109565b929092615f50575182555160019091015583885260088152828820868952815282882054600019810191908211615f3c57908392917fae767eeb0c57abd46e2e0b422895ba3b89372fbd0510a58f00d996faf66f027d94829a8315615f23575b878152600a835220615f16815461402f565b90558351928352820152a4565b878152600983528181208a825283528082812055615f04565b634e487b7160e01b89526011600452602489fd5b634e487b7160e01b8b5260048b905260248bfd5b634e487b7160e01b8c52604160045260248cfd5b90928015615b1457615fc19060009083825284846020936003855260409485822084835281528582205485811015600014616059575084955b86615ffd575b5050505050612667565b8015615b1457615fd390838584615bf2565b9283615fdf5750505050565b615ff493615fee918484615e42565b50615a73565b38808080615b14565b808385600080516020616080833981519152955260038452818120878252845281812061602b8a8254612667565b905585815260038452818120878252845220549051908152a361604f828688615de5565b8484388080615fb7565b95615fb156fe1ffe8e6348fe244a8988797c02b57999821149e7b25c9f93a85c77819efdde67ab4d21442efe134c3d0c087e2b687e9593a1c09176f498d37873210cde052c45990f4c22d4b046a9a7d673c4a252b906cadd4f3290465e297f998c28a449652b0971ac81b80f99fe0089c3fbe4af4fa1148f2ce78bc6345e76b05be73500de1fa264697066735822122000622f8be9174a5bfba228ef3bf8a304ce99b9791595bc011009841cde40975964736f6c63430008180033",
  "linkReferences": {
    "contracts/Account.sol": {
      "Account": [
        {
          "length": 20,
          "start": 1435
        },
        {
          "length": 20,
          "start": 2884
        },
        {
          "length": 20,
          "start": 3630
        },
        {
          "length": 20,
          "start": 4651
        },
        {
          "length": 20,
          "start": 10218
        },
        {
          "length": 20,
          "start": 12679
        },
        {
          "length": 20,
          "start": 13946
        },
        {
          "length": 20,
          "start": 15831
        },
        {
          "length": 20,
          "start": 17385
        }
      ]
    }
  },
  "deployedLinkReferences": {
    "contracts/Account.sol": {
      "Account": [
        {
          "length": 20,
          "start": 823
        },
        {
          "length": 20,
          "start": 2272
        },
        {
          "length": 20,
          "start": 3018
        },
        {
          "length": 20,
          "start": 4039
        },
        {
          "length": 20,
          "start": 9606
        },
        {
          "length": 20,
          "start": 12067
        },
        {
          "length": 20,
          "start": 13334
        },
        {
          "length": 20,
          "start": 15219
        },
        {
          "length": 20,
          "start": 16773
        }
      ]
    }
  }
}