{
  "_format": "hh-sol-artifact-1",
  "contractName": "Depository",
  "sourceName": "contracts/Depository.sol",
  "abi": [
    {
      "inputs": [
        {
          "internalType": "address",
          "name": "_entityProvider",
          "type": "address"
        }
      ],
      "stateMutability": "nonpayable",
      "type": "constructor"
    },
    {
      "inputs": [],
      "name": "E0",
      "type": "error"
    },
    {
      "inputs": [],
      "name": "E1",
      "type": "error"
    },
    {
      "inputs": [],
      "name": "E2",
      "type": "error"
    },
    {
      "inputs": [],
      "name": "E3",
      "type": "error"
    },
    {
      "inputs": [],
      "name": "E4",
      "type": "error"
    },
    {
      "inputs": [],
      "name": "E5",
      "type": "error"
    },
    {
      "inputs": [],
      "name": "E6",
      "type": "error"
    },
    {
      "inputs": [],
      "name": "E7",
      "type": "error"
    },
    {
      "inputs": [],
      "name": "E8",
      "type": "error"
    },
    {
      "inputs": [],
      "name": "E9",
      "type": "error"
    },
    {
      "anonymous": false,
      "inputs": [
        {
          "components": [
            {
              "internalType": "bytes32",
              "name": "left",
              "type": "bytes32"
            },
            {
              "internalType": "bytes32",
              "name": "right",
              "type": "bytes32"
            },
            {
              "internalType": "uint256",
              "name": "tokenId",
              "type": "uint256"
            },
            {
              "internalType": "uint256",
              "name": "leftReserve",
              "type": "uint256"
            },
            {
              "internalType": "uint256",
              "name": "rightReserve",
              "type": "uint256"
            },
            {
              "internalType": "uint256",
              "name": "collateral",
              "type": "uint256"
            },
            {
              "internalType": "int256",
              "name": "ondelta",
              "type": "int256"
            }
          ],
          "indexed": false,
          "internalType": "struct Settled[]",
          "name": "settled",
          "type": "tuple[]"
        }
      ],
      "name": "AccountSettled",
      "type": "event"
    },
    {
      "anonymous": false,
      "inputs": [
        {
          "indexed": true,
          "internalType": "bytes32",
          "name": "sender",
          "type": "bytes32"
        },
        {
          "indexed": true,
          "internalType": "bytes32",
          "name": "counterentity",
          "type": "bytes32"
        },
        {
          "indexed": true,
          "internalType": "uint256",
          "name": "cooperativeNonce",
          "type": "uint256"
        }
      ],
      "name": "CooperativeClose",
      "type": "event"
    },
    {
      "anonymous": false,
      "inputs": [
        {
          "indexed": true,
          "internalType": "bytes32",
          "name": "debtor",
          "type": "bytes32"
        },
        {
          "indexed": true,
          "internalType": "bytes32",
          "name": "creditor",
          "type": "bytes32"
        },
        {
          "indexed": true,
          "internalType": "uint256",
          "name": "tokenId",
          "type": "uint256"
        },
        {
          "indexed": false,
          "internalType": "uint256",
          "name": "amount",
          "type": "uint256"
        },
        {
          "indexed": false,
          "internalType": "uint256",
          "name": "debtIndex",
          "type": "uint256"
        }
      ],
      "name": "DebtCreated",
      "type": "event"
    },
    {
      "anonymous": false,
      "inputs": [
        {
          "indexed": true,
          "internalType": "bytes32",
          "name": "debtor",
          "type": "bytes32"
        },
        {
          "indexed": true,
          "internalType": "bytes32",
          "name": "creditor",
          "type": "bytes32"
        },
        {
          "indexed": true,
          "internalType": "uint256",
          "name": "tokenId",
          "type": "uint256"
        },
        {
          "indexed": false,
          "internalType": "uint256",
          "name": "amountPaid",
          "type": "uint256"
        },
        {
          "indexed": false,
          "internalType": "uint256",
          "name": "remainingAmount",
          "type": "uint256"
        },
        {
          "indexed": false,
          "internalType": "uint256",
          "name": "newDebtIndex",
          "type": "uint256"
        }
      ],
      "name": "DebtEnforced",
      "type": "event"
    },
    {
      "anonymous": false,
      "inputs": [
        {
          "indexed": true,
          "internalType": "bytes32",
          "name": "debtor",
          "type": "bytes32"
        },
        {
          "indexed": true,
          "internalType": "bytes32",
          "name": "creditor",
          "type": "bytes32"
        },
        {
          "indexed": true,
          "internalType": "uint256",
          "name": "tokenId",
          "type": "uint256"
        },
        {
          "indexed": false,
          "internalType": "uint256",
          "name": "amountForgiven",
          "type": "uint256"
        },
        {
          "indexed": false,
          "internalType": "uint256",
          "name": "debtIndex",
          "type": "uint256"
        }
      ],
      "name": "DebtForgiven",
      "type": "event"
    },
    {
      "anonymous": false,
      "inputs": [
        {
          "indexed": false,
          "internalType": "bytes32",
          "name": "leftEntity",
          "type": "bytes32"
        },
        {
          "indexed": false,
          "internalType": "bytes32",
          "name": "rightEntity",
          "type": "bytes32"
        },
        {
          "indexed": false,
          "internalType": "uint256",
          "name": "sigLen",
          "type": "uint256"
        },
        {
          "indexed": false,
          "internalType": "address",
          "name": "entityProvider",
          "type": "address"
        }
      ],
      "name": "DebugSettleStart",
      "type": "event"
    },
    {
      "anonymous": false,
      "inputs": [
        {
          "indexed": true,
          "internalType": "bytes32",
          "name": "sender",
          "type": "bytes32"
        },
        {
          "indexed": true,
          "internalType": "bytes32",
          "name": "counterentity",
          "type": "bytes32"
        },
        {
          "indexed": true,
          "internalType": "uint256",
          "name": "initialDisputeNonce",
          "type": "uint256"
        },
        {
          "indexed": false,
          "internalType": "bytes32",
          "name": "initialProofbodyHash",
          "type": "bytes32"
        },
        {
          "indexed": false,
          "internalType": "bytes32",
          "name": "finalProofbodyHash",
          "type": "bytes32"
        }
      ],
      "name": "DisputeFinalized",
      "type": "event"
    },
    {
      "anonymous": false,
      "inputs": [
        {
          "indexed": true,
          "internalType": "bytes32",
          "name": "sender",
          "type": "bytes32"
        },
        {
          "indexed": true,
          "internalType": "bytes32",
          "name": "counterentity",
          "type": "bytes32"
        },
        {
          "indexed": true,
          "internalType": "uint256",
          "name": "disputeNonce",
          "type": "uint256"
        },
        {
          "indexed": false,
          "internalType": "bytes32",
          "name": "proofbodyHash",
          "type": "bytes32"
        },
        {
          "indexed": false,
          "internalType": "bytes",
          "name": "initialArguments",
          "type": "bytes"
        }
      ],
      "name": "DisputeStarted",
      "type": "event"
    },
    {
      "anonymous": false,
      "inputs": [
        {
          "indexed": false,
          "internalType": "bool",
          "name": "isPaused",
          "type": "bool"
        }
      ],
      "name": "EmergencyPauseToggled",
      "type": "event"
    },
    {
      "anonymous": false,
      "inputs": [
        {
          "indexed": true,
          "internalType": "address",
          "name": "provider",
          "type": "address"
        }
      ],
      "name": "EntityProviderAdded",
      "type": "event"
    },
    {
      "anonymous": false,
      "inputs": [
        {
          "indexed": true,
          "internalType": "address",
          "name": "provider",
          "type": "address"
        }
      ],
      "name": "EntityProviderRemoved",
      "type": "event"
    },
    {
      "anonymous": false,
      "inputs": [
        {
          "indexed": true,
          "internalType": "bytes32",
          "name": "entityId",
          "type": "bytes32"
        },
        {
          "indexed": true,
          "internalType": "bytes32",
          "name": "hankoHash",
          "type": "bytes32"
        },
        {
          "indexed": false,
          "internalType": "uint256",
          "name": "nonce",
          "type": "uint256"
        },
        {
          "indexed": false,
          "internalType": "bool",
          "name": "success",
          "type": "bool"
        }
      ],
      "name": "HankoBatchProcessed",
      "type": "event"
    },
    {
      "anonymous": false,
      "inputs": [
        {
          "indexed": true,
          "internalType": "bytes32",
          "name": "insured",
          "type": "bytes32"
        },
        {
          "indexed": true,
          "internalType": "bytes32",
          "name": "insurer",
          "type": "bytes32"
        },
        {
          "indexed": true,
          "internalType": "bytes32",
          "name": "creditor",
          "type": "bytes32"
        },
        {
          "indexed": false,
          "internalType": "uint256",
          "name": "tokenId",
          "type": "uint256"
        },
        {
          "indexed": false,
          "internalType": "uint256",
          "name": "amount",
          "type": "uint256"
        }
      ],
      "name": "InsuranceClaimed",
      "type": "event"
    },
    {
      "anonymous": false,
      "inputs": [
        {
          "indexed": true,
          "internalType": "bytes32",
          "name": "insured",
          "type": "bytes32"
        },
        {
          "indexed": true,
          "internalType": "bytes32",
          "name": "insurer",
          "type": "bytes32"
        },
        {
          "indexed": true,
          "internalType": "uint256",
          "name": "tokenId",
          "type": "uint256"
        },
        {
          "indexed": false,
          "internalType": "uint256",
          "name": "limit",
          "type": "uint256"
        },
        {
          "indexed": false,
          "internalType": "uint256",
          "name": "expiresAt",
          "type": "uint256"
        }
      ],
      "name": "InsuranceRegistered",
      "type": "event"
    },
    {
      "anonymous": false,
      "inputs": [
        {
          "indexed": true,
          "internalType": "bytes32",
          "name": "entity",
          "type": "bytes32"
        },
        {
          "indexed": true,
          "internalType": "uint256",
          "name": "tokenId",
          "type": "uint256"
        },
        {
          "indexed": false,
          "internalType": "uint256",
          "name": "newBalance",
          "type": "uint256"
        }
      ],
      "name": "ReserveUpdated",
      "type": "event"
    },
    {
      "anonymous": false,
      "inputs": [
        {
          "indexed": true,
          "internalType": "bytes32",
          "name": "hashlock",
          "type": "bytes32"
        },
        {
          "indexed": true,
          "internalType": "bytes32",
          "name": "revealer",
          "type": "bytes32"
        },
        {
          "indexed": false,
          "internalType": "bytes32",
          "name": "secret",
          "type": "bytes32"
        }
      ],
      "name": "SecretRevealed",
      "type": "event"
    },
    {
      "inputs": [],
      "name": "DOMAIN_SEPARATOR",
      "outputs": [
        {
          "internalType": "bytes32",
          "name": "",
          "type": "bytes32"
        }
      ],
      "stateMutability": "view",
      "type": "function"
    },
    {
      "inputs": [
        {
          "internalType": "bytes",
          "name": "",
          "type": "bytes"
        }
      ],
      "name": "_accounts",
      "outputs": [
        {
          "internalType": "uint256",
          "name": "cooperativeNonce",
          "type": "uint256"
        },
        {
          "internalType": "bytes32",
          "name": "disputeHash",
          "type": "bytes32"
        },
        {
          "internalType": "uint256",
          "name": "disputeTimeout",
          "type": "uint256"
        }
      ],
      "stateMutability": "view",
      "type": "function"
    },
    {
      "inputs": [
        {
          "internalType": "bytes32",
          "name": "",
          "type": "bytes32"
        }
      ],
      "name": "_activeDebts",
      "outputs": [
        {
          "internalType": "uint256",
          "name": "",
          "type": "uint256"
        }
      ],
      "stateMutability": "view",
      "type": "function"
    },
    {
      "inputs": [
        {
          "internalType": "bytes",
          "name": "",
          "type": "bytes"
        },
        {
          "internalType": "uint256",
          "name": "",
          "type": "uint256"
        }
      ],
      "name": "_collaterals",
      "outputs": [
        {
          "internalType": "uint256",
          "name": "collateral",
          "type": "uint256"
        },
        {
          "internalType": "int256",
          "name": "ondelta",
          "type": "int256"
        }
      ],
      "stateMutability": "view",
      "type": "function"
    },
    {
      "inputs": [
        {
          "internalType": "bytes32",
          "name": "",
          "type": "bytes32"
        },
        {
          "internalType": "uint256",
          "name": "",
          "type": "uint256"
        }
      ],
      "name": "_debtIndex",
      "outputs": [
        {
          "internalType": "uint256",
          "name": "",
          "type": "uint256"
        }
      ],
      "stateMutability": "view",
      "type": "function"
    },
    {
      "inputs": [
        {
          "internalType": "bytes32",
          "name": "",
          "type": "bytes32"
        },
        {
          "internalType": "uint256",
          "name": "",
          "type": "uint256"
        },
        {
          "internalType": "uint256",
          "name": "",
          "type": "uint256"
        }
      ],
      "name": "_debts",
      "outputs": [
        {
          "internalType": "bytes32",
          "name": "creditor",
          "type": "bytes32"
        },
        {
          "internalType": "uint256",
          "name": "amount",
          "type": "uint256"
        }
      ],
      "stateMutability": "view",
      "type": "function"
    },
    {
      "inputs": [
        {
          "internalType": "bytes32",
          "name": "",
          "type": "bytes32"
        },
        {
          "internalType": "uint256",
          "name": "",
          "type": "uint256"
        }
      ],
      "name": "_reserves",
      "outputs": [
        {
          "internalType": "uint256",
          "name": "",
          "type": "uint256"
        }
      ],
      "stateMutability": "view",
      "type": "function"
    },
    {
      "inputs": [
        {
          "internalType": "uint256",
          "name": "",
          "type": "uint256"
        }
      ],
      "name": "_tokens",
      "outputs": [
        {
          "internalType": "bytes32",
          "name": "",
          "type": "bytes32"
        }
      ],
      "stateMutability": "view",
      "type": "function"
    },
    {
      "inputs": [
        {
          "internalType": "bytes32",
          "name": "e1",
          "type": "bytes32"
        },
        {
          "internalType": "bytes32",
          "name": "e2",
          "type": "bytes32"
        }
      ],
      "name": "accountKey",
      "outputs": [
        {
          "internalType": "bytes",
          "name": "",
          "type": "bytes"
        }
      ],
      "stateMutability": "pure",
      "type": "function"
    },
    {
      "inputs": [
        {
          "internalType": "address",
          "name": "provider",
          "type": "address"
        }
      ],
      "name": "addEntityProvider",
      "outputs": [],
      "stateMutability": "nonpayable",
      "type": "function"
    },
    {
      "inputs": [],
      "name": "admin",
      "outputs": [
        {
          "internalType": "address",
          "name": "",
          "type": "address"
        }
      ],
      "stateMutability": "view",
      "type": "function"
    },
    {
      "inputs": [
        {
          "internalType": "address",
          "name": "",
          "type": "address"
        }
      ],
      "name": "approvedEntityProviders",
      "outputs": [
        {
          "internalType": "bool",
          "name": "",
          "type": "bool"
        }
      ],
      "stateMutability": "view",
      "type": "function"
    },
    {
      "inputs": [
        {
          "internalType": "bytes32",
          "name": "leftEntity",
          "type": "bytes32"
        },
        {
          "internalType": "bytes32",
          "name": "rightEntity",
          "type": "bytes32"
        },
        {
          "components": [
            {
              "internalType": "uint256",
              "name": "tokenId",
              "type": "uint256"
            },
            {
              "internalType": "int256",
              "name": "leftDiff",
              "type": "int256"
            },
            {
              "internalType": "int256",
              "name": "rightDiff",
              "type": "int256"
            },
            {
              "internalType": "int256",
              "name": "collateralDiff",
              "type": "int256"
            },
            {
              "internalType": "int256",
              "name": "ondeltaDiff",
              "type": "int256"
            }
          ],
          "internalType": "struct SettlementDiff[]",
          "name": "diffs",
          "type": "tuple[]"
        },
        {
          "internalType": "uint256[]",
          "name": "forgiveDebtsInTokenIds",
          "type": "uint256[]"
        },
        {
          "components": [
            {
              "internalType": "bytes32",
              "name": "insured",
              "type": "bytes32"
            },
            {
              "internalType": "bytes32",
              "name": "insurer",
              "type": "bytes32"
            },
            {
              "internalType": "uint256",
              "name": "tokenId",
              "type": "uint256"
            },
            {
              "internalType": "uint256",
              "name": "limit",
              "type": "uint256"
            },
            {
              "internalType": "uint256",
              "name": "expiresAt",
              "type": "uint256"
            }
          ],
          "internalType": "struct InsuranceRegistration[]",
          "name": "insuranceRegs",
          "type": "tuple[]"
        }
      ],
      "name": "computeSettlementHash",
      "outputs": [
        {
          "internalType": "bytes32",
          "name": "hash",
          "type": "bytes32"
        },
        {
          "internalType": "uint256",
          "name": "nonce",
          "type": "uint256"
        },
        {
          "internalType": "uint256",
          "name": "encodedMsgLength",
          "type": "uint256"
        }
      ],
      "stateMutability": "view",
      "type": "function"
    },
    {
      "inputs": [],
      "name": "defaultDisputeDelay",
      "outputs": [
        {
          "internalType": "uint256",
          "name": "",
          "type": "uint256"
        }
      ],
      "stateMutability": "view",
      "type": "function"
    },
    {
      "inputs": [
        {
          "components": [
            {
              "internalType": "bytes32",
              "name": "counterentity",
              "type": "bytes32"
            },
            {
              "internalType": "uint256",
              "name": "initialCooperativeNonce",
              "type": "uint256"
            },
            {
              "internalType": "uint256",
              "name": "finalCooperativeNonce",
              "type": "uint256"
            },
            {
              "internalType": "uint256",
              "name": "initialDisputeNonce",
              "type": "uint256"
            },
            {
              "internalType": "uint256",
              "name": "finalDisputeNonce",
              "type": "uint256"
            },
            {
              "internalType": "bytes32",
              "name": "initialProofbodyHash",
              "type": "bytes32"
            },
            {
              "components": [
                {
                  "internalType": "int256[]",
                  "name": "offdeltas",
                  "type": "int256[]"
                },
                {
                  "internalType": "uint256[]",
                  "name": "tokenIds",
                  "type": "uint256[]"
                },
                {
                  "components": [
                    {
                      "internalType": "address",
                      "name": "transformerAddress",
                      "type": "address"
                    },
                    {
                      "internalType": "bytes",
                      "name": "encodedBatch",
                      "type": "bytes"
                    },
                    {
                      "components": [
                        {
                          "internalType": "uint256",
                          "name": "deltaIndex",
                          "type": "uint256"
                        },
                        {
                          "internalType": "uint256",
                          "name": "rightAllowance",
                          "type": "uint256"
                        },
                        {
                          "internalType": "uint256",
                          "name": "leftAllowance",
                          "type": "uint256"
                        }
                      ],
                      "internalType": "struct Allowance[]",
                      "name": "allowances",
                      "type": "tuple[]"
                    }
                  ],
                  "internalType": "struct TransformerClause[]",
                  "name": "transformers",
                  "type": "tuple[]"
                }
              ],
              "internalType": "struct ProofBody",
              "name": "finalProofbody",
              "type": "tuple"
            },
            {
              "internalType": "bytes",
              "name": "finalArguments",
              "type": "bytes"
            },
            {
              "internalType": "bytes",
              "name": "initialArguments",
              "type": "bytes"
            },
            {
              "internalType": "bytes",
              "name": "sig",
              "type": "bytes"
            },
            {
              "internalType": "bool",
              "name": "startedByLeft",
              "type": "bool"
            },
            {
              "internalType": "uint256",
              "name": "disputeUntilBlock",
              "type": "uint256"
            },
            {
              "internalType": "bool",
              "name": "cooperative",
              "type": "bool"
            }
          ],
          "internalType": "struct FinalDisputeProof",
          "name": "params",
          "type": "tuple"
        }
      ],
      "name": "disputeFinalize",
      "outputs": [
        {
          "internalType": "bool",
          "name": "",
          "type": "bool"
        }
      ],
      "stateMutability": "nonpayable",
      "type": "function"
    },
    {
      "inputs": [
        {
          "components": [
            {
              "internalType": "bytes32",
              "name": "counterentity",
              "type": "bytes32"
            },
            {
              "internalType": "uint256",
              "name": "cooperativeNonce",
              "type": "uint256"
            },
            {
              "internalType": "uint256",
              "name": "disputeNonce",
              "type": "uint256"
            },
            {
              "internalType": "bytes32",
              "name": "proofbodyHash",
              "type": "bytes32"
            },
            {
              "internalType": "bytes",
              "name": "sig",
              "type": "bytes"
            },
            {
              "internalType": "bytes",
              "name": "initialArguments",
              "type": "bytes"
            }
          ],
          "internalType": "struct InitialDisputeProof",
          "name": "params",
          "type": "tuple"
        }
      ],
      "name": "disputeStart",
      "outputs": [
        {
          "internalType": "bool",
          "name": "",
          "type": "bool"
        }
      ],
      "stateMutability": "nonpayable",
      "type": "function"
    },
    {
      "inputs": [],
      "name": "emergencyPause",
      "outputs": [
        {
          "internalType": "bool",
          "name": "",
          "type": "bool"
        }
      ],
      "stateMutability": "view",
      "type": "function"
    },
    {
      "inputs": [
        {
          "internalType": "bytes32",
          "name": "entity",
          "type": "bytes32"
        },
        {
          "internalType": "uint256",
          "name": "tokenId",
          "type": "uint256"
        }
      ],
      "name": "enforceDebts",
      "outputs": [
        {
          "internalType": "uint256",
          "name": "",
          "type": "uint256"
        }
      ],
      "stateMutability": "nonpayable",
      "type": "function"
    },
    {
      "inputs": [
        {
          "internalType": "bytes32",
          "name": "entity",
          "type": "bytes32"
        },
        {
          "internalType": "uint256",
          "name": "tokenId",
          "type": "uint256"
        }
      ],
      "name": "enforceDebtsLarge",
      "outputs": [
        {
          "internalType": "uint256",
          "name": "",
          "type": "uint256"
        }
      ],
      "stateMutability": "nonpayable",
      "type": "function"
    },
    {
      "inputs": [
        {
          "internalType": "bytes32",
          "name": "",
          "type": "bytes32"
        }
      ],
      "name": "entityDisputeDelays",
      "outputs": [
        {
          "internalType": "uint256",
          "name": "",
          "type": "uint256"
        }
      ],
      "stateMutability": "view",
      "type": "function"
    },
    {
      "inputs": [
        {
          "internalType": "address",
          "name": "",
          "type": "address"
        }
      ],
      "name": "entityNonces",
      "outputs": [
        {
          "internalType": "uint256",
          "name": "",
          "type": "uint256"
        }
      ],
      "stateMutability": "view",
      "type": "function"
    },
    {
      "inputs": [],
      "name": "entityProvider",
      "outputs": [
        {
          "internalType": "address",
          "name": "",
          "type": "address"
        }
      ],
      "stateMutability": "view",
      "type": "function"
    },
    {
      "inputs": [
        {
          "internalType": "uint256",
          "name": "",
          "type": "uint256"
        }
      ],
      "name": "entityProvidersList",
      "outputs": [
        {
          "internalType": "address",
          "name": "",
          "type": "address"
        }
      ],
      "stateMutability": "view",
      "type": "function"
    },
    {
      "inputs": [
        {
          "components": [
            {
              "internalType": "bytes32",
              "name": "entity",
              "type": "bytes32"
            },
            {
              "internalType": "bytes32",
              "name": "packedToken",
              "type": "bytes32"
            },
            {
              "internalType": "uint256",
              "name": "internalTokenId",
              "type": "uint256"
            },
            {
              "internalType": "uint256",
              "name": "amount",
              "type": "uint256"
            }
          ],
          "internalType": "struct ExternalTokenToReserve",
          "name": "params",
          "type": "tuple"
        }
      ],
      "name": "externalTokenToReserve",
      "outputs": [],
      "stateMutability": "nonpayable",
      "type": "function"
    },
    {
      "inputs": [],
      "name": "getApprovedProviders",
      "outputs": [
        {
          "internalType": "address[]",
          "name": "",
          "type": "address[]"
        }
      ],
      "stateMutability": "view",
      "type": "function"
    },
    {
      "inputs": [
        {
          "internalType": "uint256",
          "name": "tokenId",
          "type": "uint256"
        }
      ],
      "name": "getTokenMetadata",
      "outputs": [
        {
          "internalType": "address",
          "name": "contractAddress",
          "type": "address"
        },
        {
          "internalType": "uint96",
          "name": "externalTokenId",
          "type": "uint96"
        },
        {
          "internalType": "uint8",
          "name": "tokenType",
          "type": "uint8"
        }
      ],
      "stateMutability": "view",
      "type": "function"
    },
    {
      "inputs": [],
      "name": "getTokensLength",
      "outputs": [
        {
          "internalType": "uint256",
          "name": "",
          "type": "uint256"
        }
      ],
      "stateMutability": "view",
      "type": "function"
    },
    {
      "inputs": [
        {
          "internalType": "bytes32",
          "name": "",
          "type": "bytes32"
        }
      ],
      "name": "insuranceCursor",
      "outputs": [
        {
          "internalType": "uint256",
          "name": "",
          "type": "uint256"
        }
      ],
      "stateMutability": "view",
      "type": "function"
    },
    {
      "inputs": [
        {
          "internalType": "bytes32",
          "name": "",
          "type": "bytes32"
        },
        {
          "internalType": "uint256",
          "name": "",
          "type": "uint256"
        }
      ],
      "name": "insuranceLines",
      "outputs": [
        {
          "internalType": "bytes32",
          "name": "insurer",
          "type": "bytes32"
        },
        {
          "internalType": "uint256",
          "name": "tokenId",
          "type": "uint256"
        },
        {
          "internalType": "uint256",
          "name": "remaining",
          "type": "uint256"
        },
        {
          "internalType": "uint256",
          "name": "expiresAt",
          "type": "uint256"
        }
      ],
      "stateMutability": "view",
      "type": "function"
    },
    {
      "inputs": [
        {
          "internalType": "bytes32",
          "name": "entity",
          "type": "bytes32"
        },
        {
          "internalType": "uint256",
          "name": "tokenId",
          "type": "uint256"
        },
        {
          "internalType": "uint256",
          "name": "amount",
          "type": "uint256"
        }
      ],
      "name": "mintToReserve",
      "outputs": [],
      "stateMutability": "nonpayable",
      "type": "function"
    },
    {
      "inputs": [
        {
          "internalType": "address",
          "name": "",
          "type": "address"
        },
        {
          "internalType": "address",
          "name": "",
          "type": "address"
        },
        {
          "internalType": "uint256[]",
          "name": "",
          "type": "uint256[]"
        },
        {
          "internalType": "uint256[]",
          "name": "",
          "type": "uint256[]"
        },
        {
          "internalType": "bytes",
          "name": "",
          "type": "bytes"
        }
      ],
      "name": "onERC1155BatchReceived",
      "outputs": [
        {
          "internalType": "bytes4",
          "name": "",
          "type": "bytes4"
        }
      ],
      "stateMutability": "pure",
      "type": "function"
    },
    {
      "inputs": [
        {
          "internalType": "address",
          "name": "",
          "type": "address"
        },
        {
          "internalType": "address",
          "name": "from",
          "type": "address"
        },
        {
          "internalType": "uint256",
          "name": "id",
          "type": "uint256"
        },
        {
          "internalType": "uint256",
          "name": "value",
          "type": "uint256"
        },
        {
          "internalType": "bytes",
          "name": "",
          "type": "bytes"
        }
      ],
      "name": "onERC1155Received",
      "outputs": [
        {
          "internalType": "bytes4",
          "name": "",
          "type": "bytes4"
        }
      ],
      "stateMutability": "nonpayable",
      "type": "function"
    },
    {
      "inputs": [
        {
          "internalType": "uint8",
          "name": "tokenType",
          "type": "uint8"
        },
        {
          "internalType": "address",
          "name": "contractAddress",
          "type": "address"
        },
        {
          "internalType": "uint96",
          "name": "externalTokenId",
          "type": "uint96"
        }
      ],
      "name": "packTokenReference",
      "outputs": [
        {
          "internalType": "bytes32",
          "name": "",
          "type": "bytes32"
        }
      ],
      "stateMutability": "pure",
      "type": "function"
    },
    {
      "inputs": [
        {
          "internalType": "bytes",
          "name": "encodedBatch",
          "type": "bytes"
        },
        {
          "internalType": "address",
          "name": "entityProvider",
          "type": "address"
        },
        {
          "internalType": "bytes",
          "name": "hankoData",
          "type": "bytes"
        },
        {
          "internalType": "uint256",
          "name": "nonce",
          "type": "uint256"
        }
      ],
      "name": "processBatch",
      "outputs": [
        {
          "internalType": "bool",
          "name": "completeSuccess",
          "type": "bool"
        }
      ],
      "stateMutability": "nonpayable",
      "type": "function"
    },
    {
      "inputs": [
        {
          "internalType": "address",
          "name": "provider",
          "type": "address"
        }
      ],
      "name": "removeEntityProvider",
      "outputs": [],
      "stateMutability": "nonpayable",
      "type": "function"
    },
    {
      "inputs": [
        {
          "internalType": "bytes32",
          "name": "fromEntity",
          "type": "bytes32"
        },
        {
          "internalType": "bytes32",
          "name": "toEntity",
          "type": "bytes32"
        },
        {
          "internalType": "uint256",
          "name": "tokenId",
          "type": "uint256"
        },
        {
          "internalType": "uint256",
          "name": "amount",
          "type": "uint256"
        }
      ],
      "name": "reserveToReserve",
      "outputs": [
        {
          "internalType": "bool",
          "name": "",
          "type": "bool"
        }
      ],
      "stateMutability": "nonpayable",
      "type": "function"
    },
    {
      "inputs": [
        {
          "internalType": "uint256",
          "name": "delayBlocks",
          "type": "uint256"
        }
      ],
      "name": "setDefaultDisputeDelay",
      "outputs": [],
      "stateMutability": "nonpayable",
      "type": "function"
    },
    {
      "inputs": [
        {
          "internalType": "bool",
          "name": "isPaused",
          "type": "bool"
        }
      ],
      "name": "setEmergencyPause",
      "outputs": [],
      "stateMutability": "nonpayable",
      "type": "function"
    },
    {
      "inputs": [
        {
          "internalType": "bytes32",
          "name": "entity",
          "type": "bytes32"
        },
        {
          "internalType": "uint256",
          "name": "delayBlocks",
          "type": "uint256"
        }
      ],
      "name": "setEntityDisputeDelay",
      "outputs": [],
      "stateMutability": "nonpayable",
      "type": "function"
    },
    {
      "inputs": [
        {
          "internalType": "bytes32",
          "name": "leftEntity",
          "type": "bytes32"
        },
        {
          "internalType": "bytes32",
          "name": "rightEntity",
          "type": "bytes32"
        },
        {
          "components": [
            {
              "internalType": "uint256",
              "name": "tokenId",
              "type": "uint256"
            },
            {
              "internalType": "int256",
              "name": "leftDiff",
              "type": "int256"
            },
            {
              "internalType": "int256",
              "name": "rightDiff",
              "type": "int256"
            },
            {
              "internalType": "int256",
              "name": "collateralDiff",
              "type": "int256"
            },
            {
              "internalType": "int256",
              "name": "ondeltaDiff",
              "type": "int256"
            }
          ],
          "internalType": "struct SettlementDiff[]",
          "name": "diffs",
          "type": "tuple[]"
        },
        {
          "internalType": "uint256[]",
          "name": "forgiveDebtsInTokenIds",
          "type": "uint256[]"
        },
        {
          "components": [
            {
              "internalType": "bytes32",
              "name": "insured",
              "type": "bytes32"
            },
            {
              "internalType": "bytes32",
              "name": "insurer",
              "type": "bytes32"
            },
            {
              "internalType": "uint256",
              "name": "tokenId",
              "type": "uint256"
            },
            {
              "internalType": "uint256",
              "name": "limit",
              "type": "uint256"
            },
            {
              "internalType": "uint256",
              "name": "expiresAt",
              "type": "uint256"
            }
          ],
          "internalType": "struct InsuranceRegistration[]",
          "name": "insuranceRegs",
          "type": "tuple[]"
        },
        {
          "internalType": "bytes",
          "name": "sig",
          "type": "bytes"
        }
      ],
      "name": "settle",
      "outputs": [
        {
          "internalType": "bool",
          "name": "",
          "type": "bool"
        }
      ],
      "stateMutability": "nonpayable",
      "type": "function"
    },
    {
      "inputs": [
        {
          "internalType": "bytes32",
          "name": "",
          "type": "bytes32"
        }
      ],
      "name": "tokenToId",
      "outputs": [
        {
          "internalType": "uint256",
          "name": "",
          "type": "uint256"
        }
      ],
      "stateMutability": "view",
      "type": "function"
    },
    {
      "inputs": [
        {
          "internalType": "bytes32",
          "name": "packed",
          "type": "bytes32"
        }
      ],
      "name": "unpackTokenReference",
      "outputs": [
        {
          "internalType": "address",
          "name": "contractAddress",
          "type": "address"
        },
        {
          "internalType": "uint96",
          "name": "externalTokenId",
          "type": "uint96"
        },
        {
          "internalType": "uint8",
          "name": "tokenType",
          "type": "uint8"
        }
      ],
      "stateMutability": "pure",
      "type": "function"
    },
    {
      "inputs": [
        {
          "internalType": "bytes32",
          "name": "entity",
          "type": "bytes32"
        },
        {
          "components": [
            {
              "components": [
                {
                  "internalType": "uint256",
                  "name": "tokenId",
                  "type": "uint256"
                },
                {
                  "internalType": "uint256",
                  "name": "amount",
                  "type": "uint256"
                }
              ],
              "internalType": "struct Flashloan[]",
              "name": "flashloans",
              "type": "tuple[]"
            },
            {
              "components": [
                {
                  "internalType": "bytes32",
                  "name": "receivingEntity",
                  "type": "bytes32"
                },
                {
                  "internalType": "uint256",
                  "name": "tokenId",
                  "type": "uint256"
                },
                {
                  "internalType": "uint256",
                  "name": "amount",
                  "type": "uint256"
                }
              ],
              "internalType": "struct ReserveToReserve[]",
              "name": "reserveToReserve",
              "type": "tuple[]"
            },
            {
              "components": [
                {
                  "internalType": "uint256",
                  "name": "tokenId",
                  "type": "uint256"
                },
                {
                  "internalType": "bytes32",
                  "name": "receivingEntity",
                  "type": "bytes32"
                },
                {
                  "components": [
                    {
                      "internalType": "bytes32",
                      "name": "entity",
                      "type": "bytes32"
                    },
                    {
                      "internalType": "uint256",
                      "name": "amount",
                      "type": "uint256"
                    }
                  ],
                  "internalType": "struct EntityAmount[]",
                  "name": "pairs",
                  "type": "tuple[]"
                }
              ],
              "internalType": "struct ReserveToCollateral[]",
              "name": "reserveToCollateral",
              "type": "tuple[]"
            },
            {
              "components": [
                {
                  "internalType": "bytes32",
                  "name": "counterparty",
                  "type": "bytes32"
                },
                {
                  "internalType": "uint256",
                  "name": "tokenId",
                  "type": "uint256"
                },
                {
                  "internalType": "uint256",
                  "name": "amount",
                  "type": "uint256"
                },
                {
                  "internalType": "bytes",
                  "name": "sig",
                  "type": "bytes"
                }
              ],
              "internalType": "struct CollateralToReserve[]",
              "name": "collateralToReserve",
              "type": "tuple[]"
            },
            {
              "components": [
                {
                  "internalType": "bytes32",
                  "name": "leftEntity",
                  "type": "bytes32"
                },
                {
                  "internalType": "bytes32",
                  "name": "rightEntity",
                  "type": "bytes32"
                },
                {
                  "components": [
                    {
                      "internalType": "uint256",
                      "name": "tokenId",
                      "type": "uint256"
                    },
                    {
                      "internalType": "int256",
                      "name": "leftDiff",
                      "type": "int256"
                    },
                    {
                      "internalType": "int256",
                      "name": "rightDiff",
                      "type": "int256"
                    },
                    {
                      "internalType": "int256",
                      "name": "collateralDiff",
                      "type": "int256"
                    },
                    {
                      "internalType": "int256",
                      "name": "ondeltaDiff",
                      "type": "int256"
                    }
                  ],
                  "internalType": "struct SettlementDiff[]",
                  "name": "diffs",
                  "type": "tuple[]"
                },
                {
                  "internalType": "uint256[]",
                  "name": "forgiveDebtsInTokenIds",
                  "type": "uint256[]"
                },
                {
                  "components": [
                    {
                      "internalType": "bytes32",
                      "name": "insured",
                      "type": "bytes32"
                    },
                    {
                      "internalType": "bytes32",
                      "name": "insurer",
                      "type": "bytes32"
                    },
                    {
                      "internalType": "uint256",
                      "name": "tokenId",
                      "type": "uint256"
                    },
                    {
                      "internalType": "uint256",
                      "name": "limit",
                      "type": "uint256"
                    },
                    {
                      "internalType": "uint256",
                      "name": "expiresAt",
                      "type": "uint256"
                    }
                  ],
                  "internalType": "struct InsuranceRegistration[]",
                  "name": "insuranceRegs",
                  "type": "tuple[]"
                },
                {
                  "internalType": "bytes",
                  "name": "sig",
                  "type": "bytes"
                },
                {
                  "internalType": "address",
                  "name": "entityProvider",
                  "type": "address"
                },
                {
                  "internalType": "bytes",
                  "name": "hankoData",
                  "type": "bytes"
                },
                {
                  "internalType": "uint256",
                  "name": "nonce",
                  "type": "uint256"
                }
              ],
              "internalType": "struct Settlement[]",
              "name": "settlements",
              "type": "tuple[]"
            },
            {
              "components": [
                {
                  "internalType": "bytes32",
                  "name": "counterentity",
                  "type": "bytes32"
                },
                {
                  "internalType": "uint256",
                  "name": "cooperativeNonce",
                  "type": "uint256"
                },
                {
                  "internalType": "uint256",
                  "name": "disputeNonce",
                  "type": "uint256"
                },
                {
                  "internalType": "bytes32",
                  "name": "proofbodyHash",
                  "type": "bytes32"
                },
                {
                  "internalType": "bytes",
                  "name": "sig",
                  "type": "bytes"
                },
                {
                  "internalType": "bytes",
                  "name": "initialArguments",
                  "type": "bytes"
                }
              ],
              "internalType": "struct InitialDisputeProof[]",
              "name": "disputeStarts",
              "type": "tuple[]"
            },
            {
              "components": [
                {
                  "internalType": "bytes32",
                  "name": "counterentity",
                  "type": "bytes32"
                },
                {
                  "internalType": "uint256",
                  "name": "initialCooperativeNonce",
                  "type": "uint256"
                },
                {
                  "internalType": "uint256",
                  "name": "finalCooperativeNonce",
                  "type": "uint256"
                },
                {
                  "internalType": "uint256",
                  "name": "initialDisputeNonce",
                  "type": "uint256"
                },
                {
                  "internalType": "uint256",
                  "name": "finalDisputeNonce",
                  "type": "uint256"
                },
                {
                  "internalType": "bytes32",
                  "name": "initialProofbodyHash",
                  "type": "bytes32"
                },
                {
                  "components": [
                    {
                      "internalType": "int256[]",
                      "name": "offdeltas",
                      "type": "int256[]"
                    },
                    {
                      "internalType": "uint256[]",
                      "name": "tokenIds",
                      "type": "uint256[]"
                    },
                    {
                      "components": [
                        {
                          "internalType": "address",
                          "name": "transformerAddress",
                          "type": "address"
                        },
                        {
                          "internalType": "bytes",
                          "name": "encodedBatch",
                          "type": "bytes"
                        },
                        {
                          "components": [
                            {
                              "internalType": "uint256",
                              "name": "deltaIndex",
                              "type": "uint256"
                            },
                            {
                              "internalType": "uint256",
                              "name": "rightAllowance",
                              "type": "uint256"
                            },
                            {
                              "internalType": "uint256",
                              "name": "leftAllowance",
                              "type": "uint256"
                            }
                          ],
                          "internalType": "struct Allowance[]",
                          "name": "allowances",
                          "type": "tuple[]"
                        }
                      ],
                      "internalType": "struct TransformerClause[]",
                      "name": "transformers",
                      "type": "tuple[]"
                    }
                  ],
                  "internalType": "struct ProofBody",
                  "name": "finalProofbody",
                  "type": "tuple"
                },
                {
                  "internalType": "bytes",
                  "name": "finalArguments",
                  "type": "bytes"
                },
                {
                  "internalType": "bytes",
                  "name": "initialArguments",
                  "type": "bytes"
                },
                {
                  "internalType": "bytes",
                  "name": "sig",
                  "type": "bytes"
                },
                {
                  "internalType": "bool",
                  "name": "startedByLeft",
                  "type": "bool"
                },
                {
                  "internalType": "uint256",
                  "name": "disputeUntilBlock",
                  "type": "uint256"
                },
                {
                  "internalType": "bool",
                  "name": "cooperative",
                  "type": "bool"
                }
              ],
              "internalType": "struct FinalDisputeProof[]",
              "name": "disputeFinalizations",
              "type": "tuple[]"
            },
            {
              "components": [
                {
                  "internalType": "bytes32",
                  "name": "entity",
                  "type": "bytes32"
                },
                {
                  "internalType": "bytes32",
                  "name": "packedToken",
                  "type": "bytes32"
                },
                {
                  "internalType": "uint256",
                  "name": "internalTokenId",
                  "type": "uint256"
                },
                {
                  "internalType": "uint256",
                  "name": "amount",
                  "type": "uint256"
                }
              ],
              "internalType": "struct ExternalTokenToReserve[]",
              "name": "externalTokenToReserve",
              "type": "tuple[]"
            },
            {
              "components": [
                {
                  "internalType": "bytes32",
                  "name": "receivingEntity",
                  "type": "bytes32"
                },
                {
                  "internalType": "uint256",
                  "name": "tokenId",
                  "type": "uint256"
                },
                {
                  "internalType": "uint256",
                  "name": "amount",
                  "type": "uint256"
                }
              ],
              "internalType": "struct ReserveToExternalToken[]",
              "name": "reserveToExternalToken",
              "type": "tuple[]"
            },
            {
              "components": [
                {
                  "internalType": "address",
                  "name": "transformer",
                  "type": "address"
                },
                {
                  "internalType": "bytes32",
                  "name": "secret",
                  "type": "bytes32"
                }
              ],
              "internalType": "struct SecretReveal[]",
              "name": "revealSecrets",
              "type": "tuple[]"
            },
            {
              "internalType": "uint256",
              "name": "hub_id",
              "type": "uint256"
            }
          ],
          "internalType": "struct Batch",
          "name": "batch",
          "type": "tuple"
        }
      ],
      "name": "unsafeProcessBatch",
      "outputs": [
        {
          "internalType": "bool",
          "name": "completeSuccess",
          "type": "bool"
        }
      ],
      "stateMutability": "nonpayable",
      "type": "function"
    }
  ],
  "bytecode": "0x60c0346200025657601f620067eb38819003918201601f19168301916001600160401b038311848410176200025b578084926020946040528339810103126200025657516001600160a01b038116808203620002565760009160018355601460065581156200020357608052808252600160205260408220600160ff1982541617905560025490680100000000000000009182811015620001ef576001810180600255811015620001db57600284527f405787fa12a823e0f2b7631cc41b3ba8828b3321ca811111fa75cd3aa3bb5ace0180546001600160a01b03191690911790553360a052600d5490811015620001c7576001810180600d55811015620001b357600d82527fd7b6990105719101dabeb77144f2a3385c8033acd3af97e9423a695e81ad1eb501556040516165799081620002728239608051818181610ba7015281816115c9015281816123bd0152818161343601528181613d1f01528181614b020152615198015260a0518181816102370152818161029a015281816104cf01528181610588015281816107b501528181610cd10152818161131f015281816113e00152818161156801526117960152f35b634e487b7160e01b82526032600452602482fd5b634e487b7160e01b82526041600452602482fd5b634e487b7160e01b84526032600452602484fd5b634e487b7160e01b84526041600452602484fd5b60405162461bcd60e51b815260206004820152602560248201527f456e7469747950726f76696465722063616e6e6f74206265207a65726f206164604482015264647265737360d81b6064820152608490fd5b600080fd5b634e487b7160e01b600052604160045260246000fdfe60a060408181526004918236101561001657600080fd5b600092833560e01c9182630c0a46a814611b1c575081630dedd62414611aae578163125c2cc414611a3b5781631e40079c146119de578163266afe1b146119195781632f84cf7d146118be57816331cf2a56146117f75781633644e515146117ce5781633925cd44146115f85781634318cdd0146115b457816351858e271461159057816356d58681146114d557816358d642bc146113bb5781636031680114611356578163664b8b211461123e5781636b79134d146112165781637508b916146111ea57816388a1cd761461119f578163907efb1b1461118057816392cf61e51461112e5781639304677d146110f657816396954a9f146110ce578163abc8d1ac14611090578163acd6f20814611064578163b0c26ecf14611045578163bb2c250c14610f68578163bc197c8114610ec2578163c408a90914610d39578163d148b4c814610cb9578163d19fd92e14610c91578163d57bb1d614610b1c578163d595b4f5146107fd578163d8d1a65714610794578163dd865c8b1461072f578163ddc3948014610560578163e812c569146104b9578163ec6d8e0614610478578163ed70554d1461043f578163f176e32614610401578163f23a6e61146102c9578163f851a44014610285578163fbd6d63f14610223575063fc3c4c3e146101fe57600080fd5b3461021f5760209061021861021236611ce3565b90614595565b9051908152f35b5080fd5b919050346102815761023436611ce3565b927f00000000000000000000000000000000000000000000000000000000000000006001600160a01b0316330361027357508352600760205282205580f35b8251633485c51360e21b8152fd5b8280fd5b50503461021f578160031936011261021f57517f00000000000000000000000000000000000000000000000000000000000000006001600160a01b03168152602090f35b9050346102815760a0366003190112610281576102e4611da2565b506102ed611db8565b506084356001600160401b0381116103fd5761030c903690830161221b565b50508151632ecb094360e21b8152600282820152336024820152604480356001600160601b03169082015260209390848160648173__$1a0918a2aa2208593bb0a5d7644cd0946b$__5af49081156103f35782916103c6575b50808252600e85528382205415610387575b5050505163f23a6e6160e01b8152f35b61039081613211565b600d546000198101939084116103b357508152600e845282902055388080610377565b634e487b7160e01b835260119052602482fd5b90508481813d83116103ec575b6103dd8183611c28565b8101031261021f575138610365565b503d6103d3565b84513d84823e3d90fd5b8380fd5b82843461043c578160031936011261043c57506104256104389260243590356131d1565b90519182916020835260208301906122fa565b0390f35b80fd5b905034610281576020366003190112610281573591600d5483101561043c575061046a6020926122df565b91905490519160031b1c8152f35b90503461028157602036600319011261028157359160025483101561043c57506104a36020926122c4565b905491519160018060a01b039160031b1c168152f35b905034610281576104c9366121b5565b909391927f00000000000000000000000000000000000000000000000000000000000000006001600160a01b0316330361027357811561055257506000805160206164e48339815191529160209184875260038352818720868852835261053482882091825461271b565b9055838652600382528086208587528252808620549051908152a380f35b825163440a57bf60e01b8152fd5b8391503461021f57602036600319011261021f5761057c611da2565b6001600160a01b0391907f000000000000000000000000000000000000000000000000000000000000000083163303610720578216916105bd831515612728565b828452600191600160205260ff8686205416156106f757849584849596526001602052862060ff19815416905585935b61061b575b85857f67c5a35d33d48c47ef33c82c62eda6254aad034fab4c51abe26a6d06ad174a348280a280f35b6002805490818610156106f057839187610634886122c4565b949054600395861b1c16146106505750505082809401936105ed565b919590945060001992918381019081116106dd5790610682856106756106a0946122c4565b9054908a1b1c16916122c4565b90919060018060a01b038084549260031b9316831b921b1916179055565b83549081156106ca575001926106b5846122c4565b81939154921b1b1916905555828080806105f2565b634e487b7160e01b885260319052602487fd5b634e487b7160e01b895260118352602489fd5b50506105f2565b606490602087519162461bcd60e51b83528201526003602482015262216f6b60e81b6044820152fd5b508351633485c51360e21b8152fd5b9050346102815760803660031901126102815781519161074e83611b8d565b8135835260243560208401526044358184015260643560608401526002845414610787578361078084600283556156d0565b6001815580f35b51633018d46b60e11b8152fd5b9050346102815760203660031901126102815780359182151583036103fd577f00000000000000000000000000000000000000000000000000000000000000006001600160a01b031633036107f057836107ed84613180565b80f35b51633485c51360e21b8152fd5b91905034610281576080366003190112610281576001600160401b0392823584811161021f57610830903690850161221b565b61083b959195611db8565b95604435838111610b1857610853903690880161221b565b9390926064359760ff600b5416610b0a576002875414610afc57600287556001600160a01b03998a168088526001602090815289892054909b919060ff1615610acd5789516359516e5f60e01b81526000805160206165048339815191528185015246602482015230604482015260a06064820152969594939291908c88808e6108e160a48301898c61315f565b906084830152038173__$1a0918a2aa2208593bb0a5d7644cd0946b$__5af4978815610ac357908b918b99610a8a575b5061093b90888c8c85519c8d9586948593631155a0c560e31b8552898c860152604485019161315f565b90602483015203925af18015610a805789978a91610a41575b50158015610a39575b610a2a57861690818952600f8c528989205460018101809111610a17578b03610a0957508752600f8a5288888820558201918981840312610a05578035918211610a05576001969594936109e16109db7fbd6e57133956b4a3944b483a9e595b4aab16071cf15a39384fdb1b7015865aab958b956109e995016127da565b866149c5565b953691611c66565b898151910120938151988952151597888a820152a35551908152f35b8680fd5b8951633485c51360e21b8152fd5b634e487b7160e01b8a526011825260248afd5b508851631bd18a1960e31b8152fd5b50861561095d565b8098508b8092503d8311610a79575b610a5a8183611c28565b81010312610a7557610a6f8c88519801612340565b38610954565b8880fd5b503d610a50565b8a513d8b823e3d90fd5b8e80929a508193503d8311610abc575b610aa48183611c28565b81010312610ab85751968a9061093b610911565b8980fd5b503d610a9a565b8b513d8c823e3d90fd5b895162461bcd60e51b81528084018d9052600960248201526810b83937bb34b232b960b91b6044820152606490fd5b8751633018d46b60e11b8152fd5b8751633485c51360e21b8152fd5b8480fd5b91905034610281576020928360031936011261043c5782356001600160401b03811161021f57610b4f9036908501612248565b6002825414610c82576002825582518591610b6982611bc4565b6001825282845b818110610c4a575050610b828261231f565b52610b8c8161231f565b5060065484516312f6ab5960e31b81529586928392610bd1927f0000000000000000000000000000000000000000000000000000000000000000929033908601613083565b038173__$1a0918a2aa2208593bb0a5d7644cd0946b$__5af4928315610c3e578193610c05575b5060019055519015158152f35b9092508381813d8311610c37575b610c1d8183611c28565b8101031261028157610c30600191612340565b9290610bf8565b503d610c13565b509051903d90823e3d90fd5b8651610c5581611b41565b868152868382015286888201526060878183015280608083015260a0820152828286010152018390610b70565b505051633018d46b60e11b8152fd5b905034610281576020366003190112610281576020928291358152600e845220549051908152f35b905034610281576020366003190112610281578035917f00000000000000000000000000000000000000000000000000000000000000006001600160a01b031633036107f0578215610d0d57505060065580f35b906020606492519162461bcd60e51b835282015260066024820152652164656c617960d01b6044820152fd5b9050346102815760a09160a06003193601126103fd576001600160401b039360443585811161021f57610d6f90369085016120ef565b60643586811161028157610d869036908601611d42565b9560843590811161028157610da190959295369086016120ef565b95610daf60243586356131d1565b9586958551978880928251610dca8160209d8e809701611cc0565b8201908152030190205493855193610df289860198848a5260c08988015260e08701906122fa565b93866060870152601f1994858782030160808801528a8084519283815201930190855b8c828210610e9f575050505090610e3591858783030160a088015261304f565b90838583030160c086015288808b5193848152019a0192905b828210610e7f5750505050610e6d908260609803908101835282611c28565b51809320938251948552840152820152f35b90919299898282610e936001948f5161234d565b019b0193920190610e4e565b8686610eb4869860019596979b9a9b5161234d565b979897019501929101610e15565b9050823461043c5760a036600319011261043c57610ede611da2565b50610ee7611db8565b506001600160401b039060443582811161021f57610f0890369085016121eb565b505060643582811161021f57610f2190369085016121eb565b505060843591821161043c5750606492610f406020923690850161221b565b50505162461bcd60e51b8152918201526006602482015265042c4c2e8c6d60d31b6044820152fd5b9190503461028157606036600319011261028157813560ff81168091036103fd57610f91611db8565b6044356001600160601b0381169290839003611041578351632ecb094360e21b8152948501526001600160a01b03166024840152604483015260208260648173__$1a0918a2aa2208593bb0a5d7644cd0946b$__5af4918215611037578392610fff575b6020838351908152f35b9091506020813d60201161102f575b8161101b60209383611c28565b810103126102815760209250519038610ff5565b3d915061100e565b81513d85823e3d90fd5b8580fd5b50503461021f578160031936011261021f57602090600d549051908152f35b50503461021f578060209261107836611ce3565b90825260038552828220908252845220549051908152f35b50503461021f57602036600319011261021f5760209160ff9082906001600160a01b036110bb611da2565b1681526001855220541690519015158152f35b9050346102815760203660031901126102815760209282913581526007845220549051908152f35b50503461021f57602036600319011261021f5760209181906001600160a01b0361111e611da2565b168152600f845220549051908152f35b82843461043c57602036600319011261043c575061114f6104389235612f98565b92516001600160a01b0390921682526001600160601b0316602082015260ff90911660408201529081906060820190565b50503461021f578160031936011261021f576020906006549051908152f35b50503461021f576111af366121b5565b918452600860205282842090845260205281832080548210156103fd57906111d6916121cf565b506001815491015482519182526020820152f35b50503461021f57806020926111fe36611ce3565b90825260098552828220908252845220549051908152f35b905034610281576020366003190112610281576020928291358152600a845220549051908152f35b8391503461021f5760031990838236011261028157803591602435906001600160401b038211610b18576101609082360301126103fd5760ff600b541661072057600284541461134757600284556001600160a01b03838116331490811561131b575b50156112cd57602094926112bd6001936112c3933691016127da565b906149c5565b9255519015158152f35b845162461bcd60e51b8152602081840152602260248201527f45323a2063616c6c6572206d75737420626520656e74697479206f722061646d60448201526134b760f11b6064820152608490fd5b90507f0000000000000000000000000000000000000000000000000000000000000000163314866112a1565b508351633018d46b60e11b8152fd5b82843461043c57602036600319011261043c5750813591600d54831015611393575061114f611387610438936122df565b90549060031b1c612f98565b606491519062461bcd60e51b825260208183015260248201526321746f6b60e01b6044820152fd5b83833461021f57602036600319011261021f576113d6611da2565b6001600160a01b037f0000000000000000000000000000000000000000000000000000000000000000811633036114c557811691611415831515612728565b828452600160205260ff818520541661149a5782845260016020528320600160ff19825416179055600254600160401b811015611487579061068282600161146094016002556122c4565b7fc395b1bd803c744a815bc34a0426e5eaac03513b9d76bf237a734a004916499c8280a280f35b634e487b7160e01b845260418552602484fd5b5162461bcd60e51b8152602081860152600660248201526565786973747360d01b6044820152606490fd5b8251633485c51360e21b81528590fd5b9050823461043c57506114e736611ce3565b916001600160a01b038281163314908115611564575b5015611510576020846102188585614395565b608490602085519162461bcd60e51b8352820152602860248201527f4f6e6c7920656e74697479206f722061646d696e2063616e20757365206c61726044820152670ceca40c4c2e8c6d60c31b6064820152fd5b90507f0000000000000000000000000000000000000000000000000000000000000000163314856114fd565b50503461021f578160031936011261021f5760209060ff600b541690519015158152f35b50503461021f578160031936011261021f57517f00000000000000000000000000000000000000000000000000000000000000006001600160a01b03168152602090f35b82843461043c57608036600319011261043c5782356024356044359160643560ff600b54166117305760028554146117be57600285556001600160a01b038281163314908115611792575b5015611740578282146117305780156117205761166084836140a2565b5081855260209660038852868620858752885281878720541061171257508382889287969594600198526003845288872083885284528887206116a48282546126f8565b90558487526003845288872083885284526116c389882091825461271b565b90558086526003835287862082875283528786205488519081526000805160206164e4833981519152938491a381845260038752858420838552875286868520548751908152a3555160018152f35b8651632fd8225d60e21b8152fd5b855163440a57bf60e01b81528790fd5b8551633485c51360e21b81528790fd5b855162461bcd60e51b8152602081890152602660248201527f45323a2063616c6c6572206d7573742062652066726f6d456e74697479206f726044820152651030b236b4b760d11b6064820152608490fd5b90507f000000000000000000000000000000000000000000000000000000000000000016331488611643565b8551633018d46b60e11b81528790fd5b50503461021f578160031936011261021f57602090516000805160206165048339815191528152f35b83833461021f5760c036600319011261021f576001600160401b036044358181116103fd5761182990369086016120ef565b90606435818111610b18576118419036908701611d42565b6084358281116110415761185890369088016120ef565b9160a435908111611041576118709036908801611ca2565b9260ff600b54166118ae57600286541461189e5791600193916112c39360209860028955602435903561237a565b8451633018d46b60e11b81528790fd5b8451633485c51360e21b81528790fd5b83833461021f57602036600319011261021f5782356001600160401b038111610281576118ee9036908501611def565b92600283541461190b575060016112c36020946002855533613363565b9051633018d46b60e11b8152fd5b82843461043c578060031936011261043c578151600280548083529083526020939284830192909183907f405787fa12a823e0f2b7631cc41b3ba8828b3321ca811111fa75cd3aa3bb5ace90845b8181106119c1575050508161197d910382611c28565b83519485948186019282875251809352850193925b8281106119a157505050500390f35b83516001600160a01b031685528695509381019392810192600101611992565b82546001600160a01b031684529288019260019283019201611967565b50503461021f576119ee36611ce3565b92908152601060205281812090815484101561043c5750608092611a1191611cf9565b50908154916001810154916003600283015492015492815194855260208501528301526060820152f35b82843461043c57602036600319011261043c578235906001600160401b03821161043c57506020606093611a75611a889336908301611ca2565b9082855194838680955193849201611cc0565b820190815203019020805491600260018301549201549181519384526020840152820152f35b90503461028157816003193601126102815780356001600160401b0381116103fd576020611ae4849593611af693369101611ca2565b81855193828580945193849201611cc0565b810160058152030190206024358252602052206001815491015482519182526020820152f35b929150346103fd5760203660031901126103fd5792602093358152600c845220548152f35b60c081019081106001600160401b03821117611b5c57604052565b634e487b7160e01b600052604160045260246000fd5b606081019081106001600160401b03821117611b5c57604052565b608081019081106001600160401b03821117611b5c57604052565b61012081019081106001600160401b03821117611b5c57604052565b604081019081106001600160401b03821117611b5c57604052565b6001600160401b038111611b5c57604052565b60e081019081106001600160401b03821117611b5c57604052565b602081019081106001600160401b03821117611b5c57604052565b601f909101601f19168101906001600160401b03821190821017611b5c57604052565b6001600160401b038111611b5c57601f01601f191660200190565b929192611c7282611c4b565b91611c806040519384611c28565b829481845281830111611c9d578281602093846000960137010152565b600080fd5b9080601f83011215611c9d57816020611cbd93359101611c66565b90565b60005b838110611cd35750506000910152565b8181015183820152602001611cc3565b6040906003190112611c9d576004359060243590565b8054821015611d155760005260206000209060021b0190600090565b634e487b7160e01b600052603260045260246000fd5b6001600160401b038111611b5c5760051b60200190565b9080601f83011215611c9d576020908235611d5c81611d2b565b93611d6a6040519586611c28565b81855260208086019260051b820101928311611c9d57602001905b828210611d93575050505090565b81358152908301908301611d85565b600435906001600160a01b0382168203611c9d57565b602435906001600160a01b0382168203611c9d57565b35906001600160a01b0382168203611c9d57565b35908115158203611c9d57565b9190916101a0908181850312611c9d5760408051909490926001600160401b0390840181811185821017611b5c57865283958335855260208085013581870152818501358287015260609182860135838801526080860135608088015260a086013560a088015260c0860135848111611c9d578601928084870312611c9d57815193611e7a85611b72565b8035868111611c9d57810187601f82011215611c9d57803590611e9c82611d2b565b91611ea986519384611c28565b808352868084019160051b830101918a8311611c9d5787809101915b8383106120df5750505050855283810135868111611c9d5787611ee9918301611d42565b848601528281013590868211611c9d57019286601f85011215611c9d57833593611f1285611d2b565b94611f1f85519687611c28565b808652828087019160051b83010191898311611c9d57838101915b838310611fd85750505050505082015260c085015260e0830135818111611c9d5782611f67918501611ca2565b60e085015261010080840135828111611c9d5783611f86918601611ca2565b908501526101209182840135918211611c9d57611fa4918401611ca2565b90830152610140611fb6818301611de2565b908301526101608082013590830152611fd3610180809201611de2565b910152565b82358a8111611c9d578201808c03601f19018713611c9d57875190611ffc82611b72565b612007878201611dce565b8252888101358c8111611c9d578d8861202292840101611ca2565b8783015287810135908c8211611c9d57018c603f82011215611c9d578c8782013561204c81611d2b565b926120598c519485611c28565b8184528b8b8b86019302820101928311611c9d57918f9593918b8d8c979501975b83891061209757505050508394508a820152815201920191611f3a565b889496989192939597500312611c9d57898b918d8051906120b782611b72565b85358252838601358483015280860135908201528152019101949290918f928b8b969461207a565b8235815291810191889101611ec5565b81601f82011215611c9d57803590602061210883611d2b565b9360406121186040519687611c28565b848652828601918360a080970286010194818611611c9d578401925b858410612145575050505050505090565b8684830312611c9d57825190878201906001600160401b038211838310176121a05788928792865286358152828701358382015285870135868201526060808801359082015260808088013590820152815201930192612134565b60246000634e487b7160e01b81526041600452fd5b6060906003190112611c9d57600435906024359060443590565b8054821015611d155760005260206000209060011b0190600090565b9181601f84011215611c9d578235916001600160401b038311611c9d576020808501948460051b010111611c9d57565b9181601f84011215611c9d578235916001600160401b038311611c9d5760208381860195010111611c9d57565b919060c083820312611c9d576040519061226182611b41565b81938035835260208101356020840152604081013560408401526060810135606084015260808101359160018060401b0392838111611c9d57816122a6918401611ca2565b608085015260a0820135928311611c9d5760a092611fd39201611ca2565b600254811015611d1557600260005260206000200190600090565b600d54811015611d1557600d60005260206000200190600090565b9060209161231381518092818552858086019101611cc0565b601f01601f1916010190565b805115611d155760200190565b8051821015611d155760209160051b010190565b51908115158203611c9d57565b60808091805184526020810151602085015260408101516040850152606081015160608501520151910152565b94909181516040519087825284602083015260408201527fa264fed2aeca4c017f79af95a85d585564f8bcd0f423908892f3920e8b8e6c23608060018060a01b037f00000000000000000000000000000000000000000000000000000000000000001692836060820152a1604051926123f284611bc4565b6001845260005b602081106126a257506040519261240f84611ba8565b888452856020850152604084015285606084015286608084015260a083015260c082015260405161243f81611c0d565b6000815260e082015260006101008201526124598261231f565b526124638161231f565b506040519063d017d69960e01b82528160a4810160036004830152600460248301526005604483015287606483015260a06084830152825180915260c4820190602060c48260051b8501019401916000905b82821061254f575050505080602092038173__$1a0918a2aa2208593bb0a5d7644cd0946b$__5af490811561254357600091612509575b5015612500576124fb93613ed1565b600190565b50505050600090565b90506020813d60201161253b575b8161252460209383611c28565b81010312611c9d5761253590612340565b386124ec565b3d9150612517565b6040513d6000823e3d90fd5b919350919360c319868203018252845190610120808201835183526020840151602084015260408401519160408401528151809152602061014084019201906000905b808210612682575050506060830151908281036060840152602080835192838152019201906000905b80821061266a575050506080830151908281036080840152602080835192838152019201906000905b80821061264a575050508260209261010080612635612612879660a060019a015186820360a08801526122fa565b888060a01b0360c08701511660c086015260e086015185820360e08701526122fa565b930151910152960192019201859391926124b5565b909192602060a08261265f600194885161234d565b0194019201906125e4565b909192602080600192865181520194019201906125bb565b909192602060a082612697600194885161234d565b019401920190612592565b6020906040516126b181611ba8565b600081526000838201526060604082015260608082015260606080820152606060a0820152600060c0820152606060e08201526000610100820152828288010152016123f9565b9190820391821161270557565b634e487b7160e01b600052601160045260246000fd5b9190820180921161270557565b1561272f57565b60405162461bcd60e51b815260206004820152600560248201526410b0b2323960d91b6044820152606490fd5b92919261276882611d2b565b6040946127786040519283611c28565b81958483526020809301916060809602850194818611611c9d57925b8584106127a45750505050505050565b8684830312611c9d5784879184516127bb81611b72565b8635815282870135838201528587013586820152815201930192612794565b919091610160908181850312611c9d576040519182016001600160401b03811183821017611b5c57604052909283919081356001600160401b038111611c9d57820181601f82011215611c9d5780359061283382611d2b565b906128416040519283611c28565b8282526020820190602060069460061b82010190858211611c9d57602001915b818310612f6757505050845260208301356001600160401b038111611c9d57830182601f82011215611c9d578281602061289d9335910161275c565b602085015260408301356001600160401b038111611c9d5783019082601f83011215611c9d578135916128cf83611d2b565b926128dd6040519485611c28565b80845260208085019160051b83010191858311611c9d5760208101915b838310612e83575050505050604084015260608201356001600160401b038111611c9d57820181601f82011215611c9d5780359061293782611d2b565b916129456040519384611c28565b80835260208084019160051b83010191848311611c9d5760208101915b838310612e055750505050606084015260808201356001600160401b038111611c9d5781601f828501011215611c9d5780830135906129a082611d2b565b916129ae6040519384611c28565b808352602083018460208360051b858901010111611c9d57602083870101905b60208360051b85890101018210612c985750505050608084015260a08201356001600160401b038111611c9d57820181601f82011215611c9d578035612a1381611d2b565b91612a216040519384611c28565b81835260208084019260051b82010191848311611c9d5760208201905b838210612c6b575050505060a084015260c08201356001600160401b038111611c9d57820181601f82011215611c9d578035612a7981611d2b565b91612a876040519384611c28565b81835260208084019260051b82010191848311611c9d5760208201905b838210612c3e575050505060c084015260e08201356001600160401b038111611c9d57820181601f82011215611c9d578035612adf81611d2b565b91612aed6040519384611c28565b81835260208084019260071b82010190848211611c9d57602001915b818310612bf85750505060e0840152610100828101356001600160401b038111611c9d57830182601f82011215611c9d5782816020612b4a9335910161275c565b90840152610120828101356001600160401b038111611c9d57830182601f82011215611c9d57803590612b7c82611d2b565b93612b8a6040519586611c28565b82855260208086019360061b83010191818311611c9d57602001925b828410612bc0575050505083015261014080910135910152565b604084830312611c9d5760206040918251612bda81611bc4565b612be387611dce565b81528287013583820152815201930192612ba6565b608083860312611c9d576020608091604051612c1381611b8d565b8535815282860135838201526040860135604082015260608601356060820152815201920191612b09565b81356001600160401b038111611c9d57602091612c6088848094880101611def565b815201910190612aa4565b81356001600160401b038111611c9d57602091612c8d88848094880101612248565b815201910190612a3e565b8135906001600160401b038211611c9d5761012080601f1984888c01018a030112611c9d5760405191612cca83611ba8565b89870184016020818101358552604082013590850152606001356001600160401b038111611c9d57896020612d0592878b8f010101016120ef565b60408401528987018401608001356001600160401b038111611c9d57896020612d3492878b8f01010101611d42565b60608401526001600160401b038a8801850160a0013511611c9d57612d6689888c01860160a0810135016020016120ef565b608084015260c0878b01850181013593906001600160401b038511611c9d57612d9a8b60208b978f898b9101010101611ca2565b60a0830152612db18c8760e0978892010101611dce565b90820152610100888c018601810135936001600160401b038511611c9d57868a8e602099988f612dec908c809c9b819c878701010101611ca2565b90870152010101359082015281520192019190506129ce565b82356001600160401b038111611c9d5782019060809081601f19848a030112611c9d5760405191612e3583611b8d565b6020840135835260408401356020840152606084013560408401528301359160018060401b038311611c9d57612e7389602080969581960101611ca2565b6060820152815201920191612962565b82356001600160401b038111611c9d57820160609081601f19828b030112611c9d5760405191612eb283611b72565b6020828101358452604083013590840152810135906001600160401b038211611c9d570188603f82011215611c9d576020810135612eef81611d2b565b91612efd6040519384611c28565b818352604060208401928a1b820101908b8211611c9d57604001915b818310612f365750505060408201528152602092830192016128fa565b6040838d0312611c9d5760206040918251612f5081611bc4565b853581528286013583820152815201920191612f19565b604083870312611c9d5760206040918251612f8181611bc4565b853581528286013583820152815201920191612861565b90604051916392cf61e560e01b8352600483015260608260248173__$1a0918a2aa2208593bb0a5d7644cd0946b$__5af490811561254357600080938193612fe1575b50929190565b925092506060823d606011613047575b81612ffe60609383611c28565b810103126102815781516001600160a01b03811681036103fd576020830151926001600160601b0384168403610b1857604001519360ff8516850361043c575091929138612fdb565b3d9150612ff1565b90815180825260208080930193019160005b82811061306f575050505090565b835185529381019392810192600101613061565b929493919060a09060a08501906004865260209081870152604060a06040880152845180935260c09060c08801908360c08660051b8b01019701956000935b8a8786106130ea575050505050505050509060809194606084015260018060a01b0316910152565b958061314d81999a9b600194959697989960bf199082030189528c51908151815283820151848201528882015189820152606080830151908201528761313d6080898186015191850152898401906122fa565b92015190888184039101526122fa565b9a0195019501939695949291906130c2565b908060209392818452848401376000828201840152601f01601f1916010190565b600b54901515908160ff82161515146131cd5760ff191660ff821617600b556040519081527fb5838f871ddee4623a406029b1a0b6013e0ec30f2dc114307f21459a800a829690602090a1565b5050565b90808210156131f557604051916020830152604082015260408152611cbd81611b72565b90604051916020830152604082015260408152611cbd81611b72565b600d54600160401b811015611b5c578060016132309201600d556122df565b819291549060031b91821b91600019901b1916179055565b90602090818352805191613268606093606083870152608086019061304f565b9181810151601f19906132876040958692848a830301848b015261304f565b92015195606082828503019101528551938483528383019184808760051b8601019801966000916000955b8887106132c6575050505050505050505090565b9091929394959697989982828203018752888b5160018060a01b038151168352876132fc838301518885870152888601906122fa565b910151928881830391015281808451928381520193019087905b8781831061333a5750505050806001929c01970197019598979694939291906132b2565b83958b6001949693955180518352848101518584015201518c82015201940192018b9291613316565b61336e8251826131d1565b61018083015115613bc4576040805190825160209081850190613392818684611cc0565b8401938281600496878152030190205415613bb55761012087019081515115613b5e578591856133ce8580948851809381928951928391611cc0565b8101848152030190205461349160c08c01518851613401816133f38982019485613248565b03601f198101835282611c28565b519020918c610100958682015188815191012090519151946134708c519a8b998a9963bba8d94760e01b8b5260018060a01b037f000000000000000000000000000000000000000000000000000000000000000016908b01523060248b015260448a01526101048901906122fa565b936064880152608487015260a48601526003198583030160c48601526122fa565b9060e4830152038173__$1a0918a2aa2208593bb0a5d7644cd0946b$__5af4918215613b5357600092613b1d575b505015613b10575050600261350b60206000935b604051908560018251938581818601966134ee81838a611cc0565b810160048152030190200155604051938492839251928391611cc0565b810160048152030190200155815160c08301519260e08101516101008201519460208101515181515103613afe57838510958615613af85785945b8715613af057925b8715613ae95780975b15613ae15750935b61356983826131d1565b906020830151519761357a89611d2b565b986135886040519a8b611c28565b808a5261359481611d2b565b601f19013660208c01378960005b828110613a795750508151159050613a6257806020806135c7935183010191016159eb565b955b805115613a4357806020806135e3935183010191016159eb565b9298939694909591965b6000995b604081015180518c1015613875578b6136099161232c565b51608081905280516020909101518551909a916001600160a01b0316908d101561385d578c8c613639828961232c565b51915b89518110156138475761364f908a61232c565b515b604051630c6191f960e11b8152608060048201529d8e93849361367890608486019061304f565b916003199283868203016024870152613690916122fa565b828582030160448601526136a3916122fa565b908382030160648401526136b6916122fa565b03815a6000948591f1998a156125435760009a61379c575b5060005b60406080510151805182101561378c578b6137096136ff8f93856136f59161232c565b519283519061232c565b519282519061232c565b51600081128382810312811690848381031390151617612705576000818403138061377d575b61374f576000818403129283613761575b50505061374f576001016136d2565b604051633485c51360e21b8152600490fd5b6020929350906137719103615abc565b91015110388080613740565b5060408201518184031161372f565b50506001909b019a9899506135f1565b9099503d90816000823e6137b08282611c28565b6020818381010312611c9d578051916001600160401b038311611c9d57808201601f848401011215611c9d5782820151916137ea83611d2b565b936137f86040519586611c28565b8385526020850192820160208560051b838501010111611c9d57602081830101925b60208560051b8385010101841061383757505050505098386136ce565b835181526020938401930161381a565b5060405161385481611c0d565b60008152613651565b8c8c60405161386b81611c0d565b600081529161363c565b5098959493509850905060005b602088015180518210156139ad5781600060018a8a8e8b6138ca60206138b5896138ae839d8a9d61232c565b519461232c565b51958160405193828580945193849201611cc0565b810160058152030190208187528952604086209384549087811315881461393757816138fb92613926575b50615abc565b9182613914575b505050505b8281550155019050613882565b61391d936163dc565b8a388f80613902565b613931908486616249565b386138f5565b81811015881461398b5782939482613957948161397a575b5050506126f8565b908d82613968575b50505050613907565b613971936163dc565b8d38808d61395f565b61398392616249565b8f828561394f565b6139a29161399d82856139a898616249565b6126f8565b91616249565b613907565b505095509550926139d09250602091508160405193828580945193849201611cc0565b810160048152030190206139e48154614082565b90558151907f6d46d52b5fda2a9055705ba74bf5e95807cfa39decf819cdfeaa14f9b2ba346a604060608501519460c060a08201519101518251613a30816133f3602082019485613248565b51902082519182526020820152a4600190565b50604051613a5081611c0d565b600081529298939694909591966135ed565b50604051613a6f81611c0d565b60008152956135c9565b80613a8a60019260208a015161232c565b5160405160208181613aa28c83815193849201611cc0565b8101600581520301902090600052602052613ad08260406000200154613ac9838b5161232c565b51906159cf565b613ada828561232c565b52016135a2565b90509361355f565b8197613557565b50859261354e565b84613546565b6040516329be7c4760e11b8152600490fd5b51631bd18a1960e31b8152fd5b90809250813d8311613b4c575b613b348183611c28565b81010312611c9d57613b4590612340565b38806134bf565b503d613b2a565b83513d6000823e3d90fd5b835162461bcd60e51b8152808601849052602b60248201527f5369676e617475726520726571756972656420666f7220636f6f70657261746960448201526a76652066696e616c697a6560a81b6064820152608490fd5b5050516388d0662b60e01b8152fd5b604080519082516020600181860192613bde818786611cc0565b8501948281600497888152030190200154908115613ec15773__$1a0918a2aa2208593bb0a5d7644cd0946b$__888783820151956060830195865190866101408601998c8c8c51151597848251809251613c3981838d611cc0565b810185815203019020600201549760a08a0198895191610100809c0151935198899687966303d0627d60e41b8852870152602486015260448501526064840152608483015260a4820160c0905260c48201613c93916122fa565b0381895af4918215613eb657600092613e87575b5003613e7757878c8b9594938b9361012083019a8b51511515600014613de35750505091613470959391613d598460c08a989601518351613cef816133f38c82019485613248565b519020908381015191608082019d8e519051925195519b8c9a8b998a996369f7fb6360e11b8b5260018060a01b037f000000000000000000000000000000000000000000000000000000000000000016908b01523060248b015260448a01526101048901906122fa565b9060e483015203915af4918215613dd857600092613da2575b505015613d935751905111156107f0575050600261350b60206000936134d3565b505051631bd18a1960e31b8152fd5b90809250813d8311613dd1575b613db98183611c28565b81010312611c9d57613dca90612340565b3880613d72565b503d613daf565b85513d6000823e3d90fd5b965097995097505050505084915051151589518910149182613e4a575b5050613e3b5751906133f3613e2260c089015192855192839182019485613248565b519020036107f0575050600261350b60206000936134d3565b505051633485c51360e21b8152fd5b6002925090613e63918651809381928b51928391611cc0565b810188815203019020015443108238613e00565b8751630cba69cb60e01b81528990fd5b9091508681813d8311613eaf575b613e9f8183611c28565b81010312611c9d57519038613ca7565b503d613e95565b8a513d6000823e3d90fd5b505050516388d0662b60e01b8152fd5b9391909160005b8251811015613f0a5780613f04613ef16001938661232c565b51613efd81888b615acd565b8887615acd565b01613ed8565b5092905060005b815181101561407b57613f24818361232c565b5190602080830190815186898214159182614070575b505061405357835186898214159182614065575b50506140535781518451148015614047575b61374f576080840191428351111561374f57845160005260108252604094856000209582519481830194855193606080820198895191855190875192613fa584611b8d565b835285830198895287830193845282019081528c54600160401b811015611b5c57613fd79060019e8f82018155611cf9565b9390936140315760019d7fbfd7274449bb908ddf203ddf1c94d588d62b66048e4a9b4b0bc4835067b0353699600394518655519085015551600284015551910155519451955196519151908351928352820152a401613f11565b634e487b7160e01b600052600060045260246000fd5b50606084015115613f60565b604051633c4117f160e21b8152600490fd5b141590508638613f4e565b141590508638613f3a565b5050509050565b60001981146127055760010190565b906140315760018160008093550155565b600081815260209060088252604091828220858352815282822093845495861561437c57818452600983528484208185528352848420549787891015614373575b82855260038452858520828652845285852054908598821561434d5798995b89811080614344575b8061433a575b156142c557614120818a6121cf565b506001908181019182549182156142af575492828710156142a957865b8c8c8a8d84614269575b505050505082151580614261575b614238575b6141658382546126f8565b928061420357508a905583018084116141ef576141d392886000805160206164c483398151915260606141d997958f958f968f978e988251948552840152820152a4868952600a88528989208054806141e2575b50506141ce6141c8828d6121cf565b90614091565b614082565b9a614082565b985b9899614102565b60001901905538806141b9565b634e487b7160e01b8a52601160045260248afd5b859f949250606089946141d9978f848f8f97966000805160206164c483398151915297558251948552840152820152a4614082565b6142448389868c615d82565b61424e81856126f8565b614259575b5061415a565b925038614253565b508615614155565b928261429e96989c92614298958b88965260038152838320918352522061429183825461271b565b90556126f8565b976126f8565b91388c8c8a8d614147565b8261413d565b505050506142bf909a999a614082565b996141db565b93985098509092955086845260038652848420838552865284842055858352600985528383208284528552838320556142fe8186615c03565b8482526008845282822081835284528282209384541561433157611cbd9583526009815283832091835252205490615d2c565b50509250505090565b5060648b10614111565b5082151561410b565b509892975050919450858352600985528383208284528552838320556142fe8186615c03565b975083976140e3565b9280965080955052600981528284209184525281205590565b600081815260209060088252604091828220858352815282822093845495861561437c5781845260098352848420818552835284842054978789101561458c575b82855260038452858520828652845285852054908598821561434d5798995b89811080614583575b80614578575b156142c557614413818a6121cf565b506001908181019182549182156145625754928287101561455c57865b8c8c8a8d84614529575b505050505082151580614521575b6144f8575b6144588382546126f8565b92806144c357508a905583018084116141ef576141d392886000805160206164c483398151915260606144ba97958f958f968f978e988251948552840152820152a4868952600a88528989208054806141e25750506141ce6141c8828d6121cf565b985b98996143f5565b859f949250606089946144ba978f848f8f97966000805160206164c483398151915297558251948552840152820152a4614082565b6145048389868c615d82565b61450e81856126f8565b614519575b5061444d565b925038614513565b508615614448565b928261455196989c92614298958b88965260038152838320918352522061429183825461271b565b91388c8c8a8d61443a565b82614430565b50505050614572909a999a614082565b996144bc565b506103e88b10614404565b508215156143fe565b975083976143d6565b600081815260209060088252604091828220858352815282822093845495861561437c5781845260098352848420818552835284842054978789101561478b575b82855260038452858520828652845285852054908598821561434d5798995b89811080614782575b80614778575b156142c557614613818a6121cf565b506001908181019182549182156147625754928287101561475c57865b8c8c8a8d84614729575b505050505082151580614721575b6146f8575b6146588382546126f8565b92806146c357508a905583018084116141ef576141d392886000805160206164c483398151915260606146ba97958f958f968f978e988251948552840152820152a4868952600a88528989208054806141e25750506141ce6141c8828d6121cf565b985b98996145f5565b859f949250606089946146ba978f848f8f97966000805160206164c483398151915297558251948552840152820152a4614082565b6147048389868c615d82565b61470e81856126f8565b614719575b5061464d565b925038614713565b508615614648565b928261475196989c92614298958b88965260038152838320918352522061429183825461271b565b91388c8c8a8d61463a565b82614630565b50505050614772909a999a614082565b996146bc565b5060648b10614604565b508215156145fe565b975083976145d6565b600081815260209060088252604091828220858352815282822093845495861561437c5781845260098352848420818552835284842054978789101561498a575b82855260038452858520828652845285852054908598821561434d5798995b89811080614981575b80614977575b156142c557614812818a6121cf565b506001908181019182549182156149615754928287101561495b57865b8c8c8a8d84614928575b505050505082151580614920575b6148f7575b6148578382546126f8565b92806148c257508a905583018084116141ef576141d392886000805160206164c483398151915260606148b997958f958f968f978e988251948552840152820152a4868952600a88528989208054806141e25750506141ce6141c8828d6121cf565b985b98996147f4565b859f949250606089946148b9978f848f8f97966000805160206164c483398151915297558251948552840152820152a4614082565b6149038389868c615d82565b61490d81856126f8565b614918575b5061484c565b925038614912565b508615614847565b928261495096989c92614298958b88965260038152838320918352522061429183825461271b565b91388c8c8a8d614839565b8261482f565b50505050614971909a999a614082565b996148bb565b5060648b10614803565b508215156147fd565b975083976147d5565b9061499d82611d2b565b6149aa6040519182611c28565b82815280926149bb601f1991611d2b565b0190602036910137565b9190916149d3835151614993565b6149de845151614993565b936149ea815151614993565b92600080915b83518051841015614ad85783614a059161232c565b5151926020938985614a1884895161232c565b510151956000925b868410614aaf575b89878514614a60575b50505050614a57614a506001949596614a4a848c61232c565b5161271b565b918961232c565b520191906149f0565b96614a5793614a9e82614a509585614aa496614a7f8460019e9f61232c565b528c60005260038252604091826000209160005252600020549261232c565b52614082565b95948c925089614a31565b92909183614abd838c61232c565b5114614ad0575060010191908b91614a20565b919092614a28565b5094939150959460005b87811061562f575060016000815b6155dc575b506000815b6154ba575b507f00000000000000000000000000000000000000000000000000000000000000006001600160a01b03169760005b6060808701518051831015614c3d5790614b49838d9361232c565b51906040918b8351809581926328a3f8a760e11b83526004600381850152602484015260056044840152606483015260c06084830152835160c4830152614bb660209585878097015160e486015288810151610104860152015160806101248501526101448401906122fa565b9060a4830152038173__$1a0918a2aa2208593bb0a5d7644cd0946b$__5af4918215614c335750600091614bff575b50905015614bf6575b600101614b2e565b60009250614bee565b82813d8311614c2c575b614c138183611c28565b8101031261043c5750614c2590612340565b8038614be5565b503d614c09565b513d6000823e3d90fd5b505050939094919597509591956080810151805161523b575b508760a0820151805161517a575b505060005b6101208201518051821015614d475781614c829161232c565b5180516001600160a01b03161561374f578051602091820180519092916001600160a01b0316803b15611c9d5760008091602460409485519485938492636030754560e01b845260048401525af18015614d3c579260019594927f47172349c05bf58f7f6a376def3bbc250cd3295a7eead0290d8fa3531c6ca9fb928f95614d2d575b5083518151838101918252838152614d1c81611bc4565b51902093519051908152a301614c69565b614d3690611bdf565b38614d05565b82513d6000823e3d90fd5b505091939590929460005b60c08401518051821015614d8b57614d6d82614d749261232c565b518a613363565b15614d82575b600101614d52565b60009750614d7a565b505091939590929460005b60408601518051821015614dcf57614db182614db89261232c565b518a615f81565b15614dc6575b600101614d96565b60009250614dbe565b505091939590929460005b61010088015180518210156150935781614df39161232c565b5190614e0360208301518b614794565b50614e1461138760208401516122df565b8c600095939295526003602052604060002060208401516000526020526040600020546040840151116150815760ff908d604085015190600052600360205260406000206020860151600052602052614e7360406000209182546126f8565b90558d602085015190806000526003602052604060002060208701516000526020526000805160206164e48339815191526020604060002054604051908152a3169384614f6b57506000919293506020906044604060018060a01b03865116950151604051948593849263a9059cbb60e01b845260049889850152602484015260018060a01b03165af190811561254357600091614f31575b5015614f2257506001610100915b019050614dda565b604051632fd8225d60e21b8152fd5b906020823d602011614f63575b81614f4b60209383611c28565b8101031261043c5750614f5d90612340565b38614f0c565b3d9150614f3e565b919360018103614feb575092516001600160a01b039384169316833b15611c9d576040516323b872dd60e01b8152936000928592839185918391614fbf916001600160601b039091169030600485016156ae565b03925af19081156125435761010092600192614fdc575b50614f1a565b614fe590611bdf565b38614fd6565b600214615002575b50506101009150600190614f1a565b83516040909401516001600160a01b0394851694909116803b15611c9d57604051637921219560e11b81529460009386938492869284926150539290916001600160601b031690306004860161567a565b03925af19081156125435761010092600192615072575b819250614ff3565b61507b90611bdf565b3861506a565b604051632fd8225d60e21b8152600490fd5b505091949092955095929560005b8581106150b15750505050505090565b6150bb818361232c565b516150db6150c9838761232c565b516150d4848761232c565b519061271b565b908660005260036020908082526040938460002084600052835284600020541061516957615109858861232c565b51896000528183528460002084600052835261512a856000209182546126f8565b9055886000528152826000209160005252806000205461514a838761232c565b511161515957506001016150a1565b51632fd8225d60e21b8152600490fd5b8351632fd8225d60e21b8152600490fd5b6006546040516312f6ab5960e31b815292602092849283926151c2927f0000000000000000000000000000000000000000000000000000000000000000929160048601613083565b038173__$1a0918a2aa2208593bb0a5d7644cd0946b$__5af490811561254357600091615201575b50156151f8575b8738614c64565b600094506151f1565b90506020813d602011615233575b8161521c60209383611c28565b81010312611c9d5761522d90612340565b386151ea565b3d915061520f565b6040989694929795939198519063d017d69960e01b825260036004830152600460248301526005604483015287606483015260a060848301528181518060a483015260c4820190602060c48260051b8501019401916000905b828210615364575050505080602092038173__$1a0918a2aa2208593bb0a5d7644cd0946b$__5af49081156125435760009161532a575b5015615321575b60005b60808901518051821015615312579061530c6152f38260019461232c565b5180519060208101516080606083015192015192613ed1565b016152d5565b50509193959092949638614c56565b600092506152d2565b90506020813d60201161535c575b8161534560209383611c28565b81010312611c9d5761535690612340565b386152cb565b3d9150615338565b919350919360c319868203018252845190610120808201835183526020840151602084015260408401519160408401528151809152602061014084019201906000905b80821061549a57505050606090818401519183820390840152602080835192838152019201906000905b808210615482575050506080830151908281036080840152602080835192838152019201906000905b8082106154625750505082602092615448615424859460a0600198015184820360a08601526122fa565b60c0878060a01b0381860151169084015260e08085015190848303908501526122fa565b916101008091015191015296019201920185939192615294565b909192602060a082615477600194885161234d565b0194019201906153fa565b909192602080600192865181520194019201906153d1565b909192602060a0826154af600194885161234d565b0194019201906153a7565b60209897988086015180518310156155d257826154d69161232c565b5190808201906154e782518b614794565b5089600052600392838252604090818101826000208551600052845282600020548151116155c157928796949281928e868a99975182600052888652846000208851600052865261553d856000209182546126f8565b905551825160005287855283600020875160005285526155628460002091825461271b565b9055855190806000528785528360002087516000528552836000205484519081526000805160206164e4833981519152968791a35193805195856000528352816000209051600052825280600020549051908152a30190989798614afa565b8251632fd8225d60e21b8152600490fd5b5050979697614aff565b60e0859998990151805182101561562657816155f79161232c565b5180511561561e575b8781510361374f57829161561483926156d0565b0190989798614af0565b878152615600565b50979697614af5565b8061563f600192879a999a61232c565b518760005261566f602060038152604090816000209061565f868a61232c565b516000525260002091825461271b565b905501969596614ae2565b929060c0949260018060a01b0380921685521660208401526040830152606082015260a06080820152600060a08201520190565b6001600160a01b03918216815291166020820152604081019190915260600190565b90815160009080156000146159ca5750335b60608401918251156159b857604090818601938451801560001461599657506020870180518352600e6020528383205480875215615953575b5081615734949596975b60ff6020968780930151612f98565b91929091168061581657505061576390845187519485809481936323b872dd60e01b83523033600485016156ae565b03926001600160a01b03165af190811561580c5783916157d7575b50156155c1579180916000805160206164e483398151915294935b51868252600385528282208851835285526157b883832091825461271b565b90558651968682526003855282822090518252845220549051908152a3565b90508481813d8311615805575b6157ee8183611c28565b81010312610281576157ff90612340565b3861577e565b503d6157e4565b84513d85823e3d90fd5b909350909150600181036158a757506001600160a01b031690813b156103fd5784516323b872dd60e01b8152918491839190829084908290615866906001600160601b03163033600485016156ae565b03925af1801561580c57615893575b509180918360016000805160206164e4833981519152969552615799565b61589d8391611bdf565b61021f5738615875565b92959493926002146158cd575b505081906000805160206164e483398151915294615799565b60018060a0979596971b0316835191813b156103fd578551637921219560e11b81529284928492909183918591839161591591906001600160601b031630336004860161567a565b03925af180156103f357918493916000805160206164e4833981519152969593615944575b50918195506158b4565b61594d90611bdf565b3861593a565b61595d8151613211565b600d5460001981019190821161598257818752518352600e602052838320558161571b565b634e487b7160e01b84526011600452602484fd5b615734949596976159a784926122df565b90549060031b1c6020820152615725565b60405163440a57bf60e01b8152600490fd5b6156e2565b9190916000838201938412911290801582169115161761270557565b6020908181840312611c9d5780516001600160401b0391828211611c9d57019083601f83011215611c9d578151615a2181611d2b565b94604092615a326040519788611c28565b828752858088019360051b86010194828611611c9d57868101935b868510615a5f57505050505050505090565b8451838111611c9d5782019084603f83011215611c9d578882015190615a8482611c4b565b615a9089519182611c28565b82815286898486010111611c9d57615ab18b949385948b8685019101611cc0565b815201940193615a4d565b600160ff1b81146127055760000390565b929190926000938185526020906009825260409586812085825283528681205492848252600881528782208683528152878220918254945b858110615b1f57505050505050615b1d929350615c03565b565b8085615b2c8c93876121cf565b50541480615bec575b615b44575b6001915001615b05565b888689615b5184896121cf565b508660018092015491615b64878c6121cf565b500155818752600a8852858720805480158015615ba5575b505050856000805160206165248339815191529160019751908152868a820152a48a9150615b3a565b935093509350939450615bd8576000190190558a9190899087908a90856000805160206165248339815191526001615b7c565b634e487b7160e01b85526011600452602485fd5b506001615bf982876121cf565b5001541515615b35565b9060008281526020916008835260409081832081845284528183209485548015615d1557818552600986528385208386528652838520549681881015615d0c575b965b81811080615cf6575b15615c6257615c5d90614082565b615c46565b91929394959650811015600014615ce2575080845260098552828420828552855283838120558352600884528183209083528352812080549282825583615caa575b50505050565b6001916001600160ff1b038516850361598257835282209260011b8301925b83811015615ca457808360029255838382015501615cc9565b908452600985528284209184529352902055565b506001615d03828a6121cf565b50015415615c4f565b96508496615c44565b508352600984528183209083529092529081205550565b919060009280549182811015615d79575b828110615d4957505050565b6001615d5582846121cf565b500154615d65575b600101615d3d565b93615d71600191614082565b949050615d5d565b50600093505050565b91839260009581875260209260108452604091828920908154988915615f745750600c8652838a20549788905b8a821080615f6b575b15615f4b57615dc78285611cf9565b50998a918d8760018095015414801590615f3e575b8015615f32575b615f24578a8d91825480825260038093528d8c8320908c84525260028c832054940193845490808210600014615f1c5750955b858711615f13575b8615615f0057508f8f968f92968f968f958f80859b917f4f02c680c56246ffd693c94e5f46c036a01b12950c88219159645a302816307b9a6000805160206164e48339815191528a8c87615eb69c8c98615eab9a528584528282208783528452828220615e8c8a82546126f8565b905554948582528352818120868252835220548d51908152a38c616249565b6142918382546126f8565b9f615ec5868d835490886162a6565b5054948251918c8352820152a48101808211615eec57615ee59091614082565b9098615daf565b634e487b7160e01b8c52601160045260248cfd5b979550505050509a50615ee59150614082565b95508495615e1e565b905095615e16565b509a5091615ee59150614082565b5060028d015415615de3565b5060038d01544211615ddc565b9a969497505097505050600c918352522080548211615f68575050565b55565b50801515615db8565b9950975050505050505050565b91909182516020918285015192615f988383614794565b5060005b60408088018051805184101561623b57615fc484615fbb81889461232c565b5151935161232c565b51015190615fd281896131d1565b918660005260039283875284600020896000528752818560002054101560001461622b578661600d9181875193828580945193849201611cc0565b8101600581520301902088600052865283600020918760005283875284600020896000528752846000206160428382546126f8565b905561604f82845461271b565b90818455808b109283616214575b50821561620d578a925b156162015794929190925b80519461607e86611bc4565b6001928387528960005b8181106161ad57505080600052818a52826000208c6000528a52826000205491886000528a52826000208c6000528a52838360002054950154978351916160ce83611bf2565b82528a8201528b83820152606091828201526080948582015260a0958682015260c097888201526160fe8761231f565b526161088661231f565b50815196898801928a895287518094528a818a019801966000965b8c868910616165575050505050505050505081600193927f11e95b31ceefa95a59034392a3de4f79c9fe7d7e441d3746a1f82e64f7a32bcc920390a101615f9c565b895180518c5281810151828d015284810151858d015286810151878d015282810151838d015283810151848d0152850151858c015260e0909a01999098019796860196616123565b8499939497959697516161bf81611bf2565b6000815260008382015260008b8201526000606082015260006080820152600060a0820152600060c082015282828b010152018a909893929896959496616088565b50899492919092616072565b8092616067565b616223600186019182546159cf565b90553861605d565b5060009a50505050505050505050565b506001985050505050505050565b909180156162a157602060406000805160206164e48339815191529260009085825260038452828220878352845261628583832091825461271b565b90558481526003835281812086825283522054604051908152a3565b505050565b939293919091811561374f5784156159b8576000948186526020906008825260409182882086895281528288208351906162df82611bc4565b86825282820184815281549091600160401b8210156163c85790616308916001820181556121cf565b9290926163b45751825551600190910155838852600881528288208689528152828820546000198101919082116163a057908392917fae767eeb0c57abd46e2e0b422895ba3b89372fbd0510a58f00d996faf66f027d94829a8315616387575b878152600a83522061637a8154614082565b90558351928352820152a4565b878152600983528181208a825283528082812055616368565b634e487b7160e01b89526011600452602489fd5b634e487b7160e01b8b5260048b905260248bfd5b634e487b7160e01b8c52604160045260248cfd5b90928015615ca45761642590600090838252848460209360038552604094858220848352815285822054858110156000146164bd575084955b86616461575b50505050506126f8565b8015615ca45761643790838584615d82565b92836164435750505050565b616458936164529184846162a6565b50615c03565b38808080615ca4565b8083856000805160206164e4833981519152955260038452818120878252845281812061648f8a82546126f8565b905585815260038452818120878252845220549051908152a36164b3828688616249565b848438808061641b565b9561641556fe1ffe8e6348fe244a8988797c02b57999821149e7b25c9f93a85c77819efdde67ab4d21442efe134c3d0c087e2b687e9593a1c09176f498d37873210cde052c45990f4c22d4b046a9a7d673c4a252b906cadd4f3290465e297f998c28a449652b0971ac81b80f99fe0089c3fbe4af4fa1148f2ce78bc6345e76b05be73500de1fa264697066735822122043e1ed7c00ca8786269cf20c1c4eaa91f39ec5fada0902f5611cadfa5d4c2c4d64736f6c63430008180033",
  "linkReferences": {
    "contracts/Account.sol": {
      "Account": [
        {
          "length": 20,
          "start": 1460
        },
        {
          "length": 20,
          "start": 2909
        },
        {
          "length": 20,
          "start": 3655
        },
        {
          "length": 20,
          "start": 4676
        },
        {
          "length": 20,
          "start": 10042
        },
        {
          "length": 20,
          "start": 12838
        },
        {
          "length": 20,
          "start": 14093
        },
        {
          "length": 20,
          "start": 15978
        },
        {
          "length": 20,
          "start": 20018
        },
        {
          "length": 20,
          "start": 21560
        },
        {
          "length": 20,
          "start": 21785
        }
      ]
    }
  },
  "deployedLinkReferences": {
    "contracts/Account.sol": {
      "Account": [
        {
          "length": 20,
          "start": 834
        },
        {
          "length": 20,
          "start": 2283
        },
        {
          "length": 20,
          "start": 3029
        },
        {
          "length": 20,
          "start": 4050
        },
        {
          "length": 20,
          "start": 9416
        },
        {
          "length": 20,
          "start": 12212
        },
        {
          "length": 20,
          "start": 13467
        },
        {
          "length": 20,
          "start": 15352
        },
        {
          "length": 20,
          "start": 19392
        },
        {
          "length": 20,
          "start": 20934
        },
        {
          "length": 20,
          "start": 21159
        }
      ]
    }
  }
}