{
  "_format": "hh-sol-artifact-1",
  "contractName": "Depository",
  "sourceName": "contracts/Depository.sol",
  "abi": [
    {
      "inputs": [
        {
          "internalType": "address",
          "name": "_entityProvider",
          "type": "address"
        }
      ],
      "stateMutability": "nonpayable",
      "type": "constructor"
    },
    {
      "inputs": [],
      "name": "E0",
      "type": "error"
    },
    {
      "inputs": [],
      "name": "E1",
      "type": "error"
    },
    {
      "inputs": [],
      "name": "E10",
      "type": "error"
    },
    {
      "inputs": [],
      "name": "E2",
      "type": "error"
    },
    {
      "inputs": [],
      "name": "E3",
      "type": "error"
    },
    {
      "inputs": [],
      "name": "E4",
      "type": "error"
    },
    {
      "inputs": [],
      "name": "E5",
      "type": "error"
    },
    {
      "inputs": [],
      "name": "E6",
      "type": "error"
    },
    {
      "inputs": [],
      "name": "E7",
      "type": "error"
    },
    {
      "inputs": [],
      "name": "E8",
      "type": "error"
    },
    {
      "inputs": [],
      "name": "E9",
      "type": "error"
    },
    {
      "anonymous": false,
      "inputs": [
        {
          "components": [
            {
              "internalType": "bytes32",
              "name": "left",
              "type": "bytes32"
            },
            {
              "internalType": "bytes32",
              "name": "right",
              "type": "bytes32"
            },
            {
              "components": [
                {
                  "internalType": "uint256",
                  "name": "tokenId",
                  "type": "uint256"
                },
                {
                  "internalType": "uint256",
                  "name": "leftReserve",
                  "type": "uint256"
                },
                {
                  "internalType": "uint256",
                  "name": "rightReserve",
                  "type": "uint256"
                },
                {
                  "internalType": "uint256",
                  "name": "collateral",
                  "type": "uint256"
                },
                {
                  "internalType": "int256",
                  "name": "ondelta",
                  "type": "int256"
                }
              ],
              "internalType": "struct TokenSettlement[]",
              "name": "tokens",
              "type": "tuple[]"
            },
            {
              "internalType": "uint256",
              "name": "nonce",
              "type": "uint256"
            }
          ],
          "indexed": false,
          "internalType": "struct AccountSettlement[]",
          "name": "settled",
          "type": "tuple[]"
        }
      ],
      "name": "AccountSettled",
      "type": "event"
    },
    {
      "anonymous": false,
      "inputs": [
        {
          "indexed": true,
          "internalType": "bytes32",
          "name": "sender",
          "type": "bytes32"
        },
        {
          "indexed": true,
          "internalType": "bytes32",
          "name": "counterentity",
          "type": "bytes32"
        },
        {
          "indexed": true,
          "internalType": "uint256",
          "name": "nonce",
          "type": "uint256"
        }
      ],
      "name": "CooperativeClose",
      "type": "event"
    },
    {
      "anonymous": false,
      "inputs": [
        {
          "indexed": true,
          "internalType": "bytes32",
          "name": "debtor",
          "type": "bytes32"
        },
        {
          "indexed": true,
          "internalType": "bytes32",
          "name": "creditor",
          "type": "bytes32"
        },
        {
          "indexed": true,
          "internalType": "uint256",
          "name": "tokenId",
          "type": "uint256"
        },
        {
          "indexed": false,
          "internalType": "uint256",
          "name": "amount",
          "type": "uint256"
        },
        {
          "indexed": false,
          "internalType": "uint256",
          "name": "debtIndex",
          "type": "uint256"
        }
      ],
      "name": "DebtCreated",
      "type": "event"
    },
    {
      "anonymous": false,
      "inputs": [
        {
          "indexed": true,
          "internalType": "bytes32",
          "name": "debtor",
          "type": "bytes32"
        },
        {
          "indexed": true,
          "internalType": "bytes32",
          "name": "creditor",
          "type": "bytes32"
        },
        {
          "indexed": true,
          "internalType": "uint256",
          "name": "tokenId",
          "type": "uint256"
        },
        {
          "indexed": false,
          "internalType": "uint256",
          "name": "amountPaid",
          "type": "uint256"
        },
        {
          "indexed": false,
          "internalType": "uint256",
          "name": "remainingAmount",
          "type": "uint256"
        },
        {
          "indexed": false,
          "internalType": "uint256",
          "name": "newDebtIndex",
          "type": "uint256"
        }
      ],
      "name": "DebtEnforced",
      "type": "event"
    },
    {
      "anonymous": false,
      "inputs": [
        {
          "indexed": true,
          "internalType": "bytes32",
          "name": "debtor",
          "type": "bytes32"
        },
        {
          "indexed": true,
          "internalType": "bytes32",
          "name": "creditor",
          "type": "bytes32"
        },
        {
          "indexed": true,
          "internalType": "uint256",
          "name": "tokenId",
          "type": "uint256"
        },
        {
          "indexed": false,
          "internalType": "uint256",
          "name": "amountForgiven",
          "type": "uint256"
        },
        {
          "indexed": false,
          "internalType": "uint256",
          "name": "debtIndex",
          "type": "uint256"
        }
      ],
      "name": "DebtForgiven",
      "type": "event"
    },
    {
      "anonymous": false,
      "inputs": [
        {
          "indexed": true,
          "internalType": "bytes32",
          "name": "sender",
          "type": "bytes32"
        },
        {
          "indexed": true,
          "internalType": "bytes32",
          "name": "counterentity",
          "type": "bytes32"
        },
        {
          "indexed": true,
          "internalType": "uint256",
          "name": "nonce",
          "type": "uint256"
        },
        {
          "indexed": false,
          "internalType": "bytes32",
          "name": "initialProofbodyHash",
          "type": "bytes32"
        },
        {
          "indexed": false,
          "internalType": "bytes32",
          "name": "finalProofbodyHash",
          "type": "bytes32"
        }
      ],
      "name": "DisputeFinalized",
      "type": "event"
    },
    {
      "anonymous": false,
      "inputs": [
        {
          "indexed": true,
          "internalType": "bytes32",
          "name": "sender",
          "type": "bytes32"
        },
        {
          "indexed": true,
          "internalType": "bytes32",
          "name": "counterentity",
          "type": "bytes32"
        },
        {
          "indexed": true,
          "internalType": "uint256",
          "name": "nonce",
          "type": "uint256"
        },
        {
          "indexed": false,
          "internalType": "bytes32",
          "name": "proofbodyHash",
          "type": "bytes32"
        },
        {
          "indexed": false,
          "internalType": "bytes",
          "name": "starterInitialArguments",
          "type": "bytes"
        },
        {
          "indexed": false,
          "internalType": "bytes",
          "name": "starterIncrementedArguments",
          "type": "bytes"
        }
      ],
      "name": "DisputeStartedV2",
      "type": "event"
    },
    {
      "anonymous": false,
      "inputs": [
        {
          "indexed": true,
          "internalType": "bytes32",
          "name": "entityId",
          "type": "bytes32"
        },
        {
          "indexed": true,
          "internalType": "bytes32",
          "name": "hankoHash",
          "type": "bytes32"
        },
        {
          "indexed": false,
          "internalType": "uint256",
          "name": "nonce",
          "type": "uint256"
        },
        {
          "indexed": false,
          "internalType": "bool",
          "name": "success",
          "type": "bool"
        }
      ],
      "name": "HankoBatchProcessed",
      "type": "event"
    },
    {
      "anonymous": false,
      "inputs": [
        {
          "indexed": true,
          "internalType": "bytes32",
          "name": "entity",
          "type": "bytes32"
        },
        {
          "indexed": true,
          "internalType": "uint256",
          "name": "tokenId",
          "type": "uint256"
        },
        {
          "indexed": false,
          "internalType": "uint256",
          "name": "newBalance",
          "type": "uint256"
        }
      ],
      "name": "ReserveUpdated",
      "type": "event"
    },
    {
      "anonymous": false,
      "inputs": [
        {
          "indexed": true,
          "internalType": "bytes32",
          "name": "hashlock",
          "type": "bytes32"
        },
        {
          "indexed": true,
          "internalType": "bytes32",
          "name": "revealer",
          "type": "bytes32"
        },
        {
          "indexed": false,
          "internalType": "bytes32",
          "name": "secret",
          "type": "bytes32"
        }
      ],
      "name": "SecretRevealed",
      "type": "event"
    },
    {
      "anonymous": false,
      "inputs": [
        {
          "indexed": true,
          "internalType": "address",
          "name": "tower",
          "type": "address"
        },
        {
          "indexed": true,
          "internalType": "bytes32",
          "name": "entityId",
          "type": "bytes32"
        },
        {
          "indexed": true,
          "internalType": "bytes32",
          "name": "counterentity",
          "type": "bytes32"
        },
        {
          "indexed": false,
          "internalType": "uint256",
          "name": "finalNonce",
          "type": "uint256"
        },
        {
          "indexed": false,
          "internalType": "uint256",
          "name": "appointmentSequence",
          "type": "uint256"
        }
      ],
      "name": "WatchtowerCounterDisputeExecuted",
      "type": "event"
    },
    {
      "inputs": [],
      "name": "DOMAIN_SEPARATOR",
      "outputs": [
        {
          "internalType": "bytes32",
          "name": "",
          "type": "bytes32"
        }
      ],
      "stateMutability": "view",
      "type": "function"
    },
    {
      "inputs": [],
      "name": "WATCHTOWER_COUNTER_DISPUTE_DOMAIN_SEPARATOR",
      "outputs": [
        {
          "internalType": "bytes32",
          "name": "",
          "type": "bytes32"
        }
      ],
      "stateMutability": "view",
      "type": "function"
    },
    {
      "inputs": [
        {
          "internalType": "bytes",
          "name": "",
          "type": "bytes"
        }
      ],
      "name": "_accounts",
      "outputs": [
        {
          "internalType": "uint256",
          "name": "nonce",
          "type": "uint256"
        },
        {
          "internalType": "bytes32",
          "name": "disputeHash",
          "type": "bytes32"
        },
        {
          "internalType": "uint256",
          "name": "disputeTimeout",
          "type": "uint256"
        },
        {
          "internalType": "uint256",
          "name": "disputeStartTimestamp",
          "type": "uint256"
        }
      ],
      "stateMutability": "view",
      "type": "function"
    },
    {
      "inputs": [
        {
          "internalType": "bytes32",
          "name": "",
          "type": "bytes32"
        }
      ],
      "name": "_activeDebts",
      "outputs": [
        {
          "internalType": "uint256",
          "name": "",
          "type": "uint256"
        }
      ],
      "stateMutability": "view",
      "type": "function"
    },
    {
      "inputs": [
        {
          "internalType": "bytes32",
          "name": "",
          "type": "bytes32"
        },
        {
          "internalType": "uint256",
          "name": "",
          "type": "uint256"
        }
      ],
      "name": "_activeDebtsByToken",
      "outputs": [
        {
          "internalType": "uint256",
          "name": "",
          "type": "uint256"
        }
      ],
      "stateMutability": "view",
      "type": "function"
    },
    {
      "inputs": [
        {
          "internalType": "bytes",
          "name": "",
          "type": "bytes"
        },
        {
          "internalType": "uint256",
          "name": "",
          "type": "uint256"
        }
      ],
      "name": "_collaterals",
      "outputs": [
        {
          "internalType": "uint256",
          "name": "collateral",
          "type": "uint256"
        },
        {
          "internalType": "int256",
          "name": "ondelta",
          "type": "int256"
        }
      ],
      "stateMutability": "view",
      "type": "function"
    },
    {
      "inputs": [
        {
          "internalType": "bytes32",
          "name": "",
          "type": "bytes32"
        },
        {
          "internalType": "uint256",
          "name": "",
          "type": "uint256"
        }
      ],
      "name": "_debtIndex",
      "outputs": [
        {
          "internalType": "uint256",
          "name": "",
          "type": "uint256"
        }
      ],
      "stateMutability": "view",
      "type": "function"
    },
    {
      "inputs": [
        {
          "internalType": "bytes32",
          "name": "",
          "type": "bytes32"
        },
        {
          "internalType": "uint256",
          "name": "",
          "type": "uint256"
        },
        {
          "internalType": "uint256",
          "name": "",
          "type": "uint256"
        }
      ],
      "name": "_debts",
      "outputs": [
        {
          "internalType": "bytes32",
          "name": "creditor",
          "type": "bytes32"
        },
        {
          "internalType": "uint256",
          "name": "amount",
          "type": "uint256"
        }
      ],
      "stateMutability": "view",
      "type": "function"
    },
    {
      "inputs": [
        {
          "internalType": "bytes32",
          "name": "",
          "type": "bytes32"
        },
        {
          "internalType": "uint256",
          "name": "",
          "type": "uint256"
        }
      ],
      "name": "_reserves",
      "outputs": [
        {
          "internalType": "uint256",
          "name": "",
          "type": "uint256"
        }
      ],
      "stateMutability": "view",
      "type": "function"
    },
    {
      "inputs": [
        {
          "internalType": "uint256",
          "name": "",
          "type": "uint256"
        }
      ],
      "name": "_tokens",
      "outputs": [
        {
          "internalType": "address",
          "name": "contractAddress",
          "type": "address"
        },
        {
          "internalType": "uint96",
          "name": "externalTokenId",
          "type": "uint96"
        },
        {
          "internalType": "uint8",
          "name": "tokenType",
          "type": "uint8"
        }
      ],
      "stateMutability": "view",
      "type": "function"
    },
    {
      "inputs": [
        {
          "internalType": "bytes32",
          "name": "e1",
          "type": "bytes32"
        },
        {
          "internalType": "bytes32",
          "name": "e2",
          "type": "bytes32"
        }
      ],
      "name": "accountKey",
      "outputs": [
        {
          "internalType": "bytes",
          "name": "",
          "type": "bytes"
        }
      ],
      "stateMutability": "pure",
      "type": "function"
    },
    {
      "inputs": [],
      "name": "admin",
      "outputs": [
        {
          "internalType": "address",
          "name": "",
          "type": "address"
        }
      ],
      "stateMutability": "view",
      "type": "function"
    },
    {
      "inputs": [
        {
          "components": [
            {
              "internalType": "bytes32",
              "name": "entity",
              "type": "bytes32"
            },
            {
              "internalType": "address",
              "name": "contractAddress",
              "type": "address"
            },
            {
              "internalType": "uint96",
              "name": "externalTokenId",
              "type": "uint96"
            },
            {
              "internalType": "uint8",
              "name": "tokenType",
              "type": "uint8"
            },
            {
              "internalType": "uint256",
              "name": "internalTokenId",
              "type": "uint256"
            },
            {
              "internalType": "uint256",
              "name": "amount",
              "type": "uint256"
            }
          ],
          "internalType": "struct ExternalTokenToReserve",
          "name": "params",
          "type": "tuple"
        }
      ],
      "name": "adminRegisterExternalToken",
      "outputs": [],
      "stateMutability": "nonpayable",
      "type": "function"
    },
    {
      "inputs": [
        {
          "internalType": "address",
          "name": "tower",
          "type": "address"
        },
        {
          "internalType": "bytes32",
          "name": "entityId",
          "type": "bytes32"
        },
        {
          "internalType": "bytes32",
          "name": "counterentity",
          "type": "bytes32"
        },
        {
          "internalType": "uint256",
          "name": "finalNonce",
          "type": "uint256"
        },
        {
          "internalType": "bytes32",
          "name": "finalProofbodyHash",
          "type": "bytes32"
        },
        {
          "internalType": "uint256",
          "name": "lastResortWindowBlocks",
          "type": "uint256"
        },
        {
          "internalType": "uint256",
          "name": "appointmentSequence",
          "type": "uint256"
        }
      ],
      "name": "computeWatchtowerCounterDisputeHash",
      "outputs": [
        {
          "internalType": "bytes32",
          "name": "",
          "type": "bytes32"
        }
      ],
      "stateMutability": "view",
      "type": "function"
    },
    {
      "inputs": [
        {
          "internalType": "bytes32",
          "name": "",
          "type": "bytes32"
        },
        {
          "internalType": "uint256",
          "name": "",
          "type": "uint256"
        }
      ],
      "name": "debtOutstanding",
      "outputs": [
        {
          "internalType": "uint256",
          "name": "",
          "type": "uint256"
        }
      ],
      "stateMutability": "view",
      "type": "function"
    },
    {
      "inputs": [
        {
          "internalType": "bytes",
          "name": "encoded",
          "type": "bytes"
        }
      ],
      "name": "decodeTransformerArgumentListStrict",
      "outputs": [
        {
          "internalType": "bytes[]",
          "name": "",
          "type": "bytes[]"
        }
      ],
      "stateMutability": "pure",
      "type": "function"
    },
    {
      "inputs": [],
      "name": "defaultDisputeDelay",
      "outputs": [
        {
          "internalType": "uint256",
          "name": "",
          "type": "uint256"
        }
      ],
      "stateMutability": "view",
      "type": "function"
    },
    {
      "inputs": [
        {
          "internalType": "bytes32",
          "name": "entity",
          "type": "bytes32"
        },
        {
          "internalType": "uint256",
          "name": "tokenId",
          "type": "uint256"
        },
        {
          "internalType": "uint256",
          "name": "maxIterations",
          "type": "uint256"
        }
      ],
      "name": "enforceDebts",
      "outputs": [],
      "stateMutability": "nonpayable",
      "type": "function"
    },
    {
      "inputs": [
        {
          "internalType": "bytes32",
          "name": "",
          "type": "bytes32"
        }
      ],
      "name": "entityNonces",
      "outputs": [
        {
          "internalType": "uint256",
          "name": "",
          "type": "uint256"
        }
      ],
      "stateMutability": "view",
      "type": "function"
    },
    {
      "inputs": [],
      "name": "entityProvider",
      "outputs": [
        {
          "internalType": "address",
          "name": "",
          "type": "address"
        }
      ],
      "stateMutability": "view",
      "type": "function"
    },
    {
      "inputs": [
        {
          "internalType": "bytes32",
          "name": "leftEntity",
          "type": "bytes32"
        },
        {
          "internalType": "bytes32",
          "name": "rightEntity",
          "type": "bytes32"
        },
        {
          "internalType": "uint256",
          "name": "tokenId",
          "type": "uint256"
        }
      ],
      "name": "getCollateral",
      "outputs": [
        {
          "internalType": "uint256",
          "name": "collateral",
          "type": "uint256"
        },
        {
          "internalType": "int256",
          "name": "ondelta",
          "type": "int256"
        }
      ],
      "stateMutability": "view",
      "type": "function"
    },
    {
      "inputs": [
        {
          "internalType": "uint256",
          "name": "tokenId",
          "type": "uint256"
        }
      ],
      "name": "getTokenMetadata",
      "outputs": [
        {
          "internalType": "address",
          "name": "contractAddress",
          "type": "address"
        },
        {
          "internalType": "uint96",
          "name": "externalTokenId",
          "type": "uint96"
        },
        {
          "internalType": "uint8",
          "name": "tokenType",
          "type": "uint8"
        }
      ],
      "stateMutability": "view",
      "type": "function"
    },
    {
      "inputs": [],
      "name": "getTokensLength",
      "outputs": [
        {
          "internalType": "uint256",
          "name": "",
          "type": "uint256"
        }
      ],
      "stateMutability": "view",
      "type": "function"
    },
    {
      "inputs": [
        {
          "internalType": "bytes32",
          "name": "entity",
          "type": "bytes32"
        },
        {
          "internalType": "uint256",
          "name": "tokenId",
          "type": "uint256"
        },
        {
          "internalType": "uint256",
          "name": "amount",
          "type": "uint256"
        }
      ],
      "name": "mintToReserve",
      "outputs": [],
      "stateMutability": "nonpayable",
      "type": "function"
    },
    {
      "inputs": [
        {
          "components": [
            {
              "internalType": "bytes32",
              "name": "entity",
              "type": "bytes32"
            },
            {
              "internalType": "uint256",
              "name": "tokenId",
              "type": "uint256"
            },
            {
              "internalType": "uint256",
              "name": "amount",
              "type": "uint256"
            }
          ],
          "internalType": "struct Depository.ReserveMint[]",
          "name": "mints",
          "type": "tuple[]"
        }
      ],
      "name": "mintToReserveBatch",
      "outputs": [],
      "stateMutability": "nonpayable",
      "type": "function"
    },
    {
      "inputs": [
        {
          "internalType": "address",
          "name": "",
          "type": "address"
        },
        {
          "internalType": "address",
          "name": "",
          "type": "address"
        },
        {
          "internalType": "uint256[]",
          "name": "",
          "type": "uint256[]"
        },
        {
          "internalType": "uint256[]",
          "name": "",
          "type": "uint256[]"
        },
        {
          "internalType": "bytes",
          "name": "",
          "type": "bytes"
        }
      ],
      "name": "onERC1155BatchReceived",
      "outputs": [
        {
          "internalType": "bytes4",
          "name": "",
          "type": "bytes4"
        }
      ],
      "stateMutability": "pure",
      "type": "function"
    },
    {
      "inputs": [
        {
          "internalType": "address",
          "name": "",
          "type": "address"
        },
        {
          "internalType": "address",
          "name": "",
          "type": "address"
        },
        {
          "internalType": "uint256",
          "name": "id",
          "type": "uint256"
        },
        {
          "internalType": "uint256",
          "name": "",
          "type": "uint256"
        },
        {
          "internalType": "bytes",
          "name": "",
          "type": "bytes"
        }
      ],
      "name": "onERC1155Received",
      "outputs": [
        {
          "internalType": "bytes4",
          "name": "",
          "type": "bytes4"
        }
      ],
      "stateMutability": "nonpayable",
      "type": "function"
    },
    {
      "inputs": [
        {
          "internalType": "uint8",
          "name": "tokenType",
          "type": "uint8"
        },
        {
          "internalType": "address",
          "name": "contractAddress",
          "type": "address"
        },
        {
          "internalType": "uint96",
          "name": "externalTokenId",
          "type": "uint96"
        }
      ],
      "name": "packTokenReference",
      "outputs": [
        {
          "internalType": "bytes32",
          "name": "",
          "type": "bytes32"
        }
      ],
      "stateMutability": "pure",
      "type": "function"
    },
    {
      "inputs": [
        {
          "internalType": "bytes",
          "name": "encodedBatch",
          "type": "bytes"
        },
        {
          "internalType": "bytes",
          "name": "hankoData",
          "type": "bytes"
        },
        {
          "internalType": "uint256",
          "name": "nonce",
          "type": "uint256"
        }
      ],
      "name": "processBatch",
      "outputs": [
        {
          "internalType": "bool",
          "name": "completeSuccess",
          "type": "bool"
        }
      ],
      "stateMutability": "nonpayable",
      "type": "function"
    },
    {
      "inputs": [
        {
          "internalType": "bytes32",
          "name": "entity",
          "type": "bytes32"
        },
        {
          "internalType": "uint256",
          "name": "tokenId",
          "type": "uint256"
        }
      ],
      "name": "spendableReserve",
      "outputs": [
        {
          "internalType": "uint256",
          "name": "",
          "type": "uint256"
        }
      ],
      "stateMutability": "view",
      "type": "function"
    },
    {
      "inputs": [
        {
          "internalType": "bytes32",
          "name": "",
          "type": "bytes32"
        }
      ],
      "name": "tokenToId",
      "outputs": [
        {
          "internalType": "uint256",
          "name": "",
          "type": "uint256"
        }
      ],
      "stateMutability": "view",
      "type": "function"
    },
    {
      "inputs": [
        {
          "internalType": "bytes32",
          "name": "packed",
          "type": "bytes32"
        }
      ],
      "name": "unpackTokenReference",
      "outputs": [
        {
          "internalType": "address",
          "name": "contractAddress",
          "type": "address"
        },
        {
          "internalType": "uint96",
          "name": "externalTokenId",
          "type": "uint96"
        },
        {
          "internalType": "uint8",
          "name": "tokenType",
          "type": "uint8"
        }
      ],
      "stateMutability": "view",
      "type": "function"
    },
    {
      "inputs": [
        {
          "internalType": "bytes32",
          "name": "entityId",
          "type": "bytes32"
        },
        {
          "components": [
            {
              "internalType": "bytes32",
              "name": "counterentity",
              "type": "bytes32"
            },
            {
              "internalType": "uint256",
              "name": "initialNonce",
              "type": "uint256"
            },
            {
              "internalType": "uint256",
              "name": "finalNonce",
              "type": "uint256"
            },
            {
              "internalType": "bytes32",
              "name": "initialProofbodyHash",
              "type": "bytes32"
            },
            {
              "components": [
                {
                  "internalType": "int256[]",
                  "name": "offdeltas",
                  "type": "int256[]"
                },
                {
                  "internalType": "uint256[]",
                  "name": "tokenIds",
                  "type": "uint256[]"
                },
                {
                  "components": [
                    {
                      "internalType": "address",
                      "name": "transformerAddress",
                      "type": "address"
                    },
                    {
                      "internalType": "bytes",
                      "name": "encodedBatch",
                      "type": "bytes"
                    },
                    {
                      "components": [
                        {
                          "internalType": "uint256",
                          "name": "deltaIndex",
                          "type": "uint256"
                        },
                        {
                          "internalType": "uint256",
                          "name": "rightAllowance",
                          "type": "uint256"
                        },
                        {
                          "internalType": "uint256",
                          "name": "leftAllowance",
                          "type": "uint256"
                        }
                      ],
                      "internalType": "struct Allowance[]",
                      "name": "allowances",
                      "type": "tuple[]"
                    }
                  ],
                  "internalType": "struct TransformerClause[]",
                  "name": "transformers",
                  "type": "tuple[]"
                }
              ],
              "internalType": "struct ProofBody",
              "name": "finalProofbody",
              "type": "tuple"
            },
            {
              "internalType": "bytes",
              "name": "leftArguments",
              "type": "bytes"
            },
            {
              "internalType": "bytes",
              "name": "rightArguments",
              "type": "bytes"
            },
            {
              "internalType": "bytes",
              "name": "starterInitialArguments",
              "type": "bytes"
            },
            {
              "internalType": "bytes",
              "name": "starterIncrementedArguments",
              "type": "bytes"
            },
            {
              "internalType": "bytes",
              "name": "sig",
              "type": "bytes"
            },
            {
              "internalType": "bool",
              "name": "startedByLeft",
              "type": "bool"
            },
            {
              "internalType": "uint256",
              "name": "disputeUntilBlock",
              "type": "uint256"
            },
            {
              "internalType": "bool",
              "name": "cooperative",
              "type": "bool"
            }
          ],
          "internalType": "struct FinalDisputeProof",
          "name": "params",
          "type": "tuple"
        },
        {
          "internalType": "uint256",
          "name": "lastResortWindowBlocks",
          "type": "uint256"
        },
        {
          "internalType": "uint256",
          "name": "appointmentSequence",
          "type": "uint256"
        },
        {
          "internalType": "bytes",
          "name": "ownerAuthorizationHanko",
          "type": "bytes"
        }
      ],
      "name": "watchtowerCounterDispute",
      "outputs": [
        {
          "internalType": "bool",
          "name": "completeSuccess",
          "type": "bool"
        }
      ],
      "stateMutability": "nonpayable",
      "type": "function"
    }
  ],
  "bytecode": "0x60c034620001e857601f6200622b38819003918201601f19168301926001600160401b0392909183851183861017620001ed578160209284926040978852833981010312620001e857516001600160a01b038082169291838103620001e857600093600185551562000196576080523360a05283519160608301908111838210176200018257845282825260208201908382528483019380855260095490680100000000000000008210156200016e5760018201806009558210156200015a579160019391602084600960ff9896522090851b0192511690838060a01b0319905160a01b161781550191511660ff198254161790555161602790816200020482396080518181816107c701528181610f98015281816119c201528181611f69015281816121a301528181612d3f015281816143ce0152614d89015260a0518181816101ff015281816102a4015281816103240152610a530152f35b634e487b7160e01b81526032600452602490fd5b634e487b7160e01b81526041600452602490fd5b634e487b7160e01b84526041600452602484fd5b845162461bcd60e51b815260206004820152602560248201527f456e7469747950726f76696465722063616e6e6f74206265207a65726f206164604482015264647265737360d81b6064820152608490fd5b600080fd5b634e487b7160e01b600052604160045260246000fdfe6101a0604052600436101561001357600080fd5b60003560e01c80630dedd62414612e4357806310340ce314612e2c578063125c2cc414612dc05780633644e51514612d9757806340530a9a14612d6e5780634318cdd014612d295780635fed788214612cc65780636031680114612c9f5780636b79134d14612c735780637508b91614612c4057806378152e6a14612c2757806378bc542a14612bf45780637a4ef02514610e9057806382f437b114610e5557806388a1cd7614610e04578063907efb1b14610de757806392cf61e514610d745780639e8de81914610d41578063acd6f20814610d0e578063b0c26ecf14610cf0578063bb2c250c14610ca2578063bc197c8114610bfb578063d19fd92e14610bcf578063e3af37e314610ab2578063e812c56914610a41578063e9e1059e14610576578063ed70554d14610527578063edcc1b04146104fb578063f176e326146104c1578063f23a6e61146103c3578063f43ac1fb146102d3578063f851a4401461028e5763fdfef2011461018857600080fd5b346102895760c0366003190112610289576040516101a581612ef5565b60043581526001600160a01b0360243581811681036102895760208301526044356001600160601b038116810361028957604083015260643560ff81168103610289576060830152608435608083015260a43560a08301527f0000000000000000000000000000000000000000000000000000000000000000163314801590610270575b61025e5760026000541461024c576102459060026000556150b6565b6001600055005b604051633018d46b60e11b8152600490fd5b604051633485c51360e21b8152600490fd5b50617a6946141580156102295750617a6a461415610229565b600080fd5b34610289576000366003190112610289576040517f00000000000000000000000000000000000000000000000000000000000000006001600160a01b03168152602090f35b34610289576020366003190112610289576004356001600160401b038082116102895736602383011215610289578160040135908111610289576024916060366024606085028401011161028957337f00000000000000000000000000000000000000000000000000000000000000006001600160a01b0316148015906103aa575b61025e5782156103985760005b83811061036b57005b81810283019060648201359182156103985760019281886044610392940135910135613f86565b01610362565b60405163440a57bf60e01b8152600490fd5b50617a6946141580156103555750617a6a461415610355565b346102895760a0366003190112610289576103dc6130bf565b506103e56130d5565b506084356001600160401b03811161028957610405903690600401613092565b505060018060601b03604435166040516020810190600282523360408201528260608201526060815261043781612f23565b5190209081600052600a60205260406000205415610462575b60405163f23a6e6160e01b8152602090f35b6040516104869161047282612ebf565b338252602082015260026040820152613e93565b6009546000198101919082116104ab57600052600a6020526040600020558080610450565b634e487b7160e01b600052601160045260246000fd5b34610289576040366003190112610289576104f76104e3602435600435613e53565b604051918291602083526020830190613180565b0390f35b3461028957602036600319011261028957600435600052600b6020526020604060002054604051908152f35b34610289576020366003190112610289576004356009548110156102895761054e906130ff565b5060ff6001825492015416906104f76040519282849360a01c9060018060a01b03168461304f565b346102895760031960a03682011261028957602435906001600160401b038211610289576101a082360391820112610289576084356001600160401b038111610289576105c7903690600401613092565b909160026000541461024c5760026000556105f06105eb8560040135600435613e53565b61300f565b600181015415610a2f5761018485013580151581036102895761025e5761012485013560221983018112156102895785016004810135906001600160401b038211610289576024823603910113610289571561025e576044351561025e5780546044860135111561025e5760248501356044860135111561025e576002610679604435436131c1565b9101541161025e5760848401359060621901811215610289576040516020808201529060a08201906106b086820160040180613e1e565b606060408601529283905260c084019260005b818110610a19575050506106e1602482880101600483890101613e1e565b848403603f190160608601528084526001600160fb1b0381116102895760051b92919083906020840137818301602001906107259088016044810190600401613e1e565b809192601f198787870103016080880152526040848401019360408260051b82860101019483946000925b8484106108dd57508a6107bb60408c8c6107998d610777818f03601f198101835282612f59565b6064359060443590602081519101206044890135896004013560043533613d64565b8351631155a0c560e31b81526004810185905294859384936044850191613940565b602483019190915203817f00000000000000000000000000000000000000000000000000000000000000006001600160a01b03165afa80156108d1576000916000916108a0575b5015908115610893575b50610881576108296108213683600401613a3e565b6004356142cb565b1580610881576020916040519060448101358252606435848301526004013590600435907fb209bafd9234f5eaba22fb2de42069934e9a20bb838ffc9afa40ede47dbe7d8760403392a4600160005560405190158152f35b604051631bd18a1960e31b8152600490fd5b905060043514158261080c565b90506108c4915060403d6040116108ca575b6108bc8183612f59565b81019061396e565b83610802565b503d6108b2565b6040513d6000823e3d90fd5b90919293949596603f198284018203018452605e198736030188351215610289576001600160a01b03610912893589016130eb565b1681528735870136819003601e1901602090910135121561028957873587016020810135016001600160401b03813511610289578035360360208201136102895761096e90606060208401526060830190602081359101613940565b908835880136819003601e190160409091013512156102895788358801604081013501916001600160401b038335116102895760608335023603602084011361028957816040602093830391015282358152019060208101906000905b803582106109ed57505050602080600192990194019401929594939190610750565b9091926060806001928635815260208701356020820152604087013560408201520194019201906109cb565b82358552602094850194909201916001016106c3565b6040516388d0662b60e01b8152600490fd5b3461028957610a4f36613035565b90337f00000000000000000000000000000000000000000000000000000000000000006001600160a01b031614801590610a99575b61025e57811561039857610a9792613f86565b005b50617a694614158015610a845750617a6a461415610a84565b3461028957602080600319360112610289576001600160401b0360043581811161028957610ae4903690600401613092565b81019083818303126102895780359083821161028957019080601f8301121561028957813591610b1383613988565b93610b216040519586612f59565b8385528585019086829560051b8401019380851161028957878498979801925b858410610ba457604080518981528a51818b01819052600092600582901b83018101918b918d9085015b828710610b785785850386f35b909192938280610b94600193603f198a82030186528851613180565b9601920196019592919092610b6b565b8398979835838111610289578991610bc1848480948a0101612fce565b815201930192979697610b41565b3461028957602036600319011261028957600435600052600a6020526020604060002054604051908152f35b346102895760a036600319011261028957610c146130bf565b50610c1d6130d5565b506001600160401b0360443581811161028957610c3e903690600401613150565b505060643581811161028957610c58903690600401613150565b505060843590811161028957610c72903690600401613092565b505060405162461bcd60e51b8152602060048201526006602482015265042c4c2e8c6d60d31b6044820152606490fd5b346102895760603660031901126102895760043560ff8116810361028957610cc86130d5565b906044356001600160601b038116810361028957602092610ce892613de2565b604051908152f35b34610289576000366003190112610289576020600954604051908152f35b3461028957610d1c3661307c565b9060005260016020526040600020906000526020526020604060002054604051908152f35b3461028957610d4f3661307c565b9060005260066020526040600020906000526020526020604060002054604051908152f35b3461028957602036600319011261028957600435600052600a602052610db2610dac604060002054610da78115156138db565b6130ff565b5061390d565b8051602082015160409283015192519283926104f79260ff909216916001600160601b0316906001600160a01b03168461304f565b346102895760003660031901126102895760206040516116808152f35b3461028957610e1236613035565b9160005260046020526040600020906000526020526040600020805482101561028957604091610e4191613134565b506001815491015482519182526020820152f35b346102895760e0366003190112610289576020610ce8610e736130bf565b60c4359060a4359060843590606435906044359060243590613d64565b34610289576060366003190112610289576004356001600160401b03811161028957610ec0903690600401613092565b6024356001600160401b03811161028957610edf903690600401613092565b9260026000541461024c5760026000556040516359516e5f60e01b8152600080516020615fd2833981519152600482015246602482015230604482015260a060648201529060208280610f3660a482018886613940565b6044356084830152038173__$1a0918a2aa2208593bb0a5d7644cd0946b$__5af49182156108d157600092612bc0575b5060408051808094631155a0c560e31b8252836004830152610f8c604483018a89613940565b602483019190915203817f00000000000000000000000000000000000000000000000000000000000000006001600160a01b03165afa80156108d157600092600091612b9b575b50158015612b93575b6108815781600052600b6020526040600020546001810181116104ab576001016044350361025e5781600052600b6020526044356040600020556020818581010312610289576001600160401b038135116102895761016081358201858301031261028957604051936001600160401b036101608601908111908611176129155761016085016040526001600160401b038235830135116102895781810182358301803501601f01121561028957813582018035013561109b81613988565b906110a96040519283612f59565b808252602082019083850160208260061b873588013588358901010101116102895784358501803501602001915b85358601803501600683901b016020018310612b5d5750505085526001600160401b038235830160200135116102895781810182358301602081013501601f01121561028957813582016020810135013561113181613988565b9061113f6040519283612f59565b8082526020820183850160206060840281883589010135883589010101011161028957602085358601818101350101905b853586016020818101359091016060850201018210612b3c5750505060208601526001600160401b038235830160400135116102895781810182358301604081013501601f011215610289576111cf8235830160408101350135613988565b6111dc6040519182612f59565b82358301604081013501803580835260208084019285870160059390931b0101116102895783358401604081013501602001905b84358501604081013501803560051b0160200182106129e557505060408601526001600160401b038235830160600135116102895781810182358301606081013501601f01121561028957813582016060810135013561126f81613988565b9061127d6040519283612f59565b8082526020820183850160208360051b606088358901013588358901010101116102895784358501606081013501602001905b85358601606081013501600584901b01602001821061292b5750505060608601526001600160401b038235830160800135116102895781810182358301608081013501601f01121561028957813582016080810135013561131081613988565b9061131e6040519283612f59565b8082526020820183850160208360051b608088358901013588358901010101116102895784358501608081013501602001905b85358601608081013501600584901b01602001821061268b5750505060808601526001600160401b038235830160a0013511610289578181018235830160a081013501601f011215610289578135820160a081013501356113b181613988565b906113bf6040519283612f59565b8082526020820183850160208360051b60a08835890101358835890101010111610289578435850160a081013501602001905b8535860160a081013501600584901b01602001821061255a5750505060a08601526001600160401b038235830160c0013511610289578181018235830160c081013501601f011215610289576114518235830160c08101350135613988565b61145e6040519182612f59565b8235830160c081013501803580835260208084019285870160059390931b010111610289578335840160c081013501602001905b8435850160c081013501803560051b01602001821061252157505060c08601526001600160401b038235830160e0013511610289578181018235830160e081013501601f011215610289576114f08235830160e08101350135613988565b6114fd6040519182612f59565b8235830160e081013501803580835260208084019285870160c0909302010111610289578335840160e081013501602001905b8435850160e081013501803560c00201602001821061249757505060e08601528135820161010001356001600160401b03811161028957818301601f8285358601010112156102895761158881843585010135613988565b906115966040519283612f59565b8335840181018035808452602080850192868801606090930201011161028957602082863587010101905b853586018301803560600201602001821061247857505050610100860152813582016101200135906001600160401b03821161028957808301601f8385358601010112156102895761161882843585010135613988565b916116266040519384612f59565b83358401810180358085526020808601949283880160069390931b01011161028957602082863587010101925b853586018301803560061b01602001841061243b5750505050610120850152610140818192350101359084015260088351511161172f5760406020840151511161172f57604080840151511161172f5760406060840151511161172f5760206080840151511161172f57600860a0840151511161172f57600860c0840151511161172f57604060e0840151511161172f576040610100840151511161172f576020610120840151511161172f5760005b6040840151805182101561174157604061171e83829361410d565b510151511161172f57600101611703565b60405163e217c62b60e01b8152600490fd5b505083836117508151516140ce565b9061175c8151516140ce565b916117688251516140ce565b92600080915b8451805184101561184b57836117839161410d565b515192602061179382885161410d565b510151936000905b84821061182a575b8a878684146117db575b5050506117d26117cb60019495966117c5848c61410d565b516131c1565b918961410d565b5201919061176e565b86836117cb936117d2956117f560019a9b61181f9661410d565b5260005287602052604060002090600052602052604060002054611819828a61410d565b526131a5565b959450508a876117ad565b9081611836828961410d565b5114611845576001019061179b565b906117a3565b5093915093918760005b868110612412575060019660005b60e0850151805182101561189c579061188e6118818260019461410d565b51805115611894576150b6565b01611863565b8c81526150b6565b505087899760005b6020870151805182101561192957816118bc9161410d565b51906118cc60208301518c61325b565b60408201516118df60208401518d614083565b1061191757611911826118fe8d60206001960151604084015191613efa565b8051906040602082015191015191613f86565b016118a4565b604051632fd8225d60e21b8152600490fd5b505087899760005b60608901518051821015611a6957602061194d8360809361410d565b518c6119c060405194859384936328a3f8a760e11b8552600160048601526002602486015260036044860152606485015260c06084850152805160c48501528581015160e485015260408101516101048501526060810151610124850152015160a0610144840152610164830190613180565b7f00000000000000000000000000000000000000000000000000000000000000006001600160a01b031660a4830152038173__$1a0918a2aa2208593bb0a5d7644cd0946b$__5af49081156108d157600091611a2f575b5015611a26575b600101611931565b60009450611a1e565b90506020813d602011611a61575b81611a4a60209383612f59565b8101031261028957611a5b90613961565b8b611a17565b3d9150611a3d565b505087899760808201518051612093575b5060a08201518051611f11575b5060005b6101208301518051821015611b605781611aa49161410d565b5180519091906001600160a01b03161561025e5760018060a01b03825116916020810151833b1561028957600093602485926040519687938492636030754560e01b845260048401525af19081156108d1576001938d92611b51575b507f47172349c05bf58f7f6a376def3bbc250cd3295a7eead0290d8fa3531c6ca9fb60208080840151604051828101918252828152611b3e81612ea4565b519020930151604051908152a301611a8b565b611b5a90612f10565b8d611b00565b505087899760005b60c08501518051821015611ba157611b8382611b8a9261410d565b518b6142cb565b15611b98575b600101611b68565b60009850611b90565b505087899760005b60408701518051821015611be257611bc482611bcb9261410d565b518b615597565b15611bd9575b600101611ba9565b60009250611bd1565b505087899760005b6101008901518051821015611e0f5781611c039161410d565b519060408201511561039857611c1d60208301518c61325b565b611c2d610dac60208401516130ff565b916040810151611c428d602084015190614083565b106119175780516001600160a01b031061025e5760018060a01b0381511690600160ff6040860151161480611e00575b61039857611c8a8d6020830151604084015191613efa565b604084015160ff1680611ce7575060019291611cdf91604061010096868060a01b039051169101516040519263a9059cbb60e01b60208501526024840152604483015260448252611cda82612f23565b615d60565b019050611bea565b60018103611d6657505082516020909301516001600160a01b03909316926001600160601b0316833b1561028957611d3a93600092836040518097819582946323b872dd60e01b84523060048501615094565b03925af19081156108d15761010092600192611d57575b50611cdf565b611d6090612f10565b8c611d51565b909390600214611d80575b50506101009150600190611cdf565b8051602090910151604094909401516001600160601b0390941693906001600160a01b0316803b1561028957611dd2946000809460405197889586948593637921219560e11b85523060048601615060565b03925af19081156108d15761010092600192611df1575b819250611d71565b611dfa90612f10565b8c611de9565b50600160408201511415611c72565b50508894959660005b848110611e7f575050505050159182159261088157602093611e3b913691612f97565b838151910120907fbd6e57133956b4a3944b483a9e595b4aab16071cf15a39384fdb1b7015865aab6040805160443581528587820152a36001600055604051908152f35b611e89818361410d565b51611ea9611e97838761410d565b51611ea2848761410d565b51906131c1565b8860005260016020526040600020826000526020526040600020541061191757611ede611ed6838661410d565b51828a613efa565b876000526001602052604060002090600052602052604060002054611f03828661410d565b511161191757600101611e18565b604051906312f6ab5960e31b82528160a48101600260048301528c602483015260a06044830152825180915260c4820190602060c48260051b8501019401916000905b828210612013575050611680606484015250507f00000000000000000000000000000000000000000000000000000000000000006001600160a01b031660848201526020918190038173__$1a0918a2aa2208593bb0a5d7644cd0946b$__5af49081156108d157600091611fd9575b5015611fd0575b89611a87565b60009550611fca565b90506020813d60201161200b575b81611ff460209383612f59565b810103126102895761200590613961565b8a611fc3565b3d9150611fe7565b919350919360208061208460019360c3198a82030186528851908151815283820151848201526040820151604082015260a0612073612061606085015160c0606086015260c0850190613180565b60808501518482036080860152613180565b9201519060a0818403910152613180565b96019201920185939192611f54565b94989092939596976000985b86518a101561212e576120b28a8861410d565b519860005b60408b0151805182101561211f57908b6120d38260019461410d565b51600060208201511261210d575b60006040820151126120f6575b5050016120b7565b602061210692015190519061325b565b8b8f6120ee565b61211a825182519061325b565b6120e1565b50506001909a0199985061209f565b95509591975095929791976080880151604051906328583d4560e21b82528160e48101600160048301526006602483015260026044830152600360648301528a608483015260e060a48301528251809152610104906020828401928260051b8501019401916000905b8282106122e6575050507f00000000000000000000000000000000000000000000000000000000000000006001600160a01b031660c4830152506020918190038173__$1a0918a2aa2208593bb0a5d7644cd0946b$__5af49081156108d1576000916122ac575b50156122a3575b94969095600098929398975b608083015180518a1015612293578961222e919b9896999b61410d565b5195600097606088019960208901995b8b51805182101561227b57906122758c61226b8d61225e8560019761410d565b51928391519051906153f1565b8d518d51906153f1565b0161223e565b50919c6001909c019b9a509698509096506122119050565b5097509794919592939589611a7a565b60009350612205565b90506020813d6020116122de575b816122c760209383612f59565b81010312610289576122d890613961565b8a6121fe565b3d91506122ba565b9193509193610103198682030182528451906101008101825182526020830151602083015260408301519061010060408401528151809152602061012084019201906000905b8082106123d2575050506060830151908281036060840152602080835192838152019201906000905b8082106123ba575050508260209260e0806123a56123828796608060019a01518682036080880152613180565b888060a01b0360a08701511660a086015260c086015185820360c0870152613180565b93015191015296019201920185939192612197565b90919260208060019286518152019401920190612355565b909192602060a06001926080875180518352848101518584015260408101516040840152606081015160608401520151608082015201940192019061232c565b806124356124226001938661410d565b5161242d838961410d565b51908c613f86565b01611855565b604084838801031261028957604060208092825161245881612ea4565b612461886130eb565b815282880135838201528152019401939050611653565b60606020809261248a888a018661399f565b81520192019190506115c1565b60c0828587010312610289576040516124af81612ef5565b823581526124bf602084016130eb565b602082015260408301356001600160601b03811690036102895760408381013590820152606083013560ff811690036102895760c091602091606085013560608201526080850135608082015260a085013560a0820152815201910190611530565b6001600160401b0382351161028957602090819061254f8787018835890160c0810135018635018401613a3e565b815201910190611492565b81356001600160401b0381116102895760c08735880160a081013501820187890103601f190112610289576040519061259282612ef5565b8735880160a08101350181016020818101358452604080830135918501919091526060820135908401526001600160401b0360809091013511610289576125ef88880189358a0160a0810135018301608081013501602001612fce565b60608301526001600160401b0360a089358a018181013501830101351161028957612630878901602060a08b358c0181810135018501908101350101612fce565b60808301526001600160401b038835890160a081013501820160c00135116102895760209283928392612679908a8c01908c358d0160a0810135010160c0810135018501612fce565b60a082015281520192019190506113f2565b81356001600160401b0381116102895761010087358801608081013501820187890103601f19011261028957604051906001600160401b036101008301908111908311176129155761010082016040908152602060808a358b01908101350183018181013585529182013590840152606001356001600160401b0381116102895788880189358a0160808101350183018201603f011215610289578835890160808101350182018101602001359061274282613988565b916127506040519384612f59565b808352602083018b8b018c358d016080810135018601840160a084020160400111610289578b358c0160808101350185018301604001905b8b8d803581016080810135018801860160a086020160400184106128c35750505050506040840191909152506001600160401b03608089358a0181810135018301013511610289576127f0878901602060808b358c01818101350185019081013501016139d1565b60608301526001600160401b0388358901608081013501820160a00135116102895761283288880189358a01608081013501830160a081013501602001612fce565b608083015261285160c08260808b358c0101358b358c010101016130eb565b60a08301526001600160401b0388358901608081013501820160e001351161028957602092839283926101009061289d8b8d018d358e01608081013501830160e0810135018701612fce565b60c08401528b358c0160808101350101013560e082015281529190930192019050611351565b60a091849101031261028957602060a0916040516128e081612eda565b843581528285013583820152604085013560408201526060850135606082015260808501356080820152815201910190612788565b634e487b7160e01b600052604160045260246000fd5b81356001600160401b0381116102895760a087358801606081013501820187890103601f190112610289576040519061296382612eda565b6020606089358a01818101350183018281013585526040808201359386019390935280820135928501929092526080820135908401526001600160401b0360a0909101351161028957602092839283926129d3908a8c01908c358d016060810135010160a0810135018501612fce565b608082015281520192019190506112b0565b81356001600160401b03811161028957606086358701604081013501820186880103601f1901126102895760405190612a1d82612ebf565b6020604088358901818101350183018281013585529081013591840191909152606001356001600160401b038111610289578787018835890160408101350183018201603f01121561028957873588016040810135018201810160200135612a8481613988565b92612a926040519485612f59565b81845260208401908a8a018b358c0160408181013590910183018601600686901b0101116102895760408b358c0181810135018201850101915b8a8c60408660061b8886838535860101358535860101010101018510612b0957505050505050509181602093604085940152815201910190611210565b60409185910103126102895760206040918251612b2581612ea4565b853581528286013583820152815201920191612acc565b60608060208093612b4f898b018761399f565b815201930192915050611170565b6040838688010312610289576040602080928251612b7a81612ea4565b86358152828701358382015281520193019290506110d7565b508115610fdc565b9050612bb791925060403d6040116108ca576108bc8183612f59565b91909186610fd3565b9091506020813d602011612bec575b81612bdc60209383612f59565b8101031261028957519085610f66565b3d9150612bcf565b3461028957612c023661307c565b9060005260076020526040600020906000526020526020604060002054604051908152f35b34610289576020610ce8612c3a3661307c565b90614083565b3461028957612c4e3661307c565b9060005260056020526040600020906000526020526020604060002054604051908152f35b346102895760203660031901126102895760043560005260086020526020604060002054604051908152f35b3461028957602036600319011261028957610db2610dac600435610da760095482106138db565b3461028957606036600319011261028957612cfd6020612cea602435600435613e53565b8160405193828580945193849201612fec565b810160038152030190206044356000526020526040806000206001815491015482519182526020820152f35b34610289576000366003190112610289576040517f00000000000000000000000000000000000000000000000000000000000000006001600160a01b03168152602090f35b34610289576000366003190112610289576020604051600080516020615fb28339815191528152f35b34610289576000366003190112610289576020604051600080516020615fd28339815191528152f35b34610289576020366003190112610289576004356001600160401b03811161028957612df76020612cea6080933690600401612fce565b810160028152030190208054906001810154906003600282015491015491604051938452602084015260408301526060820152f35b3461028957610a97612e3d36613035565b9161365b565b34610289576040366003190112610289576004356001600160401b038111610289576020612cea612e78923690600401612fce565b810160038152030190206024356000526020526040806000206001815491015482519182526020820152f35b604081019081106001600160401b0382111761291557604052565b606081019081106001600160401b0382111761291557604052565b60a081019081106001600160401b0382111761291557604052565b60c081019081106001600160401b0382111761291557604052565b6001600160401b03811161291557604052565b608081019081106001600160401b0382111761291557604052565b602081019081106001600160401b0382111761291557604052565b601f909101601f19168101906001600160401b0382119082101761291557604052565b6001600160401b03811161291557601f01601f191660200190565b929192612fa382612f7c565b91612fb16040519384612f59565b829481845281830111610289578281602093846000960137010152565b9080601f8301121561028957816020612fe993359101612f97565b90565b60005b838110612fff5750506000910152565b8181015183820152602001612fef565b6020613028918160405193828580945193849201612fec565b8101600281520301902090565b606090600319011261028957600435906024359060443590565b6001600160a01b0390911681526001600160601b03909116602082015260ff909116604082015260600190565b6040906003190112610289576004359060243590565b9181601f84011215610289578235916001600160401b038311610289576020838186019501011161028957565b600435906001600160a01b038216820361028957565b602435906001600160a01b038216820361028957565b35906001600160a01b038216820361028957565b60095481101561311e57600960005260206000209060011b0190600090565b634e487b7160e01b600052603260045260246000fd5b805482101561311e5760005260206000209060011b0190600090565b9181601f84011215610289578235916001600160401b038311610289576020808501948460051b01011161028957565b9060209161319981518092818552858086019101612fec565b601f01601f1916010190565b60001981146104ab5760010190565b919082039182116104ab57565b919082018092116104ab57565b906131df5760018160008093550155565b634e487b7160e01b600052600060045260246000fd5b8054906000908181558261320857505050565b6001906001600160ff1b0384168403613247578252602082209260011b8301925b8381106132365750505050565b808360029255838382015501613229565b634e487b7160e01b83526011600452602483fd5b6000818152600492602060048152604093848420838552825284842095865490811561349a57828652600584528686208587528452868620549782891015613491575b90838752600191600186528888208789528652888820548389905b613309575b50505050508610156132db57835260058152838320918352522055565b6133079550808452600582528484208385528252838581205583526004815283832091835252206131f5565b565b858c929394959c1080613488575b1561348057906133288c93926131a5565b916133338286613134565b509084820191825495861561346b575081156134625754919061338f908c90613389908c90898110156134555761338481809581945b613374838383613efa565b61337f83838d613f86565b613fde565b6131b4565b966131b4565b9061339b8282546131b4565b918061342057508c90558d830180841161340d57613403928f969594928f8f8f94928f938f9493606093600080516020615f72833981519152958251948552840152820152a46133eb8b8a614021565b6133fe6133f88288613134565b906131ce565b6131a5565b9b5b9493926132b9565b634e487b7160e01b8d526011885260248dfd5b849f9695948f8e94600080516020615f72833981519152928f928f95606094818e9b99558251948552840152820152a4613405565b6133848a80958194613369565b5050509a6132be565b955050929161347a91506131a5565b9b613405565b819b506132be565b50878110613317565b9750859761329e565b5050835260058152838320918352529081205550565b6000818152600492602060048152604093848420838552825284842095865490811561349a57828652600584528686208587528452868620549782891015613652575b90838752600191600186528888208789528652888820548389905b61352f5750505050508610156132db57835260058152838320918352522055565b858c929394959c1080613649575b15613480579061354e8c93926131a5565b916135598286613134565b50908482019182549586156136345750811561346257549190613599908c90613389908c9089811015613455576133848180958194613374838383613efa565b906135a58282546131b4565b91806135ff57508c90558d830180841161340d576135f5928f969594928f8f8f94928f938f9493606093600080516020615f72833981519152958251948552840152820152a46133eb8b8a614021565b9b5b94939261350e565b849f9695948f8e94600080516020615f72833981519152928f928f95606094818e9b99558251948552840152820152a46135f7565b955050929161364391506131a5565b9b6135f7565b5087811061353d565b975085976134f3565b806000526004602052604060002082600052602052604060002080549081156138b95782600052600560205260406000208460005260205260406000205494828610156138b0575b836000526001906001602052604060002086600052602052816040600020549180156000146138a65750919291506000195b6000845b613746575b5050505050831015613706576000526005602052604060002090600052602052604060002055565b80919250600052600560205260406000208260005260205260006040812055600052600460205260406000209060005260205261330760406000206131f5565b858993949599108061389d575b1561389557613761906131a5565b9161376c8186613134565b509089820154948a86156138805750801561387857906137bd61337f6133898c86956133848e839c9b9a99549c8d918d851060001461386c57849788809781955b6137b8838387613efa565b613f86565b916137cb838d8301546131b4565b928061383357508b60009101558a8101918282116104ab578b968a600080516020615f7283398151915260608e9461382797604051918252600060208301526040820152a461381a8a8a614021565b6133fe6133f88289613134565b985b94939190916136d9565b600080516020615f7283398151915260608e999395859f96958f96948f95898291015560405192835260208301526040820152a4613829565b8d9788809781956137ad565b5098506136de565b95509392915061388f906131a5565b98613829565b8298506136de565b50818110613753565b90509291926136d5565b600095506136a3565b5050909150600052600560205260406000209060005260205260006040812055565b156138e257565b606460405162461bcd60e51b815260206004820152600460248201526321746f6b60e01b6044820152fd5b9060405161391a81612ebf565b82546001600160a01b038116825260a01c602082015260019092015460ff166040830152565b908060209392818452848401376000828201840152601f01601f1916010190565b5190811515820361028957565b919082604091031261028957612fe9602083519301613961565b6001600160401b0381116129155760051b60200190565b9190826060910312610289576040516139b781612ebf565b604080829480358452602081013560208501520135910152565b9080601f830112156102895760209082356139eb81613988565b936139f96040519586612f59565b81855260208086019260051b82010192831161028957602001905b828210613a22575050505090565b81358152908301908301613a14565b3590811515820361028957565b9190916101a09081818503126102895760408051909490926001600160401b03908401818111858210176129155786528395833585526020808501358187015281850135828701526060918286013583880152608086013584811161028957860192808487031261028957815193613ab585612ebf565b803586811161028957810187601f8201121561028957803590613ad782613988565b91613ae486519384612f59565b808352868084019160051b830101918a83116102895787809101915b838310613d5457505050508552838101358681116102895787613b249183016139d1565b84860152828101359086821161028957019286601f8501121561028957833593613b4d85613988565b94613b5a85519687612f59565b808652828087019160051b8301019189831161028957838101915b838310613c4d57505050505050820152608085015260a08301358181116102895782613ba2918501612fce565b60a085015260c08301358181116102895782613bbf918501612fce565b60c085015260e08301358181116102895782613bdc918501612fce565b60e0850152610100808401358281116102895783613bfb918601612fce565b90850152610120918284013591821161028957613c19918401612fce565b90830152610140613c2b818301613a31565b908301526101608082013590830152613c48610180809201613a31565b910152565b82358a8111610289578201808c03601f1901871361028957875190613c7182612ebf565b613c7c8782016130eb565b8252888101358c8111610289578d88613c9792840101612fce565b8783015287810135908c821161028957018c603f82011215610289578c87820135613cc181613988565b92613cce8c519485612f59565b8184528b8b8b8601930282010192831161028957918f9593918b8d8c979501975b838910613d0c57505050508394508a820152815201920191613b75565b88949698919293959750031261028957898b918d805190613d2c82612ebf565b85358252838601358483015280860135908201528152019101949290918f928b8b9694613cef565b8235815291810191889101613b00565b95939194929094604051956020870197600080516020615fb2833981519152895246604089015230606089015260018060a01b0316608088015260a087015260c086015260e085015261010084015261012083015261014090818301528152610160810181811060018060401b038211176129155760405251902090565b916040519160ff602084019416845260018060a01b0316604083015260018060601b0316606082015260608152613e1881612f23565b51902090565b9035601e1982360301811215610289570160208101919035906001600160401b038211610289578160051b3603831361028957565b9080821015613e7757604051916020830152604082015260408152612fe981612ebf565b90604051916020830152604082015260408152612fe981612ebf565b600954600160401b81101561291557806001613eb292016009556130ff565b6131df578151602083015160a01b6001600160a01b0319166001600160a01b039190911617815560409190910151600191909101805460ff191660ff92909216919091179055565b90918015613f8157600090828252602091600183526040918282208683528452808383205410613f70579181600080516020615f92833981519152949386839452600185528282208883528552613f558383209182546131b4565b905585815260018452818120878252845220549051908152a3565b8251632fd8225d60e21b8152600490fd5b505050565b90918015613f815760206040600080516020615f9283398151915292600090858252600184528282208783528452613fc28383209182546131c1565b90558481526001835281812086825283522054604051908152a3565b90918015613f8157600092828452600660205260408420818552602052604084205490828210611917576040938552600660205283852090855260205203912055565b90600090828252600860205260408220805480614076575b5050600760205260408220818352602052604082205461405857505050565b60409282526007602052828220908252602052206000198154019055565b6000190190553880614039565b60009181835260016020526040832081845260205260408320549183526006602052604083209083526020526040822054908181116000146140c957612fe992506131b4565b505090565b906140d882613988565b6140e56040519182612f59565b82815280926140f6601f1991613988565b0190602036910137565b80511561311e5760200190565b805182101561311e5760209160051b010190565b90815180825260208080930193019160005b828110614141575050505090565b835185529381019392810192600101614133565b9060208083528151906141746060926060838701526080860190614121565b8184015190601f199460409186888203018389015284808551928381520194019060005b8181106142795750505081015195606086828503019101528551938483528383019184808760051b8601019801966000945b8786106141dd5750505050505050505090565b90919293949596979882828203018652878a5160018060a01b0381511683528561421283830151898587015289860190613180565b91015192868183039101528180845192838152019301906000905b888183106142505750505050806001929b019601960194979695939291906141ca565b8395896001949693955180518352848101518584015201518a82015201940192018a929161422d565b825186529486019491860191600101614198565b926142af612fe995936142bd9315158652608060208701526080860190613180565b908482036040860152613180565b916060818403910152613180565b90610140526142e4610140515160006101805282613e53565b610160526101405161018001805115614be657604080516101605151602091828181610160510193614317818387612fec565b810160028152030190205415614bd55782610140510190614348838351928651809381926101605151928391612fec565b81016002815203019020541015614bc45761012061014051019081515115614b6c578290519160806101405101518551614397816143898682019485614155565b03601f198101835282612f59565b51902060e06101405101518381519101209151936144336101405151918851968795869563bba8d94760e01b875260018060a01b037f00000000000000000000000000000000000000000000000000000000000000001660048801523060248801526101006044880152614412610104880161016051613180565b936064880152608487015260a48601526003198583030160c4860152613180565b9060e4830152038173__$1a0918a2aa2208593bb0a5d7644cd0946b$__5af4918215614b5f576101805192614b22575b505015614b1257505b42815115614ae3575b60405160016101605151614490818460206101605101612fec565b820191600283526020816101805194030190200155604051600261016051516144c0818460206101605101612fec565b8201918183526020816101805194030190200155604051600361016051516144ef818460206101605101612fec565b820191600283526020816101805194030190200155429042925115614ac4575b50610140515160806101405101519360a06101405101519460c061014051015195602082015151825151036147a657838310938415614abd5783945b15614aae5794929097969593955b6145638688613e53565b9860208401515161457381613988565b906145816040519283612f59565b80825261458d81613988565b601f19013660208401378160a052610180515b818110614a0557505050906145b76145c092615917565b61010052615917565b9161018051985b604082015180518b10156147ed578a6145df9161410d565b516101205261010051518a10156147d15761462886866146028d6101005161410d565b515b87518e908110156147b857614619908961410d565b51905b6101205160a051615b31565b60e05260e0515160a05151036147a6576101805160c0525b6040610120510151805160c051101561471f5760c05161465f9161410d565b51805160a05151111561025e57614679815160e05161410d565b5190614688815160a05161410d565b516101805181128382810312811690848381031390151617614705576101805181840313806146f6575b61025e57610180518184031292836146da575b50505061025e57600160c0510160c052614640565b6020929350906146ea9103615906565b910151103880806146c5565b506040820151818403116146b2565b634e487b7160e01b61018051526011600452602461018051fd5b5090919293949596610180516080525b60a05151608051101561478e5761474f6080516040610120510151615d29565b1580614768575b61025e5760016080510160805261472f565b5061477760805160e05161410d565b5161478660805160a05161410d565b511415614756565b60e05160a052600190990198969594939291906145c7565b6040516329be7c4760e11b8152600490fd5b506040516147c581612f3e565b6101805181529061461c565b61462886866040516147e281612f3e565b610180518152614604565b5096959450969250965050610180515b6020860151805182101561491d578161481a60209360019361410d565b51866148288360a05161410d565b5191614842868b8160405193828580945193849201612fec565b81016003815203019020816101805152865260406101805120928354610180518213156000146148bd5761487e929350806148ac575b50615906565b8061489a575b50505b61018051808255908301550190506147fd565b6148a591888a615dc1565b3880614884565b6148b790848b613f86565b38614878565b908181106148ff576148d5929350816148f4576131b4565b806148e2575b5050614887565b6148ed918989615dc1565b38806148db565b61338482858d613f86565b61491191613384828561491897613f86565b9088613f86565b614887565b50509493505050506101206101405101515115156000146149cf576040610140510151604051602081610160515161495b8183856101605101612fec565b81016002815203019020555b61014051516020610140510151917f6d46d52b5fda2a9055705ba74bf5e95807cfa39decf819cdfeaa14f9b2ba346a60406060610140510151608061014051015182516149bc81614389602082019485614155565b51902082519182526020820152a4600190565b60405160208161016051516149ea8183856101605101612fec565b810160028152030190206149fe81546131a5565b9055614967565b614a1c8160209d9e97999b9d899d9b9d015161410d565b51610180515b828110614a9157509060019160405160208181614a458c83815193849201612fec565b81016003815203019020906101805152602052614a7782604061018051200154614a70838b5161410d565b519061557b565b614a81828661410d565b52019b9a9896949b9997996145a0565b81614aa08260208c015161410d565b51146147a657600101614a22565b50829492909796959395614559565b809461454b565b6101408051015190919015614adb57505b3861450f565b915090614ad5565b5060036040516020816101605151614b018183856101605101612fec565b810160028152030190200154614475565b51631bd18a1960e31b8152600490fd5b90809250813d8311614b58575b614b398183612f59565b81010312614b5157614b4a90613961565b3880614463565b6101805180fd5b503d614b2f565b83513d61018051823e3d90fd5b835162461bcd60e51b815260048101849052602b60248201527f5369676e617475726520726571756972656420666f7220636f6f70657261746960448201526a76652066696e616c697a6560a81b6064820152608490fd5b8251633485c51360e21b8152600490fd5b82516388d0662b60e01b8152600490fd5b60016040516020816101605151614c038183856101605101612fec565b8101600281520301902001548015610a2f576020610140510151906020610140805101511515600260405183816101605151614c458183856101605101612fec565b810184815203019020015493614cba6060610140510151614ca860e061014051015161010061014051015192604051998a978897637fa40de560e01b8952600489015260248801526044870152606486015260c0608486015260c4850190613180565b8381036003190160a485015290613180565b038173__$1a0918a2aa2208593bb0a5d7644cd0946b$__5af4918215614ec057610180519261502c575b500361501a57610140516101200180515115614f08576040610140510180516040516020816101605151614d1e8183856101605101612fec565b8101600281520301902054101561025e5780516020610140510151101561025e576020906080610140510151604051614d5e816143898682019485614155565b51902090519251906101405151614de76040519586948594632775acd960e21b865260018060a01b037f000000000000000000000000000000000000000000000000000000000000000016600487015230602487015260e06044870152614dcb60e4870161016051613180565b92606487015260848601526003198583030160a4860152613180565b9060c4830152038173__$1a0918a2aa2208593bb0a5d7644cd0946b$__5af4908115614ec0576101805191614ece575b50156108815761014080510151151560a06101405101519060c06101405101516101006101405101519273__$1a0918a2aa2208593bb0a5d7644cd0946b$__3b15614b5157614e7f604051948593849363065339c960e21b855261018051966004860161428d565b038173__$1a0918a2aa2208593bb0a5d7644cd0946b$__5af48015614ec057614ea9575b5061446c565b614eb290612f10565b61018051614b515738614ea3565b6040513d61018051823e3d90fd5b90506020813d602011614f00575b81614ee960209383612f59565b81010312614b5157614efa90613961565b38614e17565b3d9150614edc565b50610140805101511515610140515183101480614fea575b61025e5760606101405101516080610140510151604051614f4981614389602082019485614155565b5190200361025e5761014080510151151560a06101405101519060c061014051015160e06101405101519273__$1a0918a2aa2208593bb0a5d7644cd0946b$__3b15614b5157614fb2604051948593849363065339c960e21b855261018051966004860161428d565b038173__$1a0918a2aa2208593bb0a5d7644cd0946b$__5af48015614ec057614fdb575061446c565b614fe490612f10565b38614ea3565b50600260405160208161016051516150088183856101605101612fec565b81018481520301902001544310614f20565b604051630cba69cb60e01b8152600490fd5b9091506020813d602011615058575b8161504860209383612f59565b81010312614b5157519038614ce4565b3d915061503b565b929060c0949260018060a01b0380921685521660208401526040830152606082015260a06080820152600060a08201520190565b6001600160a01b03918216815291166020820152604081019190915260600190565b90815180156000146153ec5750335b60a08301805115610398576060840160ff8151166020908187019060018060a01b039081835116604099608061510a8c83019460018060601b03948587511691613de2565b9101968b885180156000146153c257505081600052600a87528b600020548089521561536f575b60ff91505b51168061527d57505050808251169288519181836024816370a0823160e01b988982523060048301525afa92831561527257600093615242575b50836151af6151a18c611cda858798995116918c5190519384916323b872dd60e01b8a840152303360248501615094565b03601f198101845283612f59565b51169360248a518096819382523060048301525afa90811561523757600091615207575b506151de92506131b4565b808352156151f6576133079394505b51905191613f86565b8451632fd8225d60e21b8152600490fd5b905082813d8311615230575b61521d8183612f59565b81010312610289576151de9151386151d3565b503d615213565b88513d6000823e3d90fd5b9180935082813d831161526b575b61525a8183612f59565b810103126102895782915192615170565b503d615250565b8a513d6000823e3d90fd5b9194509290600181036152f85750511691511690803b156102895786516323b872dd60e01b81529160009183918290849082906152bf90303360048501615094565b03925af180156152ed576133079596506152de575b50600182526151ed565b6152e790612f10565b386152d4565b86513d6000823e3d90fd5b60021461530f575b505050506133079394506151ed565b51169151168351823b156102895761534292600092838a51809681958294637921219560e11b8452303360048601615060565b03925af180156152ed57613307959650615360575b85948180615300565b61536990612f10565b38615357565b61539c858751168d858751169060ff8551169181519361538e85612ebf565b84528b840152820152613e93565b60095460001981019081116104ab5760ff92818a52600052600a88528c60002055615131565b60ff9350906153d4610dac85936130ff565b878151168952858a8201511687520151168152615136565b6150c5565b90916000908282526020600581526040938484208385528252848420548185526004835285852084865283528585209081546000199888835b8381106154b957505050811091826154a0575b505061544c575b505050505050565b600019860361548c576154819550808452600582528484208385528252838581205583526004815283832091835252206131f5565b388080808080615444565b835260058152838320918352522055615481565b60019250906154ae91613134565b50015415388061543d565b8883888c8b6154c8868c613134565b509160018093015492831561556b578c866154e38a83613134565b50540361554757927f0971ac81b80f99fe0089c3fbe4af4fa1148f2ce78bc6345e76b05be73500de1f9492899261551d8460019d97613134565b50015561552b838988613fde565b6155358887614021565b8351928352820152a45b01899061542a565b505050505050505090506000198b14615563575b60019061553f565b99508961555b565b505050505050506001915061553f565b919091600083820193841291129080158216911516176104ab57565b919091825190602080850151906155ae84846134b0565b60005b604080880190815180518410156158f8576155da846155d181889461410d565b5151945161410d565b510151906155e88387613e53565b6155f28989614083565b83116158e9578561560f9181845193828580945193849201612fec565b810160038152030190208860005285528060002061562e838a8a613efa565b6156398382546131c1565b9384825580881093846158d2575b5083156158cb5787935b156158c257929390935b82519361566785612ea4565b8a6001968787528960005b81811061587f57505083600052878a5285600020826000528a5285600020549083600052888b5286600020836000528b52888760002054910154918751936156b985612eda565b84528b840152868301526060948583015260808201526156d886614100565b526156e285614100565b508351946156ef86612ea4565b8686528860005b81811061584b57505061570c6105eb8385613e53565b549185519361571a85612f23565b845289840152848301528282015261573184614100565b5261573b83614100565b5081519386850187865284518091528386019288858360051b8901019601946000905b83821061579c575050505050505081600193927f784575545124eef27f8fcc1472fb5f2483beb9cc23e6fe3dbf588eb7bd501f7c920390a1016155b1565b9091848b829596979899603f198c8203018a528a51906080810191805182528381015184830152868101519260808884015283518091528460a084019401906000905b808210615804575050509480849596015191015299019701920190949392919461575e565b939692959197509360a090608089518051835284810151858401528b8101518c8401528d8082015190840152015160808201520196019201928f93928996938c96936157df565b869895985161585981612f23565b60008152600083820152898882015260008a82015282828a0101520189909794976156f6565b90919250869895985161589181612eda565b60008152600083820152600088820152600060608201526000608082015282828a0101520190898d92989598615672565b5092869261565b565b8093615651565b6158e16001840191825461557b565b905538615647565b50600099505050505050505050565b506001985050505050505050565b600160ff1b81146104ab5760000390565b805115615a74576040805163e3af37e360e01b815260206004820181905260009384908390819061594c906024830190613180565b0381305afa9182918593615978575b50506159725750519061596d82612f3e565b815290565b91505090565b909192503d8086843e61598b8184612f59565b82018183820312615a705782516001600160401b0393848211615a6c57019080601f83011215615a68578151906159c182613988565b946159ce88519687612f59565b828652848087019360051b85010193828511615a6457858101935b8585106159ff575050505050505090388061595b565b8451838111615a6057820184603f82011215615a605787810151615a2281612f7c565b91615a2f8d519384612f59565b818352868d8383010111615a5c5791615a518a949285948f8685019101612fec565b8152019401936159e9565b8d80fd5b8b80fd5b8980fd5b8680fd5b8780fd5b8580fd5b50604051615a8181612f3e565b6000815290565b3d15615ab3573d90615a9982612f7c565b91615aa76040519384612f59565b82523d6000602084013e565b606090565b6020908181840312610289578051906001600160401b03821161028957019180601f84011215610289578251615aed81613988565b93615afb6040519586612f59565b818552838086019260051b820101928311610289578301905b828210615b22575050505090565b81518152908301908301615b14565b90919260018060a01b03808451169560405197602098898101906349fbda2960e01b825260048152615b6281612ea4565b6000998a92839251915afa615b75615a88565b81615d1c575b81615cf9575b50615c3957505091615bfb615bc99287988695615bdc97999899511695015190615bec604051998a9889978897630c6191f960e11b8952608060048a01526084890190614121565b60031995868983030160248a0152613180565b9084878303016044880152613180565b91848303016064850152613180565b03915afa918215615c2d578092615c1157505090565b612fe992503d8091833e615c258183612f59565b810190615ab8565b604051903d90823e3d90fd5b908891615cae8998615c7c96615c9f86615cc7988c51169b015192615c8f6040519a8b998a019c8d63270c5f3760e21b905260c060248c015260e48b0190614121565b60231995868b83030160448c0152613180565b90848983030160648a0152613180565b91868303016084870152613180565b9160a484015260c483015203601f198101835282612f59565b51915afa90615cd4615a88565b9115615cec579081612fe99282518301019101615ab8565b81511561025e5781519101fd5b90508981805181010312615d185789615d129101613961565b38615b81565b8880fd5b9050898151101590615b7b565b9060005b8251811015615d585781615d41828561410d565b515114615d5057600101615d2d565b505050600190565b505050600090565b600091829182602083519301915af1615d77615a88565b9015611917578051908115615dbd5760208210918215615d9a575b505061191757565b8192509060209181010312610289576020615db59101613961565b153880615d92565b5050565b9091928015615f6b57615df690615dd8858461325b565b615de28584614083565b818110615f655750805b81615f4f576131b4565b80158015615e06575b5050505050565b831561025e5783831461025e5761039857816000526020906004825260409081600020866000528352816000208251615e3e81612ea4565b868152848101918383528054600160401b81101561291557615e6591600182018155613134565b9290926131df5760019151835551910155836000526004835281600020866000528352816000205460001981019081116104ab577fae767eeb0c57abd46e2e0b422895ba3b89372fbd0510a58f00d996faf66f027d938115615f32575b85600052600681528360002088600052815283600020615ee38482546131c1565b9055856000526008815283600020615efb81546131a5565b905585600052600781528360002088600052815283600020615f1d81546131a5565b90558351928352820152a43880808080615dff565b856000526005815283600020886000528152600084812055615ec2565b615f5a828786613efa565b613384828787613f86565b90615dec565b5050505056fe1ffe8e6348fe244a8988797c02b57999821149e7b25c9f93a85c77819efdde67ab4d21442efe134c3d0c087e2b687e9593a1c09176f498d37873210cde052c45a18590ca9739b1d76d19b9d85b6a395a7cf75acb1e21e93c88207bf9abce5ae6990f4c22d4b046a9a7d673c4a252b906cadd4f3290465e297f998c28a449652ba2646970667358221220455521fac1a71c6c60cc42265b392a448f2957bf0f8a91e64f2f04add715bbf664736f6c63430008180033",
  "linkReferences": {
    "contracts/Account.sol": {
      "Account": [
        {
          "length": 20,
          "start": 4422
        },
        {
          "length": 20,
          "start": 7159
        },
        {
          "length": 20,
          "start": 8611
        },
        {
          "length": 20,
          "start": 9182
        },
        {
          "length": 20,
          "start": 17985
        },
        {
          "length": 20,
          "start": 20162
        },
        {
          "length": 20,
          "start": 20469
        },
        {
          "length": 20,
          "start": 20551
        },
        {
          "length": 20,
          "start": 20615
        },
        {
          "length": 20,
          "start": 20858
        },
        {
          "length": 20,
          "start": 20922
        }
      ]
    }
  },
  "deployedLinkReferences": {
    "contracts/Account.sol": {
      "Account": [
        {
          "length": 20,
          "start": 3906
        },
        {
          "length": 20,
          "start": 6643
        },
        {
          "length": 20,
          "start": 8095
        },
        {
          "length": 20,
          "start": 8666
        },
        {
          "length": 20,
          "start": 17469
        },
        {
          "length": 20,
          "start": 19646
        },
        {
          "length": 20,
          "start": 19953
        },
        {
          "length": 20,
          "start": 20035
        },
        {
          "length": 20,
          "start": 20099
        },
        {
          "length": 20,
          "start": 20342
        },
        {
          "length": 20,
          "start": 20406
        }
      ]
    }
  }
}