{
  "_format": "hh-sol-artifact-1",
  "contractName": "Depository",
  "sourceName": "contracts/Depository.sol",
  "abi": [
    {
      "inputs": [
        {
          "internalType": "address",
          "name": "_entityProvider",
          "type": "address"
        }
      ],
      "stateMutability": "nonpayable",
      "type": "constructor"
    },
    {
      "inputs": [],
      "name": "E0",
      "type": "error"
    },
    {
      "inputs": [],
      "name": "E1",
      "type": "error"
    },
    {
      "inputs": [],
      "name": "E10",
      "type": "error"
    },
    {
      "inputs": [],
      "name": "E2",
      "type": "error"
    },
    {
      "inputs": [],
      "name": "E3",
      "type": "error"
    },
    {
      "inputs": [],
      "name": "E4",
      "type": "error"
    },
    {
      "inputs": [],
      "name": "E5",
      "type": "error"
    },
    {
      "inputs": [],
      "name": "E6",
      "type": "error"
    },
    {
      "inputs": [],
      "name": "E7",
      "type": "error"
    },
    {
      "inputs": [],
      "name": "E8",
      "type": "error"
    },
    {
      "inputs": [],
      "name": "E9",
      "type": "error"
    },
    {
      "anonymous": false,
      "inputs": [
        {
          "components": [
            {
              "internalType": "bytes32",
              "name": "left",
              "type": "bytes32"
            },
            {
              "internalType": "bytes32",
              "name": "right",
              "type": "bytes32"
            },
            {
              "components": [
                {
                  "internalType": "uint256",
                  "name": "tokenId",
                  "type": "uint256"
                },
                {
                  "internalType": "uint256",
                  "name": "leftReserve",
                  "type": "uint256"
                },
                {
                  "internalType": "uint256",
                  "name": "rightReserve",
                  "type": "uint256"
                },
                {
                  "internalType": "uint256",
                  "name": "collateral",
                  "type": "uint256"
                },
                {
                  "internalType": "int256",
                  "name": "ondelta",
                  "type": "int256"
                }
              ],
              "internalType": "struct TokenSettlement[]",
              "name": "tokens",
              "type": "tuple[]"
            },
            {
              "internalType": "uint256",
              "name": "nonce",
              "type": "uint256"
            }
          ],
          "indexed": false,
          "internalType": "struct AccountSettlement[]",
          "name": "settled",
          "type": "tuple[]"
        }
      ],
      "name": "AccountSettled",
      "type": "event"
    },
    {
      "anonymous": false,
      "inputs": [
        {
          "indexed": true,
          "internalType": "bytes32",
          "name": "sender",
          "type": "bytes32"
        },
        {
          "indexed": true,
          "internalType": "bytes32",
          "name": "counterentity",
          "type": "bytes32"
        },
        {
          "indexed": true,
          "internalType": "uint256",
          "name": "nonce",
          "type": "uint256"
        }
      ],
      "name": "CooperativeClose",
      "type": "event"
    },
    {
      "anonymous": false,
      "inputs": [
        {
          "indexed": true,
          "internalType": "bytes32",
          "name": "debtor",
          "type": "bytes32"
        },
        {
          "indexed": true,
          "internalType": "bytes32",
          "name": "creditor",
          "type": "bytes32"
        },
        {
          "indexed": true,
          "internalType": "uint256",
          "name": "tokenId",
          "type": "uint256"
        },
        {
          "indexed": false,
          "internalType": "uint256",
          "name": "amount",
          "type": "uint256"
        },
        {
          "indexed": false,
          "internalType": "uint256",
          "name": "debtIndex",
          "type": "uint256"
        }
      ],
      "name": "DebtCreated",
      "type": "event"
    },
    {
      "anonymous": false,
      "inputs": [
        {
          "indexed": true,
          "internalType": "bytes32",
          "name": "debtor",
          "type": "bytes32"
        },
        {
          "indexed": true,
          "internalType": "bytes32",
          "name": "creditor",
          "type": "bytes32"
        },
        {
          "indexed": true,
          "internalType": "uint256",
          "name": "tokenId",
          "type": "uint256"
        },
        {
          "indexed": false,
          "internalType": "uint256",
          "name": "amountPaid",
          "type": "uint256"
        },
        {
          "indexed": false,
          "internalType": "uint256",
          "name": "remainingAmount",
          "type": "uint256"
        },
        {
          "indexed": false,
          "internalType": "uint256",
          "name": "newDebtIndex",
          "type": "uint256"
        }
      ],
      "name": "DebtEnforced",
      "type": "event"
    },
    {
      "anonymous": false,
      "inputs": [
        {
          "indexed": true,
          "internalType": "bytes32",
          "name": "debtor",
          "type": "bytes32"
        },
        {
          "indexed": true,
          "internalType": "bytes32",
          "name": "creditor",
          "type": "bytes32"
        },
        {
          "indexed": true,
          "internalType": "uint256",
          "name": "tokenId",
          "type": "uint256"
        },
        {
          "indexed": false,
          "internalType": "uint256",
          "name": "amountForgiven",
          "type": "uint256"
        },
        {
          "indexed": false,
          "internalType": "uint256",
          "name": "debtIndex",
          "type": "uint256"
        }
      ],
      "name": "DebtForgiven",
      "type": "event"
    },
    {
      "anonymous": false,
      "inputs": [
        {
          "indexed": true,
          "internalType": "bytes32",
          "name": "sender",
          "type": "bytes32"
        },
        {
          "indexed": true,
          "internalType": "bytes32",
          "name": "counterentity",
          "type": "bytes32"
        },
        {
          "indexed": true,
          "internalType": "uint256",
          "name": "nonce",
          "type": "uint256"
        },
        {
          "indexed": false,
          "internalType": "bytes32",
          "name": "initialProofbodyHash",
          "type": "bytes32"
        },
        {
          "indexed": false,
          "internalType": "bytes32",
          "name": "finalProofbodyHash",
          "type": "bytes32"
        }
      ],
      "name": "DisputeFinalized",
      "type": "event"
    },
    {
      "anonymous": false,
      "inputs": [
        {
          "indexed": true,
          "internalType": "bytes32",
          "name": "sender",
          "type": "bytes32"
        },
        {
          "indexed": true,
          "internalType": "bytes32",
          "name": "counterentity",
          "type": "bytes32"
        },
        {
          "indexed": true,
          "internalType": "uint256",
          "name": "nonce",
          "type": "uint256"
        },
        {
          "indexed": false,
          "internalType": "bytes32",
          "name": "proofbodyHash",
          "type": "bytes32"
        },
        {
          "indexed": false,
          "internalType": "bytes32",
          "name": "watchSeed",
          "type": "bytes32"
        },
        {
          "indexed": false,
          "internalType": "bytes",
          "name": "starterInitialArguments",
          "type": "bytes"
        },
        {
          "indexed": false,
          "internalType": "bytes",
          "name": "starterIncrementedArguments",
          "type": "bytes"
        }
      ],
      "name": "DisputeStarted",
      "type": "event"
    },
    {
      "anonymous": false,
      "inputs": [
        {
          "indexed": true,
          "internalType": "bytes32",
          "name": "entityId",
          "type": "bytes32"
        },
        {
          "indexed": true,
          "internalType": "bytes32",
          "name": "hankoHash",
          "type": "bytes32"
        },
        {
          "indexed": false,
          "internalType": "uint256",
          "name": "nonce",
          "type": "uint256"
        },
        {
          "indexed": false,
          "internalType": "bool",
          "name": "success",
          "type": "bool"
        }
      ],
      "name": "HankoBatchProcessed",
      "type": "event"
    },
    {
      "anonymous": false,
      "inputs": [
        {
          "indexed": true,
          "internalType": "bytes32",
          "name": "entity",
          "type": "bytes32"
        },
        {
          "indexed": true,
          "internalType": "uint256",
          "name": "tokenId",
          "type": "uint256"
        },
        {
          "indexed": false,
          "internalType": "uint256",
          "name": "newBalance",
          "type": "uint256"
        }
      ],
      "name": "ReserveUpdated",
      "type": "event"
    },
    {
      "anonymous": false,
      "inputs": [
        {
          "indexed": true,
          "internalType": "bytes32",
          "name": "hashlock",
          "type": "bytes32"
        },
        {
          "indexed": true,
          "internalType": "bytes32",
          "name": "revealer",
          "type": "bytes32"
        },
        {
          "indexed": false,
          "internalType": "bytes32",
          "name": "secret",
          "type": "bytes32"
        }
      ],
      "name": "SecretRevealed",
      "type": "event"
    },
    {
      "anonymous": false,
      "inputs": [
        {
          "indexed": true,
          "internalType": "address",
          "name": "tower",
          "type": "address"
        },
        {
          "indexed": true,
          "internalType": "bytes32",
          "name": "entityId",
          "type": "bytes32"
        },
        {
          "indexed": true,
          "internalType": "bytes32",
          "name": "counterentity",
          "type": "bytes32"
        },
        {
          "indexed": false,
          "internalType": "uint256",
          "name": "finalNonce",
          "type": "uint256"
        },
        {
          "indexed": false,
          "internalType": "uint256",
          "name": "appointmentSequence",
          "type": "uint256"
        }
      ],
      "name": "WatchtowerCounterDisputeExecuted",
      "type": "event"
    },
    {
      "inputs": [],
      "name": "DOMAIN_SEPARATOR",
      "outputs": [
        {
          "internalType": "bytes32",
          "name": "",
          "type": "bytes32"
        }
      ],
      "stateMutability": "view",
      "type": "function"
    },
    {
      "inputs": [],
      "name": "WATCHTOWER_COUNTER_DISPUTE_DOMAIN_SEPARATOR",
      "outputs": [
        {
          "internalType": "bytes32",
          "name": "",
          "type": "bytes32"
        }
      ],
      "stateMutability": "view",
      "type": "function"
    },
    {
      "inputs": [
        {
          "internalType": "bytes",
          "name": "",
          "type": "bytes"
        }
      ],
      "name": "_accounts",
      "outputs": [
        {
          "internalType": "uint256",
          "name": "nonce",
          "type": "uint256"
        },
        {
          "internalType": "bytes32",
          "name": "disputeHash",
          "type": "bytes32"
        },
        {
          "internalType": "uint256",
          "name": "disputeTimeout",
          "type": "uint256"
        },
        {
          "internalType": "uint256",
          "name": "disputeStartTimestamp",
          "type": "uint256"
        }
      ],
      "stateMutability": "view",
      "type": "function"
    },
    {
      "inputs": [
        {
          "internalType": "bytes32",
          "name": "",
          "type": "bytes32"
        }
      ],
      "name": "_activeDebts",
      "outputs": [
        {
          "internalType": "uint256",
          "name": "",
          "type": "uint256"
        }
      ],
      "stateMutability": "view",
      "type": "function"
    },
    {
      "inputs": [
        {
          "internalType": "bytes32",
          "name": "",
          "type": "bytes32"
        },
        {
          "internalType": "uint256",
          "name": "",
          "type": "uint256"
        }
      ],
      "name": "_activeDebtsByToken",
      "outputs": [
        {
          "internalType": "uint256",
          "name": "",
          "type": "uint256"
        }
      ],
      "stateMutability": "view",
      "type": "function"
    },
    {
      "inputs": [
        {
          "internalType": "bytes",
          "name": "",
          "type": "bytes"
        },
        {
          "internalType": "uint256",
          "name": "",
          "type": "uint256"
        }
      ],
      "name": "_collaterals",
      "outputs": [
        {
          "internalType": "uint256",
          "name": "collateral",
          "type": "uint256"
        },
        {
          "internalType": "int256",
          "name": "ondelta",
          "type": "int256"
        }
      ],
      "stateMutability": "view",
      "type": "function"
    },
    {
      "inputs": [
        {
          "internalType": "bytes32",
          "name": "",
          "type": "bytes32"
        },
        {
          "internalType": "uint256",
          "name": "",
          "type": "uint256"
        }
      ],
      "name": "_debtIndex",
      "outputs": [
        {
          "internalType": "uint256",
          "name": "",
          "type": "uint256"
        }
      ],
      "stateMutability": "view",
      "type": "function"
    },
    {
      "inputs": [
        {
          "internalType": "bytes32",
          "name": "",
          "type": "bytes32"
        },
        {
          "internalType": "uint256",
          "name": "",
          "type": "uint256"
        },
        {
          "internalType": "uint256",
          "name": "",
          "type": "uint256"
        }
      ],
      "name": "_debts",
      "outputs": [
        {
          "internalType": "bytes32",
          "name": "creditor",
          "type": "bytes32"
        },
        {
          "internalType": "uint256",
          "name": "amount",
          "type": "uint256"
        }
      ],
      "stateMutability": "view",
      "type": "function"
    },
    {
      "inputs": [
        {
          "internalType": "bytes32",
          "name": "",
          "type": "bytes32"
        },
        {
          "internalType": "uint256",
          "name": "",
          "type": "uint256"
        }
      ],
      "name": "_reserves",
      "outputs": [
        {
          "internalType": "uint256",
          "name": "",
          "type": "uint256"
        }
      ],
      "stateMutability": "view",
      "type": "function"
    },
    {
      "inputs": [
        {
          "internalType": "uint256",
          "name": "",
          "type": "uint256"
        }
      ],
      "name": "_tokens",
      "outputs": [
        {
          "internalType": "address",
          "name": "contractAddress",
          "type": "address"
        },
        {
          "internalType": "uint96",
          "name": "externalTokenId",
          "type": "uint96"
        },
        {
          "internalType": "uint8",
          "name": "tokenType",
          "type": "uint8"
        }
      ],
      "stateMutability": "view",
      "type": "function"
    },
    {
      "inputs": [
        {
          "internalType": "bytes32",
          "name": "e1",
          "type": "bytes32"
        },
        {
          "internalType": "bytes32",
          "name": "e2",
          "type": "bytes32"
        }
      ],
      "name": "accountKey",
      "outputs": [
        {
          "internalType": "bytes",
          "name": "",
          "type": "bytes"
        }
      ],
      "stateMutability": "pure",
      "type": "function"
    },
    {
      "inputs": [],
      "name": "admin",
      "outputs": [
        {
          "internalType": "address",
          "name": "",
          "type": "address"
        }
      ],
      "stateMutability": "view",
      "type": "function"
    },
    {
      "inputs": [
        {
          "components": [
            {
              "internalType": "bytes32",
              "name": "entity",
              "type": "bytes32"
            },
            {
              "internalType": "address",
              "name": "contractAddress",
              "type": "address"
            },
            {
              "internalType": "uint96",
              "name": "externalTokenId",
              "type": "uint96"
            },
            {
              "internalType": "uint8",
              "name": "tokenType",
              "type": "uint8"
            },
            {
              "internalType": "uint256",
              "name": "internalTokenId",
              "type": "uint256"
            },
            {
              "internalType": "uint256",
              "name": "amount",
              "type": "uint256"
            }
          ],
          "internalType": "struct ExternalTokenToReserve",
          "name": "params",
          "type": "tuple"
        }
      ],
      "name": "adminRegisterExternalToken",
      "outputs": [],
      "stateMutability": "nonpayable",
      "type": "function"
    },
    {
      "inputs": [
        {
          "internalType": "address",
          "name": "tower",
          "type": "address"
        },
        {
          "internalType": "bytes32",
          "name": "entityId",
          "type": "bytes32"
        },
        {
          "internalType": "bytes32",
          "name": "counterentity",
          "type": "bytes32"
        },
        {
          "internalType": "uint256",
          "name": "finalNonce",
          "type": "uint256"
        },
        {
          "internalType": "bytes32",
          "name": "finalProofbodyHash",
          "type": "bytes32"
        },
        {
          "internalType": "uint256",
          "name": "lastResortWindowBlocks",
          "type": "uint256"
        },
        {
          "internalType": "uint256",
          "name": "appointmentSequence",
          "type": "uint256"
        }
      ],
      "name": "computeWatchtowerCounterDisputeHash",
      "outputs": [
        {
          "internalType": "bytes32",
          "name": "",
          "type": "bytes32"
        }
      ],
      "stateMutability": "view",
      "type": "function"
    },
    {
      "inputs": [
        {
          "internalType": "bytes32",
          "name": "",
          "type": "bytes32"
        },
        {
          "internalType": "uint256",
          "name": "",
          "type": "uint256"
        }
      ],
      "name": "debtOutstanding",
      "outputs": [
        {
          "internalType": "uint256",
          "name": "",
          "type": "uint256"
        }
      ],
      "stateMutability": "view",
      "type": "function"
    },
    {
      "inputs": [
        {
          "internalType": "bytes",
          "name": "encoded",
          "type": "bytes"
        }
      ],
      "name": "decodeTransformerArgumentListStrict",
      "outputs": [
        {
          "internalType": "bytes[]",
          "name": "",
          "type": "bytes[]"
        }
      ],
      "stateMutability": "pure",
      "type": "function"
    },
    {
      "inputs": [],
      "name": "defaultDisputeDelay",
      "outputs": [
        {
          "internalType": "uint256",
          "name": "",
          "type": "uint256"
        }
      ],
      "stateMutability": "view",
      "type": "function"
    },
    {
      "inputs": [
        {
          "internalType": "bytes32",
          "name": "entity",
          "type": "bytes32"
        },
        {
          "internalType": "uint256",
          "name": "tokenId",
          "type": "uint256"
        },
        {
          "internalType": "uint256",
          "name": "maxIterations",
          "type": "uint256"
        }
      ],
      "name": "enforceDebts",
      "outputs": [],
      "stateMutability": "nonpayable",
      "type": "function"
    },
    {
      "inputs": [
        {
          "internalType": "bytes32",
          "name": "",
          "type": "bytes32"
        }
      ],
      "name": "entityNonces",
      "outputs": [
        {
          "internalType": "uint256",
          "name": "",
          "type": "uint256"
        }
      ],
      "stateMutability": "view",
      "type": "function"
    },
    {
      "inputs": [],
      "name": "entityProvider",
      "outputs": [
        {
          "internalType": "address",
          "name": "",
          "type": "address"
        }
      ],
      "stateMutability": "view",
      "type": "function"
    },
    {
      "inputs": [],
      "name": "getTokensLength",
      "outputs": [
        {
          "internalType": "uint256",
          "name": "",
          "type": "uint256"
        }
      ],
      "stateMutability": "view",
      "type": "function"
    },
    {
      "inputs": [
        {
          "internalType": "bytes32",
          "name": "entity",
          "type": "bytes32"
        },
        {
          "internalType": "uint256",
          "name": "tokenId",
          "type": "uint256"
        },
        {
          "internalType": "uint256",
          "name": "amount",
          "type": "uint256"
        }
      ],
      "name": "mintToReserve",
      "outputs": [],
      "stateMutability": "nonpayable",
      "type": "function"
    },
    {
      "inputs": [
        {
          "internalType": "address",
          "name": "",
          "type": "address"
        },
        {
          "internalType": "address",
          "name": "",
          "type": "address"
        },
        {
          "internalType": "uint256[]",
          "name": "",
          "type": "uint256[]"
        },
        {
          "internalType": "uint256[]",
          "name": "",
          "type": "uint256[]"
        },
        {
          "internalType": "bytes",
          "name": "",
          "type": "bytes"
        }
      ],
      "name": "onERC1155BatchReceived",
      "outputs": [
        {
          "internalType": "bytes4",
          "name": "",
          "type": "bytes4"
        }
      ],
      "stateMutability": "pure",
      "type": "function"
    },
    {
      "inputs": [
        {
          "internalType": "address",
          "name": "",
          "type": "address"
        },
        {
          "internalType": "address",
          "name": "",
          "type": "address"
        },
        {
          "internalType": "uint256",
          "name": "id",
          "type": "uint256"
        },
        {
          "internalType": "uint256",
          "name": "",
          "type": "uint256"
        },
        {
          "internalType": "bytes",
          "name": "",
          "type": "bytes"
        }
      ],
      "name": "onERC1155Received",
      "outputs": [
        {
          "internalType": "bytes4",
          "name": "",
          "type": "bytes4"
        }
      ],
      "stateMutability": "nonpayable",
      "type": "function"
    },
    {
      "inputs": [
        {
          "internalType": "bytes",
          "name": "encodedBatch",
          "type": "bytes"
        },
        {
          "internalType": "bytes",
          "name": "hankoData",
          "type": "bytes"
        },
        {
          "internalType": "uint256",
          "name": "nonce",
          "type": "uint256"
        }
      ],
      "name": "processBatch",
      "outputs": [
        {
          "internalType": "bool",
          "name": "completeSuccess",
          "type": "bool"
        }
      ],
      "stateMutability": "nonpayable",
      "type": "function"
    },
    {
      "inputs": [
        {
          "internalType": "bytes32",
          "name": "entity",
          "type": "bytes32"
        },
        {
          "internalType": "uint256",
          "name": "tokenId",
          "type": "uint256"
        }
      ],
      "name": "spendableReserve",
      "outputs": [
        {
          "internalType": "uint256",
          "name": "",
          "type": "uint256"
        }
      ],
      "stateMutability": "view",
      "type": "function"
    },
    {
      "inputs": [
        {
          "internalType": "bytes32",
          "name": "",
          "type": "bytes32"
        }
      ],
      "name": "tokenToId",
      "outputs": [
        {
          "internalType": "uint256",
          "name": "",
          "type": "uint256"
        }
      ],
      "stateMutability": "view",
      "type": "function"
    },
    {
      "inputs": [
        {
          "internalType": "bytes32",
          "name": "entityId",
          "type": "bytes32"
        },
        {
          "components": [
            {
              "internalType": "bytes32",
              "name": "counterentity",
              "type": "bytes32"
            },
            {
              "internalType": "uint256",
              "name": "initialNonce",
              "type": "uint256"
            },
            {
              "internalType": "uint256",
              "name": "finalNonce",
              "type": "uint256"
            },
            {
              "internalType": "bytes32",
              "name": "initialProofbodyHash",
              "type": "bytes32"
            },
            {
              "components": [
                {
                  "internalType": "bytes32",
                  "name": "watchSeed",
                  "type": "bytes32"
                },
                {
                  "internalType": "int256[]",
                  "name": "offdeltas",
                  "type": "int256[]"
                },
                {
                  "internalType": "uint256[]",
                  "name": "tokenIds",
                  "type": "uint256[]"
                },
                {
                  "components": [
                    {
                      "internalType": "address",
                      "name": "transformerAddress",
                      "type": "address"
                    },
                    {
                      "internalType": "bytes",
                      "name": "encodedBatch",
                      "type": "bytes"
                    },
                    {
                      "components": [
                        {
                          "internalType": "uint256",
                          "name": "deltaIndex",
                          "type": "uint256"
                        },
                        {
                          "internalType": "uint256",
                          "name": "rightAllowance",
                          "type": "uint256"
                        },
                        {
                          "internalType": "uint256",
                          "name": "leftAllowance",
                          "type": "uint256"
                        }
                      ],
                      "internalType": "struct Allowance[]",
                      "name": "allowances",
                      "type": "tuple[]"
                    }
                  ],
                  "internalType": "struct TransformerClause[]",
                  "name": "transformers",
                  "type": "tuple[]"
                }
              ],
              "internalType": "struct ProofBody",
              "name": "finalProofbody",
              "type": "tuple"
            },
            {
              "internalType": "bytes",
              "name": "leftArguments",
              "type": "bytes"
            },
            {
              "internalType": "bytes",
              "name": "rightArguments",
              "type": "bytes"
            },
            {
              "internalType": "bytes",
              "name": "starterInitialArguments",
              "type": "bytes"
            },
            {
              "internalType": "bytes",
              "name": "starterIncrementedArguments",
              "type": "bytes"
            },
            {
              "internalType": "bytes",
              "name": "sig",
              "type": "bytes"
            },
            {
              "internalType": "bool",
              "name": "startedByLeft",
              "type": "bool"
            },
            {
              "internalType": "uint256",
              "name": "disputeUntilBlock",
              "type": "uint256"
            },
            {
              "internalType": "bool",
              "name": "cooperative",
              "type": "bool"
            }
          ],
          "internalType": "struct FinalDisputeProof",
          "name": "params",
          "type": "tuple"
        },
        {
          "internalType": "uint256",
          "name": "lastResortWindowBlocks",
          "type": "uint256"
        },
        {
          "internalType": "uint256",
          "name": "appointmentSequence",
          "type": "uint256"
        },
        {
          "internalType": "bytes",
          "name": "ownerAuthorizationHanko",
          "type": "bytes"
        }
      ],
      "name": "watchtowerCounterDispute",
      "outputs": [
        {
          "internalType": "bool",
          "name": "completeSuccess",
          "type": "bool"
        }
      ],
      "stateMutability": "nonpayable",
      "type": "function"
    }
  ],
  "bytecode": "0x60c034620001a057601f6200618d38819003918201601f19168301926001600160401b0392909183851183861017620001a5578160209284926040978852833981010312620001a057516001600160a01b038082169291838103620001a05760009360018555156200018f576080523360a05283519160608301908111838210176200017b57845282825260208201908382528483019380855260095490680100000000000000008210156200016757600182018060095582101562000153579160019391602084600960ff9896522090851b0192511690838060a01b0319905160a01b161781550191511660ff1982541617905551615fd19081620001bc823960805181818161094e01528181610dee015281816118da01528181611e87015281816120cb01528181612bf3015281816143d90152614d22015260a0518181816101c80152818161026d01526104640152f35b634e487b7160e01b81526032600452602490fd5b634e487b7160e01b81526041600452602490fd5b634e487b7160e01b84526041600452602484fd5b8451633c4117f160e21b8152600490fd5b600080fd5b634e487b7160e01b600052604160045260246000fdfe6101a0604052600436101561001357600080fd5b60003560e01c80630dedd62414612d0a57806310340ce314612cf3578063125c2cc414612c745780633644e51514612c4b57806340530a9a14612c225780634318cdd014612bdd5780636b79134d14612bb15780637508b91614612b7e57806378152e6a14612b6557806378bc542a14612b325780637a4ef02514610ce657806382f437b114610ca357806388a1cd7614610c52578063907efb1b14610c355780639e8de81914610c02578063acd6f20814610bcf578063afe82efa146106c7578063b0c26ecf146106a9578063bc197c811461061e578063d19fd92e146105f2578063e3af37e3146104d5578063e812c56914610452578063ed70554d14610400578063edcc1b04146103d4578063f176e3261461039a578063f23a6e611461029c578063f851a440146102575763fdfef2011461015157600080fd5b346102525760c03660031901126102525760405161016e81612dcf565b60043581526001600160a01b0360243581811681036102525760208301526044356001600160601b038116810361025257604083015260643560ff81168103610252576060830152608435608083015260a43560a08301527f0000000000000000000000000000000000000000000000000000000000000000163314801590610239575b610227576002600054146102155761020e906002600055615046565b6001600055005b604051633018d46b60e11b8152600490fd5b604051633485c51360e21b8152600490fd5b50617a6946141580156101f25750617a6a4614156101f2565b600080fd5b34610252576000366003190112610252576040517f00000000000000000000000000000000000000000000000000000000000000006001600160a01b03168152602090f35b346102525760a0366003190112610252576102b5612f59565b506102be612f6f565b506084356001600160401b038111610252576102de903690600401612f2c565b505060018060601b03604435166040516020810190600282523360408201528260608201526060815261031081612dea565b5190209081600052600a6020526040600020541561033b575b60405163f23a6e6160e01b8152602090f35b60405161035f9161034b82612d86565b338252602082015260026040820152613e3b565b60095460001981019190821161038457600052600a6020526040600020558080610329565b634e487b7160e01b600052601160045260246000fd5b34610252576040366003190112610252576103d06103bc602435600435613dfb565b60405191829160208352602083019061301a565b0390f35b3461025257602036600319011261025257600435600052600b6020526020604060002054604051908152f35b346102525760203660031901126102525760043560095481101561025257610429606091612f99565b5060ff60018254920154166040519160018060a01b038116835260a01c60208301526040820152f35b346102525761046036612efc565b90337f00000000000000000000000000000000000000000000000000000000000000006001600160a01b0316148015906104bc575b6102275781156104aa576104a892613f2e565b005b60405163440a57bf60e01b8152600490fd5b50617a6946141580156104955750617a6a461415610495565b3461025257602080600319360112610252576001600160401b0360043581811161025257610507903690600401612f2c565b81019083818303126102525780359083821161025257019080601f830112156102525781359161053683613968565b936105446040519586612e20565b8385528585019086829560051b8401019380851161025257878498979801925b8584106105c757604080518981528a51818b01819052600092600582901b83018101918b918d9085015b82871061059b5785850386f35b9091929382806105b7600193603f198a8203018652885161301a565b960192019601959291909261058e565b83989798358381116102525789916105e4848480948a0101612e95565b815201930192979697610564565b3461025257602036600319011261025257600435600052600a6020526020604060002054604051908152f35b346102525760a036600319011261025257610637612f59565b50610640612f6f565b506001600160401b0360443581811161025257610661903690600401612fea565b50506064358181116102525761067b903690600401612fea565b505060843590811161025257610695903690600401612f2c565b5050604051633c4117f160e21b8152600490fd5b34610252576000366003190112610252576020600954604051908152f35b346102525760031960a036820112610252576001600160401b0360243511610252576101a09060243536030112610252576084356001600160401b03811161025257610717903690600401612f2c565b9060026000541461021557600260005561074161073c60243560040135600435613dfb565b612ed6565b600181015415610bbd57610184602435013580151581036102525761022757602219602435360301610124602435013512156102525760046024356101248101350190810135906001600160401b03821161025257602482360391011361025257156102275760443515610227578054604460243501351115610227576024803501356044602435013511156102275760026107df6044354361305b565b9101541161022757602435608481013592903603608219018312156102525760405160208082015260c081016004856024350101356040830152610830602486813501016004876024350101613dc6565b608060608501529182905260e083019160005b818110610ba7575061086391505060243586016044810190600401613dc6565b838303603f190160808501528083526001600160fb1b0381116102525760051b95919086906020830137808601602001916108a990602435016064810190600401613dc6565b809193601f19868a8601030160a0870152526040878301019660408260051b82850101019784936000925b848410610a6a5761094260408b8b6109208f6108fa8e809203601f198101835282612e20565b606435906044359060208151910120604460243501356024356004013560043533613d48565b8351631155a0c560e31b81526004810185905294859384936044850191613920565b602483019190915203817f00000000000000000000000000000000000000000000000000000000000000006001600160a01b03165afa8015610a5e57600091600091610a2d575b5015908115610a20575b50610a0e576109b26109aa36602435600401613a1e565b6004356142da565b1580610a0e57602090604051604460243501358152606435838201526024356004013590600435907fb209bafd9234f5eaba22fb2de42069934e9a20bb838ffc9afa40ede47dbe7d8760403392a4600160005560405190158152f35b604051631bd18a1960e31b8152600490fd5b9050600435141581610993565b9050610a51915060403d604011610a57575b610a498183612e20565b81019061394e565b82610989565b503d610a3f565b6040513d6000823e3d90fd5b90919293949599603f198284018203018452605e198b36030187351215610252576001600160a01b03610a9f88358d01612f85565b16815286358b0136819003601e190160209091013512156102525786358b016020810135016001600160401b038135116102525780353603602082011361025257610afb90606060208401526060830190602081359101613920565b9087358c0136819003601e190160409091013512156102525787358c01604081013501916001600160401b038335116102525760608335023603602084011361025257816040602093830391015282358152019060208101906000905b80358210610b7b5750919b97602090810197966001019501939291506108d49050565b909192606080600192863581526020870135602082015260408701356040820152019401920190610b58565b8235845260209384019390920191600101610843565b6040516388d0662b60e01b8152600490fd5b3461025257610bdd36612f16565b9060005260016020526040600020906000526020526020604060002054604051908152f35b3461025257610c1036612f16565b9060005260066020526040600020906000526020526020604060002054604051908152f35b346102525760003660031901126102525760206040516116808152f35b3461025257610c6036612efc565b9160005260046020526040600020906000526020526040600020805482101561025257604091610c8f91612fce565b506001815491015482519182526020820152f35b346102525760e0366003190112610252576020610cde610cc1612f59565b60c4359060a4359060843590606435906044359060243590613d48565b604051908152f35b34610252576060366003190112610252576004356001600160401b03811161025257610d16903690600401612f2c565b6024356001600160401b03811161025257610d35903690600401612f2c565b926002600054146102155760026000556040516359516e5f60e01b8152600080516020615f7c833981519152600482015246602482015230604482015260a060648201529060208280610d8c60a482018886613920565b6044356084830152038173__$1a0918a2aa2208593bb0a5d7644cd0946b$__5af4918215610a5e57600092612afe575b5060408051808094631155a0c560e31b8252836004830152610de2604483018a89613920565b602483019190915203817f00000000000000000000000000000000000000000000000000000000000000006001600160a01b03165afa8015610a5e57600092600091612ad9575b50158015612ad1575b610a0e5781600052600b60205260406000205460018101811161038457600101604435036102275781600052600b6020526044356040600020556020818581010312610252576001600160401b038135116102525761016081358201858301031261025257604051936001600160401b036101608601908111908611176125c95761016085016040526001600160401b038235830135116102525781810182358301803501601f011215610252578135820180350135610ef181613968565b90610eff6040519283612e20565b808252602082019083850160208260061b873588013588358901010101116102525784358501803501602001915b85358601803501600683901b016020018310612a9b5750505085526001600160401b038235830160200135116102525781810182358301602081013501601f011215610252578135820160208101350135610f8781613968565b90610f956040519283612e20565b8082526020820183850160206060840281883589010135883589010101011161025257602085358601818101350101905b853586016020818101359091016060850201018210612a7a5750505060208601526001600160401b038235830160400135116102525781810182358301604081013501601f011215610252576110258235830160408101350135613968565b6110326040519182612e20565b82358301604081013501803580835260208084019285870160059390931b0101116102525783358401604081013501602001905b84358501604081013501803560051b01602001821061292357505060408601526001600160401b038235830160600135116102525781810182358301606081013501601f0112156102525781358201606081013501356110c581613968565b906110d36040519283612e20565b8082526020820183850160208360051b606088358901013588358901010101116102525784358501606081013501602001905b85358601606081013501600584901b0160200182106128695750505060608601526001600160401b038235830160800135116102525781810182358301608081013501601f01121561025257813582016080810135013561116681613968565b906111746040519283612e20565b8082526020820183850160208360051b608088358901013588358901010101116102525784358501608081013501602001905b85358601608081013501600584901b0160200182106125df5750505060808601526001600160401b038235830160a0013511610252578181018235830160a081013501601f011215610252578135820160a0810135013561120781613968565b906112156040519283612e20565b8082526020820183850160208360051b60a08835890101358835890101010111610252578435850160a081013501602001905b8535860160a081013501600584901b0160200182106124705750505060a08601526001600160401b038235830160c0013511610252578181018235830160c081013501601f011215610252576112a78235830160c08101350135613968565b6112b46040519182612e20565b8235830160c081013501803580835260208084019285870160059390931b010111610252578335840160c081013501602001905b8435850160c081013501803560051b01602001821061243757505060c08601526001600160401b038235830160e0013511610252578181018235830160e081013501601f011215610252576113468235830160e08101350135613968565b6113536040519182612e20565b8235830160e081013501803580835260208084019285870160c0909302010111610252578335840160e081013501602001905b8435850160e081013501803560c0020160200182106123ad57505060e08601526001600160401b0382358301610100013511610252578181018235830161010081013501601f011215610252576113e7823583016101008101350135613968565b6113f46040519182612e20565b823583016101008101350180358083526020808401928587016060909302010111610252578335840161010081013501602001905b843585016101008101350180356060020160200182106123915750506101008601526001600160401b0382358301610120013511610252578181018235830161012081013501601f011215610252578135820161012081013501359061148e82613968565b9161149c6040519384612e20565b808352602083019180850160208360061b6101208835890101358835890101010111610252578435850161012081013501602001925b8535860161012081013501600684901b01602001841061235457505050506101208501526101408181923501013590840152603261159361158661157961156d61156161155561154961153d6115318c6020815151910151519061305b565b60408d0151519061305b565b60608c0151519061305b565b60808b0151519061305b565b60a08a0151519061305b565b60c0890151519061305b565b60e0880151519061305b565b610100870151519061305b565b610120860151519061305b565b116116475760088351511161164757604060208401515111611647576040808401515111611647576040606084015151116116475760206080840151511161164757600860a0840151511161164757600860c0840151511161164757604060e08401515111611647576040610100840151511161164757602061012084015151116116475760005b604084015180518210156116595760406116368382936140b5565b51015151116116475760010161161b565b60405163e217c62b60e01b8152600490fd5b50508383611668815151614076565b90611674815151614076565b91611680825151614076565b92600080915b84518051841015611763578361169b916140b5565b51519260206116ab8288516140b5565b510151936000905b848210611742575b8a878684146116f3575b5050506116ea6116e360019495966116dd848c6140b5565b5161305b565b91896140b5565b52019190611686565b86836116e3936116ea9561170d60019a9b611737966140b5565b5260005287602052604060002090600052602052604060002054611731828a6140b5565b5261303f565b959450508a876116c5565b908161174e82896140b5565b511461175d57600101906116b3565b906116bb565b5093915093918760005b86811061232b575060019660005b60e085015180518210156117b457906117a6611799826001946140b5565b518051156117ac57615046565b0161177b565b8c8152615046565b505087899760005b6020870151805182101561184157816117d4916140b5565b51906117e460208301518c6130f5565b60408201516117f760208401518d61402b565b1061182f57611829826118168d60206001960151604084015191613ea2565b8051906040602082015191015191613f2e565b016117bc565b604051632fd8225d60e21b8152600490fd5b505087899760005b60608901518051821015611981576020611865836080936140b5565b518c6118d860405194859384936328a3f8a760e11b8552600160048601526002602486015260036044860152606485015260c06084850152805160c48501528581015160e485015260408101516101048501526060810151610124850152015160a061014484015261016483019061301a565b7f00000000000000000000000000000000000000000000000000000000000000006001600160a01b031660a4830152038173__$1a0918a2aa2208593bb0a5d7644cd0946b$__5af4908115610a5e57600091611947575b501561193e575b600101611849565b60009450611936565b90506020813d602011611979575b8161196260209383612e20565b810103126102525761197390613941565b8b61192f565b3d9150611955565b505087899760808201518051611fbb575b5060a08201518051611e2f575b5060005b6101208301518051821015611a7857816119bc916140b5565b5180519091906001600160a01b0316156102275760018060a01b03825116916020810151833b1561025257600093602485926040519687938492636030754560e01b845260048401525af1908115610a5e576001938d92611a69575b507f47172349c05bf58f7f6a376def3bbc250cd3295a7eead0290d8fa3531c6ca9fb60208080840151604051828101918252828152611a5681612d6b565b519020930151604051908152a3016119a3565b611a7290612dbc565b8d611a18565b505087899760005b60c08501518051821015611ab957611a9b82611aa2926140b5565b518b6142da565b15611ab0575b600101611a80565b60009850611aa8565b505087899760005b60408701518051821015611afa57611adc82611ae3926140b5565b518b615541565b15611af1575b600101611ac1565b60009250611ae9565b505087899760005b6101008901518051821015611d2d5781611b1b916140b5565b51906040820151156104aa57611b3560208301518c6130f5565b611b4b611b456020840151612f99565b50614fbd565b916040810151611b608d60208401519061402b565b1061182f5780516001600160a01b03106102275760018060a01b0381511690600160ff6040860151161480611d1e575b6104aa57611ba88d6020830151604084015191613ea2565b604084015160ff1680611c05575060019291611bfd91604061010096868060a01b039051169101516040519263a9059cbb60e01b60208501526024840152604483015260448252611bf882612dea565b615d0a565b019050611b02565b60018103611c8457505082516020909301516001600160a01b03909316926001600160601b0316833b1561025257611c5893600092836040518097819582946323b872dd60e01b84523060048501615024565b03925af1908115610a5e5761010092600192611c75575b50611bfd565b611c7e90612dbc565b8c611c6f565b909390600214611c9e575b50506101009150600190611bfd565b8051602090910151604094909401516001600160601b0390941693906001600160a01b0316803b1561025257611cf0946000809460405197889586948593637921219560e11b85523060048601614ff0565b03925af1908115610a5e5761010092600192611d0f575b819250611c8f565b611d1890612dbc565b8c611d07565b50600160408201511415611b90565b50508894959660005b848110611d9d5750505050501591821592610a0e57602093611d59913691612e5e565b838151910120907fbd6e57133956b4a3944b483a9e595b4aab16071cf15a39384fdb1b7015865aab6040805160443581528587820152a36001600055604051908152f35b611da781836140b5565b51611dc7611db583876140b5565b51611dc084876140b5565b519061305b565b8860005260016020526040600020826000526020526040600020541061182f57611dfc611df483866140b5565b51828a613ea2565b876000526001602052604060002090600052602052604060002054611e2182866140b5565b511161182f57600101611d36565b604051906312f6ab5960e31b82528160a48101600260048301528c602483015260a06044830152825180915260c4820190602060c48260051b8501019401916000905b828210611f31575050611680606484015250507f00000000000000000000000000000000000000000000000000000000000000006001600160a01b031660848201526020918190038173__$1a0918a2aa2208593bb0a5d7644cd0946b$__5af4908115610a5e57600091611ef7575b5015611eee575b8961199f565b60009550611ee8565b90506020813d602011611f29575b81611f1260209383612e20565b8101031261025257611f2390613941565b8a611ee1565b3d9150611f05565b9193509193602080611fac60019360c3198a8203018652885190815181528382015184820152604082015160408201526060820151606082015260c0611f9b611f89608085015160e0608086015260e085019061301a565b60a085015184820360a086015261301a565b9201519060c081840391015261301a565b96019201920185939192611e72565b94989092939596976000985b86518a101561205657611fda8a886140b5565b519860005b60408b0151805182101561204757908b611ffb826001946140b5565b516000602082015112612035575b600060408201511261201e575b505001611fdf565b602061202e9201519051906130f5565b8b8f612016565b61204282518251906130f5565b612009565b50506001909a01999850611fc7565b95509591975095929791976080880151604051906328583d4560e21b82528160e48101600160048301526006602483015260026044830152600360648301528a608483015260e060a48301528251809152610104906020828401928260051b8501019401916000905b8282106121ff575050507f00000000000000000000000000000000000000000000000000000000000000006001600160a01b031660c4830152506020918190038173__$1a0918a2aa2208593bb0a5d7644cd0946b$__5af4908115610a5e576000916121c5575b50156121bc575b949097936000979397969296975b608085015180518a10156121ac5789612153916140b5565b519760005b60608a0151805182101561219d57906121978b61218a61217a846001966140b5565b518260208294519101519061539b565b60208d01518d519061539b565b01612158565b5050600190990198975061213b565b5095929893919750959389611992565b6000935061212d565b90506020813d6020116121f7575b816121e060209383612e20565b81010312610252576121f190613941565b8a612126565b3d91506121d3565b9193509193610103198682030182528451906101008101825182526020830151602083015260408301519061010060408401528151809152602061012084019201906000905b8082106122eb575050506060830151908281036060840152602080835192838152019201906000905b8082106122d3575050508260209260e0806122be61229b8796608060019a0151868203608088015261301a565b888060a01b0360a08701511660a086015260c086015185820360c087015261301a565b930151910152960192019201859391926120bf565b9091926020806001928651815201940192019061226e565b909192602060a060019260808751805183528481015185840152604081015160408401526060810151606084015201516080820152019401920190612245565b8061234e61233b600193866140b5565b5161234683896140b5565b51908c613f2e565b0161176d565b604084838801031261025257604060208092825161237181612d6b565b61237a88612f85565b8152828801358382015281520194019390506114d2565b60206060916123a28688018561397f565b815201910190611429565b60c0828587010312610252576040516123c581612dcf565b823581526123d560208401612f85565b602082015260408301356001600160601b03811690036102525760408381013590820152606083013560ff811690036102525760c091602091606085013560608201526080850135608082015260a085013560a0820152815201910190611386565b6001600160401b038235116102525760209081906124658787018835890160c0810135018635018401613a1e565b8152019101906112e8565b81356001600160401b0381116102525760e08735880160a081013501820187890103601f19011261025257604051906001600160401b0360e08301908111908311176125c95760e0820160409081528835890160a081810135909101830160208181013586528184013590860152606080820135938601939093526080810135928501929092526001600160401b039101351161025257612527878901602060a08b358c0181810135018501908101350101612e95565b60808301526001600160401b038835890160a081013501820160c00135116102525761256988880189358a0160a081013501830160c081013501602001612e95565b60a0838101919091526001600160401b0389358a0191820135909101820160e001351161025257602092839283926125b7908a8c01908c358d0160a0810135010160e0810135018501612e95565b60c08201528152019201919050611248565b634e487b7160e01b600052604160045260246000fd5b81356001600160401b0381116102525761010087358801608081013501820187890103601f19011261025257604051906001600160401b036101008301908111908311176125c95761010082016040908152602060808a358b01908101350183018181013585529182013590840152606001356001600160401b0381116102525788880189358a0160808101350183018201603f011215610252578835890160808101350182018101602001359061269682613968565b916126a46040519384612e20565b808352602083018b8b018c358d016080810135018601840160a084020160400111610252578b358c0160808101350185018301604001905b8b8d803581016080810135018801860160a086020160400184106128175750505050506040840191909152506001600160401b03608089358a018181013501830101351161025257612744878901602060808b358c01818101350185019081013501016139b1565b60608301526001600160401b0388358901608081013501820160a00135116102525761278688880189358a01608081013501830160a081013501602001612e95565b60808301526127a560c08260808b358c0101358b358c01010101612f85565b60a08301526001600160401b0388358901608081013501820160e00135116102525760209283928392610100906127f18b8d018d358e01608081013501830160e0810135018701612e95565b60c08401528b358c0160808101350101013560e0820152815291909301920190506111a7565b60a091849101031261025257602060a09160405161283481612da1565b8435815282850135838201526040850135604082015260608501356060820152608085013560808201528152019101906126dc565b81356001600160401b0381116102525760a087358801606081013501820187890103601f19011261025257604051906128a182612da1565b6020606089358a01818101350183018281013585526040808201359386019390935280820135928501929092526080820135908401526001600160401b0360a090910135116102525760209283928392612911908a8c01908c358d016060810135010160a0810135018501612e95565b60808201528152019201919050611106565b81356001600160401b03811161025257606086358701604081013501820186880103601f190112610252576040519061295b82612d86565b6020604088358901818101350183018281013585529081013591840191909152606001356001600160401b038111610252578787018835890160408101350183018201603f011215610252578735880160408101350182018101602001356129c281613968565b926129d06040519485612e20565b81845260208401908a8a018b358c0160408181013590910183018601600686901b0101116102525760408b358c0181810135018201850101915b8a8c60408660061b8886838535860101358535860101010101018510612a4757505050505050509181602093604085940152815201910190611066565b60409185910103126102525760206040918251612a6381612d6b565b853581528286013583820152815201920191612a0a565b60608060208093612a8d898b018761397f565b815201930192915050610fc6565b6040838688010312610252576040602080928251612ab881612d6b565b8635815282870135838201528152019301929050610f2d565b508115610e32565b9050612af591925060403d604011610a5757610a498183612e20565b91909186610e29565b9091506020813d602011612b2a575b81612b1a60209383612e20565b8101031261025257519085610dbc565b3d9150612b0d565b3461025257612b4036612f16565b9060005260076020526040600020906000526020526020604060002054604051908152f35b34610252576020610cde612b7836612f16565b9061402b565b3461025257612b8c36612f16565b9060005260056020526040600020906000526020526020604060002054604051908152f35b346102525760203660031901126102525760043560005260086020526020604060002054604051908152f35b34610252576000366003190112610252576040517f00000000000000000000000000000000000000000000000000000000000000006001600160a01b03168152602090f35b34610252576000366003190112610252576020604051600080516020615f5c8339815191528152f35b34610252576000366003190112610252576020604051600080516020615f7c8339815191528152f35b34610252576020366003190112610252576004356001600160401b03811161025257612cbe6020612cab6080933690600401612e95565b8160405193828580945193849201612eb3565b810160028152030190208054906001810154906003600282015491015491604051938452602084015260408301526060820152f35b34610252576104a8612d0436612efc565b916136a0565b34610252576040366003190112610252576004356001600160401b038111610252576020612cab612d3f923690600401612e95565b810160038152030190206024356000526020526040806000206001815491015482519182526020820152f35b604081019081106001600160401b038211176125c957604052565b606081019081106001600160401b038211176125c957604052565b60a081019081106001600160401b038211176125c957604052565b6001600160401b0381116125c957604052565b60c081019081106001600160401b038211176125c957604052565b608081019081106001600160401b038211176125c957604052565b602081019081106001600160401b038211176125c957604052565b601f909101601f19168101906001600160401b038211908210176125c957604052565b6001600160401b0381116125c957601f01601f191660200190565b929192612e6a82612e43565b91612e786040519384612e20565b829481845281830111610252578281602093846000960137010152565b9080601f8301121561025257816020612eb093359101612e5e565b90565b60005b838110612ec65750506000910152565b8181015183820152602001612eb6565b6020612eef918160405193828580945193849201612eb3565b8101600281520301902090565b606090600319011261025257600435906024359060443590565b6040906003190112610252576004359060243590565b9181601f84011215610252578235916001600160401b038311610252576020838186019501011161025257565b600435906001600160a01b038216820361025257565b602435906001600160a01b038216820361025257565b35906001600160a01b038216820361025257565b600954811015612fb857600960005260206000209060011b0190600090565b634e487b7160e01b600052603260045260246000fd5b8054821015612fb85760005260206000209060011b0190600090565b9181601f84011215610252578235916001600160401b038311610252576020808501948460051b01011161025257565b9060209161303381518092818552858086019101612eb3565b601f01601f1916010190565b60001981146103845760010190565b9190820391821161038457565b9190820180921161038457565b906130795760018160008093550155565b634e487b7160e01b600052600060045260246000fd5b805490600090818155826130a257505050565b6001906001600160ff1b03841684036130e1578252602082209260011b8301925b8381106130d05750505050565b8083600292558383820155016130c3565b634e487b7160e01b83526011600452602483fd5b600081815260049260206004815260409384842083855282528484209586549081156133345782865260058452868620858752845286862054978289101561332b575b90838752600191600186528888208789528652888820548389905b6131a3575b505050505086101561317557835260058152838320918352522055565b6131a195508084526005825284842083855282528385812055835260048152838320918352522061308f565b565b858c929394959c1080613322575b1561331a57906131c28c939261303f565b916131cd8286612fce565b5090848201918254958615613305575081156132fc57549190613229908c90613223908c90898110156132ef5761321e81809581945b61320e838383613ea2565b61321983838d613f2e565b613f86565b61304e565b9661304e565b9061323582825461304e565b91806132ba57508c90558d83018084116132a75761329d928f969594928f8f8f94928f938f9493606093600080516020615f1c833981519152958251948552840152820152a46132858b8a613fc9565b6132986132928288612fce565b90613068565b61303f565b9b5b949392613153565b634e487b7160e01b8d526011885260248dfd5b849f9695948f8e94600080516020615f1c833981519152928f928f95606094818e9b99558251948552840152820152a461329f565b61321e8a80958194613203565b5050509a613158565b9550509291613314915061303f565b9b61329f565b819b50613158565b508781106131b1565b97508597613138565b5050835260058152838320918352529081205550565b60008181526004926020600481526040938484208385528252848420958654908115613334578286526005845286862085875284528686205497828910156134ec575b90838752600191600186528888208789528652888820548389905b6133c957505050505086101561317557835260058152838320918352522055565b858c929394959c10806134e3575b1561331a57906133e88c939261303f565b916133f38286612fce565b50908482019182549586156134ce575081156132fc57549190613433908c90613223908c90898110156132ef5761321e818095819461320e838383613ea2565b9061343f82825461304e565b918061349957508c90558d83018084116132a75761348f928f969594928f8f8f94928f938f9493606093600080516020615f1c833981519152958251948552840152820152a46132858b8a613fc9565b9b5b9493926133a8565b849f9695948f8e94600080516020615f1c833981519152928f928f95606094818e9b99558251948552840152820152a4613491565b95505092916134dd915061303f565b9b613491565b508781106133d7565b9750859761338d565b6000818152600492602060048152604093848420838552825284842095865490811561333457828652600584528686208587528452868620549782891015613697575b90838752600191600186528888208789528652888820548389905b61357457505050505086101561317557835260058152838320918352522055565b858c929394959c108061368e575b1561331a57906135938c939261303f565b9161359e8286612fce565b5090848201918254958615613679575081156132fc575491906135de908c90613223908c90898110156132ef5761321e818095819461320e838383613ea2565b906135ea82825461304e565b918061364457508c90558d83018084116132a75761363a928f969594928f8f8f94928f938f9493606093600080516020615f1c833981519152958251948552840152820152a46132858b8a613fc9565b9b5b949392613553565b849f9695948f8e94600080516020615f1c833981519152928f928f95606094818e9b99558251948552840152820152a461363c565b9550509291613688915061303f565b9b61363c565b50878110613582565b97508597613538565b806000526004602052604060002082600052602052604060002080549081156138fe5782600052600560205260406000208460005260205260406000205494828610156138f5575b836000526001906001602052604060002086600052602052816040600020549180156000146138eb5750919291506000195b6000845b61378b575b505050505083101561374b576000526005602052604060002090600052602052604060002055565b8091925060005260056020526040600020826000526020526000604081205560005260046020526040600020906000526020526131a1604060002061308f565b85899394959910806138e2575b156138da576137a69061303f565b916137b18186612fce565b509089820154948a86156138c5575080156138bd57906138026132196132238c869561321e8e839c9b9a99549c8d918d85106000146138b157849788809781955b6137fd838387613ea2565b613f2e565b91613810838d83015461304e565b928061387857508b60009101558a810191828211610384578b968a600080516020615f1c83398151915260608e9461386c97604051918252600060208301526040820152a461385f8a8a613fc9565b6132986132928289612fce565b985b949391909161371e565b600080516020615f1c83398151915260608e999395859f96958f96948f95898291015560405192835260208301526040820152a461386e565b8d9788809781956137f2565b509850613723565b9550939291506138d49061303f565b9861386e565b829850613723565b50818110613798565b905092919261371a565b600095506136e8565b5050909150600052600560205260406000209060005260205260006040812055565b908060209392818452848401376000828201840152601f01601f1916010190565b5190811515820361025257565b919082604091031261025257612eb0602083519301613941565b6001600160401b0381116125c95760051b60200190565b91908260609103126102525760405161399781612d86565b604080829480358452602081013560208501520135910152565b9080601f830112156102525760209082356139cb81613968565b936139d96040519586612e20565b81855260208086019260051b82010192831161025257602001905b828210613a02575050505090565b813581529083019083016139f4565b3590811515820361025257565b9190916101a09081818503126102525760408051909490926001600160401b03908401818111858210176125c9578652839583358552602090818501358287015280850135818701526060808601358188015260808601358481116102525786019260808487031261025257825193613a9685612dea565b803585528181013586811161025257810187601f8201121561025257803590613abe82613968565b91613acb87519384612e20565b808352848084019160051b830101918a83116102525785809101915b838310613d385750915050860152838101358681116102525787613b0c9183016139b1565b848601528281013590868211610252570186601f82011215610252578035613b3381613968565b94613b4081519687612e20565b818652838087019260051b8401019289841161025257848101925b848410613c3357505050505050820152608085015260a08301358181116102525782613b88918501612e95565b60a085015260c08301358181116102525782613ba5918501612e95565b60c085015260e08301358181116102525782613bc2918501612e95565b60e0850152610100808401358281116102525783613be1918601612e95565b90850152610120918284013591821161025257613bff918401612e95565b90830152610140613c11818301613a11565b908301526101608082013590830152613c2e610180809201613a11565b910152565b83358a8111610252578201808c03601f1901881361025257835190613c5782612d86565b613c62888201612f85565b8252848101358c8111610252578d89613c7d92840101612e95565b8883015288810135908c821161025257018c603f82011215610252578c88820135613ca781613968565b92613cb488519485612e20565b818452878c8c8601930282010192831161025257918f9593918c898d979501975b838910613cf2575050505083945086820152815201930192613b5b565b889496989192939597500312610252578a8c918951613d1081612d86565b8435815282850135838201528a8501358b8201528152019101949290918f928c8c9694613cd5565b8235815291810191869101613ae7565b95939194929094604051956020870197600080516020615f5c833981519152895246604089015230606089015260018060a01b0316608088015260a087015260c086015260e085015261010084015261012083015261014090818301528152610160810181811060018060401b038211176125c95760405251902090565b9035601e1982360301811215610252570160208101919035906001600160401b038211610252578160051b3603831361025257565b9080821015613e1f57604051916020830152604082015260408152612eb081612d86565b90604051916020830152604082015260408152612eb081612d86565b600954600160401b8110156125c957806001613e5a9201600955612f99565b613079578151602083015160a01b6001600160a01b0319166001600160a01b039190911617815560409190910151600191909101805460ff191660ff92909216919091179055565b90918015613f2957600090828252602091600183526040918282208683528452808383205410613f18579181600080516020615f3c833981519152949386839452600185528282208883528552613efd83832091825461304e565b905585815260018452818120878252845220549051908152a3565b8251632fd8225d60e21b8152600490fd5b505050565b90918015613f295760206040600080516020615f3c83398151915292600090858252600184528282208783528452613f6a83832091825461305b565b90558481526001835281812086825283522054604051908152a3565b90918015613f295760009282845260066020526040842081855260205260408420549082821061182f576040938552600660205283852090855260205203912055565b9060009082825260086020526040822080548061401e575b5050600760205260408220818352602052604082205461400057505050565b60409282526007602052828220908252602052206000198154019055565b6000190190553880613fe1565b600091818352600160205260408320818452602052604083205491835260066020526040832090835260205260408220549081811160001461407157612eb0925061304e565b505090565b9061408082613968565b61408d6040519182612e20565b828152809261409e601f1991613968565b0190602036910137565b805115612fb85760200190565b8051821015612fb85760209160051b010190565b90815180825260208080930193019160005b8281106140e9575050505090565b8351855293810193928101926001016140db565b906020808352815181840152808201519061412460409260808487015260a08601906140c9565b918084015190601f19946060948688820301606089015284808551928381520194019060005b81811061422c575050506060015195608086828503019101528551938483528383019184808760051b8601019801966000945b8786106141905750505050505050505090565b90919293949596979882828203018652878a5160018060a01b038151168352856141c58383015189858701528986019061301a565b91015192868183039101528180845192838152019301906000905b888183106142035750505050806001929b0196019601949796959392919061417d565b8395896001949693955180518352848101518584015201518a82015201940192018a92916141e0565b82518652948601949186019160010161414a565b92614262612eb09593614270931515865260806020870152608086019061301a565b90848203604086015261301a565b91606081840391015261301a565b6001600160a01b03918216815291166020820152610100604082018190529097969560e0956142d595919390926142b891908b019061301a565b9360608a0152608089015260a088015286820360c088015261301a565b930152565b90610140526142f3610140515160006101805282613dfb565b6101605261014051610180015115614b7d57604080516101605151602091828181610160510193614325818387612eb3565b810160028152030190205415614b6c5782610140510190614356838351928651809381926101605151928391612eb3565b81016002815203019020541015614b5b5761012061014051019081515115614b4a57829051608061014051015185516143a48161439686820194856140fd565b03601f198101835282612e20565b5190209061440160e061014051015184815191012094516101405151908851968795869563bba8d94760e01b875261016051307f000000000000000000000000000000000000000000000000000000000000000060048a0161427e565b038173__$1a0918a2aa2208593bb0a5d7644cd0946b$__5af4918215614b3d576101805192614b00575b505015614af057505b4261018061014051015115614ac1575b6040516001610160515191614460838260206101605101612eb3565b6002838201526020816101805194810103019020015560405160026101605151614491818460206101605101612eb3565b8201918183526020816101805194030190200155604051600361016051516144c0818460206101605101612eb3565b82019160028352602081610180519403019020015542429161018061014051015115614aa2575b50610140515160806101405101519360a06101405101519460c0610140510151956040820151516020830151510361478157838310938415614a9b5783945b15614a8c5794929097969593955b61453e8688613dfb565b9860408401515161454e81613968565b9061455c6040519283612e20565b80825261456881613968565b601f19013660208401378160a052610180515b8181106149e0575050509061459261459b926158c1565b610100526158c1565b9161018051985b606082015180518b10156147c8578a6145ba916140b5565b516101205261010051518a10156147ac5761460386866145dd8d610100516140b5565b515b87518e90811015614793576145f490896140b5565b51905b6101205160a051615adb565b60e05260e0515160a0515103614781576101805160c0525b6040610120510151805160c05110156146fa5760c05161463a916140b5565b51805160a05151111561022757614654815160e0516140b5565b5190614663815160a0516140b5565b5161018051811283828103128116908483810313901516176146e0576101805181840313806146d1575b61022757610180518184031292836146b5575b50505061022757600160c0510160c05261461b565b6020929350906146c591036158b0565b910151103880806146a0565b5060408201518184031161468d565b634e487b7160e01b61018051526011600452602461018051fd5b5090919293949596610180516080525b60a0515160805110156147695761472a6080516040610120510151615cd3565b1580614743575b6102275760016080510160805261470a565b5061475260805160e0516140b5565b5161476160805160a0516140b5565b511415614731565b60e05160a052600190990198969594939291906145a2565b6040516329be7c4760e11b8152600490fd5b506040516147a081612e05565b610180518152906145f7565b61460386866040516147bd81612e05565b6101805181526145df565b5096959450969250965050610180515b604086015180518210156148f857816147f56040936001936140b5565b51866148038360a0516140b5565b519161481d60208b81895193828580945193849201612eb3565b81016003815203019020816101805152602052856101805120928354610180518213156000146148985761485992935080614887575b506158b0565b80614875575b50505b61018051808255908301550190506147d8565b61488091888a615d6b565b388061485f565b61489290848b613f2e565b38614853565b908181106148da576148b0929350816148cf5761304e565b806148bd575b5050614862565b6148c8918989615d6b565b38806148b6565b61321e82858d613f2e565b6148ec9161321e82856148f397613f2e565b9088613f2e565b614862565b50509493505050506101206101405101515115156000146149aa57604061014051015160405160208161016051516149368183856101605101612eb3565b81016002815203019020555b61014051516020610140510151917f6d46d52b5fda2a9055705ba74bf5e95807cfa39decf819cdfeaa14f9b2ba346a6040606061014051015160806101405101518251614997816143966020820194856140fd565b51902082519182526020820152a4600190565b60405160208161016051516149c58183856101605101612eb3565b810160028152030190206149d9815461303f565b9055614942565b6149f78160409d9e97999b9d899d9b9d01516140b5565b51610180515b828110614a6f57509060019160405160208181614a208c83815193849201612eb3565b81016003815203019020906101805152602052614a5582604061018051200154614a4e8360208c01516140b5565b5190615525565b614a5f82866140b5565b52019b9a9896949b99979961457b565b81614a7e8260408c01516140b5565b5114614781576001016149fd565b50829492909796959395614534565b8094614526565b6101408051015190919015614ab957505b386144e7565b915090614ab3565b5060036040516020816101605151614adf8183856101605101612eb3565b810160028152030190200154614444565b51631bd18a1960e31b8152600490fd5b90809250813d8311614b36575b614b178183612e20565b81010312614b2f57614b2890613941565b388061442b565b6101805180fd5b503d614b0d565b83513d61018051823e3d90fd5b8351631bd18a1960e31b8152600490fd5b8251633485c51360e21b8152600490fd5b82516388d0662b60e01b8152600490fd5b60016040516020816101605151614b9a8183856101605101612eb3565b8101600281520301902001548015610bbd576020610140510151906020610140805101511515600260405183816101605151614bdc8183856101605101612eb3565b810184815203019020015493614c516060610140510151614c3f60e061014051015161010061014051015192604051998a978897637fa40de560e01b8952600489015260248801526044870152606486015260c0608486015260c485019061301a565b8381036003190160a48501529061301a565b038173__$1a0918a2aa2208593bb0a5d7644cd0946b$__5af4918215614e1d576101805192614f89575b5003614f7757610140516101200180515115614e65576040610140510180516040516020816101605151614cb58183856101605101612eb3565b81016002815203019020541015610227578051602061014051015110156102275760209060806101405101614d4a8151604051614cf98161439688820194856140fd565b519020925191515194516101405151906040519687958695638747b84160e01b875261016051307f000000000000000000000000000000000000000000000000000000000000000060048a0161427e565b038173__$1a0918a2aa2208593bb0a5d7644cd0946b$__5af4908115614e1d576101805191614e2b575b5015610a0e5761014080510151151560a06101405101519060c06101405101516101006101405101519273__$1a0918a2aa2208593bb0a5d7644cd0946b$__3b15614b2f57614ddc604051948593849363065339c960e21b8552610180519660048601614240565b038173__$1a0918a2aa2208593bb0a5d7644cd0946b$__5af48015614e1d57614e06575b50614434565b614e0f90612dbc565b61018051614b2f5738614e00565b6040513d61018051823e3d90fd5b90506020813d602011614e5d575b81614e4660209383612e20565b81010312614b2f57614e5790613941565b38614d74565b3d9150614e39565b50610140805101511515610140515182101480614f47575b6102275760606101405101516080610140510151604051614ea6816143966020820194856140fd565b519020036102275761014080510151151560a06101405101519060c061014051015160e06101405101519273__$1a0918a2aa2208593bb0a5d7644cd0946b$__3b15614b2f57614f0f604051948593849363065339c960e21b8552610180519660048601614240565b038173__$1a0918a2aa2208593bb0a5d7644cd0946b$__5af48015614e1d57614f385750614434565b614f4190612dbc565b38614e00565b5060026040516020816101605151614f658183856101605101612eb3565b81018481520301902001544310614e7d565b604051630cba69cb60e01b8152600490fd5b9091506020813d602011614fb5575b81614fa560209383612e20565b81010312614b2f57519038614c7b565b3d9150614f98565b90604051614fca81612d86565b82546001600160a01b038116825260a01c602082015260019092015460ff166040830152565b929060c0949260018060a01b0380921685521660208401526040830152606082015260a06080820152600060a08201520190565b6001600160a01b03918216815291166020820152604081019190915260600190565b90815180156000146153965750335b60a083018051156104aa576060840160ff8151166020908187019060018060a01b03908183511660409960808b8201938c60018060601b039485875116908251928b84019485528301526060820152606081526150b181612dea565b5190209101968b8851801560001461536c57505081600052600a87528b6000205480895215615319575b60ff91505b51168061522757505050808251169288519181836024816370a0823160e01b988982523060048301525afa92831561521c576000936151ec575b508361515961514b8c611bf8858798995116918c5190519384916323b872dd60e01b8a840152303360248501615024565b03601f198101845283612e20565b51169360248a518096819382523060048301525afa9081156151e1576000916151b1575b50615188925061304e565b808352156151a0576131a19394505b51905191613f2e565b8451632fd8225d60e21b8152600490fd5b905082813d83116151da575b6151c78183612e20565b810103126102525761518891513861517d565b503d6151bd565b88513d6000823e3d90fd5b9180935082813d8311615215575b6152048183612e20565b81010312610252578291519261511a565b503d6151fa565b8a513d6000823e3d90fd5b9194509290600181036152a25750511691511690803b156102525786516323b872dd60e01b815291600091839182908490829061526990303360048501615024565b03925af18015615297576131a1959650615288575b5060018252615197565b61529190612dbc565b3861527e565b86513d6000823e3d90fd5b6002146152b9575b505050506131a1939450615197565b51169151168351823b15610252576152ec92600092838a51809681958294637921219560e11b8452303360048601614ff0565b03925af18015615297576131a195965061530a575b859481806152aa565b61531390612dbc565b38615301565b615346858751168d858751169060ff8551169181519361533885612d86565b84528b840152820152613e3b565b60095460001981019081116103845760ff92818a52600052600a88528c600020556150db565b60ff93509061537e611b458593612f99565b878151168952858a82015116875201511681526150e0565b615055565b90916000908282526020600581526040938484208385528252848420548185526004835285852084865283528585209081546000199888835b838110615463575050508110918261544a575b50506153f6575b505050505050565b60001986036154365761542b95508084526005825284842083855282528385812055835260048152838320918352522061308f565b3880808080806153ee565b83526005815283832091835252205561542b565b600192509061545891612fce565b5001541538806153e7565b8883888c8b615472868c612fce565b5091600180930154928315615515578c8661548d8a83612fce565b5054036154f157927f0971ac81b80f99fe0089c3fbe4af4fa1148f2ce78bc6345e76b05be73500de1f949289926154c78460019d97612fce565b5001556154d5838988613f86565b6154df8887613fc9565b8351928352820152a45b0189906153d4565b505050505050505090506000198b1461550d575b6001906154e9565b995089615505565b50505050505050600191506154e9565b9190916000838201938412911290801582169115161761038457565b91909182519060208085015190615558848461334a565b60005b604080880190815180518410156158a2576155848461557b8188946140b5565b515194516140b5565b510151906155928387613dfb565b61559c898961402b565b831161589357856155b99181845193828580945193849201612eb3565b81016003815203019020886000528552806000206155d8838a8a613ea2565b6155e383825461305b565b93848255808810938461587c575b5083156158755787935b1561586c57929390935b82519361561185612d6b565b8a6001968787528960005b81811061582957505083600052878a5285600020826000528a5285600020549083600052888b5286600020836000528b528887600020549101549187519361566385612da1565b84528b84015286830152606094858301526080820152615682866140a8565b5261568c856140a8565b5083519461569986612d6b565b8686528860005b8181106157f55750506156b661073c8385613dfb565b54918551936156c485612dea565b84528984015284830152828201526156db846140a8565b526156e5836140a8565b5081519386850187865284518091528386019288858360051b8901019601946000905b838210615746575050505050505081600193927f784575545124eef27f8fcc1472fb5f2483beb9cc23e6fe3dbf588eb7bd501f7c920390a10161555b565b9091848b829596979899603f198c8203018a528a51906080810191805182528381015184830152868101519260808884015283518091528460a084019401906000905b8082106157ae5750505094808495960151910152990197019201909493929194615708565b939692959197509360a090608089518051835284810151858401528b8101518c8401528d8082015190840152015160808201520196019201928f93928996938c9693615789565b869895985161580381612dea565b60008152600083820152898882015260008a82015282828a0101520189909794976156a0565b90919250869895985161583b81612da1565b60008152600083820152600088820152600060608201526000608082015282828a0101520190898d9298959861561c565b50928692615605565b80936155fb565b61588b60018401918254615525565b9055386155f1565b50600099505050505050505050565b506001985050505050505050565b600160ff1b81146103845760000390565b805115615a1e576040805163e3af37e360e01b81526020600482018190526000938490839081906158f690602483019061301a565b0381305afa9182918593615922575b505061591c5750519061591782612e05565b815290565b91505090565b909192503d8086843e6159358184612e20565b82018183820312615a1a5782516001600160401b0393848211615a1657019080601f83011215615a125781519061596b82613968565b9461597888519687612e20565b828652848087019360051b85010193828511615a0e57858101935b8585106159a95750505050505050903880615905565b8451838111615a0a57820184603f82011215615a0a57878101516159cc81612e43565b916159d98d519384612e20565b818352868d8383010111615a0657916159fb8a949285948f8685019101612eb3565b815201940193615993565b8d80fd5b8b80fd5b8980fd5b8680fd5b8780fd5b8580fd5b50604051615a2b81612e05565b6000815290565b3d15615a5d573d90615a4382612e43565b91615a516040519384612e20565b82523d6000602084013e565b606090565b6020908181840312610252578051906001600160401b03821161025257019180601f84011215610252578251615a9781613968565b93615aa56040519586612e20565b818552838086019260051b820101928311610252578301905b828210615acc575050505090565b81518152908301908301615abe565b90919260018060a01b03808451169560405197602098898101906349fbda2960e01b825260048152615b0c81612d6b565b6000998a92839251915afa615b1f615a32565b81615cc6575b81615ca3575b50615be357505091615ba5615b739287988695615b8697999899511695015190615b96604051998a9889978897630c6191f960e11b8952608060048a015260848901906140c9565b60031995868983030160248a015261301a565b908487830301604488015261301a565b9184830301606485015261301a565b03915afa918215615bd7578092615bbb57505090565b612eb092503d8091833e615bcf8183612e20565b810190615a62565b604051903d90823e3d90fd5b908891615c588998615c2696615c4986615c71988c51169b015192615c396040519a8b998a019c8d63270c5f3760e21b905260c060248c015260e48b01906140c9565b60231995868b83030160448c015261301a565b90848983030160648a015261301a565b9186830301608487015261301a565b9160a484015260c483015203601f198101835282612e20565b51915afa90615c7e615a32565b9115615c96579081612eb09282518301019101615a62565b8151156102275781519101fd5b90508981805181010312615cc25789615cbc9101613941565b38615b2b565b8880fd5b9050898151101590615b25565b9060005b8251811015615d025781615ceb82856140b5565b515114615cfa57600101615cd7565b505050600190565b505050600090565b600091829182602083519301915af1615d21615a32565b901561182f578051908115615d675760208210918215615d44575b505061182f57565b8192509060209181010312610252576020615d5f9101613941565b153880615d3c565b5050565b9091928015615f1557615da090615d8285846134f5565b615d8c858461402b565b818110615f0f5750805b81615ef95761304e565b80158015615db0575b5050505050565b831561022757838314610227576104aa57816000526020906004825260409081600020866000528352816000208251615de881612d6b565b868152848101918383528054600160401b8110156125c957615e0f91600182018155612fce565b929092613079576001915183555191015583600052600483528160002086600052835281600020546000198101908111610384577fae767eeb0c57abd46e2e0b422895ba3b89372fbd0510a58f00d996faf66f027d938115615edc575b85600052600681528360002088600052815283600020615e8d84825461305b565b9055856000526008815283600020615ea5815461303f565b905585600052600781528360002088600052815283600020615ec7815461303f565b90558351928352820152a43880808080615da9565b856000526005815283600020886000528152600084812055615e6c565b615f04828786613ea2565b61321e828787613f2e565b90615d96565b5050505056fe1ffe8e6348fe244a8988797c02b57999821149e7b25c9f93a85c77819efdde67ab4d21442efe134c3d0c087e2b687e9593a1c09176f498d37873210cde052c45a18590ca9739b1d76d19b9d85b6a395a7cf75acb1e21e93c88207bf9abce5ae6990f4c22d4b046a9a7d673c4a252b906cadd4f3290465e297f998c28a449652ba2646970667358221220c4080e247b481da18b3628612b8d3a960c6bb763356d718e834c1dca34ebb31e64736f6c63430008180033",
  "linkReferences": {
    "contracts/Account.sol": {
      "Account": [
        {
          "length": 20,
          "start": 3924
        },
        {
          "length": 20,
          "start": 6855
        },
        {
          "length": 20,
          "start": 8313
        },
        {
          "length": 20,
          "start": 8894
        },
        {
          "length": 20,
          "start": 17857
        },
        {
          "length": 20,
          "start": 19985
        },
        {
          "length": 20,
          "start": 20234
        },
        {
          "length": 20,
          "start": 20316
        },
        {
          "length": 20,
          "start": 20380
        },
        {
          "length": 20,
          "start": 20623
        },
        {
          "length": 20,
          "start": 20687
        }
      ]
    }
  },
  "deployedLinkReferences": {
    "contracts/Account.sol": {
      "Account": [
        {
          "length": 20,
          "start": 3480
        },
        {
          "length": 20,
          "start": 6411
        },
        {
          "length": 20,
          "start": 7869
        },
        {
          "length": 20,
          "start": 8450
        },
        {
          "length": 20,
          "start": 17413
        },
        {
          "length": 20,
          "start": 19541
        },
        {
          "length": 20,
          "start": 19790
        },
        {
          "length": 20,
          "start": 19872
        },
        {
          "length": 20,
          "start": 19936
        },
        {
          "length": 20,
          "start": 20179
        },
        {
          "length": 20,
          "start": 20243
        }
      ]
    }
  }
}