{
  "_format": "hh-sol-artifact-1",
  "contractName": "Depository",
  "sourceName": "contracts/Depository.sol",
  "abi": [
    {
      "inputs": [
        {
          "internalType": "address",
          "name": "_entityProvider",
          "type": "address"
        }
      ],
      "stateMutability": "nonpayable",
      "type": "constructor"
    },
    {
      "inputs": [],
      "name": "E0",
      "type": "error"
    },
    {
      "inputs": [],
      "name": "E1",
      "type": "error"
    },
    {
      "inputs": [],
      "name": "E2",
      "type": "error"
    },
    {
      "inputs": [],
      "name": "E3",
      "type": "error"
    },
    {
      "inputs": [],
      "name": "E4",
      "type": "error"
    },
    {
      "inputs": [],
      "name": "E5",
      "type": "error"
    },
    {
      "inputs": [],
      "name": "E6",
      "type": "error"
    },
    {
      "inputs": [],
      "name": "E7",
      "type": "error"
    },
    {
      "inputs": [],
      "name": "E8",
      "type": "error"
    },
    {
      "inputs": [],
      "name": "E9",
      "type": "error"
    },
    {
      "anonymous": false,
      "inputs": [
        {
          "components": [
            {
              "internalType": "bytes32",
              "name": "left",
              "type": "bytes32"
            },
            {
              "internalType": "bytes32",
              "name": "right",
              "type": "bytes32"
            },
            {
              "internalType": "uint256",
              "name": "tokenId",
              "type": "uint256"
            },
            {
              "internalType": "uint256",
              "name": "leftReserve",
              "type": "uint256"
            },
            {
              "internalType": "uint256",
              "name": "rightReserve",
              "type": "uint256"
            },
            {
              "internalType": "uint256",
              "name": "collateral",
              "type": "uint256"
            },
            {
              "internalType": "int256",
              "name": "ondelta",
              "type": "int256"
            }
          ],
          "indexed": false,
          "internalType": "struct Settled[]",
          "name": "settled",
          "type": "tuple[]"
        }
      ],
      "name": "AccountSettled",
      "type": "event"
    },
    {
      "anonymous": false,
      "inputs": [
        {
          "indexed": true,
          "internalType": "bytes32",
          "name": "sender",
          "type": "bytes32"
        },
        {
          "indexed": true,
          "internalType": "bytes32",
          "name": "counterentity",
          "type": "bytes32"
        },
        {
          "indexed": true,
          "internalType": "uint256",
          "name": "cooperativeNonce",
          "type": "uint256"
        }
      ],
      "name": "CooperativeClose",
      "type": "event"
    },
    {
      "anonymous": false,
      "inputs": [
        {
          "indexed": true,
          "internalType": "bytes32",
          "name": "debtor",
          "type": "bytes32"
        },
        {
          "indexed": true,
          "internalType": "bytes32",
          "name": "creditor",
          "type": "bytes32"
        },
        {
          "indexed": true,
          "internalType": "uint256",
          "name": "tokenId",
          "type": "uint256"
        },
        {
          "indexed": false,
          "internalType": "uint256",
          "name": "amount",
          "type": "uint256"
        },
        {
          "indexed": false,
          "internalType": "uint256",
          "name": "debtIndex",
          "type": "uint256"
        }
      ],
      "name": "DebtCreated",
      "type": "event"
    },
    {
      "anonymous": false,
      "inputs": [
        {
          "indexed": true,
          "internalType": "bytes32",
          "name": "debtor",
          "type": "bytes32"
        },
        {
          "indexed": true,
          "internalType": "bytes32",
          "name": "creditor",
          "type": "bytes32"
        },
        {
          "indexed": true,
          "internalType": "uint256",
          "name": "tokenId",
          "type": "uint256"
        },
        {
          "indexed": false,
          "internalType": "uint256",
          "name": "amountPaid",
          "type": "uint256"
        },
        {
          "indexed": false,
          "internalType": "uint256",
          "name": "remainingAmount",
          "type": "uint256"
        },
        {
          "indexed": false,
          "internalType": "uint256",
          "name": "newDebtIndex",
          "type": "uint256"
        }
      ],
      "name": "DebtEnforced",
      "type": "event"
    },
    {
      "anonymous": false,
      "inputs": [
        {
          "indexed": true,
          "internalType": "bytes32",
          "name": "debtor",
          "type": "bytes32"
        },
        {
          "indexed": true,
          "internalType": "bytes32",
          "name": "creditor",
          "type": "bytes32"
        },
        {
          "indexed": true,
          "internalType": "uint256",
          "name": "tokenId",
          "type": "uint256"
        },
        {
          "indexed": false,
          "internalType": "uint256",
          "name": "amountForgiven",
          "type": "uint256"
        },
        {
          "indexed": false,
          "internalType": "uint256",
          "name": "debtIndex",
          "type": "uint256"
        }
      ],
      "name": "DebtForgiven",
      "type": "event"
    },
    {
      "anonymous": false,
      "inputs": [
        {
          "indexed": false,
          "internalType": "bytes32",
          "name": "leftEntity",
          "type": "bytes32"
        },
        {
          "indexed": false,
          "internalType": "bytes32",
          "name": "rightEntity",
          "type": "bytes32"
        },
        {
          "indexed": false,
          "internalType": "uint256",
          "name": "sigLen",
          "type": "uint256"
        },
        {
          "indexed": false,
          "internalType": "address",
          "name": "entityProvider",
          "type": "address"
        }
      ],
      "name": "DebugSettleStart",
      "type": "event"
    },
    {
      "anonymous": false,
      "inputs": [
        {
          "indexed": true,
          "internalType": "bytes32",
          "name": "sender",
          "type": "bytes32"
        },
        {
          "indexed": true,
          "internalType": "bytes32",
          "name": "counterentity",
          "type": "bytes32"
        },
        {
          "indexed": true,
          "internalType": "uint256",
          "name": "initialDisputeNonce",
          "type": "uint256"
        },
        {
          "indexed": false,
          "internalType": "bytes32",
          "name": "initialProofbodyHash",
          "type": "bytes32"
        },
        {
          "indexed": false,
          "internalType": "bytes32",
          "name": "finalProofbodyHash",
          "type": "bytes32"
        }
      ],
      "name": "DisputeFinalized",
      "type": "event"
    },
    {
      "anonymous": false,
      "inputs": [
        {
          "indexed": true,
          "internalType": "bytes32",
          "name": "sender",
          "type": "bytes32"
        },
        {
          "indexed": true,
          "internalType": "bytes32",
          "name": "counterentity",
          "type": "bytes32"
        },
        {
          "indexed": true,
          "internalType": "uint256",
          "name": "disputeNonce",
          "type": "uint256"
        },
        {
          "indexed": false,
          "internalType": "bytes32",
          "name": "proofbodyHash",
          "type": "bytes32"
        },
        {
          "indexed": false,
          "internalType": "bytes",
          "name": "initialArguments",
          "type": "bytes"
        }
      ],
      "name": "DisputeStarted",
      "type": "event"
    },
    {
      "anonymous": false,
      "inputs": [
        {
          "indexed": false,
          "internalType": "bool",
          "name": "isPaused",
          "type": "bool"
        }
      ],
      "name": "EmergencyPauseToggled",
      "type": "event"
    },
    {
      "anonymous": false,
      "inputs": [
        {
          "indexed": true,
          "internalType": "address",
          "name": "provider",
          "type": "address"
        }
      ],
      "name": "EntityProviderAdded",
      "type": "event"
    },
    {
      "anonymous": false,
      "inputs": [
        {
          "indexed": true,
          "internalType": "address",
          "name": "provider",
          "type": "address"
        }
      ],
      "name": "EntityProviderRemoved",
      "type": "event"
    },
    {
      "anonymous": false,
      "inputs": [
        {
          "indexed": true,
          "internalType": "bytes32",
          "name": "entityId",
          "type": "bytes32"
        },
        {
          "indexed": true,
          "internalType": "bytes32",
          "name": "hankoHash",
          "type": "bytes32"
        },
        {
          "indexed": false,
          "internalType": "uint256",
          "name": "nonce",
          "type": "uint256"
        },
        {
          "indexed": false,
          "internalType": "bool",
          "name": "success",
          "type": "bool"
        }
      ],
      "name": "HankoBatchProcessed",
      "type": "event"
    },
    {
      "anonymous": false,
      "inputs": [
        {
          "indexed": true,
          "internalType": "bytes32",
          "name": "insured",
          "type": "bytes32"
        },
        {
          "indexed": true,
          "internalType": "bytes32",
          "name": "insurer",
          "type": "bytes32"
        },
        {
          "indexed": true,
          "internalType": "bytes32",
          "name": "creditor",
          "type": "bytes32"
        },
        {
          "indexed": false,
          "internalType": "uint256",
          "name": "tokenId",
          "type": "uint256"
        },
        {
          "indexed": false,
          "internalType": "uint256",
          "name": "amount",
          "type": "uint256"
        }
      ],
      "name": "InsuranceClaimed",
      "type": "event"
    },
    {
      "anonymous": false,
      "inputs": [
        {
          "indexed": true,
          "internalType": "bytes32",
          "name": "insured",
          "type": "bytes32"
        },
        {
          "indexed": true,
          "internalType": "bytes32",
          "name": "insurer",
          "type": "bytes32"
        },
        {
          "indexed": true,
          "internalType": "uint256",
          "name": "tokenId",
          "type": "uint256"
        },
        {
          "indexed": false,
          "internalType": "uint256",
          "name": "limit",
          "type": "uint256"
        },
        {
          "indexed": false,
          "internalType": "uint256",
          "name": "expiresAt",
          "type": "uint256"
        }
      ],
      "name": "InsuranceRegistered",
      "type": "event"
    },
    {
      "anonymous": false,
      "inputs": [
        {
          "indexed": true,
          "internalType": "bytes32",
          "name": "entity",
          "type": "bytes32"
        },
        {
          "indexed": true,
          "internalType": "uint256",
          "name": "tokenId",
          "type": "uint256"
        },
        {
          "indexed": false,
          "internalType": "uint256",
          "name": "newBalance",
          "type": "uint256"
        }
      ],
      "name": "ReserveUpdated",
      "type": "event"
    },
    {
      "anonymous": false,
      "inputs": [
        {
          "indexed": true,
          "internalType": "bytes32",
          "name": "hashlock",
          "type": "bytes32"
        },
        {
          "indexed": true,
          "internalType": "bytes32",
          "name": "revealer",
          "type": "bytes32"
        },
        {
          "indexed": false,
          "internalType": "bytes32",
          "name": "secret",
          "type": "bytes32"
        }
      ],
      "name": "SecretRevealed",
      "type": "event"
    },
    {
      "inputs": [],
      "name": "DOMAIN_SEPARATOR",
      "outputs": [
        {
          "internalType": "bytes32",
          "name": "",
          "type": "bytes32"
        }
      ],
      "stateMutability": "view",
      "type": "function"
    },
    {
      "inputs": [
        {
          "internalType": "bytes",
          "name": "",
          "type": "bytes"
        }
      ],
      "name": "_accounts",
      "outputs": [
        {
          "internalType": "uint256",
          "name": "cooperativeNonce",
          "type": "uint256"
        },
        {
          "internalType": "bytes32",
          "name": "disputeHash",
          "type": "bytes32"
        },
        {
          "internalType": "uint256",
          "name": "disputeTimeout",
          "type": "uint256"
        }
      ],
      "stateMutability": "view",
      "type": "function"
    },
    {
      "inputs": [
        {
          "internalType": "bytes32",
          "name": "",
          "type": "bytes32"
        }
      ],
      "name": "_activeDebts",
      "outputs": [
        {
          "internalType": "uint256",
          "name": "",
          "type": "uint256"
        }
      ],
      "stateMutability": "view",
      "type": "function"
    },
    {
      "inputs": [
        {
          "internalType": "bytes",
          "name": "",
          "type": "bytes"
        },
        {
          "internalType": "uint256",
          "name": "",
          "type": "uint256"
        }
      ],
      "name": "_collaterals",
      "outputs": [
        {
          "internalType": "uint256",
          "name": "collateral",
          "type": "uint256"
        },
        {
          "internalType": "int256",
          "name": "ondelta",
          "type": "int256"
        }
      ],
      "stateMutability": "view",
      "type": "function"
    },
    {
      "inputs": [
        {
          "internalType": "bytes32",
          "name": "",
          "type": "bytes32"
        },
        {
          "internalType": "uint256",
          "name": "",
          "type": "uint256"
        }
      ],
      "name": "_debtIndex",
      "outputs": [
        {
          "internalType": "uint256",
          "name": "",
          "type": "uint256"
        }
      ],
      "stateMutability": "view",
      "type": "function"
    },
    {
      "inputs": [
        {
          "internalType": "bytes32",
          "name": "",
          "type": "bytes32"
        },
        {
          "internalType": "uint256",
          "name": "",
          "type": "uint256"
        },
        {
          "internalType": "uint256",
          "name": "",
          "type": "uint256"
        }
      ],
      "name": "_debts",
      "outputs": [
        {
          "internalType": "bytes32",
          "name": "creditor",
          "type": "bytes32"
        },
        {
          "internalType": "uint256",
          "name": "amount",
          "type": "uint256"
        }
      ],
      "stateMutability": "view",
      "type": "function"
    },
    {
      "inputs": [
        {
          "internalType": "bytes32",
          "name": "",
          "type": "bytes32"
        },
        {
          "internalType": "uint256",
          "name": "",
          "type": "uint256"
        }
      ],
      "name": "_reserves",
      "outputs": [
        {
          "internalType": "uint256",
          "name": "",
          "type": "uint256"
        }
      ],
      "stateMutability": "view",
      "type": "function"
    },
    {
      "inputs": [
        {
          "internalType": "uint256",
          "name": "",
          "type": "uint256"
        }
      ],
      "name": "_tokens",
      "outputs": [
        {
          "internalType": "bytes32",
          "name": "",
          "type": "bytes32"
        }
      ],
      "stateMutability": "view",
      "type": "function"
    },
    {
      "inputs": [
        {
          "internalType": "bytes32",
          "name": "e1",
          "type": "bytes32"
        },
        {
          "internalType": "bytes32",
          "name": "e2",
          "type": "bytes32"
        }
      ],
      "name": "accountKey",
      "outputs": [
        {
          "internalType": "bytes",
          "name": "",
          "type": "bytes"
        }
      ],
      "stateMutability": "pure",
      "type": "function"
    },
    {
      "inputs": [
        {
          "internalType": "address",
          "name": "provider",
          "type": "address"
        }
      ],
      "name": "addEntityProvider",
      "outputs": [],
      "stateMutability": "nonpayable",
      "type": "function"
    },
    {
      "inputs": [],
      "name": "admin",
      "outputs": [
        {
          "internalType": "address",
          "name": "",
          "type": "address"
        }
      ],
      "stateMutability": "view",
      "type": "function"
    },
    {
      "inputs": [
        {
          "internalType": "address",
          "name": "",
          "type": "address"
        }
      ],
      "name": "approvedEntityProviders",
      "outputs": [
        {
          "internalType": "bool",
          "name": "",
          "type": "bool"
        }
      ],
      "stateMutability": "view",
      "type": "function"
    },
    {
      "inputs": [
        {
          "internalType": "bytes32",
          "name": "leftEntity",
          "type": "bytes32"
        },
        {
          "internalType": "bytes32",
          "name": "rightEntity",
          "type": "bytes32"
        },
        {
          "components": [
            {
              "internalType": "uint256",
              "name": "tokenId",
              "type": "uint256"
            },
            {
              "internalType": "int256",
              "name": "leftDiff",
              "type": "int256"
            },
            {
              "internalType": "int256",
              "name": "rightDiff",
              "type": "int256"
            },
            {
              "internalType": "int256",
              "name": "collateralDiff",
              "type": "int256"
            },
            {
              "internalType": "int256",
              "name": "ondeltaDiff",
              "type": "int256"
            }
          ],
          "internalType": "struct SettlementDiff[]",
          "name": "diffs",
          "type": "tuple[]"
        },
        {
          "internalType": "uint256[]",
          "name": "forgiveDebtsInTokenIds",
          "type": "uint256[]"
        },
        {
          "components": [
            {
              "internalType": "bytes32",
              "name": "insured",
              "type": "bytes32"
            },
            {
              "internalType": "bytes32",
              "name": "insurer",
              "type": "bytes32"
            },
            {
              "internalType": "uint256",
              "name": "tokenId",
              "type": "uint256"
            },
            {
              "internalType": "uint256",
              "name": "limit",
              "type": "uint256"
            },
            {
              "internalType": "uint256",
              "name": "expiresAt",
              "type": "uint256"
            }
          ],
          "internalType": "struct InsuranceRegistration[]",
          "name": "insuranceRegs",
          "type": "tuple[]"
        }
      ],
      "name": "computeSettlementHash",
      "outputs": [
        {
          "internalType": "bytes32",
          "name": "hash",
          "type": "bytes32"
        },
        {
          "internalType": "uint256",
          "name": "nonce",
          "type": "uint256"
        },
        {
          "internalType": "uint256",
          "name": "encodedMsgLength",
          "type": "uint256"
        }
      ],
      "stateMutability": "view",
      "type": "function"
    },
    {
      "inputs": [],
      "name": "defaultDisputeDelay",
      "outputs": [
        {
          "internalType": "uint256",
          "name": "",
          "type": "uint256"
        }
      ],
      "stateMutability": "view",
      "type": "function"
    },
    {
      "inputs": [
        {
          "components": [
            {
              "internalType": "bytes32",
              "name": "counterentity",
              "type": "bytes32"
            },
            {
              "internalType": "uint256",
              "name": "initialCooperativeNonce",
              "type": "uint256"
            },
            {
              "internalType": "uint256",
              "name": "finalCooperativeNonce",
              "type": "uint256"
            },
            {
              "internalType": "uint256",
              "name": "initialDisputeNonce",
              "type": "uint256"
            },
            {
              "internalType": "uint256",
              "name": "finalDisputeNonce",
              "type": "uint256"
            },
            {
              "internalType": "bytes32",
              "name": "initialProofbodyHash",
              "type": "bytes32"
            },
            {
              "components": [
                {
                  "internalType": "int256[]",
                  "name": "offdeltas",
                  "type": "int256[]"
                },
                {
                  "internalType": "uint256[]",
                  "name": "tokenIds",
                  "type": "uint256[]"
                },
                {
                  "components": [
                    {
                      "internalType": "address",
                      "name": "transformerAddress",
                      "type": "address"
                    },
                    {
                      "internalType": "bytes",
                      "name": "encodedBatch",
                      "type": "bytes"
                    },
                    {
                      "components": [
                        {
                          "internalType": "uint256",
                          "name": "deltaIndex",
                          "type": "uint256"
                        },
                        {
                          "internalType": "uint256",
                          "name": "rightAllowance",
                          "type": "uint256"
                        },
                        {
                          "internalType": "uint256",
                          "name": "leftAllowance",
                          "type": "uint256"
                        }
                      ],
                      "internalType": "struct Allowance[]",
                      "name": "allowances",
                      "type": "tuple[]"
                    }
                  ],
                  "internalType": "struct TransformerClause[]",
                  "name": "transformers",
                  "type": "tuple[]"
                }
              ],
              "internalType": "struct ProofBody",
              "name": "finalProofbody",
              "type": "tuple"
            },
            {
              "internalType": "bytes",
              "name": "finalArguments",
              "type": "bytes"
            },
            {
              "internalType": "bytes",
              "name": "initialArguments",
              "type": "bytes"
            },
            {
              "internalType": "bytes",
              "name": "sig",
              "type": "bytes"
            },
            {
              "internalType": "bool",
              "name": "startedByLeft",
              "type": "bool"
            },
            {
              "internalType": "uint256",
              "name": "disputeUntilBlock",
              "type": "uint256"
            },
            {
              "internalType": "bool",
              "name": "cooperative",
              "type": "bool"
            }
          ],
          "internalType": "struct FinalDisputeProof",
          "name": "params",
          "type": "tuple"
        }
      ],
      "name": "disputeFinalize",
      "outputs": [
        {
          "internalType": "bool",
          "name": "",
          "type": "bool"
        }
      ],
      "stateMutability": "nonpayable",
      "type": "function"
    },
    {
      "inputs": [
        {
          "components": [
            {
              "internalType": "bytes32",
              "name": "counterentity",
              "type": "bytes32"
            },
            {
              "internalType": "uint256",
              "name": "cooperativeNonce",
              "type": "uint256"
            },
            {
              "internalType": "uint256",
              "name": "disputeNonce",
              "type": "uint256"
            },
            {
              "internalType": "bytes32",
              "name": "proofbodyHash",
              "type": "bytes32"
            },
            {
              "internalType": "bytes",
              "name": "sig",
              "type": "bytes"
            },
            {
              "internalType": "bytes",
              "name": "initialArguments",
              "type": "bytes"
            }
          ],
          "internalType": "struct InitialDisputeProof",
          "name": "params",
          "type": "tuple"
        }
      ],
      "name": "disputeStart",
      "outputs": [
        {
          "internalType": "bool",
          "name": "",
          "type": "bool"
        }
      ],
      "stateMutability": "nonpayable",
      "type": "function"
    },
    {
      "inputs": [],
      "name": "emergencyPause",
      "outputs": [
        {
          "internalType": "bool",
          "name": "",
          "type": "bool"
        }
      ],
      "stateMutability": "view",
      "type": "function"
    },
    {
      "inputs": [
        {
          "internalType": "bytes32",
          "name": "entity",
          "type": "bytes32"
        },
        {
          "internalType": "uint256",
          "name": "tokenId",
          "type": "uint256"
        }
      ],
      "name": "enforceDebts",
      "outputs": [
        {
          "internalType": "uint256",
          "name": "",
          "type": "uint256"
        }
      ],
      "stateMutability": "nonpayable",
      "type": "function"
    },
    {
      "inputs": [
        {
          "internalType": "bytes32",
          "name": "",
          "type": "bytes32"
        }
      ],
      "name": "entityDisputeDelays",
      "outputs": [
        {
          "internalType": "uint256",
          "name": "",
          "type": "uint256"
        }
      ],
      "stateMutability": "view",
      "type": "function"
    },
    {
      "inputs": [
        {
          "internalType": "address",
          "name": "",
          "type": "address"
        }
      ],
      "name": "entityNonces",
      "outputs": [
        {
          "internalType": "uint256",
          "name": "",
          "type": "uint256"
        }
      ],
      "stateMutability": "view",
      "type": "function"
    },
    {
      "inputs": [],
      "name": "entityProvider",
      "outputs": [
        {
          "internalType": "address",
          "name": "",
          "type": "address"
        }
      ],
      "stateMutability": "view",
      "type": "function"
    },
    {
      "inputs": [
        {
          "internalType": "uint256",
          "name": "",
          "type": "uint256"
        }
      ],
      "name": "entityProvidersList",
      "outputs": [
        {
          "internalType": "address",
          "name": "",
          "type": "address"
        }
      ],
      "stateMutability": "view",
      "type": "function"
    },
    {
      "inputs": [
        {
          "components": [
            {
              "internalType": "bytes32",
              "name": "entity",
              "type": "bytes32"
            },
            {
              "internalType": "bytes32",
              "name": "packedToken",
              "type": "bytes32"
            },
            {
              "internalType": "uint256",
              "name": "internalTokenId",
              "type": "uint256"
            },
            {
              "internalType": "uint256",
              "name": "amount",
              "type": "uint256"
            }
          ],
          "internalType": "struct ExternalTokenToReserve",
          "name": "params",
          "type": "tuple"
        }
      ],
      "name": "externalTokenToReserve",
      "outputs": [],
      "stateMutability": "nonpayable",
      "type": "function"
    },
    {
      "inputs": [],
      "name": "getApprovedProviders",
      "outputs": [
        {
          "internalType": "address[]",
          "name": "",
          "type": "address[]"
        }
      ],
      "stateMutability": "view",
      "type": "function"
    },
    {
      "inputs": [
        {
          "internalType": "uint256",
          "name": "tokenId",
          "type": "uint256"
        }
      ],
      "name": "getTokenMetadata",
      "outputs": [
        {
          "internalType": "address",
          "name": "contractAddress",
          "type": "address"
        },
        {
          "internalType": "uint96",
          "name": "externalTokenId",
          "type": "uint96"
        },
        {
          "internalType": "uint8",
          "name": "tokenType",
          "type": "uint8"
        }
      ],
      "stateMutability": "view",
      "type": "function"
    },
    {
      "inputs": [],
      "name": "getTokensLength",
      "outputs": [
        {
          "internalType": "uint256",
          "name": "",
          "type": "uint256"
        }
      ],
      "stateMutability": "view",
      "type": "function"
    },
    {
      "inputs": [
        {
          "internalType": "bytes32",
          "name": "",
          "type": "bytes32"
        }
      ],
      "name": "insuranceCursor",
      "outputs": [
        {
          "internalType": "uint256",
          "name": "",
          "type": "uint256"
        }
      ],
      "stateMutability": "view",
      "type": "function"
    },
    {
      "inputs": [
        {
          "internalType": "bytes32",
          "name": "",
          "type": "bytes32"
        },
        {
          "internalType": "uint256",
          "name": "",
          "type": "uint256"
        }
      ],
      "name": "insuranceLines",
      "outputs": [
        {
          "internalType": "bytes32",
          "name": "insurer",
          "type": "bytes32"
        },
        {
          "internalType": "uint256",
          "name": "tokenId",
          "type": "uint256"
        },
        {
          "internalType": "uint256",
          "name": "remaining",
          "type": "uint256"
        },
        {
          "internalType": "uint256",
          "name": "expiresAt",
          "type": "uint256"
        }
      ],
      "stateMutability": "view",
      "type": "function"
    },
    {
      "inputs": [
        {
          "internalType": "bytes32",
          "name": "entity",
          "type": "bytes32"
        },
        {
          "internalType": "uint256",
          "name": "tokenId",
          "type": "uint256"
        },
        {
          "internalType": "uint256",
          "name": "amount",
          "type": "uint256"
        }
      ],
      "name": "mintToReserve",
      "outputs": [],
      "stateMutability": "nonpayable",
      "type": "function"
    },
    {
      "inputs": [
        {
          "internalType": "address",
          "name": "",
          "type": "address"
        },
        {
          "internalType": "address",
          "name": "",
          "type": "address"
        },
        {
          "internalType": "uint256[]",
          "name": "",
          "type": "uint256[]"
        },
        {
          "internalType": "uint256[]",
          "name": "",
          "type": "uint256[]"
        },
        {
          "internalType": "bytes",
          "name": "",
          "type": "bytes"
        }
      ],
      "name": "onERC1155BatchReceived",
      "outputs": [
        {
          "internalType": "bytes4",
          "name": "",
          "type": "bytes4"
        }
      ],
      "stateMutability": "pure",
      "type": "function"
    },
    {
      "inputs": [
        {
          "internalType": "address",
          "name": "",
          "type": "address"
        },
        {
          "internalType": "address",
          "name": "from",
          "type": "address"
        },
        {
          "internalType": "uint256",
          "name": "id",
          "type": "uint256"
        },
        {
          "internalType": "uint256",
          "name": "value",
          "type": "uint256"
        },
        {
          "internalType": "bytes",
          "name": "",
          "type": "bytes"
        }
      ],
      "name": "onERC1155Received",
      "outputs": [
        {
          "internalType": "bytes4",
          "name": "",
          "type": "bytes4"
        }
      ],
      "stateMutability": "nonpayable",
      "type": "function"
    },
    {
      "inputs": [
        {
          "internalType": "uint8",
          "name": "tokenType",
          "type": "uint8"
        },
        {
          "internalType": "address",
          "name": "contractAddress",
          "type": "address"
        },
        {
          "internalType": "uint96",
          "name": "externalTokenId",
          "type": "uint96"
        }
      ],
      "name": "packTokenReference",
      "outputs": [
        {
          "internalType": "bytes32",
          "name": "",
          "type": "bytes32"
        }
      ],
      "stateMutability": "pure",
      "type": "function"
    },
    {
      "inputs": [
        {
          "internalType": "bytes",
          "name": "encodedBatch",
          "type": "bytes"
        },
        {
          "internalType": "address",
          "name": "entityProvider",
          "type": "address"
        },
        {
          "internalType": "bytes",
          "name": "hankoData",
          "type": "bytes"
        },
        {
          "internalType": "uint256",
          "name": "nonce",
          "type": "uint256"
        }
      ],
      "name": "processBatch",
      "outputs": [
        {
          "internalType": "bool",
          "name": "completeSuccess",
          "type": "bool"
        }
      ],
      "stateMutability": "nonpayable",
      "type": "function"
    },
    {
      "inputs": [
        {
          "internalType": "address",
          "name": "provider",
          "type": "address"
        }
      ],
      "name": "removeEntityProvider",
      "outputs": [],
      "stateMutability": "nonpayable",
      "type": "function"
    },
    {
      "inputs": [
        {
          "internalType": "bytes32",
          "name": "fromEntity",
          "type": "bytes32"
        },
        {
          "internalType": "bytes32",
          "name": "toEntity",
          "type": "bytes32"
        },
        {
          "internalType": "uint256",
          "name": "tokenId",
          "type": "uint256"
        },
        {
          "internalType": "uint256",
          "name": "amount",
          "type": "uint256"
        }
      ],
      "name": "reserveToReserve",
      "outputs": [
        {
          "internalType": "bool",
          "name": "",
          "type": "bool"
        }
      ],
      "stateMutability": "nonpayable",
      "type": "function"
    },
    {
      "inputs": [
        {
          "internalType": "uint256",
          "name": "delayBlocks",
          "type": "uint256"
        }
      ],
      "name": "setDefaultDisputeDelay",
      "outputs": [],
      "stateMutability": "nonpayable",
      "type": "function"
    },
    {
      "inputs": [
        {
          "internalType": "bool",
          "name": "isPaused",
          "type": "bool"
        }
      ],
      "name": "setEmergencyPause",
      "outputs": [],
      "stateMutability": "nonpayable",
      "type": "function"
    },
    {
      "inputs": [
        {
          "internalType": "bytes32",
          "name": "entity",
          "type": "bytes32"
        },
        {
          "internalType": "uint256",
          "name": "delayBlocks",
          "type": "uint256"
        }
      ],
      "name": "setEntityDisputeDelay",
      "outputs": [],
      "stateMutability": "nonpayable",
      "type": "function"
    },
    {
      "inputs": [
        {
          "internalType": "bytes32",
          "name": "leftEntity",
          "type": "bytes32"
        },
        {
          "internalType": "bytes32",
          "name": "rightEntity",
          "type": "bytes32"
        },
        {
          "components": [
            {
              "internalType": "uint256",
              "name": "tokenId",
              "type": "uint256"
            },
            {
              "internalType": "int256",
              "name": "leftDiff",
              "type": "int256"
            },
            {
              "internalType": "int256",
              "name": "rightDiff",
              "type": "int256"
            },
            {
              "internalType": "int256",
              "name": "collateralDiff",
              "type": "int256"
            },
            {
              "internalType": "int256",
              "name": "ondeltaDiff",
              "type": "int256"
            }
          ],
          "internalType": "struct SettlementDiff[]",
          "name": "diffs",
          "type": "tuple[]"
        },
        {
          "internalType": "uint256[]",
          "name": "forgiveDebtsInTokenIds",
          "type": "uint256[]"
        },
        {
          "components": [
            {
              "internalType": "bytes32",
              "name": "insured",
              "type": "bytes32"
            },
            {
              "internalType": "bytes32",
              "name": "insurer",
              "type": "bytes32"
            },
            {
              "internalType": "uint256",
              "name": "tokenId",
              "type": "uint256"
            },
            {
              "internalType": "uint256",
              "name": "limit",
              "type": "uint256"
            },
            {
              "internalType": "uint256",
              "name": "expiresAt",
              "type": "uint256"
            }
          ],
          "internalType": "struct InsuranceRegistration[]",
          "name": "insuranceRegs",
          "type": "tuple[]"
        },
        {
          "internalType": "bytes",
          "name": "sig",
          "type": "bytes"
        }
      ],
      "name": "settle",
      "outputs": [
        {
          "internalType": "bool",
          "name": "",
          "type": "bool"
        }
      ],
      "stateMutability": "nonpayable",
      "type": "function"
    },
    {
      "inputs": [
        {
          "internalType": "bytes32",
          "name": "",
          "type": "bytes32"
        }
      ],
      "name": "tokenToId",
      "outputs": [
        {
          "internalType": "uint256",
          "name": "",
          "type": "uint256"
        }
      ],
      "stateMutability": "view",
      "type": "function"
    },
    {
      "inputs": [
        {
          "internalType": "bytes32",
          "name": "packed",
          "type": "bytes32"
        }
      ],
      "name": "unpackTokenReference",
      "outputs": [
        {
          "internalType": "address",
          "name": "contractAddress",
          "type": "address"
        },
        {
          "internalType": "uint96",
          "name": "externalTokenId",
          "type": "uint96"
        },
        {
          "internalType": "uint8",
          "name": "tokenType",
          "type": "uint8"
        }
      ],
      "stateMutability": "pure",
      "type": "function"
    },
    {
      "inputs": [
        {
          "internalType": "bytes32",
          "name": "entity",
          "type": "bytes32"
        },
        {
          "components": [
            {
              "components": [
                {
                  "internalType": "uint256",
                  "name": "tokenId",
                  "type": "uint256"
                },
                {
                  "internalType": "uint256",
                  "name": "amount",
                  "type": "uint256"
                }
              ],
              "internalType": "struct Flashloan[]",
              "name": "flashloans",
              "type": "tuple[]"
            },
            {
              "components": [
                {
                  "internalType": "bytes32",
                  "name": "receivingEntity",
                  "type": "bytes32"
                },
                {
                  "internalType": "uint256",
                  "name": "tokenId",
                  "type": "uint256"
                },
                {
                  "internalType": "uint256",
                  "name": "amount",
                  "type": "uint256"
                }
              ],
              "internalType": "struct ReserveToReserve[]",
              "name": "reserveToReserve",
              "type": "tuple[]"
            },
            {
              "components": [
                {
                  "internalType": "uint256",
                  "name": "tokenId",
                  "type": "uint256"
                },
                {
                  "internalType": "bytes32",
                  "name": "receivingEntity",
                  "type": "bytes32"
                },
                {
                  "components": [
                    {
                      "internalType": "bytes32",
                      "name": "entity",
                      "type": "bytes32"
                    },
                    {
                      "internalType": "uint256",
                      "name": "amount",
                      "type": "uint256"
                    }
                  ],
                  "internalType": "struct EntityAmount[]",
                  "name": "pairs",
                  "type": "tuple[]"
                }
              ],
              "internalType": "struct ReserveToCollateral[]",
              "name": "reserveToCollateral",
              "type": "tuple[]"
            },
            {
              "components": [
                {
                  "internalType": "bytes32",
                  "name": "leftEntity",
                  "type": "bytes32"
                },
                {
                  "internalType": "bytes32",
                  "name": "rightEntity",
                  "type": "bytes32"
                },
                {
                  "components": [
                    {
                      "internalType": "uint256",
                      "name": "tokenId",
                      "type": "uint256"
                    },
                    {
                      "internalType": "int256",
                      "name": "leftDiff",
                      "type": "int256"
                    },
                    {
                      "internalType": "int256",
                      "name": "rightDiff",
                      "type": "int256"
                    },
                    {
                      "internalType": "int256",
                      "name": "collateralDiff",
                      "type": "int256"
                    },
                    {
                      "internalType": "int256",
                      "name": "ondeltaDiff",
                      "type": "int256"
                    }
                  ],
                  "internalType": "struct SettlementDiff[]",
                  "name": "diffs",
                  "type": "tuple[]"
                },
                {
                  "internalType": "uint256[]",
                  "name": "forgiveDebtsInTokenIds",
                  "type": "uint256[]"
                },
                {
                  "components": [
                    {
                      "internalType": "bytes32",
                      "name": "insured",
                      "type": "bytes32"
                    },
                    {
                      "internalType": "bytes32",
                      "name": "insurer",
                      "type": "bytes32"
                    },
                    {
                      "internalType": "uint256",
                      "name": "tokenId",
                      "type": "uint256"
                    },
                    {
                      "internalType": "uint256",
                      "name": "limit",
                      "type": "uint256"
                    },
                    {
                      "internalType": "uint256",
                      "name": "expiresAt",
                      "type": "uint256"
                    }
                  ],
                  "internalType": "struct InsuranceRegistration[]",
                  "name": "insuranceRegs",
                  "type": "tuple[]"
                },
                {
                  "internalType": "bytes",
                  "name": "sig",
                  "type": "bytes"
                },
                {
                  "internalType": "address",
                  "name": "entityProvider",
                  "type": "address"
                },
                {
                  "internalType": "bytes",
                  "name": "hankoData",
                  "type": "bytes"
                },
                {
                  "internalType": "uint256",
                  "name": "nonce",
                  "type": "uint256"
                }
              ],
              "internalType": "struct Settlement[]",
              "name": "settlements",
              "type": "tuple[]"
            },
            {
              "components": [
                {
                  "internalType": "bytes32",
                  "name": "counterentity",
                  "type": "bytes32"
                },
                {
                  "internalType": "uint256",
                  "name": "cooperativeNonce",
                  "type": "uint256"
                },
                {
                  "internalType": "uint256",
                  "name": "disputeNonce",
                  "type": "uint256"
                },
                {
                  "internalType": "bytes32",
                  "name": "proofbodyHash",
                  "type": "bytes32"
                },
                {
                  "internalType": "bytes",
                  "name": "sig",
                  "type": "bytes"
                },
                {
                  "internalType": "bytes",
                  "name": "initialArguments",
                  "type": "bytes"
                }
              ],
              "internalType": "struct InitialDisputeProof[]",
              "name": "disputeStarts",
              "type": "tuple[]"
            },
            {
              "components": [
                {
                  "internalType": "bytes32",
                  "name": "counterentity",
                  "type": "bytes32"
                },
                {
                  "internalType": "uint256",
                  "name": "initialCooperativeNonce",
                  "type": "uint256"
                },
                {
                  "internalType": "uint256",
                  "name": "finalCooperativeNonce",
                  "type": "uint256"
                },
                {
                  "internalType": "uint256",
                  "name": "initialDisputeNonce",
                  "type": "uint256"
                },
                {
                  "internalType": "uint256",
                  "name": "finalDisputeNonce",
                  "type": "uint256"
                },
                {
                  "internalType": "bytes32",
                  "name": "initialProofbodyHash",
                  "type": "bytes32"
                },
                {
                  "components": [
                    {
                      "internalType": "int256[]",
                      "name": "offdeltas",
                      "type": "int256[]"
                    },
                    {
                      "internalType": "uint256[]",
                      "name": "tokenIds",
                      "type": "uint256[]"
                    },
                    {
                      "components": [
                        {
                          "internalType": "address",
                          "name": "transformerAddress",
                          "type": "address"
                        },
                        {
                          "internalType": "bytes",
                          "name": "encodedBatch",
                          "type": "bytes"
                        },
                        {
                          "components": [
                            {
                              "internalType": "uint256",
                              "name": "deltaIndex",
                              "type": "uint256"
                            },
                            {
                              "internalType": "uint256",
                              "name": "rightAllowance",
                              "type": "uint256"
                            },
                            {
                              "internalType": "uint256",
                              "name": "leftAllowance",
                              "type": "uint256"
                            }
                          ],
                          "internalType": "struct Allowance[]",
                          "name": "allowances",
                          "type": "tuple[]"
                        }
                      ],
                      "internalType": "struct TransformerClause[]",
                      "name": "transformers",
                      "type": "tuple[]"
                    }
                  ],
                  "internalType": "struct ProofBody",
                  "name": "finalProofbody",
                  "type": "tuple"
                },
                {
                  "internalType": "bytes",
                  "name": "finalArguments",
                  "type": "bytes"
                },
                {
                  "internalType": "bytes",
                  "name": "initialArguments",
                  "type": "bytes"
                },
                {
                  "internalType": "bytes",
                  "name": "sig",
                  "type": "bytes"
                },
                {
                  "internalType": "bool",
                  "name": "startedByLeft",
                  "type": "bool"
                },
                {
                  "internalType": "uint256",
                  "name": "disputeUntilBlock",
                  "type": "uint256"
                },
                {
                  "internalType": "bool",
                  "name": "cooperative",
                  "type": "bool"
                }
              ],
              "internalType": "struct FinalDisputeProof[]",
              "name": "disputeFinalizations",
              "type": "tuple[]"
            },
            {
              "components": [
                {
                  "internalType": "bytes32",
                  "name": "entity",
                  "type": "bytes32"
                },
                {
                  "internalType": "bytes32",
                  "name": "packedToken",
                  "type": "bytes32"
                },
                {
                  "internalType": "uint256",
                  "name": "internalTokenId",
                  "type": "uint256"
                },
                {
                  "internalType": "uint256",
                  "name": "amount",
                  "type": "uint256"
                }
              ],
              "internalType": "struct ExternalTokenToReserve[]",
              "name": "externalTokenToReserve",
              "type": "tuple[]"
            },
            {
              "components": [
                {
                  "internalType": "bytes32",
                  "name": "receivingEntity",
                  "type": "bytes32"
                },
                {
                  "internalType": "uint256",
                  "name": "tokenId",
                  "type": "uint256"
                },
                {
                  "internalType": "uint256",
                  "name": "amount",
                  "type": "uint256"
                }
              ],
              "internalType": "struct ReserveToExternalToken[]",
              "name": "reserveToExternalToken",
              "type": "tuple[]"
            },
            {
              "components": [
                {
                  "internalType": "address",
                  "name": "transformer",
                  "type": "address"
                },
                {
                  "internalType": "bytes32",
                  "name": "secret",
                  "type": "bytes32"
                }
              ],
              "internalType": "struct SecretReveal[]",
              "name": "revealSecrets",
              "type": "tuple[]"
            },
            {
              "internalType": "uint256",
              "name": "hub_id",
              "type": "uint256"
            }
          ],
          "internalType": "struct Batch",
          "name": "batch",
          "type": "tuple"
        }
      ],
      "name": "unsafeProcessBatch",
      "outputs": [
        {
          "internalType": "bool",
          "name": "completeSuccess",
          "type": "bool"
        }
      ],
      "stateMutability": "nonpayable",
      "type": "function"
    }
  ],
  "bytecode": "0x60c0346200024857601f6200656238819003918201601f19168301916001600160401b038311848410176200024d578084926020946040528339810103126200024857516001600160a01b03811680820362000248576000916001835560146006558115620001f557608052808252600160205260408220600160ff1982541617905560025490680100000000000000009182811015620001e1576001810180600255811015620001cd57600284527f405787fa12a823e0f2b7631cc41b3ba8828b3321ca811111fa75cd3aa3bb5ace0180546001600160a01b03191690911790553360a052600d5490811015620001b9576001810180600d55811015620001a557600d82527fd7b6990105719101dabeb77144f2a3385c8033acd3af97e9423a695e81ad1eb501556040516162fe9081620002648239608051818181610be1015281816115cc015281816123c00152818161327901528181613b5801526145b8015260a05181818161022c0152818161028f015281816104c40152818161057d015281816107aa01528181610d8f0152818161126d0152818161149e01526117990152f35b634e487b7160e01b82526032600452602482fd5b634e487b7160e01b82526041600452602482fd5b634e487b7160e01b84526032600452602484fd5b634e487b7160e01b84526041600452602484fd5b60405162461bcd60e51b815260206004820152602560248201527f456e7469747950726f76696465722063616e6e6f74206265207a65726f206164604482015264647265737360d81b6064820152608490fd5b600080fd5b634e487b7160e01b600052604160045260246000fdfe60a060408181526004918236101561001657600080fd5b600092833560e01c9182630c0a46a814611b1f575081630dedd62414611ab1578163125c2cc414611a3e5781631e40079c146119e1578163266afe1b1461191c5781632f84cf7d146118c157816331cf2a56146117fa5781633644e515146117d15781633925cd44146115fb5781634318cdd0146115b757816351858e271461159357816358d642bc1461147957816360316801146114145781636b79134d146113ec5781637508b916146113c057816388a1cd7614611375578163907efb1b1461135657816392cf61e5146113045781639304677d146112cc57816396954a9f146112a4578163a9dc739e1461118c578163abc8d1ac1461114e578163acd6f20814611122578163b0c26ecf14611103578163bb2c250c14611026578163bc197c8114610f80578163c408a90914610df7578163d148b4c814610d77578163d19fd92e14610d4f578163d57bb1d614610b11578163d595b4f5146107f2578163d8d1a65714610789578163dd865c8b14610724578163ddc3948014610555578163e812c569146104ae578163ec6d8e061461046d578163ed70554d14610434578163f176e326146103f6578163f23a6e61146102be578163f851a4401461027a578163fbd6d63f14610218575063fc3c4c3e146101f357600080fd5b346102145760209061020d61020736611ce6565b90614e6c565b9051908152f35b5080fd5b919050346102765761022936611ce6565b927f00000000000000000000000000000000000000000000000000000000000000006001600160a01b0316330361026857508352600760205282205580f35b8251633485c51360e21b8152fd5b8280fd5b505034610214578160031936011261021457517f00000000000000000000000000000000000000000000000000000000000000006001600160a01b03168152602090f35b9050346102765760a0366003190112610276576102d9611da5565b506102e2611dbb565b506084356001600160401b0381116103f257610301903690830161221e565b50508151632ecb094360e21b8152600282820152336024820152604480356001600160601b03169082015260209390848160648173__$1a0918a2aa2208593bb0a5d7644cd0946b$__5af49081156103e85782916103bb575b50808252600e8552838220541561037c575b5050505163f23a6e6160e01b8152f35b61038581613056565b600d546000198101939084116103a857508152600e84528290205538808061036c565b634e487b7160e01b835260119052602482fd5b90508481813d83116103e1575b6103d28183611c2b565b8101031261021457513861035a565b503d6103c8565b84513d84823e3d90fd5b8380fd5b8284346104315781600319360112610431575061041a61042d926024359035613016565b90519182916020835260208301906122fd565b0390f35b80fd5b905034610276576020366003190112610276573591600d54831015610431575061045f6020926122e2565b91905490519160031b1c8152f35b90503461027657602036600319011261027657359160025483101561043157506104986020926122c7565b905491519160018060a01b039160031b1c168152f35b905034610276576104be366121b8565b909391927f00000000000000000000000000000000000000000000000000000000000000006001600160a01b0316330361026857811561054757506000805160206162698339815191529160209184875260038352818720868852835261052982882091825461271e565b9055838652600382528086208587528252808620549051908152a380f35b825163440a57bf60e01b8152fd5b8391503461021457602036600319011261021457610571611da5565b6001600160a01b0391907f000000000000000000000000000000000000000000000000000000000000000083163303610715578216916105b283151561272b565b828452600191600160205260ff8686205416156106ec57849584849596526001602052862060ff19815416905585935b610610575b85857f67c5a35d33d48c47ef33c82c62eda6254aad034fab4c51abe26a6d06ad174a348280a280f35b6002805490818610156106e557839187610629886122c7565b949054600395861b1c16146106455750505082809401936105e2565b919590945060001992918381019081116106d257906106778561066a610695946122c7565b9054908a1b1c16916122c7565b90919060018060a01b038084549260031b9316831b921b1916179055565b83549081156106bf575001926106aa846122c7565b81939154921b1b1916905555828080806105e7565b634e487b7160e01b885260319052602487fd5b634e487b7160e01b895260118352602489fd5b50506105e7565b606490602087519162461bcd60e51b83528201526003602482015262216f6b60e81b6044820152fd5b508351633485c51360e21b8152fd5b9050346102765760803660031901126102765781519161074383611b90565b813583526024356020840152604435818401526064356060840152600284541461077c57836107758460028355614b5c565b6001815580f35b51633018d46b60e11b8152fd5b9050346102765760203660031901126102765780359182151583036103f2577f00000000000000000000000000000000000000000000000000000000000000006001600160a01b031633036107e557836107e284612fc5565b80f35b51633485c51360e21b8152fd5b91905034610276576080366003190112610276576001600160401b0392823584811161021457610825903690850161221e565b610830959195611dbb565b95604435838111610b0d57610848903690880161221e565b9390926064359760ff600b5416610aff576002875414610af157600287556001600160a01b03998a168088526001602090815289892054909b919060ff1615610ac25789516359516e5f60e01b81526000805160206162898339815191528185015246602482015230604482015260a06064820152969594939291908c88808e6108d660a48301898c612fa4565b906084830152038173__$1a0918a2aa2208593bb0a5d7644cd0946b$__5af4978815610ab857908b918b99610a7f575b5061093090888c8c85519c8d9586948593631155a0c560e31b8552898c8601526044850191612fa4565b90602483015203925af18015610a755789978a91610a36575b50158015610a2e575b610a1f57861690818952600f8c528989205460018101809111610a0c578b036109fe57508752600f8a52888888205582019189818403126109fa5780359182116109fa576001969594936109d66109d07fbd6e57133956b4a3944b483a9e595b4aab16071cf15a39384fdb1b7015865aab958b956109de9501612894565b86613ef3565b953691611c69565b898151910120938151988952151597888a820152a35551908152f35b8680fd5b8951633485c51360e21b8152fd5b634e487b7160e01b8a526011825260248afd5b508851631bd18a1960e31b8152fd5b508615610952565b8098508b8092503d8311610a6e575b610a4f8183611c2b565b81010312610a6a57610a648c88519801612343565b38610949565b8880fd5b503d610a45565b8a513d8b823e3d90fd5b8e80929a508193503d8311610ab1575b610a998183611c2b565b81010312610aad5751968a90610930610906565b8980fd5b503d610a8f565b8b513d8c823e3d90fd5b895162461bcd60e51b81528084018d9052600960248201526810b83937bb34b232b960b91b6044820152606490fd5b8751633018d46b60e11b8152fd5b8751633485c51360e21b8152fd5b8480fd5b9190503461027657602092836003193601126104315782356001600160401b03811161021457610b44903690850161224b565b6002825414610d40578490600283558351610b5e81611bc7565b60019160018252845b848110610d025750610b7882612322565b52610b8281612322565b5060065485519687936312f6ab5960e31b855260a48501918086015233602486015260a09160a06044870152845180915260c48601928760c48360051b89010196019389915b8b848410610c89575050505060648601939093525050507f00000000000000000000000000000000000000000000000000000000000000006001600160a01b031660848301528190038173__$1a0918a2aa2208593bb0a5d7644cd0946b$__5af4928315610c7d578193610c44575b5060019055519015158152f35b9092508381813d8311610c76575b610c5c8183611c2b565b8101031261027657610c6f600191612343565b9290610c37565b503d610c52565b509051903d90823e3d90fd5b610cee90869983610cde8a9e9699979a8796999c9e60c319908503018b52519360c0908551855287860151888601528086015190850152606080860151908501526080908082870151928601528401906122fd565b92015190878184039101526122fd565b9901930193018b979592938b979592610bc8565b869491929451610d1181611b44565b868152868382015286888201526060878183015280608083015260a08201528282870101520190879391610b67565b505051633018d46b60e11b8152fd5b905034610276576020366003190112610276576020928291358152600e845220549051908152f35b905034610276576020366003190112610276578035917f00000000000000000000000000000000000000000000000000000000000000006001600160a01b031633036107e5578215610dcb57505060065580f35b906020606492519162461bcd60e51b835282015260066024820152652164656c617960d01b6044820152fd5b9050346102765760a09160a06003193601126103f2576001600160401b039360443585811161021457610e2d90369085016120f2565b60643586811161027657610e449036908601611d45565b9560843590811161027657610e5f90959295369086016120f2565b95610e6d6024358635613016565b9586958551978880928251610e888160209d8e809701611cc3565b8201908152030190205493855193610eb089860198848a5260c08988015260e08701906122fd565b93866060870152601f1994858782030160808801528a8084519283815201930190855b8c828210610f5d575050505090610ef391858783030160a0880152612f70565b90838583030160c086015288808b5193848152019a0192905b828210610f3d5750505050610f2b908260609803908101835282611c2b565b51809320938251948552840152820152f35b90919299898282610f516001948f51612350565b019b0193920190610f0c565b8686610f72869860019596979b9a9b51612350565b979897019501929101610ed3565b905082346104315760a036600319011261043157610f9c611da5565b50610fa5611dbb565b506001600160401b039060443582811161021457610fc690369085016121ee565b505060643582811161021457610fdf90369085016121ee565b50506084359182116104315750606492610ffe6020923690850161221e565b50505162461bcd60e51b8152918201526006602482015265042c4c2e8c6d60d31b6044820152fd5b9190503461027657606036600319011261027657813560ff81168091036103f25761104f611dbb565b6044356001600160601b03811692908390036110ff578351632ecb094360e21b8152948501526001600160a01b03166024840152604483015260208260648173__$1a0918a2aa2208593bb0a5d7644cd0946b$__5af49182156110f55783926110bd575b6020838351908152f35b9091506020813d6020116110ed575b816110d960209383611c2b565b8101031261027657602092505190386110b3565b3d91506110cc565b81513d85823e3d90fd5b8580fd5b505034610214578160031936011261021457602090600d549051908152f35b505034610214578060209261113636611ce6565b90825260038552828220908252845220549051908152f35b5050346102145760203660031901126102145760209160ff9082906001600160a01b03611179611da5565b1681526001855220541690519015158152f35b839150346102145760031990838236011261027657803591602435906001600160401b038211610b0d576101409082360301126103f25760ff600b541661071557600284541461129557600284556001600160a01b038381163314908115611269575b501561121b576020949261120b60019361121193369101612894565b90613ef3565b9255519015158152f35b845162461bcd60e51b8152602081840152602260248201527f45323a2063616c6c6572206d75737420626520656e74697479206f722061646d60448201526134b760f11b6064820152608490fd5b90507f0000000000000000000000000000000000000000000000000000000000000000163314866111ef565b508351633018d46b60e11b8152fd5b9050346102765760203660031901126102765760209282913581526007845220549051908152f35b5050346102145760203660031901126102145760209181906001600160a01b036112f4611da5565b168152600f845220549051908152f35b828434610431576020366003190112610431575061132561042d923561275f565b92516001600160a01b0390921682526001600160601b0316602082015260ff90911660408201529081906060820190565b5050346102145781600319360112610214576020906006549051908152f35b50503461021457611385366121b8565b918452600860205282842090845260205281832080548210156103f257906113ac916121d2565b506001815491015482519182526020820152f35b50503461021457806020926113d436611ce6565b90825260098552828220908252845220549051908152f35b905034610276576020366003190112610276576020928291358152600a845220549051908152f35b8284346104315760203660031901126104315750813591600d54831015611451575061132561144561042d936122e2565b90549060031b1c61275f565b606491519062461bcd60e51b825260208183015260248201526321746f6b60e01b6044820152fd5b83833461021457602036600319011261021457611494611da5565b6001600160a01b037f000000000000000000000000000000000000000000000000000000000000000081163303611583578116916114d383151561272b565b828452600160205260ff81852054166115585782845260016020528320600160ff19825416179055600254600160401b811015611545579061067782600161151e94016002556122c7565b7fc395b1bd803c744a815bc34a0426e5eaac03513b9d76bf237a734a004916499c8280a280f35b634e487b7160e01b845260418552602484fd5b5162461bcd60e51b8152602081860152600660248201526565786973747360d01b6044820152606490fd5b8251633485c51360e21b81528590fd5b50503461021457816003193601126102145760209060ff600b541690519015158152f35b505034610214578160031936011261021457517f00000000000000000000000000000000000000000000000000000000000000006001600160a01b03168152602090f35b8284346104315760803660031901126104315782356024356044359160643560ff600b54166117335760028554146117c157600285556001600160a01b038281163314908115611795575b501561174357828214611733578015611723576116638483614e6c565b5081855260209660038852868620858752885281878720541061171557508382889287969594600198526003845288872083885284528887206116a78282546126fb565b90558487526003845288872083885284526116c689882091825461271e565b9055808652600383528786208287528352878620548851908152600080516020616269833981519152938491a381845260038752858420838552875286868520548751908152a3555160018152f35b8651632fd8225d60e21b8152fd5b855163440a57bf60e01b81528790fd5b8551633485c51360e21b81528790fd5b855162461bcd60e51b8152602081890152602660248201527f45323a2063616c6c6572206d7573742062652066726f6d456e74697479206f726044820152651030b236b4b760d11b6064820152608490fd5b90507f000000000000000000000000000000000000000000000000000000000000000016331488611646565b8551633018d46b60e11b81528790fd5b505034610214578160031936011261021457602090516000805160206162898339815191528152f35b8383346102145760c0366003190112610214576001600160401b036044358181116103f25761182c90369086016120f2565b90606435818111610b0d576118449036908701611d45565b6084358281116110ff5761185b90369088016120f2565b9160a4359081116110ff576118739036908801611ca5565b9260ff600b54166118b15760028654146118a15791600193916112119360209860028955602435903561237d565b8451633018d46b60e11b81528790fd5b8451633485c51360e21b81528790fd5b8383346102145760203660031901126102145782356001600160401b038111610276576118f19036908501611df2565b92600283541461190e5750600161121160209460028555336131a8565b9051633018d46b60e11b8152fd5b8284346104315780600319360112610431578151600280548083529083526020939284830192909183907f405787fa12a823e0f2b7631cc41b3ba8828b3321ca811111fa75cd3aa3bb5ace90845b8181106119c45750505081611980910382611c2b565b83519485948186019282875251809352850193925b8281106119a457505050500390f35b83516001600160a01b031685528695509381019392810192600101611995565b82546001600160a01b03168452928801926001928301920161196a565b505034610214576119f136611ce6565b9290815260106020528181209081548410156104315750608092611a1491611cfc565b50908154916001810154916003600283015492015492815194855260208501528301526060820152f35b828434610431576020366003190112610431578235906001600160401b03821161043157506020606093611a78611a8b9336908301611ca5565b9082855194838680955193849201611cc3565b820190815203019020805491600260018301549201549181519384526020840152820152f35b90503461027657816003193601126102765780356001600160401b0381116103f2576020611ae7849593611af993369101611ca5565b81855193828580945193849201611cc3565b810160058152030190206024358252602052206001815491015482519182526020820152f35b929150346103f25760203660031901126103f25792602093358152600c845220548152f35b60c081019081106001600160401b03821117611b5f57604052565b634e487b7160e01b600052604160045260246000fd5b606081019081106001600160401b03821117611b5f57604052565b608081019081106001600160401b03821117611b5f57604052565b61012081019081106001600160401b03821117611b5f57604052565b604081019081106001600160401b03821117611b5f57604052565b6001600160401b038111611b5f57604052565b60e081019081106001600160401b03821117611b5f57604052565b602081019081106001600160401b03821117611b5f57604052565b601f909101601f19168101906001600160401b03821190821017611b5f57604052565b6001600160401b038111611b5f57601f01601f191660200190565b929192611c7582611c4e565b91611c836040519384611c2b565b829481845281830111611ca0578281602093846000960137010152565b600080fd5b9080601f83011215611ca057816020611cc093359101611c69565b90565b60005b838110611cd65750506000910152565b8181015183820152602001611cc6565b6040906003190112611ca0576004359060243590565b8054821015611d185760005260206000209060021b0190600090565b634e487b7160e01b600052603260045260246000fd5b6001600160401b038111611b5f5760051b60200190565b9080601f83011215611ca0576020908235611d5f81611d2e565b93611d6d6040519586611c2b565b81855260208086019260051b820101928311611ca057602001905b828210611d96575050505090565b81358152908301908301611d88565b600435906001600160a01b0382168203611ca057565b602435906001600160a01b0382168203611ca057565b35906001600160a01b0382168203611ca057565b35908115158203611ca057565b9190916101a0908181850312611ca05760408051909490926001600160401b0390840181811185821017611b5f57865283958335855260208085013581870152818501358287015260609182860135838801526080860135608088015260a086013560a088015260c0860135848111611ca0578601928084870312611ca057815193611e7d85611b75565b8035868111611ca057810187601f82011215611ca057803590611e9f82611d2e565b91611eac86519384611c2b565b808352868084019160051b830101918a8311611ca05787809101915b8383106120e25750505050855283810135868111611ca05787611eec918301611d45565b848601528281013590868211611ca057019286601f85011215611ca057833593611f1585611d2e565b94611f2285519687611c2b565b808652828087019160051b83010191898311611ca057838101915b838310611fdb5750505050505082015260c085015260e0830135818111611ca05782611f6a918501611ca5565b60e085015261010080840135828111611ca05783611f89918601611ca5565b908501526101209182840135918211611ca057611fa7918401611ca5565b90830152610140611fb9818301611de5565b908301526101608082013590830152611fd6610180809201611de5565b910152565b82358a8111611ca0578201808c03601f19018713611ca057875190611fff82611b75565b61200a878201611dd1565b8252888101358c8111611ca0578d8861202592840101611ca5565b8783015287810135908c8211611ca057018c603f82011215611ca0578c8782013561204f81611d2e565b9261205c8c519485611c2b565b8184528b8b8b86019302820101928311611ca057918f9593918b8d8c979501975b83891061209a57505050508394508a820152815201920191611f3d565b889496989192939597500312611ca057898b918d8051906120ba82611b75565b85358252838601358483015280860135908201528152019101949290918f928b8b969461207d565b8235815291810191889101611ec8565b81601f82011215611ca057803590602061210b83611d2e565b93604061211b6040519687611c2b565b848652828601918360a080970286010194818611611ca0578401925b858410612148575050505050505090565b8684830312611ca057825190878201906001600160401b038211838310176121a35788928792865286358152828701358382015285870135868201526060808801359082015260808088013590820152815201930192612137565b60246000634e487b7160e01b81526041600452fd5b6060906003190112611ca057600435906024359060443590565b8054821015611d185760005260206000209060011b0190600090565b9181601f84011215611ca0578235916001600160401b038311611ca0576020808501948460051b010111611ca057565b9181601f84011215611ca0578235916001600160401b038311611ca05760208381860195010111611ca057565b919060c083820312611ca0576040519061226482611b44565b81938035835260208101356020840152604081013560408401526060810135606084015260808101359160018060401b0392838111611ca057816122a9918401611ca5565b608085015260a0820135928311611ca05760a092611fd69201611ca5565b600254811015611d1857600260005260206000200190600090565b600d54811015611d1857600d60005260206000200190600090565b9060209161231681518092818552858086019101611cc3565b601f01601f1916010190565b805115611d185760200190565b8051821015611d185760209160051b010190565b51908115158203611ca057565b60808091805184526020810151602085015260408101516040850152606081015160608501520151910152565b94909181516040519087825284602083015260408201527fa264fed2aeca4c017f79af95a85d585564f8bcd0f423908892f3920e8b8e6c23608060018060a01b037f00000000000000000000000000000000000000000000000000000000000000001692836060820152a1604051926123f584611bc7565b6001845260005b602081106126a557506040519261241284611bab565b888452856020850152604084015285606084015286608084015260a083015260c082015260405161244281611c10565b6000815260e0820152600061010082015261245c82612322565b5261246681612322565b506040519063d017d69960e01b82528160a4810160036004830152600460248301526005604483015287606483015260a06084830152825180915260c4820190602060c48260051b8501019401916000905b828210612552575050505080602092038173__$1a0918a2aa2208593bb0a5d7644cd0946b$__5af49081156125465760009161250c575b5015612503576124fe93613d01565b600190565b50505050600090565b90506020813d60201161253e575b8161252760209383611c2b565b81010312611ca05761253890612343565b386124ef565b3d915061251a565b6040513d6000823e3d90fd5b919350919360c319868203018252845190610120808201835183526020840151602084015260408401519160408401528151809152602061014084019201906000905b808210612685575050506060830151908281036060840152602080835192838152019201906000905b80821061266d575050506080830151908281036080840152602080835192838152019201906000905b80821061264d575050508260209261010080612638612615879660a060019a015186820360a08801526122fd565b888060a01b0360c08701511660c086015260e086015185820360e08701526122fd565b930151910152960192019201859391926124b8565b909192602060a0826126626001948851612350565b0194019201906125e7565b909192602080600192865181520194019201906125be565b909192602060a08261269a6001948851612350565b019401920190612595565b6020906040516126b481611bab565b600081526000838201526060604082015260608082015260606080820152606060a0820152600060c0820152606060e08201526000610100820152828288010152016123fc565b9190820391821161270857565b634e487b7160e01b600052601160045260246000fd5b9190820180921161270857565b1561273257565b60405162461bcd60e51b815260206004820152600560248201526410b0b2323960d91b6044820152606490fd5b90604051916392cf61e560e01b8352600483015260608260248173__$1a0918a2aa2208593bb0a5d7644cd0946b$__5af4908115612546576000809381936127a8575b50929190565b925092506060823d60601161280e575b816127c560609383611c2b565b810103126102765781516001600160a01b03811681036103f2576020830151926001600160601b0384168403610b0d57604001519360ff851685036104315750919291386127a2565b3d91506127b8565b92919261282282611d2e565b6040946128326040519283611c2b565b81958483526020809301916060809602850194818611611ca057925b85841061285e5750505050505050565b8684830312611ca057848791845161287581611b75565b863581528287013583820152858701358682015281520193019261284e565b919091610140908181850312611ca0576040519182016001600160401b03811183821017611b5f57604052909283919081356001600160401b038111611ca057820181601f82011215611ca0578035906128ed82611d2e565b906128fb6040519283611c2b565b8282526020820190602060069460061b82010190858211611ca057602001915b818310612f3f57505050845260208301356001600160401b038111611ca057830182601f82011215611ca0578281602061295793359101612816565b602085015260408301356001600160401b038111611ca05783019082601f83011215611ca05781359161298983611d2e565b926129976040519485611c2b565b80845260208085019160051b83010191858311611ca05760208101915b838310612e5b575050505050604084015260608201356001600160401b038111611ca05781601f828501011215611ca05780830135906129f382611d2e565b91612a016040519384611c2b565b808352602083018460208360051b858901010111611ca057602083870101905b60208360051b85890101018210612cec575050505060608401526080828101356001600160401b038111611ca057830182601f82011215611ca0578035612a6781611d2e565b91612a756040519384611c2b565b81835260208084019260051b82010191858311611ca05760208201905b838210612cbf5750505050608085015260a08301356001600160401b038111611ca057830182601f82011215611ca0578035612acd81611d2e565b91612adb6040519384611c2b565b81835260208084019260051b82010191858311611ca05760208201905b838210612c92575050505060a085015260c08301356001600160401b038111611ca05783019082601f83011215611ca057813591612b3583611d2e565b92612b436040519485611c2b565b80845260208085019160071b83010191858311611ca057602001905b828210612c4e575050505060c084015260e08201356001600160401b038111611ca057820181601f82011215611ca05781816020612b9f93359101612816565b60e0840152610100828101356001600160401b038111611ca057830182601f82011215611ca057803590612bd282611d2e565b93612be06040519586611c2b565b82855260208086019360061b83010191818311611ca057602001925b828410612c16575050505083015261012080910135910152565b604084830312611ca05760206040918251612c3081611bc7565b612c3987611dd1565b81528287013583820152815201930192612bfc565b8382870312611ca05760208491604051612c6781611b90565b8435815282850135838201526040850135604082015260608501356060820152815201910190612b5f565b81356001600160401b038111611ca057602091612cb489848094880101611df2565b815201910190612af8565b81356001600160401b038111611ca057602091612ce18984809488010161224b565b815201910190612a92565b81356001600160401b038111611ca05761012088860182018803601f190112611ca05760405190612d1c82611bab565b88860181016020818101358452604082013590840152606001356001600160401b038111611ca057886020612d5792848a8e010101016120f2565b60408301528886018101608001356001600160401b038111611ca057886020612d8692848a8e01010101611d45565b60608301526001600160401b03898701820160a0013511611ca057612db888878b01830160a0810135016020016120f2565b60808301526001600160401b03898701820160c0013511611ca057612dea88878b01830160c081013501602001611ca5565b60a0830152612dff60e082888c010101611dd1565b60c08301526001600160401b038987018201610100013511611ca0576020928392839261012090612e3d8c8b8f018301610100810135018701611ca5565b60e0840152898d010101356101008201528152019201919050612a21565b82356001600160401b038111611ca057820160609081601f19828b030112611ca05760405191612e8a83611b75565b6020828101358452604083013590840152810135906001600160401b038211611ca0570188603f82011215611ca0576020810135612ec781611d2e565b91612ed56040519384611c2b565b818352604060208401928a1b820101908b8211611ca057604001915b818310612f0e5750505060408201528152602092830192016129b4565b6040838d0312611ca05760206040918251612f2881611bc7565b853581528286013583820152815201920191612ef1565b604083870312611ca05760206040918251612f5981611bc7565b85358152828601358382015281520192019161291b565b90815180825260208080930193019160005b828110612f90575050505090565b835185529381019392810192600101612f82565b908060209392818452848401376000828201840152601f01601f1916010190565b600b54901515908160ff82161515146130125760ff191660ff821617600b556040519081527fb5838f871ddee4623a406029b1a0b6013e0ec30f2dc114307f21459a800a829690602090a1565b5050565b908082101561303a57604051916020830152604082015260408152611cc081611b75565b90604051916020830152604082015260408152611cc081611b75565b600d54600160401b811015611b5f578060016130759201600d556122e2565b819291549060031b91821b91600019901b1916179055565b906020908183528051916130ad6060936060838701526080860190612f70565b9181810151601f19906130cc6040958692848a830301848b0152612f70565b92015195606082828503019101528551938483528383019184808760051b8601019801966000916000955b88871061310b575050505050505050505090565b9091929394959697989982828203018752888b5160018060a01b03815116835287613141838301518885870152888601906122fd565b910151928881830391015281808451928381520193019087905b8781831061317f5750505050806001929c01970197019598979694939291906130f7565b83958b6001949693955180518352848101518584015201518c82015201940192018b929161315b565b6131b3825182613016565b61018083015115613a025760408051908251602090818501906131d7818684611cc3565b84019382816004968781520301902054156139f3576101208701908151511561399c5785856132ae936132cf6132198780968a51809381928951928391611cc3565b810186815203019020548c60c08101518a5161324a8161323c8b8201948561308d565b03601f198101835282611c2b565b5190209361010082015188815191012090519151948b51998a98899863f06f210160e01b8a5260018060a01b037f000000000000000000000000000000000000000000000000000000000000000016908a015260e060248a015260e48901906122fd565b936044880152606487015260848601526003198583030160a48601526122fd565b9060c4830152038173__$1a0918a2aa2208593bb0a5d7644cd0946b$__5af49182156139915760009261395b575b50501561394e575050600261334960206000935b6040519085600182519385818186019661332c81838a611cc3565b810160048152030190200155604051938492839251928391611cc3565b810160048152030190200155815160c08301519260e0810151610100820151946020810151518151510361393c578385109586156139365785945b871561392e57925b87156139275780975b1561391f5750935b6133a78382613016565b90602083015151976133b889611d2e565b986133c66040519a8b611c2b565b808a526133d281611d2e565b601f19013660208c01378960005b8281106138b757505081511590506138a057806020806134059351830101910161577c565b955b80511561388157806020806134219351830101910161577c565b9298939694909591965b6000995b604081015180518c10156136b3578b6134479161232f565b51608081905280516020909101518551909a916001600160a01b0316908d101561369b578c8c613477828961232f565b51915b89518110156136855761348d908a61232f565b515b604051630c6191f960e11b8152608060048201529d8e9384936134b6906084860190612f70565b9160031992838682030160248701526134ce916122fd565b828582030160448601526134e1916122fd565b908382030160648401526134f4916122fd565b03815a6000948591f1998a156125465760009a6135da575b5060005b6040608051015180518210156135ca578b61354761353d8f93856135339161232f565b519283519061232f565b519282519061232f565b5160008112838281031281169084838103139015161761270857600081840313806135bb575b61358d57600081840312928361359f575b50505061358d57600101613510565b604051633485c51360e21b8152600490fd5b6020929350906135af910361584d565b9101511038808061357e565b5060408201518184031161356d565b50506001909b019a98995061342f565b9099503d90816000823e6135ee8282611c2b565b6020818381010312611ca0578051916001600160401b038311611ca057808201601f848401011215611ca057828201519161362883611d2e565b936136366040519586611c2b565b8385526020850192820160208560051b838501010111611ca057602081830101925b60208560051b83850101018410613675575050505050983861350c565b8351815260209384019301613658565b5060405161369281611c10565b6000815261348f565b8c8c6040516136a981611c10565b600081529161347a565b5098959493509850905060005b602088015180518210156137eb5781600060018a8a8e8b61370860206136f3896136ec839d8a9d61232f565b519461232f565b51958160405193828580945193849201611cc3565b8101600581520301902081875289526040862093845490878113158814613775578161373992613764575b5061584d565b9182613752575b505050505b82815501550190506136c0565b61375b93616161565b8a388f80613740565b61376f908486615fce565b38613733565b8181101588146137c9578293948261379594816137b8575b5050506126fb565b908d826137a6575b50505050613745565b6137af93616161565b8d38808d61379d565b6137c192615fce565b8f828561378d565b6137e0916137db82856137e698615fce565b6126fb565b91615fce565b613745565b5050955095509261380e9250602091508160405193828580945193849201611cc3565b810160048152030190206138228154613ee4565b90558151907f6d46d52b5fda2a9055705ba74bf5e95807cfa39decf819cdfeaa14f9b2ba346a604060608501519460c060a0820151910151825161386e8161323c60208201948561308d565b51902082519182526020820152a4600190565b5060405161388e81611c10565b6000815292989396949095919661342b565b506040516138ad81611c10565b6000815295613407565b806138c860019260208a015161232f565b51604051602081816138e08c83815193849201611cc3565b810160058152030190209060005260205261390e8260406000200154613907838b5161232f565b5190615760565b613918828561232f565b52016133e0565b90509361339d565b8197613395565b50859261338c565b84613384565b6040516329be7c4760e11b8152600490fd5b51631bd18a1960e31b8152fd5b90809250813d831161398a575b6139728183611c2b565b81010312611ca05761398390612343565b38806132fd565b503d613968565b83513d6000823e3d90fd5b835162461bcd60e51b8152808601849052602b60248201527f5369676e617475726520726571756972656420666f7220636f6f70657261746960448201526a76652066696e616c697a6560a81b6064820152608490fd5b5050516388d0662b60e01b8152fd5b604080519082516020600181860192613a1c818786611cc3565b8501948281600497888152030190200154918215613cf15773__$1a0918a2aa2208593bb0a5d7644cd0946b$__86828a85810151968660608301988b613ad18c8c51966002613a808761014084019e8f5115159d8651938492839251928391611cc3565b810188815203019020015460a082019a6101008c519301519351998a9788976303d0627d60e41b8952880152602487015260448601526064850152608484015260c060a484015260c48301906122fd565b0381885af4918215613ce657600092613cb7575b5003613ca7576101208b018051518c97969591949392919015613c17575050506132ae8391898989613b8d60c08b01518251613b288161323c8b8201948561308d565b5190209a8281015190608081019c8d519a51915194519a8b998a98899863ff828d9160e01b8a5260018060a01b037f000000000000000000000000000000000000000000000000000000000000000016908a015260e060248a015260e48901906122fd565b9060c483015203915af4918215613c0c57600092613bd6575b505015613bc75751905111156107e557505060026133496020600093613311565b505051631bd18a1960e31b8152fd5b90809250813d8311613c05575b613bed8183611c2b565b81010312611ca057613bfe90612343565b3880613ba6565b503d613be3565b85513d6000823e3d90fd5b9250939550935084915051151589518910149182613c7a575b5050613c6b57519061323c613c5260c08901519285519283918201948561308d565b519020036107e557505060026133496020600093613311565b505051633485c51360e21b8152fd5b6002925090613c93918651809381928b51928391611cc3565b810188815203019020015443108238613c30565b8651630cba69cb60e01b81528890fd5b9091508681813d8311613cdf575b613ccf8183611c2b565b81010312611ca057519038613ae5565b503d613cc5565b89513d6000823e3d90fd5b505050516388d0662b60e01b8152fd5b9391909160005b8251811015613d3a5780613d34613d216001938661232f565b51613d2d81888b61585e565b888761585e565b01613d08565b5092905060005b8151811015613eab57613d54818361232f565b5190602080830190815186898214159182613ea0575b5050613e8357835186898214159182613e95575b5050613e835781518451148015613e77575b61358d576080840191428351111561358d57845160005260108252604094856000209582519481830194855193606080820198895191855190875192613dd584611b90565b835285830198895287830193845282019081528c54600160401b811015611b5f57613e079060019e8f82018155611cfc565b939093613e615760019d7fbfd7274449bb908ddf203ddf1c94d588d62b66048e4a9b4b0bc4835067b0353699600394518655519085015551600284015551910155519451955196519151908351928352820152a401613d41565b634e487b7160e01b600052600060045260246000fd5b50606084015115613d90565b604051633c4117f160e21b8152600490fd5b141590508638613d7e565b141590508638613d6a565b5050509050565b90613ebc82611d2e565b613ec96040519182611c2b565b8281528092613eda601f1991611d2e565b0190602036910137565b60001981146127085760010190565b9190613f00815151613eb2565b90613f0c815151613eb2565b93613f18825151613eb2565b94600091825b8451805182101561400c5781613f339161232f565b515160208981613f44858a5161232f565b510151916000935b888510613fe3575b8a898614613f89575b505050613f7b8392613f7560019695613f829461232f565b5161271e565b918b61232f565b5201613f1e565b85613fd58b8b613fcf82613f82999f98888f60019f9e9d9a613fb1613f7b9d613f759c61232f565b5260005260038252604091826000209160005252600020549261232f565b52613ee4565b9a945050509293948a613f5d565b93909184613ff1838d61232f565b5114614004575060010192908b91613f4c565b919093613f54565b50509594939460005b838110614ac157506001936000855b614a77575b506000855b61495d575b50606081015180516146ca575b50608080820151908151614547575b505060005b610100820151805182101561412c578161406d9161232f565b5180516001600160a01b039081161561358d5781511690602080910191825190803b15611ca05760008091602460409485519485938492636030754560e01b845260048401525af18015614121579260019594927f47172349c05bf58f7f6a376def3bbc250cd3295a7eead0290d8fa3531c6ca9fb928f95614112575b508351815183810191825283815261410181611bc7565b51902093519051908152a301614054565b61411b90611be2565b386140ea565b82513d6000823e3d90fd5b505091939590929460005b60a0840151805182101561417057614152826141599261232f565b518a6131a8565b15614167575b600101614137565b6000975061415f565b505091939590929460005b604086015180518210156141b4576141968261419d9261232f565b518a615994565b156141ab575b60010161417b565b600092506141a3565b505091939590929460005b60e0880151805182101561446057816141d79161232f565b5160208101906141e882518c615360565b506141f661144583516122e2565b9291908d60005260036020526040938460002086516000526020528460002054958585019687511161444f57908f9160ff92885181600052600360205288600020835160005260205261424e896000209182546126fb565b9055815191816000526003602052886000209051600052602052600080516020616269833981519152602089600020548a51908152a3168061432c575050602090604460018060a01b0380945116955160008651958694859363a9059cbb60e01b855260049a8b8601526024850152165af1908115614121576000916142f2575b50156142e5575050600160e0915b0190506141bf565b51632fd8225d60e21b8152fd5b906020823d602011614324575b8161430c60209383611c2b565b81010312610431575061431e90612343565b386142cf565b3d91506142ff565b92949092600181036143b957505092516001600160a01b039384169316833b15611ca05782516323b872dd60e01b8152936000928592839185918391614382916001600160601b03909116903060048501614b3a565b03925af19081156143af57509160019160e0936143a0575b506142dd565b6143a990611be2565b3861439a565b513d6000823e3d90fd5b909491906002146143d4575b5050505050600160e0916142dd565b905193516001600160a01b0394851694909116803b15611ca0578351637921219560e11b81529460009386938492869284926144209290916001600160601b0316903060048601614b06565b03925af19081156143af57509160019160e093614440575b8193816143c5565b61444990611be2565b38614438565b8551632fd8225d60e21b8152600490fd5b505091949092955095929560005b85811061447e5750505050505090565b614488818361232f565b516144a8614496838761232f565b516144a1848761232f565b519061271e565b9086600052600360209080825260409384600020846000528352846000205410614536576144d6858861232f565b5189600052818352846000208460005283526144f7856000209182546126fb565b90558860005281528260002091600052528060002054614517838761232f565b5111614526575060010161446e565b51632fd8225d60e21b8152600490fd5b8351632fd8225d60e21b8152600490fd5b89600654926040936040519384916312f6ab5960e31b835260a4830194600480850152602484015260a09460a06044850152845180915260c484019260c48260051b860101936020998a809801986000935b8585106146535750505050505082939450606483015260018060a01b037f0000000000000000000000000000000000000000000000000000000000000000166084830152038173__$1a0918a2aa2208593bb0a5d7644cd0946b$__5af49182156125465760009261461d575b505015614614575b388061404f565b6000945061460d565b90809250813d831161464c575b6146348183611c2b565b81010312611ca05761464590612343565b3880614605565b503d61462a565b9295986146b481929598600194979a60c3199082030189528c5190876146a460c08451845286850151878501528b8501518c850152606085015160608501528985015190808b8601528401906122fd565b92015190888184039101526122fd565b9a019501950191928996938b9895999692614599565b6040989694929795939198519063d017d69960e01b82528160a4810160036004830152600460248301526005604483015289606483015260a06084830152825180915260c4820190602060c48260051b8501019401916000905b8282106147f4575050505080602092038173__$1a0918a2aa2208593bb0a5d7644cd0946b$__5af4908115612546576000916147ba575b50156147b1575b60005b606089015180518210156147a2579061479c6147838260019461232f565b5180519060208101516080606083015192015192613d01565b01614765565b50509193959092949638614040565b60009250614762565b90506020813d6020116147ec575b816147d560209383611c2b565b81010312611ca0576147e690612343565b3861475b565b3d91506147c8565b9193509193889060c319878203018352855190610120808201835183526020840151602084015260408401519160408401528151809152602061014084019201906000905b808210614937575050506060830151908281036060840152602080835192838152019201906000905b80821061491d57505050608090818401519183820390840152602080835192838152019201906000905b8082106148f75750505091602092916148dd6148b5859460a085015184820360a08601526122fd565b60c0848101516001600160a01b03169084015260e080850151848303918501919091526122fd565b916101008091015191015296019201920185939192614724565b91939495909260a08161490d6020938851612350565b01940192018d959493929161488c565b825184528e96602094850194909301929190910190614862565b91939495909260a08161494d6020938851612350565b01940192018d9594939291614839565b6020808301518051831015614a7057826149769161232f565b51908082019061498782518d615160565b508b60005260039283825260409081810182600020855160005284528260002054815111614a5f57928b9694928f928293868a9997518260005288865284600020885160005286526149de856000209182546126fb565b90555182516000528785528360002087516000528552614a038460002091825461271e565b905585519080600052878552836000208751600052855283600020548451908152600080516020616269833981519152968791a35193805195856000528352816000209051600052825280600020549051908152a3019061402e565b8251632fd8225d60e21b8152600490fd5b5050614033565b60c08201518051821015614abb5781614a8f9161232f565b51805115614ab3575b8981510361358d578691614aac8392614b5c565b0190614024565b898152614a98565b50614029565b80614ace6001928461232f565b5189600052614afe6020600381528a604091614aee86846000209361232f565b516000525260002091825461271e565b905501614015565b929060c0949260018060a01b0380921685521660208401526040830152606082015260a06080820152600060a08201520190565b6001600160a01b03918216815291166020820152604081019190915260600190565b9081516000908015600014614e565750335b6060840191825115614e44576040908186019384518015600014614e2257506020870180518352600e6020528383205480875215614ddf575b5081614bc0949596975b60ff602096878093015161275f565b919290911680614ca2575050614bef90845187519485809481936323b872dd60e01b8352303360048501614b3a565b03926001600160a01b03165af1908115614c98578391614c63575b5015614a5f5791809160008051602061626983398151915294935b5186825260038552828220885183528552614c4483832091825461271e565b90558651968682526003855282822090518252845220549051908152a3565b90508481813d8311614c91575b614c7a8183611c2b565b8101031261027657614c8b90612343565b38614c0a565b503d614c70565b84513d85823e3d90fd5b90935090915060018103614d3357506001600160a01b031690813b156103f25784516323b872dd60e01b8152918491839190829084908290614cf2906001600160601b0316303360048501614b3a565b03925af18015614c9857614d1f575b50918091836001600080516020616269833981519152969552614c25565b614d298391611be2565b6102145738614d01565b9295949392600214614d59575b5050819060008051602061626983398151915294614c25565b60018060a0979596971b0316835191813b156103f2578551637921219560e11b815292849284929091839185918391614da191906001600160601b0316303360048601614b06565b03925af180156103e85791849391600080516020616269833981519152969593614dd0575b5091819550614d40565b614dd990611be2565b38614dc6565b614de98151613056565b600d54600019810191908211614e0e57818752518352600e6020528383205581614ba7565b634e487b7160e01b84526011600452602484fd5b614bc094959697614e3384926122e2565b90549060031b1c6020820152614bb1565b60405163440a57bf60e01b8152600490fd5b614b6e565b90613e615760018160008093550155565b60008181526020906008825260409182822085835281528282209384549586156151475781845260098352848420818552835284842054978789101561513e575b8285526003845285852082865284528585205490859882156151185798995b8981108061510f575b80615104575b1561508f57614eea818a6121d2565b506001908181019182549182156150795754928287101561507357865b8c8c8a8d84615033575b50505050508215158061502b575b615002575b614f2f8382546126fb565b9280614fcd57508a90558301808411614fb957614f9d92886000805160206162498339815191526060614fa397958f958f968f978e988251948552840152820152a4868952600a8852898920805480614fac575b5050614f98614f92828d6121d2565b90614e5b565b613ee4565b9a613ee4565b985b9899614ecc565b6000190190553880614f83565b634e487b7160e01b8a52601160045260248afd5b859f94925060608994614fa3978f848f8f979660008051602061624983398151915297558251948552840152820152a4613ee4565b61500e8389868c615ddb565b61501881856126fb565b615023575b50614f24565b92503861501d565b508615614f1f565b928261506896989c92615062958b88965260038152838320918352522061505b83825461271e565b90556126fb565b976126fb565b91388c8c8a8d614f11565b82614f07565b50505050615089909a999a613ee4565b99614fa5565b93985098509092955086845260038652848420838552865284842055858352600985528383208284528552838320556150c88186615c5c565b848252600884528282208183528452828220938454156150fb57611cc09583526009815283832091835252205490615d85565b50509250505090565b506000198b10614edb565b50821515614ed5565b509892975050919450858352600985528383208284528552838320556150c88186615c5c565b97508397614ead565b9280965080955052600981528284209184525281205590565b600081815260209060088252604091828220858352815282822093845495861561514757818452600983528484208185528352848420549787891015615357575b8285526003845285852082865284528585205490859882156151185798995b8981108061534e575b80615343575b1561508f576151de818a6121d2565b5060019081810191825491821561532d5754928287101561532757865b8c8c8a8d846152f4575b5050505050821515806152ec575b6152c3575b6152238382546126fb565b928061528e57508a90558301808411614fb957614f9d9288600080516020616249833981519152606061528597958f958f968f978e988251948552840152820152a4868952600a8852898920805480614fac575050614f98614f92828d6121d2565b985b98996151c0565b859f94925060608994615285978f848f8f979660008051602061624983398151915297558251948552840152820152a4613ee4565b6152cf8389868c615ddb565b6152d981856126fb565b6152e4575b50615218565b9250386152de565b508615615213565b928261531c96989c92615062958b88965260038152838320918352522061505b83825461271e565b91388c8c8a8d615205565b826151fb565b5050505061533d909a999a613ee4565b99615287565b506000198b106151cf565b508215156151c9565b975083976151a1565b600081815260209060088252604091828220858352815282822093845495861561514757818452600983528484208185528352848420549787891015615557575b8285526003845285852082865284528585205490859882156151185798995b8981108061554e575b80615543575b1561508f576153de818a6121d2565b5060019081810191825491821561552d5754928287101561552757865b8c8c8a8d846154f4575b5050505050821515806154ec575b6154c3575b6154238382546126fb565b928061548e57508a90558301808411614fb957614f9d9288600080516020616249833981519152606061548597958f958f968f978e988251948552840152820152a4868952600a8852898920805480614fac575050614f98614f92828d6121d2565b985b98996153c0565b859f94925060608994615485978f848f8f979660008051602061624983398151915297558251948552840152820152a4613ee4565b6154cf8389868c615ddb565b6154d981856126fb565b6154e4575b50615418565b9250386154de565b508615615413565b928261551c96989c92615062958b88965260038152838320918352522061505b83825461271e565b91388c8c8a8d615405565b826153fb565b5050505061553d909a999a613ee4565b99615487565b506000198b106153cf565b508215156153c9565b975083976153a1565b600081815260209060088252604091828220858352815282822093845495861561514757818452600983528484208185528352848420549787891015615757575b8285526003845285852082865284528585205490859882156151185798995b8981108061574e575b80615743575b1561508f576155de818a6121d2565b5060019081810191825491821561572d5754928287101561572757865b8c8c8a8d846156f4575b5050505050821515806156ec575b6156c3575b6156238382546126fb565b928061568e57508a90558301808411614fb957614f9d9288600080516020616249833981519152606061568597958f958f968f978e988251948552840152820152a4868952600a8852898920805480614fac575050614f98614f92828d6121d2565b985b98996155c0565b859f94925060608994615685978f848f8f979660008051602061624983398151915297558251948552840152820152a4613ee4565b6156cf8389868c615ddb565b6156d981856126fb565b6156e4575b50615618565b9250386156de565b508615615613565b928261571c96989c92615062958b88965260038152838320918352522061505b83825461271e565b91388c8c8a8d615605565b826155fb565b5050505061573d909a999a613ee4565b99615687565b506000198b106155cf565b508215156155c9565b975083976155a1565b9190916000838201938412911290801582169115161761270857565b6020908181840312611ca05780516001600160401b0391828211611ca057019083601f83011215611ca05781516157b281611d2e565b946040926157c36040519788611c2b565b828752858088019360051b86010194828611611ca057868101935b8685106157f057505050505050505090565b8451838111611ca05782019084603f83011215611ca057888201519061581582611c4e565b61582189519182611c2b565b82815286898486010111611ca0576158428b949385948b8685019101611cc3565b8152019401936157de565b600160ff1b81146127085760000390565b929190926000938185526020906009825260409586812085825283528681205492848252600881528782208683528152878220918254945b8581106158b0575050505050506158ae929350615c5c565b565b80856158bd8c93876121d2565b5054148061597d575b6158d5575b6001915001615896565b8886896158e284896121d2565b5086600180920154916158f5878c6121d2565b500155818752600a8852858720805480158015615936575b505050856000805160206162a98339815191529160019751908152868a820152a48a91506158cb565b935093509350939450615969576000190190558a9190899087908a90856000805160206162a9833981519152600161590d565b634e487b7160e01b85526011600452602485fd5b50600161598a82876121d2565b50015415156158c6565b919091825160209182850151926159ab8383615560565b5060005b604080880180518051841015615c4e576159d7846159ce81889461232f565b5151935161232f565b510151906159e58189613016565b9186600052600392838752846000208960005287528185600020541015600014615c3e5786615a209181875193828580945193849201611cc3565b810160058152030190208860005286528360002091876000528387528460002089600052875284600020615a558382546126fb565b9055615a6282845461271e565b90818455808b109283615c27575b508215615c20578a925b15615c145794929190925b805194615a9186611bc7565b6001928387528960005b818110615bc057505080600052818a52826000208c6000528a52826000205491886000528a52826000208c6000528a5283836000205495015497835191615ae183611bf5565b82528a8201528b83820152606091828201526080948582015260a0958682015260c09788820152615b1187612322565b52615b1b86612322565b50815196898801928a895287518094528a818a019801966000965b8c868910615b78575050505050505050505081600193927f11e95b31ceefa95a59034392a3de4f79c9fe7d7e441d3746a1f82e64f7a32bcc920390a1016159af565b895180518c5281810151828d015284810151858d015286810151878d015282810151838d015283810151848d0152850151858c015260e0909a01999098019796860196615b36565b849993949795969751615bd281611bf5565b6000815260008382015260008b8201526000606082015260006080820152600060a0820152600060c082015282828b010152018a909893929896959496615a9b565b50899492919092615a85565b8092615a7a565b615c3660018601918254615760565b905538615a70565b5060009a50505050505050505050565b506001985050505050505050565b9060008281526020916008835260409081832081845284528183209485548015615d6e57818552600986528385208386528652838520549681881015615d65575b965b81811080615d4f575b15615cbb57615cb690613ee4565b615c9f565b91929394959650811015600014615d3b575080845260098552828420828552855283838120558352600884528183209083528352812080549282825583615d03575b50505050565b6001916001600160ff1b0385168503614e0e57835282209260011b8301925b83811015615cfd57808360029255838382015501615d22565b908452600985528284209184529352902055565b506001615d5c828a6121d2565b50015415615ca8565b96508496615c9d565b508352600984528183209083529092529081205550565b919060009280549182811015615dd2575b828110615da257505050565b6001615dae82846121d2565b500154615dbe575b600101615d96565b93615dca600191613ee4565b949050615db6565b50600093505050565b91839260009581875260209260108452604091828920908154988915615fc15750600c8652838a20549788905b8a821080615fb8575b15615fa457615e208285611cfc565b50998a918d8760018095015414801590615f97575b8015615f8b575b615f7d578a8d91825480825260038093528d8c8320908c84525260028c832054940193845490808210600014615f755750955b858711615f6c575b8615615f5957508f8f968f92968f968f958f80859b917f4f02c680c56246ffd693c94e5f46c036a01b12950c88219159645a302816307b9a6000805160206162698339815191528a8c87615f0f9c8c98615f049a528584528282208783528452828220615ee58a82546126fb565b905554948582528352818120868252835220548d51908152a38c615fce565b61505b8382546126fb565b9f615f1e868d8354908861602b565b5054948251918c8352820152a48101808211615f4557615f3e9091613ee4565b9098615e08565b634e487b7160e01b8c52601160045260248cfd5b979550505050509a50615f3e9150613ee4565b95508495615e77565b905095615e6f565b509a5091615f3e9150613ee4565b5060028d015415615e3c565b5060038d01544211615e35565b9a969497505097505050600c918352522055565b50801515615e11565b9950975050505050505050565b9091801561602657602060406000805160206162698339815191529260009085825260038452828220878352845261600a83832091825461271e565b90558481526003835281812086825283522054604051908152a3565b505050565b939293919091811561358d578415614e445760009481865260209060088252604091828820868952815282882083519061606482611bc7565b86825282820184815281549091600160401b82101561614d579061608d916001820181556121d2565b92909261613957518255516001909101558388526008815282882086895281528288205460001981019190821161612557908392917fae767eeb0c57abd46e2e0b422895ba3b89372fbd0510a58f00d996faf66f027d94829a831561610c575b878152600a8352206160ff8154613ee4565b90558351928352820152a4565b878152600983528181208a8252835280828120556160ed565b634e487b7160e01b89526011600452602489fd5b634e487b7160e01b8b5260048b905260248bfd5b634e487b7160e01b8c52604160045260248cfd5b90928015615cfd576161aa9060009083825284846020936003855260409485822084835281528582205485811015600014616242575084955b866161e6575b50505050506126fb565b8015615cfd576161bc90838584615ddb565b92836161c85750505050565b6161dd936161d791848461602b565b50615c5c565b38808080615cfd565b80838560008051602061626983398151915295526003845281812087825284528181206162148a82546126fb565b905585815260038452818120878252845220549051908152a3616238828688615fce565b84843880806161a0565b9561619a56fe1ffe8e6348fe244a8988797c02b57999821149e7b25c9f93a85c77819efdde67ab4d21442efe134c3d0c087e2b687e9593a1c09176f498d37873210cde052c45990f4c22d4b046a9a7d673c4a252b906cadd4f3290465e297f998c28a449652b0971ac81b80f99fe0089c3fbe4af4fa1148f2ce78bc6345e76b05be73500de1fa264697066735822122020edca92ab9aeb1c348bb941d0f419a035db4430f559d00b3b7b9ff584ef59c864736f6c63430008180033",
  "linkReferences": {
    "contracts/Account.sol": {
      "Account": [
        {
          "length": 20,
          "start": 1435
        },
        {
          "length": 20,
          "start": 2884
        },
        {
          "length": 20,
          "start": 3704
        },
        {
          "length": 20,
          "start": 4852
        },
        {
          "length": 20,
          "start": 10031
        },
        {
          "length": 20,
          "start": 10719
        },
        {
          "length": 20,
          "start": 13629
        },
        {
          "length": 20,
          "start": 15514
        },
        {
          "length": 20,
          "start": 18501
        },
        {
          "length": 20,
          "start": 18843
        }
      ]
    }
  },
  "deployedLinkReferences": {
    "contracts/Account.sol": {
      "Account": [
        {
          "length": 20,
          "start": 823
        },
        {
          "length": 20,
          "start": 2272
        },
        {
          "length": 20,
          "start": 3092
        },
        {
          "length": 20,
          "start": 4240
        },
        {
          "length": 20,
          "start": 9419
        },
        {
          "length": 20,
          "start": 10107
        },
        {
          "length": 20,
          "start": 13017
        },
        {
          "length": 20,
          "start": 14902
        },
        {
          "length": 20,
          "start": 17889
        },
        {
          "length": 20,
          "start": 18231
        }
      ]
    }
  }
}