{
  "_format": "hh-sol-artifact-1",
  "contractName": "Depository",
  "sourceName": "contracts/Depository.sol",
  "abi": [
    {
      "inputs": [],
      "stateMutability": "nonpayable",
      "type": "constructor"
    },
    {
      "anonymous": false,
      "inputs": [
        {
          "components": [
            {
              "internalType": "bytes32",
              "name": "left",
              "type": "bytes32"
            },
            {
              "internalType": "bytes32",
              "name": "right",
              "type": "bytes32"
            },
            {
              "internalType": "uint256",
              "name": "tokenId",
              "type": "uint256"
            },
            {
              "internalType": "uint256",
              "name": "leftReserve",
              "type": "uint256"
            },
            {
              "internalType": "uint256",
              "name": "rightReserve",
              "type": "uint256"
            },
            {
              "internalType": "uint256",
              "name": "collateral",
              "type": "uint256"
            },
            {
              "internalType": "int256",
              "name": "ondelta",
              "type": "int256"
            }
          ],
          "indexed": false,
          "internalType": "struct Depository.Settled[]",
          "name": "",
          "type": "tuple[]"
        }
      ],
      "name": "ChannelSettled",
      "type": "event"
    },
    {
      "anonymous": false,
      "inputs": [
        {
          "indexed": true,
          "internalType": "bytes32",
          "name": "sender",
          "type": "bytes32"
        },
        {
          "indexed": true,
          "internalType": "bytes32",
          "name": "counterentity",
          "type": "bytes32"
        },
        {
          "indexed": true,
          "internalType": "uint256",
          "name": "cooperativeNonce",
          "type": "uint256"
        }
      ],
      "name": "CooperativeClose",
      "type": "event"
    },
    {
      "anonymous": false,
      "inputs": [
        {
          "indexed": true,
          "internalType": "bytes32",
          "name": "debtor",
          "type": "bytes32"
        },
        {
          "indexed": true,
          "internalType": "bytes32",
          "name": "creditor",
          "type": "bytes32"
        },
        {
          "indexed": true,
          "internalType": "uint256",
          "name": "tokenId",
          "type": "uint256"
        },
        {
          "indexed": false,
          "internalType": "uint256",
          "name": "amount",
          "type": "uint256"
        },
        {
          "indexed": false,
          "internalType": "uint256",
          "name": "debtIndex",
          "type": "uint256"
        }
      ],
      "name": "DebtCreated",
      "type": "event"
    },
    {
      "anonymous": false,
      "inputs": [
        {
          "indexed": true,
          "internalType": "bytes32",
          "name": "debtor",
          "type": "bytes32"
        },
        {
          "indexed": true,
          "internalType": "bytes32",
          "name": "creditor",
          "type": "bytes32"
        },
        {
          "indexed": true,
          "internalType": "uint256",
          "name": "tokenId",
          "type": "uint256"
        },
        {
          "indexed": false,
          "internalType": "uint256",
          "name": "amountPaid",
          "type": "uint256"
        },
        {
          "indexed": false,
          "internalType": "uint256",
          "name": "remainingAmount",
          "type": "uint256"
        },
        {
          "indexed": false,
          "internalType": "uint256",
          "name": "newDebtIndex",
          "type": "uint256"
        }
      ],
      "name": "DebtEnforced",
      "type": "event"
    },
    {
      "anonymous": false,
      "inputs": [
        {
          "indexed": true,
          "internalType": "bytes32",
          "name": "debtor",
          "type": "bytes32"
        },
        {
          "indexed": true,
          "internalType": "bytes32",
          "name": "creditor",
          "type": "bytes32"
        },
        {
          "indexed": true,
          "internalType": "uint256",
          "name": "tokenId",
          "type": "uint256"
        },
        {
          "indexed": false,
          "internalType": "uint256",
          "name": "amountForgiven",
          "type": "uint256"
        },
        {
          "indexed": false,
          "internalType": "uint256",
          "name": "debtIndex",
          "type": "uint256"
        }
      ],
      "name": "DebtForgiven",
      "type": "event"
    },
    {
      "anonymous": false,
      "inputs": [
        {
          "indexed": true,
          "internalType": "bytes32",
          "name": "sender",
          "type": "bytes32"
        },
        {
          "indexed": true,
          "internalType": "bytes32",
          "name": "counterentity",
          "type": "bytes32"
        },
        {
          "indexed": true,
          "internalType": "uint256",
          "name": "disputeNonce",
          "type": "uint256"
        },
        {
          "indexed": false,
          "internalType": "bytes",
          "name": "initialArguments",
          "type": "bytes"
        }
      ],
      "name": "DisputeStarted",
      "type": "event"
    },
    {
      "anonymous": false,
      "inputs": [
        {
          "indexed": false,
          "internalType": "bool",
          "name": "isPaused",
          "type": "bool"
        }
      ],
      "name": "EmergencyPauseToggled",
      "type": "event"
    },
    {
      "anonymous": false,
      "inputs": [
        {
          "indexed": true,
          "internalType": "address",
          "name": "provider",
          "type": "address"
        }
      ],
      "name": "EntityProviderAdded",
      "type": "event"
    },
    {
      "anonymous": false,
      "inputs": [
        {
          "indexed": true,
          "internalType": "address",
          "name": "provider",
          "type": "address"
        }
      ],
      "name": "EntityProviderRemoved",
      "type": "event"
    },
    {
      "anonymous": false,
      "inputs": [
        {
          "indexed": true,
          "internalType": "bytes32",
          "name": "entityId",
          "type": "bytes32"
        },
        {
          "indexed": true,
          "internalType": "bytes32",
          "name": "hankoHash",
          "type": "bytes32"
        },
        {
          "indexed": false,
          "internalType": "uint256",
          "name": "nonce",
          "type": "uint256"
        },
        {
          "indexed": false,
          "internalType": "bool",
          "name": "success",
          "type": "bool"
        }
      ],
      "name": "HankoBatchProcessed",
      "type": "event"
    },
    {
      "anonymous": false,
      "inputs": [
        {
          "indexed": false,
          "internalType": "string",
          "name": "",
          "type": "string"
        },
        {
          "indexed": false,
          "internalType": "address",
          "name": "",
          "type": "address"
        }
      ],
      "name": "LogAddress",
      "type": "event"
    },
    {
      "anonymous": false,
      "inputs": [
        {
          "indexed": false,
          "internalType": "string",
          "name": "",
          "type": "string"
        },
        {
          "indexed": false,
          "internalType": "bool",
          "name": "",
          "type": "bool"
        }
      ],
      "name": "LogBool",
      "type": "event"
    },
    {
      "anonymous": false,
      "inputs": [
        {
          "indexed": false,
          "internalType": "string",
          "name": "",
          "type": "string"
        },
        {
          "indexed": false,
          "internalType": "bytes",
          "name": "",
          "type": "bytes"
        }
      ],
      "name": "LogBytes",
      "type": "event"
    },
    {
      "anonymous": false,
      "inputs": [
        {
          "indexed": false,
          "internalType": "string",
          "name": "",
          "type": "string"
        },
        {
          "indexed": false,
          "internalType": "bytes32",
          "name": "",
          "type": "bytes32"
        }
      ],
      "name": "LogBytes32",
      "type": "event"
    },
    {
      "anonymous": false,
      "inputs": [
        {
          "indexed": false,
          "internalType": "string",
          "name": "",
          "type": "string"
        },
        {
          "indexed": false,
          "internalType": "int256",
          "name": "",
          "type": "int256"
        }
      ],
      "name": "LogInt",
      "type": "event"
    },
    {
      "anonymous": false,
      "inputs": [
        {
          "indexed": false,
          "internalType": "string",
          "name": "",
          "type": "string"
        },
        {
          "indexed": false,
          "internalType": "string",
          "name": "",
          "type": "string"
        }
      ],
      "name": "LogString",
      "type": "event"
    },
    {
      "anonymous": false,
      "inputs": [
        {
          "indexed": false,
          "internalType": "string",
          "name": "",
          "type": "string"
        },
        {
          "indexed": false,
          "internalType": "uint256",
          "name": "",
          "type": "uint256"
        }
      ],
      "name": "LogUint",
      "type": "event"
    },
    {
      "anonymous": false,
      "inputs": [
        {
          "indexed": true,
          "internalType": "bytes32",
          "name": "from",
          "type": "bytes32"
        },
        {
          "indexed": true,
          "internalType": "bytes32",
          "name": "to",
          "type": "bytes32"
        },
        {
          "indexed": true,
          "internalType": "uint256",
          "name": "tokenId",
          "type": "uint256"
        },
        {
          "indexed": false,
          "internalType": "uint256",
          "name": "amount",
          "type": "uint256"
        }
      ],
      "name": "ReserveTransferred",
      "type": "event"
    },
    {
      "anonymous": false,
      "inputs": [
        {
          "indexed": true,
          "internalType": "bytes32",
          "name": "entity",
          "type": "bytes32"
        },
        {
          "indexed": true,
          "internalType": "uint256",
          "name": "tokenId",
          "type": "uint256"
        },
        {
          "indexed": false,
          "internalType": "uint256",
          "name": "newBalance",
          "type": "uint256"
        }
      ],
      "name": "ReserveUpdated",
      "type": "event"
    },
    {
      "anonymous": false,
      "inputs": [
        {
          "indexed": true,
          "internalType": "bytes32",
          "name": "leftEntity",
          "type": "bytes32"
        },
        {
          "indexed": true,
          "internalType": "bytes32",
          "name": "rightEntity",
          "type": "bytes32"
        },
        {
          "indexed": true,
          "internalType": "uint256",
          "name": "tokenId",
          "type": "uint256"
        },
        {
          "indexed": false,
          "internalType": "uint256",
          "name": "leftReserve",
          "type": "uint256"
        },
        {
          "indexed": false,
          "internalType": "uint256",
          "name": "rightReserve",
          "type": "uint256"
        },
        {
          "indexed": false,
          "internalType": "uint256",
          "name": "collateral",
          "type": "uint256"
        },
        {
          "indexed": false,
          "internalType": "int256",
          "name": "ondelta",
          "type": "int256"
        }
      ],
      "name": "SettlementProcessed",
      "type": "event"
    },
    {
      "anonymous": false,
      "inputs": [
        {
          "indexed": true,
          "internalType": "bytes32",
          "name": "receivingEntity",
          "type": "bytes32"
        },
        {
          "indexed": true,
          "internalType": "bytes32",
          "name": "counterentity",
          "type": "bytes32"
        },
        {
          "indexed": false,
          "internalType": "uint256",
          "name": "collateral",
          "type": "uint256"
        },
        {
          "indexed": false,
          "internalType": "int256",
          "name": "ondelta",
          "type": "int256"
        },
        {
          "indexed": false,
          "internalType": "uint256",
          "name": "tokenId",
          "type": "uint256"
        }
      ],
      "name": "TransferReserveToCollateral",
      "type": "event"
    },
    {
      "inputs": [],
      "name": "DOMAIN_SEPARATOR",
      "outputs": [
        {
          "internalType": "bytes32",
          "name": "",
          "type": "bytes32"
        }
      ],
      "stateMutability": "view",
      "type": "function"
    },
    {
      "inputs": [
        {
          "internalType": "bytes32",
          "name": "",
          "type": "bytes32"
        }
      ],
      "name": "_activeDebts",
      "outputs": [
        {
          "internalType": "uint256",
          "name": "",
          "type": "uint256"
        }
      ],
      "stateMutability": "view",
      "type": "function"
    },
    {
      "inputs": [
        {
          "internalType": "bytes",
          "name": "",
          "type": "bytes"
        }
      ],
      "name": "_channels",
      "outputs": [
        {
          "internalType": "uint256",
          "name": "cooperativeNonce",
          "type": "uint256"
        },
        {
          "internalType": "bytes32",
          "name": "disputeHash",
          "type": "bytes32"
        }
      ],
      "stateMutability": "view",
      "type": "function"
    },
    {
      "inputs": [
        {
          "internalType": "bytes",
          "name": "",
          "type": "bytes"
        },
        {
          "internalType": "uint256",
          "name": "",
          "type": "uint256"
        }
      ],
      "name": "_collaterals",
      "outputs": [
        {
          "internalType": "uint256",
          "name": "collateral",
          "type": "uint256"
        },
        {
          "internalType": "int256",
          "name": "ondelta",
          "type": "int256"
        }
      ],
      "stateMutability": "view",
      "type": "function"
    },
    {
      "inputs": [
        {
          "internalType": "bytes32",
          "name": "",
          "type": "bytes32"
        },
        {
          "internalType": "uint256",
          "name": "",
          "type": "uint256"
        }
      ],
      "name": "_debtIndex",
      "outputs": [
        {
          "internalType": "uint256",
          "name": "",
          "type": "uint256"
        }
      ],
      "stateMutability": "view",
      "type": "function"
    },
    {
      "inputs": [
        {
          "internalType": "bytes32",
          "name": "",
          "type": "bytes32"
        },
        {
          "internalType": "uint256",
          "name": "",
          "type": "uint256"
        },
        {
          "internalType": "uint256",
          "name": "",
          "type": "uint256"
        }
      ],
      "name": "_debts",
      "outputs": [
        {
          "internalType": "uint256",
          "name": "amount",
          "type": "uint256"
        },
        {
          "internalType": "bytes32",
          "name": "creditor",
          "type": "bytes32"
        }
      ],
      "stateMutability": "view",
      "type": "function"
    },
    {
      "inputs": [
        {
          "internalType": "uint256",
          "name": "",
          "type": "uint256"
        }
      ],
      "name": "_hubs",
      "outputs": [
        {
          "internalType": "bytes32",
          "name": "entityId",
          "type": "bytes32"
        },
        {
          "internalType": "uint256",
          "name": "gasused",
          "type": "uint256"
        },
        {
          "internalType": "string",
          "name": "uri",
          "type": "string"
        }
      ],
      "stateMutability": "view",
      "type": "function"
    },
    {
      "inputs": [
        {
          "internalType": "bytes32",
          "name": "",
          "type": "bytes32"
        },
        {
          "internalType": "uint256",
          "name": "",
          "type": "uint256"
        }
      ],
      "name": "_reserves",
      "outputs": [
        {
          "internalType": "uint256",
          "name": "",
          "type": "uint256"
        }
      ],
      "stateMutability": "view",
      "type": "function"
    },
    {
      "inputs": [
        {
          "internalType": "uint256",
          "name": "",
          "type": "uint256"
        }
      ],
      "name": "_tokens",
      "outputs": [
        {
          "internalType": "bytes32",
          "name": "",
          "type": "bytes32"
        }
      ],
      "stateMutability": "view",
      "type": "function"
    },
    {
      "inputs": [
        {
          "internalType": "address",
          "name": "provider",
          "type": "address"
        }
      ],
      "name": "addEntityProvider",
      "outputs": [],
      "stateMutability": "nonpayable",
      "type": "function"
    },
    {
      "inputs": [],
      "name": "admin",
      "outputs": [
        {
          "internalType": "address",
          "name": "",
          "type": "address"
        }
      ],
      "stateMutability": "view",
      "type": "function"
    },
    {
      "inputs": [
        {
          "internalType": "address",
          "name": "",
          "type": "address"
        }
      ],
      "name": "approvedEntityProviders",
      "outputs": [
        {
          "internalType": "bool",
          "name": "",
          "type": "bool"
        }
      ],
      "stateMutability": "view",
      "type": "function"
    },
    {
      "inputs": [
        {
          "internalType": "bytes32",
          "name": "e1",
          "type": "bytes32"
        },
        {
          "internalType": "bytes32",
          "name": "e2",
          "type": "bytes32"
        }
      ],
      "name": "channelKey",
      "outputs": [
        {
          "internalType": "bytes",
          "name": "",
          "type": "bytes"
        }
      ],
      "stateMutability": "pure",
      "type": "function"
    },
    {
      "inputs": [
        {
          "components": [
            {
              "internalType": "bytes32",
              "name": "counterentity",
              "type": "bytes32"
            },
            {
              "components": [
                {
                  "internalType": "int256[]",
                  "name": "offdeltas",
                  "type": "int256[]"
                },
                {
                  "internalType": "uint256[]",
                  "name": "tokenIds",
                  "type": "uint256[]"
                },
                {
                  "components": [
                    {
                      "internalType": "address",
                      "name": "subcontractProviderAddress",
                      "type": "address"
                    },
                    {
                      "internalType": "bytes",
                      "name": "encodedBatch",
                      "type": "bytes"
                    },
                    {
                      "components": [
                        {
                          "internalType": "uint256",
                          "name": "deltaIndex",
                          "type": "uint256"
                        },
                        {
                          "internalType": "uint256",
                          "name": "rightAllowence",
                          "type": "uint256"
                        },
                        {
                          "internalType": "uint256",
                          "name": "leftAllowence",
                          "type": "uint256"
                        }
                      ],
                      "internalType": "struct Depository.Allowence[]",
                      "name": "allowences",
                      "type": "tuple[]"
                    }
                  ],
                  "internalType": "struct Depository.SubcontractClause[]",
                  "name": "subcontracts",
                  "type": "tuple[]"
                }
              ],
              "internalType": "struct Depository.ProofBody",
              "name": "proofbody",
              "type": "tuple"
            },
            {
              "internalType": "bytes",
              "name": "initialArguments",
              "type": "bytes"
            },
            {
              "internalType": "bytes",
              "name": "finalArguments",
              "type": "bytes"
            },
            {
              "internalType": "bytes",
              "name": "sig",
              "type": "bytes"
            }
          ],
          "internalType": "struct Depository.CooperativeDisputeProof",
          "name": "params",
          "type": "tuple"
        }
      ],
      "name": "cooperativeDisputeProof",
      "outputs": [
        {
          "internalType": "bool",
          "name": "",
          "type": "bool"
        }
      ],
      "stateMutability": "nonpayable",
      "type": "function"
    },
    {
      "inputs": [
        {
          "internalType": "bytes32",
          "name": "addr",
          "type": "bytes32"
        },
        {
          "internalType": "bytes32",
          "name": "creditor",
          "type": "bytes32"
        },
        {
          "internalType": "uint256",
          "name": "tokenId",
          "type": "uint256"
        },
        {
          "internalType": "uint256",
          "name": "amount",
          "type": "uint256"
        }
      ],
      "name": "createDebt",
      "outputs": [],
      "stateMutability": "nonpayable",
      "type": "function"
    },
    {
      "inputs": [],
      "name": "debugBulkFundEntities",
      "outputs": [],
      "stateMutability": "nonpayable",
      "type": "function"
    },
    {
      "inputs": [
        {
          "internalType": "bytes32",
          "name": "entity",
          "type": "bytes32"
        },
        {
          "internalType": "uint256",
          "name": "tokenId",
          "type": "uint256"
        },
        {
          "internalType": "uint256",
          "name": "amount",
          "type": "uint256"
        }
      ],
      "name": "debugFundReserves",
      "outputs": [],
      "stateMutability": "nonpayable",
      "type": "function"
    },
    {
      "inputs": [],
      "name": "emergencyPause",
      "outputs": [
        {
          "internalType": "bool",
          "name": "",
          "type": "bool"
        }
      ],
      "stateMutability": "view",
      "type": "function"
    },
    {
      "inputs": [
        {
          "internalType": "bytes32",
          "name": "entity",
          "type": "bytes32"
        },
        {
          "internalType": "uint256",
          "name": "tokenId",
          "type": "uint256"
        },
        {
          "internalType": "uint256",
          "name": "maxIterations",
          "type": "uint256"
        }
      ],
      "name": "enforceDebts",
      "outputs": [
        {
          "internalType": "uint256",
          "name": "totalDebts",
          "type": "uint256"
        }
      ],
      "stateMutability": "nonpayable",
      "type": "function"
    },
    {
      "inputs": [
        {
          "internalType": "bytes32",
          "name": "entity",
          "type": "bytes32"
        },
        {
          "internalType": "uint256",
          "name": "tokenId",
          "type": "uint256"
        }
      ],
      "name": "enforceDebts",
      "outputs": [
        {
          "internalType": "uint256",
          "name": "totalDebts",
          "type": "uint256"
        }
      ],
      "stateMutability": "nonpayable",
      "type": "function"
    },
    {
      "inputs": [
        {
          "internalType": "address",
          "name": "",
          "type": "address"
        }
      ],
      "name": "entityNonces",
      "outputs": [
        {
          "internalType": "uint256",
          "name": "",
          "type": "uint256"
        }
      ],
      "stateMutability": "view",
      "type": "function"
    },
    {
      "inputs": [
        {
          "internalType": "uint256",
          "name": "",
          "type": "uint256"
        }
      ],
      "name": "entityProvidersList",
      "outputs": [
        {
          "internalType": "address",
          "name": "",
          "type": "address"
        }
      ],
      "stateMutability": "view",
      "type": "function"
    },
    {
      "inputs": [
        {
          "internalType": "bytes32",
          "name": "",
          "type": "bytes32"
        }
      ],
      "name": "entityScores",
      "outputs": [
        {
          "internalType": "uint64",
          "name": "totalGasUsed",
          "type": "uint64"
        },
        {
          "internalType": "uint48",
          "name": "inDebtSince",
          "type": "uint48"
        },
        {
          "internalType": "uint32",
          "name": "totalActiveDebts",
          "type": "uint32"
        },
        {
          "internalType": "uint32",
          "name": "totalDisputes",
          "type": "uint32"
        },
        {
          "internalType": "uint32",
          "name": "successfulRepayments",
          "type": "uint32"
        },
        {
          "internalType": "uint32",
          "name": "cooperativeActions",
          "type": "uint32"
        }
      ],
      "stateMutability": "view",
      "type": "function"
    },
    {
      "inputs": [
        {
          "components": [
            {
              "internalType": "bytes32",
              "name": "entity",
              "type": "bytes32"
            },
            {
              "internalType": "bytes32",
              "name": "packedToken",
              "type": "bytes32"
            },
            {
              "internalType": "uint256",
              "name": "internalTokenId",
              "type": "uint256"
            },
            {
              "internalType": "uint256",
              "name": "amount",
              "type": "uint256"
            }
          ],
          "internalType": "struct Depository.ExternalTokenToReserve",
          "name": "params",
          "type": "tuple"
        }
      ],
      "name": "externalTokenToReserve",
      "outputs": [],
      "stateMutability": "nonpayable",
      "type": "function"
    },
    {
      "inputs": [
        {
          "components": [
            {
              "internalType": "bytes32",
              "name": "counterentity",
              "type": "bytes32"
            },
            {
              "internalType": "uint256",
              "name": "initialCooperativeNonce",
              "type": "uint256"
            },
            {
              "internalType": "uint256",
              "name": "initialDisputeNonce",
              "type": "uint256"
            },
            {
              "internalType": "uint256",
              "name": "disputeUntilBlock",
              "type": "uint256"
            },
            {
              "internalType": "bytes32",
              "name": "initialProofbodyHash",
              "type": "bytes32"
            },
            {
              "internalType": "bytes",
              "name": "initialArguments",
              "type": "bytes"
            },
            {
              "internalType": "bool",
              "name": "startedByLeft",
              "type": "bool"
            },
            {
              "internalType": "uint256",
              "name": "finalCooperativeNonce",
              "type": "uint256"
            },
            {
              "internalType": "uint256",
              "name": "finalDisputeNonce",
              "type": "uint256"
            },
            {
              "components": [
                {
                  "internalType": "int256[]",
                  "name": "offdeltas",
                  "type": "int256[]"
                },
                {
                  "internalType": "uint256[]",
                  "name": "tokenIds",
                  "type": "uint256[]"
                },
                {
                  "components": [
                    {
                      "internalType": "address",
                      "name": "subcontractProviderAddress",
                      "type": "address"
                    },
                    {
                      "internalType": "bytes",
                      "name": "encodedBatch",
                      "type": "bytes"
                    },
                    {
                      "components": [
                        {
                          "internalType": "uint256",
                          "name": "deltaIndex",
                          "type": "uint256"
                        },
                        {
                          "internalType": "uint256",
                          "name": "rightAllowence",
                          "type": "uint256"
                        },
                        {
                          "internalType": "uint256",
                          "name": "leftAllowence",
                          "type": "uint256"
                        }
                      ],
                      "internalType": "struct Depository.Allowence[]",
                      "name": "allowences",
                      "type": "tuple[]"
                    }
                  ],
                  "internalType": "struct Depository.SubcontractClause[]",
                  "name": "subcontracts",
                  "type": "tuple[]"
                }
              ],
              "internalType": "struct Depository.ProofBody",
              "name": "finalProofbody",
              "type": "tuple"
            },
            {
              "internalType": "bytes",
              "name": "finalArguments",
              "type": "bytes"
            },
            {
              "internalType": "bytes",
              "name": "sig",
              "type": "bytes"
            }
          ],
          "internalType": "struct Depository.FinalDisputeProof",
          "name": "params",
          "type": "tuple"
        }
      ],
      "name": "finalDisputeProof",
      "outputs": [
        {
          "internalType": "bool",
          "name": "",
          "type": "bool"
        }
      ],
      "stateMutability": "nonpayable",
      "type": "function"
    },
    {
      "inputs": [],
      "name": "getApprovedProviders",
      "outputs": [
        {
          "internalType": "address[]",
          "name": "",
          "type": "address[]"
        }
      ],
      "stateMutability": "view",
      "type": "function"
    },
    {
      "inputs": [
        {
          "internalType": "bytes32",
          "name": "entity",
          "type": "bytes32"
        },
        {
          "internalType": "bytes32[]",
          "name": "counterentities",
          "type": "bytes32[]"
        },
        {
          "internalType": "uint256[]",
          "name": "tokenIds",
          "type": "uint256[]"
        }
      ],
      "name": "getChannels",
      "outputs": [
        {
          "components": [
            {
              "components": [
                {
                  "internalType": "uint256",
                  "name": "cooperativeNonce",
                  "type": "uint256"
                },
                {
                  "internalType": "bytes32",
                  "name": "disputeHash",
                  "type": "bytes32"
                }
              ],
              "internalType": "struct Depository.ChannelInfo",
              "name": "channel",
              "type": "tuple"
            },
            {
              "components": [
                {
                  "internalType": "uint256",
                  "name": "collateral",
                  "type": "uint256"
                },
                {
                  "internalType": "int256",
                  "name": "ondelta",
                  "type": "int256"
                }
              ],
              "internalType": "struct Depository.ChannelCollateral[]",
              "name": "collaterals",
              "type": "tuple[]"
            }
          ],
          "internalType": "struct Depository.ChannelReturn[]",
          "name": "response",
          "type": "tuple[]"
        }
      ],
      "stateMutability": "view",
      "type": "function"
    },
    {
      "inputs": [
        {
          "internalType": "address",
          "name": "entityProvider",
          "type": "address"
        },
        {
          "internalType": "uint256",
          "name": "externalTokenId",
          "type": "uint256"
        }
      ],
      "name": "getControlShareTokenId",
      "outputs": [
        {
          "internalType": "uint256",
          "name": "internalTokenId",
          "type": "uint256"
        }
      ],
      "stateMutability": "view",
      "type": "function"
    },
    {
      "inputs": [
        {
          "internalType": "bytes32",
          "name": "entity",
          "type": "bytes32"
        },
        {
          "internalType": "uint256",
          "name": "tokenId",
          "type": "uint256"
        }
      ],
      "name": "getDebts",
      "outputs": [
        {
          "components": [
            {
              "internalType": "uint256",
              "name": "amount",
              "type": "uint256"
            },
            {
              "internalType": "bytes32",
              "name": "creditor",
              "type": "bytes32"
            }
          ],
          "internalType": "struct Depository.Debt[]",
          "name": "allDebts",
          "type": "tuple[]"
        },
        {
          "internalType": "uint256",
          "name": "currentDebtIndex",
          "type": "uint256"
        }
      ],
      "stateMutability": "view",
      "type": "function"
    },
    {
      "inputs": [
        {
          "internalType": "bytes32",
          "name": "entity",
          "type": "bytes32"
        },
        {
          "internalType": "uint256",
          "name": "tokenId",
          "type": "uint256"
        }
      ],
      "name": "getEntityTokenDebtStats",
      "outputs": [
        {
          "components": [
            {
              "internalType": "uint256",
              "name": "outstandingAmount",
              "type": "uint256"
            },
            {
              "internalType": "uint64",
              "name": "since",
              "type": "uint64"
            },
            {
              "internalType": "uint64",
              "name": "lastUpdated",
              "type": "uint64"
            }
          ],
          "internalType": "struct Depository.TokenDebtStats",
          "name": "",
          "type": "tuple"
        }
      ],
      "stateMutability": "view",
      "type": "function"
    },
    {
      "inputs": [
        {
          "internalType": "uint256",
          "name": "tokenId",
          "type": "uint256"
        }
      ],
      "name": "getTokenMetadata",
      "outputs": [
        {
          "internalType": "address",
          "name": "contractAddress",
          "type": "address"
        },
        {
          "internalType": "uint96",
          "name": "externalTokenId",
          "type": "uint96"
        },
        {
          "internalType": "uint8",
          "name": "tokenType",
          "type": "uint8"
        }
      ],
      "stateMutability": "view",
      "type": "function"
    },
    {
      "inputs": [],
      "name": "getTokensLength",
      "outputs": [
        {
          "internalType": "uint256",
          "name": "",
          "type": "uint256"
        }
      ],
      "stateMutability": "view",
      "type": "function"
    },
    {
      "inputs": [
        {
          "internalType": "bytes32[]",
          "name": "entities",
          "type": "bytes32[]"
        },
        {
          "internalType": "uint256[]",
          "name": "tokenIds",
          "type": "uint256[]"
        }
      ],
      "name": "getUsers",
      "outputs": [
        {
          "components": [
            {
              "internalType": "uint256",
              "name": "ETH_balance",
              "type": "uint256"
            },
            {
              "components": [
                {
                  "internalType": "uint256",
                  "name": "reserve",
                  "type": "uint256"
                },
                {
                  "internalType": "uint256",
                  "name": "debtIndex",
                  "type": "uint256"
                },
                {
                  "components": [
                    {
                      "internalType": "uint256",
                      "name": "amount",
                      "type": "uint256"
                    },
                    {
                      "internalType": "bytes32",
                      "name": "creditor",
                      "type": "bytes32"
                    }
                  ],
                  "internalType": "struct Depository.Debt[]",
                  "name": "debts",
                  "type": "tuple[]"
                }
              ],
              "internalType": "struct Depository.TokenReserveDebts[]",
              "name": "tokens",
              "type": "tuple[]"
            }
          ],
          "internalType": "struct Depository.UserReturn[]",
          "name": "response",
          "type": "tuple[]"
        }
      ],
      "stateMutability": "view",
      "type": "function"
    },
    {
      "inputs": [
        {
          "components": [
            {
              "internalType": "bytes32",
              "name": "counterentity",
              "type": "bytes32"
            },
            {
              "internalType": "uint256",
              "name": "cooperativeNonce",
              "type": "uint256"
            },
            {
              "internalType": "uint256",
              "name": "disputeNonce",
              "type": "uint256"
            },
            {
              "internalType": "bytes32",
              "name": "proofbodyHash",
              "type": "bytes32"
            },
            {
              "internalType": "bytes",
              "name": "sig",
              "type": "bytes"
            },
            {
              "internalType": "bytes",
              "name": "initialArguments",
              "type": "bytes"
            }
          ],
          "internalType": "struct Depository.InitialDisputeProof",
          "name": "params",
          "type": "tuple"
        }
      ],
      "name": "initialDisputeProof",
      "outputs": [
        {
          "internalType": "bool",
          "name": "",
          "type": "bool"
        }
      ],
      "stateMutability": "nonpayable",
      "type": "function"
    },
    {
      "inputs": [
        {
          "internalType": "bytes32",
          "name": "entity",
          "type": "bytes32"
        },
        {
          "internalType": "uint256",
          "name": "tokenId",
          "type": "uint256"
        },
        {
          "internalType": "uint256",
          "name": "startIndex",
          "type": "uint256"
        },
        {
          "internalType": "uint256",
          "name": "limit",
          "type": "uint256"
        }
      ],
      "name": "listActiveDebts",
      "outputs": [
        {
          "components": [
            {
              "internalType": "bytes32",
              "name": "creditor",
              "type": "bytes32"
            },
            {
              "internalType": "uint256",
              "name": "amount",
              "type": "uint256"
            },
            {
              "internalType": "uint256",
              "name": "index",
              "type": "uint256"
            }
          ],
          "internalType": "struct Depository.DebtSnapshot[]",
          "name": "debts",
          "type": "tuple[]"
        },
        {
          "internalType": "uint256",
          "name": "nextIndex",
          "type": "uint256"
        },
        {
          "internalType": "bool",
          "name": "hasMore",
          "type": "bool"
        }
      ],
      "stateMutability": "view",
      "type": "function"
    },
    {
      "inputs": [
        {
          "internalType": "bytes32",
          "name": "e1",
          "type": "bytes32"
        },
        {
          "internalType": "bytes32",
          "name": "e2",
          "type": "bytes32"
        }
      ],
      "name": "logChannel",
      "outputs": [],
      "stateMutability": "nonpayable",
      "type": "function"
    },
    {
      "inputs": [
        {
          "internalType": "uint8",
          "name": "tokenType",
          "type": "uint8"
        },
        {
          "internalType": "address",
          "name": "contractAddress",
          "type": "address"
        },
        {
          "internalType": "uint96",
          "name": "externalTokenId",
          "type": "uint96"
        }
      ],
      "name": "packTokenReference",
      "outputs": [
        {
          "internalType": "bytes32",
          "name": "",
          "type": "bytes32"
        }
      ],
      "stateMutability": "pure",
      "type": "function"
    },
    {
      "inputs": [
        {
          "internalType": "bytes32",
          "name": "counterpartyEntity",
          "type": "bytes32"
        },
        {
          "internalType": "uint256",
          "name": "tokenId",
          "type": "uint256"
        },
        {
          "internalType": "uint256",
          "name": "amount",
          "type": "uint256"
        }
      ],
      "name": "prefundAccount",
      "outputs": [
        {
          "internalType": "bool",
          "name": "",
          "type": "bool"
        }
      ],
      "stateMutability": "nonpayable",
      "type": "function"
    },
    {
      "inputs": [
        {
          "internalType": "bytes32",
          "name": "entity",
          "type": "bytes32"
        },
        {
          "internalType": "uint256",
          "name": "tokenId",
          "type": "uint256"
        },
        {
          "internalType": "uint256",
          "name": "additionalReserve",
          "type": "uint256"
        },
        {
          "internalType": "uint256",
          "name": "maxIterations",
          "type": "uint256"
        }
      ],
      "name": "previewEnforceDebts",
      "outputs": [
        {
          "internalType": "uint256",
          "name": "totalClearedAmount",
          "type": "uint256"
        },
        {
          "internalType": "uint256",
          "name": "resultingReserve",
          "type": "uint256"
        },
        {
          "internalType": "uint256",
          "name": "nextDebtIndex",
          "type": "uint256"
        },
        {
          "internalType": "uint256",
          "name": "nextDebtAmount",
          "type": "uint256"
        },
        {
          "internalType": "bytes32",
          "name": "nextDebtCreditor",
          "type": "bytes32"
        }
      ],
      "stateMutability": "view",
      "type": "function"
    },
    {
      "inputs": [
        {
          "internalType": "bytes32",
          "name": "entity",
          "type": "bytes32"
        },
        {
          "components": [
            {
              "components": [
                {
                  "internalType": "bytes32",
                  "name": "receivingEntity",
                  "type": "bytes32"
                },
                {
                  "internalType": "uint256",
                  "name": "tokenId",
                  "type": "uint256"
                },
                {
                  "internalType": "uint256",
                  "name": "amount",
                  "type": "uint256"
                }
              ],
              "internalType": "struct Depository.ReserveToExternalToken[]",
              "name": "reserveToExternalToken",
              "type": "tuple[]"
            },
            {
              "components": [
                {
                  "internalType": "bytes32",
                  "name": "entity",
                  "type": "bytes32"
                },
                {
                  "internalType": "bytes32",
                  "name": "packedToken",
                  "type": "bytes32"
                },
                {
                  "internalType": "uint256",
                  "name": "internalTokenId",
                  "type": "uint256"
                },
                {
                  "internalType": "uint256",
                  "name": "amount",
                  "type": "uint256"
                }
              ],
              "internalType": "struct Depository.ExternalTokenToReserve[]",
              "name": "externalTokenToReserve",
              "type": "tuple[]"
            },
            {
              "components": [
                {
                  "internalType": "bytes32",
                  "name": "receivingEntity",
                  "type": "bytes32"
                },
                {
                  "internalType": "uint256",
                  "name": "tokenId",
                  "type": "uint256"
                },
                {
                  "internalType": "uint256",
                  "name": "amount",
                  "type": "uint256"
                }
              ],
              "internalType": "struct Depository.ReserveToReserve[]",
              "name": "reserveToReserve",
              "type": "tuple[]"
            },
            {
              "components": [
                {
                  "internalType": "uint256",
                  "name": "tokenId",
                  "type": "uint256"
                },
                {
                  "internalType": "bytes32",
                  "name": "receivingEntity",
                  "type": "bytes32"
                },
                {
                  "components": [
                    {
                      "internalType": "bytes32",
                      "name": "entity",
                      "type": "bytes32"
                    },
                    {
                      "internalType": "uint256",
                      "name": "amount",
                      "type": "uint256"
                    }
                  ],
                  "internalType": "struct Depository.AddrAmountPair[]",
                  "name": "pairs",
                  "type": "tuple[]"
                }
              ],
              "internalType": "struct Depository.ReserveToCollateral[]",
              "name": "reserveToCollateral",
              "type": "tuple[]"
            },
            {
              "components": [
                {
                  "internalType": "bytes32",
                  "name": "leftEntity",
                  "type": "bytes32"
                },
                {
                  "internalType": "bytes32",
                  "name": "rightEntity",
                  "type": "bytes32"
                },
                {
                  "components": [
                    {
                      "internalType": "uint256",
                      "name": "tokenId",
                      "type": "uint256"
                    },
                    {
                      "internalType": "int256",
                      "name": "leftDiff",
                      "type": "int256"
                    },
                    {
                      "internalType": "int256",
                      "name": "rightDiff",
                      "type": "int256"
                    },
                    {
                      "internalType": "int256",
                      "name": "collateralDiff",
                      "type": "int256"
                    },
                    {
                      "internalType": "int256",
                      "name": "ondeltaDiff",
                      "type": "int256"
                    }
                  ],
                  "internalType": "struct Depository.SettlementDiff[]",
                  "name": "diffs",
                  "type": "tuple[]"
                },
                {
                  "internalType": "uint256[]",
                  "name": "forgiveDebtsInTokenIds",
                  "type": "uint256[]"
                },
                {
                  "internalType": "bytes",
                  "name": "sig",
                  "type": "bytes"
                }
              ],
              "internalType": "struct Depository.Settlement[]",
              "name": "settlements",
              "type": "tuple[]"
            },
            {
              "components": [
                {
                  "internalType": "bytes32",
                  "name": "counterentity",
                  "type": "bytes32"
                },
                {
                  "components": [
                    {
                      "internalType": "uint256",
                      "name": "tokenId",
                      "type": "uint256"
                    },
                    {
                      "internalType": "int256",
                      "name": "peerReserveDiff",
                      "type": "int256"
                    },
                    {
                      "internalType": "int256",
                      "name": "collateralDiff",
                      "type": "int256"
                    },
                    {
                      "internalType": "int256",
                      "name": "ondeltaDiff",
                      "type": "int256"
                    }
                  ],
                  "internalType": "struct Depository.Diff[]",
                  "name": "diffs",
                  "type": "tuple[]"
                },
                {
                  "internalType": "uint256[]",
                  "name": "forgiveDebtsInTokenIds",
                  "type": "uint256[]"
                },
                {
                  "internalType": "bytes",
                  "name": "sig",
                  "type": "bytes"
                }
              ],
              "internalType": "struct Depository.CooperativeUpdate[]",
              "name": "cooperativeUpdate",
              "type": "tuple[]"
            },
            {
              "components": [
                {
                  "internalType": "bytes32",
                  "name": "counterentity",
                  "type": "bytes32"
                },
                {
                  "components": [
                    {
                      "internalType": "int256[]",
                      "name": "offdeltas",
                      "type": "int256[]"
                    },
                    {
                      "internalType": "uint256[]",
                      "name": "tokenIds",
                      "type": "uint256[]"
                    },
                    {
                      "components": [
                        {
                          "internalType": "address",
                          "name": "subcontractProviderAddress",
                          "type": "address"
                        },
                        {
                          "internalType": "bytes",
                          "name": "encodedBatch",
                          "type": "bytes"
                        },
                        {
                          "components": [
                            {
                              "internalType": "uint256",
                              "name": "deltaIndex",
                              "type": "uint256"
                            },
                            {
                              "internalType": "uint256",
                              "name": "rightAllowence",
                              "type": "uint256"
                            },
                            {
                              "internalType": "uint256",
                              "name": "leftAllowence",
                              "type": "uint256"
                            }
                          ],
                          "internalType": "struct Depository.Allowence[]",
                          "name": "allowences",
                          "type": "tuple[]"
                        }
                      ],
                      "internalType": "struct Depository.SubcontractClause[]",
                      "name": "subcontracts",
                      "type": "tuple[]"
                    }
                  ],
                  "internalType": "struct Depository.ProofBody",
                  "name": "proofbody",
                  "type": "tuple"
                },
                {
                  "internalType": "bytes",
                  "name": "initialArguments",
                  "type": "bytes"
                },
                {
                  "internalType": "bytes",
                  "name": "finalArguments",
                  "type": "bytes"
                },
                {
                  "internalType": "bytes",
                  "name": "sig",
                  "type": "bytes"
                }
              ],
              "internalType": "struct Depository.CooperativeDisputeProof[]",
              "name": "cooperativeDisputeProof",
              "type": "tuple[]"
            },
            {
              "components": [
                {
                  "internalType": "bytes32",
                  "name": "counterentity",
                  "type": "bytes32"
                },
                {
                  "internalType": "uint256",
                  "name": "cooperativeNonce",
                  "type": "uint256"
                },
                {
                  "internalType": "uint256",
                  "name": "disputeNonce",
                  "type": "uint256"
                },
                {
                  "internalType": "bytes32",
                  "name": "proofbodyHash",
                  "type": "bytes32"
                },
                {
                  "internalType": "bytes",
                  "name": "sig",
                  "type": "bytes"
                },
                {
                  "internalType": "bytes",
                  "name": "initialArguments",
                  "type": "bytes"
                }
              ],
              "internalType": "struct Depository.InitialDisputeProof[]",
              "name": "initialDisputeProof",
              "type": "tuple[]"
            },
            {
              "components": [
                {
                  "internalType": "bytes32",
                  "name": "counterentity",
                  "type": "bytes32"
                },
                {
                  "internalType": "uint256",
                  "name": "initialCooperativeNonce",
                  "type": "uint256"
                },
                {
                  "internalType": "uint256",
                  "name": "initialDisputeNonce",
                  "type": "uint256"
                },
                {
                  "internalType": "uint256",
                  "name": "disputeUntilBlock",
                  "type": "uint256"
                },
                {
                  "internalType": "bytes32",
                  "name": "initialProofbodyHash",
                  "type": "bytes32"
                },
                {
                  "internalType": "bytes",
                  "name": "initialArguments",
                  "type": "bytes"
                },
                {
                  "internalType": "bool",
                  "name": "startedByLeft",
                  "type": "bool"
                },
                {
                  "internalType": "uint256",
                  "name": "finalCooperativeNonce",
                  "type": "uint256"
                },
                {
                  "internalType": "uint256",
                  "name": "finalDisputeNonce",
                  "type": "uint256"
                },
                {
                  "components": [
                    {
                      "internalType": "int256[]",
                      "name": "offdeltas",
                      "type": "int256[]"
                    },
                    {
                      "internalType": "uint256[]",
                      "name": "tokenIds",
                      "type": "uint256[]"
                    },
                    {
                      "components": [
                        {
                          "internalType": "address",
                          "name": "subcontractProviderAddress",
                          "type": "address"
                        },
                        {
                          "internalType": "bytes",
                          "name": "encodedBatch",
                          "type": "bytes"
                        },
                        {
                          "components": [
                            {
                              "internalType": "uint256",
                              "name": "deltaIndex",
                              "type": "uint256"
                            },
                            {
                              "internalType": "uint256",
                              "name": "rightAllowence",
                              "type": "uint256"
                            },
                            {
                              "internalType": "uint256",
                              "name": "leftAllowence",
                              "type": "uint256"
                            }
                          ],
                          "internalType": "struct Depository.Allowence[]",
                          "name": "allowences",
                          "type": "tuple[]"
                        }
                      ],
                      "internalType": "struct Depository.SubcontractClause[]",
                      "name": "subcontracts",
                      "type": "tuple[]"
                    }
                  ],
                  "internalType": "struct Depository.ProofBody",
                  "name": "finalProofbody",
                  "type": "tuple"
                },
                {
                  "internalType": "bytes",
                  "name": "finalArguments",
                  "type": "bytes"
                },
                {
                  "internalType": "bytes",
                  "name": "sig",
                  "type": "bytes"
                }
              ],
              "internalType": "struct Depository.FinalDisputeProof[]",
              "name": "finalDisputeProof",
              "type": "tuple[]"
            },
            {
              "components": [
                {
                  "internalType": "uint256",
                  "name": "tokenId",
                  "type": "uint256"
                },
                {
                  "internalType": "uint256",
                  "name": "amount",
                  "type": "uint256"
                }
              ],
              "internalType": "struct Depository.TokenAmountPair[]",
              "name": "flashloans",
              "type": "tuple[]"
            },
            {
              "internalType": "uint256",
              "name": "hub_id",
              "type": "uint256"
            }
          ],
          "internalType": "struct Depository.Batch",
          "name": "batch",
          "type": "tuple"
        }
      ],
      "name": "processBatch",
      "outputs": [
        {
          "internalType": "bool",
          "name": "completeSuccess",
          "type": "bool"
        }
      ],
      "stateMutability": "nonpayable",
      "type": "function"
    },
    {
      "inputs": [
        {
          "internalType": "bytes",
          "name": "encodedBatch",
          "type": "bytes"
        },
        {
          "internalType": "address",
          "name": "entityProvider",
          "type": "address"
        },
        {
          "internalType": "bytes",
          "name": "hankoData",
          "type": "bytes"
        },
        {
          "internalType": "uint256",
          "name": "nonce",
          "type": "uint256"
        }
      ],
      "name": "processBatchWithHanko",
      "outputs": [
        {
          "internalType": "bool",
          "name": "completeSuccess",
          "type": "bool"
        }
      ],
      "stateMutability": "nonpayable",
      "type": "function"
    },
    {
      "inputs": [
        {
          "internalType": "uint256",
          "name": "hub_id",
          "type": "uint256"
        },
        {
          "internalType": "string",
          "name": "new_uri",
          "type": "string"
        }
      ],
      "name": "registerHub",
      "outputs": [
        {
          "internalType": "uint256",
          "name": "",
          "type": "uint256"
        }
      ],
      "stateMutability": "nonpayable",
      "type": "function"
    },
    {
      "inputs": [
        {
          "internalType": "address",
          "name": "provider",
          "type": "address"
        }
      ],
      "name": "removeEntityProvider",
      "outputs": [],
      "stateMutability": "nonpayable",
      "type": "function"
    },
    {
      "inputs": [
        {
          "internalType": "bytes32",
          "name": "fromEntity",
          "type": "bytes32"
        },
        {
          "internalType": "bytes32",
          "name": "toEntity",
          "type": "bytes32"
        },
        {
          "internalType": "uint256",
          "name": "tokenId",
          "type": "uint256"
        },
        {
          "internalType": "uint256",
          "name": "amount",
          "type": "uint256"
        }
      ],
      "name": "reserveToReserve",
      "outputs": [
        {
          "internalType": "bool",
          "name": "",
          "type": "bool"
        }
      ],
      "stateMutability": "nonpayable",
      "type": "function"
    },
    {
      "inputs": [
        {
          "internalType": "bool",
          "name": "isPaused",
          "type": "bool"
        }
      ],
      "name": "setEmergencyPause",
      "outputs": [],
      "stateMutability": "nonpayable",
      "type": "function"
    },
    {
      "inputs": [
        {
          "internalType": "bytes32",
          "name": "leftEntity",
          "type": "bytes32"
        },
        {
          "internalType": "bytes32",
          "name": "rightEntity",
          "type": "bytes32"
        },
        {
          "components": [
            {
              "internalType": "uint256",
              "name": "tokenId",
              "type": "uint256"
            },
            {
              "internalType": "int256",
              "name": "leftDiff",
              "type": "int256"
            },
            {
              "internalType": "int256",
              "name": "rightDiff",
              "type": "int256"
            },
            {
              "internalType": "int256",
              "name": "collateralDiff",
              "type": "int256"
            },
            {
              "internalType": "int256",
              "name": "ondeltaDiff",
              "type": "int256"
            }
          ],
          "internalType": "struct Depository.SettlementDiff[]",
          "name": "diffs",
          "type": "tuple[]"
        },
        {
          "internalType": "uint256[]",
          "name": "forgiveDebtsInTokenIds",
          "type": "uint256[]"
        },
        {
          "internalType": "bytes",
          "name": "sig",
          "type": "bytes"
        }
      ],
      "name": "settle",
      "outputs": [
        {
          "internalType": "bool",
          "name": "",
          "type": "bool"
        }
      ],
      "stateMutability": "nonpayable",
      "type": "function"
    },
    {
      "inputs": [
        {
          "internalType": "bytes32",
          "name": "",
          "type": "bytes32"
        }
      ],
      "name": "tokenToId",
      "outputs": [
        {
          "internalType": "uint256",
          "name": "",
          "type": "uint256"
        }
      ],
      "stateMutability": "view",
      "type": "function"
    },
    {
      "inputs": [
        {
          "internalType": "bytes32",
          "name": "packed",
          "type": "bytes32"
        }
      ],
      "name": "unpackTokenReference",
      "outputs": [
        {
          "internalType": "address",
          "name": "contractAddress",
          "type": "address"
        },
        {
          "internalType": "uint96",
          "name": "externalTokenId",
          "type": "uint96"
        },
        {
          "internalType": "uint8",
          "name": "tokenType",
          "type": "uint8"
        }
      ],
      "stateMutability": "pure",
      "type": "function"
    }
  ],
  "bytecode": "0x60a034620002ed57600160009181835533608052600d5491680100000000000000009384841015620002d95781840180600d55841015620002c557600d81527fd7b6990105719101dabeb77144f2a3385c8033acd3af97e9423a695e81ad1eb59093018390556020926001600160401b03926060810184811182821017620002b15760405281815284810182815260405196868801888110878211176200029d5760405283885260408301978852600c5490811015620002895784810180600c5581101562000275579060029291600c855260038886209102019151825551848201550194518051938411620002615785548381811c9116801562000256575b868210146200024257601f8111620001f7575b508491601f85116001146200019057939450849291908362000184575b50501b916000199060031b1c19161790555b6040516195839081620002f3823960805181818161067301528181610a03015281816110d9015281816111ed0152818161264a01528181612a340152612f280152f35b0151925038806200012f565b86815285812093958591601f198316915b88838310620001dc5750505010620001c2575b505050811b01905562000141565b015160001960f88460031b161c19169055388080620001b4565b858701518855909601959485019487935090810190620001a1565b868352858320601f860160051c81019187871062000237575b601f0160051c019084905b8281106200022b57505062000112565b8481550184906200021b565b909150819062000210565b634e487b7160e01b83526022600452602483fd5b90607f1690620000ff565b634e487b7160e01b82526041600452602482fd5b634e487b7160e01b84526032600452602484fd5b634e487b7160e01b84526041600452602484fd5b634e487b7160e01b85526041600452602485fd5b634e487b7160e01b83526041600452602483fd5b634e487b7160e01b81526032600452602490fd5b634e487b7160e01b81526041600452602490fd5b600080fdfe6080604052600436101561001257600080fd5b60003560e01c80630dedd6241461031757806310340ce3146103125780631709390f1461030d57806322c2157714610308578063266afe1b1461030357806329ac1c4c146102fe57806331599c7d146102f95780633644e515146102f457806336f01a1e146102ef5780633925cd44146102ea5780634174a93d146102e557806341e83796146102e057806351858e27146102db57806358d642bc146102d65780635ffefe5b146102d157806360316801146102cc57806361de7b27146102c757806366dc385b146102c25780636afbfac2146102bd5780636b79134d146102b85780637508b916146102b357806388a1cd76146102ae5780638caf09e6146102a95780638dec1156146102a457806392cf61e51461029f5780639304677d1461029a57806398f1774c14610295578063a034af4214610290578063a0679ed91461028b578063a09fd42b14610286578063abc8d1ac14610281578063accdeb0c1461027c578063acd6f20814610277578063ad89991b14610272578063b0c26ecf1461026d578063bb2c250c14610268578063bfa4b7d914610263578063d19fd92e1461025e578063d8d1a65714610259578063dd865c8b14610254578063ddc394801461024f578063e5f4d0aa1461024a578063ec6d8e0614610245578063ed70554d14610240578063f851a4401461023b578063fbfe1b5714610236578063fc3c4c3e146102315763fdfb731e1461022c57600080fd5b6132d7565b61321f565b612f7a565b612f08565b612eb7565b612e5d565b612bed565b612a07565b6126ae565b61261d565b6125f1565b61259e565b612522565b612504565b61248d565b612453565b612247565b611ed9565b611dfb565b611c3a565b611b28565b611af2565b611a82565b611a4b565b6119d4565b6118b2565b611859565b6117e8565b6117bc565b611780565b6116fd565b611560565b611319565b6111c5565b6110b2565b61108f565b61107c565b61101e565b610e15565b610c39565b610bfe565b610b94565b6109e5565b61091b565b6106a1565b610654565b610615565b6105a0565b634e487b7160e01b600052604160045260246000fd5b6060810190811067ffffffffffffffff82111761034e57604052565b61031c565b60a0810190811067ffffffffffffffff82111761034e57604052565b6080810190811067ffffffffffffffff82111761034e57604052565b67ffffffffffffffff811161034e57604052565b6040810190811067ffffffffffffffff82111761034e57604052565b6020810190811067ffffffffffffffff82111761034e57604052565b90601f8019910116810190811067ffffffffffffffff82111761034e57604052565b604051906104068261039f565b565b6040519061040682610332565b60405190610180820182811067ffffffffffffffff82111761034e57604052565b6040519060c0820182811067ffffffffffffffff82111761034e57604052565b6040519061040682610353565b60405190610160820182811067ffffffffffffffff82111761034e57604052565b6040519060e0820182811067ffffffffffffffff82111761034e57604052565b67ffffffffffffffff811161034e57601f01601f191660200190565b9291926104cc826104a4565b916104da60405193846103d7565b8294818452818301116104f7578281602093846000960137010152565b600080fd5b9080601f830112156104f757816020610517933591016104c0565b90565b60005b83811061052d5750506000910152565b818101518382015260200161051d565b906105506020928281519485920161051a565b0190565b602061056d91816040519382858094519384920161051a565b8101600581520301902090565b602061059391816040519382858094519384920161051a565b8101600481520301902090565b346104f75760403660031901126104f75760043567ffffffffffffffff81116104f7576105d46105d99136906004016104fc565b610554565b6024356000526020526040806000206001815491015482519182526020820152f35b60609060031901126104f757600435906024359060443590565b346104f757602061062e610628366105fb565b916168a4565b604051908152f35b60809060031901126104f75760043590602435906044359060643590565b346104f75761069f61066536610636565b9261069a6001600160a01b037f0000000000000000000000000000000000000000000000000000000000000000163314613488565b616be5565b005b346104f7576108e86108d86106b5366105fb565b9291906106c760ff600a5416156134d3565b6106d66002600054141561351e565b60026000556106e782331415613569565b6106f28415156135b4565b813310806000146109095733905b156109025782905b7f36a23558c84aea8a6a7bbadf50a454e47507746fa69bf7cf58db85d9bdf063d861083f846107b161077e61078a60405160208101816107548b8b849091604092825260208201520190565b0391610768601f19938481018352826103d7565b5190206040519384916020830160209181520190565b039081018352826103d7565b61079483336163de565b506107c88b6107c0856107b1336000526003602052604060002090565b90600052602052604060002090565b5410156135ff565b6107e0836107b1336000526003602052604060002090565b6107eb8c8254613699565b905582610806816107b1336000526003602052604060002090565b5460405190815233907fab4d21442efe134c3d0c087e2b687e9593a1c09176f498d37873210cde052c459080602081015b0390a3610554565b61084a8882546136d8565b8082556108ac610868876107b1876000526003602052604060002090565b54916001610884896107b18a6000526003602052604060002090565b5494015490604051948594859094939260609260808301968352602083015260408201520152565b0390a46108bf6108ba6136f8565b616d87565b6108c833616dd3565b6108d36108ba613731565b616dd3565b6108e36108ba61376a565b616e13565b6108f26001600055565b60405160018152602090f35b0390f35b3390610708565b8290610700565b60009103126104f757565b346104f7576000806003193601126109e25760405180916002549081835260208093018092600283527f405787fa12a823e0f2b7631cc41b3ba8828b3321ca811111fa75cd3aa3bb5ace90835b8181106109c5575050508461097e9103856103d7565b60405193838594850191818652518092526040850193925b8281106109a557505050500390f35b83516001600160a01b031685528695509381019392810192600101610996565b82546001600160a01b031684529286019260019283019201610968565b80fd5b346104f75760003660031901126104f757610a2a6001600160a01b037f0000000000000000000000000000000000000000000000000000000000000000163314613488565b6040610a90604051610a3b81610332565b603f81527f646562756742756c6b46756e64456e7469746965733a2066756e64696e67206560208201527f6e74697469657320312d3230302077697468205553444320616e6420455448006040820152616d87565b6001905b6101f4821115610aa95761069f6108ba6137b2565b60015b6002811115610ac6575090610ac0906137a3565b90610a94565b80610ae2610b44926107b1866000526003602052604060002090565b610aec81546136a6565b905580847fab4d21442efe134c3d0c087e2b687e9593a1c09176f498d37873210cde052c45610b3c610b2c846107b1856000526003602052604060002090565b5487519081529081906020820190565b0390a36137a3565b610aac565b90815180825260208080930193019160005b828110610b69575050505090565b9091929382604082610b88600194895160208091805184520151910152565b01950193929101610b5b565b346104f7576040806003193601126104f75760043590610be08160243560009085825260076020528282208183526020528282205495825260066020528282209082526020522061382f565b91610bf48251938385948552840190610b49565b9060208301520390f35b346104f75760003660031901126104f75760206040517f990f4c22d4b046a9a7d673c4a252b906cadd4f3290465e297f998c28a449652b8152f35b346104f7576003196040368201126104f7576024359060043567ffffffffffffffff83116104f757610160836004019284360301126104f757610d2f610d359260446108fe95610c8e60ff600a5416156134d3565b610c9d6002600054141561351e565b6002600055610cad6108ba613885565b610cb86108ba613885565b610cc36108ba613885565b610cce6108ba6138be565b610cd785616dd3565b610ce26108ba6138f7565b01610cf7610cf08284613930565b9050616e13565b610d026108ba613966565b610d0b33616e53565b610d158183613930565b9050610d51575b50610d286108ba613ac5565b3690614150565b90617122565b610d3f6001600055565b60405190151581529081906020820190565b610e09610e0f91610d636108ba61399f565b610d6e6108ba6139d8565b610d8a610d84610d7e8387613930565b90613a11565b35616dd3565b610d956108ba613a1a565b610dae6020610da7610d7e8488613930565b0135616e13565b610db96108ba613a53565b610dcb6040610da7610d7e8488613930565b610dd66108ba613a8c565b6020610df9610d7e610df2896000526003602052604060002090565b9387613930565b0135600052602052604060002090565b54616e13565b38610d1c565b346104f7577fae4812ebb7c47ac957e097b649541f0cd55d34b3576fb0db5739591d6f684367610fd0610e4736610636565b610e5b60ff600a97949693975416156134d3565b610e6a6002600054141561351e565b6002600055610e7b8585141561429b565b610e868115156135b4565b610e9086856163de565b50610eb581610ead886107b1886000526003602052604060002090565b5410156142e6565b610ec06108ba614331565b610ec984616dd3565b610ed46108ba61436a565b610edd85616dd3565b610ee86108ba61376a565b610ef181616e13565b610f09866107b1866000526003602052604060002090565b610f14828254613699565b9055610f2e866107b1876000526003602052604060002090565b610f398282546136d8565b90558585610f8e8287610f5a826107b1836000526003602052604060002090565b54604051807fab4d21442efe134c3d0c087e2b687e9593a1c09176f498d37873210cde052c45958693829190602083019252565b0390a3610fbd610fac846107b1856000526003602052604060002090565b546040519081529081906020820190565b0390a36040519081529081906020820190565b0390a46108e86108ba6143a3565b600435906001600160a01b03821682036104f757565b602435906001600160a01b03821682036104f757565b35906001600160a01b03821682036104f757565b346104f75760403660031901126104f7576002611039610fde565b6cffffffffffffffffffffffff0060243560081b16906bffffffffffffffffffffffff199060601b161717600052600e6020526020604060002054604051908152f35b346104f75760403660031901126104f757005b346104f75760003660031901126104f757602060ff600a54166040519015158152f35b346104f75760203660031901126104f7576110cb610fde565b6001600160a01b03611100817f0000000000000000000000000000000000000000000000000000000000000000163314613488565b811661110d8115156143dc565b600091818352600160205260ff604084205416611181578061115561114861115a936001600160a01b03166000526001602052604060002090565b805460ff19166001179055565b614427565b7fc395b1bd803c744a815bc34a0426e5eaac03513b9d76bf237a734a004916499c8280a280f35b606460405162461bcd60e51b815260206004820152601060248201527f416c726561647920617070726f766564000000000000000000000000000000006044820152fd5b346104f75761069f610e096107b16111dc366105fb565b6112146001600160a01b03949392947f0000000000000000000000000000000000000000000000000000000000000000163314613488565b61121f8115156135b4565b61126760405161122e81610332565b602181527f646562756746756e6452657365727665733a2066756e64696e6720656e7469746020820152607960f81b6040820152616d87565b61127082616dd3565b61127b6108ba61449a565b61128484616e13565b61128f6108ba6144d3565b61129881616e13565b6112bb6112b3856107b1856000526003602052604060002090565b9182546136d8565b905582817fab4d21442efe134c3d0c087e2b687e9593a1c09176f498d37873210cde052c456112fb610fac846107b1856000526003602052604060002090565b0390a36113096108ba61450c565b6000526003602052604060002090565b346104f75760203660031901126104f757600435600d548110156113ba576113836108fe91600d6000527fd7b6990105719101dabeb77144f2a3385c8033acd3af97e9423a695e81ad1eb501548060601c9160ff6affffffffffffffffffffff8360081c16921690565b604080516001600160a01b0390941684526bffffffffffffffffffffffff909216602084015260ff16908201529081906060820190565b606460405162461bcd60e51b815260206004820152600f60248201527f496e76616c696420746f6b656e496400000000000000000000000000000000006044820152fd5b67ffffffffffffffff811161034e5760051b60200190565b9080601f830112156104f7576020908235611430816113fe565b9361143e60405195866103d7565b81855260208086019260051b8201019283116104f757602001905b828210611467575050505090565b81358152908301908301611459565b602080820190808352835180925260409283810160059483818660051b850101970195600080945b8786106114b15750505050505050505090565b909192939495969798603f19828203018652878a5181878401918051855201519287838201528351809252606091828201918484838b1b83010196019388905b8b8483106115175750505050505050806001929b0196019601949796959392919061149e565b9661154f8883899b818a9c6001989a9c8a9c88999b605f19908603019052518051845287810151888501520151938201520190610b49565b9801960192018d95949293916114f1565b346104f7576040806003193601126104f75767ffffffffffffffff906004358281116104f757611594903690600401611416565b916024359081116104f7576115ad903690600401611416565b6115b78351614545565b6000906000905b85518210156116ed576115d182876145a8565b51946001600160a01b03861631936115e986516145bc565b946115f26103f9565b9081526020958682015261160685856145a8565b5261161184846145a8565b50805b86518110156116dc57806116d560019261165461163b8c6000526003602052604060002090565b611645838d6145a8565b51600052602052604060002090565b546116b28c61169d8d6116458661169761168561167b876000526007602052604060002090565b61164584876145a8565b54956000526006602052604060002090565b926145a8565b906116a6610408565b9384528c84015261382f565b87820152896116c18a8a6145a8565b510151906116cf83836145a8565b526145a8565b5001611614565b5093509450949060010190946115be565b6108fe9060405191829182611476565b346104f75761171761170e36610636565b929190916146f1565b9160409260405192606080850160608652845180915260808601946020809101926000905b838210611758576020890186905286151560408a015288880389f35b84518051895280840151898501528a01518a890152968701969382019360019091019061173c565b346104f75760a061179c61179336610636565b92919091614851565b926040929192519485526020850152604084015260608301526080820152f35b346104f75760203660031901126104f75760043560005260086020526020604060002054604051908152f35b346104f75760403660031901126104f757600435600052600760205260406000206024356000526020526020604060002054604051908152f35b634e487b7160e01b600052603260045260246000fd5b80548210156118545760005260206000209060011b0190600090565b611822565b346104f757611867366105fb565b9060009283526006602052604083209083526020526040822080548210156118ae576118939250611838565b50805460019091015460408051928352602083019190915290f35b8280fd5b346104f7576040806003193601126104f7576060906118cf61466f565b50600435600052600960205280600020602435600052602052806000209080516118f881610332565b6001835493848352015467ffffffffffffffff82818560208296019282861684520193861c168352845195865251166020850152511690820152f35b81601f820112156104f757803590602061194d836113fe565b93604061195d60405196876103d7565b848652828601918360a0809702860101948186116104f7578401925b85841061198a575050505050505090565b86848303126104f75784879184516119a181610353565b86358152828701358382015285870135868201526060808801359082015260808088013590820152815201930192611979565b346104f75760a03660031901126104f75767ffffffffffffffff6044358181116104f757611a06903690600401611934565b906064358181116104f757611a1f903690600401611416565b916084359182116104f7576108fe92611a3f610d3f9336906004016104fc565b91602435600435614a21565b346104f75760203660031901126104f7576108fe6113836004358060601c9160ff6affffffffffffffffffffff8360081c16921690565b346104f75760203660031901126104f7576001600160a01b03611aa3610fde565b16600052600f6020526020604060002054604051908152f35b90602091611ad58151809281855285808601910161051a565b601f01601f1916010190565b906020610517928181520190611abc565b346104f75760403660031901126104f7576108fe611b14602435600435615638565b604051918291602083526020830190611abc565b346104f75760403660031901126104f75760243567ffffffffffffffff81116104f757366023820112156104f75761062e611b6f60209236906024816004013591016104c0565b6004356158b6565b6020808201908083528351809252604092604081018260408560051b840101960194600080935b868510611bb057505050505050505090565b9091929394959697603f198282030185528689518160806060948286820194611be483825160208091805184520151910152565b0151958982015285518094520193019085905b87818310611c195750505050806001929a019501950193969594929190611b9e565b83958560019496939551805183520151838201520194019201899291611bf7565b346104f75760603660031901126104f75760043567ffffffffffffffff6024358181116104f757611c6f903690600401611416565b906044359081116104f757611c8983913690600401611416565b611c93835161596d565b906000906000905b8551821015611d5c57611cb8611cb183886145a8565b5186615638565b94611cc28661057a565b93611ccd83516159d4565b94611cdf611cd96103f9565b91613811565b815260209586820152611cf285886145a8565b52611cfd84876145a8565b50805b8351811015611d4b5780611d448189611d3a8a611d318b8f8c61164560019b611697611d2b94610554565b946145a8565b51015191613811565b6116cf83836145a8565b5001611d00565b509095509250600190910190611c9b565b604051806108fe8682611b77565b600c5481101561185457600390600c600052027fdf6966c971051c3d54ec59162606531493a51404a002842f56009d7e5cf4a8c70190600090565b90600182811c92168015611dd5575b6020831014611dbf57565b634e487b7160e01b600052602260045260246000fd5b91607f1691611db4565b6105179392606092825260208201528160408201520190611abc565b346104f7576020806003193601126104f757600435600c548110156104f757611e2390611d6a565b509081549060016002600185015494019160405192600092815491611e4783611da5565b8087529260018116908115611eb75750600114611e7d575b87876108fe88611e71818a03826103d7565b60405193849384611ddf565b6000908152838120939450925b828410611ea457505050820101611e71826108fe38611e5f565b8054868501860152928401928101611e8a565b60ff191685880152505050151560051b8301019050611e71826108fe38611e5f565b346104f75760203660031901126104f7576001600160a01b03611efa610fde565b166000526001602052602060ff604060002054166040519015158152f35b801515036104f757565b359061040682611f18565b81601f820112156104f757803591602090611f47846113fe565b936040611f56815196876103d7565b818652838087019260051b860101928084116104f757848601925b848410611f82575050505050505090565b67ffffffffffffffff84358181116104f75788019060609081601f1984870301126104f757855192611fb384610332565b611fbe8a820161100a565b8452868101358281116104f757868b611fd9928401016104fc565b8a850152828101359182116104f757019084603f830112156104f7578882013591612003836113fe565b92612010885194856103d7565b80845287838c86019202830101918783116104f75791888c969492979593015b81811061204c5750505083945086820152815201930192611f71565b91809496508289989294969803126104f7578b84918a5161206c81610332565b8435815282850135838201528b8501358c8201528152019101918b959391969492612030565b91906060838203126104f757604051906120ab82610332565b819380359167ffffffffffffffff928381116104f757820181601f820112156104f75780356020916120dc826113fe565b916120ea60405193846103d7565b808352838084019160051b830101918583116104f75784809101915b83831061214c57505050508552808301358481116104f7578261212a918501611416565b9085015260408201359283116104f7576040926121479201611f2d565b910152565b8235815291810191859101612106565b9190610180838203126104f757612171610415565b92803584526020810135602085015260408101356040850152606081013560608501526080810135608085015260a08101359167ffffffffffffffff928381116104f757816121c19184016104fc565b60a08601526121d260c08301611f22565b60c086015260e082013560e08601526101008083013590860152610120808301358481116104f75782612206918501612092565b90860152610140808301358481116104f757826122249185016104fc565b9086015261016092838301359081116104f75761224192016104fc565b90830152565b346104f75760203660031901126104f75760043567ffffffffffffffff81116104f7576123ef61227e6108e892369060040161215c565b61228d6002600054141561351e565b600260005561229d815133615638565b6123136122b433600052600b602052604060002090565b80546122cd9060901c63ffffffff16615351565b615351565b7fffffffffffffffffffff00000000ffffffffffffffffffffffffffffffffffff75ffffffff00000000000000000000000000000000000083549260901b169116179055565b61232b6122b48351600052600b602052604060002090565b6101608201805151156123f4576123d4916123cb61239860e0860151936123876040880194855161237f6101008b01986123718a51604051948593602085019788615bf9565b03601f1981018352826103d7565b519020617521565b90612390615c28565b505190617564565b6001600160a01b036123c36123b76123b789516001600160a01b031690565b6001600160a01b031690565b911614615c61565b51905111615cac565b80519061012081015160a06101408301519201519233617d9d565b615cf7565b505060c08101518151331090151514801590612445575b61241490615a47565b612440608082015161012083015160405161243781612371602082019485615a92565b51902014615bae565b6123d4565b50606081015143101561240b565b346104f75760403660031901126104f757600435600052600360205260406000206024356000526020526020604060002054604051908152f35b346104f75760203660031901126104f757600435600052600b60205260c060406000205463ffffffff6040519167ffffffffffffffff8116835265ffffffffffff8160401c166020840152818160701c166040840152818160901c166060840152818160b01c16608084015260d01c1660a0820152f35b346104f75760003660031901126104f7576020600d54604051908152f35b346104f75760603660031901126104f75760043560ff81168091036104f757612549610ff4565b90604435906bffffffffffffffffffffffff821682036104f75760ff81116104f7576020926cffffffffffffffffffffffff006040519360081b16906bffffffffffffffffffffffff199060601b1617178152f35b346104f75760203660031901126104f75760043567ffffffffffffffff81116104f7576125d26125d79136906004016104fc565b61057a565b805460019091015460408051928352602083019190915290f35b346104f75760203660031901126104f757600435600052600e6020526020604060002054604051908152f35b346104f75760203660031901126104f75761069f60043561263d81611f18565b6126716001600160a01b037f0000000000000000000000000000000000000000000000000000000000000000163314613488565b615d42565b60809060031901126104f7576040519061268f8261036f565b6004358252602435602083015260443560408301526064356060830152565b346104f75760803660031901126104f7576126c836612676565b6000906126d960028354141561351e565b60028255805180612a025750335b606082016126f7815115156135b4565b8360ff61275360206040870196875180156000146129e357508181016127288151600052600e602052604060002090565b54808a52156129af575b505b01518060601c9160ff6affffffffffffffffffffff8360081c16921690565b919390929091168061287357505082516040516323b872dd60e01b8152336004820152306024820152604481019190915291602091508290606490829089906001600160a01b03165af1801561286e576127b491869161283f575b50615e01565b516127df6112b36127cf846000526003602052604060002090565b8551600052602052604060002090565b90557fab4d21442efe134c3d0c087e2b687e9593a1c09176f498d37873210cde052c4561282f610fac84519461281f856000526003602052604060002090565b9051600052602052604060002090565b0390a361283c6001600055565b80f35b612861915060203d602011612867575b61285981836103d7565b810190615dec565b386127ae565b503d61284f565b615de0565b91929091600181036128fe57506001600160a01b031691823b156128fa576040516323b872dd60e01b81523360048201523060248201526bffffffffffffffffffffffff919091166044820152918290606490829084905af1801561286e576128e1575b50600181526127b4565b806128ee6128f49261038b565b80610910565b386128d7565b5080fd5b60021461290e575b5050506127b4565b6001600160a01b0316835190803b156118ae576040517ff242432a0000000000000000000000000000000000000000000000000000000081523360048201523060248201526bffffffffffffffffffffffff949094166044850152606484019190915260a06084840152600060a4840152829060c490829084905af1801561286e5761299c575b8481612906565b806128ee6129a99261038b565b38612995565b6129b98151615d93565b6129dc6129c7600d54613685565b91828b5251600052600e602052604060002090565b5538612732565b6129ef6129f991612def565b90549060031b1c90565b82820152612734565b6126e7565b346104f75760203660031901126104f757612a20610fde565b612abb612ab16001600160a01b03612a5b817f0000000000000000000000000000000000000000000000000000000000000000163314613488565b831692612a698415156143dc565b612a98612a93612a8c836001600160a01b03166000526001602052604060002090565b5460ff1690565b615e4c565b6001600160a01b03166000526001602052604060002090565b805460ff19169055565b60005b6002549081811015612b6a5782612aed6123b7612ada84612e26565b90546001600160a01b039160031b1c1690565b14612afc576001915001612abe565b612b1c612b16612ada612b11612b3b95613685565b612e26565b91612e26565b9091906001600160a01b038084549260031b9316831b921b1916179055565b612b43615e97565b7f67c5a35d33d48c47ef33c82c62eda6254aad034fab4c51abe26a6d06ad174a34600080a2005b5050612b43565b91909160c0818403126104f757612b86610436565b9281358452602082013560208501526040820135604085015260608201356060850152608082013567ffffffffffffffff908181116104f75782612bcb9185016104fc565b608086015260a08301359081116104f757612be692016104fc565b60a0830152565b346104f75760203660031901126104f75760043567ffffffffffffffff81116104f757612c1e903690600401612b71565b612c2d6002600054141561351e565b6002600055612c3d815133615638565b90612c556122b433600052600b602052604060002090565b612c6d6122b48251600052600b602052604060002090565b612c768261057a565b54612c88602083019182511015616082565b8051916040936001612da28680850195612d06612ce7612cd389519a60608a019b612cbf8d51975197889260208401948d866160cd565b039561237f601f19978881018352826103d7565b612cdb615c28565b50608089015190617564565b6001600160a01b036123c36123b76123b78b516001600160a01b031690565b612d1b84612d138761057a565b0154156160ed565b5190612d99875191875133109261077e8c612d35436136bc565b9c5160a08c019d8e518351612d5e81612d5260208201809561053d565b038981018352826103d7565b5190209251978895602087019a8b9492909160a196949286526020860152151560f81b60408501526041840152606183015260818201520190565b5190209261057a565b015551905191517fa0f8bb3fdedd90066dd6f9a942e9f269c1c16e04950ff90c158175b032e35b0f845180612dd8339482611ae1565b0390a4612de56001600055565b5160018152602090f35b600d5481101561185457600d6000527fd7b6990105719101dabeb77144f2a3385c8033acd3af97e9423a695e81ad1eb50190600090565b6002548110156118545760026000527f405787fa12a823e0f2b7631cc41b3ba8828b3321ca811111fa75cd3aa3bb5ace0190600090565b346104f75760203660031901126104f7576004356002548110156104f7576001600160a01b0360209160026000527f405787fa12a823e0f2b7631cc41b3ba8828b3321ca811111fa75cd3aa3bb5ace015416604051908152f35b346104f75760203660031901126104f757600435600d548110156104f757602090600d6000527fd7b6990105719101dabeb77144f2a3385c8033acd3af97e9423a695e81ad1eb50154604051908152f35b346104f75760003660031901126104f75760206040516001600160a01b037f0000000000000000000000000000000000000000000000000000000000000000168152f35b9181601f840112156104f75782359167ffffffffffffffff83116104f757602083818601950101116104f757565b346104f75760803660031901126104f75767ffffffffffffffff6004358181116104f757612fac903690600401612f4c565b612fb4610ff4565b926044359081116104f757612fcd903690600401612f4c565b909260643593612fe260ff600a5416156134d3565b600091612ff360028454141561351e565b600283556001600160a01b0380971694858452600160205260409560ff8786205416156131dc578661307191898251613038816123716020820194898b304689616138565b51902090825180809581947f8aad06280000000000000000000000000000000000000000000000000000000083528c8b600485016161ad565b03915afa98891561286e576108fe998992898892613168575b50509361312e937fbd6e57133956b4a3944b483a9e595b4aab16071cf15a39384fdb1b7015865aab969361311d613126946130c761313c996161dc565b6130d28b1515616227565b8a166131046130fd6130f7836001600160a01b0316600052600f602052604060002090565b546136ca565b8414616272565b6001600160a01b0316600052600f602052604060002090565b558101906162bd565b9536916104c0565b602081519101209383617122565b8451958652801515602087015294604090a36131586001600055565b5190151581529081906020820190565b6130c7985061313c9692509361311d613126946131c161312e9894887fbd6e57133956b4a3944b483a9e595b4aab16071cf15a39384fdb1b7015865aab9c99903d106131d5575b6131b981836103d7565b810190616191565b9b909b95995050945050939650938961308a565b503d6131af565b6064875162461bcd60e51b815260206004820152601560248201527f50726f7669646572206e6f7420617070726f76656400000000000000000000006044820152fd5b346104f75760403660031901126104f757602061062e6024356004356166cd565b91909160a0818403126104f757613255610456565b813581529267ffffffffffffffff60208301358181116104f7578261327b918501612092565b602086015260408301358181116104f757826132989185016104fc565b604086015260608301358181116104f757826132b59185016104fc565b606086015260808301359081116104f7576132d092016104fc565b6080830152565b346104f7576020806003193601126104f75760043567ffffffffffffffff81116104f75761330c61344a913690600401613240565b61331b6002600054141561351e565b60026000556134436123ef613331835133615638565b9461333d6108ba616374565b808401906134146133ed6133e28985519461337f60405196876133638482019283615a92565b0397613377601f19998a81018352826103d7565b519020616dd3565b61237f60408b01966133978851848151910120616dd3565b6133a08461057a565b549261077e8a516040516133c7816133bb8682019485615a92565b038681018352826103d7565b5190208a5183815191012090604051968794850198896163ad565b608088015190617564565b6001600160a01b0361340c6123b76123b78a516001600160a01b031690565b911614615306565b6134226001612d138961057a565b6000600161342f8961057a565b015584519151606086015191519233617d9d565b519161057a565b5460405191337f583c3ed43fdc6e78b4538d0cb1f2f3d144e7dd1d77751180c1f59f6acb97616b600080a461347f6001600055565b60018152602090f35b1561348f57565b606460405162461bcd60e51b815260206004820152601660248201527f4465706f7369746f72793a2061646d696e206f6e6c79000000000000000000006044820152fd5b156134da57565b606460405162461bcd60e51b815260206004820152601260248201527f4465706f7369746f72793a2070617573656400000000000000000000000000006044820152fd5b1561352557565b606460405162461bcd60e51b815260206004820152601f60248201527f5265656e7472616e637947756172643a207265656e7472616e742063616c6c006044820152fd5b1561357057565b606460405162461bcd60e51b815260206004820152602060248201527f43616e6e6f742070726566756e64206163636f756e7420776974682073656c666044820152fd5b156135bb57565b606460405162461bcd60e51b815260206004820152600b60248201527f416d6f756e74207a65726f0000000000000000000000000000000000000000006044820152fd5b1561360657565b608460405162461bcd60e51b8152602060048201526024808201527f496e73756666696369656e7420726573657276657320666f722070726566756e60448201527f64696e67000000000000000000000000000000000000000000000000000000006064820152fd5b634e487b7160e01b600052601160045260246000fd5b60001981019190821161369457565b61366f565b9190820391821161369457565b9068056bc75e2d63100000820180921161369457565b906014820180921161369457565b906001820180921161369457565b9190820180921161369457565b604051906136f2826103bb565b60008252565b604051906137058261039f565b601282527f4163636f756e742070726566756e6465643a00000000000000000000000000006020830152565b6040519061373e8261039f565b601482527f66756e646564206163636f756e7420776974683a0000000000000000000000006020830152565b604051906137778261039f565b600782527f616d6f756e743a000000000000000000000000000000000000000000000000006020830152565b60001981146136945760010190565b604051906137bf82610332565b602782527f6f6d706c657465000000000000000000000000000000000000000000000000006040837f646562756742756c6b46756e64456e7469746965733a2066756e64696e67206360208201520152565b9060405161381e8161039f565b602060018294805484520154910152565b90815461383b816113fe565b9261384960405194856103d7565b818452600090815260208082208186015b848410613868575050505050565b60028360019261387785613811565b81520192019301929061385a565b604051906138928261039f565b601a82527f3d3d3d2070726f63657373426174636820454e545259203d3d3d0000000000006020830152565b604051906138cb8261039f565b601f82527f70726f6365737342617463682063616c6c6564207769746820656e74697479006020830152565b604051906139048261039f565b601d82527f62617463682e72657365727665546f526573657276652e6c656e6774680000006020830152565b903590601e19813603018212156104f7570180359067ffffffffffffffff82116104f7576020019160608202360383136104f757565b604051906139738261039f565b600b82527f6d73672e73656e6465723a0000000000000000000000000000000000000000006020830152565b604051906139ac8261039f565b601782527f4669727374207472616e736665722064657461696c733a0000000000000000006020830152565b604051906139e58261039f565b600c82527f2020746f20656e746974793a00000000000000000000000000000000000000006020830152565b90156118545790565b60405190613a278261039f565b600a82527f2020746f6b656e49643a000000000000000000000000000000000000000000006020830152565b60405190613a608261039f565b600982527f2020616d6f756e743a00000000000000000000000000000000000000000000006020830152565b60405190613a998261039f565b601782527f53656e6465722063757272656e742062616c616e63653a0000000000000000006020830152565b60405190613ad28261039f565b601d82527f3d3d3d2043414c4c494e47205f70726f636573734261746368203d3d3d0000006020830152565b81601f820112156104f7578035906020613b17836113fe565b936040613b2760405196876103d7565b84865282860191836060809702860101948186116104f7578401925b858410613b54575050505050505090565b86848303126104f7578487918451613b6b81610332565b8635815282870135838201528587013586820152815201930192613b43565b9080601f830112156104f7578135916020613ba4846113fe565b93604093613bb560405196876103d7565b818652828087019260071b850101938185116104f7578301915b848310613bdf5750505050505090565b6080838303126104f757836080918751613bf88161036f565b853581528286013583820152888601358982015260608087013590820152815201920191613bcf565b81601f820112156104f757803591602090613c3b846113fe565b93604093613c4b855196876103d7565b818652838087019260051b820101928084116104f757848201925b848410613c77575050505050505090565b67ffffffffffffffff84358181116104f75784019060609182601f1982870301126104f757895192613ca884610332565b8982013584528a8201358a8501528101359182116104f7570183603f820112156104f7578781013590613cda826113fe565b91613ce78b5193846103d7565b8083528a8a84019160061b830101918683116104f757908b8b959396949201905b868210613d235750508394508a820152815201930192613c66565b909193959294508b828803126104f7578a8c918251613d418161039f565b84358152828501358382015281520191018a9492959391613d08565b81601f820112156104f757803591602091613d77846113fe565b93604092613d8860405196876103d7565b818652848087019260051b840101938185116104f757858401925b858410613db4575050505050505090565b67ffffffffffffffff84358181116104f75786019160a080601f1985880301126104f757613de0610456565b908a8501358252858501358b830152606090818601358581116104f757888d613e0b92890101611934565b87840152608091828701358681116104f757898e613e2b928a0101611416565b908401528501359384116104f757613e4a878c809796819701016104fc565b90820152815201930192613da3565b81601f820112156104f757803591602091613e73846113fe565b93604092613e8460405196876103d7565b818652848087019260051b840101938185116104f757858401925b858410613eb0575050505050505090565b67ffffffffffffffff84358181116104f757860191608080601f1985880301126104f757845190613ee08261036f565b8a8501358252858501358481116104f757878c613eff92880101613b8a565b8b830152606090818601358581116104f757888d613f1f92890101611416565b878401528501359384116104f757613f3e878c809796819701016104fc565b90820152815201930192613e9f565b81601f820112156104f757803591602091613f67846113fe565b93613f7560405195866103d7565b808552838086019160051b830101928084116104f757848301915b848310613fa05750505050505090565b823567ffffffffffffffff81116104f7578691613fc284848094890101613240565b815201920191613f90565b81601f820112156104f757803591602091613fe7846113fe565b93613ff560405195866103d7565b808552838086019160051b830101928084116104f757848301915b8483106140205750505050505090565b823567ffffffffffffffff81116104f757869161404284848094890101612b71565b815201920191614010565b81601f820112156104f757803591602091614067846113fe565b9361407560405195866103d7565b808552838086019160051b830101928084116104f757848301915b8483106140a05750505050505090565b823567ffffffffffffffff81116104f75786916140c28484809489010161215c565b815201920191614090565b9080601f830112156104f75781359160206140e7846113fe565b936040936140f860405196876103d7565b818652828087019260061b850101938185116104f7578301915b8483106141225750505050505090565b85838303126104f75783869182516141398161039f565b853581528286013583820152815201920191614112565b919091610160818403126104f757614166610463565b9267ffffffffffffffff82358181116104f75782614185918501613afe565b855260208301358181116104f7578261419f918501613b8a565b602086015260408301358181116104f757826141bc918501613afe565b604086015260608301358181116104f757826141d9918501613c21565b606086015260808301358181116104f757826141f6918501613d5d565b608086015260a08301358181116104f75782614213918501613e59565b60a086015260c08301358181116104f75782614230918501613f4d565b60c086015260e08301358181116104f7578261424d918501613fcd565b60e0860152610100808401358281116104f7578361426c91860161404d565b9086015261012091828401359182116104f75761428a9184016140cd565b908401526101408091013590830152565b156142a257565b606460405162461bcd60e51b815260206004820152601760248201527f43616e6e6f74207472616e7366657220746f2073656c660000000000000000006044820152fd5b156142ed57565b606460405162461bcd60e51b815260206004820152601560248201527f496e73756666696369656e7420726573657276657300000000000000000000006044820152fd5b6040519061433e8261039f565b601b82527f3d3d3d2044495245435420523252205452414e53464552203d3d3d00000000006020830152565b604051906143778261039f565b600282527f746f0000000000000000000000000000000000000000000000000000000000006020830152565b604051906143b08261039f565b601d82527f3d3d3d20523252205452414e5346455220434f4d504c455445203d3d3d0000006020830152565b156143e357565b606460405162461bcd60e51b815260206004820152601060248201527f496e76616c69642070726f7669646572000000000000000000000000000000006044820152fd5b6002546801000000000000000081101561034e576001810180600255811015611854576001600160a01b039060026000527f405787fa12a823e0f2b7631cc41b3ba8828b3321ca811111fa75cd3aa3bb5ace01911673ffffffffffffffffffffffffffffffffffffffff19825416179055565b604051906144a78261039f565b601a82527f646562756746756e6452657365727665733a20746f6b656e49640000000000006020830152565b604051906144e08261039f565b601982527f646562756746756e6452657365727665733a20616d6f756e74000000000000006020830152565b604051906145198261039f565b601e82527f646562756746756e6452657365727665733a206e65772062616c616e636500006020830152565b9061454f826113fe565b604061455e60405192836103d7565b838252819361456f601f19916113fe565b019160009160005b848110614585575050505050565b60209082516145938161039f565b85815282606081830152828601015201614577565b80518210156118545760209160051b010190565b906145c6826113fe565b60406145d560405192836103d7565b83825281936145e6601f19916113fe565b019160009060005b8481106145fc575050505050565b602090845161460a81610332565b8481528285818301526060878301528285010152016145ee565b1561462b57565b606460405162461bcd60e51b815260206004820152601960248201527f4465706f7369746f72793a20696e76616c6964206c696d6974000000000000006044820152fd5b6040519061467c82610332565b60006040838281528260208201520152565b60405161469a816103bb565b6000815290565b906146ab826113fe565b6146b860405191826103d7565b82815280926146c9601f19916113fe565b019060005b8281106146da57505050565b6020906146e561466f565b828285010152016146ce565b9291909382151580614845575b61470790614624565b61471f856107b1866000526006602052604060002090565b9161473b8354966107b183976000526007602052604060002090565b5480911061483d575b508484101561482a576147588394936146a1565b946000935b81811080614821575b156147d6576147758185611838565b508054908161478f575b505061478a906137a3565b61475d565b60010154919561478a926147ce926147a5610408565b91825260208201528760408201526147bd828b6145a8565b526147c8818a6145a8565b506137a3565b94903861477f565b94509150916147e4816146a1565b9460005b8281106147f757505050821090565b80614804600192846145a8565b5161480f828a6145a8565b5261481a81896145a8565b50016147e8565b50858510614766565b9250505061483661468e565b9190600090565b935038614744565b506101008311156146fe565b919390600094600090614872836107b1876000526006602052604060002090565b9081549384156149f457906148b1826107b161489f6148b7956107b18c6000526007602052604060002090565b54996000526003602052604060002090565b546136d8565b92829680156000146149255750600019969597935b818910806149eb575b806149e2575b15614970576148ea8984611838565b5090815491821561495a5782821061492e5750614917826149116149239461491d94613699565b976136d8565b996137a3565b966137a3565b965b969597936148cc565b975060019499985061494f93508092506149499196956136d8565b94613699565b930154919493929190565b50949861496a91509796976137a3565b95614925565b94929650945091955b848110806149cf575b1561499557614990906137a3565b614979565b909192939481949582106000146149c557506149bf816149b760019386611838565b505494611838565b50015490565b9250509150808092565b506149da8184611838565b505415614982565b508787106148db565b508015156148d5565b929650939650506148b191506107b1614a17946000526003602052604060002090565b9181929180918190565b92614ab192919594614a3860ff600a5416156134d3565b614a476002600054141561351e565b6002600055614a5887861415615104565b614a6387861061514f565b604051836020820182614a828b8a849091604092825260208201520190565b0392614a96601f19948581018352826103d7565b51902092614abd604051809881966020830160209181520190565b038481018652856103d7565b3033141592836150e3575b3389036150dc578a935b806150d2575b615082575b5050505050614b5b614af985600052600b602052604060002090565b8054614b0d9060d01c63ffffffff16615351565b7fffff00000000ffffffffffffffffffffffffffffffffffffffffffffffffffff7dffffffff000000000000000000000000000000000000000000000000000083549260d01b169116179055565b614b72614af987600052600b602052604060002090565b60005b8251811015614d7f5780614b8b600192856145a8565b51614ce5836080614c9484518b8160208801614bc4614bbe614bb3835160408d015190615366565b60608c015190615366565b15615382565b80516000811215614d465750816107b1614c11614c2293614c0b614bf9614c2a976107b18a6000526003602052604060002090565b54614c0483516153cd565b11156153fa565b516153cd565b946000526003602052604060002090565b918254613699565b90555b8d81604088015160008112600014614d0f5750614c5b906107b1614c70936000526003602052604060002090565b54614c6960408901516153cd565b111561546b565b8d614c88614c22836107b1614c1160408c01516153cd565b90555b6107b18b610554565b93606081015160008112600014614ced5750614cd68554614cc3614cbb60608501516153cd565b8210156154dc565b614cd060608401516153cd565b90613699565b85555b01519201918254615366565b905501614b75565b60008113614cfc575b50614cd9565b614d079086546136d8565b855538614cf6565b9160008313614d21575b505050614c8b565b614d3c916107b16112b3926000526003602052604060002090565b905538818f614d19565b92905060008313614d5a575b505050614c2d565b614d75916107b16112b3926000526003602052604060002090565b905538818d614d52565b5094919360005b8651811015614f5d57614d9981886145a8565b51614db2816107b1886000526007602052604060002090565b54614dcb826107b1896000526006602052604060002090565b8054915b828110614ec957505050614de3818761781a565b614dfb816107b1876000526007602052604060002090565b54614e14826107b1886000526006602052604060002090565b8054915b828110614e355750505090614e2f6001928661781a565b01614d86565b80896001614e44819486611838565b5001541480614eb5575b614e59575b01614e18565b8489614e668383836176ae565b91908481614e79575b5050505050614e53565b6040805192835260208301919091527f0971ac81b80f99fe0089c3fbe4af4fa1148f2ce78bc6345e76b05be73500de1f91a484388a8184614e6f565b50614ec08184611838565b50541515614e4e565b80886001614ed8819486611838565b5001541480614f49575b614eed575b01614dcf565b848a614efa8383836176ae565b91908481614f0d575b5050505050614ee7565b6040805192835260208301919091527f0971ac81b80f99fe0089c3fbe4af4fa1148f2ce78bc6345e76b05be73500de1f91a484388b8184614f03565b50614f548184611838565b50541515614ee2565b5093909450614f6c8551615527565b9460005b81518110156150165780614f86600192846145a8565b5151614f95816107b187610554565b614fad826107b18a6000526003602052604060002090565b5490614fc7836107b18a6000526003602052604060002090565b5485825492015492614fd7610484565b948b86528a602087015260408601526060850152608084015260a083015260c0820152615004828a6145a8565b5261500f81896145a8565b5001614f70565b505091505061502d91928051615048575b5061057a565b61503781546137a3565b90556150436001600055565b600190565b6150797f282c9857cebaf74e49847aa2b109427bfba5567f2e9e4e7aa5d47ff6125ec84491604051918291826155bb565b0390a138615027565b846150b59361237f6150b09361509a6150c89961057a565b5461077e8b604051958693602085019889615265565b617564565b6001600160a01b03908116911614615306565b8238838180614add565b5081511515614ad8565b8893614ad2565b88331480156150fb575b6150f6906151c0565b614ac8565b50338b146150ed565b1561510b57565b606460405162461bcd60e51b815260206004820152601760248201527f43616e6e6f7420736574746c6520776974682073656c660000000000000000006044820152fd5b1561515657565b608460405162461bcd60e51b815260206004820152602860248201527f456e746974696573206d75737420626520696e206f7264657220286c6566742060448201527f3c207269676874290000000000000000000000000000000000000000000000006064820152fd5b156151c757565b608460405162461bcd60e51b815260206004820152602160248201527f4f6e6c7920696e766f6c76656420656e7469746965732063616e20736574746c60448201527f65000000000000000000000000000000000000000000000000000000000000006064820152fd5b90815180825260208080930193019160005b828110615251575050505090565b835185529381019392810192600101615243565b909493919460a0906000835261528760209160a08386015260a0850190611abc565b90604097604085015260609784830360608601528180885194858152019701936000915b8483106152cb575050505050506105179394506080818403910152615231565b855180518a52808501518a860152808201518a830152808c01518c8b0152608090810151908a015297810197948301946001909201916152ab565b1561530d57565b606460405162461bcd60e51b815260206004820152601e60248201527f496e76616c696420636f756e7465727061727479207369676e617475726500006044820152fd5b63ffffffff8091169081146136945760010190565b9190916000838201938412911290801582169115161761369457565b1561538957565b606460405162461bcd60e51b815260206004820152601760248201527f536574746c656d656e74206d7573742062616c616e63650000000000000000006044820152fd5b7f800000000000000000000000000000000000000000000000000000000000000081146136945760000390565b1561540157565b608460405162461bcd60e51b815260206004820152602160248201527f4c65667420656e7469747920696e73756666696369656e74207265736572766560448201527f73000000000000000000000000000000000000000000000000000000000000006064820152fd5b1561547257565b608460405162461bcd60e51b815260206004820152602260248201527f526967687420656e7469747920696e73756666696369656e742072657365727660448201527f65730000000000000000000000000000000000000000000000000000000000006064820152fd5b156154e357565b606460405162461bcd60e51b815260206004820152601760248201527f496e73756666696369656e7420636f6c6c61746572616c0000000000000000006044820152fd5b90615531826113fe565b604061554060405192836103d7565b8382528193615551601f19916113fe565b019060005b8281106155635750505050565b81519060e082019180831067ffffffffffffffff84111761034e57602092845260008152826000818301526000858301526000606083015260006080830152600060a0830152600060c0830152828701015201615556565b60208082019080835283518092528060408094019401926000905b8382106155e557505050505090565b84518051875280840151878501528082015187830152606080820151908801526080808201519088015260a0808201519088015260c0908101519087015260e090950194938201936001909101906155d6565b8181101561565f576040805160208101929092528101919091526105178160608101612371565b6040805160208101939093528201526105178160608101612371565b634e487b7160e01b600052600060045260246000fd5b90601f811161569f57505050565b6000916000526020600020906020601f850160051c830194106156dd575b601f0160051c01915b8281106156d257505050565b8181556001016156c6565b90925082906156bd565b919091825167ffffffffffffffff811161034e5761570f816157098454611da5565b84615691565b602080601f831160011461575257508190615743939495600092615747575b50508160011b916000199060031b1c19161790565b9055565b01519050388061572e565b90601f1983169561576885600052602060002090565b926000905b8882106157a55750508360019596971061578c575b505050811b019055565b015160001960f88460031b161c19169055388080615782565b8060018596829496860151815501950193019061576d565b90600c54916801000000000000000083101561034e576157e560019360018101600c55611d6a565b6158b157815181556040600260209260208501516001820155019201519384519167ffffffffffffffff831161034e57615829836158238654611da5565b86615691565b602091601f841160011461585d57505081906157439394956000926157475750508160011b916000199060031b1c19161790565b95601f9291921984169661587686600052602060002090565b936000915b89831061589a575050508360019596971061578c57505050811b019055565b83850151865594850194938101939181019161587b565b61567b565b90816158e9576158de91506158c9610408565b903382526000602083015260408201526157bd565b610517600c54613685565b6158f282611d6a565b505433036159105761051790600261590984611d6a565b50016156e7565b606460405162461bcd60e51b815260206004820152601760248201527f53656e646572206973206e6f7420687562206f776e65720000000000000000006044820152fd5b604051906159618261039f565b60006020838281520152565b90615977826113fe565b60409061598760405191826103d7565b8381528093615998601f19916113fe565b019160005b8381106159aa5750505050565b60209082516159b88161039f565b6159c0615954565b81528260608183015282860101520161599d565b906159de826113fe565b6159eb60405191826103d7565b82815280926159fc601f19916113fe565b019060005b828110615a0d57505050565b602090615a18615954565b82828501015201615a01565b6123ef615a3a9161228d6002600054141561351e565b6001906104066001600055565b15615a4e57565b606460405162461bcd60e51b815260206004820152601460248201527f4469737075746520706572696f6420656e6465640000000000000000000000006044820152fd5b90602090818352805191615ab26060936060838701526080860190615231565b9181810151601f1990615ad16040958692848a830301848b0152615231565b92015195606082828503019101528551938483528383019184808760051b8601019801966000916000955b888710615b10575050505050505050505090565b9091929394959697989982828203018752888b516001600160a01b03815116835287615b4783830151888587015288860190611abc565b910151928881830391015281808451928381520193019087905b87818310615b855750505050806001929c0197019701959897969493929190615afc565b83958b6001949693955180518352848101518584015201518c82015201940192018b9291615b61565b15615bb557565b606460405162461bcd60e51b815260206004820152601160248201527f496e76616c69642070726f6f66626f64790000000000000000000000000000006044820152fd5b9092615c196080939695946003845260a0602085015260a0840190611abc565b95604083015260608201520152565b60405190615c358261039f565b600b82527f656e636f6465645f6d73670000000000000000000000000000000000000000006020830152565b15615c6857565b606460405162461bcd60e51b815260206004820152600e60248201527f496e76616c6964207369676e65720000000000000000000000000000000000006044820152fd5b15615cb357565b606460405162461bcd60e51b815260206004820152601960248201527f4e6577206e6f6e6365206d7573742062652067726561746572000000000000006044820152fd5b15615cfe57565b606460405162461bcd60e51b815260206004820152601b60248201527f4465706f7369746f72793a2066696e616c697a65206661696c656400000000006044820152fd5b600a54901515908160ff8216151514615d8f5760ff191660ff821617600a556040519081527fb5838f871ddee4623a406029b1a0b6013e0ec30f2dc114307f21459a800a829690602090a1565b5050565b600d546801000000000000000081101561034e576001810180600d5581101561185457600d6000527fd7b6990105719101dabeb77144f2a3385c8033acd3af97e9423a695e81ad1eb50155565b6040513d6000823e3d90fd5b908160209103126104f7575161051781611f18565b15615e0857565b606460405162461bcd60e51b815260206004820152601960248201527f4552433230207472616e7366657246726f6d206661696c6564000000000000006044820152fd5b15615e5357565b606460405162461bcd60e51b815260206004820152600c60248201527f4e6f7420617070726f76656400000000000000000000000000000000000000006044820152fd5b6002548015615ef65760001981019080821015611854577f405787fa12a823e0f2b7631cc41b3ba8828b3321ca811111fa75cd3aa3bb5acd9060026000520173ffffffffffffffffffffffffffffffffffffffff198154169055600255565b634e487b7160e01b600052603160045260246000fd5b615f1b6002600054141561351e565b6002600055615f2b815133615638565b90615f436122b433600052600b602052604060002090565b615f5b6122b48251600052600b602052604060002090565b615f648261057a565b5490615f77602082019283511015616082565b815192600161603b6040840194855190615fad612ce7612cd3606089019a8b5195612cbf60405197889260208401948d866160cd565b615fba84612d138761057a565b5190612d99875191875133109261077e615fd3436136bc565b9b519b60a08b019c8d51604051615ffe81615ff260208201809561053d565b038881018352826103d7565b51902091604051978895602087019a8b9492909160a196949286526020860152151560f81b60408501526041840152606183015260818201520190565b015551905191517fa0f8bb3fdedd90066dd6f9a942e9f269c1c16e04950ff90c158175b032e35b0f60405180616072339482611ae1565b0390a46001906104066001600055565b1561608957565b606460405162461bcd60e51b815260206004820152601360248201527f50726f6f66206e6f6e636520746f6f206f6c64000000000000000000000000006044820152fd5b9092615c196080939695946002845260a0602085015260a0840190611abc565b156160f457565b606460405162461bcd60e51b815260206004820152601b60248201527f4469737075746520616c726561647920696e2070726f677265737300000000006044820152fd5b9192849360749695927f990f4c22d4b046a9a7d673c4a252b906cadd4f3290465e297f998c28a449652b855260208501526bffffffffffffffffffffffff199060601b1660408401526054830137019060548201520190565b91908260409103126104f7576020825192015161051781611f18565b9392918060609160209360408852816040890152838801376000828288010152601f8019910116850101930152565b156161e357565b606460405162461bcd60e51b815260206004820152601960248201527f4465706f7369746f72793a20696e76616c69642068616e6b6f000000000000006044820152fd5b1561622e57565b606460405162461bcd60e51b815260206004820152601860248201527f4465706f7369746f72793a20656d70747920656e7469747900000000000000006044820152fd5b1561627957565b606460405162461bcd60e51b815260206004820152601760248201527f4465706f7369746f72793a207374616c65206e6f6e63650000000000000000006044820152fd5b906020828203126104f757813567ffffffffffffffff81116104f7576105179201614150565b6162f26002600054141561351e565b600260005561633f616305825133615638565b916163116108ba616374565b6134436123ef6020808401906134146133ed6133e28985519461337f60405196876133638482019283615a92565b5490337f583c3ed43fdc6e78b4538d0cb1f2f3d144e7dd1d77751180c1f59f6acb97616b600080a46001906104066001600055565b604051906163818261039f565b600e82527f52656365697665642070726f6f660000000000000000000000000000000000006020830152565b9092615c196080939695946001845260a0602085015260a0840190611abc565b906158b15760018160008093550155565b906163f7816107b1846000526006602052604060002090565b9081549283156166aa57616419826107b1836000526007602052604060002090565b5491848310156166a1575b61643c816107b1846000526003602052604060002090565b5495600095871561668157955b86851080616678575b8061666d575b156165e0576164678587611838565b5080549081156165cd57600181015490828b10156165c6578a905b8161649d575b50505050616495906137a3565b955b95616449565b9091929a826164d3916164c1896107b1889d999d6000526003602052604060002090565b6164cc8382546136d8565b9055613699565b9a6164df83888a61819d565b828103616561575061655692877f1ffe8e6348fe244a8988797c02b57999821149e7b25c9f93a85c77819efdde67616495969460008a9555616520866136ca565b6040805192835260006020840152820152606090a461653e86618234565b61655161654b828a611838565b906163cd565b6137a3565b945b90388080616488565b8694989b50908261659489947f1ffe8e6348fe244a8988797c02b57999821149e7b25c9f93a85c77819efdde6794613699565b8092556165b88a604051938493846040919493926060820195825260208201520152565b0390a4616495600097616558565b8290616482565b505095936165da906137a3565b93616497565b509591935093506165ff846107b1856000526003602052604060002090565b55616618836107b1846000526007602052604060002090565b55616623828261781a565b61663b826107b1836000526006602052604060002090565b9081541561666557610517926107b161665e926000526007602052604060002090565b549061814a565b505050600090565b506000198110616458565b50871515616452565b5095508094508193506107b1616618926000526007602052604060002090565b60009250616424565b600093506166c792506107b1906000526007602052604060002090565b55600090565b906166e6816107b1846000526006602052604060002090565b9081549283156166aa57616708826107b1836000526007602052604060002090565b54918483101561689b575b61672b816107b1846000526003602052604060002090565b5495600095871561668157955b86851080616892575b80616887575b156165e0576167568587611838565b50805490811561687457600181015490828b101561686d578a905b8161678c575b50505050616784906137a3565b955b95616738565b9091929a826167b0916164c1896107b1889d999d6000526003602052604060002090565b9a6167bc83888a61819d565b82810361680857506167fd92877f1ffe8e6348fe244a8988797c02b57999821149e7b25c9f93a85c77819efdde67616784969460008a9555616520866136ca565b945b90388080616777565b8694989b50908261683b89947f1ffe8e6348fe244a8988797c02b57999821149e7b25c9f93a85c77819efdde6794613699565b80925561685f8a604051938493846040919493926060820195825260208201520152565b0390a46167846000976167ff565b8290616771565b50509593616881906137a3565b93616786565b506000198110616747565b50871515616741565b60009250616713565b9091926168bf836107b1846000526006602052604060002090565b918254938415616af6576168e1816107b1846000526007602052604060002090565b549285841015616aed575b616904826107b1856000526003602052604060002090565b549680616ae857506000195b6000968815616ac757965b87861080616abe575b80616ab5575b15616a95576169398688611838565b508054908115616a8257600181015490828c1015616a7b578b905b8161696f575b50505050616967906137a3565b965b9661691b565b9091929b82616993916164c18a6107b1889e999e6000526003602052604060002090565b9b61699f83898b61819d565b828103616a165750616a0b92887f1ffe8e6348fe244a8988797c02b57999821149e7b25c9f93a85c77819efdde67616967969460008b95556169e0866136ca565b6040805192835260006020840152820152606090a46169fe87618234565b61655161654b828b611838565b955b9038808061695a565b8794999c509082616a498a947f1ffe8e6348fe244a8988797c02b57999821149e7b25c9f93a85c77819efdde6794613699565b809255616a6d8b604051938493846040919493926060820195825260208201520152565b0390a4616967600098616a0d565b8290616954565b50509694616a8f906137a3565b94616969565b50509591935093506165ff846107b1856000526003602052604060002090565b5081811061692a565b50881515616924565b505095508094508193506107b1616618926000526007602052604060002090565b616910565b600093506168ec565b919450600093506166c792506107b1906000526007602052604060002090565b15616b1d57565b606460405162461bcd60e51b815260206004820152601d60248201527f4465706f7369746f72793a206372656469746f722072657175697265640000006044820152fd5b15616b6857565b606460405162461bcd60e51b815260206004820152601560248201527f4465706f7369746f72793a207a65726f206465627400000000000000000000006044820152fd5b80546801000000000000000081101561034e57616bce91600182018155611838565b9190916158b1576020816001925184550151910155565b939293919091616bf6821515616b16565b616c01851515616b61565b616c33616c1c846107b1846000526006602052604060002090565b616c246103f9565b90878252846020830152616bac565b7fae767eeb0c57abd46e2e0b422895ba3b89372fbd0510a58f00d996faf66f027d616c75616c6f856107b1856000526006602052604060002090565b54613685565b80968115616d67575b616c92846000526008602052604060002090565b616c9c81546137a3565b9055616cb284600052600b602052604060002090565b616cea616cca6122c8835463ffffffff9060701c1690565b825463ffffffff60701b191660709190911b63ffffffff60701b16178255565b65ffffffffffff9081616d07825465ffffffffffff9060401c1690565b1615616d2d575b5050616d1b818786618328565b604080519182526020820192909252a4565b616d609142166dffffffffffff000000000000000082549160401b16906dffffffffffff00000000000000001916179055565b3880616d0e565b6000616d81876107b1876000526007602052604060002090565b55616c7e565b612371616dce610406926040519283917f41304fac000000000000000000000000000000000000000000000000000000006020840152602060248401526044830190611abc565b6183c2565b61040690604051907f27b7cf85000000000000000000000000000000000000000000000000000000006020830152602482015260248152616dce81610332565b61040690604051907ff82c50f1000000000000000000000000000000000000000000000000000000006020830152602482015260248152616dce81610332565b610406906001600160a01b03604051917f2c2ecbc200000000000000000000000000000000000000000000000000000000602084015216602482015260248152616dce81610332565b60405190616ea982610332565b60218252607960f81b6040837f5f70726f636573734261746368207374617274696e6720666f7220656e74697460208201520152565b60405190616eec82610332565b602c82527f736665727320636f756e743a00000000000000000000000000000000000000006040837f50726f63657373696e672072657365727665546f52657365727665207472616e60208201520152565b60405190616f4b8261039f565b600f82527f5472616e7366657220696e6465783a00000000000000000000000000000000006020830152565b60405190616f848261039f565b600c82527f46726f6d20656e746974793a00000000000000000000000000000000000000006020830152565b60405190616fbd8261039f565b600a82527f546f20656e746974793a000000000000000000000000000000000000000000006020830152565b60405190616ff68261039f565b600982527f546f6b656e2049443a00000000000000000000000000000000000000000000006020830152565b6040519061702f8261039f565b600782527f416d6f756e743a000000000000000000000000000000000000000000000000006020830152565b604051906170688261039f565b601d82527f50726f63657373696e6720736574746c656d656e747320636f756e743a0000006020830152565b604051906170a18261039f565b601382527f536574746c656d656e74206265747765656e3a000000000000000000000000006020830152565b604051906170da8261039f565b600482527f616e643a000000000000000000000000000000000000000000000000000000006020830152565b91909167ffffffffffffffff8080941691160191821161369457565b61712d6108ba616e9c565b61713681616dd3565b5a9260016171456108ba616edf565b6040948160408601617158815151616e13565b6000825b61746f575b50505061716f6108ba61705b565b6080936080860195617182875151616e13565b60005b87518051821015617202576171e86171a0836171ec936145a8565b516171ac6108ba617094565b6171b68151616dd3565b6171c16108ba6170cd565b60208101906171d08251616dd3565b805191518d820151908c606084015193015193614a21565b1590565b6171f9575b600101617185565b600094506171f1565b505093929650935093506101208201515161742a5760005b60a08301518051821015617255576171e86172388361723f936145a8565b5186618d34565b61724c575b60010161721a565b60009550617244565b505092909360005b60c08601518051821015617297576171e861727b83617281936145a8565b516162e3565b61728e575b60010161725d565b60009150617286565b5050919392909260005b60e082015180518210156172db576171e86172bf836172c5936145a8565b51615f0c565b6172d2575b6001016172a1565b600093506172ca565b5050919392909260005b6101008401518051821015617320576171e86173048361730a936145a8565b51615a24565b617317575b6001016172e5565b6000955061730f565b5050919392909260005b60608601518051821015617365576171e86173488361734f936145a8565b518661910a565b61735c575b60010161732a565b60009150617354565b5050926173b76173a66173996173cf936101406105179796990180518015159081617416575b506173eb575b505a90613699565b67ffffffffffffffff1690565b92600052600b602052604060002090565b916173ca835467ffffffffffffffff1690565b617106565b67ffffffffffffffff1667ffffffffffffffff19825416179055565b61740e60016174046173fd5a86613699565b9351611d6a565b50019182546136d8565b905538617391565b6174209150611d6a565b505487143861738b565b60405162461bcd60e51b815260206004820152601f60248201527f4465706f7369746f72793a20666c6173686c6f616e732064697361626c6564006044820152606490fd5b81515181101561751c5782906174866108ba616f3e565b61748f81616e13565b61749a6108ba616f77565b6174a388616dd3565b6174ae6108ba616fb0565b6174c36174bc8285516145a8565b5151616dd3565b6174ce6108ba616fe9565b6174e660206174de8386516145a8565b510151616e13565b6174f16108ba617022565b6175008a6174de8386516145a8565b61751561750e8285516145a8565b518961889c565b018261715c565b617161565b60405160208101917f19457468657265756d205369676e6564204d6573736167653a0a3332000000008352603c820152603c815261755e81610332565b51902090565b90604181510361766a576020810151916060604083015192015160001a907f7fffffffffffffffffffffffffffffff5d576e7357a4501ddfe92f46681b20a0831161761b576175ec600093602095601b85148015617611575b6175c69061926f565b604051948594859094939260ff6060936080840197845216602083015260408201520152565b838052039060015afa1561286e576000516105176001600160a01b03821615156192c5565b50601c85146175bd565b608460405162461bcd60e51b815260206004820152602260248201527f45434453413a20696e76616c6964207369676e6174757265202773272076616c604482015261756560f01b6064820152fd5b606460405162461bcd60e51b815260206004820152601f60248201527f45434453413a20696e76616c6964207369676e6174757265206c656e677468006044820152fd5b9161654b610406919492946040600086815260066020528181208882526020526176da83838320611838565b5097600189549901549789617700575b8252600660205282822090825260205220611838565b61770b8a838361819d565b808352600860205283832080548061779f575b505061773481600052600b602052604060002090565b63ffffffff80825460701c168061774e575b5050506176ea565b825463ffffffff60701b1916600019909101821660701b63ffffffff60701b161782558154908160701c1615617785575b80617746565b6dffffffffffff000000000000000019169055388061777f565b600019019055388061771e565b80549060009060008155826177c057505050565b6001907f7fffffffffffffffffffffffffffffffffffffffffffffffffffffffffffffff841684036136945760005260206000209260011b8301925b8381106178095750505050565b8083600292558383820155016177fc565b90617833816107b1846000526006602052604060002090565b91825480156178fc57617854836107b1846000526007602052604060002090565b5493818510156178f3575b935b818110806178e0575b1561787d57617878906137a3565b617861565b92935090919081106178c55750816107b18260006178af610406966107b16178c0976000526007602052604060002090565b556000526006602052604060002090565b6177ac565b916107b16178dd926000526007602052604060002090565b55565b506178eb8186611838565b50541561786a565b6000945061785f565b5060009250906107b16178dd926000526007602052604060002090565b1561792057565b606460405162461bcd60e51b815260206004820152601d60248201527f4465706f7369746f72793a20696e76616c69642070726f6f66626f64790000006044820152fd5b9061796e826113fe565b61797b60405191826103d7565b828152809261798c601f19916113fe565b0190602036910137565b60209081818403126104f757805167ffffffffffffffff918282116104f757019083601f830112156104f75781516179cd816113fe565b946040926179de60405197886103d7565b828752858088019360051b860101948286116104f757868101935b868510617a0b57505050505050505090565b84518381116104f75782019084603f830112156104f7578882015190617a30826104a4565b617a3c895191826103d7565b828152868984860101116104f757617a5d8b949385948b868501910161051a565b8152019401936179f9565b15617a6f57565b606460405162461bcd60e51b815260206004820152601d60248201527f4465706f7369746f72793a20696e76616c6964206c65667420617267730000006044820152fd5b15617aba57565b606460405162461bcd60e51b815260206004820152601e60248201527f4465706f7369746f72793a20696e76616c6964207269676874206172677300006044820152fd5b60209081818403126104f75780519067ffffffffffffffff82116104f757019180601f840112156104f7578251617b34816113fe565b93617b4260405195866103d7565b818552838086019260051b8201019283116104f7578301905b828210617b69575050505090565b81518152908301908301617b5b565b92617ba46105179593617b96617bb294608088526080880190615231565b908682036020880152611abc565b908482036040860152611abc565b916060818403910152611abc565b15617bc757565b608460405162461bcd60e51b815260206004820152602860248201527f4465706f7369746f72793a20696e76616c696420737562636f6e74726163742060448201527f726573706f6e73650000000000000000000000000000000000000000000000006064820152fd5b15617c3857565b608460405162461bcd60e51b815260206004820152602360248201527f4465706f7369746f72793a20696e76616c696420616c6c6f77616e636520696e60448201527f64657800000000000000000000000000000000000000000000000000000000006064820152fd5b8181039291600013801582851316918412161761369457565b15617cc257565b608460405162461bcd60e51b815260206004820152602560248201527f4465706f7369746f72793a20616c6c6f77616e6365206578636565646564202860448201527f6c656674290000000000000000000000000000000000000000000000000000006064820152fd5b15617d3357565b608460405162461bcd60e51b815260206004820152602660248201527f4465706f7369746f72793a20616c6c6f77616e6365206578636565646564202860448201527f72696768742900000000000000000000000000000000000000000000000000006064820152fd5b909391908481101561814357939291945b617db88486615638565b602083015151617dcb8451518214617919565b617dd481617964565b9460005b8281106180fc5750805190816180e5575050617df261468e565b975b805190816180c6575050617e0661468e565b9790929593979691965b617e21825160408b01515114617a68565b617e32815160408b01515114617ab3565b6000945b60408a015180518710156180335786617e4e916145a8565b5199617e676123b76123b78d516001600160a01b031690565b9860208c0151998886511160001461802657617e8389876145a8565b515b8986511160001461801857617e9a8a876145a8565b519b5b8b6040519d8e9384937f18c323f20000000000000000000000000000000000000000000000000000000085526004850193617ed794617b78565b03815a6000948591f1998a1561286e5760009a617ff5575b50617f008a9c9b9c518a5114617bc0565b604060009b019a5b8b518051821015617fa257908b617f538c617f4c617f42617f2b866001986145a8565b5194617f3a8651825111617c31565b8551906145a8565b51918451906145a8565b5190617ca2565b906000821315617f7357906020617f6d9201511015617d2c565b01617f08565b60008212617f83575b5050617f6d565b6040617f91617f9b936153cd565b9101511015617cbb565b3880617f7c565b5050929590939699509990939997969760005b8951811015617fdd5780617fcb6001928b6145a8565b51617fd6828d6145a8565b5201617fb5565b50929990989197965060019091019491939092617e36565b618011919a3d8091833e61800981836103d7565b810190617afe565b9838617eef565b6180206136e5565b9b617e9d565b61802e6136e5565b617e85565b5093969892959450505060005b85811061807657505050505050806000600161805e6180659461057a565b015561057a565b61806f81546137a3565b9055600190565b806180c06180b46107b1614c8b6180a08c61809760019860208b01516145a8565b51938491610554565b888b6180ac888d6145a8565b519285619310565b60016000918281550155565b01618040565b6020806180d7938301019101617996565b979092959397969196617e10565b6020806180f6938301019101617996565b97617df4565b80618132600161811e618114829560208c01516145a8565b516107b189610554565b015461812b838a516145a8565b5190615366565b61813c828a6145a8565b5201617dd8565b9294617dae565b919060009280549182811015618194575b82811061816757505050565b6181718183611838565b5054618180575b60010161815b565b9361818c6001916137a3565b949050618178565b50600093505050565b821561822f57600052600960205260406000209060005260205260406000208054918281101560001461821b57506000815560018101805467ffffffffffffffff1916905561040691505b60010180546fffffffffffffffff000000000000000019164260401b6fffffffffffffffff000000000000000016179055565b8203918211613694576104069181556181e8565b505050565b61826090806000526008602052604060002080548061831b575b5050600052600b602052604060002090565b63ffffffff80825460701c1681816182cc575b50507fffffffffffff00000000ffffffffffffffffffffffffffffffffffffffffffff79ffffffff000000000000000000000000000000000000000000006182c18454938460b01c16615351565b60b01b169116179055565b835463ffffffff60701b19166000199092011660701b63ffffffff60701b161782558154818160701c1615618302575b81618273565b6dffffffffffff000000000000000019168255386182fc565b600019019055388061824e565b821561822f576000526009602052604060002090600052602052604060002090815490810180911161369457815560010180546fffffffffffffffff000000000000000042604081901b919091166fffffffffffffffff000000000000000019831617835567ffffffffffffffff9081169116156183a4575050565b815467ffffffffffffffff191667ffffffffffffffff909116179055565b600080916020815191016a636f6e736f6c652e6c6f675afa50565b604051906183ea8261039f565b601e82527f3d3d3d2072657365727665546f5265736572766520454e545259203d3d3d00006020830152565b604051906184238261039f565b601d82527f72657365727665546f526573657276653a2066726f6d20656e746974790000006020830152565b6040519061845c8261039f565b601b82527f72657365727665546f526573657276653a20746f20656e7469747900000000006020830152565b604051906184958261039f565b601982527f72657365727665546f526573657276653a20746f6b656e4964000000000000006020830152565b604051906184ce8261039f565b601882527f72657365727665546f526573657276653a20616d6f756e7400000000000000006020830152565b604051906185078261039f565b602082527f72657365727665546f526573657276653a2073656e6465722062616c616e63656020830152565b604051906185408261039f565b601582527f3d3d3d2042414c414e434520434845434b203d3d3d00000000000000000000006020830152565b6040519061857982610332565b602f82527f756666696369656e742066756e647300000000000000000000000000000000006040837f4641494c3a2042616c616e636520636865636b206661696c6564202d20696e7360208201520152565b604051906185d88261039f565b600982527f52657175697265643a00000000000000000000000000000000000000000000006020830152565b604051906186118261039f565b600a82527f417661696c61626c653a000000000000000000000000000000000000000000006020830152565b6040519061864a8261039f565b601d82527f535543434553533a2042616c616e636520636865636b207061737365640000006020830152565b1561867d57565b608460405162461bcd60e51b815260206004820152602160248201527f496e73756666696369656e742062616c616e636520666f72207472616e73666560448201527f72000000000000000000000000000000000000000000000000000000000000006064820152fd5b604051906186f48261039f565b601a82527f3d3d3d20455845435554494e47205452414e53464552203d3d3d0000000000006020830152565b6040519061872d82610332565b602382527f65746500000000000000000000000000000000000000000000000000000000006040837f72657365727665546f526573657276653a207472616e7366657220636f6d706c60208201520152565b6040519061878c82610332565b602482527f616e6365000000000000000000000000000000000000000000000000000000006040837f72657365727665546f526573657276653a206e65772073656e6465722062616c60208201520152565b604051906187eb82610332565b602782527f62616c616e6365000000000000000000000000000000000000000000000000006040837f72657365727665546f526573657276653a206e657720726563697069656e742060208201520152565b6040519061884a82610332565b602182527f3d000000000000000000000000000000000000000000000000000000000000006040837f3d3d3d2072657365727665546f5265736572766520434f4d504c455445203d3d60208201520152565b6188a76108ba6183dd565b6188b26108ba618416565b6188bb81616dd3565b6188c66108ba61844f565b6188d08251616dd3565b6188db6108ba618488565b60208201906188ea8251616e13565b6188f56108ba6184c1565b7fae4812ebb7c47ac957e097b649541f0cd55d34b3576fb0db5739591d6f684367618af760408501946189288651616e13565b6189336108ba6184fa565b61895d610e0961894d866000526003602052604060002090565b8751600052602052604060002090565b6189688551856166cd565b506189746108ba618533565b61899b61898b856000526003602052604060002090565b8651600052602052604060002090565b54865111618b05576189ae6108ba61863d565b6189d26189c861894d866000526003602052604060002090565b5487511115618676565b6189dd6108ba6186e7565b8551618a09614c226189f9876000526003602052604060002090565b8851600052602052604060002090565b90558551618a286112b36189f984516000526003602052604060002090565b9055618a356108ba618720565b618a406108ba61877f565b618a5a610e0961894d866000526003602052604060002090565b618a656108ba6187de565b618a80610e0961894d83516000526003602052604060002090565b618aad855185610f5a618a9d826000526003602052604060002090565b8951600052602052604060002090565b0390a38151865191618adf610fac618acf846000526003602052604060002090565b8a51600052602052604060002090565b0390a351935194516040519081529081906020820190565b0390a46104066108ba61883d565b618b106108ba61856c565b618b1b6108ba6185cb565b618b258651616e13565b618b306108ba618604565b618b4a610e0961894d866000526003602052604060002090565b6189ae565b9094939160008252618b6d60209660a08885015260a0840190611abc565b604091604084015260609183820360608501528780875193848152019601926000915b838310618baf5750505050506105179394506080818403910152615231565b845180518952808b01518b8a015280820151898301528201518883015260809097019693890193600190920191618b90565b60405190618bee8261039f565b600b82527f456e636f646564206d73670000000000000000000000000000000000000000006020830152565b60405190618c278261039f565b600f82527f496e76616c6964207369676e65722000000000000000000000000000000000006020830152565b15618c5a57565b606460405162461bcd60e51b815260206004820152601960248201527f4e6f7420656e6f7567682073656e6465722072657365727665000000000000006044820152fd5b15618ca557565b606460405162461bcd60e51b815260206004820152601760248201527f4e6f7420656e6f756768207065657220726573657276650000000000000000006044820152fd5b15618cf057565b606460405162461bcd60e51b815260206004820152601560248201527f4e6f7420656e6f75676820636f6c6c61746572616c00000000000000000000006044820152fd5b618d3f825182615638565b90825180821060001461909157815b618d578461057a565b54602080870195618d8587519360409461237f60408c01519161237160405193849260208401968988618b4f565b94618d8e618be1565b50618da36123b78a516001600160a01b031690565b9560609660608b01906001600160a01b03618dc26123b7845186617564565b91160361906c575050618de2614af988600052600b602052604060002090565b618dfa614af98a51600052600b602052604060002090565b618e05885151615527565b9560005b8951805182101561905057908b8784618e24846001966145a8565b518d815180958c84019082618e48618e438451998801998a5190615366565b6153cd565b92618e75618e64836107b1896000526003602052604060002090565b54618e6e866153cd565b1115618c53565b8051600081121561902a5750816107b1618ec9614c2293618e9a618edb9688516166cd565b50614c0b618eb7856107b18a516000526003602052604060002090565b54618ec283516153cd565b1115618c9e565b94516000526003602052604060002090565b90555b600081121561900757816107b1614c11614c2293618eff618f2596886166cd565b50618e43618f1b856107b18a6000526003602052604060002090565b54618e6e836153cd565b90555b618f35846107b18b610554565b92805160008112600014618ff45750618f6390614cd0855491614c0b618f5b82516153cd565b841015618ce9565b83555b015190618f77858201928354615366565b809255618f92836107b18d6000526003602052604060002090565b5490618fac846107b18a6000526003602052604060002090565b54905491618fb8610484565b948d8652898c8701528c86015287850152608084015260a083015260c0820152618fe2828b6145a8565b52618fed818a6145a8565b5001618e09565b619000915084546136d8565b8355618f66565b91619023916107b16112b3926000526003602052604060002090565b9055618f28565b926112b39150916107b161904993516000526003602052604060002090565b9055618ede565b505050509550505050905061806592508051615048575061057a565b9750975050505050505061908292505190617564565b5061908b618c1a565b50600090565b8190618d4e565b604051906190a58261039f565b601082527f4e6f7420656e6f7567682066756e6473000000000000000000000000000000006020830152565b604051906190de8261039f565b601582527f4465706f736974656420746f206368616e6e656c2000000000000000000000006020830152565b909182519260209060208101519061912286866166cd565b5060009360005b6040808401908151805184101561925f5790876191558561914c818e97966145a8565b515194516145a8565b5101518061917b8d6107b161916a878d615638565b976000526003602052604060002090565b5410619247578361922193897ffb4e90f768448be74d7bcc3de131a349c0fc3ba3416e4d81df2cf01574ff072e8f958f956108378860016107b1996191de829f9e6107b16191cd866107b18194610554565b936000526003602052604060002090565b6191e9868254613699565b90556191f68582546136d8565b94858255898910619231575b5001549351938493846040919493926060820195825260208201520152565b5061922a6190d1565b5001619129565b61923f838301918254615366565b905538619202565b50505050509550505050905061925b619098565b5090565b5050505095505050505050600190565b1561927657565b608460405162461bcd60e51b815260206004820152602260248201527f45434453413a20696e76616c6964207369676e6174757265202776272076616c604482015261756560f01b6064820152fd5b156192cc57565b606460405162461bcd60e51b815260206004820152601860248201527f45434453413a20696e76616c6964207369676e617475726500000000000000006044820152fd5b815460009560019593949392918782126193a65780821115881461937857829394826193449481619367575b505050613699565b9081619356575b5050505b8281550155565b61935f926193f3565b38808061934b565b619370926193f3565b38828561933c565b80619391959261938b9261939657613699565b92619463565b61934f565b6193a18286866193f3565b613699565b906193b3909493946153cd565b9080821115881461937857829394826193d3948161936757505050613699565b90816193e2575b50505061934f565b6193eb926193f3565b3880806193da565b9091801561822f57600090828252600360205260408220848352602052604082208054918201809211613694577fab4d21442efe134c3d0c087e2b687e9593a1c09176f498d37873210cde052c4592602092604092558481526003835281812086825283522054604051908152a3565b909280156194ae576194a79082600052600360205260406000208460005260205260406000205490808210156000146195475780915b82806194d2575b5050613699565b92836194b4575b50505050565b6194c9936194c3918484616be5565b5061781a565b388080806194ae565b6194db91613699565b6194f3866107b1876000526003602052604060002090565b5584847fab4d21442efe134c3d0c087e2b687e9593a1c09176f498d37873210cde052c45619532610fac846107b1856000526003602052604060002090565b0390a36195408286886193f3565b38826194a0565b8161949956fea26469706673582212202d460a0c4d82e267b19b0b415bc85467a5761b5f3b542f1b46ffe227d86fd1de64736f6c63430008180033",
  "linkReferences": {},
  "deployedLinkReferences": {}
}