{
  "_format": "hh-sol-artifact-1",
  "contractName": "Depository",
  "sourceName": "contracts/Depository.sol",
  "abi": [
    {
      "inputs": [
        {
          "internalType": "address",
          "name": "_entityProvider",
          "type": "address"
        }
      ],
      "stateMutability": "nonpayable",
      "type": "constructor"
    },
    {
      "inputs": [],
      "name": "E0",
      "type": "error"
    },
    {
      "inputs": [],
      "name": "E1",
      "type": "error"
    },
    {
      "inputs": [],
      "name": "E10",
      "type": "error"
    },
    {
      "inputs": [],
      "name": "E2",
      "type": "error"
    },
    {
      "inputs": [],
      "name": "E3",
      "type": "error"
    },
    {
      "inputs": [],
      "name": "E4",
      "type": "error"
    },
    {
      "inputs": [],
      "name": "E5",
      "type": "error"
    },
    {
      "inputs": [],
      "name": "E6",
      "type": "error"
    },
    {
      "inputs": [],
      "name": "E7",
      "type": "error"
    },
    {
      "inputs": [],
      "name": "E8",
      "type": "error"
    },
    {
      "inputs": [],
      "name": "E9",
      "type": "error"
    },
    {
      "anonymous": false,
      "inputs": [
        {
          "components": [
            {
              "internalType": "bytes32",
              "name": "left",
              "type": "bytes32"
            },
            {
              "internalType": "bytes32",
              "name": "right",
              "type": "bytes32"
            },
            {
              "components": [
                {
                  "internalType": "uint256",
                  "name": "tokenId",
                  "type": "uint256"
                },
                {
                  "internalType": "uint256",
                  "name": "leftReserve",
                  "type": "uint256"
                },
                {
                  "internalType": "uint256",
                  "name": "rightReserve",
                  "type": "uint256"
                },
                {
                  "internalType": "uint256",
                  "name": "collateral",
                  "type": "uint256"
                },
                {
                  "internalType": "int256",
                  "name": "ondelta",
                  "type": "int256"
                }
              ],
              "internalType": "struct TokenSettlement[]",
              "name": "tokens",
              "type": "tuple[]"
            },
            {
              "internalType": "uint256",
              "name": "nonce",
              "type": "uint256"
            }
          ],
          "indexed": false,
          "internalType": "struct AccountSettlement[]",
          "name": "settled",
          "type": "tuple[]"
        }
      ],
      "name": "AccountSettled",
      "type": "event"
    },
    {
      "anonymous": false,
      "inputs": [
        {
          "indexed": true,
          "internalType": "bytes32",
          "name": "sender",
          "type": "bytes32"
        },
        {
          "indexed": true,
          "internalType": "bytes32",
          "name": "counterentity",
          "type": "bytes32"
        },
        {
          "indexed": true,
          "internalType": "uint256",
          "name": "nonce",
          "type": "uint256"
        }
      ],
      "name": "CooperativeClose",
      "type": "event"
    },
    {
      "anonymous": false,
      "inputs": [
        {
          "indexed": true,
          "internalType": "bytes32",
          "name": "debtor",
          "type": "bytes32"
        },
        {
          "indexed": true,
          "internalType": "bytes32",
          "name": "creditor",
          "type": "bytes32"
        },
        {
          "indexed": true,
          "internalType": "uint256",
          "name": "tokenId",
          "type": "uint256"
        },
        {
          "indexed": false,
          "internalType": "uint256",
          "name": "amount",
          "type": "uint256"
        },
        {
          "indexed": false,
          "internalType": "uint256",
          "name": "debtIndex",
          "type": "uint256"
        }
      ],
      "name": "DebtCreated",
      "type": "event"
    },
    {
      "anonymous": false,
      "inputs": [
        {
          "indexed": true,
          "internalType": "bytes32",
          "name": "debtor",
          "type": "bytes32"
        },
        {
          "indexed": true,
          "internalType": "bytes32",
          "name": "creditor",
          "type": "bytes32"
        },
        {
          "indexed": true,
          "internalType": "uint256",
          "name": "tokenId",
          "type": "uint256"
        },
        {
          "indexed": false,
          "internalType": "uint256",
          "name": "amountPaid",
          "type": "uint256"
        },
        {
          "indexed": false,
          "internalType": "uint256",
          "name": "remainingAmount",
          "type": "uint256"
        },
        {
          "indexed": false,
          "internalType": "uint256",
          "name": "newDebtIndex",
          "type": "uint256"
        }
      ],
      "name": "DebtEnforced",
      "type": "event"
    },
    {
      "anonymous": false,
      "inputs": [
        {
          "indexed": true,
          "internalType": "bytes32",
          "name": "debtor",
          "type": "bytes32"
        },
        {
          "indexed": true,
          "internalType": "bytes32",
          "name": "creditor",
          "type": "bytes32"
        },
        {
          "indexed": true,
          "internalType": "uint256",
          "name": "tokenId",
          "type": "uint256"
        },
        {
          "indexed": false,
          "internalType": "uint256",
          "name": "amountForgiven",
          "type": "uint256"
        },
        {
          "indexed": false,
          "internalType": "uint256",
          "name": "debtIndex",
          "type": "uint256"
        }
      ],
      "name": "DebtForgiven",
      "type": "event"
    },
    {
      "anonymous": false,
      "inputs": [
        {
          "indexed": true,
          "internalType": "bytes32",
          "name": "sender",
          "type": "bytes32"
        },
        {
          "indexed": true,
          "internalType": "bytes32",
          "name": "counterentity",
          "type": "bytes32"
        },
        {
          "indexed": true,
          "internalType": "uint256",
          "name": "nonce",
          "type": "uint256"
        },
        {
          "indexed": false,
          "internalType": "bytes32",
          "name": "initialProofbodyHash",
          "type": "bytes32"
        },
        {
          "indexed": false,
          "internalType": "bytes32",
          "name": "finalProofbodyHash",
          "type": "bytes32"
        }
      ],
      "name": "DisputeFinalized",
      "type": "event"
    },
    {
      "anonymous": false,
      "inputs": [
        {
          "indexed": true,
          "internalType": "bytes32",
          "name": "sender",
          "type": "bytes32"
        },
        {
          "indexed": true,
          "internalType": "bytes32",
          "name": "counterentity",
          "type": "bytes32"
        },
        {
          "indexed": true,
          "internalType": "uint256",
          "name": "nonce",
          "type": "uint256"
        },
        {
          "indexed": false,
          "internalType": "bytes32",
          "name": "proofbodyHash",
          "type": "bytes32"
        },
        {
          "indexed": false,
          "internalType": "bytes",
          "name": "starterInitialArguments",
          "type": "bytes"
        },
        {
          "indexed": false,
          "internalType": "bytes",
          "name": "starterIncrementedArguments",
          "type": "bytes"
        }
      ],
      "name": "DisputeStartedV2",
      "type": "event"
    },
    {
      "anonymous": false,
      "inputs": [
        {
          "indexed": true,
          "internalType": "bytes32",
          "name": "entityId",
          "type": "bytes32"
        },
        {
          "indexed": true,
          "internalType": "bytes32",
          "name": "hankoHash",
          "type": "bytes32"
        },
        {
          "indexed": false,
          "internalType": "uint256",
          "name": "nonce",
          "type": "uint256"
        },
        {
          "indexed": false,
          "internalType": "bool",
          "name": "success",
          "type": "bool"
        }
      ],
      "name": "HankoBatchProcessed",
      "type": "event"
    },
    {
      "anonymous": false,
      "inputs": [
        {
          "indexed": true,
          "internalType": "bytes32",
          "name": "entity",
          "type": "bytes32"
        },
        {
          "indexed": true,
          "internalType": "uint256",
          "name": "tokenId",
          "type": "uint256"
        },
        {
          "indexed": false,
          "internalType": "uint256",
          "name": "newBalance",
          "type": "uint256"
        }
      ],
      "name": "ReserveUpdated",
      "type": "event"
    },
    {
      "anonymous": false,
      "inputs": [
        {
          "indexed": true,
          "internalType": "bytes32",
          "name": "hashlock",
          "type": "bytes32"
        },
        {
          "indexed": true,
          "internalType": "bytes32",
          "name": "revealer",
          "type": "bytes32"
        },
        {
          "indexed": false,
          "internalType": "bytes32",
          "name": "secret",
          "type": "bytes32"
        }
      ],
      "name": "SecretRevealed",
      "type": "event"
    },
    {
      "anonymous": false,
      "inputs": [
        {
          "indexed": true,
          "internalType": "address",
          "name": "tower",
          "type": "address"
        },
        {
          "indexed": true,
          "internalType": "bytes32",
          "name": "entityId",
          "type": "bytes32"
        },
        {
          "indexed": true,
          "internalType": "bytes32",
          "name": "counterentity",
          "type": "bytes32"
        },
        {
          "indexed": false,
          "internalType": "uint256",
          "name": "finalNonce",
          "type": "uint256"
        },
        {
          "indexed": false,
          "internalType": "uint256",
          "name": "appointmentSequence",
          "type": "uint256"
        }
      ],
      "name": "WatchtowerCounterDisputeExecuted",
      "type": "event"
    },
    {
      "inputs": [],
      "name": "DOMAIN_SEPARATOR",
      "outputs": [
        {
          "internalType": "bytes32",
          "name": "",
          "type": "bytes32"
        }
      ],
      "stateMutability": "view",
      "type": "function"
    },
    {
      "inputs": [],
      "name": "WATCHTOWER_COUNTER_DISPUTE_DOMAIN_SEPARATOR",
      "outputs": [
        {
          "internalType": "bytes32",
          "name": "",
          "type": "bytes32"
        }
      ],
      "stateMutability": "view",
      "type": "function"
    },
    {
      "inputs": [
        {
          "internalType": "bytes",
          "name": "",
          "type": "bytes"
        }
      ],
      "name": "_accounts",
      "outputs": [
        {
          "internalType": "uint256",
          "name": "nonce",
          "type": "uint256"
        },
        {
          "internalType": "bytes32",
          "name": "disputeHash",
          "type": "bytes32"
        },
        {
          "internalType": "uint256",
          "name": "disputeTimeout",
          "type": "uint256"
        },
        {
          "internalType": "uint256",
          "name": "disputeStartTimestamp",
          "type": "uint256"
        }
      ],
      "stateMutability": "view",
      "type": "function"
    },
    {
      "inputs": [
        {
          "internalType": "bytes32",
          "name": "",
          "type": "bytes32"
        }
      ],
      "name": "_activeDebts",
      "outputs": [
        {
          "internalType": "uint256",
          "name": "",
          "type": "uint256"
        }
      ],
      "stateMutability": "view",
      "type": "function"
    },
    {
      "inputs": [
        {
          "internalType": "bytes32",
          "name": "",
          "type": "bytes32"
        },
        {
          "internalType": "uint256",
          "name": "",
          "type": "uint256"
        }
      ],
      "name": "_activeDebtsByToken",
      "outputs": [
        {
          "internalType": "uint256",
          "name": "",
          "type": "uint256"
        }
      ],
      "stateMutability": "view",
      "type": "function"
    },
    {
      "inputs": [
        {
          "internalType": "bytes",
          "name": "",
          "type": "bytes"
        },
        {
          "internalType": "uint256",
          "name": "",
          "type": "uint256"
        }
      ],
      "name": "_collaterals",
      "outputs": [
        {
          "internalType": "uint256",
          "name": "collateral",
          "type": "uint256"
        },
        {
          "internalType": "int256",
          "name": "ondelta",
          "type": "int256"
        }
      ],
      "stateMutability": "view",
      "type": "function"
    },
    {
      "inputs": [
        {
          "internalType": "bytes32",
          "name": "",
          "type": "bytes32"
        },
        {
          "internalType": "uint256",
          "name": "",
          "type": "uint256"
        }
      ],
      "name": "_debtIndex",
      "outputs": [
        {
          "internalType": "uint256",
          "name": "",
          "type": "uint256"
        }
      ],
      "stateMutability": "view",
      "type": "function"
    },
    {
      "inputs": [
        {
          "internalType": "bytes32",
          "name": "",
          "type": "bytes32"
        },
        {
          "internalType": "uint256",
          "name": "",
          "type": "uint256"
        },
        {
          "internalType": "uint256",
          "name": "",
          "type": "uint256"
        }
      ],
      "name": "_debts",
      "outputs": [
        {
          "internalType": "bytes32",
          "name": "creditor",
          "type": "bytes32"
        },
        {
          "internalType": "uint256",
          "name": "amount",
          "type": "uint256"
        }
      ],
      "stateMutability": "view",
      "type": "function"
    },
    {
      "inputs": [
        {
          "internalType": "bytes32",
          "name": "",
          "type": "bytes32"
        },
        {
          "internalType": "uint256",
          "name": "",
          "type": "uint256"
        }
      ],
      "name": "_reserves",
      "outputs": [
        {
          "internalType": "uint256",
          "name": "",
          "type": "uint256"
        }
      ],
      "stateMutability": "view",
      "type": "function"
    },
    {
      "inputs": [
        {
          "internalType": "uint256",
          "name": "",
          "type": "uint256"
        }
      ],
      "name": "_tokens",
      "outputs": [
        {
          "internalType": "address",
          "name": "contractAddress",
          "type": "address"
        },
        {
          "internalType": "uint96",
          "name": "externalTokenId",
          "type": "uint96"
        },
        {
          "internalType": "uint8",
          "name": "tokenType",
          "type": "uint8"
        }
      ],
      "stateMutability": "view",
      "type": "function"
    },
    {
      "inputs": [
        {
          "internalType": "bytes32",
          "name": "e1",
          "type": "bytes32"
        },
        {
          "internalType": "bytes32",
          "name": "e2",
          "type": "bytes32"
        }
      ],
      "name": "accountKey",
      "outputs": [
        {
          "internalType": "bytes",
          "name": "",
          "type": "bytes"
        }
      ],
      "stateMutability": "pure",
      "type": "function"
    },
    {
      "inputs": [],
      "name": "admin",
      "outputs": [
        {
          "internalType": "address",
          "name": "",
          "type": "address"
        }
      ],
      "stateMutability": "view",
      "type": "function"
    },
    {
      "inputs": [
        {
          "components": [
            {
              "internalType": "bytes32",
              "name": "entity",
              "type": "bytes32"
            },
            {
              "internalType": "address",
              "name": "contractAddress",
              "type": "address"
            },
            {
              "internalType": "uint96",
              "name": "externalTokenId",
              "type": "uint96"
            },
            {
              "internalType": "uint8",
              "name": "tokenType",
              "type": "uint8"
            },
            {
              "internalType": "uint256",
              "name": "internalTokenId",
              "type": "uint256"
            },
            {
              "internalType": "uint256",
              "name": "amount",
              "type": "uint256"
            }
          ],
          "internalType": "struct ExternalTokenToReserve",
          "name": "params",
          "type": "tuple"
        }
      ],
      "name": "adminRegisterExternalToken",
      "outputs": [],
      "stateMutability": "nonpayable",
      "type": "function"
    },
    {
      "inputs": [
        {
          "internalType": "address",
          "name": "tower",
          "type": "address"
        },
        {
          "internalType": "bytes32",
          "name": "entityId",
          "type": "bytes32"
        },
        {
          "internalType": "bytes32",
          "name": "counterentity",
          "type": "bytes32"
        },
        {
          "internalType": "uint256",
          "name": "finalNonce",
          "type": "uint256"
        },
        {
          "internalType": "bytes32",
          "name": "finalProofbodyHash",
          "type": "bytes32"
        },
        {
          "internalType": "uint256",
          "name": "lastResortWindowBlocks",
          "type": "uint256"
        },
        {
          "internalType": "uint256",
          "name": "appointmentSequence",
          "type": "uint256"
        }
      ],
      "name": "computeWatchtowerCounterDisputeHash",
      "outputs": [
        {
          "internalType": "bytes32",
          "name": "",
          "type": "bytes32"
        }
      ],
      "stateMutability": "view",
      "type": "function"
    },
    {
      "inputs": [
        {
          "internalType": "bytes32",
          "name": "",
          "type": "bytes32"
        },
        {
          "internalType": "uint256",
          "name": "",
          "type": "uint256"
        }
      ],
      "name": "debtOutstanding",
      "outputs": [
        {
          "internalType": "uint256",
          "name": "",
          "type": "uint256"
        }
      ],
      "stateMutability": "view",
      "type": "function"
    },
    {
      "inputs": [
        {
          "internalType": "bytes",
          "name": "encoded",
          "type": "bytes"
        }
      ],
      "name": "decodeTransformerArgumentListStrict",
      "outputs": [
        {
          "internalType": "bytes[]",
          "name": "",
          "type": "bytes[]"
        }
      ],
      "stateMutability": "pure",
      "type": "function"
    },
    {
      "inputs": [],
      "name": "defaultDisputeDelay",
      "outputs": [
        {
          "internalType": "uint256",
          "name": "",
          "type": "uint256"
        }
      ],
      "stateMutability": "view",
      "type": "function"
    },
    {
      "inputs": [
        {
          "internalType": "bytes32",
          "name": "entity",
          "type": "bytes32"
        },
        {
          "internalType": "uint256",
          "name": "tokenId",
          "type": "uint256"
        },
        {
          "internalType": "uint256",
          "name": "maxIterations",
          "type": "uint256"
        }
      ],
      "name": "enforceDebts",
      "outputs": [],
      "stateMutability": "nonpayable",
      "type": "function"
    },
    {
      "inputs": [
        {
          "internalType": "bytes32",
          "name": "",
          "type": "bytes32"
        }
      ],
      "name": "entityNonces",
      "outputs": [
        {
          "internalType": "uint256",
          "name": "",
          "type": "uint256"
        }
      ],
      "stateMutability": "view",
      "type": "function"
    },
    {
      "inputs": [],
      "name": "entityProvider",
      "outputs": [
        {
          "internalType": "address",
          "name": "",
          "type": "address"
        }
      ],
      "stateMutability": "view",
      "type": "function"
    },
    {
      "inputs": [
        {
          "internalType": "bytes32",
          "name": "leftEntity",
          "type": "bytes32"
        },
        {
          "internalType": "bytes32",
          "name": "rightEntity",
          "type": "bytes32"
        },
        {
          "internalType": "uint256",
          "name": "tokenId",
          "type": "uint256"
        }
      ],
      "name": "getCollateral",
      "outputs": [
        {
          "internalType": "uint256",
          "name": "collateral",
          "type": "uint256"
        },
        {
          "internalType": "int256",
          "name": "ondelta",
          "type": "int256"
        }
      ],
      "stateMutability": "view",
      "type": "function"
    },
    {
      "inputs": [
        {
          "internalType": "uint256",
          "name": "tokenId",
          "type": "uint256"
        }
      ],
      "name": "getTokenMetadata",
      "outputs": [
        {
          "internalType": "address",
          "name": "contractAddress",
          "type": "address"
        },
        {
          "internalType": "uint96",
          "name": "externalTokenId",
          "type": "uint96"
        },
        {
          "internalType": "uint8",
          "name": "tokenType",
          "type": "uint8"
        }
      ],
      "stateMutability": "view",
      "type": "function"
    },
    {
      "inputs": [],
      "name": "getTokensLength",
      "outputs": [
        {
          "internalType": "uint256",
          "name": "",
          "type": "uint256"
        }
      ],
      "stateMutability": "view",
      "type": "function"
    },
    {
      "inputs": [
        {
          "internalType": "bytes32",
          "name": "entity",
          "type": "bytes32"
        },
        {
          "internalType": "uint256",
          "name": "tokenId",
          "type": "uint256"
        },
        {
          "internalType": "uint256",
          "name": "amount",
          "type": "uint256"
        }
      ],
      "name": "mintToReserve",
      "outputs": [],
      "stateMutability": "nonpayable",
      "type": "function"
    },
    {
      "inputs": [
        {
          "components": [
            {
              "internalType": "bytes32",
              "name": "entity",
              "type": "bytes32"
            },
            {
              "internalType": "uint256",
              "name": "tokenId",
              "type": "uint256"
            },
            {
              "internalType": "uint256",
              "name": "amount",
              "type": "uint256"
            }
          ],
          "internalType": "struct Depository.ReserveMint[]",
          "name": "mints",
          "type": "tuple[]"
        }
      ],
      "name": "mintToReserveBatch",
      "outputs": [],
      "stateMutability": "nonpayable",
      "type": "function"
    },
    {
      "inputs": [
        {
          "internalType": "address",
          "name": "",
          "type": "address"
        },
        {
          "internalType": "address",
          "name": "",
          "type": "address"
        },
        {
          "internalType": "uint256[]",
          "name": "",
          "type": "uint256[]"
        },
        {
          "internalType": "uint256[]",
          "name": "",
          "type": "uint256[]"
        },
        {
          "internalType": "bytes",
          "name": "",
          "type": "bytes"
        }
      ],
      "name": "onERC1155BatchReceived",
      "outputs": [
        {
          "internalType": "bytes4",
          "name": "",
          "type": "bytes4"
        }
      ],
      "stateMutability": "pure",
      "type": "function"
    },
    {
      "inputs": [
        {
          "internalType": "address",
          "name": "",
          "type": "address"
        },
        {
          "internalType": "address",
          "name": "",
          "type": "address"
        },
        {
          "internalType": "uint256",
          "name": "id",
          "type": "uint256"
        },
        {
          "internalType": "uint256",
          "name": "",
          "type": "uint256"
        },
        {
          "internalType": "bytes",
          "name": "",
          "type": "bytes"
        }
      ],
      "name": "onERC1155Received",
      "outputs": [
        {
          "internalType": "bytes4",
          "name": "",
          "type": "bytes4"
        }
      ],
      "stateMutability": "nonpayable",
      "type": "function"
    },
    {
      "inputs": [
        {
          "internalType": "uint8",
          "name": "tokenType",
          "type": "uint8"
        },
        {
          "internalType": "address",
          "name": "contractAddress",
          "type": "address"
        },
        {
          "internalType": "uint96",
          "name": "externalTokenId",
          "type": "uint96"
        }
      ],
      "name": "packTokenReference",
      "outputs": [
        {
          "internalType": "bytes32",
          "name": "",
          "type": "bytes32"
        }
      ],
      "stateMutability": "pure",
      "type": "function"
    },
    {
      "inputs": [
        {
          "internalType": "bytes",
          "name": "encodedBatch",
          "type": "bytes"
        },
        {
          "internalType": "bytes",
          "name": "hankoData",
          "type": "bytes"
        },
        {
          "internalType": "uint256",
          "name": "nonce",
          "type": "uint256"
        }
      ],
      "name": "processBatch",
      "outputs": [
        {
          "internalType": "bool",
          "name": "completeSuccess",
          "type": "bool"
        }
      ],
      "stateMutability": "nonpayable",
      "type": "function"
    },
    {
      "inputs": [
        {
          "internalType": "bytes32",
          "name": "entity",
          "type": "bytes32"
        },
        {
          "internalType": "uint256",
          "name": "tokenId",
          "type": "uint256"
        }
      ],
      "name": "spendableReserve",
      "outputs": [
        {
          "internalType": "uint256",
          "name": "",
          "type": "uint256"
        }
      ],
      "stateMutability": "view",
      "type": "function"
    },
    {
      "inputs": [
        {
          "internalType": "bytes32",
          "name": "",
          "type": "bytes32"
        }
      ],
      "name": "tokenToId",
      "outputs": [
        {
          "internalType": "uint256",
          "name": "",
          "type": "uint256"
        }
      ],
      "stateMutability": "view",
      "type": "function"
    },
    {
      "inputs": [
        {
          "internalType": "bytes32",
          "name": "packed",
          "type": "bytes32"
        }
      ],
      "name": "unpackTokenReference",
      "outputs": [
        {
          "internalType": "address",
          "name": "contractAddress",
          "type": "address"
        },
        {
          "internalType": "uint96",
          "name": "externalTokenId",
          "type": "uint96"
        },
        {
          "internalType": "uint8",
          "name": "tokenType",
          "type": "uint8"
        }
      ],
      "stateMutability": "view",
      "type": "function"
    },
    {
      "inputs": [
        {
          "internalType": "bytes32",
          "name": "entityId",
          "type": "bytes32"
        },
        {
          "components": [
            {
              "internalType": "bytes32",
              "name": "counterentity",
              "type": "bytes32"
            },
            {
              "internalType": "uint256",
              "name": "initialNonce",
              "type": "uint256"
            },
            {
              "internalType": "uint256",
              "name": "finalNonce",
              "type": "uint256"
            },
            {
              "internalType": "bytes32",
              "name": "initialProofbodyHash",
              "type": "bytes32"
            },
            {
              "components": [
                {
                  "internalType": "int256[]",
                  "name": "offdeltas",
                  "type": "int256[]"
                },
                {
                  "internalType": "uint256[]",
                  "name": "tokenIds",
                  "type": "uint256[]"
                },
                {
                  "components": [
                    {
                      "internalType": "address",
                      "name": "transformerAddress",
                      "type": "address"
                    },
                    {
                      "internalType": "bytes",
                      "name": "encodedBatch",
                      "type": "bytes"
                    },
                    {
                      "components": [
                        {
                          "internalType": "uint256",
                          "name": "deltaIndex",
                          "type": "uint256"
                        },
                        {
                          "internalType": "uint256",
                          "name": "rightAllowance",
                          "type": "uint256"
                        },
                        {
                          "internalType": "uint256",
                          "name": "leftAllowance",
                          "type": "uint256"
                        }
                      ],
                      "internalType": "struct Allowance[]",
                      "name": "allowances",
                      "type": "tuple[]"
                    }
                  ],
                  "internalType": "struct TransformerClause[]",
                  "name": "transformers",
                  "type": "tuple[]"
                }
              ],
              "internalType": "struct ProofBody",
              "name": "finalProofbody",
              "type": "tuple"
            },
            {
              "internalType": "bytes",
              "name": "leftArguments",
              "type": "bytes"
            },
            {
              "internalType": "bytes",
              "name": "rightArguments",
              "type": "bytes"
            },
            {
              "internalType": "bytes",
              "name": "starterInitialArguments",
              "type": "bytes"
            },
            {
              "internalType": "bytes",
              "name": "starterIncrementedArguments",
              "type": "bytes"
            },
            {
              "internalType": "bytes",
              "name": "sig",
              "type": "bytes"
            },
            {
              "internalType": "bool",
              "name": "startedByLeft",
              "type": "bool"
            },
            {
              "internalType": "uint256",
              "name": "disputeUntilBlock",
              "type": "uint256"
            },
            {
              "internalType": "bool",
              "name": "cooperative",
              "type": "bool"
            }
          ],
          "internalType": "struct FinalDisputeProof",
          "name": "params",
          "type": "tuple"
        },
        {
          "internalType": "uint256",
          "name": "lastResortWindowBlocks",
          "type": "uint256"
        },
        {
          "internalType": "uint256",
          "name": "appointmentSequence",
          "type": "uint256"
        },
        {
          "internalType": "bytes",
          "name": "ownerAuthorizationHanko",
          "type": "bytes"
        }
      ],
      "name": "watchtowerCounterDispute",
      "outputs": [
        {
          "internalType": "bool",
          "name": "completeSuccess",
          "type": "bool"
        }
      ],
      "stateMutability": "nonpayable",
      "type": "function"
    }
  ],
  "bytecode": "0x60c034620001a757601f620063d038819003918201601f19168301926001600160401b0392909183851183861017620001ac578160209284926040978852833981010312620001a757516001600160a01b038082169291838103620001a757600093600185551562000196576080523360a05283519160608301908111838210176200018257845282825260208201908382528483019380855260095490680100000000000000008210156200016e5760018201806009558210156200015a579160019391602084600960ff9896522090851b0192511690838060a01b0319905160a01b161781550191511660ff198254161790555161620d9081620001c382396080518181816107c701528181610f8a01528181611a760152818161201d0152818161225701528181612df3015281816145fb0152614f6f015260a0518181816101ff015281816102a4015281816103240152610a530152f35b634e487b7160e01b81526032600452602490fd5b634e487b7160e01b81526041600452602490fd5b634e487b7160e01b84526041600452602484fd5b8451633c4117f160e21b8152600490fd5b600080fd5b634e487b7160e01b600052604160045260246000fdfe6101a0604052600436101561001357600080fd5b60003560e01c80630dedd62414612ef757806310340ce314612ee0578063125c2cc414612e745780633644e51514612e4b57806340530a9a14612e225780634318cdd014612ddd5780635fed788214612d7a5780636031680114612d505780636b79134d14612d245780637508b91614612cf157806378152e6a14612cd857806378bc542a14612ca55780637a4ef02514610e8257806382f437b114610e4757806388a1cd7614610df6578063907efb1b14610dd957806392cf61e514610d585780639e8de81914610d25578063acd6f20814610cf2578063b0c26ecf14610cd4578063bb2c250c14610c86578063bc197c8114610bfb578063d19fd92e14610bcf578063e3af37e314610ab2578063e812c56914610a41578063e9e1059e14610576578063ed70554d14610527578063edcc1b04146104fb578063f176e326146104c1578063f23a6e61146103c3578063f43ac1fb146102d3578063f851a4401461028e5763fdfef2011461018857600080fd5b346102895760c0366003190112610289576040516101a581612fa9565b60043581526001600160a01b0360243581811681036102895760208301526044356001600160601b038116810361028957604083015260643560ff81168103610289576060830152608435608083015260a43560a08301527f0000000000000000000000000000000000000000000000000000000000000000163314801590610270575b61025e5760026000541461024c5761024590600260005561529c565b6001600055005b604051633018d46b60e11b8152600490fd5b604051633485c51360e21b8152600490fd5b50617a6946141580156102295750617a6a461415610229565b600080fd5b34610289576000366003190112610289576040517f00000000000000000000000000000000000000000000000000000000000000006001600160a01b03168152602090f35b34610289576020366003190112610289576004356001600160401b038082116102895736602383011215610289578160040135908111610289576024916060366024606085028401011161028957337f00000000000000000000000000000000000000000000000000000000000000006001600160a01b0316148015906103aa575b61025e5782156103985760005b83811061036b57005b818102830190606482013591821561039857600192818860446103929401359101356141b3565b01610362565b60405163440a57bf60e01b8152600490fd5b50617a6946141580156103555750617a6a461415610355565b346102895760a0366003190112610289576103dc613173565b506103e5613189565b506084356001600160401b03811161028957610405903690600401613146565b505060018060601b03604435166040516020810190600282523360408201528260608201526060815261043781612fd7565b5190209081600052600a60205260406000205415610462575b60405163f23a6e6160e01b8152602090f35b6040516104869161047282612f73565b3382526020820152600260408201526140c0565b6009546000198101919082116104ab57600052600a6020526040600020558080610450565b634e487b7160e01b600052601160045260246000fd5b34610289576040366003190112610289576104f76104e3602435600435614080565b604051918291602083526020830190613234565b0390f35b3461028957602036600319011261028957600435600052600b6020526020604060002054604051908152f35b34610289576020366003190112610289576004356009548110156102895761054e906131b3565b5060ff6001825492015416906104f76040519282849360a01c9060018060a01b031684613103565b346102895760031960a03682011261028957602435906001600160401b038211610289576101a082360391820112610289576084356001600160401b038111610289576105c7903690600401613146565b909160026000541461024c5760026000556105f06105eb8560040135600435614080565b6130c3565b600181015415610a2f5761018485013580151581036102895761025e5761012485013560221983018112156102895785016004810135906001600160401b038211610289576024823603910113610289571561025e576044351561025e5780546044860135111561025e5760248501356044860135111561025e57600261067960443543613275565b9101541161025e5760848401359060621901811215610289576040516020808201529060a08201906106b08682016004018061404b565b606060408601529283905260c084019260005b818110610a19575050506106e160248288010160048389010161404b565b848403603f190160608601528084526001600160fb1b0381116102895760051b9291908390602084013781830160200190610725908801604481019060040161404b565b809192601f198787870103016080880152526040848401019360408260051b82860101019483946000925b8484106108dd57508a6107bb60408c8c6107998d610777818f03601f19810183528261300d565b6064359060443590602081519101206044890135896004013560043533613f91565b8351631155a0c560e31b81526004810185905294859384936044850191613b6d565b602483019190915203817f00000000000000000000000000000000000000000000000000000000000000006001600160a01b03165afa80156108d1576000916000916108a0575b5015908115610893575b50610881576108296108213683600401613c6b565b6004356144f8565b1580610881576020916040519060448101358252606435848301526004013590600435907fb209bafd9234f5eaba22fb2de42069934e9a20bb838ffc9afa40ede47dbe7d8760403392a4600160005560405190158152f35b604051631bd18a1960e31b8152600490fd5b905060043514158261080c565b90506108c4915060403d6040116108ca575b6108bc818361300d565b810190613b9b565b83610802565b503d6108b2565b6040513d6000823e3d90fd5b90919293949596603f198284018203018452605e198736030188351215610289576001600160a01b036109128935890161319f565b1681528735870136819003601e1901602090910135121561028957873587016020810135016001600160401b03813511610289578035360360208201136102895761096e90606060208401526060830190602081359101613b6d565b908835880136819003601e190160409091013512156102895788358801604081013501916001600160401b038335116102895760608335023603602084011361028957816040602093830391015282358152019060208101906000905b803582106109ed57505050602080600192990194019401929594939190610750565b9091926060806001928635815260208701356020820152604087013560408201520194019201906109cb565b82358552602094850194909201916001016106c3565b6040516388d0662b60e01b8152600490fd5b3461028957610a4f366130e9565b90337f00000000000000000000000000000000000000000000000000000000000000006001600160a01b031614801590610a99575b61025e57811561039857610a97926141b3565b005b50617a694614158015610a845750617a6a461415610a84565b3461028957602080600319360112610289576001600160401b0360043581811161028957610ae4903690600401613146565b81019083818303126102895780359083821161028957019080601f8301121561028957813591610b1383613bb5565b93610b21604051958661300d565b8385528585019086829560051b8401019380851161028957878498979801925b858410610ba457604080518981528a51818b01819052600092600582901b83018101918b918d9085015b828710610b785785850386f35b909192938280610b94600193603f198a82030186528851613234565b9601920196019592919092610b6b565b8398979835838111610289578991610bc1848480948a0101613082565b815201930192979697610b41565b3461028957602036600319011261028957600435600052600a6020526020604060002054604051908152f35b346102895760a036600319011261028957610c14613173565b50610c1d613189565b506001600160401b0360443581811161028957610c3e903690600401613204565b505060643581811161028957610c58903690600401613204565b505060843590811161028957610c72903690600401613146565b5050604051633c4117f160e21b8152600490fd5b346102895760603660031901126102895760043560ff8116810361028957610cac613189565b906044356001600160601b038116810361028957602092610ccc9261400f565b604051908152f35b34610289576000366003190112610289576020600954604051908152f35b3461028957610d0036613130565b9060005260016020526040600020906000526020526020604060002054604051908152f35b3461028957610d3336613130565b9060005260066020526040600020906000526020526020604060002054604051908152f35b3461028957602036600319011261028957600435600052600a6020526040600020548015610dc757610d8c610d92916131b3565b50613b3a565b8051602082015160409283015192519283926104f79260ff909216916001600160601b0316906001600160a01b031684613103565b604051633c4117f160e21b8152600490fd5b346102895760003660031901126102895760206040516116808152f35b3461028957610e04366130e9565b9160005260046020526040600020906000526020526040600020805482101561028957604091610e33916131e8565b506001815491015482519182526020820152f35b346102895760e0366003190112610289576020610ccc610e65613173565b60c4359060a4359060843590606435906044359060243590613f91565b34610289576060366003190112610289576004356001600160401b03811161028957610eb2903690600401613146565b6024356001600160401b03811161028957610ed1903690600401613146565b9260026000541461024c5760026000556040516359516e5f60e01b81526000805160206161b8833981519152600482015246602482015230604482015260a060648201529060208280610f2860a482018886613b6d565b6044356084830152038173__$1a0918a2aa2208593bb0a5d7644cd0946b$__5af49182156108d157600092612c71575b5060408051808094631155a0c560e31b8252836004830152610f7e604483018a89613b6d565b602483019190915203817f00000000000000000000000000000000000000000000000000000000000000006001600160a01b03165afa80156108d157600092600091612c4c575b50158015612c44575b6108815781600052600b6020526040600020546001810181116104ab576001016044350361025e5781600052600b6020526044356040600020556020818581010312610289576001600160401b038135116102895761016081358201858301031261028957604051936001600160401b036101608601908111908611176129c65761016085016040526001600160401b038235830135116102895781810182358301803501601f01121561028957813582018035013561108d81613bb5565b9061109b604051928361300d565b808252602082019083850160208260061b873588013588358901010101116102895784358501803501602001915b85358601803501600683901b016020018310612c0e5750505085526001600160401b038235830160200135116102895781810182358301602081013501601f01121561028957813582016020810135013561112381613bb5565b90611131604051928361300d565b8082526020820183850160206060840281883589010135883589010101011161028957602085358601818101350101905b853586016020818101359091016060850201018210612bed5750505060208601526001600160401b038235830160400135116102895781810182358301604081013501601f011215610289576111c18235830160408101350135613bb5565b6111ce604051918261300d565b82358301604081013501803580835260208084019285870160059390931b0101116102895783358401604081013501602001905b84358501604081013501803560051b016020018210612a9657505060408601526001600160401b038235830160600135116102895781810182358301606081013501601f01121561028957813582016060810135013561126181613bb5565b9061126f604051928361300d565b8082526020820183850160208360051b606088358901013588358901010101116102895784358501606081013501602001905b85358601606081013501600584901b0160200182106129dc5750505060608601526001600160401b038235830160800135116102895781810182358301608081013501601f01121561028957813582016080810135013561130281613bb5565b90611310604051928361300d565b8082526020820183850160208360051b608088358901013588358901010101116102895784358501608081013501602001905b85358601608081013501600584901b01602001821061273c5750505060808601526001600160401b038235830160a0013511610289578181018235830160a081013501601f011215610289578135820160a081013501356113a381613bb5565b906113b1604051928361300d565b8082526020820183850160208360051b60a08835890101358835890101010111610289578435850160a081013501602001905b8535860160a081013501600584901b01602001821061260b5750505060a08601526001600160401b038235830160c0013511610289578181018235830160c081013501601f011215610289576114438235830160c08101350135613bb5565b611450604051918261300d565b8235830160c081013501803580835260208084019285870160059390931b010111610289578335840160c081013501602001905b8435850160c081013501803560051b0160200182106125d257505060c08601526001600160401b038235830160e0013511610289578181018235830160e081013501601f011215610289576114e28235830160e08101350135613bb5565b6114ef604051918261300d565b8235830160e081013501803580835260208084019285870160c0909302010111610289578335840160e081013501602001905b8435850160e081013501803560c00201602001821061254857505060e08601526001600160401b0382358301610100013511610289578181018235830161010081013501601f01121561028957611583823583016101008101350135613bb5565b611590604051918261300d565b823583016101008101350180358083526020808401928587016060909302010111610289578335840161010081013501602001905b8435850161010081013501803560600201602001821061252c5750506101008601526001600160401b0382358301610120013511610289578181018235830161012081013501601f011215610289578135820161012081013501359061162a82613bb5565b91611638604051938461300d565b808352602083019180850160208360061b6101208835890101358835890101010111610289578435850161012081013501602001925b8535860161012081013501600684901b0160200184106124ef57505050506101208501526101408181923501013590840152603261172f6117226117156117096116fd6116f16116e56116d96116cd8c60208151519101515190613275565b60408d01515190613275565b60608c01515190613275565b60808b01515190613275565b60a08a01515190613275565b60c08901515190613275565b60e08801515190613275565b6101008701515190613275565b6101208601515190613275565b116117e3576008835151116117e3576040602084015151116117e35760408084015151116117e3576040606084015151116117e3576020608084015151116117e357600860a084015151116117e357600860c084015151116117e357604060e084015151116117e357604061010084015151116117e357602061012084015151116117e35760005b604084015180518210156117f55760406117d283829361433a565b51015151116117e3576001016117b7565b60405163e217c62b60e01b8152600490fd5b505083836118048151516142fb565b906118108151516142fb565b9161181c8251516142fb565b92600080915b845180518410156118ff57836118379161433a565b515192602061184782885161433a565b510151936000905b8482106118de575b8a8786841461188f575b50505061188661187f6001949596611879848c61433a565b51613275565b918961433a565b52019190611822565b868361187f93611886956118a960019a9b6118d39661433a565b52600052876020526040600020906000526020526040600020546118cd828a61433a565b52613259565b959450508a87611861565b90816118ea828961433a565b51146118f9576001019061184f565b90611857565b5093915093918760005b8681106124c6575060019660005b60e0850151805182101561195057906119426119358260019461433a565b518051156119485761529c565b01611917565b8c815261529c565b505087899760005b602087015180518210156119dd57816119709161433a565b519061198060208301518c61330f565b604082015161199360208401518d6142b0565b106119cb576119c5826119b28d60206001960151604084015191614127565b80519060406020820151910151916141b3565b01611958565b604051632fd8225d60e21b8152600490fd5b505087899760005b60608901518051821015611b1d576020611a018360809361433a565b518c611a7460405194859384936328a3f8a760e11b8552600160048601526002602486015260036044860152606485015260c06084850152805160c48501528581015160e485015260408101516101048501526060810151610124850152015160a0610144840152610164830190613234565b7f00000000000000000000000000000000000000000000000000000000000000006001600160a01b031660a4830152038173__$1a0918a2aa2208593bb0a5d7644cd0946b$__5af49081156108d157600091611ae3575b5015611ada575b6001016119e5565b60009450611ad2565b90506020813d602011611b15575b81611afe6020938361300d565b8101031261028957611b0f90613b8e565b8b611acb565b3d9150611af1565b505087899760808201518051612147575b5060a08201518051611fc5575b5060005b6101208301518051821015611c145781611b589161433a565b5180519091906001600160a01b03161561025e5760018060a01b03825116916020810151833b1561028957600093602485926040519687938492636030754560e01b845260048401525af19081156108d1576001938d92611c05575b507f47172349c05bf58f7f6a376def3bbc250cd3295a7eead0290d8fa3531c6ca9fb60208080840151604051828101918252828152611bf281612f58565b519020930151604051908152a301611b3f565b611c0e90612fc4565b8d611bb4565b505087899760005b60c08501518051821015611c5557611c3782611c3e9261433a565b518b6144f8565b15611c4c575b600101611c1c565b60009850611c44565b505087899760005b60408701518051821015611c9657611c7882611c7f9261433a565b518b61577d565b15611c8d575b600101611c5d565b60009250611c85565b505087899760005b6101008901518051821015611ec35781611cb79161433a565b519060408201511561039857611cd160208301518c613564565b611ce1610d8c60208401516131b3565b916040810151611cf68d6020840151906142b0565b106119cb5780516001600160a01b031061025e5760018060a01b0381511690600160ff6040860151161480611eb4575b61039857611d3e8d6020830151604084015191614127565b604084015160ff1680611d9b575060019291611d9391604061010096868060a01b039051169101516040519263a9059cbb60e01b60208501526024840152604483015260448252611d8e82612fd7565b615f46565b019050611c9e565b60018103611e1a57505082516020909301516001600160a01b03909316926001600160601b0316833b1561028957611dee93600092836040518097819582946323b872dd60e01b8452306004850161527a565b03925af19081156108d15761010092600192611e0b575b50611d93565b611e1490612fc4565b8c611e05565b909390600214611e34575b50506101009150600190611d93565b8051602090910151604094909401516001600160601b0390941693906001600160a01b0316803b1561028957611e86946000809460405197889586948593637921219560e11b85523060048601615246565b03925af19081156108d15761010092600192611ea5575b819250611e25565b611eae90612fc4565b8c611e9d565b50600160408201511415611d26565b50508894959660005b848110611f33575050505050159182159261088157602093611eef91369161304b565b838151910120907fbd6e57133956b4a3944b483a9e595b4aab16071cf15a39384fdb1b7015865aab6040805160443581528587820152a36001600055604051908152f35b611f3d818361433a565b51611f5d611f4b838761433a565b51611f56848761433a565b5190613275565b886000526001602052604060002082600052602052604060002054106119cb57611f92611f8a838661433a565b51828a614127565b876000526001602052604060002090600052602052604060002054611fb7828661433a565b51116119cb57600101611ecc565b604051906312f6ab5960e31b82528160a48101600260048301528c602483015260a06044830152825180915260c4820190602060c48260051b8501019401916000905b8282106120c7575050611680606484015250507f00000000000000000000000000000000000000000000000000000000000000006001600160a01b031660848201526020918190038173__$1a0918a2aa2208593bb0a5d7644cd0946b$__5af49081156108d15760009161208d575b5015612084575b89611b3b565b6000955061207e565b90506020813d6020116120bf575b816120a86020938361300d565b81010312610289576120b990613b8e565b8a612077565b3d915061209b565b919350919360208061213860019360c3198a82030186528851908151815283820151848201526040820151604082015260a0612127612115606085015160c0606086015260c0850190613234565b60808501518482036080860152613234565b9201519060a0818403910152613234565b96019201920185939192612008565b94989092939596976000985b86518a10156121e2576121668a8861433a565b519860005b60408b015180518210156121d357908b6121878260019461433a565b5160006020820151126121c1575b60006040820151126121aa575b50500161216b565b60206121ba92015190519061330f565b8b8f6121a2565b6121ce825182519061330f565b612195565b50506001909a01999850612153565b95509591975095929791976080880151604051906328583d4560e21b82528160e48101600160048301526006602483015260026044830152600360648301528a608483015260e060a48301528251809152610104906020828401928260051b8501019401916000905b82821061239a575050507f00000000000000000000000000000000000000000000000000000000000000006001600160a01b031660c4830152506020918190038173__$1a0918a2aa2208593bb0a5d7644cd0946b$__5af49081156108d157600091612360575b5015612357575b94969095600098929398975b608083015180518a101561234757896122e2919b9896999b61433a565b5195600097606088019960208901995b8b51805182101561232f57906123298c61231f8d6123128560019761433a565b51928391519051906155d7565b8d518d51906155d7565b016122f2565b50919c6001909c019b9a509698509096506122c59050565b5097509794919592939589611b2e565b600093506122b9565b90506020813d602011612392575b8161237b6020938361300d565b810103126102895761238c90613b8e565b8a6122b2565b3d915061236e565b9193509193610103198682030182528451906101008101825182526020830151602083015260408301519061010060408401528151809152602061012084019201906000905b808210612486575050506060830151908281036060840152602080835192838152019201906000905b80821061246e575050508260209260e0806124596124368796608060019a01518682036080880152613234565b888060a01b0360a08701511660a086015260c086015185820360c0870152613234565b9301519101529601920192018593919261224b565b90919260208060019286518152019401920190612409565b909192602060a0600192608087518051835284810151858401526040810151604084015260608101516060840152015160808201520194019201906123e0565b806124e96124d66001938661433a565b516124e1838961433a565b51908c6141b3565b01611909565b604084838801031261028957604060208092825161250c81612f58565b6125158861319f565b81528288013583820152815201940193905061166e565b602060609161253d86880185613bcc565b8152019101906115c5565b60c08285870103126102895760405161256081612fa9565b823581526125706020840161319f565b602082015260408301356001600160601b03811690036102895760408381013590820152606083013560ff811690036102895760c091602091606085013560608201526080850135608082015260a085013560a0820152815201910190611522565b6001600160401b038235116102895760209081906126008787018835890160c0810135018635018401613c6b565b815201910190611484565b81356001600160401b0381116102895760c08735880160a081013501820187890103601f190112610289576040519061264382612fa9565b8735880160a08101350181016020818101358452604080830135918501919091526060820135908401526001600160401b0360809091013511610289576126a088880189358a0160a0810135018301608081013501602001613082565b60608301526001600160401b0360a089358a0181810135018301013511610289576126e1878901602060a08b358c0181810135018501908101350101613082565b60808301526001600160401b038835890160a081013501820160c0013511610289576020928392839261272a908a8c01908c358d0160a0810135010160c0810135018501613082565b60a082015281520192019190506113e4565b81356001600160401b0381116102895761010087358801608081013501820187890103601f19011261028957604051906001600160401b036101008301908111908311176129c65761010082016040908152602060808a358b01908101350183018181013585529182013590840152606001356001600160401b0381116102895788880189358a0160808101350183018201603f01121561028957883589016080810135018201810160200135906127f382613bb5565b91612801604051938461300d565b808352602083018b8b018c358d016080810135018601840160a084020160400111610289578b358c0160808101350185018301604001905b8b8d803581016080810135018801860160a086020160400184106129745750505050506040840191909152506001600160401b03608089358a0181810135018301013511610289576128a1878901602060808b358c0181810135018501908101350101613bfe565b60608301526001600160401b0388358901608081013501820160a0013511610289576128e388880189358a01608081013501830160a081013501602001613082565b608083015261290260c08260808b358c0101358b358c0101010161319f565b60a08301526001600160401b0388358901608081013501820160e001351161028957602092839283926101009061294e8b8d018d358e01608081013501830160e0810135018701613082565b60c08401528b358c0160808101350101013560e082015281529190930192019050611343565b60a091849101031261028957602060a09160405161299181612f8e565b843581528285013583820152604085013560408201526060850135606082015260808501356080820152815201910190612839565b634e487b7160e01b600052604160045260246000fd5b81356001600160401b0381116102895760a087358801606081013501820187890103601f1901126102895760405190612a1482612f8e565b6020606089358a01818101350183018281013585526040808201359386019390935280820135928501929092526080820135908401526001600160401b0360a090910135116102895760209283928392612a84908a8c01908c358d016060810135010160a0810135018501613082565b608082015281520192019190506112a2565b81356001600160401b03811161028957606086358701604081013501820186880103601f1901126102895760405190612ace82612f73565b6020604088358901818101350183018281013585529081013591840191909152606001356001600160401b038111610289578787018835890160408101350183018201603f01121561028957873588016040810135018201810160200135612b3581613bb5565b92612b43604051948561300d565b81845260208401908a8a018b358c0160408181013590910183018601600686901b0101116102895760408b358c0181810135018201850101915b8a8c60408660061b8886838535860101358535860101010101018510612bba57505050505050509181602093604085940152815201910190611202565b60409185910103126102895760206040918251612bd681612f58565b853581528286013583820152815201920191612b7d565b60608060208093612c00898b0187613bcc565b815201930192915050611162565b6040838688010312610289576040602080928251612c2b81612f58565b86358152828701358382015281520193019290506110c9565b508115610fce565b9050612c6891925060403d6040116108ca576108bc818361300d565b91909186610fc5565b9091506020813d602011612c9d575b81612c8d6020938361300d565b8101031261028957519085610f58565b3d9150612c80565b3461028957612cb336613130565b9060005260076020526040600020906000526020526020604060002054604051908152f35b34610289576020610ccc612ceb36613130565b906142b0565b3461028957612cff36613130565b9060005260056020526040600020906000526020526020604060002054604051908152f35b346102895760203660031901126102895760043560005260086020526020604060002054604051908152f35b3461028957602036600319011261028957600435600954811015610dc757610d8c610d92916131b3565b3461028957606036600319011261028957612db16020612d9e602435600435614080565b81604051938285809451938492016130a0565b810160038152030190206044356000526020526040806000206001815491015482519182526020820152f35b34610289576000366003190112610289576040517f00000000000000000000000000000000000000000000000000000000000000006001600160a01b03168152602090f35b346102895760003660031901126102895760206040516000805160206161988339815191528152f35b346102895760003660031901126102895760206040516000805160206161b88339815191528152f35b34610289576020366003190112610289576004356001600160401b03811161028957612eab6020612d9e6080933690600401613082565b810160028152030190208054906001810154906003600282015491015491604051938452602084015260408301526060820152f35b3461028957610a97612ef1366130e9565b916138ba565b34610289576040366003190112610289576004356001600160401b038111610289576020612d9e612f2c923690600401613082565b810160038152030190206024356000526020526040806000206001815491015482519182526020820152f35b604081019081106001600160401b038211176129c657604052565b606081019081106001600160401b038211176129c657604052565b60a081019081106001600160401b038211176129c657604052565b60c081019081106001600160401b038211176129c657604052565b6001600160401b0381116129c657604052565b608081019081106001600160401b038211176129c657604052565b602081019081106001600160401b038211176129c657604052565b601f909101601f19168101906001600160401b038211908210176129c657604052565b6001600160401b0381116129c657601f01601f191660200190565b92919261305782613030565b91613065604051938461300d565b829481845281830111610289578281602093846000960137010152565b9080601f830112156102895781602061309d9335910161304b565b90565b60005b8381106130b35750506000910152565b81810151838201526020016130a3565b60206130dc9181604051938285809451938492016130a0565b8101600281520301902090565b606090600319011261028957600435906024359060443590565b6001600160a01b0390911681526001600160601b03909116602082015260ff909116604082015260600190565b6040906003190112610289576004359060243590565b9181601f84011215610289578235916001600160401b038311610289576020838186019501011161028957565b600435906001600160a01b038216820361028957565b602435906001600160a01b038216820361028957565b35906001600160a01b038216820361028957565b6009548110156131d257600960005260206000209060011b0190600090565b634e487b7160e01b600052603260045260246000fd5b80548210156131d25760005260206000209060011b0190600090565b9181601f84011215610289578235916001600160401b038311610289576020808501948460051b01011161028957565b9060209161324d815180928185528580860191016130a0565b601f01601f1916010190565b60001981146104ab5760010190565b919082039182116104ab57565b919082018092116104ab57565b906132935760018160008093550155565b634e487b7160e01b600052600060045260246000fd5b805490600090818155826132bc57505050565b6001906001600160ff1b03841684036132fb578252602082209260011b8301925b8381106132ea5750505050565b8083600292558383820155016132dd565b634e487b7160e01b83526011600452602483fd5b6000818152600492602060048152604093848420838552825284842095865490811561354e57828652600584528686208587528452868620549782891015613545575b90838752600191600186528888208789528652888820548389905b6133bd575b505050505086101561338f57835260058152838320918352522055565b6133bb9550808452600582528484208385528252838581205583526004815283832091835252206132a9565b565b858c929394959c108061353c575b1561353457906133dc8c9392613259565b916133e782866131e8565b509084820191825495861561351f5750811561351657549190613443908c9061343d908c90898110156135095761343881809581945b613428838383614127565b61343383838d6141b3565b61420b565b613268565b96613268565b9061344f828254613268565b91806134d457508c90558d83018084116134c1576134b7928f969594928f8f8f94928f938f9493606093600080516020616158833981519152958251948552840152820152a461349f8b8a61424e565b6134b26134ac82886131e8565b90613282565b613259565b9b5b94939261336d565b634e487b7160e01b8d526011885260248dfd5b849f9695948f8e94600080516020616158833981519152928f928f95606094818e9b99558251948552840152820152a46134b9565b6134388a8095819461341d565b5050509a613372565b955050929161352e9150613259565b9b6134b9565b819b50613372565b508781106133cb565b97508597613352565b5050835260058152838320918352529081205550565b6000818152600492602060048152604093848420838552825284842095865490811561354e57828652600584528686208587528452868620549782891015613706575b90838752600191600186528888208789528652888820548389905b6135e357505050505086101561338f57835260058152838320918352522055565b858c929394959c10806136fd575b1561353457906136028c9392613259565b9161360d82866131e8565b50908482019182549586156136e8575081156135165754919061364d908c9061343d908c9089811015613509576134388180958194613428838383614127565b90613659828254613268565b91806136b357508c90558d83018084116134c1576136a9928f969594928f8f8f94928f938f9493606093600080516020616158833981519152958251948552840152820152a461349f8b8a61424e565b9b5b9493926135c2565b849f9695948f8e94600080516020616158833981519152928f928f95606094818e9b99558251948552840152820152a46136ab565b95505092916136f79150613259565b9b6136ab565b508781106135f1565b975085976135a7565b6000818152600492602060048152604093848420838552825284842095865490811561354e578286526005845286862085875284528686205497828910156138b1575b90838752600191600186528888208789528652888820548389905b61378e57505050505086101561338f57835260058152838320918352522055565b858c929394959c10806138a8575b1561353457906137ad8c9392613259565b916137b882866131e8565b509084820191825495861561389357508115613516575491906137f8908c9061343d908c9089811015613509576134388180958194613428838383614127565b90613804828254613268565b918061385e57508c90558d83018084116134c157613854928f969594928f8f8f94928f938f9493606093600080516020616158833981519152958251948552840152820152a461349f8b8a61424e565b9b5b94939261376d565b849f9695948f8e94600080516020616158833981519152928f928f95606094818e9b99558251948552840152820152a4613856565b95505092916138a29150613259565b9b613856565b5087811061379c565b97508597613752565b80600052600460205260406000208260005260205260406000208054908115613b18578260005260056020526040600020846000526020526040600020549482861015613b0f575b83600052600190600160205260406000208660005260205281604060002054918015600014613b055750919291506000195b6000845b6139a5575b5050505050831015613965576000526005602052604060002090600052602052604060002055565b8091925060005260056020526040600020826000526020526000604081205560005260046020526040600020906000526020526133bb60406000206132a9565b8589939495991080613afc575b15613af4576139c090613259565b916139cb81866131e8565b509089820154948a8615613adf57508015613ad75790613a1c61343361343d8c86956134388e839c9b9a99549c8d918d8510600014613acb57849788809781955b613a17838387614127565b6141b3565b91613a2a838d830154613268565b9280613a9257508b60009101558a8101918282116104ab578b968a60008051602061615883398151915260608e94613a8697604051918252600060208301526040820152a4613a798a8a61424e565b6134b26134ac82896131e8565b985b9493919091613938565b60008051602061615883398151915260608e999395859f96958f96948f95898291015560405192835260208301526040820152a4613a88565b8d978880978195613a0c565b50985061393d565b955093929150613aee90613259565b98613a88565b82985061393d565b508181106139b2565b9050929192613934565b60009550613902565b5050909150600052600560205260406000209060005260205260006040812055565b90604051613b4781612f73565b82546001600160a01b038116825260a01c602082015260019092015460ff166040830152565b908060209392818452848401376000828201840152601f01601f1916010190565b5190811515820361028957565b91908260409103126102895761309d602083519301613b8e565b6001600160401b0381116129c65760051b60200190565b919082606091031261028957604051613be481612f73565b604080829480358452602081013560208501520135910152565b9080601f83011215610289576020908235613c1881613bb5565b93613c26604051958661300d565b81855260208086019260051b82010192831161028957602001905b828210613c4f575050505090565b81358152908301908301613c41565b3590811515820361028957565b9190916101a09081818503126102895760408051909490926001600160401b03908401818111858210176129c65786528395833585526020808501358187015281850135828701526060918286013583880152608086013584811161028957860192808487031261028957815193613ce285612f73565b803586811161028957810187601f8201121561028957803590613d0482613bb5565b91613d118651938461300d565b808352868084019160051b830101918a83116102895787809101915b838310613f8157505050508552838101358681116102895787613d51918301613bfe565b84860152828101359086821161028957019286601f8501121561028957833593613d7a85613bb5565b94613d878551968761300d565b808652828087019160051b8301019189831161028957838101915b838310613e7a57505050505050820152608085015260a08301358181116102895782613dcf918501613082565b60a085015260c08301358181116102895782613dec918501613082565b60c085015260e08301358181116102895782613e09918501613082565b60e0850152610100808401358281116102895783613e28918601613082565b90850152610120918284013591821161028957613e46918401613082565b90830152610140613e58818301613c5e565b908301526101608082013590830152613e75610180809201613c5e565b910152565b82358a8111610289578201808c03601f1901871361028957875190613e9e82612f73565b613ea987820161319f565b8252888101358c8111610289578d88613ec492840101613082565b8783015287810135908c821161028957018c603f82011215610289578c87820135613eee81613bb5565b92613efb8c51948561300d565b8184528b8b8b8601930282010192831161028957918f9593918b8d8c979501975b838910613f3957505050508394508a820152815201920191613da2565b88949698919293959750031261028957898b918d805190613f5982612f73565b85358252838601358483015280860135908201528152019101949290918f928b8b9694613f1c565b8235815291810191889101613d2d565b95939194929094604051956020870197600080516020616198833981519152895246604089015230606089015260018060a01b0316608088015260a087015260c086015260e085015261010084015261012083015261014090818301528152610160810181811060018060401b038211176129c65760405251902090565b916040519160ff602084019416845260018060a01b0316604083015260018060601b031660608201526060815261404581612fd7565b51902090565b9035601e1982360301811215610289570160208101919035906001600160401b038211610289578160051b3603831361028957565b90808210156140a45760405191602083015260408201526040815261309d81612f73565b9060405191602083015260408201526040815261309d81612f73565b600954600160401b8110156129c6578060016140df92016009556131b3565b613293578151602083015160a01b6001600160a01b0319166001600160a01b039190911617815560409190910151600191909101805460ff191660ff92909216919091179055565b909180156141ae5760009082825260209160018352604091828220868352845280838320541061419d579181600080516020616178833981519152949386839452600185528282208883528552614182838320918254613268565b905585815260018452818120878252845220549051908152a3565b8251632fd8225d60e21b8152600490fd5b505050565b909180156141ae5760206040600080516020616178833981519152926000908582526001845282822087835284526141ef838320918254613275565b90558481526001835281812086825283522054604051908152a3565b909180156141ae576000928284526006602052604084208185526020526040842054908282106119cb576040938552600660205283852090855260205203912055565b906000908282526008602052604082208054806142a3575b5050600760205260408220818352602052604082205461428557505050565b60409282526007602052828220908252602052206000198154019055565b6000190190553880614266565b60009181835260016020526040832081845260205260408320549183526006602052604083209083526020526040822054908181116000146142f65761309d9250613268565b505090565b9061430582613bb5565b614312604051918261300d565b8281528092614323601f1991613bb5565b0190602036910137565b8051156131d25760200190565b80518210156131d25760209160051b010190565b90815180825260208080930193019160005b82811061436e575050505090565b835185529381019392810192600101614360565b9060208083528151906143a1606092606083870152608086019061434e565b8184015190601f199460409186888203018389015284808551928381520194019060005b8181106144a65750505081015195606086828503019101528551938483528383019184808760051b8601019801966000945b87861061440a5750505050505050505090565b90919293949596979882828203018652878a5160018060a01b0381511683528561443f83830151898587015289860190613234565b91015192868183039101528180845192838152019301906000905b8881831061447d5750505050806001929b019601960194979695939291906143f7565b8395896001949693955180518352848101518584015201518a82015201940192018a929161445a565b8251865294860194918601916001016143c5565b926144dc61309d95936144ea9315158652608060208701526080860190613234565b908482036040860152613234565b916060818403910152613234565b9061014052614511610140515160006101805282614080565b610160526101405161018001805115614dcc576040805161016051516020918281816101605101936145448183876130a0565b810160028152030190205415614dbb57826101405101906145758383519286518093819261016051519283916130a0565b81016002815203019020541015614daa5761012061014051019081515115614d995782905191608061014051015185516145c4816145b68682019485614382565b03601f19810183528261300d565b51902060e06101405101518381519101209151936146606101405151918851968795869563bba8d94760e01b875260018060a01b037f0000000000000000000000000000000000000000000000000000000000000000166004880152306024880152610100604488015261463f610104880161016051613234565b936064880152608487015260a48601526003198583030160c4860152613234565b9060e4830152038173__$1a0918a2aa2208593bb0a5d7644cd0946b$__5af4918215614d8c576101805192614d4f575b505015614d3f57505b42815115614d10575b604051600161016051516146bd8184602061016051016130a0565b820191600283526020816101805194030190200155604051600261016051516146ed8184602061016051016130a0565b82019181835260208161018051940301902001556040516003610160515161471c8184602061016051016130a0565b820191600283526020816101805194030190200155429042925115614cf1575b50610140515160806101405101519360a06101405101519460c061014051015195602082015151825151036149d357838310938415614cea5783945b15614cdb5794929097969593955b6147908688614080565b986020840151516147a081613bb5565b906147ae604051928361300d565b8082526147ba81613bb5565b601f19013660208401378160a052610180515b818110614c3257505050906147e46147ed92615afd565b61010052615afd565b9161018051985b604082015180518b1015614a1a578a61480c9161433a565b516101205261010051518a10156149fe57614855868661482f8d6101005161433a565b515b87518e908110156149e557614846908961433a565b51905b6101205160a051615d17565b60e05260e0515160a05151036149d3576101805160c0525b6040610120510151805160c051101561494c5760c05161488c9161433a565b51805160a05151111561025e576148a6815160e05161433a565b51906148b5815160a05161433a565b51610180518112838281031281169084838103139015161761493257610180518184031380614923575b61025e5761018051818403129283614907575b50505061025e57600160c0510160c05261486d565b6020929350906149179103615aec565b910151103880806148f2565b506040820151818403116148df565b634e487b7160e01b61018051526011600452602461018051fd5b5090919293949596610180516080525b60a0515160805110156149bb5761497c6080516040610120510151615f0f565b1580614995575b61025e5760016080510160805261495c565b506149a460805160e05161433a565b516149b360805160a05161433a565b511415614983565b60e05160a052600190990198969594939291906147f4565b6040516329be7c4760e11b8152600490fd5b506040516149f281612ff2565b61018051815290614849565b6148558686604051614a0f81612ff2565b610180518152614831565b5096959450969250965050610180515b60208601518051821015614b4a5781614a4760209360019361433a565b5186614a558360a05161433a565b5191614a6f868b81604051938285809451938492016130a0565b8101600381520301902081610180515286526040610180512092835461018051821315600014614aea57614aab92935080614ad9575b50615aec565b80614ac7575b50505b6101805180825590830155019050614a2a565b614ad291888a615fa7565b3880614ab1565b614ae490848b6141b3565b38614aa5565b90818110614b2c57614b0292935081614b2157613268565b80614b0f575b5050614ab4565b614b1a918989615fa7565b3880614b08565b61343882858d6141b3565b614b3e916134388285614b45976141b3565b90886141b3565b614ab4565b5050949350505050610120610140510151511515600014614bfc5760406101405101516040516020816101605151614b8881838561016051016130a0565b81016002815203019020555b61014051516020610140510151917f6d46d52b5fda2a9055705ba74bf5e95807cfa39decf819cdfeaa14f9b2ba346a6040606061014051015160806101405101518251614be9816145b6602082019485614382565b51902082519182526020820152a4600190565b6040516020816101605151614c1781838561016051016130a0565b81016002815203019020614c2b8154613259565b9055614b94565b614c498160209d9e97999b9d899d9b9d015161433a565b51610180515b828110614cbe57509060019160405160208181614c728c838151938492016130a0565b81016003815203019020906101805152602052614ca482604061018051200154614c9d838b5161433a565b5190615761565b614cae828661433a565b52019b9a9896949b9997996147cd565b81614ccd8260208c015161433a565b51146149d357600101614c4f565b50829492909796959395614786565b8094614778565b6101408051015190919015614d0857505b3861473c565b915090614d02565b5060036040516020816101605151614d2e81838561016051016130a0565b8101600281520301902001546146a2565b51631bd18a1960e31b8152600490fd5b90809250813d8311614d85575b614d66818361300d565b81010312614d7e57614d7790613b8e565b3880614690565b6101805180fd5b503d614d5c565b83513d61018051823e3d90fd5b8351631bd18a1960e31b8152600490fd5b8251633485c51360e21b8152600490fd5b82516388d0662b60e01b8152600490fd5b60016040516020816101605151614de981838561016051016130a0565b8101600281520301902001548015610a2f576020610140510151906020610140805101511515600260405183816101605151614e2b81838561016051016130a0565b810184815203019020015493614ea06060610140510151614e8e60e061014051015161010061014051015192604051998a978897637fa40de560e01b8952600489015260248801526044870152606486015260c0608486015260c4850190613234565b8381036003190160a485015290613234565b038173__$1a0918a2aa2208593bb0a5d7644cd0946b$__5af49182156150a6576101805192615212575b5003615200576101405161012001805151156150ee576040610140510180516040516020816101605151614f0481838561016051016130a0565b8101600281520301902054101561025e5780516020610140510151101561025e576020906080610140510151604051614f44816145b68682019485614382565b51902090519251906101405151614fcd6040519586948594632775acd960e21b865260018060a01b037f000000000000000000000000000000000000000000000000000000000000000016600487015230602487015260e06044870152614fb160e4870161016051613234565b92606487015260848601526003198583030160a4860152613234565b9060c4830152038173__$1a0918a2aa2208593bb0a5d7644cd0946b$__5af49081156150a65761018051916150b4575b50156108815761014080510151151560a06101405101519060c06101405101516101006101405101519273__$1a0918a2aa2208593bb0a5d7644cd0946b$__3b15614d7e57615065604051948593849363065339c960e21b85526101805196600486016144ba565b038173__$1a0918a2aa2208593bb0a5d7644cd0946b$__5af480156150a65761508f575b50614699565b61509890612fc4565b61018051614d7e5738615089565b6040513d61018051823e3d90fd5b90506020813d6020116150e6575b816150cf6020938361300d565b81010312614d7e576150e090613b8e565b38614ffd565b3d91506150c2565b506101408051015115156101405151831014806151d0575b61025e576060610140510151608061014051015160405161512f816145b6602082019485614382565b5190200361025e5761014080510151151560a06101405101519060c061014051015160e06101405101519273__$1a0918a2aa2208593bb0a5d7644cd0946b$__3b15614d7e57615198604051948593849363065339c960e21b85526101805196600486016144ba565b038173__$1a0918a2aa2208593bb0a5d7644cd0946b$__5af480156150a6576151c15750614699565b6151ca90612fc4565b38615089565b50600260405160208161016051516151ee81838561016051016130a0565b81018481520301902001544310615106565b604051630cba69cb60e01b8152600490fd5b9091506020813d60201161523e575b8161522e6020938361300d565b81010312614d7e57519038614eca565b3d9150615221565b929060c0949260018060a01b0380921685521660208401526040830152606082015260a06080820152600060a08201520190565b6001600160a01b03918216815291166020820152604081019190915260600190565b90815180156000146155d25750335b60a08301805115610398576060840160ff8151166020908187019060018060a01b03908183511660409960806152f08c83019460018060601b0394858751169161400f565b9101968b885180156000146155a857505081600052600a87528b6000205480895215615555575b60ff91505b51168061546357505050808251169288519181836024816370a0823160e01b988982523060048301525afa92831561545857600093615428575b50836153956153878c611d8e858798995116918c5190519384916323b872dd60e01b8a84015230336024850161527a565b03601f19810184528361300d565b51169360248a518096819382523060048301525afa90811561541d576000916153ed575b506153c49250613268565b808352156153dc576133bb9394505b519051916141b3565b8451632fd8225d60e21b8152600490fd5b905082813d8311615416575b615403818361300d565b81010312610289576153c49151386153b9565b503d6153f9565b88513d6000823e3d90fd5b9180935082813d8311615451575b615440818361300d565b810103126102895782915192615356565b503d615436565b8a513d6000823e3d90fd5b9194509290600181036154de5750511691511690803b156102895786516323b872dd60e01b81529160009183918290849082906154a59030336004850161527a565b03925af180156154d3576133bb9596506154c4575b50600182526153d3565b6154cd90612fc4565b386154ba565b86513d6000823e3d90fd5b6002146154f5575b505050506133bb9394506153d3565b51169151168351823b156102895761552892600092838a51809681958294637921219560e11b8452303360048601615246565b03925af180156154d3576133bb959650615546575b859481806154e6565b61554f90612fc4565b3861553d565b615582858751168d858751169060ff8551169181519361557485612f73565b84528b8401528201526140c0565b60095460001981019081116104ab5760ff92818a52600052600a88528c60002055615317565b60ff9350906155ba610d8c85936131b3565b878151168952858a820151168752015116815261531c565b6152ab565b90916000908282526020600581526040938484208385528252848420548185526004835285852084865283528585209081546000199888835b83811061569f5750505081109182615686575b5050615632575b505050505050565b6000198603615672576156679550808452600582528484208385528252838581205583526004815283832091835252206132a9565b38808080808061562a565b835260058152838320918352522055615667565b6001925090615694916131e8565b500154153880615623565b8883888c8b6156ae868c6131e8565b5091600180930154928315615751578c866156c98a836131e8565b50540361572d57927f0971ac81b80f99fe0089c3fbe4af4fa1148f2ce78bc6345e76b05be73500de1f949289926157038460019d976131e8565b50015561571183898861420b565b61571b888761424e565b8351928352820152a45b018990615610565b505050505050505090506000198b14615749575b600190615725565b995089615741565b5050505050505060019150615725565b919091600083820193841291129080158216911516176104ab57565b91909182519060208085015190615794848461370f565b60005b60408088019081518051841015615ade576157c0846157b781889461433a565b5151945161433a565b510151906157ce8387614080565b6157d889896142b0565b8311615acf57856157f591818451938285809451938492016130a0565b8101600381520301902088600052855280600020615814838a8a614127565b61581f838254613275565b938482558088109384615ab8575b508315615ab15787935b15615aa857929390935b82519361584d85612f58565b8a6001968787528960005b818110615a6557505083600052878a5285600020826000528a5285600020549083600052888b5286600020836000528b528887600020549101549187519361589f85612f8e565b84528b840152868301526060948583015260808201526158be8661432d565b526158c88561432d565b508351946158d586612f58565b8686528860005b818110615a315750506158f26105eb8385614080565b549185519361590085612fd7565b84528984015284830152828201526159178461432d565b526159218361432d565b5081519386850187865284518091528386019288858360051b8901019601946000905b838210615982575050505050505081600193927f784575545124eef27f8fcc1472fb5f2483beb9cc23e6fe3dbf588eb7bd501f7c920390a101615797565b9091848b829596979899603f198c8203018a528a51906080810191805182528381015184830152868101519260808884015283518091528460a084019401906000905b8082106159ea5750505094808495960151910152990197019201909493929194615944565b939692959197509360a090608089518051835284810151858401528b8101518c8401528d8082015190840152015160808201520196019201928f93928996938c96936159c5565b8698959851615a3f81612fd7565b60008152600083820152898882015260008a82015282828a0101520189909794976158dc565b909192508698959851615a7781612f8e565b60008152600083820152600088820152600060608201526000608082015282828a0101520190898d92989598615858565b50928692615841565b8093615837565b615ac760018401918254615761565b90553861582d565b50600099505050505050505050565b506001985050505050505050565b600160ff1b81146104ab5760000390565b805115615c5a576040805163e3af37e360e01b8152602060048201819052600093849083908190615b32906024830190613234565b0381305afa9182918593615b5e575b5050615b5857505190615b5382612ff2565b815290565b91505090565b909192503d8086843e615b71818461300d565b82018183820312615c565782516001600160401b0393848211615c5257019080601f83011215615c4e57815190615ba782613bb5565b94615bb48851968761300d565b828652848087019360051b85010193828511615c4a57858101935b858510615be55750505050505050903880615b41565b8451838111615c4657820184603f82011215615c465787810151615c0881613030565b91615c158d51938461300d565b818352868d8383010111615c425791615c378a949285948f86850191016130a0565b815201940193615bcf565b8d80fd5b8b80fd5b8980fd5b8680fd5b8780fd5b8580fd5b50604051615c6781612ff2565b6000815290565b3d15615c99573d90615c7f82613030565b91615c8d604051938461300d565b82523d6000602084013e565b606090565b6020908181840312610289578051906001600160401b03821161028957019180601f84011215610289578251615cd381613bb5565b93615ce1604051958661300d565b818552838086019260051b820101928311610289578301905b828210615d08575050505090565b81518152908301908301615cfa565b90919260018060a01b03808451169560405197602098898101906349fbda2960e01b825260048152615d4881612f58565b6000998a92839251915afa615d5b615c6e565b81615f02575b81615edf575b50615e1f57505091615de1615daf9287988695615dc297999899511695015190615dd2604051998a9889978897630c6191f960e11b8952608060048a0152608489019061434e565b60031995868983030160248a0152613234565b9084878303016044880152613234565b91848303016064850152613234565b03915afa918215615e13578092615df757505090565b61309d92503d8091833e615e0b818361300d565b810190615c9e565b604051903d90823e3d90fd5b908891615e948998615e6296615e8586615ead988c51169b015192615e756040519a8b998a019c8d63270c5f3760e21b905260c060248c015260e48b019061434e565b60231995868b83030160448c0152613234565b90848983030160648a0152613234565b91868303016084870152613234565b9160a484015260c483015203601f19810183528261300d565b51915afa90615eba615c6e565b9115615ed257908161309d9282518301019101615c9e565b81511561025e5781519101fd5b90508981805181010312615efe5789615ef89101613b8e565b38615d67565b8880fd5b9050898151101590615d61565b9060005b8251811015615f3e5781615f27828561433a565b515114615f3657600101615f13565b505050600190565b505050600090565b600091829182602083519301915af1615f5d615c6e565b90156119cb578051908115615fa35760208210918215615f80575b50506119cb57565b8192509060209181010312610289576020615f9b9101613b8e565b153880615f78565b5050565b909192801561615157615fdc90615fbe858461330f565b615fc885846142b0565b81811061614b5750805b8161613557613268565b80158015615fec575b5050505050565b831561025e5783831461025e576103985781600052602090600482526040908160002086600052835281600020825161602481612f58565b868152848101918383528054600160401b8110156129c65761604b916001820181556131e8565b9290926132935760019151835551910155836000526004835281600020866000528352816000205460001981019081116104ab577fae767eeb0c57abd46e2e0b422895ba3b89372fbd0510a58f00d996faf66f027d938115616118575b856000526006815283600020886000528152836000206160c9848254613275565b90558560005260088152836000206160e18154613259565b9055856000526007815283600020886000528152836000206161038154613259565b90558351928352820152a43880808080615fe5565b8560005260058152836000208860005281526000848120556160a8565b616140828786614127565b6134388287876141b3565b90615fd2565b5050505056fe1ffe8e6348fe244a8988797c02b57999821149e7b25c9f93a85c77819efdde67ab4d21442efe134c3d0c087e2b687e9593a1c09176f498d37873210cde052c45a18590ca9739b1d76d19b9d85b6a395a7cf75acb1e21e93c88207bf9abce5ae6990f4c22d4b046a9a7d673c4a252b906cadd4f3290465e297f998c28a449652ba26469706673582212202149afe6eaa2d66d6bfcce9675f403a4feb0acba4c7a9b4673b64f176547989164736f6c63430008180033",
  "linkReferences": {
    "contracts/Account.sol": {
      "Account": [
        {
          "length": 20,
          "start": 4343
        },
        {
          "length": 20,
          "start": 7274
        },
        {
          "length": 20,
          "start": 8726
        },
        {
          "length": 20,
          "start": 9297
        },
        {
          "length": 20,
          "start": 18477
        },
        {
          "length": 20,
          "start": 20583
        },
        {
          "length": 20,
          "start": 20890
        },
        {
          "length": 20,
          "start": 20972
        },
        {
          "length": 20,
          "start": 21036
        },
        {
          "length": 20,
          "start": 21279
        },
        {
          "length": 20,
          "start": 21343
        }
      ]
    }
  },
  "deployedLinkReferences": {
    "contracts/Account.sol": {
      "Account": [
        {
          "length": 20,
          "start": 3892
        },
        {
          "length": 20,
          "start": 6823
        },
        {
          "length": 20,
          "start": 8275
        },
        {
          "length": 20,
          "start": 8846
        },
        {
          "length": 20,
          "start": 18026
        },
        {
          "length": 20,
          "start": 20132
        },
        {
          "length": 20,
          "start": 20439
        },
        {
          "length": 20,
          "start": 20521
        },
        {
          "length": 20,
          "start": 20585
        },
        {
          "length": 20,
          "start": 20828
        },
        {
          "length": 20,
          "start": 20892
        }
      ]
    }
  }
}