{
  "_format": "hh-sol-artifact-1",
  "contractName": "Depository",
  "sourceName": "contracts/Depository.sol",
  "abi": [
    {
      "inputs": [],
      "stateMutability": "nonpayable",
      "type": "constructor"
    },
    {
      "inputs": [],
      "name": "E0",
      "type": "error"
    },
    {
      "inputs": [],
      "name": "E1",
      "type": "error"
    },
    {
      "inputs": [],
      "name": "E2",
      "type": "error"
    },
    {
      "inputs": [],
      "name": "E3",
      "type": "error"
    },
    {
      "inputs": [],
      "name": "E4",
      "type": "error"
    },
    {
      "inputs": [],
      "name": "E5",
      "type": "error"
    },
    {
      "inputs": [],
      "name": "E6",
      "type": "error"
    },
    {
      "inputs": [],
      "name": "E7",
      "type": "error"
    },
    {
      "inputs": [],
      "name": "E8",
      "type": "error"
    },
    {
      "inputs": [],
      "name": "E9",
      "type": "error"
    },
    {
      "anonymous": false,
      "inputs": [
        {
          "components": [
            {
              "internalType": "bytes32",
              "name": "left",
              "type": "bytes32"
            },
            {
              "internalType": "bytes32",
              "name": "right",
              "type": "bytes32"
            },
            {
              "internalType": "uint256",
              "name": "tokenId",
              "type": "uint256"
            },
            {
              "internalType": "uint256",
              "name": "leftReserve",
              "type": "uint256"
            },
            {
              "internalType": "uint256",
              "name": "rightReserve",
              "type": "uint256"
            },
            {
              "internalType": "uint256",
              "name": "collateral",
              "type": "uint256"
            },
            {
              "internalType": "int256",
              "name": "ondelta",
              "type": "int256"
            }
          ],
          "indexed": false,
          "internalType": "struct Settled[]",
          "name": "settled",
          "type": "tuple[]"
        }
      ],
      "name": "AccountSettled",
      "type": "event"
    },
    {
      "anonymous": false,
      "inputs": [
        {
          "indexed": true,
          "internalType": "bytes32",
          "name": "sender",
          "type": "bytes32"
        },
        {
          "indexed": true,
          "internalType": "bytes32",
          "name": "counterentity",
          "type": "bytes32"
        },
        {
          "indexed": true,
          "internalType": "uint256",
          "name": "cooperativeNonce",
          "type": "uint256"
        }
      ],
      "name": "CooperativeClose",
      "type": "event"
    },
    {
      "anonymous": false,
      "inputs": [
        {
          "indexed": true,
          "internalType": "bytes32",
          "name": "debtor",
          "type": "bytes32"
        },
        {
          "indexed": true,
          "internalType": "bytes32",
          "name": "creditor",
          "type": "bytes32"
        },
        {
          "indexed": true,
          "internalType": "uint256",
          "name": "tokenId",
          "type": "uint256"
        },
        {
          "indexed": false,
          "internalType": "uint256",
          "name": "amount",
          "type": "uint256"
        },
        {
          "indexed": false,
          "internalType": "uint256",
          "name": "debtIndex",
          "type": "uint256"
        }
      ],
      "name": "DebtCreated",
      "type": "event"
    },
    {
      "anonymous": false,
      "inputs": [
        {
          "indexed": true,
          "internalType": "bytes32",
          "name": "debtor",
          "type": "bytes32"
        },
        {
          "indexed": true,
          "internalType": "bytes32",
          "name": "creditor",
          "type": "bytes32"
        },
        {
          "indexed": true,
          "internalType": "uint256",
          "name": "tokenId",
          "type": "uint256"
        },
        {
          "indexed": false,
          "internalType": "uint256",
          "name": "amountPaid",
          "type": "uint256"
        },
        {
          "indexed": false,
          "internalType": "uint256",
          "name": "remainingAmount",
          "type": "uint256"
        },
        {
          "indexed": false,
          "internalType": "uint256",
          "name": "newDebtIndex",
          "type": "uint256"
        }
      ],
      "name": "DebtEnforced",
      "type": "event"
    },
    {
      "anonymous": false,
      "inputs": [
        {
          "indexed": true,
          "internalType": "bytes32",
          "name": "debtor",
          "type": "bytes32"
        },
        {
          "indexed": true,
          "internalType": "bytes32",
          "name": "creditor",
          "type": "bytes32"
        },
        {
          "indexed": true,
          "internalType": "uint256",
          "name": "tokenId",
          "type": "uint256"
        },
        {
          "indexed": false,
          "internalType": "uint256",
          "name": "amountForgiven",
          "type": "uint256"
        },
        {
          "indexed": false,
          "internalType": "uint256",
          "name": "debtIndex",
          "type": "uint256"
        }
      ],
      "name": "DebtForgiven",
      "type": "event"
    },
    {
      "anonymous": false,
      "inputs": [
        {
          "indexed": true,
          "internalType": "bytes32",
          "name": "sender",
          "type": "bytes32"
        },
        {
          "indexed": true,
          "internalType": "bytes32",
          "name": "counterentity",
          "type": "bytes32"
        },
        {
          "indexed": true,
          "internalType": "uint256",
          "name": "disputeNonce",
          "type": "uint256"
        },
        {
          "indexed": false,
          "internalType": "bytes",
          "name": "initialArguments",
          "type": "bytes"
        }
      ],
      "name": "DisputeStarted",
      "type": "event"
    },
    {
      "anonymous": false,
      "inputs": [
        {
          "indexed": false,
          "internalType": "bool",
          "name": "isPaused",
          "type": "bool"
        }
      ],
      "name": "EmergencyPauseToggled",
      "type": "event"
    },
    {
      "anonymous": false,
      "inputs": [
        {
          "indexed": true,
          "internalType": "address",
          "name": "provider",
          "type": "address"
        }
      ],
      "name": "EntityProviderAdded",
      "type": "event"
    },
    {
      "anonymous": false,
      "inputs": [
        {
          "indexed": true,
          "internalType": "address",
          "name": "provider",
          "type": "address"
        }
      ],
      "name": "EntityProviderRemoved",
      "type": "event"
    },
    {
      "anonymous": false,
      "inputs": [
        {
          "indexed": true,
          "internalType": "bytes32",
          "name": "entityId",
          "type": "bytes32"
        },
        {
          "indexed": true,
          "internalType": "bytes32",
          "name": "hankoHash",
          "type": "bytes32"
        },
        {
          "indexed": false,
          "internalType": "uint256",
          "name": "nonce",
          "type": "uint256"
        },
        {
          "indexed": false,
          "internalType": "bool",
          "name": "success",
          "type": "bool"
        }
      ],
      "name": "HankoBatchProcessed",
      "type": "event"
    },
    {
      "anonymous": false,
      "inputs": [
        {
          "indexed": true,
          "internalType": "bytes32",
          "name": "insured",
          "type": "bytes32"
        },
        {
          "indexed": true,
          "internalType": "bytes32",
          "name": "insurer",
          "type": "bytes32"
        },
        {
          "indexed": true,
          "internalType": "bytes32",
          "name": "creditor",
          "type": "bytes32"
        },
        {
          "indexed": false,
          "internalType": "uint256",
          "name": "tokenId",
          "type": "uint256"
        },
        {
          "indexed": false,
          "internalType": "uint256",
          "name": "amount",
          "type": "uint256"
        }
      ],
      "name": "InsuranceClaimed",
      "type": "event"
    },
    {
      "anonymous": false,
      "inputs": [
        {
          "indexed": true,
          "internalType": "bytes32",
          "name": "insured",
          "type": "bytes32"
        },
        {
          "indexed": true,
          "internalType": "bytes32",
          "name": "insurer",
          "type": "bytes32"
        },
        {
          "indexed": true,
          "internalType": "uint256",
          "name": "tokenId",
          "type": "uint256"
        },
        {
          "indexed": false,
          "internalType": "uint256",
          "name": "limit",
          "type": "uint256"
        },
        {
          "indexed": false,
          "internalType": "uint256",
          "name": "expiresAt",
          "type": "uint256"
        }
      ],
      "name": "InsuranceRegistered",
      "type": "event"
    },
    {
      "anonymous": false,
      "inputs": [
        {
          "indexed": true,
          "internalType": "bytes32",
          "name": "entity",
          "type": "bytes32"
        },
        {
          "indexed": true,
          "internalType": "uint256",
          "name": "tokenId",
          "type": "uint256"
        },
        {
          "indexed": false,
          "internalType": "uint256",
          "name": "newBalance",
          "type": "uint256"
        }
      ],
      "name": "ReserveUpdated",
      "type": "event"
    },
    {
      "anonymous": false,
      "inputs": [],
      "name": "TestModeDisabled",
      "type": "event"
    },
    {
      "inputs": [],
      "name": "DOMAIN_SEPARATOR",
      "outputs": [
        {
          "internalType": "bytes32",
          "name": "",
          "type": "bytes32"
        }
      ],
      "stateMutability": "view",
      "type": "function"
    },
    {
      "inputs": [
        {
          "internalType": "bytes",
          "name": "",
          "type": "bytes"
        }
      ],
      "name": "_accounts",
      "outputs": [
        {
          "internalType": "uint256",
          "name": "cooperativeNonce",
          "type": "uint256"
        },
        {
          "internalType": "bytes32",
          "name": "disputeHash",
          "type": "bytes32"
        },
        {
          "internalType": "uint256",
          "name": "disputeTimeout",
          "type": "uint256"
        }
      ],
      "stateMutability": "view",
      "type": "function"
    },
    {
      "inputs": [
        {
          "internalType": "bytes32",
          "name": "",
          "type": "bytes32"
        }
      ],
      "name": "_activeDebts",
      "outputs": [
        {
          "internalType": "uint256",
          "name": "",
          "type": "uint256"
        }
      ],
      "stateMutability": "view",
      "type": "function"
    },
    {
      "inputs": [
        {
          "internalType": "bytes",
          "name": "",
          "type": "bytes"
        },
        {
          "internalType": "uint256",
          "name": "",
          "type": "uint256"
        }
      ],
      "name": "_collaterals",
      "outputs": [
        {
          "internalType": "uint256",
          "name": "collateral",
          "type": "uint256"
        },
        {
          "internalType": "int256",
          "name": "ondelta",
          "type": "int256"
        }
      ],
      "stateMutability": "view",
      "type": "function"
    },
    {
      "inputs": [
        {
          "internalType": "bytes32",
          "name": "",
          "type": "bytes32"
        },
        {
          "internalType": "uint256",
          "name": "",
          "type": "uint256"
        }
      ],
      "name": "_debtIndex",
      "outputs": [
        {
          "internalType": "uint256",
          "name": "",
          "type": "uint256"
        }
      ],
      "stateMutability": "view",
      "type": "function"
    },
    {
      "inputs": [
        {
          "internalType": "bytes32",
          "name": "",
          "type": "bytes32"
        },
        {
          "internalType": "uint256",
          "name": "",
          "type": "uint256"
        },
        {
          "internalType": "uint256",
          "name": "",
          "type": "uint256"
        }
      ],
      "name": "_debts",
      "outputs": [
        {
          "internalType": "bytes32",
          "name": "creditor",
          "type": "bytes32"
        },
        {
          "internalType": "uint256",
          "name": "amount",
          "type": "uint256"
        }
      ],
      "stateMutability": "view",
      "type": "function"
    },
    {
      "inputs": [
        {
          "internalType": "bytes32",
          "name": "",
          "type": "bytes32"
        },
        {
          "internalType": "uint256",
          "name": "",
          "type": "uint256"
        }
      ],
      "name": "_reserves",
      "outputs": [
        {
          "internalType": "uint256",
          "name": "",
          "type": "uint256"
        }
      ],
      "stateMutability": "view",
      "type": "function"
    },
    {
      "inputs": [
        {
          "internalType": "uint256",
          "name": "",
          "type": "uint256"
        }
      ],
      "name": "_tokens",
      "outputs": [
        {
          "internalType": "bytes32",
          "name": "",
          "type": "bytes32"
        }
      ],
      "stateMutability": "view",
      "type": "function"
    },
    {
      "inputs": [
        {
          "internalType": "bytes32",
          "name": "e1",
          "type": "bytes32"
        },
        {
          "internalType": "bytes32",
          "name": "e2",
          "type": "bytes32"
        }
      ],
      "name": "accountKey",
      "outputs": [
        {
          "internalType": "bytes",
          "name": "",
          "type": "bytes"
        }
      ],
      "stateMutability": "pure",
      "type": "function"
    },
    {
      "inputs": [
        {
          "internalType": "address",
          "name": "provider",
          "type": "address"
        }
      ],
      "name": "addEntityProvider",
      "outputs": [],
      "stateMutability": "nonpayable",
      "type": "function"
    },
    {
      "inputs": [],
      "name": "admin",
      "outputs": [
        {
          "internalType": "address",
          "name": "",
          "type": "address"
        }
      ],
      "stateMutability": "view",
      "type": "function"
    },
    {
      "inputs": [
        {
          "internalType": "address",
          "name": "",
          "type": "address"
        }
      ],
      "name": "approvedEntityProviders",
      "outputs": [
        {
          "internalType": "bool",
          "name": "",
          "type": "bool"
        }
      ],
      "stateMutability": "view",
      "type": "function"
    },
    {
      "inputs": [],
      "name": "defaultDisputeDelay",
      "outputs": [
        {
          "internalType": "uint256",
          "name": "",
          "type": "uint256"
        }
      ],
      "stateMutability": "view",
      "type": "function"
    },
    {
      "inputs": [],
      "name": "disableTestModeForever",
      "outputs": [],
      "stateMutability": "nonpayable",
      "type": "function"
    },
    {
      "inputs": [
        {
          "components": [
            {
              "internalType": "bytes32",
              "name": "counterentity",
              "type": "bytes32"
            },
            {
              "internalType": "uint256",
              "name": "finalCooperativeNonce",
              "type": "uint256"
            },
            {
              "internalType": "uint256",
              "name": "initialDisputeNonce",
              "type": "uint256"
            },
            {
              "internalType": "uint256",
              "name": "finalDisputeNonce",
              "type": "uint256"
            },
            {
              "internalType": "bytes32",
              "name": "initialProofbodyHash",
              "type": "bytes32"
            },
            {
              "components": [
                {
                  "internalType": "int256[]",
                  "name": "offdeltas",
                  "type": "int256[]"
                },
                {
                  "internalType": "uint256[]",
                  "name": "tokenIds",
                  "type": "uint256[]"
                },
                {
                  "components": [
                    {
                      "internalType": "address",
                      "name": "transformerAddress",
                      "type": "address"
                    },
                    {
                      "internalType": "bytes",
                      "name": "encodedBatch",
                      "type": "bytes"
                    },
                    {
                      "components": [
                        {
                          "internalType": "uint256",
                          "name": "deltaIndex",
                          "type": "uint256"
                        },
                        {
                          "internalType": "uint256",
                          "name": "rightAllowance",
                          "type": "uint256"
                        },
                        {
                          "internalType": "uint256",
                          "name": "leftAllowance",
                          "type": "uint256"
                        }
                      ],
                      "internalType": "struct Allowance[]",
                      "name": "allowances",
                      "type": "tuple[]"
                    }
                  ],
                  "internalType": "struct TransformerClause[]",
                  "name": "transformers",
                  "type": "tuple[]"
                }
              ],
              "internalType": "struct ProofBody",
              "name": "finalProofbody",
              "type": "tuple"
            },
            {
              "internalType": "bytes",
              "name": "finalArguments",
              "type": "bytes"
            },
            {
              "internalType": "bytes",
              "name": "initialArguments",
              "type": "bytes"
            },
            {
              "internalType": "bytes",
              "name": "sig",
              "type": "bytes"
            },
            {
              "internalType": "bool",
              "name": "startedByLeft",
              "type": "bool"
            },
            {
              "internalType": "uint256",
              "name": "disputeUntilBlock",
              "type": "uint256"
            },
            {
              "internalType": "bool",
              "name": "cooperative",
              "type": "bool"
            }
          ],
          "internalType": "struct FinalDisputeProof",
          "name": "params",
          "type": "tuple"
        }
      ],
      "name": "disputeFinalize",
      "outputs": [
        {
          "internalType": "bool",
          "name": "",
          "type": "bool"
        }
      ],
      "stateMutability": "nonpayable",
      "type": "function"
    },
    {
      "inputs": [
        {
          "components": [
            {
              "internalType": "bytes32",
              "name": "counterentity",
              "type": "bytes32"
            },
            {
              "internalType": "uint256",
              "name": "cooperativeNonce",
              "type": "uint256"
            },
            {
              "internalType": "uint256",
              "name": "disputeNonce",
              "type": "uint256"
            },
            {
              "internalType": "bytes32",
              "name": "proofbodyHash",
              "type": "bytes32"
            },
            {
              "internalType": "bytes",
              "name": "sig",
              "type": "bytes"
            },
            {
              "internalType": "bytes",
              "name": "initialArguments",
              "type": "bytes"
            }
          ],
          "internalType": "struct InitialDisputeProof",
          "name": "params",
          "type": "tuple"
        }
      ],
      "name": "disputeStart",
      "outputs": [
        {
          "internalType": "bool",
          "name": "",
          "type": "bool"
        }
      ],
      "stateMutability": "nonpayable",
      "type": "function"
    },
    {
      "inputs": [],
      "name": "emergencyPause",
      "outputs": [
        {
          "internalType": "bool",
          "name": "",
          "type": "bool"
        }
      ],
      "stateMutability": "view",
      "type": "function"
    },
    {
      "inputs": [
        {
          "internalType": "bytes32",
          "name": "entity",
          "type": "bytes32"
        },
        {
          "internalType": "uint256",
          "name": "tokenId",
          "type": "uint256"
        }
      ],
      "name": "enforceDebts",
      "outputs": [
        {
          "internalType": "uint256",
          "name": "",
          "type": "uint256"
        }
      ],
      "stateMutability": "nonpayable",
      "type": "function"
    },
    {
      "inputs": [
        {
          "internalType": "bytes32",
          "name": "",
          "type": "bytes32"
        }
      ],
      "name": "entityDisputeDelays",
      "outputs": [
        {
          "internalType": "uint256",
          "name": "",
          "type": "uint256"
        }
      ],
      "stateMutability": "view",
      "type": "function"
    },
    {
      "inputs": [
        {
          "internalType": "address",
          "name": "",
          "type": "address"
        }
      ],
      "name": "entityNonces",
      "outputs": [
        {
          "internalType": "uint256",
          "name": "",
          "type": "uint256"
        }
      ],
      "stateMutability": "view",
      "type": "function"
    },
    {
      "inputs": [
        {
          "internalType": "uint256",
          "name": "",
          "type": "uint256"
        }
      ],
      "name": "entityProvidersList",
      "outputs": [
        {
          "internalType": "address",
          "name": "",
          "type": "address"
        }
      ],
      "stateMutability": "view",
      "type": "function"
    },
    {
      "inputs": [
        {
          "components": [
            {
              "internalType": "bytes32",
              "name": "entity",
              "type": "bytes32"
            },
            {
              "internalType": "bytes32",
              "name": "packedToken",
              "type": "bytes32"
            },
            {
              "internalType": "uint256",
              "name": "internalTokenId",
              "type": "uint256"
            },
            {
              "internalType": "uint256",
              "name": "amount",
              "type": "uint256"
            }
          ],
          "internalType": "struct ExternalTokenToReserve",
          "name": "params",
          "type": "tuple"
        }
      ],
      "name": "externalTokenToReserve",
      "outputs": [],
      "stateMutability": "nonpayable",
      "type": "function"
    },
    {
      "inputs": [],
      "name": "getApprovedProviders",
      "outputs": [
        {
          "internalType": "address[]",
          "name": "",
          "type": "address[]"
        }
      ],
      "stateMutability": "view",
      "type": "function"
    },
    {
      "inputs": [
        {
          "internalType": "uint256",
          "name": "tokenId",
          "type": "uint256"
        }
      ],
      "name": "getTokenMetadata",
      "outputs": [
        {
          "internalType": "address",
          "name": "contractAddress",
          "type": "address"
        },
        {
          "internalType": "uint96",
          "name": "externalTokenId",
          "type": "uint96"
        },
        {
          "internalType": "uint8",
          "name": "tokenType",
          "type": "uint8"
        }
      ],
      "stateMutability": "view",
      "type": "function"
    },
    {
      "inputs": [],
      "name": "getTokensLength",
      "outputs": [
        {
          "internalType": "uint256",
          "name": "",
          "type": "uint256"
        }
      ],
      "stateMutability": "view",
      "type": "function"
    },
    {
      "inputs": [
        {
          "internalType": "bytes32",
          "name": "",
          "type": "bytes32"
        }
      ],
      "name": "insuranceCursor",
      "outputs": [
        {
          "internalType": "uint256",
          "name": "",
          "type": "uint256"
        }
      ],
      "stateMutability": "view",
      "type": "function"
    },
    {
      "inputs": [
        {
          "internalType": "bytes32",
          "name": "",
          "type": "bytes32"
        },
        {
          "internalType": "uint256",
          "name": "",
          "type": "uint256"
        }
      ],
      "name": "insuranceLines",
      "outputs": [
        {
          "internalType": "bytes32",
          "name": "insurer",
          "type": "bytes32"
        },
        {
          "internalType": "uint256",
          "name": "tokenId",
          "type": "uint256"
        },
        {
          "internalType": "uint256",
          "name": "remaining",
          "type": "uint256"
        },
        {
          "internalType": "uint256",
          "name": "expiresAt",
          "type": "uint256"
        }
      ],
      "stateMutability": "view",
      "type": "function"
    },
    {
      "inputs": [
        {
          "internalType": "bytes32",
          "name": "entity",
          "type": "bytes32"
        },
        {
          "internalType": "uint256",
          "name": "tokenId",
          "type": "uint256"
        },
        {
          "internalType": "uint256",
          "name": "amount",
          "type": "uint256"
        }
      ],
      "name": "mintToReserve",
      "outputs": [],
      "stateMutability": "nonpayable",
      "type": "function"
    },
    {
      "inputs": [
        {
          "internalType": "address",
          "name": "",
          "type": "address"
        },
        {
          "internalType": "address",
          "name": "",
          "type": "address"
        },
        {
          "internalType": "uint256[]",
          "name": "",
          "type": "uint256[]"
        },
        {
          "internalType": "uint256[]",
          "name": "",
          "type": "uint256[]"
        },
        {
          "internalType": "bytes",
          "name": "",
          "type": "bytes"
        }
      ],
      "name": "onERC1155BatchReceived",
      "outputs": [
        {
          "internalType": "bytes4",
          "name": "",
          "type": "bytes4"
        }
      ],
      "stateMutability": "pure",
      "type": "function"
    },
    {
      "inputs": [
        {
          "internalType": "address",
          "name": "",
          "type": "address"
        },
        {
          "internalType": "address",
          "name": "from",
          "type": "address"
        },
        {
          "internalType": "uint256",
          "name": "id",
          "type": "uint256"
        },
        {
          "internalType": "uint256",
          "name": "value",
          "type": "uint256"
        },
        {
          "internalType": "bytes",
          "name": "",
          "type": "bytes"
        }
      ],
      "name": "onERC1155Received",
      "outputs": [
        {
          "internalType": "bytes4",
          "name": "",
          "type": "bytes4"
        }
      ],
      "stateMutability": "nonpayable",
      "type": "function"
    },
    {
      "inputs": [
        {
          "internalType": "uint8",
          "name": "tokenType",
          "type": "uint8"
        },
        {
          "internalType": "address",
          "name": "contractAddress",
          "type": "address"
        },
        {
          "internalType": "uint96",
          "name": "externalTokenId",
          "type": "uint96"
        }
      ],
      "name": "packTokenReference",
      "outputs": [
        {
          "internalType": "bytes32",
          "name": "",
          "type": "bytes32"
        }
      ],
      "stateMutability": "pure",
      "type": "function"
    },
    {
      "inputs": [
        {
          "internalType": "bytes32",
          "name": "entity",
          "type": "bytes32"
        },
        {
          "components": [
            {
              "components": [
                {
                  "internalType": "uint256",
                  "name": "tokenId",
                  "type": "uint256"
                },
                {
                  "internalType": "uint256",
                  "name": "amount",
                  "type": "uint256"
                }
              ],
              "internalType": "struct Flashloan[]",
              "name": "flashloans",
              "type": "tuple[]"
            },
            {
              "components": [
                {
                  "internalType": "bytes32",
                  "name": "receivingEntity",
                  "type": "bytes32"
                },
                {
                  "internalType": "uint256",
                  "name": "tokenId",
                  "type": "uint256"
                },
                {
                  "internalType": "uint256",
                  "name": "amount",
                  "type": "uint256"
                }
              ],
              "internalType": "struct ReserveToReserve[]",
              "name": "reserveToReserve",
              "type": "tuple[]"
            },
            {
              "components": [
                {
                  "internalType": "uint256",
                  "name": "tokenId",
                  "type": "uint256"
                },
                {
                  "internalType": "bytes32",
                  "name": "receivingEntity",
                  "type": "bytes32"
                },
                {
                  "components": [
                    {
                      "internalType": "bytes32",
                      "name": "entity",
                      "type": "bytes32"
                    },
                    {
                      "internalType": "uint256",
                      "name": "amount",
                      "type": "uint256"
                    }
                  ],
                  "internalType": "struct EntityAmount[]",
                  "name": "pairs",
                  "type": "tuple[]"
                }
              ],
              "internalType": "struct ReserveToCollateral[]",
              "name": "reserveToCollateral",
              "type": "tuple[]"
            },
            {
              "components": [
                {
                  "internalType": "bytes32",
                  "name": "leftEntity",
                  "type": "bytes32"
                },
                {
                  "internalType": "bytes32",
                  "name": "rightEntity",
                  "type": "bytes32"
                },
                {
                  "components": [
                    {
                      "internalType": "uint256",
                      "name": "tokenId",
                      "type": "uint256"
                    },
                    {
                      "internalType": "int256",
                      "name": "leftDiff",
                      "type": "int256"
                    },
                    {
                      "internalType": "int256",
                      "name": "rightDiff",
                      "type": "int256"
                    },
                    {
                      "internalType": "int256",
                      "name": "collateralDiff",
                      "type": "int256"
                    },
                    {
                      "internalType": "int256",
                      "name": "ondeltaDiff",
                      "type": "int256"
                    }
                  ],
                  "internalType": "struct SettlementDiff[]",
                  "name": "diffs",
                  "type": "tuple[]"
                },
                {
                  "internalType": "uint256[]",
                  "name": "forgiveDebtsInTokenIds",
                  "type": "uint256[]"
                },
                {
                  "components": [
                    {
                      "internalType": "bytes32",
                      "name": "insured",
                      "type": "bytes32"
                    },
                    {
                      "internalType": "bytes32",
                      "name": "insurer",
                      "type": "bytes32"
                    },
                    {
                      "internalType": "uint256",
                      "name": "tokenId",
                      "type": "uint256"
                    },
                    {
                      "internalType": "uint256",
                      "name": "limit",
                      "type": "uint256"
                    },
                    {
                      "internalType": "uint256",
                      "name": "expiresAt",
                      "type": "uint256"
                    }
                  ],
                  "internalType": "struct InsuranceRegistration[]",
                  "name": "insuranceRegs",
                  "type": "tuple[]"
                },
                {
                  "internalType": "bytes",
                  "name": "sig",
                  "type": "bytes"
                },
                {
                  "internalType": "address",
                  "name": "entityProvider",
                  "type": "address"
                },
                {
                  "internalType": "bytes",
                  "name": "hankoData",
                  "type": "bytes"
                },
                {
                  "internalType": "uint256",
                  "name": "nonce",
                  "type": "uint256"
                }
              ],
              "internalType": "struct Settlement[]",
              "name": "settlements",
              "type": "tuple[]"
            },
            {
              "components": [
                {
                  "internalType": "bytes32",
                  "name": "counterentity",
                  "type": "bytes32"
                },
                {
                  "internalType": "uint256",
                  "name": "cooperativeNonce",
                  "type": "uint256"
                },
                {
                  "internalType": "uint256",
                  "name": "disputeNonce",
                  "type": "uint256"
                },
                {
                  "internalType": "bytes32",
                  "name": "proofbodyHash",
                  "type": "bytes32"
                },
                {
                  "internalType": "bytes",
                  "name": "sig",
                  "type": "bytes"
                },
                {
                  "internalType": "bytes",
                  "name": "initialArguments",
                  "type": "bytes"
                }
              ],
              "internalType": "struct InitialDisputeProof[]",
              "name": "disputeStarts",
              "type": "tuple[]"
            },
            {
              "components": [
                {
                  "internalType": "bytes32",
                  "name": "counterentity",
                  "type": "bytes32"
                },
                {
                  "internalType": "uint256",
                  "name": "finalCooperativeNonce",
                  "type": "uint256"
                },
                {
                  "internalType": "uint256",
                  "name": "initialDisputeNonce",
                  "type": "uint256"
                },
                {
                  "internalType": "uint256",
                  "name": "finalDisputeNonce",
                  "type": "uint256"
                },
                {
                  "internalType": "bytes32",
                  "name": "initialProofbodyHash",
                  "type": "bytes32"
                },
                {
                  "components": [
                    {
                      "internalType": "int256[]",
                      "name": "offdeltas",
                      "type": "int256[]"
                    },
                    {
                      "internalType": "uint256[]",
                      "name": "tokenIds",
                      "type": "uint256[]"
                    },
                    {
                      "components": [
                        {
                          "internalType": "address",
                          "name": "transformerAddress",
                          "type": "address"
                        },
                        {
                          "internalType": "bytes",
                          "name": "encodedBatch",
                          "type": "bytes"
                        },
                        {
                          "components": [
                            {
                              "internalType": "uint256",
                              "name": "deltaIndex",
                              "type": "uint256"
                            },
                            {
                              "internalType": "uint256",
                              "name": "rightAllowance",
                              "type": "uint256"
                            },
                            {
                              "internalType": "uint256",
                              "name": "leftAllowance",
                              "type": "uint256"
                            }
                          ],
                          "internalType": "struct Allowance[]",
                          "name": "allowances",
                          "type": "tuple[]"
                        }
                      ],
                      "internalType": "struct TransformerClause[]",
                      "name": "transformers",
                      "type": "tuple[]"
                    }
                  ],
                  "internalType": "struct ProofBody",
                  "name": "finalProofbody",
                  "type": "tuple"
                },
                {
                  "internalType": "bytes",
                  "name": "finalArguments",
                  "type": "bytes"
                },
                {
                  "internalType": "bytes",
                  "name": "initialArguments",
                  "type": "bytes"
                },
                {
                  "internalType": "bytes",
                  "name": "sig",
                  "type": "bytes"
                },
                {
                  "internalType": "bool",
                  "name": "startedByLeft",
                  "type": "bool"
                },
                {
                  "internalType": "uint256",
                  "name": "disputeUntilBlock",
                  "type": "uint256"
                },
                {
                  "internalType": "bool",
                  "name": "cooperative",
                  "type": "bool"
                }
              ],
              "internalType": "struct FinalDisputeProof[]",
              "name": "disputeFinalizations",
              "type": "tuple[]"
            },
            {
              "components": [
                {
                  "internalType": "bytes32",
                  "name": "entity",
                  "type": "bytes32"
                },
                {
                  "internalType": "bytes32",
                  "name": "packedToken",
                  "type": "bytes32"
                },
                {
                  "internalType": "uint256",
                  "name": "internalTokenId",
                  "type": "uint256"
                },
                {
                  "internalType": "uint256",
                  "name": "amount",
                  "type": "uint256"
                }
              ],
              "internalType": "struct ExternalTokenToReserve[]",
              "name": "externalTokenToReserve",
              "type": "tuple[]"
            },
            {
              "components": [
                {
                  "internalType": "bytes32",
                  "name": "receivingEntity",
                  "type": "bytes32"
                },
                {
                  "internalType": "uint256",
                  "name": "tokenId",
                  "type": "uint256"
                },
                {
                  "internalType": "uint256",
                  "name": "amount",
                  "type": "uint256"
                }
              ],
              "internalType": "struct ReserveToExternalToken[]",
              "name": "reserveToExternalToken",
              "type": "tuple[]"
            },
            {
              "internalType": "uint256",
              "name": "hub_id",
              "type": "uint256"
            }
          ],
          "internalType": "struct Batch",
          "name": "batch",
          "type": "tuple"
        }
      ],
      "name": "processBatch",
      "outputs": [
        {
          "internalType": "bool",
          "name": "completeSuccess",
          "type": "bool"
        }
      ],
      "stateMutability": "nonpayable",
      "type": "function"
    },
    {
      "inputs": [
        {
          "internalType": "bytes",
          "name": "encodedBatch",
          "type": "bytes"
        },
        {
          "internalType": "address",
          "name": "entityProvider",
          "type": "address"
        },
        {
          "internalType": "bytes",
          "name": "hankoData",
          "type": "bytes"
        },
        {
          "internalType": "uint256",
          "name": "nonce",
          "type": "uint256"
        }
      ],
      "name": "processBatchWithHanko",
      "outputs": [
        {
          "internalType": "bool",
          "name": "completeSuccess",
          "type": "bool"
        }
      ],
      "stateMutability": "nonpayable",
      "type": "function"
    },
    {
      "inputs": [
        {
          "internalType": "address",
          "name": "provider",
          "type": "address"
        }
      ],
      "name": "removeEntityProvider",
      "outputs": [],
      "stateMutability": "nonpayable",
      "type": "function"
    },
    {
      "inputs": [
        {
          "internalType": "bytes32",
          "name": "fromEntity",
          "type": "bytes32"
        },
        {
          "internalType": "bytes32",
          "name": "toEntity",
          "type": "bytes32"
        },
        {
          "internalType": "uint256",
          "name": "tokenId",
          "type": "uint256"
        },
        {
          "internalType": "uint256",
          "name": "amount",
          "type": "uint256"
        }
      ],
      "name": "reserveToReserve",
      "outputs": [
        {
          "internalType": "bool",
          "name": "",
          "type": "bool"
        }
      ],
      "stateMutability": "nonpayable",
      "type": "function"
    },
    {
      "inputs": [
        {
          "internalType": "uint256",
          "name": "delayBlocks",
          "type": "uint256"
        }
      ],
      "name": "setDefaultDisputeDelay",
      "outputs": [],
      "stateMutability": "nonpayable",
      "type": "function"
    },
    {
      "inputs": [
        {
          "internalType": "bool",
          "name": "isPaused",
          "type": "bool"
        }
      ],
      "name": "setEmergencyPause",
      "outputs": [],
      "stateMutability": "nonpayable",
      "type": "function"
    },
    {
      "inputs": [
        {
          "internalType": "bytes32",
          "name": "entity",
          "type": "bytes32"
        },
        {
          "internalType": "uint256",
          "name": "delayBlocks",
          "type": "uint256"
        }
      ],
      "name": "setEntityDisputeDelay",
      "outputs": [],
      "stateMutability": "nonpayable",
      "type": "function"
    },
    {
      "inputs": [
        {
          "internalType": "bytes32",
          "name": "leftEntity",
          "type": "bytes32"
        },
        {
          "internalType": "bytes32",
          "name": "rightEntity",
          "type": "bytes32"
        },
        {
          "components": [
            {
              "internalType": "uint256",
              "name": "tokenId",
              "type": "uint256"
            },
            {
              "internalType": "int256",
              "name": "leftDiff",
              "type": "int256"
            },
            {
              "internalType": "int256",
              "name": "rightDiff",
              "type": "int256"
            },
            {
              "internalType": "int256",
              "name": "collateralDiff",
              "type": "int256"
            },
            {
              "internalType": "int256",
              "name": "ondeltaDiff",
              "type": "int256"
            }
          ],
          "internalType": "struct SettlementDiff[]",
          "name": "diffs",
          "type": "tuple[]"
        },
        {
          "internalType": "uint256[]",
          "name": "forgiveDebtsInTokenIds",
          "type": "uint256[]"
        },
        {
          "components": [
            {
              "internalType": "bytes32",
              "name": "insured",
              "type": "bytes32"
            },
            {
              "internalType": "bytes32",
              "name": "insurer",
              "type": "bytes32"
            },
            {
              "internalType": "uint256",
              "name": "tokenId",
              "type": "uint256"
            },
            {
              "internalType": "uint256",
              "name": "limit",
              "type": "uint256"
            },
            {
              "internalType": "uint256",
              "name": "expiresAt",
              "type": "uint256"
            }
          ],
          "internalType": "struct InsuranceRegistration[]",
          "name": "insuranceRegs",
          "type": "tuple[]"
        },
        {
          "internalType": "bytes",
          "name": "sig",
          "type": "bytes"
        }
      ],
      "name": "settle",
      "outputs": [
        {
          "internalType": "bool",
          "name": "",
          "type": "bool"
        }
      ],
      "stateMutability": "nonpayable",
      "type": "function"
    },
    {
      "inputs": [],
      "name": "testMode",
      "outputs": [
        {
          "internalType": "bool",
          "name": "",
          "type": "bool"
        }
      ],
      "stateMutability": "view",
      "type": "function"
    },
    {
      "inputs": [
        {
          "internalType": "bytes32",
          "name": "",
          "type": "bytes32"
        }
      ],
      "name": "tokenToId",
      "outputs": [
        {
          "internalType": "uint256",
          "name": "",
          "type": "uint256"
        }
      ],
      "stateMutability": "view",
      "type": "function"
    },
    {
      "inputs": [
        {
          "internalType": "bytes32",
          "name": "packed",
          "type": "bytes32"
        }
      ],
      "name": "unpackTokenReference",
      "outputs": [
        {
          "internalType": "address",
          "name": "contractAddress",
          "type": "address"
        },
        {
          "internalType": "uint96",
          "name": "externalTokenId",
          "type": "uint96"
        },
        {
          "internalType": "uint8",
          "name": "tokenType",
          "type": "uint8"
        }
      ],
      "stateMutability": "pure",
      "type": "function"
    }
  ],
  "bytecode": "0x60a08060405234620000e457600060018155601460065561010061ff0019600b541617600b5533608052600d5468010000000000000000811015620000d0576001810180600d55811015620000bc57600d82527fd7b6990105719101dabeb77144f2a3385c8033acd3af97e9423a695e81ad1eb50155615cb29081620000ea823960805181818161054e015281816105ad015281816107e20152818161089b01528181610ac801528181610d5b015281816110db01526112e60152f35b634e487b7160e01b82526032600452602482fd5b634e487b7160e01b82526041600452602482fd5b600080fdfe608060408181526004918236101561001657600080fd5b600092833560e01c9182630c0a46a8146118fd575081630dedd6241461188f578163125c2cc41461181c5781631e40079c146117bf578163266afe1b146116fa57816331cf2a56146116535781633644e5151461162a5781633925cd44146114d157816351858e27146114ad57816355ca622a146113db57816358d642bc146112c1578163603168011461125c5781636b79134d146112345781637508b9161461120857816382cd19aa146111a357816388a1cd76146111585781638fdfafe5146110c7578163907efb1b146110a857816392cf61e5146110565781639304677d1461101e57816396954a9f14610ff6578163abc8d1ac14610fb8578163acd6f20814610f8c578163b0c26ecf14610f6d578163bb2c250c14610e90578163bc197c8114610dea578163cd9ea34214610dc3578163d148b4c814610d43578163d19fd92e14610d1b578163d57bb1d614610b10578163d8d1a65714610aa7578163dd865c8b14610a42578163ddc3948014610873578163e812c569146107cc578163ec6d8e061461078b578163ed70554d14610752578163f176e32614610714578163f23a6e61146105dc578163f851a44014610598578163fbd6d63f1461053a578163fbfe1b5714610218575063fc3c4c3e146101f357600080fd5b346102145760209061020d61020736611adf565b90614d14565b9051908152f35b5080fd5b91905034610536576080366003190112610536576001600160401b039282358481116102145761024b9036908501612086565b610256959195611cf4565b956044358381116105325761026e9036908801612086565b9390926064359760ff600b541661052457600287541461051657600287556001600160a01b03998a168088526001602090815289892054909b919060ff16156104e75789516359516e5f60e01b8152600080516020615c3d8339815191528185015246602482015230604482015260a06064820152969594939291908c88808e6102fc60a48301898c612dea565b906084830152038173__$1a0918a2aa2208593bb0a5d7644cd0946b$__5af49788156104dd57908b918b996104a4575b508151631155a0c560e31b81528481018390529889919082908190610355604483018f8e612dea565b90602483015203915afa801561049a5789978a9161045b575b50158015610453575b61044457861690818952600f8c528989205460018101809111610431578b0361042357508752600f8a528888882055820191898184031261041f57803591821161041f576001969594936103fb6103f57fbd6e57133956b4a3944b483a9e595b4aab16071cf15a39384fdb1b7015865aab958b9561040395016125e7565b86612ffd565b953691611a62565b898151910120938151988952151597888a820152a35551908152f35b8680fd5b8951633485c51360e21b8152fd5b634e487b7160e01b8a526011825260248afd5b508851631bd18a1960e31b8152fd5b508615610377565b8098508b8092503d8311610493575b6104748183611a24565b8101031261048f576104898c885198016121ab565b3861036e565b8880fd5b503d61046a565b8a513d8b823e3d90fd5b8e80929a508193503d83116104d6575b6104be8183611a24565b810103126104d25751968a9061035561032c565b8980fd5b503d6104b4565b8b513d8c823e3d90fd5b895162461bcd60e51b81528084018d9052600960248201526810b83937bb34b232b960b91b6044820152606490fd5b8751633018d46b60e11b8152fd5b8751633485c51360e21b8152fd5b8480fd5b8280fd5b919050346105365761054b36611adf565b927f00000000000000000000000000000000000000000000000000000000000000006001600160a01b0316330361058a57508352600760205282205580f35b8251633485c51360e21b8152fd5b505034610214578160031936011261021457517f00000000000000000000000000000000000000000000000000000000000000006001600160a01b03168152602090f35b9050346105365760a0366003190112610536576105f7611cde565b50610600611cf4565b506084356001600160401b0381116107105761061f9036908301612086565b50508151632ecb094360e21b8152600282820152336024820152604480356001600160601b03169082015260209390848160648173__$1a0918a2aa2208593bb0a5d7644cd0946b$__5af49081156107065782916106d9575b50808252600e8552838220541561069a575b5050505163f23a6e6160e01b8152f35b6106a381612db3565b600d546000198101939084116106c657508152600e84528290205538808061068a565b634e487b7160e01b835260119052602482fd5b90508481813d83116106ff575b6106f08183611a24565b81010312610214575138610678565b503d6106e6565b84513d84823e3d90fd5b8380fd5b82843461074f578160031936011261074f575061073861074b926024359035612d73565b9051918291602083526020830190612165565b0390f35b80fd5b905034610536576020366003190112610536573591600d5483101561074f575061077d60209261214a565b91905490519160031b1c8152f35b90503461053657602036600319011261053657359160025483101561074f57506107b660209261212f565b905491519160018060a01b039160031b1c168152f35b905034610536576107dc36612020565b909391927f00000000000000000000000000000000000000000000000000000000000000006001600160a01b0316330361058a5781156108655750600080516020615c1d8339815191529160209184875260038352818720868852835261084782882091825461255c565b9055838652600382528086208587528252808620549051908152a380f35b825163440a57bf60e01b8152fd5b839150346102145760203660031901126102145761088f611cde565b6001600160a01b0391907f000000000000000000000000000000000000000000000000000000000000000083163303610a33578216916108d0831515612c37565b828452600191600160205260ff868620541615610a0a57849584849596526001602052862060ff19815416905585935b61092e575b85857f67c5a35d33d48c47ef33c82c62eda6254aad034fab4c51abe26a6d06ad174a348280a280f35b600280549081861015610a03578391876109478861212f565b949054600395861b1c1614610963575050508280940193610900565b919590945060001992918381019081116109f05790610995856109886109b39461212f565b9054908a1b1c169161212f565b90919060018060a01b038084549260031b9316831b921b1916179055565b83549081156109dd575001926109c88461212f565b81939154921b1b191690555582808080610905565b634e487b7160e01b885260319052602487fd5b634e487b7160e01b895260118352602489fd5b5050610905565b606490602087519162461bcd60e51b83528201526003602482015262216f6b60e81b6044820152fd5b508351633485c51360e21b8152fd5b90503461053657608036600319011261053657815191610a6183611989565b8135835260243560208401526044358184015260643560608401526002845414610a9a5783610a938460028355614710565b6001815580f35b51633018d46b60e11b8152fd5b905034610536576020366003190112610536578035918215158303610710577f00000000000000000000000000000000000000000000000000000000000000006001600160a01b03163303610b035783610b0084612d22565b80f35b51633485c51360e21b8152fd5b91905034610536576020928360031936011261074f5782356001600160401b03811161021457610b4390369085016120b3565b6002825414610d0c578490600283558351610b5d816119c0565b60019160018252845b848110610cce5750610b778261218a565b52610b818161218a565b50600654855196879363b3f1ff7d60e01b855260848501918086015233602486015260809160806044870152845180915260a48601928760a48360051b89010196019389915b838310610c55575050505050509082916064830152038173__$1a0918a2aa2208593bb0a5d7644cd0946b$__5af4928315610c49578193610c10575b5060019055519015158152f35b9092508381813d8311610c42575b610c288183611a24565b8101031261053657610c3b6001916121ab565b9290610c03565b503d610c1e565b509051903d90823e3d90fd5b92959798610cba859882939694979b60a3199082030187528d610ca78d519160c0908351855286840151878601528084015190850152606080840151908501528883015190808a860152840190612165565b9160a08092015191818403910152612165565b9901930193018b979592938b979592610bc7565b869491929451610cdd81611922565b868152868382015286888201526060878183015280608083015260a08201528282870101520190879391610b66565b505051633018d46b60e11b8152fd5b905034610536576020366003190112610536576020928291358152600e845220549051908152f35b905034610536576020366003190112610536578035917f00000000000000000000000000000000000000000000000000000000000000006001600160a01b03163303610b03578215610d9757505060065580f35b906020606492519162461bcd60e51b835282015260066024820152652164656c617960d01b6044820152fd5b50503461021457816003193601126102145760209060ff600b5460081c1690519015158152f35b9050823461074f5760a036600319011261074f57610e06611cde565b50610e0f611cf4565b506001600160401b039060443582811161021457610e309036908501612056565b505060643582811161021457610e499036908501612056565b505060843591821161074f5750606492610e6860209236908501612086565b50505162461bcd60e51b8152918201526006602482015265042c4c2e8c6d60d31b6044820152fd5b9190503461053657606036600319011261053657813560ff811680910361071057610eb9611cf4565b6044356001600160601b0381169290839003610f69578351632ecb094360e21b8152948501526001600160a01b03166024840152604483015260208260648173__$1a0918a2aa2208593bb0a5d7644cd0946b$__5af4918215610f5f578392610f27575b6020838351908152f35b9091506020813d602011610f57575b81610f4360209383611a24565b810103126105365760209250519038610f1d565b3d9150610f36565b81513d85823e3d90fd5b8580fd5b505034610214578160031936011261021457602090600d549051908152f35b5050346102145780602092610fa036611adf565b90825260038552828220908252845220549051908152f35b5050346102145760203660031901126102145760209160ff9082906001600160a01b03610fe3611cde565b1681526001855220541690519015158152f35b9050346105365760203660031901126105365760209282913581526007845220549051908152f35b5050346102145760203660031901126102145760209181906001600160a01b03611046611cde565b168152600f845220549051908152f35b82843461074f57602036600319011261074f575061107761074b9235612c6b565b92516001600160a01b0390921682526001600160601b0316602082015260ff90911660408201529081906060820190565b5050346102145781600319360112610214576020906006549051908152f35b9050346105365782600319360112610536577f00000000000000000000000000000000000000000000000000000000000000006001600160a01b0316330361114a57600b549160ff8360081c1615610b0357505061ff001916600b557f2d1a45ef958c367e9e35cbc9b77fa395634f978402b5a218b775b23b998c18698180a180f35b9051633485c51360e21b8152fd5b5050346102145761116836612020565b91845260086020528284209084526020528183208054821015610710579061118f9161203a565b506001815491015482519182526020820152f35b8383346102145760203660031901126102145782356001600160401b038111610536576111d39036908501611d2b565b9260028354146111fa575060016111f06020946002855533613c90565b9255519015158152f35b9051633018d46b60e11b8152fd5b505034610214578060209261121c36611adf565b90825260098552828220908252845220549051908152f35b905034610536576020366003190112610536576020928291358152600a845220549051908152f35b82843461074f57602036600319011261074f5750813591600d54831015611299575061107761128d61074b9361214a565b90549060031b1c612c6b565b606491519062461bcd60e51b825260208183015260248201526321746f6b60e01b6044820152fd5b838334610214576020366003190112610214576112dc611cde565b6001600160a01b037f0000000000000000000000000000000000000000000000000000000000000000811633036113cb5781169161131b831515612c37565b828452600160205260ff81852054166113a05782845260016020528320600160ff19825416179055600254600160401b81101561138d5790610995826001611366940160025561212f565b7fc395b1bd803c744a815bc34a0426e5eaac03513b9d76bf237a734a004916499c8280a280f35b634e487b7160e01b845260418552602484fd5b5162461bcd60e51b8152602081860152600660248201526565786973747360d01b6044820152606490fd5b8251633485c51360e21b81528590fd5b83833461021457600319818136011261053657602435906001600160401b0390818311610532576101208336039182011261053257600b5460ff811661149d57600286541461148d576002865560081c60ff161561147d57602483013590602219018112156105325782019085820135908111610532576060602491023603910113610536576111f0602094611476600193369083016125e7565b9035612ffd565b8351633485c51360e21b81528690fd5b8451633018d46b60e11b81528790fd5b8451633485c51360e21b81528790fd5b50503461021457816003193601126102145760209060ff600b541690519015158152f35b82843461074f57608036600319011261074f57823560243560443591606435600b5460ff811661161a57600286541461160a576002865560081c60ff16156115fa578282146115fa5780156115ea5761152a8483614a20565b508185526020966003885286862085875288528187872054106115dc575083828892879695946001985260038452888720838852845288872061156e828254612539565b905584875260038452888720838852845261158d89882091825461255c565b9055808652600383528786208287528352878620548851908152600080516020615c1d833981519152938491a381845260038752858420838552875286868520548751908152a3555160018152f35b8651632fd8225d60e21b8152fd5b855163440a57bf60e01b81528790fd5b8551633485c51360e21b81528790fd5b8651633018d46b60e11b81528890fd5b8651633485c51360e21b81528890fd5b50503461021457816003193601126102145760209051600080516020615c3d8339815191528152f35b8383346102145760c0366003190112610214576001600160401b03604435818111610710576116859036908601611b3e565b906064358181116105325761169d9036908701611bde565b608435828111610f69576116b49036908801611c3e565b9160a435908111610f69576116cc9036908801611a9e565b9260ff600b541661149d57600286541461148d5791600193916111f0936020986002895560243590356121b8565b82843461074f578060031936011261074f578151600280548083529083526020939284830192909183907f405787fa12a823e0f2b7631cc41b3ba8828b3321ca811111fa75cd3aa3bb5ace90845b8181106117a2575050508161175e910382611a24565b83519485948186019282875251809352850193925b82811061178257505050500390f35b83516001600160a01b031685528695509381019392810192600101611773565b82546001600160a01b031684529288019260019283019201611748565b505034610214576117cf36611adf565b92908152601060205281812090815484101561074f57506080926117f291611af5565b50908154916001810154916003600283015492015492815194855260208501528301526060820152f35b82843461074f57602036600319011261074f578235906001600160401b03821161074f575060206060936118566118699336908301611a9e565b9082855194838680955193849201611abc565b820190815203019020805491600260018301549201549181519384526020840152820152f35b90503461053657816003193601126105365780356001600160401b0381116107105760206118c58495936118d793369101611a9e565b81855193828580945193849201611abc565b810160058152030190206024358252602052206001815491015482519182526020820152f35b929150346107105760203660031901126107105792602093358152600c845220548152f35b60c081019081106001600160401b0382111761193d57604052565b634e487b7160e01b600052604160045260246000fd5b60a081019081106001600160401b0382111761193d57604052565b606081019081106001600160401b0382111761193d57604052565b608081019081106001600160401b0382111761193d57604052565b61012081019081106001600160401b0382111761193d57604052565b604081019081106001600160401b0382111761193d57604052565b6001600160401b03811161193d57604052565b60e081019081106001600160401b0382111761193d57604052565b602081019081106001600160401b0382111761193d57604052565b601f909101601f19168101906001600160401b0382119082101761193d57604052565b6001600160401b03811161193d57601f01601f191660200190565b929192611a6e82611a47565b91611a7c6040519384611a24565b829481845281830111611a99578281602093846000960137010152565b600080fd5b9080601f83011215611a9957816020611ab993359101611a62565b90565b60005b838110611acf5750506000910152565b8181015183820152602001611abf565b6040906003190112611a99576004359060243590565b8054821015611b115760005260206000209060021b0190600090565b634e487b7160e01b600052603260045260246000fd5b6001600160401b03811161193d5760051b60200190565b81601f82011215611a99578035906020611b5783611b27565b936040611b676040519687611a24565b848652828601918360a080970286010194818611611a99578401925b858410611b94575050505050505090565b8684830312611a99578487918451611bab81611953565b86358152828701358382015285870135868201526060808801359082015260808088013590820152815201930192611b83565b9080601f83011215611a99576020908235611bf881611b27565b93611c066040519586611a24565b81855260208086019260051b820101928311611a9957602001905b828210611c2f575050505090565b81358152908301908301611c21565b81601f82011215611a99578035906020611c5783611b27565b936040611c676040519687611a24565b848652828601918360a080970286010194818611611a99578401925b858410611c94575050505050505090565b8684830312611a99578487918451611cab81611953565b86358152828701358382015285870135868201526060808801359082015260808088013590820152815201930192611c83565b600435906001600160a01b0382168203611a9957565b602435906001600160a01b0382168203611a9957565b35906001600160a01b0382168203611a9957565b35908115158203611a9957565b919091610180908181850312611a995760408051909490926001600160401b039084018181118582101761193d57865283958335855260208085013581870152818501358287015260609182860135838801526080860135608088015260a0860135848111611a99578601928084870312611a9957815193611dac8561196e565b8035868111611a9957810187601f82011215611a9957803590611dce82611b27565b91611ddb86519384611a24565b808352868084019160051b830101918a8311611a995787809101915b8383106120105750505050855283810135868111611a995787611e1b918301611bde565b848601528281013590868211611a9957019286601f85011215611a9957833593611e4485611b27565b94611e5185519687611a24565b808652828087019160051b83010191898311611a9957838101915b838310611f095750505050505082015260a085015260c0830135818111611a995782611e99918501611a9e565b60c085015260e0830135818111611a995782611eb6918501611a9e565b60e08501526101009182840135918211611a9957611ed5918401611a9e565b90830152610120611ee7818301611d1e565b908301526101408082013590830152611f04610160809201611d1e565b910152565b82358a8111611a99578201808c03601f19018713611a9957875190611f2d8261196e565b611f38878201611d0a565b8252888101358c8111611a99578d88611f5392840101611a9e565b8783015287810135908c8211611a9957018c603f82011215611a99578c87820135611f7d81611b27565b92611f8a8c519485611a24565b8184528b8b8b86019302820101928311611a9957918f9593918b8d8c979501975b838910611fc857505050508394508a820152815201920191611e6c565b889496989192939597500312611a9957898b918d805190611fe88261196e565b85358252838601358483015280860135908201528152019101949290918f928b8b9694611fab565b8235815291810191889101611df7565b6060906003190112611a9957600435906024359060443590565b8054821015611b115760005260206000209060011b0190600090565b9181601f84011215611a99578235916001600160401b038311611a99576020808501948460051b010111611a9957565b9181601f84011215611a99578235916001600160401b038311611a995760208381860195010111611a9957565b919060c083820312611a9957604051906120cc82611922565b81938035835260208101356020840152604081013560408401526060810135606084015260808101359160018060401b0392838111611a995781612111918401611a9e565b608085015260a0820135928311611a995760a092611f049201611a9e565b600254811015611b1157600260005260206000200190600090565b600d54811015611b1157600d60005260206000200190600090565b9060209161217e81518092818552858086019101611abc565b601f01601f1916010190565b805115611b115760200190565b8051821015611b115760209160051b010190565b51908115158203611a9957565b91949293909360ff600b5460081c161561252757604051946121d9866119c0565b6001865260005b60208082101561223c57604051602092916121fa826119a4565b60008252600081830152606080604084015280808401528060808401528060a0840152600060c084015260e08301526000610100830152828a010152016121e0565b50509295909394919460405191612252836119a4565b878352846020840152604083015284606083015285608083015260a0820152600060c082015260405161228481611a09565b6000815260e0820152600061010082015261229e8261218a565b526122a88161218a565b506040519063d017d69960e01b82528160a4810160036004830152600460248301526005604483015287606483015260a06084830152825180915260c4820190602060c48260051b8501019401916000905b828210612394575050505080602092038173__$1a0918a2aa2208593bb0a5d7644cd0946b$__5af49081156123885760009161234e575b50156123455761234093612e0b565b600190565b50505050600090565b90506020813d602011612380575b8161236960209383611a24565b81010312611a995761237a906121ab565b38612331565b3d915061235c565b6040513d6000823e3d90fd5b919350919360c319868203018252845190610120808201835183526020840151602084015260408401519160408401528151809152602061014084019201906000905b8082106124e7575050506060830151908281036060840152602080835192838152019201906000905b8082106124cf575050506080830151908281036080840152602080835192838152019201906000905b80821061248f57505050826020926101008061247a612457879660a060019a015186820360a0880152612165565b888060a01b0360c08701511660c086015260e086015185820360e0870152612165565b930151910152960192019201859391926122fa565b909192602060a060019260808751805183528481015185840152604081015160408401526060810151606084015201516080820152019401920190612429565b90919260208060019286518152019401920190612400565b909192602060a0600192608087518051835284810151858401526040810151604084015260608101516060840152015160808201520194019201906123d7565b604051633485c51360e21b8152600490fd5b9190820391821161254657565b634e487b7160e01b600052601160045260246000fd5b9190820180921161254657565b92919261257582611b27565b6040946125856040519283611a24565b81958483526020809301916060809602850194818611611a9957925b8584106125b15750505050505050565b8684830312611a995784879184516125c88161196e565b86358152828701358382015285870135868201528152019301926125a1565b91909161012081840312611a995760405190612602826119a4565b909283919081356001600160401b038111611a9957820181601f82011215611a9957803561262f81611b27565b9161263d6040519384611a24565b81835260208084019260061b82010190848211611a9957602001915b818310612c0657505050835260208201356001600160401b038111611a9957820181601f82011215611a99578181602061269593359101612569565b602084015260408201356001600160401b038111611a995781601f828501011215611a9957808301356126c781611b27565b916126d56040519384611a24565b81835260208301908460208460051b838901010111611a9957602081870101915b60208460051b83890101018310612b085750505050604084015260608201356001600160401b038111611a995781601f828501011215611a9957808301359061273e82611b27565b9161274c6040519384611a24565b808352602083018460208360051b858901010111611a9957602083870101905b60208360051b85890101018210612999575050505060608401526080828101356001600160401b038111611a9957830182601f82011215611a995780356127b281611b27565b916127c06040519384611a24565b81835260208084019260051b82010191858311611a995760208201905b83821061296c5750505050608085015260a08301356001600160401b038111611a9957830182601f82011215611a9957803561281881611b27565b916128266040519384611a24565b81835260208084019260051b82010191858311611a995760208201905b83821061293f575050505060a085015260c08301356001600160401b038111611a995783019082601f83011215611a995781359161288083611b27565b9261288e6040519485611a24565b80845260208085019160071b83010191858311611a9957602001905b8282106128fb575050505060c084015260e08201356001600160401b038111611a995782019080601f83011215611a99578160206128ea93359101612569565b60e083015261010080910135910152565b8382870312611a99576020849160405161291481611989565b84358152828501358382015260408501356040820152606085013560608201528152019101906128aa565b81356001600160401b038111611a995760209161296189848094880101611d2b565b815201910190612843565b81356001600160401b038111611a995760209161298e898480948801016120b3565b8152019101906127dd565b81356001600160401b038111611a995761012088860182018803601f190112611a9957604051906129c9826119a4565b88860181016020818101358452604082013590840152606001356001600160401b038111611a9957886020612a0492848a8e01010101611b3e565b60408301528886018101608001356001600160401b038111611a9957886020612a3392848a8e01010101611bde565b60608301526001600160401b03898701820160a0013511611a9957612a6588878b01830160a081013501602001611c3e565b60808301526001600160401b03898701820160c0013511611a9957612a9788878b01830160c081013501602001611a9e565b60a0830152612aac60e082888c010101611d0a565b60c08301526001600160401b038987018201610100013511611a99576020928392839261012090612aea8c8b8f018301610100810135018701611a9e565b60e0840152898d01010135610100820152815201920191905061276c565b82356001600160401b038111611a99578288010160609081601f19828a030112611a995760405191612b398361196e565b60208281013584526040830135908401528101356001600160401b038111611a995788603f828401011215611a995760208183010135612b7881611b27565b92612b866040519485611a24565b81845260208401908b60408460061b868401010111611a9957604084820101915b8c60408560061b87850101018410612bd55750505050604084019290925250508152602092830192016126f6565b836040910312611a995760206040918251612bef816119c0565b853581528286013583820152815201920191612ba7565b604083860312611a995760206040918251612c20816119c0565b853581528286013583820152815201920191612659565b15612c3e57565b60405162461bcd60e51b815260206004820152600560248201526410b0b2323960d91b6044820152606490fd5b90604051916392cf61e560e01b8352600483015260608260248173__$1a0918a2aa2208593bb0a5d7644cd0946b$__5af490811561238857600080938193612cb4575b50929190565b925092506060823d606011612d1a575b81612cd160609383611a24565b810103126105365781516001600160a01b0381168103610710576020830151926001600160601b038416840361053257604001519360ff8516850361074f575091929138612cae565b3d9150612cc4565b600b54901515908160ff8216151514612d6f5760ff191660ff821617600b556040519081527fb5838f871ddee4623a406029b1a0b6013e0ec30f2dc114307f21459a800a829690602090a1565b5050565b9080821015612d9757604051916020830152604082015260408152611ab98161196e565b90604051916020830152604082015260408152611ab98161196e565b600d54600160401b81101561193d57806001612dd29201600d5561214a565b819291549060031b91821b91600019901b1916179055565b908060209392818452848401376000828201840152601f01601f1916010190565b9391909160005b8251811015612e445780612e3e612e2b60019386612197565b51612e3781888b615114565b8887615114565b01612e12565b5092905060005b8151811015612fb557612e5e8183612197565b5190602080830190815186898214159182612faa575b5050612f8d57835186898214159182612f9f575b5050612f8d5781518451148015612f81575b612527576080840191428351111561252757845160005260108252604094856000209582519481830194855193606080820198895191855190875192612edf84611989565b835285830198895287830193845282019081528c54600160401b81101561193d57612f119060019e8f82018155611af5565b939093612f6b5760019d7fbfd7274449bb908ddf203ddf1c94d588d62b66048e4a9b4b0bc4835067b0353699600394518655519085015551600284015551910155519451955196519151908351928352820152a401612e4b565b634e487b7160e01b600052600060045260246000fd5b50606084015115612e9a565b604051633c4117f160e21b8152600490fd5b141590508638612e88565b141590508638612e74565b5050509050565b90612fc682611b27565b612fd36040519182611a24565b8281528092612fe4601f1991611b27565b0190602036910137565b60001981146125465760010190565b919061300a815151612fbc565b613015825151612fbc565b91613021815151612fbc565b92600095865b83518051821015613100578161303c91612197565b515160208061304c848851612197565b510151906000925b8b84106130df575b8b841461308f575b5050906130886130816001949361307b848c612197565b5161255c565b9189612197565b5201613027565b6130d58c613088938360019897969f946130ac613081968f612197565b528960005260038252604091826000209160005252600020546130cf828b612197565b52612fee565b9b92939450613064565b92836130eb828b612197565b51146130fa5760010192613054565b9261305c565b5050959391909260005b858110613adf57506001956000875b613a95575b506000875b61397b575b50606083015180516136a4575b50608080840151908151613564575b505060005b60a08401518051821015613182576131648261316b92612197565b518a613c90565b15613179575b600101613149565b60009750613171565b505091939590929460005b604086015180518210156131c6576131a8826131af92612197565b518a615266565b156131bd575b60010161318d565b600092506131b5565b505091939590929460005b60e0880151805182101561347d57816131e991612197565b5160208101906131fa82518c614f14565b5061320861128d835161214a565b9291908d60005260036020526040938460002086516000526020528460002054958585019687511161346c57908f9160ff92885181600052600360205288600020835160005260205261326089600020918254612539565b9055815191816000526003602052886000209051600052602052600080516020615c1d833981519152602089600020548a51908152a31680613349575050602090604460018060a01b0380945116955160008651958694859363a9059cbb60e01b855260049a8b8601526024850152165af190811561333e57600091613304575b50156132f7575050600160e0915b0190506131d1565b51632fd8225d60e21b8152fd5b906020823d602011613336575b8161331e60209383611a24565b8101031261074f5750613330906121ab565b386132e1565b3d9150613311565b82513d6000823e3d90fd5b92949092600181036133d657505092516001600160a01b039384169316833b15611a995782516323b872dd60e01b815293600092859283918591839161339f916001600160601b039091169030600485016146ee565b03925af19081156133cc57509160019160e0936133bd575b506132ef565b6133c6906119db565b386133b7565b513d6000823e3d90fd5b909491906002146133f1575b5050505050600160e0916132ef565b905193516001600160a01b0394851694909116803b15611a99578351637921219560e11b815294600093869384928692849261343d9290916001600160601b03169030600486016146ba565b03925af19081156133cc57509160019160e09361345d575b8193816133e2565b613466906119db565b38613455565b8551632fd8225d60e21b8152600490fd5b505091949092955095929560005b85811061349b5750505050505090565b6134a58183612197565b516134c56134b38387612197565b516134be8487612197565b519061255c565b9086600052600360209080825260409384600020846000528352846000205410613553576134f38588612197565b51896000528183528460002084600052835261351485600020918254612539565b905588600052815282600020916000525280600020546135348387612197565b5111613543575060010161348b565b51632fd8225d60e21b8152600490fd5b8351632fd8225d60e21b8152600490fd5b9089906006549060409160405193849163b3f1ff7d60e01b83526084830191600480850152602484015260806044840152835180925260a483019460a48360051b8501019260209889809701926000915b838310613640575050505050829394506064830152038173__$1a0918a2aa2208593bb0a5d7644cd0946b$__5af49182156123885760009261360a575b505015613601575b3880613144565b600096506135fa565b90809250813d8311613639575b6136218183611a24565b81010312611a9957613632906121ab565b38806135f2565b503d613617565b929650929793968061368f6001939760a3198d82030188528b51610ca760c0825184528583015186850152898301518a850152606083015160608501528883015190808a860152840190612165565b990194019401899693928996929895986135b5565b6040989694929795939198519063d017d69960e01b82528160a4810160036004830152600460248301526005604483015289606483015260a06084830152825180915260c4820190602060c48260051b8501019401916000905b8282106137ce575050505080602092038173__$1a0918a2aa2208593bb0a5d7644cd0946b$__5af490811561238857600091613794575b501561378b575b60005b6060820151805182101561377c579061377661375d82600194612197565b5180519060208101516080606083015192015192612e0b565b0161373f565b50509193959092949638613135565b6000945061373c565b90506020813d6020116137c6575b816137af60209383611a24565b81010312611a99576137c0906121ab565b38613735565b3d91506137a2565b91935091938a9060c319878203018352855190610120808201835183526020840151602084015260408401519160408401528151809152602061014084019201906000905b808210613934575050506060830151908281036060840152602080835192838152019201906000905b808210613916575050506080830151908281036080840152602080835192838152019201906000905b8082106138d05750505091602092916138b661388e859460a085015184820360a0860152612165565b60c0848101516001600160a01b03169084015260e08085015184830391850191909152612165565b9161010080910151910152960192019201859391926136fe565b91939495909260a06020916080875180518352848101518584015260408101516040840152606081015160608401520151608082015201940192018f9594939291613865565b919394959092602080918651815201940192018f959493929161383c565b91939495909260a0602091865180518252838101518483015260408101516040830152606081015160608301526080809101519082015201940192018f9594939291613813565b6020808501518051831015613a8e578261399491612197565b5190808201906139a582518d614f14565b508b60005260039283825260409081810182600020855160005284528260002054815111613a7d57928d9694928f928293868a9997518260005288865284600020885160005286526139fc85600020918254612539565b90555182516000528785528360002087516000528552613a218460002091825461255c565b905585519080600052878552836000208751600052855283600020548451908152600080516020615c1d833981519152968791a35193805195856000528352816000209051600052825280600020549051908152a30190613123565b8251632fd8225d60e21b8152600490fd5b5050613128565b60c08401518051821015613ad95781613aad91612197565b51805115613ad1575b89815103612527578891613aca8392614710565b0190613119565b898152613ab6565b5061311e565b80613aec60019286612197565b5189600052613b1c6020600381526040908160002090613b0c8689612197565b516000525260002091825461255c565b90550161310a565b90815180825260208080930193019160005b828110613b44575050505090565b835185529381019392810192600101613b36565b906020808352815190613b776060926060838701526080860190613b24565b8184015190601f199460409186888203018389015284808551928381520194019060005b818110613c7c5750505081015195606086828503019101528551938483528383019184808760051b8601019801966000945b878610613be05750505050505050505090565b90919293949596979882828203018652878a5160018060a01b03815116835285613c1583830151898587015289860190612165565b91015192868183039101528180845192838152019301906000905b88818310613c535750505050806001929b01960196019497969593929190613bcd565b8395896001949693955180518352848101518584015201518a82015201940192018a9291613c30565b825186529486019491860191600101613b9b565b9091613c9d835183612d73565b610160840151156143e557604080518251602091828181870193613cc2818387611abc565b8101600481520301902054156143d45781613ce7918451809381928851928391611abc565b81016004815203019020548160a08801518451613d1981613d0b8582019485613b58565b03601f198101835282611a24565b51902060e08901518051908301206101008a01518a518751633c2934c160e01b815260c0600482015295869485949293613d7d939091613d5c60c488018e612165565b93602488015260448701526064860152600319858303016084860152612165565b9060a4830152038173__$1a0918a2aa2208593bb0a5d7644cd0946b$__5af49182156143c957600092614393575b50501561438357506002613df660206000935b60405190856001825193858181860196613dd981838a611abc565b810160048152030190200155604051938492839251928391611abc565b81016004815203019020015582519160a08401519160e060c0860151950151602084015151845151036143715784831094851561436a57835b86156143625750955b851561435b5780955b156143535750945b613e538184612d73565b9360208101515195613e6487611b27565b96613e726040519889611a24565b808852601f19613e8182611b27565b013660208a01378760005b8281106142e957505081511590506142d25780602080613eb19351830101910161552e565b965b8051156142b55780602080613ecd9351830101910161552e565b969092969491945b6000945b6040850151805187101561413f5786613ef191612197565b519860018060a01b038a51169760208b0151988551891060001461412a57613f198987612197565b515b85518a1015614114578b613f2f8b88612197565b515b604051630c6191f960e11b8152608060048201529c8d938493613f58906084860190613b24565b916003199283868203016024870152613f7091612165565b82858203016044860152613f8391612165565b90838203016064840152613f9691612165565b03815a6000948591f198891561238857600099614069575b5060005b60408c015180518210156140555781613fca91612197565b51613fd681518c612197565b5190613fe48d825190612197565b516000811283828103128116908483810313901516176125465760008184031380614046575b61252757600081840312928361402a575b50505061252757600101613fb2565b60209293509061403a91036155ff565b9101511038808061401b565b5060408201518184031161400a565b50919a509798505060019590950194613ed9565b9098503d90816000823e61407d8282611a24565b6020818381010312611a99578051916001600160401b038311611a9957808201601f848401011215611a995782820151916140b783611b27565b936140c56040519586611a24565b8385526020850192820160208560051b838501010111611a9957602081830101925b60208560051b838501010184106141045750505050509738613fae565b83518152602093840193016140e7565b8b60405161412181611a09565b60008152613f31565b60405161413681611a09565b60008152613f1b565b5094505050929493909360005b6020860151805182101561427957816000600188888c89614194602061417f89614178839d8a9d612197565b5194612197565b51958160405193828580945193849201611abc565b81016005815203019020818752895260408620938454878213158814614202576141c792939450806141f1575b506155ff565b90816141df575b5050505b828155015501905061414c565b6141e9928c615b15565b8b38806141ce565b6141fc908486615982565b386141c1565b9081811015881461425757829394826142239481614246575b505050612539565b908b82614234575b505050506141d2565b61423d93615b15565b8b38808b61422b565b61424f92615982565b8d828561421b565b61426e91614269828561427498615982565b612539565b91615982565b6141d2565b50509450505061429a91506020908160405193828580945193849201611abc565b810160048152030190206142ae8154612fee565b9055600190565b506040516142c281611a09565b6000815296909296949194613ed5565b506040516142df81611a09565b6000815296613eb3565b806142fa6001926020880151612197565b5161431460208c8160405193828580945193849201611abc565b8101600581520301902090600052602052614342826040600020015461433b838951612197565b519061524a565b61434c8285612197565b5201613e8c565b905094613e49565b8195613e41565b905095613e38565b8093613e2f565b6040516329be7c4760e11b8152600490fd5b51631bd18a1960e31b8152600490fd5b90809250813d83116143c2575b6143aa8183611a24565b81010312611a99576143bb906121ab565b3880613dab565b503d6143a0565b83513d6000823e3d90fd5b82516388d0662b60e01b8152600490fd5b60408051908251602090600182860191614400818785611abc565b85019483816004978881520301902001549081156146aa5782908673__$1a0918a2aa2208593bb0a5d7644cd0946b$__918b875185818551614443818388611abc565b81018c815203019020549585898301978b8b8a51958761012082019d8e5115159a84518093819251809261447692611abc565b8101868152030190206002015460808201998a519260e00151935198899687966303d0627d60e41b8852870152602486015260448501526064840152608483015260a4820160c0905260c482016144cc91612165565b0381885af491821561469f57600092614670575b500361466057868c8a94938a936101008301998a515115156000146145cd57505050613d5c9492869492614543838760c0950151908b519c606082019d8e519151925195519b8c9a8b998a996325e7af8960e01b8b528a015260c4890190612165565b9060a483015203915af49182156145c25760009261458c575b50501561457d575190511115610b035750506002613df66020600093613dbe565b505051631bd18a1960e31b8152fd5b90809250813d83116145bb575b6145a38183611a24565b81010312611a99576145b4906121ab565b388061455c565b503d614599565b85513d6000823e3d90fd5b955096985096505050508491505115158a518a10149182614633575b5050614624575190613d0b61460b60a08a015192855192839182019485613b58565b51902003610b035750506002613df66020600093613dbe565b505051633485c51360e21b8152fd5b600292509061464c918651809381928b51928391611abc565b8101888152030190200154431082386145e9565b8651630cba69cb60e01b81528890fd5b9091508581813d8311614698575b6146888183611a24565b81010312611a99575190386144e0565b503d61467e565b89513d6000823e3d90fd5b505050516388d0662b60e01b8152fd5b929060c0949260018060a01b0380921685521660208401526040830152606082015260a06080820152600060a08201520190565b6001600160a01b03918216815291166020820152604081019190915260600190565b9081516000908015600014614a0a5750335b60608401918251156149f85760409081860193845180156000146149d657506020870180518352600e6020528383205480875215614993575b5081614774949596975b60ff6020968780930151612c6b565b9192909116806148565750506147a390845187519485809481936323b872dd60e01b83523033600485016146ee565b03926001600160a01b03165af190811561484c578391614817575b5015613a7d57918091600080516020615c1d83398151915294935b51868252600385528282208851835285526147f883832091825461255c565b90558651968682526003855282822090518252845220549051908152a3565b90508481813d8311614845575b61482e8183611a24565b810103126105365761483f906121ab565b386147be565b503d614824565b84513d85823e3d90fd5b909350909150600181036148e757506001600160a01b031690813b156107105784516323b872dd60e01b81529184918391908290849082906148a6906001600160601b03163033600485016146ee565b03925af1801561484c576148d3575b50918091836001600080516020615c1d8339815191529695526147d9565b6148dd83916119db565b61021457386148b5565b929594939260021461490d575b50508190600080516020615c1d833981519152946147d9565b60018060a0979596971b0316835191813b15610710578551637921219560e11b81529284928492909183918591839161495591906001600160601b03163033600486016146ba565b03925af180156107065791849391600080516020615c1d833981519152969593614984575b50918195506148f4565b61498d906119db565b3861497a565b61499d8151612db3565b600d546000198101919082116149c257818752518352600e602052838320558161475b565b634e487b7160e01b84526011600452602484fd5b614774949596976149e7849261214a565b90549060031b1c6020820152614765565b60405163440a57bf60e01b8152600490fd5b614722565b90612f6b5760018160008093550155565b6000818152602090600882526040918282208583528152828220938454958615614cfb57818452600983528484208185528352848420549787891015614cf2575b828552600384528585208286528452858520549085988215614ccc5798995b89811080614cc3575b80614cb8575b15614c4357614a9e818a61203a565b50600190818101918254918215614c2d57549282871015614c2757865b8c8c8a8d84614be7575b505050505082151580614bdf575b614bb6575b614ae3838254612539565b9280614b8157508a90558301808411614b6d57614b519288600080516020615bfd8339815191526060614b5797958f958f968f978e988251948552840152820152a4868952600a8852898920805480614b60575b5050614b4c614b46828d61203a565b90614a0f565b612fee565b9a612fee565b985b9899614a80565b6000190190553880614b37565b634e487b7160e01b8a52601160045260248afd5b859f94925060608994614b57978f848f8f9796600080516020615bfd83398151915297558251948552840152820152a4612fee565b614bc28389868c61578f565b614bcc8185612539565b614bd7575b50614ad8565b925038614bd1565b508615614ad3565b9282614c1c96989c92614c16958b889652600381528383209183525220614c0f83825461255c565b9055612539565b97612539565b91388c8c8a8d614ac5565b82614abb565b50505050614c3d909a999a612fee565b99614b59565b9398509850909295508684526003865284842083855286528484205585835260098552838320828452855283832055614c7c8186615610565b84825260088452828220818352845282822093845415614caf57611ab99583526009815283832091835252205490615739565b50509250505090565b506000198b10614a8f565b50821515614a89565b50989297505091945085835260098552838320828452855283832055614c7c8186615610565b97508397614a61565b9280965080955052600981528284209184525281205590565b6000818152602090600882526040918282208583528152828220938454958615614cfb57818452600983528484208185528352848420549787891015614f0b575b828552600384528585208286528452858520549085988215614ccc5798995b89811080614f02575b80614ef7575b15614c4357614d92818a61203a565b50600190818101918254918215614ee157549282871015614edb57865b8c8c8a8d84614ea8575b505050505082151580614ea0575b614e77575b614dd7838254612539565b9280614e4257508a90558301808411614b6d57614b519288600080516020615bfd8339815191526060614e3997958f958f968f978e988251948552840152820152a4868952600a8852898920805480614b60575050614b4c614b46828d61203a565b985b9899614d74565b859f94925060608994614e39978f848f8f9796600080516020615bfd83398151915297558251948552840152820152a4612fee565b614e838389868c61578f565b614e8d8185612539565b614e98575b50614dcc565b925038614e92565b508615614dc7565b9282614ed096989c92614c16958b889652600381528383209183525220614c0f83825461255c565b91388c8c8a8d614db9565b82614daf565b50505050614ef1909a999a612fee565b99614e3b565b506000198b10614d83565b50821515614d7d565b97508397614d55565b6000818152602090600882526040918282208583528152828220938454958615614cfb5781845260098352848420818552835284842054978789101561510b575b828552600384528585208286528452858520549085988215614ccc5798995b89811080615102575b806150f7575b15614c4357614f92818a61203a565b506001908181019182549182156150e1575492828710156150db57865b8c8c8a8d846150a8575b5050505050821515806150a0575b615077575b614fd7838254612539565b928061504257508a90558301808411614b6d57614b519288600080516020615bfd833981519152606061503997958f958f968f978e988251948552840152820152a4868952600a8852898920805480614b60575050614b4c614b46828d61203a565b985b9899614f74565b859f94925060608994615039978f848f8f9796600080516020615bfd83398151915297558251948552840152820152a4612fee565b6150838389868c61578f565b61508d8185612539565b615098575b50614fcc565b925038615092565b508615614fc7565b92826150d096989c92614c16958b889652600381528383209183525220614c0f83825461255c565b91388c8c8a8d614fb9565b82614faf565b505050506150f1909a999a612fee565b9961503b565b506000198b10614f83565b50821515614f7d565b97508397614f55565b929190926000938185526020906009825260409586812085825283528681205492848252600881528782208683528152878220918254945b85811061516657505050505050615164929350615610565b565b80856151738c938761203a565b50541480615233575b61518b575b600191500161514c565b888689615198848961203a565b5086600180920154916151ab878c61203a565b500155818752600a88528587208054801580156151ec575b50505085600080516020615c5d8339815191529160019751908152868a820152a48a9150615181565b93509350935093945061521f576000190190558a9190899087908a9085600080516020615c5d83398151915260016151c3565b634e487b7160e01b85526011600452602485fd5b506001615240828761203a565b500154151561517c565b9190916000838201938412911290801582169115161761254657565b9190918251602091828501519261527d8383614d14565b5060005b604080880180518051841015615520576152a9846152a0818894612197565b51519351612197565b510151906152b78189612d73565b918660005260039283875284600020896000528752818560002054101560001461551057866152f29181875193828580945193849201611abc565b810160058152030190208860005286528360002091876000528387528460002089600052875284600020615327838254612539565b905561533482845461255c565b90818455808b1092836154f9575b5082156154f2578a925b156154e65794929190925b805194615363866119c0565b6001928387528960005b81811061549257505080600052818a52826000208c6000528a52826000205491886000528a52826000208c6000528a52838360002054950154978351916153b3836119ee565b82528a8201528b83820152606091828201526080948582015260a0958682015260c097888201526153e38761218a565b526153ed8661218a565b50815196898801928a895287518094528a818a019801966000965b8c86891061544a575050505050505050505081600193927f11e95b31ceefa95a59034392a3de4f79c9fe7d7e441d3746a1f82e64f7a32bcc920390a101615281565b895180518c5281810151828d015284810151858d015286810151878d015282810151838d015283810151848d0152850151858c015260e0909a01999098019796860196615408565b8499939497959697516154a4816119ee565b6000815260008382015260008b8201526000606082015260006080820152600060a0820152600060c082015282828b010152018a90989392989695949661536d565b50899492919092615357565b809261534c565b6155086001860191825461524a565b905538615342565b5060009a50505050505050505050565b506001985050505050505050565b6020908181840312611a995780516001600160401b0391828211611a9957019083601f83011215611a9957815161556481611b27565b946040926155756040519788611a24565b828752858088019360051b86010194828611611a9957868101935b8685106155a257505050505050505090565b8451838111611a995782019084603f83011215611a995788820151906155c782611a47565b6155d389519182611a24565b82815286898486010111611a99576155f48b949385948b8685019101611abc565b815201940193615590565b600160ff1b81146125465760000390565b906000828152602091600883526040908183208184528452818320948554801561572257818552600986528385208386528652838520549681881015615719575b965b81811080615703575b1561566f5761566a90612fee565b615653565b919293949596508110156000146156ef5750808452600985528284208285528552838381205583526008845281832090835283528120805492828255836156b7575b50505050565b6001916001600160ff1b03851685036149c257835282209260011b8301925b838110156156b1578083600292558383820155016156d6565b908452600985528284209184529352902055565b506001615710828a61203a565b5001541561565c565b96508496615651565b508352600984528183209083529092529081205550565b919060009280549182811015615786575b82811061575657505050565b6001615762828461203a565b500154615772575b60010161574a565b9361577e600191612fee565b94905061576a565b50600093505050565b918392600095818752602092601084526040918289209081549889156159755750600c8652838a20549788905b8a82108061596c575b15615958576157d48285611af5565b50998a918d876001809501541480159061594b575b801561593f575b615931578a8d91825480825260038093528d8c8320908c84525260028c8320549401938454908082106000146159295750955b858711615920575b861561590d57508f8f968f92968f968f958f80859b917f4f02c680c56246ffd693c94e5f46c036a01b12950c88219159645a302816307b9a600080516020615c1d8339815191528a8c876158c39c8c986158b89a5285845282822087835284528282206158998a8254612539565b905554948582528352818120868252835220548d51908152a38c615982565b614c0f838254612539565b9f6158d2868d835490886159df565b5054948251918c8352820152a481018082116158f9576158f29091612fee565b90986157bc565b634e487b7160e01b8c52601160045260248cfd5b979550505050509a506158f29150612fee565b9550849561582b565b905095615823565b509a50916158f29150612fee565b5060028d0154156157f0565b5060038d015442116157e9565b9a969497505097505050600c918352522055565b508015156157c5565b9950975050505050505050565b909180156159da5760206040600080516020615c1d833981519152926000908582526003845282822087835284526159be83832091825461255c565b90558481526003835281812086825283522054604051908152a3565b505050565b93929391909181156125275784156149f857600094818652602090600882526040918288208689528152828820835190615a18826119c0565b86825282820184815281549091600160401b821015615b015790615a419160018201815561203a565b929092615aed575182555160019091015583885260088152828820868952815282882054600019810191908211615ad957908392917fae767eeb0c57abd46e2e0b422895ba3b89372fbd0510a58f00d996faf66f027d94829a8315615ac0575b878152600a835220615ab38154612fee565b90558351928352820152a4565b878152600983528181208a825283528082812055615aa1565b634e487b7160e01b89526011600452602489fd5b634e487b7160e01b8b5260048b905260248bfd5b634e487b7160e01b8c52604160045260248cfd5b909280156156b157615b5e9060009083825284846020936003855260409485822084835281528582205485811015600014615bf6575084955b86615b9a575b5050505050612539565b80156156b157615b709083858461578f565b9283615b7c5750505050565b615b9193615b8b9184846159df565b50615610565b388080806156b1565b808385600080516020615c1d8339815191529552600384528181208782528452818120615bc88a8254612539565b905585815260038452818120878252845220549051908152a3615bec828688615982565b8484388080615b54565b95615b4e56fe1ffe8e6348fe244a8988797c02b57999821149e7b25c9f93a85c77819efdde67ab4d21442efe134c3d0c087e2b687e9593a1c09176f498d37873210cde052c45990f4c22d4b046a9a7d673c4a252b906cadd4f3290465e297f998c28a449652b0971ac81b80f99fe0089c3fbe4af4fa1148f2ce78bc6345e76b05be73500de1fa26469706673582212202f8e2970462bbfd313ab9347ab7a21a980790e1f023e57a810b19e42d210564b64736f6c63430008180033",
  "linkReferences": {
    "contracts/Account.sol": {
      "Account": [
        {
          "length": 20,
          "start": 1008
        },
        {
          "length": 20,
          "start": 1855
        },
        {
          "length": 20,
          "start": 3274
        },
        {
          "length": 20,
          "start": 4068
        },
        {
          "length": 20,
          "start": 9207
        },
        {
          "length": 20,
          "start": 11633
        },
        {
          "length": 20,
          "start": 14008
        },
        {
          "length": 20,
          "start": 14331
        },
        {
          "length": 20,
          "start": 15985
        },
        {
          "length": 20,
          "start": 17671
        }
      ]
    }
  },
  "deployedLinkReferences": {
    "contracts/Account.sol": {
      "Account": [
        {
          "length": 20,
          "start": 774
        },
        {
          "length": 20,
          "start": 1621
        },
        {
          "length": 20,
          "start": 3040
        },
        {
          "length": 20,
          "start": 3834
        },
        {
          "length": 20,
          "start": 8973
        },
        {
          "length": 20,
          "start": 11399
        },
        {
          "length": 20,
          "start": 13774
        },
        {
          "length": 20,
          "start": 14097
        },
        {
          "length": 20,
          "start": 15751
        },
        {
          "length": 20,
          "start": 17437
        }
      ]
    }
  }
}