{
  "_format": "hh-sol-artifact-1",
  "contractName": "Depository",
  "sourceName": "contracts/Depository.sol",
  "abi": [
    {
      "inputs": [
        {
          "internalType": "address",
          "name": "_entityProvider",
          "type": "address"
        }
      ],
      "stateMutability": "nonpayable",
      "type": "constructor"
    },
    {
      "inputs": [],
      "name": "E0",
      "type": "error"
    },
    {
      "inputs": [],
      "name": "E1",
      "type": "error"
    },
    {
      "inputs": [],
      "name": "E10",
      "type": "error"
    },
    {
      "inputs": [],
      "name": "E2",
      "type": "error"
    },
    {
      "inputs": [],
      "name": "E3",
      "type": "error"
    },
    {
      "inputs": [],
      "name": "E4",
      "type": "error"
    },
    {
      "inputs": [],
      "name": "E5",
      "type": "error"
    },
    {
      "inputs": [],
      "name": "E6",
      "type": "error"
    },
    {
      "inputs": [],
      "name": "E7",
      "type": "error"
    },
    {
      "inputs": [],
      "name": "E8",
      "type": "error"
    },
    {
      "inputs": [],
      "name": "E9",
      "type": "error"
    },
    {
      "anonymous": false,
      "inputs": [
        {
          "components": [
            {
              "internalType": "bytes32",
              "name": "left",
              "type": "bytes32"
            },
            {
              "internalType": "bytes32",
              "name": "right",
              "type": "bytes32"
            },
            {
              "components": [
                {
                  "internalType": "uint256",
                  "name": "tokenId",
                  "type": "uint256"
                },
                {
                  "internalType": "uint256",
                  "name": "leftReserve",
                  "type": "uint256"
                },
                {
                  "internalType": "uint256",
                  "name": "rightReserve",
                  "type": "uint256"
                },
                {
                  "internalType": "uint256",
                  "name": "collateral",
                  "type": "uint256"
                },
                {
                  "internalType": "int256",
                  "name": "ondelta",
                  "type": "int256"
                }
              ],
              "internalType": "struct TokenSettlement[]",
              "name": "tokens",
              "type": "tuple[]"
            },
            {
              "internalType": "uint256",
              "name": "nonce",
              "type": "uint256"
            }
          ],
          "indexed": false,
          "internalType": "struct AccountSettlement[]",
          "name": "settled",
          "type": "tuple[]"
        }
      ],
      "name": "AccountSettled",
      "type": "event"
    },
    {
      "anonymous": false,
      "inputs": [
        {
          "indexed": true,
          "internalType": "bytes32",
          "name": "sender",
          "type": "bytes32"
        },
        {
          "indexed": true,
          "internalType": "bytes32",
          "name": "counterentity",
          "type": "bytes32"
        },
        {
          "indexed": true,
          "internalType": "uint256",
          "name": "nonce",
          "type": "uint256"
        }
      ],
      "name": "CooperativeClose",
      "type": "event"
    },
    {
      "anonymous": false,
      "inputs": [
        {
          "indexed": true,
          "internalType": "bytes32",
          "name": "debtor",
          "type": "bytes32"
        },
        {
          "indexed": true,
          "internalType": "bytes32",
          "name": "creditor",
          "type": "bytes32"
        },
        {
          "indexed": true,
          "internalType": "uint256",
          "name": "tokenId",
          "type": "uint256"
        },
        {
          "indexed": false,
          "internalType": "uint256",
          "name": "amount",
          "type": "uint256"
        },
        {
          "indexed": false,
          "internalType": "uint256",
          "name": "debtIndex",
          "type": "uint256"
        }
      ],
      "name": "DebtCreated",
      "type": "event"
    },
    {
      "anonymous": false,
      "inputs": [
        {
          "indexed": true,
          "internalType": "bytes32",
          "name": "debtor",
          "type": "bytes32"
        },
        {
          "indexed": true,
          "internalType": "bytes32",
          "name": "creditor",
          "type": "bytes32"
        },
        {
          "indexed": true,
          "internalType": "uint256",
          "name": "tokenId",
          "type": "uint256"
        },
        {
          "indexed": false,
          "internalType": "uint256",
          "name": "amountPaid",
          "type": "uint256"
        },
        {
          "indexed": false,
          "internalType": "uint256",
          "name": "remainingAmount",
          "type": "uint256"
        },
        {
          "indexed": false,
          "internalType": "uint256",
          "name": "newDebtIndex",
          "type": "uint256"
        }
      ],
      "name": "DebtEnforced",
      "type": "event"
    },
    {
      "anonymous": false,
      "inputs": [
        {
          "indexed": true,
          "internalType": "bytes32",
          "name": "debtor",
          "type": "bytes32"
        },
        {
          "indexed": true,
          "internalType": "bytes32",
          "name": "creditor",
          "type": "bytes32"
        },
        {
          "indexed": true,
          "internalType": "uint256",
          "name": "tokenId",
          "type": "uint256"
        },
        {
          "indexed": false,
          "internalType": "uint256",
          "name": "amountForgiven",
          "type": "uint256"
        },
        {
          "indexed": false,
          "internalType": "uint256",
          "name": "debtIndex",
          "type": "uint256"
        }
      ],
      "name": "DebtForgiven",
      "type": "event"
    },
    {
      "anonymous": false,
      "inputs": [
        {
          "indexed": true,
          "internalType": "bytes32",
          "name": "sender",
          "type": "bytes32"
        },
        {
          "indexed": true,
          "internalType": "bytes32",
          "name": "counterentity",
          "type": "bytes32"
        },
        {
          "indexed": true,
          "internalType": "uint256",
          "name": "nonce",
          "type": "uint256"
        },
        {
          "indexed": false,
          "internalType": "bytes32",
          "name": "initialProofbodyHash",
          "type": "bytes32"
        },
        {
          "indexed": false,
          "internalType": "bytes32",
          "name": "finalProofbodyHash",
          "type": "bytes32"
        }
      ],
      "name": "DisputeFinalized",
      "type": "event"
    },
    {
      "anonymous": false,
      "inputs": [
        {
          "indexed": true,
          "internalType": "bytes32",
          "name": "sender",
          "type": "bytes32"
        },
        {
          "indexed": true,
          "internalType": "bytes32",
          "name": "counterentity",
          "type": "bytes32"
        },
        {
          "indexed": true,
          "internalType": "uint256",
          "name": "nonce",
          "type": "uint256"
        },
        {
          "indexed": false,
          "internalType": "bytes32",
          "name": "proofbodyHash",
          "type": "bytes32"
        },
        {
          "indexed": false,
          "internalType": "bytes",
          "name": "initialArguments",
          "type": "bytes"
        }
      ],
      "name": "DisputeStarted",
      "type": "event"
    },
    {
      "anonymous": false,
      "inputs": [
        {
          "indexed": true,
          "internalType": "bytes32",
          "name": "entityId",
          "type": "bytes32"
        },
        {
          "indexed": true,
          "internalType": "bytes32",
          "name": "hankoHash",
          "type": "bytes32"
        },
        {
          "indexed": false,
          "internalType": "uint256",
          "name": "nonce",
          "type": "uint256"
        },
        {
          "indexed": false,
          "internalType": "bool",
          "name": "success",
          "type": "bool"
        }
      ],
      "name": "HankoBatchProcessed",
      "type": "event"
    },
    {
      "anonymous": false,
      "inputs": [
        {
          "indexed": true,
          "internalType": "bytes32",
          "name": "entity",
          "type": "bytes32"
        },
        {
          "indexed": true,
          "internalType": "uint256",
          "name": "tokenId",
          "type": "uint256"
        },
        {
          "indexed": false,
          "internalType": "uint256",
          "name": "newBalance",
          "type": "uint256"
        }
      ],
      "name": "ReserveUpdated",
      "type": "event"
    },
    {
      "anonymous": false,
      "inputs": [
        {
          "indexed": true,
          "internalType": "bytes32",
          "name": "hashlock",
          "type": "bytes32"
        },
        {
          "indexed": true,
          "internalType": "bytes32",
          "name": "revealer",
          "type": "bytes32"
        },
        {
          "indexed": false,
          "internalType": "bytes32",
          "name": "secret",
          "type": "bytes32"
        }
      ],
      "name": "SecretRevealed",
      "type": "event"
    },
    {
      "inputs": [],
      "name": "DOMAIN_SEPARATOR",
      "outputs": [
        {
          "internalType": "bytes32",
          "name": "",
          "type": "bytes32"
        }
      ],
      "stateMutability": "view",
      "type": "function"
    },
    {
      "inputs": [
        {
          "internalType": "bytes",
          "name": "",
          "type": "bytes"
        }
      ],
      "name": "_accounts",
      "outputs": [
        {
          "internalType": "uint256",
          "name": "nonce",
          "type": "uint256"
        },
        {
          "internalType": "bytes32",
          "name": "disputeHash",
          "type": "bytes32"
        },
        {
          "internalType": "uint256",
          "name": "disputeTimeout",
          "type": "uint256"
        }
      ],
      "stateMutability": "view",
      "type": "function"
    },
    {
      "inputs": [
        {
          "internalType": "bytes32",
          "name": "",
          "type": "bytes32"
        }
      ],
      "name": "_activeDebts",
      "outputs": [
        {
          "internalType": "uint256",
          "name": "",
          "type": "uint256"
        }
      ],
      "stateMutability": "view",
      "type": "function"
    },
    {
      "inputs": [
        {
          "internalType": "bytes32",
          "name": "",
          "type": "bytes32"
        },
        {
          "internalType": "uint256",
          "name": "",
          "type": "uint256"
        }
      ],
      "name": "_activeDebtsByToken",
      "outputs": [
        {
          "internalType": "uint256",
          "name": "",
          "type": "uint256"
        }
      ],
      "stateMutability": "view",
      "type": "function"
    },
    {
      "inputs": [
        {
          "internalType": "bytes",
          "name": "",
          "type": "bytes"
        },
        {
          "internalType": "uint256",
          "name": "",
          "type": "uint256"
        }
      ],
      "name": "_collaterals",
      "outputs": [
        {
          "internalType": "uint256",
          "name": "collateral",
          "type": "uint256"
        },
        {
          "internalType": "int256",
          "name": "ondelta",
          "type": "int256"
        }
      ],
      "stateMutability": "view",
      "type": "function"
    },
    {
      "inputs": [
        {
          "internalType": "bytes32",
          "name": "",
          "type": "bytes32"
        },
        {
          "internalType": "uint256",
          "name": "",
          "type": "uint256"
        }
      ],
      "name": "_debtIndex",
      "outputs": [
        {
          "internalType": "uint256",
          "name": "",
          "type": "uint256"
        }
      ],
      "stateMutability": "view",
      "type": "function"
    },
    {
      "inputs": [
        {
          "internalType": "bytes32",
          "name": "",
          "type": "bytes32"
        },
        {
          "internalType": "uint256",
          "name": "",
          "type": "uint256"
        },
        {
          "internalType": "uint256",
          "name": "",
          "type": "uint256"
        }
      ],
      "name": "_debts",
      "outputs": [
        {
          "internalType": "bytes32",
          "name": "creditor",
          "type": "bytes32"
        },
        {
          "internalType": "uint256",
          "name": "amount",
          "type": "uint256"
        }
      ],
      "stateMutability": "view",
      "type": "function"
    },
    {
      "inputs": [
        {
          "internalType": "bytes32",
          "name": "",
          "type": "bytes32"
        },
        {
          "internalType": "uint256",
          "name": "",
          "type": "uint256"
        }
      ],
      "name": "_reserves",
      "outputs": [
        {
          "internalType": "uint256",
          "name": "",
          "type": "uint256"
        }
      ],
      "stateMutability": "view",
      "type": "function"
    },
    {
      "inputs": [
        {
          "internalType": "uint256",
          "name": "",
          "type": "uint256"
        }
      ],
      "name": "_tokens",
      "outputs": [
        {
          "internalType": "address",
          "name": "contractAddress",
          "type": "address"
        },
        {
          "internalType": "uint96",
          "name": "externalTokenId",
          "type": "uint96"
        },
        {
          "internalType": "uint8",
          "name": "tokenType",
          "type": "uint8"
        }
      ],
      "stateMutability": "view",
      "type": "function"
    },
    {
      "inputs": [
        {
          "internalType": "bytes32",
          "name": "e1",
          "type": "bytes32"
        },
        {
          "internalType": "bytes32",
          "name": "e2",
          "type": "bytes32"
        }
      ],
      "name": "accountKey",
      "outputs": [
        {
          "internalType": "bytes",
          "name": "",
          "type": "bytes"
        }
      ],
      "stateMutability": "pure",
      "type": "function"
    },
    {
      "inputs": [],
      "name": "admin",
      "outputs": [
        {
          "internalType": "address",
          "name": "",
          "type": "address"
        }
      ],
      "stateMutability": "view",
      "type": "function"
    },
    {
      "inputs": [
        {
          "components": [
            {
              "internalType": "bytes32",
              "name": "entity",
              "type": "bytes32"
            },
            {
              "internalType": "address",
              "name": "contractAddress",
              "type": "address"
            },
            {
              "internalType": "uint96",
              "name": "externalTokenId",
              "type": "uint96"
            },
            {
              "internalType": "uint8",
              "name": "tokenType",
              "type": "uint8"
            },
            {
              "internalType": "uint256",
              "name": "internalTokenId",
              "type": "uint256"
            },
            {
              "internalType": "uint256",
              "name": "amount",
              "type": "uint256"
            }
          ],
          "internalType": "struct ExternalTokenToReserve",
          "name": "params",
          "type": "tuple"
        }
      ],
      "name": "adminRegisterExternalToken",
      "outputs": [],
      "stateMutability": "nonpayable",
      "type": "function"
    },
    {
      "inputs": [
        {
          "internalType": "bytes32",
          "name": "",
          "type": "bytes32"
        },
        {
          "internalType": "uint256",
          "name": "",
          "type": "uint256"
        }
      ],
      "name": "debtOutstanding",
      "outputs": [
        {
          "internalType": "uint256",
          "name": "",
          "type": "uint256"
        }
      ],
      "stateMutability": "view",
      "type": "function"
    },
    {
      "inputs": [],
      "name": "defaultDisputeDelay",
      "outputs": [
        {
          "internalType": "uint256",
          "name": "",
          "type": "uint256"
        }
      ],
      "stateMutability": "view",
      "type": "function"
    },
    {
      "inputs": [
        {
          "internalType": "bytes32",
          "name": "entity",
          "type": "bytes32"
        },
        {
          "internalType": "uint256",
          "name": "tokenId",
          "type": "uint256"
        },
        {
          "internalType": "uint256",
          "name": "maxIterations",
          "type": "uint256"
        }
      ],
      "name": "enforceDebts",
      "outputs": [],
      "stateMutability": "nonpayable",
      "type": "function"
    },
    {
      "inputs": [
        {
          "internalType": "bytes32",
          "name": "",
          "type": "bytes32"
        }
      ],
      "name": "entityNonces",
      "outputs": [
        {
          "internalType": "uint256",
          "name": "",
          "type": "uint256"
        }
      ],
      "stateMutability": "view",
      "type": "function"
    },
    {
      "inputs": [],
      "name": "entityProvider",
      "outputs": [
        {
          "internalType": "address",
          "name": "",
          "type": "address"
        }
      ],
      "stateMutability": "view",
      "type": "function"
    },
    {
      "inputs": [
        {
          "internalType": "uint256",
          "name": "tokenId",
          "type": "uint256"
        }
      ],
      "name": "getTokenMetadata",
      "outputs": [
        {
          "internalType": "address",
          "name": "contractAddress",
          "type": "address"
        },
        {
          "internalType": "uint96",
          "name": "externalTokenId",
          "type": "uint96"
        },
        {
          "internalType": "uint8",
          "name": "tokenType",
          "type": "uint8"
        }
      ],
      "stateMutability": "view",
      "type": "function"
    },
    {
      "inputs": [],
      "name": "getTokensLength",
      "outputs": [
        {
          "internalType": "uint256",
          "name": "",
          "type": "uint256"
        }
      ],
      "stateMutability": "view",
      "type": "function"
    },
    {
      "inputs": [
        {
          "internalType": "bytes32",
          "name": "entity",
          "type": "bytes32"
        },
        {
          "internalType": "uint256",
          "name": "tokenId",
          "type": "uint256"
        },
        {
          "internalType": "uint256",
          "name": "amount",
          "type": "uint256"
        }
      ],
      "name": "mintToReserve",
      "outputs": [],
      "stateMutability": "nonpayable",
      "type": "function"
    },
    {
      "inputs": [
        {
          "components": [
            {
              "internalType": "bytes32",
              "name": "entity",
              "type": "bytes32"
            },
            {
              "internalType": "uint256",
              "name": "tokenId",
              "type": "uint256"
            },
            {
              "internalType": "uint256",
              "name": "amount",
              "type": "uint256"
            }
          ],
          "internalType": "struct Depository.ReserveMint[]",
          "name": "mints",
          "type": "tuple[]"
        }
      ],
      "name": "mintToReserveBatch",
      "outputs": [],
      "stateMutability": "nonpayable",
      "type": "function"
    },
    {
      "inputs": [
        {
          "internalType": "address",
          "name": "",
          "type": "address"
        },
        {
          "internalType": "address",
          "name": "",
          "type": "address"
        },
        {
          "internalType": "uint256[]",
          "name": "",
          "type": "uint256[]"
        },
        {
          "internalType": "uint256[]",
          "name": "",
          "type": "uint256[]"
        },
        {
          "internalType": "bytes",
          "name": "",
          "type": "bytes"
        }
      ],
      "name": "onERC1155BatchReceived",
      "outputs": [
        {
          "internalType": "bytes4",
          "name": "",
          "type": "bytes4"
        }
      ],
      "stateMutability": "pure",
      "type": "function"
    },
    {
      "inputs": [
        {
          "internalType": "address",
          "name": "",
          "type": "address"
        },
        {
          "internalType": "address",
          "name": "",
          "type": "address"
        },
        {
          "internalType": "uint256",
          "name": "id",
          "type": "uint256"
        },
        {
          "internalType": "uint256",
          "name": "",
          "type": "uint256"
        },
        {
          "internalType": "bytes",
          "name": "",
          "type": "bytes"
        }
      ],
      "name": "onERC1155Received",
      "outputs": [
        {
          "internalType": "bytes4",
          "name": "",
          "type": "bytes4"
        }
      ],
      "stateMutability": "nonpayable",
      "type": "function"
    },
    {
      "inputs": [
        {
          "internalType": "uint8",
          "name": "tokenType",
          "type": "uint8"
        },
        {
          "internalType": "address",
          "name": "contractAddress",
          "type": "address"
        },
        {
          "internalType": "uint96",
          "name": "externalTokenId",
          "type": "uint96"
        }
      ],
      "name": "packTokenReference",
      "outputs": [
        {
          "internalType": "bytes32",
          "name": "",
          "type": "bytes32"
        }
      ],
      "stateMutability": "pure",
      "type": "function"
    },
    {
      "inputs": [
        {
          "internalType": "bytes",
          "name": "encodedBatch",
          "type": "bytes"
        },
        {
          "internalType": "bytes",
          "name": "hankoData",
          "type": "bytes"
        },
        {
          "internalType": "uint256",
          "name": "nonce",
          "type": "uint256"
        }
      ],
      "name": "processBatch",
      "outputs": [
        {
          "internalType": "bool",
          "name": "completeSuccess",
          "type": "bool"
        }
      ],
      "stateMutability": "nonpayable",
      "type": "function"
    },
    {
      "inputs": [
        {
          "internalType": "bytes32",
          "name": "entity",
          "type": "bytes32"
        },
        {
          "internalType": "uint256",
          "name": "tokenId",
          "type": "uint256"
        }
      ],
      "name": "spendableReserve",
      "outputs": [
        {
          "internalType": "uint256",
          "name": "",
          "type": "uint256"
        }
      ],
      "stateMutability": "view",
      "type": "function"
    },
    {
      "inputs": [
        {
          "internalType": "bytes32",
          "name": "",
          "type": "bytes32"
        }
      ],
      "name": "tokenToId",
      "outputs": [
        {
          "internalType": "uint256",
          "name": "",
          "type": "uint256"
        }
      ],
      "stateMutability": "view",
      "type": "function"
    },
    {
      "inputs": [
        {
          "internalType": "bytes32",
          "name": "packed",
          "type": "bytes32"
        }
      ],
      "name": "unpackTokenReference",
      "outputs": [
        {
          "internalType": "address",
          "name": "contractAddress",
          "type": "address"
        },
        {
          "internalType": "uint96",
          "name": "externalTokenId",
          "type": "uint96"
        },
        {
          "internalType": "uint8",
          "name": "tokenType",
          "type": "uint8"
        }
      ],
      "stateMutability": "view",
      "type": "function"
    }
  ],
  "bytecode": "0x60c034620001e157601f62005e1838819003918201601f19168301926001600160401b0392909183851183861017620001e6578160209284926040978852833981010312620001e157516001600160a01b038082169291838103620001e15760009360018555156200018f576080523360a05283519160608301908111838210176200017b57845282825260208201908382528483019380855260095490680100000000000000008210156200016757600182018060095582101562000153579160019391602084600960ff9896522090851b0192511690838060a01b0319905160a01b161781550191511660ff1982541617905551615c1b9081620001fd82396080518181816109240152818161141d015281816117080152818161215701528181612731015281816128ab0152613a48015260a0518181816101c801528181610260015281816102e001526105370152f35b634e487b7160e01b81526032600452602490fd5b634e487b7160e01b81526041600452602490fd5b634e487b7160e01b84526041600452602484fd5b845162461bcd60e51b815260206004820152602560248201527f456e7469747950726f76696465722063616e6e6f74206265207a65726f206164604482015264647265737360d81b6064820152608490fd5b600080fd5b634e487b7160e01b600052604160045260246000fdfe610460604052600436101561001357600080fd5b60003560e01c80630dedd62414613b2b57806310340ce314613b14578063125c2cc414613aa05780633644e51514613a775780634318cdd014613a325780636031680114613a0b5780636b79134d146139df5780637508b916146139ac57806378152e6a1461399357806378bc542a146139605780637a4ef0251461080f57806388a1cd76146107be578063907efb1b146107a157806392cf61e51461072e5780639e8de819146106fb578063acd6f208146106c8578063b0c26ecf146106aa578063bb2c250c1461065c578063bc197c81146105b5578063d19fd92e14610589578063e812c56914610525578063ed70554d146104d6578063edcc1b04146104aa578063f176e32614610470578063f23a6e6114610372578063f43ac1fb1461028f578063f851a4401461024a5763fdfef2011461015157600080fd5b346102455760c03660031901126102455760405161016e81613c0c565b60043581526001600160a01b0360243581811681036102455760208301526044356001600160601b038116810361024557604083015260643560ff81168103610245576060830152608435608083015260a43560a08301527f0000000000000000000000000000000000000000000000000000000000000000163314801590610239575b610227576002600054146102155761020e906002600055614c08565b6001600055005b604051633018d46b60e11b8152600490fd5b604051633485c51360e21b8152600490fd5b50617a694614156101f2565b600080fd5b34610245576000366003190112610245576040517f00000000000000000000000000000000000000000000000000000000000000006001600160a01b03168152602090f35b34610245576020366003190112610245576004356001600160401b038082116102455736602383011215610245578160040135908111610245576024916060366024606085028401011161024557337f00000000000000000000000000000000000000000000000000000000000000006001600160a01b031614801590610366575b6102275782156103545760005b83811061032757005b8181028301906064820135918215610354576001928188604461034e940135910135614a17565b0161031e565b60405163440a57bf60e01b8152600490fd5b50617a69461415610311565b346102455760a03660031901126102455761038b613e04565b50610394613dee565b506084356001600160401b038111610245576103b4903690600401613d70565b505060018060601b0360443516604051602081019060028252336040820152826060820152606081526103e681613c27565b5190209081600052600a60205260406000205415610411575b60405163f23a6e6160e01b8152602090f35b6040516104359161042182613bc3565b338252602082015260026040820152614924565b60095460001981019190821161045a57600052600a60205260406000205580806103ff565b634e487b7160e01b600052601160045260246000fd5b34610245576040366003190112610245576104a66104926024356004356148e4565b604051918291602083526020830190613e5e565b0390f35b3461024557602036600319011261024557600435600052600b6020526020604060002054604051908152f35b3461024557602036600319011261024557600435600954811015610245576104fd90613d9d565b5060ff6001825492015416906104a66040519282849360a01c9060018060a01b031684613d2d565b346102455761053336613d13565b90337f00000000000000000000000000000000000000000000000000000000000000006001600160a01b03161480159061057d575b6102275781156103545761057b92614a17565b005b50617a69461415610568565b3461024557602036600319011261024557600435600052600a6020526020604060002054604051908152f35b346102455760a0366003190112610245576105ce613e04565b506105d7613dee565b506001600160401b03604435818111610245576105f8903690600401613e2e565b505060643581811161024557610612903690600401613e2e565b50506084359081116102455761062c903690600401613d70565b505060405162461bcd60e51b8152602060048201526006602482015265042c4c2e8c6d60d31b6044820152606490fd5b346102455760603660031901126102455760043560ff8116810361024557610682613dee565b906044356001600160601b0381168103610245576020926106a2926148a8565b604051908152f35b34610245576000366003190112610245576020600954604051908152f35b34610245576106d636613d5a565b9060005260016020526040600020906000526020526020604060002054604051908152f35b346102455761070936613d5a565b9060005260066020526040600020906000526020526020604060002054604051908152f35b3461024557602036600319011261024557600435600052600a60205261076c61076660406000205461076181151561475f565b613d9d565b50614791565b8051602082015160409283015192519283926104a69260ff909216916001600160601b0316906001600160a01b031684613d2d565b346102455760003660031901126102455760206040516116808152f35b34610245576107cc36613d13565b91600052600460205260406000209060005260205260406000208054821015610245576040916107fb91613dd2565b506001815491015482519182526020820152f35b34610245576060366003190112610245576004356001600160401b0381116102455761083f903690600401613d70565b610440526024356001600160401b03811161024557610862903690600401613d70565b90610260526002600054146102155760026000556040516359516e5f60e01b8152600080516020615bc6833981519152600482015246602482015230604482015260a06064820152602081806108bf60a4820161044051886147c4565b6044356084830152038173__$1a0918a2aa2208593bb0a5d7644cd0946b$__5af49081156114c65760009161392e575b5060408051808093631155a0c560e31b82528360048301526109186044830187610260516147c4565b602483019190915203817f00000000000000000000000000000000000000000000000000000000000000006001600160a01b03165afa9081156114c6576000610140526000916138ea575b501580156138df575b611f0b5761014051600052600b60205260406000205460018101811161045a57600101604435036102275761014051600052600b60205260443560406000205560208261044051810103126102455781356001600160401b038111610245576101608184016104405185010312610245576040516102c0526109f06102c051613b8c565b828101356001600160401b03811161024557610440518401601f82848701010112156102455780828501013590610a26826147f2565b91610a346040519384613c5d565b808352602083019161044051870160208360061b83888b010101011161024557916020838689010101925b60208360061b82888b0101010184106138a65750506102c051929092525050828101602001356001600160401b03811161024557610440518401601f828487010101121561024557808285010135610ab6816147f2565b91610ac46040519384613c5d565b818352602083019061044051870160206060850283888b010101011161024557906020828689010101915b60206060850282888b0101010183106138825750506102c0516020019290925250506001600160401b03838201604001351161024557610440518301818401604081013501601f01121561024557610b4f838201604081013501356147f2565b610b5c6040519182613c5d565b83820160408101350180358083526104405160208085019391880160059390931b909101011161024557848301604081013501602001905b858401604081013501803560051b0160200182106137225750506102c051604001526001600160401b03838201606001351161024557610440518301818401606081013501601f0112156102455782810160608101350135610bf5816147f2565b90610c036040519283613c5d565b8082526020820161044051860160208360051b6060878a010135878a010101011161024557858401606081013501602001905b868501606081013501600584901b01602001821061365c5750506102c05160600191909152506001600160401b03838201608001351161024557610440518301818401608081013501601f0112156102455782810160808101350135610c9b816147f2565b90610ca96040519283613c5d565b8082526020820161044051860160208360051b6080878a010135878a010101011161024557858401608081013501602001905b868501608081013501600584901b0160200182106133a75750506102c05160800191909152506001600160401b0383820160a00135116102455761044051830181840160a081013501601f0112156102455782810160a08101350135610d41816147f2565b90610d4f6040519283613c5d565b8082526020820161044051860160208360051b60a0878a010135878a01010101116102455785840160a081013501602001905b86850160a081013501600584901b0160200182106132a75750506102c05160a00191909152506001600160401b0383820160c00135116102455761044051830181840160c081013501601f0112156102455760c08184010135818401013561040052610e03610df3610400516147f2565b6040516104205261042051613c5d565b610420516103c052610400516104205152602061042051016103c05261044051830160206104005160051b60c08487010135848701010101116102455782810160c0810135016020016103e0525b60206104005160051b60c083860101358386010101016103e05110612c1957610420516102c05160c001526001600160401b0383820160e00135116102455761044051830181840160e081013501601f0112156102455782810160e08101350135610ebb816147f2565b90610ec96040519283613c5d565b8082526020820190610440518601602060c0830260e0878a010135878a01010101116102455785840160e081013501602001915b86850160e08101350160c08302016020018310612b8d5750506102c05160e00191909152506001600160401b038382016101000135116102455761044051830181840161010081013501601f01121561024557610f6383820161010081013501356147f2565b610f706040519182613c5d565b83820161010081013501803580835261044051602080850193918801606090930290910101116102455784830161010081013501602001905b858401610100810135018035606002016020018210612b6e5750506102c05161010001526001600160401b038382016101200135116102455761044051830181840161012081013501601f01121561024557828101610120810135013592611010846147f2565b61101d6040519182613c5d565b848152602081019461044051830160208260061b6101208787010135878701010101116102455782840161012081013501602001955b83850161012081013501600683901b016020018710612b2e5750506101409394506101206102c05101520101356101406102c051015260006101c05260086102c05151511161115f57604060206102c0510151511161115f576040806102c0510151511161115f57604060606102c0510151511161115f57602060806102c0510151511161115f57600860a06102c0510151511161115f57600860c06102c0510151511161115f57604060e06102c0510151511161115f5760406101006102c0510151511161115f5760206101206102c0510151511161115f5760005b60406102c0510151805182101561117157604061114e838293614b9e565b510151511161115f57600101611130565b60405163e217c62b60e01b8152600490fd5b826111806102c0515151614b5f565b61118e6102c0515151614b5f565b610240526111a06102c0515151614b5f565b61020052600080915b6102c05151805184101561129257836111c191614b9e565b51519260206111d4826102c05151614b9e565b510151936000905b848210611271575b84821461121e575b5061121561120b60019495966112058461020051614b9e565b51613e9f565b9161020051614b9e565b520191906111a9565b61120b611268868361121594611237899a60019a614b9e565b5261014051600052876020526040600020906000526020526040600020546112628261024051614b9e565b52613e83565b959450506111ec565b908161127d8286614b9e565b511461128c57600101906111dc565b906111e4565b84838360005b828110612aff575060016101c05260005b60e06102c051015180518210156112e857906112d76112ca82600194614b9e565b518051156112dd57614c08565b016112a9565b610140518152614c08565b50509160005b60206102c0510151805182101561137f578161130991614b9e565b519061131c602083015161014051613f39565b6040820151611332602084015161014051614b14565b1061136d5761136782611354602060019501516040830151906101405161498b565b8051906040602082015191015191614a17565b016112ee565b604051632fd8225d60e21b8152600490fd5b82858560005b60606102c051015180518210156114d25790602060806113a88361141b95614b9e565b5160405194859283926328a3f8a760e11b845260016004850152600260248501526003604485015261014051606485015260c06084850152805160c48501528581015160e485015260408101516101048501526060810151610124850152015160a0610144840152610164830190613e5e565b7f00000000000000000000000000000000000000000000000000000000000000006001600160a01b031660a4830152038173__$1a0918a2aa2208593bb0a5d7644cd0946b$__5af480156114c65760009061148c575b6001925015611481575b01611385565b60006101c05261147b565b506020823d6020116114be575b816114a660209383613c5d565b81010312610245576114b96001926147e5565b611471565b3d9150611499565b6040513d6000823e3d90fd5b50509160806102c05101518051612848575b5060a06102c051015180516126d6575b5060005b6101206102c051015180518210156115d5578161151491614b9e565b5180519091906001600160a01b0316156102275760018060a01b03825116916020810151833b1561024557600093602485926040519687938492636030754560e01b845260048401525af19283156114c6576001936115c6575b5060208082015160405182810191825282815261158a81613ba8565b519020910151906040519182527f47172349c05bf58f7f6a376def3bbc250cd3295a7eead0290d8fa3531c6ca9fb60206101405193a3016114f8565b6115cf90613bf9565b8661156e565b83838660006102e0525b60c06102c051015180516102e0511015612309576102e05161160091614b9e565b516101e0526116166101e05151610140516148e4565b610300526101e051610140015115611fc25760405160208161030051516116438183856103005101613cf0565b810160028152030190205415611fb05760406101e051015160405160208161030051516116768183856103005101613cf0565b810160028152030190205410156102275760e06101e05101515115611f575760406101e0510151602060806101e05101516040516116c9816116bb858201948561513c565b03601f198101835282613c5d565b51902060c06101e05101518281519101209060e06101e05101519361176d6101e0515191604051968795869563bba8d94760e01b875260018060a01b037f0000000000000000000000000000000000000000000000000000000000000000166004880152306024880152610100604488015261174c610104880161030051613e5e565b936064880152608487015260a48601526003198583030160c4860152613e5e565b9060e4830152038173__$1a0918a2aa2208593bb0a5d7644cd0946b$__5af49081156114c657600091611f1d575b5015611f0b575b436101406101e051015115611eba575b6000600160405160208161030051516117d18183856103005101613cf0565b8101600281520301902001556000600260405160208161030051516117fc8183856103005101613cf0565b81018481520301902001556101e0515160806101e05101516101205260a06101e05101516103805260c06101e051015160206101205101515161012051515103611b425781610140511091600060e05282600014611eb1576101405160e0525b600060a0528215611ea45760a0525b6000610360528115611e9a5761038051610360525b6000610340528115611e8c57610340525b6000610180528015611e825743610180525b60006101a05215611e77576101a0525b6118c160a05160e0516148e4565b61010052602061012051015151610320526118de610320516147f2565b6118eb6040519182613c5d565b6103205181526118fd610320516147f2565b601f1901366020830137806102a05260005b610320518110611dd9575050610360515160006102805215611dc057611947602061036051516103605101016020610360510161561b565b610280525b610340515160006101605215611da757611978602061034051516103405101016020610340510161561b565b610160525b6000610220525b60406101205101518051610220511015611b8257610220516119a591614b9e565b5160c0526102805151610220511015611b6a57611a056119cb6102205161028051614b9e565b515b6101605151610220511015611b54576119ec6102205161016051614b9e565b51905b6101a05191610180519160c0516102a0516157a6565b608052608051516102a0515103611b425760005b604060c05101518051821015611acf5781611a3391614b9e565b5180516102a05151111561022757611a4e8151608051614b9e565b5190611a5e81516102a051614b9e565b5160008112838281031281169084838103139015161761045a5760008184031380611ac0575b610227576000818403129283611aa4575b50505061022757600101611a19565b602092935090611ab491036156ec565b91015110858080611a95565b50604082015181840311611a84565b5050919060005b6102a05151811015611b2857611af281604060c051015161599e565b1580611b05575b61022757600101611ad6565b50611b1281608051614b9e565b51611b20826102a051614b9e565b511415611af9565b5090916080516102a0526001610220510161022052611984565b6040516329be7c4760e11b8152600490fd5b604051611b6081613c42565b60008152906119ef565b611a05604051611b7981613c42565b600081526119cd565b509060005b60206101205101518051821015611cb3579060006001611ba8838295614b9e565b51611bb6846102a051614b9e565b516040516020816101005151611bd28183856101005101613cf0565b8101600381520301902082855260205260408420918254858313158614611c42579182611c059293611c2f575b506156ec565b80611c19575b50505b828155015501611b87565b611c289160a05160e0516159d5565b8880611c0b565b611c3c908460a051614a17565b8b611bff565b808310158614611c9057611c5b919281611c7e57613e92565b80611c68575b5050611c0e565b611c779160e05160a0516159d5565b8880611c61565b611c8b828560e051614a17565b613e92565b82611ca591611c8b611cae958560e051614a17565b9060a051614a17565b611c0e565b50506101e05160e001515190929015611d715760406101e05101516040516020816103005151611ce98183856103005101613cf0565b81016002815203019020555b6101e0515160206101e05101519060606101e051015160806101e0510151604051611d28816116bb60208201948561513c565b51902060405191825260208201527f6d46d52b5fda2a9055705ba74bf5e95807cfa39decf819cdfeaa14f9b2ba346a60406101405192a460016102e051016102e05291906115df565b6040516020816103005151611d8c8183856103005101613cf0565b81016002815203019020611da08154613e83565b9055611cf5565b604051611db381613c42565b600081526101605261197d565b604051611dcc81613c42565b600081526102805261194c565b611dea816020610120510151614b9e565b5160005b828110611e575750906001916040516020816101005151611e158183856101005101613cf0565b8101600381520301902090600052602052611e468260406000200154611e3f836101205151614b9e565b5190615274565b611e508285614b9e565b520161190f565b81611e69826020610120510151614b9e565b5114611b4257600101611dee565b50436101a0526118b3565b81610180526118a3565b506103805161034052611891565b8061036052611880565b506101405160a05261186b565b8060e05261185c565b5060026040516020816103005151611ed88183856103005101613cf0565b8101848152030190200154611680811115611f03578061167f1981011161045a5761167f19016117b2565b5060006117b2565b604051631bd18a1960e31b8152600490fd5b90506020813d602011611f4f575b81611f3860209383613c5d565b8101031261024557611f49906147e5565b8461179b565b3d9150611f2b565b60405162461bcd60e51b815260206004820152602b60248201527f5369676e617475726520726571756972656420666f7220636f6f70657261746960448201526a76652066696e616c697a6560a81b6064820152608490fd5b6040516388d0662b60e01b8152600490fd5b60016040516020816103005151611fdf8183856103005101613cf0565b8101600281520301902001548015611fb05760206101e05101519060206101006101e051015115156002604051838161030051516120238183856103005101613cf0565b81018481520301902001549361207a60606101e051015160c06101e0510151906040519788958695633ea09ef960e11b8752600487015260248601526044850152606484015260a0608484015260a4830190613e5e565b038173__$1a0918a2aa2208593bb0a5d7644cd0946b$__5af49182156114c6576000926122d5575b50036122c3576101e05160e0015151156122345760406101e051015160405160208161030051516120d98183856103005101613cf0565b810160028152030190205410156102275760406101e051015160206101e051015110156102275760806101e051015160405161211d816116bb60208201948561513c565b519020602060406101e05101519160e06101e0510151906101e051516121b56040519586948594632775acd960e21b865260018060a01b037f000000000000000000000000000000000000000000000000000000000000000016600487015230602487015260e0604487015261219960e4870161030051613e5e565b92606487015260848601526003198583030160a4860152613e5e565b9060c4830152038173__$1a0918a2aa2208593bb0a5d7644cd0946b$__5af49081156114c6576000916121fa575b506117a257604051631bd18a1960e31b8152600490fd5b90506020813d60201161222c575b8161221560209383613c5d565b8101031261024557612226906147e5565b846121e3565b3d9150612208565b6101006101e051015115156101e0515161014051101480612293575b6102275760606101e051015160806101e0510151604051612279816116bb60208201948561513c565b519020146117a257604051633485c51360e21b8152600490fd5b50600260405160208161030051516122b18183856103005101613cf0565b81018481520301902001544310612250565b604051630cba69cb60e01b8152600490fd5b9091506020813d602011612301575b816122f160209383613c5d565b81010312610245575190856120a2565b3d91506122e4565b50829060005b60406102c05101518051821015612351579061233a61233082600194614b9e565b5161014051615290565b15612346575b0161230f565b60006101c052612340565b50509160005b6101006102c051015180518210156125bb578161237391614b9e565b516040810151156103545761238f602082015161014051613f39565b61239f6107666020830151613d9d565b60408201516123b5602084015161014051614b14565b1061136d5781516001600160a01b03106102275760018060a01b0382511690600160ff60408301511614806125ac575b6103545761240060208401516040850151906101405161498b565b604081015160ff168061249d5750906044604060209360018060a01b03905116940151916000604051958694859363a9059cbb60e01b8552600485015260248401525af19081156114c657600091612463575b501561136d576001905b01612357565b90506020813d602011612495575b8161247e60209383613c5d565b810103126102455761248f906147e5565b85612453565b3d9150612471565b909392906001810361251c57505082516020909301516001600160a01b03909316926001600160601b0316833b15610245576124f493600092836040518097819582946323b872dd60e01b84523060048501614be6565b03925af19182156114c65760019261250d575b5061245d565b61251690613bf9565b85612507565b909390600214612532575b50506001915061245d565b8051602090910151604094909401516001600160601b0390941693906001600160a01b0316803b1561024557612584946000809460405197889586948593637921219560e11b85523060048601614bb2565b03925af19182156114c65760019261259d575b80612527565b6125a690613bf9565b85612597565b506001604084015114156123e5565b82858560005b82811061262f57836101c05115801590611f0b576125e6602092369061026051613c9b565b828151910120604051604435815282848201527fbd6e57133956b4a3944b483a9e595b4aab16071cf15a39384fdb1b7015865aab60406101405192a36001600055604051908152f35b6126398183614b9e565b5161265f61264a8361024051614b9e565b516126588461020051614b9e565b5190613e9f565b6101405160005260016020526040600020826000526020526040600020541061136d5761269d6126928361020051614b9e565b51826101405161498b565b6101405160005260016020526040600020906000526020526040600020546126c88261024051614b9e565b511161136d576001016125c1565b604051906312f6ab5960e31b82528160a481016002600483015261014051602483015260a06044830152825180915260c4820190602060c48260051b8501019401916000905b8282106127dd575050611680606484015250507f00000000000000000000000000000000000000000000000000000000000000006001600160a01b031660848201526020918190038173__$1a0918a2aa2208593bb0a5d7644cd0946b$__5af49081156114c6576000916127a3575b5015612798575b836114f4565b60006101c052612792565b90506020813d6020116127d5575b816127be60209383613c5d565b81010312610245576127cf906147e5565b8461278b565b3d91506127b1565b919350919360208061283960019360c3198a8203018652885190815181528382015184820152604082015160408201526080612828606084015160a0606085015260a0840190613e5e565b920151906080818403910152613e5e565b9601920192018593919261271c565b60409391935190630c039dc760e31b82528160c4810160016004830152600260248301526003604483015261014051606483015260c06084830152825180915260e4820190602060e48260051b8501019401916000905b8282106129d4575050507f00000000000000000000000000000000000000000000000000000000000000006001600160a01b031660a4830152506020918190038173__$1a0918a2aa2208593bb0a5d7644cd0946b$__5af49081156114c65760009161299a575b501561298f575b90916000915b60806102c05101518051841015612985578361292e91614b9e565b519160005b60608401518051821015612976579061297061295182600194614b9e565b5161296381885160208a015190614f7e565b6020870151875190614f7e565b01612933565b50506001909301929150612913565b50929150836114e4565b60006101c05261290d565b90506020813d6020116129cc575b816129b560209383613c5d565b81010312610245576129c6906147e5565b84612906565b3d91506129a8565b919350919360e3198682030182528451906101008101825182526020830151602083015260408301519061010060408401528151809152602061012084019201906000905b808210612abf575050506060830151908281036060840152602080835192838152019201906000905b808210612aa7575050508260209260e080612a92612a6f8796608060019a01518682036080880152613e5e565b888060a01b0360a08701511660a086015260c086015185820360c0870152613e5e565b9301519101529601920192018593919261289f565b90919260208060019286518152019401920190612a42565b909192602060a060019260808751805183528481015185840152604081015160408401526060810151606084015201516080820152019401920190612a19565b80612b28612b0f60019385614b9e565b51612b1d8361020051614b9e565b519061014051614a17565b01611298565b6040876104405186010312610245576040602080928251612b4e81613ba8565b612b578b613e1a565b8152828b0135838201528152019701969050611053565b6020606091612b8261044051890185614809565b815201910190610fa9565b60c083610440518901031261024557604051612ba881613c0c565b83358152612bb860208501613e1a565b602082015260408401356001600160601b03811690036102455760408481013590820152606084013560ff8116900361024557606084810135908201526080808501359082015260a08085013590820152815260c090920191602001610efd565b6103e051356001600160401b03811161024557610160601f198260c085880101358588010101610440518701030112610245576040516103a052612c5f6103a051613b8c565b6103a0805185840160c08101350183016020818101359092528251604080830135919093015282516060808301359190930152915160808301359101526001600160401b0360a090910135116102455761044051606085840160c081013501830160a08101350191860191909103601f19011261024557604051612ce281613bc3565b84830160c081013501820160a081013501602001356001600160401b0381116102455761044051860184870160c081013501840160a0810135018201603f0112156102455785840160c081013501830160a081013501810160200135612d47816147f2565b91612d556040519384613c5d565b818352610440516020840191908901878a0160c081013501870160a0810135018201600585901b01604001116102455786890160c081013501860160a0810135018101604001915b89880160c081013501870160a0810135018201600585901b01604001831061329757505050908252506001600160401b0385840160c081013501830160a08101350160400135116102455761044051612e1190860184870160c081013501840160a08101350160408101350160200161483b565b602082015284830160c081013501820160a081013501606001356001600160401b0381116102455761044051860184870160c081013501840160a0810135018201603f0112156102455785840160c081013501830160a081013501810160200135612e7b816147f2565b91612e896040519384613c5d565b818352610440516020840191908901878a0160c081013501870160a0810135018201600585901b01604001116102455786890160c081013501860160a0810135018101604001915b89880160c081013501870160a0810135018201600585901b016040018310613056575050505060408201526103a051608001526001600160401b0360c0838601818101350183010135116102455761044051612f42908501602060c085880181810135018501908101350101613cd2565b6103a05160a001526001600160401b0384830160c081013501820160e00135116102455761044051612f8990850183860160c081013501830160e081013501602001613cd2565b60c06103a051015260018060401b036101008260c0858801013585880101010135116102455761044051612fd390850183860160c081013501830161010081013501602001613cd2565b60e06103a051015261302b61016061012092612ffc848260c0888b010135888b0101010161489b565b6103a0805161010001919091525187860160c0810135019091016101408181013592909501919091520161489b565b906103a05101526103a0516103c0515260206103c051016103c05260206103e051016103e052610e51565b6001600160401b0383351161024557610440516060898c0160c081013501890160a0810135018401853501918c0191909103603f1901126102455760405161309d81613bc3565b6130be898c0160c081013501890160a0810135018401853501604001613e1a565b81526001600160401b03898c0160c081013501890160a081013501840185350160600135116102455761044051613115908c018c8b0160c0810135018a0160a0810135018501863501606081013501604001613cd2565b60208201526001600160401b03898c0160c081013501890160a0810135018401853501608001351161024557610440518b01898c0160c081013501890160a0810135018401853501608081013501605f01121561024557888b0160c081013501880160a0810135018301843501608081013501604001358b613196826147f2565b916131a46040519384613c5d565b808352610440516020840192908101908d0160c0810135018c0160a08101350187018835016080810135016060808402919091010111610245578b8e0160c0810135018b0160a0810135018601873501608081013501606090810192908f908e8a8f5b91840160c08101350190910160a0810135018a019035016080810135018482020101841061324657505050506040820152815260209283019201612ed1565b83606091610440510103126102455760608f898f93918f928460208d9260405161326f81613bc3565b8b358152828c01358382015260408c0135604082015281520198019795929194939050613207565b8235815260209283019201612d9d565b6001600160401b038235116102455760a0601f19833582888b010135888b010101610440518a0103011261024557604051906132e282613bde565b87860160a0810135018335016020818101358452604080830135918501919091526060820135908401526001600160401b03608090910135116102455761044051613343908901878a0160a081013501853501608081013501602001613cd2565b60608301526001600160401b0388870160a081810135909101853501013511610245576104405160209283928392909190613395908c018a8d0160a08181013590910189350190810135018501613cd2565b60808201528152019201919050610d82565b81356001600160401b03811161024557610100601f19826080898c010135898c010101610440518b0103011261024557604051906001600160401b03610100830190811190831117613646576101008201604090815260206080898c01908101350183018181013585529182013590840152606001356001600160401b03811161024557610440518a01888b0160808101350183018201603f01121561024557878a01608081013501820181016020013590613462826147f2565b916134706040519384613c5d565b8083526104405160208401908d018b8e016080810135018601840160a08402016040011161024557918a8d0160808101350185018101604001905b8d8c81016080810135018701820160a085020160400183106135e757505050505060408301526001600160401b036080888b0181810135018301013511610245576104405161350f908a01602060808a8d018181013501850190810135010161483b565b60608301526001600160401b03898801608081013501820160a00135116102455761044051613553908a01888b01608081013501830160a081013501602001613cd2565b608083015261357060c08260808a8d0101358a8d01010101613e1a565b60a08301526001600160401b03898801608081013501820160e001351161024557610440516020938493849391929091610100916135c2908e018c8f01608081013501830160e0810135018701613cd2565b60c08401528a8d0160808101350101013560e082015281529190930192019050610cdc565b8260a091610440510103126102455760408c8f958860a060208693865161360d81613bde565b89358152828a013583820152878a01358882015260608a0135606082015260808a013560808201528152019601959750505050506134ab565b634e487b7160e01b600052604160045260246000fd5b6001600160401b038235116102455760a0601f1983356060888b010135888b010101610440518a01030112610245576040519061369882613bde565b87860160608181013590910184350160208181013585526040808301359186019190915281830135908501526080810135918401919091526001600160401b0360a09091013511610245576104405160209283928392909190613710908c018a8d0160608101350188350160a0810135018501613cd2565b60808201528152019201919050610c36565b6001600160401b03823511610245576060601f1983356040878a010135878a0101016104405189010301126102455760405161375d81613bc3565b86850160408181013590910184350160208181013584529181013591830191909152606001356001600160401b038111610245576104405188018689016040810135018535018201603f01121561024557878601604081013501843501810160200135906137ca826147f2565b916137d86040519384613c5d565b8083526104405160208401908b01898c016040818101359091018935018501600685901b01011161024557888b01604081810135909101883501840101905b898c016040818101359091018935018501600685901b0101821061384c57505050506040820152815260209182019101610b94565b6040828d61044051010312610245576020604091825161386b81613ba8565b843581528285013583820152815201910190613817565b60608060208094613898610440518d0188614809565b815201940193925050610aef565b604084610440518a0103126102455760406020809382516138c681613ba8565b8735815282880135838201528152019401939150610a5f565b50610140511561096c565b90506040813d604011613926575b8161390560409383613c5d565b810103126102455761391b6020825192016147e5565b906101405283610963565b3d91506138f8565b90506020813d602011613958575b8161394960209383613c5d565b810103126102455751836108ef565b3d915061393c565b346102455761396e36613d5a565b9060005260076020526040600020906000526020526020604060002054604051908152f35b346102455760206106a26139a636613d5a565b90614b14565b34610245576139ba36613d5a565b9060005260056020526040600020906000526020526020604060002054604051908152f35b346102455760203660031901126102455760043560005260086020526020604060002054604051908152f35b346102455760203660031901126102455761076c610766600435610761600954821061475f565b34610245576000366003190112610245576040517f00000000000000000000000000000000000000000000000000000000000000006001600160a01b03168152602090f35b34610245576000366003190112610245576020604051600080516020615bc68339815191528152f35b34610245576020366003190112610245576004356001600160401b03811161024557613aea6020613ad76060933690600401613cd2565b8160405193828580945193849201613cf0565b81016002815203019020805490600260018201549101549060405192835260208301526040820152f35b346102455761057b613b2536613d13565b916144df565b34610245576040366003190112610245576004356001600160401b038111610245576020613ad7613b60923690600401613cd2565b810160038152030190206024356000526020526040806000206001815491015482519182526020820152f35b61016081019081106001600160401b0382111761364657604052565b604081019081106001600160401b0382111761364657604052565b606081019081106001600160401b0382111761364657604052565b60a081019081106001600160401b0382111761364657604052565b6001600160401b03811161364657604052565b60c081019081106001600160401b0382111761364657604052565b608081019081106001600160401b0382111761364657604052565b602081019081106001600160401b0382111761364657604052565b601f909101601f19168101906001600160401b0382119082101761364657604052565b6001600160401b03811161364657601f01601f191660200190565b929192613ca782613c80565b91613cb56040519384613c5d565b829481845281830111610245578281602093846000960137010152565b9080601f8301121561024557816020613ced93359101613c9b565b90565b60005b838110613d035750506000910152565b8181015183820152602001613cf3565b606090600319011261024557600435906024359060443590565b6001600160a01b0390911681526001600160601b03909116602082015260ff909116604082015260600190565b6040906003190112610245576004359060243590565b9181601f84011215610245578235916001600160401b038311610245576020838186019501011161024557565b600954811015613dbc57600960005260206000209060011b0190600090565b634e487b7160e01b600052603260045260246000fd5b8054821015613dbc5760005260206000209060011b0190600090565b602435906001600160a01b038216820361024557565b600435906001600160a01b038216820361024557565b35906001600160a01b038216820361024557565b9181601f84011215610245578235916001600160401b038311610245576020808501948460051b01011161024557565b90602091613e7781518092818552858086019101613cf0565b601f01601f1916010190565b600019811461045a5760010190565b9190820391821161045a57565b9190820180921161045a57565b90613ebd5760018160008093550155565b634e487b7160e01b600052600060045260246000fd5b80549060009081815582613ee657505050565b6001906001600160ff1b0384168403613f25578252602082209260011b8301925b838110613f145750505050565b808360029255838382015501613f07565b634e487b7160e01b83526011600452602483fd5b600081815260049260206004815260409384842083855282528484209586549081156141735782865260058452868620858752845286862054978289101561416a575b90838752600191600186528888208789528652888820548389905b613fe7575b5050505050861015613fb957835260058152838320918352522055565b613fe5955080845260058252848420838552825283858120558352600481528383209183525220613ed3565b565b858c929394959c1080614161575b1561415957906140068c9392613e83565b916140118286613dd2565b50908482019182549586156141445750811561413b57549190614068908c90614062908c908981101561412e57611c8b81809581945b61405283838361498b565b61405d83838d614a17565b614a6f565b96613e92565b90614074828254613e92565b91806140f957508c90558d83018084116140e6576140dc928f969594928f8f8f94928f938f9493606093600080516020615b86833981519152958251948552840152820152a46140c48b8a614ab2565b6140d76140d18288613dd2565b90613eac565b613e83565b9b5b949392613f97565b634e487b7160e01b8d526011885260248dfd5b849f9695948f8e94600080516020615b86833981519152928f928f95606094818e9b99558251948552840152820152a46140de565b611c8b8a80958194614047565b5050509a613f9c565b95505092916141539150613e83565b9b6140de565b819b50613f9c565b50878110613ff5565b97508597613f7c565b5050835260058152838320918352529081205550565b600081815260049260206004815260409384842083855282528484209586549081156141735782865260058452868620858752845286862054978289101561432b575b90838752600191600186528888208789528652888820548389905b614208575050505050861015613fb957835260058152838320918352522055565b858c929394959c1080614322575b1561415957906142278c9392613e83565b916142328286613dd2565b509084820191825495861561430d5750811561413b57549190614272908c90614062908c908981101561412e57611c8b818095819461405283838361498b565b9061427e828254613e92565b91806142d857508c90558d83018084116140e6576142ce928f969594928f8f8f94928f938f9493606093600080516020615b86833981519152958251948552840152820152a46140c48b8a614ab2565b9b5b9493926141e7565b849f9695948f8e94600080516020615b86833981519152928f928f95606094818e9b99558251948552840152820152a46142d0565b955050929161431c9150613e83565b9b6142d0565b50878110614216565b975085976141cc565b60008181526004926020600481526040938484208385528252848420958654908115614173578286526005845286862085875284528686205497828910156144d6575b90838752600191600186528888208789528652888820548389905b6143b3575050505050861015613fb957835260058152838320918352522055565b858c929394959c10806144cd575b1561415957906143d28c9392613e83565b916143dd8286613dd2565b50908482019182549586156144b85750811561413b5754919061441d908c90614062908c908981101561412e57611c8b818095819461405283838361498b565b90614429828254613e92565b918061448357508c90558d83018084116140e657614479928f969594928f8f8f94928f938f9493606093600080516020615b86833981519152958251948552840152820152a46140c48b8a614ab2565b9b5b949392614392565b849f9695948f8e94600080516020615b86833981519152928f928f95606094818e9b99558251948552840152820152a461447b565b95505092916144c79150613e83565b9b61447b565b508781106143c1565b97508597614377565b8060005260046020526040600020826000526020526040600020805490811561473d578260005260056020526040600020846000526020526040600020549482861015614734575b8360005260019060016020526040600020866000526020528160406000205491801560001461472a5750919291506000195b6000845b6145ca575b505050505083101561458a576000526005602052604060002090600052602052604060002055565b809192506000526005602052604060002082600052602052600060408120556000526004602052604060002090600052602052613fe56040600020613ed3565b8589939495991080614721575b15614719576145e590613e83565b916145f08186613dd2565b509089820154948a8615614704575080156146fc579061464161405d6140628c8695611c8b8e839c9b9a99549c8d918d85106000146146f057849788809781955b61463c83838761498b565b614a17565b9161464f838d830154613e92565b92806146b757508b60009101558a81019182821161045a578b968a600080516020615b8683398151915260608e946146ab97604051918252600060208301526040820152a461469e8a8a614ab2565b6140d76140d18289613dd2565b985b949391909161455d565b600080516020615b8683398151915260608e999395859f96958f96948f95898291015560405192835260208301526040820152a46146ad565b8d978880978195614631565b509850614562565b95509392915061471390613e83565b986146ad565b829850614562565b508181106145d7565b9050929192614559565b60009550614527565b5050909150600052600560205260406000209060005260205260006040812055565b1561476657565b606460405162461bcd60e51b815260206004820152600460248201526321746f6b60e01b6044820152fd5b9060405161479e81613bc3565b82546001600160a01b038116825260a01c602082015260019092015460ff166040830152565b908060209392818452848401376000828201840152601f01601f1916010190565b5190811515820361024557565b6001600160401b0381116136465760051b60200190565b91908260609103126102455760405161482181613bc3565b604080829480358452602081013560208501520135910152565b9080601f83011215610245576020908235614855816147f2565b936148636040519586613c5d565b81855260208086019260051b82010192831161024557602001905b82821061488c575050505090565b8135815290830190830161487e565b3590811515820361024557565b916040519160ff602084019416845260018060a01b0316604083015260018060601b03166060820152606081526148de81613c27565b51902090565b908082101561490857604051916020830152604082015260408152613ced81613bc3565b90604051916020830152604082015260408152613ced81613bc3565b600954600160401b811015613646578060016149439201600955613d9d565b613ebd578151602083015160a01b6001600160a01b0319166001600160a01b039190911617815560409190910151600191909101805460ff191660ff92909216919091179055565b90918015614a1257600090828252602091600183526040918282208683528452808383205410614a01579181600080516020615ba68339815191529493868394526001855282822088835285526149e6838320918254613e92565b905585815260018452818120878252845220549051908152a3565b8251632fd8225d60e21b8152600490fd5b505050565b90918015614a125760206040600080516020615ba683398151915292600090858252600184528282208783528452614a53838320918254613e9f565b90558481526001835281812086825283522054604051908152a3565b90918015614a125760009282845260066020526040842081855260205260408420549082821061136d576040938552600660205283852090855260205203912055565b90600090828252600860205260408220805480614b07575b50506007602052604082208183526020526040822054614ae957505050565b60409282526007602052828220908252602052206000198154019055565b6000190190553880614aca565b6000918183526001602052604083208184526020526040832054918352600660205260408320908352602052604082205490818111600014614b5a57613ced9250613e92565b505090565b90614b69826147f2565b614b766040519182613c5d565b8281528092614b87601f19916147f2565b0190602036910137565b805115613dbc5760200190565b8051821015613dbc5760209160051b010190565b929060c0949260018060a01b0380921685521660208401526040830152606082015260a06080820152600060a08201520190565b6001600160a01b03918216815291166020820152604081019190915260600190565b805180614f795750335b60a08201805115610354576060830180516020808601805160408089018051939991956001600160a01b03959491936001600160601b039392608092614c61929186169189169060ff166148a8565b9101968688518015600014614f4f57505081600052600a8552866000205480895215614efd575b60ff91505b511680614e1257505050818751169183519782896024816370a0823160e01b978882523060048301525afa988915614e0757600099614dd8575b50600083614cf1848451168a5189519485809481936323b872dd60e01b8352303360048501614be6565b03925af1908115614dcd57600091614d98575b5015614d8757908291511692602485518095819382523060048301525afa928315614d7d5750600092614d4d575b5050613fe594614d4191613e92565b82525b51905191614a17565b90809250813d8311614d76575b614d648183613c5d565b81010312610245575184614d41614d32565b503d614d5a565b513d6000823e3d90fd5b8451632fd8225d60e21b8152600490fd5b90508381813d8311614dc6575b614daf8183613c5d565b8101031261024557614dc0906147e5565b38614d04565b503d614da5565b86513d6000823e3d90fd5b9098508281813d8311614e00575b614df08183613c5d565b8101031261024557519738614cc7565b503d614de6565b85513d6000823e3d90fd5b94999891949093925060018103614e865750511691511690803b156102455786516323b872dd60e01b8152916000918391829084908290614e5890303360048501614be6565b03925af18015614dcd57613fe5959650614e77575b5060018252614d44565b614e8090613bf9565b38614e6d565b600214614e9d575b50505050613fe5939450614d44565b51169151168351823b1561024557614ed092600092838a51809681958294637921219560e11b8452303360048601614bb2565b03925af18015614dcd57613fe5959650614eee575b85948180614e8e565b614ef790613bf9565b38614ee5565b614f29868c51168486511660ff845116908a5192614f1a84613bc3565b83528883015289820152614924565b600954600019810190811161045a5760ff92818a52600052600a86528760002055614c88565b60ff935090614f616107668593613d9d565b805189168e5287810151861687520151168152614c8d565b614c12565b90916000908282526020600581526040938484208385528252848420548185526004835285852084865283528585209081546000199888835b838110615046575050508110918261502d575b5050614fd9575b505050505050565b60001986036150195761500e955080845260058252848420838552825283858120558352600481528383209183525220613ed3565b388080808080614fd1565b83526005815283832091835252205561500e565b600192509061503b91613dd2565b500154153880614fca565b8883888c8b615055868c613dd2565b50916001809301549283156150f8578c866150708a83613dd2565b5054036150d457927f0971ac81b80f99fe0089c3fbe4af4fa1148f2ce78bc6345e76b05be73500de1f949289926150aa8460019d97613dd2565b5001556150b8838988614a6f565b6150c28887614ab2565b8351928352820152a45b018990614fb7565b505050505050505090506000198b146150f0575b6001906150cc565b9950896150e8565b50505050505050600191506150cc565b90815180825260208080930193019160005b828110615128575050505090565b83518552938101939281019260010161511a565b90602080835281519061515b6060926060838701526080860190615108565b8184015190601f199460409186888203018389015284808551928381520194019060005b8181106152605750505081015195606086828503019101528551938483528383019184808760051b8601019801966000945b8786106151c45750505050505050505090565b90919293949596979882828203018652878a5160018060a01b038151168352856151f983830151898587015289860190613e5e565b91015192868183039101528180845192838152019301906000905b888183106152375750505050806001929b019601960194979695939291906151b1565b8395896001949693955180518352848101518584015201518a82015201940192018a9291615214565b82518652948601949186019160010161517f565b9190916000838201938412911290801582169115161761045a57565b919091825190602080850151906152a78484614189565b60005b6040808801908151805184101561560d576152d3846152ca818894614b9e565b51519451614b9e565b510151906152e183876148e4565b6152eb8989614b14565b83116155fe57856153089181845193828580945193849201613cf0565b8101600381520301902088600052855280600020615327838a8a61498b565b615332838254613e9f565b9384825580881093846155e7575b5083156155e05787935b156155d757929390935b82519361536085613ba8565b8a6001968787528960005b81811061559457505083600052878a5285600020826000528a5285600020549083600052888b5286600020836000528b52888760002054910154918751936153b285613bde565b84528b840152868301526060948583015260808201526153d186614b91565b526153db85614b91565b508351946153e886613ba8565b8686528860005b81811061556057506154179061540584866148e4565b81885193828580945193849201613cf0565b81016002815203019020549185519361542f85613c27565b845289840152848301528282015261544684614b91565b5261545083614b91565b5081519386850187865284518091528386019288858360051b8901019601946000905b8382106154b1575050505050505081600193927f784575545124eef27f8fcc1472fb5f2483beb9cc23e6fe3dbf588eb7bd501f7c920390a1016152aa565b9091848b829596979899603f198c8203018a528a51906080810191805182528381015184830152868101519260808884015283518091528460a084019401906000905b8082106155195750505094808495960151910152990197019201909493929194615473565b939692959197509360a090608089518051835284810151858401528b8101518c8401528d8082015190840152015160808201520196019201928f93928996938c96936154f4565b869895985161556e81613c27565b60008152600083820152898882015260008a82015282828a0101520189909794976153ef565b9091925086989598516155a681613bde565b60008152600083820152600088820152600060608201526000608082015282828a0101520190898d9298959861536b565b50928692615354565b809361534a565b6155f660018401918254615274565b905538615340565b50600099505050505050505050565b506001985050505050505050565b60209081818403126102455780516001600160401b039182821161024557019083601f83011215610245578151615651816147f2565b946040926156626040519788613c5d565b828752858088019360051b8601019482861161024557868101935b86851061568f57505050505050505090565b84518381116102455782019084603f830112156102455788820151906156b482613c80565b6156c089519182613c5d565b82815286898486010111610245576156e18b949385948b8685019101613cf0565b81520194019361567d565b600160ff1b811461045a5760000390565b3d15615728573d9061570e82613c80565b9161571c6040519384613c5d565b82523d6000602084013e565b606090565b6020908181840312610245578051906001600160401b03821161024557019180601f84011215610245578251615762816147f2565b936157706040519586613c5d565b818552838086019260051b820101928311610245578301905b828210615797575050505090565b81518152908301908301615789565b90919260018060a01b03808451169560405197602098898101906354460ea760e11b8252600481526157d781613ba8565b6000998a92839251915afa6157ea6156fd565b81615991575b8161596e575b506158ae5750509161587061583e928798869561585197999899511695015190615861604051998a9889978897630c6191f960e11b8952608060048a01526084890190615108565b60031995868983030160248a0152613e5e565b9084878303016044880152613e5e565b91848303016064850152613e5e565b03915afa9182156158a257809261588657505090565b613ced92503d8091833e61589a8183613c5d565b81019061572d565b604051903d90823e3d90fd5b90889161592389986158f1966159148661593c988c51169b0151926159046040519a8b998a019c8d63649330f760e01b905260c060248c015260e48b0190615108565b60231995868b83030160448c0152613e5e565b90848983030160648a0152613e5e565b91868303016084870152613e5e565b9160a484015260c483015203601f198101835282613c5d565b51915afa906159496156fd565b9115615961579081613ced928251830101910161572d565b8151156102275781519101fd5b9050898180518101031261598d578961598791016147e5565b386157f6565b8880fd5b90508981511015906157f0565b9060005b82518110156159cd57816159b68285614b9e565b5151146159c5576001016159a2565b505050600190565b505050600090565b9091928015615b7f57615a0a906159ec8584614334565b6159f68584614b14565b818110615b795750805b81615b6357613e92565b80158015615a1a575b5050505050565b8315610227578383146102275761035457816000526020906004825260409081600020866000528352816000208251615a5281613ba8565b868152848101918383528054600160401b81101561364657615a7991600182018155613dd2565b929092613ebd57600191518355519101558360005260048352816000208660005283528160002054600019810190811161045a577fae767eeb0c57abd46e2e0b422895ba3b89372fbd0510a58f00d996faf66f027d938115615b46575b85600052600681528360002088600052815283600020615af7848254613e9f565b9055856000526008815283600020615b0f8154613e83565b905585600052600781528360002088600052815283600020615b318154613e83565b90558351928352820152a43880808080615a13565b856000526005815283600020886000528152600084812055615ad6565b615b6e82878661498b565b611c8b828787614a17565b90615a00565b5050505056fe1ffe8e6348fe244a8988797c02b57999821149e7b25c9f93a85c77819efdde67ab4d21442efe134c3d0c087e2b687e9593a1c09176f498d37873210cde052c45990f4c22d4b046a9a7d673c4a252b906cadd4f3290465e297f998c28a449652ba2646970667358221220bfad3fac7171276233232be81374eefd0e5b4b2141b072aa8f724743ec2518f664736f6c63430008180033",
  "linkReferences": {
    "contracts/Account.sol": {
      "Account": [
        {
          "length": 20,
          "start": 2760
        },
        {
          "length": 20,
          "start": 5707
        },
        {
          "length": 20,
          "start": 6516
        },
        {
          "length": 20,
          "start": 8827
        },
        {
          "length": 20,
          "start": 9148
        },
        {
          "length": 20,
          "start": 10596
        },
        {
          "length": 20,
          "start": 10975
        }
      ]
    }
  },
  "deployedLinkReferences": {
    "contracts/Account.sol": {
      "Account": [
        {
          "length": 20,
          "start": 2251
        },
        {
          "length": 20,
          "start": 5198
        },
        {
          "length": 20,
          "start": 6007
        },
        {
          "length": 20,
          "start": 8318
        },
        {
          "length": 20,
          "start": 8639
        },
        {
          "length": 20,
          "start": 10087
        },
        {
          "length": 20,
          "start": 10466
        }
      ]
    }
  }
}