{
  "_format": "hh-sol-artifact-1",
  "contractName": "Depository",
  "sourceName": "contracts/Depository.sol",
  "abi": [
    {
      "inputs": [],
      "stateMutability": "nonpayable",
      "type": "constructor"
    },
    {
      "anonymous": false,
      "inputs": [
        {
          "components": [
            {
              "internalType": "bytes32",
              "name": "left",
              "type": "bytes32"
            },
            {
              "internalType": "bytes32",
              "name": "right",
              "type": "bytes32"
            },
            {
              "internalType": "uint256",
              "name": "tokenId",
              "type": "uint256"
            },
            {
              "internalType": "uint256",
              "name": "leftReserve",
              "type": "uint256"
            },
            {
              "internalType": "uint256",
              "name": "rightReserve",
              "type": "uint256"
            },
            {
              "internalType": "uint256",
              "name": "collateral",
              "type": "uint256"
            },
            {
              "internalType": "int256",
              "name": "ondelta",
              "type": "int256"
            }
          ],
          "indexed": false,
          "internalType": "struct Depository.Settled[]",
          "name": "",
          "type": "tuple[]"
        }
      ],
      "name": "ChannelSettled",
      "type": "event"
    },
    {
      "anonymous": false,
      "inputs": [
        {
          "indexed": true,
          "internalType": "bytes32",
          "name": "sender",
          "type": "bytes32"
        },
        {
          "indexed": true,
          "internalType": "bytes32",
          "name": "counterentity",
          "type": "bytes32"
        },
        {
          "indexed": true,
          "internalType": "uint256",
          "name": "cooperativeNonce",
          "type": "uint256"
        }
      ],
      "name": "CooperativeClose",
      "type": "event"
    },
    {
      "anonymous": false,
      "inputs": [
        {
          "indexed": true,
          "internalType": "bytes32",
          "name": "debtor",
          "type": "bytes32"
        },
        {
          "indexed": true,
          "internalType": "bytes32",
          "name": "creditor",
          "type": "bytes32"
        },
        {
          "indexed": true,
          "internalType": "uint256",
          "name": "tokenId",
          "type": "uint256"
        },
        {
          "indexed": false,
          "internalType": "uint256",
          "name": "amount",
          "type": "uint256"
        },
        {
          "indexed": false,
          "internalType": "uint256",
          "name": "debtIndex",
          "type": "uint256"
        }
      ],
      "name": "DebtCreated",
      "type": "event"
    },
    {
      "anonymous": false,
      "inputs": [
        {
          "indexed": true,
          "internalType": "bytes32",
          "name": "debtor",
          "type": "bytes32"
        },
        {
          "indexed": true,
          "internalType": "bytes32",
          "name": "creditor",
          "type": "bytes32"
        },
        {
          "indexed": true,
          "internalType": "uint256",
          "name": "tokenId",
          "type": "uint256"
        },
        {
          "indexed": false,
          "internalType": "uint256",
          "name": "amountPaid",
          "type": "uint256"
        },
        {
          "indexed": false,
          "internalType": "uint256",
          "name": "remainingAmount",
          "type": "uint256"
        },
        {
          "indexed": false,
          "internalType": "uint256",
          "name": "newDebtIndex",
          "type": "uint256"
        }
      ],
      "name": "DebtEnforced",
      "type": "event"
    },
    {
      "anonymous": false,
      "inputs": [
        {
          "indexed": true,
          "internalType": "bytes32",
          "name": "debtor",
          "type": "bytes32"
        },
        {
          "indexed": true,
          "internalType": "bytes32",
          "name": "creditor",
          "type": "bytes32"
        },
        {
          "indexed": true,
          "internalType": "uint256",
          "name": "tokenId",
          "type": "uint256"
        },
        {
          "indexed": false,
          "internalType": "uint256",
          "name": "amountForgiven",
          "type": "uint256"
        },
        {
          "indexed": false,
          "internalType": "uint256",
          "name": "debtIndex",
          "type": "uint256"
        }
      ],
      "name": "DebtForgiven",
      "type": "event"
    },
    {
      "anonymous": false,
      "inputs": [
        {
          "indexed": true,
          "internalType": "bytes32",
          "name": "sender",
          "type": "bytes32"
        },
        {
          "indexed": true,
          "internalType": "bytes32",
          "name": "counterentity",
          "type": "bytes32"
        },
        {
          "indexed": true,
          "internalType": "uint256",
          "name": "disputeNonce",
          "type": "uint256"
        },
        {
          "indexed": false,
          "internalType": "bytes",
          "name": "initialArguments",
          "type": "bytes"
        }
      ],
      "name": "DisputeStarted",
      "type": "event"
    },
    {
      "anonymous": false,
      "inputs": [
        {
          "indexed": false,
          "internalType": "bool",
          "name": "isPaused",
          "type": "bool"
        }
      ],
      "name": "EmergencyPauseToggled",
      "type": "event"
    },
    {
      "anonymous": false,
      "inputs": [
        {
          "indexed": true,
          "internalType": "address",
          "name": "provider",
          "type": "address"
        }
      ],
      "name": "EntityProviderAdded",
      "type": "event"
    },
    {
      "anonymous": false,
      "inputs": [
        {
          "indexed": true,
          "internalType": "address",
          "name": "provider",
          "type": "address"
        }
      ],
      "name": "EntityProviderRemoved",
      "type": "event"
    },
    {
      "anonymous": false,
      "inputs": [
        {
          "indexed": true,
          "internalType": "bytes32",
          "name": "entityId",
          "type": "bytes32"
        },
        {
          "indexed": true,
          "internalType": "bytes32",
          "name": "hankoHash",
          "type": "bytes32"
        },
        {
          "indexed": false,
          "internalType": "uint256",
          "name": "nonce",
          "type": "uint256"
        },
        {
          "indexed": false,
          "internalType": "bool",
          "name": "success",
          "type": "bool"
        }
      ],
      "name": "HankoBatchProcessed",
      "type": "event"
    },
    {
      "anonymous": false,
      "inputs": [
        {
          "indexed": true,
          "internalType": "bytes32",
          "name": "insured",
          "type": "bytes32"
        },
        {
          "indexed": true,
          "internalType": "bytes32",
          "name": "insurer",
          "type": "bytes32"
        },
        {
          "indexed": true,
          "internalType": "bytes32",
          "name": "creditor",
          "type": "bytes32"
        },
        {
          "indexed": false,
          "internalType": "uint256",
          "name": "tokenId",
          "type": "uint256"
        },
        {
          "indexed": false,
          "internalType": "uint256",
          "name": "amount",
          "type": "uint256"
        }
      ],
      "name": "InsuranceClaimed",
      "type": "event"
    },
    {
      "anonymous": false,
      "inputs": [
        {
          "indexed": true,
          "internalType": "bytes32",
          "name": "insured",
          "type": "bytes32"
        },
        {
          "indexed": true,
          "internalType": "bytes32",
          "name": "insurer",
          "type": "bytes32"
        },
        {
          "indexed": true,
          "internalType": "uint256",
          "name": "tokenId",
          "type": "uint256"
        },
        {
          "indexed": false,
          "internalType": "uint256",
          "name": "index",
          "type": "uint256"
        }
      ],
      "name": "InsuranceExpired",
      "type": "event"
    },
    {
      "anonymous": false,
      "inputs": [
        {
          "indexed": true,
          "internalType": "bytes32",
          "name": "insured",
          "type": "bytes32"
        },
        {
          "indexed": true,
          "internalType": "bytes32",
          "name": "insurer",
          "type": "bytes32"
        },
        {
          "indexed": true,
          "internalType": "uint256",
          "name": "tokenId",
          "type": "uint256"
        },
        {
          "indexed": false,
          "internalType": "uint256",
          "name": "limit",
          "type": "uint256"
        },
        {
          "indexed": false,
          "internalType": "uint64",
          "name": "expiresAt",
          "type": "uint64"
        }
      ],
      "name": "InsuranceRegistered",
      "type": "event"
    },
    {
      "anonymous": false,
      "inputs": [
        {
          "indexed": false,
          "internalType": "string",
          "name": "",
          "type": "string"
        },
        {
          "indexed": false,
          "internalType": "address",
          "name": "",
          "type": "address"
        }
      ],
      "name": "LogAddress",
      "type": "event"
    },
    {
      "anonymous": false,
      "inputs": [
        {
          "indexed": false,
          "internalType": "string",
          "name": "",
          "type": "string"
        },
        {
          "indexed": false,
          "internalType": "bool",
          "name": "",
          "type": "bool"
        }
      ],
      "name": "LogBool",
      "type": "event"
    },
    {
      "anonymous": false,
      "inputs": [
        {
          "indexed": false,
          "internalType": "string",
          "name": "",
          "type": "string"
        },
        {
          "indexed": false,
          "internalType": "bytes",
          "name": "",
          "type": "bytes"
        }
      ],
      "name": "LogBytes",
      "type": "event"
    },
    {
      "anonymous": false,
      "inputs": [
        {
          "indexed": false,
          "internalType": "string",
          "name": "",
          "type": "string"
        },
        {
          "indexed": false,
          "internalType": "bytes32",
          "name": "",
          "type": "bytes32"
        }
      ],
      "name": "LogBytes32",
      "type": "event"
    },
    {
      "anonymous": false,
      "inputs": [
        {
          "indexed": false,
          "internalType": "string",
          "name": "",
          "type": "string"
        },
        {
          "indexed": false,
          "internalType": "int256",
          "name": "",
          "type": "int256"
        }
      ],
      "name": "LogInt",
      "type": "event"
    },
    {
      "anonymous": false,
      "inputs": [
        {
          "indexed": false,
          "internalType": "string",
          "name": "",
          "type": "string"
        },
        {
          "indexed": false,
          "internalType": "string",
          "name": "",
          "type": "string"
        }
      ],
      "name": "LogString",
      "type": "event"
    },
    {
      "anonymous": false,
      "inputs": [
        {
          "indexed": false,
          "internalType": "string",
          "name": "",
          "type": "string"
        },
        {
          "indexed": false,
          "internalType": "uint256",
          "name": "",
          "type": "uint256"
        }
      ],
      "name": "LogUint",
      "type": "event"
    },
    {
      "anonymous": false,
      "inputs": [
        {
          "indexed": true,
          "internalType": "bytes32",
          "name": "entity",
          "type": "bytes32"
        },
        {
          "indexed": true,
          "internalType": "uint256",
          "name": "tokenId",
          "type": "uint256"
        },
        {
          "indexed": false,
          "internalType": "uint256",
          "name": "amount",
          "type": "uint256"
        },
        {
          "indexed": false,
          "internalType": "uint256",
          "name": "newBalance",
          "type": "uint256"
        }
      ],
      "name": "ReserveMinted",
      "type": "event"
    },
    {
      "anonymous": false,
      "inputs": [
        {
          "indexed": true,
          "internalType": "bytes32",
          "name": "from",
          "type": "bytes32"
        },
        {
          "indexed": true,
          "internalType": "bytes32",
          "name": "to",
          "type": "bytes32"
        },
        {
          "indexed": true,
          "internalType": "uint256",
          "name": "tokenId",
          "type": "uint256"
        },
        {
          "indexed": false,
          "internalType": "uint256",
          "name": "amount",
          "type": "uint256"
        }
      ],
      "name": "ReserveTransferred",
      "type": "event"
    },
    {
      "anonymous": false,
      "inputs": [
        {
          "indexed": true,
          "internalType": "bytes32",
          "name": "entity",
          "type": "bytes32"
        },
        {
          "indexed": true,
          "internalType": "uint256",
          "name": "tokenId",
          "type": "uint256"
        },
        {
          "indexed": false,
          "internalType": "uint256",
          "name": "newBalance",
          "type": "uint256"
        }
      ],
      "name": "ReserveUpdated",
      "type": "event"
    },
    {
      "anonymous": false,
      "inputs": [
        {
          "indexed": true,
          "internalType": "bytes32",
          "name": "leftEntity",
          "type": "bytes32"
        },
        {
          "indexed": true,
          "internalType": "bytes32",
          "name": "rightEntity",
          "type": "bytes32"
        },
        {
          "indexed": true,
          "internalType": "uint256",
          "name": "tokenId",
          "type": "uint256"
        },
        {
          "indexed": false,
          "internalType": "uint256",
          "name": "leftReserve",
          "type": "uint256"
        },
        {
          "indexed": false,
          "internalType": "uint256",
          "name": "rightReserve",
          "type": "uint256"
        },
        {
          "indexed": false,
          "internalType": "uint256",
          "name": "collateral",
          "type": "uint256"
        },
        {
          "indexed": false,
          "internalType": "int256",
          "name": "ondelta",
          "type": "int256"
        }
      ],
      "name": "SettlementProcessed",
      "type": "event"
    },
    {
      "anonymous": false,
      "inputs": [
        {
          "indexed": true,
          "internalType": "bytes32",
          "name": "receivingEntity",
          "type": "bytes32"
        },
        {
          "indexed": true,
          "internalType": "bytes32",
          "name": "counterentity",
          "type": "bytes32"
        },
        {
          "indexed": false,
          "internalType": "uint256",
          "name": "collateral",
          "type": "uint256"
        },
        {
          "indexed": false,
          "internalType": "int256",
          "name": "ondelta",
          "type": "int256"
        },
        {
          "indexed": false,
          "internalType": "uint256",
          "name": "tokenId",
          "type": "uint256"
        }
      ],
      "name": "TransferReserveToCollateral",
      "type": "event"
    },
    {
      "inputs": [],
      "name": "DOMAIN_SEPARATOR",
      "outputs": [
        {
          "internalType": "bytes32",
          "name": "",
          "type": "bytes32"
        }
      ],
      "stateMutability": "view",
      "type": "function"
    },
    {
      "inputs": [
        {
          "internalType": "bytes32",
          "name": "",
          "type": "bytes32"
        }
      ],
      "name": "_activeDebts",
      "outputs": [
        {
          "internalType": "uint256",
          "name": "",
          "type": "uint256"
        }
      ],
      "stateMutability": "view",
      "type": "function"
    },
    {
      "inputs": [
        {
          "internalType": "bytes",
          "name": "",
          "type": "bytes"
        }
      ],
      "name": "_channels",
      "outputs": [
        {
          "internalType": "uint256",
          "name": "cooperativeNonce",
          "type": "uint256"
        },
        {
          "internalType": "bytes32",
          "name": "disputeHash",
          "type": "bytes32"
        }
      ],
      "stateMutability": "view",
      "type": "function"
    },
    {
      "inputs": [
        {
          "internalType": "bytes",
          "name": "",
          "type": "bytes"
        },
        {
          "internalType": "uint256",
          "name": "",
          "type": "uint256"
        }
      ],
      "name": "_collaterals",
      "outputs": [
        {
          "internalType": "uint256",
          "name": "collateral",
          "type": "uint256"
        },
        {
          "internalType": "int256",
          "name": "ondelta",
          "type": "int256"
        }
      ],
      "stateMutability": "view",
      "type": "function"
    },
    {
      "inputs": [
        {
          "internalType": "bytes32",
          "name": "",
          "type": "bytes32"
        },
        {
          "internalType": "uint256",
          "name": "",
          "type": "uint256"
        }
      ],
      "name": "_debtIndex",
      "outputs": [
        {
          "internalType": "uint256",
          "name": "",
          "type": "uint256"
        }
      ],
      "stateMutability": "view",
      "type": "function"
    },
    {
      "inputs": [
        {
          "internalType": "bytes32",
          "name": "",
          "type": "bytes32"
        },
        {
          "internalType": "uint256",
          "name": "",
          "type": "uint256"
        },
        {
          "internalType": "uint256",
          "name": "",
          "type": "uint256"
        }
      ],
      "name": "_debts",
      "outputs": [
        {
          "internalType": "uint256",
          "name": "amount",
          "type": "uint256"
        },
        {
          "internalType": "bytes32",
          "name": "creditor",
          "type": "bytes32"
        }
      ],
      "stateMutability": "view",
      "type": "function"
    },
    {
      "inputs": [
        {
          "internalType": "uint256",
          "name": "",
          "type": "uint256"
        }
      ],
      "name": "_hubs",
      "outputs": [
        {
          "internalType": "bytes32",
          "name": "entityId",
          "type": "bytes32"
        },
        {
          "internalType": "uint256",
          "name": "gasused",
          "type": "uint256"
        },
        {
          "internalType": "string",
          "name": "uri",
          "type": "string"
        }
      ],
      "stateMutability": "view",
      "type": "function"
    },
    {
      "inputs": [
        {
          "internalType": "bytes32",
          "name": "",
          "type": "bytes32"
        },
        {
          "internalType": "uint256",
          "name": "",
          "type": "uint256"
        }
      ],
      "name": "_reserves",
      "outputs": [
        {
          "internalType": "uint256",
          "name": "",
          "type": "uint256"
        }
      ],
      "stateMutability": "view",
      "type": "function"
    },
    {
      "inputs": [
        {
          "internalType": "uint256",
          "name": "",
          "type": "uint256"
        }
      ],
      "name": "_tokens",
      "outputs": [
        {
          "internalType": "bytes32",
          "name": "",
          "type": "bytes32"
        }
      ],
      "stateMutability": "view",
      "type": "function"
    },
    {
      "inputs": [
        {
          "internalType": "address",
          "name": "provider",
          "type": "address"
        }
      ],
      "name": "addEntityProvider",
      "outputs": [],
      "stateMutability": "nonpayable",
      "type": "function"
    },
    {
      "inputs": [],
      "name": "admin",
      "outputs": [
        {
          "internalType": "address",
          "name": "",
          "type": "address"
        }
      ],
      "stateMutability": "view",
      "type": "function"
    },
    {
      "inputs": [
        {
          "internalType": "address",
          "name": "",
          "type": "address"
        }
      ],
      "name": "approvedEntityProviders",
      "outputs": [
        {
          "internalType": "bool",
          "name": "",
          "type": "bool"
        }
      ],
      "stateMutability": "view",
      "type": "function"
    },
    {
      "inputs": [
        {
          "internalType": "bytes32",
          "name": "e1",
          "type": "bytes32"
        },
        {
          "internalType": "bytes32",
          "name": "e2",
          "type": "bytes32"
        }
      ],
      "name": "channelKey",
      "outputs": [
        {
          "internalType": "bytes",
          "name": "",
          "type": "bytes"
        }
      ],
      "stateMutability": "pure",
      "type": "function"
    },
    {
      "inputs": [
        {
          "components": [
            {
              "internalType": "bytes32",
              "name": "counterentity",
              "type": "bytes32"
            },
            {
              "components": [
                {
                  "internalType": "int256[]",
                  "name": "offdeltas",
                  "type": "int256[]"
                },
                {
                  "internalType": "uint256[]",
                  "name": "tokenIds",
                  "type": "uint256[]"
                },
                {
                  "components": [
                    {
                      "internalType": "address",
                      "name": "subcontractProviderAddress",
                      "type": "address"
                    },
                    {
                      "internalType": "bytes",
                      "name": "encodedBatch",
                      "type": "bytes"
                    },
                    {
                      "components": [
                        {
                          "internalType": "uint256",
                          "name": "deltaIndex",
                          "type": "uint256"
                        },
                        {
                          "internalType": "uint256",
                          "name": "rightAllowence",
                          "type": "uint256"
                        },
                        {
                          "internalType": "uint256",
                          "name": "leftAllowence",
                          "type": "uint256"
                        }
                      ],
                      "internalType": "struct Depository.Allowence[]",
                      "name": "allowences",
                      "type": "tuple[]"
                    }
                  ],
                  "internalType": "struct Depository.SubcontractClause[]",
                  "name": "subcontracts",
                  "type": "tuple[]"
                }
              ],
              "internalType": "struct Depository.ProofBody",
              "name": "proofbody",
              "type": "tuple"
            },
            {
              "internalType": "bytes",
              "name": "initialArguments",
              "type": "bytes"
            },
            {
              "internalType": "bytes",
              "name": "finalArguments",
              "type": "bytes"
            },
            {
              "internalType": "bytes",
              "name": "sig",
              "type": "bytes"
            }
          ],
          "internalType": "struct Depository.CooperativeDisputeProof",
          "name": "params",
          "type": "tuple"
        }
      ],
      "name": "cooperativeDisputeProof",
      "outputs": [
        {
          "internalType": "bool",
          "name": "",
          "type": "bool"
        }
      ],
      "stateMutability": "nonpayable",
      "type": "function"
    },
    {
      "inputs": [
        {
          "internalType": "bytes32",
          "name": "addr",
          "type": "bytes32"
        },
        {
          "internalType": "bytes32",
          "name": "creditor",
          "type": "bytes32"
        },
        {
          "internalType": "uint256",
          "name": "tokenId",
          "type": "uint256"
        },
        {
          "internalType": "uint256",
          "name": "amount",
          "type": "uint256"
        }
      ],
      "name": "createDebt",
      "outputs": [],
      "stateMutability": "nonpayable",
      "type": "function"
    },
    {
      "inputs": [],
      "name": "debugBulkFundEntities",
      "outputs": [],
      "stateMutability": "nonpayable",
      "type": "function"
    },
    {
      "inputs": [
        {
          "internalType": "bytes32",
          "name": "entity",
          "type": "bytes32"
        },
        {
          "internalType": "uint256",
          "name": "tokenId",
          "type": "uint256"
        },
        {
          "internalType": "uint256",
          "name": "amount",
          "type": "uint256"
        }
      ],
      "name": "debugFundReserves",
      "outputs": [],
      "stateMutability": "nonpayable",
      "type": "function"
    },
    {
      "inputs": [],
      "name": "emergencyPause",
      "outputs": [
        {
          "internalType": "bool",
          "name": "",
          "type": "bool"
        }
      ],
      "stateMutability": "view",
      "type": "function"
    },
    {
      "inputs": [
        {
          "internalType": "bytes32",
          "name": "entity",
          "type": "bytes32"
        },
        {
          "internalType": "uint256",
          "name": "tokenId",
          "type": "uint256"
        },
        {
          "internalType": "uint256",
          "name": "maxIterations",
          "type": "uint256"
        }
      ],
      "name": "enforceDebts",
      "outputs": [
        {
          "internalType": "uint256",
          "name": "totalDebts",
          "type": "uint256"
        }
      ],
      "stateMutability": "nonpayable",
      "type": "function"
    },
    {
      "inputs": [
        {
          "internalType": "bytes32",
          "name": "entity",
          "type": "bytes32"
        },
        {
          "internalType": "uint256",
          "name": "tokenId",
          "type": "uint256"
        }
      ],
      "name": "enforceDebts",
      "outputs": [
        {
          "internalType": "uint256",
          "name": "totalDebts",
          "type": "uint256"
        }
      ],
      "stateMutability": "nonpayable",
      "type": "function"
    },
    {
      "inputs": [
        {
          "internalType": "address",
          "name": "",
          "type": "address"
        }
      ],
      "name": "entityNonces",
      "outputs": [
        {
          "internalType": "uint256",
          "name": "",
          "type": "uint256"
        }
      ],
      "stateMutability": "view",
      "type": "function"
    },
    {
      "inputs": [
        {
          "internalType": "uint256",
          "name": "",
          "type": "uint256"
        }
      ],
      "name": "entityProvidersList",
      "outputs": [
        {
          "internalType": "address",
          "name": "",
          "type": "address"
        }
      ],
      "stateMutability": "view",
      "type": "function"
    },
    {
      "inputs": [
        {
          "internalType": "bytes32",
          "name": "",
          "type": "bytes32"
        }
      ],
      "name": "entityScores",
      "outputs": [
        {
          "internalType": "uint64",
          "name": "totalGasUsed",
          "type": "uint64"
        },
        {
          "internalType": "uint48",
          "name": "inDebtSince",
          "type": "uint48"
        },
        {
          "internalType": "uint32",
          "name": "totalActiveDebts",
          "type": "uint32"
        },
        {
          "internalType": "uint32",
          "name": "totalDisputes",
          "type": "uint32"
        },
        {
          "internalType": "uint32",
          "name": "successfulRepayments",
          "type": "uint32"
        },
        {
          "internalType": "uint32",
          "name": "cooperativeActions",
          "type": "uint32"
        }
      ],
      "stateMutability": "view",
      "type": "function"
    },
    {
      "inputs": [
        {
          "components": [
            {
              "internalType": "bytes32",
              "name": "entity",
              "type": "bytes32"
            },
            {
              "internalType": "bytes32",
              "name": "packedToken",
              "type": "bytes32"
            },
            {
              "internalType": "uint256",
              "name": "internalTokenId",
              "type": "uint256"
            },
            {
              "internalType": "uint256",
              "name": "amount",
              "type": "uint256"
            }
          ],
          "internalType": "struct Depository.ExternalTokenToReserve",
          "name": "params",
          "type": "tuple"
        }
      ],
      "name": "externalTokenToReserve",
      "outputs": [],
      "stateMutability": "nonpayable",
      "type": "function"
    },
    {
      "inputs": [
        {
          "components": [
            {
              "internalType": "bytes32",
              "name": "counterentity",
              "type": "bytes32"
            },
            {
              "internalType": "uint256",
              "name": "initialCooperativeNonce",
              "type": "uint256"
            },
            {
              "internalType": "uint256",
              "name": "initialDisputeNonce",
              "type": "uint256"
            },
            {
              "internalType": "uint256",
              "name": "disputeUntilBlock",
              "type": "uint256"
            },
            {
              "internalType": "bytes32",
              "name": "initialProofbodyHash",
              "type": "bytes32"
            },
            {
              "internalType": "bytes",
              "name": "initialArguments",
              "type": "bytes"
            },
            {
              "internalType": "bool",
              "name": "startedByLeft",
              "type": "bool"
            },
            {
              "internalType": "uint256",
              "name": "finalCooperativeNonce",
              "type": "uint256"
            },
            {
              "internalType": "uint256",
              "name": "finalDisputeNonce",
              "type": "uint256"
            },
            {
              "components": [
                {
                  "internalType": "int256[]",
                  "name": "offdeltas",
                  "type": "int256[]"
                },
                {
                  "internalType": "uint256[]",
                  "name": "tokenIds",
                  "type": "uint256[]"
                },
                {
                  "components": [
                    {
                      "internalType": "address",
                      "name": "subcontractProviderAddress",
                      "type": "address"
                    },
                    {
                      "internalType": "bytes",
                      "name": "encodedBatch",
                      "type": "bytes"
                    },
                    {
                      "components": [
                        {
                          "internalType": "uint256",
                          "name": "deltaIndex",
                          "type": "uint256"
                        },
                        {
                          "internalType": "uint256",
                          "name": "rightAllowence",
                          "type": "uint256"
                        },
                        {
                          "internalType": "uint256",
                          "name": "leftAllowence",
                          "type": "uint256"
                        }
                      ],
                      "internalType": "struct Depository.Allowence[]",
                      "name": "allowences",
                      "type": "tuple[]"
                    }
                  ],
                  "internalType": "struct Depository.SubcontractClause[]",
                  "name": "subcontracts",
                  "type": "tuple[]"
                }
              ],
              "internalType": "struct Depository.ProofBody",
              "name": "finalProofbody",
              "type": "tuple"
            },
            {
              "internalType": "bytes",
              "name": "finalArguments",
              "type": "bytes"
            },
            {
              "internalType": "bytes",
              "name": "sig",
              "type": "bytes"
            }
          ],
          "internalType": "struct Depository.FinalDisputeProof",
          "name": "params",
          "type": "tuple"
        }
      ],
      "name": "finalDisputeProof",
      "outputs": [
        {
          "internalType": "bool",
          "name": "",
          "type": "bool"
        }
      ],
      "stateMutability": "nonpayable",
      "type": "function"
    },
    {
      "inputs": [],
      "name": "getApprovedProviders",
      "outputs": [
        {
          "internalType": "address[]",
          "name": "",
          "type": "address[]"
        }
      ],
      "stateMutability": "view",
      "type": "function"
    },
    {
      "inputs": [
        {
          "internalType": "bytes32",
          "name": "insured",
          "type": "bytes32"
        },
        {
          "internalType": "uint256",
          "name": "tokenId",
          "type": "uint256"
        }
      ],
      "name": "getAvailableInsurance",
      "outputs": [
        {
          "internalType": "uint256",
          "name": "totalAvailable",
          "type": "uint256"
        }
      ],
      "stateMutability": "view",
      "type": "function"
    },
    {
      "inputs": [
        {
          "internalType": "bytes32",
          "name": "entity",
          "type": "bytes32"
        },
        {
          "internalType": "bytes32[]",
          "name": "counterentities",
          "type": "bytes32[]"
        },
        {
          "internalType": "uint256[]",
          "name": "tokenIds",
          "type": "uint256[]"
        }
      ],
      "name": "getChannels",
      "outputs": [
        {
          "components": [
            {
              "components": [
                {
                  "internalType": "uint256",
                  "name": "cooperativeNonce",
                  "type": "uint256"
                },
                {
                  "internalType": "bytes32",
                  "name": "disputeHash",
                  "type": "bytes32"
                }
              ],
              "internalType": "struct Depository.ChannelInfo",
              "name": "channel",
              "type": "tuple"
            },
            {
              "components": [
                {
                  "internalType": "uint256",
                  "name": "collateral",
                  "type": "uint256"
                },
                {
                  "internalType": "int256",
                  "name": "ondelta",
                  "type": "int256"
                }
              ],
              "internalType": "struct Depository.ChannelCollateral[]",
              "name": "collaterals",
              "type": "tuple[]"
            }
          ],
          "internalType": "struct Depository.ChannelReturn[]",
          "name": "response",
          "type": "tuple[]"
        }
      ],
      "stateMutability": "view",
      "type": "function"
    },
    {
      "inputs": [
        {
          "internalType": "address",
          "name": "entityProvider",
          "type": "address"
        },
        {
          "internalType": "uint256",
          "name": "externalTokenId",
          "type": "uint256"
        }
      ],
      "name": "getControlShareTokenId",
      "outputs": [
        {
          "internalType": "uint256",
          "name": "internalTokenId",
          "type": "uint256"
        }
      ],
      "stateMutability": "view",
      "type": "function"
    },
    {
      "inputs": [
        {
          "internalType": "bytes32",
          "name": "entity",
          "type": "bytes32"
        },
        {
          "internalType": "uint256",
          "name": "tokenId",
          "type": "uint256"
        }
      ],
      "name": "getDebts",
      "outputs": [
        {
          "components": [
            {
              "internalType": "uint256",
              "name": "amount",
              "type": "uint256"
            },
            {
              "internalType": "bytes32",
              "name": "creditor",
              "type": "bytes32"
            }
          ],
          "internalType": "struct Depository.Debt[]",
          "name": "allDebts",
          "type": "tuple[]"
        },
        {
          "internalType": "uint256",
          "name": "currentDebtIndex",
          "type": "uint256"
        }
      ],
      "stateMutability": "view",
      "type": "function"
    },
    {
      "inputs": [
        {
          "internalType": "bytes32",
          "name": "entity",
          "type": "bytes32"
        },
        {
          "internalType": "uint256",
          "name": "tokenId",
          "type": "uint256"
        }
      ],
      "name": "getEntityTokenDebtStats",
      "outputs": [
        {
          "components": [
            {
              "internalType": "uint256",
              "name": "outstandingAmount",
              "type": "uint256"
            },
            {
              "internalType": "uint64",
              "name": "since",
              "type": "uint64"
            },
            {
              "internalType": "uint64",
              "name": "lastUpdated",
              "type": "uint64"
            }
          ],
          "internalType": "struct Depository.TokenDebtStats",
          "name": "",
          "type": "tuple"
        }
      ],
      "stateMutability": "view",
      "type": "function"
    },
    {
      "inputs": [
        {
          "internalType": "bytes32",
          "name": "insured",
          "type": "bytes32"
        }
      ],
      "name": "getInsuranceLines",
      "outputs": [
        {
          "components": [
            {
              "internalType": "bytes32",
              "name": "insurer",
              "type": "bytes32"
            },
            {
              "internalType": "uint256",
              "name": "tokenId",
              "type": "uint256"
            },
            {
              "internalType": "uint256",
              "name": "remaining",
              "type": "uint256"
            },
            {
              "internalType": "uint64",
              "name": "expiresAt",
              "type": "uint64"
            }
          ],
          "internalType": "struct Depository.InsuranceLine[]",
          "name": "lines",
          "type": "tuple[]"
        }
      ],
      "stateMutability": "view",
      "type": "function"
    },
    {
      "inputs": [
        {
          "internalType": "bytes32",
          "name": "insured",
          "type": "bytes32"
        }
      ],
      "name": "getInsuranceLinesCount",
      "outputs": [
        {
          "internalType": "uint256",
          "name": "count",
          "type": "uint256"
        }
      ],
      "stateMutability": "view",
      "type": "function"
    },
    {
      "inputs": [
        {
          "internalType": "uint256",
          "name": "tokenId",
          "type": "uint256"
        }
      ],
      "name": "getTokenMetadata",
      "outputs": [
        {
          "internalType": "address",
          "name": "contractAddress",
          "type": "address"
        },
        {
          "internalType": "uint96",
          "name": "externalTokenId",
          "type": "uint96"
        },
        {
          "internalType": "uint8",
          "name": "tokenType",
          "type": "uint8"
        }
      ],
      "stateMutability": "view",
      "type": "function"
    },
    {
      "inputs": [],
      "name": "getTokensLength",
      "outputs": [
        {
          "internalType": "uint256",
          "name": "",
          "type": "uint256"
        }
      ],
      "stateMutability": "view",
      "type": "function"
    },
    {
      "inputs": [
        {
          "internalType": "bytes32[]",
          "name": "entities",
          "type": "bytes32[]"
        },
        {
          "internalType": "uint256[]",
          "name": "tokenIds",
          "type": "uint256[]"
        }
      ],
      "name": "getUsers",
      "outputs": [
        {
          "components": [
            {
              "internalType": "uint256",
              "name": "ETH_balance",
              "type": "uint256"
            },
            {
              "components": [
                {
                  "internalType": "uint256",
                  "name": "reserve",
                  "type": "uint256"
                },
                {
                  "internalType": "uint256",
                  "name": "debtIndex",
                  "type": "uint256"
                },
                {
                  "components": [
                    {
                      "internalType": "uint256",
                      "name": "amount",
                      "type": "uint256"
                    },
                    {
                      "internalType": "bytes32",
                      "name": "creditor",
                      "type": "bytes32"
                    }
                  ],
                  "internalType": "struct Depository.Debt[]",
                  "name": "debts",
                  "type": "tuple[]"
                }
              ],
              "internalType": "struct Depository.TokenReserveDebts[]",
              "name": "tokens",
              "type": "tuple[]"
            }
          ],
          "internalType": "struct Depository.UserReturn[]",
          "name": "response",
          "type": "tuple[]"
        }
      ],
      "stateMutability": "view",
      "type": "function"
    },
    {
      "inputs": [
        {
          "components": [
            {
              "internalType": "bytes32",
              "name": "counterentity",
              "type": "bytes32"
            },
            {
              "internalType": "uint256",
              "name": "cooperativeNonce",
              "type": "uint256"
            },
            {
              "internalType": "uint256",
              "name": "disputeNonce",
              "type": "uint256"
            },
            {
              "internalType": "bytes32",
              "name": "proofbodyHash",
              "type": "bytes32"
            },
            {
              "internalType": "bytes",
              "name": "sig",
              "type": "bytes"
            },
            {
              "internalType": "bytes",
              "name": "initialArguments",
              "type": "bytes"
            }
          ],
          "internalType": "struct Depository.InitialDisputeProof",
          "name": "params",
          "type": "tuple"
        }
      ],
      "name": "initialDisputeProof",
      "outputs": [
        {
          "internalType": "bool",
          "name": "",
          "type": "bool"
        }
      ],
      "stateMutability": "nonpayable",
      "type": "function"
    },
    {
      "inputs": [
        {
          "internalType": "bytes32",
          "name": "",
          "type": "bytes32"
        }
      ],
      "name": "insuranceCursor",
      "outputs": [
        {
          "internalType": "uint256",
          "name": "",
          "type": "uint256"
        }
      ],
      "stateMutability": "view",
      "type": "function"
    },
    {
      "inputs": [
        {
          "internalType": "bytes32",
          "name": "",
          "type": "bytes32"
        },
        {
          "internalType": "uint256",
          "name": "",
          "type": "uint256"
        }
      ],
      "name": "insuranceLines",
      "outputs": [
        {
          "internalType": "bytes32",
          "name": "insurer",
          "type": "bytes32"
        },
        {
          "internalType": "uint256",
          "name": "tokenId",
          "type": "uint256"
        },
        {
          "internalType": "uint256",
          "name": "remaining",
          "type": "uint256"
        },
        {
          "internalType": "uint64",
          "name": "expiresAt",
          "type": "uint64"
        }
      ],
      "stateMutability": "view",
      "type": "function"
    },
    {
      "inputs": [
        {
          "internalType": "bytes32",
          "name": "entity",
          "type": "bytes32"
        },
        {
          "internalType": "uint256",
          "name": "tokenId",
          "type": "uint256"
        },
        {
          "internalType": "uint256",
          "name": "startIndex",
          "type": "uint256"
        },
        {
          "internalType": "uint256",
          "name": "limit",
          "type": "uint256"
        }
      ],
      "name": "listActiveDebts",
      "outputs": [
        {
          "components": [
            {
              "internalType": "bytes32",
              "name": "creditor",
              "type": "bytes32"
            },
            {
              "internalType": "uint256",
              "name": "amount",
              "type": "uint256"
            },
            {
              "internalType": "uint256",
              "name": "index",
              "type": "uint256"
            }
          ],
          "internalType": "struct Depository.DebtSnapshot[]",
          "name": "debts",
          "type": "tuple[]"
        },
        {
          "internalType": "uint256",
          "name": "nextIndex",
          "type": "uint256"
        },
        {
          "internalType": "bool",
          "name": "hasMore",
          "type": "bool"
        }
      ],
      "stateMutability": "view",
      "type": "function"
    },
    {
      "inputs": [
        {
          "internalType": "bytes32",
          "name": "e1",
          "type": "bytes32"
        },
        {
          "internalType": "bytes32",
          "name": "e2",
          "type": "bytes32"
        }
      ],
      "name": "logChannel",
      "outputs": [],
      "stateMutability": "nonpayable",
      "type": "function"
    },
    {
      "inputs": [],
      "name": "minGasForInsurance",
      "outputs": [
        {
          "internalType": "uint256",
          "name": "",
          "type": "uint256"
        }
      ],
      "stateMutability": "view",
      "type": "function"
    },
    {
      "inputs": [
        {
          "internalType": "bytes32",
          "name": "entity",
          "type": "bytes32"
        },
        {
          "internalType": "uint256",
          "name": "tokenId",
          "type": "uint256"
        },
        {
          "internalType": "uint256",
          "name": "amount",
          "type": "uint256"
        }
      ],
      "name": "mintToReserve",
      "outputs": [],
      "stateMutability": "nonpayable",
      "type": "function"
    },
    {
      "inputs": [
        {
          "internalType": "uint8",
          "name": "tokenType",
          "type": "uint8"
        },
        {
          "internalType": "address",
          "name": "contractAddress",
          "type": "address"
        },
        {
          "internalType": "uint96",
          "name": "externalTokenId",
          "type": "uint96"
        }
      ],
      "name": "packTokenReference",
      "outputs": [
        {
          "internalType": "bytes32",
          "name": "",
          "type": "bytes32"
        }
      ],
      "stateMutability": "pure",
      "type": "function"
    },
    {
      "inputs": [
        {
          "internalType": "bytes32",
          "name": "counterpartyEntity",
          "type": "bytes32"
        },
        {
          "internalType": "uint256",
          "name": "tokenId",
          "type": "uint256"
        },
        {
          "internalType": "uint256",
          "name": "amount",
          "type": "uint256"
        }
      ],
      "name": "prefundAccount",
      "outputs": [
        {
          "internalType": "bool",
          "name": "",
          "type": "bool"
        }
      ],
      "stateMutability": "nonpayable",
      "type": "function"
    },
    {
      "inputs": [
        {
          "internalType": "bytes32",
          "name": "entity",
          "type": "bytes32"
        },
        {
          "internalType": "uint256",
          "name": "tokenId",
          "type": "uint256"
        },
        {
          "internalType": "uint256",
          "name": "additionalReserve",
          "type": "uint256"
        },
        {
          "internalType": "uint256",
          "name": "maxIterations",
          "type": "uint256"
        }
      ],
      "name": "previewEnforceDebts",
      "outputs": [
        {
          "internalType": "uint256",
          "name": "totalClearedAmount",
          "type": "uint256"
        },
        {
          "internalType": "uint256",
          "name": "resultingReserve",
          "type": "uint256"
        },
        {
          "internalType": "uint256",
          "name": "nextDebtIndex",
          "type": "uint256"
        },
        {
          "internalType": "uint256",
          "name": "nextDebtAmount",
          "type": "uint256"
        },
        {
          "internalType": "bytes32",
          "name": "nextDebtCreditor",
          "type": "bytes32"
        }
      ],
      "stateMutability": "view",
      "type": "function"
    },
    {
      "inputs": [
        {
          "internalType": "bytes32",
          "name": "entity",
          "type": "bytes32"
        },
        {
          "components": [
            {
              "components": [
                {
                  "internalType": "bytes32",
                  "name": "receivingEntity",
                  "type": "bytes32"
                },
                {
                  "internalType": "uint256",
                  "name": "tokenId",
                  "type": "uint256"
                },
                {
                  "internalType": "uint256",
                  "name": "amount",
                  "type": "uint256"
                }
              ],
              "internalType": "struct Depository.ReserveToExternalToken[]",
              "name": "reserveToExternalToken",
              "type": "tuple[]"
            },
            {
              "components": [
                {
                  "internalType": "bytes32",
                  "name": "entity",
                  "type": "bytes32"
                },
                {
                  "internalType": "bytes32",
                  "name": "packedToken",
                  "type": "bytes32"
                },
                {
                  "internalType": "uint256",
                  "name": "internalTokenId",
                  "type": "uint256"
                },
                {
                  "internalType": "uint256",
                  "name": "amount",
                  "type": "uint256"
                }
              ],
              "internalType": "struct Depository.ExternalTokenToReserve[]",
              "name": "externalTokenToReserve",
              "type": "tuple[]"
            },
            {
              "components": [
                {
                  "internalType": "bytes32",
                  "name": "receivingEntity",
                  "type": "bytes32"
                },
                {
                  "internalType": "uint256",
                  "name": "tokenId",
                  "type": "uint256"
                },
                {
                  "internalType": "uint256",
                  "name": "amount",
                  "type": "uint256"
                }
              ],
              "internalType": "struct Depository.ReserveToReserve[]",
              "name": "reserveToReserve",
              "type": "tuple[]"
            },
            {
              "components": [
                {
                  "internalType": "uint256",
                  "name": "tokenId",
                  "type": "uint256"
                },
                {
                  "internalType": "bytes32",
                  "name": "receivingEntity",
                  "type": "bytes32"
                },
                {
                  "components": [
                    {
                      "internalType": "bytes32",
                      "name": "entity",
                      "type": "bytes32"
                    },
                    {
                      "internalType": "uint256",
                      "name": "amount",
                      "type": "uint256"
                    }
                  ],
                  "internalType": "struct Depository.AddrAmountPair[]",
                  "name": "pairs",
                  "type": "tuple[]"
                }
              ],
              "internalType": "struct Depository.ReserveToCollateral[]",
              "name": "reserveToCollateral",
              "type": "tuple[]"
            },
            {
              "components": [
                {
                  "internalType": "bytes32",
                  "name": "leftEntity",
                  "type": "bytes32"
                },
                {
                  "internalType": "bytes32",
                  "name": "rightEntity",
                  "type": "bytes32"
                },
                {
                  "components": [
                    {
                      "internalType": "uint256",
                      "name": "tokenId",
                      "type": "uint256"
                    },
                    {
                      "internalType": "int256",
                      "name": "leftDiff",
                      "type": "int256"
                    },
                    {
                      "internalType": "int256",
                      "name": "rightDiff",
                      "type": "int256"
                    },
                    {
                      "internalType": "int256",
                      "name": "collateralDiff",
                      "type": "int256"
                    },
                    {
                      "internalType": "int256",
                      "name": "ondeltaDiff",
                      "type": "int256"
                    }
                  ],
                  "internalType": "struct Depository.SettlementDiff[]",
                  "name": "diffs",
                  "type": "tuple[]"
                },
                {
                  "internalType": "uint256[]",
                  "name": "forgiveDebtsInTokenIds",
                  "type": "uint256[]"
                },
                {
                  "components": [
                    {
                      "internalType": "bytes32",
                      "name": "insured",
                      "type": "bytes32"
                    },
                    {
                      "internalType": "bytes32",
                      "name": "insurer",
                      "type": "bytes32"
                    },
                    {
                      "internalType": "uint256",
                      "name": "tokenId",
                      "type": "uint256"
                    },
                    {
                      "internalType": "uint256",
                      "name": "limit",
                      "type": "uint256"
                    },
                    {
                      "internalType": "uint64",
                      "name": "expiresAt",
                      "type": "uint64"
                    }
                  ],
                  "internalType": "struct Depository.InsuranceRegistration[]",
                  "name": "insuranceRegs",
                  "type": "tuple[]"
                },
                {
                  "internalType": "bytes",
                  "name": "sig",
                  "type": "bytes"
                }
              ],
              "internalType": "struct Depository.Settlement[]",
              "name": "settlements",
              "type": "tuple[]"
            },
            {
              "components": [
                {
                  "internalType": "bytes32",
                  "name": "counterentity",
                  "type": "bytes32"
                },
                {
                  "components": [
                    {
                      "internalType": "uint256",
                      "name": "tokenId",
                      "type": "uint256"
                    },
                    {
                      "internalType": "int256",
                      "name": "peerReserveDiff",
                      "type": "int256"
                    },
                    {
                      "internalType": "int256",
                      "name": "collateralDiff",
                      "type": "int256"
                    },
                    {
                      "internalType": "int256",
                      "name": "ondeltaDiff",
                      "type": "int256"
                    }
                  ],
                  "internalType": "struct Depository.Diff[]",
                  "name": "diffs",
                  "type": "tuple[]"
                },
                {
                  "internalType": "uint256[]",
                  "name": "forgiveDebtsInTokenIds",
                  "type": "uint256[]"
                },
                {
                  "internalType": "bytes",
                  "name": "sig",
                  "type": "bytes"
                }
              ],
              "internalType": "struct Depository.CooperativeUpdate[]",
              "name": "cooperativeUpdate",
              "type": "tuple[]"
            },
            {
              "components": [
                {
                  "internalType": "bytes32",
                  "name": "counterentity",
                  "type": "bytes32"
                },
                {
                  "components": [
                    {
                      "internalType": "int256[]",
                      "name": "offdeltas",
                      "type": "int256[]"
                    },
                    {
                      "internalType": "uint256[]",
                      "name": "tokenIds",
                      "type": "uint256[]"
                    },
                    {
                      "components": [
                        {
                          "internalType": "address",
                          "name": "subcontractProviderAddress",
                          "type": "address"
                        },
                        {
                          "internalType": "bytes",
                          "name": "encodedBatch",
                          "type": "bytes"
                        },
                        {
                          "components": [
                            {
                              "internalType": "uint256",
                              "name": "deltaIndex",
                              "type": "uint256"
                            },
                            {
                              "internalType": "uint256",
                              "name": "rightAllowence",
                              "type": "uint256"
                            },
                            {
                              "internalType": "uint256",
                              "name": "leftAllowence",
                              "type": "uint256"
                            }
                          ],
                          "internalType": "struct Depository.Allowence[]",
                          "name": "allowences",
                          "type": "tuple[]"
                        }
                      ],
                      "internalType": "struct Depository.SubcontractClause[]",
                      "name": "subcontracts",
                      "type": "tuple[]"
                    }
                  ],
                  "internalType": "struct Depository.ProofBody",
                  "name": "proofbody",
                  "type": "tuple"
                },
                {
                  "internalType": "bytes",
                  "name": "initialArguments",
                  "type": "bytes"
                },
                {
                  "internalType": "bytes",
                  "name": "finalArguments",
                  "type": "bytes"
                },
                {
                  "internalType": "bytes",
                  "name": "sig",
                  "type": "bytes"
                }
              ],
              "internalType": "struct Depository.CooperativeDisputeProof[]",
              "name": "cooperativeDisputeProof",
              "type": "tuple[]"
            },
            {
              "components": [
                {
                  "internalType": "bytes32",
                  "name": "counterentity",
                  "type": "bytes32"
                },
                {
                  "internalType": "uint256",
                  "name": "cooperativeNonce",
                  "type": "uint256"
                },
                {
                  "internalType": "uint256",
                  "name": "disputeNonce",
                  "type": "uint256"
                },
                {
                  "internalType": "bytes32",
                  "name": "proofbodyHash",
                  "type": "bytes32"
                },
                {
                  "internalType": "bytes",
                  "name": "sig",
                  "type": "bytes"
                },
                {
                  "internalType": "bytes",
                  "name": "initialArguments",
                  "type": "bytes"
                }
              ],
              "internalType": "struct Depository.InitialDisputeProof[]",
              "name": "initialDisputeProof",
              "type": "tuple[]"
            },
            {
              "components": [
                {
                  "internalType": "bytes32",
                  "name": "counterentity",
                  "type": "bytes32"
                },
                {
                  "internalType": "uint256",
                  "name": "initialCooperativeNonce",
                  "type": "uint256"
                },
                {
                  "internalType": "uint256",
                  "name": "initialDisputeNonce",
                  "type": "uint256"
                },
                {
                  "internalType": "uint256",
                  "name": "disputeUntilBlock",
                  "type": "uint256"
                },
                {
                  "internalType": "bytes32",
                  "name": "initialProofbodyHash",
                  "type": "bytes32"
                },
                {
                  "internalType": "bytes",
                  "name": "initialArguments",
                  "type": "bytes"
                },
                {
                  "internalType": "bool",
                  "name": "startedByLeft",
                  "type": "bool"
                },
                {
                  "internalType": "uint256",
                  "name": "finalCooperativeNonce",
                  "type": "uint256"
                },
                {
                  "internalType": "uint256",
                  "name": "finalDisputeNonce",
                  "type": "uint256"
                },
                {
                  "components": [
                    {
                      "internalType": "int256[]",
                      "name": "offdeltas",
                      "type": "int256[]"
                    },
                    {
                      "internalType": "uint256[]",
                      "name": "tokenIds",
                      "type": "uint256[]"
                    },
                    {
                      "components": [
                        {
                          "internalType": "address",
                          "name": "subcontractProviderAddress",
                          "type": "address"
                        },
                        {
                          "internalType": "bytes",
                          "name": "encodedBatch",
                          "type": "bytes"
                        },
                        {
                          "components": [
                            {
                              "internalType": "uint256",
                              "name": "deltaIndex",
                              "type": "uint256"
                            },
                            {
                              "internalType": "uint256",
                              "name": "rightAllowence",
                              "type": "uint256"
                            },
                            {
                              "internalType": "uint256",
                              "name": "leftAllowence",
                              "type": "uint256"
                            }
                          ],
                          "internalType": "struct Depository.Allowence[]",
                          "name": "allowences",
                          "type": "tuple[]"
                        }
                      ],
                      "internalType": "struct Depository.SubcontractClause[]",
                      "name": "subcontracts",
                      "type": "tuple[]"
                    }
                  ],
                  "internalType": "struct Depository.ProofBody",
                  "name": "finalProofbody",
                  "type": "tuple"
                },
                {
                  "internalType": "bytes",
                  "name": "finalArguments",
                  "type": "bytes"
                },
                {
                  "internalType": "bytes",
                  "name": "sig",
                  "type": "bytes"
                }
              ],
              "internalType": "struct Depository.FinalDisputeProof[]",
              "name": "finalDisputeProof",
              "type": "tuple[]"
            },
            {
              "components": [
                {
                  "internalType": "uint256",
                  "name": "tokenId",
                  "type": "uint256"
                },
                {
                  "internalType": "uint256",
                  "name": "amount",
                  "type": "uint256"
                }
              ],
              "internalType": "struct Depository.TokenAmountPair[]",
              "name": "flashloans",
              "type": "tuple[]"
            },
            {
              "internalType": "uint256",
              "name": "hub_id",
              "type": "uint256"
            }
          ],
          "internalType": "struct Depository.Batch",
          "name": "batch",
          "type": "tuple"
        }
      ],
      "name": "processBatch",
      "outputs": [
        {
          "internalType": "bool",
          "name": "completeSuccess",
          "type": "bool"
        }
      ],
      "stateMutability": "nonpayable",
      "type": "function"
    },
    {
      "inputs": [
        {
          "internalType": "bytes",
          "name": "encodedBatch",
          "type": "bytes"
        },
        {
          "internalType": "address",
          "name": "entityProvider",
          "type": "address"
        },
        {
          "internalType": "bytes",
          "name": "hankoData",
          "type": "bytes"
        },
        {
          "internalType": "uint256",
          "name": "nonce",
          "type": "uint256"
        }
      ],
      "name": "processBatchWithHanko",
      "outputs": [
        {
          "internalType": "bool",
          "name": "completeSuccess",
          "type": "bool"
        }
      ],
      "stateMutability": "nonpayable",
      "type": "function"
    },
    {
      "inputs": [
        {
          "internalType": "uint256",
          "name": "hub_id",
          "type": "uint256"
        },
        {
          "internalType": "string",
          "name": "new_uri",
          "type": "string"
        }
      ],
      "name": "registerHub",
      "outputs": [
        {
          "internalType": "uint256",
          "name": "",
          "type": "uint256"
        }
      ],
      "stateMutability": "nonpayable",
      "type": "function"
    },
    {
      "inputs": [
        {
          "internalType": "address",
          "name": "provider",
          "type": "address"
        }
      ],
      "name": "removeEntityProvider",
      "outputs": [],
      "stateMutability": "nonpayable",
      "type": "function"
    },
    {
      "inputs": [
        {
          "internalType": "bytes32",
          "name": "fromEntity",
          "type": "bytes32"
        },
        {
          "internalType": "bytes32",
          "name": "toEntity",
          "type": "bytes32"
        },
        {
          "internalType": "uint256",
          "name": "tokenId",
          "type": "uint256"
        },
        {
          "internalType": "uint256",
          "name": "amount",
          "type": "uint256"
        }
      ],
      "name": "reserveToReserve",
      "outputs": [
        {
          "internalType": "bool",
          "name": "",
          "type": "bool"
        }
      ],
      "stateMutability": "nonpayable",
      "type": "function"
    },
    {
      "inputs": [
        {
          "internalType": "bool",
          "name": "isPaused",
          "type": "bool"
        }
      ],
      "name": "setEmergencyPause",
      "outputs": [],
      "stateMutability": "nonpayable",
      "type": "function"
    },
    {
      "inputs": [
        {
          "internalType": "uint256",
          "name": "_minGas",
          "type": "uint256"
        }
      ],
      "name": "setMinGasForInsurance",
      "outputs": [],
      "stateMutability": "nonpayable",
      "type": "function"
    },
    {
      "inputs": [
        {
          "internalType": "bytes32",
          "name": "leftEntity",
          "type": "bytes32"
        },
        {
          "internalType": "bytes32",
          "name": "rightEntity",
          "type": "bytes32"
        },
        {
          "components": [
            {
              "internalType": "uint256",
              "name": "tokenId",
              "type": "uint256"
            },
            {
              "internalType": "int256",
              "name": "leftDiff",
              "type": "int256"
            },
            {
              "internalType": "int256",
              "name": "rightDiff",
              "type": "int256"
            },
            {
              "internalType": "int256",
              "name": "collateralDiff",
              "type": "int256"
            },
            {
              "internalType": "int256",
              "name": "ondeltaDiff",
              "type": "int256"
            }
          ],
          "internalType": "struct Depository.SettlementDiff[]",
          "name": "diffs",
          "type": "tuple[]"
        },
        {
          "internalType": "uint256[]",
          "name": "forgiveDebtsInTokenIds",
          "type": "uint256[]"
        },
        {
          "components": [
            {
              "internalType": "bytes32",
              "name": "insured",
              "type": "bytes32"
            },
            {
              "internalType": "bytes32",
              "name": "insurer",
              "type": "bytes32"
            },
            {
              "internalType": "uint256",
              "name": "tokenId",
              "type": "uint256"
            },
            {
              "internalType": "uint256",
              "name": "limit",
              "type": "uint256"
            },
            {
              "internalType": "uint64",
              "name": "expiresAt",
              "type": "uint64"
            }
          ],
          "internalType": "struct Depository.InsuranceRegistration[]",
          "name": "insuranceRegs",
          "type": "tuple[]"
        },
        {
          "internalType": "bytes",
          "name": "sig",
          "type": "bytes"
        }
      ],
      "name": "settle",
      "outputs": [
        {
          "internalType": "bool",
          "name": "",
          "type": "bool"
        }
      ],
      "stateMutability": "nonpayable",
      "type": "function"
    },
    {
      "inputs": [
        {
          "internalType": "bytes32",
          "name": "",
          "type": "bytes32"
        }
      ],
      "name": "tokenToId",
      "outputs": [
        {
          "internalType": "uint256",
          "name": "",
          "type": "uint256"
        }
      ],
      "stateMutability": "view",
      "type": "function"
    },
    {
      "inputs": [
        {
          "internalType": "bytes32",
          "name": "packed",
          "type": "bytes32"
        }
      ],
      "name": "unpackTokenReference",
      "outputs": [
        {
          "internalType": "address",
          "name": "contractAddress",
          "type": "address"
        },
        {
          "internalType": "uint96",
          "name": "externalTokenId",
          "type": "uint96"
        },
        {
          "internalType": "uint8",
          "name": "tokenType",
          "type": "uint8"
        }
      ],
      "stateMutability": "pure",
      "type": "function"
    }
  ],
  "bytecode": "0x60a0346200030157600160009181835561c350600b5533608052600f5491680100000000000000009384841015620002ed5781840180600f55841015620002d957600f81527f8d1108e10bcb7c27dddfc02ed9d693a074039d026cf4ea4240b40f7d581ac8029093018390556020926001600160401b03926060810184811182821017620002c5576040528181528481018281526040519686880188811087821117620002b15760405283885260408301978852600e54908110156200029d5784810180600e5581101562000289579060029291600e855260038886209102019151825551848201550194518051938411620002755785548381811c911680156200026a575b868210146200025657601f81116200020b575b508491601f8511600114620001a457939450849291908362000198575b50501b916000199060031b1c19161790555b60405161a496908162000307823960805181818161071a01528181610b4f015281816113e5015281816114ed01528181611b8301528181612a8b01528181612e7d01528181613255015261350b0152f35b01519250388062000135565b86815285812093958591601f198316915b88838310620001f05750505010620001d6575b505050811b01905562000147565b015160001960f88460031b161c19169055388080620001c8565b858701518855909601959485019487935090810190620001b5565b868352858320601f860160051c8101918787106200024b575b601f0160051c019084905b8281106200023f57505062000118565b8481550184906200022f565b909150819062000224565b634e487b7160e01b83526022600452602483fd5b90607f169062000105565b634e487b7160e01b82526041600452602482fd5b634e487b7160e01b84526032600452602484fd5b634e487b7160e01b84526041600452602484fd5b634e487b7160e01b85526041600452602485fd5b634e487b7160e01b83526041600452602483fd5b634e487b7160e01b81526032600452602490fd5b634e487b7160e01b81526041600452602490fd5b600080fdfe6080604052600436101561001257600080fd5b60003560e01c80630c0a46a8146103975780630dedd6241461039257806310340ce31461038d5780631709390f146103885780631e40079c1461038357806322c215771461037e578063266afe1b1461037957806329ac1c4c146103745780632eb2a6be1461036f57806331599c7d1461036a5780633644e515146103655780633925cd44146103605780634174a93d1461035b57806341e837961461035657806349e3a8091461035157806351858e271461034c578063574be89a1461034757806358d642bc146103425780635ffefe5b1461033d578063603168011461033857806361de7b271461033357806366dc385b1461032e5780636afbfac2146103295780636b79134d146103245780637508b9161461031f57806388a1cd761461031a5780638caf09e6146103155780638d6210e41461031057806392cf61e51461030b5780639304677d1461030657806398f1774c146103015780639c9009db146102fc578063a034af42146102f7578063a0679ed9146102f2578063a09fd42b146102ed578063abc8d1ac146102e8578063accdeb0c146102e3578063acd6f208146102de578063ad89991b146102d9578063b0c26ecf146102d4578063bb2c250c146102cf578063bfa4b7d9146102ca578063c15c66e7146102c5578063d186edac146102c0578063d19fd92e146102bb578063d8d1a657146102b6578063dd865c8b146102b1578063ddc39480146102ac578063e5f4d0aa146102a7578063e812c569146102a2578063ec6d8e061461029d578063ed70554d14610298578063f851a44014610293578063fbfe1b571461028e578063fc3c4c3e146102895763fdfb731e1461028457600080fd5b6138b7565b613800565b61355c565b6134eb565b61349a565b613440565b613236565b613035565b612e50565b612aef565b612a5e565b612a32565b612869565b61277c565b61272a565b6126ae565b612690565b61261a565b6125e0565b6123d5565b61206a565b611f8c565b611dcc565b611cbb565b611c8f565b611c59565b611be9565b611bb2565b611b65565b611ae4565b611a8b565b611a35565b611a09565b6119cd565b61194a565b6117ae565b6115df565b6114d1565b6113be565b6113a0565b61137d565b6112d1565b611256565b6111f8565b610fef565b610fb4565b610f4a565b610e5f565b610b31565b610a67565b6107ed565b61077f565b6106fb565b6106bc565b610648565b346103c35760203660031901126103c357600435600052600c6020526020604060002054604051908152f35b600080fd5b634e487b7160e01b600052604160045260246000fd5b60a081019081106001600160401b038211176103f957604052565b6103c8565b608081019081106001600160401b038211176103f957604052565b606081019081106001600160401b038211176103f957604052565b6001600160401b0381116103f957604052565b604081019081106001600160401b038211176103f957604052565b602081019081106001600160401b038211176103f957604052565b90601f801991011681019081106001600160401b038211176103f957604052565b604051906104ab82610447565b565b604051906104ab82610419565b6040519061018082018281106001600160401b038211176103f957604052565b6040519060c082018281106001600160401b038211176103f957604052565b604051906104ab826103de565b604051906104ab826103fe565b6040519060e082018281106001600160401b038211176103f957604052565b6040519061016082018281106001600160401b038211176103f957604052565b6001600160401b0381116103f957601f01601f191660200190565b92919261057982610552565b91610587604051938461047d565b8294818452818301116103c3578281602093846000960137010152565b9080601f830112156103c3578160206105bf9335910161056d565b90565b60005b8381106105d55750506000910152565b81810151838201526020016105c5565b906105f8602092828151948592016105c2565b0190565b60206106159181604051938285809451938492016105c2565b8101600581520301902090565b602061063b9181604051938285809451938492016105c2565b8101600481520301902090565b346103c35760403660031901126103c3576004356001600160401b0381116103c35761067b6106809136906004016105a4565b6105fc565b6024356000526020526040806000206001815491015482519182526020820152f35b60609060031901126103c357600435906024359060443590565b346103c35760206106d56106cf366106a2565b91617477565b604051908152f35b60809060031901126103c35760043590602435906044359060643590565b346103c35761074661070c366106dd565b926107416001600160a01b037f0000000000000000000000000000000000000000000000000000000000000000163314613a67565b6177f0565b005b634e487b7160e01b600052603260045260246000fd5b805482101561077a5760005260206000209060021b0190600090565b610748565b346103c35760403660031901126103c3576024356004356000526012602052604060002080548210156103c3576080916107b89161075e565b508054906001810154906001600160401b03600360028301549201541691604051938452602084015260408301526060820152f35b346103c357610a34610a24610801366106a2565b92919061081360ff600a541615613ab2565b61082260026000541415613afd565b600260005561083382331415613b48565b61083e841515613b93565b81331080600014610a555733905b15610a4e5782905b7f36a23558c84aea8a6a7bbadf50a454e47507746fa69bf7cf58db85d9bdf063d861098b846108fd6108ca6108d660405160208101816108a08b8b849091604092825260208201520190565b03916108b4601f199384810183528261047d565b5190206040519384916020830160209181520190565b0390810183528261047d565b6108e08333616d4b565b506109148b61090c856108fd336000526003602052604060002090565b90600052602052604060002090565b541015613bde565b61092c836108fd336000526003602052604060002090565b6109378c8254613c73565b905582610952816108fd336000526003602052604060002090565b5460405190815233907fab4d21442efe134c3d0c087e2b687e9593a1c09176f498d37873210cde052c459080602081015b0390a36105fc565b610996888254613cb2565b8082556109f86109b4876108fd876000526003602052604060002090565b549160016109d0896108fd8a6000526003602052604060002090565b5494015490604051948594859094939260609260808301968352602083015260408201520152565b0390a4610a0b610a06613cd2565b617992565b610a14336179de565b610a1f610a06613d0b565b6179de565b610a2f610a06613d44565b617a1e565b610a3e6001600055565b60405160018152602090f35b0390f35b3390610854565b829061084c565b60009103126103c357565b346103c357600080600319360112610b2e5760405180916002549081835260208093018092600283527f405787fa12a823e0f2b7631cc41b3ba8828b3321ca811111fa75cd3aa3bb5ace90835b818110610b115750505084610aca91038561047d565b60405193838594850191818652518092526040850193925b828110610af157505050500390f35b83516001600160a01b031685528695509381019392810192600101610ae2565b82546001600160a01b031684529286019260019283019201610ab4565b80fd5b346103c35760003660031901126103c357610b766001600160a01b037f0000000000000000000000000000000000000000000000000000000000000000163314613a67565b6040610bdc604051610b8781610419565b603f81527f646562756742756c6b46756e64456e7469746965733a2066756e64696e67206560208201527f6e74697469657320312d3230302077697468205553444320616e6420455448006040820152617992565b6001905b6101f4821115610bf557610746610a06613d8c565b60015b6002811115610c12575090610c0c90613d7d565b90610be0565b80610c2e610c90926108fd866000526003602052604060002090565b610c388154613c80565b905580847fab4d21442efe134c3d0c087e2b687e9593a1c09176f498d37873210cde052c45610c88610c78846108fd856000526003602052604060002090565b5487519081529081906020820190565b0390a3613d7d565b610bf8565b6001600160401b0381116103f95760051b60200190565b81601f820112156103c3578035906020610cc583610c95565b936040610cd5604051968761047d565b848652828601918360a0809702860101948186116103c3578401925b858410610d02575050505050505090565b86848303126103c3578487918451610d19816103de565b86358152828701358382015285870135868201526060808801359082015260808088013590820152815201930192610cf1565b9080601f830112156103c3576020908235610d6681610c95565b93610d74604051958661047d565b81855260208086019260051b8201019283116103c357602001905b828210610d9d575050505090565b81358152908301908301610d8f565b81601f820112156103c3578035906020610dc583610c95565b936040610dd5604051968761047d565b848652828601918360a0809702860101948186116103c3578401925b858410610e02575050505050505090565b86848303126103c357825190610e17826103de565b84358252858501358683015283850135848301526060808601359083015260809081860135926001600160401b03841684036103c35789938893820152815201930192610df1565b346103c35760c03660031901126103c3576001600160401b036044358181116103c357610e90903690600401610cac565b906064358181116103c357610ea9903690600401610d4c565b916084358281116103c357610ec2903690600401610dac565b60a4359283116103c357610a4a93610ee1610eed9436906004016105a4565b92602435600435613deb565b60405190151581529081906020820190565b90815180825260208080930193019160005b828110610f1f575050505090565b9091929382604082610f3e600194895160208091805184520151910152565b01950193929101610f11565b346103c3576040806003193601126103c35760043590610f9681602435600090858252600760205282822081835260205282822054958252600660205282822090825260205220614e06565b91610faa8251938385948552840190610eff565b9060208301520390f35b346103c35760003660031901126103c35760206040517f990f4c22d4b046a9a7d673c4a252b906cadd4f3290465e297f998c28a449652b8152f35b346103c3577fae4812ebb7c47ac957e097b649541f0cd55d34b3576fb0db5739591d6f6843676111aa611021366106dd565b61103560ff600a9794969397541615613ab2565b61104460026000541415613afd565b600260005561105585851415614e5c565b611060811515613b93565b61106a8685616d4b565b5061108f81611087886108fd886000526003602052604060002090565b541015614ea7565b61109a610a06614ef2565b6110a3846179de565b6110ae610a06614f2b565b6110b7856179de565b6110c2610a06613d44565b6110cb81617a1e565b6110e3866108fd866000526003602052604060002090565b6110ee828254613c73565b9055611108866108fd876000526003602052604060002090565b611113828254613cb2565b905585856111688287611134826108fd836000526003602052604060002090565b54604051807fab4d21442efe134c3d0c087e2b687e9593a1c09176f498d37873210cde052c45958693829190602083019252565b0390a3611197611186846108fd856000526003602052604060002090565b546040519081529081906020820190565b0390a36040519081529081906020820190565b0390a4610a34610a06614f64565b600435906001600160a01b03821682036103c357565b602435906001600160a01b03821682036103c357565b35906001600160a01b03821682036103c357565b346103c35760403660031901126103c35760026112136111b8565b6cffffffffffffffffffffffff0060243560081b16906bffffffffffffffffffffffff199060601b16171760005260106020526020604060002054604051908152f35b346103c35760403660031901126103c357005b60208082019080835283518092528060408094019401926000905b83821061129357505050505090565b845180518752808401518785015280820151878301526060908101516001600160401b03169087015260809095019493820193600190910190611284565b346103c3576020806003193601126103c35760049060043560005260128152604091604060002080549261130484610c95565b94611312604051968761047d565b8486526000928352818320908287015b8685106113375760405180610a4a8a82611269565b85846001928451611347816103fe565b8654815284870154838201526002870154868201526001600160401b036003880154166060820152815201930194019391611322565b346103c35760003660031901126103c357602060ff600a54166040519015158152f35b346103c35760003660031901126103c3576020600b54604051908152f35b346103c35760203660031901126103c3576113d76111b8565b6001600160a01b0361140c817f0000000000000000000000000000000000000000000000000000000000000000163314613a67565b8116611419811515614f9d565b600091818352600160205260ff60408420541661148d5780611461611454611466936001600160a01b03166000526001602052604060002090565b805460ff19166001179055565b614fe8565b7fc395b1bd803c744a815bc34a0426e5eaac03513b9d76bf237a734a004916499c8280a280f35b606460405162461bcd60e51b815260206004820152601060248201527f416c726561647920617070726f766564000000000000000000000000000000006044820152fd5b346103c3576114df366106a2565b916115146001600160a01b037f0000000000000000000000000000000000000000000000000000000000000000163314613a67565b61151f831515613b93565b6000928184526003602052604090818520848652602052818520908154928184018094116115da577fab4d21442efe134c3d0c087e2b687e9593a1c09176f498d37873210cde052c45936115d49355848752600360205280872086885260205285857f2b6c5ea65bb62b83a4f1947f0b9455af4b37990243b7fdbb11817b6124ed6999838a205480956115c386519283928360209093929193604081019481520152565b0390a3519081529081906020820190565b0390a380f35b613c4e565b346103c35760203660031901126103c357600435600f5481101561168057611649610a4a91600f6000527f8d1108e10bcb7c27dddfc02ed9d693a074039d026cf4ea4240b40f7d581ac80201548060601c9160ff6affffffffffffffffffffff8360081c16921690565b604080516001600160a01b0390941684526bffffffffffffffffffffffff909216602084015260ff16908201529081906060820190565b606460405162461bcd60e51b815260206004820152600f60248201527f496e76616c696420746f6b656e496400000000000000000000000000000000006044820152fd5b602080820190808352835180925260409283810160059483818660051b850101970195600080945b8786106116ff5750505050505050505090565b909192939495969798603f19828203018652878a5181878401918051855201519287838201528351809252606091828201918484838b1b83010196019388905b8b8483106117655750505050505050806001929b019601960194979695939291906116ec565b9661179d8883899b818a9c6001989a9c8a9c88999b605f19908603019052518051845287810151888501520151938201520190610eff565b9801960192018d959492939161173f565b346103c3576040806003193601126103c3576001600160401b03906004358281116103c3576117e1903690600401610d4c565b916024359081116103c3576117fa903690600401610d4c565b611804835161505b565b6000906000905b855182101561193a5761181e8287614903565b51946001600160a01b038616319361183686516150be565b9461183f61049e565b908152602095868201526118538585614903565b5261185e8484614903565b50805b865181101561192957806119226001926118a16118888c6000526003602052604060002090565b611892838d614903565b51600052602052604060002090565b546118ff8c6118ea8d611892866118e46118d26118c8876000526007602052604060002090565b6118928487614903565b54956000526006602052604060002090565b92614903565b906118f36104ad565b9384528c840152614e06565b878201528961190e8a8a614903565b5101519061191c8383614903565b52614903565b5001611861565b50935094509490600101909461180b565b610a4a90604051918291826116c4565b346103c35761196461195b366106dd565b929190916151f3565b9160409260405192606080850160608652845180915260808601946020809101926000905b8382106119a5576020890186905286151560408a015288880389f35b84518051895280840151898501528a01518a8901529687019693820193600190910190611989565b346103c35760a06119e96119e0366106dd565b92919091615353565b926040929192519485526020850152604084015260608301526080820152f35b346103c35760203660031901126103c35760043560005260086020526020604060002054604051908152f35b346103c35760403660031901126103c357600435600052600760205260406000206024356000526020526020604060002054604051908152f35b805482101561077a5760005260206000209060011b0190600090565b346103c357611a99366106a2565b906000928352600660205260408320908352602052604082208054821015611ae057611ac59250611a6f565b50805460019091015460408051928352602083019190915290f35b8280fd5b346103c3576040806003193601126103c357606090611b01615171565b5060043560005260096020528060002060243560005260205280600020908051611b2a81610419565b600183549384835201546001600160401b0382818560208296019282861684520193861c168352845195865251166020850152511690820152f35b346103c35760203660031901126103c357611baa6001600160a01b037f0000000000000000000000000000000000000000000000000000000000000000163314613a67565b600435600b55005b346103c35760203660031901126103c357610a4a6116496004358060601c9160ff6affffffffffffffffffffff8360081c16921690565b346103c35760203660031901126103c3576001600160a01b03611c0a6111b8565b1660005260116020526020604060002054604051908152f35b90602091611c3c815180928185528580860191016105c2565b601f01601f1916010190565b9060206105bf928181520190611c23565b346103c35760403660031901126103c357610a4a611c7b602435600435615523565b604051918291602083526020830190611c23565b346103c35760203660031901126103c35760043560005260126020526020604060002054604051908152f35b346103c35760403660031901126103c3576024356001600160401b0381116103c357366023820112156103c3576106d5611d01602092369060248160040135910161056d565b600435615784565b6020808201908083528351809252604092604081018260408560051b840101960194600080935b868510611d4257505050505050505090565b9091929394959697603f198282030185528689518160806060948286820194611d7683825160208091805184520151910152565b0151958982015285518094520193019085905b87818310611dab5750505050806001929a019501950193969594929190611d30565b83958560019496939551805183520151838201520194019201899291611d89565b346103c35760603660031901126103c3576004356001600160401b036024358181116103c357611e00903690600401610d4c565b906044359081116103c357611e1a83913690600401610d4c565b611e24835161583b565b906000906000905b8551821015611eed57611e49611e428388614903565b5186615523565b94611e5386610622565b93611e5e83516158a2565b94611e70611e6a61049e565b91614de8565b815260209586820152611e838588614903565b52611e8e8487614903565b50805b8351811015611edc5780611ed58189611ecb8a611ec28b8f8c61189260019b6118e4611ebc946105fc565b94614903565b51015191614de8565b61191c8383614903565b5001611e91565b509095509250600190910190611e2c565b60405180610a4a8682611d09565b600e5481101561077a57600390600e600052027fbb7b4a454dc3493923482f07822329ed19e8244eff582cc204f8554c3620c3fd0190600090565b90600182811c92168015611f66575b6020831014611f5057565b634e487b7160e01b600052602260045260246000fd5b91607f1691611f45565b6105bf9392606092825260208201528160408201520190611c23565b346103c3576020806003193601126103c357600435600e548110156103c357611fb490611efb565b509081549060016002600185015494019160405192600092815491611fd883611f36565b8087529260018116908115612048575060011461200e575b8787610a4a88612002818a038261047d565b60405193849384611f70565b6000908152838120939450925b8284106120355750505082010161200282610a4a38611ff0565b805486850186015292840192810161201b565b60ff191685880152505050151560051b830101905061200282610a4a38611ff0565b346103c35760203660031901126103c3576001600160a01b0361208b6111b8565b166000526001602052602060ff604060002054166040519015158152f35b801515036103c357565b35906104ab826120a9565b81601f820112156103c3578035916020906120d884610c95565b9360406120e78151968761047d565b818652838087019260051b860101928084116103c357848601925b848410612113575050505050505090565b6001600160401b0384358181116103c35788019060609081601f1984870301126103c35785519261214384610419565b61214e8a82016111e4565b8452868101358281116103c357868b612169928401016105a4565b8a850152828101359182116103c357019084603f830112156103c357888201359161219383610c95565b926121a08851948561047d565b80845287838c86019202830101918783116103c35791888c969492979593015b8181106121dc5750505083945086820152815201930192612102565b91809496508289989294969803126103c3578b84918a516121fc81610419565b8435815282850135838201528b8501358c8201528152019101918b9593919694926121c0565b91906060838203126103c3576040519061223b82610419565b81938035916001600160401b03928381116103c357820181601f820112156103c357803560209161226b82610c95565b91612279604051938461047d565b808352838084019160051b830101918583116103c35784809101915b8383106122db57505050508552808301358481116103c357826122b9918501610d4c565b9085015260408201359283116103c3576040926122d692016120be565b910152565b8235815291810191859101612295565b9190610180838203126103c3576123006104ba565b92803584526020810135602085015260408101356040850152606081013560608501526080810135608085015260a0810135916001600160401b03928381116103c3578161234f9184016105a4565b60a086015261236060c083016120b3565b60c086015260e082013560e08601526101008083013590860152610120808301358481116103c35782612394918501612222565b90860152610140808301358481116103c357826123b29185016105a4565b9086015261016092838301359081116103c3576123cf92016105a4565b90830152565b346103c35760203660031901126103c3576004356001600160401b0381116103c35761257c61240b610a349236906004016122eb565b61241a60026000541415613afd565b600260005561242a815133615523565b6124a061244133600052600d602052604060002090565b805461245a9060901c63ffffffff166148ee565b6148ee565b7fffffffffffffffffffff00000000ffffffffffffffffffffffffffffffffffff75ffffffff00000000000000000000000000000000000083549260901b169116179055565b6124b86124418351600052600d602052604060002090565b610160820180515115612581576125619161255861252560e0860151936125146040880194855161250c6101008b01986124fe8a51604051948593602085019788615ac7565b03601f19810183528261047d565b519020617a5e565b9061251d615af6565b505190617aa1565b6001600160a01b0361255061254461254489516001600160a01b031690565b6001600160a01b031690565b911614615b2f565b51905111615b7a565b80519061012081015160a061014083015192015192336182d8565b615bc5565b505060c081015181513310901515148015906125d2575b6125a190615915565b6125cd60808201516101208301516040516125c4816124fe602082019485615960565b51902014615a7c565b612561565b506060810151431015612598565b346103c35760403660031901126103c357600435600052600360205260406000206024356000526020526020604060002054604051908152f35b346103c35760203660031901126103c357600435600052600d60205260c060406000205463ffffffff604051916001600160401b038116835265ffffffffffff8160401c166020840152818160701c166040840152818160901c166060840152818160b01c16608084015260d01c1660a0820152f35b346103c35760003660031901126103c3576020600f54604051908152f35b346103c35760603660031901126103c35760043560ff81168091036103c3576126d56111ce565b90604435906bffffffffffffffffffffffff821682036103c35760ff81116103c3576020926cffffffffffffffffffffffff006040519360081b16906bffffffffffffffffffffffff199060601b1617178152f35b346103c35760203660031901126103c3576004356001600160401b0381116103c35761275d6127629136906004016105a4565b610622565b805460019091015460408051928352602083019190915290f35b346103c35760403660031901126103c35760243560006127a86004356000526012602052604060002090565b918254906000935b8285106127c257604051848152602090f35b9091926127cf858361075e565b508360018201540361285f576127fe6127f260038301546001600160401b031690565b6001600160401b031690565b421161285f576002810154908115612854579161284091612830866108fd600196546000526003602052604060002090565b548082101561284c575090613cb2565b945b01939291906127b0565b905090613cb2565b505093600190612842565b5093600190612842565b346103c3576003196040368201126103c357602435906004356001600160401b0383116103c357610160836004019284360301126103c35761295e612964926044610a4a956128bd60ff600a541615613ab2565b6128cc60026000541415613afd565b60026000556128dc610a06615c10565b6128e7610a06615c10565b6128f2610a06615c10565b6128fd610a06615c49565b612906856179de565b612911610a06615c82565b0161292661291f8284615cbb565b9050617a1e565b612931610a06615cf0565b61293a3361868e565b6129448183615cbb565b905061296e575b50612957610a06615e4f565b36906164f4565b90618978565b610eed6001600055565b612a26612a2c91612980610a06615d29565b61298b610a06615d62565b6129a76129a161299b8387615cbb565b90615d9b565b356179de565b6129b2610a06615da4565b6129cb60206129c461299b8488615cbb565b0135617a1e565b6129d6610a06615ddd565b6129e860406129c461299b8488615cbb565b6129f3610a06615e16565b6020612a1661299b612a0f896000526003602052604060002090565b9387615cbb565b0135600052602052604060002090565b54617a1e565b3861294b565b346103c35760203660031901126103c35760043560005260106020526020604060002054604051908152f35b346103c35760203660031901126103c357610746600435612a7e816120a9565b612ab26001600160a01b037f0000000000000000000000000000000000000000000000000000000000000000163314613a67565b61663e565b60809060031901126103c35760405190612ad0826103fe565b6004358252602435602083015260443560408301526064356060830152565b346103c35760803660031901126103c357612b0936612ab7565b600090612b1a600283541415613afd565b60028255805180612e4b5750335b60608201612b3881511515613b93565b8360ff612b946020604087019687518015600014612e2c5750818101612b6981516000526010602052604060002090565b54808a5215612df8575b505b01518060601c9160ff6affffffffffffffffffffff8360081c16921690565b9193909290911680612cbc57505082516040516323b872dd60e01b8152336004820152306024820152604481019190915291602091508290606490829089906001600160a01b03165af18015612cb757612bf5918691612c88575b506166fd565b51612c28612c20612c10846000526003602052604060002090565b8551600052602052604060002090565b918254613cb2565b90557fab4d21442efe134c3d0c087e2b687e9593a1c09176f498d37873210cde052c45612c78611186845194612c68856000526003602052604060002090565b9051600052602052604060002090565b0390a3612c856001600055565b80f35b612caa915060203d602011612cb0575b612ca2818361047d565b8101906166e8565b38612bef565b503d612c98565b6166dc565b9192909160018103612d4757506001600160a01b031691823b15612d43576040516323b872dd60e01b81523360048201523060248201526bffffffffffffffffffffffff919091166044820152918290606490829084905af18015612cb757612d2a575b5060018152612bf5565b80612d37612d3d92610434565b80610a5c565b38612d20565b5080fd5b600214612d57575b505050612bf5565b6001600160a01b0316835190803b15611ae0576040517ff242432a0000000000000000000000000000000000000000000000000000000081523360048201523060248201526bffffffffffffffffffffffff949094166044850152606484019190915260a06084840152600060a4840152829060c490829084905af18015612cb757612de5575b8481612d4f565b80612d37612df292610434565b38612dde565b612e02815161668f565b612e25612e10600f54613c64565b91828b52516000526010602052604060002090565b5538612b73565b612e38612e42916133d2565b90549060031b1c90565b82820152612b75565b612b28565b346103c35760203660031901126103c357612e696111b8565b612f04612efa6001600160a01b03612ea4817f0000000000000000000000000000000000000000000000000000000000000000163314613a67565b831692612eb2841515614f9d565b612ee1612edc612ed5836001600160a01b03166000526001602052604060002090565b5460ff1690565b616748565b6001600160a01b03166000526001602052604060002090565b805460ff19169055565b60005b6002549081811015612fb35782612f36612544612f2384613409565b90546001600160a01b039160031b1c1690565b14612f45576001915001612f07565b612f65612f5f612f23612f5a612f8495613c64565b613409565b91613409565b9091906001600160a01b038084549260031b9316831b921b1916179055565b612f8c616793565b7f67c5a35d33d48c47ef33c82c62eda6254aad034fab4c51abe26a6d06ad174a34600080a2005b5050612f8c565b91909160c0818403126103c357612fcf6104da565b928135845260208201356020850152604082013560408501526060820135606085015260808201356001600160401b03908181116103c357826130139185016105a4565b608086015260a08301359081116103c35761302e92016105a4565b60a0830152565b346103c35760203660031901126103c3576004356001600160401b0381116103c357613065903690600401612fba565b61307460026000541415613afd565b6002600055613084815133615523565b9061309c61244133600052600d602052604060002090565b6130b46124418251600052600d602052604060002090565b6130bd82610622565b546130cf60208301918251101561697e565b80519160409360016131e9868085019561314d61312e61311a89519a60608a019b6131068d51975197889260208401948d866169c9565b039561250c601f199788810183528261047d565b613122615af6565b50608089015190617aa1565b6001600160a01b036125506125446125448b516001600160a01b031690565b6131628461315a87610622565b0154156169e9565b51906131e087519187513310926108ca8c61317c43613c96565b9c5160a08c019d8e5183516131a5816131996020820180956105e5565b0389810183528261047d565b5190209251978895602087019a8b9492909160a196949286526020860152151560f81b60408501526041840152606183015260818201520190565b51902092610622565b015551905191517fa0f8bb3fdedd90066dd6f9a942e9f269c1c16e04950ff90c158175b032e35b0f84518061321f339482611c48565b0390a461322c6001600055565b5160018152602090f35b346103c357610746613247366106a2565b9161327c6001600160a01b037f0000000000000000000000000000000000000000000000000000000000000000163314613a67565b613287831515613b93565b6132c560405161329681610447565b602081527f6d696e74546f526573657276653a206d696e74696e6720746f20656e746974796020820152617992565b6132ce816179de565b61330c6040516132dd81610447565b601681527f6d696e74546f526573657276653a20746f6b656e4964000000000000000000006020820152617992565b61331582617a1e565b613320610a06616a34565b61332983617a1e565b613341826108fd836000526003602052604060002090565b61334c848254613cb2565b905581817f2b6c5ea65bb62b83a4f1947f0b9455af4b37990243b7fdbb11817b6124ed6999613389836108fd846000526003602052604060002090565b5460408051978852602088018290529096a36040518381527fab4d21442efe134c3d0c087e2b687e9593a1c09176f498d37873210cde052c4590602090a3610a2f610a06616a6d565b600f5481101561077a57600f6000527f8d1108e10bcb7c27dddfc02ed9d693a074039d026cf4ea4240b40f7d581ac8020190600090565b60025481101561077a5760026000527f405787fa12a823e0f2b7631cc41b3ba8828b3321ca811111fa75cd3aa3bb5ace0190600090565b346103c35760203660031901126103c3576004356002548110156103c3576001600160a01b0360209160026000527f405787fa12a823e0f2b7631cc41b3ba8828b3321ca811111fa75cd3aa3bb5ace015416604051908152f35b346103c35760203660031901126103c357600435600f548110156103c357602090600f6000527f8d1108e10bcb7c27dddfc02ed9d693a074039d026cf4ea4240b40f7d581ac8020154604051908152f35b346103c35760003660031901126103c35760206040516001600160a01b037f0000000000000000000000000000000000000000000000000000000000000000168152f35b9181601f840112156103c3578235916001600160401b0383116103c357602083818601950101116103c357565b346103c35760803660031901126103c3576001600160401b036004358181116103c35761358d90369060040161352f565b6135956111ce565b926044359081116103c3576135ae90369060040161352f565b9092606435936135c360ff600a541615613ab2565b6000916135d4600284541415613afd565b600283556001600160a01b0380971694858452600160205260409560ff8786205416156137bd578661365291898251613619816124fe6020820194898b304689616aa6565b51902090825180809581947f8aad06280000000000000000000000000000000000000000000000000000000083528c8b60048501616b1b565b03915afa988915612cb757610a4a998992898892613749575b50509361370f937fbd6e57133956b4a3944b483a9e595b4aab16071cf15a39384fdb1b7015865aab96936136fe613707946136a861371d99616b4a565b6136b38b1515616b95565b8a166136e56136de6136d8836001600160a01b03166000526011602052604060002090565b54613ca4565b8414616be0565b6001600160a01b03166000526011602052604060002090565b55810190616c2b565b95369161056d565b602081519101209383618978565b8451958652801515602087015294604090a36137396001600055565b5190151581529081906020820190565b6136a8985061371d969250936136fe613707946137a261370f9894887fbd6e57133956b4a3944b483a9e595b4aab16071cf15a39384fdb1b7015865aab9c99903d106137b6575b61379a818361047d565b810190616aff565b9b909b95995050945050939650938961366b565b503d613790565b6064875162461bcd60e51b815260206004820152601560248201527f50726f7669646572206e6f7420617070726f76656400000000000000000000006044820152fd5b346103c35760403660031901126103c35760206106d5602435600435616d4b565b91909160a0818403126103c3576138366104f9565b81358152926001600160401b0360208301358181116103c3578261385b918501612222565b602086015260408301358181116103c357826138789185016105a4565b604086015260608301358181116103c357826138959185016105a4565b606086015260808301359081116103c3576138b092016105a4565b6080830152565b346103c3576020806003193601126103c3576004356001600160401b0381116103c3576138eb613a29913690600401613821565b6138fa60026000541415613afd565b6002600055613a2261257c613910835133615523565b9461391c610a06616ce1565b808401906139f36139cc6139c18985519461395e60405196876139428482019283615960565b0397613956601f19998a810183528261047d565b5190206179de565b61250c60408b019661397688518481519101206179de565b61397f84610622565b54926108ca8a516040516139a68161399a8682019485615960565b0386810183528261047d565b5190208a518381519101209060405196879485019889616d1a565b608088015190617aa1565b6001600160a01b036139eb6125446125448a516001600160a01b031690565b9116146148a3565b613a01600161315a89610622565b60006001613a0e89610622565b0155845191516060860151915192336182d8565b5191610622565b5460405191337f583c3ed43fdc6e78b4538d0cb1f2f3d144e7dd1d77751180c1f59f6acb97616b600080a4613a5e6001600055565b60018152602090f35b15613a6e57565b606460405162461bcd60e51b815260206004820152601660248201527f4465706f7369746f72793a2061646d696e206f6e6c79000000000000000000006044820152fd5b15613ab957565b606460405162461bcd60e51b815260206004820152601260248201527f4465706f7369746f72793a2070617573656400000000000000000000000000006044820152fd5b15613b0457565b606460405162461bcd60e51b815260206004820152601f60248201527f5265656e7472616e637947756172643a207265656e7472616e742063616c6c006044820152fd5b15613b4f57565b606460405162461bcd60e51b815260206004820152602060248201527f43616e6e6f742070726566756e64206163636f756e7420776974682073656c666044820152fd5b15613b9a57565b606460405162461bcd60e51b815260206004820152600b60248201527f416d6f756e74207a65726f0000000000000000000000000000000000000000006044820152fd5b15613be557565b608460405162461bcd60e51b8152602060048201526024808201527f496e73756666696369656e7420726573657276657320666f722070726566756e60448201527f64696e67000000000000000000000000000000000000000000000000000000006064820152fd5b634e487b7160e01b600052601160045260246000fd5b6000198101919082116115da57565b919082039182116115da57565b9068056bc75e2d6310000082018092116115da57565b90601482018092116115da57565b90600182018092116115da57565b919082018092116115da57565b60405190613ccc82610462565b60008252565b60405190613cdf82610447565b601282527f4163636f756e742070726566756e6465643a00000000000000000000000000006020830152565b60405190613d1882610447565b601482527f66756e646564206163636f756e7420776974683a0000000000000000000000006020830152565b60405190613d5182610447565b600782527f616d6f756e743a000000000000000000000000000000000000000000000000006020830152565b60001981146115da5760010190565b60405190613d9982610419565b602782527f6f6d706c657465000000000000000000000000000000000000000000000000006040837f646562756742756c6b46756e64456e7469746965733a2066756e64696e67206360208201520152565b9395613e66939195613e0260ff600a541615613ab2565b613e1160026000541415613afd565b6002600055613e2287871415614629565b613e2d878710614674565b6040805160208101888152918101899052613e4b81606081016124fe565b51902090613e74604051809781946020830160209181520190565b03601f19810184528361047d565b84303314159182614608575b338903614600578a8a935b806145f6575b6145a5575b5050505050613f14613eb286600052600d602052604060002090565b8054613ec69060d01c63ffffffff166148ee565b7fffff00000000ffffffffffffffffffffffffffffffffffffffffffffffffffff7dffffffff000000000000000000000000000000000000000000000000000083549260d01b169116179055565b613f2b613eb287600052600d602052604060002090565b60005b83518110156141385780613f4460019286614903565b5161409e83608061404d84518c8160208801613f7d613f77613f6c835160408d015190614917565b60608c015190614917565b15614933565b805160008112156140ff5750816108fd613fca613fdb93613fc4613fb2613fe3976108fd8a6000526003602052604060002090565b54613fbd835161497e565b11156149ab565b5161497e565b946000526003602052604060002090565b918254613c73565b90555b8d816040880151600081126000146140c85750614014906108fd614029936000526003602052604060002090565b54614022604089015161497e565b1115614a1c565b8d614041613fdb836108fd613fca60408c015161497e565b90555b6108fd8c6105fc565b936060810151600081126000146140a6575061408f855461407c614074606085015161497e565b821015614a8d565b614089606084015161497e565b90613c73565b85555b01519201918254614917565b905501613f2e565b600081136140b5575b50614092565b6140c0908654613cb2565b8555386140af565b91600083136140da575b505050614044565b6140f5916108fd612c20926000526003602052604060002090565b905538818f6140d2565b92905060008313614113575b505050613fe6565b61412e916108fd612c20926000526003602052604060002090565b905538818e61410b565b50949290959160005b8751811015614318576141548189614903565b5161416d816108fd896000526007602052604060002090565b54614186826108fd8a6000526006602052604060002090565b8054915b8281106142845750505061419e8188617d57565b6141b6816108fd886000526007602052604060002090565b546141cf826108fd896000526006602052604060002090565b8054915b8281106141f057505050906141ea60019287617d57565b01614141565b808a60016141ff819486611a6f565b5001541480614270575b614214575b016141d3565b848a614221838383617beb565b91908481614234575b505050505061420e565b6040805192835260208301919091527f0971ac81b80f99fe0089c3fbe4af4fa1148f2ce78bc6345e76b05be73500de1f91a484388b818461422a565b5061427b8184611a6f565b50541515614209565b80896001614293819486611a6f565b5001541480614304575b6142a8575b0161418a565b848b6142b5838383617beb565b919084816142c8575b50505050506142a2565b6040805192835260208301919091527f0971ac81b80f99fe0089c3fbe4af4fa1148f2ce78bc6345e76b05be73500de1f91a484388c81846142be565b5061430f8184611a6f565b5054151561429d565b509195509360005b8651811015614480578061433660019289614903565b51602081016143538151888a8214918215614476575b5050614ad8565b61436b8251888a821491821561446c575b5050614b23565b614379815183511415614b6e565b608082019061439c426143966127f285516001600160401b031690565b11614bb9565b7fad30c3ae22b9e7fe965b5741b64e0013c89c5421c210755868044df2e7e1373760609261444c848601956143d387511515614c04565b6144376143eb82516000526012602052604060002090565b86519061443260408501998a51908c5161440c8a516001600160401b031690565b92614415610506565b968752602087015260408601528401906001600160401b03169052565b614c65565b5193519451955191516001600160401b031690565b604080519283526001600160401b0391909116602083015290a401614320565b1490508838614364565b149050883861434c565b509390945061448f8551614cd8565b9460005b815181101561453957806144a960019284614903565b51516144b8816108fd876105fc565b6144d0826108fd8a6000526003602052604060002090565b54906144ea836108fd8a6000526003602052604060002090565b54858254920154926144fa610513565b948b86528a602087015260408601526060850152608084015260a083015260c0820152614527828a614903565b526145328189614903565b5001614493565b50509150506145509192805161456b575b50610622565b61455a8154613d7d565b90556145666001600055565b600190565b61459c7f282c9857cebaf74e49847aa2b109427bfba5567f2e9e4e7aa5d47ff6125ec8449160405191829182614d6b565b0390a13861454a565b846145d99361250c6145d4936124fe6145c06145ec9a610622565b54918c6040519586946020860198896147f1565b617aa1565b6001600160a01b039081169116146148a3565b833884818a613e96565b5081511515613e91565b8a8993613e8b565b8833148015614620575b61461b906146e5565b613e80565b50338a14614612565b1561463057565b606460405162461bcd60e51b815260206004820152601760248201527f43616e6e6f7420736574746c6520776974682073656c660000000000000000006044820152fd5b1561467b57565b608460405162461bcd60e51b815260206004820152602860248201527f456e746974696573206d75737420626520696e206f7264657220286c6566742060448201527f3c207269676874290000000000000000000000000000000000000000000000006064820152fd5b156146ec57565b608460405162461bcd60e51b815260206004820152602160248201527f4f6e6c7920696e766f6c76656420656e7469746965732063616e20736574746c60448201527f65000000000000000000000000000000000000000000000000000000000000006064820152fd5b90815180825260208080930193019160005b828110614776575050505090565b835185529381019392810192600101614768565b90815180825260208080930193019160005b8281106147aa575050505090565b835180518652808301518684015260408082015190870152606080820151908701526080908101516001600160401b03169086015260a0909401939281019260010161479c565b939190959492956000855261481260209160c08388015260c0870190611c23565b9060409260408701526060868303606088015281808a5194858152019901936000915b848310614866575050505050508461485891846105bf9697036080860152614756565b9160a081840391015261478a565b855180518c52808501518c860152808301518c840152808201518c830152608090810151908c015260a0909a019994830194600190920191614835565b156148aa57565b606460405162461bcd60e51b815260206004820152601e60248201527f496e76616c696420636f756e7465727061727479207369676e617475726500006044820152fd5b63ffffffff8091169081146115da5760010190565b805182101561077a5760209160051b010190565b919091600083820193841291129080158216911516176115da57565b1561493a57565b606460405162461bcd60e51b815260206004820152601760248201527f536574746c656d656e74206d7573742062616c616e63650000000000000000006044820152fd5b7f800000000000000000000000000000000000000000000000000000000000000081146115da5760000390565b156149b257565b608460405162461bcd60e51b815260206004820152602160248201527f4c65667420656e7469747920696e73756666696369656e74207265736572766560448201527f73000000000000000000000000000000000000000000000000000000000000006064820152fd5b15614a2357565b608460405162461bcd60e51b815260206004820152602260248201527f526967687420656e7469747920696e73756666696369656e742072657365727660448201527f65730000000000000000000000000000000000000000000000000000000000006064820152fd5b15614a9457565b606460405162461bcd60e51b815260206004820152601760248201527f496e73756666696369656e7420636f6c6c61746572616c0000000000000000006044820152fd5b15614adf57565b606460405162461bcd60e51b815260206004820152601e60248201527f496e7375726572206d75737420626520736574746c696e6720706172747900006044820152fd5b15614b2a57565b606460405162461bcd60e51b815260206004820152601e60248201527f496e7375726564206d75737420626520736574746c696e6720706172747900006044820152fd5b15614b7557565b606460405162461bcd60e51b815260206004820152601260248201527f43616e6e6f742073656c662d696e7375726500000000000000000000000000006044820152fd5b15614bc057565b606460405162461bcd60e51b815260206004820152601960248201527f496e737572616e636520616c72656164792065787069726564000000000000006044820152fd5b15614c0b57565b606460405162461bcd60e51b815260206004820152602060248201527f496e737572616e6365206c696d6974206d75737420626520706f7369746976656044820152fd5b634e487b7160e01b600052600060045260246000fd5b8054680100000000000000008110156103f957614c879160018201815561075e565b614cd35760036001600160401b036060846104ab9551855560208101516001860155604081015160028601550151169101906001600160401b03166001600160401b0319825416179055565b614c4f565b90614ce282610c95565b6040614cf1604051928361047d565b8382528193614d02601f1991610c95565b019060005b828110614d145750505050565b81519060e08201918083106001600160401b038411176103f957602092845260008152826000818301526000858301526000606083015260006080830152600060a0830152600060c0830152828701015201614d07565b60208082019080835283518092528060408094019401926000905b838210614d9557505050505090565b84518051875280840151878501528082015187830152606080820151908801526080808201519088015260a0808201519088015260c0908101519087015260e09095019493820193600190910190614d86565b90604051614df581610447565b602060018294805484520154910152565b908154614e1281610c95565b92614e20604051948561047d565b818452600090815260208082208186015b848410614e3f575050505050565b600283600192614e4e85614de8565b815201920193019290614e31565b15614e6357565b606460405162461bcd60e51b815260206004820152601760248201527f43616e6e6f74207472616e7366657220746f2073656c660000000000000000006044820152fd5b15614eae57565b606460405162461bcd60e51b815260206004820152601560248201527f496e73756666696369656e7420726573657276657300000000000000000000006044820152fd5b60405190614eff82610447565b601b82527f3d3d3d2044495245435420523252205452414e53464552203d3d3d00000000006020830152565b60405190614f3882610447565b600282527f746f0000000000000000000000000000000000000000000000000000000000006020830152565b60405190614f7182610447565b601d82527f3d3d3d20523252205452414e5346455220434f4d504c455445203d3d3d0000006020830152565b15614fa457565b606460405162461bcd60e51b815260206004820152601060248201527f496e76616c69642070726f7669646572000000000000000000000000000000006044820152fd5b600254680100000000000000008110156103f957600181018060025581101561077a576001600160a01b039060026000527f405787fa12a823e0f2b7631cc41b3ba8828b3321ca811111fa75cd3aa3bb5ace01911673ffffffffffffffffffffffffffffffffffffffff19825416179055565b9061506582610c95565b6040615074604051928361047d565b8382528193615085601f1991610c95565b019160009160005b84811061509b575050505050565b60209082516150a981610447565b8581528260608183015282860101520161508d565b906150c882610c95565b60406150d7604051928361047d565b83825281936150e8601f1991610c95565b019160009060005b8481106150fe575050505050565b602090845161510c81610419565b8481528285818301526060878301528285010152016150f0565b1561512d57565b606460405162461bcd60e51b815260206004820152601960248201527f4465706f7369746f72793a20696e76616c6964206c696d6974000000000000006044820152fd5b6040519061517e82610419565b60006040838281528260208201520152565b60405161519c81610462565b6000815290565b906151ad82610c95565b6151ba604051918261047d565b82815280926151cb601f1991610c95565b019060005b8281106151dc57505050565b6020906151e7615171565b828285010152016151d0565b9291909382151580615347575b61520990615126565b615221856108fd866000526006602052604060002090565b9161523d8354966108fd83976000526007602052604060002090565b5480911061533f575b508484101561532c5761525a8394936151a3565b946000935b81811080615323575b156152d8576152778185611a6f565b5080549081615291575b505061528c90613d7d565b61525f565b60010154919561528c926152d0926152a76104ad565b91825260208201528760408201526152bf828b614903565b526152ca818a614903565b50613d7d565b949038615281565b94509150916152e6816151a3565b9460005b8281106152f957505050821090565b8061530660019284614903565b51615311828a614903565b5261531c8189614903565b50016152ea565b50858510615268565b92505050615338615190565b9190600090565b935038615246565b50610100831115615200565b919390600094600090615374836108fd876000526006602052604060002090565b9081549384156154f657906153b3826108fd6153a16153b9956108fd8c6000526007602052604060002090565b54996000526003602052604060002090565b54613cb2565b92829680156000146154275750600019969597935b818910806154ed575b806154e4575b15615472576153ec8984611a6f565b5090815491821561545c578282106154305750615419826154136154259461541f94613c73565b97613cb2565b99613d7d565b96613d7d565b965b969597936153ce565b9750600194999850615451935080925061544b919695613cb2565b94613c73565b930154919493929190565b50949861546c9150979697613d7d565b95615427565b94929650945091955b848110806154d1575b156154975761549290613d7d565b61547b565b909192939481949582106000146154c757506154c1816154b960019386611a6f565b505494611a6f565b50015490565b9250509150808092565b506154dc8184611a6f565b505415615484565b508787106153dd565b508015156153d7565b929650939650506153b391506108fd615519946000526003602052604060002090565b9181929180918190565b8181101561554a576040805160208101929092528101919091526105bf81606081016124fe565b6040805160208101939093528201526105bf81606081016124fe565b90601f811161557457505050565b6000916000526020600020906020601f850160051c830194106155b2575b601f0160051c01915b8281106155a757505050565b81815560010161559b565b9092508290615592565b91909182516001600160401b0381116103f9576155e3816155dd8454611f36565b84615566565b602080601f83116001146156265750819061561793949560009261561b575b50508160011b916000199060031b1c19161790565b9055565b015190503880615602565b90601f1983169561563c85600052602060002090565b926000905b88821061567957505083600195969710615660575b505050811b019055565b015160001960f88460031b161c19169055388080615656565b80600185968294968601518155019501930190615641565b90600e5491680100000000000000008310156103f9576156b960019360018101600e55611efb565b614cd35781518155604060026020926020850151600182015501920151938451916001600160401b0383116103f9576156fc836156f68654611f36565b86615566565b602091601f8411600114615730575050819061561793949560009261561b5750508160011b916000199060031b1c19161790565b95601f9291921984169661574986600052602060002090565b936000915b89831061576d575050508360019596971061566057505050811b019055565b83850151865594850194938101939181019161574e565b90816157b7576157ac91506157976104ad565b90338252600060208301526040820152615691565b6105bf600e54613c64565b6157c082611efb565b505433036157de576105bf9060026157d784611efb565b50016155bc565b606460405162461bcd60e51b815260206004820152601760248201527f53656e646572206973206e6f7420687562206f776e65720000000000000000006044820152fd5b6040519061582f82610447565b60006020838281520152565b9061584582610c95565b604090615855604051918261047d565b8381528093615866601f1991610c95565b019160005b8381106158785750505050565b602090825161588681610447565b61588e615822565b81528260608183015282860101520161586b565b906158ac82610c95565b6158b9604051918261047d565b82815280926158ca601f1991610c95565b019060005b8281106158db57505050565b6020906158e6615822565b828285010152016158cf565b61257c6159089161241a60026000541415613afd565b6001906104ab6001600055565b1561591c57565b606460405162461bcd60e51b815260206004820152601460248201527f4469737075746520706572696f6420656e6465640000000000000000000000006044820152fd5b906020908183528051916159806060936060838701526080860190614756565b9181810151601f199061599f6040958692848a830301848b0152614756565b92015195606082828503019101528551938483528383019184808760051b8601019801966000916000955b8887106159de575050505050505050505090565b9091929394959697989982828203018752888b516001600160a01b03815116835287615a1583830151888587015288860190611c23565b910151928881830391015281808451928381520193019087905b87818310615a535750505050806001929c01970197019598979694939291906159ca565b83958b6001949693955180518352848101518584015201518c82015201940192018b9291615a2f565b15615a8357565b606460405162461bcd60e51b815260206004820152601160248201527f496e76616c69642070726f6f66626f64790000000000000000000000000000006044820152fd5b9092615ae76080939695946003845260a0602085015260a0840190611c23565b95604083015260608201520152565b60405190615b0382610447565b600b82527f656e636f6465645f6d73670000000000000000000000000000000000000000006020830152565b15615b3657565b606460405162461bcd60e51b815260206004820152600e60248201527f496e76616c6964207369676e65720000000000000000000000000000000000006044820152fd5b15615b8157565b606460405162461bcd60e51b815260206004820152601960248201527f4e6577206e6f6e6365206d7573742062652067726561746572000000000000006044820152fd5b15615bcc57565b606460405162461bcd60e51b815260206004820152601b60248201527f4465706f7369746f72793a2066696e616c697a65206661696c656400000000006044820152fd5b60405190615c1d82610447565b601a82527f3d3d3d2070726f63657373426174636820454e545259203d3d3d0000000000006020830152565b60405190615c5682610447565b601f82527f70726f6365737342617463682063616c6c6564207769746820656e74697479006020830152565b60405190615c8f82610447565b601d82527f62617463682e72657365727665546f526573657276652e6c656e6774680000006020830152565b903590601e19813603018212156103c357018035906001600160401b0382116103c3576020019160608202360383136103c357565b60405190615cfd82610447565b600b82527f6d73672e73656e6465723a0000000000000000000000000000000000000000006020830152565b60405190615d3682610447565b601782527f4669727374207472616e736665722064657461696c733a0000000000000000006020830152565b60405190615d6f82610447565b600c82527f2020746f20656e746974793a00000000000000000000000000000000000000006020830152565b901561077a5790565b60405190615db182610447565b600a82527f2020746f6b656e49643a000000000000000000000000000000000000000000006020830152565b60405190615dea82610447565b600982527f2020616d6f756e743a00000000000000000000000000000000000000000000006020830152565b60405190615e2382610447565b601782527f53656e6465722063757272656e742062616c616e63653a0000000000000000006020830152565b60405190615e5c82610447565b601d82527f3d3d3d2043414c4c494e47205f70726f636573734261746368203d3d3d0000006020830152565b81601f820112156103c3578035906020615ea183610c95565b936040615eb1604051968761047d565b84865282860191836060809702860101948186116103c3578401925b858410615ede575050505050505090565b86848303126103c3578487918451615ef581610419565b8635815282870135838201528587013586820152815201930192615ecd565b9080601f830112156103c3578135916020615f2e84610c95565b93604093615f3f604051968761047d565b818652828087019260071b850101938185116103c3578301915b848310615f695750505050505090565b6080838303126103c357836080918751615f82816103fe565b853581528286013583820152888601358982015260608087013590820152815201920191615f59565b81601f820112156103c357803591602090615fc584610c95565b93604093615fd58551968761047d565b818652838087019260051b820101928084116103c357848201925b848410616001575050505050505090565b6001600160401b0384358181116103c35784019060609182601f1982870301126103c35789519261603184610419565b8982013584528a8201358a8501528101359182116103c3570183603f820112156103c357878101359061606382610c95565b916160708b51938461047d565b8083528a8a84019160061b830101918683116103c357908b8b959396949201905b8682106160ac5750508394508a820152815201930192615ff0565b909193959294508b828803126103c3578a8c9182516160ca81610447565b84358152828501358382015281520191018a9492959391616091565b81601f820112156103c35780359160209161610084610c95565b93604092616111604051968761047d565b818652848087019260051b840101938185116103c357858401925b85841061613d575050505050505090565b6001600160401b0384358181116103c35786019160c080601f1985880301126103c3576161686104da565b908a8501358252858501358b830152606090818601358581116103c357888d61619392890101610cac565b87840152608091828701358681116103c357898e6161b3928a0101610d4c565b9084015260a091828701358681116103c357898e6161d3928a0101610dac565b908401528501359384116103c3576161f2878c809796819701016105a4565b9082015281520193019261612c565b81601f820112156103c35780359160209161621b84610c95565b9360409261622c604051968761047d565b818652848087019260051b840101938185116103c357858401925b858410616258575050505050505090565b6001600160401b0384358181116103c357860191608080601f1985880301126103c357845190616287826103fe565b8a8501358252858501358481116103c357878c6162a692880101615f14565b8b830152606090818601358581116103c357888d6162c692890101610d4c565b878401528501359384116103c3576162e5878c809796819701016105a4565b90820152815201930192616247565b81601f820112156103c35780359160209161630e84610c95565b9361631c604051958661047d565b808552838086019160051b830101928084116103c357848301915b8483106163475750505050505090565b82356001600160401b0381116103c357869161636884848094890101613821565b815201920191616337565b81601f820112156103c35780359160209161638d84610c95565b9361639b604051958661047d565b808552838086019160051b830101928084116103c357848301915b8483106163c65750505050505090565b82356001600160401b0381116103c35786916163e784848094890101612fba565b8152019201916163b6565b81601f820112156103c35780359160209161640c84610c95565b9361641a604051958661047d565b808552838086019160051b830101928084116103c357848301915b8483106164455750505050505090565b82356001600160401b0381116103c3578691616466848480948901016122eb565b815201920191616435565b9080601f830112156103c357813591602061648b84610c95565b9360409361649c604051968761047d565b818652828087019260061b850101938185116103c3578301915b8483106164c65750505050505090565b85838303126103c35783869182516164dd81610447565b8535815282860135838201528152019201916164b6565b919091610160818403126103c35761650a610532565b926001600160401b0382358181116103c35782616528918501615e88565b855260208301358181116103c35782616542918501615f14565b602086015260408301358181116103c3578261655f918501615e88565b604086015260608301358181116103c3578261657c918501615fab565b606086015260808301358181116103c357826165999185016160e6565b608086015260a08301358181116103c357826165b6918501616201565b60a086015260c08301358181116103c357826165d39185016162f4565b60c086015260e08301358181116103c357826165f0918501616373565b60e0860152610100808401358281116103c3578361660f9186016163f2565b9086015261012091828401359182116103c35761662d918401616471565b908401526101408091013590830152565b600a54901515908160ff821615151461668b5760ff191660ff821617600a556040519081527fb5838f871ddee4623a406029b1a0b6013e0ec30f2dc114307f21459a800a829690602090a1565b5050565b600f54680100000000000000008110156103f9576001810180600f5581101561077a57600f6000527f8d1108e10bcb7c27dddfc02ed9d693a074039d026cf4ea4240b40f7d581ac8020155565b6040513d6000823e3d90fd5b908160209103126103c357516105bf816120a9565b1561670457565b606460405162461bcd60e51b815260206004820152601960248201527f4552433230207472616e7366657246726f6d206661696c6564000000000000006044820152fd5b1561674f57565b606460405162461bcd60e51b815260206004820152600c60248201527f4e6f7420617070726f76656400000000000000000000000000000000000000006044820152fd5b60025480156167f2576000198101908082101561077a577f405787fa12a823e0f2b7631cc41b3ba8828b3321ca811111fa75cd3aa3bb5acd9060026000520173ffffffffffffffffffffffffffffffffffffffff198154169055600255565b634e487b7160e01b600052603160045260246000fd5b61681760026000541415613afd565b6002600055616827815133615523565b9061683f61244133600052600d602052604060002090565b6168576124418251600052600d602052604060002090565b61686082610622565b549061687360208201928351101561697e565b815192600161693760408401948551906168a961312e61311a606089019a8b519561310660405197889260208401948d866169c9565b6168b68461315a87610622565b51906131e087519187513310926108ca6168cf43613c96565b9b519b60a08b019c8d516040516168fa816168ee6020820180956105e5565b0388810183528261047d565b51902091604051978895602087019a8b9492909160a196949286526020860152151560f81b60408501526041840152606183015260818201520190565b015551905191517fa0f8bb3fdedd90066dd6f9a942e9f269c1c16e04950ff90c158175b032e35b0f6040518061696e339482611c48565b0390a46001906104ab6001600055565b1561698557565b606460405162461bcd60e51b815260206004820152601360248201527f50726f6f66206e6f6e636520746f6f206f6c64000000000000000000000000006044820152fd5b9092615ae76080939695946002845260a0602085015260a0840190611c23565b156169f057565b606460405162461bcd60e51b815260206004820152601b60248201527f4469737075746520616c726561647920696e2070726f677265737300000000006044820152fd5b60405190616a4182610447565b601582527f6d696e74546f526573657276653a20616d6f756e7400000000000000000000006020830152565b60405190616a7a82610447565b601a82527f6d696e74546f526573657276653a206e65772062616c616e63650000000000006020830152565b9192849360749695927f990f4c22d4b046a9a7d673c4a252b906cadd4f3290465e297f998c28a449652b855260208501526bffffffffffffffffffffffff199060601b1660408401526054830137019060548201520190565b91908260409103126103c357602082519201516105bf816120a9565b9392918060609160209360408852816040890152838801376000828288010152601f8019910116850101930152565b15616b5157565b606460405162461bcd60e51b815260206004820152601960248201527f4465706f7369746f72793a20696e76616c69642068616e6b6f000000000000006044820152fd5b15616b9c57565b606460405162461bcd60e51b815260206004820152601860248201527f4465706f7369746f72793a20656d70747920656e7469747900000000000000006044820152fd5b15616be757565b606460405162461bcd60e51b815260206004820152601760248201527f4465706f7369746f72793a207374616c65206e6f6e63650000000000000000006044820152fd5b906020828203126103c35781356001600160401b0381116103c3576105bf92016164f4565b616c5f60026000541415613afd565b6002600055616cac616c72825133615523565b91616c7e610a06616ce1565b613a2261257c6020808401906139f36139cc6139c18985519461395e60405196876139428482019283615960565b5490337f583c3ed43fdc6e78b4538d0cb1f2f3d144e7dd1d77751180c1f59f6acb97616b600080a46001906104ab6001600055565b60405190616cee82610447565b600e82527f52656365697665642070726f6f660000000000000000000000000000000000006020830152565b9092615ae76080939695946001845260a0602085015260a0840190611c23565b90614cd35760018160008093550155565b90616d64816108fd846000526006602052604060002090565b90815492831561705c57616d86826108fd836000526007602052604060002090565b549184831015617053575b616da9816108fd846000526003602052604060002090565b549560009587156170335795935b8681108061702a575b8061701f575b15616f9157616dd58187611a6f565b5080548015616f7d57600182015491818b1015616f77578a5b80616f2b575b5081151580616f23575b616eea575b616e0e828254613c73565b9180616e935750616e8492877f1ffe8e6348fe244a8988797c02b57999821149e7b25c9f93a85c77819efdde67616e8a969460008a9555616e4e86613ca4565b6040805192835260006020840152820152606090a4616e6c86619142565b616e7f616e79828a611a6f565b90616d3a565b613d7d565b94613d7d565b955b9593616db7565b7f1ffe8e6348fe244a8988797c02b57999821149e7b25c9f93a85c77819efdde678188948a93616e8a989c979555616ee28c604051938493846040919493926060820195825260208201520152565b0390a4613d7d565b616ef68287858a618e78565b616f008184613c73565b80616f0d575b5050616e03565b616f1b919293508789618dc1565b903880616f06565b508a15616dfe565b616f5f81616f7093949d616f4d8a6108fd896000526003602052604060002090565b616f58838254613cb2565b9055613c73565b9b616f6b82898b618dc1565b613c73565b9038616df4565b81616dee565b5050616f8b90969496613d7d565b93616e8c565b9350959193509350616fb1846108fd856000526003602052604060002090565b55616fca836108fd846000526007602052604060002090565b55616fd58282617d57565b616fed826108fd836000526006602052604060002090565b90815415617017576105bf926108fd617010926000526007602052604060002090565b5490618d6e565b505050600090565b506000198510616dc6565b50871515616dc0565b5095508094508193506108fd616fca926000526007602052604060002090565b60009250616d91565b6000935061707992506108fd906000526007602052604060002090565b55600090565b90617098816108fd846000526006602052604060002090565b90815492831561705c576170ba826108fd836000526007602052604060002090565b549184831015617272575b6170dd816108fd846000526003602052604060002090565b549560009587156170335795935b86811080617269575b8061725e575b15616f91576171098187611a6f565b508054801561724a57600182015491818b1015617244578a5b8061721b575b5081151580617213575b6171da575b617142828254613c73565b918061718b5750616e8492877f1ffe8e6348fe244a8988797c02b57999821149e7b25c9f93a85c77819efdde67617182969460008a9555616e4e86613ca4565b955b95936170eb565b7f1ffe8e6348fe244a8988797c02b57999821149e7b25c9f93a85c77819efdde678188948a93617182989c979555616ee28c604051938493846040919493926060820195825260208201520152565b6171e68287858a618e78565b6171f08184613c73565b806171fd575b5050617137565b61720b919293508789618dc1565b9038806171f6565b508a15617132565b616f5f8161723d93949d616f4d8a6108fd896000526003602052604060002090565b9038617128565b81617122565b505061725890969496613d7d565b93617184565b5060001985106170fa565b508715156170f4565b600092506170c5565b90617294816108fd846000526006602052604060002090565b90815492831561705c576172b6826108fd836000526007602052604060002090565b54918483101561746e575b6172d9816108fd846000526003602052604060002090565b549560009587156170335795935b86811080617465575b8061745a575b15616f91576173058187611a6f565b508054801561744657600182015491818b1015617440578a5b80617417575b508115158061740f575b6173d6575b61733e828254613c73565b91806173875750616e8492877f1ffe8e6348fe244a8988797c02b57999821149e7b25c9f93a85c77819efdde6761737e969460008a9555616e4e86613ca4565b955b95936172e7565b7f1ffe8e6348fe244a8988797c02b57999821149e7b25c9f93a85c77819efdde678188948a9361737e989c979555616ee28c604051938493846040919493926060820195825260208201520152565b6173e28287858a618e78565b6173ec8184613c73565b806173f9575b5050617333565b617407919293508789618dc1565b9038806173f2565b508a1561732e565b616f5f8161743993949d616f4d8a6108fd896000526003602052604060002090565b9038617324565b8161731e565b505061745490969496613d7d565b93617380565b5060001985106172f6565b508715156172f0565b600092506172c1565b909192617492836108fd846000526006602052604060002090565b918254938415617701576174b4816108fd846000526007602052604060002090565b5492858410156176f8575b6174d7826108fd856000526003602052604060002090565b5496806176f357506000195b60009688156176d25796945b878110806176c9575b806176c0575b1561769f5761750d8188611a6f565b508054801561768b57600182015491818c1015617685578b5b80617650575b5081151580617648575b61760f575b617546828254613c73565b91806175c057506175b192887f1ffe8e6348fe244a8988797c02b57999821149e7b25c9f93a85c77819efdde676175b7969460008b955561758686613ca4565b6040805192835260006020840152820152606090a46175a487619142565b616e7f616e79828b611a6f565b95613d7d565b965b96946174ef565b7f1ffe8e6348fe244a8988797c02b57999821149e7b25c9f93a85c77819efdde678189948b936175b7989d979555616ee28d604051938493846040919493926060820195825260208201520152565b61761b8288858b618e78565b6176258184613c73565b80617632575b505061753b565b61764091929350888a618dc1565b90388061762b565b508b15617536565b6176728161767e93949e616f4d8b6108fd896000526003602052604060002090565b9c616f6b828a8c618dc1565b903861752c565b81617526565b505061769990979597613d7d565b946175b9565b945050959193509350616fb1846108fd856000526003602052604060002090565b508186106174fe565b508815156174f8565b505095508094508193506108fd616fca926000526007602052604060002090565b6174e3565b600093506174bf565b9194506000935061707992506108fd906000526007602052604060002090565b1561772857565b606460405162461bcd60e51b815260206004820152601d60248201527f4465706f7369746f72793a206372656469746f722072657175697265640000006044820152fd5b1561777357565b606460405162461bcd60e51b815260206004820152601560248201527f4465706f7369746f72793a207a65726f206465627400000000000000000000006044820152fd5b8054680100000000000000008110156103f9576177d991600182018155611a6f565b919091614cd3576020816001925184550151910155565b939293919091617801821515617721565b61780c85151561776c565b61783e617827846108fd846000526006602052604060002090565b61782f61049e565b908782528460208301526177b7565b7fae767eeb0c57abd46e2e0b422895ba3b89372fbd0510a58f00d996faf66f027d61788061787a856108fd856000526006602052604060002090565b54613c64565b80968115617972575b61789d846000526008602052604060002090565b6178a78154613d7d565b90556178bd84600052600d602052604060002090565b6178f56178d5612455835463ffffffff9060701c1690565b825463ffffffff60701b191660709190911b63ffffffff60701b16178255565b65ffffffffffff9081617912825465ffffffffffff9060401c1690565b1615617938575b5050617926818786619236565b604080519182526020820192909252a4565b61796b9142166dffffffffffff000000000000000082549160401b16906dffffffffffff00000000000000001916179055565b3880617919565b600061798c876108fd876000526007602052604060002090565b55617889565b6124fe6179d96104ab926040519283917f41304fac000000000000000000000000000000000000000000000000000000006020840152602060248401526044830190611c23565b6192ce565b6104ab90604051907f27b7cf850000000000000000000000000000000000000000000000000000000060208301526024820152602481526179d981610419565b6104ab90604051907ff82c50f10000000000000000000000000000000000000000000000000000000060208301526024820152602481526179d981610419565b60405160208101917f19457468657265756d205369676e6564204d6573736167653a0a3332000000008352603c820152603c8152617a9b81610419565b51902090565b906041815103617ba7576020810151916060604083015192015160001a907f7fffffffffffffffffffffffffffffff5d576e7357a4501ddfe92f46681b20a08311617b5857617b29600093602095601b85148015617b4e575b617b03906192e9565b604051948594859094939260ff6060936080840197845216602083015260408201520152565b838052039060015afa15612cb7576000516105bf6001600160a01b038216151561933f565b50601c8514617afa565b608460405162461bcd60e51b815260206004820152602260248201527f45434453413a20696e76616c6964207369676e6174757265202773272076616c604482015261756560f01b6064820152fd5b606460405162461bcd60e51b815260206004820152601f60248201527f45434453413a20696e76616c6964207369676e6174757265206c656e677468006044820152fd5b91616e796104ab91949294604060008681526006602052818120888252602052617c1783838320611a6f565b5097600189549901549789617c3d575b8252600660205282822090825260205220611a6f565b617c488a8383618dc1565b8083526008602052838320805480617cdc575b5050617c7181600052600d602052604060002090565b63ffffffff80825460701c1680617c8b575b505050617c27565b825463ffffffff60701b1916600019909101821660701b63ffffffff60701b161782558154908160701c1615617cc2575b80617c83565b6dffffffffffff0000000000000000191690553880617cbc565b6000190190553880617c5b565b8054906000906000815582617cfd57505050565b6001907f7fffffffffffffffffffffffffffffffffffffffffffffffffffffffffffffff841684036115da5760005260206000209260011b8301925b838110617d465750505050565b808360029255838382015501617d39565b90617d70816108fd846000526006602052604060002090565b9182548015617e3957617d91836108fd846000526007602052604060002090565b549381851015617e30575b935b81811080617e1d575b15617dba57617db590613d7d565b617d9e565b9293509091908110617e025750816108fd826000617dec6104ab966108fd617dfd976000526007602052604060002090565b556000526006602052604060002090565b617ce9565b916108fd617e1a926000526007602052604060002090565b55565b50617e288186611a6f565b505415617da7565b60009450617d9c565b5060009250906108fd617e1a926000526007602052604060002090565b15617e5d57565b606460405162461bcd60e51b815260206004820152601d60248201527f4465706f7369746f72793a20696e76616c69642070726f6f66626f64790000006044820152fd5b90617eab82610c95565b617eb8604051918261047d565b8281528092617ec9601f1991610c95565b0190602036910137565b60209081818403126103c35780516001600160401b03918282116103c357019083601f830112156103c3578151617f0981610c95565b94604092617f1a604051978861047d565b828752858088019360051b860101948286116103c357868101935b868510617f4757505050505050505090565b84518381116103c35782019084603f830112156103c3578882015190617f6c82610552565b617f788951918261047d565b828152868984860101116103c357617f998b949385948b86850191016105c2565b815201940193617f35565b15617fab57565b606460405162461bcd60e51b815260206004820152601d60248201527f4465706f7369746f72793a20696e76616c6964206c65667420617267730000006044820152fd5b15617ff657565b606460405162461bcd60e51b815260206004820152601e60248201527f4465706f7369746f72793a20696e76616c6964207269676874206172677300006044820152fd5b60209081818403126103c3578051906001600160401b0382116103c357019180601f840112156103c357825161806f81610c95565b9361807d604051958661047d565b818552838086019260051b8201019283116103c3578301905b8282106180a4575050505090565b81518152908301908301618096565b926180df6105bf95936180d16180ed94608088526080880190614756565b908682036020880152611c23565b908482036040860152611c23565b916060818403910152611c23565b1561810257565b608460405162461bcd60e51b815260206004820152602860248201527f4465706f7369746f72793a20696e76616c696420737562636f6e74726163742060448201527f726573706f6e73650000000000000000000000000000000000000000000000006064820152fd5b1561817357565b608460405162461bcd60e51b815260206004820152602360248201527f4465706f7369746f72793a20696e76616c696420616c6c6f77616e636520696e60448201527f64657800000000000000000000000000000000000000000000000000000000006064820152fd5b818103929160001380158285131691841216176115da57565b156181fd57565b608460405162461bcd60e51b815260206004820152602560248201527f4465706f7369746f72793a20616c6c6f77616e6365206578636565646564202860448201527f6c656674290000000000000000000000000000000000000000000000000000006064820152fd5b1561826e57565b608460405162461bcd60e51b815260206004820152602660248201527f4465706f7369746f72793a20616c6c6f77616e6365206578636565646564202860448201527f72696768742900000000000000000000000000000000000000000000000000006064820152fd5b909391908481101561868757939291945b6182f38486615523565b6020830151516183068451518214617e56565b61830f81617ea1565b9460005b82811061864057508051908161862957505061832d615190565b975b8051908161860a575050618341615190565b9790929593979691965b61835c825160408b01515114617fa4565b61836d815160408b01515114617fef565b6000945b60408a0151805187101561856e578661838991614903565b51996183a26125446125448d516001600160a01b031690565b9860208c01519988865111600014618561576183be8987614903565b515b89865111600014618553576183d58a87614903565b519b5b8b6040519d8e9384937f18c323f20000000000000000000000000000000000000000000000000000000085526004850193618412946180b3565b03815a6000948591f1998a15612cb75760009a618530575b5061843b8a9c9b9c518a51146180fb565b604060009b019a5b8b5180518210156184dd57908b61848e8c61848761847d61846686600198614903565b5194618475865182511161816c565b855190614903565b5191845190614903565b51906181dd565b9060008213156184ae579060206184a89201511015618267565b01618443565b600082126184be575b50506184a8565b60406184cc6184d69361497e565b91015110156181f6565b38806184b7565b5050929590939699509990939997969760005b895181101561851857806185066001928b614903565b51618511828d614903565b52016184f0565b50929990989197965060019091019491939092618371565b61854c919a3d8091833e618544818361047d565b81019061803a565b983861842a565b61855b613cbf565b9b6183d8565b618569613cbf565b6183c0565b5093969892959450505060005b8581106185b15750505050505080600060016185996185a094610622565b0155610622565b6185aa8154613d7d565b9055600190565b806186046185f86108fd6185ef6185db8c6185d260019860208b0151614903565b519384916105fc565b888b6185e7888d614903565b51928561938a565b6108fd8b6105fc565b60016000918281550155565b0161857b565b60208061861b938301019101617ed3565b97909295939796919661834b565b60208061863a938301019101617ed3565b9761832f565b806186766001618662618658829560208c0151614903565b516108fd896105fc565b015461866f838a51614903565b5190614917565b618680828a614903565b5201618313565b92946182e9565b6104ab906001600160a01b03604051917f2c2ecbc2000000000000000000000000000000000000000000000000000000006020840152166024820152602481526179d981610419565b604051906186e482610419565b602182527f79000000000000000000000000000000000000000000000000000000000000006040837f5f70726f636573734261746368207374617274696e6720666f7220656e74697460208201520152565b6040519061874382610419565b602c82527f736665727320636f756e743a00000000000000000000000000000000000000006040837f50726f63657373696e672072657365727665546f52657365727665207472616e60208201520152565b604051906187a282610447565b600f82527f5472616e7366657220696e6465783a00000000000000000000000000000000006020830152565b604051906187db82610447565b600c82527f46726f6d20656e746974793a00000000000000000000000000000000000000006020830152565b6040519061881482610447565b600a82527f546f20656e746974793a000000000000000000000000000000000000000000006020830152565b6040519061884d82610447565b600982527f546f6b656e2049443a00000000000000000000000000000000000000000000006020830152565b6040519061888682610447565b600782527f416d6f756e743a000000000000000000000000000000000000000000000000006020830152565b604051906188bf82610447565b601d82527f50726f63657373696e6720736574746c656d656e747320636f756e743a0000006020830152565b604051906188f882610447565b601382527f536574746c656d656e74206265747765656e3a000000000000000000000000006020830152565b6040519061893182610447565b600482527f616e643a000000000000000000000000000000000000000000000000000000006020830152565b9190916001600160401b03808094169116019182116115da57565b618983610a066186d7565b61898c816179de565b5a92600161899b610a06618736565b60409481604086016189ae815151617a1e565b6000825b618cbc575b5050506189c5610a066188b2565b60809360808601956189d8875151617a1e565b60005b87518051821015618a5f57618a456189f683618a4993614903565b51618a02610a066188eb565b618a0c81516179de565b618a17610a06618924565b6020810190618a2682516179de565b8a8d82519351908301519060a060608501519385015194015194613deb565b1590565b618a56575b6001016189db565b60009450618a4e565b5050939296509350935061012082015151618c775760005b60a08301518051821015618ab257618a45618a9583618a9c93614903565b5186619dbf565b618aa9575b600101618a77565b60009550618aa1565b505092909360005b60c08601518051821015618af457618a45618ad883618ade93614903565b51616c50565b618aeb575b600101618aba565b60009150618ae3565b5050919392909260005b60e08201518051821015618b3857618a45618b1c83618b2293614903565b51616808565b618b2f575b600101618afe565b60009350618b27565b5050919392909260005b6101008401518051821015618b7d57618a45618b6183618b6793614903565b516158f2565b618b74575b600101618b42565b60009550618b6c565b5050919392909260005b60608601518051821015618bc257618a45618ba583618bac93614903565b518661a195565b618bb9575b600101618b87565b60009150618bb1565b505092618c07618bf66127f2618c1e936101406105bf9796990180518015159081618c63575b50618c38575b505a90613c73565b92600052600d602052604060002090565b91618c1983546001600160401b031690565b61895d565b6001600160401b03166001600160401b0319825416179055565b618c5b6001618c51618c4a5a86613c73565b9351611efb565b5001918254613cb2565b905538618bee565b618c6d9150611efb565b5054871438618be8565b60405162461bcd60e51b815260206004820152601f60248201527f4465706f7369746f72793a20666c6173686c6f616e732064697361626c6564006044820152606490fd5b815151811015618d69578290618cd3610a06618795565b618cdc81617a1e565b618ce7610a066187ce565b618cf0886179de565b618cfb610a06618807565b618d10618d09828551614903565b51516179de565b618d1b610a06618840565b618d336020618d2b838651614903565b510151617a1e565b618d3e610a06618879565b618d4d8a618d2b838651614903565b618d62618d5b828551614903565b5189619927565b01826189b2565b6189b7565b919060009280549182811015618db8575b828110618d8b57505050565b618d958183611a6f565b5054618da4575b600101618d7f565b93618db0600191613d7d565b949050618d9c565b50600093505050565b8215618e53576000526009602052604060002090600052602052604060002080549182811015600014618e3f57506000815560018101805467ffffffffffffffff191690556104ab91505b60010180546fffffffffffffffff000000000000000019164260401b6fffffffffffffffff000000000000000016179055565b82039182116115da576104ab918155618e0c565b505050565b8115618e62570690565b634e487b7160e01b600052601260045260246000fd5b8390618e8e816000526012602052604060002090565b9384549586156191385750618ead82600052600c602052604060002090565b54968688101561912f575b87939790600b54986000905b89821080619126575b15619107578a5a1061910757899088618eef83618eea8689613cb2565b618e58565b91618efa838d61075e565b50998860018c0154036190f757618f1e6127f260038d01546001600160401b031690565b42116190b55760028b0191825480156190a3578c5490618f4c8c6108fd846000526003602052604060002090565b548082101561909c57505b8281101561909457925b83156190815750908a618f808d94936000526003602052604060002090565b60009182526020526040902082815490618f9991613c73565b9055818d54948c828180618fb78a6000526003602052604060002090565b600091825260205260409020546040805191825299908060208101037fab4d21442efe134c3d0c087e2b687e9593a1c09176f498d37873210cde052c4591a3619000918961a2fa565b8181549061900d91613c73565b905561901891613c73565b9b81815490619028918d866177f0565b505492518a815260208101919091527f4f02c680c56246ffd693c94e5f46c036a01b12950c88219159645a302816307b90604090a461906690613ca4565b9061907091618e58565b9061907a90613d7d565b9095618ec4565b979550509a5050505061907a9150613d7d565b508192618f61565b9050618f57565b509a50949250505061907a9150613d7d565b995460405193845290999461907a94509288925089907fa668f011a01934a61c931e6227fe90584c52112d4584844a9d43ec8fb1291c37908060208101616ee2565b94925098505061907a9150613d7d565b99505096505050909250617e1a9150600052600c602052604060002090565b50801515618ecd565b60009750618eb8565b9550505050505090565b61916e908060005260086020526040600020805480619229575b5050600052600d602052604060002090565b63ffffffff80825460701c1681816191da575b50507fffffffffffff00000000ffffffffffffffffffffffffffffffffffffffffffff79ffffffff000000000000000000000000000000000000000000006191cf8454938460b01c166148ee565b60b01b169116179055565b835463ffffffff60701b19166000199092011660701b63ffffffff60701b161782558154818160701c1615619210575b81619181565b6dffffffffffff0000000000000000191682553861920a565b600019019055388061915c565b8215618e5357600052600960205260406000209060005260205260406000209081549081018091116115da57815560010180546fffffffffffffffff000000000000000042604081901b919091166fffffffffffffffff00000000000000001983161783556001600160401b039081169116156192b1575050565b815467ffffffffffffffff19166001600160401b03909116179055565b600080916020815191016a636f6e736f6c652e6c6f675afa50565b156192f057565b608460405162461bcd60e51b815260206004820152602260248201527f45434453413a20696e76616c6964207369676e6174757265202776272076616c604482015261756560f01b6064820152fd5b1561934657565b606460405162461bcd60e51b815260206004820152601860248201527f45434453413a20696e76616c6964207369676e617475726500000000000000006044820152fd5b8154600095600195939493929187821261941b578082111588146193f257829394826193be94816193e1575b505050613c73565b90816193d0575b5050505b8281550155565b6193d99261a2fa565b3880806193c5565b6193ea9261a2fa565b3882856193b6565b8061940b95926194059261941057613c73565b9261a36a565b6193c9565b616f6b82868661a2fa565b906194289094939461497e565b908082111588146193f2578293948261944894816193e157505050613c73565b9081619457575b5050506193c9565b6194609261a2fa565b38808061944f565b6040519061947582610447565b601e82527f3d3d3d2072657365727665546f5265736572766520454e545259203d3d3d00006020830152565b604051906194ae82610447565b601d82527f72657365727665546f526573657276653a2066726f6d20656e746974790000006020830152565b604051906194e782610447565b601b82527f72657365727665546f526573657276653a20746f20656e7469747900000000006020830152565b6040519061952082610447565b601982527f72657365727665546f526573657276653a20746f6b656e4964000000000000006020830152565b6040519061955982610447565b601882527f72657365727665546f526573657276653a20616d6f756e7400000000000000006020830152565b6040519061959282610447565b602082527f72657365727665546f526573657276653a2073656e6465722062616c616e63656020830152565b604051906195cb82610447565b601582527f3d3d3d2042414c414e434520434845434b203d3d3d00000000000000000000006020830152565b6040519061960482610419565b602f82527f756666696369656e742066756e647300000000000000000000000000000000006040837f4641494c3a2042616c616e636520636865636b206661696c6564202d20696e7360208201520152565b6040519061966382610447565b600982527f52657175697265643a00000000000000000000000000000000000000000000006020830152565b6040519061969c82610447565b600a82527f417661696c61626c653a000000000000000000000000000000000000000000006020830152565b604051906196d582610447565b601d82527f535543434553533a2042616c616e636520636865636b207061737365640000006020830152565b1561970857565b608460405162461bcd60e51b815260206004820152602160248201527f496e73756666696369656e742062616c616e636520666f72207472616e73666560448201527f72000000000000000000000000000000000000000000000000000000000000006064820152fd5b6040519061977f82610447565b601a82527f3d3d3d20455845435554494e47205452414e53464552203d3d3d0000000000006020830152565b604051906197b882610419565b602382527f65746500000000000000000000000000000000000000000000000000000000006040837f72657365727665546f526573657276653a207472616e7366657220636f6d706c60208201520152565b6040519061981782610419565b602482527f616e6365000000000000000000000000000000000000000000000000000000006040837f72657365727665546f526573657276653a206e65772073656e6465722062616c60208201520152565b6040519061987682610419565b602782527f62616c616e6365000000000000000000000000000000000000000000000000006040837f72657365727665546f526573657276653a206e657720726563697069656e742060208201520152565b604051906198d582610419565b602182527f3d000000000000000000000000000000000000000000000000000000000000006040837f3d3d3d2072657365727665546f5265736572766520434f4d504c455445203d3d60208201520152565b619932610a06619468565b61993d610a066194a1565b619946816179de565b619951610a066194da565b61995b82516179de565b619966610a06619513565b60208201906199758251617a1e565b619980610a0661954c565b7fae4812ebb7c47ac957e097b649541f0cd55d34b3576fb0db5739591d6f684367619b8260408501946199b38651617a1e565b6199be610a06619585565b6199e8612a266199d8866000526003602052604060002090565b8751600052602052604060002090565b6199f385518561707f565b506199ff610a066195be565b619a26619a16856000526003602052604060002090565b8651600052602052604060002090565b54865111619b9057619a39610a066196c8565b619a5d619a536199d8866000526003602052604060002090565b5487511115619701565b619a68610a06619772565b8551619a94613fdb619a84876000526003602052604060002090565b8851600052602052604060002090565b90558551619ab3612c20619a8484516000526003602052604060002090565b9055619ac0610a066197ab565b619acb610a0661980a565b619ae5612a266199d8866000526003602052604060002090565b619af0610a06619869565b619b0b612a266199d883516000526003602052604060002090565b619b38855185611134619b28826000526003602052604060002090565b8951600052602052604060002090565b0390a38151865191619b6a611186619b5a846000526003602052604060002090565b8a51600052602052604060002090565b0390a351935194516040519081529081906020820190565b0390a46104ab610a066198c8565b619b9b610a066195f7565b619ba6610a06619656565b619bb08651617a1e565b619bbb610a0661968f565b619bd5612a266199d8866000526003602052604060002090565b619a39565b9094939160008252619bf860209660a08885015260a0840190611c23565b604091604084015260609183820360608501528780875193848152019601926000915b838310619c3a5750505050506105bf9394506080818403910152614756565b845180518952808b01518b8a015280820151898301528201518883015260809097019693890193600190920191619c1b565b60405190619c7982610447565b600b82527f456e636f646564206d73670000000000000000000000000000000000000000006020830152565b60405190619cb282610447565b600f82527f496e76616c6964207369676e65722000000000000000000000000000000000006020830152565b15619ce557565b606460405162461bcd60e51b815260206004820152601960248201527f4e6f7420656e6f7567682073656e6465722072657365727665000000000000006044820152fd5b15619d3057565b606460405162461bcd60e51b815260206004820152601760248201527f4e6f7420656e6f756768207065657220726573657276650000000000000000006044820152fd5b15619d7b57565b606460405162461bcd60e51b815260206004820152601560248201527f4e6f7420656e6f75676820636f6c6c61746572616c00000000000000000000006044820152fd5b619dca825182615523565b90825180821060001461a11c57815b619de284610622565b54602080870195619e1087519360409461250c60408c0151916124fe60405193849260208401968988619bda565b94619e19619c6c565b50619e2e6125448a516001600160a01b031690565b9560609660608b01906001600160a01b03619e4d612544845186617aa1565b91160361a0f7575050619e6d613eb288600052600d602052604060002090565b619e85613eb28a51600052600d602052604060002090565b619e90885151614cd8565b9560005b8951805182101561a0db57908b8784619eaf84600196614903565b518d815180958c84019082619ed3619ece8451998801998a5190614917565b61497e565b92619f00619eef836108fd896000526003602052604060002090565b54619ef98661497e565b1115619cde565b8051600081121561a0b55750816108fd619f54613fdb93619f25619f6696885161707f565b50613fc4619f42856108fd8a516000526003602052604060002090565b54619f4d835161497e565b1115619d29565b94516000526003602052604060002090565b90555b600081121561a09257816108fd613fca613fdb93619f8a619fb0968861707f565b50619ece619fa6856108fd8a6000526003602052604060002090565b54619ef98361497e565b90555b619fc0846108fd8b6105fc565b9280516000811260001461a07f5750619fee90614089855491613fc4619fe6825161497e565b841015619d74565b83555b01519061a002858201928354614917565b80925561a01d836108fd8d6000526003602052604060002090565b549061a037846108fd8a6000526003602052604060002090565b5490549161a043610513565b948d8652898c8701528c86015287850152608084015260a083015260c082015261a06d828b614903565b5261a078818a614903565b5001619e94565b61a08b91508454613cb2565b8355619ff1565b9161a0ae916108fd612c20926000526003602052604060002090565b9055619fb3565b92612c209150916108fd61a0d493516000526003602052604060002090565b9055619f69565b50505050955050505090506185a09250805161456b5750610622565b9750975050505050505061a10d92505190617aa1565b5061a116619ca5565b50600090565b8190619dd9565b6040519061a13082610447565b601082527f4e6f7420656e6f7567682066756e6473000000000000000000000000000000006020830152565b6040519061a16982610447565b601582527f4465706f736974656420746f206368616e6e656c2000000000000000000000006020830152565b909182519260209060208101519061a1ad868661727b565b5060009360005b6040808401908151805184101561a2ea57908761a1e08561a1d7818e9796614903565b51519451614903565b5101518061a2068d6108fd61a1f5878d615523565b976000526003602052604060002090565b541061a2d2578361a2ac93897ffb4e90f768448be74d7bcc3de131a349c0fc3ba3416e4d81df2cf01574ff072e8f958f956109838860016108fd9961a269829f9e6108fd61a258866108fd81946105fc565b936000526003602052604060002090565b61a274868254613c73565b905561a281858254613cb2565b9485825589891061a2bc575b5001549351938493846040919493926060820195825260208201520152565b5061a2b561a15c565b500161a1b4565b61a2ca838301918254614917565b90553861a28d565b50505050509550505050905061a2e661a123565b5090565b5050505095505050505050600190565b90918015618e53576000908282526003602052604082208483526020526040822080549182018092116115da577fab4d21442efe134c3d0c087e2b687e9593a1c09176f498d37873210cde052c4592602092604092558481526003835281812086825283522054604051908152a3565b9092801561a3c15761a3a89061a38e846108fd856000526003602052604060002090565b549080821061a45a5780915b828061a3e5575b5050613c73565b801561a3c15761a3ba90838584618e78565b928361a3c7575b50505050565b61a3dc9361a3d69184846177f0565b50617d57565b3880808061a3c1565b61a3ee91613c73565b61a406866108fd876000526003602052604060002090565b5584847fab4d21442efe134c3d0c087e2b687e9593a1c09176f498d37873210cde052c4561a445611186846108fd856000526003602052604060002090565b0390a361a45382868861a2fa565b388261a3a1565b8161a39a56fea26469706673582212205148934c26faeff564768e4446068a2cd5b372946c78e73bb0e7390cd8fc079a64736f6c63430008180033",
  "linkReferences": {},
  "deployedLinkReferences": {}
}