{
  "_format": "hh-sol-artifact-1",
  "contractName": "Depository",
  "sourceName": "contracts/Depository.sol",
  "abi": [
    {
      "inputs": [
        {
          "internalType": "address",
          "name": "_entityProvider",
          "type": "address"
        }
      ],
      "stateMutability": "nonpayable",
      "type": "constructor"
    },
    {
      "inputs": [],
      "name": "E0",
      "type": "error"
    },
    {
      "inputs": [],
      "name": "E1",
      "type": "error"
    },
    {
      "inputs": [],
      "name": "E2",
      "type": "error"
    },
    {
      "inputs": [],
      "name": "E3",
      "type": "error"
    },
    {
      "inputs": [],
      "name": "E4",
      "type": "error"
    },
    {
      "inputs": [],
      "name": "E5",
      "type": "error"
    },
    {
      "inputs": [],
      "name": "E6",
      "type": "error"
    },
    {
      "inputs": [],
      "name": "E7",
      "type": "error"
    },
    {
      "inputs": [],
      "name": "E8",
      "type": "error"
    },
    {
      "inputs": [],
      "name": "E9",
      "type": "error"
    },
    {
      "anonymous": false,
      "inputs": [
        {
          "components": [
            {
              "internalType": "bytes32",
              "name": "left",
              "type": "bytes32"
            },
            {
              "internalType": "bytes32",
              "name": "right",
              "type": "bytes32"
            },
            {
              "components": [
                {
                  "internalType": "uint256",
                  "name": "tokenId",
                  "type": "uint256"
                },
                {
                  "internalType": "uint256",
                  "name": "leftReserve",
                  "type": "uint256"
                },
                {
                  "internalType": "uint256",
                  "name": "rightReserve",
                  "type": "uint256"
                },
                {
                  "internalType": "uint256",
                  "name": "collateral",
                  "type": "uint256"
                },
                {
                  "internalType": "int256",
                  "name": "ondelta",
                  "type": "int256"
                }
              ],
              "internalType": "struct TokenSettlement[]",
              "name": "tokens",
              "type": "tuple[]"
            },
            {
              "internalType": "uint256",
              "name": "nonce",
              "type": "uint256"
            }
          ],
          "indexed": false,
          "internalType": "struct AccountSettlement[]",
          "name": "settled",
          "type": "tuple[]"
        }
      ],
      "name": "AccountSettled",
      "type": "event"
    },
    {
      "anonymous": false,
      "inputs": [
        {
          "indexed": true,
          "internalType": "bytes32",
          "name": "sender",
          "type": "bytes32"
        },
        {
          "indexed": true,
          "internalType": "bytes32",
          "name": "counterentity",
          "type": "bytes32"
        },
        {
          "indexed": true,
          "internalType": "uint256",
          "name": "nonce",
          "type": "uint256"
        }
      ],
      "name": "CooperativeClose",
      "type": "event"
    },
    {
      "anonymous": false,
      "inputs": [
        {
          "indexed": true,
          "internalType": "bytes32",
          "name": "debtor",
          "type": "bytes32"
        },
        {
          "indexed": true,
          "internalType": "bytes32",
          "name": "creditor",
          "type": "bytes32"
        },
        {
          "indexed": true,
          "internalType": "uint256",
          "name": "tokenId",
          "type": "uint256"
        },
        {
          "indexed": false,
          "internalType": "uint256",
          "name": "amount",
          "type": "uint256"
        },
        {
          "indexed": false,
          "internalType": "uint256",
          "name": "debtIndex",
          "type": "uint256"
        }
      ],
      "name": "DebtCreated",
      "type": "event"
    },
    {
      "anonymous": false,
      "inputs": [
        {
          "indexed": true,
          "internalType": "bytes32",
          "name": "debtor",
          "type": "bytes32"
        },
        {
          "indexed": true,
          "internalType": "bytes32",
          "name": "creditor",
          "type": "bytes32"
        },
        {
          "indexed": true,
          "internalType": "uint256",
          "name": "tokenId",
          "type": "uint256"
        },
        {
          "indexed": false,
          "internalType": "uint256",
          "name": "amountPaid",
          "type": "uint256"
        },
        {
          "indexed": false,
          "internalType": "uint256",
          "name": "remainingAmount",
          "type": "uint256"
        },
        {
          "indexed": false,
          "internalType": "uint256",
          "name": "newDebtIndex",
          "type": "uint256"
        }
      ],
      "name": "DebtEnforced",
      "type": "event"
    },
    {
      "anonymous": false,
      "inputs": [
        {
          "indexed": true,
          "internalType": "bytes32",
          "name": "debtor",
          "type": "bytes32"
        },
        {
          "indexed": true,
          "internalType": "bytes32",
          "name": "creditor",
          "type": "bytes32"
        },
        {
          "indexed": true,
          "internalType": "uint256",
          "name": "tokenId",
          "type": "uint256"
        },
        {
          "indexed": false,
          "internalType": "uint256",
          "name": "amountForgiven",
          "type": "uint256"
        },
        {
          "indexed": false,
          "internalType": "uint256",
          "name": "debtIndex",
          "type": "uint256"
        }
      ],
      "name": "DebtForgiven",
      "type": "event"
    },
    {
      "anonymous": false,
      "inputs": [
        {
          "indexed": true,
          "internalType": "bytes32",
          "name": "sender",
          "type": "bytes32"
        },
        {
          "indexed": true,
          "internalType": "bytes32",
          "name": "counterentity",
          "type": "bytes32"
        },
        {
          "indexed": true,
          "internalType": "uint256",
          "name": "nonce",
          "type": "uint256"
        },
        {
          "indexed": false,
          "internalType": "bytes32",
          "name": "initialProofbodyHash",
          "type": "bytes32"
        },
        {
          "indexed": false,
          "internalType": "bytes32",
          "name": "finalProofbodyHash",
          "type": "bytes32"
        }
      ],
      "name": "DisputeFinalized",
      "type": "event"
    },
    {
      "anonymous": false,
      "inputs": [
        {
          "indexed": true,
          "internalType": "bytes32",
          "name": "sender",
          "type": "bytes32"
        },
        {
          "indexed": true,
          "internalType": "bytes32",
          "name": "counterentity",
          "type": "bytes32"
        },
        {
          "indexed": true,
          "internalType": "uint256",
          "name": "nonce",
          "type": "uint256"
        },
        {
          "indexed": false,
          "internalType": "bytes32",
          "name": "proofbodyHash",
          "type": "bytes32"
        },
        {
          "indexed": false,
          "internalType": "bytes",
          "name": "initialArguments",
          "type": "bytes"
        }
      ],
      "name": "DisputeStarted",
      "type": "event"
    },
    {
      "anonymous": false,
      "inputs": [
        {
          "indexed": false,
          "internalType": "bool",
          "name": "isPaused",
          "type": "bool"
        }
      ],
      "name": "EmergencyPauseToggled",
      "type": "event"
    },
    {
      "anonymous": false,
      "inputs": [
        {
          "indexed": true,
          "internalType": "address",
          "name": "provider",
          "type": "address"
        }
      ],
      "name": "EntityProviderAdded",
      "type": "event"
    },
    {
      "anonymous": false,
      "inputs": [
        {
          "indexed": true,
          "internalType": "address",
          "name": "provider",
          "type": "address"
        }
      ],
      "name": "EntityProviderRemoved",
      "type": "event"
    },
    {
      "anonymous": false,
      "inputs": [
        {
          "indexed": true,
          "internalType": "bytes32",
          "name": "entityId",
          "type": "bytes32"
        },
        {
          "indexed": true,
          "internalType": "bytes32",
          "name": "hankoHash",
          "type": "bytes32"
        },
        {
          "indexed": false,
          "internalType": "uint256",
          "name": "nonce",
          "type": "uint256"
        },
        {
          "indexed": false,
          "internalType": "bool",
          "name": "success",
          "type": "bool"
        }
      ],
      "name": "HankoBatchProcessed",
      "type": "event"
    },
    {
      "anonymous": false,
      "inputs": [
        {
          "indexed": true,
          "internalType": "bytes32",
          "name": "entity",
          "type": "bytes32"
        },
        {
          "indexed": true,
          "internalType": "uint256",
          "name": "tokenId",
          "type": "uint256"
        },
        {
          "indexed": false,
          "internalType": "uint256",
          "name": "newBalance",
          "type": "uint256"
        }
      ],
      "name": "ReserveUpdated",
      "type": "event"
    },
    {
      "anonymous": false,
      "inputs": [
        {
          "indexed": true,
          "internalType": "bytes32",
          "name": "hashlock",
          "type": "bytes32"
        },
        {
          "indexed": true,
          "internalType": "bytes32",
          "name": "revealer",
          "type": "bytes32"
        },
        {
          "indexed": false,
          "internalType": "bytes32",
          "name": "secret",
          "type": "bytes32"
        }
      ],
      "name": "SecretRevealed",
      "type": "event"
    },
    {
      "inputs": [],
      "name": "DOMAIN_SEPARATOR",
      "outputs": [
        {
          "internalType": "bytes32",
          "name": "",
          "type": "bytes32"
        }
      ],
      "stateMutability": "view",
      "type": "function"
    },
    {
      "inputs": [
        {
          "internalType": "bytes",
          "name": "",
          "type": "bytes"
        }
      ],
      "name": "_accounts",
      "outputs": [
        {
          "internalType": "uint256",
          "name": "nonce",
          "type": "uint256"
        },
        {
          "internalType": "bytes32",
          "name": "disputeHash",
          "type": "bytes32"
        },
        {
          "internalType": "uint256",
          "name": "disputeTimeout",
          "type": "uint256"
        }
      ],
      "stateMutability": "view",
      "type": "function"
    },
    {
      "inputs": [
        {
          "internalType": "bytes32",
          "name": "",
          "type": "bytes32"
        }
      ],
      "name": "_activeDebts",
      "outputs": [
        {
          "internalType": "uint256",
          "name": "",
          "type": "uint256"
        }
      ],
      "stateMutability": "view",
      "type": "function"
    },
    {
      "inputs": [
        {
          "internalType": "bytes",
          "name": "",
          "type": "bytes"
        },
        {
          "internalType": "uint256",
          "name": "",
          "type": "uint256"
        }
      ],
      "name": "_collaterals",
      "outputs": [
        {
          "internalType": "uint256",
          "name": "collateral",
          "type": "uint256"
        },
        {
          "internalType": "int256",
          "name": "ondelta",
          "type": "int256"
        }
      ],
      "stateMutability": "view",
      "type": "function"
    },
    {
      "inputs": [
        {
          "internalType": "bytes32",
          "name": "",
          "type": "bytes32"
        },
        {
          "internalType": "uint256",
          "name": "",
          "type": "uint256"
        }
      ],
      "name": "_debtIndex",
      "outputs": [
        {
          "internalType": "uint256",
          "name": "",
          "type": "uint256"
        }
      ],
      "stateMutability": "view",
      "type": "function"
    },
    {
      "inputs": [
        {
          "internalType": "bytes32",
          "name": "",
          "type": "bytes32"
        },
        {
          "internalType": "uint256",
          "name": "",
          "type": "uint256"
        },
        {
          "internalType": "uint256",
          "name": "",
          "type": "uint256"
        }
      ],
      "name": "_debts",
      "outputs": [
        {
          "internalType": "bytes32",
          "name": "creditor",
          "type": "bytes32"
        },
        {
          "internalType": "uint256",
          "name": "amount",
          "type": "uint256"
        }
      ],
      "stateMutability": "view",
      "type": "function"
    },
    {
      "inputs": [
        {
          "internalType": "bytes32",
          "name": "",
          "type": "bytes32"
        },
        {
          "internalType": "uint256",
          "name": "",
          "type": "uint256"
        }
      ],
      "name": "_reserves",
      "outputs": [
        {
          "internalType": "uint256",
          "name": "",
          "type": "uint256"
        }
      ],
      "stateMutability": "view",
      "type": "function"
    },
    {
      "inputs": [
        {
          "internalType": "uint256",
          "name": "",
          "type": "uint256"
        }
      ],
      "name": "_tokens",
      "outputs": [
        {
          "internalType": "address",
          "name": "contractAddress",
          "type": "address"
        },
        {
          "internalType": "uint96",
          "name": "externalTokenId",
          "type": "uint96"
        },
        {
          "internalType": "uint8",
          "name": "tokenType",
          "type": "uint8"
        }
      ],
      "stateMutability": "view",
      "type": "function"
    },
    {
      "inputs": [
        {
          "internalType": "bytes32",
          "name": "e1",
          "type": "bytes32"
        },
        {
          "internalType": "bytes32",
          "name": "e2",
          "type": "bytes32"
        }
      ],
      "name": "accountKey",
      "outputs": [
        {
          "internalType": "bytes",
          "name": "",
          "type": "bytes"
        }
      ],
      "stateMutability": "pure",
      "type": "function"
    },
    {
      "inputs": [
        {
          "internalType": "address",
          "name": "provider",
          "type": "address"
        }
      ],
      "name": "addEntityProvider",
      "outputs": [],
      "stateMutability": "nonpayable",
      "type": "function"
    },
    {
      "inputs": [],
      "name": "admin",
      "outputs": [
        {
          "internalType": "address",
          "name": "",
          "type": "address"
        }
      ],
      "stateMutability": "view",
      "type": "function"
    },
    {
      "inputs": [
        {
          "components": [
            {
              "internalType": "bytes32",
              "name": "entity",
              "type": "bytes32"
            },
            {
              "internalType": "address",
              "name": "contractAddress",
              "type": "address"
            },
            {
              "internalType": "uint96",
              "name": "externalTokenId",
              "type": "uint96"
            },
            {
              "internalType": "uint8",
              "name": "tokenType",
              "type": "uint8"
            },
            {
              "internalType": "uint256",
              "name": "internalTokenId",
              "type": "uint256"
            },
            {
              "internalType": "uint256",
              "name": "amount",
              "type": "uint256"
            }
          ],
          "internalType": "struct ExternalTokenToReserve",
          "name": "params",
          "type": "tuple"
        }
      ],
      "name": "adminRegisterExternalToken",
      "outputs": [],
      "stateMutability": "nonpayable",
      "type": "function"
    },
    {
      "inputs": [
        {
          "internalType": "address",
          "name": "",
          "type": "address"
        }
      ],
      "name": "approvedEntityProviders",
      "outputs": [
        {
          "internalType": "bool",
          "name": "",
          "type": "bool"
        }
      ],
      "stateMutability": "view",
      "type": "function"
    },
    {
      "inputs": [
        {
          "internalType": "bytes32",
          "name": "leftEntity",
          "type": "bytes32"
        },
        {
          "internalType": "bytes32",
          "name": "rightEntity",
          "type": "bytes32"
        },
        {
          "components": [
            {
              "internalType": "uint256",
              "name": "tokenId",
              "type": "uint256"
            },
            {
              "internalType": "int256",
              "name": "leftDiff",
              "type": "int256"
            },
            {
              "internalType": "int256",
              "name": "rightDiff",
              "type": "int256"
            },
            {
              "internalType": "int256",
              "name": "collateralDiff",
              "type": "int256"
            },
            {
              "internalType": "int256",
              "name": "ondeltaDiff",
              "type": "int256"
            }
          ],
          "internalType": "struct SettlementDiff[]",
          "name": "diffs",
          "type": "tuple[]"
        },
        {
          "internalType": "uint256[]",
          "name": "forgiveDebtsInTokenIds",
          "type": "uint256[]"
        }
      ],
      "name": "computeSettlementHash",
      "outputs": [
        {
          "internalType": "bytes32",
          "name": "hash",
          "type": "bytes32"
        },
        {
          "internalType": "uint256",
          "name": "nonce",
          "type": "uint256"
        },
        {
          "internalType": "uint256",
          "name": "encodedMsgLength",
          "type": "uint256"
        }
      ],
      "stateMutability": "view",
      "type": "function"
    },
    {
      "inputs": [],
      "name": "defaultDisputeDelay",
      "outputs": [
        {
          "internalType": "uint256",
          "name": "",
          "type": "uint256"
        }
      ],
      "stateMutability": "view",
      "type": "function"
    },
    {
      "inputs": [],
      "name": "emergencyPause",
      "outputs": [
        {
          "internalType": "bool",
          "name": "",
          "type": "bool"
        }
      ],
      "stateMutability": "view",
      "type": "function"
    },
    {
      "inputs": [
        {
          "internalType": "bytes32",
          "name": "entity",
          "type": "bytes32"
        },
        {
          "internalType": "uint256",
          "name": "tokenId",
          "type": "uint256"
        }
      ],
      "name": "enforceDebts",
      "outputs": [
        {
          "internalType": "uint256",
          "name": "",
          "type": "uint256"
        }
      ],
      "stateMutability": "nonpayable",
      "type": "function"
    },
    {
      "inputs": [
        {
          "internalType": "bytes32",
          "name": "entity",
          "type": "bytes32"
        },
        {
          "internalType": "uint256",
          "name": "tokenId",
          "type": "uint256"
        }
      ],
      "name": "enforceDebtsLarge",
      "outputs": [
        {
          "internalType": "uint256",
          "name": "",
          "type": "uint256"
        }
      ],
      "stateMutability": "nonpayable",
      "type": "function"
    },
    {
      "inputs": [
        {
          "internalType": "bytes32",
          "name": "",
          "type": "bytes32"
        }
      ],
      "name": "entityDisputeDelays",
      "outputs": [
        {
          "internalType": "uint256",
          "name": "",
          "type": "uint256"
        }
      ],
      "stateMutability": "view",
      "type": "function"
    },
    {
      "inputs": [
        {
          "internalType": "address",
          "name": "",
          "type": "address"
        }
      ],
      "name": "entityNonces",
      "outputs": [
        {
          "internalType": "uint256",
          "name": "",
          "type": "uint256"
        }
      ],
      "stateMutability": "view",
      "type": "function"
    },
    {
      "inputs": [],
      "name": "entityProvider",
      "outputs": [
        {
          "internalType": "address",
          "name": "",
          "type": "address"
        }
      ],
      "stateMutability": "view",
      "type": "function"
    },
    {
      "inputs": [
        {
          "internalType": "uint256",
          "name": "",
          "type": "uint256"
        }
      ],
      "name": "entityProvidersList",
      "outputs": [
        {
          "internalType": "address",
          "name": "",
          "type": "address"
        }
      ],
      "stateMutability": "view",
      "type": "function"
    },
    {
      "inputs": [],
      "name": "getApprovedProviders",
      "outputs": [
        {
          "internalType": "address[]",
          "name": "",
          "type": "address[]"
        }
      ],
      "stateMutability": "view",
      "type": "function"
    },
    {
      "inputs": [
        {
          "internalType": "uint256",
          "name": "tokenId",
          "type": "uint256"
        }
      ],
      "name": "getTokenMetadata",
      "outputs": [
        {
          "internalType": "address",
          "name": "contractAddress",
          "type": "address"
        },
        {
          "internalType": "uint96",
          "name": "externalTokenId",
          "type": "uint96"
        },
        {
          "internalType": "uint8",
          "name": "tokenType",
          "type": "uint8"
        }
      ],
      "stateMutability": "view",
      "type": "function"
    },
    {
      "inputs": [],
      "name": "getTokensLength",
      "outputs": [
        {
          "internalType": "uint256",
          "name": "",
          "type": "uint256"
        }
      ],
      "stateMutability": "view",
      "type": "function"
    },
    {
      "inputs": [
        {
          "internalType": "bytes32",
          "name": "entity",
          "type": "bytes32"
        },
        {
          "internalType": "uint256",
          "name": "tokenId",
          "type": "uint256"
        },
        {
          "internalType": "uint256",
          "name": "amount",
          "type": "uint256"
        }
      ],
      "name": "mintToReserve",
      "outputs": [],
      "stateMutability": "nonpayable",
      "type": "function"
    },
    {
      "inputs": [
        {
          "components": [
            {
              "internalType": "bytes32",
              "name": "entity",
              "type": "bytes32"
            },
            {
              "internalType": "uint256",
              "name": "tokenId",
              "type": "uint256"
            },
            {
              "internalType": "uint256",
              "name": "amount",
              "type": "uint256"
            }
          ],
          "internalType": "struct Depository.ReserveMint[]",
          "name": "mints",
          "type": "tuple[]"
        }
      ],
      "name": "mintToReserveBatch",
      "outputs": [],
      "stateMutability": "nonpayable",
      "type": "function"
    },
    {
      "inputs": [
        {
          "internalType": "address",
          "name": "",
          "type": "address"
        },
        {
          "internalType": "address",
          "name": "",
          "type": "address"
        },
        {
          "internalType": "uint256[]",
          "name": "",
          "type": "uint256[]"
        },
        {
          "internalType": "uint256[]",
          "name": "",
          "type": "uint256[]"
        },
        {
          "internalType": "bytes",
          "name": "",
          "type": "bytes"
        }
      ],
      "name": "onERC1155BatchReceived",
      "outputs": [
        {
          "internalType": "bytes4",
          "name": "",
          "type": "bytes4"
        }
      ],
      "stateMutability": "pure",
      "type": "function"
    },
    {
      "inputs": [
        {
          "internalType": "address",
          "name": "",
          "type": "address"
        },
        {
          "internalType": "address",
          "name": "",
          "type": "address"
        },
        {
          "internalType": "uint256",
          "name": "id",
          "type": "uint256"
        },
        {
          "internalType": "uint256",
          "name": "",
          "type": "uint256"
        },
        {
          "internalType": "bytes",
          "name": "",
          "type": "bytes"
        }
      ],
      "name": "onERC1155Received",
      "outputs": [
        {
          "internalType": "bytes4",
          "name": "",
          "type": "bytes4"
        }
      ],
      "stateMutability": "nonpayable",
      "type": "function"
    },
    {
      "inputs": [
        {
          "internalType": "uint8",
          "name": "tokenType",
          "type": "uint8"
        },
        {
          "internalType": "address",
          "name": "contractAddress",
          "type": "address"
        },
        {
          "internalType": "uint96",
          "name": "externalTokenId",
          "type": "uint96"
        }
      ],
      "name": "packTokenReference",
      "outputs": [
        {
          "internalType": "bytes32",
          "name": "",
          "type": "bytes32"
        }
      ],
      "stateMutability": "pure",
      "type": "function"
    },
    {
      "inputs": [
        {
          "internalType": "bytes",
          "name": "encodedBatch",
          "type": "bytes"
        },
        {
          "internalType": "address",
          "name": "entityProviderAddr",
          "type": "address"
        },
        {
          "internalType": "bytes",
          "name": "hankoData",
          "type": "bytes"
        },
        {
          "internalType": "uint256",
          "name": "nonce",
          "type": "uint256"
        }
      ],
      "name": "processBatch",
      "outputs": [
        {
          "internalType": "bool",
          "name": "completeSuccess",
          "type": "bool"
        }
      ],
      "stateMutability": "nonpayable",
      "type": "function"
    },
    {
      "inputs": [
        {
          "internalType": "address",
          "name": "provider",
          "type": "address"
        }
      ],
      "name": "removeEntityProvider",
      "outputs": [],
      "stateMutability": "nonpayable",
      "type": "function"
    },
    {
      "inputs": [
        {
          "internalType": "uint256",
          "name": "delayBlocks",
          "type": "uint256"
        }
      ],
      "name": "setDefaultDisputeDelay",
      "outputs": [],
      "stateMutability": "nonpayable",
      "type": "function"
    },
    {
      "inputs": [
        {
          "internalType": "bool",
          "name": "isPaused",
          "type": "bool"
        }
      ],
      "name": "setEmergencyPause",
      "outputs": [],
      "stateMutability": "nonpayable",
      "type": "function"
    },
    {
      "inputs": [
        {
          "internalType": "bytes32",
          "name": "entity",
          "type": "bytes32"
        },
        {
          "internalType": "uint256",
          "name": "delayBlocks",
          "type": "uint256"
        }
      ],
      "name": "setEntityDisputeDelay",
      "outputs": [],
      "stateMutability": "nonpayable",
      "type": "function"
    },
    {
      "inputs": [
        {
          "internalType": "bytes32",
          "name": "",
          "type": "bytes32"
        }
      ],
      "name": "tokenToId",
      "outputs": [
        {
          "internalType": "uint256",
          "name": "",
          "type": "uint256"
        }
      ],
      "stateMutability": "view",
      "type": "function"
    },
    {
      "inputs": [
        {
          "internalType": "bytes32",
          "name": "packed",
          "type": "bytes32"
        }
      ],
      "name": "unpackTokenReference",
      "outputs": [
        {
          "internalType": "address",
          "name": "contractAddress",
          "type": "address"
        },
        {
          "internalType": "uint96",
          "name": "externalTokenId",
          "type": "uint96"
        },
        {
          "internalType": "uint8",
          "name": "tokenType",
          "type": "uint8"
        }
      ],
      "stateMutability": "view",
      "type": "function"
    }
  ],
  "bytecode": "0x60c03462000257576001600160401b0390601f6200646938819003918201601f191683019291848411838510176200025c5780839260409586528339602092839181010312620002575751926001600160a01b038085169182860362000257576001916000968388556014600655841562000205576080528387528285528587209360ff1994848682541617905560025491680100000000000000009283811015620001dd5785810180600255811015620001f15760028a52878a200180546001600160a01b031990811690931790553360a0528751936060850190811185821017620001dd57885288845286840192898452888501978a8952600c5491821015620001c95786820180600c55821015620001b5578a600c60ff999a9b9c522090861b01935116915160a01b161781550192511690825416179055516161f6908162000273823960805181818161165401528181611940015281816123cf01528181612a13015261412b015260a05181818161022b015281816102cb01528181610322015281816103a20152818161064b015281816106ff015281816108a801528181613b8f01528181613f5e01526140ca0152f35b634e487b7160e01b8b52603260045260248bfd5b634e487b7160e01b8b52604160045260248bfd5b634e487b7160e01b8a52604160045260248afd5b634e487b7160e01b8a52603260045260248afd5b865162461bcd60e51b815260048101879052602560248201527f456e7469747950726f76696465722063616e6e6f74206265207a65726f206164604482015264647265737360d81b6064820152608490fd5b600080fd5b634e487b7160e01b600052604160045260246000fdfe6104e0604052600436101561001357600080fd5b60003560e01c80630dedd624146142a2578063125c2cc41461422e578063266afe1b146141835780633644e5151461415a5780634318cdd01461411557806351858e27146140f257806356d586811461403a57806358d642bc14613f3b5780636031680114613f145780636b79134d14613ee85780637508b91614613eb557806388a1cd7614613e64578063907efb1b14613e4657806392cf61e514613dd95780639304677d14613d9f57806396954a9f14613d73578063abc8d1ac14613d34578063acd6f20814613d01578063b0c26ecf14613ce3578063bb2c250c14613c9d578063bc197c8114613bf6578063d148b4c814613b79578063d19fd92e14613b4d578063d595b4f514610a21578063d66cb651146108e1578063d8d1a65714610889578063ddc39480146106db578063e812c56914610638578063ec6d8e06146105f6578063ed70554d146105a7578063f176e3261461056d578063f23a6e611461046f578063f43ac1fb14610351578063f851a4401461030c578063fbd6d63f146102ba578063fc3c4c3e146102995763fdfef201146101b457600080fd5b346102945760c0366003190112610294576040516101d181614383565b60043581526001600160a01b0360243581811681036102945760208301526044356001600160601b038116810361029457604083015260643560ff81168103610294576060830152608435608083015260a43560a08301527f000000000000000000000000000000000000000000000000000000000000000016330361028257600260005414610270576102699060026000556152b5565b6001600055005b604051633018d46b60e11b8152600490fd5b604051633485c51360e21b8152600490fd5b600080fd5b346102945760206102b26102ac3661448a565b90614e8c565b604051908152f35b34610294576102c83661448a565b907f00000000000000000000000000000000000000000000000000000000000000006001600160a01b03163303610282576000526007602052604060002055600080f35b34610294576000366003190112610294576040517f00000000000000000000000000000000000000000000000000000000000000006001600160a01b03168152602090f35b3461029457602080600319360112610294576001600160401b0360043581811161029457366023820112156102945780600401359182116102945760249060603660246060860284010111610294577f00000000000000000000000000000000000000000000000000000000000000006001600160a01b0316330361028257831561045d5760005b8481106103e257005b818102830190606482013591821561045d57600192868201359081600052600390818b526044604060002094013593846000528b52610427604060002091825461483c565b9055816000528952604060002082600052895260008051602061616183398151915289604060002054604051908152a3016103d9565b60405163440a57bf60e01b8152600490fd5b346102945760a0366003190112610294576104886144a0565b506104916144b6565b506084356001600160401b038111610294576104b19036906004016145a8565b505060018060601b0360443516604051602081019060028252336040820152826060820152606081526104e38161439e565b5190209081600052600d6020526040600020541561050e575b60405163f23a6e6160e01b8152602090f35b6040516105329161051e8261433a565b33825260208201526002604082015261497a565b600c5460001981019190821161055757600052600d60205260406000205580806104fc565b634e487b7160e01b600052601160045260246000fd5b34610294576040366003190112610294576105a361058f60243560043561493a565b604051918291602083526020830190614714565b0390f35b3461029457602036600319011261029457600435600c54811015610294576105ce90614527565b5060ff6001825492015416906105a36040519282849360a01c9060018060a01b0316846144e0565b34610294576020366003190112610294576004356002548110156102945761061f6020916146f9565b905460405160039290921b1c6001600160a01b03168152f35b34610294576106463661450d565b9091907f00000000000000000000000000000000000000000000000000000000000000006001600160a01b0316330361028257801561045d578160005260036020526040600020836000526020526106a4604060002091825461483c565b90558060005260036020526040600020826000526020526000805160206161618339815191526020604060002054604051908152a3005b34610294576020366003190112610294576106f46144a0565b6001600160a01b03907f00000000000000000000000000000000000000000000000000000000000000008216330361028257811690610734821515614739565b81600052600190600160205260ff604060002054161561085e5790826000526001602052604060002060ff198154169055806000905b610797575b837f67c5a35d33d48c47ef33c82c62eda6254aad034fab4c51abe26a6d06ad174a34600080a2005b60029081549182821015610857578492866107b1846146f9565b979054600398891b1c16146107ce5750508293508201909261076a565b90935060001991828201918211610557576107fc846107ef61081a946146f9565b905490891b1c16916146f9565b90919060018060a01b038084549260031b9316831b921b1916179055565b8254801561084157019261082d846146f9565b81939154921b1b191690555581808061076f565b634e487b7160e01b600052603160045260246000fd5b505061076f565b60405162461bcd60e51b8152602060048201526003602482015262216f6b60e81b6044820152606490fd5b34610294576020366003190112610294576004358015158103610294577f00000000000000000000000000000000000000000000000000000000000000006001600160a01b03163303610282576108df906148dc565b005b34610294576080366003190112610294576001600160401b03604435818111610294576109129036906004016145ec565b906064359081116102945761092b90369060040161468c565b61093960243560043561493a565b6040519182825160209481610952879383858901614467565b810160048152030190205490600194600183018093116105575760405191610992868401956000875230604086015260c0606086015260e0850190614714565b846080850152601f199760a091898682030160a08701528880865192838152019501926000905b828210610a0157505050505095826109e08360609984846109ec97030160c08501526148a8565b039081018352826143d4565b51809220926040519384528301526040820152f35b9091928a8288610a14889a85995161487b565b01970194939201906109b9565b34610294576080366003190112610294576004356001600160401b03811161029457610a519036906004016145a8565b61044052610a5d6144b6565b6044356001600160401b03811161029457610a7c9036906004016145a8565b906102a0529060ff600b54166102825760026000541461027057600260009081556001600160a01b03821681526001602052604090205460ff1615613b1c576040516359516e5f60e01b8152600080516020616181833981519152600482015246602482015230604482015260a0606482015260208180610b0460a48201610440518961480e565b6064356084830152038173__$1a0918a2aa2208593bb0a5d7644cd0946b$__5af49081156116fb57600091613ae9575b5060409060009282518094818094631155a0c560e31b8252866004830152610b63604483018a6102a05161480e565b602483019190915203926001600160a01b03165af19081156116fb57600061018052600091613aa5575b50158015613a9a575b61218257610180516001600160a01b03166000908152600e602052604090205460018101811161055757600101606435036102825760018060a01b036101805116600052600e6020526064356040600020556020826104405181010312610294576001600160401b03823511610294576101608235830161044051840103126102945760405161022052610c2c61022051614303565b81358201356001600160401b03811161029457610440518301601f828535860101011215610294578083358401013590610c65826145d5565b91610c7360405193846143d4565b808352602083019161044051860160208360061b8389358a01010101116102945791602083873588010101925b60208360061b8289358a010101018410613a615750506102205192909252505081358201602001356001600160401b03811161029457610440518301601f82853586010101121561029457610cfa818435850101356145d5565b90610d0860405192836143d4565b8335840181018035808452610440516020808601939188016060909302909101011161029457602082863587010101905b8535860183018035606002016020018210613a3f57505061022051602001919091525081358201604001356001600160401b03811161029457610440518301601f82853586010101121561029457610d96818435850101356145d5565b90610da460405192836143d4565b83358401810180358084526104405160208086019391880160059390931b909101011161029457602082863587010101905b853586018301803560051b0160200182106138fe57505061022051604001919091525081358201606001356001600160401b03811161029457610440518301601f828535860101011215610294578083358401013590610e35826145d5565b91610e4360405193846143d4565b8083526020830161044051860160208360051b8589358a010101011161029457602083873588010101905b60208360051b8589358a010101018210613844575050610220516060019290925250506001600160401b038235830160800135116102945761044051820182358301608081013501601f011215610294578135820160808101350135610ed3816145d5565b90610ee160405192836143d4565b8082526020820161044051850160208360051b608088358901013588358901010101116102945784358501608081013501602001905b85358601608081013501600584901b01602001821061365e5750506102205160800191909152506001600160401b038235830160a0013511610294576104405182018235830160a081013501601f011215610294578135820160a08101350135610f80816145d5565b90610f8e60405192836143d4565b808252602082019061044051850160208260051b60a08835890101358835890101010111610294578435850160a081013501602001915b8535860160a081013501600583901b0160200183106135585750506102205160a00191909152506001600160401b038235830160c0013511610294576104405182018235830160c081013501601f011215610294578135820160c0810135013561040081905261104890611038906145d5565b60405161042052610420516143d4565b610420516103c052610400516104205152602061042051016103c05261044051820160206104005160051b60c08535860101358535860101010111610294578135820160c0810135016020016103e0525b60206104005160051b60c0843585010135843585010101016103e05110612ed957610420516102205160c001526001600160401b038235830160e0013511610294576104405182018235830160e081013501601f011215610294578135820160e08101350135611108816145d5565b9061111660405192836143d4565b8082526020820190610440518501602060c0830260e08835890101358835890101010111610294578435850160e081013501602001915b8535860160e08101350160c08302016020018310612e4d5750506102205160e00191909152506001600160401b0382358301610100013511610294576104405182018235830161010081013501601f011215610294576111b78235830161010081013501356145d5565b6111c460405191826143d4565b823583016101008101350180358083526104405160208085019391870160609093029091010111610294578335840161010081013501602001905b84358501610100810135018035606002016020018210612e2e5750506102205161010001526001600160401b0382358301610120013511610294576104405182018235830161012081013501601f011215610294578135820161012081013501359161126a836145d5565b61127760405191826143d4565b838152602081019361044051830160208260061b6101208635870101358635870101010111610294578235830161012081013501602001945b8335840161012081013501600683901b016020018610612dee5784610140858561012061022051015280350101356101406102205101526112f561022051515161520c565b9061130461022051515161520c565b6102605261131661022051515161520c565b6102c05260009160005b6102205151805182101561140a57816113389161524b565b5151602061134a83610220515161524b565b5101516000915b8683106113e9575b868314611391575b509061138a6113806001949361137a846102c05161524b565b5161483c565b916102c05161524b565b5201611320565b6113806113de888361138a946113ac60019998979c8b61524b565b526101805160005260036020526040600020906000526020526040600020546113d8826102605161524b565b526149f7565b979293945050611361565b91826113f5828761524b565b51146114045760010191611351565b91611359565b50509060005b838110612da3575060019260005b60e0610220510151805182101561145d579061144c61143f8260019461524b565b51805115611452576152b5565b0161141e565b6101805181526152b5565b5050828460005b602061022051015180518210156115b6578161147f9161524b565b5190611492602083015161018051614ccc565b50610180516000526003602052604060002060208301516000526020526040600020546040830151116115a4578160406001930151610180516000526003602052604060002060208301516000526020526114f3604060002091825461492d565b905560408101518151600052600360205260406000206020830151600052602052611524604060002091825461483c565b905560208101516101805160005260036020526040600020602083015160005260205260406000205490604051918252600080516020616161833981519152918260206101805192a3815190602083015192826000526003602052602060406000209101516000526020526020604060002054604051908152a301611464565b604051632fd8225d60e21b8152600490fd5b5050838360005b6060610220510151805182101561170757602060806115df846116529461524b565b5160405193849283926328a3f8a760e11b845260036004850152600460248501526005604485015261018051606485015260c06084850152805160c48501528581015160e485015260408101516101048501526060810151610124850152015160a0610144840152610164830190614714565b7f00000000000000000000000000000000000000000000000000000000000000006001600160a01b031660a4830152038173__$1a0918a2aa2208593bb0a5d7644cd0946b$__5af49081156116fb576000916116c1575b50156116b8575b6001016115bd565b600093506116b0565b90506020813d6020116116f3575b816116dc602093836143d4565b81010312610294576116ed9061482f565b866116a9565b3d91506116cf565b6040513d6000823e3d90fd5b5050828460806102205101518051612b30575b5060a0610220510151805161299b575b5060005b610120610220510151805182101561180b578161174a9161524b565b5180519091906001600160a01b0316156102825760018060a01b03825116916020810151833b1561029457600093602485926040519687938492636030754560e01b845260048401525af19283156116fb576001936117fc575b506020808201516040518281019182528281526117c08161431f565b519020910151906040519182527f47172349c05bf58f7f6a376def3bbc250cd3295a7eead0290d8fa3531c6ca9fb60206101805193a30161172e565b61180590614370565b876117a4565b505083839260006101e0525b60c061022051015180516101e0511015612582576101e0516118389161524b565b516101c05261184e6101c051516101805161493a565b610300526101c05161014001511561223957604051602081610300515161187b8183856103005101614467565b8101600481520301902054156122275760406101c051015160405160208161030051516118ae8183856103005101614467565b810160048152030190205410156102825760e06101c051015151156121ce5760406101c0510151602060806101c0510151604051611901816118f385820194856158c7565b03601f1981018352826143d4565b51902060c06101c05101518281519101209060e06101c0510151936119a56101c0515191604051968795869563bba8d94760e01b875260018060a01b037f00000000000000000000000000000000000000000000000000000000000000001660048801523060248801526101006044880152611984610104880161030051614714565b936064880152608487015260a48601526003198583030160c4860152614714565b9060e4830152038173__$1a0918a2aa2208593bb0a5d7644cd0946b$__5af49081156116fb57600091612194575b5015612182575b6000600160405160208161030051516119f98183856103005101614467565b810160048152030190200155600060026040516020816103005151611a248183856103005101614467565b8101600481520301902001556101c0515160806101c05101516101605260a06101c05101516103605260c06101c05101516103a052602061016051015151610160515151036121705780610180511090600061010052816000146121665761018051610100525b600061038052811561215857610380525b801561214e5761036051905b15612144576103a051905b611ac3610380516101005161493a565b6101205260206101605101515161034052611ae0610340516145d5565b610320526040516102e052611afb610320516102e0516143d4565b610340516102e05152611b10610340516145d5565b601f19013660206102e05101376102e0516102805260005b6103405181106120cf5750805160006101a052156120b55780602080611b5393518301019101615df0565b6101a0525b8051600061020052156120975780602080611b7893518301019101615df0565b61020052919290925b6000610240525b60406101605101518051610240511015611e665761024051611ba99161524b565b5161014081905280516020909101516101a0515161024051600060e0819052936001600160a01b0316911115611e4f57611be9610240516101a05161524b565b5160e0525b610200515161024051108314611e3457611c72611c5a611c14610240516102005161524b565b51935b60405160c052630c6191f960e11b60c051526080600460c0510152611c44608460c05101610280516148a8565b9060031960c051830301602460c0510152614714565b60031960c051820301604460c051015260e051614714565b60c080518083036003190160649091015251928391611c9091614714565b03908360c051915af160a05260a051156116fb57600060805260a051611d76575b60005b60406101405101518051821015611d5e5781611ccf9161524b565b51611cdd815160805161524b565b5190611ced81516102805161524b565b516000811283828103128116908483810313901516176105575760008184031380611d4f575b610282576000818403129283611d33575b50505061028257600101611cb4565b602092935090611d439103615ec1565b91015110868080611d24565b50604082015181840311611d13565b50506080516102805261024080516001019052611b88565b3d80600060c0513e611d8a8160c0516143d4565b602060c0518260c0510103126102945760c051516001600160401b038111610294578160c05101601f8260c05101011215610294578060c051015190611dcf826145d5565b92611ddd60405194856143d4565b828452602084019060c0510160208460051b8460c051010101116102945760208260c0510101905b60208460051b8460c0510101018210611e245750505050608052611cb1565b8151815260209182019101611e05565b611c72611c5a604051611e46816143b9565b85815293611c17565b604051611e5b816143b9565b83815260e052611bee565b509291909260005b60206101605101518051821015611fa2579060006001611e8f83829561524b565b51611e9d846102805161524b565b516040516020816101205151611eb98183856101205101614467565b8101600581520301902082855260205260408420918254858313158614611f2c579182611eec9293611f18575b50615ec1565b80611f00575b50505b828155015501611e6e565b611f11916103805161010051615f2f565b8980611ef2565b611f26908461038051615ed2565b8c611ee6565b808310158614611f7d57611f45919281611f6a5761492d565b80611f52575b5050611ef5565b611f63916101005161038051615f2f565b8980611f4b565b611f78828561010051615ed2565b61492d565b82611f9391611f78611f9d958561010051615ed2565b9061038051615ed2565b611ef5565b50506101c05160e00151519193909291156120615760406101c05101516040516020816103005151611fda8183856103005101614467565b81016004815203019020555b6101c0515160206101c05101519060606101c051015160806101c0510151604051612019816118f36020820194856158c7565b51902060405191825260208201527f6d46d52b5fda2a9055705ba74bf5e95807cfa39decf819cdfeaa14f9b2ba346a60406101805192a460016101e051016101e05292611817565b604051602081610300515161207c8183856103005101614467565b8101600481520301902061209081546149f7565b9055611fe6565b506040516120a4816143b9565b600081526102005291929092611b81565b506040516120c2816143b9565b600081526101a052611b58565b806120e3600192602061016051015161524b565b5160405160208161012051516120ff8183856101205101614467565b8101600581520301902090600052602052612130826040600020015461212983610160515161524b565b51906159e2565b61213d826102e05161524b565b5201611b28565b6103605190611ab3565b6103a05190611aa8565b506101805161038052611a9c565b8061010052611a8b565b6040516329be7c4760e11b8152600490fd5b604051631bd18a1960e31b8152600490fd5b90506020813d6020116121c6575b816121af602093836143d4565b81010312610294576121c09061482f565b856119d3565b3d91506121a2565b60405162461bcd60e51b815260206004820152602b60248201527f5369676e617475726520726571756972656420666f7220636f6f70657261746960448201526a76652066696e616c697a6560a81b6064820152608490fd5b6040516388d0662b60e01b8152600490fd5b600160405160208161030051516122568183856103005101614467565b81016004815203019020015480156122275760206101c05101519060206101006101c0510151151560026040518381610300515161229a8183856103005101614467565b810160048152030190200154936122f260606101c051015160c06101c0510151906040519788958695633ea09ef960e11b8752600487015260248601526044850152606484015260a0608484015260a4830190614714565b038173__$1a0918a2aa2208593bb0a5d7644cd0946b$__5af49182156116fb5760009261254e575b500361253c576101c05160e0015151156124ac5760406101c051015160405160208161030051516123518183856103005101614467565b810160048152030190205410156102825760406101c051015160206101c051015110156102825760806101c0510151604051612395816118f36020820194856158c7565b519020602060406101c05101519160e06101c0510151906101c0515161242d6040519586948594632775acd960e21b865260018060a01b037f000000000000000000000000000000000000000000000000000000000000000016600487015230602487015260e0604487015261241160e4870161030051614714565b92606487015260848601526003198583030160a4860152614714565b9060c4830152038173__$1a0918a2aa2208593bb0a5d7644cd0946b$__5af49081156116fb57600091612472575b506119da57604051631bd18a1960e31b8152600490fd5b90506020813d6020116124a4575b8161248d602093836143d4565b810103126102945761249e9061482f565b8561245b565b3d9150612480565b6101006101c051015115156101c051516101805110148061250b575b6102825760606101c051015160806101c05101516040516124f1816118f36020820194856158c7565b519020146119da57604051633485c51360e21b8152600490fd5b50600260405160208161030051516125298183856103005101614467565b81016004815203019020015443106124c8565b604051630cba69cb60e01b8152600490fd5b9091506020813d60201161257a575b8161256a602093836143d4565b810103126102945751908661231a565b3d915061255d565b5092909160005b604061022051015180518210156125c8576125a7826125b19261524b565b51610180516159fe565b156125bf575b600101612589565b600094506125b7565b5050828460005b610100610220510151805182101561286a57816125eb9161524b565b516125fd602082015161018051614e8c565b5061261461260e6020830151614527565b5061479f565b610180516000526003602052604060002060208301516000526020526040600020546040830151116115a457604082015161018051600052600360205260406000206020840151600052602052612671604060002091825461492d565b905560208201516101805160005260036020526040600020602084015160005260205260406000205460405190815260008051602061616183398151915260206101805192a3604081015160ff168061275b5750518151604092830151925163a9059cbb60e01b81526001600160a01b039182166004820152602481019390935260209183916044918391600091165af19081156116fb57600091612721575b50156115a4576001905b016125cf565b90506020813d602011612753575b8161273c602093836143d4565b810103126102945761274d9061482f565b86612711565b3d915061272f565b919291600181036127de5750805192516020909101516001600160a01b0393841693909116906001600160601b0316833b15610294576127b693600092836040518097819582946323b872dd60e01b84523060048501615293565b03925af19182156116fb576001926127cf575b5061271b565b6127d890614370565b866127c9565b6002146127f0575b506001915061271b565b805183516020909201516040909401516001600160601b03909416936001600160a01b0392831692909116803b1561029457612848946000809460405197889586948593637921219560e11b8552306004860161525f565b03925af19182156116fb57600192156127e65761286490614370565b866127e6565b5050838360005b8281106128d75760208461288a8736906102a051614412565b82815191012060405191606435835215159182848201527fbd6e57133956b4a3944b483a9e595b4aab16071cf15a39384fdb1b7015865aab60406101805192a36001600055604051908152f35b6128e1818361524b565b516129076128f2836102605161524b565b51612900846102c05161524b565b519061483c565b610180516000526003602052604060002082600052602052604060002054106115a457612937826102c05161524b565b51610180516000526003602052604060002082600052602052612960604060002091825461492d565b905561018051600052600360205260406000209060005260205260406000205461298d826102605161524b565b51116115a457600101612871565b6101805160005260076020526040600020548015600014612b2a5750600654905b60405180926312f6ab5960e31b825260a4820160048084015261018051602484015260a06044840152835180915260c4830190602060c48260051b8601019501916000905b828210612abd575050505060648201527f00000000000000000000000000000000000000000000000000000000000000006001600160a01b031660848201526020918190038173__$1a0918a2aa2208593bb0a5d7644cd0946b$__5af49081156116fb57600091612a83575b5015612a7a575b8461172a565b60009150612a74565b90506020813d602011612ab5575b81612a9e602093836143d4565b8101031261029457612aaf9061482f565b85612a6d565b3d9150612a91565b919394509194602080612b1a60019360c3198b8203018652895190815181528382015184820152604082015160408201526080612b09606084015160a0606085015260a0840190614714565b920151906080818403910152614714565b9701920192018694939192612a01565b906129bc565b60409492939194519063d017d69960e01b82528160a4810160036004830152600460248301526005604483015261018051606483015260a06084830152825180915260c4820190602060c48260051b8501019401916000905b828210612c98575050505080602092038173__$1a0918a2aa2208593bb0a5d7644cd0946b$__5af49081156116fb57600091612c5e575b5015612c55575b91906000925b60806102205101518051851015612c4b5784612beb9196939661524b565b5190600092606083019460208401945b86518051821015612c355790612c2f612c168260019461524b565b51612c258189518b5190615791565b8851885190615791565b01612bfb565b5050959193509593506001915001929190612bcd565b509250928461171a565b60009250612bc7565b90506020813d602011612c90575b81612c79602093836143d4565b8101031261029457612c8a9061482f565b85612bc0565b3d9150612c6c565b919350919360c3198682030182528451906101008101825182526020830151602083015260408301519061010060408401528151809152602061012084019201906000905b808210612d83575050506060830151908281036060840152602080835192838152019201906000905b808210612d6b575050508260209260e080612d56612d338796608060019a01518682036080880152614714565b888060a01b0360a08701511660a086015260c086015185820360c0870152614714565b93015191015296019201920185939192612b89565b90919260208060019286518152019401920190612d06565b909192602060a082612d98600194885161487b565b019401920190612cdd565b80612db36001926102c05161524b565b516101805160005260036020526040600020612dcf838761524b565b51600052602052612de6604060002091825461483c565b905501611410565b6040866104405186010312610294576040602080928251612e0e8161431f565b612e178a6144cc565b8152828a01358382015281520196019590506112b0565b6020606091612e4261044051880185614849565b8152019101906111ff565b60c083610440518801031261029457604051612e6881614383565b83358152612e78602085016144cc565b602082015260408401356001600160601b03811690036102945760408481013590820152606084013560ff8116900361029457606084810135908201526080808501359082015260a08085013590820152815260c09092019160200161114d565b6103e051356001600160401b03811161029457610160601f198260c08635870101358635870101016104405186010301126102945760405190612f1b82614303565b8335840160c0810135018101602081810135845260408083013591850191909152606080830135918501919091526080820135908401526001600160401b0360a09091013511610294576104405160608535860160c081013501830160a08101350191860191909103601f19011261029457604051612f998161433a565b8435850160c081013501820160a081013501602001356001600160401b038111610294576104405186018635870160c081013501840160a0810135018201603f011215610294578535860160c081013501830160a081013501810160200135613001816145d5565b9161300f60405193846143d4565b81835261044051602084019190890189358a0160c081013501870160a0810135018201600585901b0160400111610294578835890160c081013501860160a0810135018101604001915b89358a0160c081013501870160a0810135018201600585901b01604001831061354857505050908252506001600160401b038535860160c081013501830160a081013501604001351161029457610440516130d09086018635870160c081013501840160a08101350160408101350160200161468c565b60208201528435850160c081013501820160a081013501606001356001600160401b038111610294576104405186018635870160c081013501840160a0810135018201603f011215610294578535860160c081013501830160a08101350181016020013561313d816145d5565b9161314b60405193846143d4565b81835261044051602084019190890189358a0160c081013501870160a0810135018201600585901b0160400111610294578835890160c081013501860160a0810135018101604001915b89358a0160c081013501870160a0810135018201600585901b0160400183106133095750505050604082015260808301526001600160401b0360c085358601818101350183010135116102945761044051613206908501602060c08735880181810135018501908101350101614449565b60a08301526001600160401b038435850160c081013501820160e0013511610294576104405161324c9085018535860160c081013501830160e081013501602001614449565b60c0838101919091526001600160401b038535860191820135909101820161010001351161029457610440516132999085018535860160c081013501830161010081013501602001614449565b60e0830152610120906132e590610160906132c08735880160c081013501820185016146ec565b6101008601528635870160c081013501016101408181013594860194909452016146ec565b908201526103c0515260206103c051016103c05260206103e051016103e052611099565b6001600160401b03833511610294576104405160608b358c0160c081013501890160a0810135018401853501918c0191909103603f190112610294576040516133518161433a565b6133738b358c0160c081013501890160a08101350184018535016040016144cc565b81526001600160401b038b358c0160c081013501890160a0810135018401853501606001351161029457610440516133cc908c018c358d0160c0810135018a0160a0810135018501863501606081013501604001614449565b60208201526001600160401b038b358c0160c081013501890160a0810135018401853501608001351161029457610440518b018b358c0160c081013501890160a0810135018401853501608081013501605f011215610294578a358b0160c081013501880160a08101350183018435016080810135016040013561344f816145d5565b9061345d60405192836143d4565b808252610440516020830191908e018e358f0160c0810135018c0160a08101350187018835016080810135016060808402919091010111610294578d358e0160c0810135018b0160a0810135018601873501608081013501606001918e5b8035810160c0810135018d0160a08101350188018935016080810135016060848102919091010184106134ff57505050506040820152815260209283019201613195565b83606091610440510103126102945760608f918160208f926040516135238161433a565b88358152828901358382015260408901356040820152815201950194929150506134bb565b8235815260209283019201613059565b6001600160401b038335116102945760a0601f1984358289358a01013589358a010101610440518901030112610294576040519061359582614355565b8635870160a0810135018435016020818101358452604080830135918501919091526060820135908401526001600160401b036080909101351161029457610440516135f89088018835890160a081013501863501608081013501602001614449565b60608301526001600160401b038735880160a08181013590910186350101351161029457610440516020928392839290919061364c908b018b358c0160a0818101359091018a350190810135018501614449565b60808201528152019301929050610fc5565b81356001600160401b03811161029457610100601f198260808a358b0101358a358b010101610440518a0103011261029457604051906001600160401b0361010083019081119083111761382e5761010082016040908152602060808a358b019081013501830181810135855291820135908401526001600160401b0360609091013511610294576104405161370a90890189358a0160808101350183016060810135016020016145ec565b60408301526001600160401b03608089358a0181810135018301013511610294576104405161374f908901602060808b358c018181013501850190810135010161468c565b60608301526001600160401b0388358901608081013501820160a0013511610294576104405161379590890189358a01608081013501830160a081013501602001614449565b60808301526137b460c08260808b358c0101358b358c010101016144cc565b60a08301526001600160401b0388358901608081013501820160e00135116102945761044051602093849384939192909161010091613808908d018d358e01608081013501830160e0810135018701614449565b60c08401528b358c0160808101350101013560e082015281529190930192019050610f17565b634e487b7160e01b600052604160045260246000fd5b6001600160401b038235116102945760a0601f198335868a358b010101610440518a01030112610294576040519061387b82614355565b873588018501833501602081810135845260408083013591850191909152606080830135918501919091526080820135908401526001600160401b0360a090910135116102945761044051602092839283929091906138ec908c018c358d018a0188350160a0810135018501614449565b60808201528152019201919050610e6e565b6001600160401b03823511610294576060601f1983358589358a010101610440518901030112610294576040516139348161433a565b8635870184018335016020818101358352604082013590830152606001356001600160401b03811161029457610440518801603f828635888c358d01010101011215610294576020818535878b358c01010101013590613993826145d5565b916139a160405193846143d4565b80835260208301610440518b0160408c858560061b918c8c3591803501010101010111610294578a358b0188018735018301604001905b8b358c0189018835018401600684901b016040018210613a0957505050506040820152815260209182019101610dd6565b6040828d610440510103126102945760206040918251613a288161431f565b8435815282850135838201528152019101906139d8565b606060208092613a54610440518a0186614849565b8152019201919050610d39565b6040846104405189010312610294576040602080938251613a818161431f565b8735815282880135838201528152019401939150610ca0565b506101805115610b96565b90506040813d604011613ae1575b81613ac0604093836143d4565b8101031261029457613ad660208251920161482f565b906101805283610b8d565b3d9150613ab3565b90506020813d602011613b14575b81613b04602093836143d4565b8101031261029457516000610b34565b3d9150613af7565b60405162461bcd60e51b815260206004820152600960248201526810b83937bb34b232b960b91b6044820152606490fd5b3461029457602036600319011261029457600435600052600d6020526020604060002054604051908152f35b34610294576020366003190112610294576004357f00000000000000000000000000000000000000000000000000000000000000006001600160a01b03163303610282578015613bc857600655005b60405162461bcd60e51b81526020600482015260066024820152652164656c617960d01b6044820152606490fd5b346102945760a036600319011261029457613c0f6144a0565b50613c186144b6565b506001600160401b0360443581811161029457613c39903690600401614578565b505060643581811161029457613c53903690600401614578565b505060843590811161029457613c6d9036906004016145a8565b505060405162461bcd60e51b8152602060048201526006602482015265042c4c2e8c6d60d31b6044820152606490fd5b346102945760603660031901126102945760043560ff8116810361029457613cc36144b6565b906044356001600160601b0381168103610294576020926102b2926147d2565b34610294576000366003190112610294576020600c54604051908152f35b3461029457613d0f3661448a565b9060005260036020526040600020906000526020526020604060002054604051908152f35b34610294576020366003190112610294576001600160a01b03613d556144a0565b166000526001602052602060ff604060002054166040519015158152f35b346102945760203660031901126102945760043560005260076020526020604060002054604051908152f35b34610294576020366003190112610294576001600160a01b03613dc06144a0565b16600052600e6020526020604060002054604051908152f35b3461029457602036600319011261029457600435600052600d602052613e1161260e604060002054613e0c81151561476d565b614527565b8051602082015160409283015192519283926105a39260ff909216916001600160601b0316906001600160a01b0316846144e0565b34610294576000366003190112610294576020600654604051908152f35b3461029457613e723661450d565b9160005260086020526040600020906000526020526040600020805482101561029457604091613ea19161455c565b506001815491015482519182526020820152f35b3461029457613ec33661448a565b9060005260096020526040600020906000526020526020604060002054604051908152f35b3461029457602036600319011261029457600435600052600a6020526020604060002054604051908152f35b3461029457602036600319011261029457613e1161260e600435613e0c600c54821061476d565b3461029457602036600319011261029457613f546144a0565b6001600160a01b037f00000000000000000000000000000000000000000000000000000000000000008116330361028257811690613f93821515614739565b81600052600160205260ff6040600020541661400c578160005260016020526040600020600160ff1982541617905560025490600160401b82101561382e576107fc826001613fe594016002556146f9565b7fc395b1bd803c744a815bc34a0426e5eaac03513b9d76bf237a734a004916499c600080a2005b60405162461bcd60e51b815260206004820152600660248201526565786973747360d01b6044820152606490fd5b34610294576140483661448a565b906001600160a01b0380821633149081156140c6575b5015614070576020916102b291614a17565b60405162461bcd60e51b815260206004820152602860248201527f4f6e6c7920656e74697479206f722061646d696e2063616e20757365206c61726044820152670ceca40c4c2e8c6d60c31b6064820152608490fd5b90507f00000000000000000000000000000000000000000000000000000000000000001633148361405e565b3461029457600036600319011261029457602060ff600b54166040519015158152f35b34610294576000366003190112610294576040517f00000000000000000000000000000000000000000000000000000000000000006001600160a01b03168152602090f35b346102945760003660031901126102945760206040516000805160206161818339815191528152f35b346102945760003660031901126102945760405180600254808352602080930180916002600052846000209060005b868282106142115786866141c8828803836143d4565b604051928392818401908285525180915260408401929160005b8281106141f157505050500390f35b83516001600160a01b0316855286955093810193928101926001016141e2565b83546001600160a01b0316855290930192600192830192016141b2565b34610294576020366003190112610294576004356001600160401b0381116102945761427860206142656060933690600401614449565b8160405193828580945193849201614467565b81016004815203019020805490600260018201549101549060405192835260208301526040820152f35b34610294576040366003190112610294576004356001600160401b0381116102945760206142656142d7923690600401614449565b810160058152030190206024356000526020526040806000206001815491015482519182526020820152f35b61016081019081106001600160401b0382111761382e57604052565b604081019081106001600160401b0382111761382e57604052565b606081019081106001600160401b0382111761382e57604052565b60a081019081106001600160401b0382111761382e57604052565b6001600160401b03811161382e57604052565b60c081019081106001600160401b0382111761382e57604052565b608081019081106001600160401b0382111761382e57604052565b602081019081106001600160401b0382111761382e57604052565b601f909101601f19168101906001600160401b0382119082101761382e57604052565b6001600160401b03811161382e57601f01601f191660200190565b92919261441e826143f7565b9161442c60405193846143d4565b829481845281830111610294578281602093846000960137010152565b9080601f830112156102945781602061446493359101614412565b90565b60005b83811061447a5750506000910152565b818101518382015260200161446a565b6040906003190112610294576004359060243590565b600435906001600160a01b038216820361029457565b602435906001600160a01b038216820361029457565b35906001600160a01b038216820361029457565b6001600160a01b0390911681526001600160601b03909116602082015260ff909116604082015260600190565b606090600319011261029457600435906024359060443590565b600c5481101561454657600c60005260206000209060011b0190600090565b634e487b7160e01b600052603260045260246000fd5b80548210156145465760005260206000209060011b0190600090565b9181601f84011215610294578235916001600160401b038311610294576020808501948460051b01011161029457565b9181601f84011215610294578235916001600160401b038311610294576020838186019501011161029457565b6001600160401b03811161382e5760051b60200190565b81601f82011215610294578035906020614605836145d5565b93604061461560405196876143d4565b848652828601918360a080970286010194818611610294578401925b858410614642575050505050505090565b868483031261029457848791845161465981614355565b86358152828701358382015285870135868201526060808801359082015260808088013590820152815201930192614631565b9080601f830112156102945760209082356146a6816145d5565b936146b460405195866143d4565b81855260208086019260051b82010192831161029457602001905b8282106146dd575050505090565b813581529083019083016146cf565b3590811515820361029457565b60025481101561454657600260005260206000200190600090565b9060209161472d81518092818552858086019101614467565b601f01601f1916010190565b1561474057565b60405162461bcd60e51b815260206004820152600560248201526410b0b2323960d91b6044820152606490fd5b1561477457565b606460405162461bcd60e51b815260206004820152600460248201526321746f6b60e01b6044820152fd5b906040516147ac8161433a565b82546001600160a01b038116825260a01c602082015260019092015460ff166040830152565b916040519160ff602084019416845260018060a01b0316604083015260018060601b03166060820152606081526148088161439e565b51902090565b908060209392818452848401376000828201840152601f01601f1916010190565b5190811515820361029457565b9190820180921161055757565b9190826060910312610294576040516148618161433a565b604080829480358452602081013560208501520135910152565b60808091805184526020810151602085015260408101516040850152606081015160608501520151910152565b90815180825260208080930193019160005b8281106148c8575050505090565b8351855293810193928101926001016148ba565b600b54901515908160ff82161515146149295760ff191660ff821617600b556040519081527fb5838f871ddee4623a406029b1a0b6013e0ec30f2dc114307f21459a800a829690602090a1565b5050565b9190820391821161055757565b908082101561495e576040519160208301526040820152604081526144648161433a565b906040519160208301526040820152604081526144648161433a565b600c54600160401b81101561382e578060016149999201600c55614527565b6149e1578151602083015160a01b6001600160a01b0319166001600160a01b039190911617815560409190910151600191909101805460ff191660ff92909216919091179055565b634e487b7160e01b600052600060045260246000fd5b60001981146105575760010190565b906149e15760018160008093550155565b6000818152602090600882526040918282208583528152828220938454958615614cb357818452600983528484208185528352848420549787891015614caa575b828552600384528585208286528452858520549085988215614c845798995b89811080614c7b575b80614c70575b15614bfb57614a95818a61455c565b50600190818101918254918215614be557549282871015614bdf57865b8c8c8a8d84614b9f575b5050505050614acc83825461492d565b9280614b6a57508a90558301808411614b5657614b3a92886000805160206161418339815191526060614b4097958f958f968f978e988251948552840152820152a4868952600a8852898920805480614b49575b5050614b35614b2f828d61455c565b90614a06565b6149f7565b9a6149f7565b985b9899614a77565b6000190190553880614b20565b634e487b7160e01b8a52601160045260248afd5b859f94925060608994614b40978f848f8f979660008051602061614183398151915297558251948552840152820152a46149f7565b9282614bd496989c92614bce958b889652600381528383209183525220614bc783825461483c565b905561492d565b9761492d565b91388c8c8a8d614abc565b82614ab2565b50505050614bf5909a999a6149f7565b99614b42565b9398509850909295508684526003865284842083855286528484205585835260098552838320828452855283832055614c3481866155fe565b84825260088452828220818352845282822093845415614c6757614464958352600981528383209183525220549061573b565b50509250505090565b506103e88b10614a86565b50821515614a80565b50989297505091945085835260098552838320828452855283832055614c3481866155fe565b97508397614a58565b9280965080955052600981528284209184525281205590565b6000818152602090600882526040918282208583528152828220938454958615614cb357818452600983528484208185528352848420549787891015614e83575b828552600384528585208286528452858520549085988215614c845798995b89811080614e7a575b80614e70575b15614bfb57614d4a818a61455c565b50600190818101918254918215614e5a57549282871015614e5457865b8c8c8a8d84614e21575b5050505050614d8183825461492d565b9280614dec57508a90558301808411614b5657614b3a92886000805160206161418339815191526060614de397958f958f968f978e988251948552840152820152a4868952600a8852898920805480614b49575050614b35614b2f828d61455c565b985b9899614d2c565b859f94925060608994614de3978f848f8f979660008051602061614183398151915297558251948552840152820152a46149f7565b9282614e4996989c92614bce958b889652600381528383209183525220614bc783825461483c565b91388c8c8a8d614d71565b82614d67565b50505050614e6a909a999a6149f7565b99614de5565b5060648b10614d3b565b50821515614d35565b97508397614d0d565b6000818152602090600882526040918282208583528152828220938454958615614cb357818452600983528484208185528352848420549787891015615043575b828552600384528585208286528452858520549085988215614c845798995b8981108061503a575b80615030575b15614bfb57614f0a818a61455c565b5060019081810191825491821561501a5754928287101561501457865b8c8c8a8d84614fe1575b5050505050614f4183825461492d565b9280614fac57508a90558301808411614b5657614b3a92886000805160206161418339815191526060614fa397958f958f968f978e988251948552840152820152a4868952600a8852898920805480614b49575050614b35614b2f828d61455c565b985b9899614eec565b859f94925060608994614fa3978f848f8f979660008051602061614183398151915297558251948552840152820152a46149f7565b928261500996989c92614bce958b889652600381528383209183525220614bc783825461483c565b91388c8c8a8d614f31565b82614f27565b5050505061502a909a999a6149f7565b99614fa5565b5060648b10614efb565b50821515614ef5565b97508397614ecd565b6000818152602090600882526040918282208583528152828220938454958615614cb357818452600983528484208185528352848420549787891015615203575b828552600384528585208286528452858520549085988215614c845798995b898110806151fa575b806151f0575b15614bfb576150ca818a61455c565b506001908181019182549182156151da575492828710156151d457865b8c8c8a8d846151a1575b505050505061510183825461492d565b928061516c57508a90558301808411614b5657614b3a9288600080516020616141833981519152606061516397958f958f968f978e988251948552840152820152a4868952600a8852898920805480614b49575050614b35614b2f828d61455c565b985b98996150ac565b859f94925060608994615163978f848f8f979660008051602061614183398151915297558251948552840152820152a46149f7565b92826151c996989c92614bce958b889652600381528383209183525220614bc783825461483c565b91388c8c8a8d6150f1565b826150e7565b505050506151ea909a999a6149f7565b99615165565b5060648b106150bb565b508215156150b5565b9750839761508d565b90615216826145d5565b61522360405191826143d4565b8281528092615234601f19916145d5565b0190602036910137565b8051156145465760200190565b80518210156145465760209160051b010190565b929060c0949260018060a01b0380921685521660208401526040830152606082015260a06080820152600060a08201520190565b6001600160a01b03918216815291166020820152604081019190915260600190565b805160009190806155f8575033905b60a081019081511561045d57606081019360ff85511692816020809581860160018060a01b03918282511660409b89608061530f8f809d019560018060601b039586885116916147d2565b91019d8e5180156000146155cd575050808852600d87528a882054808f5215615557575b5060ff905b5116806154275750505090615368915116845187519485809481936323b872dd60e01b8352303360048501615293565b03925af190811561541d5783916153e4575b50156153d35791809160008051602061616183398151915294935b51868252600385528282208851835285526153b483832091825461483c565b90558651968682526003855282822090518252845220549051908152a3565b8251632fd8225d60e21b8152600490fd5b90508481813d8311615416575b6153fb81836143d4565b810103126154125761540c9061482f565b3861537a565b8280fd5b503d6153f1565b84513d85823e3d90fd5b9195509350600181036154ae57505116915116813b156154aa576154658492839287519485809481936323b872dd60e01b8352303360048501615293565b03925af1801561541d57615492575b50918091836001600080516020616161833981519152969552615395565b61549c8391614370565b6154a65738615474565b5080fd5b8380fd5b94979695946002146154d6575b50505050819060008051602061616183398151915294615395565b96949596511691511690835191813b156154aa5791839161550f93838851809681958294637921219560e11b845230336004860161525f565b03925af1801561554d579184939160008051602061616183398151915296959361553e575b82968294506154bb565b61554790614370565b38615534565b84513d84823e3d90fd5b919395509193955061558b868651168486511660ff855116908c519261557c8461433a565b83528d8301528b82015261497a565b600c546000198101919082116155b957818d528852600d8a52888820558694899490939092909160ff615333565b634e487b7160e01b89526011600452602489fd5b60ff939250906155e061260e8593614527565b888151168852858a8201511687520151168152615338565b906152c4565b90600082815260209160088352604090818320818452845281832094855480156157245781855260098652838520838652865283852054968188101561571b575b965b81811080615705575b1561565d57615658906149f7565b615641565b919293949596508110156000146156f15750808452600985528284208285528552838381205583526008845281832090835283528120805492828255836156a5575b50505050565b6001916001600160ff1b03851685036156dd57835282209260011b8301925b8381101561569f578083600292558383820155016156c4565b634e487b7160e01b84526011600452602484fd5b908452600985528284209184529352902055565b506001615712828a61455c565b5001541561564a565b9650849661563f565b508352600984528183209083529092529081205550565b919060009280549182811015615788575b82811061575857505050565b6001615764828461455c565b500154615774575b60010161574c565b936157806001916149f7565b94905061576c565b50600093505050565b929190926000938185526020906009825260409586812085825283528681205492848252600881528782208683528152878220918254945b8581106157e3575050505050506157e19293506155fe565b565b80856157f08c938761455c565b505414806158b0575b615808575b60019150016157c9565b888689615815848961455c565b508660018092015491615828878c61455c565b500155818752600a8852858720805480158015615869575b505050856000805160206161a18339815191529160019751908152868a820152a48a91506157fe565b93509350935093945061589c576000190190558a9190899087908a90856000805160206161a18339815191526001615840565b634e487b7160e01b85526011600452602485fd5b5060016158bd828761455c565b50015415156157f9565b906020908183528051916158e760609360608387015260808601906148a8565b9181810151601f19906159066040958692848a830301848b01526148a8565b92015195606082828503019101528551938483528383019184808760051b8601019801966000916000955b888710615945575050505050505050505090565b9091929394959697989982828203018752888b5160018060a01b0381511683528761597b83830151888587015288860190614714565b910151928881830391015281808451928381520193019087905b878183106159b95750505050806001929c0197019701959897969493929190615931565b83958b6001949693955180518352848101518584015201518c82015201940192018b9291615995565b9190916000838201938412911290801582169115161761055757565b6104805280516020820151615a16826104805161504c565b5060005b6040840180518051831015615de557615a4283615a398160209461524b565b5151935161524b565b51015190615a50818561493a565b6104805160005260039283602052604060002087600052602052806040600020541015600014615dd8576020615a8f6040519384815193849201614467565b820191602081600594858152030190208760005260205260406000209361048051600052806020526040600020886000526020526040600020615ad383825461492d565b9055615ae082865461483c565b938486558088109283615dc1575b508215615dba5787925b15615daf57909492945b60405194615b0f8661431f565b6001865260005b60208110615d6f5750836000528160205260406000208a600052602052604060002054918360005260205260406000208a60005260205260016040600020549501549460405192615b6684614355565b8b845260208401526040830152606082015260809384820152615b888561523e565b52615b928461523e565b5060405193615ba08561431f565b6001855260005b60208110615d365750615bbf6020614265848661493a565b81016004815203019020549160405193615bd88561439e565b8452602084015260408301526060820152615bf28361523e565b52615bfc8261523e565b5060405192602084016020855283518091526020604082818801941b87010194019260005b828110615c61575050505050917f784575545124eef27f8fcc1472fb5f2483beb9cc23e6fe3dbf588eb7bd501f7c826001936040950390a1019050615a1a565b9091929394603f1987820301855285516020848301825184528183015182850152604083015190866040860152806104605281516104c0526104c051905260a0840161046052016104a05260005b6104c0518110615cda5750606090810151910152610460519460209081019401929190600101615c21565b600190856104a051518051610460515260208101516020610460510152604081015160406104605101526060810151606061046051015201518661046051015260a061046051016104605260206104a051016104a05201615caf565b602090604097959751615d488161439e565b60008152600083820152606060408201526000606082015282828901015201959395615ba7565b602090604098969851615d8181614355565b6000815260008382015260006040820152600060608201526000608082015282828a01015201969496615b16565b508690949294615b02565b8092615af8565b615dd0600188019182546159e2565b905538615aee565b5050505050505050600090565b505050505050600190565b60209081818403126102945780516001600160401b039182821161029457019083601f83011215610294578151615e26816145d5565b94604092615e3760405197886143d4565b828752858088019360051b8601019482861161029457868101935b868510615e6457505050505050505090565b84518381116102945782019084603f83011215610294578882015190615e89826143f7565b615e95895191826143d4565b8281528689848601011161029457615eb68b949385948b8685019101614467565b815201940193615e52565b600160ff1b81146105575760000390565b90918015615f2a576020604060008051602061616183398151915292600090858252600384528282208783528452615f0e83832091825461483c565b90558481526003835281812086825283522054604051908152a3565b505050565b90939293841561613957600094828652602060038152615f7a604092838920878a52835283892054818110156000146161335750805b87878b8688866160d8575b505050505061492d565b9081158015615f8f575b505050505050509050565b84156160c7576160b657848852600881528288208689528152828820835190615fb78261431f565b85825282820184815281549091600160401b8210156160a25790615fe09160018201815561455c565b92909261608e5751825551600190910155848852600881528288208689528152828820546000198101919082116155b95792859282889695836160689b9c7fae767eeb0c57abd46e2e0b422895ba3b89372fbd0510a58f00d996faf66f027d9615616075575b878152600a83522061605881546149f7565b90558351928352820152a46155fe565b8038808080808080615f84565b878152600983528181208a825283528082812055616046565b634e487b7160e01b8b5260048b905260248bfd5b634e487b7160e01b8c52604160045260248cfd5b825163440a57bf60e01b8152600490fd5b8351633485c51360e21b8152600490fd5b8284600080516020616161833981519152945260038352818120868252835281812061610589825461492d565b905584815260038352818120868252835220548951908152a3616129828988615ed2565b87878b8688615f70565b90615f65565b505050905056fe1ffe8e6348fe244a8988797c02b57999821149e7b25c9f93a85c77819efdde67ab4d21442efe134c3d0c087e2b687e9593a1c09176f498d37873210cde052c45990f4c22d4b046a9a7d673c4a252b906cadd4f3290465e297f998c28a449652b0971ac81b80f99fe0089c3fbe4af4fa1148f2ce78bc6345e76b05be73500de1fa264697066735822122008292f4787189c86e00cc790ac30c12ddcbc1395cf726d6a1ee2d21ad818105064736f6c63430008180033",
  "linkReferences": {
    "contracts/Account.sol": {
      "Account": [
        {
          "length": 20,
          "start": 3459
        },
        {
          "length": 20,
          "start": 6392
        },
        {
          "length": 20,
          "start": 7202
        },
        {
          "length": 20,
          "start": 9577
        },
        {
          "length": 20,
          "start": 9898
        },
        {
          "length": 20,
          "start": 11452
        },
        {
          "length": 20,
          "start": 11791
        }
      ]
    }
  },
  "deployedLinkReferences": {
    "contracts/Account.sol": {
      "Account": [
        {
          "length": 20,
          "start": 2832
        },
        {
          "length": 20,
          "start": 5765
        },
        {
          "length": 20,
          "start": 6575
        },
        {
          "length": 20,
          "start": 8950
        },
        {
          "length": 20,
          "start": 9271
        },
        {
          "length": 20,
          "start": 10825
        },
        {
          "length": 20,
          "start": 11164
        }
      ]
    }
  }
}