{
  "_format": "hh-sol-artifact-1",
  "contractName": "DepositoryV1",
  "sourceName": "contracts/DepositoryV1.sol",
  "abi": [
    {
      "inputs": [],
      "stateMutability": "nonpayable",
      "type": "constructor"
    },
    {
      "anonymous": false,
      "inputs": [
        {
          "indexed": true,
          "internalType": "bytes32",
          "name": "from",
          "type": "bytes32"
        },
        {
          "indexed": true,
          "internalType": "bytes32",
          "name": "to",
          "type": "bytes32"
        },
        {
          "indexed": true,
          "internalType": "uint256",
          "name": "tokenId",
          "type": "uint256"
        },
        {
          "indexed": false,
          "internalType": "uint256",
          "name": "amount",
          "type": "uint256"
        }
      ],
      "name": "ReserveTransferred",
      "type": "event"
    },
    {
      "anonymous": false,
      "inputs": [
        {
          "indexed": true,
          "internalType": "bytes32",
          "name": "entity",
          "type": "bytes32"
        },
        {
          "indexed": true,
          "internalType": "uint256",
          "name": "tokenId",
          "type": "uint256"
        },
        {
          "indexed": false,
          "internalType": "uint256",
          "name": "newBalance",
          "type": "uint256"
        }
      ],
      "name": "ReserveUpdated",
      "type": "event"
    },
    {
      "anonymous": false,
      "inputs": [
        {
          "indexed": true,
          "internalType": "bytes32",
          "name": "leftEntity",
          "type": "bytes32"
        },
        {
          "indexed": true,
          "internalType": "bytes32",
          "name": "rightEntity",
          "type": "bytes32"
        },
        {
          "indexed": true,
          "internalType": "uint256",
          "name": "tokenId",
          "type": "uint256"
        },
        {
          "indexed": false,
          "internalType": "uint256",
          "name": "leftReserve",
          "type": "uint256"
        },
        {
          "indexed": false,
          "internalType": "uint256",
          "name": "rightReserve",
          "type": "uint256"
        },
        {
          "indexed": false,
          "internalType": "uint256",
          "name": "collateral",
          "type": "uint256"
        },
        {
          "indexed": false,
          "internalType": "int256",
          "name": "ondelta",
          "type": "int256"
        }
      ],
      "name": "SettlementProcessed",
      "type": "event"
    },
    {
      "inputs": [
        {
          "internalType": "bytes",
          "name": "",
          "type": "bytes"
        },
        {
          "internalType": "uint256",
          "name": "",
          "type": "uint256"
        }
      ],
      "name": "_collaterals",
      "outputs": [
        {
          "internalType": "uint256",
          "name": "collateral",
          "type": "uint256"
        },
        {
          "internalType": "int256",
          "name": "ondelta",
          "type": "int256"
        }
      ],
      "stateMutability": "view",
      "type": "function"
    },
    {
      "inputs": [
        {
          "internalType": "bytes32",
          "name": "",
          "type": "bytes32"
        },
        {
          "internalType": "uint256",
          "name": "",
          "type": "uint256"
        }
      ],
      "name": "_reserves",
      "outputs": [
        {
          "internalType": "uint256",
          "name": "",
          "type": "uint256"
        }
      ],
      "stateMutability": "view",
      "type": "function"
    },
    {
      "inputs": [
        {
          "internalType": "uint256",
          "name": "",
          "type": "uint256"
        }
      ],
      "name": "_tokens",
      "outputs": [
        {
          "internalType": "bytes32",
          "name": "",
          "type": "bytes32"
        }
      ],
      "stateMutability": "view",
      "type": "function"
    },
    {
      "inputs": [],
      "name": "debugBulkFundEntities",
      "outputs": [],
      "stateMutability": "nonpayable",
      "type": "function"
    },
    {
      "inputs": [
        {
          "internalType": "bytes32",
          "name": "entity",
          "type": "bytes32"
        },
        {
          "internalType": "uint256",
          "name": "tokenId",
          "type": "uint256"
        },
        {
          "internalType": "uint256",
          "name": "amount",
          "type": "uint256"
        }
      ],
      "name": "debugFundReserves",
      "outputs": [],
      "stateMutability": "nonpayable",
      "type": "function"
    },
    {
      "inputs": [
        {
          "internalType": "bytes32",
          "name": "leftEntity",
          "type": "bytes32"
        },
        {
          "internalType": "bytes32",
          "name": "rightEntity",
          "type": "bytes32"
        },
        {
          "internalType": "uint256",
          "name": "tokenId",
          "type": "uint256"
        }
      ],
      "name": "getCollateral",
      "outputs": [
        {
          "internalType": "uint256",
          "name": "collateral",
          "type": "uint256"
        },
        {
          "internalType": "int256",
          "name": "ondelta",
          "type": "int256"
        }
      ],
      "stateMutability": "view",
      "type": "function"
    },
    {
      "inputs": [],
      "name": "getTokensLength",
      "outputs": [
        {
          "internalType": "uint256",
          "name": "",
          "type": "uint256"
        }
      ],
      "stateMutability": "view",
      "type": "function"
    },
    {
      "inputs": [
        {
          "internalType": "bytes32",
          "name": "counterpartyEntity",
          "type": "bytes32"
        },
        {
          "internalType": "uint256",
          "name": "tokenId",
          "type": "uint256"
        },
        {
          "internalType": "uint256",
          "name": "amount",
          "type": "uint256"
        }
      ],
      "name": "prefundAccount",
      "outputs": [
        {
          "internalType": "bool",
          "name": "",
          "type": "bool"
        }
      ],
      "stateMutability": "nonpayable",
      "type": "function"
    },
    {
      "inputs": [
        {
          "internalType": "bytes32",
          "name": "entity",
          "type": "bytes32"
        },
        {
          "components": [
            {
              "components": [
                {
                  "internalType": "bytes32",
                  "name": "receivingEntity",
                  "type": "bytes32"
                },
                {
                  "internalType": "uint256",
                  "name": "tokenId",
                  "type": "uint256"
                },
                {
                  "internalType": "uint256",
                  "name": "amount",
                  "type": "uint256"
                }
              ],
              "internalType": "struct DepositoryV1.ReserveToReserve[]",
              "name": "reserveToReserve",
              "type": "tuple[]"
            },
            {
              "components": [
                {
                  "internalType": "bytes32",
                  "name": "leftEntity",
                  "type": "bytes32"
                },
                {
                  "internalType": "bytes32",
                  "name": "rightEntity",
                  "type": "bytes32"
                },
                {
                  "components": [
                    {
                      "internalType": "uint256",
                      "name": "tokenId",
                      "type": "uint256"
                    },
                    {
                      "internalType": "int256",
                      "name": "leftDiff",
                      "type": "int256"
                    },
                    {
                      "internalType": "int256",
                      "name": "rightDiff",
                      "type": "int256"
                    },
                    {
                      "internalType": "int256",
                      "name": "collateralDiff",
                      "type": "int256"
                    },
                    {
                      "internalType": "int256",
                      "name": "ondeltaDiff",
                      "type": "int256"
                    }
                  ],
                  "internalType": "struct DepositoryV1.SettlementDiff[]",
                  "name": "diffs",
                  "type": "tuple[]"
                }
              ],
              "internalType": "struct DepositoryV1.Settlement[]",
              "name": "settlements",
              "type": "tuple[]"
            }
          ],
          "internalType": "struct DepositoryV1.Batch",
          "name": "batch",
          "type": "tuple"
        }
      ],
      "name": "processBatch",
      "outputs": [
        {
          "internalType": "bool",
          "name": "completeSuccess",
          "type": "bool"
        }
      ],
      "stateMutability": "nonpayable",
      "type": "function"
    },
    {
      "inputs": [
        {
          "internalType": "bytes32",
          "name": "fromEntity",
          "type": "bytes32"
        },
        {
          "internalType": "bytes32",
          "name": "toEntity",
          "type": "bytes32"
        },
        {
          "internalType": "uint256",
          "name": "tokenId",
          "type": "uint256"
        },
        {
          "internalType": "uint256",
          "name": "amount",
          "type": "uint256"
        }
      ],
      "name": "reserveToReserve",
      "outputs": [
        {
          "internalType": "bool",
          "name": "",
          "type": "bool"
        }
      ],
      "stateMutability": "nonpayable",
      "type": "function"
    },
    {
      "inputs": [
        {
          "internalType": "bytes32",
          "name": "leftEntity",
          "type": "bytes32"
        },
        {
          "internalType": "bytes32",
          "name": "rightEntity",
          "type": "bytes32"
        },
        {
          "components": [
            {
              "internalType": "uint256",
              "name": "tokenId",
              "type": "uint256"
            },
            {
              "internalType": "int256",
              "name": "leftDiff",
              "type": "int256"
            },
            {
              "internalType": "int256",
              "name": "rightDiff",
              "type": "int256"
            },
            {
              "internalType": "int256",
              "name": "collateralDiff",
              "type": "int256"
            },
            {
              "internalType": "int256",
              "name": "ondeltaDiff",
              "type": "int256"
            }
          ],
          "internalType": "struct DepositoryV1.SettlementDiff[]",
          "name": "diffs",
          "type": "tuple[]"
        }
      ],
      "name": "settle",
      "outputs": [
        {
          "internalType": "bool",
          "name": "",
          "type": "bool"
        }
      ],
      "stateMutability": "nonpayable",
      "type": "function"
    },
    {
      "inputs": [
        {
          "internalType": "bytes32",
          "name": "",
          "type": "bytes32"
        }
      ],
      "name": "tokenToId",
      "outputs": [
        {
          "internalType": "uint256",
          "name": "",
          "type": "uint256"
        }
      ],
      "stateMutability": "view",
      "type": "function"
    }
  ],
  "bytecode": "0x6080604081815234620001eb57600280549068010000000000000000821015620001d5576001906001830180600255831015620001bf57620000a9600095600287528660209586822001556200005581620001f0565b603f81527f646562756742756c6b46756e64456e7469746965733a2066756e64696e672065858201527f6e74697469657320312d3530302077697468205553444320616e6420455448008682015262000256565b60015b6101f481111562000116578462000108857f646562756742756c6b46756e64456e7469746965733a2066756e64696e672063835191620000ec83620001f0565b60278352820152666f6d706c65746560c81b8382015262000256565b516116ee9081620002de8239f35b825b828111156200013357506200012d9062000230565b620000ac565b818752868552858720818852855285872080549068056bc75e2d631000008201809211620001ab5790620001a5929155828852878652868820818952865280837fab4d21442efe134c3d0c087e2b687e9593a1c09176f498d37873210cde052c45888a8c20548b51908152a362000230565b62000118565b634e487b7160e01b89526011600452602489fd5b634e487b7160e01b600052603260045260246000fd5b634e487b7160e01b600052604160045260246000fd5b600080fd5b606081019081106001600160401b03821117620001d557604052565b601f909101601f19168101906001600160401b03821190821017620001d557604052565b6000198114620002405760010190565b634e487b7160e01b600052601160045260246000fd5b604051602091602082019263104c13eb60e21b84526020602484015281519182604485015260005b838110620002c8575050509181620002b56064828660008381998299010152601f801991011681010360448101845201826200020c565b51906a636f6e736f6c652e6c6f675afa50565b8181018301518582016064015282016200027e56fe6080604081815260048036101561001557600080fd5b600092833560e01c9081630dedd62414610aad5750806322c21577146107ff57806329ac1c4c1461066b5780633925cd441461063f5780635fed7882146105695780635ffefe5b146103ae578063a850930a146101c1578063acd6f20814610192578063b0c26ecf1461016f578063b9e94dd51461011e578063d19fd92e146100f75763ed70554d146100a757600080fd5b346100f35760203660031901126100f357356002548110156100f3576002602093527f405787fa12a823e0f2b7631cc41b3ba8828b3321ca811111fa75cd3aa3bb5ace01549051908152f35b8280fd5b50346100f35760203660031901126100f35760209282913581526003845220549051908152f35b50913461016c57606036600319011261016c576044359067ffffffffffffffff821161016c57506020926101586101639236908301610c28565b906024359035611077565b90519015158152f35b80fd5b50503461018e578160031936011261018e576020906002549051908152f35b5080fd5b50346100f357816003193601126100f35760209282913581528084528181206024358252845220549051908152f35b5090346100f3576003199181833601126103aa578035906024916024359267ffffffffffffffff958685116103a657858585019186360301126103a65785519461020a86610ba8565b601a865261023e6020967f3d3d3d2070726f63657373426174636820454e545259203d3d3d000000000000888201526115b7565b61024784611636565b600197895b6102568480610fc2565b90508110156102da576102698480610fc2565b8210156102c8576060908183020190813603126102c45789896102ae92825161029181610b76565b838235928383528481013580958401520135938491015289610d6e565b156102bc575b60010161024c565b8a99506102b4565b8b80fd5b858c60328a634e487b7160e01b835252fd5b5094935060240190885b6102ee8383610ff8565b905081101561039b576103018383610ff8565b821015610389578160051b81013590605e19813603018212156102c4570160608136031261038557885161033481610b76565b813581528881018983013581528a8301358981116103815761036b9361035c91369101610c28565b91828c82015251905190611077565b15610379575b6001016102e4565b899850610371565b8d80fd5b8a80fd5b848b603288634e487b7160e01b835252fd5b868989519015158152f35b8780fd5b8380fd5b50503461018e57610566906103c236610c09565b90918351916103d083610b76565b602183526104296020937f646562756746756e6452657365727665733a2066756e64696e6720656e746974858201527f7900000000000000000000000000000000000000000000000000000000000000878201526115b7565b61043282611636565b61046e855161044081610ba8565b601a81527f646562756746756e6452657365727665733a20746f6b656e4964000000000000858201526115b7565b61047784611677565b6104b3855161048581610ba8565b601981527f646562756746756e6452657365727665733a20616d6f756e7400000000000000858201526115b7565b6104bc81611677565b81875286835284872084885283526104d8858820918254610d19565b9055808652858252838620838752825282817fab4d21442efe134c3d0c087e2b687e9593a1c09176f498d37873210cde052c4584878a20548851908152a3610552845161052481610ba8565b601e81527f646562756746756e6452657365727665733a206e65772062616c616e63650000848201526115b7565b855284815282852091855252822054611677565b80f35b50823461016c57606036600319011261016c5781359160243590818410156105fc5750906105d784928351946020958692838201928352868201528581526105b081610b76565b51902084518281019182528281526105c781610ba8565b8551938492839251928391610be6565b8101600181520301902060443582528352209060018254920154908351928352820152f35b606490602086519162461bcd60e51b8352820152601960248201527f456e746974696573206d75737420626520696e206f72646572000000000000006044820152fd5b50913461016c57608036600319011261016c575061016360209260643590604435906024359035610d6e565b5090346100f357826003193601126100f35780519161068983610b76565b603f83526106e26020937f646562756742756c6b46756e64456e7469746965733a2066756e64696e672065858201527f6e74697469657320312d3530302077697468205553444320616e642045544800848201526115b7565b60015b6101f48111156107525784610566857f6f6d706c65746500000000000000000000000000000000000000000000000000867f646562756742756c6b46756e64456e7469746965733a2066756e64696e67206381519361074385610b76565b602785528401528201526115b7565b60015b600281111561076d575061076890610d5f565b6106e5565b8186949295939652838352818420818552835281842080549068056bc75e2d6310000082018092116107ec57906107e1929155858552848452828520818652845280867fab4d21442efe134c3d0c087e2b687e9593a1c09176f498d37873210cde052c4586868920548751908152a3610d5f565b949193909294610755565b60248660118a634e487b7160e01b835252fd5b50913461016c5761080f36610c09565b92823314610a6a5782331080600014610a635733905b15610a5c5783915b86519760209889810190848252858a82015289815261084b81610b76565b519020908851908a82019283528a825261086482610ba8565b338452838b528984208785528b52888a852054106109f557506109ee979694926108de8b6109d99896947f36a23558c84aea8a6a7bbadf50a454e47507746fa69bf7cf58db85d9bdf063d8943385528483528d852089865283528d85206108cc8d8254610cf6565b90558d51938492839251928391610be6565b810160018152030190208582528b528a6109508b83209260018d6109038d8754610d19565b928387558881528086528181208b8252865281812054958a8252818152828220908c8352522054940154908d51948594859094939260609260808301968352602083015260408201520152565b0390a461098f855161096181610ba8565b601281527f4163636f756e742070726566756e6465643a0000000000000000000000000000888201526115b7565b61099833611636565b6109d485516109a681610ba8565b601481527f66756e646564206163636f756e7420776974683a000000000000000000000000888201526115b7565b611636565b6109e96109e4610d26565b6115b7565b611677565b5160018152f35b6084908b8b519162461bcd60e51b83528201526024808201527f496e73756666696369656e7420726573657276657320666f722070726566756e60448201527f64696e67000000000000000000000000000000000000000000000000000000006064820152fd5b339161082d565b8390610825565b606486602087519162461bcd60e51b8352820152602060248201527f43616e6e6f742070726566756e64206163636f756e7420776974682073656c666044820152fd5b8491503461018e578360031936011261018e5782359067ffffffffffffffff938483116103aa57366023840112156103aa5782810135948511610b635750602093610b01601f8201601f1916860183610bc4565b808252848201923660248383010111610b5f5792610b3a92858784819560248c9a99018637830101528551938492839251928391610be6565b8101600181520301902060243582528352209060018254920154908351928352820152f35b8480fd5b836041602492634e487b7160e01b835252fd5b6060810190811067ffffffffffffffff821117610b9257604052565b634e487b7160e01b600052604160045260246000fd5b6040810190811067ffffffffffffffff821117610b9257604052565b90601f8019910116810190811067ffffffffffffffff821117610b9257604052565b60005b838110610bf95750506000910152565b8181015183820152602001610be9565b6060906003190112610c2357600435906024359060443590565b600080fd5b81601f82011215610c2357803590602067ffffffffffffffff93848411610b925760409460405195610c5f848760051b0188610bc4565b858752838701928460a080980287010195818711610c23578501935b868510610c8d57505050505050505090565b8785830312610c23578251908882019082821086831117610ce15789928892865287358152828801358382015285880135868201526060808901359082015260808089013590820152815201940193610c7b565b60246000634e487b7160e01b81526041600452fd5b91908203918211610d0357565b634e487b7160e01b600052601160045260246000fd5b91908201809211610d0357565b60405190610d3382610ba8565b600782527f616d6f756e743a000000000000000000000000000000000000000000000000006020830152565b6000198114610d035760010190565b9190808314610f7e576000928084526020948486526040948581208582528752818682205410610f3b57917fae4812ebb7c47ac957e097b649541f0cd55d34b3576fb0db5739591d6f68436787859387899783808a7f3d3d3d20523252205452414e5346455220434f4d504c455445203d3d3d0000009c9a610f369f9e610e279051610df981610ba8565b601b81527f3d3d3d2044495245435420523252205452414e53464552203d3d3d0000000000858201526115b7565b610e308a611636565b610e6c8251610e3e81610ba8565b600281527f746f000000000000000000000000000000000000000000000000000000000000858201526115b7565b610e7585611636565b610e806109e4610d26565b610e8987611677565b8981528083528181208682528352818120610ea5888254610cf6565b90558481528083528181208682528352818120610ec3888254610d19565b90558981528083528181208682528352858a8383205484519081527fab4d21442efe134c3d0c087e2b687e9593a1c09176f498d37873210cde052c45968791a3848152808352818120868252835220548b51908152a38651908152a45191610f2a83610ba8565b601d83528201526115b7565b600190565b60648787519062461bcd60e51b82526004820152601560248201527f496e73756666696369656e7420726573657276657300000000000000000000006044820152fd5b606460405162461bcd60e51b815260206004820152601760248201527f43616e6e6f74207472616e7366657220746f2073656c660000000000000000006044820152fd5b903590601e1981360301821215610c23570180359067ffffffffffffffff8211610c2357602001916060820236038313610c2357565b903590601e1981360301821215610c23570180359067ffffffffffffffff8211610c2357602001918160051b36038313610c2357565b91909160008382019384129112908015821691151617610d0357565b7f80000000000000000000000000000000000000000000000000000000000000008114610d035760000390565b9092919280821461157357808210156115095760409182516020908181019083825284868201528581526110aa81610b76565b5190208451968288019182528288526110c288610ba8565b60005b81518110156114fc57838160051b830101518051908581019081516110ef8b83019182519061102e565b92611100606084019485519061102e565b6114b9578051600081121561147f575089600052600089528b6000208560005289528b60002054611131825161104a565b1161141657611140905161104a565b89600052600089528b6000208560005289526111618c600020918254610cf6565b90555b8a8151600081126000146113d957505089600052600088528a6000208460005288528a60002054611195825161104a565b1161137057906111a78b93925161104a565b8a60005260008952836000208560005289526111c884600020918254610cf6565b90555b8251918d516111db81858b610be6565b8301928981600195868152030190208560005289528a8a8a8660002096845160008112600014611317575050505050835490611217815161104a565b82106112d45793896112cb8d958f6112778f976080906112677f36a23558c84aea8a6a7bbadf50a454e47507746fa69bf7cf58db85d9bdf063d89960019f9e9d611261905161104a565b90610cf6565b88555b015192860192835461102e565b80925586600052600084528060002089600052845260008181205494898252528d81600020908a60005252806000205494549051948594859094939260609260808301968352602083015260408201520152565b0390a4016110c5565b60648a8e519062461bcd60e51b82526004820152601760248201527f496e73756666696369656e7420636f6c6c61746572616c0000000000000000006044820152fd5b7f36a23558c84aea8a6a7bbadf50a454e47507746fa69bf7cf58db85d9bdf063d895509061127760806112cb94959884600060019f9e9d999c961361135d575b5061126a565b611368908954610d19565b885538611357565b6084888c519062461bcd60e51b82526004820152602260248201527f526967687420656e7469747920696e73756666696369656e742072657365727660448201527f65730000000000000000000000000000000000000000000000000000000000006064820152fd5b9093929150600081136113ed575b506111cb565b8a600052600089528360002085600052895261140e84600020918254610d19565b9055386113e7565b6084898d519062461bcd60e51b82526004820152602160248201527f4c65667420656e7469747920696e73756666696369656e74207265736572766560448201527f73000000000000000000000000000000000000000000000000000000000000006064820152fd5b905060008113611490575b50611164565b89600052600089528b6000208560005289526114b18c600020918254610d19565b90553861148a565b6064898d519062461bcd60e51b82526004820152601760248201527f536574746c656d656e74206d7573742062616c616e63650000000000000000006044820152fd5b5060019750505050505050565b608460405162461bcd60e51b815260206004820152602860248201527f456e746974696573206d75737420626520696e206f7264657220286c6566742060448201527f3c207269676874290000000000000000000000000000000000000000000000006064820152fd5b606460405162461bcd60e51b815260206004820152601760248201527f43616e6e6f7420736574746c6520776974682073656c660000000000000000006044820152fd5b6000809160405161162360648260208101947f41304fac0000000000000000000000000000000000000000000000000000000086526020602483015261160c8151809281604486015260208686019101610be6565b601f80199101168101036044810184520182610bc4565b51906a636f6e736f6c652e6c6f675afa50565b6000809160405160208101917f27b7cf8500000000000000000000000000000000000000000000000000000000835260248201526024815261162381610b76565b6000809160405160208101917ff82c50f100000000000000000000000000000000000000000000000000000000835260248201526024815261162381610b7656fea2646970667358221220dc60b4d5479404c320842aceddda1f5f1c96551e1900b5a48a717a710a015d6d64736f6c63430008180033",
  "linkReferences": {},
  "deployedLinkReferences": {}
}