{
  "_format": "hh-sol-artifact-1",
  "contractName": "Depository",
  "sourceName": "contracts/Depository.sol",
  "abi": [
    {
      "inputs": [],
      "stateMutability": "nonpayable",
      "type": "constructor"
    },
    {
      "inputs": [],
      "name": "E0",
      "type": "error"
    },
    {
      "inputs": [],
      "name": "E1",
      "type": "error"
    },
    {
      "inputs": [],
      "name": "E2",
      "type": "error"
    },
    {
      "inputs": [],
      "name": "E3",
      "type": "error"
    },
    {
      "inputs": [],
      "name": "E4",
      "type": "error"
    },
    {
      "inputs": [],
      "name": "E5",
      "type": "error"
    },
    {
      "inputs": [],
      "name": "E6",
      "type": "error"
    },
    {
      "inputs": [],
      "name": "E7",
      "type": "error"
    },
    {
      "inputs": [],
      "name": "E8",
      "type": "error"
    },
    {
      "inputs": [],
      "name": "E9",
      "type": "error"
    },
    {
      "anonymous": false,
      "inputs": [
        {
          "components": [
            {
              "internalType": "bytes32",
              "name": "left",
              "type": "bytes32"
            },
            {
              "internalType": "bytes32",
              "name": "right",
              "type": "bytes32"
            },
            {
              "internalType": "uint256",
              "name": "tokenId",
              "type": "uint256"
            },
            {
              "internalType": "uint256",
              "name": "leftReserve",
              "type": "uint256"
            },
            {
              "internalType": "uint256",
              "name": "rightReserve",
              "type": "uint256"
            },
            {
              "internalType": "uint256",
              "name": "collateral",
              "type": "uint256"
            },
            {
              "internalType": "int256",
              "name": "ondelta",
              "type": "int256"
            }
          ],
          "indexed": false,
          "internalType": "struct Settled[]",
          "name": "",
          "type": "tuple[]"
        }
      ],
      "name": "AccountSettled",
      "type": "event"
    },
    {
      "anonymous": false,
      "inputs": [
        {
          "indexed": true,
          "internalType": "bytes32",
          "name": "sender",
          "type": "bytes32"
        },
        {
          "indexed": true,
          "internalType": "bytes32",
          "name": "counterentity",
          "type": "bytes32"
        },
        {
          "indexed": true,
          "internalType": "uint256",
          "name": "cooperativeNonce",
          "type": "uint256"
        }
      ],
      "name": "CooperativeClose",
      "type": "event"
    },
    {
      "anonymous": false,
      "inputs": [
        {
          "indexed": true,
          "internalType": "bytes32",
          "name": "debtor",
          "type": "bytes32"
        },
        {
          "indexed": true,
          "internalType": "bytes32",
          "name": "creditor",
          "type": "bytes32"
        },
        {
          "indexed": true,
          "internalType": "uint256",
          "name": "tokenId",
          "type": "uint256"
        },
        {
          "indexed": false,
          "internalType": "uint256",
          "name": "amount",
          "type": "uint256"
        },
        {
          "indexed": false,
          "internalType": "uint256",
          "name": "debtIndex",
          "type": "uint256"
        }
      ],
      "name": "DebtCreated",
      "type": "event"
    },
    {
      "anonymous": false,
      "inputs": [
        {
          "indexed": true,
          "internalType": "bytes32",
          "name": "debtor",
          "type": "bytes32"
        },
        {
          "indexed": true,
          "internalType": "bytes32",
          "name": "creditor",
          "type": "bytes32"
        },
        {
          "indexed": true,
          "internalType": "uint256",
          "name": "tokenId",
          "type": "uint256"
        },
        {
          "indexed": false,
          "internalType": "uint256",
          "name": "amountPaid",
          "type": "uint256"
        },
        {
          "indexed": false,
          "internalType": "uint256",
          "name": "remainingAmount",
          "type": "uint256"
        },
        {
          "indexed": false,
          "internalType": "uint256",
          "name": "newDebtIndex",
          "type": "uint256"
        }
      ],
      "name": "DebtEnforced",
      "type": "event"
    },
    {
      "anonymous": false,
      "inputs": [
        {
          "indexed": true,
          "internalType": "bytes32",
          "name": "debtor",
          "type": "bytes32"
        },
        {
          "indexed": true,
          "internalType": "bytes32",
          "name": "creditor",
          "type": "bytes32"
        },
        {
          "indexed": true,
          "internalType": "uint256",
          "name": "tokenId",
          "type": "uint256"
        },
        {
          "indexed": false,
          "internalType": "uint256",
          "name": "amountForgiven",
          "type": "uint256"
        },
        {
          "indexed": false,
          "internalType": "uint256",
          "name": "debtIndex",
          "type": "uint256"
        }
      ],
      "name": "DebtForgiven",
      "type": "event"
    },
    {
      "anonymous": false,
      "inputs": [
        {
          "indexed": true,
          "internalType": "bytes32",
          "name": "sender",
          "type": "bytes32"
        },
        {
          "indexed": true,
          "internalType": "bytes32",
          "name": "counterentity",
          "type": "bytes32"
        },
        {
          "indexed": true,
          "internalType": "uint256",
          "name": "disputeNonce",
          "type": "uint256"
        },
        {
          "indexed": false,
          "internalType": "bytes",
          "name": "initialArguments",
          "type": "bytes"
        }
      ],
      "name": "DisputeStarted",
      "type": "event"
    },
    {
      "anonymous": false,
      "inputs": [
        {
          "indexed": false,
          "internalType": "bool",
          "name": "isPaused",
          "type": "bool"
        }
      ],
      "name": "EmergencyPauseToggled",
      "type": "event"
    },
    {
      "anonymous": false,
      "inputs": [
        {
          "indexed": true,
          "internalType": "address",
          "name": "provider",
          "type": "address"
        }
      ],
      "name": "EntityProviderAdded",
      "type": "event"
    },
    {
      "anonymous": false,
      "inputs": [
        {
          "indexed": true,
          "internalType": "address",
          "name": "provider",
          "type": "address"
        }
      ],
      "name": "EntityProviderRemoved",
      "type": "event"
    },
    {
      "anonymous": false,
      "inputs": [
        {
          "indexed": true,
          "internalType": "bytes32",
          "name": "entityId",
          "type": "bytes32"
        },
        {
          "indexed": true,
          "internalType": "bytes32",
          "name": "hankoHash",
          "type": "bytes32"
        },
        {
          "indexed": false,
          "internalType": "uint256",
          "name": "nonce",
          "type": "uint256"
        },
        {
          "indexed": false,
          "internalType": "bool",
          "name": "success",
          "type": "bool"
        }
      ],
      "name": "HankoBatchProcessed",
      "type": "event"
    },
    {
      "anonymous": false,
      "inputs": [
        {
          "indexed": true,
          "internalType": "bytes32",
          "name": "insured",
          "type": "bytes32"
        },
        {
          "indexed": true,
          "internalType": "bytes32",
          "name": "insurer",
          "type": "bytes32"
        },
        {
          "indexed": true,
          "internalType": "bytes32",
          "name": "creditor",
          "type": "bytes32"
        },
        {
          "indexed": false,
          "internalType": "uint256",
          "name": "tokenId",
          "type": "uint256"
        },
        {
          "indexed": false,
          "internalType": "uint256",
          "name": "amount",
          "type": "uint256"
        }
      ],
      "name": "InsuranceClaimed",
      "type": "event"
    },
    {
      "anonymous": false,
      "inputs": [
        {
          "indexed": true,
          "internalType": "bytes32",
          "name": "insured",
          "type": "bytes32"
        },
        {
          "indexed": true,
          "internalType": "bytes32",
          "name": "insurer",
          "type": "bytes32"
        },
        {
          "indexed": true,
          "internalType": "uint256",
          "name": "tokenId",
          "type": "uint256"
        },
        {
          "indexed": false,
          "internalType": "uint256",
          "name": "limit",
          "type": "uint256"
        },
        {
          "indexed": false,
          "internalType": "uint256",
          "name": "expiresAt",
          "type": "uint256"
        }
      ],
      "name": "InsuranceRegistered",
      "type": "event"
    },
    {
      "anonymous": false,
      "inputs": [
        {
          "indexed": true,
          "internalType": "bytes32",
          "name": "entity",
          "type": "bytes32"
        },
        {
          "indexed": true,
          "internalType": "uint256",
          "name": "tokenId",
          "type": "uint256"
        },
        {
          "indexed": false,
          "internalType": "uint256",
          "name": "amount",
          "type": "uint256"
        },
        {
          "indexed": false,
          "internalType": "uint256",
          "name": "newBalance",
          "type": "uint256"
        }
      ],
      "name": "ReserveMinted",
      "type": "event"
    },
    {
      "anonymous": false,
      "inputs": [
        {
          "indexed": true,
          "internalType": "bytes32",
          "name": "from",
          "type": "bytes32"
        },
        {
          "indexed": true,
          "internalType": "bytes32",
          "name": "to",
          "type": "bytes32"
        },
        {
          "indexed": true,
          "internalType": "uint256",
          "name": "tokenId",
          "type": "uint256"
        },
        {
          "indexed": false,
          "internalType": "uint256",
          "name": "amount",
          "type": "uint256"
        }
      ],
      "name": "ReserveTransferred",
      "type": "event"
    },
    {
      "anonymous": false,
      "inputs": [
        {
          "indexed": true,
          "internalType": "bytes32",
          "name": "entity",
          "type": "bytes32"
        },
        {
          "indexed": true,
          "internalType": "uint256",
          "name": "tokenId",
          "type": "uint256"
        },
        {
          "indexed": false,
          "internalType": "uint256",
          "name": "newBalance",
          "type": "uint256"
        }
      ],
      "name": "ReserveUpdated",
      "type": "event"
    },
    {
      "anonymous": false,
      "inputs": [
        {
          "indexed": true,
          "internalType": "bytes32",
          "name": "leftEntity",
          "type": "bytes32"
        },
        {
          "indexed": true,
          "internalType": "bytes32",
          "name": "rightEntity",
          "type": "bytes32"
        },
        {
          "indexed": true,
          "internalType": "uint256",
          "name": "tokenId",
          "type": "uint256"
        },
        {
          "indexed": false,
          "internalType": "uint256",
          "name": "leftReserve",
          "type": "uint256"
        },
        {
          "indexed": false,
          "internalType": "uint256",
          "name": "rightReserve",
          "type": "uint256"
        },
        {
          "indexed": false,
          "internalType": "uint256",
          "name": "collateral",
          "type": "uint256"
        },
        {
          "indexed": false,
          "internalType": "int256",
          "name": "ondelta",
          "type": "int256"
        }
      ],
      "name": "SettlementProcessed",
      "type": "event"
    },
    {
      "anonymous": false,
      "inputs": [],
      "name": "TestModeDisabled",
      "type": "event"
    },
    {
      "anonymous": false,
      "inputs": [
        {
          "indexed": true,
          "internalType": "bytes32",
          "name": "receivingEntity",
          "type": "bytes32"
        },
        {
          "indexed": true,
          "internalType": "bytes32",
          "name": "counterentity",
          "type": "bytes32"
        },
        {
          "indexed": false,
          "internalType": "uint256",
          "name": "collateral",
          "type": "uint256"
        },
        {
          "indexed": false,
          "internalType": "int256",
          "name": "ondelta",
          "type": "int256"
        },
        {
          "indexed": false,
          "internalType": "uint256",
          "name": "tokenId",
          "type": "uint256"
        }
      ],
      "name": "TransferReserveToCollateral",
      "type": "event"
    },
    {
      "inputs": [],
      "name": "DOMAIN_SEPARATOR",
      "outputs": [
        {
          "internalType": "bytes32",
          "name": "",
          "type": "bytes32"
        }
      ],
      "stateMutability": "view",
      "type": "function"
    },
    {
      "inputs": [
        {
          "internalType": "bytes",
          "name": "",
          "type": "bytes"
        }
      ],
      "name": "_accounts",
      "outputs": [
        {
          "internalType": "uint256",
          "name": "cooperativeNonce",
          "type": "uint256"
        },
        {
          "internalType": "bytes32",
          "name": "disputeHash",
          "type": "bytes32"
        },
        {
          "internalType": "uint256",
          "name": "disputeTimeout",
          "type": "uint256"
        }
      ],
      "stateMutability": "view",
      "type": "function"
    },
    {
      "inputs": [
        {
          "internalType": "bytes32",
          "name": "",
          "type": "bytes32"
        }
      ],
      "name": "_activeDebts",
      "outputs": [
        {
          "internalType": "uint256",
          "name": "",
          "type": "uint256"
        }
      ],
      "stateMutability": "view",
      "type": "function"
    },
    {
      "inputs": [
        {
          "internalType": "bytes",
          "name": "",
          "type": "bytes"
        },
        {
          "internalType": "uint256",
          "name": "",
          "type": "uint256"
        }
      ],
      "name": "_collaterals",
      "outputs": [
        {
          "internalType": "uint256",
          "name": "collateral",
          "type": "uint256"
        },
        {
          "internalType": "int256",
          "name": "ondelta",
          "type": "int256"
        }
      ],
      "stateMutability": "view",
      "type": "function"
    },
    {
      "inputs": [
        {
          "internalType": "bytes32",
          "name": "",
          "type": "bytes32"
        },
        {
          "internalType": "uint256",
          "name": "",
          "type": "uint256"
        }
      ],
      "name": "_debtIndex",
      "outputs": [
        {
          "internalType": "uint256",
          "name": "",
          "type": "uint256"
        }
      ],
      "stateMutability": "view",
      "type": "function"
    },
    {
      "inputs": [
        {
          "internalType": "bytes32",
          "name": "",
          "type": "bytes32"
        },
        {
          "internalType": "uint256",
          "name": "",
          "type": "uint256"
        },
        {
          "internalType": "uint256",
          "name": "",
          "type": "uint256"
        }
      ],
      "name": "_debts",
      "outputs": [
        {
          "internalType": "bytes32",
          "name": "creditor",
          "type": "bytes32"
        },
        {
          "internalType": "uint256",
          "name": "amount",
          "type": "uint256"
        }
      ],
      "stateMutability": "view",
      "type": "function"
    },
    {
      "inputs": [
        {
          "internalType": "bytes32",
          "name": "",
          "type": "bytes32"
        },
        {
          "internalType": "uint256",
          "name": "",
          "type": "uint256"
        }
      ],
      "name": "_reserves",
      "outputs": [
        {
          "internalType": "uint256",
          "name": "",
          "type": "uint256"
        }
      ],
      "stateMutability": "view",
      "type": "function"
    },
    {
      "inputs": [
        {
          "internalType": "uint256",
          "name": "",
          "type": "uint256"
        }
      ],
      "name": "_tokens",
      "outputs": [
        {
          "internalType": "bytes32",
          "name": "",
          "type": "bytes32"
        }
      ],
      "stateMutability": "view",
      "type": "function"
    },
    {
      "inputs": [
        {
          "internalType": "bytes32",
          "name": "e1",
          "type": "bytes32"
        },
        {
          "internalType": "bytes32",
          "name": "e2",
          "type": "bytes32"
        }
      ],
      "name": "accountKey",
      "outputs": [
        {
          "internalType": "bytes",
          "name": "",
          "type": "bytes"
        }
      ],
      "stateMutability": "pure",
      "type": "function"
    },
    {
      "inputs": [
        {
          "internalType": "address",
          "name": "provider",
          "type": "address"
        }
      ],
      "name": "addEntityProvider",
      "outputs": [],
      "stateMutability": "nonpayable",
      "type": "function"
    },
    {
      "inputs": [],
      "name": "admin",
      "outputs": [
        {
          "internalType": "address",
          "name": "",
          "type": "address"
        }
      ],
      "stateMutability": "view",
      "type": "function"
    },
    {
      "inputs": [
        {
          "internalType": "address",
          "name": "",
          "type": "address"
        }
      ],
      "name": "approvedEntityProviders",
      "outputs": [
        {
          "internalType": "bool",
          "name": "",
          "type": "bool"
        }
      ],
      "stateMutability": "view",
      "type": "function"
    },
    {
      "inputs": [],
      "name": "defaultDisputeDelay",
      "outputs": [
        {
          "internalType": "uint256",
          "name": "",
          "type": "uint256"
        }
      ],
      "stateMutability": "view",
      "type": "function"
    },
    {
      "inputs": [],
      "name": "disableTestModeForever",
      "outputs": [],
      "stateMutability": "nonpayable",
      "type": "function"
    },
    {
      "inputs": [
        {
          "components": [
            {
              "internalType": "bytes32",
              "name": "counterentity",
              "type": "bytes32"
            },
            {
              "internalType": "uint256",
              "name": "finalCooperativeNonce",
              "type": "uint256"
            },
            {
              "internalType": "uint256",
              "name": "initialDisputeNonce",
              "type": "uint256"
            },
            {
              "internalType": "uint256",
              "name": "finalDisputeNonce",
              "type": "uint256"
            },
            {
              "internalType": "bytes32",
              "name": "initialProofbodyHash",
              "type": "bytes32"
            },
            {
              "components": [
                {
                  "internalType": "int256[]",
                  "name": "offdeltas",
                  "type": "int256[]"
                },
                {
                  "internalType": "uint256[]",
                  "name": "tokenIds",
                  "type": "uint256[]"
                },
                {
                  "components": [
                    {
                      "internalType": "address",
                      "name": "transformerAddress",
                      "type": "address"
                    },
                    {
                      "internalType": "bytes",
                      "name": "encodedBatch",
                      "type": "bytes"
                    },
                    {
                      "components": [
                        {
                          "internalType": "uint256",
                          "name": "deltaIndex",
                          "type": "uint256"
                        },
                        {
                          "internalType": "uint256",
                          "name": "rightAllowence",
                          "type": "uint256"
                        },
                        {
                          "internalType": "uint256",
                          "name": "leftAllowence",
                          "type": "uint256"
                        }
                      ],
                      "internalType": "struct Allowence[]",
                      "name": "allowences",
                      "type": "tuple[]"
                    }
                  ],
                  "internalType": "struct TransformerClause[]",
                  "name": "transformers",
                  "type": "tuple[]"
                }
              ],
              "internalType": "struct ProofBody",
              "name": "finalProofbody",
              "type": "tuple"
            },
            {
              "internalType": "bytes",
              "name": "finalArguments",
              "type": "bytes"
            },
            {
              "internalType": "bytes",
              "name": "initialArguments",
              "type": "bytes"
            },
            {
              "internalType": "bytes",
              "name": "sig",
              "type": "bytes"
            },
            {
              "internalType": "bool",
              "name": "startedByLeft",
              "type": "bool"
            },
            {
              "internalType": "uint256",
              "name": "disputeUntilBlock",
              "type": "uint256"
            },
            {
              "internalType": "bool",
              "name": "cooperative",
              "type": "bool"
            }
          ],
          "internalType": "struct FinalDisputeProof",
          "name": "params",
          "type": "tuple"
        }
      ],
      "name": "disputeFinalize",
      "outputs": [
        {
          "internalType": "bool",
          "name": "",
          "type": "bool"
        }
      ],
      "stateMutability": "nonpayable",
      "type": "function"
    },
    {
      "inputs": [
        {
          "components": [
            {
              "internalType": "bytes32",
              "name": "counterentity",
              "type": "bytes32"
            },
            {
              "internalType": "uint256",
              "name": "cooperativeNonce",
              "type": "uint256"
            },
            {
              "internalType": "uint256",
              "name": "disputeNonce",
              "type": "uint256"
            },
            {
              "internalType": "bytes32",
              "name": "proofbodyHash",
              "type": "bytes32"
            },
            {
              "internalType": "bytes",
              "name": "sig",
              "type": "bytes"
            },
            {
              "internalType": "bytes",
              "name": "initialArguments",
              "type": "bytes"
            }
          ],
          "internalType": "struct InitialDisputeProof",
          "name": "params",
          "type": "tuple"
        }
      ],
      "name": "disputeStart",
      "outputs": [
        {
          "internalType": "bool",
          "name": "",
          "type": "bool"
        }
      ],
      "stateMutability": "nonpayable",
      "type": "function"
    },
    {
      "inputs": [],
      "name": "emergencyPause",
      "outputs": [
        {
          "internalType": "bool",
          "name": "",
          "type": "bool"
        }
      ],
      "stateMutability": "view",
      "type": "function"
    },
    {
      "inputs": [
        {
          "internalType": "bytes32",
          "name": "entity",
          "type": "bytes32"
        },
        {
          "internalType": "uint256",
          "name": "tokenId",
          "type": "uint256"
        }
      ],
      "name": "enforceDebts",
      "outputs": [
        {
          "internalType": "uint256",
          "name": "",
          "type": "uint256"
        }
      ],
      "stateMutability": "nonpayable",
      "type": "function"
    },
    {
      "inputs": [
        {
          "internalType": "bytes32",
          "name": "",
          "type": "bytes32"
        }
      ],
      "name": "entityDisputeDelays",
      "outputs": [
        {
          "internalType": "uint256",
          "name": "",
          "type": "uint256"
        }
      ],
      "stateMutability": "view",
      "type": "function"
    },
    {
      "inputs": [
        {
          "internalType": "address",
          "name": "",
          "type": "address"
        }
      ],
      "name": "entityNonces",
      "outputs": [
        {
          "internalType": "uint256",
          "name": "",
          "type": "uint256"
        }
      ],
      "stateMutability": "view",
      "type": "function"
    },
    {
      "inputs": [
        {
          "internalType": "uint256",
          "name": "",
          "type": "uint256"
        }
      ],
      "name": "entityProvidersList",
      "outputs": [
        {
          "internalType": "address",
          "name": "",
          "type": "address"
        }
      ],
      "stateMutability": "view",
      "type": "function"
    },
    {
      "inputs": [
        {
          "components": [
            {
              "internalType": "bytes32",
              "name": "entity",
              "type": "bytes32"
            },
            {
              "internalType": "bytes32",
              "name": "packedToken",
              "type": "bytes32"
            },
            {
              "internalType": "uint256",
              "name": "internalTokenId",
              "type": "uint256"
            },
            {
              "internalType": "uint256",
              "name": "amount",
              "type": "uint256"
            }
          ],
          "internalType": "struct ExternalTokenToReserve",
          "name": "params",
          "type": "tuple"
        }
      ],
      "name": "externalTokenToReserve",
      "outputs": [],
      "stateMutability": "nonpayable",
      "type": "function"
    },
    {
      "inputs": [],
      "name": "getApprovedProviders",
      "outputs": [
        {
          "internalType": "address[]",
          "name": "",
          "type": "address[]"
        }
      ],
      "stateMutability": "view",
      "type": "function"
    },
    {
      "inputs": [
        {
          "internalType": "uint256",
          "name": "tokenId",
          "type": "uint256"
        }
      ],
      "name": "getTokenMetadata",
      "outputs": [
        {
          "internalType": "address",
          "name": "contractAddress",
          "type": "address"
        },
        {
          "internalType": "uint96",
          "name": "externalTokenId",
          "type": "uint96"
        },
        {
          "internalType": "uint8",
          "name": "tokenType",
          "type": "uint8"
        }
      ],
      "stateMutability": "view",
      "type": "function"
    },
    {
      "inputs": [],
      "name": "getTokensLength",
      "outputs": [
        {
          "internalType": "uint256",
          "name": "",
          "type": "uint256"
        }
      ],
      "stateMutability": "view",
      "type": "function"
    },
    {
      "inputs": [
        {
          "internalType": "bytes32",
          "name": "",
          "type": "bytes32"
        }
      ],
      "name": "insuranceCursor",
      "outputs": [
        {
          "internalType": "uint256",
          "name": "",
          "type": "uint256"
        }
      ],
      "stateMutability": "view",
      "type": "function"
    },
    {
      "inputs": [
        {
          "internalType": "bytes32",
          "name": "",
          "type": "bytes32"
        },
        {
          "internalType": "uint256",
          "name": "",
          "type": "uint256"
        }
      ],
      "name": "insuranceLines",
      "outputs": [
        {
          "internalType": "bytes32",
          "name": "insurer",
          "type": "bytes32"
        },
        {
          "internalType": "uint256",
          "name": "tokenId",
          "type": "uint256"
        },
        {
          "internalType": "uint256",
          "name": "remaining",
          "type": "uint256"
        },
        {
          "internalType": "uint256",
          "name": "expiresAt",
          "type": "uint256"
        }
      ],
      "stateMutability": "view",
      "type": "function"
    },
    {
      "inputs": [
        {
          "internalType": "bytes32",
          "name": "entity",
          "type": "bytes32"
        },
        {
          "internalType": "uint256",
          "name": "tokenId",
          "type": "uint256"
        },
        {
          "internalType": "uint256",
          "name": "amount",
          "type": "uint256"
        }
      ],
      "name": "mintToReserve",
      "outputs": [],
      "stateMutability": "nonpayable",
      "type": "function"
    },
    {
      "inputs": [
        {
          "internalType": "address",
          "name": "",
          "type": "address"
        },
        {
          "internalType": "address",
          "name": "",
          "type": "address"
        },
        {
          "internalType": "uint256[]",
          "name": "",
          "type": "uint256[]"
        },
        {
          "internalType": "uint256[]",
          "name": "",
          "type": "uint256[]"
        },
        {
          "internalType": "bytes",
          "name": "",
          "type": "bytes"
        }
      ],
      "name": "onERC1155BatchReceived",
      "outputs": [
        {
          "internalType": "bytes4",
          "name": "",
          "type": "bytes4"
        }
      ],
      "stateMutability": "pure",
      "type": "function"
    },
    {
      "inputs": [
        {
          "internalType": "address",
          "name": "",
          "type": "address"
        },
        {
          "internalType": "address",
          "name": "from",
          "type": "address"
        },
        {
          "internalType": "uint256",
          "name": "id",
          "type": "uint256"
        },
        {
          "internalType": "uint256",
          "name": "value",
          "type": "uint256"
        },
        {
          "internalType": "bytes",
          "name": "",
          "type": "bytes"
        }
      ],
      "name": "onERC1155Received",
      "outputs": [
        {
          "internalType": "bytes4",
          "name": "",
          "type": "bytes4"
        }
      ],
      "stateMutability": "nonpayable",
      "type": "function"
    },
    {
      "inputs": [
        {
          "internalType": "uint8",
          "name": "tokenType",
          "type": "uint8"
        },
        {
          "internalType": "address",
          "name": "contractAddress",
          "type": "address"
        },
        {
          "internalType": "uint96",
          "name": "externalTokenId",
          "type": "uint96"
        }
      ],
      "name": "packTokenReference",
      "outputs": [
        {
          "internalType": "bytes32",
          "name": "",
          "type": "bytes32"
        }
      ],
      "stateMutability": "pure",
      "type": "function"
    },
    {
      "inputs": [
        {
          "internalType": "bytes32",
          "name": "fundingEntity",
          "type": "bytes32"
        },
        {
          "internalType": "bytes32",
          "name": "counterpartyEntity",
          "type": "bytes32"
        },
        {
          "internalType": "uint256",
          "name": "tokenId",
          "type": "uint256"
        },
        {
          "internalType": "uint256",
          "name": "amount",
          "type": "uint256"
        }
      ],
      "name": "prefundAccount",
      "outputs": [
        {
          "internalType": "bool",
          "name": "",
          "type": "bool"
        }
      ],
      "stateMutability": "nonpayable",
      "type": "function"
    },
    {
      "inputs": [
        {
          "internalType": "bytes32",
          "name": "entity",
          "type": "bytes32"
        },
        {
          "components": [
            {
              "components": [
                {
                  "internalType": "uint256",
                  "name": "tokenId",
                  "type": "uint256"
                },
                {
                  "internalType": "uint256",
                  "name": "amount",
                  "type": "uint256"
                }
              ],
              "internalType": "struct Flashloan[]",
              "name": "flashloans",
              "type": "tuple[]"
            },
            {
              "components": [
                {
                  "internalType": "bytes32",
                  "name": "receivingEntity",
                  "type": "bytes32"
                },
                {
                  "internalType": "uint256",
                  "name": "tokenId",
                  "type": "uint256"
                },
                {
                  "internalType": "uint256",
                  "name": "amount",
                  "type": "uint256"
                }
              ],
              "internalType": "struct ReserveToReserve[]",
              "name": "reserveToReserve",
              "type": "tuple[]"
            },
            {
              "components": [
                {
                  "internalType": "uint256",
                  "name": "tokenId",
                  "type": "uint256"
                },
                {
                  "internalType": "bytes32",
                  "name": "receivingEntity",
                  "type": "bytes32"
                },
                {
                  "components": [
                    {
                      "internalType": "bytes32",
                      "name": "entity",
                      "type": "bytes32"
                    },
                    {
                      "internalType": "uint256",
                      "name": "amount",
                      "type": "uint256"
                    }
                  ],
                  "internalType": "struct EntityAmount[]",
                  "name": "pairs",
                  "type": "tuple[]"
                }
              ],
              "internalType": "struct ReserveToCollateral[]",
              "name": "reserveToCollateral",
              "type": "tuple[]"
            },
            {
              "components": [
                {
                  "internalType": "bytes32",
                  "name": "leftEntity",
                  "type": "bytes32"
                },
                {
                  "internalType": "bytes32",
                  "name": "rightEntity",
                  "type": "bytes32"
                },
                {
                  "components": [
                    {
                      "internalType": "uint256",
                      "name": "tokenId",
                      "type": "uint256"
                    },
                    {
                      "internalType": "int256",
                      "name": "leftDiff",
                      "type": "int256"
                    },
                    {
                      "internalType": "int256",
                      "name": "rightDiff",
                      "type": "int256"
                    },
                    {
                      "internalType": "int256",
                      "name": "collateralDiff",
                      "type": "int256"
                    },
                    {
                      "internalType": "int256",
                      "name": "ondeltaDiff",
                      "type": "int256"
                    }
                  ],
                  "internalType": "struct SettlementDiff[]",
                  "name": "diffs",
                  "type": "tuple[]"
                },
                {
                  "internalType": "uint256[]",
                  "name": "forgiveDebtsInTokenIds",
                  "type": "uint256[]"
                },
                {
                  "components": [
                    {
                      "internalType": "bytes32",
                      "name": "insured",
                      "type": "bytes32"
                    },
                    {
                      "internalType": "bytes32",
                      "name": "insurer",
                      "type": "bytes32"
                    },
                    {
                      "internalType": "uint256",
                      "name": "tokenId",
                      "type": "uint256"
                    },
                    {
                      "internalType": "uint256",
                      "name": "limit",
                      "type": "uint256"
                    },
                    {
                      "internalType": "uint256",
                      "name": "expiresAt",
                      "type": "uint256"
                    }
                  ],
                  "internalType": "struct InsuranceRegistration[]",
                  "name": "insuranceRegs",
                  "type": "tuple[]"
                },
                {
                  "internalType": "bytes",
                  "name": "sig",
                  "type": "bytes"
                },
                {
                  "internalType": "address",
                  "name": "entityProvider",
                  "type": "address"
                },
                {
                  "internalType": "bytes",
                  "name": "hankoData",
                  "type": "bytes"
                },
                {
                  "internalType": "uint256",
                  "name": "nonce",
                  "type": "uint256"
                }
              ],
              "internalType": "struct Settlement[]",
              "name": "settlements",
              "type": "tuple[]"
            },
            {
              "components": [
                {
                  "internalType": "bytes32",
                  "name": "counterentity",
                  "type": "bytes32"
                },
                {
                  "internalType": "uint256",
                  "name": "cooperativeNonce",
                  "type": "uint256"
                },
                {
                  "internalType": "uint256",
                  "name": "disputeNonce",
                  "type": "uint256"
                },
                {
                  "internalType": "bytes32",
                  "name": "proofbodyHash",
                  "type": "bytes32"
                },
                {
                  "internalType": "bytes",
                  "name": "sig",
                  "type": "bytes"
                },
                {
                  "internalType": "bytes",
                  "name": "initialArguments",
                  "type": "bytes"
                }
              ],
              "internalType": "struct InitialDisputeProof[]",
              "name": "disputeStarts",
              "type": "tuple[]"
            },
            {
              "components": [
                {
                  "internalType": "bytes32",
                  "name": "counterentity",
                  "type": "bytes32"
                },
                {
                  "internalType": "uint256",
                  "name": "finalCooperativeNonce",
                  "type": "uint256"
                },
                {
                  "internalType": "uint256",
                  "name": "initialDisputeNonce",
                  "type": "uint256"
                },
                {
                  "internalType": "uint256",
                  "name": "finalDisputeNonce",
                  "type": "uint256"
                },
                {
                  "internalType": "bytes32",
                  "name": "initialProofbodyHash",
                  "type": "bytes32"
                },
                {
                  "components": [
                    {
                      "internalType": "int256[]",
                      "name": "offdeltas",
                      "type": "int256[]"
                    },
                    {
                      "internalType": "uint256[]",
                      "name": "tokenIds",
                      "type": "uint256[]"
                    },
                    {
                      "components": [
                        {
                          "internalType": "address",
                          "name": "transformerAddress",
                          "type": "address"
                        },
                        {
                          "internalType": "bytes",
                          "name": "encodedBatch",
                          "type": "bytes"
                        },
                        {
                          "components": [
                            {
                              "internalType": "uint256",
                              "name": "deltaIndex",
                              "type": "uint256"
                            },
                            {
                              "internalType": "uint256",
                              "name": "rightAllowence",
                              "type": "uint256"
                            },
                            {
                              "internalType": "uint256",
                              "name": "leftAllowence",
                              "type": "uint256"
                            }
                          ],
                          "internalType": "struct Allowence[]",
                          "name": "allowences",
                          "type": "tuple[]"
                        }
                      ],
                      "internalType": "struct TransformerClause[]",
                      "name": "transformers",
                      "type": "tuple[]"
                    }
                  ],
                  "internalType": "struct ProofBody",
                  "name": "finalProofbody",
                  "type": "tuple"
                },
                {
                  "internalType": "bytes",
                  "name": "finalArguments",
                  "type": "bytes"
                },
                {
                  "internalType": "bytes",
                  "name": "initialArguments",
                  "type": "bytes"
                },
                {
                  "internalType": "bytes",
                  "name": "sig",
                  "type": "bytes"
                },
                {
                  "internalType": "bool",
                  "name": "startedByLeft",
                  "type": "bool"
                },
                {
                  "internalType": "uint256",
                  "name": "disputeUntilBlock",
                  "type": "uint256"
                },
                {
                  "internalType": "bool",
                  "name": "cooperative",
                  "type": "bool"
                }
              ],
              "internalType": "struct FinalDisputeProof[]",
              "name": "disputeFinalizations",
              "type": "tuple[]"
            },
            {
              "components": [
                {
                  "internalType": "bytes32",
                  "name": "entity",
                  "type": "bytes32"
                },
                {
                  "internalType": "bytes32",
                  "name": "packedToken",
                  "type": "bytes32"
                },
                {
                  "internalType": "uint256",
                  "name": "internalTokenId",
                  "type": "uint256"
                },
                {
                  "internalType": "uint256",
                  "name": "amount",
                  "type": "uint256"
                }
              ],
              "internalType": "struct ExternalTokenToReserve[]",
              "name": "externalTokenToReserve",
              "type": "tuple[]"
            },
            {
              "components": [
                {
                  "internalType": "bytes32",
                  "name": "receivingEntity",
                  "type": "bytes32"
                },
                {
                  "internalType": "uint256",
                  "name": "tokenId",
                  "type": "uint256"
                },
                {
                  "internalType": "uint256",
                  "name": "amount",
                  "type": "uint256"
                }
              ],
              "internalType": "struct ReserveToExternalToken[]",
              "name": "reserveToExternalToken",
              "type": "tuple[]"
            },
            {
              "internalType": "uint256",
              "name": "hub_id",
              "type": "uint256"
            }
          ],
          "internalType": "struct Batch",
          "name": "batch",
          "type": "tuple"
        }
      ],
      "name": "processBatch",
      "outputs": [
        {
          "internalType": "bool",
          "name": "completeSuccess",
          "type": "bool"
        }
      ],
      "stateMutability": "nonpayable",
      "type": "function"
    },
    {
      "inputs": [
        {
          "internalType": "bytes",
          "name": "encodedBatch",
          "type": "bytes"
        },
        {
          "internalType": "address",
          "name": "entityProvider",
          "type": "address"
        },
        {
          "internalType": "bytes",
          "name": "hankoData",
          "type": "bytes"
        },
        {
          "internalType": "uint256",
          "name": "nonce",
          "type": "uint256"
        }
      ],
      "name": "processBatchWithHanko",
      "outputs": [
        {
          "internalType": "bool",
          "name": "completeSuccess",
          "type": "bool"
        }
      ],
      "stateMutability": "nonpayable",
      "type": "function"
    },
    {
      "inputs": [
        {
          "internalType": "address",
          "name": "provider",
          "type": "address"
        }
      ],
      "name": "removeEntityProvider",
      "outputs": [],
      "stateMutability": "nonpayable",
      "type": "function"
    },
    {
      "inputs": [
        {
          "internalType": "bytes32",
          "name": "fromEntity",
          "type": "bytes32"
        },
        {
          "internalType": "bytes32",
          "name": "toEntity",
          "type": "bytes32"
        },
        {
          "internalType": "uint256",
          "name": "tokenId",
          "type": "uint256"
        },
        {
          "internalType": "uint256",
          "name": "amount",
          "type": "uint256"
        }
      ],
      "name": "reserveToReserve",
      "outputs": [
        {
          "internalType": "bool",
          "name": "",
          "type": "bool"
        }
      ],
      "stateMutability": "nonpayable",
      "type": "function"
    },
    {
      "inputs": [
        {
          "internalType": "uint256",
          "name": "delayBlocks",
          "type": "uint256"
        }
      ],
      "name": "setDefaultDisputeDelay",
      "outputs": [],
      "stateMutability": "nonpayable",
      "type": "function"
    },
    {
      "inputs": [
        {
          "internalType": "bool",
          "name": "isPaused",
          "type": "bool"
        }
      ],
      "name": "setEmergencyPause",
      "outputs": [],
      "stateMutability": "nonpayable",
      "type": "function"
    },
    {
      "inputs": [
        {
          "internalType": "bytes32",
          "name": "entity",
          "type": "bytes32"
        },
        {
          "internalType": "uint256",
          "name": "delayBlocks",
          "type": "uint256"
        }
      ],
      "name": "setEntityDisputeDelay",
      "outputs": [],
      "stateMutability": "nonpayable",
      "type": "function"
    },
    {
      "inputs": [
        {
          "internalType": "bytes32",
          "name": "leftEntity",
          "type": "bytes32"
        },
        {
          "internalType": "bytes32",
          "name": "rightEntity",
          "type": "bytes32"
        },
        {
          "components": [
            {
              "internalType": "uint256",
              "name": "tokenId",
              "type": "uint256"
            },
            {
              "internalType": "int256",
              "name": "leftDiff",
              "type": "int256"
            },
            {
              "internalType": "int256",
              "name": "rightDiff",
              "type": "int256"
            },
            {
              "internalType": "int256",
              "name": "collateralDiff",
              "type": "int256"
            },
            {
              "internalType": "int256",
              "name": "ondeltaDiff",
              "type": "int256"
            }
          ],
          "internalType": "struct SettlementDiff[]",
          "name": "diffs",
          "type": "tuple[]"
        },
        {
          "internalType": "uint256[]",
          "name": "forgiveDebtsInTokenIds",
          "type": "uint256[]"
        },
        {
          "components": [
            {
              "internalType": "bytes32",
              "name": "insured",
              "type": "bytes32"
            },
            {
              "internalType": "bytes32",
              "name": "insurer",
              "type": "bytes32"
            },
            {
              "internalType": "uint256",
              "name": "tokenId",
              "type": "uint256"
            },
            {
              "internalType": "uint256",
              "name": "limit",
              "type": "uint256"
            },
            {
              "internalType": "uint256",
              "name": "expiresAt",
              "type": "uint256"
            }
          ],
          "internalType": "struct InsuranceRegistration[]",
          "name": "insuranceRegs",
          "type": "tuple[]"
        },
        {
          "internalType": "bytes",
          "name": "sig",
          "type": "bytes"
        }
      ],
      "name": "settle",
      "outputs": [
        {
          "internalType": "bool",
          "name": "",
          "type": "bool"
        }
      ],
      "stateMutability": "nonpayable",
      "type": "function"
    },
    {
      "inputs": [],
      "name": "testMode",
      "outputs": [
        {
          "internalType": "bool",
          "name": "",
          "type": "bool"
        }
      ],
      "stateMutability": "view",
      "type": "function"
    },
    {
      "inputs": [
        {
          "internalType": "bytes32",
          "name": "",
          "type": "bytes32"
        }
      ],
      "name": "tokenToId",
      "outputs": [
        {
          "internalType": "uint256",
          "name": "",
          "type": "uint256"
        }
      ],
      "stateMutability": "view",
      "type": "function"
    },
    {
      "inputs": [
        {
          "internalType": "bytes32",
          "name": "packed",
          "type": "bytes32"
        }
      ],
      "name": "unpackTokenReference",
      "outputs": [
        {
          "internalType": "address",
          "name": "contractAddress",
          "type": "address"
        },
        {
          "internalType": "uint96",
          "name": "externalTokenId",
          "type": "uint96"
        },
        {
          "internalType": "uint8",
          "name": "tokenType",
          "type": "uint8"
        }
      ],
      "stateMutability": "pure",
      "type": "function"
    }
  ],
  "bytecode": "0x60a08060405234620000e457600060018155601460065561010061ff0019600b541617600b5533608052600d5468010000000000000000811015620000d0576001810180600d55811015620000bc57600d82527fd7b6990105719101dabeb77144f2a3385c8033acd3af97e9423a695e81ad1eb50155615acf9081620000ea8239608051818181610559015281816105b8015281816108620152818161094b01528181610d5201528181610fe90152818161136901526115740152f35b634e487b7160e01b82526032600452602482fd5b634e487b7160e01b82526041600452602482fd5b600080fdfe608060408181526004918236101561001657600080fd5b600092833560e01c9182630c0a46a814611b5a575081630dedd62414611aec578163125c2cc414611a795781631e40079c14611a1c578163266afe1b1461195757816331cf2a56146118b05781633644e515146118875781633925cd441461175f57816351858e271461173b57816355ca622a1461166957816358d642bc1461154f57816360316801146114ea5781636b79134d146114c25781637508b9161461149657816382cd19aa1461143157816388a1cd76146113e65781638fdfafe514611355578163907efb1b1461133657816392cf61e5146112e45781639304677d146112ac57816396954a9f14611284578163abc8d1ac14611246578163acd6f2081461121a578163b0c26ecf146111fb578163bb2c250c1461111e578163bc197c8114611078578163cd9ea34214611051578163d148b4c814610fd1578163d19fd92e14610fa9578163d57bb1d614610d9e578163d8d1a65714610d31578163db90b81014610b57578163dd865c8b14610af2578163ddc3948014610923578163e812c5691461084c578163ec6d8e061461080b578163ed70554d146107d2578163f176e32614610794578163f23a6e61146105e7578163f851a440146105a3578163fbd6d63f14610545578163fbfe1b5714610223575063fc3c4c3e146101fe57600080fd5b3461021f5760209061021861021236611d21565b90614b92565b9051908152f35b5080fd5b91905034610541576080366003190112610541576001600160401b0392823584811161021f5761025690369085016122e6565b610261959195611f54565b9560443583811161053d5761027990369088016122e6565b9390926064359760ff600b541661052f57600287541461052157600287556001600160a01b03998a168088526001602090815289892054909b919060ff16156104f25789516359516e5f60e01b8152600080516020615a5a8339815191528185015246602482015230604482015260a06064820152969594939291908c88808e61030760a48301898c613074565b906084830152038173__$1a0918a2aa2208593bb0a5d7644cd0946b$__5af49788156104e857908b918b996104af575b508151631155a0c560e31b81528481018390529889919082908190610360604483018f8e613074565b90602483015203915afa80156104a55789978a91610466575b5015801561045e575b61044f57861690818952600f8c52898920546001810180911161043c578b0361042e57508752600f8a528888882055820191898184031261042a57803591821161042a576001969594936104066104007fbd6e57133956b4a3944b483a9e595b4aab16071cf15a39384fdb1b7015865aab958b9561040e9501612871565b86613234565b953691611ca4565b898151910120938151988952151597888a820152a35551908152f35b8680fd5b8951633485c51360e21b8152fd5b634e487b7160e01b8a526011825260248afd5b508851631bd18a1960e31b8152fd5b508615610382565b8098508b8092503d831161049e575b61047f8183611c66565b8101031261049a576104948c8851980161240b565b38610379565b8880fd5b503d610475565b8a513d8b823e3d90fd5b8e80929a508193503d83116104e1575b6104c98183611c66565b810103126104dd5751968a90610360610337565b8980fd5b503d6104bf565b8b513d8c823e3d90fd5b895162461bcd60e51b81528084018d9052600960248201526810b83937bb34b232b960b91b6044820152606490fd5b8751633018d46b60e11b8152fd5b8751633485c51360e21b8152fd5b8480fd5b8280fd5b919050346105415761055636611d21565b927f00000000000000000000000000000000000000000000000000000000000000006001600160a01b0316330361059557508352600760205282205580f35b8251633485c51360e21b8152fd5b50503461021f578160031936011261021f57517f00000000000000000000000000000000000000000000000000000000000000006001600160a01b03168152602090f35b9050346105415760a036600319011261054157610602611f3e565b5061060b611f54565b926084356001600160401b03811161021f5761062a90369084016122e6565b50508251632ecb094360e21b8152600283820152336024820152604480356001600160601b03169082015260209490858160648173__$1a0918a2aa2208593bb0a5d7644cd0946b$__5af490811561078a5791859187938591610758575b50808552600e8452828520549586156106fe575b505090600080516020615a3a833981519152929160018060a01b0316938481526003835281812086825283528181206106d860643582546127e6565b905584815260038352818120868252835220548551908152a35163f23a6e6160e01b8152f35b925080955061070e91935061303d565b600d546000198101919082116107455750928252600e855283822083905584908490600080516020615a3a8339815191523861069c565b634e487b7160e01b845260119052602483fd5b9250509181813d8311610783575b6107708183611c66565b8101031261054157859185915138610688565b503d610766565b85513d85823e3d90fd5b8284346107cf57816003193601126107cf57506107b86107cb926024359035612ffd565b90519182916020835260208301906123c5565b0390f35b80fd5b905034610541576020366003190112610541573591600d548310156107cf57506107fd6020926123aa565b91905490519160031b1c8152f35b9050346105415760203660031901126105415735916002548310156107cf575061083660209261238f565b905491519160018060a01b039160031b1c168152f35b9050346105415761085c36612280565b909391927f00000000000000000000000000000000000000000000000000000000000000006001600160a01b03163303610595578115610915575090600080516020615a3a833981519152918386526020916003835280872086885283528087206108c88382546127e6565b905584875260038352808720868852835285857f2b6c5ea65bb62b83a4f1947f0b9455af4b37990243b7fdbb11817b6124ed699983808b20549581519081528688820152a351908152a380f35b825163440a57bf60e01b8152fd5b8391503461021f57602036600319011261021f5761093f611f3e565b6001600160a01b0391907f000000000000000000000000000000000000000000000000000000000000000083163303610ae357821691610980831515612ec1565b828452600191600160205260ff868620541615610aba57849584849596526001602052862060ff19815416905585935b6109de575b85857f67c5a35d33d48c47ef33c82c62eda6254aad034fab4c51abe26a6d06ad174a348280a280f35b600280549081861015610ab3578391876109f78861238f565b949054600395861b1c1614610a135750505082809401936109b0565b91959094506000199291838101908111610aa05790610a4585610a38610a639461238f565b9054908a1b1c169161238f565b90919060018060a01b038084549260031b9316831b921b1916179055565b8354908115610a8d57500192610a788461238f565b81939154921b1b1916905555828080806109b5565b634e487b7160e01b885260319052602487fd5b634e487b7160e01b895260118352602489fd5b50506109b5565b606490602087519162461bcd60e51b83528201526003602482015262216f6b60e81b6044820152fd5b508351633485c51360e21b8152fd5b90503461054157608036600319011261054157815191610b1183611be6565b8135835260243560208401526044358184015260643560608401526002845414610b4a5783610b438460028355614858565b6001815580f35b51633018d46b60e11b8152fd5b9190503461054157610b6836611f20565b95929091600b5460ff8116610d21576002855414610d11576002855560081c60ff1615610d0157808214610d01578615610cf157808210908115610cea5782915b15610ce357915b610bba8383612ffd565b90610bc58582614b92565b50808652602097600389528787208688528952898888205410610cd557508798610c6d897f36a23558c84aea8a6a7bbadf50a454e47507746fa69bf7cf58db85d9bdf063d8948885600080516020615a3a8339815191528d9e8e60019f8f60809b8152600384528181208782528452818120610c428c82546127c3565b905585815260038452818120878252845220549051908152a3818c5193828580945193849201611cfe565b810160058152030190208688528a52610c8a8988209182546127e6565b9081815584885260038b528988208789528b52898820549186895260038c528a8920888a528c52898b8a2054920154918b519384528c8401528a8301526060820152a4555160018152f35b8751632fd8225d60e21b8152fd5b5081610bb0565b8091610ba9565b845163440a57bf60e01b81528690fd5b8451633485c51360e21b81528690fd5b8551633018d46b60e11b81528790fd5b8551633485c51360e21b81528790fd5b905034610541576020366003190112610541578035918215158303610d9a577f00000000000000000000000000000000000000000000000000000000000000006001600160a01b03163303610d8d5783610d8a84612fac565b80f35b51633485c51360e21b8152fd5b8380fd5b9190503461054157602092836003193601126107cf5782356001600160401b03811161021f57610dd19036908501612313565b6002825414610f9a578490600283558351610deb81611c1d565b60019160018252845b848110610f5c5750610e05826123ea565b52610e0f816123ea565b50600654855196879363b3f1ff7d60e01b855260848501918086015233602486015260809160806044870152845180915260a48601928760a48360051b89010196019389915b838310610ee3575050505050509082916064830152038173__$1a0918a2aa2208593bb0a5d7644cd0946b$__5af4928315610ed7578193610e9e575b5060019055519015158152f35b9092508381813d8311610ed0575b610eb68183611c66565b8101031261054157610ec960019161240b565b9290610e91565b503d610eac565b509051903d90823e3d90fd5b92959798610f48859882939694979b60a3199082030187528d610f358d519160c0908351855286840151878601528084015190850152606080840151908501528883015190808a8601528401906123c5565b9160a080920151918184039101526123c5565b9901930193018b979592938b979592610e55565b869491929451610f6b81611b7f565b868152868382015286888201526060878183015280608083015260a08201528282870101520190879391610df4565b505051633018d46b60e11b8152fd5b905034610541576020366003190112610541576020928291358152600e845220549051908152f35b905034610541576020366003190112610541578035917f00000000000000000000000000000000000000000000000000000000000000006001600160a01b03163303610d8d57821561102557505060065580f35b906020606492519162461bcd60e51b835282015260066024820152652164656c617960d01b6044820152fd5b50503461021f578160031936011261021f5760209060ff600b5460081c1690519015158152f35b905082346107cf5760a03660031901126107cf57611094611f3e565b5061109d611f54565b506001600160401b039060443582811161021f576110be90369085016122b6565b505060643582811161021f576110d790369085016122b6565b50506084359182116107cf57506064926110f6602092369085016122e6565b50505162461bcd60e51b8152918201526006602482015265042c4c2e8c6d60d31b6044820152fd5b9190503461054157606036600319011261054157813560ff8116809103610d9a57611147611f54565b6044356001600160601b03811692908390036111f7578351632ecb094360e21b8152948501526001600160a01b03166024840152604483015260208260648173__$1a0918a2aa2208593bb0a5d7644cd0946b$__5af49182156111ed5783926111b5575b6020838351908152f35b9091506020813d6020116111e5575b816111d160209383611c66565b8101031261054157602092505190386111ab565b3d91506111c4565b81513d85823e3d90fd5b8580fd5b50503461021f578160031936011261021f57602090600d549051908152f35b50503461021f578060209261122e36611d21565b90825260038552828220908252845220549051908152f35b50503461021f57602036600319011261021f5760209160ff9082906001600160a01b03611271611f3e565b1681526001855220541690519015158152f35b9050346105415760203660031901126105415760209282913581526007845220549051908152f35b50503461021f57602036600319011261021f5760209181906001600160a01b036112d4611f3e565b168152600f845220549051908152f35b8284346107cf5760203660031901126107cf57506113056107cb9235612ef5565b92516001600160a01b0390921682526001600160601b0316602082015260ff90911660408201529081906060820190565b50503461021f578160031936011261021f576020906006549051908152f35b9050346105415782600319360112610541577f00000000000000000000000000000000000000000000000000000000000000006001600160a01b031633036113d857600b549160ff8360081c1615610d8d57505061ff001916600b557f2d1a45ef958c367e9e35cbc9b77fa395634f978402b5a218b775b23b998c18698180a180f35b9051633485c51360e21b8152fd5b50503461021f576113f636612280565b91845260086020528284209084526020528183208054821015610d9a579061141d9161229a565b506001815491015482519182526020820152f35b83833461021f57602036600319011261021f5782356001600160401b038111610541576114619036908501611f8b565b9260028354146114885750600161147e6020946002855533613dce565b9255519015158152f35b9051633018d46b60e11b8152fd5b50503461021f57806020926114aa36611d21565b90825260098552828220908252845220549051908152f35b905034610541576020366003190112610541576020928291358152600a845220549051908152f35b8284346107cf5760203660031901126107cf5750813591600d54831015611527575061130561151b6107cb936123aa565b90549060031b1c612ef5565b606491519062461bcd60e51b825260208183015260248201526321746f6b60e01b6044820152fd5b83833461021f57602036600319011261021f5761156a611f3e565b6001600160a01b037f000000000000000000000000000000000000000000000000000000000000000081163303611659578116916115a9831515612ec1565b828452600160205260ff818520541661162e5782845260016020528320600160ff19825416179055600254600160401b81101561161b5790610a458260016115f4940160025561238f565b7fc395b1bd803c744a815bc34a0426e5eaac03513b9d76bf237a734a004916499c8280a280f35b634e487b7160e01b845260418552602484fd5b5162461bcd60e51b8152602081860152600660248201526565786973747360d01b6044820152606490fd5b8251633485c51360e21b81528590fd5b83833461021f57600319818136011261054157602435906001600160401b039081831161053d576101208336039182011261053d57600b5460ff811661172b57600286541461171b576002865560081c60ff161561170b576024830135906022190181121561053d578201908582013590811161053d5760606024910236039101136105415761147e60209461170460019336908301612871565b9035613234565b8351633485c51360e21b81528690fd5b8451633018d46b60e11b81528790fd5b8451633485c51360e21b81528790fd5b50503461021f578160031936011261021f5760209060ff600b541690519015158152f35b919050346105415761177036611f20565b9592600b9291925460ff8116610d21576002855414610d11576002855560081c60ff1615610d0157818114610d01578615610cf1576117af8382614b92565b508084526020956003875285852084865287528786862054106118795750600080516020615a1a8339815191528660019697988387526003825288872086885282528887206117ff8282546127c3565b905584875260038252888720868852825288872061181e8282546127e6565b905583875260038252888720868852825285858382878d808d20549051908152600080516020615a3a833981519152938491a3818a52600385528b8a20838b528552848c8b20548d51908152a38851908152a4555160018152f35b8551632fd8225d60e21b8152fd5b50503461021f578160031936011261021f5760209051600080516020615a5a8339815191528152f35b83833461021f5760c036600319011261021f576001600160401b03604435818111610d9a576118e29036908601611d80565b9060643581811161053d576118fa9036908701611e20565b6084358281116111f7576119119036908801611e80565b9160a4359081116111f7576119299036908801611ce0565b9260ff600b541661172b57600286541461171b57916001939161147e93602098600289556024359035612418565b8284346107cf57806003193601126107cf578151600280548083529083526020939284830192909183907f405787fa12a823e0f2b7631cc41b3ba8828b3321ca811111fa75cd3aa3bb5ace90845b8181106119ff57505050816119bb910382611c66565b83519485948186019282875251809352850193925b8281106119df57505050500390f35b83516001600160a01b0316855286955093810193928101926001016119d0565b82546001600160a01b0316845292880192600192830192016119a5565b50503461021f57611a2c36611d21565b9290815260106020528181209081548410156107cf5750608092611a4f91611d37565b50908154916001810154916003600283015492015492815194855260208501528301526060820152f35b8284346107cf5760203660031901126107cf578235906001600160401b0382116107cf57506020606093611ab3611ac69336908301611ce0565b9082855194838680955193849201611cfe565b820190815203019020805491600260018301549201549181519384526020840152820152f35b90503461054157816003193601126105415780356001600160401b038111610d9a576020611b22849593611b3493369101611ce0565b81855193828580945193849201611cfe565b810160058152030190206024358252602052206001815491015482519182526020820152f35b92915034610d9a576020366003190112610d9a5792602093358152600c845220548152f35b60c081019081106001600160401b03821117611b9a57604052565b634e487b7160e01b600052604160045260246000fd5b60a081019081106001600160401b03821117611b9a57604052565b606081019081106001600160401b03821117611b9a57604052565b608081019081106001600160401b03821117611b9a57604052565b61012081019081106001600160401b03821117611b9a57604052565b604081019081106001600160401b03821117611b9a57604052565b6001600160401b038111611b9a57604052565b602081019081106001600160401b03821117611b9a57604052565b601f909101601f19168101906001600160401b03821190821017611b9a57604052565b6001600160401b038111611b9a57601f01601f191660200190565b929192611cb082611c89565b91611cbe6040519384611c66565b829481845281830111611cdb578281602093846000960137010152565b600080fd5b9080601f83011215611cdb57816020611cfb93359101611ca4565b90565b60005b838110611d115750506000910152565b8181015183820152602001611d01565b6040906003190112611cdb576004359060243590565b8054821015611d535760005260206000209060021b0190600090565b634e487b7160e01b600052603260045260246000fd5b6001600160401b038111611b9a5760051b60200190565b81601f82011215611cdb578035906020611d9983611d69565b936040611da96040519687611c66565b848652828601918360a080970286010194818611611cdb578401925b858410611dd6575050505050505090565b8684830312611cdb578487918451611ded81611bb0565b86358152828701358382015285870135868201526060808801359082015260808088013590820152815201930192611dc5565b9080601f83011215611cdb576020908235611e3a81611d69565b93611e486040519586611c66565b81855260208086019260051b820101928311611cdb57602001905b828210611e71575050505090565b81358152908301908301611e63565b81601f82011215611cdb578035906020611e9983611d69565b936040611ea96040519687611c66565b848652828601918360a080970286010194818611611cdb578401925b858410611ed6575050505050505090565b8684830312611cdb578487918451611eed81611bb0565b86358152828701358382015285870135868201526060808801359082015260808088013590820152815201930192611ec5565b6080906003190112611cdb5760043590602435906044359060643590565b600435906001600160a01b0382168203611cdb57565b602435906001600160a01b0382168203611cdb57565b35906001600160a01b0382168203611cdb57565b35908115158203611cdb57565b919091610180908181850312611cdb5760408051909490926001600160401b0390840181811185821017611b9a57865283958335855260208085013581870152818501358287015260609182860135838801526080860135608088015260a0860135848111611cdb578601928084870312611cdb5781519361200c85611bcb565b8035868111611cdb57810187601f82011215611cdb5780359061202e82611d69565b9161203b86519384611c66565b808352868084019160051b830101918a8311611cdb5787809101915b8383106122705750505050855283810135868111611cdb578761207b918301611e20565b848601528281013590868211611cdb57019286601f85011215611cdb578335936120a485611d69565b946120b185519687611c66565b808652828087019160051b83010191898311611cdb57838101915b8383106121695750505050505082015260a085015260c0830135818111611cdb57826120f9918501611ce0565b60c085015260e0830135818111611cdb5782612116918501611ce0565b60e08501526101009182840135918211611cdb57612135918401611ce0565b90830152610120612147818301611f7e565b908301526101408082013590830152612164610160809201611f7e565b910152565b82358a8111611cdb578201808c03601f19018713611cdb5787519061218d82611bcb565b612198878201611f6a565b8252888101358c8111611cdb578d886121b392840101611ce0565b8783015287810135908c8211611cdb57018c603f82011215611cdb578c878201356121dd81611d69565b926121ea8c519485611c66565b8184528b8b8b86019302820101928311611cdb57918f9593918b8d8c979501975b83891061222857505050508394508a8201528152019201916120cc565b889496989192939597500312611cdb57898b918d80519061224882611bcb565b85358252838601358483015280860135908201528152019101949290918f928b8b969461220b565b8235815291810191889101612057565b6060906003190112611cdb57600435906024359060443590565b8054821015611d535760005260206000209060011b0190600090565b9181601f84011215611cdb578235916001600160401b038311611cdb576020808501948460051b010111611cdb57565b9181601f84011215611cdb578235916001600160401b038311611cdb5760208381860195010111611cdb57565b919060c083820312611cdb576040519061232c82611b7f565b81938035835260208101356020840152604081013560408401526060810135606084015260808101359160018060401b0392838111611cdb5781612371918401611ce0565b608085015260a0820135928311611cdb5760a0926121649201611ce0565b600254811015611d5357600260005260206000200190600090565b600d54811015611d5357600d60005260206000200190600090565b906020916123de81518092818552858086019101611cfe565b601f01601f1916010190565b805115611d535760200190565b8051821015611d535760209160051b010190565b51908115158203611cdb57565b91949293909360ff600b5460081c16156127b15782331415806127a7575b612795576040519461244786611c1d565b6001865260005b6020808210156124aa576040516020929161246882611c01565b60008252600081830152606080604084015280808401528060808401528060a0840152600060c084015260e08301526000610100830152828a0101520161244e565b505092959093949194604051916124c083611c01565b878352846020840152604083015284606083015285608083015260a0820152600060c08201526040516124f281611c4b565b6000815260e0820152600061010082015261250c826123ea565b52612516816123ea565b506040519063d017d69960e01b82528160a4810160036004830152600460248301526005604483015233606483015260a06084830152825180915260c4820190602060c48260051b8501019401916000905b828210612602575050505080602092038173__$1a0918a2aa2208593bb0a5d7644cd0946b$__5af49081156125f6576000916125bc575b50156125b3576125ae93613095565b600190565b50505050600090565b90506020813d6020116125ee575b816125d760209383611c66565b81010312611cdb576125e89061240b565b3861259f565b3d91506125ca565b6040513d6000823e3d90fd5b919350919360c319868203018252845190610120808201835183526020840151602084015260408401519160408401528151809152602061014084019201906000905b808210612755575050506060830151908281036060840152602080835192838152019201906000905b80821061273d575050506080830151908281036080840152602080835192838152019201906000905b8082106126fd5750505082602092610100806126e86126c5879660a060019a015186820360a08801526123c5565b888060a01b0360c08701511660c086015260e086015185820360e08701526123c5565b93015191015296019201920185939192612568565b909192602060a060019260808751805183528481015185840152604081015160408401526060810151606084015201516080820152019401920190612697565b9091926020806001928651815201940192019061266e565b909192602060a060019260808751805183528481015185840152604081015160408401526060810151606084015201516080820152019401920190612645565b604051633c4117f160e21b8152600490fd5b5084331415612436565b604051633485c51360e21b8152600490fd5b919082039182116127d057565b634e487b7160e01b600052601160045260246000fd5b919082018092116127d057565b9291926127ff82611d69565b60409461280f6040519283611c66565b81958483526020809301916060809602850194818611611cdb57925b85841061283b5750505050505050565b8684830312611cdb57848791845161285281611bcb565b863581528287013583820152858701358682015281520193019261282b565b91909161012081840312611cdb576040519061288c82611c01565b909283919081356001600160401b038111611cdb57820181601f82011215611cdb5780356128b981611d69565b916128c76040519384611c66565b81835260208084019260061b82010190848211611cdb57602001915b818310612e9057505050835260208201356001600160401b038111611cdb57820181601f82011215611cdb578181602061291f933591016127f3565b602084015260408201356001600160401b038111611cdb5781601f828501011215611cdb578083013561295181611d69565b9161295f6040519384611c66565b81835260208301908460208460051b838901010111611cdb57602081870101915b60208460051b83890101018310612d925750505050604084015260608201356001600160401b038111611cdb5781601f828501011215611cdb5780830135906129c882611d69565b916129d66040519384611c66565b808352602083018460208360051b858901010111611cdb57602083870101905b60208360051b85890101018210612c23575050505060608401526080828101356001600160401b038111611cdb57830182601f82011215611cdb578035612a3c81611d69565b91612a4a6040519384611c66565b81835260208084019260051b82010191858311611cdb5760208201905b838210612bf65750505050608085015260a08301356001600160401b038111611cdb57830182601f82011215611cdb578035612aa281611d69565b91612ab06040519384611c66565b81835260208084019260051b82010191858311611cdb5760208201905b838210612bc9575050505060a085015260c08301356001600160401b038111611cdb5783019082601f83011215611cdb57813591612b0a83611d69565b92612b186040519485611c66565b80845260208085019160071b83010191858311611cdb57602001905b828210612b85575050505060c084015260e08201356001600160401b038111611cdb5782019080601f83011215611cdb57816020612b74933591016127f3565b60e083015261010080910135910152565b8382870312611cdb5760208491604051612b9e81611be6565b8435815282850135838201526040850135604082015260608501356060820152815201910190612b34565b81356001600160401b038111611cdb57602091612beb89848094880101611f8b565b815201910190612acd565b81356001600160401b038111611cdb57602091612c1889848094880101612313565b815201910190612a67565b81356001600160401b038111611cdb5761012088860182018803601f190112611cdb5760405190612c5382611c01565b88860181016020818101358452604082013590840152606001356001600160401b038111611cdb57886020612c8e92848a8e01010101611d80565b60408301528886018101608001356001600160401b038111611cdb57886020612cbd92848a8e01010101611e20565b60608301526001600160401b03898701820160a0013511611cdb57612cef88878b01830160a081013501602001611e80565b60808301526001600160401b03898701820160c0013511611cdb57612d2188878b01830160c081013501602001611ce0565b60a0830152612d3660e082888c010101611f6a565b60c08301526001600160401b038987018201610100013511611cdb576020928392839261012090612d748c8b8f018301610100810135018701611ce0565b60e0840152898d0101013561010082015281520192019190506129f6565b82356001600160401b038111611cdb578288010160609081601f19828a030112611cdb5760405191612dc383611bcb565b60208281013584526040830135908401528101356001600160401b038111611cdb5788603f828401011215611cdb5760208183010135612e0281611d69565b92612e106040519485611c66565b81845260208401908b60408460061b868401010111611cdb57604084820101915b8c60408560061b87850101018410612e5f575050505060408401929092525050815260209283019201612980565b836040910312611cdb5760206040918251612e7981611c1d565b853581528286013583820152815201920191612e31565b604083860312611cdb5760206040918251612eaa81611c1d565b8535815282860135838201528152019201916128e3565b15612ec857565b60405162461bcd60e51b815260206004820152600560248201526410b0b2323960d91b6044820152606490fd5b90604051916392cf61e560e01b8352600483015260608260248173__$1a0918a2aa2208593bb0a5d7644cd0946b$__5af49081156125f657600080938193612f3e575b50929190565b925092506060823d606011612fa4575b81612f5b60609383611c66565b810103126105415781516001600160a01b0381168103610d9a576020830151926001600160601b038416840361053d57604001519360ff851685036107cf575091929138612f38565b3d9150612f4e565b600b54901515908160ff8216151514612ff95760ff191660ff821617600b556040519081527fb5838f871ddee4623a406029b1a0b6013e0ec30f2dc114307f21459a800a829690602090a1565b5050565b908082101561302157604051916020830152604082015260408152611cfb81611bcb565b90604051916020830152604082015260408152611cfb81611bcb565b600d54600160401b811015611b9a5780600161305c9201600d556123aa565b819291549060031b91821b91600019901b1916179055565b908060209392818452848401376000828201840152601f01601f1916010190565b9391909160005b82518110156130ce57806130c86130b5600193866123f7565b516130c181888b61507d565b888761507d565b0161309c565b5092905060005b815181101561322d576130e881836123f7565b5190602080830190815186898214159182613222575b505061279557835186898214159182613217575b5050612795578151845114801561320b575b6127b157608084019142835111156127b15784516000526010825260409485600020958251948183019485519360608082019889519185519087519261316984611be6565b835285830198895287830193845282019081528c54600160401b811015611b9a5761319b9060019e8f82018155611d37565b9390936131f55760019d7fbfd7274449bb908ddf203ddf1c94d588d62b66048e4a9b4b0bc4835067b0353699600394518655519085015551600284015551910155519451955196519151908351928352820152a4016130d5565b634e487b7160e01b600052600060045260246000fd5b50606084015115613124565b141590508638613112565b1415905086386130fe565b5050509050565b9190918251519061325d61324783611d69565b926132556040519485611c66565b808452611d69565b601f190136602084013760005b845180518210156132b05790613282816001936123f7565b51518360005260036020526040600020906000526020526040600020546132a982866123f7565b520161326a565b505090919260005b8151805182101561331057906132d0816001936123f7565b515160206132df8386516123f7565b5101519085600052600360205260406000209060005260205261330860406000209182546127e6565b9055016132b8565b5050919092600191826000905b613c18575b506000835b613ae9575b506060840151805161381b575b5060808085015180516136df575b505060005b60a08501518051821015613385576133678261336e926123f7565b5187613dce565b1561337c575b60010161334c565b60009350613374565b50509192909260005b604083015180518210156133c7576133a9826133b0926123f7565b51876151b3565b156133be575b60010161338e565b600091506133b6565b50509192909260005b60e08501518051821015613669576133eb82613414926123f7565b51602081016133fb81518a614b92565b5061340681516123aa565b939054600394851b1c612ef5565b8b6000949293945285602052604060002082516000526020526040600020549560408601968751116136575760ff928d91885183600052816020526040600020835160005260205261346c60406000209182546127c3565b9055815192600052602052604060002090516000526020528c600080516020615a3a8339815191526020604060002054604051908152a31680613549575050602090604460018060a01b038094511694516000604051958694859363a9059cbb60e01b85526004998a8601526024850152165af19081156125f65760009161350f575b501561350057506001905b016133d0565b604051632fd8225d60e21b8152fd5b906020823d602011613541575b8161352960209383611c66565b810103126107cf575061353b9061240b565b386134ef565b3d915061351c565b9294939092600181036135c957505092516001600160a01b039384169316833b15611cdb576040516323b872dd60e01b81529360009285928391859183916135a1916001600160601b03909116903060048501614836565b03925af19182156125f6576001926135ba575b506134fa565b6135c390611c38565b386135b4565b909491906002146135e1575b505050600191506134fa565b905193516001600160a01b0394851694909116803b15611cdb57604051637921219560e11b815294600093869384928692849261362e9290916001600160601b0316903060048601614802565b03925af19182156125f657600192613648575b80806135d5565b61365190611c38565b38613641565b604051632fd8225d60e21b8152600490fd5b50509290939160005b825180518210156136d65781613687916123f7565b515160206136968386516123f7565b510151908560005260036020526040600020906000526020526136c9604060002054916136c384896123f7565b516127e6565b1161365757600101613672565b50509250505090565b906006549060405192839163b3f1ff7d60e01b8352608483016004808501528a602485015260806044850152825180915260a4840191602060a48360051b8701019401926000915b8383106137b657505050505081906020936064830152038173__$1a0918a2aa2208593bb0a5d7644cd0946b$__5af49081156125f65760009161377c575b5015613773575b3880613347565b6000925061376c565b90506020813d6020116137ae575b8161379760209383611c66565b81010312611cdb576137a89061240b565b38613765565b3d915061378a565b9193969550919360208061380860019360a3198c82030187528a51610f3560c082518452858301518685015260408301516040850152606083015160608501528883015190808a8601528401906123c5565b9801930193019092879596949293613727565b604095939195949294519063d017d69960e01b82528160a4810160036004830152600460248301526005604483015286606483015260a06084830152825180915260c4820190602060c48260051b8501019401916000905b828210613940575050505080602092038173__$1a0918a2aa2208593bb0a5d7644cd0946b$__5af49081156125f657600091613906575b50156138fe575b60005b606083015180518210156138f157906138eb6138d2826001946123f7565b5180519060208101516080606083015192015192613095565b016138b4565b5050919392909238613339565b5060006138b1565b90506020813d602011613938575b8161392160209383611c66565b81010312611cdb576139329061240b565b386138aa565b3d9150613914565b9193509193869060c319878203018352855190610120808201835183526020840151602084015260408401519160408401528151809152602061014084019201906000905b808210613aa2575050506060830151908281036060840152602080835192838152019201906000905b808210613a88575050506080830151908281036080840152602080835192838152019201906000905b808210613a42575050509160209291613a28613a00859460a085015184820360a08601526123c5565b60c0848101516001600160a01b03169084015260e080850151848303918501919091526123c5565b916101008091015191015296019201920185939192613873565b91939495909260a06020916080875180518352848101518584015260408101516040840152606081015160608401520151608082015201940192018b95949392916139d7565b825184528c966020948501949093019291909101906139ae565b91939495909260a0602091865180518252838101518483015260408101516040830152606081015160608301526080809101519082015201940192018b9594939291613985565b60208501518051821015613c125781613b01916123f7565b516020810191613b12835189614b92565b5087600052600392836020526040830190604060002081516000526020526040600020548251116136575789600080516020615a1a83398151915260208a97968897865185600052818452604060002087516000528452613b7960406000209182546127c3565b905586518251600052818452604060002087516000528452613ba160406000209182546127e6565b90558286518660005282825260406000208851600052825286604060002054604051908152600080516020615a3a833981519152938491a382519087519282600052855260406000208851600052855284604060002054604051908152a35193519451604051908152a40190613327565b5061332c565b60c08501518051821015613c5c5781613c30916123f7565b51805115613c54575b868151036127b1578491613c4d8392614858565b019061331d565b868152613c39565b50613322565b90815180825260208080930193019160005b828110613c82575050505090565b835185529381019392810192600101613c74565b906020808352815190613cb56060926060838701526080860190613c62565b8184015190601f199460409186888203018389015284808551928381520194019060005b818110613dba5750505081015195606086828503019101528551938483528383019184808760051b8601019801966000945b878610613d1e5750505050505050505090565b90919293949596979882828203018652878a5160018060a01b03815116835285613d53838301518985870152898601906123c5565b91015192868183039101528180845192838152019301906000905b88818310613d915750505050806001929b01960196019497969593929190613d0b565b8395896001949693955180518352848101518584015201518a82015201940192018a9291613d6e565b825186529486019491860191600101613cd9565b919091613ddc835182612ffd565b6101608401511561452d57604080518251602091828181870193613e01818387611cfe565b81016004815203019020541561451c5781613e26918451809381928851928391611cfe565b81016004815203019020548160a08801518451613e5881613e4a8582019485613c96565b03601f198101835282611c66565b51902060e08901518051908301206101008a01518a518751633c2934c160e01b815260c0600482015295869485949293613ebc939091613e9b60c488018e6123c5565b936024880152604487015260648601526003198583030160848601526123c5565b9060a4830152038173__$1a0918a2aa2208593bb0a5d7644cd0946b$__5af4918215614511576000926144db575b5050156144cb57506002613f3560206000935b60405190856001825193858181860196613f1881838a611cfe565b810160048152030190200155604051938492839251928391611cfe565b81016004815203019020015582519260a08101519160e060c0830151920151602084015151845151036144b9578582109586156144b257825b87156144aa5750925b86156144a35780965b1561449b5750915b613f928183612ffd565b9084515194613fa086611d69565b95613fae6040519788611c66565b808752613fbd601f1991611d69565b01366020880137859360005b82518051821015613ff35790613fe1816001936123f7565b51613fec828b6123f7565b5201613fc9565b5050929550929590939680511515600014614484578060208061401b9351830101910161532b565b965b80511561446757806020806140379351830101910161532b565b969092969491945b6000945b604089015180518710156142a5578661405b916123f7565b519860018060a01b038a51169760208b015198855189106000146142905761408389876123f7565b515b85518a101561427a578b6140998b886123f7565b515b604051630c6191f960e11b8152608060048201529c8d9384936140c2906084860190613c62565b9160031992838682030160248701526140da916123c5565b828582030160448601526140ed916123c5565b90838203016064840152614100916123c5565b03815a6000948591f19889156125f6576000996141d3575b5060005b60408c015180518210156141bf5781614134916123f7565b5161414081518c6123f7565b519061414e8d8251906123f7565b516000811283828103128116908483810313901516176127d057600081840313806141b0575b6127b1576000818403129283614194575b5050506127b15760010161411c565b6020929350906141a491036153fc565b91015110388080614185565b50604082015181840311614174565b50919a509798505060019590950194614043565b9098503d806000833e6141e68183611c66565b810190602081830312611cdb578051916001600160401b038311611cdb5780601f848401011215611cdb57828201519161421f83611d69565b9361422d6040519586611c66565b838552602085019260208560051b838501010111611cdb57602081830101925b60208560051b8385010101841061426a5750505050509738614118565b835181526020938401930161424d565b8b60405161428781611c4b565b6000815261409b565b60405161429c81611c4b565b60008152614085565b50945050509294939060009060208501915b6020870151805182101561442c5781600060018b8a896142fd60208b6142ea896142e3849d8a9d6123f7565b51956123f7565b5194604051938492839251928391611cfe565b81016005815203019020818652885260408520928354908684121587146143a85781841115871461437857838381614367575b509050811161434b575b5050505b82815501550190506142b7565b61435f92614358916127c3565b908c61577f565b38808061433a565b6143709261577f565b8f8383614330565b9190806143939461438c92614398576127c3565b918d615912565b61433e565b6143a382858761577f565b6127c3565b9190926143b4906153fc565b928d818511158814614408578483816143f7575b50905081116143db575b5050505061433e565b6143ee936143e8916127c3565b9161577f565b388d81806143d2565b6144009261577f565b8d84836143c8565b90806143939561441b92614421576127c3565b92615912565b6143a382868661577f565b5050955091505061444c9250602091604051938492839251928391611cfe565b810160048152030190206144608154614b72565b9055600190565b5060405161447481611c4b565b600081529690929694919461403f565b5060405161449181611c4b565b600081529661401d565b905091613f88565b8196613f80565b905092613f77565b8092613f6e565b6040516329be7c4760e11b8152600490fd5b51631bd18a1960e31b8152600490fd5b90809250813d831161450a575b6144f28183611c66565b81010312611cdb576145039061240b565b3880613eea565b503d6144e8565b83513d6000823e3d90fd5b82516388d0662b60e01b8152600490fd5b60408051908251602090600182860191614548818785611cfe565b85019483816004978881520301902001549081156147f25782908673__$1a0918a2aa2208593bb0a5d7644cd0946b$__918b87518581855161458b818388611cfe565b81018c815203019020549585898301978b8b8a51958761012082019d8e5115159a8451809381925180926145be92611cfe565b8101868152030190206002015460808201998a519260e00151935198899687966303d0627d60e41b8852870152602486015260448501526064840152608483015260a4820160c0905260c48201614614916123c5565b0381885af49182156147e7576000926147b8575b50036147a857868c8a94938a936101008301998a5151151560001461471557505050613e9b949286949261468b838760c0950151908b519c606082019d8e519151925195519b8c9a8b998a996325e7af8960e01b8b528a015260c48901906123c5565b9060a483015203915af491821561470a576000926146d4575b5050156146c5575190511115610d8d5750506002613f356020600093613efd565b505051631bd18a1960e31b8152fd5b90809250813d8311614703575b6146eb8183611c66565b81010312611cdb576146fc9061240b565b38806146a4565b503d6146e1565b85513d6000823e3d90fd5b955096985096505050508491505115158a51891014918261477b575b505061476c575190613e4a61475360a08a015192855192839182019485613c96565b51902003610d8d5750506002613f356020600093613efd565b505051633485c51360e21b8152fd5b6002925090614794918651809381928b51928391611cfe565b810188815203019020015443108238614731565b8651630cba69cb60e01b81528890fd5b9091508581813d83116147e0575b6147d08183611c66565b81010312611cdb57519038614628565b503d6147c6565b89513d6000823e3d90fd5b505050516388d0662b60e01b8152fd5b929060c0949260018060a01b0380921685521660208401526040830152606082015260a06080820152600060a08201520190565b6001600160a01b03918216815291166020820152604081019190915260600190565b9081516000908015600014614b6d5750335b6060840191825115614b5b576040908186019384518015600014614b3957506020870180518352600e6020528383205480875215614af6575b50816148bc949596975b60ff6020968780930151612ef5565b9192909116806149af5750506148eb90845187519485809481936323b872dd60e01b8352303360048501614836565b03926001600160a01b03165af19081156149a5578391614970575b501561495f57918091600080516020615a3a83398151915294935b51868252600385528282208851835285526149408383209182546127e6565b90558651968682526003855282822090518252845220549051908152a3565b8251632fd8225d60e21b8152600490fd5b90508481813d831161499e575b6149878183611c66565b81010312610541576149989061240b565b38614906565b503d61497d565b84513d85823e3d90fd5b90935090915060018103614a4057506001600160a01b031690813b15610d9a5784516323b872dd60e01b81529184918391908290849082906149ff906001600160601b0316303360048501614836565b03925af180156149a557614a2c575b50918091836001600080516020615a3a833981519152969552614921565b614a368391611c38565b61021f5738614a0e565b9295949392600214614a66575b50508190600080516020615a3a83398151915294614921565b60018060a0979596971b0316835191813b15610d9a578551637921219560e11b815292849284929091839185918391614aae91906001600160601b0316303360048601614802565b03925af18015614aec5791849391600080516020615a3a833981519152969593614add575b5091819550614a4d565b614ae690611c38565b38614ad3565b84513d84823e3d90fd5b614b00815161303d565b600d54600019810191908211614b2557818752518352600e60205283832055816148a3565b634e487b7160e01b84526011600452602484fd5b6148bc94959697614b4a84926123aa565b90549060031b1c60208201526148ad565b60405163440a57bf60e01b8152600490fd5b61486a565b60001981146127d05760010190565b906131f55760018160008093550155565b6000818152602090600882526040918282208583528152828220938454958615614e6457818452600983528484208185528352848420549787891015614e5b575b828552600384528585208286528452858520549085988215614e355798995b89811080614e2c575b80614e21575b15614db557614c10818a61229a565b50600190818101918254918215614d9f57549282871015614d9957865b8c8c8a8d84614d59575b505050505082151580614d51575b614d28575b614c558382546127c3565b9280614cf357508a90558301808411614cdf57614cc392886000805160206159fa8339815191526060614cc997958f958f968f978e988251948552840152820152a4868952600a8852898920805480614cd2575b5050614cbe614cb8828d61229a565b90614b81565b614b72565b9a614b72565b985b9899614bf2565b6000190190553880614ca9565b634e487b7160e01b8a52601160045260248afd5b859f94925060608994614cc9978f848f8f97966000805160206159fa83398151915297558251948552840152820152a4614b72565b614d348389868c61558c565b614d3e81856127c3565b614d49575b50614c4a565b925038614d43565b508615614c45565b9282614d8e96989c92614d88958b889652600381528383209183525220614d818382546127e6565b90556127c3565b976127c3565b91388c8c8a8d614c37565b82614c2d565b50505050614daf909a999a614b72565b99614ccb565b9398509850909295508684526003865284842083855286528484205585835260098552838320828452855283832055614dee818661540d565b848252600884528282208183528452828220938454156136d657611cfb9583526009815283832091835252205490615536565b506000198b10614c01565b50821515614bfb565b50989297505091945085835260098552838320828452855283832055614dee818661540d565b97508397614bd3565b9280965080955052600981528284209184525281205590565b6000818152602090600882526040918282208583528152828220938454958615614e6457818452600983528484208185528352848420549787891015615074575b828552600384528585208286528452858520549085988215614e355798995b8981108061506b575b80615060575b15614db557614efb818a61229a565b5060019081810191825491821561504a5754928287101561504457865b8c8c8a8d84615011575b505050505082151580615009575b614fe0575b614f408382546127c3565b9280614fab57508a90558301808411614cdf57614cc392886000805160206159fa8339815191526060614fa297958f958f968f978e988251948552840152820152a4868952600a8852898920805480614cd2575050614cbe614cb8828d61229a565b985b9899614edd565b859f94925060608994614fa2978f848f8f97966000805160206159fa83398151915297558251948552840152820152a4614b72565b614fec8389868c61558c565b614ff681856127c3565b615001575b50614f35565b925038614ffb565b508615614f30565b928261503996989c92614d88958b889652600381528383209183525220614d818382546127e6565b91388c8c8a8d614f22565b82614f18565b5050505061505a909a999a614b72565b99614fa4565b506000198b10614eec565b50821515614ee6565b97508397614ebe565b929190926000938185526020906009825260409586812085825283528681205492848252600881528782208683528152878220918254945b8581106150cf575050505050506150cd92935061540d565b565b80856150dc8c938761229a565b5054148061519c575b6150f4575b60019150016150b5565b888689615101848961229a565b508660018092015491615114878c61229a565b500155818752600a8852858720805480158015615155575b50505085600080516020615a7a8339815191529160019751908152868a820152a48a91506150ea565b935093509350939450615188576000190190558a9190899087908a9085600080516020615a7a833981519152600161512c565b634e487b7160e01b85526011600452602485fd5b5060016151a9828761229a565b50015415156150e5565b815160209384840151916151c78185614e7d565b5060005b6040808701908151805184101561531c576151f4846151eb818d946123f7565b515194516123f7565b510151906152028388612ffd565b88600052600390818c5282600020876000528c52838360002054101560001461530b57918b8792615244828c9998979681865193828580945193849201611cfe565b8101600581520301902084600052825282600020908c600052825282600020846000528252826000206152788682546127c3565b90556152858582546127e6565b948582558689106152d3575b50926060926001989592897ffb4e90f768448be74d7bcc3de131a349c0fc3ba3416e4d81df2cf01574ff072e960154908251948552840152820152a3016151cb565b97508093506001915093919301908154600088820198891291129080158216911516176127d05795905587949186918c906060615291565b505050505050509350505050600090565b50505050509350505050600190565b6020908181840312611cdb5780516001600160401b0391828211611cdb57019083601f83011215611cdb57815161536181611d69565b946040926153726040519788611c66565b828752858088019360051b86010194828611611cdb57868101935b86851061539f57505050505050505090565b8451838111611cdb5782019084603f83011215611cdb5788820151906153c482611c89565b6153d089519182611c66565b82815286898486010111611cdb576153f18b949385948b8685019101611cfe565b81520194019361538d565b600160ff1b81146127d05760000390565b906000828152602091600883526040908183208184528452818320948554801561551f57818552600986528385208386528652838520549681881015615516575b965b81811080615500575b1561546c5761546790614b72565b615450565b919293949596508110156000146154ec5750808452600985528284208285528552838381205583526008845281832090835283528120805492828255836154b4575b50505050565b6001916001600160ff1b0385168503614b2557835282209260011b8301925b838110156154ae578083600292558383820155016154d3565b908452600985528284209184529352902055565b50600161550d828a61229a565b50015415615459565b9650849661544e565b508352600984528183209083529092529081205550565b919060009280549182811015615583575b82811061555357505050565b600161555f828461229a565b50015461556f575b600101615547565b9361557b600191614b72565b949050615567565b50600093505050565b918392600095818752602092601084526040918289209081549889156157725750600c8652838a20549788905b8a821080615769575b15615755576155d18285611d37565b50998a918d8760018095015414801590615748575b801561573c575b61572e578a8d91825480825260038093528d8c8320908c84525260028c8320549401938454908082106000146157265750955b85871161571d575b861561570a57508f8f968f92968f968f958f80859b917f4f02c680c56246ffd693c94e5f46c036a01b12950c88219159645a302816307b9a600080516020615a3a8339815191528a8c876156c09c8c986156b59a5285845282822087835284528282206156968a82546127c3565b905554948582528352818120868252835220548d51908152a38c61577f565b614d818382546127c3565b9f6156cf868d835490886157dc565b5054948251918c8352820152a481018082116156f6576156ef9091614b72565b90986155b9565b634e487b7160e01b8c52601160045260248cfd5b979550505050509a506156ef9150614b72565b95508495615628565b905095615620565b509a50916156ef9150614b72565b5060028d0154156155ed565b5060038d015442116155e6565b9a969497505097505050600c918352522055565b508015156155c2565b9950975050505050505050565b909180156157d75760206040600080516020615a3a833981519152926000908582526003845282822087835284526157bb8383209182546127e6565b90558481526003835281812086825283522054604051908152a3565b505050565b93929391909181156127b1578415614b5b5760009481865260209060088252604091828820868952815282882083519061581582611c1d565b86825282820184815281549091600160401b8210156158fe579061583e9160018201815561229a565b9290926158ea5751825551600190910155838852600881528288208689528152828820546000198101919082116158d657908392917fae767eeb0c57abd46e2e0b422895ba3b89372fbd0510a58f00d996faf66f027d94829a83156158bd575b878152600a8352206158b08154614b72565b90558351928352820152a4565b878152600983528181208a82528352808281205561589e565b634e487b7160e01b89526011600452602489fd5b634e487b7160e01b8b5260048b905260248bfd5b634e487b7160e01b8c52604160045260248cfd5b909280156154ae5761595b90600090838252848460209360038552604094858220848352815285822054858110156000146159f3575084955b86615997575b50505050506127c3565b80156154ae5761596d9083858461558c565b92836159795750505050565b61598e936159889184846157dc565b5061540d565b388080806154ae565b808385600080516020615a3a83398151915295526003845281812087825284528181206159c58a82546127c3565b905585815260038452818120878252845220549051908152a36159e982868861577f565b8484388080615951565b9561594b56fe1ffe8e6348fe244a8988797c02b57999821149e7b25c9f93a85c77819efdde67ae4812ebb7c47ac957e097b649541f0cd55d34b3576fb0db5739591d6f684367ab4d21442efe134c3d0c087e2b687e9593a1c09176f498d37873210cde052c45990f4c22d4b046a9a7d673c4a252b906cadd4f3290465e297f998c28a449652b0971ac81b80f99fe0089c3fbe4af4fa1148f2ce78bc6345e76b05be73500de1fa26469706673582212209c26d6496af2f2f94237cda518ac60f57f12812dc5902c884228612b8fe507c264736f6c63430008180033",
  "linkReferences": {
    "contracts/Account.sol": {
      "Account": [
        {
          "length": 20,
          "start": 1019
        },
        {
          "length": 20,
          "start": 1866
        },
        {
          "length": 20,
          "start": 3928
        },
        {
          "length": 20,
          "start": 4722
        },
        {
          "length": 20,
          "start": 9829
        },
        {
          "length": 20,
          "start": 12283
        },
        {
          "length": 20,
          "start": 14379
        },
        {
          "length": 20,
          "start": 14704
        },
        {
          "length": 20,
          "start": 16304
        },
        {
          "length": 20,
          "start": 17999
        }
      ]
    }
  },
  "deployedLinkReferences": {
    "contracts/Account.sol": {
      "Account": [
        {
          "length": 20,
          "start": 785
        },
        {
          "length": 20,
          "start": 1632
        },
        {
          "length": 20,
          "start": 3694
        },
        {
          "length": 20,
          "start": 4488
        },
        {
          "length": 20,
          "start": 9595
        },
        {
          "length": 20,
          "start": 12049
        },
        {
          "length": 20,
          "start": 14145
        },
        {
          "length": 20,
          "start": 14470
        },
        {
          "length": 20,
          "start": 16070
        },
        {
          "length": 20,
          "start": 17765
        }
      ]
    }
  }
}