{
  "_format": "hh-sol-artifact-1",
  "contractName": "Depository",
  "sourceName": "contracts/Depository.sol",
  "abi": [
    {
      "inputs": [],
      "stateMutability": "nonpayable",
      "type": "constructor"
    },
    {
      "inputs": [],
      "name": "E0",
      "type": "error"
    },
    {
      "inputs": [],
      "name": "E1",
      "type": "error"
    },
    {
      "inputs": [],
      "name": "E2",
      "type": "error"
    },
    {
      "inputs": [],
      "name": "E3",
      "type": "error"
    },
    {
      "inputs": [],
      "name": "E4",
      "type": "error"
    },
    {
      "inputs": [],
      "name": "E5",
      "type": "error"
    },
    {
      "inputs": [],
      "name": "E6",
      "type": "error"
    },
    {
      "inputs": [],
      "name": "E7",
      "type": "error"
    },
    {
      "inputs": [],
      "name": "E8",
      "type": "error"
    },
    {
      "inputs": [],
      "name": "E9",
      "type": "error"
    },
    {
      "anonymous": false,
      "inputs": [
        {
          "components": [
            {
              "internalType": "bytes32",
              "name": "left",
              "type": "bytes32"
            },
            {
              "internalType": "bytes32",
              "name": "right",
              "type": "bytes32"
            },
            {
              "internalType": "uint256",
              "name": "tokenId",
              "type": "uint256"
            },
            {
              "internalType": "uint256",
              "name": "leftReserve",
              "type": "uint256"
            },
            {
              "internalType": "uint256",
              "name": "rightReserve",
              "type": "uint256"
            },
            {
              "internalType": "uint256",
              "name": "collateral",
              "type": "uint256"
            },
            {
              "internalType": "int256",
              "name": "ondelta",
              "type": "int256"
            }
          ],
          "indexed": false,
          "internalType": "struct Settled[]",
          "name": "",
          "type": "tuple[]"
        }
      ],
      "name": "AccountSettled",
      "type": "event"
    },
    {
      "anonymous": false,
      "inputs": [
        {
          "indexed": true,
          "internalType": "bytes32",
          "name": "sender",
          "type": "bytes32"
        },
        {
          "indexed": true,
          "internalType": "bytes32",
          "name": "counterentity",
          "type": "bytes32"
        },
        {
          "indexed": true,
          "internalType": "uint256",
          "name": "cooperativeNonce",
          "type": "uint256"
        }
      ],
      "name": "CooperativeClose",
      "type": "event"
    },
    {
      "anonymous": false,
      "inputs": [
        {
          "indexed": true,
          "internalType": "bytes32",
          "name": "debtor",
          "type": "bytes32"
        },
        {
          "indexed": true,
          "internalType": "bytes32",
          "name": "creditor",
          "type": "bytes32"
        },
        {
          "indexed": true,
          "internalType": "uint256",
          "name": "tokenId",
          "type": "uint256"
        },
        {
          "indexed": false,
          "internalType": "uint256",
          "name": "amount",
          "type": "uint256"
        },
        {
          "indexed": false,
          "internalType": "uint256",
          "name": "debtIndex",
          "type": "uint256"
        }
      ],
      "name": "DebtCreated",
      "type": "event"
    },
    {
      "anonymous": false,
      "inputs": [
        {
          "indexed": true,
          "internalType": "bytes32",
          "name": "debtor",
          "type": "bytes32"
        },
        {
          "indexed": true,
          "internalType": "bytes32",
          "name": "creditor",
          "type": "bytes32"
        },
        {
          "indexed": true,
          "internalType": "uint256",
          "name": "tokenId",
          "type": "uint256"
        },
        {
          "indexed": false,
          "internalType": "uint256",
          "name": "amountPaid",
          "type": "uint256"
        },
        {
          "indexed": false,
          "internalType": "uint256",
          "name": "remainingAmount",
          "type": "uint256"
        },
        {
          "indexed": false,
          "internalType": "uint256",
          "name": "newDebtIndex",
          "type": "uint256"
        }
      ],
      "name": "DebtEnforced",
      "type": "event"
    },
    {
      "anonymous": false,
      "inputs": [
        {
          "indexed": true,
          "internalType": "bytes32",
          "name": "debtor",
          "type": "bytes32"
        },
        {
          "indexed": true,
          "internalType": "bytes32",
          "name": "creditor",
          "type": "bytes32"
        },
        {
          "indexed": true,
          "internalType": "uint256",
          "name": "tokenId",
          "type": "uint256"
        },
        {
          "indexed": false,
          "internalType": "uint256",
          "name": "amountForgiven",
          "type": "uint256"
        },
        {
          "indexed": false,
          "internalType": "uint256",
          "name": "debtIndex",
          "type": "uint256"
        }
      ],
      "name": "DebtForgiven",
      "type": "event"
    },
    {
      "anonymous": false,
      "inputs": [
        {
          "indexed": true,
          "internalType": "bytes32",
          "name": "sender",
          "type": "bytes32"
        },
        {
          "indexed": true,
          "internalType": "bytes32",
          "name": "counterentity",
          "type": "bytes32"
        },
        {
          "indexed": true,
          "internalType": "uint256",
          "name": "disputeNonce",
          "type": "uint256"
        },
        {
          "indexed": false,
          "internalType": "bytes",
          "name": "initialArguments",
          "type": "bytes"
        }
      ],
      "name": "DisputeStarted",
      "type": "event"
    },
    {
      "anonymous": false,
      "inputs": [
        {
          "indexed": false,
          "internalType": "bool",
          "name": "isPaused",
          "type": "bool"
        }
      ],
      "name": "EmergencyPauseToggled",
      "type": "event"
    },
    {
      "anonymous": false,
      "inputs": [
        {
          "indexed": true,
          "internalType": "address",
          "name": "provider",
          "type": "address"
        }
      ],
      "name": "EntityProviderAdded",
      "type": "event"
    },
    {
      "anonymous": false,
      "inputs": [
        {
          "indexed": true,
          "internalType": "address",
          "name": "provider",
          "type": "address"
        }
      ],
      "name": "EntityProviderRemoved",
      "type": "event"
    },
    {
      "anonymous": false,
      "inputs": [
        {
          "indexed": true,
          "internalType": "bytes32",
          "name": "entityId",
          "type": "bytes32"
        },
        {
          "indexed": true,
          "internalType": "bytes32",
          "name": "hankoHash",
          "type": "bytes32"
        },
        {
          "indexed": false,
          "internalType": "uint256",
          "name": "nonce",
          "type": "uint256"
        },
        {
          "indexed": false,
          "internalType": "bool",
          "name": "success",
          "type": "bool"
        }
      ],
      "name": "HankoBatchProcessed",
      "type": "event"
    },
    {
      "anonymous": false,
      "inputs": [
        {
          "indexed": true,
          "internalType": "bytes32",
          "name": "insured",
          "type": "bytes32"
        },
        {
          "indexed": true,
          "internalType": "bytes32",
          "name": "insurer",
          "type": "bytes32"
        },
        {
          "indexed": true,
          "internalType": "bytes32",
          "name": "creditor",
          "type": "bytes32"
        },
        {
          "indexed": false,
          "internalType": "uint256",
          "name": "tokenId",
          "type": "uint256"
        },
        {
          "indexed": false,
          "internalType": "uint256",
          "name": "amount",
          "type": "uint256"
        }
      ],
      "name": "InsuranceClaimed",
      "type": "event"
    },
    {
      "anonymous": false,
      "inputs": [
        {
          "indexed": true,
          "internalType": "bytes32",
          "name": "insured",
          "type": "bytes32"
        },
        {
          "indexed": true,
          "internalType": "bytes32",
          "name": "insurer",
          "type": "bytes32"
        },
        {
          "indexed": true,
          "internalType": "uint256",
          "name": "tokenId",
          "type": "uint256"
        },
        {
          "indexed": false,
          "internalType": "uint256",
          "name": "limit",
          "type": "uint256"
        },
        {
          "indexed": false,
          "internalType": "uint256",
          "name": "expiresAt",
          "type": "uint256"
        }
      ],
      "name": "InsuranceRegistered",
      "type": "event"
    },
    {
      "anonymous": false,
      "inputs": [
        {
          "indexed": true,
          "internalType": "bytes32",
          "name": "entity",
          "type": "bytes32"
        },
        {
          "indexed": true,
          "internalType": "uint256",
          "name": "tokenId",
          "type": "uint256"
        },
        {
          "indexed": false,
          "internalType": "uint256",
          "name": "amount",
          "type": "uint256"
        },
        {
          "indexed": false,
          "internalType": "uint256",
          "name": "newBalance",
          "type": "uint256"
        }
      ],
      "name": "ReserveMinted",
      "type": "event"
    },
    {
      "anonymous": false,
      "inputs": [
        {
          "indexed": true,
          "internalType": "bytes32",
          "name": "from",
          "type": "bytes32"
        },
        {
          "indexed": true,
          "internalType": "bytes32",
          "name": "to",
          "type": "bytes32"
        },
        {
          "indexed": true,
          "internalType": "uint256",
          "name": "tokenId",
          "type": "uint256"
        },
        {
          "indexed": false,
          "internalType": "uint256",
          "name": "amount",
          "type": "uint256"
        }
      ],
      "name": "ReserveTransferred",
      "type": "event"
    },
    {
      "anonymous": false,
      "inputs": [
        {
          "indexed": true,
          "internalType": "bytes32",
          "name": "entity",
          "type": "bytes32"
        },
        {
          "indexed": true,
          "internalType": "uint256",
          "name": "tokenId",
          "type": "uint256"
        },
        {
          "indexed": false,
          "internalType": "uint256",
          "name": "newBalance",
          "type": "uint256"
        }
      ],
      "name": "ReserveUpdated",
      "type": "event"
    },
    {
      "anonymous": false,
      "inputs": [
        {
          "indexed": true,
          "internalType": "bytes32",
          "name": "leftEntity",
          "type": "bytes32"
        },
        {
          "indexed": true,
          "internalType": "bytes32",
          "name": "rightEntity",
          "type": "bytes32"
        },
        {
          "indexed": true,
          "internalType": "uint256",
          "name": "tokenId",
          "type": "uint256"
        },
        {
          "indexed": false,
          "internalType": "uint256",
          "name": "leftReserve",
          "type": "uint256"
        },
        {
          "indexed": false,
          "internalType": "uint256",
          "name": "rightReserve",
          "type": "uint256"
        },
        {
          "indexed": false,
          "internalType": "uint256",
          "name": "collateral",
          "type": "uint256"
        },
        {
          "indexed": false,
          "internalType": "int256",
          "name": "ondelta",
          "type": "int256"
        }
      ],
      "name": "SettlementProcessed",
      "type": "event"
    },
    {
      "anonymous": false,
      "inputs": [],
      "name": "TestModeDisabled",
      "type": "event"
    },
    {
      "anonymous": false,
      "inputs": [
        {
          "indexed": true,
          "internalType": "bytes32",
          "name": "receivingEntity",
          "type": "bytes32"
        },
        {
          "indexed": true,
          "internalType": "bytes32",
          "name": "counterentity",
          "type": "bytes32"
        },
        {
          "indexed": false,
          "internalType": "uint256",
          "name": "collateral",
          "type": "uint256"
        },
        {
          "indexed": false,
          "internalType": "int256",
          "name": "ondelta",
          "type": "int256"
        },
        {
          "indexed": false,
          "internalType": "uint256",
          "name": "tokenId",
          "type": "uint256"
        }
      ],
      "name": "TransferReserveToCollateral",
      "type": "event"
    },
    {
      "inputs": [],
      "name": "DOMAIN_SEPARATOR",
      "outputs": [
        {
          "internalType": "bytes32",
          "name": "",
          "type": "bytes32"
        }
      ],
      "stateMutability": "view",
      "type": "function"
    },
    {
      "inputs": [
        {
          "internalType": "bytes",
          "name": "",
          "type": "bytes"
        }
      ],
      "name": "_accounts",
      "outputs": [
        {
          "internalType": "uint256",
          "name": "cooperativeNonce",
          "type": "uint256"
        },
        {
          "internalType": "bytes32",
          "name": "disputeHash",
          "type": "bytes32"
        },
        {
          "internalType": "uint256",
          "name": "disputeTimeout",
          "type": "uint256"
        }
      ],
      "stateMutability": "view",
      "type": "function"
    },
    {
      "inputs": [
        {
          "internalType": "bytes32",
          "name": "",
          "type": "bytes32"
        }
      ],
      "name": "_activeDebts",
      "outputs": [
        {
          "internalType": "uint256",
          "name": "",
          "type": "uint256"
        }
      ],
      "stateMutability": "view",
      "type": "function"
    },
    {
      "inputs": [
        {
          "internalType": "bytes",
          "name": "",
          "type": "bytes"
        },
        {
          "internalType": "uint256",
          "name": "",
          "type": "uint256"
        }
      ],
      "name": "_collaterals",
      "outputs": [
        {
          "internalType": "uint256",
          "name": "collateral",
          "type": "uint256"
        },
        {
          "internalType": "int256",
          "name": "ondelta",
          "type": "int256"
        }
      ],
      "stateMutability": "view",
      "type": "function"
    },
    {
      "inputs": [
        {
          "internalType": "bytes32",
          "name": "",
          "type": "bytes32"
        },
        {
          "internalType": "uint256",
          "name": "",
          "type": "uint256"
        }
      ],
      "name": "_debtIndex",
      "outputs": [
        {
          "internalType": "uint256",
          "name": "",
          "type": "uint256"
        }
      ],
      "stateMutability": "view",
      "type": "function"
    },
    {
      "inputs": [
        {
          "internalType": "bytes32",
          "name": "",
          "type": "bytes32"
        },
        {
          "internalType": "uint256",
          "name": "",
          "type": "uint256"
        },
        {
          "internalType": "uint256",
          "name": "",
          "type": "uint256"
        }
      ],
      "name": "_debts",
      "outputs": [
        {
          "internalType": "bytes32",
          "name": "creditor",
          "type": "bytes32"
        },
        {
          "internalType": "uint256",
          "name": "amount",
          "type": "uint256"
        }
      ],
      "stateMutability": "view",
      "type": "function"
    },
    {
      "inputs": [
        {
          "internalType": "bytes32",
          "name": "",
          "type": "bytes32"
        },
        {
          "internalType": "uint256",
          "name": "",
          "type": "uint256"
        }
      ],
      "name": "_reserves",
      "outputs": [
        {
          "internalType": "uint256",
          "name": "",
          "type": "uint256"
        }
      ],
      "stateMutability": "view",
      "type": "function"
    },
    {
      "inputs": [
        {
          "internalType": "uint256",
          "name": "",
          "type": "uint256"
        }
      ],
      "name": "_tokens",
      "outputs": [
        {
          "internalType": "bytes32",
          "name": "",
          "type": "bytes32"
        }
      ],
      "stateMutability": "view",
      "type": "function"
    },
    {
      "inputs": [
        {
          "internalType": "bytes32",
          "name": "e1",
          "type": "bytes32"
        },
        {
          "internalType": "bytes32",
          "name": "e2",
          "type": "bytes32"
        }
      ],
      "name": "accountKey",
      "outputs": [
        {
          "internalType": "bytes",
          "name": "",
          "type": "bytes"
        }
      ],
      "stateMutability": "pure",
      "type": "function"
    },
    {
      "inputs": [
        {
          "internalType": "address",
          "name": "provider",
          "type": "address"
        }
      ],
      "name": "addEntityProvider",
      "outputs": [],
      "stateMutability": "nonpayable",
      "type": "function"
    },
    {
      "inputs": [],
      "name": "admin",
      "outputs": [
        {
          "internalType": "address",
          "name": "",
          "type": "address"
        }
      ],
      "stateMutability": "view",
      "type": "function"
    },
    {
      "inputs": [
        {
          "internalType": "address",
          "name": "",
          "type": "address"
        }
      ],
      "name": "approvedEntityProviders",
      "outputs": [
        {
          "internalType": "bool",
          "name": "",
          "type": "bool"
        }
      ],
      "stateMutability": "view",
      "type": "function"
    },
    {
      "inputs": [],
      "name": "defaultDisputeDelay",
      "outputs": [
        {
          "internalType": "uint256",
          "name": "",
          "type": "uint256"
        }
      ],
      "stateMutability": "view",
      "type": "function"
    },
    {
      "inputs": [],
      "name": "disableTestModeForever",
      "outputs": [],
      "stateMutability": "nonpayable",
      "type": "function"
    },
    {
      "inputs": [
        {
          "components": [
            {
              "internalType": "bytes32",
              "name": "counterentity",
              "type": "bytes32"
            },
            {
              "internalType": "uint256",
              "name": "finalCooperativeNonce",
              "type": "uint256"
            },
            {
              "internalType": "uint256",
              "name": "initialDisputeNonce",
              "type": "uint256"
            },
            {
              "internalType": "uint256",
              "name": "finalDisputeNonce",
              "type": "uint256"
            },
            {
              "internalType": "bytes32",
              "name": "initialProofbodyHash",
              "type": "bytes32"
            },
            {
              "components": [
                {
                  "internalType": "int256[]",
                  "name": "offdeltas",
                  "type": "int256[]"
                },
                {
                  "internalType": "uint256[]",
                  "name": "tokenIds",
                  "type": "uint256[]"
                },
                {
                  "components": [
                    {
                      "internalType": "address",
                      "name": "transformerAddress",
                      "type": "address"
                    },
                    {
                      "internalType": "bytes",
                      "name": "encodedBatch",
                      "type": "bytes"
                    },
                    {
                      "components": [
                        {
                          "internalType": "uint256",
                          "name": "deltaIndex",
                          "type": "uint256"
                        },
                        {
                          "internalType": "uint256",
                          "name": "rightAllowence",
                          "type": "uint256"
                        },
                        {
                          "internalType": "uint256",
                          "name": "leftAllowence",
                          "type": "uint256"
                        }
                      ],
                      "internalType": "struct Allowence[]",
                      "name": "allowences",
                      "type": "tuple[]"
                    }
                  ],
                  "internalType": "struct TransformerClause[]",
                  "name": "transformers",
                  "type": "tuple[]"
                }
              ],
              "internalType": "struct ProofBody",
              "name": "finalProofbody",
              "type": "tuple"
            },
            {
              "internalType": "bytes",
              "name": "finalArguments",
              "type": "bytes"
            },
            {
              "internalType": "bytes",
              "name": "initialArguments",
              "type": "bytes"
            },
            {
              "internalType": "bytes",
              "name": "sig",
              "type": "bytes"
            },
            {
              "internalType": "bool",
              "name": "startedByLeft",
              "type": "bool"
            },
            {
              "internalType": "uint256",
              "name": "disputeUntilBlock",
              "type": "uint256"
            },
            {
              "internalType": "bool",
              "name": "cooperative",
              "type": "bool"
            }
          ],
          "internalType": "struct FinalDisputeProof",
          "name": "params",
          "type": "tuple"
        }
      ],
      "name": "disputeFinalize",
      "outputs": [
        {
          "internalType": "bool",
          "name": "",
          "type": "bool"
        }
      ],
      "stateMutability": "nonpayable",
      "type": "function"
    },
    {
      "inputs": [
        {
          "components": [
            {
              "internalType": "bytes32",
              "name": "counterentity",
              "type": "bytes32"
            },
            {
              "internalType": "uint256",
              "name": "cooperativeNonce",
              "type": "uint256"
            },
            {
              "internalType": "uint256",
              "name": "disputeNonce",
              "type": "uint256"
            },
            {
              "internalType": "bytes32",
              "name": "proofbodyHash",
              "type": "bytes32"
            },
            {
              "internalType": "bytes",
              "name": "sig",
              "type": "bytes"
            },
            {
              "internalType": "bytes",
              "name": "initialArguments",
              "type": "bytes"
            }
          ],
          "internalType": "struct InitialDisputeProof",
          "name": "params",
          "type": "tuple"
        }
      ],
      "name": "disputeStart",
      "outputs": [
        {
          "internalType": "bool",
          "name": "",
          "type": "bool"
        }
      ],
      "stateMutability": "nonpayable",
      "type": "function"
    },
    {
      "inputs": [],
      "name": "emergencyPause",
      "outputs": [
        {
          "internalType": "bool",
          "name": "",
          "type": "bool"
        }
      ],
      "stateMutability": "view",
      "type": "function"
    },
    {
      "inputs": [
        {
          "internalType": "bytes32",
          "name": "entity",
          "type": "bytes32"
        },
        {
          "internalType": "uint256",
          "name": "tokenId",
          "type": "uint256"
        }
      ],
      "name": "enforceDebts",
      "outputs": [
        {
          "internalType": "uint256",
          "name": "",
          "type": "uint256"
        }
      ],
      "stateMutability": "nonpayable",
      "type": "function"
    },
    {
      "inputs": [
        {
          "internalType": "bytes32",
          "name": "",
          "type": "bytes32"
        }
      ],
      "name": "entityDisputeDelays",
      "outputs": [
        {
          "internalType": "uint256",
          "name": "",
          "type": "uint256"
        }
      ],
      "stateMutability": "view",
      "type": "function"
    },
    {
      "inputs": [
        {
          "internalType": "address",
          "name": "",
          "type": "address"
        }
      ],
      "name": "entityNonces",
      "outputs": [
        {
          "internalType": "uint256",
          "name": "",
          "type": "uint256"
        }
      ],
      "stateMutability": "view",
      "type": "function"
    },
    {
      "inputs": [
        {
          "internalType": "uint256",
          "name": "",
          "type": "uint256"
        }
      ],
      "name": "entityProvidersList",
      "outputs": [
        {
          "internalType": "address",
          "name": "",
          "type": "address"
        }
      ],
      "stateMutability": "view",
      "type": "function"
    },
    {
      "inputs": [
        {
          "components": [
            {
              "internalType": "bytes32",
              "name": "entity",
              "type": "bytes32"
            },
            {
              "internalType": "bytes32",
              "name": "packedToken",
              "type": "bytes32"
            },
            {
              "internalType": "uint256",
              "name": "internalTokenId",
              "type": "uint256"
            },
            {
              "internalType": "uint256",
              "name": "amount",
              "type": "uint256"
            }
          ],
          "internalType": "struct ExternalTokenToReserve",
          "name": "params",
          "type": "tuple"
        }
      ],
      "name": "externalTokenToReserve",
      "outputs": [],
      "stateMutability": "nonpayable",
      "type": "function"
    },
    {
      "inputs": [],
      "name": "getApprovedProviders",
      "outputs": [
        {
          "internalType": "address[]",
          "name": "",
          "type": "address[]"
        }
      ],
      "stateMutability": "view",
      "type": "function"
    },
    {
      "inputs": [
        {
          "internalType": "uint256",
          "name": "tokenId",
          "type": "uint256"
        }
      ],
      "name": "getTokenMetadata",
      "outputs": [
        {
          "internalType": "address",
          "name": "contractAddress",
          "type": "address"
        },
        {
          "internalType": "uint96",
          "name": "externalTokenId",
          "type": "uint96"
        },
        {
          "internalType": "uint8",
          "name": "tokenType",
          "type": "uint8"
        }
      ],
      "stateMutability": "view",
      "type": "function"
    },
    {
      "inputs": [],
      "name": "getTokensLength",
      "outputs": [
        {
          "internalType": "uint256",
          "name": "",
          "type": "uint256"
        }
      ],
      "stateMutability": "view",
      "type": "function"
    },
    {
      "inputs": [
        {
          "internalType": "bytes32",
          "name": "",
          "type": "bytes32"
        }
      ],
      "name": "insuranceCursor",
      "outputs": [
        {
          "internalType": "uint256",
          "name": "",
          "type": "uint256"
        }
      ],
      "stateMutability": "view",
      "type": "function"
    },
    {
      "inputs": [
        {
          "internalType": "bytes32",
          "name": "",
          "type": "bytes32"
        },
        {
          "internalType": "uint256",
          "name": "",
          "type": "uint256"
        }
      ],
      "name": "insuranceLines",
      "outputs": [
        {
          "internalType": "bytes32",
          "name": "insurer",
          "type": "bytes32"
        },
        {
          "internalType": "uint256",
          "name": "tokenId",
          "type": "uint256"
        },
        {
          "internalType": "uint256",
          "name": "remaining",
          "type": "uint256"
        },
        {
          "internalType": "uint256",
          "name": "expiresAt",
          "type": "uint256"
        }
      ],
      "stateMutability": "view",
      "type": "function"
    },
    {
      "inputs": [
        {
          "internalType": "bytes32",
          "name": "entity",
          "type": "bytes32"
        },
        {
          "internalType": "uint256",
          "name": "tokenId",
          "type": "uint256"
        },
        {
          "internalType": "uint256",
          "name": "amount",
          "type": "uint256"
        }
      ],
      "name": "mintToReserve",
      "outputs": [],
      "stateMutability": "nonpayable",
      "type": "function"
    },
    {
      "inputs": [
        {
          "internalType": "address",
          "name": "",
          "type": "address"
        },
        {
          "internalType": "address",
          "name": "",
          "type": "address"
        },
        {
          "internalType": "uint256[]",
          "name": "",
          "type": "uint256[]"
        },
        {
          "internalType": "uint256[]",
          "name": "",
          "type": "uint256[]"
        },
        {
          "internalType": "bytes",
          "name": "",
          "type": "bytes"
        }
      ],
      "name": "onERC1155BatchReceived",
      "outputs": [
        {
          "internalType": "bytes4",
          "name": "",
          "type": "bytes4"
        }
      ],
      "stateMutability": "pure",
      "type": "function"
    },
    {
      "inputs": [
        {
          "internalType": "address",
          "name": "",
          "type": "address"
        },
        {
          "internalType": "address",
          "name": "from",
          "type": "address"
        },
        {
          "internalType": "uint256",
          "name": "id",
          "type": "uint256"
        },
        {
          "internalType": "uint256",
          "name": "value",
          "type": "uint256"
        },
        {
          "internalType": "bytes",
          "name": "",
          "type": "bytes"
        }
      ],
      "name": "onERC1155Received",
      "outputs": [
        {
          "internalType": "bytes4",
          "name": "",
          "type": "bytes4"
        }
      ],
      "stateMutability": "nonpayable",
      "type": "function"
    },
    {
      "inputs": [
        {
          "internalType": "uint8",
          "name": "tokenType",
          "type": "uint8"
        },
        {
          "internalType": "address",
          "name": "contractAddress",
          "type": "address"
        },
        {
          "internalType": "uint96",
          "name": "externalTokenId",
          "type": "uint96"
        }
      ],
      "name": "packTokenReference",
      "outputs": [
        {
          "internalType": "bytes32",
          "name": "",
          "type": "bytes32"
        }
      ],
      "stateMutability": "pure",
      "type": "function"
    },
    {
      "inputs": [
        {
          "internalType": "bytes32",
          "name": "fundingEntity",
          "type": "bytes32"
        },
        {
          "internalType": "bytes32",
          "name": "counterpartyEntity",
          "type": "bytes32"
        },
        {
          "internalType": "uint256",
          "name": "tokenId",
          "type": "uint256"
        },
        {
          "internalType": "uint256",
          "name": "amount",
          "type": "uint256"
        }
      ],
      "name": "prefundAccount",
      "outputs": [
        {
          "internalType": "bool",
          "name": "",
          "type": "bool"
        }
      ],
      "stateMutability": "nonpayable",
      "type": "function"
    },
    {
      "inputs": [
        {
          "internalType": "bytes32",
          "name": "entity",
          "type": "bytes32"
        },
        {
          "components": [
            {
              "components": [
                {
                  "internalType": "uint256",
                  "name": "tokenId",
                  "type": "uint256"
                },
                {
                  "internalType": "uint256",
                  "name": "amount",
                  "type": "uint256"
                }
              ],
              "internalType": "struct Flashloan[]",
              "name": "flashloans",
              "type": "tuple[]"
            },
            {
              "components": [
                {
                  "internalType": "bytes32",
                  "name": "receivingEntity",
                  "type": "bytes32"
                },
                {
                  "internalType": "uint256",
                  "name": "tokenId",
                  "type": "uint256"
                },
                {
                  "internalType": "uint256",
                  "name": "amount",
                  "type": "uint256"
                }
              ],
              "internalType": "struct ReserveToReserve[]",
              "name": "reserveToReserve",
              "type": "tuple[]"
            },
            {
              "components": [
                {
                  "internalType": "uint256",
                  "name": "tokenId",
                  "type": "uint256"
                },
                {
                  "internalType": "bytes32",
                  "name": "receivingEntity",
                  "type": "bytes32"
                },
                {
                  "components": [
                    {
                      "internalType": "bytes32",
                      "name": "entity",
                      "type": "bytes32"
                    },
                    {
                      "internalType": "uint256",
                      "name": "amount",
                      "type": "uint256"
                    }
                  ],
                  "internalType": "struct EntityAmount[]",
                  "name": "pairs",
                  "type": "tuple[]"
                }
              ],
              "internalType": "struct ReserveToCollateral[]",
              "name": "reserveToCollateral",
              "type": "tuple[]"
            },
            {
              "components": [
                {
                  "internalType": "bytes32",
                  "name": "leftEntity",
                  "type": "bytes32"
                },
                {
                  "internalType": "bytes32",
                  "name": "rightEntity",
                  "type": "bytes32"
                },
                {
                  "components": [
                    {
                      "internalType": "uint256",
                      "name": "tokenId",
                      "type": "uint256"
                    },
                    {
                      "internalType": "int256",
                      "name": "leftDiff",
                      "type": "int256"
                    },
                    {
                      "internalType": "int256",
                      "name": "rightDiff",
                      "type": "int256"
                    },
                    {
                      "internalType": "int256",
                      "name": "collateralDiff",
                      "type": "int256"
                    },
                    {
                      "internalType": "int256",
                      "name": "ondeltaDiff",
                      "type": "int256"
                    }
                  ],
                  "internalType": "struct SettlementDiff[]",
                  "name": "diffs",
                  "type": "tuple[]"
                },
                {
                  "internalType": "uint256[]",
                  "name": "forgiveDebtsInTokenIds",
                  "type": "uint256[]"
                },
                {
                  "components": [
                    {
                      "internalType": "bytes32",
                      "name": "insured",
                      "type": "bytes32"
                    },
                    {
                      "internalType": "bytes32",
                      "name": "insurer",
                      "type": "bytes32"
                    },
                    {
                      "internalType": "uint256",
                      "name": "tokenId",
                      "type": "uint256"
                    },
                    {
                      "internalType": "uint256",
                      "name": "limit",
                      "type": "uint256"
                    },
                    {
                      "internalType": "uint256",
                      "name": "expiresAt",
                      "type": "uint256"
                    }
                  ],
                  "internalType": "struct InsuranceRegistration[]",
                  "name": "insuranceRegs",
                  "type": "tuple[]"
                },
                {
                  "internalType": "bytes",
                  "name": "sig",
                  "type": "bytes"
                },
                {
                  "internalType": "address",
                  "name": "entityProvider",
                  "type": "address"
                },
                {
                  "internalType": "bytes",
                  "name": "hankoData",
                  "type": "bytes"
                },
                {
                  "internalType": "uint256",
                  "name": "nonce",
                  "type": "uint256"
                }
              ],
              "internalType": "struct Settlement[]",
              "name": "settlements",
              "type": "tuple[]"
            },
            {
              "components": [
                {
                  "internalType": "bytes32",
                  "name": "counterentity",
                  "type": "bytes32"
                },
                {
                  "internalType": "uint256",
                  "name": "cooperativeNonce",
                  "type": "uint256"
                },
                {
                  "internalType": "uint256",
                  "name": "disputeNonce",
                  "type": "uint256"
                },
                {
                  "internalType": "bytes32",
                  "name": "proofbodyHash",
                  "type": "bytes32"
                },
                {
                  "internalType": "bytes",
                  "name": "sig",
                  "type": "bytes"
                },
                {
                  "internalType": "bytes",
                  "name": "initialArguments",
                  "type": "bytes"
                }
              ],
              "internalType": "struct InitialDisputeProof[]",
              "name": "disputeStarts",
              "type": "tuple[]"
            },
            {
              "components": [
                {
                  "internalType": "bytes32",
                  "name": "counterentity",
                  "type": "bytes32"
                },
                {
                  "internalType": "uint256",
                  "name": "finalCooperativeNonce",
                  "type": "uint256"
                },
                {
                  "internalType": "uint256",
                  "name": "initialDisputeNonce",
                  "type": "uint256"
                },
                {
                  "internalType": "uint256",
                  "name": "finalDisputeNonce",
                  "type": "uint256"
                },
                {
                  "internalType": "bytes32",
                  "name": "initialProofbodyHash",
                  "type": "bytes32"
                },
                {
                  "components": [
                    {
                      "internalType": "int256[]",
                      "name": "offdeltas",
                      "type": "int256[]"
                    },
                    {
                      "internalType": "uint256[]",
                      "name": "tokenIds",
                      "type": "uint256[]"
                    },
                    {
                      "components": [
                        {
                          "internalType": "address",
                          "name": "transformerAddress",
                          "type": "address"
                        },
                        {
                          "internalType": "bytes",
                          "name": "encodedBatch",
                          "type": "bytes"
                        },
                        {
                          "components": [
                            {
                              "internalType": "uint256",
                              "name": "deltaIndex",
                              "type": "uint256"
                            },
                            {
                              "internalType": "uint256",
                              "name": "rightAllowence",
                              "type": "uint256"
                            },
                            {
                              "internalType": "uint256",
                              "name": "leftAllowence",
                              "type": "uint256"
                            }
                          ],
                          "internalType": "struct Allowence[]",
                          "name": "allowences",
                          "type": "tuple[]"
                        }
                      ],
                      "internalType": "struct TransformerClause[]",
                      "name": "transformers",
                      "type": "tuple[]"
                    }
                  ],
                  "internalType": "struct ProofBody",
                  "name": "finalProofbody",
                  "type": "tuple"
                },
                {
                  "internalType": "bytes",
                  "name": "finalArguments",
                  "type": "bytes"
                },
                {
                  "internalType": "bytes",
                  "name": "initialArguments",
                  "type": "bytes"
                },
                {
                  "internalType": "bytes",
                  "name": "sig",
                  "type": "bytes"
                },
                {
                  "internalType": "bool",
                  "name": "startedByLeft",
                  "type": "bool"
                },
                {
                  "internalType": "uint256",
                  "name": "disputeUntilBlock",
                  "type": "uint256"
                },
                {
                  "internalType": "bool",
                  "name": "cooperative",
                  "type": "bool"
                }
              ],
              "internalType": "struct FinalDisputeProof[]",
              "name": "disputeFinalizations",
              "type": "tuple[]"
            },
            {
              "components": [
                {
                  "internalType": "bytes32",
                  "name": "entity",
                  "type": "bytes32"
                },
                {
                  "internalType": "bytes32",
                  "name": "packedToken",
                  "type": "bytes32"
                },
                {
                  "internalType": "uint256",
                  "name": "internalTokenId",
                  "type": "uint256"
                },
                {
                  "internalType": "uint256",
                  "name": "amount",
                  "type": "uint256"
                }
              ],
              "internalType": "struct ExternalTokenToReserve[]",
              "name": "externalTokenToReserve",
              "type": "tuple[]"
            },
            {
              "components": [
                {
                  "internalType": "bytes32",
                  "name": "receivingEntity",
                  "type": "bytes32"
                },
                {
                  "internalType": "uint256",
                  "name": "tokenId",
                  "type": "uint256"
                },
                {
                  "internalType": "uint256",
                  "name": "amount",
                  "type": "uint256"
                }
              ],
              "internalType": "struct ReserveToExternalToken[]",
              "name": "reserveToExternalToken",
              "type": "tuple[]"
            },
            {
              "internalType": "uint256",
              "name": "hub_id",
              "type": "uint256"
            }
          ],
          "internalType": "struct Batch",
          "name": "batch",
          "type": "tuple"
        }
      ],
      "name": "processBatch",
      "outputs": [
        {
          "internalType": "bool",
          "name": "completeSuccess",
          "type": "bool"
        }
      ],
      "stateMutability": "nonpayable",
      "type": "function"
    },
    {
      "inputs": [
        {
          "internalType": "bytes",
          "name": "encodedBatch",
          "type": "bytes"
        },
        {
          "internalType": "address",
          "name": "entityProvider",
          "type": "address"
        },
        {
          "internalType": "bytes",
          "name": "hankoData",
          "type": "bytes"
        },
        {
          "internalType": "uint256",
          "name": "nonce",
          "type": "uint256"
        }
      ],
      "name": "processBatchWithHanko",
      "outputs": [
        {
          "internalType": "bool",
          "name": "completeSuccess",
          "type": "bool"
        }
      ],
      "stateMutability": "nonpayable",
      "type": "function"
    },
    {
      "inputs": [
        {
          "internalType": "address",
          "name": "provider",
          "type": "address"
        }
      ],
      "name": "removeEntityProvider",
      "outputs": [],
      "stateMutability": "nonpayable",
      "type": "function"
    },
    {
      "inputs": [
        {
          "internalType": "bytes32",
          "name": "fromEntity",
          "type": "bytes32"
        },
        {
          "internalType": "bytes32",
          "name": "toEntity",
          "type": "bytes32"
        },
        {
          "internalType": "uint256",
          "name": "tokenId",
          "type": "uint256"
        },
        {
          "internalType": "uint256",
          "name": "amount",
          "type": "uint256"
        }
      ],
      "name": "reserveToReserve",
      "outputs": [
        {
          "internalType": "bool",
          "name": "",
          "type": "bool"
        }
      ],
      "stateMutability": "nonpayable",
      "type": "function"
    },
    {
      "inputs": [
        {
          "internalType": "uint256",
          "name": "delayBlocks",
          "type": "uint256"
        }
      ],
      "name": "setDefaultDisputeDelay",
      "outputs": [],
      "stateMutability": "nonpayable",
      "type": "function"
    },
    {
      "inputs": [
        {
          "internalType": "bool",
          "name": "isPaused",
          "type": "bool"
        }
      ],
      "name": "setEmergencyPause",
      "outputs": [],
      "stateMutability": "nonpayable",
      "type": "function"
    },
    {
      "inputs": [
        {
          "internalType": "bytes32",
          "name": "entity",
          "type": "bytes32"
        },
        {
          "internalType": "uint256",
          "name": "delayBlocks",
          "type": "uint256"
        }
      ],
      "name": "setEntityDisputeDelay",
      "outputs": [],
      "stateMutability": "nonpayable",
      "type": "function"
    },
    {
      "inputs": [
        {
          "internalType": "bytes32",
          "name": "leftEntity",
          "type": "bytes32"
        },
        {
          "internalType": "bytes32",
          "name": "rightEntity",
          "type": "bytes32"
        },
        {
          "components": [
            {
              "internalType": "uint256",
              "name": "tokenId",
              "type": "uint256"
            },
            {
              "internalType": "int256",
              "name": "leftDiff",
              "type": "int256"
            },
            {
              "internalType": "int256",
              "name": "rightDiff",
              "type": "int256"
            },
            {
              "internalType": "int256",
              "name": "collateralDiff",
              "type": "int256"
            },
            {
              "internalType": "int256",
              "name": "ondeltaDiff",
              "type": "int256"
            }
          ],
          "internalType": "struct SettlementDiff[]",
          "name": "diffs",
          "type": "tuple[]"
        },
        {
          "internalType": "uint256[]",
          "name": "forgiveDebtsInTokenIds",
          "type": "uint256[]"
        },
        {
          "components": [
            {
              "internalType": "bytes32",
              "name": "insured",
              "type": "bytes32"
            },
            {
              "internalType": "bytes32",
              "name": "insurer",
              "type": "bytes32"
            },
            {
              "internalType": "uint256",
              "name": "tokenId",
              "type": "uint256"
            },
            {
              "internalType": "uint256",
              "name": "limit",
              "type": "uint256"
            },
            {
              "internalType": "uint256",
              "name": "expiresAt",
              "type": "uint256"
            }
          ],
          "internalType": "struct InsuranceRegistration[]",
          "name": "insuranceRegs",
          "type": "tuple[]"
        },
        {
          "internalType": "bytes",
          "name": "sig",
          "type": "bytes"
        }
      ],
      "name": "settle",
      "outputs": [
        {
          "internalType": "bool",
          "name": "",
          "type": "bool"
        }
      ],
      "stateMutability": "nonpayable",
      "type": "function"
    },
    {
      "inputs": [],
      "name": "testMode",
      "outputs": [
        {
          "internalType": "bool",
          "name": "",
          "type": "bool"
        }
      ],
      "stateMutability": "view",
      "type": "function"
    },
    {
      "inputs": [
        {
          "internalType": "bytes32",
          "name": "",
          "type": "bytes32"
        }
      ],
      "name": "tokenToId",
      "outputs": [
        {
          "internalType": "uint256",
          "name": "",
          "type": "uint256"
        }
      ],
      "stateMutability": "view",
      "type": "function"
    },
    {
      "inputs": [
        {
          "internalType": "bytes32",
          "name": "packed",
          "type": "bytes32"
        }
      ],
      "name": "unpackTokenReference",
      "outputs": [
        {
          "internalType": "address",
          "name": "contractAddress",
          "type": "address"
        },
        {
          "internalType": "uint96",
          "name": "externalTokenId",
          "type": "uint96"
        },
        {
          "internalType": "uint8",
          "name": "tokenType",
          "type": "uint8"
        }
      ],
      "stateMutability": "pure",
      "type": "function"
    }
  ],
  "bytecode": "0x60a08060405234620000e457600060018155601460065561010061ff0019600b541617600b5533608052600d5468010000000000000000811015620000d0576001810180600d55811015620000bc57600d82527fd7b6990105719101dabeb77144f2a3385c8033acd3af97e9423a695e81ad1eb5015561618f9081620000ea8239608051818181610559015281816105b8015281816107ed015281816108d601528181610d0f01528181610fa201528181611322015261152d0152f35b634e487b7160e01b82526032600452602482fd5b634e487b7160e01b82526041600452602482fd5b600080fdfe608060408181526004918236101561001657600080fd5b600092833560e01c9182630c0a46a814611b13575081630dedd62414611aa5578163125c2cc414611a325781631e40079c146119d5578163266afe1b1461191057816331cf2a56146118695781633644e515146118405781633925cd441461171857816351858e27146116f457816355ca622a1461162257816358d642bc1461150857816360316801146114a35781636b79134d1461147b5781637508b9161461144f57816382cd19aa146113ea57816388a1cd761461139f5781638fdfafe51461130e578163907efb1b146112ef57816392cf61e51461129d5781639304677d1461126557816396954a9f1461123d578163abc8d1ac146111ff578163acd6f208146111d3578163b0c26ecf146111b4578163bb2c250c146110d7578163bc197c8114611031578163cd9ea3421461100a578163d148b4c814610f8a578163d19fd92e14610f62578163d57bb1d614610d57578163d8d1a65714610cee578163db90b81014610ae2578163dd865c8b14610a7d578163ddc39480146108ae578163e812c569146107d7578163ec6d8e0614610796578163ed70554d1461075d578163f176e3261461071f578163f23a6e61146105e7578163f851a440146105a3578163fbd6d63f14610545578163fbfe1b5714610223575063fc3c4c3e146101fe57600080fd5b3461021f5760209061021861021236611cda565b90615167565b9051908152f35b5080fd5b91905034610541576080366003190112610541576001600160401b0392823584811161021f57610256903690850161229f565b610261959195611f0d565b9560443583811161053d57610279903690880161229f565b9390926064359760ff600b541661052f57600287541461052157600287556001600160a01b03998a168088526001602090815289892054909b919060ff16156104f25789516359516e5f60e01b815260008051602061611a8339815191528185015246602482015230604482015260a06064820152969594939291908c88808e61030760a48301898c613038565b906084830152038173__$1a0918a2aa2208593bb0a5d7644cd0946b$__5af49788156104e857908b918b996104af575b508151631155a0c560e31b81528481018390529889919082908190610360604483018f8e613038565b90602483015203915afa80156104a55789978a91610466575b5015801561045e575b61044f57861690818952600f8c52898920546001810180911161043c578b0361042e57508752600f8a528888882055820191898184031261042a57803591821161042a576001969594936104066104007fbd6e57133956b4a3944b483a9e595b4aab16071cf15a39384fdb1b7015865aab958b9561040e9501612800565b8661324b565b953691611c5d565b898151910120938151988952151597888a820152a35551908152f35b8680fd5b8951633485c51360e21b8152fd5b634e487b7160e01b8a526011825260248afd5b508851631bd18a1960e31b8152fd5b508615610382565b8098508b8092503d831161049e575b61047f8183611c1f565b8101031261049a576104948c885198016123c4565b38610379565b8880fd5b503d610475565b8a513d8b823e3d90fd5b8e80929a508193503d83116104e1575b6104c98183611c1f565b810103126104dd5751968a90610360610337565b8980fd5b503d6104bf565b8b513d8c823e3d90fd5b895162461bcd60e51b81528084018d9052600960248201526810b83937bb34b232b960b91b6044820152606490fd5b8751633018d46b60e11b8152fd5b8751633485c51360e21b8152fd5b8480fd5b8280fd5b919050346105415761055636611cda565b927f00000000000000000000000000000000000000000000000000000000000000006001600160a01b0316330361059557508352600760205282205580f35b8251633485c51360e21b8152fd5b50503461021f578160031936011261021f57517f00000000000000000000000000000000000000000000000000000000000000006001600160a01b03168152602090f35b9050346105415760a036600319011261054157610602611ef7565b5061060b611f0d565b506084356001600160401b03811161071b5761062a903690830161229f565b50508151632ecb094360e21b8152600282820152336024820152604480356001600160601b03169082015260209390848160648173__$1a0918a2aa2208593bb0a5d7644cd0946b$__5af49081156107115782916106e4575b50808252600e855283822054156106a5575b5050505163f23a6e6160e01b8152f35b6106ae81613001565b600d546000198101939084116106d157508152600e845282902055388080610695565b634e487b7160e01b835260119052602482fd5b90508481813d831161070a575b6106fb8183611c1f565b8101031261021f575138610683565b503d6106f1565b84513d84823e3d90fd5b8380fd5b82843461075a578160031936011261075a5750610743610756926024359035612fc1565b905191829160208352602083019061237e565b0390f35b80fd5b905034610541576020366003190112610541573591600d5483101561075a5750610788602092612363565b91905490519160031b1c8152f35b90503461054157602036600319011261054157359160025483101561075a57506107c1602092612348565b905491519160018060a01b039160031b1c168152f35b905034610541576107e736612239565b909391927f00000000000000000000000000000000000000000000000000000000000000006001600160a01b031633036105955781156108a05750906000805160206160fa83398151915291838652602091600383528087208688528352808720610853838254612775565b905584875260038352808720868852835285857f2b6c5ea65bb62b83a4f1947f0b9455af4b37990243b7fdbb11817b6124ed699983808b20549581519081528688820152a351908152a380f35b825163440a57bf60e01b8152fd5b8391503461021f57602036600319011261021f576108ca611ef7565b6001600160a01b0391907f000000000000000000000000000000000000000000000000000000000000000083163303610a6e5782169161090b831515612e50565b828452600191600160205260ff868620541615610a4557849584849596526001602052862060ff19815416905585935b610969575b85857f67c5a35d33d48c47ef33c82c62eda6254aad034fab4c51abe26a6d06ad174a348280a280f35b600280549081861015610a3e5783918761098288612348565b949054600395861b1c161461099e57505050828094019361093b565b91959094506000199291838101908111610a2b57906109d0856109c36109ee94612348565b9054908a1b1c1691612348565b90919060018060a01b038084549260031b9316831b921b1916179055565b8354908115610a1857500192610a0384612348565b81939154921b1b191690555582808080610940565b634e487b7160e01b885260319052602487fd5b634e487b7160e01b895260118352602489fd5b5050610940565b606490602087519162461bcd60e51b83528201526003602482015262216f6b60e81b6044820152fd5b508351633485c51360e21b8152fd5b90503461054157608036600319011261054157815191610a9c83611b9f565b8135835260243560208401526044358184015260643560608401526002845414610ad55783610ace8460028355614963565b6001815580f35b51633018d46b60e11b8152fd5b9190503461054157610af336611ed9565b9091600b9693965460ff8116610cde576002855414610cce576002855560081c60ff1615610cbe57808714610cbe578115610cae57808710908115610ca75787915b15610c9f57915b610b468383612fc1565b610b50858a614f67565b50888652602097600389528787208688528952828888205410610c915750887f36a23558c84aea8a6a7bbadf50a454e47507746fa69bf7cf58db85d9bdf063d892610bfb8a6080948985839f8e9f60019f8f806000805160206160fa83398151915294839252600384528181208782528452818120610bd08c8254612752565b905585815260038452818120878252845220549051908152a3818d5193828580945193849201611cb7565b810160058152030190208789528b52848a892092610c1a838554612775565b845503610c7c57610c2f898301918254612fa5565b90555b83875260038a528887208688528a52888720549085885260038b528988208789528b528988205490898154910154918b519384528c8401528a8301526060820152a4555160018152f35b610c8a898301918254612f8c565b9055610c32565b8751632fd8225d60e21b8152fd5b508691610b3c565b8091610b35565b845163440a57bf60e01b81528690fd5b8451633485c51360e21b81528690fd5b8551633018d46b60e11b81528790fd5b8551633485c51360e21b81528790fd5b90503461054157602036600319011261054157803591821515830361071b577f00000000000000000000000000000000000000000000000000000000000000006001600160a01b03163303610d4a5783610d4784612f3b565b80f35b51633485c51360e21b8152fd5b91905034610541576020928360031936011261075a5782356001600160401b03811161021f57610d8a90369085016122cc565b6002825414610f53578490600283558351610da481611bd6565b60019160018252845b848110610f155750610dbe826123a3565b52610dc8816123a3565b50600654855196879363b3f1ff7d60e01b855260848501918086015233602486015260809160806044870152845180915260a48601928760a48360051b89010196019389915b838310610e9c575050505050509082916064830152038173__$1a0918a2aa2208593bb0a5d7644cd0946b$__5af4928315610e90578193610e57575b5060019055519015158152f35b9092508381813d8311610e89575b610e6f8183611c1f565b8101031261054157610e826001916123c4565b9290610e4a565b503d610e65565b509051903d90823e3d90fd5b92959798610f01859882939694979b60a3199082030187528d610eee8d519160c0908351855286840151878601528084015190850152606080840151908501528883015190808a86015284019061237e565b9160a0809201519181840391015261237e565b9901930193018b979592938b979592610e0e565b869491929451610f2481611b38565b868152868382015286888201526060878183015280608083015260a08201528282870101520190879391610dad565b505051633018d46b60e11b8152fd5b905034610541576020366003190112610541576020928291358152600e845220549051908152f35b905034610541576020366003190112610541578035917f00000000000000000000000000000000000000000000000000000000000000006001600160a01b03163303610d4a578215610fde57505060065580f35b906020606492519162461bcd60e51b835282015260066024820152652164656c617960d01b6044820152fd5b50503461021f578160031936011261021f5760209060ff600b5460081c1690519015158152f35b9050823461075a5760a036600319011261075a5761104d611ef7565b50611056611f0d565b506001600160401b039060443582811161021f57611077903690850161226f565b505060643582811161021f57611090903690850161226f565b505060843591821161075a57506064926110af6020923690850161229f565b50505162461bcd60e51b8152918201526006602482015265042c4c2e8c6d60d31b6044820152fd5b9190503461054157606036600319011261054157813560ff811680910361071b57611100611f0d565b6044356001600160601b03811692908390036111b0578351632ecb094360e21b8152948501526001600160a01b03166024840152604483015260208260648173__$1a0918a2aa2208593bb0a5d7644cd0946b$__5af49182156111a657839261116e575b6020838351908152f35b9091506020813d60201161119e575b8161118a60209383611c1f565b810103126105415760209250519038611164565b3d915061117d565b81513d85823e3d90fd5b8580fd5b50503461021f578160031936011261021f57602090600d549051908152f35b50503461021f57806020926111e736611cda565b90825260038552828220908252845220549051908152f35b50503461021f57602036600319011261021f5760209160ff9082906001600160a01b0361122a611ef7565b1681526001855220541690519015158152f35b9050346105415760203660031901126105415760209282913581526007845220549051908152f35b50503461021f57602036600319011261021f5760209181906001600160a01b0361128d611ef7565b168152600f845220549051908152f35b82843461075a57602036600319011261075a57506112be6107569235612e84565b92516001600160a01b0390921682526001600160601b0316602082015260ff90911660408201529081906060820190565b50503461021f578160031936011261021f576020906006549051908152f35b9050346105415782600319360112610541577f00000000000000000000000000000000000000000000000000000000000000006001600160a01b0316330361139157600b549160ff8360081c1615610d4a57505061ff001916600b557f2d1a45ef958c367e9e35cbc9b77fa395634f978402b5a218b775b23b998c18698180a180f35b9051633485c51360e21b8152fd5b50503461021f576113af36612239565b9184526008602052828420908452602052818320805482101561071b57906113d691612253565b506001815491015482519182526020820152f35b83833461021f57602036600319011261021f5782356001600160401b0381116105415761141a9036908501611f44565b926002835414611441575060016114376020946002855533613efc565b9255519015158152f35b9051633018d46b60e11b8152fd5b50503461021f578060209261146336611cda565b90825260098552828220908252845220549051908152f35b905034610541576020366003190112610541576020928291358152600a845220549051908152f35b82843461075a57602036600319011261075a5750813591600d548310156114e057506112be6114d461075693612363565b90549060031b1c612e84565b606491519062461bcd60e51b825260208183015260248201526321746f6b60e01b6044820152fd5b83833461021f57602036600319011261021f57611523611ef7565b6001600160a01b037f00000000000000000000000000000000000000000000000000000000000000008116330361161257811691611562831515612e50565b828452600160205260ff81852054166115e75782845260016020528320600160ff19825416179055600254600160401b8110156115d457906109d08260016115ad9401600255612348565b7fc395b1bd803c744a815bc34a0426e5eaac03513b9d76bf237a734a004916499c8280a280f35b634e487b7160e01b845260418552602484fd5b5162461bcd60e51b8152602081860152600660248201526565786973747360d01b6044820152606490fd5b8251633485c51360e21b81528590fd5b83833461021f57600319818136011261054157602435906001600160401b039081831161053d576101208336039182011261053d57600b5460ff81166116e45760028654146116d4576002865560081c60ff16156116c4576024830135906022190181121561053d578201908582013590811161053d576060602491023603910113610541576114376020946116bd60019336908301612800565b903561324b565b8351633485c51360e21b81528690fd5b8451633018d46b60e11b81528790fd5b8451633485c51360e21b81528790fd5b50503461021f578160031936011261021f5760209060ff600b541690519015158152f35b919050346105415761172936611ed9565b9592600b9291925460ff8116610cde576002855414610cce576002855560081c60ff1615610cbe57818114610cbe578615610cae576117688382614c73565b5080845260209560038752858520848652875287868620541061183257506000805160206160da8339815191528660019697988387526003825288872086885282528887206117b8828254612752565b90558487526003825288872086885282528887206117d7828254612775565b905583875260038252888720868852825285858382878d808d205490519081526000805160206160fa833981519152938491a3818a52600385528b8a20838b528552848c8b20548d51908152a38851908152a4555160018152f35b8551632fd8225d60e21b8152fd5b50503461021f578160031936011261021f576020905160008051602061611a8339815191528152f35b83833461021f5760c036600319011261021f576001600160401b0360443581811161071b5761189b9036908601611d39565b9060643581811161053d576118b39036908701611dd9565b6084358281116111b0576118ca9036908801611e39565b9160a4359081116111b0576118e29036908801611c99565b9260ff600b54166116e45760028654146116d4579160019391611437936020986002895560243590356123d1565b82843461075a578060031936011261075a578151600280548083529083526020939284830192909183907f405787fa12a823e0f2b7631cc41b3ba8828b3321ca811111fa75cd3aa3bb5ace90845b8181106119b85750505081611974910382611c1f565b83519485948186019282875251809352850193925b82811061199857505050500390f35b83516001600160a01b031685528695509381019392810192600101611989565b82546001600160a01b03168452928801926001928301920161195e565b50503461021f576119e536611cda565b92908152601060205281812090815484101561075a5750608092611a0891611cf0565b50908154916001810154916003600283015492015492815194855260208501528301526060820152f35b82843461075a57602036600319011261075a578235906001600160401b03821161075a57506020606093611a6c611a7f9336908301611c99565b9082855194838680955193849201611cb7565b820190815203019020805491600260018301549201549181519384526020840152820152f35b90503461054157816003193601126105415780356001600160401b03811161071b576020611adb849593611aed93369101611c99565b81855193828580945193849201611cb7565b810160058152030190206024358252602052206001815491015482519182526020820152f35b9291503461071b57602036600319011261071b5792602093358152600c845220548152f35b60c081019081106001600160401b03821117611b5357604052565b634e487b7160e01b600052604160045260246000fd5b60a081019081106001600160401b03821117611b5357604052565b606081019081106001600160401b03821117611b5357604052565b608081019081106001600160401b03821117611b5357604052565b61012081019081106001600160401b03821117611b5357604052565b604081019081106001600160401b03821117611b5357604052565b6001600160401b038111611b5357604052565b602081019081106001600160401b03821117611b5357604052565b601f909101601f19168101906001600160401b03821190821017611b5357604052565b6001600160401b038111611b5357601f01601f191660200190565b929192611c6982611c42565b91611c776040519384611c1f565b829481845281830111611c94578281602093846000960137010152565b600080fd5b9080601f83011215611c9457816020611cb493359101611c5d565b90565b60005b838110611cca5750506000910152565b8181015183820152602001611cba565b6040906003190112611c94576004359060243590565b8054821015611d0c5760005260206000209060021b0190600090565b634e487b7160e01b600052603260045260246000fd5b6001600160401b038111611b535760051b60200190565b81601f82011215611c94578035906020611d5283611d22565b936040611d626040519687611c1f565b848652828601918360a080970286010194818611611c94578401925b858410611d8f575050505050505090565b8684830312611c94578487918451611da681611b69565b86358152828701358382015285870135868201526060808801359082015260808088013590820152815201930192611d7e565b9080601f83011215611c94576020908235611df381611d22565b93611e016040519586611c1f565b81855260208086019260051b820101928311611c9457602001905b828210611e2a575050505090565b81358152908301908301611e1c565b81601f82011215611c94578035906020611e5283611d22565b936040611e626040519687611c1f565b848652828601918360a080970286010194818611611c94578401925b858410611e8f575050505050505090565b8684830312611c94578487918451611ea681611b69565b86358152828701358382015285870135868201526060808801359082015260808088013590820152815201930192611e7e565b6080906003190112611c945760043590602435906044359060643590565b600435906001600160a01b0382168203611c9457565b602435906001600160a01b0382168203611c9457565b35906001600160a01b0382168203611c9457565b35908115158203611c9457565b919091610180908181850312611c945760408051909490926001600160401b0390840181811185821017611b5357865283958335855260208085013581870152818501358287015260609182860135838801526080860135608088015260a0860135848111611c94578601928084870312611c9457815193611fc585611b84565b8035868111611c9457810187601f82011215611c9457803590611fe782611d22565b91611ff486519384611c1f565b808352868084019160051b830101918a8311611c945787809101915b8383106122295750505050855283810135868111611c945787612034918301611dd9565b848601528281013590868211611c9457019286601f85011215611c945783359361205d85611d22565b9461206a85519687611c1f565b808652828087019160051b83010191898311611c9457838101915b8383106121225750505050505082015260a085015260c0830135818111611c9457826120b2918501611c99565b60c085015260e0830135818111611c9457826120cf918501611c99565b60e08501526101009182840135918211611c94576120ee918401611c99565b90830152610120612100818301611f37565b90830152610140808201359083015261211d610160809201611f37565b910152565b82358a8111611c94578201808c03601f19018713611c945787519061214682611b84565b612151878201611f23565b8252888101358c8111611c94578d8861216c92840101611c99565b8783015287810135908c8211611c9457018c603f82011215611c94578c8782013561219681611d22565b926121a38c519485611c1f565b8184528b8b8b86019302820101928311611c9457918f9593918b8d8c979501975b8389106121e157505050508394508a820152815201920191612085565b889496989192939597500312611c9457898b918d80519061220182611b84565b85358252838601358483015280860135908201528152019101949290918f928b8b96946121c4565b8235815291810191889101612010565b6060906003190112611c9457600435906024359060443590565b8054821015611d0c5760005260206000209060011b0190600090565b9181601f84011215611c94578235916001600160401b038311611c94576020808501948460051b010111611c9457565b9181601f84011215611c94578235916001600160401b038311611c945760208381860195010111611c9457565b919060c083820312611c9457604051906122e582611b38565b81938035835260208101356020840152604081013560408401526060810135606084015260808101359160018060401b0392838111611c94578161232a918401611c99565b608085015260a0820135928311611c945760a09261211d9201611c99565b600254811015611d0c57600260005260206000200190600090565b600d54811015611d0c57600d60005260206000200190600090565b9060209161239781518092818552858086019101611cb7565b601f01601f1916010190565b805115611d0c5760200190565b8051821015611d0c5760209160051b010190565b51908115158203611c9457565b91949293909360ff600b5460081c161561274057604051946123f286611bd6565b6001865260005b602080821015612455576040516020929161241382611bba565b60008252600081830152606080604084015280808401528060808401528060a0840152600060c084015260e08301526000610100830152828a010152016123f9565b5050929590939491946040519161246b83611bba565b878352846020840152604083015284606083015285608083015260a0820152600060c082015260405161249d81611c04565b6000815260e082015260006101008201526124b7826123a3565b526124c1816123a3565b506040519063d017d69960e01b82528160a4810160036004830152600460248301526005604483015287606483015260a06084830152825180915260c4820190602060c48260051b8501019401916000905b8282106125ad575050505080602092038173__$1a0918a2aa2208593bb0a5d7644cd0946b$__5af49081156125a157600091612567575b501561255e5761255993613059565b600190565b50505050600090565b90506020813d602011612599575b8161258260209383611c1f565b81010312611c9457612593906123c4565b3861254a565b3d9150612575565b6040513d6000823e3d90fd5b919350919360c319868203018252845190610120808201835183526020840151602084015260408401519160408401528151809152602061014084019201906000905b808210612700575050506060830151908281036060840152602080835192838152019201906000905b8082106126e8575050506080830151908281036080840152602080835192838152019201906000905b8082106126a8575050508260209261010080612693612670879660a060019a015186820360a088015261237e565b888060a01b0360c08701511660c086015260e086015185820360e087015261237e565b93015191015296019201920185939192612513565b909192602060a060019260808751805183528481015185840152604081015160408401526060810151606084015201516080820152019401920190612642565b90919260208060019286518152019401920190612619565b909192602060a0600192608087518051835284810151858401526040810151604084015260608101516060840152015160808201520194019201906125f0565b604051633485c51360e21b8152600490fd5b9190820391821161275f57565b634e487b7160e01b600052601160045260246000fd5b9190820180921161275f57565b92919261278e82611d22565b60409461279e6040519283611c1f565b81958483526020809301916060809602850194818611611c9457925b8584106127ca5750505050505050565b8684830312611c945784879184516127e181611b84565b86358152828701358382015285870135868201528152019301926127ba565b91909161012081840312611c94576040519061281b82611bba565b909283919081356001600160401b038111611c9457820181601f82011215611c9457803561284881611d22565b916128566040519384611c1f565b81835260208084019260061b82010190848211611c9457602001915b818310612e1f57505050835260208201356001600160401b038111611c9457820181601f82011215611c9457818160206128ae93359101612782565b602084015260408201356001600160401b038111611c945781601f828501011215611c9457808301356128e081611d22565b916128ee6040519384611c1f565b81835260208301908460208460051b838901010111611c9457602081870101915b60208460051b83890101018310612d215750505050604084015260608201356001600160401b038111611c945781601f828501011215611c9457808301359061295782611d22565b916129656040519384611c1f565b808352602083018460208360051b858901010111611c9457602083870101905b60208360051b85890101018210612bb2575050505060608401526080828101356001600160401b038111611c9457830182601f82011215611c945780356129cb81611d22565b916129d96040519384611c1f565b81835260208084019260051b82010191858311611c945760208201905b838210612b855750505050608085015260a08301356001600160401b038111611c9457830182601f82011215611c94578035612a3181611d22565b91612a3f6040519384611c1f565b81835260208084019260051b82010191858311611c945760208201905b838210612b58575050505060a085015260c08301356001600160401b038111611c945783019082601f83011215611c9457813591612a9983611d22565b92612aa76040519485611c1f565b80845260208085019160071b83010191858311611c9457602001905b828210612b14575050505060c084015260e08201356001600160401b038111611c945782019080601f83011215611c9457816020612b0393359101612782565b60e083015261010080910135910152565b8382870312611c945760208491604051612b2d81611b9f565b8435815282850135838201526040850135604082015260608501356060820152815201910190612ac3565b81356001600160401b038111611c9457602091612b7a89848094880101611f44565b815201910190612a5c565b81356001600160401b038111611c9457602091612ba7898480948801016122cc565b8152019101906129f6565b81356001600160401b038111611c945761012088860182018803601f190112611c945760405190612be282611bba565b88860181016020818101358452604082013590840152606001356001600160401b038111611c9457886020612c1d92848a8e01010101611d39565b60408301528886018101608001356001600160401b038111611c9457886020612c4c92848a8e01010101611dd9565b60608301526001600160401b03898701820160a0013511611c9457612c7e88878b01830160a081013501602001611e39565b60808301526001600160401b03898701820160c0013511611c9457612cb088878b01830160c081013501602001611c99565b60a0830152612cc560e082888c010101611f23565b60c08301526001600160401b038987018201610100013511611c94576020928392839261012090612d038c8b8f018301610100810135018701611c99565b60e0840152898d010101356101008201528152019201919050612985565b82356001600160401b038111611c94578288010160609081601f19828a030112611c945760405191612d5283611b84565b60208281013584526040830135908401528101356001600160401b038111611c945788603f828401011215611c945760208183010135612d9181611d22565b92612d9f6040519485611c1f565b81845260208401908b60408460061b868401010111611c9457604084820101915b8c60408560061b87850101018410612dee57505050506040840192909252505081526020928301920161290f565b836040910312611c945760206040918251612e0881611bd6565b853581528286013583820152815201920191612dc0565b604083860312611c945760206040918251612e3981611bd6565b853581528286013583820152815201920191612872565b15612e5757565b60405162461bcd60e51b815260206004820152600560248201526410b0b2323960d91b6044820152606490fd5b90604051916392cf61e560e01b8352600483015260608260248173__$1a0918a2aa2208593bb0a5d7644cd0946b$__5af49081156125a157600080938193612ecd575b50929190565b925092506060823d606011612f33575b81612eea60609383611c1f565b810103126105415781516001600160a01b038116810361071b576020830151926001600160601b038416840361053d57604001519360ff8516850361075a575091929138612ec7565b3d9150612edd565b600b54901515908160ff8216151514612f885760ff191660ff821617600b556040519081527fb5838f871ddee4623a406029b1a0b6013e0ec30f2dc114307f21459a800a829690602090a1565b5050565b8181039291600013801582851316918412161761275f57565b9190916000838201938412911290801582169115161761275f57565b9080821015612fe557604051916020830152604082015260408152611cb481611b84565b90604051916020830152604082015260408152611cb481611b84565b600d54600160401b811015611b53578060016130209201600d55612363565b819291549060031b91821b91600019901b1916179055565b908060209392818452848401376000828201840152601f01601f1916010190565b9391909160005b8251811015613092578061308c613079600193866123b0565b5161308581888b615767565b8887615767565b01613060565b5092905060005b8151811015613203576130ac81836123b0565b51906020808301908151868982141591826131f8575b50506131db578351868982141591826131ed575b50506131db57815184511480156131cf575b61274057608084019142835111156127405784516000526010825260409485600020958251948183019485519360608082019889519185519087519261312d84611b9f565b835285830198895287830193845282019081528c54600160401b811015611b535761315f9060019e8f82018155611cf0565b9390936131b95760019d7fbfd7274449bb908ddf203ddf1c94d588d62b66048e4a9b4b0bc4835067b0353699600394518655519085015551600284015551910155519451955196519151908351928352820152a401613099565b634e487b7160e01b600052600060045260246000fd5b506060840151156130e8565b604051633c4117f160e21b8152600490fd5b1415905086386130d6565b1415905086386130c2565b5050509050565b9061321482611d22565b6132216040519182611c1f565b8281528092613232601f1991611d22565b0190602036910137565b600019811461275f5760010190565b919061325881515161320a565b61326382515161320a565b9161326f81515161320a565b92600095865b8351805182101561334e578161328a916123b0565b515160208061329a8488516123b0565b510151906000925b8b841061332d575b8b84146132dd575b5050906132d66132cf600194936132c9848c6123b0565b51612775565b91896123b0565b5201613275565b6133238c6132d6938360019897969f946132fa6132cf968f6123b0565b5289600052600382526040918260002091600052526000205461331d828b6123b0565b5261323c565b9b929394506132b2565b9283613339828b6123b0565b511461334857600101926132a2565b926132aa565b5050959391909260005b858110613d4b57506001956000875b613d01575b506000875b613bc9575b50606083015180516138f2575b506080808401519081516137b2575b505060005b60a084015180518210156133d0576133b2826133b9926123b0565b518a613efc565b156133c7575b600101613397565b600097506133bf565b505091939590929460005b60408601518051821015613414576133f6826133fd926123b0565b518a61589d565b1561340b575b6001016133db565b60009250613403565b505091939590929460005b60e088015180518210156136cb5781613437916123b0565b51602081019061344882518c615367565b506134566114d48351612363565b9291908d6000526003602052604093846000208651600052602052846000205495858501968751116136ba57908f9160ff9288518160005260036020528860002083516000526020526134ae89600020918254612752565b90558151918160005260036020528860002090516000526020526000805160206160fa833981519152602089600020548a51908152a31680613597575050602090604460018060a01b0380945116955160008651958694859363a9059cbb60e01b855260049a8b8601526024850152165af190811561358c57600091613552575b5015613545575050600160e0915b01905061341f565b51632fd8225d60e21b8152fd5b906020823d602011613584575b8161356c60209383611c1f565b8101031261075a575061357e906123c4565b3861352f565b3d915061355f565b82513d6000823e3d90fd5b929490926001810361362457505092516001600160a01b039384169316833b15611c945782516323b872dd60e01b81529360009285928391859183916135ed916001600160601b03909116903060048501614941565b03925af190811561361a57509160019160e09361360b575b5061353d565b61361490611bf1565b38613605565b513d6000823e3d90fd5b9094919060021461363f575b5050505050600160e09161353d565b905193516001600160a01b0394851694909116803b15611c94578351637921219560e11b815294600093869384928692849261368b9290916001600160601b031690306004860161490d565b03925af190811561361a57509160019160e0936136ab575b819381613630565b6136b490611bf1565b386136a3565b8551632fd8225d60e21b8152600490fd5b505091949092955095929560005b8581106136e95750505050505090565b6136f381836123b0565b5161371361370183876123b0565b5161370c84876123b0565b5190612775565b90866000526003602090808252604093846000208460005283528460002054106137a15761374185886123b0565b51896000528183528460002084600052835261376285600020918254612752565b9055886000528152826000209160005252806000205461378283876123b0565b511161379157506001016136d9565b51632fd8225d60e21b8152600490fd5b8351632fd8225d60e21b8152600490fd5b9089906006549060409160405193849163b3f1ff7d60e01b83526084830191600480850152602484015260806044840152835180925260a483019460a48360051b8501019260209889809701926000915b83831061388e575050505050829394506064830152038173__$1a0918a2aa2208593bb0a5d7644cd0946b$__5af49182156125a157600092613858575b50501561384f575b3880613392565b60009650613848565b90809250813d8311613887575b61386f8183611c1f565b81010312611c9457613880906123c4565b3880613840565b503d613865565b92965092979396806138dd6001939760a3198d82030188528b51610eee60c0825184528583015186850152898301518a850152606083015160608501528883015190808a86015284019061237e565b99019401940189969392899692989598613803565b6040989694929795939198519063d017d69960e01b82528160a4810160036004830152600460248301526005604483015289606483015260a06084830152825180915260c4820190602060c48260051b8501019401916000905b828210613a1c575050505080602092038173__$1a0918a2aa2208593bb0a5d7644cd0946b$__5af49081156125a1576000916139e2575b50156139d9575b60005b606082015180518210156139ca57906139c46139ab826001946123b0565b5180519060208101516080606083015192015192613059565b0161398d565b50509193959092949638613383565b6000945061398a565b90506020813d602011613a14575b816139fd60209383611c1f565b81010312611c9457613a0e906123c4565b38613983565b3d91506139f0565b91935091938a9060c319878203018352855190610120808201835183526020840151602084015260408401519160408401528151809152602061014084019201906000905b808210613b82575050506060830151908281036060840152602080835192838152019201906000905b808210613b64575050506080830151908281036080840152602080835192838152019201906000905b808210613b1e575050509160209291613b04613adc859460a085015184820360a086015261237e565b60c0848101516001600160a01b03169084015260e0808501518483039185019190915261237e565b91610100809101519101529601920192018593919261394c565b91939495909260a06020916080875180518352848101518584015260408101516040840152606081015160608401520151608082015201940192018f9594939291613ab3565b919394959092602080918651815201940192018f9594939291613a8a565b91939495909260a0602091865180518252838101518483015260408101516040830152606081015160608301526080809101519082015201940192018f9594939291613a61565b6020808501518051831015613cfa5782613be2916123b0565b519080820190613bf382518d615367565b508b6000526003928382526040908181019482600020855160005284528260002054865111613ce95785938f92938f9896946000805160206160da833981519152938a9951866000528185528360002088516000528552613c5984600020918254612752565b9055875182516000528185528360002088516000528552613c7f84600020918254612775565b905583875187600052828252846000208951600052825287856000205486519081526000805160206160fa833981519152938491a382519088519282600052865284600020895160005286528585600020548651908152a351945195519051908152a40190613371565b8251632fd8225d60e21b8152600490fd5b5050613376565b60c08401518051821015613d455781613d19916123b0565b51805115613d3d575b89815103612740578891613d368392614963565b0190613367565b898152613d22565b5061336c565b80613d58600192866123b0565b5189600052613d886020600381526040908160002090613d7886896123b0565b5160005252600020918254612775565b905501613358565b90815180825260208080930193019160005b828110613db0575050505090565b835185529381019392810192600101613da2565b906020808352815190613de36060926060838701526080860190613d90565b8184015190601f199460409186888203018389015284808551928381520194019060005b818110613ee85750505081015195606086828503019101528551938483528383019184808760051b8601019801966000945b878610613e4c5750505050505050505090565b90919293949596979882828203018652878a5160018060a01b03815116835285613e818383015189858701528986019061237e565b91015192868183039101528180845192838152019301906000905b88818310613ebf5750505050806001929b01960196019497969593929190613e39565b8395896001949693955180518352848101518584015201518a82015201940192018a9291613e9c565b825186529486019491860191600101613e07565b919091613f0a835182612fc1565b6101608401511561463857604080518251602091828181870193613f2f818387611cb7565b8101600481520301902054156146275781613f54918451809381928851928391611cb7565b81016004815203019020548160a08801518451613f8681613f788582019485613dc4565b03601f198101835282611c1f565b51902060e08901518051908301206101008a01518a518751633c2934c160e01b815260c0600482015295869485949293613fea939091613fc960c488018e61237e565b9360248801526044870152606486015260031985830301608486015261237e565b9060a4830152038173__$1a0918a2aa2208593bb0a5d7644cd0946b$__5af491821561461c576000926145e6575b5050156145d65750600261406360206000935b6040519085600182519385818186019661404681838a611cb7565b810160048152030190200155604051938492839251928391611cb7565b81016004815203019020015582519060a08401519260e060c0860151950151602085015151855151036145c4578383109384156145bd57835b85156145b55750955b84156145ae5780945b156145a65750945b6140c08184612fc1565b94602081015151946140d186611d22565b956140df6040519788611c1f565b808752601f196140ee82611d22565b013660208901378660005b82811061453c5750508151159050614525578060208061411e935183010191016159eb565b965b805115614508578060208061413a935183010191016159eb565b969092969591955b6000945b60408501518051871015614393578661415e916123b0565b519860018060a01b038a51169860208b0151998551891060001461437e5761418689876123b0565b515b85518a1015614368578a61419c8b886123b0565b515b604051630c6191f960e11b8152608060048201529d8e9384936141c5906084860190613d90565b9160031992838682030160248701526141dd9161237e565b828582030160448601526141f09161237e565b908382030160648401526142039161237e565b03815a6000948591f1998a156125a15760009a6142bd575b5060005b60408c015180518210156142a95781614237916123b0565b5161425b6142478d8351906123b0565b516142548d8451906123b0565b5190612f8c565b90600082138061429c575b61274057600082129182614283575b50506127405760010161421f565b602091925061429190615abc565b910151103880614275565b5060408101518211614266565b50919a509897505060019590950194614146565b9099503d90816000823e6142d18282611c1f565b6020818381010312611c94578051916001600160401b038311611c9457808201601f848401011215611c9457828201519161430b83611d22565b936143196040519586611c1f565b8385526020850192820160208560051b838501010111611c9457602081830101925b60208560051b83850101018410614358575050505050983861421b565b835181526020938401930161433b565b8a60405161437581611c04565b6000815261419e565b60405161438a81611c04565b60008152614188565b50945050509290939460005b602086015180518210156144cc57816000600188888c896143e760206143d2896143cb839d8a9d6123b0565b51946123b0565b51958160405193828580945193849201611cb7565b810160058152030190208187528952604086209384548782131588146144555761441a9293945080614444575b50615abc565b9081614432575b5050505b828155015501905061439f565b61443c928c615fd2565b8b3880614421565b61444f908486615e3f565b38614414565b908181101588146144aa57829394826144769481614499575b505050612752565b908b82614487575b50505050614425565b61449093615fd2565b8b38808b61447e565b6144a292615e3f565b8d828561446e565b6144c1916144bc82856144c798615e3f565b612752565b91615e3f565b614425565b5050945050506144ed91506020908160405193828580945193849201611cb7565b81016004815203019020614501815461323c565b9055600190565b5060405161451581611c04565b6000815296909296959195614142565b5060405161453281611c04565b6000815296614120565b8061454d60019260208801516123b0565b5161456760208d8160405193828580945193849201611cb7565b8101600581520301902090600052602052614595826040600020015461458e8389516123b0565b5190612fa5565b61459f82856123b0565b52016140f9565b9050946140b6565b81946140ae565b9050956140a5565b809361409c565b6040516329be7c4760e11b8152600490fd5b51631bd18a1960e31b8152600490fd5b90809250813d8311614615575b6145fd8183611c1f565b81010312611c945761460e906123c4565b3880614018565b503d6145f3565b83513d6000823e3d90fd5b82516388d0662b60e01b8152600490fd5b60408051908251602090600182860191614653818785611cb7565b85019483816004978881520301902001549081156148fd5782908673__$1a0918a2aa2208593bb0a5d7644cd0946b$__918b875185818551614696818388611cb7565b81018c815203019020549585898301978b8b8a51958761012082019d8e5115159a8451809381925180926146c992611cb7565b8101868152030190206002015460808201998a519260e00151935198899687966303d0627d60e41b8852870152602486015260448501526064840152608483015260a4820160c0905260c4820161471f9161237e565b0381885af49182156148f2576000926148c3575b50036148b357868c8a94938a936101008301998a5151151560001461482057505050613fc99492869492614796838760c0950151908b519c606082019d8e519151925195519b8c9a8b998a996325e7af8960e01b8b528a015260c489019061237e565b9060a483015203915af4918215614815576000926147df575b5050156147d0575190511115610d4a5750506002614063602060009361402b565b505051631bd18a1960e31b8152fd5b90809250813d831161480e575b6147f68183611c1f565b81010312611c9457614807906123c4565b38806147af565b503d6147ec565b85513d6000823e3d90fd5b955096985096505050508491505115158a518910149182614886575b5050614877575190613f7861485e60a08a015192855192839182019485613dc4565b51902003610d4a5750506002614063602060009361402b565b505051633485c51360e21b8152fd5b600292509061489f918651809381928b51928391611cb7565b81018881520301902001544310823861483c565b8651630cba69cb60e01b81528890fd5b9091508581813d83116148eb575b6148db8183611c1f565b81010312611c9457519038614733565b503d6148d1565b89513d6000823e3d90fd5b505050516388d0662b60e01b8152fd5b929060c0949260018060a01b0380921685521660208401526040830152606082015260a06080820152600060a08201520190565b6001600160a01b03918216815291166020820152604081019190915260600190565b9081516000908015600014614c5d5750335b6060840191825115614c4b576040908186019384518015600014614c2957506020870180518352600e6020528383205480875215614be6575b50816149c7949596975b60ff6020968780930151612e84565b919290911680614aa95750506149f690845187519485809481936323b872dd60e01b8352303360048501614941565b03926001600160a01b03165af1908115614a9f578391614a6a575b5015613ce9579180916000805160206160fa83398151915294935b5186825260038552828220885183528552614a4b838320918254612775565b90558651968682526003855282822090518252845220549051908152a3565b90508481813d8311614a98575b614a818183611c1f565b8101031261054157614a92906123c4565b38614a11565b503d614a77565b84513d85823e3d90fd5b90935090915060018103614b3a57506001600160a01b031690813b1561071b5784516323b872dd60e01b8152918491839190829084908290614af9906001600160601b0316303360048501614941565b03925af18015614a9f57614b26575b509180918360016000805160206160fa833981519152969552614a2c565b614b308391611bf1565b61021f5738614b08565b9295949392600214614b60575b505081906000805160206160fa83398151915294614a2c565b60018060a0979596971b0316835191813b1561071b578551637921219560e11b815292849284929091839185918391614ba891906001600160601b031630336004860161490d565b03925af1801561071157918493916000805160206160fa833981519152969593614bd7575b5091819550614b47565b614be090611bf1565b38614bcd565b614bf08151613001565b600d54600019810191908211614c1557818752518352600e60205283832055816149ae565b634e487b7160e01b84526011600452602484fd5b6149c794959697614c3a8492612363565b90549060031b1c60208201526149b8565b60405163440a57bf60e01b8152600490fd5b614975565b906131b95760018160008093550155565b6000818152602090600882526040918282208583528152828220938454958615614f4e57818452600983528484208185528352848420549787891015614f45575b828552600384528585208286528452858520549085988215614f1f5798995b89811080614f16575b80614f0b575b15614e9657614cf1818a612253565b50600190818101918254918215614e8057549282871015614e7a57865b8c8c8a8d84614e3a575b505050505082151580614e32575b614e09575b614d36838254612752565b9280614dd457508a90558301808411614dc057614da492886000805160206160ba8339815191526060614daa97958f958f968f978e988251948552840152820152a4868952600a8852898920805480614db3575b5050614d9f614d99828d612253565b90614c62565b61323c565b9a61323c565b985b9899614cd3565b6000190190553880614d8a565b634e487b7160e01b8a52601160045260248afd5b859f94925060608994614daa978f848f8f97966000805160206160ba83398151915297558251948552840152820152a461323c565b614e158389868c615c4c565b614e1f8185612752565b614e2a575b50614d2b565b925038614e24565b508615614d26565b9282614e6f96989c92614e69958b889652600381528383209183525220614e62838254612775565b9055612752565b97612752565b91388c8c8a8d614d18565b82614d0e565b50505050614e90909a999a61323c565b99614dac565b9398509850909295508684526003865284842083855286528484205585835260098552838320828452855283832055614ecf8186615acd565b84825260088452828220818352845282822093845415614f0257611cb49583526009815283832091835252205490615bf6565b50509250505090565b506000198b10614ce2565b50821515614cdc565b50989297505091945085835260098552838320828452855283832055614ecf8186615acd565b97508397614cb4565b9280965080955052600981528284209184525281205590565b6000818152602090600882526040918282208583528152828220938454958615614f4e5781845260098352848420818552835284842054978789101561515e575b828552600384528585208286528452858520549085988215614f1f5798995b89811080615155575b8061514a575b15614e9657614fe5818a612253565b506001908181019182549182156151345754928287101561512e57865b8c8c8a8d846150fb575b5050505050821515806150f3575b6150ca575b61502a838254612752565b928061509557508a90558301808411614dc057614da492886000805160206160ba833981519152606061508c97958f958f968f978e988251948552840152820152a4868952600a8852898920805480614db3575050614d9f614d99828d612253565b985b9899614fc7565b859f9492506060899461508c978f848f8f97966000805160206160ba83398151915297558251948552840152820152a461323c565b6150d68389868c615c4c565b6150e08185612752565b6150eb575b5061501f565b9250386150e5565b50861561501a565b928261512396989c92614e69958b889652600381528383209183525220614e62838254612775565b91388c8c8a8d61500c565b82615002565b50505050615144909a999a61323c565b9961508e565b506000198b10614fd6565b50821515614fd0565b97508397614fa8565b6000818152602090600882526040918282208583528152828220938454958615614f4e5781845260098352848420818552835284842054978789101561535e575b828552600384528585208286528452858520549085988215614f1f5798995b89811080615355575b8061534a575b15614e96576151e5818a612253565b506001908181019182549182156153345754928287101561532e57865b8c8c8a8d846152fb575b5050505050821515806152f3575b6152ca575b61522a838254612752565b928061529557508a90558301808411614dc057614da492886000805160206160ba833981519152606061528c97958f958f968f978e988251948552840152820152a4868952600a8852898920805480614db3575050614d9f614d99828d612253565b985b98996151c7565b859f9492506060899461528c978f848f8f97966000805160206160ba83398151915297558251948552840152820152a461323c565b6152d68389868c615c4c565b6152e08185612752565b6152eb575b5061521f565b9250386152e5565b50861561521a565b928261532396989c92614e69958b889652600381528383209183525220614e62838254612775565b91388c8c8a8d61520c565b82615202565b50505050615344909a999a61323c565b9961528e565b506000198b106151d6565b508215156151d0565b975083976151a8565b6000818152602090600882526040918282208583528152828220938454958615614f4e5781845260098352848420818552835284842054978789101561555e575b828552600384528585208286528452858520549085988215614f1f5798995b89811080615555575b8061554a575b15614e96576153e5818a612253565b506001908181019182549182156155345754928287101561552e57865b8c8c8a8d846154fb575b5050505050821515806154f3575b6154ca575b61542a838254612752565b928061549557508a90558301808411614dc057614da492886000805160206160ba833981519152606061548c97958f958f968f978e988251948552840152820152a4868952600a8852898920805480614db3575050614d9f614d99828d612253565b985b98996153c7565b859f9492506060899461548c978f848f8f97966000805160206160ba83398151915297558251948552840152820152a461323c565b6154d68389868c615c4c565b6154e08185612752565b6154eb575b5061541f565b9250386154e5565b50861561541a565b928261552396989c92614e69958b889652600381528383209183525220614e62838254612775565b91388c8c8a8d61540c565b82615402565b50505050615544909a999a61323c565b9961548e565b506000198b106153d6565b508215156153d0565b975083976153a8565b6000818152602090600882526040918282208583528152828220938454958615614f4e5781845260098352848420818552835284842054978789101561575e575b828552600384528585208286528452858520549085988215614f1f5798995b89811080615755575b8061574a575b15614e96576155e5818a612253565b506001908181019182549182156157345754928287101561572e57865b8c8c8a8d846156fb575b5050505050821515806156f3575b6156ca575b61562a838254612752565b928061569557508a90558301808411614dc057614da492886000805160206160ba833981519152606061568c97958f958f968f978e988251948552840152820152a4868952600a8852898920805480614db3575050614d9f614d99828d612253565b985b98996155c7565b859f9492506060899461568c978f848f8f97966000805160206160ba83398151915297558251948552840152820152a461323c565b6156d68389868c615c4c565b6156e08185612752565b6156eb575b5061561f565b9250386156e5565b50861561561a565b928261572396989c92614e69958b889652600381528383209183525220614e62838254612775565b91388c8c8a8d61560c565b82615602565b50505050615744909a999a61323c565b9961568e565b506000198b106155d6565b508215156155d0565b975083976155a8565b929190926000938185526020906009825260409586812085825283528681205492848252600881528782208683528152878220918254945b8581106157b9575050505050506157b7929350615acd565b565b80856157c68c9387612253565b50541480615886575b6157de575b600191500161579f565b8886896157eb8489612253565b5086600180920154916157fe878c612253565b500155818752600a885285872080548015801561583f575b5050508560008051602061613a8339815191529160019751908152868a820152a48a91506157d4565b935093509350939450615872576000190190558a9190899087908a908560008051602061613a8339815191526001615816565b634e487b7160e01b85526011600452602485fd5b5060016158938287612253565b50015415156157cf565b81519160209283820151916158b28285615567565b5060005b604090818301805180518310156159dd576158df836158d6818c946123b0565b515193516123b0565b510151926158ed8288612fc1565b9088600052600391828b5281600020886000528b5285826000205410156000146159cd5760019588838d898e8e9861595584606099817ffb4e90f768448be74d7bcc3de131a349c0fc3ba3416e4d81df2cf01574ff072e9c5193828580945193849201611cb7565b81016005815203019020866000528452846000209160005283528360002085600052835283600020615988878254612752565b9055615995868254612775565b958682558a8a106159b7575b500154908251948552840152820152a3016158b6565b6159c5838301918254612fa5565b9055386159a1565b5050505050505050505050600090565b505050505050505050600190565b6020908181840312611c945780516001600160401b0391828211611c9457019083601f83011215611c94578151615a2181611d22565b94604092615a326040519788611c1f565b828752858088019360051b86010194828611611c9457868101935b868510615a5f57505050505050505090565b8451838111611c945782019084603f83011215611c94578882015190615a8482611c42565b615a9089519182611c1f565b82815286898486010111611c9457615ab18b949385948b8685019101611cb7565b815201940193615a4d565b600160ff1b811461275f5760000390565b9060008281526020916008835260409081832081845284528183209485548015615bdf57818552600986528385208386528652838520549681881015615bd6575b965b81811080615bc0575b15615b2c57615b279061323c565b615b10565b91929394959650811015600014615bac575080845260098552828420828552855283838120558352600884528183209083528352812080549282825583615b74575b50505050565b6001916001600160ff1b0385168503614c1557835282209260011b8301925b83811015615b6e57808360029255838382015501615b93565b908452600985528284209184529352902055565b506001615bcd828a612253565b50015415615b19565b96508496615b0e565b508352600984528183209083529092529081205550565b919060009280549182811015615c43575b828110615c1357505050565b6001615c1f8284612253565b500154615c2f575b600101615c07565b93615c3b60019161323c565b949050615c27565b50600093505050565b91839260009581875260209260108452604091828920908154988915615e325750600c8652838a20549788905b8a821080615e29575b15615e1557615c918285611cf0565b50998a918d8760018095015414801590615e08575b8015615dfc575b615dee578a8d91825480825260038093528d8c8320908c84525260028c832054940193845490808210600014615de65750955b858711615ddd575b8615615dca57508f8f968f92968f968f958f80859b917f4f02c680c56246ffd693c94e5f46c036a01b12950c88219159645a302816307b9a6000805160206160fa8339815191528a8c87615d809c8c98615d759a528584528282208783528452828220615d568a8254612752565b905554948582528352818120868252835220548d51908152a38c615e3f565b614e62838254612752565b9f615d8f868d83549088615e9c565b5054948251918c8352820152a48101808211615db657615daf909161323c565b9098615c79565b634e487b7160e01b8c52601160045260248cfd5b979550505050509a50615daf915061323c565b95508495615ce8565b905095615ce0565b509a5091615daf915061323c565b5060028d015415615cad565b5060038d01544211615ca6565b9a969497505097505050600c918352522055565b50801515615c82565b9950975050505050505050565b90918015615e9757602060406000805160206160fa83398151915292600090858252600384528282208783528452615e7b838320918254612775565b90558481526003835281812086825283522054604051908152a3565b505050565b9392939190918115612740578415614c4b57600094818652602090600882526040918288208689528152828820835190615ed582611bd6565b86825282820184815281549091600160401b821015615fbe5790615efe91600182018155612253565b929092615faa575182555160019091015583885260088152828820868952815282882054600019810191908211615f9657908392917fae767eeb0c57abd46e2e0b422895ba3b89372fbd0510a58f00d996faf66f027d94829a8315615f7d575b878152600a835220615f70815461323c565b90558351928352820152a4565b878152600983528181208a825283528082812055615f5e565b634e487b7160e01b89526011600452602489fd5b634e487b7160e01b8b5260048b905260248bfd5b634e487b7160e01b8c52604160045260248cfd5b90928015615b6e5761601b90600090838252848460209360038552604094858220848352815285822054858110156000146160b3575084955b86616057575b5050505050612752565b8015615b6e5761602d90838584615c4c565b92836160395750505050565b61604e93616048918484615e9c565b50615acd565b38808080615b6e565b8083856000805160206160fa83398151915295526003845281812087825284528181206160858a8254612752565b905585815260038452818120878252845220549051908152a36160a9828688615e3f565b8484388080616011565b9561600b56fe1ffe8e6348fe244a8988797c02b57999821149e7b25c9f93a85c77819efdde67ae4812ebb7c47ac957e097b649541f0cd55d34b3576fb0db5739591d6f684367ab4d21442efe134c3d0c087e2b687e9593a1c09176f498d37873210cde052c45990f4c22d4b046a9a7d673c4a252b906cadd4f3290465e297f998c28a449652b0971ac81b80f99fe0089c3fbe4af4fa1148f2ce78bc6345e76b05be73500de1fa2646970667358221220e82d6ebb86dbb2bb2b54cf659490b9ef25829c2e931bad30df2695e37d5f2fee64736f6c63430008180033",
  "linkReferences": {
    "contracts/Account.sol": {
      "Account": [
        {
          "length": 20,
          "start": 1019
        },
        {
          "length": 20,
          "start": 1866
        },
        {
          "length": 20,
          "start": 3857
        },
        {
          "length": 20,
          "start": 4651
        },
        {
          "length": 20,
          "start": 9744
        },
        {
          "length": 20,
          "start": 12170
        },
        {
          "length": 20,
          "start": 14598
        },
        {
          "length": 20,
          "start": 14921
        },
        {
          "length": 20,
          "start": 16606
        },
        {
          "length": 20,
          "start": 18266
        }
      ]
    }
  },
  "deployedLinkReferences": {
    "contracts/Account.sol": {
      "Account": [
        {
          "length": 20,
          "start": 785
        },
        {
          "length": 20,
          "start": 1632
        },
        {
          "length": 20,
          "start": 3623
        },
        {
          "length": 20,
          "start": 4417
        },
        {
          "length": 20,
          "start": 9510
        },
        {
          "length": 20,
          "start": 11936
        },
        {
          "length": 20,
          "start": 14364
        },
        {
          "length": 20,
          "start": 14687
        },
        {
          "length": 20,
          "start": 16372
        },
        {
          "length": 20,
          "start": 18032
        }
      ]
    }
  }
}