{
  "_format": "hh-sol-artifact-1",
  "contractName": "Depository",
  "sourceName": "contracts/Depository.sol",
  "abi": [
    {
      "inputs": [
        {
          "internalType": "address",
          "name": "_entityProvider",
          "type": "address"
        },
        {
          "internalType": "uint256",
          "name": "_defaultDisputeDelay",
          "type": "uint256"
        }
      ],
      "stateMutability": "nonpayable",
      "type": "constructor"
    },
    {
      "inputs": [],
      "name": "E0",
      "type": "error"
    },
    {
      "inputs": [],
      "name": "E1",
      "type": "error"
    },
    {
      "inputs": [],
      "name": "E10",
      "type": "error"
    },
    {
      "inputs": [],
      "name": "E11",
      "type": "error"
    },
    {
      "inputs": [],
      "name": "E2",
      "type": "error"
    },
    {
      "inputs": [],
      "name": "E3",
      "type": "error"
    },
    {
      "inputs": [],
      "name": "E4",
      "type": "error"
    },
    {
      "inputs": [],
      "name": "E5",
      "type": "error"
    },
    {
      "inputs": [],
      "name": "E6",
      "type": "error"
    },
    {
      "inputs": [],
      "name": "E7",
      "type": "error"
    },
    {
      "inputs": [],
      "name": "E8",
      "type": "error"
    },
    {
      "inputs": [],
      "name": "E9",
      "type": "error"
    },
    {
      "anonymous": false,
      "inputs": [
        {
          "components": [
            {
              "internalType": "bytes32",
              "name": "left",
              "type": "bytes32"
            },
            {
              "internalType": "bytes32",
              "name": "right",
              "type": "bytes32"
            },
            {
              "components": [
                {
                  "internalType": "uint256",
                  "name": "tokenId",
                  "type": "uint256"
                },
                {
                  "internalType": "uint256",
                  "name": "leftReserve",
                  "type": "uint256"
                },
                {
                  "internalType": "uint256",
                  "name": "rightReserve",
                  "type": "uint256"
                },
                {
                  "internalType": "uint256",
                  "name": "collateral",
                  "type": "uint256"
                },
                {
                  "internalType": "int256",
                  "name": "ondelta",
                  "type": "int256"
                }
              ],
              "internalType": "struct TokenSettlement[]",
              "name": "tokens",
              "type": "tuple[]"
            },
            {
              "internalType": "uint256",
              "name": "nonce",
              "type": "uint256"
            }
          ],
          "indexed": false,
          "internalType": "struct AccountSettlement[]",
          "name": "settled",
          "type": "tuple[]"
        }
      ],
      "name": "AccountSettled",
      "type": "event"
    },
    {
      "anonymous": false,
      "inputs": [
        {
          "indexed": true,
          "internalType": "bytes32",
          "name": "entityId",
          "type": "bytes32"
        },
        {
          "indexed": true,
          "internalType": "bytes32",
          "name": "batchHash",
          "type": "bytes32"
        },
        {
          "indexed": true,
          "internalType": "uint256",
          "name": "nonce",
          "type": "uint256"
        },
        {
          "indexed": false,
          "internalType": "enum BatchOperationType",
          "name": "operationType",
          "type": "uint8"
        },
        {
          "indexed": false,
          "internalType": "uint256",
          "name": "operationIndex",
          "type": "uint256"
        },
        {
          "indexed": false,
          "internalType": "enum BatchSkipReason",
          "name": "reason",
          "type": "uint8"
        }
      ],
      "name": "BatchOperationSkipped",
      "type": "event"
    },
    {
      "anonymous": false,
      "inputs": [
        {
          "indexed": true,
          "internalType": "bytes32",
          "name": "sender",
          "type": "bytes32"
        },
        {
          "indexed": true,
          "internalType": "bytes32",
          "name": "counterentity",
          "type": "bytes32"
        },
        {
          "indexed": true,
          "internalType": "uint256",
          "name": "nonce",
          "type": "uint256"
        }
      ],
      "name": "CooperativeClose",
      "type": "event"
    },
    {
      "anonymous": false,
      "inputs": [
        {
          "indexed": true,
          "internalType": "bytes32",
          "name": "debtor",
          "type": "bytes32"
        },
        {
          "indexed": true,
          "internalType": "bytes32",
          "name": "creditor",
          "type": "bytes32"
        },
        {
          "indexed": true,
          "internalType": "uint256",
          "name": "tokenId",
          "type": "uint256"
        },
        {
          "indexed": false,
          "internalType": "uint256",
          "name": "amount",
          "type": "uint256"
        },
        {
          "indexed": false,
          "internalType": "uint256",
          "name": "debtIndex",
          "type": "uint256"
        }
      ],
      "name": "DebtCreated",
      "type": "event"
    },
    {
      "anonymous": false,
      "inputs": [
        {
          "indexed": true,
          "internalType": "bytes32",
          "name": "debtor",
          "type": "bytes32"
        },
        {
          "indexed": true,
          "internalType": "bytes32",
          "name": "creditor",
          "type": "bytes32"
        },
        {
          "indexed": true,
          "internalType": "uint256",
          "name": "tokenId",
          "type": "uint256"
        },
        {
          "indexed": false,
          "internalType": "uint256",
          "name": "amountPaid",
          "type": "uint256"
        },
        {
          "indexed": false,
          "internalType": "uint256",
          "name": "remainingAmount",
          "type": "uint256"
        },
        {
          "indexed": false,
          "internalType": "uint256",
          "name": "newDebtIndex",
          "type": "uint256"
        }
      ],
      "name": "DebtEnforced",
      "type": "event"
    },
    {
      "anonymous": false,
      "inputs": [
        {
          "indexed": true,
          "internalType": "bytes32",
          "name": "debtor",
          "type": "bytes32"
        },
        {
          "indexed": true,
          "internalType": "bytes32",
          "name": "creditor",
          "type": "bytes32"
        },
        {
          "indexed": true,
          "internalType": "uint256",
          "name": "tokenId",
          "type": "uint256"
        },
        {
          "indexed": false,
          "internalType": "uint256",
          "name": "amountForgiven",
          "type": "uint256"
        },
        {
          "indexed": false,
          "internalType": "uint256",
          "name": "debtIndex",
          "type": "uint256"
        }
      ],
      "name": "DebtForgiven",
      "type": "event"
    },
    {
      "anonymous": false,
      "inputs": [
        {
          "indexed": true,
          "internalType": "bytes32",
          "name": "sender",
          "type": "bytes32"
        },
        {
          "indexed": true,
          "internalType": "bytes32",
          "name": "counterentity",
          "type": "bytes32"
        },
        {
          "indexed": true,
          "internalType": "uint256",
          "name": "nonce",
          "type": "uint256"
        },
        {
          "indexed": false,
          "internalType": "bytes32",
          "name": "initialProofbodyHash",
          "type": "bytes32"
        },
        {
          "indexed": false,
          "internalType": "bytes32",
          "name": "finalProofbodyHash",
          "type": "bytes32"
        }
      ],
      "name": "DisputeFinalized",
      "type": "event"
    },
    {
      "anonymous": false,
      "inputs": [
        {
          "indexed": true,
          "internalType": "bytes32",
          "name": "sender",
          "type": "bytes32"
        },
        {
          "indexed": true,
          "internalType": "bytes32",
          "name": "counterentity",
          "type": "bytes32"
        },
        {
          "indexed": true,
          "internalType": "uint256",
          "name": "nonce",
          "type": "uint256"
        },
        {
          "indexed": false,
          "internalType": "bytes32",
          "name": "proofbodyHash",
          "type": "bytes32"
        },
        {
          "indexed": false,
          "internalType": "bytes32",
          "name": "watchSeed",
          "type": "bytes32"
        },
        {
          "indexed": false,
          "internalType": "bytes",
          "name": "starterInitialArguments",
          "type": "bytes"
        },
        {
          "indexed": false,
          "internalType": "bytes",
          "name": "starterIncrementedArguments",
          "type": "bytes"
        },
        {
          "indexed": false,
          "internalType": "uint256",
          "name": "disputeTimeout",
          "type": "uint256"
        }
      ],
      "name": "DisputeStarted",
      "type": "event"
    },
    {
      "anonymous": false,
      "inputs": [
        {
          "indexed": true,
          "internalType": "bytes32",
          "name": "entityId",
          "type": "bytes32"
        },
        {
          "indexed": true,
          "internalType": "bytes32",
          "name": "batchHash",
          "type": "bytes32"
        },
        {
          "indexed": false,
          "internalType": "uint256",
          "name": "nonce",
          "type": "uint256"
        }
      ],
      "name": "HankoBatchProcessed",
      "type": "event"
    },
    {
      "anonymous": false,
      "inputs": [
        {
          "indexed": true,
          "internalType": "bytes32",
          "name": "entity",
          "type": "bytes32"
        },
        {
          "indexed": true,
          "internalType": "uint256",
          "name": "tokenId",
          "type": "uint256"
        },
        {
          "indexed": false,
          "internalType": "uint256",
          "name": "newBalance",
          "type": "uint256"
        }
      ],
      "name": "ReserveUpdated",
      "type": "event"
    },
    {
      "anonymous": false,
      "inputs": [
        {
          "indexed": true,
          "internalType": "bytes32",
          "name": "hashlock",
          "type": "bytes32"
        },
        {
          "indexed": true,
          "internalType": "bytes32",
          "name": "revealer",
          "type": "bytes32"
        },
        {
          "indexed": false,
          "internalType": "bytes32",
          "name": "secret",
          "type": "bytes32"
        }
      ],
      "name": "SecretRevealed",
      "type": "event"
    },
    {
      "anonymous": false,
      "inputs": [
        {
          "indexed": true,
          "internalType": "uint256",
          "name": "tokenId",
          "type": "uint256"
        },
        {
          "indexed": false,
          "internalType": "uint8",
          "name": "tokenType",
          "type": "uint8"
        },
        {
          "indexed": true,
          "internalType": "address",
          "name": "contractAddress",
          "type": "address"
        },
        {
          "indexed": false,
          "internalType": "uint96",
          "name": "externalTokenId",
          "type": "uint96"
        }
      ],
      "name": "TokenRegistered",
      "type": "event"
    },
    {
      "anonymous": false,
      "inputs": [
        {
          "indexed": true,
          "internalType": "bytes32",
          "name": "accountKeyHash",
          "type": "bytes32"
        },
        {
          "indexed": true,
          "internalType": "uint256",
          "name": "clauseIndex",
          "type": "uint256"
        },
        {
          "indexed": true,
          "internalType": "address",
          "name": "transformer",
          "type": "address"
        },
        {
          "indexed": false,
          "internalType": "enum Depository.TransformerSkipReason",
          "name": "reason",
          "type": "uint8"
        }
      ],
      "name": "TransformerClauseSkipped",
      "type": "event"
    },
    {
      "anonymous": false,
      "inputs": [
        {
          "indexed": true,
          "internalType": "bytes32",
          "name": "accountKeyHash",
          "type": "bytes32"
        },
        {
          "indexed": true,
          "internalType": "uint256",
          "name": "clauseIndex",
          "type": "uint256"
        },
        {
          "indexed": true,
          "internalType": "address",
          "name": "transformer",
          "type": "address"
        },
        {
          "indexed": false,
          "internalType": "uint256",
          "name": "tokenId",
          "type": "uint256"
        },
        {
          "indexed": false,
          "internalType": "int256",
          "name": "requestedValue",
          "type": "int256"
        },
        {
          "indexed": false,
          "internalType": "int256",
          "name": "appliedValue",
          "type": "int256"
        }
      ],
      "name": "TransformerDeltaClamped",
      "type": "event"
    },
    {
      "anonymous": false,
      "inputs": [
        {
          "indexed": true,
          "internalType": "address",
          "name": "tower",
          "type": "address"
        },
        {
          "indexed": true,
          "internalType": "bytes32",
          "name": "entityId",
          "type": "bytes32"
        },
        {
          "indexed": true,
          "internalType": "bytes32",
          "name": "counterentity",
          "type": "bytes32"
        },
        {
          "indexed": false,
          "internalType": "uint256",
          "name": "finalNonce",
          "type": "uint256"
        },
        {
          "indexed": false,
          "internalType": "uint256",
          "name": "appointmentSequence",
          "type": "uint256"
        }
      ],
      "name": "WatchtowerCounterDisputeExecuted",
      "type": "event"
    },
    {
      "inputs": [],
      "name": "DOMAIN_SEPARATOR",
      "outputs": [
        {
          "internalType": "bytes32",
          "name": "",
          "type": "bytes32"
        }
      ],
      "stateMutability": "view",
      "type": "function"
    },
    {
      "inputs": [],
      "name": "WATCHTOWER_COUNTER_DISPUTE_DOMAIN_SEPARATOR",
      "outputs": [
        {
          "internalType": "bytes32",
          "name": "",
          "type": "bytes32"
        }
      ],
      "stateMutability": "view",
      "type": "function"
    },
    {
      "inputs": [
        {
          "internalType": "bytes",
          "name": "",
          "type": "bytes"
        }
      ],
      "name": "_accounts",
      "outputs": [
        {
          "internalType": "uint256",
          "name": "nonce",
          "type": "uint256"
        },
        {
          "internalType": "bytes32",
          "name": "disputeHash",
          "type": "bytes32"
        },
        {
          "internalType": "uint256",
          "name": "disputeTimeout",
          "type": "uint256"
        },
        {
          "internalType": "uint256",
          "name": "disputeStartTimestamp",
          "type": "uint256"
        },
        {
          "internalType": "bytes32",
          "name": "disputeInitialProofbodyHash",
          "type": "bytes32"
        },
        {
          "internalType": "bytes32",
          "name": "starterInitialArgumentsCommitment",
          "type": "bytes32"
        },
        {
          "internalType": "bytes32",
          "name": "starterIncrementedArgumentsCommitment",
          "type": "bytes32"
        },
        {
          "internalType": "bool",
          "name": "disputeStartedByLeft",
          "type": "bool"
        }
      ],
      "stateMutability": "view",
      "type": "function"
    },
    {
      "inputs": [
        {
          "internalType": "bytes32",
          "name": "",
          "type": "bytes32"
        },
        {
          "internalType": "uint256",
          "name": "",
          "type": "uint256"
        }
      ],
      "name": "_activeDebtsByToken",
      "outputs": [
        {
          "internalType": "uint256",
          "name": "",
          "type": "uint256"
        }
      ],
      "stateMutability": "view",
      "type": "function"
    },
    {
      "inputs": [
        {
          "internalType": "bytes",
          "name": "",
          "type": "bytes"
        },
        {
          "internalType": "uint256",
          "name": "",
          "type": "uint256"
        }
      ],
      "name": "_collaterals",
      "outputs": [
        {
          "internalType": "uint256",
          "name": "collateral",
          "type": "uint256"
        },
        {
          "internalType": "int256",
          "name": "ondelta",
          "type": "int256"
        }
      ],
      "stateMutability": "view",
      "type": "function"
    },
    {
      "inputs": [
        {
          "internalType": "bytes32",
          "name": "",
          "type": "bytes32"
        },
        {
          "internalType": "uint256",
          "name": "",
          "type": "uint256"
        }
      ],
      "name": "_debtIndex",
      "outputs": [
        {
          "internalType": "uint256",
          "name": "",
          "type": "uint256"
        }
      ],
      "stateMutability": "view",
      "type": "function"
    },
    {
      "inputs": [
        {
          "internalType": "bytes32",
          "name": "",
          "type": "bytes32"
        },
        {
          "internalType": "uint256",
          "name": "",
          "type": "uint256"
        },
        {
          "internalType": "uint256",
          "name": "",
          "type": "uint256"
        }
      ],
      "name": "_debts",
      "outputs": [
        {
          "internalType": "bytes32",
          "name": "creditor",
          "type": "bytes32"
        },
        {
          "internalType": "uint256",
          "name": "amount",
          "type": "uint256"
        }
      ],
      "stateMutability": "view",
      "type": "function"
    },
    {
      "inputs": [
        {
          "internalType": "bytes32",
          "name": "",
          "type": "bytes32"
        },
        {
          "internalType": "uint256",
          "name": "",
          "type": "uint256"
        }
      ],
      "name": "_reserves",
      "outputs": [
        {
          "internalType": "uint256",
          "name": "",
          "type": "uint256"
        }
      ],
      "stateMutability": "view",
      "type": "function"
    },
    {
      "inputs": [
        {
          "internalType": "uint256",
          "name": "",
          "type": "uint256"
        }
      ],
      "name": "_tokens",
      "outputs": [
        {
          "internalType": "address",
          "name": "contractAddress",
          "type": "address"
        },
        {
          "internalType": "uint96",
          "name": "externalTokenId",
          "type": "uint96"
        },
        {
          "internalType": "uint8",
          "name": "tokenType",
          "type": "uint8"
        }
      ],
      "stateMutability": "view",
      "type": "function"
    },
    {
      "inputs": [
        {
          "internalType": "bytes32",
          "name": "e1",
          "type": "bytes32"
        },
        {
          "internalType": "bytes32",
          "name": "e2",
          "type": "bytes32"
        }
      ],
      "name": "accountKey",
      "outputs": [
        {
          "internalType": "bytes",
          "name": "",
          "type": "bytes"
        }
      ],
      "stateMutability": "pure",
      "type": "function"
    },
    {
      "inputs": [],
      "name": "admin",
      "outputs": [
        {
          "internalType": "address",
          "name": "",
          "type": "address"
        }
      ],
      "stateMutability": "view",
      "type": "function"
    },
    {
      "inputs": [
        {
          "components": [
            {
              "internalType": "bytes32",
              "name": "entity",
              "type": "bytes32"
            },
            {
              "internalType": "address",
              "name": "contractAddress",
              "type": "address"
            },
            {
              "internalType": "uint96",
              "name": "externalTokenId",
              "type": "uint96"
            },
            {
              "internalType": "uint8",
              "name": "tokenType",
              "type": "uint8"
            },
            {
              "internalType": "uint256",
              "name": "internalTokenId",
              "type": "uint256"
            },
            {
              "internalType": "uint256",
              "name": "amount",
              "type": "uint256"
            }
          ],
          "internalType": "struct ExternalTokenToReserve",
          "name": "params",
          "type": "tuple"
        }
      ],
      "name": "adminRegisterExternalToken",
      "outputs": [],
      "stateMutability": "nonpayable",
      "type": "function"
    },
    {
      "inputs": [
        {
          "internalType": "address",
          "name": "tower",
          "type": "address"
        },
        {
          "internalType": "bytes32",
          "name": "entityId",
          "type": "bytes32"
        },
        {
          "internalType": "bytes32",
          "name": "counterentity",
          "type": "bytes32"
        },
        {
          "internalType": "uint256",
          "name": "finalNonce",
          "type": "uint256"
        },
        {
          "internalType": "bytes32",
          "name": "finalProofbodyHash",
          "type": "bytes32"
        },
        {
          "internalType": "uint256",
          "name": "lastResortWindowBlocks",
          "type": "uint256"
        },
        {
          "internalType": "uint256",
          "name": "appointmentSequence",
          "type": "uint256"
        }
      ],
      "name": "computeWatchtowerCounterDisputeHash",
      "outputs": [
        {
          "internalType": "bytes32",
          "name": "",
          "type": "bytes32"
        }
      ],
      "stateMutability": "view",
      "type": "function"
    },
    {
      "inputs": [
        {
          "internalType": "bytes32",
          "name": "",
          "type": "bytes32"
        },
        {
          "internalType": "uint256",
          "name": "",
          "type": "uint256"
        }
      ],
      "name": "debtOutstanding",
      "outputs": [
        {
          "internalType": "uint256",
          "name": "",
          "type": "uint256"
        }
      ],
      "stateMutability": "view",
      "type": "function"
    },
    {
      "inputs": [
        {
          "internalType": "bytes",
          "name": "encoded",
          "type": "bytes"
        }
      ],
      "name": "decodeTransformerArgumentListStrict",
      "outputs": [
        {
          "internalType": "bytes[]",
          "name": "",
          "type": "bytes[]"
        }
      ],
      "stateMutability": "pure",
      "type": "function"
    },
    {
      "inputs": [],
      "name": "defaultDisputeDelay",
      "outputs": [
        {
          "internalType": "uint256",
          "name": "",
          "type": "uint256"
        }
      ],
      "stateMutability": "view",
      "type": "function"
    },
    {
      "inputs": [
        {
          "internalType": "bytes32",
          "name": "entity",
          "type": "bytes32"
        },
        {
          "internalType": "uint256",
          "name": "tokenId",
          "type": "uint256"
        },
        {
          "internalType": "uint256",
          "name": "maxIterations",
          "type": "uint256"
        }
      ],
      "name": "enforceDebts",
      "outputs": [],
      "stateMutability": "nonpayable",
      "type": "function"
    },
    {
      "inputs": [
        {
          "internalType": "bytes32",
          "name": "",
          "type": "bytes32"
        }
      ],
      "name": "entityNonces",
      "outputs": [
        {
          "internalType": "uint256",
          "name": "",
          "type": "uint256"
        }
      ],
      "stateMutability": "view",
      "type": "function"
    },
    {
      "inputs": [],
      "name": "entityProvider",
      "outputs": [
        {
          "internalType": "address",
          "name": "",
          "type": "address"
        }
      ],
      "stateMutability": "view",
      "type": "function"
    },
    {
      "inputs": [],
      "name": "getTokensLength",
      "outputs": [
        {
          "internalType": "uint256",
          "name": "",
          "type": "uint256"
        }
      ],
      "stateMutability": "view",
      "type": "function"
    },
    {
      "inputs": [
        {
          "internalType": "bytes32",
          "name": "entity",
          "type": "bytes32"
        },
        {
          "internalType": "uint256",
          "name": "tokenId",
          "type": "uint256"
        },
        {
          "internalType": "uint256",
          "name": "amount",
          "type": "uint256"
        }
      ],
      "name": "mintToReserve",
      "outputs": [],
      "stateMutability": "nonpayable",
      "type": "function"
    },
    {
      "inputs": [
        {
          "internalType": "address",
          "name": "",
          "type": "address"
        },
        {
          "internalType": "address",
          "name": "",
          "type": "address"
        },
        {
          "internalType": "uint256[]",
          "name": "",
          "type": "uint256[]"
        },
        {
          "internalType": "uint256[]",
          "name": "",
          "type": "uint256[]"
        },
        {
          "internalType": "bytes",
          "name": "",
          "type": "bytes"
        }
      ],
      "name": "onERC1155BatchReceived",
      "outputs": [
        {
          "internalType": "bytes4",
          "name": "",
          "type": "bytes4"
        }
      ],
      "stateMutability": "pure",
      "type": "function"
    },
    {
      "inputs": [
        {
          "internalType": "address",
          "name": "",
          "type": "address"
        },
        {
          "internalType": "address",
          "name": "",
          "type": "address"
        },
        {
          "internalType": "uint256",
          "name": "",
          "type": "uint256"
        },
        {
          "internalType": "uint256",
          "name": "",
          "type": "uint256"
        },
        {
          "internalType": "bytes",
          "name": "",
          "type": "bytes"
        }
      ],
      "name": "onERC1155Received",
      "outputs": [
        {
          "internalType": "bytes4",
          "name": "",
          "type": "bytes4"
        }
      ],
      "stateMutability": "pure",
      "type": "function"
    },
    {
      "inputs": [
        {
          "internalType": "bytes",
          "name": "encodedBatch",
          "type": "bytes"
        },
        {
          "internalType": "bytes",
          "name": "hankoData",
          "type": "bytes"
        },
        {
          "internalType": "uint256",
          "name": "nonce",
          "type": "uint256"
        }
      ],
      "name": "processBatch",
      "outputs": [
        {
          "internalType": "bool",
          "name": "completeSuccess",
          "type": "bool"
        }
      ],
      "stateMutability": "nonpayable",
      "type": "function"
    },
    {
      "inputs": [
        {
          "internalType": "uint8",
          "name": "tokenType",
          "type": "uint8"
        },
        {
          "internalType": "address",
          "name": "contractAddress",
          "type": "address"
        },
        {
          "internalType": "uint96",
          "name": "externalTokenId",
          "type": "uint96"
        }
      ],
      "name": "registerExternalToken",
      "outputs": [
        {
          "internalType": "uint256",
          "name": "tokenId",
          "type": "uint256"
        }
      ],
      "stateMutability": "nonpayable",
      "type": "function"
    },
    {
      "inputs": [
        {
          "internalType": "bytes32",
          "name": "",
          "type": "bytes32"
        }
      ],
      "name": "tokenToId",
      "outputs": [
        {
          "internalType": "uint256",
          "name": "",
          "type": "uint256"
        }
      ],
      "stateMutability": "view",
      "type": "function"
    },
    {
      "inputs": [
        {
          "internalType": "bytes32",
          "name": "entityId",
          "type": "bytes32"
        },
        {
          "components": [
            {
              "internalType": "bytes32",
              "name": "counterentity",
              "type": "bytes32"
            },
            {
              "internalType": "uint256",
              "name": "initialNonce",
              "type": "uint256"
            },
            {
              "internalType": "uint256",
              "name": "finalNonce",
              "type": "uint256"
            },
            {
              "internalType": "bytes32",
              "name": "initialProofbodyHash",
              "type": "bytes32"
            },
            {
              "components": [
                {
                  "internalType": "bytes32",
                  "name": "watchSeed",
                  "type": "bytes32"
                },
                {
                  "internalType": "int256[]",
                  "name": "offdeltas",
                  "type": "int256[]"
                },
                {
                  "internalType": "uint256[]",
                  "name": "tokenIds",
                  "type": "uint256[]"
                },
                {
                  "components": [
                    {
                      "internalType": "address",
                      "name": "transformerAddress",
                      "type": "address"
                    },
                    {
                      "internalType": "bytes",
                      "name": "encodedBatch",
                      "type": "bytes"
                    },
                    {
                      "components": [
                        {
                          "internalType": "uint256",
                          "name": "deltaIndex",
                          "type": "uint256"
                        },
                        {
                          "internalType": "uint256",
                          "name": "rightAllowance",
                          "type": "uint256"
                        },
                        {
                          "internalType": "uint256",
                          "name": "leftAllowance",
                          "type": "uint256"
                        }
                      ],
                      "internalType": "struct Allowance[]",
                      "name": "allowances",
                      "type": "tuple[]"
                    }
                  ],
                  "internalType": "struct TransformerClause[]",
                  "name": "transformers",
                  "type": "tuple[]"
                }
              ],
              "internalType": "struct ProofBody",
              "name": "finalProofbody",
              "type": "tuple"
            },
            {
              "internalType": "bytes",
              "name": "starterArguments",
              "type": "bytes"
            },
            {
              "internalType": "bytes",
              "name": "otherArguments",
              "type": "bytes"
            },
            {
              "internalType": "bytes",
              "name": "sig",
              "type": "bytes"
            },
            {
              "internalType": "bool",
              "name": "startedByLeft",
              "type": "bool"
            },
            {
              "internalType": "bool",
              "name": "cooperative",
              "type": "bool"
            }
          ],
          "internalType": "struct FinalDisputeProof",
          "name": "params",
          "type": "tuple"
        },
        {
          "internalType": "uint256",
          "name": "lastResortWindowBlocks",
          "type": "uint256"
        },
        {
          "internalType": "uint256",
          "name": "appointmentSequence",
          "type": "uint256"
        },
        {
          "internalType": "bytes",
          "name": "ownerAuthorizationHanko",
          "type": "bytes"
        }
      ],
      "name": "watchtowerCounterDispute",
      "outputs": [
        {
          "internalType": "bool",
          "name": "",
          "type": "bool"
        }
      ],
      "stateMutability": "nonpayable",
      "type": "function"
    }
  ],
  "bytecode": "0x60e034620001dd5762005b75906001600160401b03601f38849003908101601f191683019082821184831017620001e25780849160409687948552833981010312620001dd5781516001600160a01b0380821693909190848203620001dd57602001519060009460018655158015620001d4575b8015620001c8575b620001b75760805260a0523360c0528351916060830190811183821017620001a357845282825260208201908382528483019380855260085490680100000000000000008210156200018f5760018201806008558210156200017b579160019391602084600860ff9896522090851b0192511690838060a01b0319905160a01b161781550191511660ff198254161790555161597c9081620001f982396080518181816109e4015281816115f4015281816118c201528181611d3701528181611ef301528181612b3b015261438d015260a0518181816106d10152611d11015260c0518181816101cb01528181610287015281816103dd0152612bfb0152f35b634e487b7160e01b81526032600452602490fd5b634e487b7160e01b81526041600452602490fd5b634e487b7160e01b84526041600452602484fd5b8551633c4117f160e21b8152600490fd5b5061ffff82116200007b565b50811562000073565b600080fd5b634e487b7160e01b600052604160045260246000fdfe60a0604052600436101561001257600080fd5b6000803560e01c80630dedd62414612cfd57806310340ce314612ce5578063125c2cc414612c3557806321fe67d814612bbc5780633644e51514612b9357806340530a9a14612b6a5780634318cdd014612b255780637508b91614612af857806378bc542a14612acb5780637a4ef02514610c7357806381e851b61461078857806382f437b11461074457806388a1cd76146106f4578063907efb1b146106b95780639e8de8191461068c578063acd6f2081461065f578063b0c26ecf14610641578063bc197c81146105b1578063d19fd92e14610587578063e3af37e31461044f578063e812c569146103ca578063ed70554d14610376578063edcc1b041461034c578063f176e32614610311578063f23a6e61146102b6578063f851a440146102715763fdfef2011461014657600080fd5b3461026e5760c036600319011261026e5760405161016381612df2565b60043581526001600160a01b0390602435828116810361026957602082019081526001600160601b039060443590828216820361026957604084019182526064359160ff8316830361026957606085019283526080850193608435855260a43560a0870152867f0000000000000000000000000000000000000000000000000000000000000000163314801590610250575b61023e57600288541461022c576102259660ff61021e9560028b555116935116915116916140b1565b905261498d565b6001815580f35b604051633018d46b60e11b8152600490fd5b604051633485c51360e21b8152600490fd5b50617a6946141580156101f55750617a6a4614156101f5565b600080fd5b80fd5b503461026e578060031936011261026e576040517f00000000000000000000000000000000000000000000000000000000000000006001600160a01b03168152602090f35b503461026e5760a036600319011261026e576102d0612f39565b506102d9612f23565b506084356001600160401b03811161030d576102f9903690600401612f79565b505060405163f23a6e6160e01b8152602090f35b5080fd5b503461026e57604036600319011261026e57610348610334602435600435613ef1565b604051918291602083526020830190613027565b0390f35b503461026e57602036600319011261026e5760406020916004358152600a83522054604051908152f35b503461026e57602036600319011261026e576004359060085482101561026e5760606103a183612fa6565b5060ff60018254920154166040519160018060a01b038116835260a01c60208301526040820152f35b503461026e576103d936612f09565b90337f00000000000000000000000000000000000000000000000000000000000000006001600160a01b031614801590610436575b61023e5781156104245761042192613fa0565b80f35b60405163440a57bf60e01b8152600490fd5b50617a69461415801561040e5750617a6a46141561040e565b503461026e5760208060031936011261030d576001600160401b0360043581811161058357610482903690600401612f79565b810190838183031261057b5780359083821161057f570181601f8201121561057b578035926104b084613798565b926104be6040519485612e3b565b8484528584019186839660051b850101938285116105775787819996989901935b85851061054657505050505050604051928484019085855251809152604084019460408260051b8601019392955b82871061051a5785850386f35b909192938280610536600193603f198a82030186528851613027565b960192019601959291909261050d565b84999896993583811161057357899161056486848094870101612e79565b815201940193989597986104df565b8a80fd5b8880fd5b8480fd5b8580fd5b8380fd5b503461026e57602036600319011261026e5760406020916004358152600983522054604051908152f35b503461026e5760a036600319011261026e576105cb612f39565b506105d4612f23565b506001600160401b0360443581811161063d576105f5903690600401612ff7565b505060643581811161063d5761060f903690600401612ff7565b505060843590811161030d57610629903690600401612f79565b5050604051633c4117f160e21b8152600490fd5b8280fd5b503461026e578060031936011261026e576020600854604051908152f35b503461026e57604060209161067336612f63565b9082526001845282822090825283522054604051908152f35b503461026e5760406020916106a036612f63565b9082526006845282822090825283522054604051908152f35b503461026e578060031936011261026e5760206040517f00000000000000000000000000000000000000000000000000000000000000008152f35b503461026e5761070336612f09565b929182526004602052604082209082526020526040812090815483101561026e5760406107308484612fdb565b506001815491015482519182526020820152f35b503461026e5760e036600319011261026e576020610780610763612f39565b60c4359060a4359060843590606435906044359060243590613e73565b604051908152f35b503461026e576003199060a03683011261026e576024356001600160401b03811161030d5780600401926101408236039182011261063d576084356001600160401b038111610583576107df903690600401612f79565b9091600285541461022c5760028555620400003611610c615761080d6108088735600435613ef1565b612ee3565b600181015415610c4f576101248501358015158103610c475761023e5760e48501356022198301811215610c475785016004810135906001600160401b038211610c4b576024823603910113610c47571561023e576044351561023e5780546044860135111561023e5760026108856044354361307e565b9101541161023e576084840135906082190181121561057b576040519060208083015260c08201906004818701013560408401526108cd602482880101600483890101613e3e565b608060608601529283905260e0840192885b818110610c31575050506108fd604482880101600483890101613e3e565b848403603f190160808601528084526001600160fb1b0381116105775760051b92919083906020840137818301602001906109419088016064810190600401613e3e565b809192601f1987878701030160a0880152526040848401019360408260051b82860101019483948b925b848410610ae95750505050505050916109b6826109976109d8969460409603601f198101835282612e3b565b60643590604435906020815191012060448901358b3560043533613e73565b8351633c3d601d60e21b81526004810185905294859384936044850191613df3565b602483019190915203817f00000000000000000000000000000000000000000000000000000000000000006001600160a01b03165afa8015610ade5783918491610aad575b5015908115610aa0575b50610a8e57600192610a44610a3c3683613a66565b600435614347565b6044604051920135825260643560208301523590600435907fb209bafd9234f5eaba22fb2de42069934e9a20bb838ffc9afa40ede47dbe7d8760403392a455602060405160018152f35b604051631bd18a1960e31b8152600490fd5b9050600435141538610a27565b9050610ad1915060403d604011610ad7575b610ac98183612e3b565b810190613e21565b38610a1d565b503d610abf565b6040513d85823e3d90fd5b90919293949596603f198284018203018452605e198736030188351215610c2d576001600160a01b03610b1e89358901612f4f565b1681528735870136819003601e19016020909101351215610c2d57873587016020810135016001600160401b03813511610c2957803536036020820113610c2957610b7a90606060208401526060830190602081359101613df3565b8835880136819003601e19016040909101351215610c295788358801604081013501916001600160401b03833511610c2557606083350236036020840113610c2557818f9291604081602094039101528335815201916020810191905b80358210610bf95750505060208060019299019401940192959493919061096b565b909192606080600192863581526020870135602082015260408701356040820152019401920190610bd7565b8e80fd5b8d80fd5b8c80fd5b82358552602094850194909201916001016108df565b8680fd5b8780fd5b6040516388d0662b60e01b8152600490fd5b60405163e217c62b60e01b8152600490fd5b503461026e57606036600319011261026e576004356001600160401b03811161030d57610ca4903690600401612f79565b6080526024356001600160401b03811161063d57610cc6903690600401612f79565b919092600281541461022c57600281556204000060805111610c61576020826080518101031261026e576001600160401b0382351161026e57610140823583016080518401031261026e57604051610d1d81612d6f565b6001600160401b0383358401351161030d57608051830183358401803501601f01121561030d578235830180350135610d5581613798565b90610d636040519283612e3b565b8082526020820190608051860160208260061b883589013589358a010101011161057b5785358601803501602001915b86358701803501600683901b016020018310612a935750505081526001600160401b0383358401602001351161030d57608051830183358401602081013501601f01121561030d57610dee8335840160208101350135613798565b610dfb6040519182612e3b565b602084358501818101350180358084526080518484019390880160609092029092019091011161058357602085358601818101350101905b85358601602081810135909101803560600201018210612a7557505060208201526001600160401b0383358401604001351161030d57608051830183358401604081013501601f01121561030d57610e948335840160408101350135613798565b610ea16040519182612e3b565b83358401604081013501803580835260805160208085019391880160059390931b90910101116105835784358501604081013501602001905b85358601604081013501803560051b01602001821061291057505060408201526001600160401b0383358401606001351161030d57608051830183358401606081013501601f01121561030d578235830160608101350135610f3b81613798565b90610f496040519283612e3b565b8082526020820190608051860160208260051b606089358a01013589358a010101011161057b5785358601606081013501602001915b86358701606081013501600583901b01602001831061284b5750505060608201526001600160401b0383358401608001351161030d576080518301601f6080853586010135853586010101121561030d578235830160808101350135610fe481613798565b90610ff26040519283612e3b565b8082526020820190608051860160208260051b608089358a01013589358a010101011161057b5785358601608081013501602001915b86358701608081013501600583901b0160200183106126105750505060808201526001600160401b038335840160a001351161030d5760805183018335840160a081013501601f01121561030d578235830160a0810135013561108a81613798565b906110986040519283612e3b565b8082526020820190608051860160208260051b60a089358a01013589358a010101011161057b578535860160a081013501602001915b8635870160a081013501600583901b0160200183106124475750505060a08201526001600160401b038335840160c001351161030d5760805183018335840160c081013501601f01121561030d5761112f8335840160c08101350135613798565b61113c6040519182612e3b565b8335840160c081013501803580835260805160208085019391880160059390931b9091010111610583578435850160c081013501602001905b8535860160c081013501803560051b01602001821061240b57505060c08201526001600160401b038335840160e001351161030d5760805183018335840160e081013501601f01121561030d576111d58335840160e08101350135613798565b6111e26040519182612e3b565b8335840160e081013501803580835260805160208085019391880160c09093029091010111610583578435850160e081013501602001905b8535860160e081013501803560c00201602001821061237f57505060e08201528235830161010001356001600160401b03811161063d576080518401601f82863587010101121561063d5761127481853586010135613798565b906112826040519283612e3b565b84358501810180358084526080516020808601939189016060909302909101011161057b57602082873588010101905b863587018301803560600201602001821061235e575050506101008201528235830161012001356001600160401b03811161063d576080518401601f82863587010101121561063d57808435850101359061130c82613798565b9161131a6040519384612e3b565b8083526020830191608051870160208360061b838a358b010101011161057f57602081883589010101925b60208360061b838a358b01010101841061231d575050505061012082015260326113f16113e46113d76113cb6113bf6113b36113a761139b61138f8a515160208c0151519061307e565b60408b0151519061307e565b60608a0151519061307e565b6080890151519061307e565b60a0880151519061307e565b60c0870151519061307e565b60e0860151519061307e565b610100850151519061307e565b610120840151519061307e565b11610c6157600881515111610c6157604060208201515111610c61576040808201515111610c6157604060608201515111610c6157602060808201515111610c6157600860a08201515111610c6157600860c08201515111610c6157604060e08201515111610c615760406101008201515111610c615760206101208201515111610c6157815b604082015180518210156114a457604061149383829361429c565b5101515111610c6157600101611478565b5050848460a083015160c084015173__$1a0918a2aa2208593bb0a5d7644cd0946b$__3b1561057f576114f4918691604051938492632a23b04760e21b8452604060048501526044840190613c8a565b600319838203016024840152815180825260208201916020808360051b83010194019286915b8383106122ec5750505050508190038173__$1a0918a2aa2208593bb0a5d7644cd0946b$__5af480156122c9576122d4575b50602061158f939495604051809581926392beedbd60e01b8352600080516020615907833981519152600484015260606024840152606483019060805190613df3565b6044356044830152038173__$1a0918a2aa2208593bb0a5d7644cd0946b$__5af49283156122c9578593612293575b506115e993949160409182519586928392633c3d601d60e21b84528560048501526044840191613df3565b6024820186905203817f00000000000000000000000000000000000000000000000000000000000000006001600160a01b03165afa8015611ac9578193829161226e575b50158015612266575b610a8e57828152600a6020526040812054600181018111612252576001016044350361023e57828152600a60205260443560408220556116778451516142b0565b926116838551516142b0565b9161168f8651516142b0565b928182915b8851805184101561176957836116a99161429c565b51519260206116b9828c5161429c565b5101519385905b848210611748575b8a8583146116fe575b50506116f56116ee60019495966116e8848c61429c565b5161307e565b918961429c565b52019190611694565b61173e86836116f5946117176001999a6116ee9661429c565b528b8b528760205260408b20908b5260205260408a2054611738828a61429c565b5261304c565b959450508a6116d1565b9081611754828d61429c565b511461176357600101906116c0565b906116c8565b5084899289898988805b8581106122295750600190805b60e08a015180518210156117b957906117ab61179e8260019461429c565b518051156117b15761498d565b01611780565b8a815261498d565b5050878997959697825b6020820151805182101561182557906117e86117e18260019461429c565b518a614cbe565b156117f4575b016117c3565b6040516000815281602082015260006040820152888a600080516020615927833981519152606060443594a46117ee565b505091939796909296845b606084015180518210156119c55790602061184d8260809461429c565b518a6118c060405195869384936328a3f8a760e11b8552600160048601526002602486015260036044860152606485015260c06084850152805160c48501528581015160e485015260408101516101048501526060810151610124850152015160a0610144840152610164830190613027565b7f00000000000000000000000000000000000000000000000000000000000000006001600160a01b031660a4830152038173__$1a0918a2aa2208593bb0a5d7644cd0946b$__5af49182156119ba57879261197d575b5060038210156119695760018214610a8e57600260019214611939575b01611830565b60405182815281602082015260006040820152888a600080516020615927833981519152606060443594a4611933565b634e487b7160e01b87526021600452602487fd5b9091506020813d6020116119b2575b8161199960209383612e3b565b81010312610c4757516003811015610c4757908b611916565b3d915061198c565b6040513d89823e3d90fd5b505087868894958b60808801518051611de9575b5060a08801518051611cda575b50885b6101208901518051821015611ad65781611a029161429c565b5180519091906001600160a01b03161561023e57815160208301518c916001600160a01b031690813b1561063d578291602483926040519586938492636030754560e01b845260048401525af1918215611ac9578b92611ab2575b5050827f47172349c05bf58f7f6a376def3bbc250cd3295a7eead0290d8fa3531c6ca9fb602080806001970151604051828101918252828152611a9f81612da1565b519020930151604051908152a3016119e9565b611abd919250612e0d565b61057357888b8d611a5d565b50604051903d90823e3d90fd5b505087879495968a805b60c08401518051821015611b0b5790611b05611afe8260019461429c565b518a614347565b01611ae0565b5050878997959697825b60408601518051821015611b775790611b3a611b338260019461429c565b518a614e9a565b15611b46575b01611b15565b60405160038152816020820152600060408201528b8a600080516020615927833981519152606060443594a4611b40565b50508789979596845b6101008901518051821015611be85781611ba9611ba26101009460019461429c565b518b61526f565b15611bb7575b019050611b80565b60405160048152816020820152600060408201528c8b600080516020615927833981519152606060443594a4611baf565b505088969495865b848110611c3e575050505050159182610a8e576020936001927f6ae7376aaf94e00d6598cb4305ba9943f431e6a66da007871ecddb33f054eda3866040516044358152a35560405190158152f35b611c48818361429c565b51611c68611c56838761429c565b51611c61848761429c565b519061307e565b888a52600160205260408a20828b5260205260408a205410611cc857611c99611c91838661429c565b51828a613f31565b8789526001602052604089209089526020526040882054611cba828661429c565b5111611cc857600101611bf0565b604051632fd8225d60e21b8152600490fd5b6020611d0f91604051809381926312f6ab5960e31b8352600260048401528c602484015260a0604484015260a4830190613c8a565b7f000000000000000000000000000000000000000000000000000000000000000060648301527f00000000000000000000000000000000000000000000000000000000000000006001600160a01b03166084830152038173__$1a0918a2aa2208593bb0a5d7644cd0946b$__5af4908115611dde578a91611da0575b5015611d98575b896119e6565b889350611d92565b90506020813d602011611dd6575b81611dbb60209383612e3b565b81010312611dd257611dcc90613e14565b8a611d8b565b8980fd5b3d9150611dae565b6040513d8c823e3d90fd5b929790919689985b84518a1015611e8057611e048a8661429c565b51988b5b8c60408c01518051831015611e70578291611e266001948f9361429c565b519080602083015112611e5e575b604082015112611e47575b505001611e08565b6020611e57920151905190613118565b8b8f611e3f565b611e6b8351835190613118565b611e34565b50506001909b019a509850611df1565b9592985095925095926080870151938960405180966328583d4560e21b82526001600483015260066024830152600260448301526003606483015289608483015260e060a483015280518060e4840152610104906020828501928260051b86010193019185905b828210612150575050507f00000000000000000000000000000000000000000000000000000000000000006001600160a01b031660c4840152508190038173__$1a0918a2aa2208593bb0a5d7644cd0946b$__5af4948515611dde578a95612090575b50958993999892949598979197985b6080830151518a101561207f57611f78611f738b8961429c565b6142e2565b600381101561206b57600114610a8e57611f95611f738b8961429c565b600381101561206b5760021461202a57611fb88a6080859d9a989b9d015161429c565b51968598606089019a60208a019a5b8c5180518210156120035790611ffd8d8d611fe48460019661429c565b5191611ff4838351835190614d10565b51905190614d10565b01611fc7565b5050959b9197939950959b93995060019197505b0198929495999399979197969096611f59565b9594929860019060409b959b999399989298516002815281602082015260006040820152888a600080516020615927833981519152606060443594a4612017565b634e487b7160e01b86526021600452602486fd5b9399969291985096939450896119d9565b9094503d808b833e6120a28183612e3b565b60208282810103126105735781516001600160401b03811161214c57818301601f82850101121561214c5780830151906120db82613798565b936120e96040519586612e3b565b8285526020850193810160208460051b848401010111610c295780820160200193915b60208460051b82840101018510612129575050505050938a611f4a565b845192600384101561214857602081819582935201950194925061210c565b8f80fd5b8b80fd5b929591945092610103198b820301835285519160c0820190835183526020840151602084015260408401519160c060408501528251809152602060e08501930191905b8082106121e9575050508260209260a0806121d26121c08796606060019a01518682036060880152613b46565b60808601518582036080870152613027565b9301519101529601920192019289938f9593611ee7565b909192602060a060019260808751805183528481015185840152604081015160408401526060810151606084015201516080820152019401920190612193565b8061224c6122396001938861429c565b51612244838761429c565b51908a613fa0565b01611773565b634e487b7160e01b82526011600452602482fd5b508215611636565b905061228a91935060403d604011610ad757610ac98183612e3b565b9290928561162d565b9092506020813d6020116122c1575b816122af60209383612e3b565b8101031261057b5751916115e96115be565b3d91506122a2565b6040513d87823e3d90fd5b61158f93946122e4602092612e0d565b94935061154c565b9295509295509260208061230c600193601f198682030187528951613d5a565b9701930193018a959387959261151a565b6040846080518a010312610c475790604060208093825161233d81612da1565b61234688612f4f565b81528288013583820152815201940193909150611345565b6060602080926123726080518b01866137af565b81520192019190506112b2565b60c0826080518801031261057b5760405161239981612df2565b823581526123a960208401612f4f565b602082015260408301356001600160601b038116900361057f5760408381013590820152606083013560ff8116900361057f5760c091602091606085013560608201526080850135608082015260a085013560a082015281520191019061121a565b6001600160401b0382351161057b57608051602091829161243c90890189358a0160c0810135018635018401613a66565b815201910190611175565b82356001600160401b038111610c4757610100601f198260a08b358c0101358b358c0101016080518b01030112610c4757604051906001600160401b036101008301908111908311176125fc576101008201604090815289358a0160a0810135018201602081810135855281830135908501526060810135918401919091526001600160401b0360809091013511610c4b57608080516124fe91908b01908b358c0160a08101350184019081013501602001613841565b606083015260a089358a01818101350182019081013560808401526001600160401b0360c09091013511610c4b5760805161254f908a018a358b0160a081013501830160c081013501602001612e79565b60a0838101919091526001600160401b038a358b0191820135909101820160e0013511610c4b57608051612599908a018a358b0160a081013501830160e081013501602001612e79565b60c08301526001600160401b0389358a0160a0810135018201610100013511610c4b5760805160209384938493919290916125ea918d01908d358e0160a08101350101610100810135018501612e79565b60e082015281520193019290506110ce565b634e487b7160e01b88526041600452602488fd5b82356001600160401b038111610c475760c0601f198260808b358c0101358b358c0101016080518b01030112610c47576040519061264d82612df2565b8835890160808101350181016020818101358452604082013590840152606001356001600160401b03811161057757608080518b018b358c019182013590910183018201603f0112156105775789358a0160808101350182018101602001356126b581613798565b916126c36040519384612e3b565b818352608080516020850191908e018e358f01918201359091018601830160a08502016040011161214c578c358d0160808101350185018201604001905b8d803581016080810135018701840160a086020160400183106127ef57505050505060408301526001600160401b0360808a358b0181810135018301013511610c4b576080805161276891908b01908b358c018082013501840190810135016020016137e1565b60608301526001600160401b0389358a01608081013501820160a0013511610c4b57602092839260c084936127c88d866080518201918460a081608084358501013584358501010101359160808135820101359080350101010101612e79565b608084015260808d80350101358d8035010101013560a08201528152019301929050611028565b8260a091608051010312610c2d5790604060a08f959493602090835161281481612dd7565b8535815282860135838201528486013585820152606086013560608201526080860135608082015281520192019293945050612701565b82356001600160401b038111610c475760a0601f198260608b358c0101358b358c0101016080518b01030112610c47576040519061288882612dd7565b602060608a358b01818101350183018281013585526040808201359386019390935280820135928501929092526080820135908401526001600160401b0360a09091013511610c4b5760805160209384938493919290916128fe918d01908d358e016060810135010160a0810135018501612e79565b60808201528152019301929050610f7f565b6001600160401b0382351161057b576060601f198335604089358a01013589358a010101608051890103011261057b5760405161294c81612dbc565b8635870160408181013590910184350160208181013584529181013591830191909152606001356001600160401b038111610c47576080518801883589016040810135018535018201603f011215610c475787358801604081013501843501810160200135906129bb82613798565b916129c96040519384612e3b565b8083526080516020840192908b018b358c016040818101359091018935018301600685901b010111611dd2578a358b01604081810135909101883501820101925b8b358c016040818101359091018935018301600685901b01018410612a4057505050506040820152815260209182019101610eda565b6040848d6080510103126105735760206040918251612a5e81612da1565b863581528287013583820152815201930192612a0a565b6020606091612a886080518901856137af565b815201910190610e33565b6040836080518901031261057f576040602080928251612ab281612da1565b8635815282870135838201528152019301929050610d93565b503461026e576040602091612adf36612f63565b9082526007845282822090825283522054604051908152f35b503461026e576040602091612b0c36612f63565b9082526005845282822090825283522054604051908152f35b503461026e578060031936011261026e576040517f00000000000000000000000000000000000000000000000000000000000000006001600160a01b03168152602090f35b503461026e578060031936011261026e5760206040516000805160206158e78339815191528152f35b503461026e578060031936011261026e5760206040516000805160206159078339815191528152f35b503461026e57606036600319011261026e5760043560ff8116810361030d57612be3612f23565b91604435906001600160601b038216820361026e57507f00000000000000000000000000000000000000000000000000000000000000006001600160a01b0316330361023e57602092610780926140b1565b503461026e57602036600319011261026e57600435906001600160401b03821161026e57610100612c816020612c6e3660048701612e79565b8160405193828580945193849201612ec0565b810160028152030190208054906001810154906002810154600382015460048301549060058401549260ff600760068701549601541695604051978852602088015260408701526060860152608085015260a084015260c0830152151560e0820152f35b503461026e57610421612cf736612f09565b91613518565b503461026e57604036600319011261026e576004356001600160401b03811161030d57604091612d496020612d3785943690600401612e79565b81855193828580945193849201612ec0565b810160038152030190206024358252602052206001815491015482519182526020820152f35b61014081019081106001600160401b03821117612d8b57604052565b634e487b7160e01b600052604160045260246000fd5b604081019081106001600160401b03821117612d8b57604052565b606081019081106001600160401b03821117612d8b57604052565b60a081019081106001600160401b03821117612d8b57604052565b60c081019081106001600160401b03821117612d8b57604052565b6001600160401b038111612d8b57604052565b608081019081106001600160401b03821117612d8b57604052565b601f909101601f19168101906001600160401b03821190821017612d8b57604052565b6001600160401b038111612d8b57601f01601f191660200190565b81601f8201121561026957803590612e9082612e5e565b92612e9e6040519485612e3b565b8284526020838301011161026957816000926020809301838601378301015290565b60005b838110612ed35750506000910152565b8181015183820152602001612ec3565b6020612efc918160405193828580945193849201612ec0565b8101600281520301902090565b606090600319011261026957600435906024359060443590565b602435906001600160a01b038216820361026957565b600435906001600160a01b038216820361026957565b35906001600160a01b038216820361026957565b6040906003190112610269576004359060243590565b9181601f84011215610269578235916001600160401b038311610269576020838186019501011161026957565b600854811015612fc557600860005260206000209060011b0190600090565b634e487b7160e01b600052603260045260246000fd5b8054821015612fc55760005260206000209060011b0190600090565b9181601f84011215610269578235916001600160401b038311610269576020808501948460051b01011161026957565b9060209161304081518092818552858086019101612ec0565b601f01601f1916010190565b600019811461305b5760010190565b634e487b7160e01b600052601160045260246000fd5b9190820391821161305b57565b9190820180921161305b57565b9061309c5760018160008093550155565b634e487b7160e01b600052600060045260246000fd5b805490600090818155826130c557505050565b6001906001600160ff1b0384168403613104578252602082209260011b8301925b8381106130f35750505050565b8083600292558383820155016130e6565b634e487b7160e01b83526011600452602483fd5b600081815260049260206004815260409384842083855282528484209586549081156133575782865260058452868620858752845286862054978289101561334e575b90838752600191600186528888208789528652888820548389905b6131c6575b505050505086101561319857835260058152838320918352522055565b6131c49550808452600582528484208385528252838581205583526004815283832091835252206130b2565b565b858c929394959c1080613345575b1561333d57906131e58c939261304c565b916131f08286612fdb565b50908482019182549586156133285750811561331f5754919061324c908c90613246908c90898110156133125761324181809581945b613231838383613f31565b61323c83838d613fa0565b613ffa565b613071565b96613071565b90613258828254613071565b91806132dd57508c90558d83018084116132ca576132c0928f969594928f8f8f94928f938f94936060936000805160206158a7833981519152958251948552840152820152a46132a88b8a614042565b6132bb6132b58288612fdb565b9061308b565b61304c565b9b5b949392613176565b634e487b7160e01b8d526011885260248dfd5b849f9695948f8e946000805160206158a7833981519152928f928f95606094818e9b99558251948552840152820152a46132c2565b6132418a80958194613226565b5050509a61317b565b9550509291613337915061304c565b9b6132c2565b819b5061317b565b508781106131d4565b9750859761315b565b5050835260058152838320918352529081205550565b600081815260049260206004815260409384842083855282528484209586549081156133575782865260058452868620858752845286862054978289101561350f575b90838752600191600186528888208789528652888820548389905b6133ec57505050505086101561319857835260058152838320918352522055565b858c929394959c1080613506575b1561333d579061340b8c939261304c565b916134168286612fdb565b50908482019182549586156134f15750811561331f57549190613456908c90613246908c9089811015613312576132418180958194613231838383613f31565b90613462828254613071565b91806134bc57508c90558d83018084116132ca576134b2928f969594928f8f8f94928f938f94936060936000805160206158a7833981519152958251948552840152820152a46132a88b8a614042565b9b5b9493926133cb565b849f9695948f8e946000805160206158a7833981519152928f928f95606094818e9b99558251948552840152820152a46134b4565b9550509291613500915061304c565b9b6134b4565b508781106133fa565b975085976133b0565b8060005260046020526040600020826000526020526040600020805490811561377657826000526005602052604060002084600052602052604060002054948286101561376d575b836000526001906001602052604060002086600052602052816040600020549180156000146137635750919291506000195b6000845b613603575b50505050508310156135c3576000526005602052604060002090600052602052604060002055565b8091925060005260056020526040600020826000526020526000604081205560005260046020526040600020906000526020526131c460406000206130b2565b858993949599108061375a575b156137525761361e9061304c565b916136298186612fdb565b509089820154948a861561373d57508015613735579061367a61323c6132468c86956132418e839c9b9a99549c8d918d851060001461372957849788809781955b613675838387613f31565b613fa0565b91613688838d830154613071565b92806136f057508b60009101558a81019182821161305b578b968a6000805160206158a783398151915260608e946136e497604051918252600060208301526040820152a46136d78a8a614042565b6132bb6132b58289612fdb565b985b9493919091613596565b6000805160206158a783398151915260608e999395859f96958f96948f95898291015560405192835260208301526040820152a46136e6565b8d97888097819561366a565b50985061359b565b95509392915061374c9061304c565b986136e6565b82985061359b565b50818110613610565b9050929192613592565b60009550613560565b5050909150600052600560205260406000209060005260205260006040812055565b6001600160401b038111612d8b5760051b60200190565b9190826060910312610269576040516137c781612dbc565b604080829480358452602081013560208501520135910152565b9080601f830112156102695760209082356137fb81613798565b936138096040519586612e3b565b81855260208086019260051b82010192831161026957602001905b828210613832575050505090565b81358152908301908301613824565b91909160808184031261026957604090815161385c81612e20565b813581529384906020906001600160401b03908285013582811161026957850181601f820112156102695780359061389382613798565b916138a089519384612e3b565b808352858084019160051b830101918483116102695786809101915b838310613a4957509150508501528585013582811161026957816138e19187016137e1565b86850152606094858101359083821161026957019181601f840112156102695782359161390d83613798565b9761391a8151998a612e3b565b83895285808a019460051b8601019482861161026957868101945b8686106139485750505050505050500152565b85358581116102695782018a601f1982870301126102695783519061396c82612dbc565b6139778a8201612f4f565b82528481013587811161026957868b61399292840101612e79565b8a8301528b81013590878211610269570185603f8201121561026957808a8d920135866139be82613798565b936139cb82519586612e3b565b8285528d850192028301019188831161026957918e959391888e969401905b828210613a065750505083945086820152815201950194613935565b91939550919395828a0312610269578c8f918951613a2381612dbc565b8435815282850135838201528a8501358b8201528152019101918c94928f9694926139ea565b82358152918101918791016138bc565b3590811515820361026957565b919091610140818403126102695760405190613a8182612d6f565b81938135835260208201356020840152604082013560408401526060820135606084015260808201359060018060401b03918281116102695781613ac6918501613841565b608085015260a08301358281116102695781613ae3918501612e79565b60a085015260c08301358281116102695781613b00918501612e79565b60c085015260e083013591821161026957613b1c918301612e79565b60e0830152610100613b2f818301613a59565b90830152613b41610120809201613a59565b910152565b90815180825260208080930193019160005b828110613b66575050505090565b835185529381019392810192600101613b58565b805182526020613b97818301516080838601526080850190613b46565b90613bae6040928385015186820385880152613b46565b6060809401519460608183039101528451928382528282019083808660051b8501019701956000906000945b878610613bed5750505050505050505090565b909192939495969798601f19828203018652878a5160018060a01b03815116835286613c2483830151878587015287860190613027565b910151928781830391015281808451928381520193019086905b86818310613c615750505050806001929b01960196019497969593929190613bda565b83958a6001949693955180518352848101518584015201518b82015201940192018a9291613c3e565b908082519081815260208091019281808460051b8301019501936000915b848310613cb85750505050505090565b9091929394958480613d4a600193601f198682030187528a51613d37613d24613d0761010084518652878501518887015260408086015190870152606090808287015192880152860190613b7a565b6080808501519086015260a0808501519086830390870152613027565b60c0808401519085830390860152613027565b9160e08092015191818403910152613027565b9801930193019194939290613ca8565b90613dd6613dc4613db2613da061014086518652602087015160208701526040870151604087015260608701516060870152608087015190806080880152860190613b7a565b60a086015185820360a0870152613027565b60c085015184820360c0860152613027565b60e084015183820360e0850152613027565b916101008082015115159083015261012080910151151591015290565b908060209392818452848401376000828201840152601f01601f1916010190565b5190811515820361026957565b919082604091031261026957613e3b602083519301613e14565b90565b9035601e1982360301811215610269570160208101919035906001600160401b038211610269578160051b3603831361026957565b959391949290946040519560208701976000805160206158e7833981519152895246604089015230606089015260018060a01b0316608088015260a087015260c086015260e085015261010084015261012083015261014090818301528152610160810181811060018060401b03821117612d8b5760405251902090565b9080821015613f1557604051916020830152604082015260408152613e3b81612dbc565b90604051916020830152604082015260408152613e3b81612dbc565b9073__$1a0918a2aa2208593bb0a5d7644cd0946b$__803b1561026957600092608491604051958694859363162571ad60e21b8552600160048601526024850152604484015260648301525af48015613f9457613f8b5750565b6131c490612e0d565b6040513d6000823e3d90fd5b9073__$1a0918a2aa2208593bb0a5d7644cd0946b$__803b156102695760009260849160405195869485936305a7368960e01b8552600160048601526024850152604484015260648301525af48015613f9457613f8b5750565b9091801561403d57600092828452600660205260408420818552602052604084205490828210611cc8576040938552600660205283852090855260205203912055565b505050565b90600090828252600760205260408220818352602052604082205461406657505050565b60409282526007602052828220908252602052206000198154019055565b60ff90911681526001600160a01b0390911660208201526001600160601b03909116604082015260600190565b929160ff841690600282118015614286575b61427457604094855163bf38450760e01b81528681806140e886898760048501614084565b038173__$1a0918a2aa2208593bb0a5d7644cd0946b$__5af490811561426957600091614231575b501561422057818461412192614c90565b94856000526009602052806000205480614218575080519161414283612dbc565b6001600160a01b039485168084526001600160601b0390911660208401818152838501868152600854939792959093909190600160401b811015612d8b578060016141909201600855612fa6565b91909161309c579151915160a01b6001600160a01b031916919092161781559051600191909101805460ff191660ff9290921691909117905560085460001981019390841161305b577f6db7ea252f5fe4f11e1c91399f427ede303c147cb22c1e5678845f92f7569e5c928497600052600960205284836000205582519182526020820152a3565b955050505050565b85516301899ea960e01b8152600490fd5b90508681813d8311614262575b6142488183612e3b565b8101031261026957602061425c9101613e14565b38614110565b503d61423e565b87513d6000823e3d90fd5b6040516301899ea960e01b8152600490fd5b50823b156140c3565b805115612fc55760200190565b8051821015612fc55760209160051b010190565b906142ba82613798565b6142c76040519182612e3b565b82815280926142d8601f1991613798565b0190602036910137565b5160038110156142ef5790565b634e487b7160e01b600052602160045260246000fd5b81601f8201121561026957805161431b81612e5e565b926143296040519485612e3b565b8184526020828401011161026957613e3b9160208085019101612ec0565b90614356610808825184613ef1565b6040516370449c9760e11b815260026004820152602481018490526080604482015292906000848061438b6084820187613d5a565b7f00000000000000000000000000000000000000000000000000000000000000006001600160a01b03166064830152038173__$1a0918a2aa2208593bb0a5d7644cd0946b$__5af48015613f9457600080600091600091600098600095614889575b5087519160808901519360408501515160208601515103614842578389109384156148825789945b1561487a57915b856144278487613ef1565b94604082015151986144388a613798565b946144466040519687612e3b565b8a8652601f196144558c613798565b0136602088013760009560019560005b8d81106147995750916144f06144b69897969492600096946144e18d60208151910120966144c96040519d8e9a8b9a638350abc160e01b8c5260048c015261010060248c01526101048b0190613b7a565b60031995868b83030160448c0152613b46565b908b151560648a0152848983030160848a0152613027565b918683030160a4870152613027565b9160c484015260e4830152038173__$1a0918a2aa2208593bb0a5d7644cd0946b$__5af4928315613f9457600093614706575b506146cc575b60005b87811061459e575050505060e08801515115935061457792505050576040906000805160206158c78339815191529282860151905b55606085519501519082519182526020820152a4565b8154906001820180921161305b576000805160206158c78339815191529260409290614561565b80600060018080941b85161580158b818660208160051b8c010151916146c3575b60406145cd9293015161429c565b51916145e860208d8160405193828580945193849201612ec0565b810160038152030190208387526020528c6040872094855492906146bb575b871461464c57508061463b575b5080614629575b50505b82815501550161452c565b614634918a8d615779565b388061461b565b61464690838c613fa0565b38614614565b929181811015871461469d5782938261466d948161468c575b505050613071565b8061467a575b505061461e565b614685918c8b615779565b3880614673565b61469592613fa0565b8d8285614665565b6146af9161324182856146b697613fa0565b908a613fa0565b61461e565b508215614607565b908603906145bf565b506000805b8781106146de5750614529565b60006146ea828561429c565b51126146f9575b6001016146d1565b6001811b909117906146f1565b9092503d806000833e6147198183612e3b565b810190602081830312610269578051906001600160401b03821161026957019080601f8301121561026957815161474f81613798565b9261475d6040519485612e3b565b81845260208085019260051b82010192831161026957602001905b828210614789575050509138614523565b8151815260209182019101614778565b9091929394958160406147ad92015161429c565b5181151580614854575b614842576147d460208c8160405193828580945193849201612ec0565b81016003815203019020906000526020526148078c61480083602060016040600020015493015161429c565b51906156b4565b919060208460051b87010152614836575b1561482d575b600101908b9594939291614465565b6000965061481e565b976001821b1797614818565b6040516329be7c4760e11b8152600490fd5b5060408d015160001983019083821161305b5782916148729161429c565b5110156147b7565b50889161441c565b8094614415565b985050505050503d806000863e6148a08186612e3b565b84019360c0818603126102695780516001600160401b039081811161026957866148cb918401614305565b956020830151918211610269576148e3918301614305565b60408201516060830151608084015160a090940151939791929091386143ed565b9060405161491181612dbc565b82546001600160a01b038116825260a01c602082015260019092015460ff166040830152565b929060c0949260018060a01b0380921685521660208401526040830152606082015260a06080820152600060a08201520190565b6001600160a01b03918216815291166020820152604081019190915260600190565b9081518015600014614c8b5750335b60a0830180511561042457606084019360ff8551166020908183019060018060a01b03908183511660409960806149e28c89019460018060601b03948587511691614c90565b9701968b88518015600014614c5a575050600052600986528a6000205480885215614c495760ff905b511680614b5757505050808251169288519181836024816370a0823160e01b988982523060048301525afa928315614b4c57600093614b1c575b5083614a89614a768c614a84858798995116918c5190519384916323b872dd60e01b8a84015230336024850161496b565b03601f198101845283612e3b565b615715565b51169360248a518096819382523060048301525afa908115614b1157600091614ae1575b50614ab89250613071565b80835215614ad0576131c49394505b51905191613fa0565b8451632fd8225d60e21b8152600490fd5b905082813d8311614b0a575b614af78183612e3b565b8101031261026957614ab8915138614aad565b503d614aed565b88513d6000823e3d90fd5b9180935082813d8311614b45575b614b348183612e3b565b810103126102695782915192614a45565b503d614b2a565b8a513d6000823e3d90fd5b919450929060018103614bd25750511691511690803b156102695786516323b872dd60e01b8152916000918391829084908290614b999030336004850161496b565b03925af18015614bc7576131c4959650614bb8575b5060018252614ac7565b614bc190612e0d565b38614bae565b86513d6000823e3d90fd5b600214614be9575b505050506131c4939450614ac7565b51169151168351823b1561026957614c1c92600092838a51809681958294637921219560e11b8452303360048601614937565b03925af18015614bc7576131c4959650614c3a575b85948180614bda565b614c4390612e0d565b38614c31565b8a516301899ea960e01b8152600490fd5b60ff93925090614c73614c6d8593612fa6565b50614904565b878151168952858a8201511687520151168152614a0b565b61499c565b9190614cb890614caa604051938492602084019687614084565b03601f198101835282612e3b565b51902090565b906020810190614ccf82518461336d565b60408101908151614ce1845186615669565b10614d0757614cf7614d02948451845191613f31565b519151905191613fa0565b600190565b50505050600090565b90916000908282526020600581526040938484208385528252848420548185526004835285852084865283528585209081546000199888835b838110614dd85750505081109182614dbf575b5050614d6b575b505050505050565b6000198603614dab57614da09550808452600582528484208385528252838581205583526004815283832091835252206130b2565b388080808080614d63565b835260058152838320918352522055614da0565b6001925090614dcd91612fdb565b500154153880614d5c565b8883888c8b614de7868c612fdb565b5091600180930154928315614e8a578c86614e028a83612fdb565b505403614e6657927f0971ac81b80f99fe0089c3fbe4af4fa1148f2ce78bc6345e76b05be73500de1f94928992614e3c8460019d97612fdb565b500155614e4a838988613ffa565b614e548887614042565b8351928352820152a45b018990614d49565b505050505050505090506000198b14614e82575b600190614e5e565b995089614e7a565b5050505050505060019150614e5e565b918151916020908181015190614eb0858761336d565b600093845b604090818401518051881015614f0757614ed088889261429c565b510151916001600160ff1b038311614ef75750600191614eef9161307e565b950194614eb5565b516329be7c4760e11b8152600490fd5b50919695505095929095614f1b8585615669565b106152655760005b6040808801908151805184101561525757614f4c84614f4381889461429c565b5151945161429c565b51015190614f7085614f5e8589613ef1565b81845193828580945193849201612ec0565b8101600381520301902088600052855280600020614f8f838a8a613f31565b614f9a83825461307e565b938482558088109384615233575b50831561522c5787935b1561522357929390935b825193614fc885612da1565b8a6001968787528960005b8181106151e057505083600052878a5285600020826000528a5285600020549083600052888b5286600020836000528b528887600020549101549187519361501a85612dd7565b84528b840152868301526060948583015260808201526150398661428f565b526150438561428f565b5083519461505086612da1565b8686528860005b8181106151ac57505061506d6108088385613ef1565b549185519361507b85612e20565b84528984015284830152828201526150928461428f565b5261509c8361428f565b5081519386850187865284518091528386019288858360051b8901019601946000905b8382106150fd575050505050505081600193927f784575545124eef27f8fcc1472fb5f2483beb9cc23e6fe3dbf588eb7bd501f7c920390a101614f23565b9091848b829596979899603f198c8203018a528a51906080810191805182528381015184830152868101519260808884015283518091528460a084019401906000905b80821061516557505050948084959601519101529901970192019094939291946150bf565b939692959197509360a090608089518051835284810151858401528b8101518c8401528d8082015190840152015160808201520196019201928f93928996938c9693615140565b86989598516151ba81612e20565b60008152600083820152898882015260008a82015282828a010152018990979497615057565b9091925086989598516151f281612dd7565b60008152600083820152600088820152600060608201526000608082015282828a0101520190898d92989598614fd3565b50928692614fbc565b8093614fb2565b6001830180546000838201938412911290801582169115161761305b575538614fa8565b506001985050505050505050565b5060009450505050565b906040918282018051156156585760208084019061528e82518561336d565b61529b614c6d8351612fa6565b9183516152a9825187615669565b1061564c5785516001600160a01b039690871061563b57869051169487840191600160ff845116148061562f575b61561e5760ff92916152ec9151875191613f31565b51168061552057508482511686519482866024816370a0823160e01b958682523060048301525afa958615614b11576000966154ec575b5086838596979860249651168a51968780928782528660048301525afa9485156154e1576000956154af575b508561538582602496979851168951908c519163a9059cbb60e01b8a8401528689840152604483015260448252614a8482612e20565b85828251168b51968780928882523060048301525afa948515614b4c57908693929160009661547b575b50906024915116938a519485938492835260048301525afa9283156142695760009361544b575b50508351808610958615615434575b505050831561542a575b8315615413575b5050506154035750600190565b516301899ea960e01b8152600490fd5b61541e929350613071565b905114153880806153f6565b81811093506153ef565b61544092939650613071565b1415923880806153e5565b9080929350813d8311615474575b6154638183612e3b565b8101031261026957519038806153d6565b503d615459565b848193959297503d83116154a8575b6154948183612e3b565b8101031261026957519385929060246153af565b503d61548a565b9380955084813d83116154da575b6154c78183612e3b565b810103126102695760249351949361534f565b503d6154bd565b89513d6000823e3d90fd5b939495508284813d8311615519575b6155058183612e3b565b810103126102695760249351959493615323565b503d6154fb565b9095949192906001810361559e575050815194909101519316926001600160601b0316833b156102695761556e936000928385518097819582946323b872dd60e01b8452306004850161496b565b03925af19081156155945750615585575b50600190565b61558e90612e0d565b3861557f565b513d6000823e3d90fd5b90959291906002146155b6575b505050505050600190565b8151169160018060601b0391015116935190803b15610269576155f49460008094865197889586948593637921219560e11b85523060048601614937565b03925af1908115615594575061560f575b80808080806155ab565b61561890612e0d565b38615605565b885163440a57bf60e01b8152600490fd5b506001865114156152d7565b8751633485c51360e21b8152600490fd5b50505050505050600090565b835163440a57bf60e01b8152600490fd5b60009181835260016020526040832081845260205260408320549183526006602052604083209083526020526040822054908181116000146156af57613e3b9250613071565b505090565b91818301928392600080921282808712921281148061570b575b6156ef5750156156e7575060019291600160ff1b141590565b929150600190565b9193505015615705578215614842576001929190565b81929190565b50818114156156ce565b600091829182602083519301915af13d15615771573d9061573582612e5e565b916157436040519384612e3b565b82523d6000602084013e5b15611cc857518015159081615765575b50611cc857565b6020915014153861575e565b60609061574e565b9392919093600092801561589e576157b390615795848461336d565b61579f8484615669565b8181106158985750805b8161588257613071565b801580156157c5575b50505050509050565b861561023e5786831461023e576104245773__$1a0918a2aa2208593bb0a5d7644cd0946b$__95863b1561057b579060e485926040519889938492637ec9584f60e01b8452600480850152600560248501526006604485015287606485015288608485015260a484015260c48301525af4948515610ade576040949561586f575b508252600760205282822090825260205220615862815461304c565b90558038808080806157bc565b61587b90939193612e0d565b9138615846565b61588d828686613f31565b61324182868a613fa0565b906157a9565b50505050905056fe1ffe8e6348fe244a8988797c02b57999821149e7b25c9f93a85c77819efdde676d46d52b5fda2a9055705ba74bf5e95807cfa39decf819cdfeaa14f9b2ba346aa18590ca9739b1d76d19b9d85b6a395a7cf75acb1e21e93c88207bf9abce5ae6990f4c22d4b046a9a7d673c4a252b906cadd4f3290465e297f998c28a449652b81c62e9fecaab39830b35846528012e0fd93b027a38d0f1dcd32945530ae9ea4a26469706673582212200a315a08e428bbeb4bab43f7912d791cade868f4f46fefb4e532beb5cb8af30564736f6c63430008180033",
  "linkReferences": {
    "contracts/Account.sol": {
      "Account": [
        {
          "length": 20,
          "start": 5805
        },
        {
          "length": 20,
          "start": 5925
        },
        {
          "length": 20,
          "start": 6036
        },
        {
          "length": 20,
          "start": 6892
        },
        {
          "length": 20,
          "start": 8033
        },
        {
          "length": 20,
          "start": 8480
        },
        {
          "length": 20,
          "start": 16685
        },
        {
          "length": 20,
          "start": 16796
        },
        {
          "length": 20,
          "start": 17125
        },
        {
          "length": 20,
          "start": 17847
        },
        {
          "length": 20,
          "start": 18168
        },
        {
          "length": 20,
          "start": 22993
        }
      ]
    }
  },
  "deployedLinkReferences": {
    "contracts/Account.sol": {
      "Account": [
        {
          "length": 20,
          "start": 5300
        },
        {
          "length": 20,
          "start": 5420
        },
        {
          "length": 20,
          "start": 5531
        },
        {
          "length": 20,
          "start": 6387
        },
        {
          "length": 20,
          "start": 7528
        },
        {
          "length": 20,
          "start": 7975
        },
        {
          "length": 20,
          "start": 16180
        },
        {
          "length": 20,
          "start": 16291
        },
        {
          "length": 20,
          "start": 16620
        },
        {
          "length": 20,
          "start": 17342
        },
        {
          "length": 20,
          "start": 17663
        },
        {
          "length": 20,
          "start": 22488
        }
      ]
    }
  },
  "immutableReferences": {
    "14975": [
      {
        "length": 32,
        "start": 2532
      },
      {
        "length": 32,
        "start": 5620
      },
      {
        "length": 32,
        "start": 6338
      },
      {
        "length": 32,
        "start": 7479
      },
      {
        "length": 32,
        "start": 7923
      },
      {
        "length": 32,
        "start": 11067
      },
      {
        "length": 32,
        "start": 17293
      }
    ],
    "14995": [
      {
        "length": 32,
        "start": 1745
      },
      {
        "length": 32,
        "start": 7441
      }
    ],
    "15023": [
      {
        "length": 32,
        "start": 459
      },
      {
        "length": 32,
        "start": 647
      },
      {
        "length": 32,
        "start": 989
      },
      {
        "length": 32,
        "start": 11259
      }
    ]
  }
}