{
  "_format": "hh-sol-artifact-1",
  "contractName": "Depository",
  "sourceName": "contracts/Depository.sol",
  "abi": [
    {
      "inputs": [
        {
          "internalType": "address",
          "name": "_entityProvider",
          "type": "address"
        }
      ],
      "stateMutability": "nonpayable",
      "type": "constructor"
    },
    {
      "inputs": [],
      "name": "E0",
      "type": "error"
    },
    {
      "inputs": [],
      "name": "E1",
      "type": "error"
    },
    {
      "inputs": [],
      "name": "E10",
      "type": "error"
    },
    {
      "inputs": [],
      "name": "E2",
      "type": "error"
    },
    {
      "inputs": [],
      "name": "E3",
      "type": "error"
    },
    {
      "inputs": [],
      "name": "E4",
      "type": "error"
    },
    {
      "inputs": [],
      "name": "E5",
      "type": "error"
    },
    {
      "inputs": [],
      "name": "E6",
      "type": "error"
    },
    {
      "inputs": [],
      "name": "E7",
      "type": "error"
    },
    {
      "inputs": [],
      "name": "E8",
      "type": "error"
    },
    {
      "inputs": [],
      "name": "E9",
      "type": "error"
    },
    {
      "anonymous": false,
      "inputs": [
        {
          "components": [
            {
              "internalType": "bytes32",
              "name": "left",
              "type": "bytes32"
            },
            {
              "internalType": "bytes32",
              "name": "right",
              "type": "bytes32"
            },
            {
              "components": [
                {
                  "internalType": "uint256",
                  "name": "tokenId",
                  "type": "uint256"
                },
                {
                  "internalType": "uint256",
                  "name": "leftReserve",
                  "type": "uint256"
                },
                {
                  "internalType": "uint256",
                  "name": "rightReserve",
                  "type": "uint256"
                },
                {
                  "internalType": "uint256",
                  "name": "collateral",
                  "type": "uint256"
                },
                {
                  "internalType": "int256",
                  "name": "ondelta",
                  "type": "int256"
                }
              ],
              "internalType": "struct TokenSettlement[]",
              "name": "tokens",
              "type": "tuple[]"
            },
            {
              "internalType": "uint256",
              "name": "nonce",
              "type": "uint256"
            }
          ],
          "indexed": false,
          "internalType": "struct AccountSettlement[]",
          "name": "settled",
          "type": "tuple[]"
        }
      ],
      "name": "AccountSettled",
      "type": "event"
    },
    {
      "anonymous": false,
      "inputs": [
        {
          "indexed": true,
          "internalType": "bytes32",
          "name": "sender",
          "type": "bytes32"
        },
        {
          "indexed": true,
          "internalType": "bytes32",
          "name": "counterentity",
          "type": "bytes32"
        },
        {
          "indexed": true,
          "internalType": "uint256",
          "name": "nonce",
          "type": "uint256"
        }
      ],
      "name": "CooperativeClose",
      "type": "event"
    },
    {
      "anonymous": false,
      "inputs": [
        {
          "indexed": true,
          "internalType": "bytes32",
          "name": "debtor",
          "type": "bytes32"
        },
        {
          "indexed": true,
          "internalType": "bytes32",
          "name": "creditor",
          "type": "bytes32"
        },
        {
          "indexed": true,
          "internalType": "uint256",
          "name": "tokenId",
          "type": "uint256"
        },
        {
          "indexed": false,
          "internalType": "uint256",
          "name": "amount",
          "type": "uint256"
        },
        {
          "indexed": false,
          "internalType": "uint256",
          "name": "debtIndex",
          "type": "uint256"
        }
      ],
      "name": "DebtCreated",
      "type": "event"
    },
    {
      "anonymous": false,
      "inputs": [
        {
          "indexed": true,
          "internalType": "bytes32",
          "name": "debtor",
          "type": "bytes32"
        },
        {
          "indexed": true,
          "internalType": "bytes32",
          "name": "creditor",
          "type": "bytes32"
        },
        {
          "indexed": true,
          "internalType": "uint256",
          "name": "tokenId",
          "type": "uint256"
        },
        {
          "indexed": false,
          "internalType": "uint256",
          "name": "amountPaid",
          "type": "uint256"
        },
        {
          "indexed": false,
          "internalType": "uint256",
          "name": "remainingAmount",
          "type": "uint256"
        },
        {
          "indexed": false,
          "internalType": "uint256",
          "name": "newDebtIndex",
          "type": "uint256"
        }
      ],
      "name": "DebtEnforced",
      "type": "event"
    },
    {
      "anonymous": false,
      "inputs": [
        {
          "indexed": true,
          "internalType": "bytes32",
          "name": "debtor",
          "type": "bytes32"
        },
        {
          "indexed": true,
          "internalType": "bytes32",
          "name": "creditor",
          "type": "bytes32"
        },
        {
          "indexed": true,
          "internalType": "uint256",
          "name": "tokenId",
          "type": "uint256"
        },
        {
          "indexed": false,
          "internalType": "uint256",
          "name": "amountForgiven",
          "type": "uint256"
        },
        {
          "indexed": false,
          "internalType": "uint256",
          "name": "debtIndex",
          "type": "uint256"
        }
      ],
      "name": "DebtForgiven",
      "type": "event"
    },
    {
      "anonymous": false,
      "inputs": [
        {
          "indexed": true,
          "internalType": "bytes32",
          "name": "sender",
          "type": "bytes32"
        },
        {
          "indexed": true,
          "internalType": "bytes32",
          "name": "counterentity",
          "type": "bytes32"
        },
        {
          "indexed": true,
          "internalType": "uint256",
          "name": "nonce",
          "type": "uint256"
        },
        {
          "indexed": false,
          "internalType": "bytes32",
          "name": "initialProofbodyHash",
          "type": "bytes32"
        },
        {
          "indexed": false,
          "internalType": "bytes32",
          "name": "finalProofbodyHash",
          "type": "bytes32"
        }
      ],
      "name": "DisputeFinalized",
      "type": "event"
    },
    {
      "anonymous": false,
      "inputs": [
        {
          "indexed": true,
          "internalType": "bytes32",
          "name": "sender",
          "type": "bytes32"
        },
        {
          "indexed": true,
          "internalType": "bytes32",
          "name": "counterentity",
          "type": "bytes32"
        },
        {
          "indexed": true,
          "internalType": "uint256",
          "name": "nonce",
          "type": "uint256"
        },
        {
          "indexed": false,
          "internalType": "bytes32",
          "name": "proofbodyHash",
          "type": "bytes32"
        },
        {
          "indexed": false,
          "internalType": "bytes",
          "name": "initialArguments",
          "type": "bytes"
        }
      ],
      "name": "DisputeStarted",
      "type": "event"
    },
    {
      "anonymous": false,
      "inputs": [
        {
          "indexed": true,
          "internalType": "bytes32",
          "name": "entityId",
          "type": "bytes32"
        },
        {
          "indexed": true,
          "internalType": "bytes32",
          "name": "hankoHash",
          "type": "bytes32"
        },
        {
          "indexed": false,
          "internalType": "uint256",
          "name": "nonce",
          "type": "uint256"
        },
        {
          "indexed": false,
          "internalType": "bool",
          "name": "success",
          "type": "bool"
        }
      ],
      "name": "HankoBatchProcessed",
      "type": "event"
    },
    {
      "anonymous": false,
      "inputs": [
        {
          "indexed": true,
          "internalType": "bytes32",
          "name": "entity",
          "type": "bytes32"
        },
        {
          "indexed": true,
          "internalType": "uint256",
          "name": "tokenId",
          "type": "uint256"
        },
        {
          "indexed": false,
          "internalType": "uint256",
          "name": "newBalance",
          "type": "uint256"
        }
      ],
      "name": "ReserveUpdated",
      "type": "event"
    },
    {
      "anonymous": false,
      "inputs": [
        {
          "indexed": true,
          "internalType": "bytes32",
          "name": "hashlock",
          "type": "bytes32"
        },
        {
          "indexed": true,
          "internalType": "bytes32",
          "name": "revealer",
          "type": "bytes32"
        },
        {
          "indexed": false,
          "internalType": "bytes32",
          "name": "secret",
          "type": "bytes32"
        }
      ],
      "name": "SecretRevealed",
      "type": "event"
    },
    {
      "inputs": [],
      "name": "DOMAIN_SEPARATOR",
      "outputs": [
        {
          "internalType": "bytes32",
          "name": "",
          "type": "bytes32"
        }
      ],
      "stateMutability": "view",
      "type": "function"
    },
    {
      "inputs": [
        {
          "internalType": "bytes",
          "name": "",
          "type": "bytes"
        }
      ],
      "name": "_accounts",
      "outputs": [
        {
          "internalType": "uint256",
          "name": "nonce",
          "type": "uint256"
        },
        {
          "internalType": "bytes32",
          "name": "disputeHash",
          "type": "bytes32"
        },
        {
          "internalType": "uint256",
          "name": "disputeTimeout",
          "type": "uint256"
        }
      ],
      "stateMutability": "view",
      "type": "function"
    },
    {
      "inputs": [
        {
          "internalType": "bytes32",
          "name": "",
          "type": "bytes32"
        }
      ],
      "name": "_activeDebts",
      "outputs": [
        {
          "internalType": "uint256",
          "name": "",
          "type": "uint256"
        }
      ],
      "stateMutability": "view",
      "type": "function"
    },
    {
      "inputs": [
        {
          "internalType": "bytes32",
          "name": "",
          "type": "bytes32"
        },
        {
          "internalType": "uint256",
          "name": "",
          "type": "uint256"
        }
      ],
      "name": "_activeDebtsByToken",
      "outputs": [
        {
          "internalType": "uint256",
          "name": "",
          "type": "uint256"
        }
      ],
      "stateMutability": "view",
      "type": "function"
    },
    {
      "inputs": [
        {
          "internalType": "bytes",
          "name": "",
          "type": "bytes"
        },
        {
          "internalType": "uint256",
          "name": "",
          "type": "uint256"
        }
      ],
      "name": "_collaterals",
      "outputs": [
        {
          "internalType": "uint256",
          "name": "collateral",
          "type": "uint256"
        },
        {
          "internalType": "int256",
          "name": "ondelta",
          "type": "int256"
        }
      ],
      "stateMutability": "view",
      "type": "function"
    },
    {
      "inputs": [
        {
          "internalType": "bytes32",
          "name": "",
          "type": "bytes32"
        },
        {
          "internalType": "uint256",
          "name": "",
          "type": "uint256"
        }
      ],
      "name": "_debtIndex",
      "outputs": [
        {
          "internalType": "uint256",
          "name": "",
          "type": "uint256"
        }
      ],
      "stateMutability": "view",
      "type": "function"
    },
    {
      "inputs": [
        {
          "internalType": "bytes32",
          "name": "",
          "type": "bytes32"
        },
        {
          "internalType": "uint256",
          "name": "",
          "type": "uint256"
        },
        {
          "internalType": "uint256",
          "name": "",
          "type": "uint256"
        }
      ],
      "name": "_debts",
      "outputs": [
        {
          "internalType": "bytes32",
          "name": "creditor",
          "type": "bytes32"
        },
        {
          "internalType": "uint256",
          "name": "amount",
          "type": "uint256"
        }
      ],
      "stateMutability": "view",
      "type": "function"
    },
    {
      "inputs": [
        {
          "internalType": "bytes32",
          "name": "",
          "type": "bytes32"
        },
        {
          "internalType": "uint256",
          "name": "",
          "type": "uint256"
        }
      ],
      "name": "_reserves",
      "outputs": [
        {
          "internalType": "uint256",
          "name": "",
          "type": "uint256"
        }
      ],
      "stateMutability": "view",
      "type": "function"
    },
    {
      "inputs": [
        {
          "internalType": "uint256",
          "name": "",
          "type": "uint256"
        }
      ],
      "name": "_tokens",
      "outputs": [
        {
          "internalType": "address",
          "name": "contractAddress",
          "type": "address"
        },
        {
          "internalType": "uint96",
          "name": "externalTokenId",
          "type": "uint96"
        },
        {
          "internalType": "uint8",
          "name": "tokenType",
          "type": "uint8"
        }
      ],
      "stateMutability": "view",
      "type": "function"
    },
    {
      "inputs": [
        {
          "internalType": "bytes32",
          "name": "e1",
          "type": "bytes32"
        },
        {
          "internalType": "bytes32",
          "name": "e2",
          "type": "bytes32"
        }
      ],
      "name": "accountKey",
      "outputs": [
        {
          "internalType": "bytes",
          "name": "",
          "type": "bytes"
        }
      ],
      "stateMutability": "pure",
      "type": "function"
    },
    {
      "inputs": [],
      "name": "admin",
      "outputs": [
        {
          "internalType": "address",
          "name": "",
          "type": "address"
        }
      ],
      "stateMutability": "view",
      "type": "function"
    },
    {
      "inputs": [
        {
          "components": [
            {
              "internalType": "bytes32",
              "name": "entity",
              "type": "bytes32"
            },
            {
              "internalType": "address",
              "name": "contractAddress",
              "type": "address"
            },
            {
              "internalType": "uint96",
              "name": "externalTokenId",
              "type": "uint96"
            },
            {
              "internalType": "uint8",
              "name": "tokenType",
              "type": "uint8"
            },
            {
              "internalType": "uint256",
              "name": "internalTokenId",
              "type": "uint256"
            },
            {
              "internalType": "uint256",
              "name": "amount",
              "type": "uint256"
            }
          ],
          "internalType": "struct ExternalTokenToReserve",
          "name": "params",
          "type": "tuple"
        }
      ],
      "name": "adminRegisterExternalToken",
      "outputs": [],
      "stateMutability": "nonpayable",
      "type": "function"
    },
    {
      "inputs": [
        {
          "internalType": "bytes32",
          "name": "",
          "type": "bytes32"
        },
        {
          "internalType": "uint256",
          "name": "",
          "type": "uint256"
        }
      ],
      "name": "debtOutstanding",
      "outputs": [
        {
          "internalType": "uint256",
          "name": "",
          "type": "uint256"
        }
      ],
      "stateMutability": "view",
      "type": "function"
    },
    {
      "inputs": [],
      "name": "defaultDisputeDelay",
      "outputs": [
        {
          "internalType": "uint256",
          "name": "",
          "type": "uint256"
        }
      ],
      "stateMutability": "view",
      "type": "function"
    },
    {
      "inputs": [
        {
          "internalType": "bytes32",
          "name": "entity",
          "type": "bytes32"
        },
        {
          "internalType": "uint256",
          "name": "tokenId",
          "type": "uint256"
        },
        {
          "internalType": "uint256",
          "name": "maxIterations",
          "type": "uint256"
        }
      ],
      "name": "enforceDebts",
      "outputs": [],
      "stateMutability": "nonpayable",
      "type": "function"
    },
    {
      "inputs": [
        {
          "internalType": "bytes32",
          "name": "",
          "type": "bytes32"
        }
      ],
      "name": "entityNonces",
      "outputs": [
        {
          "internalType": "uint256",
          "name": "",
          "type": "uint256"
        }
      ],
      "stateMutability": "view",
      "type": "function"
    },
    {
      "inputs": [],
      "name": "entityProvider",
      "outputs": [
        {
          "internalType": "address",
          "name": "",
          "type": "address"
        }
      ],
      "stateMutability": "view",
      "type": "function"
    },
    {
      "inputs": [
        {
          "internalType": "uint256",
          "name": "tokenId",
          "type": "uint256"
        }
      ],
      "name": "getTokenMetadata",
      "outputs": [
        {
          "internalType": "address",
          "name": "contractAddress",
          "type": "address"
        },
        {
          "internalType": "uint96",
          "name": "externalTokenId",
          "type": "uint96"
        },
        {
          "internalType": "uint8",
          "name": "tokenType",
          "type": "uint8"
        }
      ],
      "stateMutability": "view",
      "type": "function"
    },
    {
      "inputs": [],
      "name": "getTokensLength",
      "outputs": [
        {
          "internalType": "uint256",
          "name": "",
          "type": "uint256"
        }
      ],
      "stateMutability": "view",
      "type": "function"
    },
    {
      "inputs": [
        {
          "internalType": "bytes32",
          "name": "entity",
          "type": "bytes32"
        },
        {
          "internalType": "uint256",
          "name": "tokenId",
          "type": "uint256"
        },
        {
          "internalType": "uint256",
          "name": "amount",
          "type": "uint256"
        }
      ],
      "name": "mintToReserve",
      "outputs": [],
      "stateMutability": "nonpayable",
      "type": "function"
    },
    {
      "inputs": [
        {
          "components": [
            {
              "internalType": "bytes32",
              "name": "entity",
              "type": "bytes32"
            },
            {
              "internalType": "uint256",
              "name": "tokenId",
              "type": "uint256"
            },
            {
              "internalType": "uint256",
              "name": "amount",
              "type": "uint256"
            }
          ],
          "internalType": "struct Depository.ReserveMint[]",
          "name": "mints",
          "type": "tuple[]"
        }
      ],
      "name": "mintToReserveBatch",
      "outputs": [],
      "stateMutability": "nonpayable",
      "type": "function"
    },
    {
      "inputs": [
        {
          "internalType": "address",
          "name": "",
          "type": "address"
        },
        {
          "internalType": "address",
          "name": "",
          "type": "address"
        },
        {
          "internalType": "uint256[]",
          "name": "",
          "type": "uint256[]"
        },
        {
          "internalType": "uint256[]",
          "name": "",
          "type": "uint256[]"
        },
        {
          "internalType": "bytes",
          "name": "",
          "type": "bytes"
        }
      ],
      "name": "onERC1155BatchReceived",
      "outputs": [
        {
          "internalType": "bytes4",
          "name": "",
          "type": "bytes4"
        }
      ],
      "stateMutability": "pure",
      "type": "function"
    },
    {
      "inputs": [
        {
          "internalType": "address",
          "name": "",
          "type": "address"
        },
        {
          "internalType": "address",
          "name": "",
          "type": "address"
        },
        {
          "internalType": "uint256",
          "name": "id",
          "type": "uint256"
        },
        {
          "internalType": "uint256",
          "name": "",
          "type": "uint256"
        },
        {
          "internalType": "bytes",
          "name": "",
          "type": "bytes"
        }
      ],
      "name": "onERC1155Received",
      "outputs": [
        {
          "internalType": "bytes4",
          "name": "",
          "type": "bytes4"
        }
      ],
      "stateMutability": "nonpayable",
      "type": "function"
    },
    {
      "inputs": [
        {
          "internalType": "uint8",
          "name": "tokenType",
          "type": "uint8"
        },
        {
          "internalType": "address",
          "name": "contractAddress",
          "type": "address"
        },
        {
          "internalType": "uint96",
          "name": "externalTokenId",
          "type": "uint96"
        }
      ],
      "name": "packTokenReference",
      "outputs": [
        {
          "internalType": "bytes32",
          "name": "",
          "type": "bytes32"
        }
      ],
      "stateMutability": "pure",
      "type": "function"
    },
    {
      "inputs": [
        {
          "internalType": "bytes",
          "name": "encodedBatch",
          "type": "bytes"
        },
        {
          "internalType": "bytes",
          "name": "hankoData",
          "type": "bytes"
        },
        {
          "internalType": "uint256",
          "name": "nonce",
          "type": "uint256"
        }
      ],
      "name": "processBatch",
      "outputs": [
        {
          "internalType": "bool",
          "name": "completeSuccess",
          "type": "bool"
        }
      ],
      "stateMutability": "nonpayable",
      "type": "function"
    },
    {
      "inputs": [
        {
          "internalType": "bytes32",
          "name": "entity",
          "type": "bytes32"
        },
        {
          "internalType": "uint256",
          "name": "tokenId",
          "type": "uint256"
        }
      ],
      "name": "spendableReserve",
      "outputs": [
        {
          "internalType": "uint256",
          "name": "",
          "type": "uint256"
        }
      ],
      "stateMutability": "view",
      "type": "function"
    },
    {
      "inputs": [
        {
          "internalType": "bytes32",
          "name": "",
          "type": "bytes32"
        }
      ],
      "name": "tokenToId",
      "outputs": [
        {
          "internalType": "uint256",
          "name": "",
          "type": "uint256"
        }
      ],
      "stateMutability": "view",
      "type": "function"
    },
    {
      "inputs": [
        {
          "internalType": "bytes32",
          "name": "packed",
          "type": "bytes32"
        }
      ],
      "name": "unpackTokenReference",
      "outputs": [
        {
          "internalType": "address",
          "name": "contractAddress",
          "type": "address"
        },
        {
          "internalType": "uint96",
          "name": "externalTokenId",
          "type": "uint96"
        },
        {
          "internalType": "uint8",
          "name": "tokenType",
          "type": "uint8"
        }
      ],
      "stateMutability": "view",
      "type": "function"
    }
  ],
  "bytecode": "0x60c034620001e157601f62005e3f38819003918201601f19168301926001600160401b0392909183851183861017620001e6578160209284926040978852833981010312620001e157516001600160a01b038082169291838103620001e15760009360018555156200018f576080523360a05283519160608301908111838210176200017b57845282825260208201908382528483019380855260095490680100000000000000008210156200016757600182018060095582101562000153579160019391602084600960ff9896522090851b0192511690838060a01b0319905160a01b161781550191511660ff1982541617905551615c429081620001fd823960805181818161094b015281816114440152818161172f0152818161217e01528181612758015281816128d20152613a6f015260a0518181816101c80152818161026d015281816102ed01526105510152f35b634e487b7160e01b81526032600452602490fd5b634e487b7160e01b81526041600452602490fd5b634e487b7160e01b84526041600452602484fd5b845162461bcd60e51b815260206004820152602560248201527f456e7469747950726f76696465722063616e6e6f74206265207a65726f206164604482015264647265737360d81b6064820152608490fd5b600080fd5b634e487b7160e01b600052604160045260246000fdfe610460604052600436101561001357600080fd5b60003560e01c80630dedd62414613b5257806310340ce314613b3b578063125c2cc414613ac75780633644e51514613a9e5780634318cdd014613a595780636031680114613a325780636b79134d14613a065780637508b916146139d357806378152e6a146139ba57806378bc542a146139875780637a4ef0251461083657806388a1cd76146107e5578063907efb1b146107c857806392cf61e5146107555780639e8de81914610722578063acd6f208146106ef578063b0c26ecf146106d1578063bb2c250c14610683578063bc197c81146105dc578063d19fd92e146105b0578063e812c5691461053f578063ed70554d146104f0578063edcc1b04146104c4578063f176e3261461048a578063f23a6e611461038c578063f43ac1fb1461029c578063f851a440146102575763fdfef2011461015157600080fd5b346102525760c03660031901126102525760405161016e81613c33565b60043581526001600160a01b0360243581811681036102525760208301526044356001600160601b038116810361025257604083015260643560ff81168103610252576060830152608435608083015260a43560a08301527f0000000000000000000000000000000000000000000000000000000000000000163314801590610239575b610227576002600054146102155761020e906002600055614c2f565b6001600055005b604051633018d46b60e11b8152600490fd5b604051633485c51360e21b8152600490fd5b50617a6946141580156101f25750617a6a4614156101f2565b600080fd5b34610252576000366003190112610252576040517f00000000000000000000000000000000000000000000000000000000000000006001600160a01b03168152602090f35b34610252576020366003190112610252576004356001600160401b038082116102525736602383011215610252578160040135908111610252576024916060366024606085028401011161025257337f00000000000000000000000000000000000000000000000000000000000000006001600160a01b031614801590610373575b6102275782156103615760005b83811061033457005b8181028301906064820135918215610361576001928188604461035b940135910135614a3e565b0161032b565b60405163440a57bf60e01b8152600490fd5b50617a69461415801561031e5750617a6a46141561031e565b346102525760a0366003190112610252576103a5613e2b565b506103ae613e15565b506084356001600160401b038111610252576103ce903690600401613d97565b505060018060601b03604435166040516020810190600282523360408201528260608201526060815261040081613c4e565b5190209081600052600a6020526040600020541561042b575b60405163f23a6e6160e01b8152602090f35b60405161044f9161043b82613bea565b33825260208201526002604082015261494b565b60095460001981019190821161047457600052600a6020526040600020558080610419565b634e487b7160e01b600052601160045260246000fd5b34610252576040366003190112610252576104c06104ac60243560043561490b565b604051918291602083526020830190613e85565b0390f35b3461025257602036600319011261025257600435600052600b6020526020604060002054604051908152f35b34610252576020366003190112610252576004356009548110156102525761051790613dc4565b5060ff6001825492015416906104c06040519282849360a01c9060018060a01b031684613d54565b346102525761054d36613d3a565b90337f00000000000000000000000000000000000000000000000000000000000000006001600160a01b031614801590610597575b6102275781156103615761059592614a3e565b005b50617a6946141580156105825750617a6a461415610582565b3461025257602036600319011261025257600435600052600a6020526020604060002054604051908152f35b346102525760a0366003190112610252576105f5613e2b565b506105fe613e15565b506001600160401b036044358181116102525761061f903690600401613e55565b505060643581811161025257610639903690600401613e55565b505060843590811161025257610653903690600401613d97565b505060405162461bcd60e51b8152602060048201526006602482015265042c4c2e8c6d60d31b6044820152606490fd5b346102525760603660031901126102525760043560ff81168103610252576106a9613e15565b906044356001600160601b0381168103610252576020926106c9926148cf565b604051908152f35b34610252576000366003190112610252576020600954604051908152f35b34610252576106fd36613d81565b9060005260016020526040600020906000526020526020604060002054604051908152f35b346102525761073036613d81565b9060005260066020526040600020906000526020526020604060002054604051908152f35b3461025257602036600319011261025257600435600052600a60205261079361078d604060002054610788811515614786565b613dc4565b506147b8565b8051602082015160409283015192519283926104c09260ff909216916001600160601b0316906001600160a01b031684613d54565b346102525760003660031901126102525760206040516116808152f35b34610252576107f336613d3a565b916000526004602052604060002090600052602052604060002080548210156102525760409161082291613df9565b506001815491015482519182526020820152f35b34610252576060366003190112610252576004356001600160401b03811161025257610866903690600401613d97565b610440526024356001600160401b03811161025257610889903690600401613d97565b90610260526002600054146102155760026000556040516359516e5f60e01b8152600080516020615bed833981519152600482015246602482015230604482015260a06064820152602081806108e660a4820161044051886147eb565b6044356084830152038173__$1a0918a2aa2208593bb0a5d7644cd0946b$__5af49081156114ed57600091613955575b5060408051808093631155a0c560e31b825283600483015261093f6044830187610260516147eb565b602483019190915203817f00000000000000000000000000000000000000000000000000000000000000006001600160a01b03165afa9081156114ed57600061014052600091613911575b50158015613906575b611f325761014051600052600b60205260406000205460018101811161047457600101604435036102275761014051600052600b60205260443560406000205560208261044051810103126102525781356001600160401b038111610252576101608184016104405185010312610252576040516102c052610a176102c051613bb3565b828101356001600160401b03811161025257610440518401601f82848701010112156102525780828501013590610a4d82614819565b91610a5b6040519384613c84565b808352602083019161044051870160208360061b83888b010101011161025257916020838689010101925b60208360061b82888b0101010184106138cd5750506102c051929092525050828101602001356001600160401b03811161025257610440518401601f828487010101121561025257808285010135610add81614819565b91610aeb6040519384613c84565b818352602083019061044051870160206060850283888b010101011161025257906020828689010101915b60206060850282888b0101010183106138a95750506102c0516020019290925250506001600160401b03838201604001351161025257610440518301818401604081013501601f01121561025257610b7683820160408101350135614819565b610b836040519182613c84565b83820160408101350180358083526104405160208085019391880160059390931b909101011161025257848301604081013501602001905b858401604081013501803560051b0160200182106137495750506102c051604001526001600160401b03838201606001351161025257610440518301818401606081013501601f0112156102525782810160608101350135610c1c81614819565b90610c2a6040519283613c84565b8082526020820161044051860160208360051b6060878a010135878a010101011161025257858401606081013501602001905b868501606081013501600584901b0160200182106136835750506102c05160600191909152506001600160401b03838201608001351161025257610440518301818401608081013501601f0112156102525782810160808101350135610cc281614819565b90610cd06040519283613c84565b8082526020820161044051860160208360051b6080878a010135878a010101011161025257858401608081013501602001905b868501608081013501600584901b0160200182106133ce5750506102c05160800191909152506001600160401b0383820160a00135116102525761044051830181840160a081013501601f0112156102525782810160a08101350135610d6881614819565b90610d766040519283613c84565b8082526020820161044051860160208360051b60a0878a010135878a01010101116102525785840160a081013501602001905b86850160a081013501600584901b0160200182106132ce5750506102c05160a00191909152506001600160401b0383820160c00135116102525761044051830181840160c081013501601f0112156102525760c08184010135818401013561040052610e2a610e1a61040051614819565b6040516104205261042051613c84565b610420516103c052610400516104205152602061042051016103c05261044051830160206104005160051b60c08487010135848701010101116102525782810160c0810135016020016103e0525b60206104005160051b60c083860101358386010101016103e05110612c4057610420516102c05160c001526001600160401b0383820160e00135116102525761044051830181840160e081013501601f0112156102525782810160e08101350135610ee281614819565b90610ef06040519283613c84565b8082526020820190610440518601602060c0830260e0878a010135878a01010101116102525785840160e081013501602001915b86850160e08101350160c08302016020018310612bb45750506102c05160e00191909152506001600160401b038382016101000135116102525761044051830181840161010081013501601f01121561025257610f8a8382016101008101350135614819565b610f976040519182613c84565b83820161010081013501803580835261044051602080850193918801606090930290910101116102525784830161010081013501602001905b858401610100810135018035606002016020018210612b955750506102c05161010001526001600160401b038382016101200135116102525761044051830181840161012081013501601f0112156102525782810161012081013501359261103784614819565b6110446040519182613c84565b848152602081019461044051830160208260061b6101208787010135878701010101116102525782840161012081013501602001955b83850161012081013501600683901b016020018710612b555750506101409394506101206102c05101520101356101406102c051015260006101c05260086102c05151511161118657604060206102c05101515111611186576040806102c0510151511161118657604060606102c0510151511161118657602060806102c0510151511161118657600860a06102c0510151511161118657600860c06102c0510151511161118657604060e06102c051015151116111865760406101006102c051015151116111865760206101206102c051015151116111865760005b60406102c05101518051821015611198576040611175838293614bc5565b510151511161118657600101611157565b60405163e217c62b60e01b8152600490fd5b826111a76102c0515151614b86565b6111b56102c0515151614b86565b610240526111c76102c0515151614b86565b61020052600080915b6102c0515180518410156112b957836111e891614bc5565b51519260206111fb826102c05151614bc5565b510151936000905b848210611298575b848214611245575b5061123c611232600194959661122c8461020051614bc5565b51613ec6565b9161020051614bc5565b520191906111d0565b61123261128f868361123c9461125e899a60019a614bc5565b5261014051600052876020526040600020906000526020526040600020546112898261024051614bc5565b52613eaa565b95945050611213565b90816112a48286614bc5565b51146112b35760010190611203565b9061120b565b84838360005b828110612b26575060016101c05260005b60e06102c0510151805182101561130f57906112fe6112f182600194614bc5565b5180511561130457614c2f565b016112d0565b610140518152614c2f565b50509160005b60206102c051015180518210156113a6578161133091614bc5565b5190611343602083015161014051613f60565b6040820151611359602084015161014051614b3b565b106113945761138e8261137b60206001950151604083015190610140516149b2565b8051906040602082015191015191614a3e565b01611315565b604051632fd8225d60e21b8152600490fd5b82858560005b60606102c051015180518210156114f95790602060806113cf8361144295614bc5565b5160405194859283926328a3f8a760e11b845260016004850152600260248501526003604485015261014051606485015260c06084850152805160c48501528581015160e485015260408101516101048501526060810151610124850152015160a0610144840152610164830190613e85565b7f00000000000000000000000000000000000000000000000000000000000000006001600160a01b031660a4830152038173__$1a0918a2aa2208593bb0a5d7644cd0946b$__5af480156114ed576000906114b3575b60019250156114a8575b016113ac565b60006101c0526114a2565b506020823d6020116114e5575b816114cd60209383613c84565b81010312610252576114e060019261480c565b611498565b3d91506114c0565b6040513d6000823e3d90fd5b50509160806102c0510151805161286f575b5060a06102c051015180516126fd575b5060005b6101206102c051015180518210156115fc578161153b91614bc5565b5180519091906001600160a01b0316156102275760018060a01b03825116916020810151833b1561025257600093602485926040519687938492636030754560e01b845260048401525af19283156114ed576001936115ed575b506020808201516040518281019182528281526115b181613bcf565b519020910151906040519182527f47172349c05bf58f7f6a376def3bbc250cd3295a7eead0290d8fa3531c6ca9fb60206101405193a30161151f565b6115f690613c20565b86611595565b83838660006102e0525b60c06102c051015180516102e0511015612330576102e05161162791614bc5565b516101e05261163d6101e051516101405161490b565b610300526101e051610140015115611fe957604051602081610300515161166a8183856103005101613d17565b810160028152030190205415611fd75760406101e0510151604051602081610300515161169d8183856103005101613d17565b810160028152030190205410156102275760e06101e05101515115611f7e5760406101e0510151602060806101e05101516040516116f0816116e28582019485615163565b03601f198101835282613c84565b51902060c06101e05101518281519101209060e06101e0510151936117946101e0515191604051968795869563bba8d94760e01b875260018060a01b037f00000000000000000000000000000000000000000000000000000000000000001660048801523060248801526101006044880152611773610104880161030051613e85565b936064880152608487015260a48601526003198583030160c4860152613e85565b9060e4830152038173__$1a0918a2aa2208593bb0a5d7644cd0946b$__5af49081156114ed57600091611f44575b5015611f32575b436101406101e051015115611ee1575b6000600160405160208161030051516117f88183856103005101613d17565b8101600281520301902001556000600260405160208161030051516118238183856103005101613d17565b81018481520301902001556101e0515160806101e05101516101205260a06101e05101516103805260c06101e051015160206101205101515161012051515103611b695781610140511091600060e05282600014611ed8576101405160e0525b600060a0528215611ecb5760a0525b6000610360528115611ec15761038051610360525b6000610340528115611eb357610340525b6000610180528015611ea95743610180525b60006101a05215611e9e576101a0525b6118e860a05160e05161490b565b610100526020610120510151516103205261190561032051614819565b6119126040519182613c84565b61032051815261192461032051614819565b601f1901366020830137806102a05260005b610320518110611e00575050610360515160006102805215611de75761196e6020610360515161036051010160206103605101615642565b610280525b610340515160006101605215611dce5761199f6020610340515161034051010160206103405101615642565b610160525b6000610220525b60406101205101518051610220511015611ba957610220516119cc91614bc5565b5160c0526102805151610220511015611b9157611a2c6119f26102205161028051614bc5565b515b6101605151610220511015611b7b57611a136102205161016051614bc5565b51905b6101a05191610180519160c0516102a0516157cd565b608052608051516102a0515103611b695760005b604060c05101518051821015611af65781611a5a91614bc5565b5180516102a05151111561022757611a758151608051614bc5565b5190611a8581516102a051614bc5565b516000811283828103128116908483810313901516176104745760008184031380611ae7575b610227576000818403129283611acb575b50505061022757600101611a40565b602092935090611adb9103615713565b91015110858080611abc565b50604082015181840311611aab565b5050919060005b6102a05151811015611b4f57611b1981604060c05101516159c5565b1580611b2c575b61022757600101611afd565b50611b3981608051614bc5565b51611b47826102a051614bc5565b511415611b20565b5090916080516102a05260016102205101610220526119ab565b6040516329be7c4760e11b8152600490fd5b604051611b8781613c69565b6000815290611a16565b611a2c604051611ba081613c69565b600081526119f4565b509060005b60206101205101518051821015611cda579060006001611bcf838295614bc5565b51611bdd846102a051614bc5565b516040516020816101005151611bf98183856101005101613d17565b8101600381520301902082855260205260408420918254858313158614611c69579182611c2c9293611c56575b50615713565b80611c40575b50505b828155015501611bae565b611c4f9160a05160e0516159fc565b8880611c32565b611c63908460a051614a3e565b8b611c26565b808310158614611cb757611c82919281611ca557613eb9565b80611c8f575b5050611c35565b611c9e9160e05160a0516159fc565b8880611c88565b611cb2828560e051614a3e565b613eb9565b82611ccc91611cb2611cd5958560e051614a3e565b9060a051614a3e565b611c35565b50506101e05160e001515190929015611d985760406101e05101516040516020816103005151611d108183856103005101613d17565b81016002815203019020555b6101e0515160206101e05101519060606101e051015160806101e0510151604051611d4f816116e2602082019485615163565b51902060405191825260208201527f6d46d52b5fda2a9055705ba74bf5e95807cfa39decf819cdfeaa14f9b2ba346a60406101405192a460016102e051016102e0529190611606565b6040516020816103005151611db38183856103005101613d17565b81016002815203019020611dc78154613eaa565b9055611d1c565b604051611dda81613c69565b60008152610160526119a4565b604051611df381613c69565b6000815261028052611973565b611e11816020610120510151614bc5565b5160005b828110611e7e5750906001916040516020816101005151611e3c8183856101005101613d17565b8101600381520301902090600052602052611e6d8260406000200154611e66836101205151614bc5565b519061529b565b611e778285614bc5565b5201611936565b81611e90826020610120510151614bc5565b5114611b6957600101611e15565b50436101a0526118da565b81610180526118ca565b5061038051610340526118b8565b80610360526118a7565b506101405160a052611892565b8060e052611883565b5060026040516020816103005151611eff8183856103005101613d17565b8101848152030190200154611680811115611f2a578061167f198101116104745761167f19016117d9565b5060006117d9565b604051631bd18a1960e31b8152600490fd5b90506020813d602011611f76575b81611f5f60209383613c84565b8101031261025257611f709061480c565b846117c2565b3d9150611f52565b60405162461bcd60e51b815260206004820152602b60248201527f5369676e617475726520726571756972656420666f7220636f6f70657261746960448201526a76652066696e616c697a6560a81b6064820152608490fd5b6040516388d0662b60e01b8152600490fd5b600160405160208161030051516120068183856103005101613d17565b8101600281520301902001548015611fd75760206101e05101519060206101006101e0510151151560026040518381610300515161204a8183856103005101613d17565b8101848152030190200154936120a160606101e051015160c06101e0510151906040519788958695633ea09ef960e11b8752600487015260248601526044850152606484015260a0608484015260a4830190613e85565b038173__$1a0918a2aa2208593bb0a5d7644cd0946b$__5af49182156114ed576000926122fc575b50036122ea576101e05160e00151511561225b5760406101e051015160405160208161030051516121008183856103005101613d17565b810160028152030190205410156102275760406101e051015160206101e051015110156102275760806101e0510151604051612144816116e2602082019485615163565b519020602060406101e05101519160e06101e0510151906101e051516121dc6040519586948594632775acd960e21b865260018060a01b037f000000000000000000000000000000000000000000000000000000000000000016600487015230602487015260e060448701526121c060e4870161030051613e85565b92606487015260848601526003198583030160a4860152613e85565b9060c4830152038173__$1a0918a2aa2208593bb0a5d7644cd0946b$__5af49081156114ed57600091612221575b506117c957604051631bd18a1960e31b8152600490fd5b90506020813d602011612253575b8161223c60209383613c84565b810103126102525761224d9061480c565b8461220a565b3d915061222f565b6101006101e051015115156101e05151610140511014806122ba575b6102275760606101e051015160806101e05101516040516122a0816116e2602082019485615163565b519020146117c957604051633485c51360e21b8152600490fd5b50600260405160208161030051516122d88183856103005101613d17565b81018481520301902001544310612277565b604051630cba69cb60e01b8152600490fd5b9091506020813d602011612328575b8161231860209383613c84565b81010312610252575190856120c9565b3d915061230b565b50829060005b60406102c05101518051821015612378579061236161235782600194614bc5565b51610140516152b7565b1561236d575b01612336565b60006101c052612367565b50509160005b6101006102c051015180518210156125e2578161239a91614bc5565b51604081015115610361576123b66020820151610140516141b0565b6123c661078d6020830151613dc4565b60408201516123dc602084015161014051614b3b565b106113945781516001600160a01b03106102275760018060a01b0382511690600160ff60408301511614806125d3575b610361576124276020840151604085015190610140516149b2565b604081015160ff16806124c45750906044604060209360018060a01b03905116940151916000604051958694859363a9059cbb60e01b8552600485015260248401525af19081156114ed5760009161248a575b5015611394576001905b0161237e565b90506020813d6020116124bc575b816124a560209383613c84565b81010312610252576124b69061480c565b8561247a565b3d9150612498565b909392906001810361254357505082516020909301516001600160a01b03909316926001600160601b0316833b156102525761251b93600092836040518097819582946323b872dd60e01b84523060048501614c0d565b03925af19182156114ed57600192612534575b50612484565b61253d90613c20565b8561252e565b909390600214612559575b505060019150612484565b8051602090910151604094909401516001600160601b0390941693906001600160a01b0316803b15610252576125ab946000809460405197889586948593637921219560e11b85523060048601614bd9565b03925af19182156114ed576001926125c4575b8061254e565b6125cd90613c20565b856125be565b5060016040840151141561240c565b82858560005b82811061265657836101c05115801590611f325761260d602092369061026051613cc2565b828151910120604051604435815282848201527fbd6e57133956b4a3944b483a9e595b4aab16071cf15a39384fdb1b7015865aab60406101405192a36001600055604051908152f35b6126608183614bc5565b516126866126718361024051614bc5565b5161267f8461020051614bc5565b5190613ec6565b61014051600052600160205260406000208260005260205260406000205410611394576126c46126b98361020051614bc5565b5182610140516149b2565b6101405160005260016020526040600020906000526020526040600020546126ef8261024051614bc5565b5111611394576001016125e8565b604051906312f6ab5960e31b82528160a481016002600483015261014051602483015260a06044830152825180915260c4820190602060c48260051b8501019401916000905b828210612804575050611680606484015250507f00000000000000000000000000000000000000000000000000000000000000006001600160a01b031660848201526020918190038173__$1a0918a2aa2208593bb0a5d7644cd0946b$__5af49081156114ed576000916127ca575b50156127bf575b8361151b565b60006101c0526127b9565b90506020813d6020116127fc575b816127e560209383613c84565b81010312610252576127f69061480c565b846127b2565b3d91506127d8565b919350919360208061286060019360c3198a820301865288519081518152838201518482015260408201516040820152608061284f606084015160a0606085015260a0840190613e85565b920151906080818403910152613e85565b96019201920185939192612743565b60409391935190630c039dc760e31b82528160c4810160016004830152600260248301526003604483015261014051606483015260c06084830152825180915260e4820190602060e48260051b8501019401916000905b8282106129fb575050507f00000000000000000000000000000000000000000000000000000000000000006001600160a01b031660a4830152506020918190038173__$1a0918a2aa2208593bb0a5d7644cd0946b$__5af49081156114ed576000916129c1575b50156129b6575b90916000915b60806102c051015180518410156129ac578361295591614bc5565b519160005b6060840151805182101561299d579061299761297882600194614bc5565b5161298a81885160208a015190614fa5565b6020870151875190614fa5565b0161295a565b5050600190930192915061293a565b509291508361150b565b60006101c052612934565b90506020813d6020116129f3575b816129dc60209383613c84565b81010312610252576129ed9061480c565b8461292d565b3d91506129cf565b919350919360e3198682030182528451906101008101825182526020830151602083015260408301519061010060408401528151809152602061012084019201906000905b808210612ae6575050506060830151908281036060840152602080835192838152019201906000905b808210612ace575050508260209260e080612ab9612a968796608060019a01518682036080880152613e85565b888060a01b0360a08701511660a086015260c086015185820360c0870152613e85565b930151910152960192019201859391926128c6565b90919260208060019286518152019401920190612a69565b909192602060a060019260808751805183528481015185840152604081015160408401526060810151606084015201516080820152019401920190612a40565b80612b4f612b3660019385614bc5565b51612b448361020051614bc5565b519061014051614a3e565b016112bf565b6040876104405186010312610252576040602080928251612b7581613bcf565b612b7e8b613e41565b8152828b013583820152815201970196905061107a565b6020606091612ba961044051890185614830565b815201910190610fd0565b60c083610440518901031261025257604051612bcf81613c33565b83358152612bdf60208501613e41565b602082015260408401356001600160601b03811690036102525760408481013590820152606084013560ff8116900361025257606084810135908201526080808501359082015260a08085013590820152815260c090920191602001610f24565b6103e051356001600160401b03811161025257610160601f198260c085880101358588010101610440518701030112610252576040516103a052612c866103a051613bb3565b6103a0805185840160c08101350183016020818101359092528251604080830135919093015282516060808301359190930152915160808301359101526001600160401b0360a090910135116102525761044051606085840160c081013501830160a08101350191860191909103601f19011261025257604051612d0981613bea565b84830160c081013501820160a081013501602001356001600160401b0381116102525761044051860184870160c081013501840160a0810135018201603f0112156102525785840160c081013501830160a081013501810160200135612d6e81614819565b91612d7c6040519384613c84565b818352610440516020840191908901878a0160c081013501870160a0810135018201600585901b01604001116102525786890160c081013501860160a0810135018101604001915b89880160c081013501870160a0810135018201600585901b0160400183106132be57505050908252506001600160401b0385840160c081013501830160a08101350160400135116102525761044051612e3890860184870160c081013501840160a081013501604081013501602001614862565b602082015284830160c081013501820160a081013501606001356001600160401b0381116102525761044051860184870160c081013501840160a0810135018201603f0112156102525785840160c081013501830160a081013501810160200135612ea281614819565b91612eb06040519384613c84565b818352610440516020840191908901878a0160c081013501870160a0810135018201600585901b01604001116102525786890160c081013501860160a0810135018101604001915b89880160c081013501870160a0810135018201600585901b01604001831061307d575050505060408201526103a051608001526001600160401b0360c0838601818101350183010135116102525761044051612f69908501602060c085880181810135018501908101350101613cf9565b6103a05160a001526001600160401b0384830160c081013501820160e00135116102525761044051612fb090850183860160c081013501830160e081013501602001613cf9565b60c06103a051015260018060401b036101008260c0858801013585880101010135116102525761044051612ffa90850183860160c081013501830161010081013501602001613cf9565b60e06103a051015261305261016061012092613023848260c0888b010135888b010101016148c2565b6103a0805161010001919091525187860160c081013501909101610140818101359290950191909152016148c2565b906103a05101526103a0516103c0515260206103c051016103c05260206103e051016103e052610e78565b6001600160401b0383351161025257610440516060898c0160c081013501890160a0810135018401853501918c0191909103603f190112610252576040516130c481613bea565b6130e5898c0160c081013501890160a0810135018401853501604001613e41565b81526001600160401b03898c0160c081013501890160a08101350184018535016060013511610252576104405161313c908c018c8b0160c0810135018a0160a0810135018501863501606081013501604001613cf9565b60208201526001600160401b03898c0160c081013501890160a0810135018401853501608001351161025257610440518b01898c0160c081013501890160a0810135018401853501608081013501605f01121561025257888b0160c081013501880160a0810135018301843501608081013501604001358b6131bd82614819565b916131cb6040519384613c84565b808352610440516020840192908101908d0160c0810135018c0160a08101350187018835016080810135016060808402919091010111610252578b8e0160c0810135018b0160a0810135018601873501608081013501606090810192908f908e8a8f5b91840160c08101350190910160a0810135018a019035016080810135018482020101841061326d57505050506040820152815260209283019201612ef8565b83606091610440510103126102525760608f898f93918f928460208d9260405161329681613bea565b8b358152828c01358382015260408c013560408201528152019801979592919493905061322e565b8235815260209283019201612dc4565b6001600160401b038235116102525760a0601f19833582888b010135888b010101610440518a01030112610252576040519061330982613c05565b87860160a0810135018335016020818101358452604080830135918501919091526060820135908401526001600160401b0360809091013511610252576104405161336a908901878a0160a081013501853501608081013501602001613cf9565b60608301526001600160401b0388870160a0818101359091018535010135116102525761044051602092839283929091906133bc908c018a8d0160a08181013590910189350190810135018501613cf9565b60808201528152019201919050610da9565b81356001600160401b03811161025257610100601f19826080898c010135898c010101610440518b0103011261025257604051906001600160401b0361010083019081119083111761366d576101008201604090815260206080898c01908101350183018181013585529182013590840152606001356001600160401b03811161025257610440518a01888b0160808101350183018201603f01121561025257878a0160808101350182018101602001359061348982614819565b916134976040519384613c84565b8083526104405160208401908d018b8e016080810135018601840160a08402016040011161025257918a8d0160808101350185018101604001905b8d8c81016080810135018701820160a0850201604001831061360e57505050505060408301526001600160401b036080888b01818101350183010135116102525761044051613536908a01602060808a8d0181810135018501908101350101614862565b60608301526001600160401b03898801608081013501820160a0013511610252576104405161357a908a01888b01608081013501830160a081013501602001613cf9565b608083015261359760c08260808a8d0101358a8d01010101613e41565b60a08301526001600160401b03898801608081013501820160e001351161025257610440516020938493849391929091610100916135e9908e018c8f01608081013501830160e0810135018701613cf9565b60c08401528a8d0160808101350101013560e082015281529190930192019050610d03565b8260a091610440510103126102525760408c8f958860a060208693865161363481613c05565b89358152828a013583820152878a01358882015260608a0135606082015260808a013560808201528152019601959750505050506134d2565b634e487b7160e01b600052604160045260246000fd5b6001600160401b038235116102525760a0601f1983356060888b010135888b010101610440518a0103011261025257604051906136bf82613c05565b87860160608181013590910184350160208181013585526040808301359186019190915281830135908501526080810135918401919091526001600160401b0360a09091013511610252576104405160209283928392909190613737908c018a8d0160608101350188350160a0810135018501613cf9565b60808201528152019201919050610c5d565b6001600160401b03823511610252576060601f1983356040878a010135878a0101016104405189010301126102525760405161378481613bea565b86850160408181013590910184350160208181013584529181013591830191909152606001356001600160401b038111610252576104405188018689016040810135018535018201603f01121561025257878601604081013501843501810160200135906137f182614819565b916137ff6040519384613c84565b8083526104405160208401908b01898c016040818101359091018935018501600685901b01011161025257888b01604081810135909101883501840101905b898c016040818101359091018935018501600685901b0101821061387357505050506040820152815260209182019101610bbb565b6040828d61044051010312610252576020604091825161389281613bcf565b84358152828501358382015281520191019061383e565b606080602080946138bf610440518d0188614830565b815201940193925050610b16565b604084610440518a0103126102525760406020809382516138ed81613bcf565b8735815282880135838201528152019401939150610a86565b506101405115610993565b90506040813d60401161394d575b8161392c60409383613c84565b810103126102525761394260208251920161480c565b90610140528361098a565b3d915061391f565b90506020813d60201161397f575b8161397060209383613c84565b81010312610252575183610916565b3d9150613963565b346102525761399536613d81565b9060005260076020526040600020906000526020526020604060002054604051908152f35b346102525760206106c96139cd36613d81565b90614b3b565b34610252576139e136613d81565b9060005260056020526040600020906000526020526020604060002054604051908152f35b346102525760203660031901126102525760043560005260086020526020604060002054604051908152f35b346102525760203660031901126102525761079361078d6004356107886009548210614786565b34610252576000366003190112610252576040517f00000000000000000000000000000000000000000000000000000000000000006001600160a01b03168152602090f35b34610252576000366003190112610252576020604051600080516020615bed8339815191528152f35b34610252576020366003190112610252576004356001600160401b03811161025257613b116020613afe6060933690600401613cf9565b8160405193828580945193849201613d17565b81016002815203019020805490600260018201549101549060405192835260208301526040820152f35b3461025257610595613b4c36613d3a565b91614506565b34610252576040366003190112610252576004356001600160401b038111610252576020613afe613b87923690600401613cf9565b810160038152030190206024356000526020526040806000206001815491015482519182526020820152f35b61016081019081106001600160401b0382111761366d57604052565b604081019081106001600160401b0382111761366d57604052565b606081019081106001600160401b0382111761366d57604052565b60a081019081106001600160401b0382111761366d57604052565b6001600160401b03811161366d57604052565b60c081019081106001600160401b0382111761366d57604052565b608081019081106001600160401b0382111761366d57604052565b602081019081106001600160401b0382111761366d57604052565b601f909101601f19168101906001600160401b0382119082101761366d57604052565b6001600160401b03811161366d57601f01601f191660200190565b929192613cce82613ca7565b91613cdc6040519384613c84565b829481845281830111610252578281602093846000960137010152565b9080601f8301121561025257816020613d1493359101613cc2565b90565b60005b838110613d2a5750506000910152565b8181015183820152602001613d1a565b606090600319011261025257600435906024359060443590565b6001600160a01b0390911681526001600160601b03909116602082015260ff909116604082015260600190565b6040906003190112610252576004359060243590565b9181601f84011215610252578235916001600160401b038311610252576020838186019501011161025257565b600954811015613de357600960005260206000209060011b0190600090565b634e487b7160e01b600052603260045260246000fd5b8054821015613de35760005260206000209060011b0190600090565b602435906001600160a01b038216820361025257565b600435906001600160a01b038216820361025257565b35906001600160a01b038216820361025257565b9181601f84011215610252578235916001600160401b038311610252576020808501948460051b01011161025257565b90602091613e9e81518092818552858086019101613d17565b601f01601f1916010190565b60001981146104745760010190565b9190820391821161047457565b9190820180921161047457565b90613ee45760018160008093550155565b634e487b7160e01b600052600060045260246000fd5b80549060009081815582613f0d57505050565b6001906001600160ff1b0384168403613f4c578252602082209260011b8301925b838110613f3b5750505050565b808360029255838382015501613f2e565b634e487b7160e01b83526011600452602483fd5b6000818152600492602060048152604093848420838552825284842095865490811561419a57828652600584528686208587528452868620549782891015614191575b90838752600191600186528888208789528652888820548389905b61400e575b5050505050861015613fe057835260058152838320918352522055565b61400c955080845260058252848420838552825283858120558352600481528383209183525220613efa565b565b858c929394959c1080614188575b15614180579061402d8c9392613eaa565b916140388286613df9565b509084820191825495861561416b575081156141625754919061408f908c90614089908c908981101561415557611cb281809581945b6140798383836149b2565b61408483838d614a3e565b614a96565b96613eb9565b9061409b828254613eb9565b918061412057508c90558d830180841161410d57614103928f969594928f8f8f94928f938f9493606093600080516020615bad833981519152958251948552840152820152a46140eb8b8a614ad9565b6140fe6140f88288613df9565b90613ed3565b613eaa565b9b5b949392613fbe565b634e487b7160e01b8d526011885260248dfd5b849f9695948f8e94600080516020615bad833981519152928f928f95606094818e9b99558251948552840152820152a4614105565b611cb28a8095819461406e565b5050509a613fc3565b955050929161417a9150613eaa565b9b614105565b819b50613fc3565b5087811061401c565b97508597613fa3565b5050835260058152838320918352529081205550565b6000818152600492602060048152604093848420838552825284842095865490811561419a57828652600584528686208587528452868620549782891015614352575b90838752600191600186528888208789528652888820548389905b61422f575050505050861015613fe057835260058152838320918352522055565b858c929394959c1080614349575b15614180579061424e8c9392613eaa565b916142598286613df9565b50908482019182549586156143345750811561416257549190614299908c90614089908c908981101561415557611cb281809581946140798383836149b2565b906142a5828254613eb9565b91806142ff57508c90558d830180841161410d576142f5928f969594928f8f8f94928f938f9493606093600080516020615bad833981519152958251948552840152820152a46140eb8b8a614ad9565b9b5b94939261420e565b849f9695948f8e94600080516020615bad833981519152928f928f95606094818e9b99558251948552840152820152a46142f7565b95505092916143439150613eaa565b9b6142f7565b5087811061423d565b975085976141f3565b6000818152600492602060048152604093848420838552825284842095865490811561419a578286526005845286862085875284528686205497828910156144fd575b90838752600191600186528888208789528652888820548389905b6143da575050505050861015613fe057835260058152838320918352522055565b858c929394959c10806144f4575b1561418057906143f98c9392613eaa565b916144048286613df9565b50908482019182549586156144df5750811561416257549190614444908c90614089908c908981101561415557611cb281809581946140798383836149b2565b90614450828254613eb9565b91806144aa57508c90558d830180841161410d576144a0928f969594928f8f8f94928f938f9493606093600080516020615bad833981519152958251948552840152820152a46140eb8b8a614ad9565b9b5b9493926143b9565b849f9695948f8e94600080516020615bad833981519152928f928f95606094818e9b99558251948552840152820152a46144a2565b95505092916144ee9150613eaa565b9b6144a2565b508781106143e8565b9750859761439e565b8060005260046020526040600020826000526020526040600020805490811561476457826000526005602052604060002084600052602052604060002054948286101561475b575b836000526001906001602052604060002086600052602052816040600020549180156000146147515750919291506000195b6000845b6145f1575b50505050508310156145b1576000526005602052604060002090600052602052604060002055565b80919250600052600560205260406000208260005260205260006040812055600052600460205260406000209060005260205261400c6040600020613efa565b8589939495991080614748575b156147405761460c90613eaa565b916146178186613df9565b509089820154948a861561472b5750801561472357906146686140846140898c8695611cb28e839c9b9a99549c8d918d851060001461471757849788809781955b6146638383876149b2565b614a3e565b91614676838d830154613eb9565b92806146de57508b60009101558a810191828211610474578b968a600080516020615bad83398151915260608e946146d297604051918252600060208301526040820152a46146c58a8a614ad9565b6140fe6140f88289613df9565b985b9493919091614584565b600080516020615bad83398151915260608e999395859f96958f96948f95898291015560405192835260208301526040820152a46146d4565b8d978880978195614658565b509850614589565b95509392915061473a90613eaa565b986146d4565b829850614589565b508181106145fe565b9050929192614580565b6000955061454e565b5050909150600052600560205260406000209060005260205260006040812055565b1561478d57565b606460405162461bcd60e51b815260206004820152600460248201526321746f6b60e01b6044820152fd5b906040516147c581613bea565b82546001600160a01b038116825260a01c602082015260019092015460ff166040830152565b908060209392818452848401376000828201840152601f01601f1916010190565b5190811515820361025257565b6001600160401b03811161366d5760051b60200190565b91908260609103126102525760405161484881613bea565b604080829480358452602081013560208501520135910152565b9080601f8301121561025257602090823561487c81614819565b9361488a6040519586613c84565b81855260208086019260051b82010192831161025257602001905b8282106148b3575050505090565b813581529083019083016148a5565b3590811515820361025257565b916040519160ff602084019416845260018060a01b0316604083015260018060601b031660608201526060815261490581613c4e565b51902090565b908082101561492f57604051916020830152604082015260408152613d1481613bea565b90604051916020830152604082015260408152613d1481613bea565b600954600160401b81101561366d5780600161496a9201600955613dc4565b613ee4578151602083015160a01b6001600160a01b0319166001600160a01b039190911617815560409190910151600191909101805460ff191660ff92909216919091179055565b90918015614a3957600090828252602091600183526040918282208683528452808383205410614a28579181600080516020615bcd833981519152949386839452600185528282208883528552614a0d838320918254613eb9565b905585815260018452818120878252845220549051908152a3565b8251632fd8225d60e21b8152600490fd5b505050565b90918015614a395760206040600080516020615bcd83398151915292600090858252600184528282208783528452614a7a838320918254613ec6565b90558481526001835281812086825283522054604051908152a3565b90918015614a3957600092828452600660205260408420818552602052604084205490828210611394576040938552600660205283852090855260205203912055565b90600090828252600860205260408220805480614b2e575b50506007602052604082208183526020526040822054614b1057505050565b60409282526007602052828220908252602052206000198154019055565b6000190190553880614af1565b6000918183526001602052604083208184526020526040832054918352600660205260408320908352602052604082205490818111600014614b8157613d149250613eb9565b505090565b90614b9082614819565b614b9d6040519182613c84565b8281528092614bae601f1991614819565b0190602036910137565b805115613de35760200190565b8051821015613de35760209160051b010190565b929060c0949260018060a01b0380921685521660208401526040830152606082015260a06080820152600060a08201520190565b6001600160a01b03918216815291166020820152604081019190915260600190565b805180614fa05750335b60a08201805115610361576060830180516020808601805160408089018051939991956001600160a01b03959491936001600160601b039392608092614c88929186169189169060ff166148cf565b9101968688518015600014614f7657505081600052600a8552866000205480895215614f24575b60ff91505b511680614e3957505050818751169183519782896024816370a0823160e01b978882523060048301525afa988915614e2e57600099614dff575b50600083614d18848451168a5189519485809481936323b872dd60e01b8352303360048501614c0d565b03925af1908115614df457600091614dbf575b5015614dae57908291511692602485518095819382523060048301525afa928315614da45750600092614d74575b505061400c94614d6891613eb9565b82525b51905191614a3e565b90809250813d8311614d9d575b614d8b8183613c84565b81010312610252575184614d68614d59565b503d614d81565b513d6000823e3d90fd5b8451632fd8225d60e21b8152600490fd5b90508381813d8311614ded575b614dd68183613c84565b8101031261025257614de79061480c565b38614d2b565b503d614dcc565b86513d6000823e3d90fd5b9098508281813d8311614e27575b614e178183613c84565b8101031261025257519738614cee565b503d614e0d565b85513d6000823e3d90fd5b94999891949093925060018103614ead5750511691511690803b156102525786516323b872dd60e01b8152916000918391829084908290614e7f90303360048501614c0d565b03925af18015614df45761400c959650614e9e575b5060018252614d6b565b614ea790613c20565b38614e94565b600214614ec4575b5050505061400c939450614d6b565b51169151168351823b1561025257614ef792600092838a51809681958294637921219560e11b8452303360048601614bd9565b03925af18015614df45761400c959650614f15575b85948180614eb5565b614f1e90613c20565b38614f0c565b614f50868c51168486511660ff845116908a5192614f4184613bea565b8352888301528982015261494b565b60095460001981019081116104745760ff92818a52600052600a86528760002055614caf565b60ff935090614f8861078d8593613dc4565b805189168e5287810151861687520151168152614cb4565b614c39565b90916000908282526020600581526040938484208385528252848420548185526004835285852084865283528585209081546000199888835b83811061506d5750505081109182615054575b5050615000575b505050505050565b600019860361504057615035955080845260058252848420838552825283858120558352600481528383209183525220613efa565b388080808080614ff8565b835260058152838320918352522055615035565b600192509061506291613df9565b500154153880614ff1565b8883888c8b61507c868c613df9565b509160018093015492831561511f578c866150978a83613df9565b5054036150fb57927f0971ac81b80f99fe0089c3fbe4af4fa1148f2ce78bc6345e76b05be73500de1f949289926150d18460019d97613df9565b5001556150df838988614a96565b6150e98887614ad9565b8351928352820152a45b018990614fde565b505050505050505090506000198b14615117575b6001906150f3565b99508961510f565b50505050505050600191506150f3565b90815180825260208080930193019160005b82811061514f575050505090565b835185529381019392810192600101615141565b906020808352815190615182606092606083870152608086019061512f565b8184015190601f199460409186888203018389015284808551928381520194019060005b8181106152875750505081015195606086828503019101528551938483528383019184808760051b8601019801966000945b8786106151eb5750505050505050505090565b90919293949596979882828203018652878a5160018060a01b0381511683528561522083830151898587015289860190613e85565b91015192868183039101528180845192838152019301906000905b8881831061525e5750505050806001929b019601960194979695939291906151d8565b8395896001949693955180518352848101518584015201518a82015201940192018a929161523b565b8251865294860194918601916001016151a6565b9190916000838201938412911290801582169115161761047457565b919091825190602080850151906152ce84846141b0565b60005b60408088019081518051841015615634576152fa846152f1818894614bc5565b51519451614bc5565b51015190615308838761490b565b6153128989614b3b565b8311615625578561532f9181845193828580945193849201613d17565b810160038152030190208860005285528060002061534e838a8a6149b2565b615359838254613ec6565b93848255808810938461560e575b5083156156075787935b156155fe57929390935b82519361538785613bcf565b8a6001968787528960005b8181106155bb57505083600052878a5285600020826000528a5285600020549083600052888b5286600020836000528b52888760002054910154918751936153d985613c05565b84528b840152868301526060948583015260808201526153f886614bb8565b5261540285614bb8565b5083519461540f86613bcf565b8686528860005b818110615587575061543e9061542c848661490b565b81885193828580945193849201613d17565b81016002815203019020549185519361545685613c4e565b845289840152848301528282015261546d84614bb8565b5261547783614bb8565b5081519386850187865284518091528386019288858360051b8901019601946000905b8382106154d8575050505050505081600193927f784575545124eef27f8fcc1472fb5f2483beb9cc23e6fe3dbf588eb7bd501f7c920390a1016152d1565b9091848b829596979899603f198c8203018a528a51906080810191805182528381015184830152868101519260808884015283518091528460a084019401906000905b808210615540575050509480849596015191015299019701920190949392919461549a565b939692959197509360a090608089518051835284810151858401528b8101518c8401528d8082015190840152015160808201520196019201928f93928996938c969361551b565b869895985161559581613c4e565b60008152600083820152898882015260008a82015282828a010152018990979497615416565b9091925086989598516155cd81613c05565b60008152600083820152600088820152600060608201526000608082015282828a0101520190898d92989598615392565b5092869261537b565b8093615371565b61561d6001840191825461529b565b905538615367565b50600099505050505050505050565b506001985050505050505050565b60209081818403126102525780516001600160401b039182821161025257019083601f8301121561025257815161567881614819565b946040926156896040519788613c84565b828752858088019360051b8601019482861161025257868101935b8685106156b657505050505050505090565b84518381116102525782019084603f830112156102525788820151906156db82613ca7565b6156e789519182613c84565b82815286898486010111610252576157088b949385948b8685019101613d17565b8152019401936156a4565b600160ff1b81146104745760000390565b3d1561574f573d9061573582613ca7565b916157436040519384613c84565b82523d6000602084013e565b606090565b6020908181840312610252578051906001600160401b03821161025257019180601f8401121561025257825161578981614819565b936157976040519586613c84565b818552838086019260051b820101928311610252578301905b8282106157be575050505090565b815181529083019083016157b0565b90919260018060a01b03808451169560405197602098898101906354460ea760e11b8252600481526157fe81613bcf565b6000998a92839251915afa615811615724565b816159b8575b81615995575b506158d557505091615897615865928798869561587897999899511695015190615888604051998a9889978897630c6191f960e11b8952608060048a0152608489019061512f565b60031995868983030160248a0152613e85565b9084878303016044880152613e85565b91848303016064850152613e85565b03915afa9182156158c95780926158ad57505090565b613d1492503d8091833e6158c18183613c84565b810190615754565b604051903d90823e3d90fd5b90889161594a89986159189661593b86615963988c51169b01519261592b6040519a8b998a019c8d63649330f760e01b905260c060248c015260e48b019061512f565b60231995868b83030160448c0152613e85565b90848983030160648a0152613e85565b91868303016084870152613e85565b9160a484015260c483015203601f198101835282613c84565b51915afa90615970615724565b9115615988579081613d149282518301019101615754565b8151156102275781519101fd5b905089818051810103126159b457896159ae910161480c565b3861581d565b8880fd5b9050898151101590615817565b9060005b82518110156159f457816159dd8285614bc5565b5151146159ec576001016159c9565b505050600190565b505050600090565b9091928015615ba657615a3190615a13858461435b565b615a1d8584614b3b565b818110615ba05750805b81615b8a57613eb9565b80158015615a41575b5050505050565b8315610227578383146102275761036157816000526020906004825260409081600020866000528352816000208251615a7981613bcf565b868152848101918383528054600160401b81101561366d57615aa091600182018155613df9565b929092613ee4576001915183555191015583600052600483528160002086600052835281600020546000198101908111610474577fae767eeb0c57abd46e2e0b422895ba3b89372fbd0510a58f00d996faf66f027d938115615b6d575b85600052600681528360002088600052815283600020615b1e848254613ec6565b9055856000526008815283600020615b368154613eaa565b905585600052600781528360002088600052815283600020615b588154613eaa565b90558351928352820152a43880808080615a3a565b856000526005815283600020886000528152600084812055615afd565b615b958287866149b2565b611cb2828787614a3e565b90615a27565b5050505056fe1ffe8e6348fe244a8988797c02b57999821149e7b25c9f93a85c77819efdde67ab4d21442efe134c3d0c087e2b687e9593a1c09176f498d37873210cde052c45990f4c22d4b046a9a7d673c4a252b906cadd4f3290465e297f998c28a449652ba264697066735822122082df6d2654d14b47aff87f247ebb08c3a92e464c31a5a968a04ee6388594a8cc64736f6c63430008180033",
  "linkReferences": {
    "contracts/Account.sol": {
      "Account": [
        {
          "length": 20,
          "start": 2799
        },
        {
          "length": 20,
          "start": 5746
        },
        {
          "length": 20,
          "start": 6555
        },
        {
          "length": 20,
          "start": 8866
        },
        {
          "length": 20,
          "start": 9187
        },
        {
          "length": 20,
          "start": 10635
        },
        {
          "length": 20,
          "start": 11014
        }
      ]
    }
  },
  "deployedLinkReferences": {
    "contracts/Account.sol": {
      "Account": [
        {
          "length": 20,
          "start": 2290
        },
        {
          "length": 20,
          "start": 5237
        },
        {
          "length": 20,
          "start": 6046
        },
        {
          "length": 20,
          "start": 8357
        },
        {
          "length": 20,
          "start": 8678
        },
        {
          "length": 20,
          "start": 10126
        },
        {
          "length": 20,
          "start": 10505
        }
      ]
    }
  }
}