{
  "_format": "hh-sol-artifact-1",
  "contractName": "EntityProvider",
  "sourceName": "contracts/EntityProvider.sol",
  "abi": [
    {
      "inputs": [],
      "stateMutability": "nonpayable",
      "type": "constructor"
    },
    {
      "inputs": [
        {
          "internalType": "address",
          "name": "sender",
          "type": "address"
        },
        {
          "internalType": "uint256",
          "name": "balance",
          "type": "uint256"
        },
        {
          "internalType": "uint256",
          "name": "needed",
          "type": "uint256"
        },
        {
          "internalType": "uint256",
          "name": "tokenId",
          "type": "uint256"
        }
      ],
      "name": "ERC1155InsufficientBalance",
      "type": "error"
    },
    {
      "inputs": [
        {
          "internalType": "address",
          "name": "approver",
          "type": "address"
        }
      ],
      "name": "ERC1155InvalidApprover",
      "type": "error"
    },
    {
      "inputs": [
        {
          "internalType": "uint256",
          "name": "idsLength",
          "type": "uint256"
        },
        {
          "internalType": "uint256",
          "name": "valuesLength",
          "type": "uint256"
        }
      ],
      "name": "ERC1155InvalidArrayLength",
      "type": "error"
    },
    {
      "inputs": [
        {
          "internalType": "address",
          "name": "operator",
          "type": "address"
        }
      ],
      "name": "ERC1155InvalidOperator",
      "type": "error"
    },
    {
      "inputs": [
        {
          "internalType": "address",
          "name": "receiver",
          "type": "address"
        }
      ],
      "name": "ERC1155InvalidReceiver",
      "type": "error"
    },
    {
      "inputs": [
        {
          "internalType": "address",
          "name": "sender",
          "type": "address"
        }
      ],
      "name": "ERC1155InvalidSender",
      "type": "error"
    },
    {
      "inputs": [
        {
          "internalType": "address",
          "name": "operator",
          "type": "address"
        },
        {
          "internalType": "address",
          "name": "owner",
          "type": "address"
        }
      ],
      "name": "ERC1155MissingApprovalForAll",
      "type": "error"
    },
    {
      "inputs": [],
      "name": "InvalidHankoThreshold",
      "type": "error"
    },
    {
      "inputs": [],
      "name": "InvalidHankoWeight",
      "type": "error"
    },
    {
      "anonymous": false,
      "inputs": [
        {
          "indexed": true,
          "internalType": "address",
          "name": "account",
          "type": "address"
        },
        {
          "indexed": true,
          "internalType": "address",
          "name": "operator",
          "type": "address"
        },
        {
          "indexed": false,
          "internalType": "bool",
          "name": "approved",
          "type": "bool"
        }
      ],
      "name": "ApprovalForAll",
      "type": "event"
    },
    {
      "anonymous": false,
      "inputs": [
        {
          "indexed": true,
          "internalType": "bytes32",
          "name": "entityId",
          "type": "bytes32"
        },
        {
          "indexed": false,
          "internalType": "bytes32",
          "name": "newBoardHash",
          "type": "bytes32"
        }
      ],
      "name": "BoardActivated",
      "type": "event"
    },
    {
      "anonymous": false,
      "inputs": [
        {
          "indexed": true,
          "internalType": "bytes32",
          "name": "entityId",
          "type": "bytes32"
        },
        {
          "indexed": false,
          "internalType": "bytes32",
          "name": "proposedBoardHash",
          "type": "bytes32"
        }
      ],
      "name": "BoardProposed",
      "type": "event"
    },
    {
      "anonymous": false,
      "inputs": [
        {
          "indexed": true,
          "internalType": "bytes32",
          "name": "entityId",
          "type": "bytes32"
        },
        {
          "indexed": true,
          "internalType": "address",
          "name": "depository",
          "type": "address"
        },
        {
          "indexed": false,
          "internalType": "uint256",
          "name": "controlAmount",
          "type": "uint256"
        },
        {
          "indexed": false,
          "internalType": "uint256",
          "name": "dividendAmount",
          "type": "uint256"
        },
        {
          "indexed": false,
          "internalType": "string",
          "name": "purpose",
          "type": "string"
        }
      ],
      "name": "ControlSharesReleased",
      "type": "event"
    },
    {
      "anonymous": false,
      "inputs": [
        {
          "indexed": true,
          "internalType": "bytes32",
          "name": "entityId",
          "type": "bytes32"
        },
        {
          "indexed": true,
          "internalType": "uint256",
          "name": "entityNumber",
          "type": "uint256"
        },
        {
          "indexed": false,
          "internalType": "bytes32",
          "name": "boardHash",
          "type": "bytes32"
        }
      ],
      "name": "EntityRegistered",
      "type": "event"
    },
    {
      "anonymous": false,
      "inputs": [
        {
          "indexed": true,
          "internalType": "bytes32",
          "name": "entityId",
          "type": "bytes32"
        },
        {
          "indexed": false,
          "internalType": "uint256",
          "name": "controlTokenId",
          "type": "uint256"
        },
        {
          "indexed": false,
          "internalType": "uint256",
          "name": "dividendTokenId",
          "type": "uint256"
        }
      ],
      "name": "GovernanceEnabled",
      "type": "event"
    },
    {
      "anonymous": false,
      "inputs": [
        {
          "indexed": true,
          "internalType": "string",
          "name": "name",
          "type": "string"
        },
        {
          "indexed": true,
          "internalType": "uint256",
          "name": "entityNumber",
          "type": "uint256"
        }
      ],
      "name": "NameAssigned",
      "type": "event"
    },
    {
      "anonymous": false,
      "inputs": [
        {
          "indexed": true,
          "internalType": "string",
          "name": "name",
          "type": "string"
        },
        {
          "indexed": true,
          "internalType": "uint256",
          "name": "fromNumber",
          "type": "uint256"
        },
        {
          "indexed": true,
          "internalType": "uint256",
          "name": "toNumber",
          "type": "uint256"
        }
      ],
      "name": "NameTransferred",
      "type": "event"
    },
    {
      "anonymous": false,
      "inputs": [
        {
          "indexed": true,
          "internalType": "bytes32",
          "name": "entityId",
          "type": "bytes32"
        },
        {
          "indexed": false,
          "internalType": "enum EntityProvider.ProposerType",
          "name": "cancelledBy",
          "type": "uint8"
        }
      ],
      "name": "ProposalCancelled",
      "type": "event"
    },
    {
      "anonymous": false,
      "inputs": [
        {
          "indexed": true,
          "internalType": "address",
          "name": "operator",
          "type": "address"
        },
        {
          "indexed": true,
          "internalType": "address",
          "name": "from",
          "type": "address"
        },
        {
          "indexed": true,
          "internalType": "address",
          "name": "to",
          "type": "address"
        },
        {
          "indexed": false,
          "internalType": "uint256[]",
          "name": "ids",
          "type": "uint256[]"
        },
        {
          "indexed": false,
          "internalType": "uint256[]",
          "name": "values",
          "type": "uint256[]"
        }
      ],
      "name": "TransferBatch",
      "type": "event"
    },
    {
      "anonymous": false,
      "inputs": [
        {
          "indexed": true,
          "internalType": "address",
          "name": "operator",
          "type": "address"
        },
        {
          "indexed": true,
          "internalType": "address",
          "name": "from",
          "type": "address"
        },
        {
          "indexed": true,
          "internalType": "address",
          "name": "to",
          "type": "address"
        },
        {
          "indexed": false,
          "internalType": "uint256",
          "name": "id",
          "type": "uint256"
        },
        {
          "indexed": false,
          "internalType": "uint256",
          "name": "value",
          "type": "uint256"
        }
      ],
      "name": "TransferSingle",
      "type": "event"
    },
    {
      "anonymous": false,
      "inputs": [
        {
          "indexed": false,
          "internalType": "string",
          "name": "value",
          "type": "string"
        },
        {
          "indexed": true,
          "internalType": "uint256",
          "name": "id",
          "type": "uint256"
        }
      ],
      "name": "URI",
      "type": "event"
    },
    {
      "inputs": [],
      "name": "FOUNDATION_ENTITY",
      "outputs": [
        {
          "internalType": "uint256",
          "name": "",
          "type": "uint256"
        }
      ],
      "stateMutability": "view",
      "type": "function"
    },
    {
      "inputs": [],
      "name": "TOTAL_CONTROL_SUPPLY",
      "outputs": [
        {
          "internalType": "uint256",
          "name": "",
          "type": "uint256"
        }
      ],
      "stateMutability": "view",
      "type": "function"
    },
    {
      "inputs": [],
      "name": "TOTAL_DIVIDEND_SUPPLY",
      "outputs": [
        {
          "internalType": "uint256",
          "name": "",
          "type": "uint256"
        }
      ],
      "stateMutability": "view",
      "type": "function"
    },
    {
      "inputs": [
        {
          "internalType": "bytes32",
          "name": "entityId",
          "type": "bytes32"
        }
      ],
      "name": "activateBoard",
      "outputs": [],
      "stateMutability": "nonpayable",
      "type": "function"
    },
    {
      "inputs": [
        {
          "internalType": "bytes32",
          "name": "",
          "type": "bytes32"
        }
      ],
      "name": "activeProposals",
      "outputs": [
        {
          "internalType": "bytes32",
          "name": "proposedBoardHash",
          "type": "bytes32"
        },
        {
          "internalType": "enum EntityProvider.ProposerType",
          "name": "proposerType",
          "type": "uint8"
        },
        {
          "internalType": "uint256",
          "name": "proposeBlock",
          "type": "uint256"
        },
        {
          "internalType": "uint256",
          "name": "activateBlock",
          "type": "uint256"
        },
        {
          "internalType": "bool",
          "name": "active",
          "type": "bool"
        }
      ],
      "stateMutability": "view",
      "type": "function"
    },
    {
      "inputs": [
        {
          "internalType": "string",
          "name": "name",
          "type": "string"
        },
        {
          "internalType": "uint256",
          "name": "entityNumber",
          "type": "uint256"
        }
      ],
      "name": "assignName",
      "outputs": [],
      "stateMutability": "nonpayable",
      "type": "function"
    },
    {
      "inputs": [
        {
          "internalType": "address",
          "name": "account",
          "type": "address"
        },
        {
          "internalType": "uint256",
          "name": "id",
          "type": "uint256"
        }
      ],
      "name": "balanceOf",
      "outputs": [
        {
          "internalType": "uint256",
          "name": "",
          "type": "uint256"
        }
      ],
      "stateMutability": "view",
      "type": "function"
    },
    {
      "inputs": [
        {
          "internalType": "address[]",
          "name": "accounts",
          "type": "address[]"
        },
        {
          "internalType": "uint256[]",
          "name": "ids",
          "type": "uint256[]"
        }
      ],
      "name": "balanceOfBatch",
      "outputs": [
        {
          "internalType": "uint256[]",
          "name": "",
          "type": "uint256[]"
        }
      ],
      "stateMutability": "view",
      "type": "function"
    },
    {
      "inputs": [
        {
          "internalType": "bytes[]",
          "name": "hankoDataArray",
          "type": "bytes[]"
        },
        {
          "internalType": "bytes32[]",
          "name": "hashes",
          "type": "bytes32[]"
        }
      ],
      "name": "batchVerifyHankoSignatures",
      "outputs": [
        {
          "internalType": "bytes32[]",
          "name": "entityIds",
          "type": "bytes32[]"
        },
        {
          "internalType": "bool[]",
          "name": "results",
          "type": "bool[]"
        }
      ],
      "stateMutability": "view",
      "type": "function"
    },
    {
      "inputs": [
        {
          "internalType": "bytes32",
          "name": "",
          "type": "bytes32"
        }
      ],
      "name": "boardHashToEntityId",
      "outputs": [
        {
          "internalType": "bytes32",
          "name": "",
          "type": "bytes32"
        }
      ],
      "stateMutability": "view",
      "type": "function"
    },
    {
      "inputs": [
        {
          "internalType": "bytes32",
          "name": "entityId",
          "type": "bytes32"
        },
        {
          "internalType": "enum EntityProvider.ProposerType",
          "name": "proposerType",
          "type": "uint8"
        },
        {
          "components": [
            {
              "internalType": "uint32",
              "name": "controlDelay",
              "type": "uint32"
            },
            {
              "internalType": "uint32",
              "name": "dividendDelay",
              "type": "uint32"
            },
            {
              "internalType": "uint32",
              "name": "foundationDelay",
              "type": "uint32"
            },
            {
              "internalType": "uint16",
              "name": "controlThreshold",
              "type": "uint16"
            }
          ],
          "internalType": "struct EntityProvider.EntityArticles",
          "name": "articles",
          "type": "tuple"
        }
      ],
      "name": "cancelBoardProposal",
      "outputs": [],
      "stateMutability": "nonpayable",
      "type": "function"
    },
    {
      "inputs": [
        {
          "internalType": "bytes32",
          "name": "",
          "type": "bytes32"
        }
      ],
      "name": "entities",
      "outputs": [
        {
          "internalType": "bytes32",
          "name": "currentBoardHash",
          "type": "bytes32"
        },
        {
          "internalType": "bytes32",
          "name": "proposedBoardHash",
          "type": "bytes32"
        },
        {
          "internalType": "uint256",
          "name": "activateAtBlock",
          "type": "uint256"
        },
        {
          "internalType": "uint256",
          "name": "registrationBlock",
          "type": "uint256"
        },
        {
          "internalType": "enum EntityProvider.ProposerType",
          "name": "proposerType",
          "type": "uint8"
        },
        {
          "internalType": "bytes32",
          "name": "articlesHash",
          "type": "bytes32"
        }
      ],
      "stateMutability": "view",
      "type": "function"
    },
    {
      "inputs": [
        {
          "internalType": "bytes32",
          "name": "",
          "type": "bytes32"
        }
      ],
      "name": "entityActionNonces",
      "outputs": [
        {
          "internalType": "uint256",
          "name": "",
          "type": "uint256"
        }
      ],
      "stateMutability": "view",
      "type": "function"
    },
    {
      "inputs": [
        {
          "internalType": "bytes32",
          "name": "",
          "type": "bytes32"
        }
      ],
      "name": "entityIdToNumber",
      "outputs": [
        {
          "internalType": "uint256",
          "name": "",
          "type": "uint256"
        }
      ],
      "stateMutability": "view",
      "type": "function"
    },
    {
      "inputs": [
        {
          "internalType": "uint256",
          "name": "entityNumber",
          "type": "uint256"
        },
        {
          "internalType": "address",
          "name": "to",
          "type": "address"
        },
        {
          "internalType": "uint256",
          "name": "tokenId",
          "type": "uint256"
        },
        {
          "internalType": "uint256",
          "name": "amount",
          "type": "uint256"
        },
        {
          "internalType": "bytes",
          "name": "encodedBoard",
          "type": "bytes"
        },
        {
          "internalType": "bytes",
          "name": "encodedSignature",
          "type": "bytes"
        }
      ],
      "name": "entityTransferTokens",
      "outputs": [],
      "stateMutability": "nonpayable",
      "type": "function"
    },
    {
      "inputs": [
        {
          "internalType": "bytes32",
          "name": "boardHash",
          "type": "bytes32"
        },
        {
          "components": [
            {
              "internalType": "uint32",
              "name": "controlDelay",
              "type": "uint32"
            },
            {
              "internalType": "uint32",
              "name": "dividendDelay",
              "type": "uint32"
            },
            {
              "internalType": "uint32",
              "name": "foundationDelay",
              "type": "uint32"
            },
            {
              "internalType": "uint16",
              "name": "controlThreshold",
              "type": "uint16"
            }
          ],
          "internalType": "struct EntityProvider.EntityArticles",
          "name": "articles",
          "type": "tuple"
        }
      ],
      "name": "foundationRegisterEntity",
      "outputs": [
        {
          "internalType": "uint256",
          "name": "entityNumber",
          "type": "uint256"
        }
      ],
      "stateMutability": "nonpayable",
      "type": "function"
    },
    {
      "inputs": [
        {
          "internalType": "uint256",
          "name": "tokenId",
          "type": "uint256"
        }
      ],
      "name": "getEntityFromToken",
      "outputs": [
        {
          "internalType": "uint256",
          "name": "entityNumber",
          "type": "uint256"
        }
      ],
      "stateMutability": "pure",
      "type": "function"
    },
    {
      "inputs": [
        {
          "internalType": "bytes32",
          "name": "entityId",
          "type": "bytes32"
        }
      ],
      "name": "getEntityInfo",
      "outputs": [
        {
          "internalType": "bool",
          "name": "exists",
          "type": "bool"
        },
        {
          "internalType": "bytes32",
          "name": "currentBoardHash",
          "type": "bytes32"
        },
        {
          "internalType": "bytes32",
          "name": "proposedBoardHash",
          "type": "bytes32"
        },
        {
          "internalType": "uint256",
          "name": "registrationBlock",
          "type": "uint256"
        },
        {
          "internalType": "string",
          "name": "name",
          "type": "string"
        }
      ],
      "stateMutability": "view",
      "type": "function"
    },
    {
      "inputs": [
        {
          "internalType": "uint256",
          "name": "entityNumber",
          "type": "uint256"
        }
      ],
      "name": "getGovernanceInfo",
      "outputs": [
        {
          "internalType": "uint256",
          "name": "controlTokenId",
          "type": "uint256"
        },
        {
          "internalType": "uint256",
          "name": "dividendTokenId",
          "type": "uint256"
        },
        {
          "internalType": "uint256",
          "name": "controlSupply",
          "type": "uint256"
        },
        {
          "internalType": "uint256",
          "name": "dividendSupply",
          "type": "uint256"
        },
        {
          "internalType": "bool",
          "name": "hasActiveProposal",
          "type": "bool"
        },
        {
          "internalType": "bytes32",
          "name": "articlesHash",
          "type": "bytes32"
        }
      ],
      "stateMutability": "view",
      "type": "function"
    },
    {
      "inputs": [
        {
          "internalType": "uint256",
          "name": "entityNumber",
          "type": "uint256"
        }
      ],
      "name": "getTokenIds",
      "outputs": [
        {
          "internalType": "uint256",
          "name": "controlTokenId",
          "type": "uint256"
        },
        {
          "internalType": "uint256",
          "name": "dividendTokenId",
          "type": "uint256"
        }
      ],
      "stateMutability": "pure",
      "type": "function"
    },
    {
      "inputs": [
        {
          "internalType": "address",
          "name": "account",
          "type": "address"
        },
        {
          "internalType": "address",
          "name": "operator",
          "type": "address"
        }
      ],
      "name": "isApprovedForAll",
      "outputs": [
        {
          "internalType": "bool",
          "name": "",
          "type": "bool"
        }
      ],
      "stateMutability": "view",
      "type": "function"
    },
    {
      "inputs": [
        {
          "internalType": "address",
          "name": "",
          "type": "address"
        }
      ],
      "name": "nameQuota",
      "outputs": [
        {
          "internalType": "uint8",
          "name": "",
          "type": "uint8"
        }
      ],
      "stateMutability": "view",
      "type": "function"
    },
    {
      "inputs": [
        {
          "internalType": "string",
          "name": "",
          "type": "string"
        }
      ],
      "name": "nameToNumber",
      "outputs": [
        {
          "internalType": "uint256",
          "name": "",
          "type": "uint256"
        }
      ],
      "stateMutability": "view",
      "type": "function"
    },
    {
      "inputs": [],
      "name": "nextNumber",
      "outputs": [
        {
          "internalType": "uint256",
          "name": "",
          "type": "uint256"
        }
      ],
      "stateMutability": "view",
      "type": "function"
    },
    {
      "inputs": [
        {
          "internalType": "uint256",
          "name": "",
          "type": "uint256"
        }
      ],
      "name": "numberToName",
      "outputs": [
        {
          "internalType": "string",
          "name": "",
          "type": "string"
        }
      ],
      "stateMutability": "view",
      "type": "function"
    },
    {
      "inputs": [
        {
          "internalType": "bytes32",
          "name": "entityId",
          "type": "bytes32"
        },
        {
          "internalType": "bytes32",
          "name": "newBoardHash",
          "type": "bytes32"
        },
        {
          "internalType": "enum EntityProvider.ProposerType",
          "name": "proposerType",
          "type": "uint8"
        },
        {
          "components": [
            {
              "internalType": "uint32",
              "name": "controlDelay",
              "type": "uint32"
            },
            {
              "internalType": "uint32",
              "name": "dividendDelay",
              "type": "uint32"
            },
            {
              "internalType": "uint32",
              "name": "foundationDelay",
              "type": "uint32"
            },
            {
              "internalType": "uint16",
              "name": "controlThreshold",
              "type": "uint16"
            }
          ],
          "internalType": "struct EntityProvider.EntityArticles",
          "name": "articles",
          "type": "tuple"
        }
      ],
      "name": "proposeBoard",
      "outputs": [],
      "stateMutability": "nonpayable",
      "type": "function"
    },
    {
      "inputs": [
        {
          "internalType": "bytes",
          "name": "encodedBoard",
          "type": "bytes"
        },
        {
          "internalType": "bytes",
          "name": "encodedSignature",
          "type": "bytes"
        },
        {
          "internalType": "bytes32",
          "name": "hash",
          "type": "bytes32"
        }
      ],
      "name": "recoverEntity",
      "outputs": [
        {
          "internalType": "uint256",
          "name": "entityId",
          "type": "uint256"
        }
      ],
      "stateMutability": "view",
      "type": "function"
    },
    {
      "inputs": [
        {
          "internalType": "bytes32[]",
          "name": "boardHashes",
          "type": "bytes32[]"
        }
      ],
      "name": "registerNumberedEntitiesBatch",
      "outputs": [
        {
          "internalType": "uint256[]",
          "name": "entityNumbers",
          "type": "uint256[]"
        }
      ],
      "stateMutability": "nonpayable",
      "type": "function"
    },
    {
      "inputs": [
        {
          "internalType": "bytes32",
          "name": "boardHash",
          "type": "bytes32"
        }
      ],
      "name": "registerNumberedEntity",
      "outputs": [
        {
          "internalType": "uint256",
          "name": "entityNumber",
          "type": "uint256"
        }
      ],
      "stateMutability": "nonpayable",
      "type": "function"
    },
    {
      "inputs": [
        {
          "internalType": "uint256",
          "name": "entityNumber",
          "type": "uint256"
        },
        {
          "internalType": "address",
          "name": "depository",
          "type": "address"
        },
        {
          "internalType": "uint256",
          "name": "controlAmount",
          "type": "uint256"
        },
        {
          "internalType": "uint256",
          "name": "dividendAmount",
          "type": "uint256"
        },
        {
          "internalType": "string",
          "name": "purpose",
          "type": "string"
        },
        {
          "internalType": "bytes",
          "name": "encodedBoard",
          "type": "bytes"
        },
        {
          "internalType": "bytes",
          "name": "encodedSignature",
          "type": "bytes"
        }
      ],
      "name": "releaseControlShares",
      "outputs": [],
      "stateMutability": "nonpayable",
      "type": "function"
    },
    {
      "inputs": [
        {
          "internalType": "string",
          "name": "",
          "type": "string"
        }
      ],
      "name": "reservedNames",
      "outputs": [
        {
          "internalType": "bool",
          "name": "",
          "type": "bool"
        }
      ],
      "stateMutability": "view",
      "type": "function"
    },
    {
      "inputs": [
        {
          "internalType": "string",
          "name": "identifier",
          "type": "string"
        }
      ],
      "name": "resolveEntityId",
      "outputs": [
        {
          "internalType": "bytes32",
          "name": "",
          "type": "bytes32"
        }
      ],
      "stateMutability": "view",
      "type": "function"
    },
    {
      "inputs": [
        {
          "internalType": "address",
          "name": "from",
          "type": "address"
        },
        {
          "internalType": "address",
          "name": "to",
          "type": "address"
        },
        {
          "internalType": "uint256[]",
          "name": "ids",
          "type": "uint256[]"
        },
        {
          "internalType": "uint256[]",
          "name": "values",
          "type": "uint256[]"
        },
        {
          "internalType": "bytes",
          "name": "data",
          "type": "bytes"
        }
      ],
      "name": "safeBatchTransferFrom",
      "outputs": [],
      "stateMutability": "nonpayable",
      "type": "function"
    },
    {
      "inputs": [
        {
          "internalType": "address",
          "name": "from",
          "type": "address"
        },
        {
          "internalType": "address",
          "name": "to",
          "type": "address"
        },
        {
          "internalType": "uint256",
          "name": "id",
          "type": "uint256"
        },
        {
          "internalType": "uint256",
          "name": "value",
          "type": "uint256"
        },
        {
          "internalType": "bytes",
          "name": "data",
          "type": "bytes"
        }
      ],
      "name": "safeTransferFrom",
      "outputs": [],
      "stateMutability": "nonpayable",
      "type": "function"
    },
    {
      "inputs": [
        {
          "internalType": "address",
          "name": "operator",
          "type": "address"
        },
        {
          "internalType": "bool",
          "name": "approved",
          "type": "bool"
        }
      ],
      "name": "setApprovalForAll",
      "outputs": [],
      "stateMutability": "nonpayable",
      "type": "function"
    },
    {
      "inputs": [
        {
          "internalType": "address",
          "name": "user",
          "type": "address"
        },
        {
          "internalType": "uint8",
          "name": "quota",
          "type": "uint8"
        }
      ],
      "name": "setNameQuota",
      "outputs": [],
      "stateMutability": "nonpayable",
      "type": "function"
    },
    {
      "inputs": [
        {
          "internalType": "string",
          "name": "name",
          "type": "string"
        },
        {
          "internalType": "bool",
          "name": "reserved",
          "type": "bool"
        }
      ],
      "name": "setReservedName",
      "outputs": [],
      "stateMutability": "nonpayable",
      "type": "function"
    },
    {
      "inputs": [
        {
          "internalType": "bytes4",
          "name": "interfaceId",
          "type": "bytes4"
        }
      ],
      "name": "supportsInterface",
      "outputs": [
        {
          "internalType": "bool",
          "name": "",
          "type": "bool"
        }
      ],
      "stateMutability": "view",
      "type": "function"
    },
    {
      "inputs": [
        {
          "internalType": "bytes32",
          "name": "",
          "type": "bytes32"
        }
      ],
      "name": "totalControlSupply",
      "outputs": [
        {
          "internalType": "uint256",
          "name": "",
          "type": "uint256"
        }
      ],
      "stateMutability": "view",
      "type": "function"
    },
    {
      "inputs": [
        {
          "internalType": "bytes32",
          "name": "",
          "type": "bytes32"
        }
      ],
      "name": "totalDividendSupply",
      "outputs": [
        {
          "internalType": "uint256",
          "name": "",
          "type": "uint256"
        }
      ],
      "stateMutability": "view",
      "type": "function"
    },
    {
      "inputs": [
        {
          "internalType": "string",
          "name": "name",
          "type": "string"
        },
        {
          "internalType": "uint256",
          "name": "newEntityNumber",
          "type": "uint256"
        }
      ],
      "name": "transferName",
      "outputs": [],
      "stateMutability": "nonpayable",
      "type": "function"
    },
    {
      "inputs": [
        {
          "internalType": "uint256",
          "name": "",
          "type": "uint256"
        }
      ],
      "name": "uri",
      "outputs": [
        {
          "internalType": "string",
          "name": "",
          "type": "string"
        }
      ],
      "stateMutability": "view",
      "type": "function"
    },
    {
      "inputs": [
        {
          "internalType": "bytes",
          "name": "hankoData",
          "type": "bytes"
        },
        {
          "internalType": "bytes32",
          "name": "hash",
          "type": "bytes32"
        }
      ],
      "name": "verifyHankoSignature",
      "outputs": [
        {
          "internalType": "bytes32",
          "name": "entityId",
          "type": "bytes32"
        },
        {
          "internalType": "bool",
          "name": "success",
          "type": "bool"
        }
      ],
      "stateMutability": "view",
      "type": "function"
    }
  ],
  "bytecode": "0x6040608081523462000312576200001f62000019620003bb565b62000697565b6200002a6001600455565b6200005d62000050602860405167636f696e6261736560c01b8152600960088201522090565b805460ff19166001179055565b6200008362000050602860405167657468657265756d60c01b8152600960088201522090565b620000a8620000506027604051663134ba31b7b4b760c91b8152600960078201522090565b620000cd620000506027604051660756e69737761760cc1b8152600960078201522090565b620001a8620000db62000357565b6103e88152610bb860208201526000818401526033606082015282516200014d816200013e602082019485919091606061ffff81608084019563ffffffff8082511686528060208301511660208701526040820151166040860152015116910152565b03601f1981018352826200032d565b5190206200015a62000377565b90600080516020620052ad8339815191528252600060208301526000848301524360608301526000608083015260a0820152620001a260016000526003602052604060002090565b62000405565b600080516020620052ad8339815191526000526005602052620001ec7f74200ea895bf928b4f7f757e476376824e228602fd097916a944e1e2ff4408555b60019055565b60016000526006602052620002217f3e5fec24aa4dc4e5aee2e025e51e1392c72a2500577559fae9665c6d52bd6a31620001e6565b60017f52629ba16cb44b809941f19e442f11a9973e93cc91be0d91df4afbe6e7c624ca6001600160ff1b0182620002626200025b62000397565b826200046c565b620002776200027062000397565b836200046c565b6001600052600c602052620002b37fd421a5181c571bba3f01190c922c3b2a896fc1d84e86c9f17ac10e67ebef8b5c5b66038d7ea4c680009055565b6001600052600d602052620002e87ffd54ff1ed53f34a900b24c5ba64f85761163b5d82d98a47b9bd80e45466993c5620002a7565b84519081526020810191909152604090a2620003046002600455565b5161484a908162000a638239f35b600080fd5b634e487b7160e01b600052604160045260246000fd5b601f909101601f19168101906001600160401b038211908210176200035157604052565b62000317565b60405190608082016001600160401b038111838210176200035157604052565b6040519060c082016001600160401b038111838210176200035157604052565b60405190602082016001600160401b03811183821017620003515760405260008252565b60408051919082016001600160401b038111838210176200035157604052602082527f68747470733a2f2f786c6e2e636f6d2f656e746974792f7b69647d2e6a736f6e6020830152565b908051825560208101516001830155604081015160028301556060810151600383015560048201906080810151906003821015620004565760059260a09260ff801983541691161790550151910155565b634e487b7160e01b600052602160045260246000fd5b9060405191600190818452602091602085019182526040850190808252606093606087019466038d7ea4c680008652608088018060405288518551808203620005e357505050908291826000905b62000583575b505050865114600014620005435780600084517fc3d58168c5ae7397731d063d5bbf3d657854427343f4c083240f7aacaa2d0f62620005148851604051918291339583908152602081019190915260400190565b0390a45b855103620005345750620005329350519051903362000a2d565b565b91505062000532923362000910565b8060006040517f4a39dc06d4c0dbc64b70af90fd698a233a518aa5d07e595d983b8c0526c8f7fb3391806200057a888d83620007ec565b0390a462000518565b8951811015620005dd5780849160051b8b01620005d3620005ca620005ba8688850151940151936000526000602052604060002090565b6001600052602052604060002090565b91825462000792565b90550183620004ba565b620004c0565b635b05999160e01b835260848b019190915260a48a0152604490fd5b90600182811c9216801562000631575b60208310146200061b57565b634e487b7160e01b600052602260045260246000fd5b91607f16916200060f565b601f811162000649575050565b60009060026000526020600020906020601f850160051c830194106200068c575b601f0160051c01915b8281106200068057505050565b81815560010162000673565b90925082906200066a565b80519091906001600160401b0381116200035157620006c381620006bd600254620005ff565b6200063c565b602080601f83116001146200070a57508190620006f99394600092620006fe575b50508160011b916000199060031b1c19161790565b600255565b015190503880620006e4565b6002600052601f198316949091907f405787fa12a823e0f2b7631cc41b3ba8828b3321ca811111fa75cd3aa3bb5ace926000905b878210620007795750508360019596106200075f575b505050811b01600255565b015160001960f88460031b161c1916905538808062000754565b806001859682949686015181550195019301906200073e565b91908201809211620007a057565b634e487b7160e01b600052601160045260246000fd5b90815180825260208080930193019160005b828110620007d7575050505090565b835185529381019392810192600101620007c8565b9091620008066200081593604084526040840190620007b6565b916020818403910152620007b6565b90565b908160209103126200031257516001600160e01b031981168103620003125790565b919082519283825260005b84811062000867575050826000602080949584010152601f8019910116010190565b60208183018101518483018201520162000845565b92620008af620008159593620008be9360018060a01b031686526000602087015260a0604087015260a0860190620007b6565b908482036060860152620007b6565b9160808184039101526200083a565b3d156200090b573d906001600160401b038211620003515760405191620008ff601f8201601f1916602001846200032d565b82523d6000602084013e565b606090565b929160013b62000921575b50505050565b60209162000946604051948593849363bc197c8160e01b98898652600486016200087c565b0381600060015af160009181620009c2575b506200098f5762000968620008cd565b805190816200098a57604051632bfa23e760e11b815260016004820152602490fd5b602001fd5b6001600160e01b03191603620009a957388080806200091b565b604051632bfa23e760e11b815260016004820152602490fd5b620009ea91925060203d602011620009f2575b620009e181836200032d565b81019062000818565b903862000958565b503d620009d5565b909260a092620008159594600180861b03168352600060208401526040830152606082015281608082015201906200083a565b929160013b62000a3d5750505050565b60209162000946604051948593849363f23a6e6160e01b9889865260048601620009fa56fe6080604052600436101561001257600080fd5b60003560e01c8062fdd58e146102c157806301ffc9a7146102bc57806303db7616146102265780630c5938b6146102b75780630e89341c146102b25780630ebf19c6146102ad5780631e76fea5146102a85780631ed3d440146102a357806326760ce61461029e5780632a20cc80146102995780632ba4fd9e146102945780632eb2c2d61461028f5780632fae4ffd1461028a578063311cf8eb146102855780634e1273f414610280578063504d23ea1461027b57806357991d30146102765780635a7931c8146102715780635b70ae411461026c5780636702bc7714610267578063680c3ff21461026257806368436f101461025d5780637ea397c8146102585780638193e00714610253578063820eec5f1461024e578063848202fe146102495780638aad0628146102445780638c67e1691461023f5780638d197ec71461023a5780638dbe6c38146102355780639248cd4314610230578063a22cb4651461022b578063a74f77e714610226578063c83fa48e14610221578063cce415981461021c578063d8cb5fd514610217578063d93e68d614610212578063e1657b8a1461020d578063e5b338fd14610208578063e8f4803114610203578063e985e9c5146101fe578063edd2133b146101f95763f242432a146101f457600080fd5b612105565b612045565b611fd5565b611fb9565b611f4b565b611e7f565b611e24565b611c1a565b611ad8565b611912565b6103c6565b611879565b6117ee565b611645565b61161e565b6115f2565b6115a6565b611588565b61143c565b6113ff565b611384565b61135e565b61125c565b6111d8565b61117f565b611117565b6110c1565b611090565b610fd6565b610f65565b610f4d565b610dbf565b610d1c565b610cac565b610b9c565b610b5c565b61096d565b61070e565b6104d0565b610448565b610358565b61030b565b600435906001600160a01b03821682036102dc57565b600080fd5b602435906001600160a01b03821682036102dc57565b35906001600160a01b03821682036102dc57565b346102dc5760403660031901126102dc57602061033d6103296102c6565b6024356000526000835260406000206113e8565b54604051908152f35b6001600160e01b03198116036102dc57565b346102dc5760203660031901126102dc57602060043561037781610346565b63ffffffff60e01b16636cdb3d1360e11b81149081156103b5575b81156103a4575b506040519015158152f35b6301ffc9a760e01b14905038610399565b6303a24d0760e21b81149150610392565b346102dc5760003660031901126102dc57602060405166038d7ea4c680008152f35b6000526003602052604060002090565b6000526008602052604060002090565b6000526005602052604060002090565b600052600c602052604060002090565b600052600e602052604060002090565b6000526000602052604060002090565b346102dc5760203660031901126102dc5760043560005260056020526020604060002054604051908152f35b60005b8381106104875750506000910152565b8181015183820152602001610477565b906020916104b081518092818552858086019101610474565b601f01601f1916010190565b9060206104cd928181520190610497565b90565b346102dc576020806003193601126102dc576040516000916002546104f481610a7f565b8084529060019081811690811561056e575060011461052e575b61052a8461051e81880382610631565b604051918291826104bc565b0390f35b919350600260005283600020916000925b82841061055b575050508161052a9361051e928201019361050e565b805485850187015292850192810161053f565b60ff1916858501525050151560051b820101915061051e8161052a61050e565b634e487b7160e01b600052604160045260246000fd5b608081019081106001600160401b038211176105bf57604052565b61058e565b60c081019081106001600160401b038211176105bf57604052565b606081019081106001600160401b038211176105bf57604052565b61010081019081106001600160401b038211176105bf57604052565b602081019081106001600160401b038211176105bf57604052565b601f909101601f19168101906001600160401b038211908210176105bf57604052565b60405190610661826105c4565b565b60405190610661826105a4565b6001600160401b0381116105bf57601f01601f191660200190565b92919261069782610670565b916106a56040519384610631565b8294818452818301116102dc578281602093846000960137010152565b9080601f830112156102dc578160206104cd9335910161068b565b60406003198201126102dc57600435906001600160401b0382116102dc57610707916004016106c2565b9060243590565b346102dc5761071c366106dd565b600091600183528260205261073f61073733604086206113e8565b5415156121b0565b61074881610f01565b54156107ca5761076261075a836103e8565b5415156121fc565b6107a361076e82610f01565b549161078161077c846103f8565b612289565b8361078b82610f01565b5561079e81610799866103f8565b612317565b6123ec565b7fea3298815689e7c88c8a95c13838806450c4cee965a7c33dda77b335f64565788480a480f35b60405162461bcd60e51b815260206004820152601160248201527013985b59481b9bdd08185cdcda59db9959607a1b6044820152606490fd5b6024359060038210156102dc57565b6044359060038210156102dc57565b359063ffffffff821682036102dc57565b359061ffff821682036102dc57565b60809060431901126102dc576040519061085a826105a4565b8163ffffffff60443581811681036102dc57825260643581811681036102dc57602083015260843590811681036102dc57604082015260a4359061ffff821682036102dc5760600152565b60809060631901126102dc57604051906108be826105a4565b8163ffffffff60643581811681036102dc57825260843581811681036102dc57602083015260a43590811681036102dc57604082015260c4359061ffff821682036102dc5760600152565b60809060231901126102dc5760405190610922826105a4565b8163ffffffff60243581811681036102dc57825260443581811681036102dc57602083015260643590811681036102dc5760408201526084359061ffff821682036102dc5760600152565b346102dc5760c03660031901126102dc576004357f1022d6ed189b00c6d01d0bdfcc78a25b81a33fc04c61bc53abf2de6bbc60f375610a7a6109ad610803565b610a29816109ba36610841565b6109ce6109c6886103e8565b54151561240c565b6109e560016109dc896103e8565b0154151561244f565b610a226040516020810190610a0c816109fe868561248f565b03601f198101835282610631565b5190206005610a1a8a6103e8565b0154146124c7565b3387613425565b610a50610a4b610a456004610a3d886103e8565b015460ff1690565b836134fa565b612506565b60006001610a5d866103e8565b015560006002610a6c866103e8565b015560405191829182612550565b0390a2005b90600182811c92168015610aaf575b6020831014610a9957565b634e487b7160e01b600052602260045260246000fd5b91607f1691610a8e565b90604051918260008254610acc81610a7f565b90818452602094600191600181169081600014610b3a5750600114610afb575b50505061066192500383610631565b600090815285812095935091905b818310610b225750506106619350820101388080610aec565b85548884018501529485019487945091830191610b09565b9250505061066194925060ff191682840152151560051b820101388080610aec565b346102dc5760203660031901126102dc57600435600052600860205261052a610b886040600020610ab9565b604051918291602083526020830190610497565b346102dc57610baa366106dd565b6000916001835282602052610bc561073733604086206113e8565b80518015159081610ca0575b5015610c6557610c2d90610be76109c6846103e8565b610bfa610bf382610f01565b5415612560565b83610c0c610c07856103f8565b610ab9565b8051610c54575b505082610c1f82610f01565b5561079e81610799856103f8565b7f0d74c26d085287bcf3070f20f8d884a204aa6f73949ab189d58abd345b1cac948380a380f35b610c5d90610f01565b558338610c13565b60405162461bcd60e51b8152602060048201526013602482015272092dcecc2d8d2c840dcc2daca40d8cadccee8d606b1b6044820152606490fd5b60209150111538610bd1565b346102dc5760203660031901126102dc5760c060043580600052600c602052604060002054600d60205260406000205460036020526040600020906005600183015415159201549260405194808652600160ff1b17602086015260408501526060840152608083015260a0820152f35b346102dc5760203660031901126102dc5760043560005260066020526020604060002054604051908152f35b6001600160401b0381116105bf5760051b60200190565b9080601f830112156102dc576020908235610d7981610d48565b93610d876040519586610631565b81855260208086019260051b8201019283116102dc57602001905b828210610db0575050505090565b81358152908301908301610da2565b346102dc5760a03660031901126102dc57610dd86102c6565b610de06102e1565b60443591906001600160401b03908184116102dc57610e0460049436908601610d5f565b906064358381116102dc57610e1c9036908701610d5f565b926084359081116102dc57610e3490369087016106c2565b936001600160a01b03808216903382141580610eb5575b610e9657831615610e7e5715610e6757610e659550614175565b005b604051626a0d4560e21b8152600081880152602490fd5b604051632bfa23e760e11b8152600081890152602490fd5b60405163711bec9160e11b815280610eb18533838d016125a4565b0390fd5b5081600052600160205260ff610ecf3360406000206113e8565b541615610e4b565b60206003198201126102dc57600435906001600160401b0382116102dc576104cd916004016106c2565b6020610f1a918160405193828580945193849201610474565b8101600781520301902090565b6020610f40918160405193828580945193849201610474565b8101600981520301902090565b346102dc57602061033d610f6036610ed7565b610f01565b346102dc5760203660031901126102dc57600435600052600c6020526020604060002054604051908152f35b90815180825260208080930193019160005b828110610fb1575050505090565b835185529381019392810192600101610fa3565b9060206104cd928181520190610f91565b346102dc5760403660031901126102dc576004356001600160401b038082116102dc57366023830112156102dc57816004013561101281610d48565b926110206040519485610631565b8184526020916024602086019160051b830101913683116102dc57602401905b82821061107957856024358681116102dc5761052a9161106761106d923690600401610d5f565b9061261f565b60405191829182610fc5565b838091611085846102f7565b815201910190611040565b346102dc5760206110a86110a336610ed7565b6126a4565b604051908152f35b908152602081019190915260400190565b346102dc5760203660031901126102dc576040518061052a600435600160ff1b811790836110b0565b600311156110f457565b634e487b7160e01b600052602160045260246000fd5b9060038210156110f45752565b346102dc5760203660031901126102dc57600435600052600b60205260a0604060002080549060ff60018201541690600281015461116c60ff600460038501549401541693604051958652602086019061110a565b6040840152606083015215156080820152f35b346102dc5760203660031901126102dc57600435600052600d6020526020604060002054604051908152f35b9181601f840112156102dc578235916001600160401b0383116102dc57602083818601950101116102dc57565b346102dc5760e03660031901126102dc576111f16102e1565b6001600160401b03906084358281116102dc576112129036906004016111ab565b60a4929192358481116102dc5761122d9036906004016111ab565b9160c4359586116102dc57611249610e659636906004016111ab565b9590946064359060443590600435612906565b346102dc5760203660031901126102dc5760043561127c6109c6826103e8565b61128a60016109dc836103e8565b6112a26002611298836103e8565b0154431015612b1f565b806112f760016112b1836103e8565b01546112d26112bf82610408565b54848115918215611354575b5050612b62565b60006112e66112e0856103e8565b54610408565b55806112f1846103e8565b55610408565b5560006001611305836103e8565b015560006002611314836103e8565b01557f30b47f773c1d2a65ce0ef667c3b123d5abd927c62b56907569c0daf51cd65150610a7a611343836103e8565b546040519081529081906020820190565b14905084386112cb565b346102dc57602060ff61137861137336610ed7565b610f27565b54166040519015158152f35b346102dc5760403660031901126102dc5761139d6102c6565b60243560ff81168091036102dc5760009160018352826020526113c661073733604086206113e8565b6001600160a01b03168252600a60205260408220805460ff1916909117905580f35b9060018060a01b0316600052602052604060002090565b346102dc5760203660031901126102dc576001600160a01b036114206102c6565b16600052600a602052602060ff60406000205416604051908152f35b346102dc5760e03660031901126102dc576004357fc4e5e67fff3ba4bffbe07d84c897dbf61a0027b703754b45a5c9de6b58bfd793610a7a60243561154a611482610812565b61151e63ffffffff611493366108a5565b61149f6109c68a6103e8565b6114aa861515612bae565b6114c86114b687610408565b548a811591821561157e575050612b62565b6114ef60405160208101906114e1816109fe868561248f565b5190206005610a1a8c6103e8565b611505846114fd81846135cb565b92338c613425565b60016115108a6103e8565b015461155a575b1643612765565b83600161152a896103e8565b01556002611537886103e8565b01556004611544876103e8565b01612c45565b6040519081529081906020820190565b61157961157461156e6004610a3d8d6103e8565b866134fa565b612bef565b611517565b1490508a386112cb565b346102dc5760003660031901126102dc576020600454604051908152f35b346102dc5760403660031901126102dc576004356001600160401b0381116102dc576115e46115db60409236906004016111ab565b60243591612ed8565b825191825215156020820152f35b346102dc5760203660031901126102dc57600435600052600e6020526020604060002054604051908152f35b346102dc5760203660031901126102dc576040516004356001600160ff1b03168152602090f35b346102dc5760a03660031901126102dc5761052a60043561166536610909565b9060009160018352826020526000805160206147d58339815191526117c2604093611695610737338789206113e8565b6116a0811515612bae565b6116b36116ac82610408565b5415612b62565b6117196004549687956116cd6116c888612e0c565b600455565b87516116e1816109fe60208201948561248f565b5190206116ec610654565b918483528060208401528089840152436060840152608083015260a0820152611714866103e8565b613248565b83806000805160206147f583398151915281600160ff1b81179590946117636001600160a01b03851661175461174d613292565b8983613c59565b8861175d613292565b91613c59565b61177b61176f85610418565b66038d7ea4c680009055565b61179261176f85600052600d602052604060002090565b8361179c82610408565b55836117b2816000526006602052604060002090565b5589519081529081906020820190565b0390a36117d38551928392836110b0565b0390a2519081529081906020820190565b801515036102dc57565b346102dc5760403660031901126102dc576004356001600160401b0381116102dc57611821610e659136906004016106c2565b61186860243591611831836117e4565b60016000908152602052611373610737337fada5013122d395ba3c54772283fb069b10426056ef8ca54750cb9bb552a59e7d6113e8565b9060ff801983541691151516179055565b346102dc5760403660031901126102dc576118926102c6565b60243561189e816117e4565b6001600160a01b0382169182156118fa57816118686118ca9233600052600160205260406000206113e8565b60405190151581527f17307eab39ab6107e8899845ad3d59bd9653f200f220920489ca2b5937696c3160203392a3005b60405162ced3e160e81b815260006004820152602490fd5b346102dc5760c03660031901126102dc5760043561192e6102e1565b6001600160401b03919060643590604435906084358581116102dc576119589036906004016111ab565b909560a4359081116102dc576119729036906004016111ab565b9086600052600e6020526040600020549260018401809411611a2f57610e6598611a0e938993611a089360405160208101906e22a72a24aa2cafaa2920a729a322a960891b825246602f8201523060601b604f82015287606382015260018060601b03198b60601b1660838201528b60978201528c60b78201528960d782015260d781526119ff816105fa565b5190209361337f565b14612772565b611a1785610428565b55611a20613292565b936001600160a01b0316613554565b61225d565b9181601f840112156102dc578235916001600160401b0383116102dc576020808501948460051b0101116102dc57565b6040810190604081528251809252606081019160208094019060005b818110611ac4575050508281830391015281808451928381520193019160005b828110611aae575050505090565b8351151585529381019392810192600101611aa0565b825185529385019391850191600101611a80565b346102dc576040806003193601126102dc576001600160401b03600480358281116102dc57611b0b903690600401611a34565b9390926024359081116102dc57611b26903690600401611a34565b90611b328287146132a5565b611b3b866125be565b93611b45876125be565b9660005b818110611b5e5785518061052a8b8a83611a64565b80611b6b8792848b6132e9565b611b7983898996949661332a565b3593611b9783519586938493631155a0c560e31b85528a8501613356565b0381305afa8015611c155760019282918c6000928392611bd9575b50611bc89293611bc191612606565b9015159052565b611bd2828a612606565b5201611b49565b611bc89350611bc1919250611c03908c8d3d10611c0e575b611bfb8183610631565b81019061333a565b909390929150611bb2565b503d611bf1565b613373565b346102dc576020806003193601126102dc5760049081356001600160401b0381116102dc57611c4d903690600401611a34565b91611c57836125be565b92611c60610663565b6103e8815290610bb86020830152604093611c7e8584016127109052565b606092611c8e6060820160339052565b8551611ca2816109fe60208201948561248f565b5190209260009160005b848110611cc05787518061052a8b82610fc5565b80611d256116c86000805160206147d583398151915288868f8e611d598f8f8e8e81611d2c60019f611e1099611d1b6116ac611d158f8f9081611d10611d088984819661332a565b351515612bae565b61332a565b35610408565b549e8f9e8f612e0c565b8b8b61332a565b3594611d36610654565b95865285015281868501524390840152608083015260a0820152611714886103e8565b85806000805160206147f5833981519152611e03611df38c84600160ff1b81179a9099611da56001600160a01b038816611d9c8d611d95613292565b9083613c59565b8d61175d613292565b611db161176f88610418565b611dc861176f88600052600d602052604060002090565b86611dd7611d1585858561332a565b5586611ded816000526006602052604060002090565b5561332a565b8551903581529081906020820190565b0390a351928392836110b0565b0390a2611e1d828c612606565b5201611cac565b346102dc5760603660031901126102dc576001600160401b036004358181116102dc57611e559036906004016111ab565b91906024359182116102dc57602092611e756110a89336906004016111ab565b916044359361337f565b346102dc5760203660031901126102dc5761052a600435611ea1811515612bae565b611ead6116ac82610408565b60045490611ebd6116c883612e0c565b816000805160206147d58339815191526117c2611ed8610663565b6103e8815293610bb86020860152611719604095611ef98782016127109052565b603360608201528651611f14816109fe60208201948561248f565b519020611f1f610654565b90838252600060208301526000888301524360608301526000608083015260a0820152611714866103e8565b346102dc5760203660031901126102dc57600435600052600360205260c06040600020805490611fb26001820154916002810154600382015490600560ff60048501541693015494604051968752602087015260408601526060850152608084019061110a565b60a0820152f35b346102dc5760003660031901126102dc57602060405160018152f35b346102dc5760403660031901126102dc57602060ff611378611ff56102c6565b611ffd6102e1565b6001600160a01b03909116600090815260018552604090206113e8565b919260a0936104cd969592151584526020840152604083015260608201528160808201520190610497565b346102dc5760203660031901126102dc5760043560609080600052600360205261052a6040600020926040519261207b846105c4565b8454845260018501549360208101948552600286015460408201526005600387015496606083019788526120b960ff6004830154166080850161323c565b015460a0820152519351945190801515806120fa575b6120e4575b506040519484869515158661201a565b6120f3919250610c07906103f8565b90386120d4565b5060045481106120cf565b346102dc5760a03660031901126102dc5761211e6102c6565b6121266102e1565b6084356001600160401b0381116102dc576121459036906004016106c2565b906001600160a01b03831633811415908161218d575b5061217157610e65926064359160443591613554565b60405163711bec9160e11b815280610eb18533600484016125a4565b9050600052600160205260ff6121a73360406000206113e8565b5416153861215b565b156121b757565b60405162461bcd60e51b815260206004820152601d60248201527f4f6e6c7920666f756e646174696f6e20746f6b656e20686f6c646572730000006044820152606490fd5b1561220357565b60405162461bcd60e51b815260206004820152601b60248201527a15185c99d95d08195b9d1a5d1e48191bd95cdb89dd08195e1a5cdd602a1b6044820152606490fd5b818110612251575050565b60008155600101612246565b634e487b7160e01b600052601160045260246000fd5b908160061b9180830460401490151715611a2f57565b6122938154610a7f565b908161229d575050565b81601f600093116001146122af575055565b9080839182526122ce601f60208420940160051c840160018501612246565b5555565b9190601f81116122e157505050565b610661926000526020600020906020601f840160051c8301931061230d575b601f0160051c0190612246565b9091508190612300565b81519192916001600160401b0381116105bf5761233e816123388454610a7f565b846122d2565b602080601f831160011461238157508190612372939495600092612376575b50508160011b916000199060031b1c19161790565b9055565b01519050388061235d565b90601f1983169561239785600052602060002090565b926000905b8882106123d4575050836001959697106123bb575b505050811b019055565b015160001960f88460031b161c191690553880806123b1565b8060018596829496860151815501950193019061239c565b61240490602060405192828480945193849201610474565b810103902090565b1561241357565b60405162461bcd60e51b8152602060048201526014602482015273115b9d1a5d1e48191bd95cdb89dd08195e1a5cdd60621b6044820152606490fd5b1561245657565b60405162461bcd60e51b8152602060048201526011602482015270139bc81c1c9bdc1bdcd95908189bd85c99607a1b6044820152606490fd5b919091606061ffff81608084019563ffffffff8082511686528060208301511660208701526040820151166040860152015116910152565b156124ce57565b60405162461bcd60e51b815260206004820152601060248201526f496e76616c69642061727469636c657360801b6044820152606490fd5b1561250d57565b60405162461bcd60e51b815260206004820152601b60248201527a10d85b9b9bdd0818d85b98d95b081d1a1a5cc81c1c9bdc1bdcd85b602a1b6044820152606490fd5b602081019291610661919061110a565b1561256757565b60405162461bcd60e51b815260206004820152601560248201527413985b5948185b1c9958591e48185cdcda59db9959605a1b6044820152606490fd5b6001600160a01b0391821681529116602082015260400190565b906125c882610d48565b6125d56040519182610631565b82815280926125e6601f1991610d48565b0190602036910137565b634e487b7160e01b600052603260045260246000fd5b805182101561261a5760209160051b010190565b6125f0565b9190918051835180820361268857505061263981516125be565b9060009060005b8151811015612680578061266e60019260051b85602080808489010151938c010151825252604086206113e8565b546126798287612606565b5201612640565b509193505050565b610eb1604051928392635b05999160e01b8452600484016110b0565b6126ad90610f01565b54806104cd5750600090565b156126c057565b60405162461bcd60e51b815260206004820152601a602482015279496e76616c6964206465706f7369746f7279206164647265737360301b6044820152606490fd5b1561270957565b60405162461bcd60e51b81526020600482015260186024820152774d7573742072656c6561736520736f6d6520746f6b656e7360401b6044820152606490fd5b9060018201809211611a2f57565b9060078201809211611a2f57565b91908201809211611a2f57565b1561277957565b60405162461bcd60e51b8152602060048201526018602482015277496e76616c696420656e74697479207369676e617475726560401b6044820152606490fd5b156127c057565b60405162461bcd60e51b815260206004820152601b60248201527a496e73756666696369656e7420636f6e74726f6c20746f6b656e7360281b6044820152606490fd5b908060209392818452848401376000828201840152601f01601f1916010190565b9160806104cd93604081526015604082015274434f4e54524f4c5f53484152455f52454c4541534560581b60608201528160208201520191612803565b1561286857565b60405162461bcd60e51b815260206004820152601c60248201527b496e73756666696369656e74206469766964656e6420746f6b656e7360201b6044820152606490fd5b9160806104cd936040815260166040820152754449564944454e445f53484152455f52454c4541534560501b60608201528160208201520191612803565b6104cd9492606092825260208201528160408201520191612803565b97968197896129289b969497959860018060a01b03938486169d8e15156126b9565b8915988915809a612b16575b61293d90612702565b612946846103e8565b5415156129529061240c565b61295b84610428565b5461296590612749565b948b8d612973368d8d61068b565b80516020918201206040517552454c454153455f434f4e54524f4c5f53484152455360501b9281019283524660368201526001600160601b031930606090811b82166056840152606a83018c90529d909d1b909c16608a8d0152609e8c019390935260be8b019190915260de8a019190915260fe808a018890528952601f19986129ff61011e82610631565b51902092612a0c9461337f565b14612a1690612772565b612a1f8a610428565b558816908689600160ff1b811790997ff49b3b7be24475e2415d445c296967f90953e7daabd954e5be9f28f80b4689239a612a7198612ac9575b5082612a76575b5050505050604051948594856128ea565b0390a3565b84612a9884612a90612abf98612a8b87610438565b6113e8565b541015612861565b612aba6040519586612aae8b8b602084016128ac565b03908101875286610631565b613554565b3880868180612a60565b80612ae68b612ade89612a8b612b1096610438565b5410156127b9565b8a60405191612b0983612afd8d8d60208401612824565b03898101855284610631565b8489613554565b38612a59565b508b1515612934565b15612b2657565b60405162461bcd60e51b815260206004820152601460248201527311195b185e481c195c9a5bd9081b9bdd081b595d60621b6044820152606490fd5b15612b6957565b60405162461bcd60e51b815260206004820152601d60248201527f426f617264206861736820616c726561647920726567697374657265640000006044820152606490fd5b15612bb557565b60405162461bcd60e51b8152602060048201526012602482015271092dcecc2d8d2c840c4dec2e4c840d0c2e6d60731b6044820152606490fd5b15612bf657565b60405162461bcd60e51b815260206004820152602160248201527f43616e6e6f74206f76657272696465206578697374696e672070726f706f73616044820152601b60fa1b6064820152608490fd5b9060038110156110f45760ff80198354169116179055565b9080601f830112156102dc576020908235612c7781610d48565b93612c856040519586610631565b81855260208086019260051b8201019283116102dc57602001905b828210612cae575050505090565b81358152908301908301612ca0565b60209182828203126102dc576001600160401b03918035908382116102dc5701926060926060858403126102dc57604092835195612cfa876105df565b80358381116102dc5782612d0f918301612c5d565b8752838101358381116102dc5782612d289183016106c2565b8488015284810135908382116102dc57019181601f840112156102dc57823590612d5182610d48565b96612d5e87519889610631565b828852858089019360051b860101948486116102dc57868101935b868510612d8e57505050505050505082015290565b84358481116102dc5782019060809081601f19848a0301126102dc578a51612db5816105a4565b8a84013581528b8401358781116102dc57898c612dd492870101610d5f565b8b82015285840135928784116102dc57848d612df78c8f80999881990101610d5f565b90840152013586820152815201940193612d79565b6000198114611a2f5760010190565b15612e2257565b60405162461bcd60e51b815260206004820152601a602482015279456e7469747920696e646578206f7574206f6620626f756e647360301b6044820152606490fd5b600019810191908211611a2f57565b91908203918211611a2f57565b15612e8757565b60405162461bcd60e51b8152602060048201526024808201527f5265666572656e63656420636c61696d20696e646578206f7574206f6620626f604482015263756e647360e01b6064820152608490fd5b612ee791939293810190612cbd565b90602091612ef860208201516136d2565b93845192831561322e57612f0e84845151612765565b94604095612f23604086019182515190612765565b90612f2d876125be565b9660009660005b8b51811015612fb8578b6041612f4a8383612606565b515114612f5b575b50600101612f34565b612f6882612f6f92612606565b518961385d565b8a6001600160a01b038216612f87575b50508b612f52565b99612fab612fb092612f9c856001969e612606565b6001600160a01b039091169052565b612e0c565b98908a612f7f565b5093989297969195509398501561321f576000969396935b875180518610156131ea5785612fe591612606565b51835151958282019260005b84518051821015613086578161300691612606565b516130128c8210612e1b565b8981101580613074575b61302a575b50600101612ff1565b6130546130476130418c60018060a01b0394612e73565b8d612606565b516001600160a01b031690565b16156130605738613021565b505050505050505050505050600090600090565b5061307f898b612765565b811061301c565b5050979a9091989299959496939a6130b06130ac6130a58c848c613aa3565b8c51613c37565b1590565b6131d6576000978899895b8d51805182101561318b578f906130d48f918490612606565b516130e08a8210612e1b565b8a8110156130f5575050506001905b016130bb565b613102939e938c8c612765565b8110156131455750908d91019b818d519061311c91612606565b5161312691612765565b9b519061313291612606565b5161313c91612765565b9a6001906130ef565b8e6001949f9e9293613185948f8f908f6131779261316961316e9261317e99612e73565b612e73565b90515111612e80565b0151612606565b5190612765565b9a6130ef565b50509b50959697919b945097919298606001518092106131c457106131b4576001019396612fd0565b5050505050505050600090600090565b50505050505050505050600090600090565b509950505050505050505050600090600090565b50505050505050505180519081613205575050600090600090565b61321161321792612e64565b90612606565b515190600190565b50505050505050600090600090565b945050505050600090600090565b60038210156110f45752565b9080518255602081015160018301556040810151600283015560608101516003830155608081015160038110156110f45760059161328b60a09260048601612c45565b0151910155565b6040519061329f82610616565b60008252565b156132ac57565b60405162461bcd60e51b8152602060048201526015602482015274082e4e4c2f240d8cadccee8d040dad2e6dac2e8c6d605b1b6044820152606490fd5b919081101561261a5760051b81013590601e19813603018212156102dc5701803591906001600160401b0383116102dc5760200182360381136102dc579190565b919081101561261a5760051b0190565b91908260409103126102dc57602082519201516104cd816117e4565b93929160209161336e91604087526040870191612803565b930152565b6040513d6000823e3d90fd5b92919061338d36828661068b565b602081519101209360009585875260056020526040872054806133c95750916133bb939161ffff9593613fee565b166133c4575090565b905090565b9550916133db939161ffff9593613fee565b166133e4575090565b81526006602052604090205490565b606090602081526017602082015276109bd85c99081c1c9bdc1bdcd95c88191a5cd8589b1959604a1b60408201520190565b92909160038210156110f4576001821461346d5750806134466002926110ea565b146134645760405162461bcd60e51b815280610eb1600482016133f3565b61066191614116565b9291613487915082600052600060205260406000206113e8565b549081156134c157606061349d61ffff92610418565b549301511691828102928184041490151715611a2f576064610661920411156127b9565b60405162461bcd60e51b81526020600482015260116024820152704e6f20636f6e74726f6c20746f6b656e7360781b6044820152606490fd5b60038110156110f4576001811461352f57613514816110ea565b1561351f5750600090565b8061352b6002926110ea565b1490565b508061353c6001926110ea565b141590565b6001600160a01b03909116815260200190565b939291906001600160a01b03808216156135b25785161561359a576106619460405192600184526020840152604083019360018552606084015260808301604052614175565b604051626a0d4560e21b815260006004820152602490fd5b604051632bfa23e760e11b815260006004820152602490fd5b9060038110156110f4576001811461361457806135e96002926110ea565b146136075760405162461bcd60e51b815280610eb1600482016133f3565b6020015163ffffffff1690565b505163ffffffff1690565b60405161362b81610616565b6000815290565b9061363c82610d48565b6136496040519182610631565b828152809261365a601f1991610d48565b019060005b82811061366b57505050565b80606060208093850101520161365f565b60405190613689826105df565b6040808352366020840137565b604051906136a3826105a4565b604182526060366020840137565b80516040101561261a5760600190565b90815181101561261a570160200190565b906136dc8261432b565b8015613840576136eb81612273565b906136f581613632565b9360005b8281106137065750505050565b61370e61367c565b60005b6040811061380b575061376661376d61372d8460031c88612765565b600192839161375a61375461374660078a16938b6136c1565b516001600160f81b03191690565b60f81c90565b9060ff809216901c1690565b1660ff1690565b61380357601b915b61377d613696565b613787858b612606565b52613792848a612606565b5060005b604081106137d357505050906001916137cc6137b2838a612606565b5160f89290921b6001600160f81b03191660001a916136b1565b53016136f9565b808a6137fc826137f1896137eb6137468a988a6136c1565b94612606565b519260001a926136c1565b5301613796565b601c91613775565b8061382c61374661382660019461382188612273565b612765565b876136c1565b60001a61383982856136c1565b5301613711565b5090506104cd61361f565b60ff601b9116019060ff8211611a2f57565b9060418151036139205760009160208201519260606040840151930151901a90601b8210613910575b60ff8216601b8114159081613904575b506138fb576fa2a8918ca85bafe22016d0b997e4df60600160ff1b0383116138fb576138e7600093602095604051948594859094939260ff6060936080840197845216602083015260408201520152565b838052039060015afa15611c155760005190565b50505050600090565b601c9150141538613896565b9061391a9061384b565b90613886565b5050600090565b1561392e57565b60405162461bcd60e51b815260206004820152602560248201527f436c61696d20696e64657865732f77656967687473206c656e677468206d69736044820152640dac2e8c6d60db1b6064820152608490fd5b1561398857565b60405162461bcd60e51b8152602060048201526019602482015278436c61696d20696e646578206f7574206f6620626f756e647360381b6044820152606490fd5b90815180825260208080930193019160005b8281106139e9575050505090565b835161ffff16855293810193928101926001016139db565b6020808252825161ffff16818301528083015160c06040840152805160e084018190526101008401959493929182019160005b828110613a8f575050505060c060a0613a6284959660406104cd960151601f198683030160608701526139c9565b606086015163ffffffff16608085015294608081015163ffffffff1684830152015163ffffffff16910152565b835188529681019692810192600101613a34565b916020810191825151604094613ac0604085019283515114613927565b8451519281515190805191613ad4866125be565b98613ade876125be565b9860005b8a8c8a8310613b535750505050505050505050506060613b03910151614422565b91613b19613b0f610654565b61ffff9094168452565b602083015260408201526000606082015260006080820152600060a0820152604051613b4d816109fe602082019485613a01565b51902090565b8291613bb683613bb0613baa828f8f978f988f9b8f9a8f9d8f9c60019f613b7f613bbf9f869051612606565b519382851015613bc55750505050613b9b90613ba29351612606565b5192612606565b525b51612606565b51614401565b92612606565b9061ffff169052565b01613ae2565b613bd3818496959894612765565b841015613c0957505050613bf7613047613c0395613211613bb095613bf795612e73565b6001600160a01b031690565b52613ba4565b613c039650613169613c2f95613c20939495612e73565b9101613ba48151518310613981565b515192612606565b90816000526003602052604060002054918215613c5357501490565b14919050565b9091906001600160a01b03811680156135b25760405190600191828152602092602082019687526040820192818452606094606084019566038d7ea4c680008752608085018060405285518751808203613d8257505050908391826000905b613d43575b505050835114600014613d1957600088516000805160206147b5833981519152613cf088516040519182913395836110b0565b0390a45b815103613d0b575050610661935190519133614728565b91509161066194503361453a565b6000604051600080516020614795833981519152339180613d3b898983614453565b0390a4613cf4565b8651811015613d7d5780849160051b8801613d74613d6c8d612a8b878986015195015194610438565b918254612765565b90550183613cb8565b613cbd565b635b05999160e01b8352607f19918891613d9f91608484016110b0565b030190fd5b9080601f830112156102dc576020908235613dbe81610d48565b93613dcc6040519586610631565b81855260208086019260051b8201019283116102dc57602001905b828210613df5575050505090565b838091613e0184610832565b815201910190613de7565b6020818303126102dc576001600160401b03908035908282116102dc57019160c0838203126102dc57613e3d610654565b92613e4781610832565b845260208101358381116102dc5782613e61918301612c5d565b602085015260408101359283116102dc57613e8360a092613eb0948301613da4565b6040850152613e9460608201610821565b6060850152613ea560808201610821565b608085015201610821565b60a082015290565b9060209081838203126102dc576001600160401b03928035908482116102dc570181601f820112156102dc578035613eef81610d48565b94613efd6040519687610631565b818652848087019260051b840101938085116102dc57858401925b858410613f29575050505050505090565b83358381116102dc578791613f43848480948a01016106c2565b815201930192613f18565b15613f5557565b60405162461bcd60e51b815260206004820152601c60248201527b084dec2e4c840c2e4e4c2f2e640d8cadccee8d040dad2e6dac2e8c6d60231b6044820152606490fd5b91909161ffff80809416911601918211611a2f57565b90606461ffff80931602918216918203611a2f57565b9061ffff809116918215613fd857160490565b634e487b7160e01b600052601260045260246000fd5b939492906140029061400b93810190613e0c565b94810190613eb8565b926020810192835151614025604084019182515114613f4e565b6000928394845b8751805182108061410c575b156140d9578161404791612606565b5161405e614056838751612606565b5161ffff1690565b906001600160a01b038b81831115614083575b5050505061407e90612e0c565b61402c565b613bf76140978661409e939d96979d612606565b518a61385d565b9116146140bd575b61407e916140b391613f99565b969038808b614071565b95816140cf61407e936140b393613f99565b97915091506140a6565b50509650929450505061ffff90818316156138fb575161ffff1690831610613920576141076104cd92613faf565b613fc5565b5089518210614038565b9061413391600160ff1b17600052600060205260406000206113e8565b541561413b57565b60405162461bcd60e51b81526020600482015260126024820152714e6f206469766964656e6420746f6b656e7360701b6044820152606490fd5b94919091815184519081810361268857505060005b825181101561425757600581901b83810160209081015191870101516001600160a01b03929186908a85166141e7575b60019482166141cd575b5050500161418a565b6141dd91612a8b613d6c92610438565b90553885816141c4565b91929390506141f98a612a8b84610438565b5483811061422057918791846001969594036142188d612a8b85610438565b5594506141ba565b6040516303dee4c560e01b81526001600160a01b038c16600482015260248101919091526044810184905260648101839052608490fd5b5094919392909360018551146000146142f2576020850151602083015160018060a01b03916000805160206147b5833981519152604051806142a1868816968a16953395836110b0565b0390a45b6001600160a01b0381166142bb575b5050505050565b84516001036142e1576020806142d7960151920151923361475d565b38808080806142b4565b6142ed94919233614629565b6142d7565b6040516001600160a01b03828116919085169033906000805160206147958339815191529080614323888c83614453565b0390a46142a5565b908151156143fb5760015b613e808111156143a4575b60405162461bcd60e51b815260206004820152603560248201527f496e76616c6964207061636b6564207369676e6174757265206c656e677468206044820152740b4818d85b9b9bdd0819195d1958dd0818dbdd5b9d605a1b6064820152608490fd5b8060061b81810460401482151715611a2f576143d2906143cc6143c684612757565b60031c90565b90612765565b8351908082146143f457116143ef576143ea90612e0c565b614336565b614341565b5090925050565b60009150565b61ffff90818111614410571690565b6040516305db0b2560e51b8152600490fd5b80158015614448575b6144365761ffff1690565b604051630479f89760e11b8152600490fd5b5061ffff811161442b565b909161446a6104cd93604084526040840190610f91565b916020818403910152610f91565b908160209103126102dc57516104cd81610346565b926144bc6104cd95936144ca9360018060a01b031686526000602087015260a0604087015260a0860190610f91565b908482036060860152610f91565b916080818403910152610497565b93906104cd95936144bc916144ca9460018060a01b03809216885216602087015260a0604087015260a0860190610f91565b3d15614535573d9061451b82610670565b916145296040519384610631565b82523d6000602084013e565b606090565b9293919093843b61454c575050505050565b60209161456f604051948593849363bc197c8160e01b988986526004860161448d565b038160006001600160a01b0388165af1600091816145f8575b506145c1578261459661450a565b80519190826145ba57604051632bfa23e760e11b815280610eb18460048301613541565b6020915001fd5b6001600160e01b031916036145db575038808080806142b4565b604051632bfa23e760e11b8152908190610eb19060048301613541565b61461b91925060203d602011614622575b6146138183610631565b810190614478565b9038614588565b503d614609565b939290949194853b61463e575b505050505050565b614661602093604051958694859463bc197c8160e01b998a8752600487016144d8565b038160006001600160a01b0388165af1600091816146a3575b50614688578261459661450a565b6001600160e01b031916036145db5750388080808080614636565b6146bd91925060203d602011614622576146138183610631565b903861467a565b909260a0926104cd9594600180861b0316835260006020840152604083015260608201528160808201520190610497565b91926104cd95949160a094600180871b038092168552166020840152604083015260608201528160808201520190610497565b9293919093843b61473a575050505050565b60209161456f604051948593849363f23a6e6160e01b98898652600486016146c4565b939290949194853b61477157505050505050565b614661602093604051958694859463f23a6e6160e01b998a8752600487016146f556fe4a39dc06d4c0dbc64b70af90fd698a233a518aa5d07e595d983b8c0526c8f7fbc3d58168c5ae7397731d063d5bbf3d657854427343f4c083240f7aacaa2d0f6252629ba16cb44b809941f19e442f11a9973e93cc91be0d91df4afbe6e7c624cac9234525033c1ac098f69b4dc192ce416b13f69ec0b6de127022496be73337fda2646970667358221220ab2a2a23110e2c7eac42ab078d1445b3fe2db99f61ac3cbc1430cc453f0b5b0164736f6c63430008180033a1237dddbd29f99fde152257ccb2f783e434670afa247b2a52d81a326d4cf0ad",
  "linkReferences": {},
  "deployedLinkReferences": {}
}