{
  "_format": "hh-sol-artifact-1",
  "contractName": "EntityProvider",
  "sourceName": "contracts/EntityProvider.sol",
  "abi": [
    {
      "inputs": [],
      "stateMutability": "nonpayable",
      "type": "constructor"
    },
    {
      "inputs": [
        {
          "internalType": "address",
          "name": "sender",
          "type": "address"
        },
        {
          "internalType": "uint256",
          "name": "balance",
          "type": "uint256"
        },
        {
          "internalType": "uint256",
          "name": "needed",
          "type": "uint256"
        },
        {
          "internalType": "uint256",
          "name": "tokenId",
          "type": "uint256"
        }
      ],
      "name": "ERC1155InsufficientBalance",
      "type": "error"
    },
    {
      "inputs": [
        {
          "internalType": "address",
          "name": "approver",
          "type": "address"
        }
      ],
      "name": "ERC1155InvalidApprover",
      "type": "error"
    },
    {
      "inputs": [
        {
          "internalType": "uint256",
          "name": "idsLength",
          "type": "uint256"
        },
        {
          "internalType": "uint256",
          "name": "valuesLength",
          "type": "uint256"
        }
      ],
      "name": "ERC1155InvalidArrayLength",
      "type": "error"
    },
    {
      "inputs": [
        {
          "internalType": "address",
          "name": "operator",
          "type": "address"
        }
      ],
      "name": "ERC1155InvalidOperator",
      "type": "error"
    },
    {
      "inputs": [
        {
          "internalType": "address",
          "name": "receiver",
          "type": "address"
        }
      ],
      "name": "ERC1155InvalidReceiver",
      "type": "error"
    },
    {
      "inputs": [
        {
          "internalType": "address",
          "name": "sender",
          "type": "address"
        }
      ],
      "name": "ERC1155InvalidSender",
      "type": "error"
    },
    {
      "inputs": [
        {
          "internalType": "address",
          "name": "operator",
          "type": "address"
        },
        {
          "internalType": "address",
          "name": "owner",
          "type": "address"
        }
      ],
      "name": "ERC1155MissingApprovalForAll",
      "type": "error"
    },
    {
      "anonymous": false,
      "inputs": [
        {
          "indexed": true,
          "internalType": "address",
          "name": "account",
          "type": "address"
        },
        {
          "indexed": true,
          "internalType": "address",
          "name": "operator",
          "type": "address"
        },
        {
          "indexed": false,
          "internalType": "bool",
          "name": "approved",
          "type": "bool"
        }
      ],
      "name": "ApprovalForAll",
      "type": "event"
    },
    {
      "anonymous": false,
      "inputs": [
        {
          "indexed": true,
          "internalType": "bytes32",
          "name": "entityId",
          "type": "bytes32"
        },
        {
          "indexed": false,
          "internalType": "bytes32",
          "name": "newBoardHash",
          "type": "bytes32"
        }
      ],
      "name": "BoardActivated",
      "type": "event"
    },
    {
      "anonymous": false,
      "inputs": [
        {
          "indexed": true,
          "internalType": "bytes32",
          "name": "entityId",
          "type": "bytes32"
        },
        {
          "indexed": false,
          "internalType": "bytes32",
          "name": "proposedBoardHash",
          "type": "bytes32"
        }
      ],
      "name": "BoardProposed",
      "type": "event"
    },
    {
      "anonymous": false,
      "inputs": [
        {
          "indexed": true,
          "internalType": "bytes32",
          "name": "entityId",
          "type": "bytes32"
        },
        {
          "indexed": true,
          "internalType": "address",
          "name": "depository",
          "type": "address"
        },
        {
          "indexed": false,
          "internalType": "uint256",
          "name": "controlAmount",
          "type": "uint256"
        },
        {
          "indexed": false,
          "internalType": "uint256",
          "name": "dividendAmount",
          "type": "uint256"
        },
        {
          "indexed": false,
          "internalType": "string",
          "name": "purpose",
          "type": "string"
        }
      ],
      "name": "ControlSharesReleased",
      "type": "event"
    },
    {
      "anonymous": false,
      "inputs": [
        {
          "indexed": true,
          "internalType": "bytes32",
          "name": "entityId",
          "type": "bytes32"
        },
        {
          "indexed": true,
          "internalType": "uint256",
          "name": "entityNumber",
          "type": "uint256"
        },
        {
          "indexed": false,
          "internalType": "bytes32",
          "name": "boardHash",
          "type": "bytes32"
        }
      ],
      "name": "EntityRegistered",
      "type": "event"
    },
    {
      "anonymous": false,
      "inputs": [
        {
          "indexed": true,
          "internalType": "bytes32",
          "name": "entityId",
          "type": "bytes32"
        },
        {
          "indexed": false,
          "internalType": "uint256",
          "name": "controlTokenId",
          "type": "uint256"
        },
        {
          "indexed": false,
          "internalType": "uint256",
          "name": "dividendTokenId",
          "type": "uint256"
        }
      ],
      "name": "GovernanceEnabled",
      "type": "event"
    },
    {
      "anonymous": false,
      "inputs": [
        {
          "indexed": true,
          "internalType": "string",
          "name": "name",
          "type": "string"
        },
        {
          "indexed": true,
          "internalType": "uint256",
          "name": "entityNumber",
          "type": "uint256"
        }
      ],
      "name": "NameAssigned",
      "type": "event"
    },
    {
      "anonymous": false,
      "inputs": [
        {
          "indexed": true,
          "internalType": "string",
          "name": "name",
          "type": "string"
        },
        {
          "indexed": true,
          "internalType": "uint256",
          "name": "fromNumber",
          "type": "uint256"
        },
        {
          "indexed": true,
          "internalType": "uint256",
          "name": "toNumber",
          "type": "uint256"
        }
      ],
      "name": "NameTransferred",
      "type": "event"
    },
    {
      "anonymous": false,
      "inputs": [
        {
          "indexed": true,
          "internalType": "bytes32",
          "name": "entityId",
          "type": "bytes32"
        },
        {
          "indexed": false,
          "internalType": "enum EntityProvider.ProposerType",
          "name": "cancelledBy",
          "type": "uint8"
        }
      ],
      "name": "ProposalCancelled",
      "type": "event"
    },
    {
      "anonymous": false,
      "inputs": [
        {
          "indexed": true,
          "internalType": "address",
          "name": "operator",
          "type": "address"
        },
        {
          "indexed": true,
          "internalType": "address",
          "name": "from",
          "type": "address"
        },
        {
          "indexed": true,
          "internalType": "address",
          "name": "to",
          "type": "address"
        },
        {
          "indexed": false,
          "internalType": "uint256[]",
          "name": "ids",
          "type": "uint256[]"
        },
        {
          "indexed": false,
          "internalType": "uint256[]",
          "name": "values",
          "type": "uint256[]"
        }
      ],
      "name": "TransferBatch",
      "type": "event"
    },
    {
      "anonymous": false,
      "inputs": [
        {
          "indexed": true,
          "internalType": "address",
          "name": "operator",
          "type": "address"
        },
        {
          "indexed": true,
          "internalType": "address",
          "name": "from",
          "type": "address"
        },
        {
          "indexed": true,
          "internalType": "address",
          "name": "to",
          "type": "address"
        },
        {
          "indexed": false,
          "internalType": "uint256",
          "name": "id",
          "type": "uint256"
        },
        {
          "indexed": false,
          "internalType": "uint256",
          "name": "value",
          "type": "uint256"
        }
      ],
      "name": "TransferSingle",
      "type": "event"
    },
    {
      "anonymous": false,
      "inputs": [
        {
          "indexed": false,
          "internalType": "string",
          "name": "value",
          "type": "string"
        },
        {
          "indexed": true,
          "internalType": "uint256",
          "name": "id",
          "type": "uint256"
        }
      ],
      "name": "URI",
      "type": "event"
    },
    {
      "inputs": [],
      "name": "FOUNDATION_ENTITY",
      "outputs": [
        {
          "internalType": "uint256",
          "name": "",
          "type": "uint256"
        }
      ],
      "stateMutability": "view",
      "type": "function"
    },
    {
      "inputs": [],
      "name": "TOTAL_CONTROL_SUPPLY",
      "outputs": [
        {
          "internalType": "uint256",
          "name": "",
          "type": "uint256"
        }
      ],
      "stateMutability": "view",
      "type": "function"
    },
    {
      "inputs": [],
      "name": "TOTAL_DIVIDEND_SUPPLY",
      "outputs": [
        {
          "internalType": "uint256",
          "name": "",
          "type": "uint256"
        }
      ],
      "stateMutability": "view",
      "type": "function"
    },
    {
      "inputs": [
        {
          "internalType": "bytes32",
          "name": "entityId",
          "type": "bytes32"
        }
      ],
      "name": "activateBoard",
      "outputs": [],
      "stateMutability": "nonpayable",
      "type": "function"
    },
    {
      "inputs": [
        {
          "internalType": "bytes32",
          "name": "",
          "type": "bytes32"
        }
      ],
      "name": "activeProposals",
      "outputs": [
        {
          "internalType": "bytes32",
          "name": "proposedBoardHash",
          "type": "bytes32"
        },
        {
          "internalType": "enum EntityProvider.ProposerType",
          "name": "proposerType",
          "type": "uint8"
        },
        {
          "internalType": "uint256",
          "name": "proposeBlock",
          "type": "uint256"
        },
        {
          "internalType": "uint256",
          "name": "activateBlock",
          "type": "uint256"
        },
        {
          "internalType": "bool",
          "name": "active",
          "type": "bool"
        }
      ],
      "stateMutability": "view",
      "type": "function"
    },
    {
      "inputs": [
        {
          "internalType": "string",
          "name": "name",
          "type": "string"
        },
        {
          "internalType": "uint256",
          "name": "entityNumber",
          "type": "uint256"
        }
      ],
      "name": "assignName",
      "outputs": [],
      "stateMutability": "nonpayable",
      "type": "function"
    },
    {
      "inputs": [
        {
          "internalType": "address",
          "name": "account",
          "type": "address"
        },
        {
          "internalType": "uint256",
          "name": "id",
          "type": "uint256"
        }
      ],
      "name": "balanceOf",
      "outputs": [
        {
          "internalType": "uint256",
          "name": "",
          "type": "uint256"
        }
      ],
      "stateMutability": "view",
      "type": "function"
    },
    {
      "inputs": [
        {
          "internalType": "address[]",
          "name": "accounts",
          "type": "address[]"
        },
        {
          "internalType": "uint256[]",
          "name": "ids",
          "type": "uint256[]"
        }
      ],
      "name": "balanceOfBatch",
      "outputs": [
        {
          "internalType": "uint256[]",
          "name": "",
          "type": "uint256[]"
        }
      ],
      "stateMutability": "view",
      "type": "function"
    },
    {
      "inputs": [
        {
          "internalType": "bytes[]",
          "name": "hankoDataArray",
          "type": "bytes[]"
        },
        {
          "internalType": "bytes32[]",
          "name": "hashes",
          "type": "bytes32[]"
        }
      ],
      "name": "batchVerifyHankoSignatures",
      "outputs": [
        {
          "internalType": "bytes32[]",
          "name": "entityIds",
          "type": "bytes32[]"
        },
        {
          "internalType": "bool[]",
          "name": "results",
          "type": "bool[]"
        }
      ],
      "stateMutability": "view",
      "type": "function"
    },
    {
      "inputs": [
        {
          "internalType": "bytes32",
          "name": "entityId",
          "type": "bytes32"
        },
        {
          "internalType": "enum EntityProvider.ProposerType",
          "name": "proposerType",
          "type": "uint8"
        },
        {
          "components": [
            {
              "internalType": "uint32",
              "name": "controlDelay",
              "type": "uint32"
            },
            {
              "internalType": "uint32",
              "name": "dividendDelay",
              "type": "uint32"
            },
            {
              "internalType": "uint32",
              "name": "foundationDelay",
              "type": "uint32"
            },
            {
              "internalType": "uint16",
              "name": "controlThreshold",
              "type": "uint16"
            }
          ],
          "internalType": "struct EntityProvider.EntityArticles",
          "name": "articles",
          "type": "tuple"
        }
      ],
      "name": "cancelBoardProposal",
      "outputs": [],
      "stateMutability": "nonpayable",
      "type": "function"
    },
    {
      "inputs": [
        {
          "internalType": "bytes32",
          "name": "",
          "type": "bytes32"
        }
      ],
      "name": "entities",
      "outputs": [
        {
          "internalType": "bytes32",
          "name": "currentBoardHash",
          "type": "bytes32"
        },
        {
          "internalType": "bytes32",
          "name": "proposedBoardHash",
          "type": "bytes32"
        },
        {
          "internalType": "uint256",
          "name": "activateAtBlock",
          "type": "uint256"
        },
        {
          "internalType": "uint256",
          "name": "registrationBlock",
          "type": "uint256"
        },
        {
          "internalType": "enum EntityProvider.ProposerType",
          "name": "proposerType",
          "type": "uint8"
        },
        {
          "internalType": "bytes32",
          "name": "articlesHash",
          "type": "bytes32"
        }
      ],
      "stateMutability": "view",
      "type": "function"
    },
    {
      "inputs": [
        {
          "internalType": "bytes32",
          "name": "",
          "type": "bytes32"
        }
      ],
      "name": "entityActionNonces",
      "outputs": [
        {
          "internalType": "uint256",
          "name": "",
          "type": "uint256"
        }
      ],
      "stateMutability": "view",
      "type": "function"
    },
    {
      "inputs": [
        {
          "internalType": "uint256",
          "name": "entityNumber",
          "type": "uint256"
        },
        {
          "internalType": "address",
          "name": "to",
          "type": "address"
        },
        {
          "internalType": "uint256",
          "name": "tokenId",
          "type": "uint256"
        },
        {
          "internalType": "uint256",
          "name": "amount",
          "type": "uint256"
        },
        {
          "internalType": "bytes",
          "name": "encodedBoard",
          "type": "bytes"
        },
        {
          "internalType": "bytes",
          "name": "encodedSignature",
          "type": "bytes"
        }
      ],
      "name": "entityTransferTokens",
      "outputs": [],
      "stateMutability": "nonpayable",
      "type": "function"
    },
    {
      "inputs": [
        {
          "internalType": "bytes32",
          "name": "boardHash",
          "type": "bytes32"
        },
        {
          "components": [
            {
              "internalType": "uint32",
              "name": "controlDelay",
              "type": "uint32"
            },
            {
              "internalType": "uint32",
              "name": "dividendDelay",
              "type": "uint32"
            },
            {
              "internalType": "uint32",
              "name": "foundationDelay",
              "type": "uint32"
            },
            {
              "internalType": "uint16",
              "name": "controlThreshold",
              "type": "uint16"
            }
          ],
          "internalType": "struct EntityProvider.EntityArticles",
          "name": "articles",
          "type": "tuple"
        }
      ],
      "name": "foundationRegisterEntity",
      "outputs": [
        {
          "internalType": "uint256",
          "name": "entityNumber",
          "type": "uint256"
        }
      ],
      "stateMutability": "nonpayable",
      "type": "function"
    },
    {
      "inputs": [
        {
          "internalType": "uint256",
          "name": "tokenId",
          "type": "uint256"
        }
      ],
      "name": "getEntityFromToken",
      "outputs": [
        {
          "internalType": "uint256",
          "name": "entityNumber",
          "type": "uint256"
        }
      ],
      "stateMutability": "pure",
      "type": "function"
    },
    {
      "inputs": [
        {
          "internalType": "bytes32",
          "name": "entityId",
          "type": "bytes32"
        }
      ],
      "name": "getEntityInfo",
      "outputs": [
        {
          "internalType": "bool",
          "name": "exists",
          "type": "bool"
        },
        {
          "internalType": "bytes32",
          "name": "currentBoardHash",
          "type": "bytes32"
        },
        {
          "internalType": "bytes32",
          "name": "proposedBoardHash",
          "type": "bytes32"
        },
        {
          "internalType": "uint256",
          "name": "registrationBlock",
          "type": "uint256"
        },
        {
          "internalType": "string",
          "name": "name",
          "type": "string"
        }
      ],
      "stateMutability": "view",
      "type": "function"
    },
    {
      "inputs": [
        {
          "internalType": "uint256",
          "name": "entityNumber",
          "type": "uint256"
        }
      ],
      "name": "getGovernanceInfo",
      "outputs": [
        {
          "internalType": "uint256",
          "name": "controlTokenId",
          "type": "uint256"
        },
        {
          "internalType": "uint256",
          "name": "dividendTokenId",
          "type": "uint256"
        },
        {
          "internalType": "uint256",
          "name": "controlSupply",
          "type": "uint256"
        },
        {
          "internalType": "uint256",
          "name": "dividendSupply",
          "type": "uint256"
        },
        {
          "internalType": "bool",
          "name": "hasActiveProposal",
          "type": "bool"
        },
        {
          "internalType": "bytes32",
          "name": "articlesHash",
          "type": "bytes32"
        }
      ],
      "stateMutability": "view",
      "type": "function"
    },
    {
      "inputs": [
        {
          "internalType": "uint256",
          "name": "entityNumber",
          "type": "uint256"
        }
      ],
      "name": "getTokenIds",
      "outputs": [
        {
          "internalType": "uint256",
          "name": "controlTokenId",
          "type": "uint256"
        },
        {
          "internalType": "uint256",
          "name": "dividendTokenId",
          "type": "uint256"
        }
      ],
      "stateMutability": "pure",
      "type": "function"
    },
    {
      "inputs": [
        {
          "internalType": "address",
          "name": "account",
          "type": "address"
        },
        {
          "internalType": "address",
          "name": "operator",
          "type": "address"
        }
      ],
      "name": "isApprovedForAll",
      "outputs": [
        {
          "internalType": "bool",
          "name": "",
          "type": "bool"
        }
      ],
      "stateMutability": "view",
      "type": "function"
    },
    {
      "inputs": [
        {
          "internalType": "address",
          "name": "",
          "type": "address"
        }
      ],
      "name": "nameQuota",
      "outputs": [
        {
          "internalType": "uint8",
          "name": "",
          "type": "uint8"
        }
      ],
      "stateMutability": "view",
      "type": "function"
    },
    {
      "inputs": [
        {
          "internalType": "string",
          "name": "",
          "type": "string"
        }
      ],
      "name": "nameToNumber",
      "outputs": [
        {
          "internalType": "uint256",
          "name": "",
          "type": "uint256"
        }
      ],
      "stateMutability": "view",
      "type": "function"
    },
    {
      "inputs": [],
      "name": "nextNumber",
      "outputs": [
        {
          "internalType": "uint256",
          "name": "",
          "type": "uint256"
        }
      ],
      "stateMutability": "view",
      "type": "function"
    },
    {
      "inputs": [
        {
          "internalType": "uint256",
          "name": "",
          "type": "uint256"
        }
      ],
      "name": "numberToName",
      "outputs": [
        {
          "internalType": "string",
          "name": "",
          "type": "string"
        }
      ],
      "stateMutability": "view",
      "type": "function"
    },
    {
      "inputs": [
        {
          "internalType": "bytes32",
          "name": "entityId",
          "type": "bytes32"
        },
        {
          "internalType": "bytes32",
          "name": "newBoardHash",
          "type": "bytes32"
        },
        {
          "internalType": "enum EntityProvider.ProposerType",
          "name": "proposerType",
          "type": "uint8"
        },
        {
          "components": [
            {
              "internalType": "uint32",
              "name": "controlDelay",
              "type": "uint32"
            },
            {
              "internalType": "uint32",
              "name": "dividendDelay",
              "type": "uint32"
            },
            {
              "internalType": "uint32",
              "name": "foundationDelay",
              "type": "uint32"
            },
            {
              "internalType": "uint16",
              "name": "controlThreshold",
              "type": "uint16"
            }
          ],
          "internalType": "struct EntityProvider.EntityArticles",
          "name": "articles",
          "type": "tuple"
        }
      ],
      "name": "proposeBoard",
      "outputs": [],
      "stateMutability": "nonpayable",
      "type": "function"
    },
    {
      "inputs": [
        {
          "internalType": "bytes",
          "name": "encodedBoard",
          "type": "bytes"
        },
        {
          "internalType": "bytes",
          "name": "encodedSignature",
          "type": "bytes"
        },
        {
          "internalType": "bytes32",
          "name": "hash",
          "type": "bytes32"
        }
      ],
      "name": "recoverEntity",
      "outputs": [
        {
          "internalType": "uint256",
          "name": "entityId",
          "type": "uint256"
        }
      ],
      "stateMutability": "view",
      "type": "function"
    },
    {
      "inputs": [
        {
          "internalType": "bytes32[]",
          "name": "boardHashes",
          "type": "bytes32[]"
        }
      ],
      "name": "registerNumberedEntitiesBatch",
      "outputs": [
        {
          "internalType": "uint256[]",
          "name": "entityNumbers",
          "type": "uint256[]"
        }
      ],
      "stateMutability": "nonpayable",
      "type": "function"
    },
    {
      "inputs": [
        {
          "internalType": "bytes32",
          "name": "boardHash",
          "type": "bytes32"
        }
      ],
      "name": "registerNumberedEntity",
      "outputs": [
        {
          "internalType": "uint256",
          "name": "entityNumber",
          "type": "uint256"
        }
      ],
      "stateMutability": "nonpayable",
      "type": "function"
    },
    {
      "inputs": [
        {
          "internalType": "uint256",
          "name": "entityNumber",
          "type": "uint256"
        },
        {
          "internalType": "address",
          "name": "depository",
          "type": "address"
        },
        {
          "internalType": "uint256",
          "name": "controlAmount",
          "type": "uint256"
        },
        {
          "internalType": "uint256",
          "name": "dividendAmount",
          "type": "uint256"
        },
        {
          "internalType": "string",
          "name": "purpose",
          "type": "string"
        },
        {
          "internalType": "bytes",
          "name": "encodedBoard",
          "type": "bytes"
        },
        {
          "internalType": "bytes",
          "name": "encodedSignature",
          "type": "bytes"
        }
      ],
      "name": "releaseControlShares",
      "outputs": [],
      "stateMutability": "nonpayable",
      "type": "function"
    },
    {
      "inputs": [
        {
          "internalType": "string",
          "name": "",
          "type": "string"
        }
      ],
      "name": "reservedNames",
      "outputs": [
        {
          "internalType": "bool",
          "name": "",
          "type": "bool"
        }
      ],
      "stateMutability": "view",
      "type": "function"
    },
    {
      "inputs": [
        {
          "internalType": "string",
          "name": "identifier",
          "type": "string"
        }
      ],
      "name": "resolveEntityId",
      "outputs": [
        {
          "internalType": "bytes32",
          "name": "",
          "type": "bytes32"
        }
      ],
      "stateMutability": "view",
      "type": "function"
    },
    {
      "inputs": [
        {
          "internalType": "address",
          "name": "from",
          "type": "address"
        },
        {
          "internalType": "address",
          "name": "to",
          "type": "address"
        },
        {
          "internalType": "uint256[]",
          "name": "ids",
          "type": "uint256[]"
        },
        {
          "internalType": "uint256[]",
          "name": "values",
          "type": "uint256[]"
        },
        {
          "internalType": "bytes",
          "name": "data",
          "type": "bytes"
        }
      ],
      "name": "safeBatchTransferFrom",
      "outputs": [],
      "stateMutability": "nonpayable",
      "type": "function"
    },
    {
      "inputs": [
        {
          "internalType": "address",
          "name": "from",
          "type": "address"
        },
        {
          "internalType": "address",
          "name": "to",
          "type": "address"
        },
        {
          "internalType": "uint256",
          "name": "id",
          "type": "uint256"
        },
        {
          "internalType": "uint256",
          "name": "value",
          "type": "uint256"
        },
        {
          "internalType": "bytes",
          "name": "data",
          "type": "bytes"
        }
      ],
      "name": "safeTransferFrom",
      "outputs": [],
      "stateMutability": "nonpayable",
      "type": "function"
    },
    {
      "inputs": [
        {
          "internalType": "address",
          "name": "operator",
          "type": "address"
        },
        {
          "internalType": "bool",
          "name": "approved",
          "type": "bool"
        }
      ],
      "name": "setApprovalForAll",
      "outputs": [],
      "stateMutability": "nonpayable",
      "type": "function"
    },
    {
      "inputs": [
        {
          "internalType": "address",
          "name": "user",
          "type": "address"
        },
        {
          "internalType": "uint8",
          "name": "quota",
          "type": "uint8"
        }
      ],
      "name": "setNameQuota",
      "outputs": [],
      "stateMutability": "nonpayable",
      "type": "function"
    },
    {
      "inputs": [
        {
          "internalType": "string",
          "name": "name",
          "type": "string"
        },
        {
          "internalType": "bool",
          "name": "reserved",
          "type": "bool"
        }
      ],
      "name": "setReservedName",
      "outputs": [],
      "stateMutability": "nonpayable",
      "type": "function"
    },
    {
      "inputs": [
        {
          "internalType": "bytes4",
          "name": "interfaceId",
          "type": "bytes4"
        }
      ],
      "name": "supportsInterface",
      "outputs": [
        {
          "internalType": "bool",
          "name": "",
          "type": "bool"
        }
      ],
      "stateMutability": "view",
      "type": "function"
    },
    {
      "inputs": [
        {
          "internalType": "bytes32",
          "name": "",
          "type": "bytes32"
        }
      ],
      "name": "totalControlSupply",
      "outputs": [
        {
          "internalType": "uint256",
          "name": "",
          "type": "uint256"
        }
      ],
      "stateMutability": "view",
      "type": "function"
    },
    {
      "inputs": [
        {
          "internalType": "bytes32",
          "name": "",
          "type": "bytes32"
        }
      ],
      "name": "totalDividendSupply",
      "outputs": [
        {
          "internalType": "uint256",
          "name": "",
          "type": "uint256"
        }
      ],
      "stateMutability": "view",
      "type": "function"
    },
    {
      "inputs": [
        {
          "internalType": "string",
          "name": "name",
          "type": "string"
        },
        {
          "internalType": "uint256",
          "name": "newEntityNumber",
          "type": "uint256"
        }
      ],
      "name": "transferName",
      "outputs": [],
      "stateMutability": "nonpayable",
      "type": "function"
    },
    {
      "inputs": [
        {
          "internalType": "uint256",
          "name": "",
          "type": "uint256"
        }
      ],
      "name": "uri",
      "outputs": [
        {
          "internalType": "string",
          "name": "",
          "type": "string"
        }
      ],
      "stateMutability": "view",
      "type": "function"
    },
    {
      "inputs": [
        {
          "internalType": "bytes",
          "name": "hankoData",
          "type": "bytes"
        },
        {
          "internalType": "bytes32",
          "name": "hash",
          "type": "bytes32"
        }
      ],
      "name": "verifyHankoSignature",
      "outputs": [
        {
          "internalType": "bytes32",
          "name": "entityId",
          "type": "bytes32"
        },
        {
          "internalType": "bool",
          "name": "success",
          "type": "bool"
        }
      ],
      "stateMutability": "view",
      "type": "function"
    }
  ],
  "bytecode": "0x60406080815234620002a8576200001f6200001962000351565b6200062d565b6200002a6001600455565b6200005d62000050602860405167636f696e6261736560c01b8152600760088201522090565b805460ff19166001179055565b6200008362000050602860405167657468657265756d60c01b8152600760088201522090565b620000a7620000506027604051663134ba31b7b4b760c91b81526007808201522090565b620000cb620000506027604051660756e69737761760cc1b81526007808201522090565b620001b7620000d9620002ed565b6103e88152610bb860208201526000818401526033606082015282516200014b816200013c602082019485919091606061ffff81608084019563ffffffff8082511686528060208301511660208701526040820151166040860152015116910152565b03601f198101835282620002c3565b519020620001586200030d565b907fa1237dddbd29f99fde152257ccb2f783e434670afa247b2a52d81a326d4cf0ad8252600060208301526000848301524360608301526000608083015260a0820152620001b160016000526003602052604060002090565b6200039b565b60017f52629ba16cb44b809941f19e442f11a9973e93cc91be0d91df4afbe6e7c624ca6001600160ff1b0182620001f8620001f16200032d565b8262000402565b6200020d620002066200032d565b8362000402565b6001600052600a602052620002497fbbc70db1b6c7afd11e79c0fb0051300458f1a3acb8ee9789d9b6b26c61ad9bc75b66038d7ea4c680009055565b6001600052600b6020526200027e7f72c6bfb7988af3a1efa6568f02a999bc52252641c659d85961ca3d372b57d5cf6200023d565b84519081526020810191909152604090a26200029a6002600455565b516145a09081620009f98239f35b600080fd5b634e487b7160e01b600052604160045260246000fd5b601f909101601f19168101906001600160401b03821190821017620002e757604052565b620002ad565b60405190608082016001600160401b03811183821017620002e757604052565b6040519060c082016001600160401b03811183821017620002e757604052565b60405190602082016001600160401b03811183821017620002e75760405260008252565b60408051919082016001600160401b03811183821017620002e757604052602082527f68747470733a2f2f786c6e2e636f6d2f656e746974792f7b69647d2e6a736f6e6020830152565b908051825560208101516001830155604081015160028301556060810151600383015560048201906080810151906003821015620003ec5760059260a09260ff801983541691161790550151910155565b634e487b7160e01b600052602160045260246000fd5b9060405191600190818452602091602085019182526040850190808252606093606087019466038d7ea4c6800086526080880180604052885185518082036200057957505050908291826000905b62000519575b505050865114600014620004d95780600084517fc3d58168c5ae7397731d063d5bbf3d657854427343f4c083240f7aacaa2d0f62620004aa8851604051918291339583908152602081019190915260400190565b0390a45b855103620004ca5750620004c893505190519033620009c3565b565b915050620004c89233620008a6565b8060006040517f4a39dc06d4c0dbc64b70af90fd698a233a518aa5d07e595d983b8c0526c8f7fb33918062000510888d8362000782565b0390a4620004ae565b8951811015620005735780849160051b8b016200056962000560620005508688850151940151936000526000602052604060002090565b6001600052602052604060002090565b91825462000728565b9055018362000450565b62000456565b635b05999160e01b835260848b019190915260a48a0152604490fd5b90600182811c92168015620005c7575b6020831014620005b157565b634e487b7160e01b600052602260045260246000fd5b91607f1691620005a5565b601f8111620005df575050565b60009060026000526020600020906020601f850160051c8301941062000622575b601f0160051c01915b8281106200061657505050565b81815560010162000609565b909250829062000600565b80519091906001600160401b038111620002e75762000659816200065360025462000595565b620005d2565b602080601f8311600114620006a0575081906200068f939460009262000694575b50508160011b916000199060031b1c19161790565b600255565b0151905038806200067a565b6002600052601f198316949091907f405787fa12a823e0f2b7631cc41b3ba8828b3321ca811111fa75cd3aa3bb5ace926000905b8782106200070f575050836001959610620006f5575b505050811b01600255565b015160001960f88460031b161c19169055388080620006ea565b80600185968294968601518155019501930190620006d4565b919082018092116200073657565b634e487b7160e01b600052601160045260246000fd5b90815180825260208080930193019160005b8281106200076d575050505090565b8351855293810193928101926001016200075e565b90916200079c620007ab936040845260408401906200074c565b9160208184039101526200074c565b90565b90816020910312620002a857516001600160e01b031981168103620002a85790565b919082519283825260005b848110620007fd575050826000602080949584010152601f8019910116010190565b602081830181015184830182015201620007db565b9262000845620007ab9593620008549360018060a01b031686526000602087015260a0604087015260a08601906200074c565b9084820360608601526200074c565b916080818403910152620007d0565b3d15620008a1573d906001600160401b038211620002e7576040519162000895601f8201601f191660200184620002c3565b82523d6000602084013e565b606090565b929160013b620008b7575b50505050565b602091620008dc604051948593849363bc197c8160e01b988986526004860162000812565b0381600060015af16000918162000958575b506200092557620008fe62000863565b805190816200092057604051632bfa23e760e11b815260016004820152602490fd5b602001fd5b6001600160e01b031916036200093f5738808080620008b1565b604051632bfa23e760e11b815260016004820152602490fd5b6200098091925060203d60201162000988575b620009778183620002c3565b810190620007ae565b9038620008ee565b503d6200096b565b909260a092620007ab9594600180861b0316835260006020840152604083015260608201528160808201520190620007d0565b929160013b620009d35750505050565b602091620008dc604051948593849363f23a6e6160e01b98898652600486016200099056fe6080604052600436101561001257600080fd5b60003560e01c8062fdd58e146102a157806301ffc9a71461029c57806303db7616146102105780630e89341c146102975780630ebf19c6146102925780631e76fea51461028d5780631ed3d4401461028857806326760ce6146102835780632a20cc801461027e5780632eb2c2d6146102795780632fae4ffd14610274578063311cf8eb1461026f5780634e1273f41461026a578063504d23ea1461026557806357991d30146102605780635a7931c81461025b5780635b70ae41146102565780636702bc7714610251578063680c3ff21461024c57806368436f10146102475780637ea397c8146102425780638193e0071461023d578063820eec5f14610238578063848202fe146102335780638aad06281461022e5780638c67e169146102295780638d197ec7146102245780638dbe6c381461021f5780639248cd431461021a578063a22cb46514610215578063a74f77e714610210578063c83fa48e1461020b578063cce4159814610206578063d8cb5fd514610201578063d93e68d6146101fc578063e1657b8a146101f7578063e5b338fd146101f2578063e8f48031146101ed578063e985e9c5146101e8578063edd2133b146101e35763f242432a146101de57600080fd5b611f77565b611eb7565b611e47565b611e2b565b611dbd565b611d08565b611cad565b611afa565b6119b8565b6117f2565b6103a6565b611759565b6116ce565b611564565b61153d565b611511565b6114c5565b6114a7565b61138e565b611351565b6112d6565b6112b0565b6111d9565b611155565b6110fc565b611094565b61103e565b61100d565b610f53565b610ee2565b610eca565b610d3c565b610c50565b610b40565b610b00565b6108c1565b610662565b610424565b610338565b6102eb565b600435906001600160a01b03821682036102bc57565b600080fd5b602435906001600160a01b03821682036102bc57565b35906001600160a01b03821682036102bc57565b346102bc5760403660031901126102bc57602061031d6103096102a6565b60243560005260008352604060002061133a565b54604051908152f35b6001600160e01b03198116036102bc57565b346102bc5760203660031901126102bc57602060043561035781610326565b63ffffffff60e01b16636cdb3d1360e11b8114908115610395575b8115610384575b506040519015158152f35b6301ffc9a760e01b14905038610379565b6303a24d0760e21b81149150610372565b346102bc5760003660031901126102bc57602060405166038d7ea4c680008152f35b60005b8381106103db5750506000910152565b81810151838201526020016103cb565b90602091610404815180928185528580860191016103c8565b601f01601f1916010190565b9060206104219281815201906103eb565b90565b346102bc576020806003193601126102bc5760405160009160025461044881610a23565b808452906001908181169081156104c25750600114610482575b61047e8461047281880382610585565b60405191829182610410565b0390f35b919350600260005283600020916000925b8284106104af575050508161047e936104729282010193610462565b8054858501870152928501928101610493565b60ff1916858501525050151560051b82010191506104728161047e610462565b634e487b7160e01b600052604160045260246000fd5b608081019081106001600160401b0382111761051357604052565b6104e2565b60c081019081106001600160401b0382111761051357604052565b606081019081106001600160401b0382111761051357604052565b61010081019081106001600160401b0382111761051357604052565b602081019081106001600160401b0382111761051357604052565b601f909101601f19168101906001600160401b0382119082101761051357604052565b604051906105b582610518565b565b604051906105b5826104f8565b6001600160401b03811161051357601f01601f191660200190565b9291926105eb826105c4565b916105f96040519384610585565b8294818452818301116102bc578281602093846000960137010152565b9080601f830112156102bc57816020610421933591016105df565b60406003198201126102bc57600435906001600160401b0382116102bc5761065b91600401610616565b9060243590565b346102bc5761067036610631565b600091600183528260205261069361068b336040862061133a565b541515612022565b61069c81610e7e565b541561071e576106b66106ae836109d3565b54151561206e565b6106f76106c282610e7e565b54916106d56106d0846109e3565b6120fb565b836106df82610e7e565b556106f2816106ed866109e3565b612189565b61225e565b7fea3298815689e7c88c8a95c13838806450c4cee965a7c33dda77b335f64565788480a480f35b60405162461bcd60e51b815260206004820152601160248201527013985b59481b9bdd08185cdcda59db9959607a1b6044820152606490fd5b6024359060038210156102bc57565b6044359060038210156102bc57565b359063ffffffff821682036102bc57565b359061ffff821682036102bc57565b60809060431901126102bc57604051906107ae826104f8565b8163ffffffff60443581811681036102bc57825260643581811681036102bc57602083015260843590811681036102bc57604082015260a4359061ffff821682036102bc5760600152565b60809060631901126102bc5760405190610812826104f8565b8163ffffffff60643581811681036102bc57825260843581811681036102bc57602083015260a43590811681036102bc57604082015260c4359061ffff821682036102bc5760600152565b60809060231901126102bc5760405190610876826104f8565b8163ffffffff60243581811681036102bc57825260443581811681036102bc57602083015260643590811681036102bc5760408201526084359061ffff821682036102bc5760600152565b346102bc5760c03660031901126102bc576004357f1022d6ed189b00c6d01d0bdfcc78a25b81a33fc04c61bc53abf2de6bbc60f3756109ce610901610757565b61097d8161090e36610795565b61092261091a886109d3565b54151561227e565b6109396001610930896109d3565b015415156122c1565b6109766040516020810190610960816109528685612301565b03601f198101835282610585565b519020600561096e8a6109d3565b015414612339565b33876131d1565b6109a461099f6109996004610991886109d3565b015460ff1690565b836132a6565b612378565b600060016109b1866109d3565b0155600060026109c0866109d3565b0155604051918291826123c2565b0390a2005b6000526003602052604060002090565b6000526006602052604060002090565b600052600a602052604060002090565b600052600c602052604060002090565b6000526000602052604060002090565b90600182811c92168015610a53575b6020831014610a3d57565b634e487b7160e01b600052602260045260246000fd5b91607f1691610a32565b90604051918260008254610a7081610a23565b90818452602094600191600181169081600014610ade5750600114610a9f575b5050506105b592500383610585565b600090815285812095935091905b818310610ac65750506105b59350820101388080610a90565b85548884018501529485019487945091830191610aad565b925050506105b594925060ff191682840152151560051b820101388080610a90565b346102bc5760203660031901126102bc57600435600052600660205261047e610b2c6040600020610a5d565b6040519182916020835260208301906103eb565b346102bc57610b4e36610631565b6000916001835282602052610b6961068b336040862061133a565b80518015159081610c44575b5015610c0957610bd190610b8b61091a846109d3565b610b9e610b9782610e7e565b54156123d2565b83610bb0610bab856109e3565b610a5d565b8051610bf8575b505082610bc382610e7e565b556106f2816106ed856109e3565b7f0d74c26d085287bcf3070f20f8d884a204aa6f73949ab189d58abd345b1cac948380a380f35b610c0190610e7e565b558338610bb7565b60405162461bcd60e51b8152602060048201526013602482015272092dcecc2d8d2c840dcc2daca40d8cadccee8d606b1b6044820152606490fd5b60209150111538610b75565b346102bc576020806003193601126102bc5760c0906004359081600052600a815260408060002054600b83528160002054906009845260ff6004846000200154169260038552600581600020015494815196808852600160ff1b179087015285015260608401521515608083015260a0820152f35b6001600160401b0381116105135760051b60200190565b9080601f830112156102bc576020908235610cf681610cc5565b93610d046040519586610585565b81855260208086019260051b8201019283116102bc57602001905b828210610d2d575050505090565b81358152908301908301610d1f565b346102bc5760a03660031901126102bc57610d556102a6565b610d5d6102c1565b60443591906001600160401b03908184116102bc57610d8160049436908601610cdc565b906064358381116102bc57610d999036908701610cdc565b926084359081116102bc57610db19036908701610616565b936001600160a01b03808216903382141580610e32575b610e1357831615610dfb5715610de457610de29550613f1d565b005b604051626a0d4560e21b8152600081880152602490fd5b604051632bfa23e760e11b8152600081890152602490fd5b60405163711bec9160e11b815280610e2e8533838d01612416565b0390fd5b5081600052600160205260ff610e4c33604060002061133a565b541615610dc8565b60206003198201126102bc57600435906001600160401b0382116102bc5761042191600401610616565b6020610e979181604051938285809451938492016103c8565b8101600581520301902090565b6020610ebd9181604051938285809451938492016103c8565b8101600781520301902090565b346102bc57602061031d610edd36610e54565b610e7e565b346102bc5760203660031901126102bc57600435600052600a6020526020604060002054604051908152f35b90815180825260208080930193019160005b828110610f2e575050505090565b835185529381019392810192600101610f20565b906020610421928181520190610f0e565b346102bc5760403660031901126102bc576004356001600160401b038082116102bc57366023830112156102bc578160040135610f8f81610cc5565b92610f9d6040519485610585565b8184526020916024602086019160051b830101913683116102bc57602401905b828210610ff657856024358681116102bc5761047e91610fe4610fea923690600401610cdc565b90612491565b60405191829182610f42565b838091611002846102d7565b815201910190610fbd565b346102bc57602061102561102036610e54565b612516565b604051908152f35b908152602081019190915260400190565b346102bc5760203660031901126102bc576040518061047e600435600160ff1b8117908361102d565b6003111561107157565b634e487b7160e01b600052602160045260246000fd5b9060038210156110715752565b346102bc5760203660031901126102bc57600435600052600960205260a0604060002080549060ff6001820154169060028101546110e960ff6004600385015494015416936040519586526020860190611087565b6040840152606083015215156080820152f35b346102bc5760203660031901126102bc57600435600052600b6020526020604060002054604051908152f35b9181601f840112156102bc578235916001600160401b0383116102bc57602083818601950101116102bc57565b346102bc5760e03660031901126102bc5761116e6102c1565b6001600160401b03906084358281116102bc5761118f903690600401611128565b60a4929192358481116102bc576111aa903690600401611128565b9160c4359586116102bc576111c6610de2963690600401611128565b9590946064359060443590600435612778565b346102bc5760203660031901126102bc5760043560009080825260036020526112076040832054151561227e565b8082526003602052611221600160408420015415156122c1565b611239600261122f836109d3565b0154431015612991565b6001611244826109d3565b015461124f826109d3565b5581600161125c836109d3565b015581600261126a836109d3565b01557f30b47f773c1d2a65ce0ef667c3b123d5abd927c62b56907569c0daf51cd651506112aa611299836109d3565b546040519081529081906020820190565b0390a280f35b346102bc57602060ff6112ca6112c536610e54565b610ea4565b54166040519015158152f35b346102bc5760403660031901126102bc576112ef6102a6565b60243560ff81168091036102bc57600091600183528260205261131861068b336040862061133a565b6001600160a01b03168252600860205260408220805460ff1916909117905580f35b9060018060a01b0316600052602052604060002090565b346102bc5760203660031901126102bc576001600160a01b036113726102a6565b166000526008602052602060ff60406000205416604051908152f35b346102bc5760e03660031901126102bc576004357fc4e5e67fff3ba4bffbe07d84c897dbf61a0027b703754b45a5c9de6b58bfd7936109ce6024356114736113d4610766565b61144763ffffffff6113e5366107f9565b6113f161091a8a6109d3565b611418604051602081019061140a816109528685612301565b519020600561096e8c6109d3565b61142e846114268184613377565b92338c6131d1565b60016114398a6109d3565b0154611483575b16436125d7565b836001611453896109d3565b01556002611460886109d3565b0155600461146d876109d3565b01612a2a565b6040519081529081906020820190565b6114a261149d61149760046109918d6109d3565b866132a6565b6129d4565b611440565b346102bc5760003660031901126102bc576020600454604051908152f35b346102bc5760403660031901126102bc576004356001600160401b0381116102bc576115036114fa6040923690600401611128565b60243591612c5d565b825191825215156020820152f35b346102bc5760203660031901126102bc57600435600052600c6020526020604060002054604051908152f35b346102bc5760203660031901126102bc576040516004356001600160ff1b03168152602090f35b346102bc5760a03660031901126102bc5761047e6004356115843661085d565b90600091600183528260205260008051602061452b8339815191526116a26040936115b461068b3387892061133a565b61161a6004549687956115ce6115c988612b91565b600455565b87516115e281610952602082019485612301565b5190206115ed6105a8565b918483528060208401528089840152436060840152608083015260a0820152611615866109d3565b612fcd565b838060008051602061454b83398151915281600160ff1b81179590946116646001600160a01b03851661165561164e613017565b8983613a09565b8861165e613017565b91613a09565b61167c611670856109f3565b66038d7ea4c680009055565b61169361167085600052600b602052604060002090565b89519081529081906020820190565b0390a36116b385519283928361102d565b0390a2519081529081906020820190565b801515036102bc57565b346102bc5760403660031901126102bc576004356001600160401b0381116102bc57611701610de2913690600401610616565b61174860243591611711836116c4565b600160009081526020526112c561068b337fada5013122d395ba3c54772283fb069b10426056ef8ca54750cb9bb552a59e7d61133a565b9060ff801983541691151516179055565b346102bc5760403660031901126102bc576117726102a6565b60243561177e816116c4565b6001600160a01b0382169182156117da57816117486117aa92336000526001602052604060002061133a565b60405190151581527f17307eab39ab6107e8899845ad3d59bd9653f200f220920489ca2b5937696c3160203392a3005b60405162ced3e160e81b815260006004820152602490fd5b346102bc5760c03660031901126102bc5760043561180e6102c1565b6001600160401b03919060643590604435906084358581116102bc57611838903690600401611128565b909560a4359081116102bc57611852903690600401611128565b9086600052600c602052604060002054926001840180941161190f57610de2986118ee9389936118e89360405160208101906e22a72a24aa2cafaa2920a729a322a960891b825246602f8201523060601b604f82015287606382015260018060601b03198b60601b1660838201528b60978201528c60b78201528960d782015260d781526118df8161054e565b51902093613104565b146125e4565b6118f785610a03565b55611900613017565b936001600160a01b0316613300565b6120cf565b9181601f840112156102bc578235916001600160401b0383116102bc576020808501948460051b0101116102bc57565b6040810190604081528251809252606081019160208094019060005b8181106119a4575050508281830391015281808451928381520193019160005b82811061198e575050505090565b8351151585529381019392810192600101611980565b825185529385019391850191600101611960565b346102bc576040806003193601126102bc576001600160401b03600480358281116102bc576119eb903690600401611914565b9390926024359081116102bc57611a06903690600401611914565b90611a1282871461302a565b611a1b86612430565b93611a2587612430565b9660005b818110611a3e5785518061047e8b8a83611944565b80611a4b8792848b61306e565b611a598389899694966130af565b3593611a7783519586938493631155a0c560e31b85528a85016130db565b0381305afa8015611af55760019282918c6000928392611ab9575b50611aa89293611aa191612478565b9015159052565b611ab2828a612478565b5201611a29565b611aa89350611aa1919250611ae3908c8d3d10611aee575b611adb8183610585565b8101906130bf565b909390929150611a92565b503d611ad1565b6130f8565b346102bc576020806003193601126102bc5760049081356001600160401b0381116102bc57611b2d903690600401611914565b91611b3783612430565b92611b406105b7565b6103e8815290610bb86020830152604093611b5e8584016127109052565b606092611b6e6060820160339052565b8551611b8281610952602082019485612301565b5190209260009160005b848110611ba05787518061047e8b82610f42565b8954600191908060008051602061452b8339815191528886611c998e611c088f8f8e8e81611bdb8e611bd46115c98f612b91565b8b8b6130af565b3594611be56105a8565b95865285015281868501524390840152608083015260a0820152611615886109d3565b858060008051602061454b833981519152611c8c611c7c8c84600160ff1b81179a9099611c546001600160a01b038816611c4b8d611c44613017565b9083613a09565b8d61165e613017565b611c60611670886109f3565b611c7761167088600052600b602052604060002090565b6130af565b8551903581529081906020820190565b0390a3519283928361102d565b0390a2611ca6828c612478565b5201611b8c565b346102bc5760603660031901126102bc576001600160401b036004358181116102bc57611cde903690600401611128565b91906024359182116102bc57602092611cfe611025933690600401611128565b9160443593613104565b346102bc5760203660031901126102bc5761047e60043560045490611d2f6115c983612b91565b8160008051602061452b8339815191526116a2611d4a6105b7565b6103e8815293610bb8602086015261161a604095611d6b8782016127109052565b603360608201528651611d8681610952602082019485612301565b519020611d916105a8565b90838252600060208301526000888301524360608301526000608083015260a0820152611615866109d3565b346102bc5760203660031901126102bc57600435600052600360205260c06040600020805490611e246001820154916002810154600382015490600560ff600485015416930154946040519687526020870152604086015260608501526080840190611087565b60a0820152f35b346102bc5760003660031901126102bc57602060405160018152f35b346102bc5760403660031901126102bc57602060ff6112ca611e676102a6565b611e6f6102c1565b6001600160a01b039091166000908152600185526040902061133a565b919260a0936104219695921515845260208401526040830152606082015281608082015201906103eb565b346102bc5760203660031901126102bc5760043560609080600052600360205261047e60406000209260405192611eed84610518565b845484526001850154936020810194855260028601546040820152600560038701549660608301978852611f2b60ff60048301541660808501612fc1565b015460a082015251935194519080151580611f6c575b611f56575b5060405194848695151586611e8c565b611f65919250610bab906109e3565b9038611f46565b506004548110611f41565b346102bc5760a03660031901126102bc57611f906102a6565b611f986102c1565b6084356001600160401b0381116102bc57611fb7903690600401610616565b906001600160a01b038316338114159081611fff575b50611fe357610de2926064359160443591613300565b60405163711bec9160e11b815280610e2e853360048401612416565b9050600052600160205260ff61201933604060002061133a565b54161538611fcd565b1561202957565b60405162461bcd60e51b815260206004820152601d60248201527f4f6e6c7920666f756e646174696f6e20746f6b656e20686f6c646572730000006044820152606490fd5b1561207557565b60405162461bcd60e51b815260206004820152601b60248201527a15185c99d95d08195b9d1a5d1e48191bd95cdb89dd08195e1a5cdd602a1b6044820152606490fd5b8181106120c3575050565b600081556001016120b8565b634e487b7160e01b600052601160045260246000fd5b908160061b918083046040149015171561190f57565b6121058154610a23565b908161210f575050565b81601f60009311600114612121575055565b908083918252612140601f60208420940160051c8401600185016120b8565b5555565b9190601f811161215357505050565b6105b5926000526020600020906020601f840160051c8301931061217f575b601f0160051c01906120b8565b9091508190612172565b81519192916001600160401b038111610513576121b0816121aa8454610a23565b84612144565b602080601f83116001146121f3575081906121e49394956000926121e8575b50508160011b916000199060031b1c19161790565b9055565b0151905038806121cf565b90601f1983169561220985600052602060002090565b926000905b8882106122465750508360019596971061222d575b505050811b019055565b015160001960f88460031b161c19169055388080612223565b8060018596829496860151815501950193019061220e565b612276906020604051928284809451938492016103c8565b810103902090565b1561228557565b60405162461bcd60e51b8152602060048201526014602482015273115b9d1a5d1e48191bd95cdb89dd08195e1a5cdd60621b6044820152606490fd5b156122c857565b60405162461bcd60e51b8152602060048201526011602482015270139bc81c1c9bdc1bdcd95908189bd85c99607a1b6044820152606490fd5b919091606061ffff81608084019563ffffffff8082511686528060208301511660208701526040820151166040860152015116910152565b1561234057565b60405162461bcd60e51b815260206004820152601060248201526f496e76616c69642061727469636c657360801b6044820152606490fd5b1561237f57565b60405162461bcd60e51b815260206004820152601b60248201527a10d85b9b9bdd0818d85b98d95b081d1a1a5cc81c1c9bdc1bdcd85b602a1b6044820152606490fd5b6020810192916105b59190611087565b156123d957565b60405162461bcd60e51b815260206004820152601560248201527413985b5948185b1c9958591e48185cdcda59db9959605a1b6044820152606490fd5b6001600160a01b0391821681529116602082015260400190565b9061243a82610cc5565b6124476040519182610585565b8281528092612458601f1991610cc5565b0190602036910137565b634e487b7160e01b600052603260045260246000fd5b805182101561248c5760209160051b010190565b612462565b919091805183518082036124fa5750506124ab8151612430565b9060009060005b81518110156124f257806124e060019260051b85602080808489010151938c0101518252526040862061133a565b546124eb8287612478565b52016124b2565b509193505050565b610e2e604051928392635b05999160e01b84526004840161102d565b61251f90610e7e565b54806104215750600090565b1561253257565b60405162461bcd60e51b815260206004820152601a602482015279496e76616c6964206465706f7369746f7279206164647265737360301b6044820152606490fd5b1561257b57565b60405162461bcd60e51b81526020600482015260186024820152774d7573742072656c6561736520736f6d6520746f6b656e7360401b6044820152606490fd5b906001820180921161190f57565b906007820180921161190f57565b9190820180921161190f57565b156125eb57565b60405162461bcd60e51b8152602060048201526018602482015277496e76616c696420656e74697479207369676e617475726560401b6044820152606490fd5b1561263257565b60405162461bcd60e51b815260206004820152601b60248201527a496e73756666696369656e7420636f6e74726f6c20746f6b656e7360281b6044820152606490fd5b908060209392818452848401376000828201840152601f01601f1916010190565b91608061042193604081526015604082015274434f4e54524f4c5f53484152455f52454c4541534560581b60608201528160208201520191612675565b156126da57565b60405162461bcd60e51b815260206004820152601c60248201527b496e73756666696369656e74206469766964656e6420746f6b656e7360201b6044820152606490fd5b916080610421936040815260166040820152754449564944454e445f53484152455f52454c4541534560501b60608201528160208201520191612675565b6104219492606092825260208201528160408201520191612675565b979681978961279a9b969497959860018060a01b03938486169d8e151561252b565b8915988915809a612988575b6127af90612574565b6127b8846109d3565b5415156127c49061227e565b6127cd84610a03565b546127d7906125bb565b948b8d6127e5368d8d6105df565b80516020918201206040517552454c454153455f434f4e54524f4c5f53484152455360501b9281019283524660368201526001600160601b031930606090811b82166056840152606a83018c90529d909d1b909c16608a8d0152609e8c019390935260be8b019190915260de8a019190915260fe808a018890528952601f199861287161011e82610585565b5190209261287e94613104565b14612888906125e4565b6128918a610a03565b558816908689600160ff1b811790997ff49b3b7be24475e2415d445c296967f90953e7daabd954e5be9f28f80b4689239a6128e39861293b575b50826128e8575b50505050506040519485948561275c565b0390a3565b8461290a84612902612931986128fd87610a13565b61133a565b5410156126d3565b61292c60405195866129208b8b6020840161271e565b03908101875286610585565b613300565b38808681806128d2565b806129588b612950896128fd61298296610a13565b54101561262b565b8a6040519161297b8361296f8d8d60208401612696565b03898101855284610585565b8489613300565b386128cb565b508b15156127a6565b1561299857565b60405162461bcd60e51b815260206004820152601460248201527311195b185e481c195c9a5bd9081b9bdd081b595d60621b6044820152606490fd5b156129db57565b60405162461bcd60e51b815260206004820152602160248201527f43616e6e6f74206f76657272696465206578697374696e672070726f706f73616044820152601b60fa1b6064820152608490fd5b9060038110156110715760ff80198354169116179055565b60209182828203126102bc576001600160401b03918035908382116102bc5701926060926060858403126102bc57604092835195612a7f87610533565b80358381116102bc5782612a94918301610cdc565b8752838101358381116102bc5782612aad918301610616565b8488015284810135908382116102bc57019181601f840112156102bc57823590612ad682610cc5565b96612ae387519889610585565b828852858089019360051b860101948486116102bc57868101935b868510612b1357505050505050505082015290565b84358481116102bc5782019060809081601f19848a0301126102bc578a51612b3a816104f8565b8a84013581528b8401358781116102bc57898c612b5992870101610cdc565b8b82015285840135928784116102bc57848d612b7c8c8f80999881990101610cdc565b90840152013586820152815201940193612afe565b600019811461190f5760010190565b15612ba757565b60405162461bcd60e51b815260206004820152601a602482015279456e7469747920696e646578206f7574206f6620626f756e647360301b6044820152606490fd5b60001981019190821161190f57565b9190820391821161190f57565b15612c0c57565b60405162461bcd60e51b8152602060048201526024808201527f5265666572656e63656420636c61696d20696e646578206f7574206f6620626f604482015263756e647360e01b6064820152608490fd5b612c6c91939293810190612a42565b90602091612c7d602082015161347e565b938451928315612fb357612c93848451516125d7565b94604095612ca86040860191825151906125d7565b90612cb287612430565b9660009660005b8b51811015612d3d578b6041612ccf8383612478565b515114612ce0575b50600101612cb9565b612ced82612cf492612478565b5189613609565b8a6001600160a01b038216612d0c575b50508b612cd7565b99612d30612d3592612d21856001969e612478565b6001600160a01b039091169052565b612b91565b98908a612d04565b50939892979691955093985015612fa4576000969396935b87518051861015612f6f5785612d6a91612478565b51835151958282019260005b84518051821015612e0b5781612d8b91612478565b51612d978c8210612ba0565b8981101580612df9575b612daf575b50600101612d76565b612dd9612dcc612dc68c60018060a01b0394612bf8565b8d612478565b516001600160a01b031690565b1615612de55738612da6565b505050505050505050505050600090600090565b50612e04898b6125d7565b8110612da1565b5050979a9091989299959496939a612e35612e31612e2a8c848c61384f565b8c516139e7565b1590565b612f5b576000978899895b8d518051821015612f10578f90612e598f918490612478565b51612e658a8210612ba0565b8a811015612e7a575050506001905b01612e40565b612e87939e938c8c6125d7565b811015612eca5750908d91019b818d5190612ea191612478565b51612eab916125d7565b9b5190612eb791612478565b51612ec1916125d7565b9a600190612e74565b8e6001949f9e9293612f0a948f8f908f612efc92612eee612ef392612f0399612bf8565b612bf8565b90515111612c05565b0151612478565b51906125d7565b9a612e74565b50509b50959697919b94509791929860600151809210612f495710612f39576001019396612d55565b5050505050505050600090600090565b50505050505050505050600090600090565b509950505050505050505050600090600090565b50505050505050505180519081612f8a575050600090600090565b612f96612f9c92612be9565b90612478565b515190600190565b50505050505050600090600090565b945050505050600090600090565b60038210156110715752565b9080518255602081015160018301556040810151600283015560608101516003830155608081015160038110156110715760059161301060a09260048601612a2a565b0151910155565b604051906130248261056a565b60008252565b1561303157565b60405162461bcd60e51b8152602060048201526015602482015274082e4e4c2f240d8cadccee8d040dad2e6dac2e8c6d605b1b6044820152606490fd5b919081101561248c5760051b81013590601e19813603018212156102bc5701803591906001600160401b0383116102bc5760200182360381136102bc579190565b919081101561248c5760051b0190565b91908260409103126102bc5760208251920151610421816116c4565b9392916020916130f391604087526040870191612675565b930152565b6040513d6000823e3d90fd5b61310f3683836105df565b6020815191012094600180600454905b8181106131445750505091613139939161ffff9593613d9e565b166104215750600090565b8061314f84926109d3565b5415158061318d575b613163575b0161311f565b905061ffff6131758989898989613d9e565b1661318157829061315d565b97505050505050505090565b5089613198826109d3565b5414613158565b606090602081526017602082015276109bd85c99081c1c9bdc1bdcd95c88191a5cd8589b1959604a1b60408201520190565b929091600382101561107157600182146132195750806131f2600292611067565b146132105760405162461bcd60e51b815280610e2e6004820161319f565b6105b591613ebe565b92916132339150826000526000602052604060002061133a565b5490811561326d57606061324961ffff926109f3565b54930151169182810292818404149015171561190f5760646105b59204111561262b565b60405162461bcd60e51b81526020600482015260116024820152704e6f20636f6e74726f6c20746f6b656e7360781b6044820152606490fd5b600381101561107157600181146132db576132c081611067565b156132cb5750600090565b806132d7600292611067565b1490565b50806132e8600192611067565b141590565b6001600160a01b03909116815260200190565b939291906001600160a01b038082161561335e57851615613346576105b59460405192600184526020840152604083019360018552606084015260808301604052613f1d565b604051626a0d4560e21b815260006004820152602490fd5b604051632bfa23e760e11b815260006004820152602490fd5b90600381101561107157600181146133c05780613395600292611067565b146133b35760405162461bcd60e51b815280610e2e6004820161319f565b6020015163ffffffff1690565b505163ffffffff1690565b6040516133d78161056a565b6000815290565b906133e882610cc5565b6133f56040519182610585565b8281528092613406601f1991610cc5565b019060005b82811061341757505050565b80606060208093850101520161340b565b6040519061343582610533565b6040808352366020840137565b6040519061344f826104f8565b604182526060366020840137565b80516040101561248c5760600190565b90815181101561248c570160200190565b90613488826140d3565b80156135ec57613497816120e5565b906134a1816133de565b9360005b8281106134b25750505050565b6134ba613428565b60005b604081106135b757506135126135196134d98460031c886125d7565b60019283916135066135006134f260078a16938b61346d565b516001600160f81b03191690565b60f81c90565b9060ff809216901c1690565b1660ff1690565b6135af57601b915b613529613442565b613533858b612478565b5261353e848a612478565b5060005b6040811061357f575050509060019161357861355e838a612478565b5160f89290921b6001600160f81b03191660001a9161345d565b53016134a5565b808a6135a88261359d896135976134f28a988a61346d565b94612478565b519260001a9261346d565b5301613542565b601c91613521565b806135d86134f26135d26001946135cd886120e5565b6125d7565b8761346d565b60001a6135e5828561346d565b53016134bd565b5090506104216133cb565b60ff601b9116019060ff821161190f57565b9060418151036136cc5760009160208201519260606040840151930151901a90601b82106136bc575b60ff8216601b81141590816136b0575b506136a7576fa2a8918ca85bafe22016d0b997e4df60600160ff1b0383116136a757613693600093602095604051948594859094939260ff6060936080840197845216602083015260408201520152565b838052039060015afa15611af55760005190565b50505050600090565b601c9150141538613642565b906136c6906135f7565b90613632565b5050600090565b156136da57565b60405162461bcd60e51b815260206004820152602560248201527f436c61696d20696e64657865732f77656967687473206c656e677468206d69736044820152640dac2e8c6d60db1b6064820152608490fd5b1561373457565b60405162461bcd60e51b8152602060048201526019602482015278436c61696d20696e646578206f7574206f6620626f756e647360381b6044820152606490fd5b90815180825260208080930193019160005b828110613795575050505090565b835161ffff1685529381019392810192600101613787565b6020808252825161ffff16818301528083015160c06040840152805160e084018190526101008401959493929182019160005b82811061383b575050505060c060a061380e8495966040610421960151601f19868303016060870152613775565b606086015163ffffffff16608085015294608081015163ffffffff1684830152015163ffffffff16910152565b8351885296810196928101926001016137e0565b91602081019182515160409461386c6040850192835151146136d3565b845151928151519080519161388086612430565b9861388a87612430565b9860005b8a8c8a831061390157505050505050505050505060606138b191015161ffff1690565b916138c76138bd6105a8565b61ffff9094168452565b602083015260408201526000606082015260006080820152600060a08201526040516138fb816109526020820194856137ad565b51902090565b829161396683613960613958828f8f978f988f9b8f9a8f9d8f9c60019f61392d61396f9f869051612478565b5193828510156139755750505050613949906139509351612478565b5192612478565b525b51612478565b5161ffff1690565b92612478565b9061ffff169052565b0161388e565b6139838184969598946125d7565b8410156139b9575050506139a7612dcc6139b395612f96613960956139a795612bf8565b6001600160a01b031690565b52613952565b6139b39650612eee6139df956139d0939495612bf8565b9101613952815151831061372d565b515192612478565b90816000526003602052604060002054918215613a0357501490565b14919050565b9091906001600160a01b038116801561335e5760405190600191828152602092602082019687526040820192818452606094606084019566038d7ea4c680008752608085018060405285518751808203613b3257505050908391826000905b613af3575b505050835114600014613ac9576000885160008051602061450b833981519152613aa0885160405191829133958361102d565b0390a45b815103613abb5750506105b593519051913361447e565b9150916105b5945033614290565b60006040516000805160206144eb833981519152339180613aeb8989836141a9565b0390a4613aa4565b8651811015613b2d5780849160051b8801613b24613b1c8d6128fd878986015195015194610a13565b9182546125d7565b90550183613a68565b613a6d565b635b05999160e01b8352607f19918891613b4f916084840161102d565b030190fd5b9080601f830112156102bc576020908235613b6e81610cc5565b93613b7c6040519586610585565b81855260208086019260051b8201019283116102bc57602001905b828210613ba5575050505090565b838091613bb184610786565b815201910190613b97565b6020818303126102bc576001600160401b03908035908282116102bc57019160c0838203126102bc57613bed6105a8565b92613bf781610786565b845260208101358381116102bc5782613c11918301610cdc565b602085015260408101359283116102bc57613c3360a092613c60948301613b54565b6040850152613c4460608201610775565b6060850152613c5560808201610775565b608085015201610775565b60a082015290565b9060209081838203126102bc576001600160401b03928035908482116102bc570181601f820112156102bc578035613c9f81610cc5565b94613cad6040519687610585565b818652848087019260051b840101938085116102bc57858401925b858410613cd9575050505050505090565b83358381116102bc578791613cf3848480948a0101610616565b815201930192613cc8565b15613d0557565b60405162461bcd60e51b815260206004820152601c60248201527b084dec2e4c840c2e4e4c2f2e640d8cadccee8d040dad2e6dac2e8c6d60231b6044820152606490fd5b91909161ffff8080941691160191821161190f57565b90606461ffff8093160291821691820361190f57565b9061ffff809116918215613d8857160490565b634e487b7160e01b600052601260045260246000fd5b93949290613db290613dbb93810190613bbc565b94810190613c68565b926020810192835151613dd5604084019182515114613cfe565b6000928394845b87518051821080613eb4575b15613e815781613df791612478565b51613e06613958838751612478565b906001600160a01b038b81831115613e2b575b50505050613e2690612b91565b613ddc565b6139a7613e3f86613e46939d96979d612478565b518a613609565b911614613e65575b613e2691613e5b91613d49565b969038808b613e19565b9581613e77613e2693613e5b93613d49565b9791509150613e4e565b50509650929450505061ffff90818316156136a7575161ffff16908316106136cc57613eaf61042192613d5f565b613d75565b5089518210613de8565b90613edb91600160ff1b176000526000602052604060002061133a565b5415613ee357565b60405162461bcd60e51b81526020600482015260126024820152714e6f206469766964656e6420746f6b656e7360701b6044820152606490fd5b9491909181518451908181036124fa57505060005b8251811015613fff57600581901b83810160209081015191870101516001600160a01b03929186908a8516613f8f575b6001948216613f75575b50505001613f32565b613f85916128fd613b1c92610a13565b9055388581613f6c565b9192939050613fa18a6128fd84610a13565b54838110613fc85791879184600196959403613fc08d6128fd85610a13565b559450613f62565b6040516303dee4c560e01b81526001600160a01b038c16600482015260248101919091526044810184905260648101839052608490fd5b50949193929093600185511460001461409a576020850151602083015160018060a01b039160008051602061450b83398151915260405180614049868816968a169533958361102d565b0390a45b6001600160a01b038116614063575b5050505050565b84516001036140895760208061407f96015192015192336144b3565b388080808061405c565b6140959491923361437f565b61407f565b6040516001600160a01b03828116919085169033906000805160206144eb83398151915290806140cb888c836141a9565b0390a461404d565b908151156141a35760015b613e8081111561414c575b60405162461bcd60e51b815260206004820152603560248201527f496e76616c6964207061636b6564207369676e6174757265206c656e677468206044820152740b4818d85b9b9bdd0819195d1958dd0818dbdd5b9d605a1b6064820152608490fd5b8060061b8181046040148215171561190f5761417a9061417461416e846125c9565b60031c90565b906125d7565b83519080821461419c57116141975761419290612b91565b6140de565b6140e9565b5090925050565b60009150565b90916141c061042193604084526040840190610f0e565b916020818403910152610f0e565b908160209103126102bc575161042181610326565b9261421261042195936142209360018060a01b031686526000602087015260a0604087015260a0860190610f0e565b908482036060860152610f0e565b9160808184039101526103eb565b93906104219593614212916142209460018060a01b03809216885216602087015260a0604087015260a0860190610f0e565b3d1561428b573d90614271826105c4565b9161427f6040519384610585565b82523d6000602084013e565b606090565b9293919093843b6142a2575050505050565b6020916142c5604051948593849363bc197c8160e01b98898652600486016141e3565b038160006001600160a01b0388165af16000918161434e575b5061431757826142ec614260565b805191908261431057604051632bfa23e760e11b815280610e2e84600483016132ed565b6020915001fd5b6001600160e01b031916036143315750388080808061405c565b604051632bfa23e760e11b8152908190610e2e90600483016132ed565b61437191925060203d602011614378575b6143698183610585565b8101906141ce565b90386142de565b503d61435f565b939290949194853b614394575b505050505050565b6143b7602093604051958694859463bc197c8160e01b998a87526004870161422e565b038160006001600160a01b0388165af1600091816143f9575b506143de57826142ec614260565b6001600160e01b03191603614331575038808080808061438c565b61441391925060203d602011614378576143698183610585565b90386143d0565b909260a0926104219594600180861b03168352600060208401526040830152606082015281608082015201906103eb565b919261042195949160a094600180871b0380921685521660208401526040830152606082015281608082015201906103eb565b9293919093843b614490575050505050565b6020916142c5604051948593849363f23a6e6160e01b988986526004860161441a565b939290949194853b6144c757505050505050565b6143b7602093604051958694859463f23a6e6160e01b998a87526004870161444b56fe4a39dc06d4c0dbc64b70af90fd698a233a518aa5d07e595d983b8c0526c8f7fbc3d58168c5ae7397731d063d5bbf3d657854427343f4c083240f7aacaa2d0f6252629ba16cb44b809941f19e442f11a9973e93cc91be0d91df4afbe6e7c624cac9234525033c1ac098f69b4dc192ce416b13f69ec0b6de127022496be73337fda2646970667358221220b9e30203d6c7b189c2f10d4523eb9ef9ded882c3598355fe1a2f030911d09a2064736f6c63430008180033",
  "linkReferences": {},
  "deployedLinkReferences": {}
}