{
  "_format": "hh-sol-artifact-1",
  "contractName": "EntityProvider",
  "sourceName": "contracts/EntityProvider.sol",
  "abi": [
    {
      "inputs": [],
      "stateMutability": "nonpayable",
      "type": "constructor"
    },
    {
      "inputs": [
        {
          "internalType": "address",
          "name": "sender",
          "type": "address"
        },
        {
          "internalType": "uint256",
          "name": "balance",
          "type": "uint256"
        },
        {
          "internalType": "uint256",
          "name": "needed",
          "type": "uint256"
        },
        {
          "internalType": "uint256",
          "name": "tokenId",
          "type": "uint256"
        }
      ],
      "name": "ERC1155InsufficientBalance",
      "type": "error"
    },
    {
      "inputs": [
        {
          "internalType": "address",
          "name": "approver",
          "type": "address"
        }
      ],
      "name": "ERC1155InvalidApprover",
      "type": "error"
    },
    {
      "inputs": [
        {
          "internalType": "uint256",
          "name": "idsLength",
          "type": "uint256"
        },
        {
          "internalType": "uint256",
          "name": "valuesLength",
          "type": "uint256"
        }
      ],
      "name": "ERC1155InvalidArrayLength",
      "type": "error"
    },
    {
      "inputs": [
        {
          "internalType": "address",
          "name": "operator",
          "type": "address"
        }
      ],
      "name": "ERC1155InvalidOperator",
      "type": "error"
    },
    {
      "inputs": [
        {
          "internalType": "address",
          "name": "receiver",
          "type": "address"
        }
      ],
      "name": "ERC1155InvalidReceiver",
      "type": "error"
    },
    {
      "inputs": [
        {
          "internalType": "address",
          "name": "sender",
          "type": "address"
        }
      ],
      "name": "ERC1155InvalidSender",
      "type": "error"
    },
    {
      "inputs": [
        {
          "internalType": "address",
          "name": "operator",
          "type": "address"
        },
        {
          "internalType": "address",
          "name": "owner",
          "type": "address"
        }
      ],
      "name": "ERC1155MissingApprovalForAll",
      "type": "error"
    },
    {
      "inputs": [],
      "name": "InvalidHankoThreshold",
      "type": "error"
    },
    {
      "inputs": [],
      "name": "InvalidHankoWeight",
      "type": "error"
    },
    {
      "anonymous": false,
      "inputs": [
        {
          "indexed": true,
          "internalType": "address",
          "name": "account",
          "type": "address"
        },
        {
          "indexed": true,
          "internalType": "address",
          "name": "operator",
          "type": "address"
        },
        {
          "indexed": false,
          "internalType": "bool",
          "name": "approved",
          "type": "bool"
        }
      ],
      "name": "ApprovalForAll",
      "type": "event"
    },
    {
      "anonymous": false,
      "inputs": [
        {
          "indexed": true,
          "internalType": "bytes32",
          "name": "entityId",
          "type": "bytes32"
        },
        {
          "indexed": false,
          "internalType": "bytes32",
          "name": "newBoardHash",
          "type": "bytes32"
        }
      ],
      "name": "BoardActivated",
      "type": "event"
    },
    {
      "anonymous": false,
      "inputs": [
        {
          "indexed": true,
          "internalType": "bytes32",
          "name": "entityId",
          "type": "bytes32"
        },
        {
          "indexed": false,
          "internalType": "bytes32",
          "name": "proposedBoardHash",
          "type": "bytes32"
        }
      ],
      "name": "BoardProposed",
      "type": "event"
    },
    {
      "anonymous": false,
      "inputs": [
        {
          "indexed": true,
          "internalType": "bytes32",
          "name": "entityId",
          "type": "bytes32"
        },
        {
          "indexed": true,
          "internalType": "address",
          "name": "depository",
          "type": "address"
        },
        {
          "indexed": false,
          "internalType": "uint256",
          "name": "controlAmount",
          "type": "uint256"
        },
        {
          "indexed": false,
          "internalType": "uint256",
          "name": "dividendAmount",
          "type": "uint256"
        },
        {
          "indexed": false,
          "internalType": "string",
          "name": "purpose",
          "type": "string"
        }
      ],
      "name": "ControlSharesReleased",
      "type": "event"
    },
    {
      "anonymous": false,
      "inputs": [
        {
          "indexed": true,
          "internalType": "bytes32",
          "name": "entityId",
          "type": "bytes32"
        },
        {
          "indexed": true,
          "internalType": "uint256",
          "name": "entityNumber",
          "type": "uint256"
        },
        {
          "indexed": false,
          "internalType": "bytes32",
          "name": "boardHash",
          "type": "bytes32"
        }
      ],
      "name": "EntityRegistered",
      "type": "event"
    },
    {
      "anonymous": false,
      "inputs": [
        {
          "indexed": true,
          "internalType": "bytes32",
          "name": "entityId",
          "type": "bytes32"
        },
        {
          "indexed": false,
          "internalType": "uint256",
          "name": "controlTokenId",
          "type": "uint256"
        },
        {
          "indexed": false,
          "internalType": "uint256",
          "name": "dividendTokenId",
          "type": "uint256"
        }
      ],
      "name": "GovernanceEnabled",
      "type": "event"
    },
    {
      "anonymous": false,
      "inputs": [
        {
          "indexed": true,
          "internalType": "string",
          "name": "name",
          "type": "string"
        },
        {
          "indexed": true,
          "internalType": "uint256",
          "name": "entityNumber",
          "type": "uint256"
        }
      ],
      "name": "NameAssigned",
      "type": "event"
    },
    {
      "anonymous": false,
      "inputs": [
        {
          "indexed": true,
          "internalType": "string",
          "name": "name",
          "type": "string"
        },
        {
          "indexed": true,
          "internalType": "uint256",
          "name": "fromNumber",
          "type": "uint256"
        },
        {
          "indexed": true,
          "internalType": "uint256",
          "name": "toNumber",
          "type": "uint256"
        }
      ],
      "name": "NameTransferred",
      "type": "event"
    },
    {
      "anonymous": false,
      "inputs": [
        {
          "indexed": true,
          "internalType": "bytes32",
          "name": "entityId",
          "type": "bytes32"
        },
        {
          "indexed": false,
          "internalType": "enum EntityProvider.ProposerType",
          "name": "cancelledBy",
          "type": "uint8"
        }
      ],
      "name": "ProposalCancelled",
      "type": "event"
    },
    {
      "anonymous": false,
      "inputs": [
        {
          "indexed": true,
          "internalType": "address",
          "name": "operator",
          "type": "address"
        },
        {
          "indexed": true,
          "internalType": "address",
          "name": "from",
          "type": "address"
        },
        {
          "indexed": true,
          "internalType": "address",
          "name": "to",
          "type": "address"
        },
        {
          "indexed": false,
          "internalType": "uint256[]",
          "name": "ids",
          "type": "uint256[]"
        },
        {
          "indexed": false,
          "internalType": "uint256[]",
          "name": "values",
          "type": "uint256[]"
        }
      ],
      "name": "TransferBatch",
      "type": "event"
    },
    {
      "anonymous": false,
      "inputs": [
        {
          "indexed": true,
          "internalType": "address",
          "name": "operator",
          "type": "address"
        },
        {
          "indexed": true,
          "internalType": "address",
          "name": "from",
          "type": "address"
        },
        {
          "indexed": true,
          "internalType": "address",
          "name": "to",
          "type": "address"
        },
        {
          "indexed": false,
          "internalType": "uint256",
          "name": "id",
          "type": "uint256"
        },
        {
          "indexed": false,
          "internalType": "uint256",
          "name": "value",
          "type": "uint256"
        }
      ],
      "name": "TransferSingle",
      "type": "event"
    },
    {
      "anonymous": false,
      "inputs": [
        {
          "indexed": false,
          "internalType": "string",
          "name": "value",
          "type": "string"
        },
        {
          "indexed": true,
          "internalType": "uint256",
          "name": "id",
          "type": "uint256"
        }
      ],
      "name": "URI",
      "type": "event"
    },
    {
      "inputs": [],
      "name": "FOUNDATION_ENTITY",
      "outputs": [
        {
          "internalType": "uint256",
          "name": "",
          "type": "uint256"
        }
      ],
      "stateMutability": "view",
      "type": "function"
    },
    {
      "inputs": [],
      "name": "TOTAL_CONTROL_SUPPLY",
      "outputs": [
        {
          "internalType": "uint256",
          "name": "",
          "type": "uint256"
        }
      ],
      "stateMutability": "view",
      "type": "function"
    },
    {
      "inputs": [],
      "name": "TOTAL_DIVIDEND_SUPPLY",
      "outputs": [
        {
          "internalType": "uint256",
          "name": "",
          "type": "uint256"
        }
      ],
      "stateMutability": "view",
      "type": "function"
    },
    {
      "inputs": [
        {
          "internalType": "bytes32",
          "name": "entityId",
          "type": "bytes32"
        }
      ],
      "name": "activateBoard",
      "outputs": [],
      "stateMutability": "nonpayable",
      "type": "function"
    },
    {
      "inputs": [
        {
          "internalType": "bytes32",
          "name": "",
          "type": "bytes32"
        }
      ],
      "name": "activeProposals",
      "outputs": [
        {
          "internalType": "bytes32",
          "name": "proposedBoardHash",
          "type": "bytes32"
        },
        {
          "internalType": "enum EntityProvider.ProposerType",
          "name": "proposerType",
          "type": "uint8"
        },
        {
          "internalType": "uint256",
          "name": "proposeBlock",
          "type": "uint256"
        },
        {
          "internalType": "uint256",
          "name": "activateBlock",
          "type": "uint256"
        },
        {
          "internalType": "bool",
          "name": "active",
          "type": "bool"
        }
      ],
      "stateMutability": "view",
      "type": "function"
    },
    {
      "inputs": [
        {
          "internalType": "string",
          "name": "name",
          "type": "string"
        },
        {
          "internalType": "uint256",
          "name": "entityNumber",
          "type": "uint256"
        }
      ],
      "name": "assignName",
      "outputs": [],
      "stateMutability": "nonpayable",
      "type": "function"
    },
    {
      "inputs": [
        {
          "internalType": "address",
          "name": "account",
          "type": "address"
        },
        {
          "internalType": "uint256",
          "name": "id",
          "type": "uint256"
        }
      ],
      "name": "balanceOf",
      "outputs": [
        {
          "internalType": "uint256",
          "name": "",
          "type": "uint256"
        }
      ],
      "stateMutability": "view",
      "type": "function"
    },
    {
      "inputs": [
        {
          "internalType": "address[]",
          "name": "accounts",
          "type": "address[]"
        },
        {
          "internalType": "uint256[]",
          "name": "ids",
          "type": "uint256[]"
        }
      ],
      "name": "balanceOfBatch",
      "outputs": [
        {
          "internalType": "uint256[]",
          "name": "",
          "type": "uint256[]"
        }
      ],
      "stateMutability": "view",
      "type": "function"
    },
    {
      "inputs": [
        {
          "internalType": "bytes[]",
          "name": "hankoDataArray",
          "type": "bytes[]"
        },
        {
          "internalType": "bytes32[]",
          "name": "hashes",
          "type": "bytes32[]"
        }
      ],
      "name": "batchVerifyHankoSignatures",
      "outputs": [
        {
          "internalType": "bytes32[]",
          "name": "entityIds",
          "type": "bytes32[]"
        },
        {
          "internalType": "bool[]",
          "name": "results",
          "type": "bool[]"
        }
      ],
      "stateMutability": "view",
      "type": "function"
    },
    {
      "inputs": [
        {
          "internalType": "bytes32",
          "name": "",
          "type": "bytes32"
        }
      ],
      "name": "boardHashToEntityId",
      "outputs": [
        {
          "internalType": "bytes32",
          "name": "",
          "type": "bytes32"
        }
      ],
      "stateMutability": "view",
      "type": "function"
    },
    {
      "inputs": [
        {
          "internalType": "bytes32",
          "name": "entityId",
          "type": "bytes32"
        },
        {
          "internalType": "enum EntityProvider.ProposerType",
          "name": "proposerType",
          "type": "uint8"
        },
        {
          "components": [
            {
              "internalType": "uint32",
              "name": "controlDelay",
              "type": "uint32"
            },
            {
              "internalType": "uint32",
              "name": "dividendDelay",
              "type": "uint32"
            },
            {
              "internalType": "uint32",
              "name": "foundationDelay",
              "type": "uint32"
            },
            {
              "internalType": "uint16",
              "name": "controlThreshold",
              "type": "uint16"
            }
          ],
          "internalType": "struct EntityProvider.EntityArticles",
          "name": "articles",
          "type": "tuple"
        }
      ],
      "name": "cancelBoardProposal",
      "outputs": [],
      "stateMutability": "nonpayable",
      "type": "function"
    },
    {
      "inputs": [
        {
          "internalType": "bytes32",
          "name": "",
          "type": "bytes32"
        }
      ],
      "name": "entities",
      "outputs": [
        {
          "internalType": "bytes32",
          "name": "currentBoardHash",
          "type": "bytes32"
        },
        {
          "internalType": "bytes32",
          "name": "proposedBoardHash",
          "type": "bytes32"
        },
        {
          "internalType": "uint256",
          "name": "activateAtBlock",
          "type": "uint256"
        },
        {
          "internalType": "uint256",
          "name": "registrationBlock",
          "type": "uint256"
        },
        {
          "internalType": "enum EntityProvider.ProposerType",
          "name": "proposerType",
          "type": "uint8"
        },
        {
          "internalType": "bytes32",
          "name": "articlesHash",
          "type": "bytes32"
        }
      ],
      "stateMutability": "view",
      "type": "function"
    },
    {
      "inputs": [
        {
          "internalType": "bytes32",
          "name": "",
          "type": "bytes32"
        }
      ],
      "name": "entityActionNonces",
      "outputs": [
        {
          "internalType": "uint256",
          "name": "",
          "type": "uint256"
        }
      ],
      "stateMutability": "view",
      "type": "function"
    },
    {
      "inputs": [
        {
          "internalType": "bytes32",
          "name": "",
          "type": "bytes32"
        }
      ],
      "name": "entityIdToNumber",
      "outputs": [
        {
          "internalType": "uint256",
          "name": "",
          "type": "uint256"
        }
      ],
      "stateMutability": "view",
      "type": "function"
    },
    {
      "inputs": [
        {
          "internalType": "uint256",
          "name": "entityNumber",
          "type": "uint256"
        },
        {
          "internalType": "address",
          "name": "to",
          "type": "address"
        },
        {
          "internalType": "uint256",
          "name": "tokenId",
          "type": "uint256"
        },
        {
          "internalType": "uint256",
          "name": "amount",
          "type": "uint256"
        },
        {
          "internalType": "bytes",
          "name": "encodedBoard",
          "type": "bytes"
        },
        {
          "internalType": "bytes",
          "name": "encodedSignature",
          "type": "bytes"
        }
      ],
      "name": "entityTransferTokens",
      "outputs": [],
      "stateMutability": "nonpayable",
      "type": "function"
    },
    {
      "inputs": [
        {
          "internalType": "bytes32",
          "name": "boardHash",
          "type": "bytes32"
        },
        {
          "components": [
            {
              "internalType": "uint32",
              "name": "controlDelay",
              "type": "uint32"
            },
            {
              "internalType": "uint32",
              "name": "dividendDelay",
              "type": "uint32"
            },
            {
              "internalType": "uint32",
              "name": "foundationDelay",
              "type": "uint32"
            },
            {
              "internalType": "uint16",
              "name": "controlThreshold",
              "type": "uint16"
            }
          ],
          "internalType": "struct EntityProvider.EntityArticles",
          "name": "articles",
          "type": "tuple"
        }
      ],
      "name": "foundationRegisterEntity",
      "outputs": [
        {
          "internalType": "uint256",
          "name": "entityNumber",
          "type": "uint256"
        }
      ],
      "stateMutability": "nonpayable",
      "type": "function"
    },
    {
      "inputs": [
        {
          "internalType": "uint256",
          "name": "tokenId",
          "type": "uint256"
        }
      ],
      "name": "getEntityFromToken",
      "outputs": [
        {
          "internalType": "uint256",
          "name": "entityNumber",
          "type": "uint256"
        }
      ],
      "stateMutability": "pure",
      "type": "function"
    },
    {
      "inputs": [
        {
          "internalType": "bytes32",
          "name": "entityId",
          "type": "bytes32"
        }
      ],
      "name": "getEntityInfo",
      "outputs": [
        {
          "internalType": "bool",
          "name": "exists",
          "type": "bool"
        },
        {
          "internalType": "bytes32",
          "name": "currentBoardHash",
          "type": "bytes32"
        },
        {
          "internalType": "bytes32",
          "name": "proposedBoardHash",
          "type": "bytes32"
        },
        {
          "internalType": "uint256",
          "name": "registrationBlock",
          "type": "uint256"
        },
        {
          "internalType": "string",
          "name": "name",
          "type": "string"
        }
      ],
      "stateMutability": "view",
      "type": "function"
    },
    {
      "inputs": [
        {
          "internalType": "uint256",
          "name": "entityNumber",
          "type": "uint256"
        }
      ],
      "name": "getGovernanceInfo",
      "outputs": [
        {
          "internalType": "uint256",
          "name": "controlTokenId",
          "type": "uint256"
        },
        {
          "internalType": "uint256",
          "name": "dividendTokenId",
          "type": "uint256"
        },
        {
          "internalType": "uint256",
          "name": "controlSupply",
          "type": "uint256"
        },
        {
          "internalType": "uint256",
          "name": "dividendSupply",
          "type": "uint256"
        },
        {
          "internalType": "bool",
          "name": "hasActiveProposal",
          "type": "bool"
        },
        {
          "internalType": "bytes32",
          "name": "articlesHash",
          "type": "bytes32"
        }
      ],
      "stateMutability": "view",
      "type": "function"
    },
    {
      "inputs": [
        {
          "internalType": "uint256",
          "name": "entityNumber",
          "type": "uint256"
        }
      ],
      "name": "getTokenIds",
      "outputs": [
        {
          "internalType": "uint256",
          "name": "controlTokenId",
          "type": "uint256"
        },
        {
          "internalType": "uint256",
          "name": "dividendTokenId",
          "type": "uint256"
        }
      ],
      "stateMutability": "pure",
      "type": "function"
    },
    {
      "inputs": [
        {
          "internalType": "address",
          "name": "account",
          "type": "address"
        },
        {
          "internalType": "address",
          "name": "operator",
          "type": "address"
        }
      ],
      "name": "isApprovedForAll",
      "outputs": [
        {
          "internalType": "bool",
          "name": "",
          "type": "bool"
        }
      ],
      "stateMutability": "view",
      "type": "function"
    },
    {
      "inputs": [
        {
          "internalType": "address",
          "name": "",
          "type": "address"
        }
      ],
      "name": "nameQuota",
      "outputs": [
        {
          "internalType": "uint8",
          "name": "",
          "type": "uint8"
        }
      ],
      "stateMutability": "view",
      "type": "function"
    },
    {
      "inputs": [
        {
          "internalType": "string",
          "name": "",
          "type": "string"
        }
      ],
      "name": "nameToNumber",
      "outputs": [
        {
          "internalType": "uint256",
          "name": "",
          "type": "uint256"
        }
      ],
      "stateMutability": "view",
      "type": "function"
    },
    {
      "inputs": [],
      "name": "nextNumber",
      "outputs": [
        {
          "internalType": "uint256",
          "name": "",
          "type": "uint256"
        }
      ],
      "stateMutability": "view",
      "type": "function"
    },
    {
      "inputs": [
        {
          "internalType": "uint256",
          "name": "",
          "type": "uint256"
        }
      ],
      "name": "numberToName",
      "outputs": [
        {
          "internalType": "string",
          "name": "",
          "type": "string"
        }
      ],
      "stateMutability": "view",
      "type": "function"
    },
    {
      "inputs": [
        {
          "internalType": "bytes32",
          "name": "entityId",
          "type": "bytes32"
        },
        {
          "internalType": "bytes32",
          "name": "newBoardHash",
          "type": "bytes32"
        },
        {
          "internalType": "enum EntityProvider.ProposerType",
          "name": "proposerType",
          "type": "uint8"
        },
        {
          "components": [
            {
              "internalType": "uint32",
              "name": "controlDelay",
              "type": "uint32"
            },
            {
              "internalType": "uint32",
              "name": "dividendDelay",
              "type": "uint32"
            },
            {
              "internalType": "uint32",
              "name": "foundationDelay",
              "type": "uint32"
            },
            {
              "internalType": "uint16",
              "name": "controlThreshold",
              "type": "uint16"
            }
          ],
          "internalType": "struct EntityProvider.EntityArticles",
          "name": "articles",
          "type": "tuple"
        }
      ],
      "name": "proposeBoard",
      "outputs": [],
      "stateMutability": "nonpayable",
      "type": "function"
    },
    {
      "inputs": [
        {
          "internalType": "bytes",
          "name": "encodedBoard",
          "type": "bytes"
        },
        {
          "internalType": "bytes",
          "name": "encodedSignature",
          "type": "bytes"
        },
        {
          "internalType": "bytes32",
          "name": "hash",
          "type": "bytes32"
        }
      ],
      "name": "recoverEntity",
      "outputs": [
        {
          "internalType": "uint256",
          "name": "entityId",
          "type": "uint256"
        }
      ],
      "stateMutability": "view",
      "type": "function"
    },
    {
      "inputs": [
        {
          "internalType": "bytes32[]",
          "name": "boardHashes",
          "type": "bytes32[]"
        }
      ],
      "name": "registerNumberedEntitiesBatch",
      "outputs": [
        {
          "internalType": "uint256[]",
          "name": "entityNumbers",
          "type": "uint256[]"
        }
      ],
      "stateMutability": "nonpayable",
      "type": "function"
    },
    {
      "inputs": [
        {
          "internalType": "bytes32",
          "name": "boardHash",
          "type": "bytes32"
        }
      ],
      "name": "registerNumberedEntity",
      "outputs": [
        {
          "internalType": "uint256",
          "name": "entityNumber",
          "type": "uint256"
        }
      ],
      "stateMutability": "nonpayable",
      "type": "function"
    },
    {
      "inputs": [
        {
          "internalType": "uint256",
          "name": "entityNumber",
          "type": "uint256"
        },
        {
          "internalType": "address",
          "name": "depository",
          "type": "address"
        },
        {
          "internalType": "uint256",
          "name": "controlAmount",
          "type": "uint256"
        },
        {
          "internalType": "uint256",
          "name": "dividendAmount",
          "type": "uint256"
        },
        {
          "internalType": "string",
          "name": "purpose",
          "type": "string"
        },
        {
          "internalType": "bytes",
          "name": "encodedBoard",
          "type": "bytes"
        },
        {
          "internalType": "bytes",
          "name": "encodedSignature",
          "type": "bytes"
        }
      ],
      "name": "releaseControlShares",
      "outputs": [],
      "stateMutability": "nonpayable",
      "type": "function"
    },
    {
      "inputs": [
        {
          "internalType": "string",
          "name": "",
          "type": "string"
        }
      ],
      "name": "reservedNames",
      "outputs": [
        {
          "internalType": "bool",
          "name": "",
          "type": "bool"
        }
      ],
      "stateMutability": "view",
      "type": "function"
    },
    {
      "inputs": [
        {
          "internalType": "string",
          "name": "identifier",
          "type": "string"
        }
      ],
      "name": "resolveEntityId",
      "outputs": [
        {
          "internalType": "bytes32",
          "name": "",
          "type": "bytes32"
        }
      ],
      "stateMutability": "view",
      "type": "function"
    },
    {
      "inputs": [
        {
          "internalType": "address",
          "name": "from",
          "type": "address"
        },
        {
          "internalType": "address",
          "name": "to",
          "type": "address"
        },
        {
          "internalType": "uint256[]",
          "name": "ids",
          "type": "uint256[]"
        },
        {
          "internalType": "uint256[]",
          "name": "values",
          "type": "uint256[]"
        },
        {
          "internalType": "bytes",
          "name": "data",
          "type": "bytes"
        }
      ],
      "name": "safeBatchTransferFrom",
      "outputs": [],
      "stateMutability": "nonpayable",
      "type": "function"
    },
    {
      "inputs": [
        {
          "internalType": "address",
          "name": "from",
          "type": "address"
        },
        {
          "internalType": "address",
          "name": "to",
          "type": "address"
        },
        {
          "internalType": "uint256",
          "name": "id",
          "type": "uint256"
        },
        {
          "internalType": "uint256",
          "name": "value",
          "type": "uint256"
        },
        {
          "internalType": "bytes",
          "name": "data",
          "type": "bytes"
        }
      ],
      "name": "safeTransferFrom",
      "outputs": [],
      "stateMutability": "nonpayable",
      "type": "function"
    },
    {
      "inputs": [
        {
          "internalType": "address",
          "name": "operator",
          "type": "address"
        },
        {
          "internalType": "bool",
          "name": "approved",
          "type": "bool"
        }
      ],
      "name": "setApprovalForAll",
      "outputs": [],
      "stateMutability": "nonpayable",
      "type": "function"
    },
    {
      "inputs": [
        {
          "internalType": "address",
          "name": "user",
          "type": "address"
        },
        {
          "internalType": "uint8",
          "name": "quota",
          "type": "uint8"
        }
      ],
      "name": "setNameQuota",
      "outputs": [],
      "stateMutability": "nonpayable",
      "type": "function"
    },
    {
      "inputs": [
        {
          "internalType": "string",
          "name": "name",
          "type": "string"
        },
        {
          "internalType": "bool",
          "name": "reserved",
          "type": "bool"
        }
      ],
      "name": "setReservedName",
      "outputs": [],
      "stateMutability": "nonpayable",
      "type": "function"
    },
    {
      "inputs": [
        {
          "internalType": "bytes4",
          "name": "interfaceId",
          "type": "bytes4"
        }
      ],
      "name": "supportsInterface",
      "outputs": [
        {
          "internalType": "bool",
          "name": "",
          "type": "bool"
        }
      ],
      "stateMutability": "view",
      "type": "function"
    },
    {
      "inputs": [
        {
          "internalType": "bytes32",
          "name": "",
          "type": "bytes32"
        }
      ],
      "name": "totalControlSupply",
      "outputs": [
        {
          "internalType": "uint256",
          "name": "",
          "type": "uint256"
        }
      ],
      "stateMutability": "view",
      "type": "function"
    },
    {
      "inputs": [
        {
          "internalType": "bytes32",
          "name": "",
          "type": "bytes32"
        }
      ],
      "name": "totalDividendSupply",
      "outputs": [
        {
          "internalType": "uint256",
          "name": "",
          "type": "uint256"
        }
      ],
      "stateMutability": "view",
      "type": "function"
    },
    {
      "inputs": [
        {
          "internalType": "string",
          "name": "name",
          "type": "string"
        },
        {
          "internalType": "uint256",
          "name": "newEntityNumber",
          "type": "uint256"
        }
      ],
      "name": "transferName",
      "outputs": [],
      "stateMutability": "nonpayable",
      "type": "function"
    },
    {
      "inputs": [
        {
          "internalType": "uint256",
          "name": "",
          "type": "uint256"
        }
      ],
      "name": "uri",
      "outputs": [
        {
          "internalType": "string",
          "name": "",
          "type": "string"
        }
      ],
      "stateMutability": "view",
      "type": "function"
    },
    {
      "inputs": [
        {
          "internalType": "bytes",
          "name": "hankoData",
          "type": "bytes"
        },
        {
          "internalType": "bytes32",
          "name": "hash",
          "type": "bytes32"
        }
      ],
      "name": "verifyHankoSignature",
      "outputs": [
        {
          "internalType": "bytes32",
          "name": "entityId",
          "type": "bytes32"
        },
        {
          "internalType": "bool",
          "name": "success",
          "type": "bool"
        }
      ],
      "stateMutability": "view",
      "type": "function"
    }
  ],
  "bytecode": "0x60406080815234620002a1576200001f620000196200034a565b620005d9565b6200002a6001600455565b6200005d62000050602860405167636f696e6261736560c01b8152600960088201522090565b805460ff19166001179055565b6200008362000050602860405167657468657265756d60c01b8152600960088201522090565b620000a8620000506027604051663134ba31b7b4b760c91b8152600960078201522090565b620000cd620000506027604051660756e69737761760cc1b8152600960078201522090565b620001a8620000db620002e6565b6103e88152610bb860208201526000818401526033606082015282516200014d816200013e602082019485919091606061ffff81608084019563ffffffff8082511686528060208301511660208701526040820151166040860152015116910152565b03601f198101835282620002bc565b5190206200015a62000306565b90600080516020620054c28339815191528252600060208301526000848301524360608301526000608083015260a0820152620001a260016000526003602052604060002090565b62000394565b600080516020620054c28339815191526000526005602052620001ec7f74200ea895bf928b4f7f757e476376824e228602fd097916a944e1e2ff4408555b60019055565b60016000526006602052620002217f3e5fec24aa4dc4e5aee2e025e51e1392c72a2500577559fae9665c6d52bd6a31620001e6565b60017f52629ba16cb44b809941f19e442f11a9973e93cc91be0d91df4afbe6e7c624ca6001600160ff1b0182620002626200025b62000326565b82620003fb565b620002776200027062000326565b83620003fb565b84519081526020810191909152604090a2620002936002600455565b516149dc908162000ae68239f35b600080fd5b634e487b7160e01b600052604160045260246000fd5b601f909101601f19168101906001600160401b03821190821017620002e057604052565b620002a6565b60405190608082016001600160401b03811183821017620002e057604052565b6040519060c082016001600160401b03811183821017620002e057604052565b60405190602082016001600160401b03811183821017620002e05760405260008252565b60408051919082016001600160401b03811183821017620002e057604052602082527f68747470733a2f2f786c6e2e636f6d2f656e746974792f7b69647d2e6a736f6e6020830152565b908051825560208101516001830155604081015160028301556060810151600383015560048201906080810151906003821015620003e55760059260a09260ff801983541691161790550151910155565b634e487b7160e01b600052602160045260246000fd5b906040519160019060018452602084019081526040840160018152606085019266038d7ea4c68000845260808601604052620004388287620009cf565b6000815b62000471575b50508451600103620004625750620004609350519051903362000971565b565b91505062000460923362000854565b86518110156200053b5781816200049b6200048e83948b620006d4565b516001600160ff1b031690565b620004b0816000526003602052604060002090565b54620004c0575b5001906200043c565b80620004cd838c620006d4565b51036200050d5762000503620004fa620004e88489620006d4565b5192600052600c602052604060002090565b918254620006ff565b90555b38620004b7565b62000533620004fa620005218489620006d4565b5192600052600d602052604060002090565b905562000506565b62000442565b90600182811c9216801562000573575b60208310146200055d57565b634e487b7160e01b600052602260045260246000fd5b91607f169162000551565b601f81116200058b575050565b60009060026000526020600020906020601f850160051c83019410620005ce575b601f0160051c01915b828110620005c257505050565b818155600101620005b5565b9092508290620005ac565b80519091906001600160401b038111620002e0576200060581620005ff60025462000541565b6200057e565b602080601f83116001146200064c575081906200063b939460009262000640575b50508160011b916000199060031b1c19161790565b600255565b01519050388062000626565b6002600052601f198316949091907f405787fa12a823e0f2b7631cc41b3ba8828b3321ca811111fa75cd3aa3bb5ace926000905b878210620006bb575050836001959610620006a1575b505050811b01600255565b015160001960f88460031b161c1916905538808062000696565b8060018596829496860151815501950193019062000680565b8051821015620006e95760209160051b010190565b634e487b7160e01b600052603260045260246000fd5b919082018092116200070d57565b634e487b7160e01b600052601160045260246000fd5b90816020910312620002a157516001600160e01b031981168103620002a15790565b90815180825260208080930193019160005b82811062000766575050505090565b83518552938101939281019260010162000757565b919082519283825260005b848110620007a8575050826000602080949584010152601f8019910116010190565b60208183018101518483018201520162000786565b92620007f06200080e9593620007ff9360018060a01b031686526000602087015260a0604087015260a086019062000745565b90848203606086015262000745565b9160808184039101526200077b565b90565b3d156200084f573d906001600160401b038211620002e0576040519162000843601f8201601f191660200184620002bc565b82523d6000602084013e565b606090565b929160013b62000865575b50505050565b6020916200088a604051948593849363bc197c8160e01b9889865260048601620007bd565b0381600060015af16000918162000906575b50620008d357620008ac62000811565b80519081620008ce57604051632bfa23e760e11b815260016004820152602490fd5b602001fd5b6001600160e01b03191603620008ed57388080806200085f565b604051632bfa23e760e11b815260016004820152602490fd5b6200092e91925060203d60201162000936575b620009258183620002bc565b81019062000723565b90386200089c565b503d62000919565b909260a0926200080e9594600180861b03168352600060208401526040830152606082015281608082015201906200077b565b929160013b620009815750505050565b6020916200088a604051948593849363f23a6e6160e01b98898652600486016200093e565b9091620009c06200080e9360408452604084019062000745565b91602081840391015262000745565b919091805183519081810362000ac357505060005b815181101562000a38578060019160051b62000a2f620004fa62000a1f6020808589010151948a010151936000526000602052604060002090565b6001600052602052604060002090565b905501620009e4565b506001919260009183815114831462000a8e5760209081015191810151604080519384529183015233917fc3d58168c5ae7397731d063d5bbf3d657854427343f4c083240f7aacaa2d0f6291819081015b0390a4565b60405133927f4a39dc06d4c0dbc64b70af90fd698a233a518aa5d07e595d983b8c0526c8f7fb92829162000a899183620009a6565b604051635b05999160e01b815260048101919091526024810191909152604490fdfe6080604052600436101561001257600080fd5b60003560e01c8062fdd58e146102c157806301ffc9a7146102bc57806303db7616146102265780630c5938b6146102b75780630e89341c146102b25780630ebf19c6146102ad5780631e76fea5146102a85780631ed3d440146102a357806326760ce61461029e5780632a20cc80146102995780632ba4fd9e146102945780632eb2c2d61461028f5780632fae4ffd1461028a578063311cf8eb146102855780634e1273f414610280578063504d23ea1461027b57806357991d30146102765780635a7931c8146102715780635b70ae411461026c5780636702bc7714610267578063680c3ff21461026257806368436f101461025d5780637ea397c8146102585780638193e00714610253578063820eec5f1461024e578063848202fe146102495780638aad0628146102445780638c67e1691461023f5780638d197ec71461023a5780638dbe6c38146102355780639248cd4314610230578063a22cb4651461022b578063a74f77e714610226578063c83fa48e14610221578063cce415981461021c578063d8cb5fd514610217578063d93e68d614610212578063e1657b8a1461020d578063e5b338fd14610208578063e8f4803114610203578063e985e9c5146101fe578063edd2133b146101f95763f242432a146101f457600080fd5b6120a5565b611fe5565b611f75565b611f59565b611eeb565b611e1f565b611dc4565b611bdc565b611a9a565b6118d4565b6103c6565b61183b565b6117b0565b611635565b61160e565b6115e2565b611596565b611578565b61142c565b6113ef565b611374565b61134e565b61124c565b6111c8565b61116f565b611107565b6110b1565b611080565b610fc6565b610f55565b610f3d565b610daf565b610d0c565b610c9c565b610b8c565b610b4c565b61095d565b6106fe565b6104c0565b610438565b610358565b61030b565b600435906001600160a01b03821682036102dc57565b600080fd5b602435906001600160a01b03821682036102dc57565b35906001600160a01b03821682036102dc57565b346102dc5760403660031901126102dc57602061033d6103296102c6565b6024356000526000835260406000206113d8565b54604051908152f35b6001600160e01b03198116036102dc57565b346102dc5760203660031901126102dc57602060043561037781610346565b63ffffffff60e01b16636cdb3d1360e11b81149081156103b5575b81156103a4575b506040519015158152f35b6301ffc9a760e01b14905038610399565b6303a24d0760e21b81149150610392565b346102dc5760003660031901126102dc57602060405166038d7ea4c680008152f35b6000526003602052604060002090565b6000526008602052604060002090565b6000526005602052604060002090565b600052600e602052604060002090565b6000526000602052604060002090565b346102dc5760203660031901126102dc5760043560005260056020526020604060002054604051908152f35b60005b8381106104775750506000910152565b8181015183820152602001610467565b906020916104a081518092818552858086019101610464565b601f01601f1916010190565b9060206104bd928181520190610487565b90565b346102dc576020806003193601126102dc576040516000916002546104e481610a6f565b8084529060019081811690811561055e575060011461051e575b61051a8461050e81880382610621565b604051918291826104ac565b0390f35b919350600260005283600020916000925b82841061054b575050508161051a9361050e92820101936104fe565b805485850187015292850192810161052f565b60ff1916858501525050151560051b820101915061050e8161051a6104fe565b634e487b7160e01b600052604160045260246000fd5b608081019081106001600160401b038211176105af57604052565b61057e565b60c081019081106001600160401b038211176105af57604052565b606081019081106001600160401b038211176105af57604052565b61010081019081106001600160401b038211176105af57604052565b602081019081106001600160401b038211176105af57604052565b601f909101601f19168101906001600160401b038211908210176105af57604052565b60405190610651826105b4565b565b6040519061065182610594565b6001600160401b0381116105af57601f01601f191660200190565b92919261068782610660565b916106956040519384610621565b8294818452818301116102dc578281602093846000960137010152565b9080601f830112156102dc578160206104bd9335910161067b565b60406003198201126102dc57600435906001600160401b0382116102dc576106f7916004016106b2565b9060243590565b346102dc5761070c366106cd565b600091600183528260205261072f61072733604086206113d8565b541515612150565b61073881610ef1565b54156107ba5761075261074a836103e8565b54151561219c565b61079361075e82610ef1565b549161077161076c846103f8565b612229565b8361077b82610ef1565b5561078e81610789866103f8565b6122b7565b61238c565b7fea3298815689e7c88c8a95c13838806450c4cee965a7c33dda77b335f64565788480a480f35b60405162461bcd60e51b815260206004820152601160248201527013985b59481b9bdd08185cdcda59db9959607a1b6044820152606490fd5b6024359060038210156102dc57565b6044359060038210156102dc57565b359063ffffffff821682036102dc57565b359061ffff821682036102dc57565b60809060431901126102dc576040519061084a82610594565b8163ffffffff60443581811681036102dc57825260643581811681036102dc57602083015260843590811681036102dc57604082015260a4359061ffff821682036102dc5760600152565b60809060631901126102dc57604051906108ae82610594565b8163ffffffff60643581811681036102dc57825260843581811681036102dc57602083015260a43590811681036102dc57604082015260c4359061ffff821682036102dc5760600152565b60809060231901126102dc576040519061091282610594565b8163ffffffff60243581811681036102dc57825260443581811681036102dc57602083015260643590811681036102dc5760408201526084359061ffff821682036102dc5760600152565b346102dc5760c03660031901126102dc576004357f1022d6ed189b00c6d01d0bdfcc78a25b81a33fc04c61bc53abf2de6bbc60f375610a6a61099d6107f3565b610a19816109aa36610831565b6109be6109b6886103e8565b5415156123ac565b6109d560016109cc896103e8565b015415156123ef565b610a1260405160208101906109fc816109ee868561242f565b03601f198101835282610621565b5190206005610a0a8a6103e8565b015414612467565b33876133d1565b610a40610a3b610a356004610a2d886103e8565b015460ff1690565b836134b1565b6124a6565b60006001610a4d866103e8565b015560006002610a5c866103e8565b0155604051918291826124f0565b0390a2005b90600182811c92168015610a9f575b6020831014610a8957565b634e487b7160e01b600052602260045260246000fd5b91607f1691610a7e565b90604051918260008254610abc81610a6f565b90818452602094600191600181169081600014610b2a5750600114610aeb575b50505061065192500383610621565b600090815285812095935091905b818310610b125750506106519350820101388080610adc565b85548884018501529485019487945091830191610af9565b9250505061065194925060ff191682840152151560051b820101388080610adc565b346102dc5760203660031901126102dc57600435600052600860205261051a610b786040600020610aa9565b604051918291602083526020830190610487565b346102dc57610b9a366106cd565b6000916001835282602052610bb561072733604086206113d8565b80518015159081610c90575b5015610c5557610c1d90610bd76109b6846103e8565b610bea610be382610ef1565b5415612500565b83610bfc610bf7856103f8565b610aa9565b8051610c44575b505082610c0f82610ef1565b5561078e81610789856103f8565b7f0d74c26d085287bcf3070f20f8d884a204aa6f73949ab189d58abd345b1cac948380a380f35b610c4d90610ef1565b558338610c03565b60405162461bcd60e51b8152602060048201526013602482015272092dcecc2d8d2c840dcc2daca40d8cadccee8d606b1b6044820152606490fd5b60209150111538610bc1565b346102dc5760203660031901126102dc5760c060043580600052600c602052604060002054600d60205260406000205460036020526040600020906005600183015415159201549260405194808652600160ff1b17602086015260408501526060840152608083015260a0820152f35b346102dc5760203660031901126102dc5760043560005260066020526020604060002054604051908152f35b6001600160401b0381116105af5760051b60200190565b9080601f830112156102dc576020908235610d6981610d38565b93610d776040519586610621565b81855260208086019260051b8201019283116102dc57602001905b828210610da0575050505090565b81358152908301908301610d92565b346102dc5760a03660031901126102dc57610dc86102c6565b610dd06102e1565b60443591906001600160401b03908184116102dc57610df460049436908601610d4f565b906064358381116102dc57610e0c9036908701610d4f565b926084359081116102dc57610e2490369087016106b2565b936001600160a01b03808216903382141580610ea5575b610e8657831615610e6e5715610e5757610e559550614118565b005b604051626a0d4560e21b8152600081880152602490fd5b604051632bfa23e760e11b8152600081890152602490fd5b60405163711bec9160e11b815280610ea18533838d01612544565b0390fd5b5081600052600160205260ff610ebf3360406000206113d8565b541615610e3b565b60206003198201126102dc57600435906001600160401b0382116102dc576104bd916004016106b2565b6020610f0a918160405193828580945193849201610464565b8101600781520301902090565b6020610f30918160405193828580945193849201610464565b8101600981520301902090565b346102dc57602061033d610f5036610ec7565b610ef1565b346102dc5760203660031901126102dc57600435600052600c6020526020604060002054604051908152f35b90815180825260208080930193019160005b828110610fa1575050505090565b835185529381019392810192600101610f93565b9060206104bd928181520190610f81565b346102dc5760403660031901126102dc576004356001600160401b038082116102dc57366023830112156102dc57816004013561100281610d38565b926110106040519485610621565b8184526020916024602086019160051b830101913683116102dc57602401905b82821061106957856024358681116102dc5761051a9161105761105d923690600401610d4f565b906125bf565b60405191829182610fb5565b838091611075846102f7565b815201910190611030565b346102dc57602061109861109336610ec7565b612644565b604051908152f35b908152602081019190915260400190565b346102dc5760203660031901126102dc576040518061051a600435600160ff1b811790836110a0565b600311156110e457565b634e487b7160e01b600052602160045260246000fd5b9060038210156110e45752565b346102dc5760203660031901126102dc57600435600052600b60205260a0604060002080549060ff60018201541690600281015461115c60ff60046003850154940154169360405195865260208601906110fa565b6040840152606083015215156080820152f35b346102dc5760203660031901126102dc57600435600052600d6020526020604060002054604051908152f35b9181601f840112156102dc578235916001600160401b0383116102dc57602083818601950101116102dc57565b346102dc5760e03660031901126102dc576111e16102e1565b6001600160401b03906084358281116102dc5761120290369060040161119b565b60a4929192358481116102dc5761121d90369060040161119b565b9160c4359586116102dc57611239610e5596369060040161119b565b95909460643590604435906004356128b1565b346102dc5760203660031901126102dc5760043561126c6109b6826103e8565b61127a60016109cc836103e8565b6112926002611288836103e8565b0154431015612acb565b806112e760016112a1836103e8565b01546112c26112af82610408565b54848115918215611344575b5050612b0e565b60006112d66112d0856103e8565b54610408565b55806112e1846103e8565b55610408565b55600060016112f5836103e8565b015560006002611304836103e8565b01557f30b47f773c1d2a65ce0ef667c3b123d5abd927c62b56907569c0daf51cd65150610a6a611333836103e8565b546040519081529081906020820190565b14905084386112bb565b346102dc57602060ff61136861136336610ec7565b610f17565b54166040519015158152f35b346102dc5760403660031901126102dc5761138d6102c6565b60243560ff81168091036102dc5760009160018352826020526113b661072733604086206113d8565b6001600160a01b03168252600a60205260408220805460ff1916909117905580f35b9060018060a01b0316600052602052604060002090565b346102dc5760203660031901126102dc576001600160a01b036114106102c6565b16600052600a602052602060ff60406000205416604051908152f35b346102dc5760e03660031901126102dc576004357fc4e5e67fff3ba4bffbe07d84c897dbf61a0027b703754b45a5c9de6b58bfd793610a6a60243561153a611472610802565b61150e63ffffffff61148336610895565b61148f6109b68a6103e8565b61149a861515612b5a565b6114b86114a687610408565b548a811591821561156e575050612b0e565b6114df60405160208101906114d1816109ee868561242f565b5190206005610a0a8c6103e8565b6114f5846114ed8184613582565b92338c6133d1565b60016115008a6103e8565b015461154a575b1643612710565b83600161151a896103e8565b01556002611527886103e8565b01556004611534876103e8565b01612bf1565b6040519081529081906020820190565b61156961156461155e6004610a2d8d6103e8565b866134b1565b612b9b565b611507565b1490508a386112bb565b346102dc5760003660031901126102dc576020600454604051908152f35b346102dc5760403660031901126102dc576004356001600160401b0381116102dc576115d46115cb604092369060040161119b565b60243591612e84565b825191825215156020820152f35b346102dc5760203660031901126102dc57600435600052600e6020526020604060002054604051908152f35b346102dc5760203660031901126102dc576040516004356001600160ff1b03168152602090f35b346102dc5760a03660031901126102dc5761051a600435611655366108f9565b906000916001835282602052600080516020614967833981519152611784604093611685610727338789206113d8565b611690811515612b5a565b6116a361169c82610408565b5415612b0e565b6117096004549687956116bd6116b888612db8565b600455565b87516116d1816109ee60208201948561242f565b5190206116dc610644565b918483528060208401528089840152436060840152608083015260a0820152611704866103e8565b6131f4565b838060008051602061498783398151915261172382612659565b9590946117546001600160a01b03851661174561173e61323e565b8983613c10565b8861174e61323e565b91613c10565b8361175e82610408565b5583611774816000526006602052604060002090565b5589519081529081906020820190565b0390a36117958551928392836110a0565b0390a2519081529081906020820190565b801515036102dc57565b346102dc5760403660031901126102dc576004356001600160401b0381116102dc576117e3610e559136906004016106b2565b61182a602435916117f3836117a6565b60016000908152602052611363610727337fada5013122d395ba3c54772283fb069b10426056ef8ca54750cb9bb552a59e7d6113d8565b9060ff801983541691151516179055565b346102dc5760403660031901126102dc576118546102c6565b602435611860816117a6565b6001600160a01b0382169182156118bc578161182a61188c9233600052600160205260406000206113d8565b60405190151581527f17307eab39ab6107e8899845ad3d59bd9653f200f220920489ca2b5937696c3160203392a3005b60405162ced3e160e81b815260006004820152602490fd5b346102dc5760c03660031901126102dc576004356118f06102e1565b6001600160401b03919060643590604435906084358581116102dc5761191a90369060040161119b565b909560a4359081116102dc5761193490369060040161119b565b9086600052600e60205260406000205492600184018094116119f157610e55986119d09389936119ca9360405160208101906e22a72a24aa2cafaa2920a729a322a960891b825246602f8201523060601b604f82015287606382015260018060601b03198b60601b1660838201528b60978201528c60b78201528960d782015260d781526119c1816105ea565b5190209361332b565b1461271d565b6119d985610418565b556119e261323e565b936001600160a01b031661350b565b6121fd565b9181601f840112156102dc578235916001600160401b0383116102dc576020808501948460051b0101116102dc57565b6040810190604081528251809252606081019160208094019060005b818110611a86575050508281830391015281808451928381520193019160005b828110611a70575050505090565b8351151585529381019392810192600101611a62565b825185529385019391850191600101611a42565b346102dc576040806003193601126102dc576001600160401b03600480358281116102dc57611acd9036906004016119f6565b9390926024359081116102dc57611ae89036906004016119f6565b90611af4828714613251565b611afd8661255e565b93611b078761255e565b9660005b818110611b205785518061051a8b8a83611a26565b80611b2d8792848b613295565b611b3b8389899694966132d6565b3593611b5983519586938493631155a0c560e31b85528a8501613302565b0381305afa8015611bd75760019282918c6000928392611b9b575b50611b8a9293611b83916125a6565b9015159052565b611b94828a6125a6565b5201611b0b565b611b8a9350611b83919250611bc5908c8d3d10611bd0575b611bbd8183610621565b8101906132e6565b909390929150611b74565b503d611bb3565b61331f565b346102dc576020806003193601126102dc5760049081356001600160401b0381116102dc57611c0f9036906004016119f6565b91611c198361255e565b92611c22610653565b6103e8815290610bb86020830152604093611c408584016127109052565b606092611c506060820160339052565b8551611c64816109ee60208201948561242f565b5190209260009160005b848110611c825787518061051a8b82610fb5565b80611ce76116b860008051602061496783398151915288868f8e611d1b8f8f8e8e81611cee60019f611db099611cdd61169c611cd78f8f9081611cd2611cca898481966132d6565b351515612b5a565b6132d6565b35610408565b549e8f9e8f612db8565b8b8b6132d6565b3594611cf8610644565b95865285015281868501524390840152608083015260a0820152611704886103e8565b8580600080516020614987833981519152611da3611d938c611d3c85612659565b9a9099611d686001600160a01b038816611d5f8d611d5861323e565b9083613c10565b8d61174e61323e565b86611d77611cd78585856132d6565b5586611d8d816000526006602052604060002090565b556132d6565b8551903581529081906020820190565b0390a351928392836110a0565b0390a2611dbd828c6125a6565b5201611c6e565b346102dc5760603660031901126102dc576001600160401b036004358181116102dc57611df590369060040161119b565b91906024359182116102dc57602092611e1561109893369060040161119b565b916044359361332b565b346102dc5760203660031901126102dc5761051a600435611e41811515612b5a565b611e4d61169c82610408565b60045490611e5d6116b883612db8565b81600080516020614967833981519152611784611e78610653565b6103e8815293610bb86020860152611709604095611e998782016127109052565b603360608201528651611eb4816109ee60208201948561242f565b519020611ebf610644565b90838252600060208301526000888301524360608301526000608083015260a0820152611704866103e8565b346102dc5760203660031901126102dc57600435600052600360205260c06040600020805490611f526001820154916002810154600382015490600560ff6004850154169301549460405196875260208701526040860152606085015260808401906110fa565b60a0820152f35b346102dc5760003660031901126102dc57602060405160018152f35b346102dc5760403660031901126102dc57602060ff611368611f956102c6565b611f9d6102e1565b6001600160a01b03909116600090815260018552604090206113d8565b919260a0936104bd969592151584526020840152604083015260608201528160808201520190610487565b346102dc5760203660031901126102dc5760043560609080600052600360205261051a6040600020926040519261201b846105b4565b84548452600185015493602081019485526002860154604082015260056003870154966060830197885261205960ff600483015416608085016131e8565b015460a08201525193519451908015158061209a575b612084575b5060405194848695151586611fba565b612093919250610bf7906103f8565b9038612074565b50600454811061206f565b346102dc5760a03660031901126102dc576120be6102c6565b6120c66102e1565b6084356001600160401b0381116102dc576120e59036906004016106b2565b906001600160a01b03831633811415908161212d575b5061211157610e5592606435916044359161350b565b60405163711bec9160e11b815280610ea1853360048401612544565b9050600052600160205260ff6121473360406000206113d8565b541615386120fb565b1561215757565b60405162461bcd60e51b815260206004820152601d60248201527f4f6e6c7920666f756e646174696f6e20746f6b656e20686f6c646572730000006044820152606490fd5b156121a357565b60405162461bcd60e51b815260206004820152601b60248201527a15185c99d95d08195b9d1a5d1e48191bd95cdb89dd08195e1a5cdd602a1b6044820152606490fd5b8181106121f1575050565b600081556001016121e6565b634e487b7160e01b600052601160045260246000fd5b908160061b91808304604014901517156119f157565b6122338154610a6f565b908161223d575050565b81601f6000931160011461224f575055565b90808391825261226e601f60208420940160051c8401600185016121e6565b5555565b9190601f811161228157505050565b610651926000526020600020906020601f840160051c830193106122ad575b601f0160051c01906121e6565b90915081906122a0565b81519192916001600160401b0381116105af576122de816122d88454610a6f565b84612272565b602080601f831160011461232157508190612312939495600092612316575b50508160011b916000199060031b1c19161790565b9055565b0151905038806122fd565b90601f1983169561233785600052602060002090565b926000905b8882106123745750508360019596971061235b575b505050811b019055565b015160001960f88460031b161c19169055388080612351565b8060018596829496860151815501950193019061233c565b6123a490602060405192828480945193849201610464565b810103902090565b156123b357565b60405162461bcd60e51b8152602060048201526014602482015273115b9d1a5d1e48191bd95cdb89dd08195e1a5cdd60621b6044820152606490fd5b156123f657565b60405162461bcd60e51b8152602060048201526011602482015270139bc81c1c9bdc1bdcd95908189bd85c99607a1b6044820152606490fd5b919091606061ffff81608084019563ffffffff8082511686528060208301511660208701526040820151166040860152015116910152565b1561246e57565b60405162461bcd60e51b815260206004820152601060248201526f496e76616c69642061727469636c657360801b6044820152606490fd5b156124ad57565b60405162461bcd60e51b815260206004820152601b60248201527a10d85b9b9bdd0818d85b98d95b081d1a1a5cc81c1c9bdc1bdcd85b602a1b6044820152606490fd5b60208101929161065191906110fa565b1561250757565b60405162461bcd60e51b815260206004820152601560248201527413985b5948185b1c9958591e48185cdcda59db9959605a1b6044820152606490fd5b6001600160a01b0391821681529116602082015260400190565b9061256882610d38565b6125756040519182610621565b8281528092612586601f1991610d38565b0190602036910137565b634e487b7160e01b600052603260045260246000fd5b80518210156125ba5760209160051b010190565b612590565b919091805183518082036126285750506125d9815161255e565b9060009060005b8151811015612620578061260e60019260051b85602080808489010151938c010151825252604086206113d8565b5461261982876125a6565b52016125e0565b509193505050565b610ea1604051928392635b05999160e01b8452600484016110a0565b61264d90610ef1565b54806104bd5750600090565b90600160ff1b821790565b1561266b57565b60405162461bcd60e51b815260206004820152601a602482015279496e76616c6964206465706f7369746f7279206164647265737360301b6044820152606490fd5b156126b457565b60405162461bcd60e51b81526020600482015260186024820152774d7573742072656c6561736520736f6d6520746f6b656e7360401b6044820152606490fd5b90600182018092116119f157565b90600782018092116119f157565b919082018092116119f157565b1561272457565b60405162461bcd60e51b8152602060048201526018602482015277496e76616c696420656e74697479207369676e617475726560401b6044820152606490fd5b1561276b57565b60405162461bcd60e51b815260206004820152601b60248201527a496e73756666696369656e7420636f6e74726f6c20746f6b656e7360281b6044820152606490fd5b908060209392818452848401376000828201840152601f01601f1916010190565b9160806104bd93604081526015604082015274434f4e54524f4c5f53484152455f52454c4541534560581b606082015281602082015201916127ae565b1561281357565b60405162461bcd60e51b815260206004820152601c60248201527b496e73756666696369656e74206469766964656e6420746f6b656e7360201b6044820152606490fd5b9160806104bd936040815260166040820152754449564944454e445f53484152455f52454c4541534560501b606082015281602082015201916127ae565b6104bd94926060928252602082015281604082015201916127ae565b97968197896128d39b969497959860018060a01b03938486169d8e1515612664565b8915988915809a612ac2575b6128e8906126ad565b6128f1846103e8565b5415156128fd906123ac565b61290684610418565b54612910906126f4565b948b8d61291e368d8d61067b565b80516020918201206040517552454c454153455f434f4e54524f4c5f53484152455360501b9281019283524660368201526001600160601b031930606090811b82166056840152606a83018c90529d909d1b909c16608a8d0152609e8c019390935260be8b019190915260de8a019190915260fe808a018890528952601f19986129aa61011e82610621565b519020926129b79461332b565b146129c19061271d565b6129ca8a610418565b55881690866129d88a612659565b90997ff49b3b7be24475e2415d445c296967f90953e7daabd954e5be9f28f80b4689239a612a1d98612a75575b5082612a22575b505050505060405194859485612895565b0390a3565b84612a4484612a3c612a6b98612a3787610428565b6113d8565b54101561280c565b612a666040519586612a5a8b8b60208401612857565b03908101875286610621565b61350b565b3880868180612a0c565b80612a928b612a8a89612a37612abc96610428565b541015612764565b8a60405191612ab583612aa98d8d602084016127cf565b03898101855284610621565b848961350b565b38612a05565b508b15156128df565b15612ad257565b60405162461bcd60e51b815260206004820152601460248201527311195b185e481c195c9a5bd9081b9bdd081b595d60621b6044820152606490fd5b15612b1557565b60405162461bcd60e51b815260206004820152601d60248201527f426f617264206861736820616c726561647920726567697374657265640000006044820152606490fd5b15612b6157565b60405162461bcd60e51b8152602060048201526012602482015271092dcecc2d8d2c840c4dec2e4c840d0c2e6d60731b6044820152606490fd5b15612ba257565b60405162461bcd60e51b815260206004820152602160248201527f43616e6e6f74206f76657272696465206578697374696e672070726f706f73616044820152601b60fa1b6064820152608490fd5b9060038110156110e45760ff80198354169116179055565b9080601f830112156102dc576020908235612c2381610d38565b93612c316040519586610621565b81855260208086019260051b8201019283116102dc57602001905b828210612c5a575050505090565b81358152908301908301612c4c565b60209182828203126102dc576001600160401b03918035908382116102dc5701926060926060858403126102dc57604092835195612ca6876105cf565b80358381116102dc5782612cbb918301612c09565b8752838101358381116102dc5782612cd49183016106b2565b8488015284810135908382116102dc57019181601f840112156102dc57823590612cfd82610d38565b96612d0a87519889610621565b828852858089019360051b860101948486116102dc57868101935b868510612d3a57505050505050505082015290565b84358481116102dc5782019060809081601f19848a0301126102dc578a51612d6181610594565b8a84013581528b8401358781116102dc57898c612d8092870101610d4f565b8b82015285840135928784116102dc57848d612da38c8f80999881990101610d4f565b90840152013586820152815201940193612d25565b60001981146119f15760010190565b15612dce57565b60405162461bcd60e51b815260206004820152601a602482015279456e7469747920696e646578206f7574206f6620626f756e647360301b6044820152606490fd5b6000198101919082116119f157565b919082039182116119f157565b15612e3357565b60405162461bcd60e51b8152602060048201526024808201527f5265666572656e63656420636c61696d20696e646578206f7574206f6620626f604482015263756e647360e01b6064820152608490fd5b612e9391939293810190612c69565b90602091612ea46020820151613689565b9384519283156131da57612eba84845151612710565b94604095612ecf604086019182515190612710565b90612ed98761255e565b9660009660005b8b51811015612f64578b6041612ef683836125a6565b515114612f07575b50600101612ee0565b612f1482612f1b926125a6565b5189613814565b8a6001600160a01b038216612f33575b50508b612efe565b99612f57612f5c92612f48856001969e6125a6565b6001600160a01b039091169052565b612db8565b98908a612f2b565b509398929796919550939850156131cb576000969396935b875180518610156131965785612f91916125a6565b51835151958282019260005b845180518210156130325781612fb2916125a6565b51612fbe8c8210612dc7565b8981101580613020575b612fd6575b50600101612f9d565b613000612ff3612fed8c60018060a01b0394612e1f565b8d6125a6565b516001600160a01b031690565b161561300c5738612fcd565b505050505050505050505050600090600090565b5061302b898b612710565b8110612fc8565b5050979a9091989299959496939a61305c6130586130518c848c613a5a565b8c51613bee565b1590565b613182576000978899895b8d518051821015613137578f906130808f9184906125a6565b5161308c8a8210612dc7565b8a8110156130a1575050506001905b01613067565b6130ae939e938c8c612710565b8110156130f15750908d91019b818d51906130c8916125a6565b516130d291612710565b9b51906130de916125a6565b516130e891612710565b9a60019061309b565b8e6001949f9e9293613131948f8f908f6131239261311561311a9261312a99612e1f565b612e1f565b90515111612e2c565b01516125a6565b5190612710565b9a61309b565b50509b50959697919b945097919298606001518092106131705710613160576001019396612f7c565b5050505050505050600090600090565b50505050505050505050600090600090565b509950505050505050505050600090600090565b505050505050505051805190816131b1575050600090600090565b6131bd6131c392612e10565b906125a6565b515190600190565b50505050505050600090600090565b945050505050600090600090565b60038210156110e45752565b9080518255602081015160018301556040810151600283015560608101516003830155608081015160038110156110e45760059161323760a09260048601612bf1565b0151910155565b6040519061324b82610606565b60008252565b1561325857565b60405162461bcd60e51b8152602060048201526015602482015274082e4e4c2f240d8cadccee8d040dad2e6dac2e8c6d605b1b6044820152606490fd5b91908110156125ba5760051b81013590601e19813603018212156102dc5701803591906001600160401b0383116102dc5760200182360381136102dc579190565b91908110156125ba5760051b0190565b91908260409103126102dc57602082519201516104bd816117a6565b93929160209161331a916040875260408701916127ae565b930152565b6040513d6000823e3d90fd5b92919061333936828661067b565b60208151910120936000958587526005602052604087205480613375575091613367939161ffff9593613f91565b16613370575090565b905090565b955091613387939161ffff9593613f91565b16613390575090565b81526006602052604090205490565b606090602081526017602082015276109bd85c99081c1c9bdc1bdcd95c88191a5cd8589b1959604a1b60408201520190565b92909160038210156110e457600182146134195750806133f26002926110da565b146134105760405162461bcd60e51b815280610ea16004820161339f565b610651916140b9565b9291613433915082600052600060205260406000206113d8565b5490811561347857606061345461ffff92600052600c602052604060002090565b5493015116918281029281840414901517156119f157606461065192041115612764565b60405162461bcd60e51b81526020600482015260116024820152704e6f20636f6e74726f6c20746f6b656e7360781b6044820152606490fd5b60038110156110e457600181146134e6576134cb816110da565b156134d65750600090565b806134e26002926110da565b1490565b50806134f36001926110da565b141590565b6001600160a01b03909116815260200190565b939291906001600160a01b038082161561356957851615613551576106519460405192600184526020840152604083019360018552606084015260808301604052614118565b604051626a0d4560e21b815260006004820152602490fd5b604051632bfa23e760e11b815260006004820152602490fd5b9060038110156110e457600181146135cb57806135a06002926110da565b146135be5760405162461bcd60e51b815280610ea16004820161339f565b6020015163ffffffff1690565b505163ffffffff1690565b6040516135e281610606565b6000815290565b906135f382610d38565b6136006040519182610621565b8281528092613611601f1991610d38565b019060005b82811061362257505050565b806060602080938501015201613616565b60405190613640826105cf565b6040808352366020840137565b6040519061365a82610594565b604182526060366020840137565b8051604010156125ba5760600190565b9081518110156125ba570160200190565b906136938261427e565b80156137f7576136a281612213565b906136ac816135e9565b9360005b8281106136bd5750505050565b6136c5613633565b60005b604081106137c2575061371d6137246136e48460031c88612710565b600192839161371161370b6136fd60078a16938b613678565b516001600160f81b03191690565b60f81c90565b9060ff809216901c1690565b1660ff1690565b6137ba57601b915b61373461364d565b61373e858b6125a6565b52613749848a6125a6565b5060005b6040811061378a5750505090600191613783613769838a6125a6565b5160f89290921b6001600160f81b03191660001a91613668565b53016136b0565b808a6137b3826137a8896137a26136fd8a988a613678565b946125a6565b519260001a92613678565b530161374d565b601c9161372c565b806137e36136fd6137dd6001946137d888612213565b612710565b87613678565b60001a6137f08285613678565b53016136c8565b5090506104bd6135d6565b60ff601b9116019060ff82116119f157565b9060418151036138d75760009160208201519260606040840151930151901a90601b82106138c7575b60ff8216601b81141590816138bb575b506138b2576fa2a8918ca85bafe22016d0b997e4df60600160ff1b0383116138b25761389e600093602095604051948594859094939260ff6060936080840197845216602083015260408201520152565b838052039060015afa15611bd75760005190565b50505050600090565b601c915014153861384d565b906138d190613802565b9061383d565b5050600090565b156138e557565b60405162461bcd60e51b815260206004820152602560248201527f436c61696d20696e64657865732f77656967687473206c656e677468206d69736044820152640dac2e8c6d60db1b6064820152608490fd5b1561393f57565b60405162461bcd60e51b8152602060048201526019602482015278436c61696d20696e646578206f7574206f6620626f756e647360381b6044820152606490fd5b90815180825260208080930193019160005b8281106139a0575050505090565b835161ffff1685529381019392810192600101613992565b6020808252825161ffff16818301528083015160c06040840152805160e084018190526101008401959493929182019160005b828110613a46575050505060c060a0613a1984959660406104bd960151601f19868303016060870152613980565b606086015163ffffffff16608085015294608081015163ffffffff1684830152015163ffffffff16910152565b8351885296810196928101926001016139eb565b916020810191825151604094613a776040850192835151146138de565b8451519281515190805191613a8b8661255e565b98613a958761255e565b9860005b8a8c8a8310613b0a5750505050505050505050506060613aba910151614375565b91613ad0613ac6610644565b61ffff9094168452565b602083015260408201526000606082015260006080820152600060a0820152604051613b04816109ee6020820194856139b8565b51902090565b8291613b6d83613b67613b61828f8f978f988f9b8f9a8f9d8f9c60019f613b36613b769f8690516125a6565b519382851015613b7c5750505050613b5290613b5993516125a6565b51926125a6565b525b516125a6565b51614354565b926125a6565b9061ffff169052565b01613a99565b613b8a818496959894612710565b841015613bc057505050613bae612ff3613bba956131bd613b6795613bae95612e1f565b6001600160a01b031690565b52613b5b565b613bba9650613115613be695613bd7939495612e1f565b9101613b5b8151518310613938565b5151926125a6565b90816000526003602052604060002054918215613c0a57501490565b14919050565b9091906001600160a01b03811615613569576040516001906001815260208101948552604081019060018252606081019266038d7ea4c68000845260808201604052613c5d8383876146e7565b6000815b613c8f575b50508051600103613c81575050610651935190519133614656565b915091610651945033614468565b8251811015613d42578181613cb5613ca88394876125a6565b516001600160ff1b031690565b613cbe816103e8565b54613ccc575b500190613c61565b613cd581612659565b50613ce083886125a6565b5103613d1957613d10613d08613cf6848a6125a6565b5192600052600c602052604060002090565b918254612710565b90555b38613cc4565b613d3b613d08613d29848a6125a6565b5192600052600d602052604060002090565b9055613d13565b613c66565b9080601f830112156102dc576020908235613d6181610d38565b93613d6f6040519586610621565b81855260208086019260051b8201019283116102dc57602001905b828210613d98575050505090565b838091613da484610822565b815201910190613d8a565b6020818303126102dc576001600160401b03908035908282116102dc57019160c0838203126102dc57613de0610644565b92613dea81610822565b845260208101358381116102dc5782613e04918301612c09565b602085015260408101359283116102dc57613e2660a092613e53948301613d47565b6040850152613e3760608201610811565b6060850152613e4860808201610811565b608085015201610811565b60a082015290565b9060209081838203126102dc576001600160401b03928035908482116102dc570181601f820112156102dc578035613e9281610d38565b94613ea06040519687610621565b818652848087019260051b840101938085116102dc57858401925b858410613ecc575050505050505090565b83358381116102dc578791613ee6848480948a01016106b2565b815201930192613ebb565b15613ef857565b60405162461bcd60e51b815260206004820152601c60248201527b084dec2e4c840c2e4e4c2f2e640d8cadccee8d040dad2e6dac2e8c6d60231b6044820152606490fd5b91909161ffff808094169116019182116119f157565b90606461ffff809316029182169182036119f157565b9061ffff809116918215613f7b57160490565b634e487b7160e01b600052601260045260246000fd5b93949290613fa590613fae93810190613daf565b94810190613e5b565b926020810192835151613fc8604084019182515114613ef1565b6000928394845b875180518210806140af575b1561407c5781613fea916125a6565b51614001613ff98387516125a6565b5161ffff1690565b906001600160a01b038b81831115614026575b5050505061402190612db8565b613fcf565b613bae61403a86614041939d96979d6125a6565b518a613814565b911614614060575b6140219161405691613f3c565b969038808b614014565b95816140726140219361405693613f3c565b9791509150614049565b50509650929450505061ffff90818316156138b2575161ffff16908316106138d7576140aa6104bd92613f52565b613f68565b5089518210613fdb565b906140d691600160ff1b17600052600060205260406000206113d8565b54156140de57565b60405162461bcd60e51b81526020600482015260126024820152714e6f206469766964656e6420746f6b656e7360701b6044820152606490fd5b919294614127868584866147c9565b60005b845181101561422b576001906001600160a01b038581161590811580614220575b6142195761415c613ca8848a6125a6565b91614166836103e8565b54614176575b5050505b0161412a565b61417f83612659565b5061418a858b6125a6565b51036141df57156141b157506141a6613d08613cf6848c6125a6565b90555b38808061416c565b8516156141bf575b506141a9565b6141d76141cf613cf6848c6125a6565b918254612e1f565b9055386141b9565b156141fc57506141f5613d08613d29848c6125a6565b90556141a9565b85161561420957506141a9565b6141d76141cf613d29848c6125a6565b5050614170565b50808616151561414b565b5094929392906001600160a01b038116614247575b5050505050565b845160010361426d57602080614263960151920151923361468b565b3880808080614240565b61427994919233614557565b614263565b9081511561434e5760015b613e808111156142f7575b60405162461bcd60e51b815260206004820152603560248201527f496e76616c6964207061636b6564207369676e6174757265206c656e677468206044820152740b4818d85b9b9bdd0819195d1958dd0818dbdd5b9d605a1b6064820152608490fd5b8060061b818104604014821517156119f1576143259061431f61431984612702565b60031c90565b90612710565b83519080821461434757116143425761433d90612db8565b614289565b614294565b5090925050565b60009150565b61ffff90818111614363571690565b6040516305db0b2560e51b8152600490fd5b8015801561439b575b6143895761ffff1690565b604051630479f89760e11b8152600490fd5b5061ffff811161437e565b908160209103126102dc57516104bd81610346565b926143ea6104bd95936143f89360018060a01b031686526000602087015260a0604087015260a0860190610f81565b908482036060860152610f81565b916080818403910152610487565b93906104bd95936143ea916143f89460018060a01b03809216885216602087015260a0604087015260a0860190610f81565b3d15614463573d9061444982610660565b916144576040519384610621565b82523d6000602084013e565b606090565b9293919093843b61447a575050505050565b60209161449d604051948593849363bc197c8160e01b98898652600486016143bb565b038160006001600160a01b0388165af160009181614526575b506144ef57826144c4614438565b80519190826144e857604051632bfa23e760e11b815280610ea184600483016134f8565b6020915001fd5b6001600160e01b0319160361450957503880808080614240565b604051632bfa23e760e11b8152908190610ea190600483016134f8565b61454991925060203d602011614550575b6145418183610621565b8101906143a6565b90386144b6565b503d614537565b939290949194853b61456c575b505050505050565b61458f602093604051958694859463bc197c8160e01b998a875260048701614406565b038160006001600160a01b0388165af1600091816145d1575b506145b657826144c4614438565b6001600160e01b031916036145095750388080808080614564565b6145eb91925060203d602011614550576145418183610621565b90386145a8565b909260a0926104bd9594600180861b0316835260006020840152604083015260608201528160808201520190610487565b91926104bd95949160a094600180871b038092168552166020840152604083015260608201528160808201520190610487565b9293919093843b614668575050505050565b60209161449d604051948593849363f23a6e6160e01b98898652600486016145f2565b939290949194853b61469f57505050505050565b61458f602093604051958694859463f23a6e6160e01b998a875260048701614623565b90916146d96104bd93604084526040840190610f81565b916020818403910152610f81565b919091825182519081810361262857505060005b835181101561474f57600581901b84810160209081015191850101516001929184906001600160a01b038216614735575b505050016146fb565b61474591612a37613d0892610428565b905538838161472c565b5091600181511460001461479c576020908101519101516040516001600160a01b039093169260009233926000805160206149478339815191529291829161479791836110a0565b0390a4565b6000805160206149278339815191526147976000939460405191829160018060a01b0316963395836146c2565b939291805183519081810361262857505060005b81518110156148aa57600581901b82810160209081015191860101516001600160a01b039291859089851661483a575b6001948216614820575b505050016147dd565b61483091612a37613d0892610428565b9055388481614817565b919293905061484c89612a3784610428565b54838110614873579186918460019695940361486b8c612a3785610428565b55945061480d565b6040516303dee4c560e01b81526001600160a01b038b16600482015260248101919091526044810184905260648101839052608490fd5b5080519394939192916001036148f5576020908101519101516040516001600160a01b03938416949093169233926000805160206149478339815191529282916147979190836110a0565b6040516001600160a01b039384169490931692339260008051602061492783398151915292829161479791836146c256fe4a39dc06d4c0dbc64b70af90fd698a233a518aa5d07e595d983b8c0526c8f7fbc3d58168c5ae7397731d063d5bbf3d657854427343f4c083240f7aacaa2d0f6252629ba16cb44b809941f19e442f11a9973e93cc91be0d91df4afbe6e7c624cac9234525033c1ac098f69b4dc192ce416b13f69ec0b6de127022496be73337fda2646970667358221220bde6aaa4c8e57b81d1f7bdff79038fbd5523eade395fefe8df9ec3992c9e941764736f6c63430008180033a1237dddbd29f99fde152257ccb2f783e434670afa247b2a52d81a326d4cf0ad",
  "linkReferences": {},
  "deployedLinkReferences": {}
}