{"abi":[{"type":"constructor","inputs":[],"stateMutability":"nonpayable"},{"type":"function","name":"_activeDebts","inputs":[{"name":"","type":"bytes32","internalType":"bytes32"}],"outputs":[{"name":"","type":"uint256","internalType":"uint256"}],"stateMutability":"view"},{"type":"function","name":"_channels","inputs":[{"name":"","type":"bytes","internalType":"bytes"}],"outputs":[{"name":"cooperativeNonce","type":"uint256","internalType":"uint256"},{"name":"disputeHash","type":"bytes32","internalType":"bytes32"}],"stateMutability":"view"},{"type":"function","name":"_collaterals","inputs":[{"name":"","type":"bytes","internalType":"bytes"},{"name":"","type":"uint256","internalType":"uint256"}],"outputs":[{"name":"collateral","type":"uint256","internalType":"uint256"},{"name":"ondelta","type":"int256","internalType":"int256"}],"stateMutability":"view"},{"type":"function","name":"_debtIndex","inputs":[{"name":"","type":"bytes32","internalType":"bytes32"},{"name":"","type":"uint256","internalType":"uint256"}],"outputs":[{"name":"","type":"uint256","internalType":"uint256"}],"stateMutability":"view"},{"type":"function","name":"_debts","inputs":[{"name":"","type":"bytes32","internalType":"bytes32"},{"name":"","type":"uint256","internalType":"uint256"},{"name":"","type":"uint256","internalType":"uint256"}],"outputs":[{"name":"amount","type":"uint256","internalType":"uint256"},{"name":"creditor","type":"bytes32","internalType":"bytes32"}],"stateMutability":"view"},{"type":"function","name":"_hubs","inputs":[{"name":"","type":"uint256","internalType":"uint256"}],"outputs":[{"name":"entityId","type":"bytes32","internalType":"bytes32"},{"name":"gasused","type":"uint256","internalType":"uint256"},{"name":"uri","type":"string","internalType":"string"}],"stateMutability":"view"},{"type":"function","name":"_reserves","inputs":[{"name":"","type":"bytes32","internalType":"bytes32"},{"name":"","type":"uint256","internalType":"uint256"}],"outputs":[{"name":"","type":"uint256","internalType":"uint256"}],"stateMutability":"view"},{"type":"function","name":"_tokens","inputs":[{"name":"","type":"uint256","internalType":"uint256"}],"outputs":[{"name":"","type":"bytes32","internalType":"bytes32"}],"stateMutability":"view"},{"type":"function","name":"addEntityProvider","inputs":[{"name":"provider","type":"address","internalType":"address"}],"outputs":[],"stateMutability":"nonpayable"},{"type":"function","name":"approvedEntityProviders","inputs":[{"name":"","type":"address","internalType":"address"}],"outputs":[{"name":"","type":"bool","internalType":"bool"}],"stateMutability":"view"},{"type":"function","name":"debugBulkFundEntities","inputs":[],"outputs":[],"stateMutability":"nonpayable"},{"type":"function","name":"debugFundReserves","inputs":[{"name":"entity","type":"bytes32","internalType":"bytes32"},{"name":"tokenId","type":"uint256","internalType":"uint256"},{"name":"amount","type":"uint256","internalType":"uint256"}],"outputs":[],"stateMutability":"nonpayable"},{"type":"function","name":"entityProvidersList","inputs":[{"name":"","type":"uint256","internalType":"uint256"}],"outputs":[{"name":"","type":"address","internalType":"address"}],"stateMutability":"view"},{"type":"function","name":"entityScores","inputs":[{"name":"","type":"bytes32","internalType":"bytes32"}],"outputs":[{"name":"totalGasUsed","type":"uint64","internalType":"uint64"},{"name":"inDebtSince","type":"uint48","internalType":"uint48"},{"name":"totalActiveDebts","type":"uint32","internalType":"uint32"},{"name":"totalDisputes","type":"uint32","internalType":"uint32"},{"name":"successfulRepayments","type":"uint32","internalType":"uint32"},{"name":"cooperativeActions","type":"uint32","internalType":"uint32"}],"stateMutability":"view"},{"type":"function","name":"externalTokenToReserve","inputs":[{"name":"params","type":"tuple","internalType":"struct Depository.ExternalTokenToReserve","components":[{"name":"entity","type":"bytes32","internalType":"bytes32"},{"name":"packedToken","type":"bytes32","internalType":"bytes32"},{"name":"internalTokenId","type":"uint256","internalType":"uint256"},{"name":"amount","type":"uint256","internalType":"uint256"}]}],"outputs":[],"stateMutability":"nonpayable"},{"type":"function","name":"getApprovedProviders","inputs":[],"outputs":[{"name":"","type":"address[]","internalType":"address[]"}],"stateMutability":"view"},{"type":"function","name":"getControlShareTokenId","inputs":[{"name":"entityProvider","type":"address","internalType":"address"},{"name":"externalTokenId","type":"uint256","internalType":"uint256"}],"outputs":[{"name":"internalTokenId","type":"uint256","internalType":"uint256"}],"stateMutability":"view"},{"type":"function","name":"getDebts","inputs":[{"name":"entity","type":"bytes32","internalType":"bytes32"},{"name":"tokenId","type":"uint256","internalType":"uint256"}],"outputs":[{"name":"allDebts","type":"tuple[]","internalType":"struct Depository.Debt[]","components":[{"name":"amount","type":"uint256","internalType":"uint256"},{"name":"creditor","type":"bytes32","internalType":"bytes32"}]},{"name":"currentDebtIndex","type":"uint256","internalType":"uint256"}],"stateMutability":"view"},{"type":"function","name":"getTokensLength","inputs":[],"outputs":[{"name":"","type":"uint256","internalType":"uint256"}],"stateMutability":"view"},{"type":"function","name":"log","inputs":[{"name":"s","type":"string","internalType":"string"},{"name":"x","type":"bytes","internalType":"bytes"}],"outputs":[],"stateMutability":"nonpayable"},{"type":"function","name":"log","inputs":[{"name":"s","type":"string","internalType":"string"},{"name":"x","type":"address","internalType":"address"}],"outputs":[],"stateMutability":"nonpayable"},{"type":"function","name":"log","inputs":[{"name":"s","type":"string","internalType":"string"},{"name":"x","type":"bytes32","internalType":"bytes32"}],"outputs":[],"stateMutability":"nonpayable"},{"type":"function","name":"log","inputs":[{"name":"s","type":"string","internalType":"string"},{"name":"x","type":"int256","internalType":"int256"}],"outputs":[],"stateMutability":"nonpayable"},{"type":"function","name":"log","inputs":[{"name":"s","type":"string","internalType":"string"},{"name":"x","type":"string","internalType":"string"}],"outputs":[],"stateMutability":"nonpayable"},{"type":"function","name":"log","inputs":[{"name":"s","type":"string","internalType":"string"},{"name":"x","type":"uint256","internalType":"uint256"}],"outputs":[],"stateMutability":"nonpayable"},{"type":"function","name":"log","inputs":[{"name":"s","type":"string","internalType":"string"},{"name":"x","type":"bool","internalType":"bool"}],"outputs":[],"stateMutability":"nonpayable"},{"type":"function","name":"logChannel","inputs":[{"name":"e1","type":"bytes32","internalType":"bytes32"},{"name":"e2","type":"bytes32","internalType":"bytes32"}],"outputs":[],"stateMutability":"nonpayable"},{"type":"function","name":"packTokenReference","inputs":[{"name":"tokenType","type":"uint8","internalType":"uint8"},{"name":"contractAddress","type":"address","internalType":"address"},{"name":"externalTokenId","type":"uint96","internalType":"uint96"}],"outputs":[{"name":"","type":"bytes32","internalType":"bytes32"}],"stateMutability":"pure"},{"type":"function","name":"prefundAccount","inputs":[{"name":"counterpartyEntity","type":"bytes32","internalType":"bytes32"},{"name":"tokenId","type":"uint256","internalType":"uint256"},{"name":"amount","type":"uint256","internalType":"uint256"}],"outputs":[{"name":"","type":"bool","internalType":"bool"}],"stateMutability":"nonpayable"},{"type":"function","name":"processBatch","inputs":[{"name":"entity","type":"bytes32","internalType":"bytes32"},{"name":"batch","type":"tuple","internalType":"struct Depository.Batch","components":[{"name":"reserveToExternalToken","type":"tuple[]","internalType":"struct Depository.ReserveToExternalToken[]","components":[{"name":"receivingEntity","type":"bytes32","internalType":"bytes32"},{"name":"tokenId","type":"uint256","internalType":"uint256"},{"name":"amount","type":"uint256","internalType":"uint256"}]},{"name":"externalTokenToReserve","type":"tuple[]","internalType":"struct Depository.ExternalTokenToReserve[]","components":[{"name":"entity","type":"bytes32","internalType":"bytes32"},{"name":"packedToken","type":"bytes32","internalType":"bytes32"},{"name":"internalTokenId","type":"uint256","internalType":"uint256"},{"name":"amount","type":"uint256","internalType":"uint256"}]},{"name":"reserveToReserve","type":"tuple[]","internalType":"struct Depository.ReserveToReserve[]","components":[{"name":"receivingEntity","type":"bytes32","internalType":"bytes32"},{"name":"tokenId","type":"uint256","internalType":"uint256"},{"name":"amount","type":"uint256","internalType":"uint256"}]},{"name":"reserveToCollateral","type":"tuple[]","internalType":"struct Depository.ReserveToCollateral[]","components":[{"name":"tokenId","type":"uint256","internalType":"uint256"},{"name":"receivingEntity","type":"bytes32","internalType":"bytes32"},{"name":"pairs","type":"tuple[]","internalType":"struct Depository.AddrAmountPair[]","components":[{"name":"entity","type":"bytes32","internalType":"bytes32"},{"name":"amount","type":"uint256","internalType":"uint256"}]}]},{"name":"settlements","type":"tuple[]","internalType":"struct Depository.Settlement[]","components":[{"name":"leftEntity","type":"bytes32","internalType":"bytes32"},{"name":"rightEntity","type":"bytes32","internalType":"bytes32"},{"name":"diffs","type":"tuple[]","internalType":"struct Depository.SettlementDiff[]","components":[{"name":"tokenId","type":"uint256","internalType":"uint256"},{"name":"leftDiff","type":"int256","internalType":"int256"},{"name":"rightDiff","type":"int256","internalType":"int256"},{"name":"collateralDiff","type":"int256","internalType":"int256"},{"name":"ondeltaDiff","type":"int256","internalType":"int256"}]}]},{"name":"cooperativeUpdate","type":"tuple[]","internalType":"struct Depository.CooperativeUpdate[]","components":[{"name":"counterentity","type":"bytes32","internalType":"bytes32"},{"name":"diffs","type":"tuple[]","internalType":"struct Depository.Diff[]","components":[{"name":"tokenId","type":"uint256","internalType":"uint256"},{"name":"peerReserveDiff","type":"int256","internalType":"int256"},{"name":"collateralDiff","type":"int256","internalType":"int256"},{"name":"ondeltaDiff","type":"int256","internalType":"int256"}]},{"name":"forgiveDebtsInTokenIds","type":"uint256[]","internalType":"uint256[]"},{"name":"sig","type":"bytes","internalType":"bytes"}]},{"name":"cooperativeDisputeProof","type":"tuple[]","internalType":"struct Depository.CooperativeDisputeProof[]","components":[{"name":"counterentity","type":"bytes32","internalType":"bytes32"},{"name":"proofbody","type":"tuple","internalType":"struct Depository.ProofBody","components":[{"name":"offdeltas","type":"int256[]","internalType":"int256[]"},{"name":"tokenIds","type":"uint256[]","internalType":"uint256[]"},{"name":"subcontracts","type":"tuple[]","internalType":"struct Depository.SubcontractClause[]","components":[{"name":"subcontractProviderAddress","type":"address","internalType":"address"},{"name":"encodedBatch","type":"bytes","internalType":"bytes"},{"name":"allowences","type":"tuple[]","internalType":"struct Depository.Allowence[]","components":[{"name":"deltaIndex","type":"uint256","internalType":"uint256"},{"name":"rightAllowence","type":"uint256","internalType":"uint256"},{"name":"leftAllowence","type":"uint256","internalType":"uint256"}]}]}]},{"name":"initialArguments","type":"bytes","internalType":"bytes"},{"name":"finalArguments","type":"bytes","internalType":"bytes"},{"name":"sig","type":"bytes","internalType":"bytes"}]},{"name":"initialDisputeProof","type":"tuple[]","internalType":"struct Depository.InitialDisputeProof[]","components":[{"name":"counterentity","type":"bytes32","internalType":"bytes32"},{"name":"cooperativeNonce","type":"uint256","internalType":"uint256"},{"name":"disputeNonce","type":"uint256","internalType":"uint256"},{"name":"proofbodyHash","type":"bytes32","internalType":"bytes32"},{"name":"sig","type":"bytes","internalType":"bytes"},{"name":"initialArguments","type":"bytes","internalType":"bytes"}]},{"name":"finalDisputeProof","type":"tuple[]","internalType":"struct Depository.FinalDisputeProof[]","components":[{"name":"counterentity","type":"bytes32","internalType":"bytes32"},{"name":"initialCooperativeNonce","type":"uint256","internalType":"uint256"},{"name":"initialDisputeNonce","type":"uint256","internalType":"uint256"},{"name":"disputeUntilBlock","type":"uint256","internalType":"uint256"},{"name":"initialProofbodyHash","type":"bytes32","internalType":"bytes32"},{"name":"initialArguments","type":"bytes","internalType":"bytes"},{"name":"startedByLeft","type":"bool","internalType":"bool"},{"name":"finalCooperativeNonce","type":"uint256","internalType":"uint256"},{"name":"finalDisputeNonce","type":"uint256","internalType":"uint256"},{"name":"finalProofbody","type":"tuple","internalType":"struct Depository.ProofBody","components":[{"name":"offdeltas","type":"int256[]","internalType":"int256[]"},{"name":"tokenIds","type":"uint256[]","internalType":"uint256[]"},{"name":"subcontracts","type":"tuple[]","internalType":"struct Depository.SubcontractClause[]","components":[{"name":"subcontractProviderAddress","type":"address","internalType":"address"},{"name":"encodedBatch","type":"bytes","internalType":"bytes"},{"name":"allowences","type":"tuple[]","internalType":"struct Depository.Allowence[]","components":[{"name":"deltaIndex","type":"uint256","internalType":"uint256"},{"name":"rightAllowence","type":"uint256","internalType":"uint256"},{"name":"leftAllowence","type":"uint256","internalType":"uint256"}]}]}]},{"name":"finalArguments","type":"bytes","internalType":"bytes"},{"name":"sig","type":"bytes","internalType":"bytes"}]},{"name":"flashloans","type":"tuple[]","internalType":"struct Depository.TokenAmountPair[]","components":[{"name":"tokenId","type":"uint256","internalType":"uint256"},{"name":"amount","type":"uint256","internalType":"uint256"}]},{"name":"hub_id","type":"uint256","internalType":"uint256"}]}],"outputs":[{"name":"completeSuccess","type":"bool","internalType":"bool"}],"stateMutability":"nonpayable"},{"type":"function","name":"registerHub","inputs":[{"name":"hub_id","type":"uint256","internalType":"uint256"},{"name":"new_uri","type":"string","internalType":"string"}],"outputs":[{"name":"","type":"uint256","internalType":"uint256"}],"stateMutability":"nonpayable"},{"type":"function","name":"removeEntityProvider","inputs":[{"name":"provider","type":"address","internalType":"address"}],"outputs":[],"stateMutability":"nonpayable"},{"type":"function","name":"reserveToReserve","inputs":[{"name":"fromEntity","type":"bytes32","internalType":"bytes32"},{"name":"toEntity","type":"bytes32","internalType":"bytes32"},{"name":"tokenId","type":"uint256","internalType":"uint256"},{"name":"amount","type":"uint256","internalType":"uint256"}],"outputs":[{"name":"","type":"bool","internalType":"bool"}],"stateMutability":"nonpayable"},{"type":"function","name":"settle","inputs":[{"name":"leftEntity","type":"bytes32","internalType":"bytes32"},{"name":"rightEntity","type":"bytes32","internalType":"bytes32"},{"name":"diffs","type":"tuple[]","internalType":"struct Depository.SettlementDiff[]","components":[{"name":"tokenId","type":"uint256","internalType":"uint256"},{"name":"leftDiff","type":"int256","internalType":"int256"},{"name":"rightDiff","type":"int256","internalType":"int256"},{"name":"collateralDiff","type":"int256","internalType":"int256"},{"name":"ondeltaDiff","type":"int256","internalType":"int256"}]}],"outputs":[{"name":"","type":"bool","internalType":"bool"}],"stateMutability":"nonpayable"},{"type":"function","name":"tokenToId","inputs":[{"name":"","type":"bytes32","internalType":"bytes32"}],"outputs":[{"name":"","type":"uint256","internalType":"uint256"}],"stateMutability":"view"},{"type":"function","name":"unpackTokenReference","inputs":[{"name":"packed","type":"bytes32","internalType":"bytes32"}],"outputs":[{"name":"contractAddress","type":"address","internalType":"address"},{"name":"externalTokenId","type":"uint96","internalType":"uint96"},{"name":"tokenType","type":"uint8","internalType":"uint8"}],"stateMutability":"pure"},{"type":"event","name":"ChannelSettled","inputs":[{"name":"","type":"tuple[]","indexed":false,"internalType":"struct Depository.Settled[]","components":[{"name":"left","type":"bytes32","internalType":"bytes32"},{"name":"right","type":"bytes32","internalType":"bytes32"},{"name":"tokenId","type":"uint256","internalType":"uint256"},{"name":"leftReserve","type":"uint256","internalType":"uint256"},{"name":"rightReserve","type":"uint256","internalType":"uint256"},{"name":"collateral","type":"uint256","internalType":"uint256"},{"name":"ondelta","type":"int256","internalType":"int256"}]}],"anonymous":false},{"type":"event","name":"CooperativeClose","inputs":[{"name":"sender","type":"bytes32","indexed":true,"internalType":"bytes32"},{"name":"counterentity","type":"bytes32","indexed":true,"internalType":"bytes32"},{"name":"cooperativeNonce","type":"uint256","indexed":true,"internalType":"uint256"}],"anonymous":false},{"type":"event","name":"DisputeStarted","inputs":[{"name":"sender","type":"bytes32","indexed":true,"internalType":"bytes32"},{"name":"counterentity","type":"bytes32","indexed":true,"internalType":"bytes32"},{"name":"disputeNonce","type":"uint256","indexed":true,"internalType":"uint256"},{"name":"initialArguments","type":"bytes","indexed":false,"internalType":"bytes"}],"anonymous":false},{"type":"event","name":"EntityProviderAdded","inputs":[{"name":"provider","type":"address","indexed":true,"internalType":"address"}],"anonymous":false},{"type":"event","name":"EntityProviderRemoved","inputs":[{"name":"provider","type":"address","indexed":true,"internalType":"address"}],"anonymous":false},{"type":"event","name":"LogAddress","inputs":[{"name":"","type":"string","indexed":false,"internalType":"string"},{"name":"","type":"address","indexed":false,"internalType":"address"}],"anonymous":false},{"type":"event","name":"LogBool","inputs":[{"name":"","type":"string","indexed":false,"internalType":"string"},{"name":"","type":"bool","indexed":false,"internalType":"bool"}],"anonymous":false},{"type":"event","name":"LogBytes","inputs":[{"name":"","type":"string","indexed":false,"internalType":"string"},{"name":"","type":"bytes","indexed":false,"internalType":"bytes"}],"anonymous":false},{"type":"event","name":"LogBytes32","inputs":[{"name":"","type":"string","indexed":false,"internalType":"string"},{"name":"","type":"bytes32","indexed":false,"internalType":"bytes32"}],"anonymous":false},{"type":"event","name":"LogInt","inputs":[{"name":"","type":"string","indexed":false,"internalType":"string"},{"name":"","type":"int256","indexed":false,"internalType":"int256"}],"anonymous":false},{"type":"event","name":"LogString","inputs":[{"name":"","type":"string","indexed":false,"internalType":"string"},{"name":"","type":"string","indexed":false,"internalType":"string"}],"anonymous":false},{"type":"event","name":"LogUint","inputs":[{"name":"","type":"string","indexed":false,"internalType":"string"},{"name":"","type":"uint256","indexed":false,"internalType":"uint256"}],"anonymous":false},{"type":"event","name":"ReserveTransferred","inputs":[{"name":"from","type":"bytes32","indexed":true,"internalType":"bytes32"},{"name":"to","type":"bytes32","indexed":true,"internalType":"bytes32"},{"name":"tokenId","type":"uint256","indexed":true,"internalType":"uint256"},{"name":"amount","type":"uint256","indexed":false,"internalType":"uint256"}],"anonymous":false},{"type":"event","name":"ReserveUpdated","inputs":[{"name":"entity","type":"bytes32","indexed":true,"internalType":"bytes32"},{"name":"tokenId","type":"uint256","indexed":true,"internalType":"uint256"},{"name":"newBalance","type":"uint256","indexed":false,"internalType":"uint256"}],"anonymous":false},{"type":"event","name":"SettlementProcessed","inputs":[{"name":"leftEntity","type":"bytes32","indexed":true,"internalType":"bytes32"},{"name":"rightEntity","type":"bytes32","indexed":true,"internalType":"bytes32"},{"name":"tokenId","type":"uint256","indexed":true,"internalType":"uint256"},{"name":"leftReserve","type":"uint256","indexed":false,"internalType":"uint256"},{"name":"rightReserve","type":"uint256","indexed":false,"internalType":"uint256"},{"name":"collateral","type":"uint256","indexed":false,"internalType":"uint256"},{"name":"ondelta","type":"int256","indexed":false,"internalType":"int256"}],"anonymous":false},{"type":"event","name":"TransferReserveToCollateral","inputs":[{"name":"receivingEntity","type":"bytes32","indexed":true,"internalType":"bytes32"},{"name":"counterentity","type":"bytes32","indexed":true,"internalType":"bytes32"},{"name":"collateral","type":"uint256","indexed":false,"internalType":"uint256"},{"name":"ondelta","type":"int256","indexed":false,"internalType":"int256"},{"name":"tokenId","type":"uint256","indexed":false,"internalType":"uint256"}],"anonymous":false}],"bytecode":{"object":"0x6080346200030457600a54906801000000000000000080831015620002dc5760019081840180600a55841015620002f057600a5f9081527fc65a7bb8d6351c1cf70c95a316cc6a92839c986682d98bc35f958f4883f9d2a890940193909355606082019260206001600160401b0380861185871017620002dc5760409586525f8552818501905f825286519183830183811083821117620002dc5788525f835287870192835260095494851015620002dc5785850180600955851015620002f05760095f52835f20600380960201965187555185870155600280960191518051918211620002dc578254908682811c92168015620002d1575b85831014620002bd5781601f84931162000268575b508490601f831160011462000204575f92620001f8575b50505f19600383901b1c191690851b1790555b825b6014811115620001525785516137ef9081620003188239f35b835b838111156200016f5750620001699062000308565b62000139565b815f52858352865f20815f528352865f20908154670de0b6b3a76400008101809111620001e457620001de9255825f52868452875f20815f52845280837fab4d21442efe134c3d0c087e2b687e9593a1c09176f498d37873210cde052c45868b5f20548c51908152a362000308565b62000154565b634e487b7160e01b5f52601160045260245ffd5b015190505f8062000124565b90879350601f19831691855f52865f20925f5b8882821062000251575050841162000238575b505050811b01905562000137565b01515f1960f88460031b161c191690555f80806200022a565b8385015186558b9790950194938401930162000217565b909150835f52845f20601f840160051c810191868510620002b2575b84939291601f8a920160051c01915b828110620002a35750506200010d565b5f815585945089910162000293565b909150819062000284565b634e487b7160e01b5f52602260045260245ffd5b91607f1691620000f8565b634e487b7160e01b5f52604160045260245ffd5b634e487b7160e01b5f52603260045260245ffd5b5f80fd5b5f198114620001e4576001019056fe60806040526004361015610011575f80fd5b5f803560e01c80630dedd6241461288057806322c215771461266757806323cdd8e8146125f5578063266afe1b1461253857806329ac1c4c1461248257806331599c7d14612397578063319af333146123135780633692d61a146122bf5780633925cd441461211e5780633ca6268e146120ca5780634174a93d1461206e57806341e837961461205b5780634b5c427714611fc257806358d642bc14611ee35780635ffefe5b14611e6c5780636b79134d14611e425780637508b91614611e1357806388a1cd7614611dc457806392cf61e514611d5f578063a034af4214611d1a578063a09fd42b14611c23578063abc8d1ac14611be7578063acd6f20814611bb8578063ad89991b14611b44578063b0c26ecf14611b27578063b60e72cc14611ab2578063b9e94dd514611a68578063bb2c250c146119ec578063bfa4b7d914611986578063c3b5563514611904578063d19fd92e146118da578063dd865c8b146114ab578063ddc394801461131e578063ec6d8e06146112db578063ed70554d146112a25763f0570b1b146101a6575f80fd5b3461129f57600319604036820112610c7a576001600160401b0360243511610c7a57610160602435360391820112610c7a576022190160243560440135121561129f576001600160401b03602435604481013501600401351161129f57602480356044810135016004810135606002360391011361129f5760405161016081018181106001600160401b03821117610c6257604052602435600401356001600160401b038111610a81576024350136602382011215610a81576102739036906024600482013591016134c4565b81526024803501356001600160401b038111610a81573660238260243501011215610a81576102a9600482602435010135612b0e565b906102b76040519283612971565b6004602480358301918201358085526020850193923660079290921b0190910111610c765760248181350101915b602480358301600481013560071b010183106112555750505060208201526001600160401b036044602435013511610c7a57366024356044810135016023011215610c7a576103443660248035604481013501600481013591016134c4565b6040820152606460243501356001600160401b038111610a81573660238260243501011215610a81576004816024350101359061038082612b0e565b9161038e6040519384612971565b808352602083013660248360051b85823501010111610a7d5760248381350101905b60248360051b858235010101821061112c57505050506060820152608460243501356001600160401b038111610a81573660238260243501011215610a8157610400600482602435010135612b0e565b9061040e6040519283612971565b6004602480358301918201358085526020850193923660059290921b0190910111610c765760248181350101915b602480358301600481013560051b010183106110a05750505060808201526001600160401b0360a4602435013511610c7a573660243560a4810135016023011215610c7a5760243560a4810135016004013561049781612b0e565b906104a56040519283612971565b808252602082013660248360051b60a482350135823501010111610c76576024803560a48101350101905b60248360051b60a48235013582350101018210610eca5750505060a08201526001600160401b0360c4602435013511610c7a573660243560c4810135016023011215610c7a5760243560c4810135016004013561052c81612b0e565b9061053a6040519283612971565b808252602082013660248360051b60c482350135823501010111610c76576024803560c48101350101905b60248360051b60c48235013582350101018210610d835750505060c08201526001600160401b0360e4602435013511610c7a573660243560e4810135016023011215610c7a5760243560e481013501600401356105c181612b0e565b906105cf6040519283612971565b808252602082013660248360051b60e482350135823501010111610c76576024803560e48101350101905b60248360051b60e48235013582350101018210610c7e5750505060e08201526001600160401b03610104602435013511610c7a5736602435610104810135016023011215610c7a57602435610104810135016004013561065981612b0e565b906106676040519283612971565b808252602082013660248360051b61010482350135823501010111610c7657602480356101048101350101905b60248360051b6101048235013582350101018210610a855750505061010082015261012460243501356001600160401b038111610a81573660238260243501011215610a8157600481602435010135906106ed82612b0e565b916106fb6040519384612971565b80835260208301913660248360061b83823501010111610a7d579160248381350101925b60248360061b8282350101018410610a44575050505061012082015261014460243501356101408201525a90600183815b610875575b50835b6080830151805182101561079d576107738261078792612f4d565b518051906040602082015191015191612fa8565b15610795575b600101610758565b84915061078d565b85836001600160401b036107ca8888610140810151801515908161085f575b50610830575b505a90612c2f565b166004358352600860205260408320908154906001600160401b03821601936001600160401b03851161081c57506001600160401b0360209416906001600160401b0319161790556040519015158152f35b80634e487b7160e01b602492526011600452fd5b610857600161084d6101406108455a87612c2f565b940151612a64565b5001918254612c3c565b9055856107c2565b6108699150612a64565b505460043514876107bc565b60408301518051821015610a3e578161088d91612f4d565b5160043586526002602052604086206020820151875260205260408620546040820151116109d457829181604084930151600435895260026020526040892060208301518a526020526108e560408a20918254612c2f565b905560408101518151895260026020526040892060208301518a5260205261091260408a20918254612c3c565b90556020810151600435895260026020526040892060208301518a526020526040892054906040519182527fab4d21442efe134c3d0c087e2b687e9593a1c09176f498d37873210cde052c459182602060043592a38151602083015191818b52600260205260408b2060208501518c52602052602060408c2054604051908152a38051604060208301519201516040519081527fae4812ebb7c47ac957e097b649541f0cd55d34b3576fb0db5739591d6f684367602060043592a40190610750565b608460405162461bcd60e51b815260206004820152602160248201527f496e73756666696369656e742062616c616e636520666f72207472616e73666560448201527f72000000000000000000000000000000000000000000000000000000000000006064820152fd5b50610755565b604084360312610a7957604060206024938251610a60816128f2565b873581528288013583820152815201940193915061071f565b8680fd5b8580fd5b8280fd5b81356001600160401b038111610a795761018060243561010481013501820136036023190112610a795760405190816101808101106001600160401b0361018084011117610c62576101808201604090815260248035610104810135018301908101358452604481013560208501526064810135918401919091526084810135606084015260a481013560808401526001600160401b0360c49091013511610c5a57610b44366024803561010481013501840160c48101350101612992565b60a083015260243561010481013501810160e401358015158103610c5e5760c0830152610104602435818101350182019081013560e08401526101248101356101008401526001600160401b036101449091013511610c5a57610bbb366024803561010481013501840161014481013501016135a2565b6101208301526001600160401b03602435610104810135018201610164013511610c5a57610bfd36602480356101048101350184016101648101350101612992565b6101408301526001600160401b03602435610104810135018201610184013511610c5a576024926020928392610c4790369087356101048101350101610184810135018701612992565b6101608201528152019201919050610694565b8780fd5b5f80fd5b634e487b7160e01b5f52604160045260245ffd5b8480fd5b5080fd5b81356001600160401b038111610a795760c060243560e481013501820136036023190112610a7957604051908160c08101106001600160401b0360c084011117610c625760c0820160409081526024803560e481013501830190810135845260448101356020850152606481013591840191909152608481013560608401526001600160401b0360a49091013511610c5a57610d2c366024803560e481013501840160a48101350101612992565b60808301526001600160401b0360243560e481013501820160c4013511610c5a576024926020928392610d71903690873560e4810135010160c4810135018701612992565b60a082015281520192019190506105fa565b81356001600160401b038111610a795760a060243560c481013501820136036023190112610a795760405190610db882612956565b6024803560c48101350182019081013583526001600160401b0360449091013511610c5a57610df9366024803560c4810135018401604481013501016135a2565b60208301526001600160401b0360243560c48101350182016064013511610c5a57610e36366024803560c481013501840160648101350101612992565b60408301526001600160401b0360243560c48101350182016084013511610c5a57610e73366024803560c481013501840160848101350101612992565b60608301526001600160401b0360243560c481013501820160a4013511610c5a576024926020928392610eb8903690873560c4810135010160a4810135018701612992565b60808201528152019201919050610565565b81356001600160401b038111610a7957608060243560a481013501820136036023190112610a795760405190610eff8261293b565b6024803560a4810135018201908101358352604401356001600160401b03811161109c573660243560a48101350183018201604301121561109c576024803560a48101350183018201013590610f5482612b0e565b91610f626040519384612971565b80835260208301913660448360071b838860a460243501356024350101010101116110985760243560a48101350185018101604401925b60448360071b838860a460243501356024350101010101841061104e575050505060208301526001600160401b0360243560a48101350182016064013511610c5a57610ff7366024803560a481013501840160648101350101613542565b60408301526001600160401b0360243560a48101350182016084013511610c5a57602492602092839261103c903690873560a481013501016084810135018701612992565b606082015281520192019190506104d0565b6080843603126110945760206080916040516110698161293b565b8635815282870135838201526040870135604082015260608701356060820152815201930192610f99565b8c80fd5b8b80fd5b8880fd5b82356001600160401b038111610a795760606024358401820136036023190112610a7957604051916110d183612920565b6024803585018301908101358452604481013560208501526001600160401b0360649091013511610c5a57602092839261111c90369060248035890190910160648101350101612b25565b604082015281520192019161043c565b81356001600160401b038111610c5a5760606024358601820136036023190112610c5a576040519061115d82612920565b60248035870182019081013583526044810135602084015260640135906001600160401b0382116112515736604383838a602435010101011215611251576024828289833501010101356111b081612b0e565b926111be6040519485612971565b81845260208401923660448b84848760061b9260243501010101011161109457604482828c60243501010101935b60448b84848760061b926024350101010101851061121c57505050505060408201528152602091820191016103b0565b60408536031261124d5760206040918251611236816128f2565b8735815282880135838201528152019401936111ec565b8d80fd5b8980fd5b608083360312610c5e57608060206024926040516112728161293b565b863581528287013583820152604087013560408201526060870135606082015281520193019290506102e5565b80fd5b503461129f57602036600319011261129f5760043590600a5482101561129f5760206112cd83612bfa565b90546040519160031b1c8152f35b503461129f57602036600319011261129f576004359060015482101561129f5760206001600160a01b0361130e84612bc5565b9190546040519260031b1c168152f35b503461129f57602036600319011261129f576001600160a01b0380611341612a4e565b168083528260205260ff6040842054161561146757808352826020526040832060ff198154169055825b600180548083101561145d579084918461138485612bc5565b949054600395861b1c161461139e5750505060010161136b565b9394919390925f199182810190811161144957906113cf846113c26113ee94612bc5565b905490891b1c1691612bc5565b9091906001600160a01b038084549260031b9316831b921b1916179055565b8254801561143557019261140184612bc5565b81939154921b1b19169055555b7f67c5a35d33d48c47ef33c82c62eda6254aad034fab4c51abe26a6d06ad174a348280a280f35b602487634e487b7160e01b81526031600452fd5b602488634e487b7160e01b81526011600452fd5b505050905061140e565b606460405162461bcd60e51b815260206004820152600c60248201527f4e6f7420617070726f76656400000000000000000000000000000000000000006044820152fd5b5034610c5e576080366003190112610c5e576040516114c98161293b565b60043580825260208083019160243583526044359285606060408701968688520192606435845280155f146118d4575033945b806118b757505080515f52600b83528560405f20548087521561183f575b61153f60ff925b518060601c9160ff6affffffffffffffffffffff8360081c16921690565b91939091168061168957505082516040516323b872dd60e01b8152336004820152306024820152604481019190915291849150829060649082908a906001600160a01b03165af190811561167e578691611648575b501561160457907fab4d21442efe134c3d0c087e2b687e9593a1c09176f498d37873210cde052c45915b5183865260028252604086208551875282526115df60408720918254612c3c565b905583519383865260028252604086209051865281526040852054604051908152a380f35b6064826040519062461bcd60e51b82526004820152601960248201527f4552433230207472616e7366657246726f6d206661696c6564000000000000006044820152fd5b90508281813d8311611677575b61165f8183612971565b81010312610a7d57518015158103610a7d575f611594565b503d611655565b6040513d88823e3d90fd5b939493919290916001810361173c57506001600160a01b0316803b15610a81576040516323b872dd60e01b81523360048201523060248201526bffffffffffffffffffffffff92909216604483015282908290606490829084905af180156117315761171d575b50508160017fab4d21442efe134c3d0c087e2b687e9593a1c09176f498d37873210cde052c4593526115be565b6117269061290d565b610c7657845f6116f0565b6040513d84823e3d90fd5b60029192935094939414611775575b5050907fab4d21442efe134c3d0c087e2b687e9593a1c09176f498d37873210cde052c45916115be565b6001600160a01b0316825191813b15610c5e5760c46bffffffffffffffffffffffff915f809460405196879586947ff242432a000000000000000000000000000000000000000000000000000000008652336004870152306024870152166044850152606484015260a060848401528160a48401525af18015611834576117fd575b8061174b565b7fab4d21442efe134c3d0c087e2b687e9593a1c09176f498d37873210cde052c459291955061182b9061290d565b5f9490916117f7565b6040513d5f823e3d90fd5b50805190600a5468010000000000000000811015610c62578060016118679201600a55612bfa565b81549060031b905f198095831b921b1916179055600a549182019182116118a35781865280515f908152600b855260409020919091558561151a565b634e487b7160e01b5f52601160045260245ffd5b60ff926118c661153f92612bfa565b90549060031b1c8152611521565b946114fc565b34610c5e576020366003190112610c5e576004355f52600b602052602060405f2054604051908152f35b34610c5e576040366003190112610c5e576004356001600160401b038111610c5e57611934903690600401612992565b602435801515809103610c5e577f4c34c2f9a78632f29fa59aaed5514cb742fd9fbcfd7ccc2c03c85f2bbc621c479161197b91604051928392604084526040840190612ae9565b9060208301520390a1005b34610c5e576020366003190112610c5e576004356001600160401b038111610c5e576119cf60206119bd6040933690600401612992565b818451938285809451938492016129e7565b810160038152030190206001815491015482519182526020820152f35b34610c5e576060366003190112610c5e5760043560ff8116809103610c5e57611a13612a38565b90604435906bffffffffffffffffffffffff82168203610c5e5760ff8111610c5e576020926cffffffffffffffffffffffff006040519360081b16906bffffffffffffffffffffffff199060601b1617178152f35b34610c5e576060366003190112610c5e576044356001600160401b038111610c5e57611aa8611a9d6020923690600401612b25565b602435600435612fa8565b6040519015158152f35b34610c5e576040366003190112610c5e576004356001600160401b038111610c5e57611b1a611b067f941296a39ea107bde685522318a4b6c2b544904a5dd82a512748ca2cf839bef7923690600401612992565b604051918291604083526040830190612ae9565b60243560208301520390a1005b34610c5e575f366003190112610c5e576020600a54604051908152f35b34610c5e576020366003190112610c5e576004355f52600860205260c060405f205463ffffffff604051916001600160401b038116835265ffffffffffff8160401c166020840152818160701c166040840152818160901c166060840152818160b01c16608084015260d01c1660a0820152f35b34610c5e57611bc636612a22565b905f52600260205260405f20905f52602052602060405f2054604051908152f35b34610c5e576020366003190112610c5e576001600160a01b03611c08612a4e565b165f525f602052602060ff60405f2054166040519015158152f35b34610c5e57602080600319360112610c5e57600435600954811015610c5e57611c4b90612a64565b5080546001916002600182015491019060405191855f95825492611c6e84612ab1565b8087529360018116908115611cf75750600114611cba575b50505050611c9a82611cb694950383612971565b6040519485948552840152606060408401526060830190612ae9565b0390f35b5f90815282812092975092915b828410611ce457505050820190930192611c9a85611cb684611c86565b8054868501890152928701928101611cc7565b60ff19168488015250505090151560051b8301019350611c9a85611cb684611c86565b34610c5e576040366003190112610c5e576024356001600160401b038111610c5e57611d57611d4f6020923690600401612992565b600435612c57565b604051908152f35b34610c5e576020366003190112610c5e5760606bffffffffffffffffffffffff60ff611da46004358060601c9160ff6affffffffffffffffffffff8360081c16921690565b9193906001600160a01b0360405195168552166020840152166040820152f35b34610c5e57611dd236612a08565b915f52600560205260405f20905f5260205260405f20908154811015610c5e576040915f5260205f209060011b016001815491015482519182526020820152f35b34610c5e57611e2136612a22565b905f52600660205260405f20905f52602052602060405f2054604051908152f35b34610c5e576020366003190112610c5e576004355f526007602052602060405f2054604051908152f35b34610c5e57611e7a36612a08565b825f93929352600260205260405f20835f52602052611e9e60405f20918254612c3c565b9055805f52600260205260405f20825f526020527fab4d21442efe134c3d0c087e2b687e9593a1c09176f498d37873210cde052c45602060405f2054604051908152a3005b34610c5e576020366003190112610c5e57611efc612a4e565b6001600160a01b03811690815f525f60205260ff60405f205416611f7e57815f525f60205260405f20600160ff198254161790556001549068010000000000000000821015610c62576113cf826001611f589401600155612bc5565b7fc395b1bd803c744a815bc34a0426e5eaac03513b9d76bf237a734a004916499c5f80a2005b606460405162461bcd60e51b815260206004820152601060248201527f416c726561647920617070726f766564000000000000000000000000000000006044820152fd5b34610c5e576040366003190112610c5e576001600160401b03600435818111610c5e57611ff3903690600401612992565b90602435908111610c5e577f27a8767ed172b48d7cf6dbb25d2840c5fa91ef78fa6e05c13c82763d099f03ca91612056612034612048933690600401612992565b604051938493604085526040850190612ae9565b908382036020850152612ae9565b0390a1005b34610c5e576040366003190112610c5e57005b34610c5e576040366003190112610c5e576002612089612a4e565b6cffffffffffffffffffffffff0060243560081b16906bffffffffffffffffffffffff199060601b1617175f52600b602052602060405f2054604051908152f35b34610c5e576040366003190112610c5e576004356001600160401b038111610c5e57611b1a611b067f6a837ff3973aa4181e7b9f07756f8b7ee366dd85a36655d2cb42cd47f10b9638923690600401612992565b34610c5e576080366003190112610c5e5760643560443560243560043581811461227b57805f526020936002855260405f20845f5285528060405f20541061223757847fae4812ebb7c47ac957e097b649541f0cd55d34b3576fb0db5739591d6f68436791835f526002825260405f20865f52825260405f206121a2828254612c2f565b9055845f526002825260405f20865f52825260405f206121c3828254612c3c565b9055835f526002825260405f20865f528252858583828760405f20546040519081527fab4d21442efe134c3d0c087e2b687e9593a1c09176f498d37873210cde052c45938491a3815f526002855260405f20835f5285528460405f2054604051908152a3604051908152a460405160018152f35b6064856040519062461bcd60e51b82526004820152601560248201527f496e73756666696369656e7420726573657276657300000000000000000000006044820152fd5b606460405162461bcd60e51b815260206004820152601760248201527f43616e6e6f74207472616e7366657220746f2073656c660000000000000000006044820152fd5b34610c5e576040366003190112610c5e576004356001600160401b038111610c5e57611b1a611b067f02d93529bba9d141e5e06733c52c7e6fbcb1149586adb5c24064b522ab26f1d7923690600401612992565b34610c5e576040366003190112610c5e576004356001600160401b038111610c5e5761238b6123677f62ddffe5b5108385f7a590f100e1ee414ad9551a31f089e64e82998440785e1e923690600401612992565b61236f612a38565b6001600160a01b03604051938493604085526040850190612ae9565b911660208301520390a1005b34610c5e576123a536612a22565b90805f526020916006835260405f20815f52835260405f2054915f526005835260405f20905f52825260405f208054916123de83612b0e565b926123ec6040519485612971565b80845284840180935f52855f20865f925b84841061245457505050505060405192604084019060408552518091526060840192905f5b8181106124355750505082938301520390f35b8251805186528701518786015260409094019391860191600101612422565b600191600291604051612466816128f2565b85548152848601548382015281520192019201919087906123fd565b34610c5e575f366003190112610c5e5760015b60148111156124a057005b60015b60038111156124bb57506124b690612c49565b612495565b815f5260029060209180835260405f20825f52835260405f20805490670de0b6b3a764000082018092116118a35761253394849387937fab4d21442efe134c3d0c087e2b687e9593a1c09176f498d37873210cde052c459355835f52815260405f20845f52815260405f2054604051908152a3612c49565b6124a3565b34610c5e575f366003190112610c5e576040518060018054928381526020809101809460015f527fb10e2d527612073b26eecdfd717e6a320cf44b4afac2b0732d9fcbe2b7fa0cf6905f5b8181106125d95750505083612599910384612971565b6040519281840190828552518091526040840194915f5b8281106125bd5785870386f35b83516001600160a01b03168752958101959281019284016125b0565b82546001600160a01b0316845292840192918501918501612583565b34610c5e576040366003190112610c5e576001600160401b03600435818111610c5e57612626903690600401612992565b90602435908111610c5e577fe8407a0209fa99ec3a7228aff140c3d3e68bd279391739c7e0b65cd406cc93b591612056612034612048933690600401612992565b34610c5e5761267536612a08565b9180331461283c5780331090815f146128355733915b1561282d57905b6040519360209485810190838252846040820152604081526126b381612920565b5190206040518681019182528681526126cb816128f2565b335f526002875260405f20865f5287528260405f2054106127c457867f36a23558c84aea8a6a7bbadf50a454e47507746fa69bf7cf58db85d9bdf063d8939261274092335f526002835260405f20895f52835260405f2061272d868254612c2f565b90556040519384928392519283916129e7565b81016004815203019020855f52865261275e60405f20918254612c3c565b808255835f526002875260405f20865f5287526127b860405f205491865f526002895260405f20885f528952600160405f205494015490604051948594859094939260609260808301968352602083015260408201520152565b0390a460405160018152f35b6084876040519062461bcd60e51b825260048201526024808201527f496e73756666696369656e7420726573657276657320666f722070726566756e60448201527f64696e67000000000000000000000000000000000000000000000000000000006064820152fd5b503390612692565b809161268b565b606460405162461bcd60e51b815260206004820152602060248201527f43616e6e6f742070726566756e64206163636f756e7420776974682073656c666044820152fd5b34610c5e576040366003190112610c5e576004356001600160401b038111610c5e5760206128b56128c8923690600401612992565b81604051938285809451938492016129e7565b810160048152030190206024355f526020526040805f206001815491015482519182526020820152f35b604081019081106001600160401b03821117610c6257604052565b6001600160401b038111610c6257604052565b606081019081106001600160401b03821117610c6257604052565b608081019081106001600160401b03821117610c6257604052565b60a081019081106001600160401b03821117610c6257604052565b90601f801991011681019081106001600160401b03821117610c6257604052565b81601f82011215610c5e578035906001600160401b038211610c6257604051926129c6601f8401601f191660200185612971565b82845260208383010111610c5e57815f926020809301838601378301015290565b5f5b8381106129f85750505f910152565b81810151838201526020016129e9565b6060906003190112610c5e57600435906024359060443590565b6040906003190112610c5e576004359060243590565b602435906001600160a01b0382168203610c5e57565b600435906001600160a01b0382168203610c5e57565b600954811015612a9d5760039060095f52027f6e1540171b6c0c960b71a7020d9f60077f6af931a8bbf590da0223dacf75c7af01905f90565b634e487b7160e01b5f52603260045260245ffd5b90600182811c92168015612adf575b6020831014612acb57565b634e487b7160e01b5f52602260045260245ffd5b91607f1691612ac0565b90602091612b02815180928185528580860191016129e7565b601f01601f1916010190565b6001600160401b038111610c625760051b60200190565b81601f82011215610c5e578035906020612b3e83612b0e565b936040612b4e6040519687612971565b848652828601918360a080970286010194818611610c5e578401925b858410612b7b575050505050505090565b8684830312610c5e578487918451612b9281612956565b86358152828701358382015285870135868201526060808801359082015260808088013590820152815201930192612b6a565b600154811015612a9d5760015f527fb10e2d527612073b26eecdfd717e6a320cf44b4afac2b0732d9fcbe2b7fa0cf601905f90565b600a54811015612a9d57600a5f527fc65a7bb8d6351c1cf70c95a316cc6a92839c986682d98bc35f958f4883f9d2a801905f90565b919082039182116118a357565b919082018092116118a357565b5f1981146118a35760010190565b90919080612de3575090604051612c6d81612920565b3381526020808201915f8352604081019384526009549268010000000000000000841015610c6257612ca6600194858101600955612a64565b919091612dd0576002925182555184820155019251908151916001600160401b038311610c6257612cd78554612ab1565b601f8111612d8a575b5081601f8411600114612d2857509282939183925f94612d1d575b50501b915f199060031b1c19161790555b6009545f1981019081116118a35790565b015192505f80612cfb565b919083601f198116875f52845f20945f905b88838310612d705750505010612d58575b505050811b019055612d0c565b01515f1960f88460031b161c191690555f8080612d4b565b858701518855909601959485019487935090810190612d3a565b855f52825f20601f850160051c810191848610612dc6575b601f0160051c019085905b828110612dbb575050612ce0565b5f8155018590612dad565b9091508190612da2565b634e487b7160e01b5f525f60045260245ffd5b612dec81612a64565b50543303612f09576002612dff82612a64565b500183516001600160401b038111610c6257612e1b8254612ab1565b601f8111612ec4575b50602080601f8311600114612e61575081929394955f92612e56575b50508160011b915f199060031b1c191617905590565b015190505f80612e40565b90601f19831696845f5260205f20925f905b898210612eac5750508360019596979810612e94575b505050811b01905590565b01515f1960f88460031b161c191690555f8080612e89565b80600185968294968601518155019501930190612e73565b825f5260205f20601f830160051c81019160208410612eff575b601f0160051c01905b818110612ef45750612e24565b5f8155600101612ee7565b9091508190612ede565b606460405162461bcd60e51b815260206004820152601760248201527f53656e646572206973206e6f7420687562206f776e65720000000000000000006044820152fd5b8051821015612a9d5760209160051b010190565b9190915f83820193841291129080158216911516176118a357565b7f800000000000000000000000000000000000000000000000000000000000000081146118a3575f0390565b929190808414613480578084101561341657604093845192602093848101908382528488820152878152612fdb81612920565b51902093865191818301958652818352612ff4836128f2565b5f5b8151811015613409576130098183612f4d565b5180519084810180516130218d840191825190612f61565b916130326060850193845190612f61565b6133c657808e91515f81125f1461338e57508a5f52600291828a52805f20875f528a525f20546130628251612f7c565b11613324578e61307561308d9251612f7c565b928c5f528a52805f20875f528a525f20918254612c2f565b90555b8c81515f81125f146132ec575050895f526002908188528d5f20855f5288528d5f20546130bd8251612f7c565b1161328357906130d08e94939251612f7c565b908b5f528852835f20855f5288526130ec845f20918254612c2f565b90555b825190816131018d8b519283916129e7565b820191888160049485815203019020855f5288528a8a855f209583515f81125f1461322e57505050508354916131378251612f7c565b83106131eb575060019594938e6131e260808e966131818f9761317b7f36a23558c84aea8a6a7bbadf50a454e47507746fa69bf7cf58db85d9bdf063d89851612f7c565b90612c2f565b85555b01516131948a8501918254612f61565b809155855f52600292838d52805f20895f528d52805f205493885f528d52805f20895f528d52805f205494549051948594859094939260609260808301968352602083015260408201520152565b0390a401612ff6565b60649150888f519162461bcd60e51b8352820152601760248201527f496e73756666696369656e7420636f6c6c61746572616c0000000000000000006044820152fd5b6131e2919295507f36a23558c84aea8a6a7bbadf50a454e47507746fa69bf7cf58db85d9bdf063d8945060019998979396815f60809313613270575b50613184565b61327b908654612c3c565b85555f61326a565b6084888f519062461bcd60e51b82526004820152602260248201527f526967687420656e7469747920696e73756666696369656e742072657365727660448201527f65730000000000000000000000000000000000000000000000000000000000006064820152fd5b90939291505f81136132ff575b506130ef565b8a5f5260028852835f20855f52885261331c845f20918254612c3c565b90555f6132f9565b506084888f519062461bcd60e51b82526004820152602160248201527f4c65667420656e7469747920696e73756666696369656e74207265736572766560448201527f73000000000000000000000000000000000000000000000000000000000000006064820152fd5b9190505f82136133a0575b5050613090565b6133bd908b5f5260028a52805f20875f528a525f20918254612c3c565b90555f8d613399565b6064888f519062461bcd60e51b82526004820152601760248201527f536574746c656d656e74206d7573742062616c616e63650000000000000000006044820152fd5b5060019750505050505050565b608460405162461bcd60e51b815260206004820152602860248201527f456e746974696573206d75737420626520696e206f7264657220286c6566742060448201527f3c207269676874290000000000000000000000000000000000000000000000006064820152fd5b606460405162461bcd60e51b815260206004820152601760248201527f43616e6e6f7420736574746c6520776974682073656c660000000000000000006044820152fd5b9291926134d082612b0e565b6040946134e06040519283612971565b81958483526020809301916060809602850194818611610c5e57925b85841061350c5750505050505050565b8684830312610c5e57848791845161352381612920565b86358152828701358382015285870135868201528152019301926134fc565b9080601f83011215610c5e57602090823561355c81612b0e565b9361356a6040519586612971565b81855260208086019260051b820101928311610c5e57602001905b828210613593575050505090565b81358152908301908301613585565b919060608084830312610c5e576040908151906135be82612920565b819580356001600160401b0390818111610c5e5782019186601f84011215610c5e5782356020936135ee82612b0e565b916135fb89519384612971565b808352858084019160051b830101918a8311610c5e5786809101915b8383106137a95750505050855282810135828111610c5e578761363b918301613542565b838601528581013590828211610c5e57019086601f83011215610c5e5781359061366482612b0e565b976136718851998a612971565b82895284808a019360051b85010193818511610c5e57858101935b85851061369f5750505050505050500152565b8435848111610c5e57820188601f198286030112610c5e578a51906136c382612920565b888101356001600160a01b0381168103610c5e5782528b810135868111610c5e57858a6136f292840101612992565b898301528981013590868211610c5e570184603f82011215610c5e5780898d92013561372961372082612b0e565b93519384612971565b8083528d8c8c8501920283010191878311610c5e57908e8c959396949201905b8682106137645750508394508d82015281520194019361368c565b909193959294508c82890312610c5e578b8f91828f93519061378582612920565b853582528386013584830152808601359082015281520191018b9492959391613749565b823581529181019187910161361756fea264697066735822122062bcccbff49f9d665349cce5210901dde4303ff7a09b72ee900f1e11c827a9a064736f6c63430008180033","linkReferences":{}},"methodIdentifiers":{"_activeDebts(bytes32)":"6b79134d","_channels(bytes)":"bfa4b7d9","_collaterals(bytes,uint256)":"0dedd624","_debtIndex(bytes32,uint256)":"7508b916","_debts(bytes32,uint256,uint256)":"88a1cd76","_hubs(uint256)":"a09fd42b","_reserves(bytes32,uint256)":"acd6f208","_tokens(uint256)":"ed70554d","addEntityProvider(address)":"58d642bc","approvedEntityProviders(address)":"abc8d1ac","debugBulkFundEntities()":"29ac1c4c","debugFundReserves(bytes32,uint256,uint256)":"5ffefe5b","entityProvidersList(uint256)":"ec6d8e06","entityScores(bytes32)":"ad89991b","externalTokenToReserve((bytes32,bytes32,uint256,uint256))":"dd865c8b","getApprovedProviders()":"266afe1b","getControlShareTokenId(address,uint256)":"4174a93d","getDebts(bytes32,uint256)":"31599c7d","getTokensLength()":"b0c26ecf","log(string,address)":"319af333","log(string,bool)":"c3b55635","log(string,bytes)":"23cdd8e8","log(string,bytes32)":"3692d61a","log(string,int256)":"3ca6268e","log(string,string)":"4b5c4277","log(string,uint256)":"b60e72cc","logChannel(bytes32,bytes32)":"41e83796","packTokenReference(uint8,address,uint96)":"bb2c250c","prefundAccount(bytes32,uint256,uint256)":"22c21577","processBatch(bytes32,((bytes32,uint256,uint256)[],(bytes32,bytes32,uint256,uint256)[],(bytes32,uint256,uint256)[],(uint256,bytes32,(bytes32,uint256)[])[],(bytes32,bytes32,(uint256,int256,int256,int256,int256)[])[],(bytes32,(uint256,int256,int256,int256)[],uint256[],bytes)[],(bytes32,(int256[],uint256[],(address,bytes,(uint256,uint256,uint256)[])[]),bytes,bytes,bytes)[],(bytes32,uint256,uint256,bytes32,bytes,bytes)[],(bytes32,uint256,uint256,uint256,bytes32,bytes,bool,uint256,uint256,(int256[],uint256[],(address,bytes,(uint256,uint256,uint256)[])[]),bytes,bytes)[],(uint256,uint256)[],uint256))":"f0570b1b","registerHub(uint256,string)":"a034af42","removeEntityProvider(address)":"ddc39480","reserveToReserve(bytes32,bytes32,uint256,uint256)":"3925cd44","settle(bytes32,bytes32,(uint256,int256,int256,int256,int256)[])":"b9e94dd5","tokenToId(bytes32)":"d19fd92e","unpackTokenReference(bytes32)":"92cf61e5"},"id":0}