{
  "_format": "hh-sol-artifact-1",
  "contractName": "ERC1155Mock",
  "sourceName": "contracts/ERC1155Mock.sol",
  "abi": [
    {
      "inputs": [],
      "stateMutability": "nonpayable",
      "type": "constructor"
    },
    {
      "inputs": [
        {
          "internalType": "address",
          "name": "sender",
          "type": "address"
        },
        {
          "internalType": "uint256",
          "name": "balance",
          "type": "uint256"
        },
        {
          "internalType": "uint256",
          "name": "needed",
          "type": "uint256"
        },
        {
          "internalType": "uint256",
          "name": "tokenId",
          "type": "uint256"
        }
      ],
      "name": "ERC1155InsufficientBalance",
      "type": "error"
    },
    {
      "inputs": [
        {
          "internalType": "address",
          "name": "approver",
          "type": "address"
        }
      ],
      "name": "ERC1155InvalidApprover",
      "type": "error"
    },
    {
      "inputs": [
        {
          "internalType": "uint256",
          "name": "idsLength",
          "type": "uint256"
        },
        {
          "internalType": "uint256",
          "name": "valuesLength",
          "type": "uint256"
        }
      ],
      "name": "ERC1155InvalidArrayLength",
      "type": "error"
    },
    {
      "inputs": [
        {
          "internalType": "address",
          "name": "operator",
          "type": "address"
        }
      ],
      "name": "ERC1155InvalidOperator",
      "type": "error"
    },
    {
      "inputs": [
        {
          "internalType": "address",
          "name": "receiver",
          "type": "address"
        }
      ],
      "name": "ERC1155InvalidReceiver",
      "type": "error"
    },
    {
      "inputs": [
        {
          "internalType": "address",
          "name": "sender",
          "type": "address"
        }
      ],
      "name": "ERC1155InvalidSender",
      "type": "error"
    },
    {
      "inputs": [
        {
          "internalType": "address",
          "name": "operator",
          "type": "address"
        },
        {
          "internalType": "address",
          "name": "owner",
          "type": "address"
        }
      ],
      "name": "ERC1155MissingApprovalForAll",
      "type": "error"
    },
    {
      "anonymous": false,
      "inputs": [
        {
          "indexed": true,
          "internalType": "address",
          "name": "account",
          "type": "address"
        },
        {
          "indexed": true,
          "internalType": "address",
          "name": "operator",
          "type": "address"
        },
        {
          "indexed": false,
          "internalType": "bool",
          "name": "approved",
          "type": "bool"
        }
      ],
      "name": "ApprovalForAll",
      "type": "event"
    },
    {
      "anonymous": false,
      "inputs": [
        {
          "indexed": true,
          "internalType": "address",
          "name": "operator",
          "type": "address"
        },
        {
          "indexed": true,
          "internalType": "address",
          "name": "from",
          "type": "address"
        },
        {
          "indexed": true,
          "internalType": "address",
          "name": "to",
          "type": "address"
        },
        {
          "indexed": false,
          "internalType": "uint256[]",
          "name": "ids",
          "type": "uint256[]"
        },
        {
          "indexed": false,
          "internalType": "uint256[]",
          "name": "values",
          "type": "uint256[]"
        }
      ],
      "name": "TransferBatch",
      "type": "event"
    },
    {
      "anonymous": false,
      "inputs": [
        {
          "indexed": true,
          "internalType": "address",
          "name": "operator",
          "type": "address"
        },
        {
          "indexed": true,
          "internalType": "address",
          "name": "from",
          "type": "address"
        },
        {
          "indexed": true,
          "internalType": "address",
          "name": "to",
          "type": "address"
        },
        {
          "indexed": false,
          "internalType": "uint256",
          "name": "id",
          "type": "uint256"
        },
        {
          "indexed": false,
          "internalType": "uint256",
          "name": "value",
          "type": "uint256"
        }
      ],
      "name": "TransferSingle",
      "type": "event"
    },
    {
      "anonymous": false,
      "inputs": [
        {
          "indexed": false,
          "internalType": "string",
          "name": "value",
          "type": "string"
        },
        {
          "indexed": true,
          "internalType": "uint256",
          "name": "id",
          "type": "uint256"
        }
      ],
      "name": "URI",
      "type": "event"
    },
    {
      "inputs": [
        {
          "internalType": "address",
          "name": "account",
          "type": "address"
        },
        {
          "internalType": "uint256",
          "name": "id",
          "type": "uint256"
        }
      ],
      "name": "balanceOf",
      "outputs": [
        {
          "internalType": "uint256",
          "name": "",
          "type": "uint256"
        }
      ],
      "stateMutability": "view",
      "type": "function"
    },
    {
      "inputs": [
        {
          "internalType": "address[]",
          "name": "accounts",
          "type": "address[]"
        },
        {
          "internalType": "uint256[]",
          "name": "ids",
          "type": "uint256[]"
        }
      ],
      "name": "balanceOfBatch",
      "outputs": [
        {
          "internalType": "uint256[]",
          "name": "",
          "type": "uint256[]"
        }
      ],
      "stateMutability": "view",
      "type": "function"
    },
    {
      "inputs": [
        {
          "internalType": "address",
          "name": "account",
          "type": "address"
        },
        {
          "internalType": "address",
          "name": "operator",
          "type": "address"
        }
      ],
      "name": "isApprovedForAll",
      "outputs": [
        {
          "internalType": "bool",
          "name": "",
          "type": "bool"
        }
      ],
      "stateMutability": "view",
      "type": "function"
    },
    {
      "inputs": [
        {
          "internalType": "address",
          "name": "to",
          "type": "address"
        },
        {
          "internalType": "uint256",
          "name": "id",
          "type": "uint256"
        },
        {
          "internalType": "uint256",
          "name": "amount",
          "type": "uint256"
        },
        {
          "internalType": "bytes",
          "name": "data",
          "type": "bytes"
        }
      ],
      "name": "mint",
      "outputs": [],
      "stateMutability": "nonpayable",
      "type": "function"
    },
    {
      "inputs": [
        {
          "internalType": "address",
          "name": "from",
          "type": "address"
        },
        {
          "internalType": "address",
          "name": "to",
          "type": "address"
        },
        {
          "internalType": "uint256[]",
          "name": "ids",
          "type": "uint256[]"
        },
        {
          "internalType": "uint256[]",
          "name": "values",
          "type": "uint256[]"
        },
        {
          "internalType": "bytes",
          "name": "data",
          "type": "bytes"
        }
      ],
      "name": "safeBatchTransferFrom",
      "outputs": [],
      "stateMutability": "nonpayable",
      "type": "function"
    },
    {
      "inputs": [
        {
          "internalType": "address",
          "name": "from",
          "type": "address"
        },
        {
          "internalType": "address",
          "name": "to",
          "type": "address"
        },
        {
          "internalType": "uint256",
          "name": "id",
          "type": "uint256"
        },
        {
          "internalType": "uint256",
          "name": "value",
          "type": "uint256"
        },
        {
          "internalType": "bytes",
          "name": "data",
          "type": "bytes"
        }
      ],
      "name": "safeTransferFrom",
      "outputs": [],
      "stateMutability": "nonpayable",
      "type": "function"
    },
    {
      "inputs": [
        {
          "internalType": "address",
          "name": "operator",
          "type": "address"
        },
        {
          "internalType": "bool",
          "name": "approved",
          "type": "bool"
        }
      ],
      "name": "setApprovalForAll",
      "outputs": [],
      "stateMutability": "nonpayable",
      "type": "function"
    },
    {
      "inputs": [
        {
          "internalType": "bytes4",
          "name": "interfaceId",
          "type": "bytes4"
        }
      ],
      "name": "supportsInterface",
      "outputs": [
        {
          "internalType": "bool",
          "name": "",
          "type": "bool"
        }
      ],
      "stateMutability": "view",
      "type": "function"
    },
    {
      "inputs": [
        {
          "internalType": "uint256",
          "name": "",
          "type": "uint256"
        }
      ],
      "name": "uri",
      "outputs": [
        {
          "internalType": "string",
          "name": "",
          "type": "string"
        }
      ],
      "stateMutability": "view",
      "type": "function"
    }
  ],
  "bytecode": "0x6080346100d857602081016001600160401b038111828210176100c2576040526000809152600254600190600181811c911680156100b8575b60208210146100a457601f811161005d575b8260025560405161105f90816100de8239f35b60028352601f0160051c7f405787fa12a823e0f2b7631cc41b3ba8828b3321ca811111fa75cd3aa3bb5ace908101905b81811061009a575061004a565b838155820161008d565b634e487b7160e01b83526022600452602483fd5b90607f1690610038565b634e487b7160e01b600052604160045260246000fd5b600080fdfe6080604052600436101561001257600080fd5b6000803560e01c908162fdd58e146100a95750806301ffc9a7146100a45780630e89341c1461009f5780632eb2c2d61461009a5780634e1273f414610095578063731133e914610090578063a22cb4651461008b578063e985e9c5146100865763f242432a1461008157600080fd5b6108a7565b610856565b6107a5565b610635565b61057b565b61041e565b6101fe565b61013c565b346100e25760403660031901126100e2576100d960209160406100ca6100e5565b9160243581528085522061098e565b54604051908152f35b80fd5b600435906001600160a01b03821682036100fb57565b600080fd5b602435906001600160a01b03821682036100fb57565b35906001600160a01b03821682036100fb57565b6001600160e01b03198116036100fb57565b346100fb5760203660031901126100fb57602060043561015b8161012a565b63ffffffff60e01b16636cdb3d1360e11b8114908115610199575b8115610188575b506040519015158152f35b6301ffc9a760e01b1490503861017d565b6303a24d0760e21b81149150610176565b919082519283825260005b8481106101d6575050826000602080949584010152601f8019910116010190565b6020818301810151848301820152016101b5565b9060206101fb9281815201906101aa565b90565b346100fb576020806003193601126100fb57604051906000906002546001918160011c92600183169283156102fd575b6020851084146102e95784875260208701939081156102ca5750600114610270575b61026c866102608188038261031d565b604051918291826101ea565b0390f35b6002600090815294509192917f405787fa12a823e0f2b7631cc41b3ba8828b3321ca811111fa75cd3aa3bb5ace5b8386106102b957505050910190506102608261026c38610250565b80548587015294820194810161029e565b60ff1916845250505090151560051b0190506102608261026c38610250565b634e487b7160e01b86526022600452602486fd5b93607f169361022e565b634e487b7160e01b600052604160045260246000fd5b601f909101601f19168101906001600160401b0382119082101761034057604052565b610307565b6001600160401b0381116103405760051b60200190565b9080601f830112156100fb57602090823561037681610345565b93610384604051958661031d565b81855260208086019260051b8201019283116100fb57602001905b8282106103ad575050505090565b8135815290830190830161039f565b6001600160401b03811161034057601f01601f191660200190565b81601f820112156100fb578035906103ee826103bc565b926103fc604051948561031d565b828452602083830101116100fb57816000926020809301838601378301015290565b346100fb5760a03660031901126100fb576104376100e5565b61043f610100565b60443591906001600160401b03908184116100fb576104636004943690860161035c565b906064358381116100fb5761047b903690870161035c565b926084359081116100fb5761049390369087016103d7565b936001600160a01b03808216903382141580610514575b6104f5578316156104dd57156104c6576104c49550610aaa565b005b604051626a0d4560e21b8152600081880152602490fd5b604051632bfa23e760e11b8152600081890152602490fd5b60405163711bec9160e11b8152806105108533838d016109bf565b0390fd5b5081600052600160205260ff61052e33604060002061098e565b5416156104aa565b90815180825260208080930193019160005b828110610556575050505090565b835185529381019392810192600101610548565b9060206101fb928181520190610536565b346100fb5760403660031901126100fb576004356001600160401b038082116100fb57366023830112156100fb5781600401356105b781610345565b926105c5604051948561031d565b8184526020916024602086019160051b830101913683116100fb57602401905b82821061061e57856024358681116100fb5761026c9161060c61061292369060040161035c565b90610a14565b6040519182918261056a565b83809161062a84610116565b8152019101906105e5565b346100fb5760803660031901126100fb5761064e6100e5565b6064356001600160401b0381116100fb5761066d9036906004016103d7565b6001600160a01b03821690811561078c5761068c604435602435610c60565b91815183519081810361077057505060005b82518110156106e0578060019160051b6106d86106d0896106cb602080868b010151958b0101519461097e565b61098e565b918254610c85565b90550161069e565b50926001825114600014610746576000602083015160008051602061100a83398151915261071a60208701516040519182913395836109d9565b0390a45b805160010361073c57906020806104c4959301519101519133610f7d565b6104c49333610d8f565b6000604051600080516020610fea833981519152339180610768888883610ca8565b0390a461071e565b610510604051928392635b05999160e01b8452600484016109d9565b604051632bfa23e760e11b815260006004820152602490fd5b346100fb5760403660031901126100fb576107be6100e5565b6024358015158082036100fb576001600160a01b03831692831561083e576107f390336000526001602052604060002061098e565b9060ff801983541691161790557f17307eab39ab6107e8899845ad3d59bd9653f200f220920489ca2b5937696c3160405180610839339482919091602081019215159052565b0390a3005b60405162ced3e160e81b815260006004820152602490fd5b346100fb5760403660031901126100fb57602060ff61089b6108766100e5565b61087e610100565b6001600160a01b039091166000908152600185526040902061098e565b54166040519015158152f35b346100fb5760a03660031901126100fb576108c06100e5565b6108c8610100565b6084356001600160401b0381116100fb576108e79036906004016103d7565b906001600160a01b0383811690338214158061095c575b6109405782161561078c5715610928576104c492610920606435604435610c60565b929091610aaa565b604051626a0d4560e21b815260006004820152602490fd5b60405163711bec9160e11b8152806105108733600484016109bf565b5081600052600160205260ff61097633604060002061098e565b5416156108fe565b6000526000602052604060002090565b9060018060a01b0316600052602052604060002090565b6109bb916000526000602052604060002061098e565b5490565b6001600160a01b0391821681529116602082015260400190565b908152602081019190915260400190565b80518210156109fe5760209160051b010190565b634e487b7160e01b600052603260045260246000fd5b91909180518351808203610770575050805190610a49610a3383610345565b92610a41604051948561031d565b808452610345565b60209190601f1901368484013760005b8151811015610a8f5780610a7e60019260051b85808287010151918a010151906109a5565b610a8882876109ea565b5201610a59565b509193505050565b6001600160a01b03909116815260200190565b94919091815184519081810361077057505060005b8251811015610b8c57600581901b83810160209081015191870101516001600160a01b03929186908a8516610b1c575b6001948216610b02575b50505001610abf565b610b12916106cb6106d09261097e565b9055388581610af9565b9192939050610b2e8a6106cb8461097e565b54838110610b555791879184600196959403610b4d8d6106cb8561097e565b559450610aef565b6040516303dee4c560e01b81526001600160a01b038c16600482015260248101919091526044810184905260648101839052608490fd5b509491939290936001855114600014610c27576020850151602083015160018060a01b039160008051602061100a83398151915260405180610bd6868816968a16953395836109d9565b0390a45b6001600160a01b038116610bf0575b5050505050565b8451600103610c1657602080610c0c9601519201519233610fb2565b3880808080610be9565b610c2294919233610e7e565b610c0c565b6040516001600160a01b0382811691908516903390600080516020610fea8339815191529080610c58888c83610ca8565b0390a4610bda565b9160405192600184526020840152604083019160018352606084015260808301604052565b91908201809211610c9257565b634e487b7160e01b600052601160045260246000fd5b9091610cbf6101fb93604084526040840190610536565b916020818403910152610536565b908160209103126100fb57516101fb8161012a565b92610d116101fb9593610d1f9360018060a01b031686526000602087015260a0604087015260a0860190610536565b908482036060860152610536565b9160808184039101526101aa565b93906101fb9593610d1191610d1f9460018060a01b03809216885216602087015260a0604087015260a0860190610536565b3d15610d8a573d90610d70826103bc565b91610d7e604051938461031d565b82523d6000602084013e565b606090565b9293919093843b610da1575050505050565b602091610dc4604051948593849363bc197c8160e01b9889865260048601610ce2565b038160006001600160a01b0388165af160009181610e4d575b50610e165782610deb610d5f565b8051919082610e0f57604051632bfa23e760e11b8152806105108460048301610a97565b9050602001fd5b6001600160e01b03191603610e3057503880808080610be9565b604051632bfa23e760e11b81529081906105109060048301610a97565b610e7091925060203d602011610e77575b610e68818361031d565b810190610ccd565b9038610ddd565b503d610e5e565b939290949194853b610e93575b505050505050565b610eb6602093604051958694859463bc197c8160e01b998a875260048701610d2d565b038160006001600160a01b0388165af160009181610ef8575b50610edd5782610deb610d5f565b6001600160e01b03191603610e305750388080808080610e8b565b610f1291925060203d602011610e7757610e68818361031d565b9038610ecf565b909260a0926101fb9594600180861b03168352600060208401526040830152606082015281608082015201906101aa565b91926101fb95949160a094600180871b0380921685521660208401526040830152606082015281608082015201906101aa565b9293919093843b610f8f575050505050565b602091610dc4604051948593849363f23a6e6160e01b9889865260048601610f19565b939290949194853b610fc657505050505050565b610eb6602093604051958694859463f23a6e6160e01b998a875260048701610f4a56fe4a39dc06d4c0dbc64b70af90fd698a233a518aa5d07e595d983b8c0526c8f7fbc3d58168c5ae7397731d063d5bbf3d657854427343f4c083240f7aacaa2d0f62a264697066735822122035744ec33e2b2ae47f0554c3288874aa47e7c6f2bbaa9b9ae21f14f6a368fd1264736f6c63430008180033",
  "linkReferences": {},
  "deployedLinkReferences": {}
}