{
  "_format": "hh-sol-artifact-1",
  "contractName": "EntityProvider",
  "sourceName": "contracts/EntityProvider.sol",
  "abi": [
    {
      "inputs": [],
      "stateMutability": "nonpayable",
      "type": "constructor"
    },
    {
      "inputs": [
        {
          "internalType": "address",
          "name": "sender",
          "type": "address"
        },
        {
          "internalType": "uint256",
          "name": "balance",
          "type": "uint256"
        },
        {
          "internalType": "uint256",
          "name": "needed",
          "type": "uint256"
        },
        {
          "internalType": "uint256",
          "name": "tokenId",
          "type": "uint256"
        }
      ],
      "name": "ERC1155InsufficientBalance",
      "type": "error"
    },
    {
      "inputs": [
        {
          "internalType": "address",
          "name": "approver",
          "type": "address"
        }
      ],
      "name": "ERC1155InvalidApprover",
      "type": "error"
    },
    {
      "inputs": [
        {
          "internalType": "uint256",
          "name": "idsLength",
          "type": "uint256"
        },
        {
          "internalType": "uint256",
          "name": "valuesLength",
          "type": "uint256"
        }
      ],
      "name": "ERC1155InvalidArrayLength",
      "type": "error"
    },
    {
      "inputs": [
        {
          "internalType": "address",
          "name": "operator",
          "type": "address"
        }
      ],
      "name": "ERC1155InvalidOperator",
      "type": "error"
    },
    {
      "inputs": [
        {
          "internalType": "address",
          "name": "receiver",
          "type": "address"
        }
      ],
      "name": "ERC1155InvalidReceiver",
      "type": "error"
    },
    {
      "inputs": [
        {
          "internalType": "address",
          "name": "sender",
          "type": "address"
        }
      ],
      "name": "ERC1155InvalidSender",
      "type": "error"
    },
    {
      "inputs": [
        {
          "internalType": "address",
          "name": "operator",
          "type": "address"
        },
        {
          "internalType": "address",
          "name": "owner",
          "type": "address"
        }
      ],
      "name": "ERC1155MissingApprovalForAll",
      "type": "error"
    },
    {
      "anonymous": false,
      "inputs": [
        {
          "indexed": true,
          "internalType": "address",
          "name": "account",
          "type": "address"
        },
        {
          "indexed": true,
          "internalType": "address",
          "name": "operator",
          "type": "address"
        },
        {
          "indexed": false,
          "internalType": "bool",
          "name": "approved",
          "type": "bool"
        }
      ],
      "name": "ApprovalForAll",
      "type": "event"
    },
    {
      "anonymous": false,
      "inputs": [
        {
          "indexed": true,
          "internalType": "bytes32",
          "name": "entityId",
          "type": "bytes32"
        },
        {
          "indexed": false,
          "internalType": "bytes32",
          "name": "newBoardHash",
          "type": "bytes32"
        }
      ],
      "name": "BoardActivated",
      "type": "event"
    },
    {
      "anonymous": false,
      "inputs": [
        {
          "indexed": true,
          "internalType": "bytes32",
          "name": "entityId",
          "type": "bytes32"
        },
        {
          "indexed": false,
          "internalType": "bytes32",
          "name": "proposedBoardHash",
          "type": "bytes32"
        }
      ],
      "name": "BoardProposed",
      "type": "event"
    },
    {
      "anonymous": false,
      "inputs": [
        {
          "indexed": true,
          "internalType": "bytes32",
          "name": "entityId",
          "type": "bytes32"
        },
        {
          "indexed": true,
          "internalType": "address",
          "name": "depository",
          "type": "address"
        },
        {
          "indexed": false,
          "internalType": "uint256",
          "name": "controlAmount",
          "type": "uint256"
        },
        {
          "indexed": false,
          "internalType": "uint256",
          "name": "dividendAmount",
          "type": "uint256"
        },
        {
          "indexed": false,
          "internalType": "string",
          "name": "purpose",
          "type": "string"
        }
      ],
      "name": "ControlSharesReleased",
      "type": "event"
    },
    {
      "anonymous": false,
      "inputs": [
        {
          "indexed": true,
          "internalType": "bytes32",
          "name": "entityId",
          "type": "bytes32"
        },
        {
          "indexed": true,
          "internalType": "uint256",
          "name": "entityNumber",
          "type": "uint256"
        },
        {
          "indexed": false,
          "internalType": "bytes32",
          "name": "boardHash",
          "type": "bytes32"
        }
      ],
      "name": "EntityRegistered",
      "type": "event"
    },
    {
      "anonymous": false,
      "inputs": [
        {
          "indexed": true,
          "internalType": "bytes32",
          "name": "entityId",
          "type": "bytes32"
        },
        {
          "indexed": false,
          "internalType": "uint256",
          "name": "controlTokenId",
          "type": "uint256"
        },
        {
          "indexed": false,
          "internalType": "uint256",
          "name": "dividendTokenId",
          "type": "uint256"
        }
      ],
      "name": "GovernanceEnabled",
      "type": "event"
    },
    {
      "anonymous": false,
      "inputs": [
        {
          "indexed": true,
          "internalType": "bytes32",
          "name": "entityId",
          "type": "bytes32"
        },
        {
          "indexed": false,
          "internalType": "bool",
          "name": "success",
          "type": "bool"
        },
        {
          "indexed": false,
          "internalType": "uint256",
          "name": "votingPower",
          "type": "uint256"
        }
      ],
      "name": "HankoClaimProcessed",
      "type": "event"
    },
    {
      "anonymous": false,
      "inputs": [
        {
          "indexed": true,
          "internalType": "bytes32",
          "name": "entityId",
          "type": "bytes32"
        },
        {
          "indexed": true,
          "internalType": "bytes32",
          "name": "hash",
          "type": "bytes32"
        }
      ],
      "name": "HankoVerified",
      "type": "event"
    },
    {
      "anonymous": false,
      "inputs": [
        {
          "indexed": true,
          "internalType": "string",
          "name": "name",
          "type": "string"
        },
        {
          "indexed": true,
          "internalType": "uint256",
          "name": "entityNumber",
          "type": "uint256"
        }
      ],
      "name": "NameAssigned",
      "type": "event"
    },
    {
      "anonymous": false,
      "inputs": [
        {
          "indexed": true,
          "internalType": "string",
          "name": "name",
          "type": "string"
        },
        {
          "indexed": true,
          "internalType": "uint256",
          "name": "fromNumber",
          "type": "uint256"
        },
        {
          "indexed": true,
          "internalType": "uint256",
          "name": "toNumber",
          "type": "uint256"
        }
      ],
      "name": "NameTransferred",
      "type": "event"
    },
    {
      "anonymous": false,
      "inputs": [
        {
          "indexed": true,
          "internalType": "bytes32",
          "name": "entityId",
          "type": "bytes32"
        },
        {
          "indexed": false,
          "internalType": "enum EntityProvider.ProposerType",
          "name": "cancelledBy",
          "type": "uint8"
        }
      ],
      "name": "ProposalCancelled",
      "type": "event"
    },
    {
      "anonymous": false,
      "inputs": [
        {
          "indexed": true,
          "internalType": "address",
          "name": "operator",
          "type": "address"
        },
        {
          "indexed": true,
          "internalType": "address",
          "name": "from",
          "type": "address"
        },
        {
          "indexed": true,
          "internalType": "address",
          "name": "to",
          "type": "address"
        },
        {
          "indexed": false,
          "internalType": "uint256[]",
          "name": "ids",
          "type": "uint256[]"
        },
        {
          "indexed": false,
          "internalType": "uint256[]",
          "name": "values",
          "type": "uint256[]"
        }
      ],
      "name": "TransferBatch",
      "type": "event"
    },
    {
      "anonymous": false,
      "inputs": [
        {
          "indexed": true,
          "internalType": "address",
          "name": "operator",
          "type": "address"
        },
        {
          "indexed": true,
          "internalType": "address",
          "name": "from",
          "type": "address"
        },
        {
          "indexed": true,
          "internalType": "address",
          "name": "to",
          "type": "address"
        },
        {
          "indexed": false,
          "internalType": "uint256",
          "name": "id",
          "type": "uint256"
        },
        {
          "indexed": false,
          "internalType": "uint256",
          "name": "value",
          "type": "uint256"
        }
      ],
      "name": "TransferSingle",
      "type": "event"
    },
    {
      "anonymous": false,
      "inputs": [
        {
          "indexed": false,
          "internalType": "string",
          "name": "value",
          "type": "string"
        },
        {
          "indexed": true,
          "internalType": "uint256",
          "name": "id",
          "type": "uint256"
        }
      ],
      "name": "URI",
      "type": "event"
    },
    {
      "inputs": [],
      "name": "FOUNDATION_ENTITY",
      "outputs": [
        {
          "internalType": "uint256",
          "name": "",
          "type": "uint256"
        }
      ],
      "stateMutability": "view",
      "type": "function"
    },
    {
      "inputs": [],
      "name": "TOTAL_CONTROL_SUPPLY",
      "outputs": [
        {
          "internalType": "uint256",
          "name": "",
          "type": "uint256"
        }
      ],
      "stateMutability": "view",
      "type": "function"
    },
    {
      "inputs": [],
      "name": "TOTAL_DIVIDEND_SUPPLY",
      "outputs": [
        {
          "internalType": "uint256",
          "name": "",
          "type": "uint256"
        }
      ],
      "stateMutability": "view",
      "type": "function"
    },
    {
      "inputs": [
        {
          "internalType": "bytes32",
          "name": "entityId",
          "type": "bytes32"
        }
      ],
      "name": "activateBoard",
      "outputs": [],
      "stateMutability": "nonpayable",
      "type": "function"
    },
    {
      "inputs": [
        {
          "internalType": "bytes32",
          "name": "",
          "type": "bytes32"
        }
      ],
      "name": "activeProposals",
      "outputs": [
        {
          "internalType": "bytes32",
          "name": "proposedBoardHash",
          "type": "bytes32"
        },
        {
          "internalType": "enum EntityProvider.ProposerType",
          "name": "proposerType",
          "type": "uint8"
        },
        {
          "internalType": "uint256",
          "name": "proposeBlock",
          "type": "uint256"
        },
        {
          "internalType": "uint256",
          "name": "activateBlock",
          "type": "uint256"
        },
        {
          "internalType": "bool",
          "name": "active",
          "type": "bool"
        }
      ],
      "stateMutability": "view",
      "type": "function"
    },
    {
      "inputs": [
        {
          "internalType": "string",
          "name": "name",
          "type": "string"
        },
        {
          "internalType": "uint256",
          "name": "entityNumber",
          "type": "uint256"
        }
      ],
      "name": "assignName",
      "outputs": [],
      "stateMutability": "nonpayable",
      "type": "function"
    },
    {
      "inputs": [
        {
          "internalType": "address",
          "name": "account",
          "type": "address"
        },
        {
          "internalType": "uint256",
          "name": "id",
          "type": "uint256"
        }
      ],
      "name": "balanceOf",
      "outputs": [
        {
          "internalType": "uint256",
          "name": "",
          "type": "uint256"
        }
      ],
      "stateMutability": "view",
      "type": "function"
    },
    {
      "inputs": [
        {
          "internalType": "address[]",
          "name": "accounts",
          "type": "address[]"
        },
        {
          "internalType": "uint256[]",
          "name": "ids",
          "type": "uint256[]"
        }
      ],
      "name": "balanceOfBatch",
      "outputs": [
        {
          "internalType": "uint256[]",
          "name": "",
          "type": "uint256[]"
        }
      ],
      "stateMutability": "view",
      "type": "function"
    },
    {
      "inputs": [
        {
          "internalType": "bytes[]",
          "name": "hankoDataArray",
          "type": "bytes[]"
        },
        {
          "internalType": "bytes32[]",
          "name": "hashes",
          "type": "bytes32[]"
        }
      ],
      "name": "batchVerifyHankoSignatures",
      "outputs": [
        {
          "internalType": "bytes32[]",
          "name": "entityIds",
          "type": "bytes32[]"
        },
        {
          "internalType": "bool[]",
          "name": "results",
          "type": "bool[]"
        }
      ],
      "stateMutability": "view",
      "type": "function"
    },
    {
      "inputs": [
        {
          "internalType": "bytes32",
          "name": "entityId",
          "type": "bytes32"
        },
        {
          "internalType": "enum EntityProvider.ProposerType",
          "name": "proposerType",
          "type": "uint8"
        },
        {
          "components": [
            {
              "internalType": "uint32",
              "name": "controlDelay",
              "type": "uint32"
            },
            {
              "internalType": "uint32",
              "name": "dividendDelay",
              "type": "uint32"
            },
            {
              "internalType": "uint32",
              "name": "foundationDelay",
              "type": "uint32"
            },
            {
              "internalType": "uint16",
              "name": "controlThreshold",
              "type": "uint16"
            }
          ],
          "internalType": "struct EntityProvider.EntityArticles",
          "name": "articles",
          "type": "tuple"
        }
      ],
      "name": "cancelBoardProposal",
      "outputs": [],
      "stateMutability": "nonpayable",
      "type": "function"
    },
    {
      "inputs": [
        {
          "internalType": "bytes32",
          "name": "",
          "type": "bytes32"
        }
      ],
      "name": "entities",
      "outputs": [
        {
          "internalType": "bytes32",
          "name": "currentBoardHash",
          "type": "bytes32"
        },
        {
          "internalType": "bytes32",
          "name": "proposedBoardHash",
          "type": "bytes32"
        },
        {
          "internalType": "uint256",
          "name": "activateAtBlock",
          "type": "uint256"
        },
        {
          "internalType": "uint256",
          "name": "registrationBlock",
          "type": "uint256"
        },
        {
          "internalType": "enum EntityProvider.ProposerType",
          "name": "proposerType",
          "type": "uint8"
        },
        {
          "internalType": "bytes32",
          "name": "articlesHash",
          "type": "bytes32"
        }
      ],
      "stateMutability": "view",
      "type": "function"
    },
    {
      "inputs": [
        {
          "internalType": "uint256",
          "name": "entityNumber",
          "type": "uint256"
        },
        {
          "internalType": "address",
          "name": "to",
          "type": "address"
        },
        {
          "internalType": "uint256",
          "name": "tokenId",
          "type": "uint256"
        },
        {
          "internalType": "uint256",
          "name": "amount",
          "type": "uint256"
        },
        {
          "internalType": "bytes",
          "name": "encodedBoard",
          "type": "bytes"
        },
        {
          "internalType": "bytes",
          "name": "encodedSignature",
          "type": "bytes"
        }
      ],
      "name": "entityTransferTokens",
      "outputs": [],
      "stateMutability": "nonpayable",
      "type": "function"
    },
    {
      "inputs": [
        {
          "internalType": "bytes32",
          "name": "boardHash",
          "type": "bytes32"
        },
        {
          "components": [
            {
              "internalType": "uint32",
              "name": "controlDelay",
              "type": "uint32"
            },
            {
              "internalType": "uint32",
              "name": "dividendDelay",
              "type": "uint32"
            },
            {
              "internalType": "uint32",
              "name": "foundationDelay",
              "type": "uint32"
            },
            {
              "internalType": "uint16",
              "name": "controlThreshold",
              "type": "uint16"
            }
          ],
          "internalType": "struct EntityProvider.EntityArticles",
          "name": "articles",
          "type": "tuple"
        }
      ],
      "name": "foundationRegisterEntity",
      "outputs": [
        {
          "internalType": "uint256",
          "name": "entityNumber",
          "type": "uint256"
        }
      ],
      "stateMutability": "nonpayable",
      "type": "function"
    },
    {
      "inputs": [
        {
          "internalType": "uint256",
          "name": "tokenId",
          "type": "uint256"
        }
      ],
      "name": "getEntityFromToken",
      "outputs": [
        {
          "internalType": "uint256",
          "name": "entityNumber",
          "type": "uint256"
        }
      ],
      "stateMutability": "pure",
      "type": "function"
    },
    {
      "inputs": [
        {
          "internalType": "bytes32",
          "name": "entityId",
          "type": "bytes32"
        }
      ],
      "name": "getEntityInfo",
      "outputs": [
        {
          "internalType": "bool",
          "name": "exists",
          "type": "bool"
        },
        {
          "internalType": "bytes32",
          "name": "currentBoardHash",
          "type": "bytes32"
        },
        {
          "internalType": "bytes32",
          "name": "proposedBoardHash",
          "type": "bytes32"
        },
        {
          "internalType": "uint256",
          "name": "registrationBlock",
          "type": "uint256"
        },
        {
          "internalType": "string",
          "name": "name",
          "type": "string"
        }
      ],
      "stateMutability": "view",
      "type": "function"
    },
    {
      "inputs": [
        {
          "internalType": "uint256",
          "name": "entityNumber",
          "type": "uint256"
        }
      ],
      "name": "getGovernanceInfo",
      "outputs": [
        {
          "internalType": "uint256",
          "name": "controlTokenId",
          "type": "uint256"
        },
        {
          "internalType": "uint256",
          "name": "dividendTokenId",
          "type": "uint256"
        },
        {
          "internalType": "uint256",
          "name": "controlSupply",
          "type": "uint256"
        },
        {
          "internalType": "uint256",
          "name": "dividendSupply",
          "type": "uint256"
        },
        {
          "internalType": "bool",
          "name": "hasActiveProposal",
          "type": "bool"
        },
        {
          "internalType": "bytes32",
          "name": "articlesHash",
          "type": "bytes32"
        }
      ],
      "stateMutability": "view",
      "type": "function"
    },
    {
      "inputs": [
        {
          "internalType": "uint256",
          "name": "entityNumber",
          "type": "uint256"
        }
      ],
      "name": "getTokenIds",
      "outputs": [
        {
          "internalType": "uint256",
          "name": "controlTokenId",
          "type": "uint256"
        },
        {
          "internalType": "uint256",
          "name": "dividendTokenId",
          "type": "uint256"
        }
      ],
      "stateMutability": "pure",
      "type": "function"
    },
    {
      "inputs": [
        {
          "internalType": "address",
          "name": "account",
          "type": "address"
        },
        {
          "internalType": "address",
          "name": "operator",
          "type": "address"
        }
      ],
      "name": "isApprovedForAll",
      "outputs": [
        {
          "internalType": "bool",
          "name": "",
          "type": "bool"
        }
      ],
      "stateMutability": "view",
      "type": "function"
    },
    {
      "inputs": [
        {
          "internalType": "address",
          "name": "",
          "type": "address"
        }
      ],
      "name": "nameQuota",
      "outputs": [
        {
          "internalType": "uint8",
          "name": "",
          "type": "uint8"
        }
      ],
      "stateMutability": "view",
      "type": "function"
    },
    {
      "inputs": [
        {
          "internalType": "string",
          "name": "",
          "type": "string"
        }
      ],
      "name": "nameToNumber",
      "outputs": [
        {
          "internalType": "uint256",
          "name": "",
          "type": "uint256"
        }
      ],
      "stateMutability": "view",
      "type": "function"
    },
    {
      "inputs": [],
      "name": "nextNumber",
      "outputs": [
        {
          "internalType": "uint256",
          "name": "",
          "type": "uint256"
        }
      ],
      "stateMutability": "view",
      "type": "function"
    },
    {
      "inputs": [
        {
          "internalType": "uint256",
          "name": "",
          "type": "uint256"
        }
      ],
      "name": "numberToName",
      "outputs": [
        {
          "internalType": "string",
          "name": "",
          "type": "string"
        }
      ],
      "stateMutability": "view",
      "type": "function"
    },
    {
      "inputs": [
        {
          "internalType": "bytes32",
          "name": "entityId",
          "type": "bytes32"
        },
        {
          "internalType": "bytes32",
          "name": "newBoardHash",
          "type": "bytes32"
        },
        {
          "internalType": "enum EntityProvider.ProposerType",
          "name": "proposerType",
          "type": "uint8"
        },
        {
          "components": [
            {
              "internalType": "uint32",
              "name": "controlDelay",
              "type": "uint32"
            },
            {
              "internalType": "uint32",
              "name": "dividendDelay",
              "type": "uint32"
            },
            {
              "internalType": "uint32",
              "name": "foundationDelay",
              "type": "uint32"
            },
            {
              "internalType": "uint16",
              "name": "controlThreshold",
              "type": "uint16"
            }
          ],
          "internalType": "struct EntityProvider.EntityArticles",
          "name": "articles",
          "type": "tuple"
        }
      ],
      "name": "proposeBoard",
      "outputs": [],
      "stateMutability": "nonpayable",
      "type": "function"
    },
    {
      "inputs": [
        {
          "internalType": "bytes",
          "name": "encodedBoard",
          "type": "bytes"
        },
        {
          "internalType": "bytes",
          "name": "encodedSignature",
          "type": "bytes"
        },
        {
          "internalType": "bytes32",
          "name": "hash",
          "type": "bytes32"
        }
      ],
      "name": "recoverEntity",
      "outputs": [
        {
          "internalType": "uint256",
          "name": "entityId",
          "type": "uint256"
        }
      ],
      "stateMutability": "view",
      "type": "function"
    },
    {
      "inputs": [
        {
          "internalType": "bytes32[]",
          "name": "boardHashes",
          "type": "bytes32[]"
        }
      ],
      "name": "registerNumberedEntitiesBatch",
      "outputs": [
        {
          "internalType": "uint256[]",
          "name": "entityNumbers",
          "type": "uint256[]"
        }
      ],
      "stateMutability": "nonpayable",
      "type": "function"
    },
    {
      "inputs": [
        {
          "internalType": "bytes32",
          "name": "boardHash",
          "type": "bytes32"
        }
      ],
      "name": "registerNumberedEntity",
      "outputs": [
        {
          "internalType": "uint256",
          "name": "entityNumber",
          "type": "uint256"
        }
      ],
      "stateMutability": "nonpayable",
      "type": "function"
    },
    {
      "inputs": [
        {
          "internalType": "uint256",
          "name": "entityNumber",
          "type": "uint256"
        },
        {
          "internalType": "address",
          "name": "depository",
          "type": "address"
        },
        {
          "internalType": "uint256",
          "name": "controlAmount",
          "type": "uint256"
        },
        {
          "internalType": "uint256",
          "name": "dividendAmount",
          "type": "uint256"
        },
        {
          "internalType": "string",
          "name": "purpose",
          "type": "string"
        },
        {
          "internalType": "bytes",
          "name": "encodedBoard",
          "type": "bytes"
        },
        {
          "internalType": "bytes",
          "name": "encodedSignature",
          "type": "bytes"
        }
      ],
      "name": "releaseControlShares",
      "outputs": [],
      "stateMutability": "nonpayable",
      "type": "function"
    },
    {
      "inputs": [
        {
          "internalType": "string",
          "name": "",
          "type": "string"
        }
      ],
      "name": "reservedNames",
      "outputs": [
        {
          "internalType": "bool",
          "name": "",
          "type": "bool"
        }
      ],
      "stateMutability": "view",
      "type": "function"
    },
    {
      "inputs": [
        {
          "internalType": "string",
          "name": "identifier",
          "type": "string"
        }
      ],
      "name": "resolveEntityId",
      "outputs": [
        {
          "internalType": "bytes32",
          "name": "",
          "type": "bytes32"
        }
      ],
      "stateMutability": "view",
      "type": "function"
    },
    {
      "inputs": [
        {
          "internalType": "address",
          "name": "from",
          "type": "address"
        },
        {
          "internalType": "address",
          "name": "to",
          "type": "address"
        },
        {
          "internalType": "uint256[]",
          "name": "ids",
          "type": "uint256[]"
        },
        {
          "internalType": "uint256[]",
          "name": "values",
          "type": "uint256[]"
        },
        {
          "internalType": "bytes",
          "name": "data",
          "type": "bytes"
        }
      ],
      "name": "safeBatchTransferFrom",
      "outputs": [],
      "stateMutability": "nonpayable",
      "type": "function"
    },
    {
      "inputs": [
        {
          "internalType": "address",
          "name": "from",
          "type": "address"
        },
        {
          "internalType": "address",
          "name": "to",
          "type": "address"
        },
        {
          "internalType": "uint256",
          "name": "id",
          "type": "uint256"
        },
        {
          "internalType": "uint256",
          "name": "value",
          "type": "uint256"
        },
        {
          "internalType": "bytes",
          "name": "data",
          "type": "bytes"
        }
      ],
      "name": "safeTransferFrom",
      "outputs": [],
      "stateMutability": "nonpayable",
      "type": "function"
    },
    {
      "inputs": [
        {
          "internalType": "address",
          "name": "operator",
          "type": "address"
        },
        {
          "internalType": "bool",
          "name": "approved",
          "type": "bool"
        }
      ],
      "name": "setApprovalForAll",
      "outputs": [],
      "stateMutability": "nonpayable",
      "type": "function"
    },
    {
      "inputs": [
        {
          "internalType": "address",
          "name": "user",
          "type": "address"
        },
        {
          "internalType": "uint8",
          "name": "quota",
          "type": "uint8"
        }
      ],
      "name": "setNameQuota",
      "outputs": [],
      "stateMutability": "nonpayable",
      "type": "function"
    },
    {
      "inputs": [
        {
          "internalType": "string",
          "name": "name",
          "type": "string"
        },
        {
          "internalType": "bool",
          "name": "reserved",
          "type": "bool"
        }
      ],
      "name": "setReservedName",
      "outputs": [],
      "stateMutability": "nonpayable",
      "type": "function"
    },
    {
      "inputs": [
        {
          "internalType": "bytes4",
          "name": "interfaceId",
          "type": "bytes4"
        }
      ],
      "name": "supportsInterface",
      "outputs": [
        {
          "internalType": "bool",
          "name": "",
          "type": "bool"
        }
      ],
      "stateMutability": "view",
      "type": "function"
    },
    {
      "inputs": [
        {
          "internalType": "bytes32",
          "name": "",
          "type": "bytes32"
        }
      ],
      "name": "totalControlSupply",
      "outputs": [
        {
          "internalType": "uint256",
          "name": "",
          "type": "uint256"
        }
      ],
      "stateMutability": "view",
      "type": "function"
    },
    {
      "inputs": [
        {
          "internalType": "bytes32",
          "name": "",
          "type": "bytes32"
        }
      ],
      "name": "totalDividendSupply",
      "outputs": [
        {
          "internalType": "uint256",
          "name": "",
          "type": "uint256"
        }
      ],
      "stateMutability": "view",
      "type": "function"
    },
    {
      "inputs": [
        {
          "internalType": "string",
          "name": "name",
          "type": "string"
        },
        {
          "internalType": "uint256",
          "name": "newEntityNumber",
          "type": "uint256"
        }
      ],
      "name": "transferName",
      "outputs": [],
      "stateMutability": "nonpayable",
      "type": "function"
    },
    {
      "inputs": [
        {
          "internalType": "uint256",
          "name": "",
          "type": "uint256"
        }
      ],
      "name": "uri",
      "outputs": [
        {
          "internalType": "string",
          "name": "",
          "type": "string"
        }
      ],
      "stateMutability": "view",
      "type": "function"
    },
    {
      "inputs": [
        {
          "internalType": "bytes",
          "name": "hankoData",
          "type": "bytes"
        },
        {
          "internalType": "bytes32",
          "name": "hash",
          "type": "bytes32"
        }
      ],
      "name": "verifyHankoSignature",
      "outputs": [
        {
          "internalType": "bytes32",
          "name": "entityId",
          "type": "bytes32"
        },
        {
          "internalType": "bool",
          "name": "success",
          "type": "bool"
        }
      ],
      "stateMutability": "view",
      "type": "function"
    }
  ],
  "bytecode": "0x60406080815234620002a8576200001f6200001962000351565b6200062d565b6200002a6001600455565b6200005d62000050602860405167636f696e6261736560c01b8152600760088201522090565b805460ff19166001179055565b6200008362000050602860405167657468657265756d60c01b8152600760088201522090565b620000a7620000506027604051663134ba31b7b4b760c91b81526007808201522090565b620000cb620000506027604051660756e69737761760cc1b81526007808201522090565b620001b7620000d9620002ed565b6103e88152610bb860208201526000818401526033606082015282516200014b816200013c602082019485919091606061ffff81608084019563ffffffff8082511686528060208301511660208701526040820151166040860152015116910152565b03601f198101835282620002c3565b519020620001586200030d565b907fa1237dddbd29f99fde152257ccb2f783e434670afa247b2a52d81a326d4cf0ad8252600060208301526000848301524360608301526000608083015260a0820152620001b160016000526003602052604060002090565b6200039b565b60017f52629ba16cb44b809941f19e442f11a9973e93cc91be0d91df4afbe6e7c624ca6001600160ff1b0182620001f8620001f16200032d565b8262000402565b6200020d620002066200032d565b8362000402565b6001600052600a602052620002497fbbc70db1b6c7afd11e79c0fb0051300458f1a3acb8ee9789d9b6b26c61ad9bc75b66038d7ea4c680009055565b6001600052600b6020526200027e7f72c6bfb7988af3a1efa6568f02a999bc52252641c659d85961ca3d372b57d5cf6200023d565b84519081526020810191909152604090a26200029a6002600455565b5161434b9081620009f98239f35b600080fd5b634e487b7160e01b600052604160045260246000fd5b601f909101601f19168101906001600160401b03821190821017620002e757604052565b620002ad565b60405190608082016001600160401b03811183821017620002e757604052565b6040519060c082016001600160401b03811183821017620002e757604052565b60405190602082016001600160401b03811183821017620002e75760405260008252565b60408051919082016001600160401b03811183821017620002e757604052602082527f68747470733a2f2f786c6e2e636f6d2f656e746974792f7b69647d2e6a736f6e6020830152565b908051825560208101516001830155604081015160028301556060810151600383015560048201906080810151906003821015620003ec5760059260a09260ff801983541691161790550151910155565b634e487b7160e01b600052602160045260246000fd5b9060405191600190818452602091602085019182526040850190808252606093606087019466038d7ea4c6800086526080880180604052885185518082036200057957505050908291826000905b62000519575b505050865114600014620004d95780600084517fc3d58168c5ae7397731d063d5bbf3d657854427343f4c083240f7aacaa2d0f62620004aa8851604051918291339583908152602081019190915260400190565b0390a45b855103620004ca5750620004c893505190519033620009c3565b565b915050620004c89233620008a6565b8060006040517f4a39dc06d4c0dbc64b70af90fd698a233a518aa5d07e595d983b8c0526c8f7fb33918062000510888d8362000782565b0390a4620004ae565b8951811015620005735780849160051b8b016200056962000560620005508688850151940151936000526000602052604060002090565b6001600052602052604060002090565b91825462000728565b9055018362000450565b62000456565b635b05999160e01b835260848b019190915260a48a0152604490fd5b90600182811c92168015620005c7575b6020831014620005b157565b634e487b7160e01b600052602260045260246000fd5b91607f1691620005a5565b601f8111620005df575050565b60009060026000526020600020906020601f850160051c8301941062000622575b601f0160051c01915b8281106200061657505050565b81815560010162000609565b909250829062000600565b80519091906001600160401b038111620002e75762000659816200065360025462000595565b620005d2565b602080601f8311600114620006a0575081906200068f939460009262000694575b50508160011b916000199060031b1c19161790565b600255565b0151905038806200067a565b6002600052601f198316949091907f405787fa12a823e0f2b7631cc41b3ba8828b3321ca811111fa75cd3aa3bb5ace926000905b8782106200070f575050836001959610620006f5575b505050811b01600255565b015160001960f88460031b161c19169055388080620006ea565b80600185968294968601518155019501930190620006d4565b919082018092116200073657565b634e487b7160e01b600052601160045260246000fd5b90815180825260208080930193019160005b8281106200076d575050505090565b8351855293810193928101926001016200075e565b90916200079c620007ab936040845260408401906200074c565b9160208184039101526200074c565b90565b90816020910312620002a857516001600160e01b031981168103620002a85790565b919082519283825260005b848110620007fd575050826000602080949584010152601f8019910116010190565b602081830181015184830182015201620007db565b9262000845620007ab9593620008549360018060a01b031686526000602087015260a0604087015260a08601906200074c565b9084820360608601526200074c565b916080818403910152620007d0565b3d15620008a1573d906001600160401b038211620002e7576040519162000895601f8201601f191660200184620002c3565b82523d6000602084013e565b606090565b929160013b620008b7575b50505050565b602091620008dc604051948593849363bc197c8160e01b988986526004860162000812565b0381600060015af16000918162000958575b506200092557620008fe62000863565b805190816200092057604051632bfa23e760e11b815260016004820152602490fd5b602001fd5b6001600160e01b031916036200093f5738808080620008b1565b604051632bfa23e760e11b815260016004820152602490fd5b6200098091925060203d60201162000988575b620009778183620002c3565b810190620007ae565b9038620008ee565b503d6200096b565b909260a092620007ab9594600180861b0316835260006020840152604083015260608201528160808201520190620007d0565b929160013b620009d35750505050565b602091620008dc604051948593849363f23a6e6160e01b98898652600486016200099056fe6080604052600436101561001257600080fd5b60003560e01c8062fdd58e1461029157806301ffc9a71461028c57806303db7616146102055780630e89341c146102875780630ebf19c6146102825780631e76fea51461027d5780631ed3d4401461027857806326760ce6146102735780632a20cc801461026e5780632eb2c2d6146102695780632fae4ffd14610264578063311cf8eb1461025f5780634e1273f41461025a578063504d23ea1461025557806357991d30146102505780635a7931c81461024b5780635b70ae41146102465780636702bc7714610241578063680c3ff21461023c57806368436f10146102375780637ea397c8146102325780638193e0071461022d578063820eec5f14610228578063848202fe146102235780638aad06281461021e5780638d197ec7146102195780638dbe6c38146102145780639248cd431461020f578063a22cb4651461020a578063a74f77e714610205578063c83fa48e14610200578063cce41598146101fb578063d8cb5fd5146101f6578063d93e68d6146101f1578063e1657b8a146101ec578063e5b338fd146101e7578063e8f48031146101e2578063e985e9c5146101dd578063edd2133b146101d85763f242432a146101d357600080fd5b611f1d565b611e5d565b611ded565b611dd1565b611d63565b611cae565b611c53565b611a95565b611953565b6117c2565b610396565b611729565b61169e565b611529565b611502565b6114b6565b611498565b611351565b611314565b611299565b611273565b61119c565b611118565b6110bf565b611057565b611001565b610fd0565b610f16565b610ea5565b610e8d565b610cff565b610c13565b610b03565b610ac3565b6108b0565b610651565b610414565b610328565b6102db565b600435906001600160a01b03821682036102ac57565b600080fd5b602435906001600160a01b03821682036102ac57565b35906001600160a01b03821682036102ac57565b346102ac5760403660031901126102ac57602061030d6102f9610296565b6024356000526000835260406000206112fd565b54604051908152f35b6001600160e01b03198116036102ac57565b346102ac5760203660031901126102ac57602060043561034781610316565b63ffffffff60e01b16636cdb3d1360e11b8114908115610385575b8115610374575b506040519015158152f35b6301ffc9a760e01b14905038610369565b6303a24d0760e21b81149150610362565b346102ac5760003660031901126102ac57602060405166038d7ea4c680008152f35b60005b8381106103cb5750506000910152565b81810151838201526020016103bb565b906020916103f4815180928185528580860191016103b8565b601f01601f1916010190565b9060206104119281815201906103db565b90565b346102ac576020806003193601126102ac57604051600091600254610438816109e6565b808452906001908181169081156104b25750600114610472575b61046e8461046281880382610574565b60405191829182610400565b0390f35b919350600260005283600020916000925b82841061049f575050508161046e936104629282010193610452565b8054858501870152928501928101610483565b60ff1916858501525050151560051b82010191506104628161046e610452565b634e487b7160e01b600052604160045260246000fd5b608081019081106001600160401b0382111761050357604052565b6104d2565b60c081019081106001600160401b0382111761050357604052565b606081019081106001600160401b0382111761050357604052565b60e081019081106001600160401b0382111761050357604052565b602081019081106001600160401b0382111761050357604052565b601f909101601f19168101906001600160401b0382119082101761050357604052565b604051906105a482610508565b565b604051906105a4826104e8565b6001600160401b03811161050357601f01601f191660200190565b9291926105da826105b3565b916105e86040519384610574565b8294818452818301116102ac578281602093846000960137010152565b9080601f830112156102ac57816020610411933591016105ce565b60406003198201126102ac57600435906001600160401b0382116102ac5761064a91600401610605565b9060243590565b346102ac5761065f36610620565b600091600183528260205261068261067a33604086206112fd565b541515611fc8565b61068b81610e41565b541561070d576106a561069d836109b6565b541515612014565b6106e66106b182610e41565b54916106c46106bf846109c6565b6120a6565b836106ce82610e41565b556106e1816106dc866109c6565b612134565b612209565b7fea3298815689e7c88c8a95c13838806450c4cee965a7c33dda77b335f64565788480a480f35b60405162461bcd60e51b815260206004820152601160248201527013985b59481b9bdd08185cdcda59db9959607a1b6044820152606490fd5b6024359060038210156102ac57565b6044359060038210156102ac57565b359063ffffffff821682036102ac57565b359061ffff821682036102ac57565b60809060431901126102ac576040519061079d826104e8565b8163ffffffff60443581811681036102ac57825260643581811681036102ac57602083015260843590811681036102ac57604082015260a4359061ffff821682036102ac5760600152565b60809060631901126102ac5760405190610801826104e8565b8163ffffffff60643581811681036102ac57825260843581811681036102ac57602083015260a43590811681036102ac57604082015260c4359061ffff821682036102ac5760600152565b60809060231901126102ac5760405190610865826104e8565b8163ffffffff60243581811681036102ac57825260443581811681036102ac57602083015260643590811681036102ac5760408201526084359061ffff821682036102ac5760600152565b346102ac5760c03660031901126102ac576004357f1022d6ed189b00c6d01d0bdfcc78a25b81a33fc04c61bc53abf2de6bbc60f3756109b16108f0610746565b6109606108fc36610784565b610910610908876109b6565b541515612229565b610927600161091e886109b6565b0154151561226c565b60405161094a8161093c6020820194856122ac565b03601f198101835282610574565b5190206005610958876109b6565b0154146122e4565b61098761098261097c6004610974886109b6565b015460ff1690565b83613138565b612323565b60006001610994866109b6565b0155600060026109a3866109b6565b01556040519182918261236d565b0390a2005b6000526003602052604060002090565b6000526006602052604060002090565b6000526000602052604060002090565b90600182811c92168015610a16575b6020831014610a0057565b634e487b7160e01b600052602260045260246000fd5b91607f16916109f5565b90604051918260008254610a33816109e6565b90818452602094600191600181169081600014610aa15750600114610a62575b5050506105a492500383610574565b600090815285812095935091905b818310610a895750506105a49350820101388080610a53565b85548884018501529485019487945091830191610a70565b925050506105a494925060ff191682840152151560051b820101388080610a53565b346102ac5760203660031901126102ac57600435600052600660205261046e610aef6040600020610a20565b6040519182916020835260208301906103db565b346102ac57610b1136610620565b6000916001835282602052610b2c61067a33604086206112fd565b80518015159081610c07575b5015610bcc57610b9490610b4e610908846109b6565b610b61610b5a82610e41565b541561237d565b83610b73610b6e856109c6565b610a20565b8051610bbb575b505082610b8682610e41565b556106e1816106dc856109c6565b7f0d74c26d085287bcf3070f20f8d884a204aa6f73949ab189d58abd345b1cac948380a380f35b610bc490610e41565b558338610b7a565b60405162461bcd60e51b8152602060048201526013602482015272092dcecc2d8d2c840dcc2daca40d8cadccee8d606b1b6044820152606490fd5b60209150111538610b38565b346102ac576020806003193601126102ac5760c0906004359081600052600a815260408060002054600b83528160002054906009845260ff6004846000200154169260038552600581600020015494815196808852600160ff1b179087015285015260608401521515608083015260a0820152f35b6001600160401b0381116105035760051b60200190565b9080601f830112156102ac576020908235610cb981610c88565b93610cc76040519586610574565b81855260208086019260051b8201019283116102ac57602001905b828210610cf0575050505090565b81358152908301908301610ce2565b346102ac5760a03660031901126102ac57610d18610296565b610d206102b1565b60443591906001600160401b03908184116102ac57610d4460049436908601610c9f565b906064358381116102ac57610d5c9036908701610c9f565b926084359081116102ac57610d749036908701610605565b936001600160a01b03808216903382141580610df5575b610dd657831615610dbe5715610da757610da59550613cc8565b005b604051626a0d4560e21b8152600081880152602490fd5b604051632bfa23e760e11b8152600081890152602490fd5b60405163711bec9160e11b815280610df18533838d016123c1565b0390fd5b5081600052600160205260ff610e0f3360406000206112fd565b541615610d8b565b60206003198201126102ac57600435906001600160401b0382116102ac5761041191600401610605565b6020610e5a9181604051938285809451938492016103b8565b8101600581520301902090565b6020610e809181604051938285809451938492016103b8565b8101600781520301902090565b346102ac57602061030d610ea036610e17565b610e41565b346102ac5760203660031901126102ac57600435600052600a6020526020604060002054604051908152f35b90815180825260208080930193019160005b828110610ef1575050505090565b835185529381019392810192600101610ee3565b906020610411928181520190610ed1565b346102ac5760403660031901126102ac576004356001600160401b038082116102ac57366023830112156102ac578160040135610f5281610c88565b92610f606040519485610574565b8184526020916024602086019160051b830101913683116102ac57602401905b828210610fb957856024358681116102ac5761046e91610fa7610fad923690600401610c9f565b9061243c565b60405191829182610f05565b838091610fc5846102c7565b815201910190610f80565b346102ac576020610fe8610fe336610e17565b6124c1565b604051908152f35b908152602081019190915260400190565b346102ac5760203660031901126102ac576040518061046e600435600160ff1b81179083610ff0565b6003111561103457565b634e487b7160e01b600052602160045260246000fd5b9060038210156110345752565b346102ac5760203660031901126102ac57600435600052600960205260a0604060002080549060ff6001820154169060028101546110ac60ff600460038501549401541693604051958652602086019061104a565b6040840152606083015215156080820152f35b346102ac5760203660031901126102ac57600435600052600b6020526020604060002054604051908152f35b9181601f840112156102ac578235916001600160401b0383116102ac57602083818601950101116102ac57565b346102ac5760e03660031901126102ac576111316102b1565b6001600160401b03906084358281116102ac576111529036906004016110eb565b60a4929192358481116102ac5761116d9036906004016110eb565b9160c4359586116102ac57611189610da59636906004016110eb565b95909460643590604435906004356126fa565b346102ac5760203660031901126102ac5760043560009080825260036020526111ca60408320541515612229565b80825260036020526111e46001604084200154151561226c565b6111fc60026111f2836109b6565b01544310156128e6565b6001611207826109b6565b0154611212826109b6565b5581600161121f836109b6565b015581600261122d836109b6565b01557f30b47f773c1d2a65ce0ef667c3b123d5abd927c62b56907569c0daf51cd6515061126d61125c836109b6565b546040519081529081906020820190565b0390a280f35b346102ac57602060ff61128d61128836610e17565b610e67565b54166040519015158152f35b346102ac5760403660031901126102ac576112b2610296565b60243560ff81168091036102ac5760009160018352826020526112db61067a33604086206112fd565b6001600160a01b03168252600860205260408220805460ff1916909117905580f35b9060018060a01b0316600052602052604060002090565b346102ac5760203660031901126102ac576001600160a01b03611335610296565b166000526008602052602060ff60406000205416604051908152f35b346102ac5760e03660031901126102ac576004357fc4e5e67fff3ba4bffbe07d84c897dbf61a0027b703754b45a5c9de6b58bfd7936109b1602435611447611397610755565b61141b63ffffffff6113e5836113ac366107e8565b6113b86109088c6109b6565b6113e08b600561095860405160208101906113d78161093c89856122ac565b519020926109b6565b613209565b166113f1811515612929565b6113fa8361102a565b6001830361147b575b600161140e896109b6565b0154611457575b436129d2565b836001611427896109b6565b01556002611434886109b6565b01556004611441876109b6565b016129df565b6040519081529081906020820190565b61147661147161146b60046109748c6109b6565b85613138565b61296e565b611415565b6114848361102a565b8215611403576114938361102a565b611403565b346102ac5760003660031901126102ac576020600454604051908152f35b346102ac5760403660031901126102ac576004356001600160401b0381116102ac576114f46114eb60409236906004016110eb565b60243591612ccc565b825191825215156020820152f35b346102ac5760203660031901126102ac576040516004356001600160ff1b03168152602090f35b346102ac5760a03660031901126102ac5761046e6004356115493661084c565b9060009160018352826020526000805160206142d683398151915261167260409361157961067a338789206112fd565b6115df60045496879561159361158e88612ba6565b600455565b87516115a78161093c6020820194856122ac565b5190206115b2610597565b918483528060208401528089840152436060840152608083015260a08201526115da866109b6565b612f66565b83806000805160206142f683398151915281600160ff1b81179590946116296001600160a01b03851661161a611613612fb0565b8983613813565b88611623612fb0565b91613813565b61164c61164085600052600a602052604060002090565b66038d7ea4c680009055565b61166361164085600052600b602052604060002090565b89519081529081906020820190565b0390a3611683855192839283610ff0565b0390a2519081529081906020820190565b801515036102ac57565b346102ac5760403660031901126102ac576004356001600160401b0381116102ac576116d1610da5913690600401610605565b611718602435916116e183611694565b6001600090815260205261128861067a337fada5013122d395ba3c54772283fb069b10426056ef8ca54750cb9bb552a59e7d6112fd565b9060ff801983541691151516179055565b346102ac5760403660031901126102ac57611742610296565b60243561174e81611694565b6001600160a01b0382169182156117aa578161171861177a9233600052600160205260406000206112fd565b60405190151581527f17307eab39ab6107e8899845ad3d59bd9653f200f220920489ca2b5937696c3160203392a3005b60405162ced3e160e81b815260006004820152602490fd5b346102ac5760c03660031901126102ac576004356117de6102b1565b6001600160401b03919060643590604435906084358581116102ac576118089036906004016110eb565b60a4359687116102ac5761188a61189092879261182c610da59a36906004016110eb565b9160405160208101906e22a72a24aa2cafaa2920a729a322a960891b825287602f82015260018060601b03198a60601b16604f8201528a60638201528b60838201524260a382015260a381526118818161053e565b5190209361309d565b14612566565b6040519361189d85610559565b600085526001600160a01b0316613192565b9181601f840112156102ac578235916001600160401b0383116102ac576020808501948460051b0101116102ac57565b6040810190604081528251809252606081019160208094019060005b81811061193f575050508281830391015281808451928381520193019160005b828110611929575050505090565b835115158552938101939281019260010161191b565b8251855293850193918501916001016118fb565b346102ac576040806003193601126102ac576001600160401b03600480358281116102ac576119869036906004016118af565b9390926024359081116102ac576119a19036906004016118af565b906119ad828714612fc3565b6119b6866123db565b936119c0876123db565b9660005b8181106119d95785518061046e8b8a836118df565b806119e68792848b613007565b6119f4838989969496613048565b3593611a1283519586938493631155a0c560e31b85528a8501613074565b0381305afa8015611a905760019282918c6000928392611a54575b50611a439293611a3c91612423565b9015159052565b611a4d828a612423565b52016119c4565b611a439350611a3c919250611a7e908c8d3d10611a89575b611a768183610574565b810190613058565b909390929150611a2d565b503d611a6c565b613091565b346102ac576020806003193601126102ac5760049081356001600160401b0381116102ac57611ac89036906004016118af565b91611ad2836123db565b92611adb6105a6565b6103e8815290610bb86020830152604093611af98584016127109052565b606092611b096060820160339052565b8551611b1d8161093c6020820194856122ac565b5190209260009160005b848110611b3b5787518061046e8b82610f05565b895460019190806000805160206142d68339815191528886611c3f8e611ba38f8f8e8e81611b768e611b6f61158e8f612ba6565b8b8b613048565b3594611b80610597565b95865285015281868501524390840152608083015260a08201526115da886109b6565b85806000805160206142f6833981519152611c32611c228c84600160ff1b81179a9099611bef6001600160a01b038816611be68d611bdf612fb0565b9083613813565b8d611623612fb0565b611c0661164088600052600a602052604060002090565b611c1d61164088600052600b602052604060002090565b613048565b8551903581529081906020820190565b0390a35192839283610ff0565b0390a2611c4c828c612423565b5201611b27565b346102ac5760603660031901126102ac576001600160401b036004358181116102ac57611c849036906004016110eb565b91906024359182116102ac57602092611ca4610fe89336906004016110eb565b916044359361309d565b346102ac5760203660031901126102ac5761046e60043560045490611cd561158e83612ba6565b816000805160206142d6833981519152611672611cf06105a6565b6103e8815293610bb860208601526115df604095611d118782016127109052565b603360608201528651611d2c8161093c6020820194856122ac565b519020611d37610597565b90838252600060208301526000888301524360608301526000608083015260a08201526115da866109b6565b346102ac5760203660031901126102ac57600435600052600360205260c06040600020805490611dca6001820154916002810154600382015490600560ff60048501541693015494604051968752602087015260408601526060850152608084019061104a565b60a0820152f35b346102ac5760003660031901126102ac57602060405160018152f35b346102ac5760403660031901126102ac57602060ff61128d611e0d610296565b611e156102b1565b6001600160a01b03909116600090815260018552604090206112fd565b919260a0936104119695921515845260208401526040830152606082015281608082015201906103db565b346102ac5760203660031901126102ac5760043560609080600052600360205261046e60406000209260405192611e9384610508565b845484526001850154936020810194855260028601546040820152600560038701549660608301978852611ed160ff60048301541660808501612f5a565b015460a082015251935194519080151580611f12575b611efc575b5060405194848695151586611e32565b611f0b919250610b6e906109c6565b9038611eec565b506004548110611ee7565b346102ac5760a03660031901126102ac57611f36610296565b611f3e6102b1565b6084356001600160401b0381116102ac57611f5d903690600401610605565b906001600160a01b038316338114159081611fa5575b50611f8957610da5926064359160443591613192565b60405163711bec9160e11b815280610df18533600484016123c1565b9050600052600160205260ff611fbf3360406000206112fd565b54161538611f73565b15611fcf57565b60405162461bcd60e51b815260206004820152601d60248201527f4f6e6c7920666f756e646174696f6e20746f6b656e20686f6c646572730000006044820152606490fd5b1561201b57565b60405162461bcd60e51b815260206004820152601b60248201527a15185c99d95d08195b9d1a5d1e48191bd95cdb89dd08195e1a5cdd602a1b6044820152606490fd5b818110612069575050565b6000815560010161205e565b634e487b7160e01b600052601160045260246000fd5b908160061b91808304604014901517156120a157565b612075565b6120b081546109e6565b90816120ba575050565b81601f600093116001146120cc575055565b9080839182526120eb601f60208420940160051c84016001850161205e565b5555565b9190601f81116120fe57505050565b6105a4926000526020600020906020601f840160051c8301931061212a575b601f0160051c019061205e565b909150819061211d565b81519192916001600160401b0381116105035761215b8161215584546109e6565b846120ef565b602080601f831160011461219e5750819061218f939495600092612193575b50508160011b916000199060031b1c19161790565b9055565b01519050388061217a565b90601f198316956121b485600052602060002090565b926000905b8882106121f1575050836001959697106121d8575b505050811b019055565b015160001960f88460031b161c191690553880806121ce565b806001859682949686015181550195019301906121b9565b612221906020604051928284809451938492016103b8565b810103902090565b1561223057565b60405162461bcd60e51b8152602060048201526014602482015273115b9d1a5d1e48191bd95cdb89dd08195e1a5cdd60621b6044820152606490fd5b1561227357565b60405162461bcd60e51b8152602060048201526011602482015270139bc81c1c9bdc1bdcd95908189bd85c99607a1b6044820152606490fd5b919091606061ffff81608084019563ffffffff8082511686528060208301511660208701526040820151166040860152015116910152565b156122eb57565b60405162461bcd60e51b815260206004820152601060248201526f496e76616c69642061727469636c657360801b6044820152606490fd5b1561232a57565b60405162461bcd60e51b815260206004820152601b60248201527a10d85b9b9bdd0818d85b98d95b081d1a1a5cc81c1c9bdc1bdcd85b602a1b6044820152606490fd5b6020810192916105a4919061104a565b1561238457565b60405162461bcd60e51b815260206004820152601560248201527413985b5948185b1c9958591e48185cdcda59db9959605a1b6044820152606490fd5b6001600160a01b0391821681529116602082015260400190565b906123e582610c88565b6123f26040519182610574565b8281528092612403601f1991610c88565b0190602036910137565b634e487b7160e01b600052603260045260246000fd5b80518210156124375760209160051b010190565b61240d565b919091805183518082036124a557505061245681516123db565b9060009060005b815181101561249d578061248b60019260051b85602080808489010151938c010151825252604086206112fd565b546124968287612423565b520161245d565b509193505050565b610df1604051928392635b05999160e01b845260048401610ff0565b6124ca90610e41565b54806104115750600090565b156124dd57565b60405162461bcd60e51b815260206004820152601a602482015279496e76616c6964206465706f7369746f7279206164647265737360301b6044820152606490fd5b1561252657565b60405162461bcd60e51b81526020600482015260186024820152774d7573742072656c6561736520736f6d6520746f6b656e7360401b6044820152606490fd5b1561256d57565b60405162461bcd60e51b8152602060048201526018602482015277496e76616c696420656e74697479207369676e617475726560401b6044820152606490fd5b156125b457565b60405162461bcd60e51b815260206004820152601b60248201527a496e73756666696369656e7420636f6e74726f6c20746f6b656e7360281b6044820152606490fd5b908060209392818452848401376000828201840152601f01601f1916010190565b91608061041193604081526015604082015274434f4e54524f4c5f53484152455f52454c4541534560581b606082015281602082015201916125f7565b1561265c57565b60405162461bcd60e51b815260206004820152601c60248201527b496e73756666696369656e74206469766964656e6420746f6b656e7360201b6044820152606490fd5b916080610411936040815260166040820152754449564944454e445f53484152455f52454c4541534560501b606082015281602082015201916125f7565b61041194926060928252602082015281604082015201916125f7565b97906127f98961188a8699869d8a98967ff49b3b7be24475e2415d445c296967f90953e7daabd954e5be9f28f80b4689239d6128389b99889d9961274760018060a01b038b1615156124d6565b6127e56127768d8415159d8e86156128dd575b6127639061251f565b61276f6109088d6109b6565b36916105ce565b80516020918201206040517552454c454153455f434f4e54524f4c5f53484152455360501b928101928352603681018c905260609d909d1b6001600160601b03191660568e0152606a8d0194909452608a8c019290925260aa8b01929092524260ca8b015290899060ea820190565b0398611881601f199a8b8101835282610574565b6001600160a01b0389169187908b8b600160ff1b811792612890575b5050878261283d575b505050505060405194859460018060a01b031698856126de565b0390a3565b8461285f8461285761288698612852876109d6565b6112fd565b541015612655565b61288160405195866128758b8b602084016126a0565b03908101875286610574565b613192565b388086818761281e565b6128ac6128d6926128a488612852856109d6565b5410156125ad565b8d604051916128cf836128c38c8c60208401612618565b03888101855284610574565b8b88613192565b8b38612815565b5084151561275a565b156128ed57565b60405162461bcd60e51b815260206004820152601460248201527311195b185e481c195c9a5bd9081b9bdd081b595d60621b6044820152606490fd5b1561293057565b60405162461bcd60e51b8152602060048201526016602482015275141c9bdc1bdcd95c881d1e5c1948191a5cd8589b195960521b6044820152606490fd5b1561297557565b60405162461bcd60e51b815260206004820152602160248201527f43616e6e6f74206f76657272696465206578697374696e672070726f706f73616044820152601b60fa1b6064820152608490fd5b90600782018092116120a157565b919082018092116120a157565b9060038110156110345760ff80198354169116179055565b9080601f830112156102ac576020908235612a1181610c88565b93612a1f6040519586610574565b81855260208086019260051b8201019283116102ac57602001905b828210612a48575050505090565b81358152908301908301612a3a565b60209182828203126102ac576001600160401b03918035908382116102ac5701926060926060858403126102ac57604092835195612a9487610523565b80358381116102ac5782612aa99183016129f7565b8752838101358381116102ac5782612ac2918301610605565b8488015284810135908382116102ac57019181601f840112156102ac57823590612aeb82610c88565b96612af887519889610574565b828852858089019360051b860101948486116102ac57868101935b868510612b2857505050505050505082015290565b84358481116102ac5782019060809081601f19848a0301126102ac578a51612b4f816104e8565b8a84013581528b8401358781116102ac57898c612b6e92870101610c9f565b8b82015285840135928784116102ac57848d612b918c8f80999881990101610c9f565b90840152013586820152815201940193612b13565b60001981146120a15760010190565b15612bbc57565b60405162461bcd60e51b815260206004820152602560248201527f436c61696d20696e64657865732f77656967687473206c656e677468206d69736044820152640dac2e8c6d60db1b6064820152608490fd5b15612c1657565b60405162461bcd60e51b815260206004820152601a602482015279456e7469747920696e646578206f7574206f6620626f756e647360301b6044820152606490fd5b6000198101919082116120a157565b919082039182116120a157565b15612c7b57565b60405162461bcd60e51b8152602060048201526024808201527f5265666572656e63656420636c61696d20696e646578206f7574206f6620626f604482015263756e647360e01b6064820152608490fd5b612cdb91939293810190612a57565b90602090612cec60208401516132fd565b805192612cfb848651516129d2565b92604091612d106040880195865151906129d2565b94612d1a876123db565b96600096875b8751811015612da1576041612d35828a612423565b515114612d45575b600101612d20565b612d59612d52828a612423565b518d613488565b8a6001600160a01b038216612d70575b5050612d3d565b99612d94612d9992612d85836001969e612423565b6001600160a01b039091169052565b612ba6565b98908a612d69565b509497995094509496919096612db6816123db565b9860005b828110612f20575050506000905b85518051831015612ee95782612ddd91612423565b5191612df3612dec848c61365b565b8451613755565b50888301988951519a612e0c8a86019c8d515114612bb5565b6000998a5b8c518051821015612eb857612e288f918390612423565b51612e348b8210612c0f565b89515180821015612e4c575050506001905b01612e11565b918d849f928e908d612e6183600199986129d2565b821015612e875750505050612e8192612e7a9151612423565b51906129d2565b9b612e46565b92612ea9612e7a9593612ea4612eb294612e819a97515190612c67565b612c67565b90515111612c74565b51612423565b50509b50936060919992939a50015111612ed85760010190979596612dc8565b505050505050509050600090600090565b509750505050509150505180519081612f06575050600090600090565b612f12612f1892612c58565b90612423565b515190600190565b80612f4f612f45612f386001949c9e979d9c86612423565b516001600160a01b031690565b612d858388612423565b019997989299612dba565b60038210156110345752565b90805182556020810151600183015560408101516002830155606081015160038301556080810151600381101561103457600591612fa960a092600486016129df565b0151910155565b60405190612fbd82610559565b60008252565b15612fca57565b60405162461bcd60e51b8152602060048201526015602482015274082e4e4c2f240d8cadccee8d040dad2e6dac2e8c6d605b1b6044820152606490fd5b91908110156124375760051b81013590601e19813603018212156102ac5701803591906001600160401b0383116102ac5760200182360381136102ac579190565b91908110156124375760051b0190565b91908260409103126102ac576020825192015161041181611694565b93929160209161308c916040875260408701916125f7565b930152565b6040513d6000823e3d90fd5b6130a83683836105ce565b6020815191012094600180600454905b8181106130dd57505050916130d2939161ffff9593613ba8565b166104115750600090565b806130e884926109b6565b54151580613126575b6130fc575b016130b8565b905061ffff61310e8989898989613ba8565b1661311a5782906130f6565b97505050505050505090565b5089613131826109b6565b54146130f1565b6003811015611034576001811461316d576131528161102a565b1561315d5750600090565b8061316960029261102a565b1490565b508061317a60019261102a565b141590565b6001600160a01b03909116815260200190565b939291906001600160a01b03808216156131f0578516156131d8576105a49460405192600184526020840152604083019360018552606084015260808301604052613cc8565b604051626a0d4560e21b815260006004820152602490fd5b604051632bfa23e760e11b815260006004820152602490fd5b906003811015611034576001811461323f578061322760029261102a565b146132325750600090565b6020015163ffffffff1690565b505163ffffffff1690565b60405161325681610559565b6000815290565b9061326782610c88565b6132746040519182610574565b8281528092613285601f1991610c88565b019060005b82811061329657505050565b80606060208093850101520161328a565b604051906132b482610523565b6040808352366020840137565b604051906132ce826104e8565b604182526060366020840137565b8051604010156124375760600190565b908151811015612437570160200190565b9061330782613e7e565b801561346b576133168161208b565b906133208161325d565b9360005b8281106133315750505050565b6133396132a7565b60005b6040811061343657506133916133986133588460031c886129d2565b600192839161338561337f61337160078a16938b6132ec565b516001600160f81b03191690565b60f81c90565b9060ff809216901c1690565b1660ff1690565b61342e57601b915b6133a86132c1565b6133b2858b612423565b526133bd848a612423565b5060005b604081106133fe57505050906001916133f76133dd838a612423565b5160f89290921b6001600160f81b03191660001a916132dc565b5301613324565b808a6134278261341c896134166133718a988a6132ec565b94612423565b519260001a926132ec565b53016133c1565b601c916133a0565b8061345761337161345160019461344c8861208b565b6129d2565b876132ec565b60001a61346482856132ec565b530161333c565b50905061041161324a565b60ff601b9116019060ff82116120a157565b90604181510361352e5760009160208201519260606040840151930151901a90601b821061351e575b60ff8216601b8114159081613512575b50613509576134f5600093602095604051948594859094939260ff6060936080840197845216602083015260408201520152565b838052039060015afa15611a905760005190565b50505050600090565b601c91501415386134c1565b9061352890613476565b906134b1565b5050600090565b1561353c57565b60405162461bcd60e51b815260206004820152601f60248201527f5369676e6572732f77656967687473206c656e677468206d69736d61746368006044820152606490fd5b90815180825260208080930193019160005b8281106135a1575050505090565b835161ffff1685529381019392810192600101613593565b6020808252825161ffff16818301528083015160c06040840152805160e084018190526101008401959493929182019160005b828110613647575050505060c060a061361a8495966040610411960151601f19868303016060870152613581565b606086015163ffffffff16608085015294608081015163ffffffff1684830152015163ffffffff16910152565b8351885296810196928101926001016135ec565b91825192613670604084019485515114613535565b61367a81516123db565b9061368581516123db565b9260005b82518110156136f157806136b46136a86136a8612f3860019588612423565b6001600160a01b031690565b6136be8287612423565b526136eb6136d86136d0838b51612423565b5161ffff1690565b6136e28389612423565b9061ffff169052565b01613689565b5094505091606061370591015161ffff1690565b9161371b613711610597565b61ffff9094168452565b602083015260408201526000606082015260006080820152600060a082015260405161374f8161093c6020820194856135b9565b51902090565b80600052600360205260406000205480156000146137cb57500361377857600190565b60405162461bcd60e51b815260206004820152602560248201527f4c617a7920656e746974793a204944206d75737420657175616c20626f617264604482015264040d0c2e6d60db1b6064820152608490fd5b919050036137d857600090565b60405162461bcd60e51b8152602060048201526013602482015272084dec2e4c840d0c2e6d040dad2e6dac2e8c6d606b1b6044820152606490fd5b9091906001600160a01b03811680156131f05760405190600191828152602092602082019687526040820192818452606094606084019566038d7ea4c68000875260808501806040528551875180820361393c57505050908391826000905b6138fd575b5050508351146000146138d357600088516000805160206142b68339815191526138aa8851604051918291339583610ff0565b0390a45b8151036138c55750506105a4935190519133614229565b9150916105a494503361403b565b60006040516000805160206142968339815191523391806138f5898983613f54565b0390a46138ae565b86518110156139375780849160051b880161392e6139268d6128528789860151950151946109d6565b9182546129d2565b90550183613872565b613877565b635b05999160e01b8352607f199188916139599160848401610ff0565b030190fd5b9080601f830112156102ac57602090823561397881610c88565b936139866040519586610574565b81855260208086019260051b8201019283116102ac57602001905b8282106139af575050505090565b8380916139bb84610775565b8152019101906139a1565b6020818303126102ac576001600160401b03908035908282116102ac57019160c0838203126102ac576139f7610597565b92613a0181610775565b845260208101358381116102ac5782613a1b9183016129f7565b602085015260408101359283116102ac57613a3d60a092613a6a94830161395e565b6040850152613a4e60608201610764565b6060850152613a5f60808201610764565b608085015201610764565b60a082015290565b9060209081838203126102ac576001600160401b03928035908482116102ac570181601f820112156102ac578035613aa981610c88565b94613ab76040519687610574565b818652848087019260051b840101938085116102ac57858401925b858410613ae3575050505050505090565b83358381116102ac578791613afd848480948a0101610605565b815201930192613ad2565b15613b0f57565b60405162461bcd60e51b815260206004820152601c60248201527b084dec2e4c840c2e4e4c2f2e640d8cadccee8d040dad2e6dac2e8c6d60231b6044820152606490fd5b91909161ffff808094169116019182116120a157565b90606461ffff809316029182169182036120a157565b9061ffff809116918215613b9257160490565b634e487b7160e01b600052601260045260246000fd5b93949290613bbc90613bc5938101906139c6565b94810190613a72565b926020810192835151613bdf604084019182515114613b08565b6000928394845b87518051821080613cbe575b15613c8b5781613c0191612423565b51613c106136d0838751612423565b906001600160a01b038b81831115613c35575b50505050613c3090612ba6565b613be6565b6136a8613c4986613c50939d96979d612423565b518a613488565b911614613c6f575b613c3091613c6591613b53565b969038808b613c23565b9581613c81613c3093613c6593613b53565b9791509150613c58565b50509650929450505061ffff9081831615613509575161ffff169083161061352e57613cb961041192613b69565b613b7f565b5089518210613bf2565b9491909181518451908181036124a557505060005b8251811015613daa57600581901b83810160209081015191870101516001600160a01b03929186908a8516613d3a575b6001948216613d20575b50505001613cdd565b613d3091612852613926926109d6565b9055388581613d17565b9192939050613d4c8a612852846109d6565b54838110613d735791879184600196959403613d6b8d612852856109d6565b559450613d0d565b6040516303dee4c560e01b81526001600160a01b038c16600482015260248101919091526044810184905260648101839052608490fd5b509491939290936001855114600014613e45576020850151602083015160018060a01b03916000805160206142b683398151915260405180613df4868816968a1695339583610ff0565b0390a45b6001600160a01b038116613e0e575b5050505050565b8451600103613e3457602080613e2a960151920151923361425e565b3880808080613e07565b613e409491923361412a565b613e2a565b6040516001600160a01b03828116919085169033906000805160206142968339815191529080613e76888c83613f54565b0390a4613df8565b90815115613f4e5760015b613e80811115613ef7575b60405162461bcd60e51b815260206004820152603560248201527f496e76616c6964207061636b6564207369676e6174757265206c656e677468206044820152740b4818d85b9b9bdd0819195d1958dd0818dbdd5b9d605a1b6064820152608490fd5b8060061b818104604014821517156120a157613f2590613f1f613f19846129c4565b60031c90565b906129d2565b835190808214613f475711613f4257613f3d90612ba6565b613e89565b613e94565b5090925050565b60009150565b9091613f6b61041193604084526040840190610ed1565b916020818403910152610ed1565b908160209103126102ac575161041181610316565b92613fbd6104119593613fcb9360018060a01b031686526000602087015260a0604087015260a0860190610ed1565b908482036060860152610ed1565b9160808184039101526103db565b93906104119593613fbd91613fcb9460018060a01b03809216885216602087015260a0604087015260a0860190610ed1565b3d15614036573d9061401c826105b3565b9161402a6040519384610574565b82523d6000602084013e565b606090565b9293919093843b61404d575050505050565b602091614070604051948593849363bc197c8160e01b9889865260048601613f8e565b038160006001600160a01b0388165af1600091816140f9575b506140c2578261409761400b565b80519190826140bb57604051632bfa23e760e11b815280610df1846004830161317f565b9050602001fd5b6001600160e01b031916036140dc57503880808080613e07565b604051632bfa23e760e11b8152908190610df1906004830161317f565b61411c91925060203d602011614123575b6141148183610574565b810190613f79565b9038614089565b503d61410a565b939290949194853b61413f575b505050505050565b614162602093604051958694859463bc197c8160e01b998a875260048701613fd9565b038160006001600160a01b0388165af1600091816141a4575b50614189578261409761400b565b6001600160e01b031916036140dc5750388080808080614137565b6141be91925060203d602011614123576141148183610574565b903861417b565b909260a0926104119594600180861b03168352600060208401526040830152606082015281608082015201906103db565b919261041195949160a094600180871b0380921685521660208401526040830152606082015281608082015201906103db565b9293919093843b61423b575050505050565b602091614070604051948593849363f23a6e6160e01b98898652600486016141c5565b939290949194853b61427257505050505050565b614162602093604051958694859463f23a6e6160e01b998a8752600487016141f656fe4a39dc06d4c0dbc64b70af90fd698a233a518aa5d07e595d983b8c0526c8f7fbc3d58168c5ae7397731d063d5bbf3d657854427343f4c083240f7aacaa2d0f6252629ba16cb44b809941f19e442f11a9973e93cc91be0d91df4afbe6e7c624cac9234525033c1ac098f69b4dc192ce416b13f69ec0b6de127022496be73337fda26469706673582212202ebf7b251dd266406b799310c6ea555e924c76c22fa1af6332ad3f5ddea3274064736f6c63430008180033",
  "linkReferences": {},
  "deployedLinkReferences": {}
}