{"abi":[{"type":"constructor","inputs":[],"stateMutability":"nonpayable"},{"type":"function","name":"balanceOf","inputs":[{"name":"account","type":"address","internalType":"address"},{"name":"id","type":"uint256","internalType":"uint256"}],"outputs":[{"name":"","type":"uint256","internalType":"uint256"}],"stateMutability":"view"},{"type":"function","name":"balanceOfBatch","inputs":[{"name":"accounts","type":"address[]","internalType":"address[]"},{"name":"ids","type":"uint256[]","internalType":"uint256[]"}],"outputs":[{"name":"","type":"uint256[]","internalType":"uint256[]"}],"stateMutability":"view"},{"type":"function","name":"isApprovedForAll","inputs":[{"name":"account","type":"address","internalType":"address"},{"name":"operator","type":"address","internalType":"address"}],"outputs":[{"name":"","type":"bool","internalType":"bool"}],"stateMutability":"view"},{"type":"function","name":"mint","inputs":[{"name":"to","type":"address","internalType":"address"},{"name":"id","type":"uint256","internalType":"uint256"},{"name":"amount","type":"uint256","internalType":"uint256"},{"name":"data","type":"bytes","internalType":"bytes"}],"outputs":[],"stateMutability":"nonpayable"},{"type":"function","name":"safeBatchTransferFrom","inputs":[{"name":"from","type":"address","internalType":"address"},{"name":"to","type":"address","internalType":"address"},{"name":"ids","type":"uint256[]","internalType":"uint256[]"},{"name":"values","type":"uint256[]","internalType":"uint256[]"},{"name":"data","type":"bytes","internalType":"bytes"}],"outputs":[],"stateMutability":"nonpayable"},{"type":"function","name":"safeTransferFrom","inputs":[{"name":"from","type":"address","internalType":"address"},{"name":"to","type":"address","internalType":"address"},{"name":"id","type":"uint256","internalType":"uint256"},{"name":"value","type":"uint256","internalType":"uint256"},{"name":"data","type":"bytes","internalType":"bytes"}],"outputs":[],"stateMutability":"nonpayable"},{"type":"function","name":"setApprovalForAll","inputs":[{"name":"operator","type":"address","internalType":"address"},{"name":"approved","type":"bool","internalType":"bool"}],"outputs":[],"stateMutability":"nonpayable"},{"type":"function","name":"supportsInterface","inputs":[{"name":"interfaceId","type":"bytes4","internalType":"bytes4"}],"outputs":[{"name":"","type":"bool","internalType":"bool"}],"stateMutability":"view"},{"type":"function","name":"uri","inputs":[{"name":"","type":"uint256","internalType":"uint256"}],"outputs":[{"name":"","type":"string","internalType":"string"}],"stateMutability":"view"},{"type":"event","name":"ApprovalForAll","inputs":[{"name":"account","type":"address","indexed":true,"internalType":"address"},{"name":"operator","type":"address","indexed":true,"internalType":"address"},{"name":"approved","type":"bool","indexed":false,"internalType":"bool"}],"anonymous":false},{"type":"event","name":"TransferBatch","inputs":[{"name":"operator","type":"address","indexed":true,"internalType":"address"},{"name":"from","type":"address","indexed":true,"internalType":"address"},{"name":"to","type":"address","indexed":true,"internalType":"address"},{"name":"ids","type":"uint256[]","indexed":false,"internalType":"uint256[]"},{"name":"values","type":"uint256[]","indexed":false,"internalType":"uint256[]"}],"anonymous":false},{"type":"event","name":"TransferSingle","inputs":[{"name":"operator","type":"address","indexed":true,"internalType":"address"},{"name":"from","type":"address","indexed":true,"internalType":"address"},{"name":"to","type":"address","indexed":true,"internalType":"address"},{"name":"id","type":"uint256","indexed":false,"internalType":"uint256"},{"name":"value","type":"uint256","indexed":false,"internalType":"uint256"}],"anonymous":false},{"type":"event","name":"URI","inputs":[{"name":"value","type":"string","indexed":false,"internalType":"string"},{"name":"id","type":"uint256","indexed":true,"internalType":"uint256"}],"anonymous":false},{"type":"error","name":"ERC1155InsufficientBalance","inputs":[{"name":"sender","type":"address","internalType":"address"},{"name":"balance","type":"uint256","internalType":"uint256"},{"name":"needed","type":"uint256","internalType":"uint256"},{"name":"tokenId","type":"uint256","internalType":"uint256"}]},{"type":"error","name":"ERC1155InvalidApprover","inputs":[{"name":"approver","type":"address","internalType":"address"}]},{"type":"error","name":"ERC1155InvalidArrayLength","inputs":[{"name":"idsLength","type":"uint256","internalType":"uint256"},{"name":"valuesLength","type":"uint256","internalType":"uint256"}]},{"type":"error","name":"ERC1155InvalidOperator","inputs":[{"name":"operator","type":"address","internalType":"address"}]},{"type":"error","name":"ERC1155InvalidReceiver","inputs":[{"name":"receiver","type":"address","internalType":"address"}]},{"type":"error","name":"ERC1155InvalidSender","inputs":[{"name":"sender","type":"address","internalType":"address"}]},{"type":"error","name":"ERC1155MissingApprovalForAll","inputs":[{"name":"operator","type":"address","internalType":"address"},{"name":"owner","type":"address","internalType":"address"}]}],"bytecode":{"object":"0x6080346100d55760208101906001600160401b038211818310176100c1575f9160405252600254600190600181811c911680156100b7575b60208210146100a357601f811161005c575b5f60025560405161113e90816100da8239f35b60025f52601f0160051c7f405787fa12a823e0f2b7631cc41b3ba8828b3321ca811111fa75cd3aa3bb5ace908101905b8181106100995750610049565b5f8155820161008c565b634e487b7160e01b5f52602260045260245ffd5b90607f1690610037565b634e487b7160e01b5f52604160045260245ffd5b5f80fdfe60806040526004361015610011575f80fd5b5f3560e01c8062fdd58e146100a357806301ffc9a71461009e5780630e89341c146100995780632eb2c2d6146100945780634e1273f41461008f578063731133e91461008a578063a22cb46514610085578063e985e9c5146100805763f242432a1461007b575f80fd5b6109b7565b610959565b610881565b61069d565b6105e2565b61046a565b61024e565b610142565b346100ec5760403660031901126100ec5760206100e36100c16100f0565b6024355f525f835260405f20906001600160a01b03165f5260205260405f2090565b54604051908152f35b5f80fd5b600435906001600160a01b03821682036100ec57565b602435906001600160a01b03821682036100ec57565b35906001600160a01b03821682036100ec57565b6001600160e01b03198116036100ec57565b346100ec5760203660031901126100ec5760206001600160e01b031960043561016a81610130565b167fd9b67a260000000000000000000000000000000000000000000000000000000081149081156101d2575b81156101a8575b506040519015158152f35b7f01ffc9a7000000000000000000000000000000000000000000000000000000009150145f61019d565b7f0e89341c0000000000000000000000000000000000000000000000000000000081149150610196565b91908251928382525f5b848110610226575050825f602080949584010152601f8019910116010190565b602081830181015184830182015201610206565b90602061024b9281815201906101fc565b90565b346100ec576020806003193601126100ec57604051905f906002546001918160011c926001831692831561034b575b60208510841461033757848752602087019390811561031857506001146102bf575b6102bb866102af81880382610369565b6040519182918261023a565b0390f35b60025f90815294509192917f405787fa12a823e0f2b7631cc41b3ba8828b3321ca811111fa75cd3aa3bb5ace5b83861061030757505050910190506102af826102bb5f61029f565b8054858701529482019481016102ec565b60ff1916845250505090151560051b0190506102af826102bb5f61029f565b634e487b7160e01b5f52602260045260245ffd5b93607f169361027d565b634e487b7160e01b5f52604160045260245ffd5b90601f8019910116810190811067ffffffffffffffff82111761038b57604052565b610355565b67ffffffffffffffff811161038b5760051b60200190565b9080601f830112156100ec5760209082356103c281610390565b936103d06040519586610369565b81855260208086019260051b8201019283116100ec57602001905b8282106103f9575050505090565b813581529083019083016103eb565b67ffffffffffffffff811161038b57601f01601f191660200190565b81601f820112156100ec5780359061043b82610408565b926104496040519485610369565b828452602083830101116100ec57815f926020809301838601378301015290565b346100ec5760a03660031901126100ec576104836100f0565b61048b610106565b906044359167ffffffffffffffff908184116100ec576104b0600494369086016103a8565b906064358381116100ec576104c890369087016103a8565b926084359081116100ec576104e09036908701610424565b936001600160a01b0380821690338214158061056d575b610540578316156105295715610513576105119550610b99565b005b6024865f60405191626a0d4560e21b8352820152fd5b6024875f60405191632bfa23e760e11b8352820152fd5b6040805163711bec9160e11b815233818b019081526001600160a01b038616602082015290918291010390fd5b50815f52600160205260ff6105963360405f20906001600160a01b03165f5260205260405f2090565b5416156104f7565b9081518082526020808093019301915f5b8281106105bd575050505090565b8351855293810193928101926001016105af565b90602061024b92818152019061059e565b346100ec5760403660031901126100ec5760043567ffffffffffffffff8082116100ec57366023830112156100ec57816004013561061f81610390565b9261062d6040519485610369565b8184526020916024602086019160051b830101913683116100ec57602401905b82821061068657856024358681116100ec576102bb9161067461067a9236906004016103a8565b90610b17565b604051918291826105d1565b8380916106928461011c565b81520191019061064d565b346100ec5760803660031901126100ec576106b66100f0565b60643567ffffffffffffffff81116100ec576106d6903690600401610424565b6001600160a01b03821690811561086a576107156044356024359160405192600184526020840152604083019160018352606084015260808301604052565b91815183519081810361082f5750505f5b8251811015610781578060019160051b6107796107718961075b602080868b010151958b010151945f525f60205260405f2090565b906001600160a01b03165f5260205260405f2090565b918254610d9b565b905501610726565b509260018251145f146107f4576020828101518482015160408051928352928201525f9133917fc3d58168c5ae7397731d063d5bbf3d657854427343f4c083240f7aacaa2d0f629190a45b80516001036107ea579060208061051195930151910151913361109c565b6105119333610ea3565b5f6040517f4a39dc06d4c0dbc64b70af90fd698a233a518aa5d07e595d983b8c0526c8f7fb339180610827888883610dbc565b0390a46107cc565b6040517f5b05999100000000000000000000000000000000000000000000000000000000815260048101919091526024810191909152604490fd5b6024604051632bfa23e760e11b81525f6004820152fd5b346100ec5760403660031901126100ec5761089a6100f0565b6024358015158082036100ec576001600160a01b038316928315610929576108de90335f52600160205260405f20906001600160a01b03165f5260205260405f2090565b9060ff801983541691161790557f17307eab39ab6107e8899845ad3d59bd9653f200f220920489ca2b5937696c3160405180610924339482919091602081019215159052565b0390a3005b60246040517fced3e1000000000000000000000000000000000000000000000000000000000081525f6004820152fd5b346100ec5760403660031901126100ec57602060ff6109ab6109796100f0565b6001600160a01b03610989610106565b91165f526001845260405f20906001600160a01b03165f5260205260405f2090565b54166040519015158152f35b346100ec5760a03660031901126100ec576109d06100f0565b6109d8610106565b60843567ffffffffffffffff81116100ec576109f8903690600401610424565b906001600160a01b03808416903382141580610a96575b610a6f5782161561086a5715610a595761051192610a516064356044359160405192600184526020840152604083019160018352606084015260808301604052565b929091610b99565b6024604051626a0d4560e21b81525f6004820152fd5b60405163711bec9160e11b81523360048201526001600160a01b0386166024820152604490fd5b50815f52600160205260ff610abf3360405f20906001600160a01b03165f5260205260405f2090565b541615610a0f565b610aeb915f525f60205260405f20906001600160a01b03165f5260205260405f2090565b5490565b8051821015610b035760209160051b010190565b634e487b7160e01b5f52603260045260245ffd5b9190918051835180820361082f575050805190610b4c610b3683610390565b92610b446040519485610369565b808452610390565b60209190601f190136848401375f5b8151811015610b915780610b8060019260051b85808287010151918a01015190610ac7565b610b8a8287610aef565b5201610b5b565b509193505050565b94919091815184519081810361082f5750505f5b8251811015610ca8578060051b9060208083860101519287010151856001600160a01b0393848b16610c0f575b6001948216610bed575b50505001610bad565b610c059161075b610771925f525f60205260405f2090565b90555f8581610be4565b9192939050610c298a61075b845f525f60205260405f2090565b54838110610c585791879184600196959403610c508d61075b855f525f60205260405f2090565b559450610bda565b6040517f03dee4c50000000000000000000000000000000000000000000000000000000081526001600160a01b038c16600482015260248101919091526044810184905260648101839052608490fd5b5094919392909360018551145f14610d52576020858101518382015160408051928352928201526001600160a01b03838116929086169133917fc3d58168c5ae7397731d063d5bbf3d657854427343f4c083240f7aacaa2d0f6291a45b6001600160a01b038116610d1b575b5050505050565b8451600103610d4157602080610d3796015192015192336110d1565b5f80808080610d14565b610d4d94919233610f9c565b610d37565b6001600160a01b03604051818316918516907f4a39dc06d4c0dbc64b70af90fd698a233a518aa5d07e595d983b8c0526c8f7fb339180610d93888c83610dbc565b0390a4610d05565b91908201809211610da857565b634e487b7160e01b5f52601160045260245ffd5b9091610dd361024b9360408452604084019061059e565b91602081840391015261059e565b908160209103126100ec575161024b81610130565b92610e2561024b95936001600160a01b03610e33941686525f602087015260a0604087015260a086019061059e565b90848203606086015261059e565b9160808184039101526101fc565b939061024b9593610e2591610e33946001600160a01b03809216885216602087015260a0604087015260a086019061059e565b3d15610e9e573d90610e8582610408565b91610e936040519384610369565b82523d5f602084013e565b606090565b9293919093843b610eb5575050505050565b602091610ed8604051948593849363bc197c8160e01b9889865260048601610df6565b03815f6001600160a01b0388165af15f9181610f6b575b50610f2e5782610efd610e74565b8051919082610f2757604051632bfa23e760e11b81526001600160a01b0383166004820152602490fd5b6020915001fd5b6001600160e01b03191603610f4857505f80808080610d14565b604051632bfa23e760e11b81526001600160a01b03919091166004820152602490fd5b610f8e91925060203d602011610f95575b610f868183610369565b810190610de1565b905f610eef565b503d610f7c565b939290949194853b610fb1575b505050505050565b610fd4602093604051958694859463bc197c8160e01b998a875260048701610e41565b03815f6001600160a01b0388165af15f9181611014575b50610ff95782610efd610e74565b6001600160e01b03191603610f4857505f8080808080610fa9565b61102e91925060203d602011610f9557610f868183610369565b905f610feb565b909260a0926001600160a01b0361024b96951683525f60208401526040830152606082015281608082015201906101fc565b919261024b95949160a0946001600160a01b0380921685521660208401526040830152606082015281608082015201906101fc565b9293919093843b6110ae575050505050565b602091610ed8604051948593849363f23a6e6160e01b9889865260048601611035565b939290949194853b6110e557505050505050565b610fd4602093604051958694859463f23a6e6160e01b998a87526004870161106756fea2646970667358221220a22165763efe127fce013198985c20d29b16b05eb0be3a5624416cb799367a2c64736f6c63430008180033","linkReferences":{}},"methodIdentifiers":{"balanceOf(address,uint256)":"00fdd58e","balanceOfBatch(address[],uint256[])":"4e1273f4","isApprovedForAll(address,address)":"e985e9c5","mint(address,uint256,uint256,bytes)":"731133e9","safeBatchTransferFrom(address,address,uint256[],uint256[],bytes)":"2eb2c2d6","safeTransferFrom(address,address,uint256,uint256,bytes)":"f242432a","setApprovalForAll(address,bool)":"a22cb465","supportsInterface(bytes4)":"01ffc9a7","uri(uint256)":"0e89341c"},"id":2}