{"abi":[{"type":"constructor","inputs":[],"stateMutability":"nonpayable"},{"type":"function","name":"FOUNDATION_ENTITY","inputs":[],"outputs":[{"name":"","type":"uint256","internalType":"uint256"}],"stateMutability":"view"},{"type":"function","name":"TOTAL_CONTROL_SUPPLY","inputs":[],"outputs":[{"name":"","type":"uint256","internalType":"uint256"}],"stateMutability":"view"},{"type":"function","name":"TOTAL_DIVIDEND_SUPPLY","inputs":[],"outputs":[{"name":"","type":"uint256","internalType":"uint256"}],"stateMutability":"view"},{"type":"function","name":"activateBoard","inputs":[{"name":"entityId","type":"bytes32","internalType":"bytes32"}],"outputs":[],"stateMutability":"nonpayable"},{"type":"function","name":"activeProposals","inputs":[{"name":"","type":"bytes32","internalType":"bytes32"}],"outputs":[{"name":"proposedBoardHash","type":"bytes32","internalType":"bytes32"},{"name":"proposerType","type":"uint8","internalType":"enum EntityProvider.ProposerType"},{"name":"proposeBlock","type":"uint256","internalType":"uint256"},{"name":"activateBlock","type":"uint256","internalType":"uint256"},{"name":"active","type":"bool","internalType":"bool"}],"stateMutability":"view"},{"type":"function","name":"assignName","inputs":[{"name":"name","type":"string","internalType":"string"},{"name":"entityNumber","type":"uint256","internalType":"uint256"}],"outputs":[],"stateMutability":"nonpayable"},{"type":"function","name":"balanceOf","inputs":[{"name":"account","type":"address","internalType":"address"},{"name":"id","type":"uint256","internalType":"uint256"}],"outputs":[{"name":"","type":"uint256","internalType":"uint256"}],"stateMutability":"view"},{"type":"function","name":"balanceOfBatch","inputs":[{"name":"accounts","type":"address[]","internalType":"address[]"},{"name":"ids","type":"uint256[]","internalType":"uint256[]"}],"outputs":[{"name":"","type":"uint256[]","internalType":"uint256[]"}],"stateMutability":"view"},{"type":"function","name":"batchVerifyHankoSignatures","inputs":[{"name":"hankoDataArray","type":"bytes[]","internalType":"bytes[]"},{"name":"hashes","type":"bytes32[]","internalType":"bytes32[]"}],"outputs":[{"name":"entityIds","type":"bytes32[]","internalType":"bytes32[]"},{"name":"results","type":"bool[]","internalType":"bool[]"}],"stateMutability":"view"},{"type":"function","name":"cancelBoardProposal","inputs":[{"name":"entityId","type":"bytes32","internalType":"bytes32"},{"name":"proposerType","type":"uint8","internalType":"enum EntityProvider.ProposerType"},{"name":"articles","type":"tuple","internalType":"struct EntityProvider.EntityArticles","components":[{"name":"controlDelay","type":"uint32","internalType":"uint32"},{"name":"dividendDelay","type":"uint32","internalType":"uint32"},{"name":"foundationDelay","type":"uint32","internalType":"uint32"},{"name":"controlThreshold","type":"uint16","internalType":"uint16"}]}],"outputs":[],"stateMutability":"nonpayable"},{"type":"function","name":"entities","inputs":[{"name":"","type":"bytes32","internalType":"bytes32"}],"outputs":[{"name":"currentBoardHash","type":"bytes32","internalType":"bytes32"},{"name":"proposedBoardHash","type":"bytes32","internalType":"bytes32"},{"name":"activateAtBlock","type":"uint256","internalType":"uint256"},{"name":"registrationBlock","type":"uint256","internalType":"uint256"},{"name":"proposerType","type":"uint8","internalType":"enum EntityProvider.ProposerType"},{"name":"articlesHash","type":"bytes32","internalType":"bytes32"}],"stateMutability":"view"},{"type":"function","name":"entityTransferTokens","inputs":[{"name":"entityNumber","type":"uint256","internalType":"uint256"},{"name":"to","type":"address","internalType":"address"},{"name":"tokenId","type":"uint256","internalType":"uint256"},{"name":"amount","type":"uint256","internalType":"uint256"},{"name":"encodedBoard","type":"bytes","internalType":"bytes"},{"name":"encodedSignature","type":"bytes","internalType":"bytes"}],"outputs":[],"stateMutability":"nonpayable"},{"type":"function","name":"foundationRegisterEntity","inputs":[{"name":"boardHash","type":"bytes32","internalType":"bytes32"},{"name":"articles","type":"tuple","internalType":"struct EntityProvider.EntityArticles","components":[{"name":"controlDelay","type":"uint32","internalType":"uint32"},{"name":"dividendDelay","type":"uint32","internalType":"uint32"},{"name":"foundationDelay","type":"uint32","internalType":"uint32"},{"name":"controlThreshold","type":"uint16","internalType":"uint16"}]}],"outputs":[{"name":"entityNumber","type":"uint256","internalType":"uint256"}],"stateMutability":"nonpayable"},{"type":"function","name":"getEntityFromToken","inputs":[{"name":"tokenId","type":"uint256","internalType":"uint256"}],"outputs":[{"name":"entityNumber","type":"uint256","internalType":"uint256"}],"stateMutability":"pure"},{"type":"function","name":"getEntityInfo","inputs":[{"name":"entityId","type":"bytes32","internalType":"bytes32"}],"outputs":[{"name":"exists","type":"bool","internalType":"bool"},{"name":"currentBoardHash","type":"bytes32","internalType":"bytes32"},{"name":"proposedBoardHash","type":"bytes32","internalType":"bytes32"},{"name":"registrationBlock","type":"uint256","internalType":"uint256"},{"name":"name","type":"string","internalType":"string"}],"stateMutability":"view"},{"type":"function","name":"getGovernanceInfo","inputs":[{"name":"entityNumber","type":"uint256","internalType":"uint256"}],"outputs":[{"name":"controlTokenId","type":"uint256","internalType":"uint256"},{"name":"dividendTokenId","type":"uint256","internalType":"uint256"},{"name":"controlSupply","type":"uint256","internalType":"uint256"},{"name":"dividendSupply","type":"uint256","internalType":"uint256"},{"name":"hasActiveProposal","type":"bool","internalType":"bool"},{"name":"articlesHash","type":"bytes32","internalType":"bytes32"}],"stateMutability":"view"},{"type":"function","name":"getTokenIds","inputs":[{"name":"entityNumber","type":"uint256","internalType":"uint256"}],"outputs":[{"name":"controlTokenId","type":"uint256","internalType":"uint256"},{"name":"dividendTokenId","type":"uint256","internalType":"uint256"}],"stateMutability":"pure"},{"type":"function","name":"isApprovedForAll","inputs":[{"name":"account","type":"address","internalType":"address"},{"name":"operator","type":"address","internalType":"address"}],"outputs":[{"name":"","type":"bool","internalType":"bool"}],"stateMutability":"view"},{"type":"function","name":"nameQuota","inputs":[{"name":"","type":"address","internalType":"address"}],"outputs":[{"name":"","type":"uint8","internalType":"uint8"}],"stateMutability":"view"},{"type":"function","name":"nameToNumber","inputs":[{"name":"","type":"string","internalType":"string"}],"outputs":[{"name":"","type":"uint256","internalType":"uint256"}],"stateMutability":"view"},{"type":"function","name":"nextNumber","inputs":[],"outputs":[{"name":"","type":"uint256","internalType":"uint256"}],"stateMutability":"view"},{"type":"function","name":"numberToName","inputs":[{"name":"","type":"uint256","internalType":"uint256"}],"outputs":[{"name":"","type":"string","internalType":"string"}],"stateMutability":"view"},{"type":"function","name":"proposeBoard","inputs":[{"name":"entityId","type":"bytes32","internalType":"bytes32"},{"name":"newBoardHash","type":"bytes32","internalType":"bytes32"},{"name":"proposerType","type":"uint8","internalType":"enum EntityProvider.ProposerType"},{"name":"articles","type":"tuple","internalType":"struct EntityProvider.EntityArticles","components":[{"name":"controlDelay","type":"uint32","internalType":"uint32"},{"name":"dividendDelay","type":"uint32","internalType":"uint32"},{"name":"foundationDelay","type":"uint32","internalType":"uint32"},{"name":"controlThreshold","type":"uint16","internalType":"uint16"}]}],"outputs":[],"stateMutability":"nonpayable"},{"type":"function","name":"recoverEntity","inputs":[{"name":"encodedBoard","type":"bytes","internalType":"bytes"},{"name":"encodedSignature","type":"bytes","internalType":"bytes"},{"name":"hash","type":"bytes32","internalType":"bytes32"}],"outputs":[{"name":"entityId","type":"uint256","internalType":"uint256"}],"stateMutability":"view"},{"type":"function","name":"registerNumberedEntity","inputs":[{"name":"boardHash","type":"bytes32","internalType":"bytes32"}],"outputs":[{"name":"entityNumber","type":"uint256","internalType":"uint256"}],"stateMutability":"nonpayable"},{"type":"function","name":"releaseControlShares","inputs":[{"name":"entityNumber","type":"uint256","internalType":"uint256"},{"name":"depository","type":"address","internalType":"address"},{"name":"controlAmount","type":"uint256","internalType":"uint256"},{"name":"dividendAmount","type":"uint256","internalType":"uint256"},{"name":"purpose","type":"string","internalType":"string"},{"name":"encodedBoard","type":"bytes","internalType":"bytes"},{"name":"encodedSignature","type":"bytes","internalType":"bytes"}],"outputs":[],"stateMutability":"nonpayable"},{"type":"function","name":"reservedNames","inputs":[{"name":"","type":"string","internalType":"string"}],"outputs":[{"name":"","type":"bool","internalType":"bool"}],"stateMutability":"view"},{"type":"function","name":"resolveEntityId","inputs":[{"name":"identifier","type":"string","internalType":"string"}],"outputs":[{"name":"","type":"bytes32","internalType":"bytes32"}],"stateMutability":"view"},{"type":"function","name":"safeBatchTransferFrom","inputs":[{"name":"from","type":"address","internalType":"address"},{"name":"to","type":"address","internalType":"address"},{"name":"ids","type":"uint256[]","internalType":"uint256[]"},{"name":"values","type":"uint256[]","internalType":"uint256[]"},{"name":"data","type":"bytes","internalType":"bytes"}],"outputs":[],"stateMutability":"nonpayable"},{"type":"function","name":"safeTransferFrom","inputs":[{"name":"from","type":"address","internalType":"address"},{"name":"to","type":"address","internalType":"address"},{"name":"id","type":"uint256","internalType":"uint256"},{"name":"value","type":"uint256","internalType":"uint256"},{"name":"data","type":"bytes","internalType":"bytes"}],"outputs":[],"stateMutability":"nonpayable"},{"type":"function","name":"setApprovalForAll","inputs":[{"name":"operator","type":"address","internalType":"address"},{"name":"approved","type":"bool","internalType":"bool"}],"outputs":[],"stateMutability":"nonpayable"},{"type":"function","name":"setNameQuota","inputs":[{"name":"user","type":"address","internalType":"address"},{"name":"quota","type":"uint8","internalType":"uint8"}],"outputs":[],"stateMutability":"nonpayable"},{"type":"function","name":"setReservedName","inputs":[{"name":"name","type":"string","internalType":"string"},{"name":"reserved","type":"bool","internalType":"bool"}],"outputs":[],"stateMutability":"nonpayable"},{"type":"function","name":"supportsInterface","inputs":[{"name":"interfaceId","type":"bytes4","internalType":"bytes4"}],"outputs":[{"name":"","type":"bool","internalType":"bool"}],"stateMutability":"view"},{"type":"function","name":"totalControlSupply","inputs":[{"name":"","type":"bytes32","internalType":"bytes32"}],"outputs":[{"name":"","type":"uint256","internalType":"uint256"}],"stateMutability":"view"},{"type":"function","name":"totalDividendSupply","inputs":[{"name":"","type":"bytes32","internalType":"bytes32"}],"outputs":[{"name":"","type":"uint256","internalType":"uint256"}],"stateMutability":"view"},{"type":"function","name":"transferName","inputs":[{"name":"name","type":"string","internalType":"string"},{"name":"newEntityNumber","type":"uint256","internalType":"uint256"}],"outputs":[],"stateMutability":"nonpayable"},{"type":"function","name":"uri","inputs":[{"name":"","type":"uint256","internalType":"uint256"}],"outputs":[{"name":"","type":"string","internalType":"string"}],"stateMutability":"view"},{"type":"function","name":"verifyHankoSignature","inputs":[{"name":"hankoData","type":"bytes","internalType":"bytes"},{"name":"hash","type":"bytes32","internalType":"bytes32"}],"outputs":[{"name":"entityId","type":"bytes32","internalType":"bytes32"},{"name":"success","type":"bool","internalType":"bool"}],"stateMutability":"view"},{"type":"event","name":"ApprovalForAll","inputs":[{"name":"account","type":"address","indexed":true,"internalType":"address"},{"name":"operator","type":"address","indexed":true,"internalType":"address"},{"name":"approved","type":"bool","indexed":false,"internalType":"bool"}],"anonymous":false},{"type":"event","name":"BoardActivated","inputs":[{"name":"entityId","type":"bytes32","indexed":true,"internalType":"bytes32"},{"name":"newBoardHash","type":"bytes32","indexed":false,"internalType":"bytes32"}],"anonymous":false},{"type":"event","name":"BoardProposed","inputs":[{"name":"entityId","type":"bytes32","indexed":true,"internalType":"bytes32"},{"name":"proposedBoardHash","type":"bytes32","indexed":false,"internalType":"bytes32"}],"anonymous":false},{"type":"event","name":"ControlSharesReleased","inputs":[{"name":"entityId","type":"bytes32","indexed":true,"internalType":"bytes32"},{"name":"depository","type":"address","indexed":true,"internalType":"address"},{"name":"controlAmount","type":"uint256","indexed":false,"internalType":"uint256"},{"name":"dividendAmount","type":"uint256","indexed":false,"internalType":"uint256"},{"name":"purpose","type":"string","indexed":false,"internalType":"string"}],"anonymous":false},{"type":"event","name":"EntityRegistered","inputs":[{"name":"entityId","type":"bytes32","indexed":true,"internalType":"bytes32"},{"name":"entityNumber","type":"uint256","indexed":true,"internalType":"uint256"},{"name":"boardHash","type":"bytes32","indexed":false,"internalType":"bytes32"}],"anonymous":false},{"type":"event","name":"GovernanceEnabled","inputs":[{"name":"entityId","type":"bytes32","indexed":true,"internalType":"bytes32"},{"name":"controlTokenId","type":"uint256","indexed":false,"internalType":"uint256"},{"name":"dividendTokenId","type":"uint256","indexed":false,"internalType":"uint256"}],"anonymous":false},{"type":"event","name":"HankoClaimProcessed","inputs":[{"name":"entityId","type":"bytes32","indexed":true,"internalType":"bytes32"},{"name":"success","type":"bool","indexed":false,"internalType":"bool"},{"name":"votingPower","type":"uint256","indexed":false,"internalType":"uint256"}],"anonymous":false},{"type":"event","name":"HankoVerified","inputs":[{"name":"entityId","type":"bytes32","indexed":true,"internalType":"bytes32"},{"name":"hash","type":"bytes32","indexed":true,"internalType":"bytes32"}],"anonymous":false},{"type":"event","name":"NameAssigned","inputs":[{"name":"name","type":"string","indexed":true,"internalType":"string"},{"name":"entityNumber","type":"uint256","indexed":true,"internalType":"uint256"}],"anonymous":false},{"type":"event","name":"NameTransferred","inputs":[{"name":"name","type":"string","indexed":true,"internalType":"string"},{"name":"fromNumber","type":"uint256","indexed":true,"internalType":"uint256"},{"name":"toNumber","type":"uint256","indexed":true,"internalType":"uint256"}],"anonymous":false},{"type":"event","name":"ProposalCancelled","inputs":[{"name":"entityId","type":"bytes32","indexed":true,"internalType":"bytes32"},{"name":"cancelledBy","type":"uint8","indexed":false,"internalType":"enum EntityProvider.ProposerType"}],"anonymous":false},{"type":"event","name":"TransferBatch","inputs":[{"name":"operator","type":"address","indexed":true,"internalType":"address"},{"name":"from","type":"address","indexed":true,"internalType":"address"},{"name":"to","type":"address","indexed":true,"internalType":"address"},{"name":"ids","type":"uint256[]","indexed":false,"internalType":"uint256[]"},{"name":"values","type":"uint256[]","indexed":false,"internalType":"uint256[]"}],"anonymous":false},{"type":"event","name":"TransferSingle","inputs":[{"name":"operator","type":"address","indexed":true,"internalType":"address"},{"name":"from","type":"address","indexed":true,"internalType":"address"},{"name":"to","type":"address","indexed":true,"internalType":"address"},{"name":"id","type":"uint256","indexed":false,"internalType":"uint256"},{"name":"value","type":"uint256","indexed":false,"internalType":"uint256"}],"anonymous":false},{"type":"event","name":"URI","inputs":[{"name":"value","type":"string","indexed":false,"internalType":"string"},{"name":"id","type":"uint256","indexed":true,"internalType":"uint256"}],"anonymous":false},{"type":"error","name":"ERC1155InsufficientBalance","inputs":[{"name":"sender","type":"address","internalType":"address"},{"name":"balance","type":"uint256","internalType":"uint256"},{"name":"needed","type":"uint256","internalType":"uint256"},{"name":"tokenId","type":"uint256","internalType":"uint256"}]},{"type":"error","name":"ERC1155InvalidApprover","inputs":[{"name":"approver","type":"address","internalType":"address"}]},{"type":"error","name":"ERC1155InvalidArrayLength","inputs":[{"name":"idsLength","type":"uint256","internalType":"uint256"},{"name":"valuesLength","type":"uint256","internalType":"uint256"}]},{"type":"error","name":"ERC1155InvalidOperator","inputs":[{"name":"operator","type":"address","internalType":"address"}]},{"type":"error","name":"ERC1155InvalidReceiver","inputs":[{"name":"receiver","type":"address","internalType":"address"}]},{"type":"error","name":"ERC1155InvalidSender","inputs":[{"name":"sender","type":"address","internalType":"address"}]},{"type":"error","name":"ERC1155MissingApprovalForAll","inputs":[{"name":"operator","type":"address","internalType":"address"},{"name":"owner","type":"address","internalType":"address"}]}],"bytecode":{"object":"0x60406080815234620002a0576200001f6200001962000345565b6200060f565b6200002a6001600455565b6200005d62000050602860405167636f696e6261736560c01b8152600760088201522090565b805460ff19166001179055565b6200008362000050602860405167657468657265756d60c01b8152600760088201522090565b620000a7620000506027604051663134ba31b7b4b760c91b81526007808201522090565b620000cb620000506027604051660756e69737761760cc1b81526007808201522090565b620001b1620000d9620002e2565b6103e88152610bb860208201525f818401526033606082015282516200014a816200013b602082019485919091606061ffff81608084019563ffffffff8082511686528060208301511660208701526040820151166040860152015116910152565b03601f198101835282620002b8565b5190206200015762000302565b907fa1237dddbd29f99fde152257ccb2f783e434670afa247b2a52d81a326d4cf0ad82525f60208301525f848301524360608301525f608083015260a0820152620001ab60015f52600360205260405f2090565b6200038f565b60017f52629ba16cb44b809941f19e442f11a9973e93cc91be0d91df4afbe6e7c624ca6001600160ff1b0182620001f2620001eb62000322565b82620003f4565b620002076200020062000322565b83620003f4565b60015f52600a602052620002427fbbc70db1b6c7afd11e79c0fb0051300458f1a3acb8ee9789d9b6b26c61ad9bc75b66038d7ea4c680009055565b60015f52600b602052620002767f72c6bfb7988af3a1efa6568f02a999bc52252641c659d85961ca3d372b57d5cf62000236565b84519081526020810191909152604090a2620002926002600455565b516144fa9081620009cc8239f35b5f80fd5b634e487b7160e01b5f52604160045260245ffd5b601f909101601f19168101906001600160401b03821190821017620002dc57604052565b620002a4565b60405190608082016001600160401b03811183821017620002dc57604052565b6040519060c082016001600160401b03811183821017620002dc57604052565b60405190602082016001600160401b03811183821017620002dc576040525f8252565b60408051919082016001600160401b03811183821017620002dc57604052602082527f68747470733a2f2f786c6e2e636f6d2f656e746974792f7b69647d2e6a736f6e6020830152565b908051825560208101516001830155604081015160028301556060810151600383015560048201906080810151906003821015620003e05760059260a09260ff801983541691161790550151910155565b634e487b7160e01b5f52602160045260245ffd5b9060405191600190818452602091602085019182526040850190808252606093606087019466038d7ea4c6800086526080880180604052885185518082036200056357505050908291825f905b62000508575b5050508651145f14620004c957805f84517fc3d58168c5ae7397731d063d5bbf3d657854427343f4c083240f7aacaa2d0f626200049a885160405191829133958360209093929193604081019481520152565b0390a45b855103620004ba5750620004b89350519051903362000996565b565b915050620004b892336200087c565b805f6040517f4a39dc06d4c0dbc64b70af90fd698a233a518aa5d07e595d983b8c0526c8f7fb339180620004ff888d836200075c565b0390a46200049e565b89518110156200055d5780849160051b8b01620005536200054a6200053c8688850151940151935f525f60205260405f2090565b60015f5260205260405f2090565b91825462000705565b9055018362000441565b62000447565b635b05999160e01b835260848b019190915260a48a0152604490fd5b90600182811c92168015620005af575b60208310146200059b57565b634e487b7160e01b5f52602260045260245ffd5b91607f16916200058f565b601f8111620005c7575050565b60025f5260205f20906020601f840160051c8301931062000604575b601f0160051c01905b818110620005f8575050565b5f8155600101620005ec565b9091508190620005e3565b80519091906001600160401b038111620002dc576200063b81620006356002546200057f565b620005ba565b602080601f831160011462000680575081906200066f93945f9262000674575b50508160011b915f199060031b1c19161790565b600255565b015190505f806200065b565b60025f52601f198316949091907f405787fa12a823e0f2b7631cc41b3ba8828b3321ca811111fa75cd3aa3bb5ace925f905b878210620006ec575050836001959610620006d3575b505050811b01600255565b01515f1960f88460031b161c191690555f8080620006c8565b80600185968294968601518155019501930190620006b2565b919082018092116200071357565b634e487b7160e01b5f52601160045260245ffd5b9081518082526020808093019301915f5b82811062000747575050505090565b83518552938101939281019260010162000738565b909162000776620007859360408452604084019062000727565b91602081840391015262000727565b90565b90816020910312620002a057516001600160e01b031981168103620002a05790565b91908251928382525f5b848110620007d5575050825f602080949584010152601f8019910116010190565b602081830181015184830182015201620007b4565b926200081c6200078595936200082b9360018060a01b031686525f602087015260a0604087015260a086019062000727565b90848203606086015262000727565b916080818403910152620007aa565b3d1562000877573d906001600160401b038211620002dc57604051916200086c601f8201601f191660200184620002b8565b82523d5f602084013e565b606090565b929160013b6200088d575b50505050565b602091620008b2604051948593849363bc197c8160e01b9889865260048601620007ea565b03815f60015af15f91816200092c575b50620008f957620008d26200083a565b80519081620008f457604051632bfa23e760e11b815260016004820152602490fd5b602001fd5b6001600160e01b0319160362000913575f80808062000887565b604051632bfa23e760e11b815260016004820152602490fd5b6200095491925060203d6020116200095c575b6200094b8183620002b8565b81019062000788565b905f620008c2565b503d6200093f565b909260a092620007859594600180861b031683525f6020840152604083015260608201528160808201520190620007aa565b929160013b620009a65750505050565b602091620008b2604051948593849363f23a6e6160e01b98898652600486016200096456fe60806040526004361015610011575f80fd5b5f3560e01c8062fdd58e1461027e57806301ffc9a71461027957806303db7616146101f25780630e89341c146102745780630ebf19c61461026f5780631e76fea51461026a5780631ed3d4401461026557806326760ce6146102605780632a20cc801461025b5780632eb2c2d6146102565780632fae4ffd14610251578063311cf8eb1461024c5780634e1273f414610247578063504d23ea1461024257806357991d301461023d5780635a7931c8146102385780635b70ae41146102335780636702bc771461022e578063680c3ff21461022957806368436f10146102245780637ea397c81461021f5780638193e0071461021a578063820eec5f14610215578063848202fe146102105780638aad06281461020b5780638d197ec7146102065780638dbe6c38146102015780639248cd43146101fc578063a22cb465146101f7578063a74f77e7146101f2578063c83fa48e146101ed578063cce41598146101e8578063d93e68d6146101e3578063e1657b8a146101de578063e5b338fd146101d9578063e8f48031146101d4578063e985e9c5146101cf578063edd2133b146101ca5763f242432a146101c5575f80fd5b611fd5565b611f0e565b611e91565b611e76565b611e0a565b611d89565b611d2d565b611bd3565b611a2f565b6103dc565b61196f565b6118e4565b6116f3565b6116b4565b611667565b61164a565b611491565b611456565b6113d4565b6113ae565b6112aa565b611225565b6111cd565b611167565b611114565b6110f4565b611039565b610fcb565b610fb3565b610e08565b610d20565b610bd1565b610b93565b61094e565b6106b0565b610457565b610322565b6102c7565b600435906001600160a01b038216820361029957565b5f80fd5b602435906001600160a01b038216820361029957565b35906001600160a01b038216820361029957565b346102995760403660031901126102995760206103076102e5610283565b6024355f525f835260405f20906001600160a01b03165f5260205260405f2090565b54604051908152f35b6001600160e01b031981160361029957565b346102995760203660031901126102995760206001600160e01b031960043561034a81610310565b167fd9b67a260000000000000000000000000000000000000000000000000000000081149081156103b2575b8115610388575b506040519015158152f35b7f01ffc9a7000000000000000000000000000000000000000000000000000000009150145f61037d565b7f0e89341c0000000000000000000000000000000000000000000000000000000081149150610376565b34610299575f36600319011261029957602060405166038d7ea4c680008152f35b5f5b83811061040e5750505f910152565b81810151838201526020016103ff565b90602091610437815180928185528580860191016103fd565b601f01601f1916010190565b90602061045492818152019061041e565b90565b3461029957602080600319360112610299576040515f9160025461047a81610abb565b8084529060019081811690811561050e57506001146104b4575b6104b0846104a4818803826105d3565b60405191829182610443565b0390f35b60025f9081529294507f405787fa12a823e0f2b7631cc41b3ba8828b3321ca811111fa75cd3aa3bb5ace5b8284106104fb57505050816104b0936104a49282010193610494565b80548585018701529285019281016104df565b60ff1916858501525050151560051b82010191506104a4816104b0610494565b634e487b7160e01b5f52604160045260245ffd5b6080810190811067ffffffffffffffff82111761055e57604052565b61052e565b60c0810190811067ffffffffffffffff82111761055e57604052565b6060810190811067ffffffffffffffff82111761055e57604052565b60e0810190811067ffffffffffffffff82111761055e57604052565b6020810190811067ffffffffffffffff82111761055e57604052565b90601f8019910116810190811067ffffffffffffffff82111761055e57604052565b6040519061060282610563565b565b6040519061060282610542565b67ffffffffffffffff811161055e57601f01601f191660200190565b92919261063982610611565b9161064760405193846105d3565b829481845281830111610299578281602093845f960137010152565b9080601f83011215610299578160206104549335910161062d565b6040600319820112610299576004359067ffffffffffffffff8211610299576106a991600401610663565b9060243590565b34610299576106be3661067e565b335f9081527fada5013122d395ba3c54772283fb069b10426056ef8ca54750cb9bb552a59e7d602052604090209091906106fb905b5415156120c3565b61070481610f67565b54156107a05761072761071f835f52600360205260405f2090565b54151561210e565b61077a61073382610f67565b549161074f61074a845f52600660205260405f2090565b61219e565b8361075982610f67565b5561077581610770865f52600660205260405f2090565b612229565b6122f9565b7fea3298815689e7c88c8a95c13838806450c4cee965a7c33dda77b335f64565785f80a4005b606460405162461bcd60e51b815260206004820152601160248201527f4e616d65206e6f742061737369676e65640000000000000000000000000000006044820152fd5b60243590600382101561029957565b60443590600382101561029957565b359063ffffffff8216820361029957565b359061ffff8216820361029957565b6080906043190112610299576040519061083b82610542565b8163ffffffff60443581811681036102995782526064358181168103610299576020830152608435908116810361029957604082015260a4359061ffff821682036102995760600152565b6080906063190112610299576040519061089f82610542565b8163ffffffff6064358181168103610299578252608435818116810361029957602083015260a435908116810361029957604082015260c4359061ffff821682036102995760600152565b6080906023190112610299576040519061090382610542565b8163ffffffff6024358181168103610299578252604435818116810361029957602083015260643590811681036102995760408201526084359061ffff821682036102995760600152565b346102995760c0366003190112610299576004357f1022d6ed189b00c6d01d0bdfcc78a25b81a33fc04c61bc53abf2de6bbc60f375610ab661098e6107e4565b610a4c61099a36610822565b6109b76109af875f52600360205260405f2090565b541515612319565b6109d760016109ce885f52600360205260405f2090565b01541515612364565b604051610a2d81610a1f602082019485919091606061ffff81608084019563ffffffff8082511686528060208301511660208701526040820151166040860152015116910152565b03601f1981018352826105d3565b5190206005610a44875f52600360205260405f2090565b0154146123af565b610a7c610a77610a716004610a69885f52600360205260405f2090565b015460ff1690565b836132c2565b6123fa565b5f6001610a91865f52600360205260405f2090565b01555f6002610aa8865f52600360205260405f2090565b015560405191829182612445565b0390a2005b90600182811c92168015610ae9575b6020831014610ad557565b634e487b7160e01b5f52602260045260245ffd5b91607f1691610aca565b9060405191825f8254610b0581610abb565b908184526020946001916001811690815f14610b715750600114610b33575b505050610602925003836105d3565b5f90815285812095935091905b818310610b5957505061060293508201015f8080610b24565b85548884018501529485019487945091830191610b40565b9250505061060294925060ff191682840152151560051b8201015f8080610b24565b34610299576020366003190112610299576004355f5260066020526104b0610bbd60405f20610af3565b60405191829160208352602083019061041e565b3461029957610bdf3661067e565b335f9081527fada5013122d395ba3c54772283fb069b10426056ef8ca54750cb9bb552a59e7d60205260409020909190610c18906106f3565b80518015159081610d14575b5015610cd057610c9990610c436109af845f52600360205260405f2090565b610c56610c4f82610f67565b5415612455565b610c70610c6b845f52600660205260405f2090565b610af3565b8051610cbf575b5082610c8282610f67565b5561077581610770855f52600660205260405f2090565b7f0d74c26d085287bcf3070f20f8d884a204aa6f73949ab189d58abd345b1cac945f80a3005b610cc95f91610f67565b555f610c77565b606460405162461bcd60e51b815260206004820152601360248201527f496e76616c6964206e616d65206c656e677468000000000000000000000000006044820152fd5b6020915011155f610c24565b34610299576020806003193601126102995760c09060043590815f52600a81526040805f2054600b8352815f2054906009845260ff6004845f2001541692600385526005815f20015494600160ff1b825197808952179087015285015260608401521515608083015260a0820152f35b67ffffffffffffffff811161055e5760051b60200190565b9080601f83011215610299576020908235610dc281610d90565b93610dd060405195866105d3565b81855260208086019260051b82010192831161029957602001905b828210610df9575050505090565b81358152908301908301610deb565b346102995760a036600319011261029957610e21610283565b610e2961029d565b906044359167ffffffffffffffff9081841161029957610e4e60049436908601610da8565b9060643583811161029957610e669036908701610da8565b9260843590811161029957610e7e9036908701610663565b936001600160a01b03808216903382141580610f0b575b610ede57831615610ec75715610eb157610eaf9550613e99565b005b6024865f60405191626a0d4560e21b8352820152fd5b6024875f60405191632bfa23e760e11b8352820152fd5b6040805163711bec9160e11b815233818b019081526001600160a01b038616602082015290918291010390fd5b50815f52600160205260ff610f343360405f20906001600160a01b03165f5260205260405f2090565b541615610e95565b6020600319820112610299576004359067ffffffffffffffff82116102995761045491600401610663565b6020610f809181604051938285809451938492016103fd565b8101600581520301902090565b6020610fa69181604051938285809451938492016103fd565b8101600781520301902090565b34610299576020610307610fc636610f3c565b610f67565b34610299576020366003190112610299576004355f52600a602052602060405f2054604051908152f35b9081518082526020808093019301915f5b828110611014575050505090565b835185529381019392810192600101611006565b906020610454928181520190610ff5565b346102995760403660031901126102995760043567ffffffffffffffff808211610299573660238301121561029957816004013561107681610d90565b9261108460405194856105d3565b8184526020916024602086019160051b8301019136831161029957602401905b8282106110dd5785602435868111610299576104b0916110cb6110d1923690600401610da8565b906124cd565b60405191829182611028565b8380916110e9846102b3565b8152019101906110a4565b3461029957602061110c61110736610f3c565b612571565b604051908152f35b346102995760203660031901126102995760408051600435808252600160ff1b176020820152f35b6003111561114657565b634e487b7160e01b5f52602160045260245ffd5b9060038210156111465752565b34610299576020366003190112610299576004355f52600960205260a060405f2080549060ff6001820154169060028101546111ba60ff600460038501549401541693604051958652602086019061115a565b6040840152606083015215156080820152f35b34610299576020366003190112610299576004355f52600b602052602060405f2054604051908152f35b9181601f840112156102995782359167ffffffffffffffff8311610299576020838186019501011161029957565b346102995760e03660031901126102995761123e61029d565b67ffffffffffffffff90608435828111610299576112609036906004016111f7565b60a4929192358481116102995761127b9036906004016111f7565b9160c43595861161029957611297610eaf9636906004016111f7565b95909460643590604435906004356127c2565b3461029957602036600319011261029957600435805f5260036020526112d560405f20541515612319565b805f5260036020526112ef600160405f2001541515612364565b6113106002611306835f52600360205260405f2090565b01544310156129d8565b6001611324825f52600360205260405f2090565b0154611338825f52600360205260405f2090565b555f600161134e835f52600360205260405f2090565b01555f6002611365835f52600360205260405f2090565b01557f30b47f773c1d2a65ce0ef667c3b123d5abd927c62b56907569c0daf51cd65150610ab661139d835f52600360205260405f2090565b546040519081529081906020820190565b3461029957602060ff6113c86113c336610f3c565b610f8d565b54166040519015158152f35b34610299576040366003190112610299576113ed610283565b6024359060ff821680920361029957335f9081527fada5013122d395ba3c54772283fb069b10426056ef8ca54750cb9bb552a59e7d602052604090206001600160a01b03919061143c906106f3565b165f52600860205260405f209060ff198254161790555f80f35b34610299576020366003190112610299576001600160a01b03611477610283565b165f526008602052602060ff60405f205416604051908152f35b346102995760e0366003190112610299576004357fc4e5e67fff3ba4bffbe07d84c897dbf61a0027b703754b45a5c9de6b58bfd793610ab66024356115f06114d76107f3565b6115a963ffffffff61156a836114ec36610886565b6115016109af8c5f52600360205260405f2090565b6115658b6005610a44604051602081019061155381610a1f8985919091606061ffff81608084019563ffffffff8082511686528060208301511660208701526040820151166040860152015116910152565b519020925f52600360205260405f2090565b61337b565b16611576811515612a23565b61157f8361113c565b6001830361162d575b600161159c895f52600360205260405f2090565b0154611600575b43612aed565b8360016115be895f52600360205260405f2090565b015560026115d4885f52600360205260405f2090565b015560046115ea875f52600360205260405f2090565b01612afa565b6040519081529081906020820190565b61162861162361161d6004610a698c5f52600360205260405f2090565b856132c2565b612a6e565b6115a3565b6116368361113c565b8215611588576116458361113c565b611588565b34610299575f366003190112610299576020600454604051908152f35b346102995760403660031901126102995760043567ffffffffffffffff8111610299576116a661169d60409236906004016111f7565b60243591612e48565b825191825215156020820152f35b346102995760203660031901126102995760206040517f7fffffffffffffffffffffffffffffffffffffffffffffffffffffffffffffff600435168152f35b346102995760a0366003190112610299576104b0611817600435611716366108ea565b335f9081527fada5013122d395ba3c54772283fb069b10426056ef8ca54750cb9bb552a59e7d60205260409081902090927f52629ba16cb44b809941f19e442f11a9973e93cc91be0d91df4afbe6e7c624ca916118b89190611777906106f3565b60045495869461178e61178987612cf3565b600455565b86516117d581610a1f602082019485919091606061ffff81608084019563ffffffff8082511686528060208301511660208701526040820151166040860152015116910152565b5190206117e06105f5565b908382525f60208301525f888301524360608301525f608083015260a0820152611812865f52600360205260405f2090565b6130d9565b83807fc9234525033c1ac098f69b4dc192ce416b13f69ec0b6de127022496be73337fd81600160ff1b81179590946118736001600160a01b03851661186461185d613123565b89836139b8565b8861186d613123565b916139b8565b611894611888855f52600a60205260405f2090565b66038d7ea4c680009055565b6118a9611888855f52600b60205260405f2090565b89519081529081906020820190565b0390a384519081526020810191909152604090a2519081529081906020820190565b8015150361029957565b346102995760403660031901126102995760043567ffffffffffffffff811161029957611918610eaf913690600401610663565b61195e60243591611928836118da565b335f9081527fada5013122d395ba3c54772283fb069b10426056ef8ca54750cb9bb552a59e7d602052604090206113c3906106f3565b9060ff801983541691151516179055565b3461029957604036600319011261029957611988610283565b602435611994816118da565b6001600160a01b0382169182156119ff578161195e6119cf92335f52600160205260405f20906001600160a01b03165f5260205260405f2090565b60405190151581527f17307eab39ab6107e8899845ad3d59bd9653f200f220920489ca2b5937696c3160203392a3005b60246040517fced3e1000000000000000000000000000000000000000000000000000000000081525f6004820152fd5b346102995760c036600319011261029957600435611a4b61029d565b90604435606435906084359367ffffffffffffffff9485811161029957611a769036906004016111f7565b60a43596871161029957611b0c611b12928792611a9a610eaf9a36906004016111f7565b9160405160208101907f454e544954595f5452414e534645520000000000000000000000000000000000825287602f8201526bffffffffffffffffffffffff198a60601b16604f8201528a60638201528b60838201524260a382015260a38152611b038161059b565b51902093613216565b1461261b565b6001600160a01b0360405194611b27866105b7565b5f865216613308565b9181601f840112156102995782359167ffffffffffffffff8311610299576020808501948460051b01011161029957565b604081019060408152825180925260608101916020809401905f5b818110611bbf57505050828183039101528180845192838152019301915f5b828110611ba9575050505090565b8351151585529381019392810192600101611b9b565b825185529385019391850191600101611b7c565b34610299576040806003193601126102995767ffffffffffffffff6004803582811161029957611c07903690600401611b30565b93909260243590811161029957611c22903690600401611b30565b90611c2e828714613135565b611c3786612cc1565b93611c4187612cc1565b965f5b818110611c59578551806104b08b8a83611b61565b80611c668792848b613180565b611c748389899694966131c2565b3593611cab835195869384937f8aad06280000000000000000000000000000000000000000000000000000000085528a85016131ee565b0381305afa8015611d285760019282918c5f925f92611cec575b50611cdb9293611cd4916124b4565b9015159052565b611ce5828a6124b4565b5201611c44565b611cdb9350611cd4919250611d16908c8d3d10611d21575b611d0e81836105d3565b8101906131d2565b909390929150611cc5565b503d611d04565b61320b565b346102995760603660031901126102995767ffffffffffffffff60043581811161029957611d5f9036906004016111f7565b919060243591821161029957602092611d7f61110c9336906004016111f7565b9160443593613216565b34610299576020366003190112610299576104b060043560045490611db061178983612cf3565b817f52629ba16cb44b809941f19e442f11a9973e93cc91be0d91df4afbe6e7c624ca6118b8611ddd610604565b6103e8815293610bb86020860152611817604095611dfe8782016127109052565b6033606082015261178e565b34610299576020366003190112610299576004355f52600360205260c060405f20805490611e6f6001820154916002810154600382015490600560ff60048501541693015494604051968752602087015260408601526060850152608084019061115a565b60a0820152f35b34610299575f36600319011261029957602060405160018152f35b3461029957604036600319011261029957602060ff6113c8611eb1610283565b6001600160a01b03611ec161029d565b91165f526001845260405f20906001600160a01b03165f5260205260405f2090565b919260a09361045496959215158452602084015260408301526060820152816080820152019061041e565b3461029957602036600319011261029957600435606090805f5260036020526104b060405f209260405192611f4284610563565b845484526001850154936020810194855260028601546040820152600560038701549660608301978852611f8060ff600483015416608085016130cd565b015460a082015251935194519080151580611fca575b611fab575b5060405194848695151586611ee3565b611fc3919250610c6b905f52600660205260405f2090565b905f611f9b565b506004548110611f96565b346102995760a036600319011261029957611fee610283565b611ff661029d565b60843567ffffffffffffffff811161029957612016903690600401610663565b906001600160a01b038316338114159081612069575b5061204257610eaf926064359160443591613308565b60405163711bec9160e11b81523360048201526001600160a01b0384166024820152604490fd5b90505f52600160205260ff6120923360405f20906001600160a01b03165f5260205260405f2090565b5416155f61202c565b6120bf915f525f60205260405f20906001600160a01b03165f5260205260405f2090565b5490565b156120ca57565b606460405162461bcd60e51b815260206004820152601d60248201527f4f6e6c7920666f756e646174696f6e20746f6b656e20686f6c646572730000006044820152fd5b1561211557565b606460405162461bcd60e51b815260206004820152601b60248201527f54617267657420656e7469747920646f65736e277420657869737400000000006044820152fd5b818110612164575050565b5f8155600101612159565b634e487b7160e01b5f52601160045260245ffd5b908160061b918083046040149015171561219957565b61216f565b6121a88154610abb565b90816121b2575050565b81601f5f93116001146121c3575055565b9080839182526121e2601f60208420940160051c840160018501612159565b5555565b9190601f81116121f557505050565b610602925f5260205f20906020601f840160051c8301931061221f575b601f0160051c0190612159565b9091508190612212565b919091825167ffffffffffffffff811161055e576122518161224b8454610abb565b846121e6565b602080601f8311600114612292575081906122839394955f92612287575b50508160011b915f199060031b1c19161790565b9055565b015190505f8061226f565b90601f198316956122a6855f5260205f2090565b925f905b8882106122e1575050836001959697106122c9575b505050811b019055565b01515f1960f88460031b161c191690555f80806122bf565b806001859682949686015181550195019301906122aa565b612311906020604051928284809451938492016103fd565b810103902090565b1561232057565b606460405162461bcd60e51b815260206004820152601460248201527f456e7469747920646f65736e27742065786973740000000000000000000000006044820152fd5b1561236b57565b606460405162461bcd60e51b815260206004820152601160248201527f4e6f2070726f706f73656420626f6172640000000000000000000000000000006044820152fd5b156123b657565b606460405162461bcd60e51b815260206004820152601060248201527f496e76616c69642061727469636c6573000000000000000000000000000000006044820152fd5b1561240157565b606460405162461bcd60e51b815260206004820152601b60248201527f43616e6e6f742063616e63656c20746869732070726f706f73616c00000000006044820152fd5b602081019291610602919061115a565b1561245c57565b606460405162461bcd60e51b815260206004820152601560248201527f4e616d6520616c72656164792061737369676e656400000000000000000000006044820152fd5b634e487b7160e01b5f52603260045260245ffd5b80518210156124c85760209160051b010190565b6124a0565b9190918051835180820361254f5750508051906125026124ec83610d90565b926124fa60405194856105d3565b808452610d90565b60209190601f190136848401375f5b8151811015612547578061253660019260051b85808287010151918a0101519061209b565b61254082876124b4565b5201612511565b509193505050565b604051635b05999160e01b815260048101919091526024810191909152604490fd5b61257a90610f67565b548061045457505f90565b1561258c57565b606460405162461bcd60e51b815260206004820152601a60248201527f496e76616c6964206465706f7369746f727920616464726573730000000000006044820152fd5b156125d757565b606460405162461bcd60e51b815260206004820152601860248201527f4d7573742072656c6561736520736f6d6520746f6b656e7300000000000000006044820152fd5b1561262257565b606460405162461bcd60e51b815260206004820152601860248201527f496e76616c696420656e74697479207369676e617475726500000000000000006044820152fd5b1561266d57565b606460405162461bcd60e51b815260206004820152601b60248201527f496e73756666696369656e7420636f6e74726f6c20746f6b656e7300000000006044820152fd5b908060209392818452848401375f828201840152601f01601f1916010190565b9160806104549360408152601560408201527f434f4e54524f4c5f53484152455f52454c454153450000000000000000000000606082015281602082015201916126b1565b1561271d57565b606460405162461bcd60e51b815260206004820152601c60248201527f496e73756666696369656e74206469766964656e6420746f6b656e73000000006044820152fd5b9160806104549360408152601660408201527f4449564944454e445f53484152455f52454c4541534500000000000000000000606082015281602082015201916126b1565b61045494926060928252602082015281604082015201916126b1565b9794816128d88a611b0c6001600160a01b039a879e859b7ff49b3b7be24475e2415d445c296967f90953e7daabd954e5be9f28f80b4689239e8c9a8f9c6128c46129099f8c9f9061281b849f9261284c93161515612585565b8415159d8e86156129cf575b612830906125d0565b6128456109af8d5f52600360205260405f2090565b369161062d565b602081519101209a6040519b8c93602085019542938d889492909160ca9694927f52454c454153455f434f4e54524f4c5f53484152455300000000000000000000875260168701526bffffffffffffffffffffffff199060601b166036860152604a850152606a840152608a83015260aa8201520190565b0398611b03601f199a8b81018352826105d3565b8988169183908c8c600160ff1b81179261297a575b5050888261290e575b50505050506040519586951698856127a6565b0390a3565b84612949846129416129709861292b875f525f60205260405f2090565b906001600160a01b03165f5260205260405f2090565b541015612716565b61296b604051958661295f8c8c60208401612761565b039081018752866105d3565b613308565b5f808281886128f6565b8161299f6129c8936129978961292b865f525f60205260405f2090565b541015612666565b604051916129c1836129b58d8d602084016126d1565b038881018552846105d3565b8c88613308565b8c5f6128ed565b50841515612827565b156129df57565b606460405162461bcd60e51b815260206004820152601460248201527f44656c617920706572696f64206e6f74206d65740000000000000000000000006044820152fd5b15612a2a57565b606460405162461bcd60e51b815260206004820152601660248201527f50726f706f73657220747970652064697361626c6564000000000000000000006044820152fd5b15612a7557565b608460405162461bcd60e51b815260206004820152602160248201527f43616e6e6f74206f76657272696465206578697374696e672070726f706f736160448201527f6c000000000000000000000000000000000000000000000000000000000000006064820152fd5b906007820180921161219957565b9190820180921161219957565b9060038110156111465760ff80198354169116179055565b9080601f83011215610299576020908235612b2c81610d90565b93612b3a60405195866105d3565b81855260208086019260051b82010192831161029957602001905b828210612b63575050505090565b81358152908301908301612b55565b602091828282031261029957813567ffffffffffffffff9283821161029957019260609260608584031261029957604092835195612baf8761057f565b80358381116102995782612bc4918301612b12565b8752838101358381116102995782612bdd918301610663565b84880152848101359083821161029957019181601f8401121561029957823590612c0682610d90565b96612c13875198896105d3565b828852858089019360051b8601019484861161029957868101935b868510612c4357505050505050505082015290565b84358481116102995782019060809081601f19848a030112610299578a51612c6a81610542565b8a84013581528b84013587811161029957898c612c8992870101610da8565b8b820152858401359287841161029957848d612cac8c8f80999881990101610da8565b90840152013586820152815201940193612c2e565b90612ccb82610d90565b612cd860405191826105d3565b8281528092612ce9601f1991610d90565b0190602036910137565b5f1981146121995760010190565b15612d0857565b608460405162461bcd60e51b815260206004820152602560248201527f436c61696d20696e64657865732f77656967687473206c656e677468206d697360448201527f6d617463680000000000000000000000000000000000000000000000000000006064820152fd5b15612d7957565b606460405162461bcd60e51b815260206004820152601a60248201527f456e7469747920696e646578206f7574206f6620626f756e64730000000000006044820152fd5b5f1981019190821161219957565b9190820391821161219957565b15612ddf57565b608460405162461bcd60e51b8152602060048201526024808201527f5265666572656e63656420636c61696d20696e646578206f7574206f6620626f60448201527f756e6473000000000000000000000000000000000000000000000000000000006064820152fd5b612e5791939293810190612b72565b90602090612e68602084015161346c565b805192612e7784865151612aed565b92604091612e8c604088019586515190612aed565b94612e9687612cc1565b965f965f5b8751811015612f1b576041612eb0828a6124b4565b515114612ec0575b600101612e9b565b612ed4612ecd828a6124b4565b518d61361f565b8a6001600160a01b038216612eeb575b5050612eb8565b99612f0e612f1392612f00836001969e6124b4565b906001600160a01b03169052565b612cf3565b98908a612ee4565b509497995094509496919096612f3081612cc1565b985f5b828110613093575050505f905b8551805183101561305e5782612f55916124b4565b5191612f6b612f64848c6137e8565b84516138de565b50888301988951519a612f848a86019c8d515114612d01565b5f995f5b8c51805182101561302f57612f9f8f9183906124b4565b51612fab8b8210612d72565b89515180821015612fc3575050506001905b01612f88565b918d849f928e908d612fd88360019998612aed565b821015612ffe5750505050612ff892612ff191516124b4565b5190612aed565b9b612fbd565b92613020612ff1959361301b61302994612ff89a97515190612dcb565b612dcb565b90515111612dd8565b516124b4565b50509b50936060919992939a5001511161304f5760010190979596612f40565b5050505050505090505f905f90565b5097505050505091505051805190816130795750505f905f90565b61308561308b92612dbd565b906124b4565b515190600190565b806130c26130b86130ab6001949c9e979d9c866124b4565b516001600160a01b031690565b612f0083886124b4565b019997989299612f33565b60038210156111465752565b9080518255602081015160018301556040810151600283015560608101516003830155608081015160038110156111465760059161311c60a09260048601612afa565b0151910155565b60405190613130826105b7565b5f8252565b1561313c57565b606460405162461bcd60e51b815260206004820152601560248201527f4172726179206c656e677468206d69736d6174636800000000000000000000006044820152fd5b91908110156124c85760051b81013590601e198136030182121561029957019081359167ffffffffffffffff8311610299576020018236038113610299579190565b91908110156124c85760051b0190565b91908260409103126102995760208251920151610454816118da565b939291602091613206916040875260408701916126b1565b930152565b6040513d5f823e3d90fd5b61322136838361062d565b6020815191012094600180600454905b818110613255575050509161324b939161ffff9593613d7a565b1661045457505f90565b8061326984925f52600360205260405f2090565b541515806132a7575b61327d575b01613231565b905061ffff61328f8989898989613d7a565b1661329b578290613277565b97505050505050505090565b50896132bb825f52600360205260405f2090565b5414613272565b600381101561114657600181146132f6576132dc8161113c565b156132e657505f90565b806132f260029261113c565b1490565b508061330360019261113c565b141590565b939291906001600160a01b03808216156133645785161561334e576106029460405192600184526020840152604083019360018552606084015260808301604052613e99565b6024604051626a0d4560e21b81525f6004820152fd5b6024604051632bfa23e760e11b81525f6004820152fd5b90600381101561114657600181146133b0578061339960029261113c565b146133a357505f90565b6020015163ffffffff1690565b505163ffffffff1690565b6040516133c7816105b7565b5f815290565b906133d782610d90565b6133e460405191826105d3565b82815280926133f5601f1991610d90565b01905f5b82811061340557505050565b8060606020809385010152016133f9565b604051906134238261057f565b6040808352366020840137565b6040519061343d82610542565b604182526060366020840137565b8051604010156124c85760600190565b9081518110156124c8570160200190565b906134768261409b565b80156136025761348581612183565b9061348f816133cd565b935f5b82811061349f5750505050565b6134a7613416565b5f5b604081106135ce575061351661351d6134c58460031c88612aed565b600192839161350a6135046134de60078a16938b61345b565b517fff000000000000000000000000000000000000000000000000000000000000001690565b60f81c90565b9060ff809216901c1690565b1660ff1690565b6135c657601b915b61352d613430565b613537858b6124b4565b52613542848a6124b4565b505f5b6040811061359757505050906001916135907fff00000000000000000000000000000000000000000000000000000000000000613582848b6124b4565b519260f81b165f1a9161344b565b5301613492565b808a6135bf826135b5896135af6134de8a988a61345b565b946124b4565b51925f1a9261345b565b5301613545565b601c91613525565b806135ef6134de6135e96001946135e488612183565b612aed565b8761345b565b5f1a6135fb828561345b565b53016134a9565b5090506104546133bb565b60ff601b9116019060ff821161219957565b9060418151036136bf57602081015191606060408301519201515f1a90601b82106136af575b60ff8216601b81141590816136a3575b5061369b576136885f93602095604051948594859094939260ff6060936080840197845216602083015260408201520152565b838052039060015afa15611d28575f5190565b505050505f90565b601c915014155f613655565b906136b99061360d565b90613645565b50505f90565b156136cc57565b606460405162461bcd60e51b815260206004820152601f60248201527f5369676e6572732f77656967687473206c656e677468206d69736d61746368006044820152fd5b9081518082526020808093019301915f5b82811061372f575050505090565b835161ffff1685529381019392810192600101613721565b6020808252825161ffff16818301528083015160c06040840152805160e08401819052610100840195949392918201915f5b8281106137d4575050505060c060a06137a78495966040610454960151601f19868303016060870152613710565b606086015163ffffffff16608085015294608081015163ffffffff1684830152015163ffffffff16910152565b835188529681019692810192600101613779565b918251926137fd6040840194855151146136c5565b6138078151612cc1565b906138128151612cc1565b925f5b825181101561387d57806138406138346138346130ab600195886124b4565b6001600160a01b031690565b61384a82876124b4565b5261387761386461385c838b516124b4565b5161ffff1690565b61386e83896124b4565b9061ffff169052565b01613815565b5094505091606061389191015161ffff1690565b916138a761389d6105f5565b61ffff9094168452565b602083015260408201525f60608201525f60808201525f60a08201526040516138d881610a1f602082019485613747565b51902090565b805f52600360205260405f205480155f146139685750036138fe57600190565b608460405162461bcd60e51b815260206004820152602560248201527f4c617a7920656e746974793a204944206d75737420657175616c20626f61726460448201527f20686173680000000000000000000000000000000000000000000000000000006064820152fd5b91905003613974575f90565b606460405162461bcd60e51b815260206004820152601360248201527f426f6172642068617368206d69736d61746368000000000000000000000000006044820152fd5b9190916001600160a01b03811680156133645760405190600191828152602092602082019687526040820192818452606094606084019566038d7ea4c680008752608085018060405285518751808203613b1657505050908391825f905b613acf575b5050508351145f14613a94575f88517fc3d58168c5ae7397731d063d5bbf3d657854427343f4c083240f7aacaa2d0f62613a6b885160405191829133958360209093929193604081019481520152565b0390a45b815103613a86575050610602935190519133614458565b91509161060294503361425f565b5f6040517f4a39dc06d4c0dbc64b70af90fd698a233a518aa5d07e595d983b8c0526c8f7fb339180613ac7898983614178565b0390a4613a6f565b8651811015613b115780849160051b8801613b08613b008d61292b8789860151950151945f525f60205260405f2090565b918254612aed565b90550183613a16565b613a1b565b635b05999160e01b8352608488019190915260a4870152604490fd5b9080601f83011215610299576020908235613b4c81610d90565b93613b5a60405195866105d3565b81855260208086019260051b82010192831161029957602001905b828210613b83575050505090565b838091613b8f84610813565b815201910190613b75565b60208183031261029957803567ffffffffffffffff9182821161029957019160c08382031261029957613bcb6105f5565b92613bd581610813565b845260208101358381116102995782613bef918301612b12565b6020850152604081013592831161029957613c1160a092613c3e948301613b32565b6040850152613c2260608201610802565b6060850152613c3360808201610802565b608085015201610802565b60a082015290565b90602090818382031261029957823567ffffffffffffffff93848211610299570181601f82011215610299578035613c7d81610d90565b94613c8b60405196876105d3565b818652848087019260051b8401019380851161029957858401925b858410613cb7575050505050505090565b8335838111610299578791613cd1848480948a0101610663565b815201930192613ca6565b15613ce357565b606460405162461bcd60e51b815260206004820152601c60248201527f426f61726420617272617973206c656e677468206d69736d61746368000000006044820152fd5b91909161ffff8080941691160191821161219957565b90606461ffff8093160291821691820361219957565b9061ffff809116918215613d6657160490565b634e487b7160e01b5f52601260045260245ffd5b93949290613d8e90613d9793810190613b9a565b94810190613c46565b926020810192835151613db1604084019182515114613cdc565b5f925f945f5b87518051821080613e8f575b15613e5c5781613dd2916124b4565b51613de161385c8387516124b4565b906001600160a01b038b81831115613e06575b50505050613e0190612cf3565b613db7565b613834613e1a86613e21939d96979d6124b4565b518a61361f565b911614613e40575b613e0191613e3691613d27565b96905f808b613df4565b9581613e52613e0193613e3693613d27565b9791509150613e29565b50509650929450505061ffff908183161561369b575161ffff16908316106136bf57613e8a61045492613d3d565b613d53565b5089518210613dc3565b94919091815184519081810361254f5750505f5b8251811015613fa8578060051b9060208083860101519287010151856001600160a01b0393848b16613f0f575b6001948216613eed575b50505001613ead565b613f059161292b613b00925f525f60205260405f2090565b90555f8581613ee4565b9192939050613f298a61292b845f525f60205260405f2090565b54838110613f585791879184600196959403613f508d61292b855f525f60205260405f2090565b559450613eda565b6040517f03dee4c50000000000000000000000000000000000000000000000000000000081526001600160a01b038c16600482015260248101919091526044810184905260648101839052608490fd5b5094919392909360018551145f14614052576020858101518382015160408051928352928201526001600160a01b03838116929086169133917fc3d58168c5ae7397731d063d5bbf3d657854427343f4c083240f7aacaa2d0f6291a45b6001600160a01b03811661401b575b5050505050565b845160010361404157602080614037960151920151923361448d565b5f80808080614014565b61404d94919233614358565b614037565b6001600160a01b03604051818316918516907f4a39dc06d4c0dbc64b70af90fd698a233a518aa5d07e595d983b8c0526c8f7fb339180614093888c83614178565b0390a4614005565b908151156141735760015b613e8081111561411c575b60405162461bcd60e51b815260206004820152603560248201527f496e76616c6964207061636b6564207369676e6174757265206c656e6774682060448201527f2d2063616e6e6f742064657465637420636f756e7400000000000000000000006064820152608490fd5b8060061b818104604014821517156121995761414a9061414461413e84612adf565b60031c90565b90612aed565b83519080821461416c57116141675761416290612cf3565b6140a6565b6140b1565b5090925050565b5f9150565b909161418f61045493604084526040840190610ff5565b916020818403910152610ff5565b90816020910312610299575161045481610310565b926141e161045495936001600160a01b036141ef941686525f602087015260a0604087015260a0860190610ff5565b908482036060860152610ff5565b91608081840391015261041e565b939061045495936141e1916141ef946001600160a01b03809216885216602087015260a0604087015260a0860190610ff5565b3d1561425a573d9061424182610611565b9161424f60405193846105d3565b82523d5f602084013e565b606090565b9293919093843b614271575050505050565b602091614294604051948593849363bc197c8160e01b98898652600486016141b2565b03815f6001600160a01b0388165af15f9181614327575b506142ea57826142b9614230565b80519190826142e357604051632bfa23e760e11b81526001600160a01b0383166004820152602490fd5b6020915001fd5b6001600160e01b0319160361430457505f80808080614014565b604051632bfa23e760e11b81526001600160a01b03919091166004820152602490fd5b61434a91925060203d602011614351575b61434281836105d3565b81019061419d565b905f6142ab565b503d614338565b939290949194853b61436d575b505050505050565b614390602093604051958694859463bc197c8160e01b998a8752600487016141fd565b03815f6001600160a01b0388165af15f91816143d0575b506143b557826142b9614230565b6001600160e01b0319160361430457505f8080808080614365565b6143ea91925060203d6020116143515761434281836105d3565b905f6143a7565b909260a0926001600160a01b0361045496951683525f602084015260408301526060820152816080820152019061041e565b919261045495949160a0946001600160a01b03809216855216602084015260408301526060820152816080820152019061041e565b9293919093843b61446a575050505050565b602091614294604051948593849363f23a6e6160e01b98898652600486016143f1565b939290949194853b6144a157505050505050565b614390602093604051958694859463f23a6e6160e01b998a87526004870161442356fea26469706673582212202cc216cd108fdbdc9b8104a4e41094affb052d7911f9f2c21551d9b7713dda0064736f6c63430008180033","linkReferences":{}},"methodIdentifiers":{"FOUNDATION_ENTITY()":"e8f48031","TOTAL_CONTROL_SUPPLY()":"a74f77e7","TOTAL_DIVIDEND_SUPPLY()":"03db7616","activateBoard(bytes32)":"680c3ff2","activeProposals(bytes32)":"5a7931c8","assignName(string,uint256)":"26760ce6","balanceOf(address,uint256)":"00fdd58e","balanceOfBatch(address[],uint256[])":"4e1273f4","batchVerifyHankoSignatures(bytes[],bytes32[])":"cce41598","cancelBoardProposal(bytes32,uint8,(uint32,uint32,uint32,uint16))":"1e76fea5","entities(bytes32)":"e5b338fd","entityTransferTokens(uint256,address,uint256,uint256,bytes,bytes)":"c83fa48e","foundationRegisterEntity(bytes32,(uint32,uint32,uint32,uint16))":"8dbe6c38","getEntityFromToken(uint256)":"8d197ec7","getEntityInfo(bytes32)":"edd2133b","getGovernanceInfo(uint256)":"2a20cc80","getTokenIds(uint256)":"57991d30","isApprovedForAll(address,address)":"e985e9c5","nameQuota(address)":"8193e007","nameToNumber(string)":"2fae4ffd","nextNumber()":"848202fe","numberToName(uint256)":"1ed3d440","proposeBoard(bytes32,bytes32,uint8,(uint32,uint32,uint32,uint16))":"820eec5f","recoverEntity(bytes,bytes,bytes32)":"d93e68d6","registerNumberedEntity(bytes32)":"e1657b8a","releaseControlShares(uint256,address,uint256,uint256,string,bytes,bytes)":"6702bc77","reservedNames(string)":"68436f10","resolveEntityId(string)":"504d23ea","safeBatchTransferFrom(address,address,uint256[],uint256[],bytes)":"2eb2c2d6","safeTransferFrom(address,address,uint256,uint256,bytes)":"f242432a","setApprovalForAll(address,bool)":"a22cb465","setNameQuota(address,uint8)":"7ea397c8","setReservedName(string,bool)":"9248cd43","supportsInterface(bytes4)":"01ffc9a7","totalControlSupply(bytes32)":"311cf8eb","totalDividendSupply(bytes32)":"5b70ae41","transferName(string,uint256)":"0ebf19c6","uri(uint256)":"0e89341c","verifyHankoSignature(bytes,bytes32)":"8aad0628"},"id":5}