{"abi":[{"type":"constructor","inputs":[],"stateMutability":"nonpayable"},{"type":"function","name":"applyBatch","inputs":[{"name":"deltas","type":"int256[]","internalType":"int256[]"},{"name":"encodedBatch","type":"bytes","internalType":"bytes"},{"name":"leftArguments","type":"bytes","internalType":"bytes"},{"name":"rightArguments","type":"bytes","internalType":"bytes"}],"outputs":[{"name":"","type":"int256[]","internalType":"int256[]"}],"stateMutability":"nonpayable"},{"type":"function","name":"cleanSecret","inputs":[{"name":"hash","type":"bytes32","internalType":"bytes32"}],"outputs":[],"stateMutability":"nonpayable"},{"type":"function","name":"encodeBatch","inputs":[{"name":"b","type":"tuple","internalType":"struct SubcontractProvider.Batch","components":[{"name":"payment","type":"tuple[]","internalType":"struct SubcontractProvider.Payment[]","components":[{"name":"deltaIndex","type":"uint256","internalType":"uint256"},{"name":"amount","type":"int256","internalType":"int256"},{"name":"revealedUntilBlock","type":"uint256","internalType":"uint256"},{"name":"hash","type":"bytes32","internalType":"bytes32"}]},{"name":"swap","type":"tuple[]","internalType":"struct SubcontractProvider.Swap[]","components":[{"name":"ownerIsLeft","type":"bool","internalType":"bool"},{"name":"addDeltaIndex","type":"uint256","internalType":"uint256"},{"name":"addAmount","type":"uint256","internalType":"uint256"},{"name":"subDeltaIndex","type":"uint256","internalType":"uint256"},{"name":"subAmount","type":"uint256","internalType":"uint256"}]}]}],"outputs":[{"name":"","type":"bytes","internalType":"bytes"}],"stateMutability":"pure"},{"type":"function","name":"hashToBlock","inputs":[{"name":"","type":"bytes32","internalType":"bytes32"}],"outputs":[{"name":"","type":"uint256","internalType":"uint256"}],"stateMutability":"view"},{"type":"function","name":"log","inputs":[{"name":"s","type":"string","internalType":"string"},{"name":"x","type":"bytes","internalType":"bytes"}],"outputs":[],"stateMutability":"nonpayable"},{"type":"function","name":"log","inputs":[{"name":"s","type":"string","internalType":"string"},{"name":"x","type":"address","internalType":"address"}],"outputs":[],"stateMutability":"nonpayable"},{"type":"function","name":"log","inputs":[{"name":"s","type":"string","internalType":"string"},{"name":"x","type":"bytes32","internalType":"bytes32"}],"outputs":[],"stateMutability":"nonpayable"},{"type":"function","name":"log","inputs":[{"name":"s","type":"string","internalType":"string"},{"name":"x","type":"int256","internalType":"int256"}],"outputs":[],"stateMutability":"nonpayable"},{"type":"function","name":"log","inputs":[{"name":"s","type":"string","internalType":"string"},{"name":"x","type":"string","internalType":"string"}],"outputs":[],"stateMutability":"nonpayable"},{"type":"function","name":"log","inputs":[{"name":"s","type":"string","internalType":"string"},{"name":"x","type":"uint256","internalType":"uint256"}],"outputs":[],"stateMutability":"nonpayable"},{"type":"function","name":"log","inputs":[{"name":"s","type":"string","internalType":"string"},{"name":"x","type":"bool","internalType":"bool"}],"outputs":[],"stateMutability":"nonpayable"},{"type":"function","name":"logDeltas","inputs":[{"name":"_msg","type":"string","internalType":"string"},{"name":"deltas","type":"int256[]","internalType":"int256[]"}],"outputs":[],"stateMutability":"pure"},{"type":"function","name":"revealSecret","inputs":[{"name":"secret","type":"bytes32","internalType":"bytes32"}],"outputs":[],"stateMutability":"nonpayable"},{"type":"event","name":"LogAddress","inputs":[{"name":"","type":"string","indexed":false,"internalType":"string"},{"name":"","type":"address","indexed":false,"internalType":"address"}],"anonymous":false},{"type":"event","name":"LogBool","inputs":[{"name":"","type":"string","indexed":false,"internalType":"string"},{"name":"","type":"bool","indexed":false,"internalType":"bool"}],"anonymous":false},{"type":"event","name":"LogBytes","inputs":[{"name":"","type":"string","indexed":false,"internalType":"string"},{"name":"","type":"bytes","indexed":false,"internalType":"bytes"}],"anonymous":false},{"type":"event","name":"LogBytes32","inputs":[{"name":"","type":"string","indexed":false,"internalType":"string"},{"name":"","type":"bytes32","indexed":false,"internalType":"bytes32"}],"anonymous":false},{"type":"event","name":"LogInt","inputs":[{"name":"","type":"string","indexed":false,"internalType":"string"},{"name":"","type":"int256","indexed":false,"internalType":"int256"}],"anonymous":false},{"type":"event","name":"LogString","inputs":[{"name":"","type":"string","indexed":false,"internalType":"string"},{"name":"","type":"string","indexed":false,"internalType":"string"}],"anonymous":false},{"type":"event","name":"LogUint","inputs":[{"name":"","type":"string","indexed":false,"internalType":"string"},{"name":"","type":"uint256","indexed":false,"internalType":"uint256"}],"anonymous":false}],"bytecode":{"object":"0x6080346100635763ffffffff6001555f6020828101918252825260408201916001600160401b0383118184101761004f57826040525190205f525f6020524360405f2055610fab90816100688239f35b634e487b7160e01b5f52604160045260245ffd5b5f80fdfe604060808152600480361015610013575f80fd5b5f3560e01c806318c323f21461077757806323cdd8e8146106f9578063319af33314610673578063322d0ac7146106295780633692d61a146105d857806337d6d073146105685780633ca6268e146105175780634b5c42771461048457806351672fac1461045d5780636030754514610422578063b60e72cc146103b0578063c3b55635146103335763fd287b5d146100aa575f80fd5b346102ed5760206003199281843601126102ed5782359367ffffffffffffffff908186116102ed57829086360301126102ed578151946100e986610bdc565b808501358281116102ed578101366023820112156102ed57858101359061010f82610c66565b9161011c86519384610c44565b80835260248784019160071b830101913683116102ed57602401905b8282106102f157505050865260248101359182116102ed570192366023850112156102ed578301359361016a85610c66565b9361017783519586610c44565b858552838501602460a0809802830101913683116102ed57929592602401905b82821061029657505050828401908152815193838086015260809160808601915191848088015282518091528560a088019301905f5b8782821061026657505050505195606090603f198784030160608801528580895194858152019801935f925b84841061022c57888861022889610219848f03601f198101865285610c44565b51928284938452830190610d7d565b0390f35b8551805115158b5280890151898c015287810151888c0152808201518b8301528201518a83015298820198948701946001909301926101f9565b835180518752818101518288015288810151898801526060908101519087015294860194909201916001016101cd565b87829794973603126102ed5785889186516102b081610c28565b6102b985610d70565b8152828501358382015287850135888201526060808601359082015260808086013590820152815201910190959295610197565b5f80fd5b6080823603126102ed5787608091885161030a81610c0c565b843581528285013583820152898501358a82015260608086013590820152815201910190610138565b50346102ed57816003193601126102ed5780359067ffffffffffffffff82116102ed5761036291369101610d52565b602435918215158093036102ed577f4c34c2f9a78632f29fa59aaed5514cb742fd9fbcfd7ccc2c03c85f2bbc621c47926103a58251938385948552840190610d7d565b9060208301520390a1005b5090346102ed57806003193601126102ed57813567ffffffffffffffff81116102ed577f941296a39ea107bde685522318a4b6c2b544904a5dd82a512748ca2cf839bef79261040191369101610d52565b906104158151928284938452830190610d7d565b60243560208301520390a1005b50346102ed5760203660031901126102ed57815160208101913582526020815261044b81610bdc565b5190205f525f60205243905f20555f80f35b5090346102ed5760203660031901126102ed57602091355f525f8252805f20549051908152f35b50346102ed57816003193601126102ed5767ffffffffffffffff9181358381116102ed576104b59036908401610d52565b916024359384116102ed576104f1610512917f27a8767ed172b48d7cf6dbb25d2840c5fa91ef78fa6e05c13c82763d099f03ca95369101610d52565b6105048351948486958652850190610d7d565b908382036020850152610d7d565b0390a1005b5090346102ed57806003193601126102ed57813567ffffffffffffffff81116102ed577f6a837ff3973aa4181e7b9f07756f8b7ee366dd85a36655d2cb42cd47f10b96389261040191369101610d52565b5090346102ed5760203660031901126102ed57813591825f525f602052815f20549081151591826105aa575b505061059c57005b5f9182526020829052812055005b9091506201869f194301914383116105c55750105f80610594565b601190634e487b7160e01b5f525260245ffd5b5090346102ed57806003193601126102ed57813567ffffffffffffffff81116102ed577f02d93529bba9d141e5e06733c52c7e6fbcb1149586adb5c24064b522ab26f1d79261040191369101610d52565b5090346102ed573660031901126102ed5767ffffffffffffffff9080358281116102ed5761065a9036908301610d52565b506024359182116102ed5761067191369101610c7e565b005b50346102ed57816003193601126102ed5780359067ffffffffffffffff82116102ed576106a291369101610d52565b6024359173ffffffffffffffffffffffffffffffffffffffff83168093036102ed577f62ddffe5b5108385f7a590f100e1ee414ad9551a31f089e64e82998440785e1e926103a58251938385948552840190610d7d565b50346102ed57816003193601126102ed5767ffffffffffffffff9181358381116102ed5761072a9036908401610d52565b916024359384116102ed57366023850112156102ed576104f1610512918560247fe8407a0209fa99ec3a7228aff140c3d3e68bd279391739c7e0b65cd406cc93b597369301359101610d0c565b5090346102ed57608090816003193601126102ed5767ffffffffffffffff9183358381116102ed576107ac9036908601610c7e565b916024906024358581116102ed576107c79036908801610cde565b9390926044358781116102ed576107e19036908a01610cde565b9190956064358981116102ed576107fb9036908c01610cde565b97909187019360209788818703126102ed578035908c82116102ed57019a878c8703126102ed5787519b61082e8d610bdc565b80358281116102ed57810187601f820112156102ed5780359061085082610c66565b9161085d8c519384610c44565b8083528c8084019160071b830101918a83116102ed578d01905b828210610b9a575050508d52898101359182116102ed570185601f820112156102ed578035906108a682610c66565b966108b38a519889610c44565b8288528a8801908b60a0809502840101928184116102ed578c01915b838310610b485750505050506108fb92916108f291898d01968752810190610dbb565b97810190610dbb565b985f5b89518051821015610926579061092061091982600194610e35565b518b610e8c565b016108fe565b505089969594969392935f935f906001988992600154935b610983575b5050505050505050508251928180850191818652865180935285019501915f5b8281106109705785870386f35b8351875295810195928101928401610963565b889c999a9b98518051821015610b3c578b858a8c6109a38f958790610e35565b519487865115155f14610aec57610a3d95610a2d610a1887610a1363ffffffff6109d3610a139a610a3398610e35565b515b16887f4265666f7265207377617000000000000000000000000000000000000000000087839b51610a0581610bdc565b600b815201528d0151610f44565b610f57565b9189015191610a278386610e35565b51610e5d565b92610e35565b5287850151610f44565b6060820151610a4c818e610e35565b515f8382039312818412811691841390151617610ada57610a6d908d610e35565b527f41667465722073776170000000000000000000000000000000000000000000008c8b51610a9b81610bdc565b600a8152015251610ab5575b989b979a99988a018a61093e565b969b5f198d14610ac8579b8b0196610aa7565b86601187634e487b7160e01b5f52525ffd5b8960118a634e487b7160e01b5f52525ffd5b5050509150508203828111610b2a5785610a138c8f8f90610a3390610a2d610a18878f63ffffffff610b24610a3d9c610a1393610e35565b516109d5565b88601189634e487b7160e01b5f52525ffd5b50889b9a999c50610943565b84838303126102ed578c85918d805190610b6182610c28565b610b6a87610d70565b825283870135848301528087013590820152606080870135908201528d80870135908201528152019201916108cf565b8b828c03126102ed578d8c918e805190610bb382610c0c565b853582528386013584830152808601359082015260608086013590820152815201910190610877565b6040810190811067ffffffffffffffff821117610bf857604052565b634e487b7160e01b5f52604160045260245ffd5b6080810190811067ffffffffffffffff821117610bf857604052565b60a0810190811067ffffffffffffffff821117610bf857604052565b90601f8019910116810190811067ffffffffffffffff821117610bf857604052565b67ffffffffffffffff8111610bf85760051b60200190565b9080601f830112156102ed576020908235610c9881610c66565b93610ca66040519586610c44565b81855260208086019260051b8201019283116102ed57602001905b828210610ccf575050505090565b81358152908301908301610cc1565b9181601f840112156102ed5782359167ffffffffffffffff83116102ed57602083818601950101116102ed57565b92919267ffffffffffffffff8211610bf85760405191610d36601f8201601f191660200184610c44565b8294818452818301116102ed578281602093845f960137010152565b9080601f830112156102ed57816020610d6d93359101610d0c565b90565b359081151582036102ed57565b91908251928382525f5b848110610da7575050825f602080949584010152601f8019910116010190565b602081830181015184830182015201610d87565b60209081818403126102ed5780359067ffffffffffffffff82116102ed57019180601f840112156102ed578235610df181610c66565b93610dff6040519586610c44565b818552838086019260051b8201019283116102ed578301905b828210610e26575050505090565b81358152908301908301610e18565b8051821015610e495760209160051b010190565b634e487b7160e01b5f52603260045260245ffd5b9190915f8382019384129112908015821691151617610e7857565b634e487b7160e01b5f52601160045260245ffd5b9060608101515f525f60205260405f20548015908115610f36575b50610f3257610efa907f4265666f7265207061796d656e740000000000000000000000000000000000006020604051610edf81610bdc565b600e81520152610a2d6020820151915191610a278386610e35565b527f4166746572207061796d656e74000000000000000000000000000000000000006020604051610f2a81610bdc565b600d81520152565b5050565b90506040820151105f610ea7565b81810292918115918404141715610e7857565b8115610f61570490565b634e487b7160e01b5f52601260045260245ffdfea2646970667358221220b8d02f1a5c1b56cc79e1ac97d70aa0c60de23f6764bd12f4dd36ca99204c245e64736f6c63430008180033","linkReferences":{}},"methodIdentifiers":{"applyBatch(int256[],bytes,bytes,bytes)":"18c323f2","cleanSecret(bytes32)":"37d6d073","encodeBatch(((uint256,int256,uint256,bytes32)[],(bool,uint256,uint256,uint256,uint256)[]))":"fd287b5d","hashToBlock(bytes32)":"51672fac","log(string,address)":"319af333","log(string,bool)":"c3b55635","log(string,bytes)":"23cdd8e8","log(string,bytes32)":"3692d61a","log(string,int256)":"3ca6268e","log(string,string)":"4b5c4277","log(string,uint256)":"b60e72cc","logDeltas(string,int256[])":"322d0ac7","revealSecret(bytes32)":"60307545"},"id":6}