{
  "_format": "hh-sol-artifact-1",
  "contractName": "Depository",
  "sourceName": "contracts/Depository.sol",
  "abi": [
    {
      "inputs": [],
      "stateMutability": "nonpayable",
      "type": "constructor"
    },
    {
      "anonymous": false,
      "inputs": [
        {
          "components": [
            {
              "internalType": "address",
              "name": "left",
              "type": "address"
            },
            {
              "internalType": "address",
              "name": "right",
              "type": "address"
            },
            {
              "internalType": "uint256",
              "name": "tokenId",
              "type": "uint256"
            },
            {
              "internalType": "uint256",
              "name": "leftReserve",
              "type": "uint256"
            },
            {
              "internalType": "uint256",
              "name": "rightReserve",
              "type": "uint256"
            },
            {
              "internalType": "uint256",
              "name": "collateral",
              "type": "uint256"
            },
            {
              "internalType": "int256",
              "name": "ondelta",
              "type": "int256"
            }
          ],
          "indexed": false,
          "internalType": "struct Depository.Settled[]",
          "name": "",
          "type": "tuple[]"
        }
      ],
      "name": "ChannelSettled",
      "type": "event"
    },
    {
      "anonymous": false,
      "inputs": [
        {
          "indexed": true,
          "internalType": "address",
          "name": "entityProvider",
          "type": "address"
        },
        {
          "indexed": true,
          "internalType": "address",
          "name": "fromEntity",
          "type": "address"
        },
        {
          "indexed": true,
          "internalType": "uint256",
          "name": "tokenId",
          "type": "uint256"
        },
        {
          "indexed": false,
          "internalType": "uint256",
          "name": "amount",
          "type": "uint256"
        },
        {
          "indexed": false,
          "internalType": "bytes",
          "name": "data",
          "type": "bytes"
        }
      ],
      "name": "ControlSharesReceived",
      "type": "event"
    },
    {
      "anonymous": false,
      "inputs": [
        {
          "indexed": true,
          "internalType": "address",
          "name": "from",
          "type": "address"
        },
        {
          "indexed": true,
          "internalType": "address",
          "name": "to",
          "type": "address"
        },
        {
          "indexed": true,
          "internalType": "uint256",
          "name": "internalTokenId",
          "type": "uint256"
        },
        {
          "indexed": false,
          "internalType": "uint256",
          "name": "amount",
          "type": "uint256"
        },
        {
          "indexed": false,
          "internalType": "string",
          "name": "purpose",
          "type": "string"
        }
      ],
      "name": "ControlSharesTransferred",
      "type": "event"
    },
    {
      "anonymous": false,
      "inputs": [
        {
          "indexed": true,
          "internalType": "address",
          "name": "sender",
          "type": "address"
        },
        {
          "indexed": true,
          "internalType": "address",
          "name": "peer",
          "type": "address"
        },
        {
          "indexed": true,
          "internalType": "uint256",
          "name": "cooperativeNonce",
          "type": "uint256"
        }
      ],
      "name": "CooperativeClose",
      "type": "event"
    },
    {
      "anonymous": false,
      "inputs": [
        {
          "indexed": true,
          "internalType": "address",
          "name": "sender",
          "type": "address"
        },
        {
          "indexed": true,
          "internalType": "address",
          "name": "peer",
          "type": "address"
        },
        {
          "indexed": true,
          "internalType": "uint256",
          "name": "disputeNonce",
          "type": "uint256"
        },
        {
          "indexed": false,
          "internalType": "bytes",
          "name": "initialArguments",
          "type": "bytes"
        }
      ],
      "name": "DisputeStarted",
      "type": "event"
    },
    {
      "anonymous": false,
      "inputs": [
        {
          "indexed": true,
          "internalType": "address",
          "name": "provider",
          "type": "address"
        }
      ],
      "name": "EntityProviderAdded",
      "type": "event"
    },
    {
      "anonymous": false,
      "inputs": [
        {
          "indexed": true,
          "internalType": "address",
          "name": "provider",
          "type": "address"
        }
      ],
      "name": "EntityProviderRemoved",
      "type": "event"
    },
    {
      "anonymous": false,
      "inputs": [
        {
          "indexed": true,
          "internalType": "bytes32",
          "name": "entityId",
          "type": "bytes32"
        },
        {
          "indexed": true,
          "internalType": "bytes32",
          "name": "hankoHash",
          "type": "bytes32"
        },
        {
          "indexed": false,
          "internalType": "uint256",
          "name": "nonce",
          "type": "uint256"
        },
        {
          "indexed": false,
          "internalType": "bool",
          "name": "success",
          "type": "bool"
        }
      ],
      "name": "HankoBatchProcessed",
      "type": "event"
    },
    {
      "anonymous": false,
      "inputs": [
        {
          "indexed": false,
          "internalType": "string",
          "name": "",
          "type": "string"
        },
        {
          "indexed": false,
          "internalType": "address",
          "name": "",
          "type": "address"
        }
      ],
      "name": "LogAddress",
      "type": "event"
    },
    {
      "anonymous": false,
      "inputs": [
        {
          "indexed": false,
          "internalType": "string",
          "name": "",
          "type": "string"
        },
        {
          "indexed": false,
          "internalType": "bool",
          "name": "",
          "type": "bool"
        }
      ],
      "name": "LogBool",
      "type": "event"
    },
    {
      "anonymous": false,
      "inputs": [
        {
          "indexed": false,
          "internalType": "string",
          "name": "",
          "type": "string"
        },
        {
          "indexed": false,
          "internalType": "bytes",
          "name": "",
          "type": "bytes"
        }
      ],
      "name": "LogBytes",
      "type": "event"
    },
    {
      "anonymous": false,
      "inputs": [
        {
          "indexed": false,
          "internalType": "string",
          "name": "",
          "type": "string"
        },
        {
          "indexed": false,
          "internalType": "bytes32",
          "name": "",
          "type": "bytes32"
        }
      ],
      "name": "LogBytes32",
      "type": "event"
    },
    {
      "anonymous": false,
      "inputs": [
        {
          "indexed": false,
          "internalType": "string",
          "name": "",
          "type": "string"
        },
        {
          "indexed": false,
          "internalType": "int256",
          "name": "",
          "type": "int256"
        }
      ],
      "name": "LogInt",
      "type": "event"
    },
    {
      "anonymous": false,
      "inputs": [
        {
          "indexed": false,
          "internalType": "string",
          "name": "",
          "type": "string"
        },
        {
          "indexed": false,
          "internalType": "string",
          "name": "",
          "type": "string"
        }
      ],
      "name": "LogString",
      "type": "event"
    },
    {
      "anonymous": false,
      "inputs": [
        {
          "indexed": false,
          "internalType": "string",
          "name": "",
          "type": "string"
        },
        {
          "indexed": false,
          "internalType": "uint256",
          "name": "",
          "type": "uint256"
        }
      ],
      "name": "LogUint",
      "type": "event"
    },
    {
      "anonymous": false,
      "inputs": [
        {
          "indexed": true,
          "internalType": "address",
          "name": "from",
          "type": "address"
        },
        {
          "indexed": true,
          "internalType": "address",
          "name": "to",
          "type": "address"
        },
        {
          "indexed": true,
          "internalType": "uint256",
          "name": "tokenId",
          "type": "uint256"
        },
        {
          "indexed": false,
          "internalType": "uint256",
          "name": "amount",
          "type": "uint256"
        }
      ],
      "name": "ReserveTransferred",
      "type": "event"
    },
    {
      "anonymous": false,
      "inputs": [
        {
          "indexed": true,
          "internalType": "address",
          "name": "receiver",
          "type": "address"
        },
        {
          "indexed": true,
          "internalType": "address",
          "name": "addr",
          "type": "address"
        },
        {
          "indexed": false,
          "internalType": "uint256",
          "name": "collateral",
          "type": "uint256"
        },
        {
          "indexed": false,
          "internalType": "int256",
          "name": "ondelta",
          "type": "int256"
        },
        {
          "indexed": false,
          "internalType": "uint256",
          "name": "tokenId",
          "type": "uint256"
        }
      ],
      "name": "TransferReserveToCollateral",
      "type": "event"
    },
    {
      "inputs": [],
      "name": "DOMAIN_SEPARATOR",
      "outputs": [
        {
          "internalType": "bytes32",
          "name": "",
          "type": "bytes32"
        }
      ],
      "stateMutability": "view",
      "type": "function"
    },
    {
      "inputs": [
        {
          "internalType": "address",
          "name": "entity",
          "type": "address"
        }
      ],
      "name": "_activeDebts",
      "outputs": [
        {
          "internalType": "uint256",
          "name": "",
          "type": "uint256"
        }
      ],
      "stateMutability": "view",
      "type": "function"
    },
    {
      "inputs": [
        {
          "internalType": "bytes",
          "name": "channelKey",
          "type": "bytes"
        }
      ],
      "name": "_channels",
      "outputs": [
        {
          "internalType": "uint256",
          "name": "cooperativeNonce",
          "type": "uint256"
        },
        {
          "internalType": "bytes32",
          "name": "disputeHash",
          "type": "bytes32"
        }
      ],
      "stateMutability": "view",
      "type": "function"
    },
    {
      "inputs": [
        {
          "internalType": "bytes",
          "name": "channelKey",
          "type": "bytes"
        },
        {
          "internalType": "uint256",
          "name": "tokenId",
          "type": "uint256"
        }
      ],
      "name": "_collaterals",
      "outputs": [
        {
          "internalType": "uint256",
          "name": "collateral",
          "type": "uint256"
        },
        {
          "internalType": "int256",
          "name": "ondelta",
          "type": "int256"
        }
      ],
      "stateMutability": "view",
      "type": "function"
    },
    {
      "inputs": [
        {
          "internalType": "address",
          "name": "entity",
          "type": "address"
        },
        {
          "internalType": "uint256",
          "name": "tokenId",
          "type": "uint256"
        }
      ],
      "name": "_debtIndex",
      "outputs": [
        {
          "internalType": "uint256",
          "name": "",
          "type": "uint256"
        }
      ],
      "stateMutability": "view",
      "type": "function"
    },
    {
      "inputs": [
        {
          "internalType": "address",
          "name": "entity",
          "type": "address"
        },
        {
          "internalType": "uint256",
          "name": "tokenId",
          "type": "uint256"
        },
        {
          "internalType": "uint256",
          "name": "",
          "type": "uint256"
        }
      ],
      "name": "_debts",
      "outputs": [
        {
          "internalType": "uint256",
          "name": "amount",
          "type": "uint256"
        },
        {
          "internalType": "address",
          "name": "creditor",
          "type": "address"
        }
      ],
      "stateMutability": "view",
      "type": "function"
    },
    {
      "inputs": [
        {
          "internalType": "uint256",
          "name": "",
          "type": "uint256"
        }
      ],
      "name": "_hubs",
      "outputs": [
        {
          "internalType": "address",
          "name": "addr",
          "type": "address"
        },
        {
          "internalType": "uint256",
          "name": "gasused",
          "type": "uint256"
        },
        {
          "internalType": "string",
          "name": "uri",
          "type": "string"
        }
      ],
      "stateMutability": "view",
      "type": "function"
    },
    {
      "inputs": [
        {
          "internalType": "address",
          "name": "entity",
          "type": "address"
        },
        {
          "internalType": "uint256",
          "name": "tokenId",
          "type": "uint256"
        }
      ],
      "name": "_reserves",
      "outputs": [
        {
          "internalType": "uint256",
          "name": "",
          "type": "uint256"
        }
      ],
      "stateMutability": "view",
      "type": "function"
    },
    {
      "inputs": [
        {
          "internalType": "uint256",
          "name": "",
          "type": "uint256"
        }
      ],
      "name": "_tokens",
      "outputs": [
        {
          "internalType": "bytes32",
          "name": "",
          "type": "bytes32"
        }
      ],
      "stateMutability": "view",
      "type": "function"
    },
    {
      "inputs": [
        {
          "internalType": "address",
          "name": "provider",
          "type": "address"
        }
      ],
      "name": "addEntityProvider",
      "outputs": [],
      "stateMutability": "nonpayable",
      "type": "function"
    },
    {
      "inputs": [
        {
          "internalType": "address",
          "name": "",
          "type": "address"
        }
      ],
      "name": "approvedEntityProviders",
      "outputs": [
        {
          "internalType": "bool",
          "name": "",
          "type": "bool"
        }
      ],
      "stateMutability": "view",
      "type": "function"
    },
    {
      "inputs": [
        {
          "internalType": "address",
          "name": "a1",
          "type": "address"
        },
        {
          "internalType": "address",
          "name": "a2",
          "type": "address"
        }
      ],
      "name": "channelKey",
      "outputs": [
        {
          "internalType": "bytes",
          "name": "",
          "type": "bytes"
        }
      ],
      "stateMutability": "pure",
      "type": "function"
    },
    {
      "inputs": [
        {
          "internalType": "address",
          "name": "peer",
          "type": "address"
        },
        {
          "internalType": "uint256",
          "name": "tokenId",
          "type": "uint256"
        },
        {
          "internalType": "uint256",
          "name": "amount",
          "type": "uint256"
        },
        {
          "internalType": "bytes",
          "name": "signature",
          "type": "bytes"
        }
      ],
      "name": "collateralToReserve",
      "outputs": [],
      "stateMutability": "nonpayable",
      "type": "function"
    },
    {
      "inputs": [
        {
          "components": [
            {
              "internalType": "address",
              "name": "peer",
              "type": "address"
            },
            {
              "components": [
                {
                  "internalType": "int256[]",
                  "name": "offdeltas",
                  "type": "int256[]"
                },
                {
                  "internalType": "uint256[]",
                  "name": "tokenIds",
                  "type": "uint256[]"
                },
                {
                  "components": [
                    {
                      "internalType": "address",
                      "name": "subcontractProviderAddress",
                      "type": "address"
                    },
                    {
                      "internalType": "bytes",
                      "name": "encodedBatch",
                      "type": "bytes"
                    },
                    {
                      "components": [
                        {
                          "internalType": "uint256",
                          "name": "deltaIndex",
                          "type": "uint256"
                        },
                        {
                          "internalType": "uint256",
                          "name": "rightAllowence",
                          "type": "uint256"
                        },
                        {
                          "internalType": "uint256",
                          "name": "leftAllowence",
                          "type": "uint256"
                        }
                      ],
                      "internalType": "struct Depository.Allowence[]",
                      "name": "allowences",
                      "type": "tuple[]"
                    }
                  ],
                  "internalType": "struct Depository.SubcontractClause[]",
                  "name": "subcontracts",
                  "type": "tuple[]"
                }
              ],
              "internalType": "struct Depository.ProofBody",
              "name": "proofbody",
              "type": "tuple"
            },
            {
              "internalType": "bytes",
              "name": "initialArguments",
              "type": "bytes"
            },
            {
              "internalType": "bytes",
              "name": "finalArguments",
              "type": "bytes"
            },
            {
              "internalType": "bytes",
              "name": "sig",
              "type": "bytes"
            }
          ],
          "internalType": "struct Depository.CooperativeDisputeProof",
          "name": "params",
          "type": "tuple"
        }
      ],
      "name": "cooperativeDisputeProof",
      "outputs": [
        {
          "internalType": "bool",
          "name": "",
          "type": "bool"
        }
      ],
      "stateMutability": "nonpayable",
      "type": "function"
    },
    {
      "inputs": [
        {
          "components": [
            {
              "internalType": "address",
              "name": "peer",
              "type": "address"
            },
            {
              "components": [
                {
                  "internalType": "uint256",
                  "name": "tokenId",
                  "type": "uint256"
                },
                {
                  "internalType": "int256",
                  "name": "peerReserveDiff",
                  "type": "int256"
                },
                {
                  "internalType": "int256",
                  "name": "collateralDiff",
                  "type": "int256"
                },
                {
                  "internalType": "int256",
                  "name": "ondeltaDiff",
                  "type": "int256"
                }
              ],
              "internalType": "struct Depository.Diff[]",
              "name": "diffs",
              "type": "tuple[]"
            },
            {
              "internalType": "uint256[]",
              "name": "forgiveDebtsInTokenIds",
              "type": "uint256[]"
            },
            {
              "internalType": "bytes",
              "name": "sig",
              "type": "bytes"
            }
          ],
          "internalType": "struct Depository.CooperativeUpdate",
          "name": "params",
          "type": "tuple"
        }
      ],
      "name": "cooperativeUpdate",
      "outputs": [
        {
          "internalType": "bool",
          "name": "",
          "type": "bool"
        }
      ],
      "stateMutability": "nonpayable",
      "type": "function"
    },
    {
      "inputs": [
        {
          "internalType": "address",
          "name": "addr",
          "type": "address"
        },
        {
          "internalType": "uint256",
          "name": "tokenId",
          "type": "uint256"
        }
      ],
      "name": "enforceDebts",
      "outputs": [
        {
          "internalType": "uint256",
          "name": "totalDebts",
          "type": "uint256"
        }
      ],
      "stateMutability": "nonpayable",
      "type": "function"
    },
    {
      "inputs": [
        {
          "internalType": "address",
          "name": "",
          "type": "address"
        }
      ],
      "name": "entityNonces",
      "outputs": [
        {
          "internalType": "uint256",
          "name": "",
          "type": "uint256"
        }
      ],
      "stateMutability": "view",
      "type": "function"
    },
    {
      "inputs": [
        {
          "internalType": "uint256",
          "name": "",
          "type": "uint256"
        }
      ],
      "name": "entityProvidersList",
      "outputs": [
        {
          "internalType": "address",
          "name": "",
          "type": "address"
        }
      ],
      "stateMutability": "view",
      "type": "function"
    },
    {
      "inputs": [
        {
          "internalType": "address",
          "name": "",
          "type": "address"
        }
      ],
      "name": "entityScores",
      "outputs": [
        {
          "internalType": "uint64",
          "name": "totalGasUsed",
          "type": "uint64"
        },
        {
          "internalType": "uint48",
          "name": "inDebtSince",
          "type": "uint48"
        },
        {
          "internalType": "uint32",
          "name": "totalActiveDebts",
          "type": "uint32"
        },
        {
          "internalType": "uint32",
          "name": "totalDisputes",
          "type": "uint32"
        },
        {
          "internalType": "uint32",
          "name": "successfulRepayments",
          "type": "uint32"
        },
        {
          "internalType": "uint32",
          "name": "cooperativeActions",
          "type": "uint32"
        }
      ],
      "stateMutability": "view",
      "type": "function"
    },
    {
      "inputs": [
        {
          "components": [
            {
              "internalType": "bytes32",
              "name": "packedToken",
              "type": "bytes32"
            },
            {
              "internalType": "uint256",
              "name": "internalTokenId",
              "type": "uint256"
            },
            {
              "internalType": "uint256",
              "name": "amount",
              "type": "uint256"
            }
          ],
          "internalType": "struct Depository.ExternalTokenToReserve",
          "name": "params",
          "type": "tuple"
        }
      ],
      "name": "externalTokenToReserve",
      "outputs": [],
      "stateMutability": "nonpayable",
      "type": "function"
    },
    {
      "inputs": [
        {
          "components": [
            {
              "internalType": "address",
              "name": "peer",
              "type": "address"
            },
            {
              "internalType": "uint256",
              "name": "initialCooperativeNonce",
              "type": "uint256"
            },
            {
              "internalType": "uint256",
              "name": "initialDisputeNonce",
              "type": "uint256"
            },
            {
              "internalType": "uint256",
              "name": "disputeUntilBlock",
              "type": "uint256"
            },
            {
              "internalType": "bytes32",
              "name": "initialProofbodyHash",
              "type": "bytes32"
            },
            {
              "internalType": "bytes",
              "name": "initialArguments",
              "type": "bytes"
            },
            {
              "internalType": "bool",
              "name": "startedByLeft",
              "type": "bool"
            },
            {
              "internalType": "uint256",
              "name": "finalCooperativeNonce",
              "type": "uint256"
            },
            {
              "internalType": "uint256",
              "name": "finalDisputeNonce",
              "type": "uint256"
            },
            {
              "components": [
                {
                  "internalType": "int256[]",
                  "name": "offdeltas",
                  "type": "int256[]"
                },
                {
                  "internalType": "uint256[]",
                  "name": "tokenIds",
                  "type": "uint256[]"
                },
                {
                  "components": [
                    {
                      "internalType": "address",
                      "name": "subcontractProviderAddress",
                      "type": "address"
                    },
                    {
                      "internalType": "bytes",
                      "name": "encodedBatch",
                      "type": "bytes"
                    },
                    {
                      "components": [
                        {
                          "internalType": "uint256",
                          "name": "deltaIndex",
                          "type": "uint256"
                        },
                        {
                          "internalType": "uint256",
                          "name": "rightAllowence",
                          "type": "uint256"
                        },
                        {
                          "internalType": "uint256",
                          "name": "leftAllowence",
                          "type": "uint256"
                        }
                      ],
                      "internalType": "struct Depository.Allowence[]",
                      "name": "allowences",
                      "type": "tuple[]"
                    }
                  ],
                  "internalType": "struct Depository.SubcontractClause[]",
                  "name": "subcontracts",
                  "type": "tuple[]"
                }
              ],
              "internalType": "struct Depository.ProofBody",
              "name": "finalProofbody",
              "type": "tuple"
            },
            {
              "internalType": "bytes",
              "name": "finalArguments",
              "type": "bytes"
            },
            {
              "internalType": "bytes",
              "name": "sig",
              "type": "bytes"
            }
          ],
          "internalType": "struct Depository.FinalDisputeProof",
          "name": "params",
          "type": "tuple"
        }
      ],
      "name": "finalDisputeProof",
      "outputs": [
        {
          "internalType": "bool",
          "name": "",
          "type": "bool"
        }
      ],
      "stateMutability": "nonpayable",
      "type": "function"
    },
    {
      "inputs": [
        {
          "internalType": "address",
          "name": "entity1",
          "type": "address"
        },
        {
          "internalType": "address",
          "name": "entity2",
          "type": "address"
        },
        {
          "components": [
            {
              "internalType": "int256[]",
              "name": "offdeltas",
              "type": "int256[]"
            },
            {
              "internalType": "uint256[]",
              "name": "tokenIds",
              "type": "uint256[]"
            },
            {
              "components": [
                {
                  "internalType": "address",
                  "name": "subcontractProviderAddress",
                  "type": "address"
                },
                {
                  "internalType": "bytes",
                  "name": "encodedBatch",
                  "type": "bytes"
                },
                {
                  "components": [
                    {
                      "internalType": "uint256",
                      "name": "deltaIndex",
                      "type": "uint256"
                    },
                    {
                      "internalType": "uint256",
                      "name": "rightAllowence",
                      "type": "uint256"
                    },
                    {
                      "internalType": "uint256",
                      "name": "leftAllowence",
                      "type": "uint256"
                    }
                  ],
                  "internalType": "struct Depository.Allowence[]",
                  "name": "allowences",
                  "type": "tuple[]"
                }
              ],
              "internalType": "struct Depository.SubcontractClause[]",
              "name": "subcontracts",
              "type": "tuple[]"
            }
          ],
          "internalType": "struct Depository.ProofBody",
          "name": "proofbody",
          "type": "tuple"
        },
        {
          "internalType": "bytes",
          "name": "arguments1",
          "type": "bytes"
        },
        {
          "internalType": "bytes",
          "name": "arguments2",
          "type": "bytes"
        }
      ],
      "name": "finalizeChannel",
      "outputs": [
        {
          "internalType": "bool",
          "name": "",
          "type": "bool"
        }
      ],
      "stateMutability": "nonpayable",
      "type": "function"
    },
    {
      "inputs": [],
      "name": "getApprovedProviders",
      "outputs": [
        {
          "internalType": "address[]",
          "name": "",
          "type": "address[]"
        }
      ],
      "stateMutability": "view",
      "type": "function"
    },
    {
      "inputs": [
        {
          "internalType": "address",
          "name": "addr",
          "type": "address"
        },
        {
          "internalType": "address[]",
          "name": "peers",
          "type": "address[]"
        },
        {
          "internalType": "uint256[]",
          "name": "tokenIds",
          "type": "uint256[]"
        }
      ],
      "name": "getChannels",
      "outputs": [
        {
          "components": [
            {
              "components": [
                {
                  "internalType": "uint256",
                  "name": "cooperativeNonce",
                  "type": "uint256"
                },
                {
                  "internalType": "bytes32",
                  "name": "disputeHash",
                  "type": "bytes32"
                }
              ],
              "internalType": "struct Depository.ChannelInfo",
              "name": "channel",
              "type": "tuple"
            },
            {
              "components": [
                {
                  "internalType": "uint256",
                  "name": "collateral",
                  "type": "uint256"
                },
                {
                  "internalType": "int256",
                  "name": "ondelta",
                  "type": "int256"
                }
              ],
              "internalType": "struct Depository.ChannelCollateral[]",
              "name": "collaterals",
              "type": "tuple[]"
            }
          ],
          "internalType": "struct Depository.ChannelReturn[]",
          "name": "response",
          "type": "tuple[]"
        }
      ],
      "stateMutability": "view",
      "type": "function"
    },
    {
      "inputs": [
        {
          "internalType": "address",
          "name": "entityProvider",
          "type": "address"
        },
        {
          "internalType": "uint256",
          "name": "externalTokenId",
          "type": "uint256"
        }
      ],
      "name": "getControlShareTokenId",
      "outputs": [
        {
          "internalType": "uint256",
          "name": "internalTokenId",
          "type": "uint256"
        }
      ],
      "stateMutability": "view",
      "type": "function"
    },
    {
      "inputs": [
        {
          "internalType": "address",
          "name": "addr",
          "type": "address"
        },
        {
          "internalType": "uint256",
          "name": "tokenId",
          "type": "uint256"
        }
      ],
      "name": "getDebts",
      "outputs": [
        {
          "components": [
            {
              "internalType": "uint256",
              "name": "amount",
              "type": "uint256"
            },
            {
              "internalType": "address",
              "name": "creditor",
              "type": "address"
            }
          ],
          "internalType": "struct Depository.Debt[]",
          "name": "allDebts",
          "type": "tuple[]"
        },
        {
          "internalType": "uint256",
          "name": "currentDebtIndex",
          "type": "uint256"
        }
      ],
      "stateMutability": "view",
      "type": "function"
    },
    {
      "inputs": [],
      "name": "getTokensLength",
      "outputs": [
        {
          "internalType": "uint256",
          "name": "",
          "type": "uint256"
        }
      ],
      "stateMutability": "view",
      "type": "function"
    },
    {
      "inputs": [
        {
          "internalType": "address[]",
          "name": "addrs",
          "type": "address[]"
        },
        {
          "internalType": "uint256[]",
          "name": "tokenIds",
          "type": "uint256[]"
        }
      ],
      "name": "getUsers",
      "outputs": [
        {
          "components": [
            {
              "internalType": "uint256",
              "name": "ETH_balance",
              "type": "uint256"
            },
            {
              "components": [
                {
                  "internalType": "uint256",
                  "name": "reserve",
                  "type": "uint256"
                },
                {
                  "internalType": "uint256",
                  "name": "debtIndex",
                  "type": "uint256"
                },
                {
                  "components": [
                    {
                      "internalType": "uint256",
                      "name": "amount",
                      "type": "uint256"
                    },
                    {
                      "internalType": "address",
                      "name": "creditor",
                      "type": "address"
                    }
                  ],
                  "internalType": "struct Depository.Debt[]",
                  "name": "debts",
                  "type": "tuple[]"
                }
              ],
              "internalType": "struct Depository.TokenReserveDebts[]",
              "name": "tokens",
              "type": "tuple[]"
            }
          ],
          "internalType": "struct Depository.UserReturn[]",
          "name": "response",
          "type": "tuple[]"
        }
      ],
      "stateMutability": "view",
      "type": "function"
    },
    {
      "inputs": [
        {
          "components": [
            {
              "internalType": "address",
              "name": "peer",
              "type": "address"
            },
            {
              "internalType": "uint256",
              "name": "cooperativeNonce",
              "type": "uint256"
            },
            {
              "internalType": "uint256",
              "name": "disputeNonce",
              "type": "uint256"
            },
            {
              "internalType": "bytes32",
              "name": "proofbodyHash",
              "type": "bytes32"
            },
            {
              "internalType": "bytes",
              "name": "sig",
              "type": "bytes"
            },
            {
              "internalType": "bytes",
              "name": "initialArguments",
              "type": "bytes"
            }
          ],
          "internalType": "struct Depository.InitialDisputeProof",
          "name": "params",
          "type": "tuple"
        }
      ],
      "name": "initialDisputeProof",
      "outputs": [
        {
          "internalType": "bool",
          "name": "",
          "type": "bool"
        }
      ],
      "stateMutability": "nonpayable",
      "type": "function"
    },
    {
      "inputs": [
        {
          "internalType": "string",
          "name": "s",
          "type": "string"
        },
        {
          "internalType": "bytes",
          "name": "x",
          "type": "bytes"
        }
      ],
      "name": "log",
      "outputs": [],
      "stateMutability": "nonpayable",
      "type": "function"
    },
    {
      "inputs": [
        {
          "internalType": "string",
          "name": "s",
          "type": "string"
        },
        {
          "internalType": "address",
          "name": "x",
          "type": "address"
        }
      ],
      "name": "log",
      "outputs": [],
      "stateMutability": "nonpayable",
      "type": "function"
    },
    {
      "inputs": [
        {
          "internalType": "string",
          "name": "s",
          "type": "string"
        },
        {
          "internalType": "bytes32",
          "name": "x",
          "type": "bytes32"
        }
      ],
      "name": "log",
      "outputs": [],
      "stateMutability": "nonpayable",
      "type": "function"
    },
    {
      "inputs": [
        {
          "internalType": "string",
          "name": "s",
          "type": "string"
        },
        {
          "internalType": "int256",
          "name": "x",
          "type": "int256"
        }
      ],
      "name": "log",
      "outputs": [],
      "stateMutability": "nonpayable",
      "type": "function"
    },
    {
      "inputs": [
        {
          "internalType": "string",
          "name": "s",
          "type": "string"
        },
        {
          "internalType": "string",
          "name": "x",
          "type": "string"
        }
      ],
      "name": "log",
      "outputs": [],
      "stateMutability": "nonpayable",
      "type": "function"
    },
    {
      "inputs": [
        {
          "internalType": "string",
          "name": "s",
          "type": "string"
        },
        {
          "internalType": "uint256",
          "name": "x",
          "type": "uint256"
        }
      ],
      "name": "log",
      "outputs": [],
      "stateMutability": "nonpayable",
      "type": "function"
    },
    {
      "inputs": [
        {
          "internalType": "string",
          "name": "s",
          "type": "string"
        },
        {
          "internalType": "bool",
          "name": "x",
          "type": "bool"
        }
      ],
      "name": "log",
      "outputs": [],
      "stateMutability": "nonpayable",
      "type": "function"
    },
    {
      "inputs": [
        {
          "internalType": "address",
          "name": "a1",
          "type": "address"
        },
        {
          "internalType": "address",
          "name": "a2",
          "type": "address"
        }
      ],
      "name": "logChannel",
      "outputs": [],
      "stateMutability": "nonpayable",
      "type": "function"
    },
    {
      "inputs": [
        {
          "internalType": "address",
          "name": "operator",
          "type": "address"
        },
        {
          "internalType": "address",
          "name": "from",
          "type": "address"
        },
        {
          "internalType": "uint256",
          "name": "id",
          "type": "uint256"
        },
        {
          "internalType": "uint256",
          "name": "value",
          "type": "uint256"
        },
        {
          "internalType": "bytes",
          "name": "data",
          "type": "bytes"
        }
      ],
      "name": "onERC1155Received",
      "outputs": [
        {
          "internalType": "bytes4",
          "name": "",
          "type": "bytes4"
        }
      ],
      "stateMutability": "nonpayable",
      "type": "function"
    },
    {
      "inputs": [
        {
          "internalType": "uint8",
          "name": "tokenType",
          "type": "uint8"
        },
        {
          "internalType": "address",
          "name": "contractAddress",
          "type": "address"
        },
        {
          "internalType": "uint96",
          "name": "externalTokenId",
          "type": "uint96"
        }
      ],
      "name": "packTokenReference",
      "outputs": [
        {
          "internalType": "bytes32",
          "name": "",
          "type": "bytes32"
        }
      ],
      "stateMutability": "pure",
      "type": "function"
    },
    {
      "inputs": [
        {
          "components": [
            {
              "components": [
                {
                  "internalType": "address",
                  "name": "receiver",
                  "type": "address"
                },
                {
                  "internalType": "uint256",
                  "name": "tokenId",
                  "type": "uint256"
                },
                {
                  "internalType": "uint256",
                  "name": "amount",
                  "type": "uint256"
                }
              ],
              "internalType": "struct Depository.ReserveToExternalToken[]",
              "name": "reserveToExternalToken",
              "type": "tuple[]"
            },
            {
              "components": [
                {
                  "internalType": "bytes32",
                  "name": "packedToken",
                  "type": "bytes32"
                },
                {
                  "internalType": "uint256",
                  "name": "internalTokenId",
                  "type": "uint256"
                },
                {
                  "internalType": "uint256",
                  "name": "amount",
                  "type": "uint256"
                }
              ],
              "internalType": "struct Depository.ExternalTokenToReserve[]",
              "name": "externalTokenToReserve",
              "type": "tuple[]"
            },
            {
              "components": [
                {
                  "internalType": "address",
                  "name": "receiver",
                  "type": "address"
                },
                {
                  "internalType": "uint256",
                  "name": "tokenId",
                  "type": "uint256"
                },
                {
                  "internalType": "uint256",
                  "name": "amount",
                  "type": "uint256"
                }
              ],
              "internalType": "struct Depository.ReserveToReserve[]",
              "name": "reserveToReserve",
              "type": "tuple[]"
            },
            {
              "components": [
                {
                  "internalType": "uint256",
                  "name": "tokenId",
                  "type": "uint256"
                },
                {
                  "internalType": "address",
                  "name": "receiver",
                  "type": "address"
                },
                {
                  "components": [
                    {
                      "internalType": "address",
                      "name": "addr",
                      "type": "address"
                    },
                    {
                      "internalType": "uint256",
                      "name": "amount",
                      "type": "uint256"
                    }
                  ],
                  "internalType": "struct Depository.AddrAmountPair[]",
                  "name": "pairs",
                  "type": "tuple[]"
                }
              ],
              "internalType": "struct Depository.ReserveToCollateral[]",
              "name": "reserveToCollateral",
              "type": "tuple[]"
            },
            {
              "components": [
                {
                  "internalType": "address",
                  "name": "peer",
                  "type": "address"
                },
                {
                  "components": [
                    {
                      "internalType": "uint256",
                      "name": "tokenId",
                      "type": "uint256"
                    },
                    {
                      "internalType": "int256",
                      "name": "peerReserveDiff",
                      "type": "int256"
                    },
                    {
                      "internalType": "int256",
                      "name": "collateralDiff",
                      "type": "int256"
                    },
                    {
                      "internalType": "int256",
                      "name": "ondeltaDiff",
                      "type": "int256"
                    }
                  ],
                  "internalType": "struct Depository.Diff[]",
                  "name": "diffs",
                  "type": "tuple[]"
                },
                {
                  "internalType": "uint256[]",
                  "name": "forgiveDebtsInTokenIds",
                  "type": "uint256[]"
                },
                {
                  "internalType": "bytes",
                  "name": "sig",
                  "type": "bytes"
                }
              ],
              "internalType": "struct Depository.CooperativeUpdate[]",
              "name": "cooperativeUpdate",
              "type": "tuple[]"
            },
            {
              "components": [
                {
                  "internalType": "address",
                  "name": "peer",
                  "type": "address"
                },
                {
                  "components": [
                    {
                      "internalType": "int256[]",
                      "name": "offdeltas",
                      "type": "int256[]"
                    },
                    {
                      "internalType": "uint256[]",
                      "name": "tokenIds",
                      "type": "uint256[]"
                    },
                    {
                      "components": [
                        {
                          "internalType": "address",
                          "name": "subcontractProviderAddress",
                          "type": "address"
                        },
                        {
                          "internalType": "bytes",
                          "name": "encodedBatch",
                          "type": "bytes"
                        },
                        {
                          "components": [
                            {
                              "internalType": "uint256",
                              "name": "deltaIndex",
                              "type": "uint256"
                            },
                            {
                              "internalType": "uint256",
                              "name": "rightAllowence",
                              "type": "uint256"
                            },
                            {
                              "internalType": "uint256",
                              "name": "leftAllowence",
                              "type": "uint256"
                            }
                          ],
                          "internalType": "struct Depository.Allowence[]",
                          "name": "allowences",
                          "type": "tuple[]"
                        }
                      ],
                      "internalType": "struct Depository.SubcontractClause[]",
                      "name": "subcontracts",
                      "type": "tuple[]"
                    }
                  ],
                  "internalType": "struct Depository.ProofBody",
                  "name": "proofbody",
                  "type": "tuple"
                },
                {
                  "internalType": "bytes",
                  "name": "initialArguments",
                  "type": "bytes"
                },
                {
                  "internalType": "bytes",
                  "name": "finalArguments",
                  "type": "bytes"
                },
                {
                  "internalType": "bytes",
                  "name": "sig",
                  "type": "bytes"
                }
              ],
              "internalType": "struct Depository.CooperativeDisputeProof[]",
              "name": "cooperativeDisputeProof",
              "type": "tuple[]"
            },
            {
              "components": [
                {
                  "internalType": "address",
                  "name": "peer",
                  "type": "address"
                },
                {
                  "internalType": "uint256",
                  "name": "cooperativeNonce",
                  "type": "uint256"
                },
                {
                  "internalType": "uint256",
                  "name": "disputeNonce",
                  "type": "uint256"
                },
                {
                  "internalType": "bytes32",
                  "name": "proofbodyHash",
                  "type": "bytes32"
                },
                {
                  "internalType": "bytes",
                  "name": "sig",
                  "type": "bytes"
                },
                {
                  "internalType": "bytes",
                  "name": "initialArguments",
                  "type": "bytes"
                }
              ],
              "internalType": "struct Depository.InitialDisputeProof[]",
              "name": "initialDisputeProof",
              "type": "tuple[]"
            },
            {
              "components": [
                {
                  "internalType": "address",
                  "name": "peer",
                  "type": "address"
                },
                {
                  "internalType": "uint256",
                  "name": "initialCooperativeNonce",
                  "type": "uint256"
                },
                {
                  "internalType": "uint256",
                  "name": "initialDisputeNonce",
                  "type": "uint256"
                },
                {
                  "internalType": "uint256",
                  "name": "disputeUntilBlock",
                  "type": "uint256"
                },
                {
                  "internalType": "bytes32",
                  "name": "initialProofbodyHash",
                  "type": "bytes32"
                },
                {
                  "internalType": "bytes",
                  "name": "initialArguments",
                  "type": "bytes"
                },
                {
                  "internalType": "bool",
                  "name": "startedByLeft",
                  "type": "bool"
                },
                {
                  "internalType": "uint256",
                  "name": "finalCooperativeNonce",
                  "type": "uint256"
                },
                {
                  "internalType": "uint256",
                  "name": "finalDisputeNonce",
                  "type": "uint256"
                },
                {
                  "components": [
                    {
                      "internalType": "int256[]",
                      "name": "offdeltas",
                      "type": "int256[]"
                    },
                    {
                      "internalType": "uint256[]",
                      "name": "tokenIds",
                      "type": "uint256[]"
                    },
                    {
                      "components": [
                        {
                          "internalType": "address",
                          "name": "subcontractProviderAddress",
                          "type": "address"
                        },
                        {
                          "internalType": "bytes",
                          "name": "encodedBatch",
                          "type": "bytes"
                        },
                        {
                          "components": [
                            {
                              "internalType": "uint256",
                              "name": "deltaIndex",
                              "type": "uint256"
                            },
                            {
                              "internalType": "uint256",
                              "name": "rightAllowence",
                              "type": "uint256"
                            },
                            {
                              "internalType": "uint256",
                              "name": "leftAllowence",
                              "type": "uint256"
                            }
                          ],
                          "internalType": "struct Depository.Allowence[]",
                          "name": "allowences",
                          "type": "tuple[]"
                        }
                      ],
                      "internalType": "struct Depository.SubcontractClause[]",
                      "name": "subcontracts",
                      "type": "tuple[]"
                    }
                  ],
                  "internalType": "struct Depository.ProofBody",
                  "name": "finalProofbody",
                  "type": "tuple"
                },
                {
                  "internalType": "bytes",
                  "name": "finalArguments",
                  "type": "bytes"
                },
                {
                  "internalType": "bytes",
                  "name": "sig",
                  "type": "bytes"
                }
              ],
              "internalType": "struct Depository.FinalDisputeProof[]",
              "name": "finalDisputeProof",
              "type": "tuple[]"
            },
            {
              "components": [
                {
                  "internalType": "uint256",
                  "name": "tokenId",
                  "type": "uint256"
                },
                {
                  "internalType": "uint256",
                  "name": "amount",
                  "type": "uint256"
                }
              ],
              "internalType": "struct Depository.TokenAmountPair[]",
              "name": "flashloans",
              "type": "tuple[]"
            },
            {
              "internalType": "uint256",
              "name": "hub_id",
              "type": "uint256"
            }
          ],
          "internalType": "struct Depository.Batch",
          "name": "batch",
          "type": "tuple"
        }
      ],
      "name": "processBatch",
      "outputs": [
        {
          "internalType": "bool",
          "name": "completeSuccess",
          "type": "bool"
        }
      ],
      "stateMutability": "nonpayable",
      "type": "function"
    },
    {
      "inputs": [
        {
          "internalType": "bytes",
          "name": "encodedBatch",
          "type": "bytes"
        },
        {
          "internalType": "address",
          "name": "entityProvider",
          "type": "address"
        },
        {
          "internalType": "bytes",
          "name": "hankoData",
          "type": "bytes"
        },
        {
          "internalType": "uint256",
          "name": "nonce",
          "type": "uint256"
        }
      ],
      "name": "processBatchWithHanko",
      "outputs": [
        {
          "internalType": "bool",
          "name": "completeSuccess",
          "type": "bool"
        }
      ],
      "stateMutability": "nonpayable",
      "type": "function"
    },
    {
      "inputs": [
        {
          "internalType": "uint256",
          "name": "hub_id",
          "type": "uint256"
        },
        {
          "internalType": "string",
          "name": "new_uri",
          "type": "string"
        }
      ],
      "name": "registerHub",
      "outputs": [
        {
          "internalType": "uint256",
          "name": "",
          "type": "uint256"
        }
      ],
      "stateMutability": "nonpayable",
      "type": "function"
    },
    {
      "inputs": [
        {
          "internalType": "address",
          "name": "provider",
          "type": "address"
        }
      ],
      "name": "removeEntityProvider",
      "outputs": [],
      "stateMutability": "nonpayable",
      "type": "function"
    },
    {
      "inputs": [
        {
          "components": [
            {
              "internalType": "uint256",
              "name": "tokenId",
              "type": "uint256"
            },
            {
              "internalType": "address",
              "name": "receiver",
              "type": "address"
            },
            {
              "components": [
                {
                  "internalType": "address",
                  "name": "addr",
                  "type": "address"
                },
                {
                  "internalType": "uint256",
                  "name": "amount",
                  "type": "uint256"
                }
              ],
              "internalType": "struct Depository.AddrAmountPair[]",
              "name": "pairs",
              "type": "tuple[]"
            }
          ],
          "internalType": "struct Depository.ReserveToCollateral",
          "name": "params",
          "type": "tuple"
        }
      ],
      "name": "reserveToCollateral",
      "outputs": [
        {
          "internalType": "bool",
          "name": "completeSuccess",
          "type": "bool"
        }
      ],
      "stateMutability": "nonpayable",
      "type": "function"
    },
    {
      "inputs": [
        {
          "internalType": "address",
          "name": "peer",
          "type": "address"
        },
        {
          "internalType": "uint256",
          "name": "tokenId",
          "type": "uint256"
        },
        {
          "internalType": "uint256",
          "name": "amount",
          "type": "uint256"
        }
      ],
      "name": "reserveToCollateralUnilateral",
      "outputs": [],
      "stateMutability": "nonpayable",
      "type": "function"
    },
    {
      "inputs": [
        {
          "components": [
            {
              "internalType": "address",
              "name": "receiver",
              "type": "address"
            },
            {
              "internalType": "uint256",
              "name": "tokenId",
              "type": "uint256"
            },
            {
              "internalType": "uint256",
              "name": "amount",
              "type": "uint256"
            }
          ],
          "internalType": "struct Depository.ReserveToExternalToken",
          "name": "params",
          "type": "tuple"
        }
      ],
      "name": "reserveToExternalToken",
      "outputs": [],
      "stateMutability": "nonpayable",
      "type": "function"
    },
    {
      "inputs": [
        {
          "components": [
            {
              "internalType": "address",
              "name": "receiver",
              "type": "address"
            },
            {
              "internalType": "uint256",
              "name": "tokenId",
              "type": "uint256"
            },
            {
              "internalType": "uint256",
              "name": "amount",
              "type": "uint256"
            }
          ],
          "internalType": "struct Depository.ReserveToReserve",
          "name": "params",
          "type": "tuple"
        }
      ],
      "name": "reserveToReserve",
      "outputs": [],
      "stateMutability": "nonpayable",
      "type": "function"
    },
    {
      "inputs": [
        {
          "internalType": "bytes32",
          "name": "",
          "type": "bytes32"
        }
      ],
      "name": "tokenToId",
      "outputs": [
        {
          "internalType": "uint256",
          "name": "",
          "type": "uint256"
        }
      ],
      "stateMutability": "view",
      "type": "function"
    },
    {
      "inputs": [
        {
          "internalType": "address",
          "name": "to",
          "type": "address"
        },
        {
          "internalType": "uint256",
          "name": "internalTokenId",
          "type": "uint256"
        },
        {
          "internalType": "uint256",
          "name": "amount",
          "type": "uint256"
        },
        {
          "internalType": "string",
          "name": "purpose",
          "type": "string"
        }
      ],
      "name": "transferControlShares",
      "outputs": [],
      "stateMutability": "nonpayable",
      "type": "function"
    },
    {
      "inputs": [
        {
          "internalType": "bytes32",
          "name": "packed",
          "type": "bytes32"
        }
      ],
      "name": "unpackTokenReference",
      "outputs": [
        {
          "internalType": "address",
          "name": "contractAddress",
          "type": "address"
        },
        {
          "internalType": "uint96",
          "name": "externalTokenId",
          "type": "uint96"
        },
        {
          "internalType": "uint8",
          "name": "tokenType",
          "type": "uint8"
        }
      ],
      "stateMutability": "pure",
      "type": "function"
    }
  ],
  "bytecode": "0x608034620002cb57600a54680100000000000000009182821015620002b557600180830180600a558310156200029f57600a60009081527fc65a7bb8d6351c1cf70c95a316cc6a92839c986682d98bc35f958f4883f9d2a89093018390556020926001600160401b039260608101848111828210176200028b576040528181528481018281526040519686880188811087821117620002775760405283885260408301978852600954908110156200026357848101806009558110156200024f5790600292916009855260038886209102019160018060a01b0390511660018060a01b0319835416178255518482015501945180519384116200023b5785548381811c9116801562000230575b868210146200021c57601f8111620001d1575b508491601f85116001146200016a5793945084929190836200015e575b50501b916000199060031b1c19161790555b604051616c399081620002d18239f35b0151925038806200013c565b86815285812093958591601f198316915b88838310620001b657505050106200019c575b505050811b0190556200014e565b015160001960f88460031b161c191690553880806200018e565b8587015188559096019594850194879350908101906200017b565b868352858320601f860160051c81019187871062000211575b601f0160051c019084905b828110620002055750506200011f565b848155018490620001f5565b9091508190620001ea565b634e487b7160e01b83526022600452602483fd5b90607f16906200010c565b634e487b7160e01b82526041600452602482fd5b634e487b7160e01b84526032600452602484fd5b634e487b7160e01b84526041600452602484fd5b634e487b7160e01b85526041600452602485fd5b634e487b7160e01b83526041600452602483fd5b634e487b7160e01b600052603260045260246000fd5b634e487b7160e01b600052604160045260246000fd5b600080fdfe6080604052600436101561001257600080fd5b60003560e01c806304aaa1e1146103375780630dedd62414610332578063137baa3f1461032d57806315ab7c5f146103285780631e1c13b31461032357806323cdd8e81461031e578063266afe1b146103195780632cfaaa7a14610314578063319af3331461030f5780633644e5151461030a5780633692d61a146103055780633c4deb11146103005780633ca6268e146102fb5780633ee01625146102f65780634109eedf146102f15780634174a93d146102ec5780634b5c4277146102e757806358d642bc146102e2578063768843e1146102dd57806376ace773146102d85780637aa6422f146102d3578063805bd697146102ce57806392cf61e5146102c95780639304677d146102c45780639645ee10146102bf578063a034af42146102ba578063a09fd42b146102b5578063a56c7bf7146102b0578063a7d074de146102ab578063abc8d1ac146102a6578063b0c26ecf146102a1578063b60e72cc1461029c578063bb2c250c14610297578063bf52638c14610292578063bfa4b7d91461028d578063c3b5563514610288578063d19fd92e14610283578063d1cb4dc31461027e578063d7f6d87414610279578063db5772f514610274578063ddc394801461026f578063e479f93d1461026a578063e97c685d14610265578063ec6d8e0614610260578063ed70554d1461025b578063f23a6e6114610256578063fb552dca14610251578063fbfe1b571461024c578063fe4ece54146102475763ffc9fd471461024257600080fd5b6130bd565b612fc8565b612d52565b612d0a565b612b72565b612b21565b612ac7565b61294c565b612911565b612769565b61271e565b612664565b612629565b6124fa565b612478565b61242a565b612408565b61238c565b61234f565b612331565b6122f2565b6122aa565b61226f565b6120ea565b612012565b611e54565b611c8b565b611c26565b611beb565b611a9f565b611977565b61181e565b611744565b6116aa565b611648565b611619565b6114f5565b6114a0565b61145f565b6113b3565b611378565b611336565b61129e565b610f33565b610ed5565b610c30565b610a5b565b61095c565b610901565b610525565b634e487b7160e01b600052604160045260246000fd5b6060810190811067ffffffffffffffff82111761036e57604052565b61033c565b67ffffffffffffffff811161036e57604052565b6040810190811067ffffffffffffffff82111761036e57604052565b6080810190811067ffffffffffffffff82111761036e57604052565b90601f8019910116810190811067ffffffffffffffff82111761036e57604052565b60405190610180820182811067ffffffffffffffff82111761036e57604052565b6040519061040f82610387565b565b6040519061040f82610352565b6040519060a0820182811067ffffffffffffffff82111761036e57604052565b6040519060c0820182811067ffffffffffffffff82111761036e57604052565b6040519060e0820182811067ffffffffffffffff82111761036e57604052565b60405190610140820182811067ffffffffffffffff82111761036e57604052565b600435906001600160a01b03821682036104b557565b600080fd5b602435906001600160a01b03821682036104b557565b35906001600160a01b03821682036104b557565b60609060031901126104b557604051906104fd82610352565b816004356001600160a01b03811681036104b557815260243560208201526040604435910152565b346104b55760603660031901126104b55761053f366104e4565b6020810161054e8151336140bf565b5060ff61058861056b6105618451612a59565b90549060031b1c90565b8060601c9160ff6affffffffffffffffffffff8360081c16921690565b6105bc6105ac94929394336001600160a01b03166000526002602052604060002090565b8651600052602052604060002090565b54946105cf6040880196875111156131f4565b61060d6106058751926105f5336001600160a01b03166000526002602052604060002090565b9051600052602052604060002090565b918254613269565b905516806106da5750509060209161062f61068794516001600160a01b031690565b91519160006001600160a01b036040518097819682957fa9059cbb00000000000000000000000000000000000000000000000000000000845260048401602090939291936001600160a01b0360408201951681520152565b0393165af180156106d5576106a4916000916106a6575b50613297565b005b6106c8915060203d6020116106ce575b6106c081836103bf565b810190613282565b3861069e565b503d6106b6565b613276565b9092919060018103610772575061070391506001600160a01b031692516001600160a01b031690565b823b156104b5576040516323b872dd60e01b81523060048201526001600160a01b039190911660248201526bffffffffffffffffffffffff919091166044820152906000908290606490829084905af180156106d55761075f57005b8061076c6106a492610373565b80610f28565b60021461077b57005b6001600160a01b03610796911693516001600160a01b031690565b905192803b156104b557604051637921219560e11b81523060048201526001600160a01b039290921660248301526bffffffffffffffffffffffff929092166044820152606481019290925260a06084830152600060a4830181905290829060c490829084905af180156106d55761075f57005b67ffffffffffffffff811161036e57601f01601f191660200190565b9291926108328261080a565b9161084060405193846103bf565b8294818452818301116104b5578281602093846000960137010152565b9080601f830112156104b55781602061087893359101610826565b90565b60005b83811061088e5750506000910152565b818101518382015260200161087e565b906108b16020928281519485920161087b565b0190565b60206108ce91816040519382858094519384920161087b565b8101600481520301902090565b60206108f491816040519382858094519384920161087b565b8101600381520301902090565b346104b55760403660031901126104b55760043567ffffffffffffffff81116104b55761093561093a91369060040161085d565b6108b5565b6024356000526020526040806000206001815491015482519182526020820152f35b346104b55760203660031901126104b5576001600160a01b0361097d61049f565b16600052600860205260c060406000205463ffffffff6040519167ffffffffffffffff8116835265ffffffffffff8160401c166020840152818160701c166040840152818160901c166060840152818160b01c16608084015260d01c1660a0820152f35b9181601f840112156104b55782359167ffffffffffffffff83116104b557602083818601950101116104b557565b9060806003198301126104b5576004356001600160a01b03811681036104b5579160243591604435916064359067ffffffffffffffff82116104b557610a57916004016109e1565b9091565b346104b557610b1f610b2d7f8a1fa734614ce1b935d8439d18b23444fb921bb370ec43ca8246788c4ee27f83610b3d610b71610b35610b62610935610b43610aa236610a0f565b93829d819d84610ab8879e979c9596151561329e565b6040519283918d602084019633889290607d94927f434f4c4c41544552414c5f544f5f52455345525645000000000000000000000085526bffffffffffffffffffffffff19809260601b16601586015260601b166029840152603d830152605d8201520190565b03601f1981018352826103bf565b519020616699565b923691610826565b906166dc565b6001600160a01b038089169891610b5c911689146132e9565b33613fa2565b90600052602052604060002090565b93610b89818654610b8482821015613334565b613269565b8555610bac82610b62336001600160a01b03166000526002602052604060002090565b610bb782825461339b565b9055833310610be9575b508354600190940154604080519586526020860191909152840152339280606081015b0390a3005b610bf8600186019182546133a8565b905538610bc1565b60609060031901126104b55760405190610c1982610352565b600435825260243560208301526044356040830152565b346104b55760603660031901126104b557610c4a36610c00565b602081019081518015600014610ec25750610c708151600052600b602052604060002090565b5480835215610e8f575b60ff610c9e82518060601c9160ff6affffffffffffffffffffff8360081c16921690565b90921680610d54575060408381015190516323b872dd60e01b815233600482015230602482015260448101919091529150602090829060649082906000906001600160a01b03165af180156106d557610d3192610d09604092610d2994600091610d35575b5061340e565b0151926105f5336001600160a01b03166000526002602052604060002090565b91825461339b565b9055005b610d4e915060203d6020116106ce576106c081836103bf565b38610d03565b60018103610ddf57506001600160a01b0316803b156104b5576040516323b872dd60e01b81523360048201523060248201526bffffffffffffffffffffffff9290921660448301526000908290606490829084905af180156106d557610d3192610d2992604092610dcc575b50600182820152610d09565b8061076c610dd992610373565b38610dc0565b600214610df7575b5050610d296040610d3192610d09565b6001600160a01b0316906040830151823b156104b557604051637921219560e11b81523360048201523060248201526bffffffffffffffffffffffff929092166044830152606482015260a06084820152600060a482018190529091829060c490829084905af180156106d557610d3192610d2992604092610e7c575b509250610de7565b8061076c610e8992610373565b38610e74565b610e9981516133c1565b610ea4600a54613255565b808352610ebc8251600052600b602052604060002090565b55610c7a565b610561610ece91612a59565b8152610c7a565b346104b55760403660031901126104b55767ffffffffffffffff6004358181116104b557610f0790369060040161085d565b6024359182116104b557610f226106a492369060040161085d565b90613459565b60009103126104b557565b346104b557600080600319360112610ff45760405180916001906001549384845260208094018095600184527fb10e2d527612073b26eecdfd717e6a320cf44b4afac2b0732d9fcbe2b7fa0cf690845b818110610fd85750505081610f999103826103bf565b6040519380850191818652518092526040850195925b828110610fbc5785870386f35b83516001600160a01b0316875295810195928101928401610faf565b82546001600160a01b0316845292870192918601918601610f83565b80fd5b67ffffffffffffffff811161036e5760051b60200190565b9080601f830112156104b557602090823561102981610ff7565b9361103760405195866103bf565b81855260208086019260051b8201019283116104b557602001905b828210611060575050505090565b81358152908301908301611052565b81601f820112156104b55780359160209061108984610ff7565b936040611098815196876103bf565b818652838087019260051b860101928084116104b557848601925b8484106110c4575050505050505090565b67ffffffffffffffff84358181116104b55788019060609081601f1984870301126104b5578551926110f584610352565b6111008a82016104d0565b8452868101358281116104b557868b61111b9284010161085d565b8a850152828101359182116104b557019084603f830112156104b557888201359161114583610ff7565b92611152885194856103bf565b80845287838c86019202830101918783116104b55791888c969492979593015b81811061118e57505050839450868201528152019301926110b3565b91809496508289989294969803126104b5578b84918a516111ae81610352565b8435815282850135838201528b8501358c8201528152019101918b959391969492611172565b91906060838203126104b557604051906111ed82610352565b819380359167ffffffffffffffff928381116104b557820181601f820112156104b557803560209161121e82610ff7565b9161122c60405193846103bf565b808352838084019160051b830101918583116104b55784809101915b83831061128e57505050508552808301358481116104b5578261126c91850161100f565b9085015260408201359283116104b557604092611289920161106f565b910152565b8235815291810191859101611248565b346104b55760a03660031901126104b5576112b761049f565b6112bf6104ba565b9067ffffffffffffffff906044358281116104b5576112e29036906004016111d4565b6064358381116104b5576112fa90369060040161085d565b906084359384116104b5576113329461131a61132095369060040161085d565b93613843565b60405190151581529081906020820190565b0390f35b346104b55760403660031901126104b55760043567ffffffffffffffff81116104b55761136a6106a491369060040161085d565b6113726104ba565b90613f54565b346104b55760003660031901126104b55760206040517f990f4c22d4b046a9a7d673c4a252b906cadd4f3290465e297f998c28a449652b8152f35b346104b55760403660031901126104b55760043567ffffffffffffffff81116104b55761141c6114087f02d93529bba9d141e5e06733c52c7e6fbcb1149586adb5c24064b522ab26f1d792369060040161085d565b604051918291604083526040830190611429565b60243560208301520390a1005b906020916114428151809281855285808601910161087b565b601f01601f1916010190565b906020610878928181520190611429565b346104b55760403660031901126104b55761133261148c61147e61049f565b6114866104ba565b90613fa2565b604051918291602083526020830190611429565b346104b55760403660031901126104b55760043567ffffffffffffffff81116104b55761141c6114087f6a837ff3973aa4181e7b9f07756f8b7ee366dd85a36655d2cb42cd47f10b963892369060040161085d565b346104b55760603660031901126104b55761150f366104e4565b6020810161151e8151336140bf565b506115d0611552611542336001600160a01b03166000526002602052604060002090565b8351600052602052604060002090565b54926040810193611567855180921015613297565b61158a6106056105ac336001600160a01b03166000526002602052604060002090565b905583516115c1610d296105ac6115a885516001600160a01b031690565b6001600160a01b03166000526002602052604060002090565b9055516001600160a01b031690565b905191517f8feb0721cc2a2e4a4be480610cad3ae7011d4c198073ecde7410247ff9eb74d56001600160a01b03604051931692806116143394829190602083019252565b0390a4005b346104b55760403660031901126104b557602061164061163761049f565b602435906140bf565b604051908152f35b346104b55760403660031901126104b55761169261166461049f565b60601b6bffffffffffffffffffffffff191660243560081b6cffffffffffffffffffffffff00161760021790565b600052600b6020526020604060002054604051908152f35b346104b55760403660031901126104b55767ffffffffffffffff6004358181116104b5576116dc90369060040161085d565b906024359081116104b5577f27a8767ed172b48d7cf6dbb25d2840c5fa91ef78fa6e05c13c82763d099f03ca9161173f61171d61173193369060040161085d565b604051938493604085526040850190611429565b908382036020850152611429565b0390a1005b346104b55760203660031901126104b55761175d61049f565b6001600160a01b0381166000918183528260205260ff6040842054166117da57806117ae6117a16117b3936001600160a01b03166000526000602052604060002090565b805460ff19166001179055565b6143c1565b7fc395b1bd803c744a815bc34a0426e5eaac03513b9d76bf237a734a004916499c8280a280f35b606460405162461bcd60e51b815260206004820152601060248201527f416c726561647920617070726f766564000000000000000000000000000000006044820152fd5b346104b5577fb27368fa5e091451f133ee63c16745b5f4037723830f29b1b9d5cb70b98c787861184d36610a0f565b61185c849594969296336140bf565b506000953387526002602052604087208688526020526118828460408920541015614438565b6118f286610b626001600160a01b0388169761189f891515614483565b6118ab338a14156144ce565b6118cc83610b62336001600160a01b03166000526002602052604060002090565b6118d7898254613269565b90556001600160a01b03166000526002602052604060002090565b6118fd85825461339b565b905561191060405192839233968461453a565b0390a480f35b60609060031901126104b5576004356001600160a01b03811681036104b557906024359060443590565b634e487b7160e01b600052603260045260246000fd5b80548210156119725760005260206000209060011b0190600090565b611940565b346104b55761198536611916565b916001600160a01b03918260009216825260056020526040822090825260205260408120908154841015610ff457506040926119c091611956565b5090600182549201541682519182526020820152f35b91906060838203126104b557604080516119ef81610352565b809480358252602090611a038282016104d0565b82840152838101359067ffffffffffffffff82116104b557019084601f830112156104b5578135611a3381610ff7565b95611a40865197886103bf565b818752828088019260061b850101938185116104b5578301915b848310611a6a5750505050500152565b86838303126104b5578387918251611a8181610387565b611a8a866104d0565b81528286013583820152815201920191611a5a565b346104b55760203660031901126104b55760043567ffffffffffffffff81116104b557611ada611ad560209236906004016119d6565b6145c3565b6040519015158152f35b801515036104b557565b359061040f82611ae4565b9190610180838203126104b557611b0e6103e1565b92611b18816104d0565b84526020810135602085015260408101356040850152606081013560608501526080810135608085015260a08101359167ffffffffffffffff928381116104b55781611b6591840161085d565b60a0860152611b7660c08301611aee565b60c086015260e082013560e08601526101008083013590860152610120808301358481116104b55782611baa9185016111d4565b90860152610140808301358481116104b55782611bc891850161085d565b9086015261016092838301359081116104b557611be5920161085d565b90830152565b346104b55760203660031901126104b55760043567ffffffffffffffff81116104b557611ada611c216020923690600401611af9565b614a89565b346104b55760203660031901126104b55760606bffffffffffffffffffffffff60ff611c6b6004358060601c9160ff6affffffffffffffffffffff8360081c16921690565b9193906001600160a01b0360405195168552166020840152166040820152f35b346104b55760203660031901126104b5576001600160a01b03611cac61049f565b16600052600c6020526020604060002054604051908152f35b9080601f830112156104b5576020908235611cdf81610ff7565b93611ced60405195866103bf565b81855260208086019260051b8201019283116104b557602001905b828210611d16575050505090565b838091611d22846104d0565b815201910190611d08565b602081016020825282518091526040820191602060408360051b8301019401926000915b838310611d6057505050505090565b9091929394603f1982820301835285519060206040820192805183520151916040602083015282518091526060820190602060608260051b85010194019260005b828110611dc257505050505060208060019297019301930191939290611d51565b9091929394605f1983820301855285516020608060406060850193805186528381015184870152015193606060408201528451809452019201906000905b808210611e1f5750505060208060019297019501910192919092611da1565b9091926020611e4a6001928651906001600160a01b0360206040938051845201511660208201520190565b9401920190611e00565b346104b5576040806003193601126104b55767ffffffffffffffff906004358281116104b557611e88903690600401611cc5565b916024359081116104b557611ea190369060040161100f565b611eab8351614d48565b6000906000905b855182101561200257611ed5611ec883886134cd565b516001600160a01b031690565b94853193611ee38651614dab565b94611eec610402565b90815260209586820152611f0085856134cd565b52611f0b84846134cd565b50805b8651811015611ff15780611fea600192611f57611f3e8c6001600160a01b03166000526002602052604060002090565b611f48838d6134cd565b51600052602052604060002090565b54611fc78c611fb28d611f4886611fac611f91611f87876001600160a01b03166000526006602052604060002090565b611f4884876134cd565b54956001600160a01b03166000526005602052604060002090565b926134cd565b90611fbb610411565b9384528c840152614e13565b8782015289611fd68a8a6134cd565b51015190611fe483836134cd565b526134cd565b5001611f0e565b509350945094906001019094611eb2565b6113329060405191829182611d2d565b346104b55760403660031901126104b55760243567ffffffffffffffff81116104b557611640612048602092369060040161085d565b600435615025565b600954811015611972576003906009600052027f6e1540171b6c0c960b71a7020d9f60077f6af931a8bbf590da0223dacf75c7af0190600090565b90600182811c921680156120bb575b60208310146120a557565b634e487b7160e01b600052602260045260246000fd5b91607f169161209a565b61087893926001600160a01b0360609316825260208201528160408201520190611429565b346104b5576020806003193601126104b5576004356009548110156104b55761211290612050565b50906001600160a01b03825416906001600260018501549401916040519260009281549161213f8361208b565b80875292600181169081156121af5750600114612175575b878761133288612169818a03826103bf565b604051938493846120c5565b6000908152838120939450925b82841061219c575050508201016121698261133238612157565b8054868501860152928401928101612182565b60ff191685880152505050151560051b83010190506121698261133238612157565b91909160a0818403126104b5576121e661041e565b926121f0826104d0565b845267ffffffffffffffff60208301358181116104b557826122139185016111d4565b602086015260408301358181116104b5578261223091850161085d565b604086015260608301358181116104b5578261224d91850161085d565b606086015260808301359081116104b557612268920161085d565b6080830152565b346104b55760203660031901126104b55760043567ffffffffffffffff81116104b557611ada6122a560209236906004016121d1565b6151a6565b346104b55760403660031901126104b5576001600160a01b036122cb61049f565b16600052600660205260406000206024356000526020526020604060002054604051908152f35b346104b55760203660031901126104b5576001600160a01b0361231361049f565b166000526000602052602060ff604060002054166040519015158152f35b346104b55760003660031901126104b5576020600a54604051908152f35b346104b55760403660031901126104b55760043567ffffffffffffffff81116104b5576123836106a491369060040161085d565b6024359061532b565b346104b55760603660031901126104b55760043560ff81168091036104b5576123b36104ba565b90604435906bffffffffffffffffffffffff821682036104b55760ff81116104b5576020926cffffffffffffffffffffffff006040519360081b16906bffffffffffffffffffffffff199060601b1617178152f35b346104b55760403660031901126104b55761242161049f565b506106a46104ba565b346104b55760203660031901126104b55760043567ffffffffffffffff81116104b557612465612460604092369060040161085d565b6108db565b6001815491015482519182526020820152f35b346104b55760403660031901126104b55760043567ffffffffffffffff81116104b5576124ed6124cd7f4c34c2f9a78632f29fa59aaed5514cb742fd9fbcfd7ccc2c03c85f2bbc621c4792369060040161085d565b6024356124d981611ae4565b604051928392604084526040840190611429565b90151560208301520390a1005b346104b55760203660031901126104b557600435600052600b6020526020604060002054604051908152f35b9190608080848303126104b557604093845192612542846103a3565b839561254d836104d0565b855267ffffffffffffffff936020848101358681116104b55785019184601f840112156104b55782359261258084610ff7565b9361258d865195866103bf565b808552838086019160071b830101918783116104b5578401905b8282106125e95750505050860152808301358481116104b557826125cc91850161100f565b9085015260608201359283116104b557606092611289920161085d565b83828903126104b5578484918851612600816103a3565b843581528285013583820152898501358a820152606080860135908201528152019101906125a7565b346104b55760203660031901126104b55760043567ffffffffffffffff81116104b557611ada61265f6020923690600401612526565b615672565b346104b5576040806003193601126104b55761267e61049f565b906001600160a01b036024359216600090808252602093600685528383208184528552838320549183526005855283832090835284526126bf838320614e13565b91835193808501908552835180915285606086019401915b8181106126ea5750505082938301520390f35b909193866127146001928751906001600160a01b0360206040938051845201511660208201520190565b95019291016126d7565b346104b5576003196020368201126104b5576004359067ffffffffffffffff82116104b5576101409082360301126104b557611ada6127636020923690600401615f2f565b3361690e565b346104b55760203660031901126104b55761278261049f565b6001600160a01b038082166127d76127cd600094838652856020526127b46127af6040882060ff90541690565b61605c565b6001600160a01b03166000526000602052604060002090565b805460ff19169055565b825b600154808210156128855782846128056127f285612a90565b90546001600160a01b039160031b1c1690565b161461281457506001016127d9565b6128569293506128316127f261282c61283793613255565b612a90565b91612a90565b9091906001600160a01b038084549260031b9316831b921b1916179055565b61285e6160a7565b7f67c5a35d33d48c47ef33c82c62eda6254aad034fab4c51abe26a6d06ad174a348280a280f35b5050905061285e565b91909160c0818403126104b5576128a361043e565b926128ad826104d0565b8452602082013560208501526040820135604085015260608201356060850152608082013567ffffffffffffffff908181116104b557826128ef91850161085d565b608086015260a08301359081116104b55761290a920161085d565b60a0830152565b346104b55760203660031901126104b55760043567ffffffffffffffff81116104b557611ada612947602092369060040161288e565b61611c565b346104b5577f8a1fa734614ce1b935d8439d18b23444fb921bb370ec43ca8246788c4ee27f8361297b36611916565b929061298884151561329e565b61299281336140bf565b506129c0846129b883610b62336001600160a01b03166000526002602052604060002090565b5410156163a1565b6129e181610b62336001600160a01b03166000526002602052604060002090565b6129ec858254613269565b90556001612a0182610b626109358733613fa2565b6001600160a01b03612a1487835461339b565b958683551695863310612a43575b50015460408051948552602085019190915283015233918060608101610be4565b612a518383019182546134e1565b905538612a22565b600a5481101561197257600a6000527fc65a7bb8d6351c1cf70c95a316cc6a92839c986682d98bc35f958f4883f9d2a80190600090565b6001548110156119725760016000527fb10e2d527612073b26eecdfd717e6a320cf44b4afac2b0732d9fcbe2b7fa0cf60190600090565b346104b55760203660031901126104b5576004356001548110156104b5576001600160a01b0360209160016000527fb10e2d527612073b26eecdfd717e6a320cf44b4afac2b0732d9fcbe2b7fa0cf6015416604051908152f35b346104b55760203660031901126104b557600435600a548110156104b557602090600a6000527fc65a7bb8d6351c1cf70c95a316cc6a92839c986682d98bc35f958f4883f9d2a80154604051908152f35b346104b55760a03660031901126104b557612b8b61049f565b50612b946104ba565b6044359060643560843567ffffffffffffffff81116104b557612bbb9036906004016109e1565b612be5612bde949294336001600160a01b03166000526000602052604060002090565b5460ff1690565b612c15575b6040517ff23a6e61000000000000000000000000000000000000000000000000000000008152602090f35b7f3905abcd1f9797e8b4e20f9d468f6f971cf334c5f5c1d4665eacec0ce947c678916001600160a01b0391612cca90612cad3360601b6bffffffffffffffffffffffff191660088a901b6cffffffffffffffffffffffff001617600217612c8681600052600b602052604060002090565b54908115612cd7575b50610b62856001600160a01b03166000526002602052604060002090565b612cb887825461339b565b9055604051938493169633968461453a565b0390a43880808080612bea565b612d039150612ce5816133c1565b612cf0600a54613255565b918291600052600b602052604060002090565b5538612c8f565b346104b55760403660031901126104b5576001600160a01b03612d2b61049f565b16600052600260205260406000206024356000526020526020604060002054604051908152f35b346104b55760803660031901126104b55767ffffffffffffffff6004358181116104b557612d849036906004016109e1565b612d8c6104ba565b926044359081116104b557612da59036906004016109e1565b606492919235936001600160a01b038096169384600052600060205260409460ff86600020541615612f85579085612e2b94939281516020810190612df281610b1f8d8c8a3046896163ec565b51902090825180809881947f8aad0628000000000000000000000000000000000000000000000000000000008352898860048501616461565b03915afa9788156106d55761133298600095600091612f19575b5092612e927fbd6e57133956b4a3944b483a9e595b4aab16071cf15a39384fdb1b7015865aab9593612ef193612e7d612ef79761647e565b612e888915156164c9565b8816943691610826565b6020815191012096612eca612ec3612ebd866001600160a01b0316600052600c602052604060002090565b5461337f565b8b14616514565b89612ee8856001600160a01b0316600052600c602052604060002090565b55810190616585565b9061690e565b8451958652801515602087015294604090a35190151581529081906020820190565b612e7d9650612ef79491507fbd6e57133956b4a3944b483a9e595b4aab16071cf15a39384fdb1b7015865aab9593612ef193612f6d612e92938c8d3d10612f7e575b612f6581836103bf565b810190616445565b999099949750509350939550612e45565b503d612f5b565b6064865162461bcd60e51b815260206004820152601560248201527f50726f7669646572206e6f7420617070726f76656400000000000000000000006044820152fd5b346104b55760203660031901126104b5576001600160a01b03612fe961049f565b1660005260076020526020604060002054604051908152f35b6020808201908083528351809252604092604081018260408560051b840101960194600080935b86851061303b57505050505050505090565b9091929394959697603f198282030185528689518160806060948286820194818151805185520151828401520151958982015285518094520193019085905b8781831061309c5750505050806001929a019501950193969594929190613029565b8395856001949693955180518352015183820152019401920189929161307a565b346104b55760603660031901126104b5576130d661049f565b67ffffffffffffffff6024358181116104b5576130f7903690600401611cc5565b906044359081116104b5576131118391369060040161100f565b61311b83516165c4565b906000906000905b85518210156131e65761314261313c611ec884896134cd565b86613fa2565b9461314c866108db565b93613157835161662b565b94613169613163610402565b9161667b565b81526020958682015261317c85886134cd565b5261318784876134cd565b50805b83518110156131d557806131ce81896131c48a6131bb8b8f8c611f4860019b611fac6131b5946108b5565b946134cd565b5101519161667b565b611fe483836134cd565b500161318a565b509095509250600190910190613123565b604051806113328682613002565b156131fb57565b606460405162461bcd60e51b815260206004820152601260248201527f4e6f7420656e6f756768207265736572766500000000000000000000000000006044820152fd5b634e487b7160e01b600052601160045260246000fd5b60001981019190821161326457565b61323f565b9190820391821161326457565b6040513d6000823e3d90fd5b908160209103126104b5575161087881611ae4565b156104b557565b156132a557565b606460405162461bcd60e51b815260206004820152601760248201527f416d6f756e74206d75737420626520706f7369746976650000000000000000006044820152fd5b156132f057565b606460405162461bcd60e51b815260206004820152601160248201527f496e76616c6964207369676e61747572650000000000000000000000000000006044820152fd5b1561333b57565b606460405162461bcd60e51b815260206004820152601760248201527f496e73756666696369656e7420636f6c6c61746572616c0000000000000000006044820152fd5b906001820180921161326457565b906014820180921161326457565b9190820180921161326457565b8181039291600013801582851316918412161761326457565b600a546801000000000000000081101561036e576001810180600a5581101561197257600a6000527fc65a7bb8d6351c1cf70c95a316cc6a92839c986682d98bc35f958f4883f9d2a80155565b1561341557565b606460405162461bcd60e51b815260206004820152601960248201527f4552433230207472616e7366657246726f6d206661696c6564000000000000006044820152fd5b611731906134967fe8407a0209fa99ec3a7228aff140c3d3e68bd279391739c7e0b65cd406cc93b593604051938493604085526040850190611429565b0390a1565b906134a582610ff7565b6134b260405191826103bf565b82815280926134c3601f1991610ff7565b0190602036910137565b80518210156119725760209160051b010190565b9190916000838201938412911290801582169115161761326457565b60209081818403126104b557805167ffffffffffffffff918282116104b557019083601f830112156104b557815161353481610ff7565b9460409261354560405197886103bf565b828752858088019360051b860101948286116104b557868101935b86851061357257505050505050505090565b84518381116104b55782019084603f830112156104b55788820151906135978261080a565b6135a3895191826103bf565b828152868984860101116104b5576135c48b949385948b868501910161087b565b815201940193613560565b60209081818403126104b55780519067ffffffffffffffff82116104b557019180601f840112156104b557825161360581610ff7565b9361361360405195866103bf565b818552838086019260051b8201019283116104b5578301905b82821061363a575050505090565b8151815290830190830161362c565b90815180825260208080930193019160005b828110613669575050505090565b83518552938101939281019260010161365b565b926136a9610878959361369b6136b794608088526080880190613649565b908682036020880152611429565b908482036040860152611429565b916060818403910152611429565b7f800000000000000000000000000000000000000000000000000000000000000081146132645760000390565b604051906136ff82610387565b600c82527f5570646174652064656c746100000000000000000000000000000000000000006020830152565b6040519061373882610387565b600982527f67657473206465627400000000000000000000000000000000000000000000006020830152565b6040519061377182610387565b600482527f64656274000000000000000000000000000000000000000000000000000000006020830152565b634e487b7160e01b600052600060045260246000fd5b80546801000000000000000081101561036e576137d591600182018155611956565b61381a5760016001600160a01b0360208461040f955185550151169101906001600160a01b031673ffffffffffffffffffffffffffffffffffffffff19825416179055565b61379d565b60001981146132645760010190565b63ffffffff8091169081146132645760010190565b9294926001600160a01b038281169082161015613f4d57909493905b6040516bffffffffffffffffffffffff19606083811b8216602084015288901b16603482015260288152956138956048886103bf565b6138a084515161349b565b9460005b86518110156138f3576001906138e2826138ce6138c08d6108b5565b611f488560208d01516134cd565b01546138db838a516134cd565b51906134e1565b6138ec828a6134cd565b52016138a4565b509561391161392191989394929598602080825183010191016134fd565b91602080825183010191016134fd565b6000935b60408901518051861015613b27578561393d916134cd565b51986139626139566139568c516001600160a01b031690565b6001600160a01b031690565b96600060208c01519861397589886134cd565b51906139818a886134cd565b519a838d6139be6040519e8f96879586947f18c323f20000000000000000000000000000000000000000000000000000000086526004860161367d565b03925af19788156106d557600098613b04575b508751895103613af35798996040019860005b8a518051821015613ad6579089613a228c613a1b613a11613a07866001986134cd565b51948551906134cd565b51918451906134cd565b51906133a8565b600081139081613ac8575b8115613aa1575b8115613a98575b50613a9257613a50613a4b6136f2565b616826565b613a65613a5f8d8351906134cd565b51616872565b613a73613a5f82518d6134cd565b613a8a613a8182518d6134cd565b5191518d6134cd565b525b016139e4565b50613a8c565b90501538613a3b565b90506000811280613ab3575b90613a34565b50613abd816136c5565b604083015110613aad565b602083015181119150613a2d565b5050949298509460019196509892985b0193979196909294613925565b949298939950946001919650613ae6565b613b2091983d8091833e613b1881836103bf565b8101906135cf565b96386139d1565b509350505092919460005b8351811015613f1e5780613bf9613bed613b6a8a848a613b718b610b62613b5f60019b60208e01516134cd565b5196879586936134cd565b51936108b5565b8a60008312801580613f13575b15613bff5750613bc7610d29938593613bb4613be197610b62610b62966001600160a01b03166000526002602052604060002090565b613bbf83825461339b565b905554613269565b946001600160a01b03166000526002602052604060002090565b90555b610b62896108b5565b60016000918281550155565b01613b32565b9194919290508215613f0c57815b8315613f0657508b925b15613ef657613c25906136c5565b809454613c4c610d2986610b62866001600160a01b03166000526002602052604060002090565b9055613c5f83613c5a61372b565b613f54565b613c7081613c6b613764565b61532b565b80613c9285610b62866001600160a01b03166000526002602052604060002090565b5410613cd7575091610b6261060592613cc583610b62613cd0976001600160a01b03166000526002602052604060002090565b6118d787825461339b565b9055613be4565b90613d909491613d028495610b62613d4e966001600160a01b03166000526002602052604060002090565b54613e55575b50613d49613d2d87610b62876001600160a01b03166000526005602052604060002090565b91613d36610402565b9384526001600160a01b03166020840152565b6137b3565b613d6b816001600160a01b03166000526007602052604060002090565b613d75815461381f565b90556001600160a01b03166000526008602052604060002090565b613df0613dad613da8835463ffffffff9060701c1690565b61382e565b82547fffffffffffffffffffffffffffff00000000ffffffffffffffffffffffffffff1660709190911b71ffffffff000000000000000000000000000016178255565b65ffffffffffff9081613e0d825465ffffffffffff9060401c1690565b1615613e1b575b5050613be4565b613e4e9142166dffffffffffff000000000000000082549160401b16906dffffffffffff00000000000000001916179055565b3880613e14565b613ecb919250613e7c87610b62876001600160a01b03166000526002602052604060002090565b54613ea1610d2989610b62876001600160a01b03166000526002602052604060002090565b9055613ec487610b62876001600160a01b03166000526002602052604060002090565b5490613269565b906000613eef87610b62876001600160a01b03166000526002602052604060002090565b5538613d08565b8454613f0191613269565b613c25565b92613c17565b8b91613c0d565b508254841115613b7e565b50505050613f3c91925060006001613f35836108db565b01556108db565b613f46815461381f565b9055600190565b949061385f565b613f96907f62ddffe5b5108385f7a590f100e1ee414ad9551a31f089e64e82998440785e1e926001600160a01b03604051938493604085526040850190611429565b911660208301520390a1565b6001600160a01b038281169082161015613fec576040516bffffffffffffffffffffffff19606092831b811660208301529290911b90911660348201526108788160488101610b1f565b6040516bffffffffffffffffffffffff19606093841b811660208301529190921b1660348201526108788160488101610b1f565b9061381a5760018160008093550155565b63ffffffff168015613264576000190190565b805490600090600081558261405857505050565b6001907f7fffffffffffffffffffffffffffffffffffffffffffffffffffffffffffffff841684036132645760005260206000209260011b8301925b8381106140a15750505050565b808360029255838382015501614094565b8015613264576000190190565b90916140e283610b62846001600160a01b03166000526005602052604060002090565b549283156143b85761410b81610b62856001600160a01b03166000526002602052604060002090565b549061412e81610b62866001600160a01b03166000526006602052604060002090565b549482156143a857945b6141628161415d84610b62896001600160a01b03166000526005602052604060002090565b611956565b508054909390811061435b57614198610d2984610b626115a860016141898a548098613269565b9901546001600160a01b031690565b90556141c86141c28261415d85610b628a6001600160a01b03166000526005602052604060002090565b90614020565b6141e5856001600160a01b03166000526008602052604060002090565b614202613dad6141fd835463ffffffff9060701c1690565b614031565b61426561421a613da8835463ffffffff9060b01c1690565b82547fffffffffffff00000000ffffffffffffffffffffffffffffffffffffffffffff1660b09190911b79ffffffff0000000000000000000000000000000000000000000016178255565b805460701c63ffffffff1615614340575b50856142818261337f565b146142bf5761428f9061381f565b946142ad856001600160a01b03166000526007602052604060002090565b6142b781546140b2565b905594614138565b50610b629294509261433a61087894600094836142fc6142f784610b628a986001600160a01b03166000526005602052604060002090565b614044565b84955b61432084610b62846001600160a01b03166000526002602052604060002090565b556001600160a01b03166000526006602052604060002090565b55613269565b80546dffffffffffff00000000000000001916905538614276565b91610b62610878968561439f85989a979661438b86610b626115a8600161433a9b9c01546001600160a01b031690565b61439682825461339b565b90558254613269565b905560006142ff565b9150506108789250929092613269565b50915050600090565b600154906801000000000000000082101561036e5760018201806001558210156119725761040f9160016000527fb10e2d527612073b26eecdfd717e6a320cf44b4afac2b0732d9fcbe2b7fa0cf601906001600160a01b031673ffffffffffffffffffffffffffffffffffffffff19825416179055565b1561443f57565b606460405162461bcd60e51b815260206004820152601b60248201527f496e73756666696369656e7420636f6e74726f6c2073686172657300000000006044820152fd5b1561448a57565b606460405162461bcd60e51b815260206004820152601160248201527f496e76616c696420726563697069656e740000000000000000000000000000006044820152fd5b156144d557565b606460405162461bcd60e51b815260206004820152601760248201527f43616e6e6f74207472616e7366657220746f2073656c660000000000000000006044820152fd5b908060209392818452848401376000828201840152601f01601f1916010190565b604090610878949281528160208201520191614519565b6040519061455e82610387565b601082527f4e6f7420656e6f7567682066756e6473000000000000000000000000000000006020830152565b6040519061459782610387565b601582527f4465706f736974656420746f206368616e6e656c2000000000000000000000006020830152565b805191602090602083016145de81516001600160a01b031690565b926145e986336140bf565b5060009360005b60408088018051805184101561477e5761462784614620614612828a956134cd565b51516001600160a01b031690565b93516134cd565b510151906146458161464089516001600160a01b031690565b613fa2565b92826146688d610b62336001600160a01b03166000526002602052604060002090565b541061476657610b628461474a948a8f94614741968b614739887f8a1fa734614ce1b935d8439d18b23444fb921bb370ec43ca8246788c4ee27f839460019e9d8f9083610b626146b7926108b5565b6146d884610b62336001600160a01b03166000526002602052604060002090565b6146e38b8254613269565b90556147046146f38b835461339b565b998a8355516001600160a01b031690565b6001600160a01b039788169a9088168b11614750575b5001549051968752602087015260408601529116929081906060820190565b0390a36108b5565b54613c6b61458a565b016145f0565b61475e8383019182546134e1565b90553861471a565b50505050505050509250905061087833613c5a614551565b5050505050505092505050600190565b1561479557565b606460405162461bcd60e51b815260206004820152601160248201527f44697370757465206e6f7420666f756e640000000000000000000000000000006044820152fd5b156147e057565b606460405162461bcd60e51b815260206004820152601460248201527f4469737075746520706572696f6420656e6465640000000000000000000000006044820152fd5b906020908183528051916148446060936060838701526080860190613649565b9181810151601f19906148636040958692848a830301848b0152613649565b92015195606082828503019101528551938483528383019184808760051b8601019801966000916000955b8887106148a2575050505050505050505090565b9091929394959697989982828203018752888b516001600160a01b038151168352876148d983830151888587015288860190611429565b910151928881830391015281808451928381520193019087905b878183106149175750505050806001929c019701970195989796949392919061488e565b83958b6001949693955180518352848101518584015201518c82015201940192018b92916148f3565b1561494757565b606460405162461bcd60e51b815260206004820152601160248201527f496e76616c69642070726f6f66626f64790000000000000000000000000000006044820152fd5b90926149ab6080939695946002845260a0602085015260a0840190611429565b95604083015260608201520152565b604051906149c782610387565b600b82527f656e636f6465645f6d73670000000000000000000000000000000000000000006020830152565b156149fa57565b606460405162461bcd60e51b815260206004820152600e60248201527f496e76616c6964207369676e65720000000000000000000000000000000000006044820152fd5b15614a4557565b606460405162461bcd60e51b815260206004820152601960248201527f4e6577206e6f6e6365206d7573742062652067726561746572000000000000006044820152fd5b614cb490614aa1610b5c82516001600160a01b031690565b614af4614ac1336001600160a01b03166000526008602052604060002090565b8054614ad59060901c63ffffffff1661382e565b63ffffffff60901b1963ffffffff60901b83549260901b169116179055565b614b24614ac1614b0b84516001600160a01b031690565b6001600160a01b03166000526008602052604060002090565b81602080820151604083019081519460c0850191614b428351151590565b60608701614bc881519988614b9d60808c01958c60a0885191019e8f518581519101209260405196879687019b8c9492909160a196949286526020860152151560f81b60408501526041840152606183015260818201520190565b0394614bb1601f19968781018452836103bf565b6001614bbc886108db565b0154915190201461478e565b610160880180515190959015614cba5750505094614c8a92614c5f614c51614c6694614c48614c939a610120870151614c0d614c198d60405192839182019485614824565b038481018352826103bf565b5190209a614c3c61010060e08a015199019c8d516040519a8b948501978861498b565b039081018752866103bf565b84519020616699565b92614c5a6149ba565b613459565b51906166dc565b6001600160a01b03614c8261395689516001600160a01b031690565b9116146149f3565b51905111614a3e565b81516001600160a01b03169161014061012082015191015191519233613843565b50600190565b614d379850614d0a9293979650614d229550614d2e9450614cdb9051151590565b614cf7614cf26139568d516001600160a01b031690565b331090565b9015151490811591614d3c575b506147d9565b51936101208801519360405193849182019586614824565b039081018352826103bf565b51902014614940565b614c93565b90505143101538614d04565b90614d5282610ff7565b6040614d6160405192836103bf565b8382528193614d72601f1991610ff7565b019160009160005b848110614d88575050505050565b6020908251614d9681610387565b85815282606081830152828601015201614d7a565b90614db582610ff7565b6040614dc460405192836103bf565b8382528193614dd5601f1991610ff7565b019160009060005b848110614deb575050505050565b6020908451614df981610352565b848152828581830152606087830152828501015201614ddd565b908154614e1f81610ff7565b92604093614e3060405191826103bf565b82815280946020809201926000526020600020906000935b858510614e5757505050505050565b6002846001928451614e6881610387565b865481526001600160a01b03858801541683820152815201930194019391614e48565b90601f8111614e9957505050565b6000916000526020600020906020601f850160051c83019410614ed7575b601f0160051c01915b828110614ecc57505050565b818155600101614ec0565b9092508290614eb7565b90600954916801000000000000000083101561036e57614f0960019360018101600955612050565b61381a578151815473ffffffffffffffffffffffffffffffffffffffff19166001600160a01b03919091161781556040600260209260208501516001820155019201519384519167ffffffffffffffff831161036e57614f7383614f6d865461208b565b86614e8b565b602091601f8411600114614fb75750508190614fa8939495600092614fac575b50508160011b916000199060031b1c19161790565b9055565b015190503880614f93565b95601f92919219841696614fd086600052602060002090565b936000915b89831061500e5750505083600195969710614ff5575b505050811b019055565b015160001960f88460031b161c19169055388080614feb565b838501518655948501949381019391810191614fd5565b9091908061505b5750906150509061503b610411565b33815290600060208301526040820152614ee1565b610878600954613255565b6001600160a01b0361506c82612050565b50541633036104b557600261508082612050565b5001835167ffffffffffffffff811161036e576150a7816150a1845461208b565b84614e8b565b602080601f83116001146150e0575081906150db93949596600092614fac5750508160011b916000199060031b1c19161790565b905590565b90601f198316966150f685600052602060002090565b926000905b898210615135575050836001959697981061511c575b505050811b01905590565b015160001960f88460031b161c19169055388080615111565b806001859682949686015181550195019301906150fb565b6040519061515a82610387565b600e82527f52656365697665642070726f6f660000000000000000000000000000000000006020830152565b90926149ab6080939695946001845260a0602085015260a0840190611429565b906000916151be610b5c82516001600160a01b031690565b906151ca613a4b61514d565b6153006152fa6020926152ec848201615283615278888351986152146040519a8b6151f88482019283614824565b039b61520c601f199d8e81018352826103bf565b5190206168b2565b610b2d604088019a61522c8c518481519101206168b2565b615235846108db565b5492614d228d895160405161525d816152518782019485614824565b038781018352826103bf565b51902090518381519101209060405196879485019889615186565b6080850151906166dc565b956152ac61529b61395686516001600160a01b031690565b6001600160a01b0380991614613297565b6152c260016152ba8a6108db565b015415613297565b600060016152cf8a6108db565b015583516001600160a01b03169151606085015191519233613843565b50516001600160a01b031690565b926108db565b549116337fd0b75b3c0e860b4e521684a9e2379ff5904dcf126bad4bd8619cfb3ff2e81827600080a4565b615365907f941296a39ea107bde685522318a4b6c2b544904a5dd82a512748ca2cf839bef792604051928392604084526040840190611429565b9060208301520390a1565b909493916000825261538e60209660a08885015260a0840190611429565b604091604084015260609183820360608501528780875193848152019601926000915b8383106153d05750505050506108789394506080818403910152613649565b845180518952808b01518b8a0152808201518983015282015188830152608090970196938901936001909201916153b1565b6040519061540f82610387565b600b82527f456e636f646564206d73670000000000000000000000000000000000000000006020830152565b6040519061544882610387565b600f82527f496e76616c6964207369676e65722000000000000000000000000000000000006020830152565b9061547e82610ff7565b604061548d60405192836103bf565b838252819361549e601f1991610ff7565b019060005b8281106154b05750505050565b81519060e082019180831067ffffffffffffffff84111761036e57602092845260008152826000818301526000858301526000606083015260006080830152600060a0830152600060c08301528287010152016154a3565b1561550f57565b606460405162461bcd60e51b815260206004820152601960248201527f4e6f7420656e6f7567682073656e6465722072657365727665000000000000006044820152fd5b1561555a57565b606460405162461bcd60e51b815260206004820152601760248201527f4e6f7420656e6f756768207065657220726573657276650000000000000000006044820152fd5b156155a557565b606460405162461bcd60e51b815260206004820152601560248201527f4e6f7420656e6f75676820636f6c6c61746572616c00000000000000000000006044820152fd5b60208082019080835283518092528060408094019401926000905b83821061561357505050505090565b845180516001600160a01b0390811688528185015116878501528082015187830152606080820151908801526080808201519088015260a0808201519088015260c0908101519087015260e09095019493820193600190910190615604565b90615687610b5c83516001600160a01b031690565b82516001600160a01b039081169133831115615b075733925b6156a9826108db565b5492602092602088019788516156fc6156f36040986156ea6040860151946156dc60405196879260208401958b87615370565b03601f1981018652856103bf565b83519020616699565b91614c5a615402565b81516001600160a01b031693606094606084019161571e6139568451866166dc565b911603615ae05750506157a9615747336001600160a01b03166000526008602052604060002090565b805461575b9060d01c63ffffffff1661382e565b7fffff00000000ffffffffffffffffffffffffffffffffffffffffffffffffffff7dffffffff000000000000000000000000000000000000000000000000000083549260d01b169116179055565b6157c0615747614b0b83516001600160a01b031690565b6157cb895151615474565b9760005b8a518051821015615a8a5790898989818a898b6157ee8860019a6134cd565b5161593c8c610b6283519586928a8601908461581961581484519d8a019d8e51906134e1565b6136c5565b9261584f61583e83610b62336001600160a01b03166000526002602052604060002090565b54615848866136c5565b1115615508565b80516000811215615a65575081610b626115a86158ba610605946158866158c8976158818a516001600160a01b031690565b6140bf565b506158b46158a286610b626115a88c516001600160a01b031690565b546158ad83516136c5565b1115615553565b516136c5565b95516001600160a01b031690565b90555b6000811215615a4157615911906158e285336140bf565b5061581461590786610b62336001600160a01b03166000526002602052604060002090565b54615848836136c5565b61593561060585610b62336001600160a01b03166000526002602052604060002090565b90556108b5565b94805160008112600014615a2e57506159709061596a8754916158b461596282516136c5565b84101561559e565b90613269565b85555b0151946159848985019687546134e1565b8096556159fc6159ab83610b628a6001600160a01b03166000526002602052604060002090565b54936159ce84610b62836001600160a01b03166000526002602052604060002090565b549554966159ec6159dd61045e565b6001600160a01b03909b168b52565b8901906001600160a01b03169052565b8601528a850152608084015260a083015260c0820152615a1c828d6134cd565b52615a27818c6134cd565b50016157cf565b615a3a9150865461339b565b8555615973565b615935610d2985610b62336001600160a01b03166000526002602052604060002090565b92610d29915091610b626115a8615a8394516001600160a01b031690565b90556158cb565b5050985050945050505050613f3c918051615aa6575b506108db565b615ad77feb8e48bf4d0f44158522ea730d20e905b181b9db283bcfd7ac9ac5c580a0494091604051918291826155e9565b0390a138615aa0565b9550955050505050615b02939450615afa925051906166dc565b613c5a61543b565b600090565b336156a0565b81601f820112156104b5578035906020615b2683610ff7565b936040615b3660405196876103bf565b84865282860191836060809702860101948186116104b5578401925b858410615b63575050505050505090565b86848303126104b5578487918451615b7a81610352565b615b83876104d0565b815282870135838201528587013586820152815201930192615b52565b81601f820112156104b5578035906020615bb983610ff7565b936040615bc960405196876103bf565b84865282860191836060809702860101948186116104b5578401925b858410615bf6575050505050505090565b86848303126104b5578487918451615c0d81610352565b8635815282870135838201528587013586820152815201930192615be5565b81601f820112156104b557803591602091615c4684610ff7565b93615c5460405195866103bf565b808552838086019160051b830101928084116104b557848301915b848310615c7f5750505050505090565b823567ffffffffffffffff81116104b5578691615ca1848480948901016119d6565b815201920191615c6f565b81601f820112156104b557803591602091615cc684610ff7565b93615cd460405195866103bf565b808552838086019160051b830101928084116104b557848301915b848310615cff5750505050505090565b823567ffffffffffffffff81116104b5578691615d2184848094890101612526565b815201920191615cef565b81601f820112156104b557803591602091615d4684610ff7565b93615d5460405195866103bf565b808552838086019160051b830101928084116104b557848301915b848310615d7f5750505050505090565b823567ffffffffffffffff81116104b5578691615da1848480948901016121d1565b815201920191615d6f565b81601f820112156104b557803591602091615dc684610ff7565b93615dd460405195866103bf565b808552838086019160051b830101928084116104b557848301915b848310615dff5750505050505090565b823567ffffffffffffffff81116104b5578691615e218484809489010161288e565b815201920191615def565b81601f820112156104b557803591602091615e4684610ff7565b93615e5460405195866103bf565b808552838086019160051b830101928084116104b557848301915b848310615e7f5750505050505090565b823567ffffffffffffffff81116104b5578691615ea184848094890101611af9565b815201920191615e6f565b9080601f830112156104b5578135916020615ec684610ff7565b93604093615ed760405196876103bf565b818652828087019260061b850101938185116104b5578301915b848310615f015750505050505090565b85838303126104b5578386918251615f1881610387565b853581528286013583820152815201920191615ef1565b919091610140818403126104b557615f4561047e565b9267ffffffffffffffff82358181116104b55782615f64918501615b0d565b855260208301358181116104b55782615f7e918501615ba0565b602086015260408301358181116104b55782615f9b918501615b0d565b604086015260608301358181116104b55782615fb8918501615c2c565b606086015260808301358181116104b55782615fd5918501615cac565b608086015260a08301358181116104b55782615ff2918501615d2c565b60a086015260c08301358181116104b5578261600f918501615dac565b60c086015260e08301358181116104b5578261602c918501615e2c565b60e086015261010091828401359182116104b55761604b918401615eac565b908401526101208091013590830152565b1561606357565b606460405162461bcd60e51b815260206004820152600c60248201527f4e6f7420617070726f76656400000000000000000000000000000000000000006044820152fd5b60015480156161065760001981019080821015611972577fb10e2d527612073b26eecdfd717e6a320cf44b4afac2b0732d9fcbe2b7fa0cf59060016000520173ffffffffffffffffffffffffffffffffffffffff198154169055600155565b634e487b7160e01b600052603160045260246000fd5b805160009291906001600160a01b03166161369033613fa2565b336000908152600860205260409020805460901c63ffffffff166161599061382e565b815463ffffffff60901b191660909190911b63ffffffff60901b1617905581516001600160a01b031661619f906001600160a01b03166000526008602052604060002090565b805460901c63ffffffff166161b39061382e565b815463ffffffff60901b191660909190911b63ffffffff60901b161790556161da816108db565b549160208101908151809411156161f090613297565b6040810192835160608301958651604051918291602083019461621492878761498b565b0391601f1992838101835261622990836103bf565b8151902061623690616699565b9061623f6149ba565b9061624991613459565b6080840151616257916166dc565b93835161626a906001600160a01b031690565b6001600160a01b03166001600160a01b0380961614616288906149f3565b616291836108db565b600101541561629f90613297565b519585519184516162b6906001600160a01b031690565b6001600160a01b031633106162ca4361338d565b92519860a08701998a51604051806020810192836162e79161089e565b0386810182526162f790826103bf565b519020906040519586946020860198616338958a9492909160a196949286526020860152151560f81b60408501526041840152606183015260818201520190565b03908101825261634890826103bf565b51902090616355906108db565b60010155516001600160a01b0316915192519060405192169180339261637b908261144e565b037f86e7f5b969eded08fe0ea342b2c89a9e5a6cfe6f5803bb3aa464668d728ff02191a4565b156163a857565b606460405162461bcd60e51b815260206004820152601460248201527f496e73756666696369656e7420726573657276650000000000000000000000006044820152fd5b9192849360749695927f990f4c22d4b046a9a7d673c4a252b906cadd4f3290465e297f998c28a449652b855260208501526bffffffffffffffffffffffff199060601b1660408401526054830137019060548201520190565b91908260409103126104b5576020825192015161087881611ae4565b93929160209161647991604087526040870191614519565b930152565b1561648557565b606460405162461bcd60e51b815260206004820152601760248201527f496e76616c69642048616e6b6f207369676e61747572650000000000000000006044820152fd5b156164d057565b606460405162461bcd60e51b815260206004820152601e60248201527f4e6f20656e74697479207265636f76657265642066726f6d2048616e6b6f00006044820152fd5b1561651b57565b608460405162461bcd60e51b815260206004820152602260248201527f496e76616c6964206e6f6e636520286d7573742062652073657175656e74696160448201527f6c290000000000000000000000000000000000000000000000000000000000006064820152fd5b906020828203126104b557813567ffffffffffffffff81116104b5576108789201615f2f565b604051906165b882610387565b60006020838281520152565b906165ce82610ff7565b6040906165de60405191826103bf565b83815280936165ef601f1991610ff7565b019160005b8381106166015750505050565b602090825161660f81610387565b6166176165ab565b8152826060818301528286010152016165f4565b9061663582610ff7565b61664260405191826103bf565b8281528092616653601f1991610ff7565b019060005b82811061666457505050565b60209061666f6165ab565b82828501015201616658565b9060405161668881610387565b602060018294805484520154910152565b60405160208101917f19457468657265756d205369676e6564204d6573736167653a0a3332000000008352603c820152603c81526166d681610352565b51902090565b9060418151036167e2576020810151916060604083015192015160001a907f7fffffffffffffffffffffffffffffff5d576e7357a4501ddfe92f46681b20a0831161679357616764600093602095601b85148015616789575b61673e90616b47565b604051948594859094939260ff6060936080840197845216602083015260408201520152565b838052039060015afa156106d5576000516108786001600160a01b0382161515616b9d565b50601c8514616735565b608460405162461bcd60e51b815260206004820152602260248201527f45434453413a20696e76616c6964207369676e6174757265202773272076616c604482015261756560f01b6064820152fd5b606460405162461bcd60e51b815260206004820152601f60248201527f45434453413a20696e76616c6964207369676e6174757265206c656e677468006044820152fd5b610b1f61686d61040f926040519283917f41304fac000000000000000000000000000000000000000000000000000000006020840152602060248401526044830190611429565b616be8565b61040f90604051907f2d5b6cb900000000000000000000000000000000000000000000000000000000602083015260248201526024815261686d81610352565b61040f90604051907f27b7cf8500000000000000000000000000000000000000000000000000000000602083015260248201526024815261686d81610352565b91909167ffffffffffffffff8080941691160191821161326457565b91905a9160019060005b608084015180518210156169565761693c61693683616940936134cd565b51615672565b1590565b61694d575b600101616918565b60009250616945565b5050919392909260005b60a0860151805182101561699a5761693c61697e83616984936134cd565b516151a6565b616991575b600101616960565b60009450616989565b5050919392909260005b60c082015180518210156169de5761693c6169c2836169c8936134cd565b5161611c565b6169d5575b6001016169a4565b600092506169cd565b5050919392909260005b60e08401518051821015616a225761693c616a0683616a0c936134cd565b51614a89565b616a19575b6001016169e8565b60009450616a11565b5050919392909260005b60608601518051821015616a665761693c616a4a83616a50936134cd565b516145c3565b616a5d575b600101616a2c565b60009250616a55565b50509092616ac1616aa7616a9a616ad99361012061087897990180518015159081616b20575b50616af5575b505a90613269565b67ffffffffffffffff1690565b926001600160a01b03166000526008602052604060002090565b91616ad4835467ffffffffffffffff1690565b6168f2565b67ffffffffffffffff1667ffffffffffffffff19825416179055565b616b186001616b0e616b075a86613269565b9351612050565b500191825461339b565b905538616a92565b616b3f9150616b3161395691612050565b50546001600160a01b031690565b331438616a8c565b15616b4e57565b608460405162461bcd60e51b815260206004820152602260248201527f45434453413a20696e76616c6964207369676e6174757265202776272076616c604482015261756560f01b6064820152fd5b15616ba457565b606460405162461bcd60e51b815260206004820152601860248201527f45434453413a20696e76616c6964207369676e617475726500000000000000006044820152fd5b600080916020815191016a636f6e736f6c652e6c6f675afa5056fea2646970667358221220e5ec2cb23b259b014a5a8772bcaebad1120830bd921c876e07d788fd48b1691f64736f6c63430008180033",
  "linkReferences": {},
  "deployedLinkReferences": {}
}