{
  "_format": "hh-sol-artifact-1",
  "contractName": "Depository",
  "sourceName": "contracts/Depository.sol",
  "abi": [
    {
      "inputs": [],
      "stateMutability": "nonpayable",
      "type": "constructor"
    },
    {
      "anonymous": false,
      "inputs": [
        {
          "indexed": true,
          "internalType": "address",
          "name": "sender",
          "type": "address"
        },
        {
          "indexed": true,
          "internalType": "address",
          "name": "peer",
          "type": "address"
        },
        {
          "indexed": true,
          "internalType": "uint256",
          "name": "cooperativeNonce",
          "type": "uint256"
        }
      ],
      "name": "CooperativeClose",
      "type": "event"
    },
    {
      "anonymous": false,
      "inputs": [
        {
          "indexed": true,
          "internalType": "address",
          "name": "sender",
          "type": "address"
        },
        {
          "indexed": true,
          "internalType": "address",
          "name": "peer",
          "type": "address"
        },
        {
          "indexed": true,
          "internalType": "uint256",
          "name": "disputeNonce",
          "type": "uint256"
        },
        {
          "indexed": false,
          "internalType": "bytes",
          "name": "initialArguments",
          "type": "bytes"
        }
      ],
      "name": "DisputeStarted",
      "type": "event"
    },
    {
      "anonymous": false,
      "inputs": [
        {
          "indexed": true,
          "internalType": "address",
          "name": "provider",
          "type": "address"
        }
      ],
      "name": "EntityProviderAdded",
      "type": "event"
    },
    {
      "anonymous": false,
      "inputs": [
        {
          "indexed": true,
          "internalType": "address",
          "name": "provider",
          "type": "address"
        }
      ],
      "name": "EntityProviderRemoved",
      "type": "event"
    },
    {
      "anonymous": false,
      "inputs": [
        {
          "indexed": true,
          "internalType": "bytes32",
          "name": "entityId",
          "type": "bytes32"
        },
        {
          "indexed": true,
          "internalType": "bytes32",
          "name": "hankoHash",
          "type": "bytes32"
        },
        {
          "indexed": false,
          "internalType": "uint256",
          "name": "nonce",
          "type": "uint256"
        },
        {
          "indexed": false,
          "internalType": "bool",
          "name": "success",
          "type": "bool"
        }
      ],
      "name": "HankoBatchProcessed",
      "type": "event"
    },
    {
      "anonymous": false,
      "inputs": [
        {
          "indexed": false,
          "internalType": "string",
          "name": "",
          "type": "string"
        },
        {
          "indexed": false,
          "internalType": "address",
          "name": "",
          "type": "address"
        }
      ],
      "name": "LogAddress",
      "type": "event"
    },
    {
      "anonymous": false,
      "inputs": [
        {
          "indexed": false,
          "internalType": "string",
          "name": "",
          "type": "string"
        },
        {
          "indexed": false,
          "internalType": "bool",
          "name": "",
          "type": "bool"
        }
      ],
      "name": "LogBool",
      "type": "event"
    },
    {
      "anonymous": false,
      "inputs": [
        {
          "indexed": false,
          "internalType": "string",
          "name": "",
          "type": "string"
        },
        {
          "indexed": false,
          "internalType": "bytes",
          "name": "",
          "type": "bytes"
        }
      ],
      "name": "LogBytes",
      "type": "event"
    },
    {
      "anonymous": false,
      "inputs": [
        {
          "indexed": false,
          "internalType": "string",
          "name": "",
          "type": "string"
        },
        {
          "indexed": false,
          "internalType": "bytes32",
          "name": "",
          "type": "bytes32"
        }
      ],
      "name": "LogBytes32",
      "type": "event"
    },
    {
      "anonymous": false,
      "inputs": [
        {
          "indexed": false,
          "internalType": "string",
          "name": "",
          "type": "string"
        },
        {
          "indexed": false,
          "internalType": "int256",
          "name": "",
          "type": "int256"
        }
      ],
      "name": "LogInt",
      "type": "event"
    },
    {
      "anonymous": false,
      "inputs": [
        {
          "indexed": false,
          "internalType": "string",
          "name": "",
          "type": "string"
        },
        {
          "indexed": false,
          "internalType": "string",
          "name": "",
          "type": "string"
        }
      ],
      "name": "LogString",
      "type": "event"
    },
    {
      "anonymous": false,
      "inputs": [
        {
          "indexed": false,
          "internalType": "string",
          "name": "",
          "type": "string"
        },
        {
          "indexed": false,
          "internalType": "uint256",
          "name": "",
          "type": "uint256"
        }
      ],
      "name": "LogUint",
      "type": "event"
    },
    {
      "anonymous": false,
      "inputs": [
        {
          "indexed": true,
          "internalType": "address",
          "name": "receiver",
          "type": "address"
        },
        {
          "indexed": true,
          "internalType": "address",
          "name": "addr",
          "type": "address"
        },
        {
          "indexed": false,
          "internalType": "uint256",
          "name": "collateral",
          "type": "uint256"
        },
        {
          "indexed": false,
          "internalType": "int256",
          "name": "ondelta",
          "type": "int256"
        },
        {
          "indexed": false,
          "internalType": "uint256",
          "name": "tokenId",
          "type": "uint256"
        }
      ],
      "name": "TransferReserveToCollateral",
      "type": "event"
    },
    {
      "inputs": [],
      "name": "DOMAIN_SEPARATOR",
      "outputs": [
        {
          "internalType": "bytes32",
          "name": "",
          "type": "bytes32"
        }
      ],
      "stateMutability": "view",
      "type": "function"
    },
    {
      "inputs": [
        {
          "internalType": "address",
          "name": "entity",
          "type": "address"
        }
      ],
      "name": "_activeDebts",
      "outputs": [
        {
          "internalType": "uint256",
          "name": "",
          "type": "uint256"
        }
      ],
      "stateMutability": "view",
      "type": "function"
    },
    {
      "inputs": [
        {
          "internalType": "bytes",
          "name": "channelKey",
          "type": "bytes"
        }
      ],
      "name": "_channels",
      "outputs": [
        {
          "internalType": "uint256",
          "name": "cooperativeNonce",
          "type": "uint256"
        },
        {
          "internalType": "bytes32",
          "name": "disputeHash",
          "type": "bytes32"
        }
      ],
      "stateMutability": "view",
      "type": "function"
    },
    {
      "inputs": [
        {
          "internalType": "bytes",
          "name": "channelKey",
          "type": "bytes"
        },
        {
          "internalType": "uint256",
          "name": "tokenId",
          "type": "uint256"
        }
      ],
      "name": "_collaterals",
      "outputs": [
        {
          "internalType": "uint256",
          "name": "collateral",
          "type": "uint256"
        },
        {
          "internalType": "int256",
          "name": "ondelta",
          "type": "int256"
        }
      ],
      "stateMutability": "view",
      "type": "function"
    },
    {
      "inputs": [
        {
          "internalType": "address",
          "name": "entity",
          "type": "address"
        },
        {
          "internalType": "uint256",
          "name": "tokenId",
          "type": "uint256"
        }
      ],
      "name": "_debtIndex",
      "outputs": [
        {
          "internalType": "uint256",
          "name": "",
          "type": "uint256"
        }
      ],
      "stateMutability": "view",
      "type": "function"
    },
    {
      "inputs": [
        {
          "internalType": "address",
          "name": "entity",
          "type": "address"
        },
        {
          "internalType": "uint256",
          "name": "tokenId",
          "type": "uint256"
        },
        {
          "internalType": "uint256",
          "name": "",
          "type": "uint256"
        }
      ],
      "name": "_debts",
      "outputs": [
        {
          "internalType": "uint256",
          "name": "amount",
          "type": "uint256"
        },
        {
          "internalType": "address",
          "name": "creditor",
          "type": "address"
        }
      ],
      "stateMutability": "view",
      "type": "function"
    },
    {
      "inputs": [
        {
          "internalType": "uint256",
          "name": "",
          "type": "uint256"
        }
      ],
      "name": "_hubs",
      "outputs": [
        {
          "internalType": "address",
          "name": "addr",
          "type": "address"
        },
        {
          "internalType": "uint256",
          "name": "gasused",
          "type": "uint256"
        },
        {
          "internalType": "string",
          "name": "uri",
          "type": "string"
        }
      ],
      "stateMutability": "view",
      "type": "function"
    },
    {
      "inputs": [
        {
          "internalType": "address",
          "name": "entity",
          "type": "address"
        },
        {
          "internalType": "uint256",
          "name": "tokenId",
          "type": "uint256"
        }
      ],
      "name": "_reserves",
      "outputs": [
        {
          "internalType": "uint256",
          "name": "",
          "type": "uint256"
        }
      ],
      "stateMutability": "view",
      "type": "function"
    },
    {
      "inputs": [
        {
          "internalType": "uint256",
          "name": "",
          "type": "uint256"
        }
      ],
      "name": "_tokens",
      "outputs": [
        {
          "internalType": "bytes32",
          "name": "",
          "type": "bytes32"
        }
      ],
      "stateMutability": "view",
      "type": "function"
    },
    {
      "inputs": [
        {
          "internalType": "address",
          "name": "provider",
          "type": "address"
        }
      ],
      "name": "addEntityProvider",
      "outputs": [],
      "stateMutability": "nonpayable",
      "type": "function"
    },
    {
      "inputs": [
        {
          "internalType": "address",
          "name": "",
          "type": "address"
        }
      ],
      "name": "approvedEntityProviders",
      "outputs": [
        {
          "internalType": "bool",
          "name": "",
          "type": "bool"
        }
      ],
      "stateMutability": "view",
      "type": "function"
    },
    {
      "inputs": [
        {
          "internalType": "address",
          "name": "a1",
          "type": "address"
        },
        {
          "internalType": "address",
          "name": "a2",
          "type": "address"
        }
      ],
      "name": "channelKey",
      "outputs": [
        {
          "internalType": "bytes",
          "name": "",
          "type": "bytes"
        }
      ],
      "stateMutability": "pure",
      "type": "function"
    },
    {
      "inputs": [
        {
          "components": [
            {
              "internalType": "address",
              "name": "peer",
              "type": "address"
            },
            {
              "components": [
                {
                  "internalType": "int256[]",
                  "name": "offdeltas",
                  "type": "int256[]"
                },
                {
                  "internalType": "uint256[]",
                  "name": "tokenIds",
                  "type": "uint256[]"
                },
                {
                  "components": [
                    {
                      "internalType": "address",
                      "name": "subcontractProviderAddress",
                      "type": "address"
                    },
                    {
                      "internalType": "bytes",
                      "name": "encodedBatch",
                      "type": "bytes"
                    },
                    {
                      "components": [
                        {
                          "internalType": "uint256",
                          "name": "deltaIndex",
                          "type": "uint256"
                        },
                        {
                          "internalType": "uint256",
                          "name": "rightAllowence",
                          "type": "uint256"
                        },
                        {
                          "internalType": "uint256",
                          "name": "leftAllowence",
                          "type": "uint256"
                        }
                      ],
                      "internalType": "struct Depository.Allowence[]",
                      "name": "allowences",
                      "type": "tuple[]"
                    }
                  ],
                  "internalType": "struct Depository.SubcontractClause[]",
                  "name": "subcontracts",
                  "type": "tuple[]"
                }
              ],
              "internalType": "struct Depository.ProofBody",
              "name": "proofbody",
              "type": "tuple"
            },
            {
              "internalType": "bytes",
              "name": "initialArguments",
              "type": "bytes"
            },
            {
              "internalType": "bytes",
              "name": "finalArguments",
              "type": "bytes"
            },
            {
              "internalType": "bytes",
              "name": "sig",
              "type": "bytes"
            }
          ],
          "internalType": "struct Depository.CooperativeDisputeProof",
          "name": "params",
          "type": "tuple"
        }
      ],
      "name": "cooperativeDisputeProof",
      "outputs": [
        {
          "internalType": "bool",
          "name": "",
          "type": "bool"
        }
      ],
      "stateMutability": "nonpayable",
      "type": "function"
    },
    {
      "inputs": [
        {
          "components": [
            {
              "internalType": "address",
              "name": "peer",
              "type": "address"
            },
            {
              "components": [
                {
                  "internalType": "uint256",
                  "name": "tokenId",
                  "type": "uint256"
                },
                {
                  "internalType": "int256",
                  "name": "peerReserveDiff",
                  "type": "int256"
                },
                {
                  "internalType": "int256",
                  "name": "collateralDiff",
                  "type": "int256"
                },
                {
                  "internalType": "int256",
                  "name": "ondeltaDiff",
                  "type": "int256"
                }
              ],
              "internalType": "struct Depository.Diff[]",
              "name": "diffs",
              "type": "tuple[]"
            },
            {
              "internalType": "uint256[]",
              "name": "forgiveDebtsInTokenIds",
              "type": "uint256[]"
            },
            {
              "internalType": "bytes",
              "name": "sig",
              "type": "bytes"
            }
          ],
          "internalType": "struct Depository.CooperativeUpdate",
          "name": "params",
          "type": "tuple"
        }
      ],
      "name": "cooperativeUpdate",
      "outputs": [
        {
          "internalType": "bool",
          "name": "",
          "type": "bool"
        }
      ],
      "stateMutability": "nonpayable",
      "type": "function"
    },
    {
      "inputs": [
        {
          "internalType": "address",
          "name": "addr",
          "type": "address"
        },
        {
          "internalType": "uint256",
          "name": "tokenId",
          "type": "uint256"
        }
      ],
      "name": "enforceDebts",
      "outputs": [
        {
          "internalType": "uint256",
          "name": "totalDebts",
          "type": "uint256"
        }
      ],
      "stateMutability": "nonpayable",
      "type": "function"
    },
    {
      "inputs": [
        {
          "internalType": "address",
          "name": "",
          "type": "address"
        }
      ],
      "name": "entityNonces",
      "outputs": [
        {
          "internalType": "uint256",
          "name": "",
          "type": "uint256"
        }
      ],
      "stateMutability": "view",
      "type": "function"
    },
    {
      "inputs": [
        {
          "internalType": "uint256",
          "name": "",
          "type": "uint256"
        }
      ],
      "name": "entityProvidersList",
      "outputs": [
        {
          "internalType": "address",
          "name": "",
          "type": "address"
        }
      ],
      "stateMutability": "view",
      "type": "function"
    },
    {
      "inputs": [
        {
          "components": [
            {
              "internalType": "bytes32",
              "name": "packedToken",
              "type": "bytes32"
            },
            {
              "internalType": "uint256",
              "name": "internalTokenId",
              "type": "uint256"
            },
            {
              "internalType": "uint256",
              "name": "amount",
              "type": "uint256"
            }
          ],
          "internalType": "struct Depository.ExternalTokenToReserve",
          "name": "params",
          "type": "tuple"
        }
      ],
      "name": "externalTokenToReserve",
      "outputs": [],
      "stateMutability": "nonpayable",
      "type": "function"
    },
    {
      "inputs": [
        {
          "components": [
            {
              "internalType": "address",
              "name": "peer",
              "type": "address"
            },
            {
              "internalType": "uint256",
              "name": "initialCooperativeNonce",
              "type": "uint256"
            },
            {
              "internalType": "uint256",
              "name": "initialDisputeNonce",
              "type": "uint256"
            },
            {
              "internalType": "uint256",
              "name": "disputeUntilBlock",
              "type": "uint256"
            },
            {
              "internalType": "bytes32",
              "name": "initialProofbodyHash",
              "type": "bytes32"
            },
            {
              "internalType": "bytes",
              "name": "initialArguments",
              "type": "bytes"
            },
            {
              "internalType": "bool",
              "name": "startedByLeft",
              "type": "bool"
            },
            {
              "internalType": "uint256",
              "name": "finalCooperativeNonce",
              "type": "uint256"
            },
            {
              "internalType": "uint256",
              "name": "finalDisputeNonce",
              "type": "uint256"
            },
            {
              "components": [
                {
                  "internalType": "int256[]",
                  "name": "offdeltas",
                  "type": "int256[]"
                },
                {
                  "internalType": "uint256[]",
                  "name": "tokenIds",
                  "type": "uint256[]"
                },
                {
                  "components": [
                    {
                      "internalType": "address",
                      "name": "subcontractProviderAddress",
                      "type": "address"
                    },
                    {
                      "internalType": "bytes",
                      "name": "encodedBatch",
                      "type": "bytes"
                    },
                    {
                      "components": [
                        {
                          "internalType": "uint256",
                          "name": "deltaIndex",
                          "type": "uint256"
                        },
                        {
                          "internalType": "uint256",
                          "name": "rightAllowence",
                          "type": "uint256"
                        },
                        {
                          "internalType": "uint256",
                          "name": "leftAllowence",
                          "type": "uint256"
                        }
                      ],
                      "internalType": "struct Depository.Allowence[]",
                      "name": "allowences",
                      "type": "tuple[]"
                    }
                  ],
                  "internalType": "struct Depository.SubcontractClause[]",
                  "name": "subcontracts",
                  "type": "tuple[]"
                }
              ],
              "internalType": "struct Depository.ProofBody",
              "name": "finalProofbody",
              "type": "tuple"
            },
            {
              "internalType": "bytes",
              "name": "finalArguments",
              "type": "bytes"
            },
            {
              "internalType": "bytes",
              "name": "sig",
              "type": "bytes"
            }
          ],
          "internalType": "struct Depository.FinalDisputeProof",
          "name": "params",
          "type": "tuple"
        }
      ],
      "name": "finalDisputeProof",
      "outputs": [
        {
          "internalType": "bool",
          "name": "",
          "type": "bool"
        }
      ],
      "stateMutability": "nonpayable",
      "type": "function"
    },
    {
      "inputs": [
        {
          "internalType": "address",
          "name": "entity1",
          "type": "address"
        },
        {
          "internalType": "address",
          "name": "entity2",
          "type": "address"
        },
        {
          "components": [
            {
              "internalType": "int256[]",
              "name": "offdeltas",
              "type": "int256[]"
            },
            {
              "internalType": "uint256[]",
              "name": "tokenIds",
              "type": "uint256[]"
            },
            {
              "components": [
                {
                  "internalType": "address",
                  "name": "subcontractProviderAddress",
                  "type": "address"
                },
                {
                  "internalType": "bytes",
                  "name": "encodedBatch",
                  "type": "bytes"
                },
                {
                  "components": [
                    {
                      "internalType": "uint256",
                      "name": "deltaIndex",
                      "type": "uint256"
                    },
                    {
                      "internalType": "uint256",
                      "name": "rightAllowence",
                      "type": "uint256"
                    },
                    {
                      "internalType": "uint256",
                      "name": "leftAllowence",
                      "type": "uint256"
                    }
                  ],
                  "internalType": "struct Depository.Allowence[]",
                  "name": "allowences",
                  "type": "tuple[]"
                }
              ],
              "internalType": "struct Depository.SubcontractClause[]",
              "name": "subcontracts",
              "type": "tuple[]"
            }
          ],
          "internalType": "struct Depository.ProofBody",
          "name": "proofbody",
          "type": "tuple"
        },
        {
          "internalType": "bytes",
          "name": "arguments1",
          "type": "bytes"
        },
        {
          "internalType": "bytes",
          "name": "arguments2",
          "type": "bytes"
        }
      ],
      "name": "finalizeChannel",
      "outputs": [
        {
          "internalType": "bool",
          "name": "",
          "type": "bool"
        }
      ],
      "stateMutability": "nonpayable",
      "type": "function"
    },
    {
      "inputs": [],
      "name": "getApprovedProviders",
      "outputs": [
        {
          "internalType": "address[]",
          "name": "",
          "type": "address[]"
        }
      ],
      "stateMutability": "view",
      "type": "function"
    },
    {
      "inputs": [
        {
          "internalType": "address",
          "name": "addr",
          "type": "address"
        },
        {
          "internalType": "address[]",
          "name": "peers",
          "type": "address[]"
        },
        {
          "internalType": "uint256[]",
          "name": "tokenIds",
          "type": "uint256[]"
        }
      ],
      "name": "getChannels",
      "outputs": [
        {
          "components": [
            {
              "components": [
                {
                  "internalType": "uint256",
                  "name": "cooperativeNonce",
                  "type": "uint256"
                },
                {
                  "internalType": "bytes32",
                  "name": "disputeHash",
                  "type": "bytes32"
                }
              ],
              "internalType": "struct Depository.ChannelInfo",
              "name": "channel",
              "type": "tuple"
            },
            {
              "components": [
                {
                  "internalType": "uint256",
                  "name": "collateral",
                  "type": "uint256"
                },
                {
                  "internalType": "int256",
                  "name": "ondelta",
                  "type": "int256"
                }
              ],
              "internalType": "struct Depository.ChannelCollateral[]",
              "name": "collaterals",
              "type": "tuple[]"
            }
          ],
          "internalType": "struct Depository.ChannelReturn[]",
          "name": "response",
          "type": "tuple[]"
        }
      ],
      "stateMutability": "view",
      "type": "function"
    },
    {
      "inputs": [
        {
          "internalType": "address",
          "name": "addr",
          "type": "address"
        },
        {
          "internalType": "uint256",
          "name": "tokenId",
          "type": "uint256"
        }
      ],
      "name": "getDebts",
      "outputs": [
        {
          "components": [
            {
              "internalType": "uint256",
              "name": "amount",
              "type": "uint256"
            },
            {
              "internalType": "address",
              "name": "creditor",
              "type": "address"
            }
          ],
          "internalType": "struct Depository.Debt[]",
          "name": "allDebts",
          "type": "tuple[]"
        },
        {
          "internalType": "uint256",
          "name": "currentDebtIndex",
          "type": "uint256"
        }
      ],
      "stateMutability": "view",
      "type": "function"
    },
    {
      "inputs": [],
      "name": "getTokensLength",
      "outputs": [
        {
          "internalType": "uint256",
          "name": "",
          "type": "uint256"
        }
      ],
      "stateMutability": "view",
      "type": "function"
    },
    {
      "inputs": [
        {
          "internalType": "address[]",
          "name": "addrs",
          "type": "address[]"
        },
        {
          "internalType": "uint256[]",
          "name": "tokenIds",
          "type": "uint256[]"
        }
      ],
      "name": "getUsers",
      "outputs": [
        {
          "components": [
            {
              "internalType": "uint256",
              "name": "ETH_balance",
              "type": "uint256"
            },
            {
              "components": [
                {
                  "internalType": "uint256",
                  "name": "reserve",
                  "type": "uint256"
                },
                {
                  "internalType": "uint256",
                  "name": "debtIndex",
                  "type": "uint256"
                },
                {
                  "components": [
                    {
                      "internalType": "uint256",
                      "name": "amount",
                      "type": "uint256"
                    },
                    {
                      "internalType": "address",
                      "name": "creditor",
                      "type": "address"
                    }
                  ],
                  "internalType": "struct Depository.Debt[]",
                  "name": "debts",
                  "type": "tuple[]"
                }
              ],
              "internalType": "struct Depository.TokenReserveDebts[]",
              "name": "tokens",
              "type": "tuple[]"
            }
          ],
          "internalType": "struct Depository.UserReturn[]",
          "name": "response",
          "type": "tuple[]"
        }
      ],
      "stateMutability": "view",
      "type": "function"
    },
    {
      "inputs": [
        {
          "components": [
            {
              "internalType": "address",
              "name": "peer",
              "type": "address"
            },
            {
              "internalType": "uint256",
              "name": "cooperativeNonce",
              "type": "uint256"
            },
            {
              "internalType": "uint256",
              "name": "disputeNonce",
              "type": "uint256"
            },
            {
              "internalType": "bytes32",
              "name": "proofbodyHash",
              "type": "bytes32"
            },
            {
              "internalType": "bytes",
              "name": "sig",
              "type": "bytes"
            },
            {
              "internalType": "bytes",
              "name": "initialArguments",
              "type": "bytes"
            }
          ],
          "internalType": "struct Depository.InitialDisputeProof",
          "name": "params",
          "type": "tuple"
        }
      ],
      "name": "initialDisputeProof",
      "outputs": [
        {
          "internalType": "bool",
          "name": "",
          "type": "bool"
        }
      ],
      "stateMutability": "nonpayable",
      "type": "function"
    },
    {
      "inputs": [
        {
          "internalType": "string",
          "name": "s",
          "type": "string"
        },
        {
          "internalType": "bytes",
          "name": "x",
          "type": "bytes"
        }
      ],
      "name": "log",
      "outputs": [],
      "stateMutability": "nonpayable",
      "type": "function"
    },
    {
      "inputs": [
        {
          "internalType": "string",
          "name": "s",
          "type": "string"
        },
        {
          "internalType": "address",
          "name": "x",
          "type": "address"
        }
      ],
      "name": "log",
      "outputs": [],
      "stateMutability": "nonpayable",
      "type": "function"
    },
    {
      "inputs": [
        {
          "internalType": "string",
          "name": "s",
          "type": "string"
        },
        {
          "internalType": "bytes32",
          "name": "x",
          "type": "bytes32"
        }
      ],
      "name": "log",
      "outputs": [],
      "stateMutability": "nonpayable",
      "type": "function"
    },
    {
      "inputs": [
        {
          "internalType": "string",
          "name": "s",
          "type": "string"
        },
        {
          "internalType": "int256",
          "name": "x",
          "type": "int256"
        }
      ],
      "name": "log",
      "outputs": [],
      "stateMutability": "nonpayable",
      "type": "function"
    },
    {
      "inputs": [
        {
          "internalType": "string",
          "name": "s",
          "type": "string"
        },
        {
          "internalType": "string",
          "name": "x",
          "type": "string"
        }
      ],
      "name": "log",
      "outputs": [],
      "stateMutability": "nonpayable",
      "type": "function"
    },
    {
      "inputs": [
        {
          "internalType": "string",
          "name": "s",
          "type": "string"
        },
        {
          "internalType": "uint256",
          "name": "x",
          "type": "uint256"
        }
      ],
      "name": "log",
      "outputs": [],
      "stateMutability": "nonpayable",
      "type": "function"
    },
    {
      "inputs": [
        {
          "internalType": "string",
          "name": "s",
          "type": "string"
        },
        {
          "internalType": "bool",
          "name": "x",
          "type": "bool"
        }
      ],
      "name": "log",
      "outputs": [],
      "stateMutability": "nonpayable",
      "type": "function"
    },
    {
      "inputs": [
        {
          "internalType": "address",
          "name": "a1",
          "type": "address"
        },
        {
          "internalType": "address",
          "name": "a2",
          "type": "address"
        }
      ],
      "name": "logChannel",
      "outputs": [],
      "stateMutability": "nonpayable",
      "type": "function"
    },
    {
      "inputs": [
        {
          "internalType": "address",
          "name": "operator",
          "type": "address"
        },
        {
          "internalType": "address",
          "name": "from",
          "type": "address"
        },
        {
          "internalType": "uint256",
          "name": "id",
          "type": "uint256"
        },
        {
          "internalType": "uint256",
          "name": "value",
          "type": "uint256"
        },
        {
          "internalType": "bytes",
          "name": "data",
          "type": "bytes"
        }
      ],
      "name": "onERC1155Received",
      "outputs": [
        {
          "internalType": "bytes4",
          "name": "",
          "type": "bytes4"
        }
      ],
      "stateMutability": "nonpayable",
      "type": "function"
    },
    {
      "inputs": [
        {
          "internalType": "uint8",
          "name": "tokenType",
          "type": "uint8"
        },
        {
          "internalType": "address",
          "name": "contractAddress",
          "type": "address"
        },
        {
          "internalType": "uint96",
          "name": "externalTokenId",
          "type": "uint96"
        }
      ],
      "name": "packTokenReference",
      "outputs": [
        {
          "internalType": "bytes32",
          "name": "",
          "type": "bytes32"
        }
      ],
      "stateMutability": "pure",
      "type": "function"
    },
    {
      "inputs": [
        {
          "components": [
            {
              "components": [
                {
                  "internalType": "address",
                  "name": "receiver",
                  "type": "address"
                },
                {
                  "internalType": "uint256",
                  "name": "tokenId",
                  "type": "uint256"
                },
                {
                  "internalType": "uint256",
                  "name": "amount",
                  "type": "uint256"
                }
              ],
              "internalType": "struct Depository.ReserveToExternalToken[]",
              "name": "reserveToExternalToken",
              "type": "tuple[]"
            },
            {
              "components": [
                {
                  "internalType": "bytes32",
                  "name": "packedToken",
                  "type": "bytes32"
                },
                {
                  "internalType": "uint256",
                  "name": "internalTokenId",
                  "type": "uint256"
                },
                {
                  "internalType": "uint256",
                  "name": "amount",
                  "type": "uint256"
                }
              ],
              "internalType": "struct Depository.ExternalTokenToReserve[]",
              "name": "externalTokenToReserve",
              "type": "tuple[]"
            },
            {
              "components": [
                {
                  "internalType": "address",
                  "name": "receiver",
                  "type": "address"
                },
                {
                  "internalType": "uint256",
                  "name": "tokenId",
                  "type": "uint256"
                },
                {
                  "internalType": "uint256",
                  "name": "amount",
                  "type": "uint256"
                }
              ],
              "internalType": "struct Depository.ReserveToReserve[]",
              "name": "reserveToReserve",
              "type": "tuple[]"
            },
            {
              "components": [
                {
                  "internalType": "uint256",
                  "name": "tokenId",
                  "type": "uint256"
                },
                {
                  "internalType": "address",
                  "name": "receiver",
                  "type": "address"
                },
                {
                  "components": [
                    {
                      "internalType": "address",
                      "name": "addr",
                      "type": "address"
                    },
                    {
                      "internalType": "uint256",
                      "name": "amount",
                      "type": "uint256"
                    }
                  ],
                  "internalType": "struct Depository.AddrAmountPair[]",
                  "name": "pairs",
                  "type": "tuple[]"
                }
              ],
              "internalType": "struct Depository.ReserveToCollateral[]",
              "name": "reserveToCollateral",
              "type": "tuple[]"
            },
            {
              "components": [
                {
                  "internalType": "address",
                  "name": "peer",
                  "type": "address"
                },
                {
                  "components": [
                    {
                      "internalType": "uint256",
                      "name": "tokenId",
                      "type": "uint256"
                    },
                    {
                      "internalType": "int256",
                      "name": "peerReserveDiff",
                      "type": "int256"
                    },
                    {
                      "internalType": "int256",
                      "name": "collateralDiff",
                      "type": "int256"
                    },
                    {
                      "internalType": "int256",
                      "name": "ondeltaDiff",
                      "type": "int256"
                    }
                  ],
                  "internalType": "struct Depository.Diff[]",
                  "name": "diffs",
                  "type": "tuple[]"
                },
                {
                  "internalType": "uint256[]",
                  "name": "forgiveDebtsInTokenIds",
                  "type": "uint256[]"
                },
                {
                  "internalType": "bytes",
                  "name": "sig",
                  "type": "bytes"
                }
              ],
              "internalType": "struct Depository.CooperativeUpdate[]",
              "name": "cooperativeUpdate",
              "type": "tuple[]"
            },
            {
              "components": [
                {
                  "internalType": "address",
                  "name": "peer",
                  "type": "address"
                },
                {
                  "components": [
                    {
                      "internalType": "int256[]",
                      "name": "offdeltas",
                      "type": "int256[]"
                    },
                    {
                      "internalType": "uint256[]",
                      "name": "tokenIds",
                      "type": "uint256[]"
                    },
                    {
                      "components": [
                        {
                          "internalType": "address",
                          "name": "subcontractProviderAddress",
                          "type": "address"
                        },
                        {
                          "internalType": "bytes",
                          "name": "encodedBatch",
                          "type": "bytes"
                        },
                        {
                          "components": [
                            {
                              "internalType": "uint256",
                              "name": "deltaIndex",
                              "type": "uint256"
                            },
                            {
                              "internalType": "uint256",
                              "name": "rightAllowence",
                              "type": "uint256"
                            },
                            {
                              "internalType": "uint256",
                              "name": "leftAllowence",
                              "type": "uint256"
                            }
                          ],
                          "internalType": "struct Depository.Allowence[]",
                          "name": "allowences",
                          "type": "tuple[]"
                        }
                      ],
                      "internalType": "struct Depository.SubcontractClause[]",
                      "name": "subcontracts",
                      "type": "tuple[]"
                    }
                  ],
                  "internalType": "struct Depository.ProofBody",
                  "name": "proofbody",
                  "type": "tuple"
                },
                {
                  "internalType": "bytes",
                  "name": "initialArguments",
                  "type": "bytes"
                },
                {
                  "internalType": "bytes",
                  "name": "finalArguments",
                  "type": "bytes"
                },
                {
                  "internalType": "bytes",
                  "name": "sig",
                  "type": "bytes"
                }
              ],
              "internalType": "struct Depository.CooperativeDisputeProof[]",
              "name": "cooperativeDisputeProof",
              "type": "tuple[]"
            },
            {
              "components": [
                {
                  "internalType": "address",
                  "name": "peer",
                  "type": "address"
                },
                {
                  "internalType": "uint256",
                  "name": "cooperativeNonce",
                  "type": "uint256"
                },
                {
                  "internalType": "uint256",
                  "name": "disputeNonce",
                  "type": "uint256"
                },
                {
                  "internalType": "bytes32",
                  "name": "proofbodyHash",
                  "type": "bytes32"
                },
                {
                  "internalType": "bytes",
                  "name": "sig",
                  "type": "bytes"
                },
                {
                  "internalType": "bytes",
                  "name": "initialArguments",
                  "type": "bytes"
                }
              ],
              "internalType": "struct Depository.InitialDisputeProof[]",
              "name": "initialDisputeProof",
              "type": "tuple[]"
            },
            {
              "components": [
                {
                  "internalType": "address",
                  "name": "peer",
                  "type": "address"
                },
                {
                  "internalType": "uint256",
                  "name": "initialCooperativeNonce",
                  "type": "uint256"
                },
                {
                  "internalType": "uint256",
                  "name": "initialDisputeNonce",
                  "type": "uint256"
                },
                {
                  "internalType": "uint256",
                  "name": "disputeUntilBlock",
                  "type": "uint256"
                },
                {
                  "internalType": "bytes32",
                  "name": "initialProofbodyHash",
                  "type": "bytes32"
                },
                {
                  "internalType": "bytes",
                  "name": "initialArguments",
                  "type": "bytes"
                },
                {
                  "internalType": "bool",
                  "name": "startedByLeft",
                  "type": "bool"
                },
                {
                  "internalType": "uint256",
                  "name": "finalCooperativeNonce",
                  "type": "uint256"
                },
                {
                  "internalType": "uint256",
                  "name": "finalDisputeNonce",
                  "type": "uint256"
                },
                {
                  "components": [
                    {
                      "internalType": "int256[]",
                      "name": "offdeltas",
                      "type": "int256[]"
                    },
                    {
                      "internalType": "uint256[]",
                      "name": "tokenIds",
                      "type": "uint256[]"
                    },
                    {
                      "components": [
                        {
                          "internalType": "address",
                          "name": "subcontractProviderAddress",
                          "type": "address"
                        },
                        {
                          "internalType": "bytes",
                          "name": "encodedBatch",
                          "type": "bytes"
                        },
                        {
                          "components": [
                            {
                              "internalType": "uint256",
                              "name": "deltaIndex",
                              "type": "uint256"
                            },
                            {
                              "internalType": "uint256",
                              "name": "rightAllowence",
                              "type": "uint256"
                            },
                            {
                              "internalType": "uint256",
                              "name": "leftAllowence",
                              "type": "uint256"
                            }
                          ],
                          "internalType": "struct Depository.Allowence[]",
                          "name": "allowences",
                          "type": "tuple[]"
                        }
                      ],
                      "internalType": "struct Depository.SubcontractClause[]",
                      "name": "subcontracts",
                      "type": "tuple[]"
                    }
                  ],
                  "internalType": "struct Depository.ProofBody",
                  "name": "finalProofbody",
                  "type": "tuple"
                },
                {
                  "internalType": "bytes",
                  "name": "finalArguments",
                  "type": "bytes"
                },
                {
                  "internalType": "bytes",
                  "name": "sig",
                  "type": "bytes"
                }
              ],
              "internalType": "struct Depository.FinalDisputeProof[]",
              "name": "finalDisputeProof",
              "type": "tuple[]"
            },
            {
              "components": [
                {
                  "internalType": "uint256",
                  "name": "tokenId",
                  "type": "uint256"
                },
                {
                  "internalType": "uint256",
                  "name": "amount",
                  "type": "uint256"
                }
              ],
              "internalType": "struct Depository.TokenAmountPair[]",
              "name": "flashloans",
              "type": "tuple[]"
            },
            {
              "internalType": "uint256",
              "name": "hub_id",
              "type": "uint256"
            }
          ],
          "internalType": "struct Depository.Batch",
          "name": "batch",
          "type": "tuple"
        }
      ],
      "name": "processBatch",
      "outputs": [
        {
          "internalType": "bool",
          "name": "completeSuccess",
          "type": "bool"
        }
      ],
      "stateMutability": "nonpayable",
      "type": "function"
    },
    {
      "inputs": [
        {
          "internalType": "bytes",
          "name": "encodedBatch",
          "type": "bytes"
        },
        {
          "internalType": "address",
          "name": "entityProvider",
          "type": "address"
        },
        {
          "internalType": "bytes",
          "name": "hankoData",
          "type": "bytes"
        },
        {
          "internalType": "uint256",
          "name": "nonce",
          "type": "uint256"
        }
      ],
      "name": "processBatchWithHanko",
      "outputs": [
        {
          "internalType": "bool",
          "name": "completeSuccess",
          "type": "bool"
        }
      ],
      "stateMutability": "nonpayable",
      "type": "function"
    },
    {
      "inputs": [
        {
          "internalType": "uint256",
          "name": "hub_id",
          "type": "uint256"
        },
        {
          "internalType": "string",
          "name": "new_uri",
          "type": "string"
        }
      ],
      "name": "registerHub",
      "outputs": [
        {
          "internalType": "uint256",
          "name": "",
          "type": "uint256"
        }
      ],
      "stateMutability": "nonpayable",
      "type": "function"
    },
    {
      "inputs": [
        {
          "internalType": "address",
          "name": "provider",
          "type": "address"
        }
      ],
      "name": "removeEntityProvider",
      "outputs": [],
      "stateMutability": "nonpayable",
      "type": "function"
    },
    {
      "inputs": [
        {
          "components": [
            {
              "internalType": "uint256",
              "name": "tokenId",
              "type": "uint256"
            },
            {
              "internalType": "address",
              "name": "receiver",
              "type": "address"
            },
            {
              "components": [
                {
                  "internalType": "address",
                  "name": "addr",
                  "type": "address"
                },
                {
                  "internalType": "uint256",
                  "name": "amount",
                  "type": "uint256"
                }
              ],
              "internalType": "struct Depository.AddrAmountPair[]",
              "name": "pairs",
              "type": "tuple[]"
            }
          ],
          "internalType": "struct Depository.ReserveToCollateral",
          "name": "params",
          "type": "tuple"
        }
      ],
      "name": "reserveToCollateral",
      "outputs": [
        {
          "internalType": "bool",
          "name": "completeSuccess",
          "type": "bool"
        }
      ],
      "stateMutability": "nonpayable",
      "type": "function"
    },
    {
      "inputs": [
        {
          "components": [
            {
              "internalType": "address",
              "name": "receiver",
              "type": "address"
            },
            {
              "internalType": "uint256",
              "name": "tokenId",
              "type": "uint256"
            },
            {
              "internalType": "uint256",
              "name": "amount",
              "type": "uint256"
            }
          ],
          "internalType": "struct Depository.ReserveToExternalToken",
          "name": "params",
          "type": "tuple"
        }
      ],
      "name": "reserveToExternalToken",
      "outputs": [],
      "stateMutability": "nonpayable",
      "type": "function"
    },
    {
      "inputs": [
        {
          "components": [
            {
              "internalType": "address",
              "name": "receiver",
              "type": "address"
            },
            {
              "internalType": "uint256",
              "name": "tokenId",
              "type": "uint256"
            },
            {
              "internalType": "uint256",
              "name": "amount",
              "type": "uint256"
            }
          ],
          "internalType": "struct Depository.ReserveToReserve",
          "name": "params",
          "type": "tuple"
        }
      ],
      "name": "reserveToReserve",
      "outputs": [],
      "stateMutability": "nonpayable",
      "type": "function"
    },
    {
      "inputs": [
        {
          "internalType": "bytes32",
          "name": "packed",
          "type": "bytes32"
        }
      ],
      "name": "unpackTokenReference",
      "outputs": [
        {
          "internalType": "address",
          "name": "contractAddress",
          "type": "address"
        },
        {
          "internalType": "uint96",
          "name": "externalTokenId",
          "type": "uint96"
        },
        {
          "internalType": "uint8",
          "name": "tokenType",
          "type": "uint8"
        }
      ],
      "stateMutability": "pure",
      "type": "function"
    }
  ],
  "bytecode": "0x608034620002cb57600954680100000000000000009182821015620002b5576001808301806009558310156200029f57600960009081527f6e1540171b6c0c960b71a7020d9f60077f6af931a8bbf590da0223dacf75c7af9093018390556020926001600160401b039260608101848111828210176200028b576040528181528481018281526040519686880188811087821117620002775760405283885260408301978852600854908110156200026357848101806008558110156200024f5790600292916008855260038886209102019160018060a01b0390511660018060a01b0319835416178255518482015501945180519384116200023b5785548381811c9116801562000230575b868210146200021c57601f8111620001d1575b508491601f85116001146200016a5793945084929190836200015e575b50501b916000199060031b1c19161790555b604051615de69081620002d18239f35b0151925038806200013c565b86815285812093958591601f198316915b88838310620001b657505050106200019c575b505050811b0190556200014e565b015160001960f88460031b161c191690553880806200018e565b8587015188559096019594850194879350908101906200017b565b868352858320601f860160051c81019187871062000211575b601f0160051c019084905b828110620002055750506200011f565b848155018490620001f5565b9091508190620001ea565b634e487b7160e01b83526022600452602483fd5b90607f16906200010c565b634e487b7160e01b82526041600452602482fd5b634e487b7160e01b84526032600452602484fd5b634e487b7160e01b84526041600452602484fd5b634e487b7160e01b85526041600452602485fd5b634e487b7160e01b83526041600452602483fd5b634e487b7160e01b600052603260045260246000fd5b634e487b7160e01b600052604160045260246000fd5b600080fdfe6080604052600436101561001257600080fd5b60003560e01c806304aaa1e1146102d75780630dedd624146102d25780631e1c13b3146102cd57806323cdd8e8146102c8578063266afe1b146102c35780632cfaaa7a146102be578063319af333146102b95780633644e515146102b45780633692d61a146102af5780633c4deb11146102aa5780633ca6268e146102a55780633ee01625146102a05780634109eedf1461029b5780634b5c42771461029657806358d642bc1461029157806376ace7731461028c5780637aa6422f14610287578063805bd6971461028257806392cf61e51461027d5780639304677d146102785780639645ee1014610273578063a034af421461026e578063a09fd42b14610269578063a56c7bf714610264578063a7d074de1461025f578063abc8d1ac1461025a578063b0c26ecf14610255578063b60e72cc14610250578063bb2c250c1461024b578063bf52638c14610246578063bfa4b7d914610241578063c3b556351461023c578063d1cb4dc314610237578063d7f6d87414610232578063db5772f51461022d578063ddc3948014610228578063e479f93d14610223578063ec6d8e061461021e578063ed70554d14610219578063f23a6e6114610214578063fb552dca1461020f578063fbfe1b571461020a578063fe4ece54146102055763ffc9fd471461020057600080fd5b612b1b565b612a26565b612798565b612750565b6126e1565b612662565b612608565b61255f565b6123b7565b612193565b612119565b6120de565b611f59565b611f0b565b611ee9565b611e63565b611e26565b611e08565b611dc9565b611d81565b611d46565b611bc1565b611ae9565b61192b565b611757565b6116f2565b6116b7565b61156b565b611433565b611322565b611288565b611259565b611191565b61113c565b6110fb565b61104f565b611014565b610fd2565b610f3a565b610bcf565b610b71565b61090c565b610881565b6104a5565b634e487b7160e01b600052604160045260246000fd5b6060810190811067ffffffffffffffff82111761030e57604052565b6102dc565b67ffffffffffffffff811161030e57604052565b6040810190811067ffffffffffffffff82111761030e57604052565b6080810190811067ffffffffffffffff82111761030e57604052565b90601f8019910116810190811067ffffffffffffffff82111761030e57604052565b60405190610180820182811067ffffffffffffffff82111761030e57604052565b604051906103af82610327565b565b604051906103af826102f2565b6040519060a0820182811067ffffffffffffffff82111761030e57604052565b6040519060c0820182811067ffffffffffffffff82111761030e57604052565b60405190610140820182811067ffffffffffffffff82111761030e57604052565b600435906001600160a01b038216820361043557565b600080fd5b602435906001600160a01b038216820361043557565b35906001600160a01b038216820361043557565b6060906003190112610435576040519061047d826102f2565b816004356001600160a01b038116810361043557815260243560208201526040604435910152565b34610435576060366003190112610435576104bf36610464565b602081016104ce81513361394e565b5060ff6105086104eb6104e1845161259a565b90549060031b1c90565b8060601c9160ff6affffffffffffffffffffff8360081c16921690565b61053c61052c94929394336001600160a01b03166000526002602052604060002090565b8651600052602052604060002090565b549461054f604088019687511115612c52565b61058d610585875192610575336001600160a01b03166000526002602052604060002090565b9051600052602052604060002090565b918254612cc7565b9055168061065a575050906020916105af61060794516001600160a01b031690565b91519160006001600160a01b036040518097819682957fa9059cbb00000000000000000000000000000000000000000000000000000000845260048401602090939291936001600160a01b0360408201951681520152565b0393165af180156106555761062491600091610626575b50612cf5565b005b610648915060203d60201161064e575b610640818361035f565b810190612ce0565b3861061e565b503d610636565b612cd4565b90929190600181036106f2575061068391506001600160a01b031692516001600160a01b031690565b823b15610435576040516323b872dd60e01b81523060048201526001600160a01b039190911660248201526bffffffffffffffffffffffff919091166044820152906000908290606490829084905af18015610655576106df57005b806106ec61062492610313565b80610bc4565b6002146106fb57005b6001600160a01b03610716911693516001600160a01b031690565b905192803b1561043557604051637921219560e11b81523060048201526001600160a01b039290921660248301526bffffffffffffffffffffffff929092166044820152606481019290925260a06084830152600060a4830181905290829060c490829084905af18015610655576106df57005b67ffffffffffffffff811161030e57601f01601f191660200190565b9291926107b28261078a565b916107c0604051938461035f565b829481845281830111610435578281602093846000960137010152565b9080601f83011215610435578160206107f8933591016107a6565b90565b60005b83811061080e5750506000910152565b81810151838201526020016107fe565b90610831602092828151948592016107fb565b0190565b602061084e9181604051938285809451938492016107fb565b8101600481520301902090565b60206108749181604051938285809451938492016107fb565b8101600381520301902090565b346104355760403660031901126104355760043567ffffffffffffffff8111610435576108b56108ba9136906004016107dd565b610835565b6024356000526020526040806000206001815491015482519182526020820152f35b606090600319011261043557604051906108f5826102f2565b600435825260243560208301526044356040830152565b3461043557606036600319011261043557610926366108dc565b602081019081518015600014610b5e57506109418151612cfc565b61094c600954612cb3565b82525b60ff61097382518060601c9160ff6affffffffffffffffffffff8360081c16921690565b90921680610a29575060408381015190516323b872dd60e01b815233600482015230602482015260448101919091529150602090829060649082906000906001600160a01b03165af1801561065557610a06926109de6040926109fe94600091610a0a575b50612d49565b015192610575336001600160a01b03166000526002602052604060002090565b918254612db0565b9055005b610a23915060203d60201161064e57610640818361035f565b386109d8565b60018103610aae57506001600160a01b0316803b15610435576040516323b872dd60e01b81523360048201523060248201526bffffffffffffffffffffffff9290921660448301526000908290606490829084905af1801561065557610a06926109fe92604092610a9b575b506109de565b806106ec610aa892610313565b38610a95565b600214610ac6575b50506109fe6040610a06926109de565b6001600160a01b0316906040830151823b1561043557604051637921219560e11b81523360048201523060248201526bffffffffffffffffffffffff929092166044830152606482015260a06084820152600060a482018190529091829060c490829084905af1801561065557610a06926109fe92604092610b4b575b509250610ab6565b806106ec610b5892610313565b38610b43565b6104e1610b6a9161259a565b815261094f565b346104355760403660031901126104355767ffffffffffffffff60043581811161043557610ba39036906004016107dd565b60243591821161043557610bbe6106249236906004016107dd565b90612dbd565b600091031261043557565b3461043557600080600319360112610c905760405180916001906001549384845260208094018095600184527fb10e2d527612073b26eecdfd717e6a320cf44b4afac2b0732d9fcbe2b7fa0cf690845b818110610c745750505081610c3591038261035f565b6040519380850191818652518092526040850195925b828110610c585785870386f35b83516001600160a01b0316875295810195928101928401610c4b565b82546001600160a01b0316845292870192918601918601610c1f565b80fd5b67ffffffffffffffff811161030e5760051b60200190565b9080601f83011215610435576020908235610cc581610c93565b93610cd3604051958661035f565b81855260208086019260051b82010192831161043557602001905b828210610cfc575050505090565b81358152908301908301610cee565b81601f8201121561043557803591602090610d2584610c93565b936040610d348151968761035f565b818652838087019260051b8601019280841161043557848601925b848410610d60575050505050505090565b67ffffffffffffffff84358181116104355788019060609081601f19848703011261043557855192610d91846102f2565b610d9c8a8201610450565b84528681013582811161043557868b610db7928401016107dd565b8a8501528281013591821161043557019084603f83011215610435578882013591610de183610c93565b92610dee8851948561035f565b80845287838c86019202830101918783116104355791888c969492979593015b818110610e2a5750505083945086820152815201930192610d4f565b9180949650828998929496980312610435578b84918a51610e4a816102f2565b8435815282850135838201528b8501358c8201528152019101918b959391969492610e0e565b91906060838203126104355760405190610e89826102f2565b819380359167ffffffffffffffff9283811161043557820181601f82011215610435578035602091610eba82610c93565b91610ec8604051938461035f565b808352838084019160051b830101918583116104355784809101915b838310610f2a57505050508552808301358481116104355782610f08918501610cab565b90850152604082013592831161043557604092610f259201610d0b565b910152565b8235815291810191859101610ee4565b346104355760a036600319011261043557610f5361041f565b610f5b61043a565b9067ffffffffffffffff9060443582811161043557610f7e903690600401610e70565b60643583811161043557610f969036906004016107dd565b9060843593841161043557610fce94610fb6610fbc9536906004016107dd565b936131ab565b60405190151581529081906020820190565b0390f35b346104355760403660031901126104355760043567ffffffffffffffff8111610435576110066106249136906004016107dd565b61100e61043a565b906137f6565b346104355760003660031901126104355760206040517f990f4c22d4b046a9a7d673c4a252b906cadd4f3290465e297f998c28a449652b8152f35b346104355760403660031901126104355760043567ffffffffffffffff8111610435576110b86110a47f02d93529bba9d141e5e06733c52c7e6fbcb1149586adb5c24064b522ab26f1d79236906004016107dd565b6040519182916040835260408301906110c5565b60243560208301520390a1005b906020916110de815180928185528580860191016107fb565b601f01601f1916010190565b9060206107f89281815201906110c5565b3461043557604036600319011261043557610fce61112861111a61041f565b61112261043a565b90613844565b6040519182916020835260208301906110c5565b346104355760403660031901126104355760043567ffffffffffffffff8111610435576110b86110a47f6a837ff3973aa4181e7b9f07756f8b7ee366dd85a36655d2cb42cd47f10b96389236906004016107dd565b34610435576060366003190112610435576111ab36610464565b60208101906111bb82513361394e565b506000913383526002602052604083208151845260205260408320546040830191825180921061125557610575611237611250946109fe94611226610585611216336001600160a01b03166000526002602052604060002090565b8751600052602052604060002090565b90555195516001600160a01b031690565b6001600160a01b03166000526002602052604060002090565b905580f35b8480fd5b3461043557604036600319011261043557602061128061127761041f565b6024359061394e565b604051908152f35b346104355760403660031901126104355767ffffffffffffffff600435818111610435576112ba9036906004016107dd565b90602435908111610435577f27a8767ed172b48d7cf6dbb25d2840c5fa91ef78fa6e05c13c82763d099f03ca9161131d6112fb61130f9336906004016107dd565b6040519384936040855260408501906110c5565b9083820360208501526110c5565b0390a1005b346104355760203660031901126104355761133b61041f565b6001600160a01b0381166000918183528260205260ff6040842054166113b8578061138c61137f611391936001600160a01b03166000526000602052604060002090565b805460ff19166001179055565b613b86565b7fc395b1bd803c744a815bc34a0426e5eaac03513b9d76bf237a734a004916499c8280a280f35b606460405162461bcd60e51b815260206004820152601060248201527f416c726561647920617070726f766564000000000000000000000000000000006044820152fd5b634e487b7160e01b600052603260045260246000fd5b805482101561142e5760005260206000209060011b0190600090565b6113fc565b346104355760603660031901126104355761144c61041f565b604435906001600160a01b039081600091168152600560205260408120602435825260205260408120908154841015610c90575060409261148c91611412565b5090600182549201541682519182526020820152f35b919060608382031261043557604080516114bb816102f2565b8094803582526020906114cf828201610450565b82840152838101359067ffffffffffffffff821161043557019084601f830112156104355781356114ff81610c93565b9561150c8651978861035f565b818752828088019260061b85010193818511610435578301915b8483106115365750505050500152565b868383031261043557838791825161154d81610327565b61155686610450565b81528286013583820152815201920191611526565b346104355760203660031901126104355760043567ffffffffffffffff8111610435576115a66115a160209236906004016114a2565b613c6f565b6040519015158152f35b8015150361043557565b35906103af826115b0565b919061018083820312610435576115da610381565b926115e481610450565b84526020810135602085015260408101356040850152606081013560608501526080810135608085015260a08101359167ffffffffffffffff9283811161043557816116319184016107dd565b60a086015261164260c083016115ba565b60c086015260e082013560e08601526101008083013590860152610120808301358481116104355782611676918501610e70565b908601526101408083013584811161043557826116949185016107dd565b908601526101609283830135908111610435576116b192016107dd565b90830152565b346104355760203660031901126104355760043567ffffffffffffffff8111610435576115a66116ed60209236906004016115c5565b614135565b346104355760203660031901126104355760606bffffffffffffffffffffffff60ff6117376004358060601c9160ff6affffffffffffffffffffff8360081c16921690565b9193906001600160a01b0360405195168552166020840152166040820152f35b34610435576020366003190112610435576001600160a01b0361177861041f565b16600052600a6020526020604060002054604051908152f35b9080601f830112156104355760209082356117ab81610c93565b936117b9604051958661035f565b81855260208086019260051b82010192831161043557602001905b8282106117e2575050505090565b8380916117ee84610450565b8152019101906117d4565b90815180825260208080930193019160005b828110611819575050505090565b8351805186528201516001600160a01b0316858301526040909401939281019260010161180b565b602080820190808352835180925260409283810160059483818660051b850101970195600080945b87861061187c5750505050505050505090565b909192939495969798603f19828203018652878a5181878401918051855201519287838201528351809252606091828201918484838b1b83010196019388905b8b8483106118e25750505050505050806001929b01960196019497969593929190611869565b9661191a8883899b818a9c6001989a9c8a9c88999b605f199086030190525180518452878101518885015201519382015201906117f9565b9801960192018d95949293916118bc565b34610435576040806003193601126104355767ffffffffffffffff906004358281116104355761195f903690600401611791565b9160243590811161043557611978903690600401610cab565b6119828351614377565b6000906000905b8551821015611ad9576119ac61199f8388612e31565b516001600160a01b031690565b948531936119ba86516143da565b946119c36103a2565b908152602095868201526119d78585612e31565b526119e28484612e31565b50805b8651811015611ac85780611ac1600192611a2e611a158c6001600160a01b03166000526002602052604060002090565b611a1f838d612e31565b51600052602052604060002090565b54611a9e8c611a898d611a1f86611a83611a68611a5e876001600160a01b03166000526006602052604060002090565b611a1f8487612e31565b54956001600160a01b03166000526005602052604060002090565b92612e31565b90611a926103b1565b9384528c840152614442565b8782015289611aad8a8a612e31565b51015190611abb8383612e31565b52612e31565b50016119e5565b509350945094906001019094611989565b610fce9060405191829182611841565b346104355760403660031901126104355760243567ffffffffffffffff811161043557611280611b1f60209236906004016107dd565b600435614654565b60085481101561142e576003906008600052027ff3f7a9fe364faab93b216da50a3214154f22a0a2b415b23a84c8169e8b636ee30190600090565b90600182811c92168015611b92575b6020831014611b7c57565b634e487b7160e01b600052602260045260246000fd5b91607f1691611b71565b6107f893926001600160a01b03606093168252602082015281604082015201906110c5565b34610435576020806003193601126104355760043560085481101561043557611be990611b27565b50906001600160a01b038254169060016002600185015494019160405192600092815491611c1683611b62565b8087529260018116908115611c865750600114611c4c575b8787610fce88611c40818a038261035f565b60405193849384611b9c565b6000908152838120939450925b828410611c7357505050820101611c4082610fce38611c2e565b8054868501860152928401928101611c59565b60ff191685880152505050151560051b8301019050611c4082610fce38611c2e565b91909160a08184031261043557611cbd6103be565b92611cc782610450565b845267ffffffffffffffff60208301358181116104355782611cea918501610e70565b602086015260408301358181116104355782611d079185016107dd565b604086015260608301358181116104355782611d249185016107dd565b6060860152608083013590811161043557611d3f92016107dd565b6080830152565b346104355760203660031901126104355760043567ffffffffffffffff8111610435576115a6611d7c6020923690600401611ca8565b6147d5565b34610435576040366003190112610435576001600160a01b03611da261041f565b16600052600660205260406000206024356000526020526020604060002054604051908152f35b34610435576020366003190112610435576001600160a01b03611dea61041f565b166000526000602052602060ff604060002054166040519015158152f35b34610435576000366003190112610435576020600954604051908152f35b346104355760403660031901126104355760043567ffffffffffffffff811161043557611e5a6106249136906004016107dd565b60243590614962565b346104355760603660031901126104355760043560ff811680910361043557611e8a61043a565b604435906bffffffffffffffffffffffff821682036104355760ff8311610435576cffffffffffffffffffffffff0092610fce9160405194859460081b16906bffffffffffffffffffffffff199060601b161717829190602083019252565b3461043557604036600319011261043557611f0261041f565b5061062461043a565b346104355760203660031901126104355760043567ffffffffffffffff811161043557611f46611f4160409236906004016107dd565b61085b565b6001815491015482519182526020820152f35b346104355760403660031901126104355760043567ffffffffffffffff811161043557611fce611fae7f4c34c2f9a78632f29fa59aaed5514cb742fd9fbcfd7ccc2c03c85f2bbc621c479236906004016107dd565b602435611fba816115b0565b6040519283926040845260408401906110c5565b90151560208301520390a1005b91906080808483031261043557604093845192611ff784610343565b839561200283610450565b855267ffffffffffffffff936020848101358681116104355785019184601f840112156104355782359261203584610c93565b936120428651958661035f565b808552838086019160071b83010191878311610435578401905b82821061209e5750505050860152808301358481116104355782612081918501610cab565b90850152606082013592831161043557606092610f2592016107dd565b83828903126104355784849188516120b581610343565b843581528285013583820152898501358a8201526060808601359082015281520191019061205c565b346104355760203660031901126104355760043567ffffffffffffffff8111610435576115a66121146020923690600401611fdb565b614b8c565b34610435576040806003193601126104355761213361041f565b90612175816001600160a01b03602435941693600090858252600660205282822081835260205282822054958252600560205282822090825260205220614442565b9161218982519383859485528401906117f9565b9060208301520390f35b3461043557600319602036820112610435576004359067ffffffffffffffff821161043557610140908236030112610435576121d390369060040161528d565b5a600160009160808401925b8351805182101561221a576122006121fa8361220493612e31565b51614b8c565b1590565b612211575b6001016121df565b60009250612209565b50508360009160a08201925b8351805182101561225d576122006122418361224793612e31565b516147d5565b612254575b600101612226565b6000945061224c565b50508360009160c08401925b835180518210156122a0576122006122848361228a93612e31565b5161547a565b612297575b600101612269565b6000925061228f565b50508360009160e08201925b835180518210156122e3576122006122c7836122cd93612e31565b51614135565b6122da575b6001016122ac565b600094506122d2565b50508360009160608401925b835180518210156123265761220061230a8361231093612e31565b51613c6f565b61231d575b6001016122ef565b60009250612315565b610fce848461012089019081518015159081612384575b50612357575b505060405190151581529081906020820190565b600161237161236a61237b935a90612cc7565b9351611b27565b5001918254612db0565b90558280612343565b6123af91506123956123a391611b27565b50546001600160a01b031690565b6001600160a01b031690565b33148561233d565b34610435576020366003190112610435576123d061041f565b6001600160a01b0380821661242561241b600094838652856020526124026123fd6040882060ff90541690565b6153ba565b6001600160a01b03166000526000602052604060002090565b805460ff19169055565b825b600154808210156124d3578284612453612440856125d1565b90546001600160a01b039160031b1c1690565b16146124625750600101612427565b6124a492935061247f61244061247a61248593612cb3565b6125d1565b916125d1565b9091906001600160a01b038084549260031b9316831b921b1916179055565b6124ac615405565b7f67c5a35d33d48c47ef33c82c62eda6254aad034fab4c51abe26a6d06ad174a348280a280f35b505090506124ac565b91909160c081840312610435576124f16103de565b926124fb82610450565b8452602082013560208501526040820135604085015260608201356060850152608082013567ffffffffffffffff90818111610435578261253d9185016107dd565b608086015260a08301359081116104355761255892016107dd565b60a0830152565b346104355760203660031901126104355760043567ffffffffffffffff8111610435576115a661259560209236906004016124dc565b61547a565b60095481101561142e5760096000527f6e1540171b6c0c960b71a7020d9f60077f6af931a8bbf590da0223dacf75c7af0190600090565b60015481101561142e5760016000527fb10e2d527612073b26eecdfd717e6a320cf44b4afac2b0732d9fcbe2b7fa0cf60190600090565b3461043557602036600319011261043557600435600154811015610435576001600160a01b0360209160016000527fb10e2d527612073b26eecdfd717e6a320cf44b4afac2b0732d9fcbe2b7fa0cf6015416604051908152f35b34610435576020366003190112610435576004356009548110156104355760209060096000527f6e1540171b6c0c960b71a7020d9f60077f6af931a8bbf590da0223dacf75c7af0154604051908152f35b9181601f840112156104355782359167ffffffffffffffff8311610435576020838186019501011161043557565b346104355760a0366003190112610435576126fa61041f565b5061270361043a565b5060843567ffffffffffffffff8111610435576127249036906004016126b3565b505060206040517ff23a6e61000000000000000000000000000000000000000000000000000000008152f35b34610435576040366003190112610435576001600160a01b0361277161041f565b16600052600260205260406000206024356000526020526020604060002054604051908152f35b346104355760803660031901126104355767ffffffffffffffff600435818111610435576127ca9036906004016126b3565b906127d361043a565b92604435908111610435576127ec9036906004016126b3565b9091606435936001600160a01b038096169384600052600060205260409460ff866000205416156129e357908561287f94939281516020810190612846816128388d898b304689615664565b03601f19810183528261035f565b51902090825180809881947f8aad06280000000000000000000000000000000000000000000000000000000083528b88600485016156d9565b03915afa90811561065557610fce9888926000968960009261296f575b50509261293f6128ee7fbd6e57133956b4a3944b483a9e595b4aab16071cf15a39384fdb1b7015865aab979461294d97946128d961294898615708565b6128e48b1515615753565b8a169a36916107a6565b602081519101209861292661291f612919836001600160a01b0316600052600a602052604060002090565b54612d94565b841461579e565b6001600160a01b0316600052600a602052604060002090565b5581019061580f565b615b7c565b8451958652801515602087015294604090a35190151581529081906020820190565b6128d998506129489592507fbd6e57133956b4a3944b483a9e595b4aab16071cf15a39384fdb1b7015865aab979461294d97946129c861293f94846128ee95903d106129dc575b6129c0818361035f565b8101906156bd565b9b909b95985050949750949750508961289c565b503d6129b6565b6064865162461bcd60e51b815260206004820152601560248201527f50726f7669646572206e6f7420617070726f76656400000000000000000000006044820152fd5b34610435576020366003190112610435576001600160a01b03612a4761041f565b1660005260076020526020604060002054604051908152f35b6020808201908083528351809252604092604081018260408560051b840101960194600080935b868510612a9957505050505050505090565b9091929394959697603f198282030185528689518160806060948286820194818151805185520151828401520151958982015285518094520193019085905b87818310612afa5750505050806001929a019501950193969594929190612a87565b83958560019496939551805183520151838201520194019201899291612ad8565b3461043557606036600319011261043557612b3461041f565b67ffffffffffffffff60243581811161043557612b55903690600401611791565b9060443590811161043557612b6f83913690600401610cab565b612b79835161584e565b906000906000905b8551821015612c4457612ba0612b9a61199f8489612e31565b86613844565b94612baa8661085b565b93612bb583516158b5565b94612bc7612bc16103a2565b91615905565b815260209586820152612bda8588612e31565b52612be58487612e31565b50805b8351811015612c335780612c2c8189612c228a612c198b8f8c611a1f60019b611a83612c1394610835565b94612e31565b51015191615905565b611abb8383612e31565b5001612be8565b509095509250600190910190612b81565b60405180610fce8682612a60565b15612c5957565b606460405162461bcd60e51b815260206004820152601260248201527f4e6f7420656e6f756768207265736572766500000000000000000000000000006044820152fd5b634e487b7160e01b600052601160045260246000fd5b600019810191908211612cc257565b612c9d565b91908203918211612cc257565b6040513d6000823e3d90fd5b9081602091031261043557516107f8816115b0565b1561043557565b6009546801000000000000000081101561030e57600181018060095581101561142e5760096000527f6e1540171b6c0c960b71a7020d9f60077f6af931a8bbf590da0223dacf75c7af0155565b15612d5057565b606460405162461bcd60e51b815260206004820152600460248201527f4661696c000000000000000000000000000000000000000000000000000000006044820152fd5b9060018201809211612cc257565b9060148201809211612cc257565b91908201809211612cc257565b61130f90612dfa7fe8407a0209fa99ec3a7228aff140c3d3e68bd279391739c7e0b65cd406cc93b5936040519384936040855260408501906110c5565b0390a1565b90612e0982610c93565b612e16604051918261035f565b8281528092612e27601f1991610c93565b0190602036910137565b805182101561142e5760209160051b010190565b91909160008382019384129112908015821691151617612cc257565b602090818184031261043557805167ffffffffffffffff9182821161043557019083601f83011215610435578151612e9881610c93565b94604092612ea9604051978861035f565b828752858088019360051b8601019482861161043557868101935b868510612ed657505050505050505090565b84518381116104355782019084603f83011215610435578882015190612efb8261078a565b612f078951918261035f565b8281528689848601011161043557612f288b949385948b86850191016107fb565b815201940193612ec4565b60209081818403126104355780519067ffffffffffffffff821161043557019180601f84011215610435578251612f6981610c93565b93612f77604051958661035f565b818552838086019260051b820101928311610435578301905b828210612f9e575050505090565b81518152908301908301612f90565b90815180825260208080930193019160005b828110612fcd575050505090565b835185529381019392810192600101612fbf565b9261300d6107f89593612fff61301b94608088526080880190612fad565b9086820360208801526110c5565b9084820360408601526110c5565b9160608184039101526110c5565b81810392916000138015828513169184121617612cc257565b7f80000000000000000000000000000000000000000000000000000000000000008114612cc25760000390565b6040519061307c82610327565b600c82527f5570646174652064656c746100000000000000000000000000000000000000006020830152565b604051906130b582610327565b600982527f67657473206465627400000000000000000000000000000000000000000000006020830152565b604051906130ee82610327565b600482527f64656274000000000000000000000000000000000000000000000000000000006020830152565b634e487b7160e01b600052600060045260246000fd5b80546801000000000000000081101561030e5761315291600182018155611412565b6131975760016001600160a01b036020846103af955185550151169101906001600160a01b031673ffffffffffffffffffffffffffffffffffffffff19825416179055565b61311a565b6000198114612cc25760010190565b9294926001600160a01b0382811690821610156137ef57909493905b6040516bffffffffffffffffffffffff19606083811b8216602084015288901b16603482015260288152956131fd60488861035f565b613208845151612dff565b9460005b865181101561325b5760019061324a826132366132288d610835565b611a1f8560208d0151612e31565b0154613243838a51612e31565b5190612e45565b613254828a612e31565b520161320c565b50956132796132899198939492959860208082518301019101612e61565b9160208082518301019101612e61565b6000935b6040890151805186101561348357856132a591612e31565b51986132be6123a36123a38c516001600160a01b031690565b96600060208c0151986132d18988612e31565b51906132dd8a88612e31565b519a838d61331a6040519e8f96879586947f18c323f200000000000000000000000000000000000000000000000000000000865260048601612fe1565b03925af197881561065557600098613460575b50875189510361344f5798996040019860005b8a51805182101561343257908961337e8c61337761336d61336386600198612e31565b5194855190612e31565b5191845190612e31565b5190613029565b600081139081613424575b81156133fd575b81156133f4575b506133ee576133ac6133a761306f565b615923565b6133c16133bb8d835190612e31565b5161596f565b6133cf6133bb82518d612e31565b6133e66133dd82518d612e31565b5191518d612e31565b525b01613340565b506133e8565b90501538613397565b9050600081128061340f575b90613390565b5061341981613042565b604083015110613409565b602083015181119150613389565b5050949298509460019196509892985b019397919690929461328d565b949298939950946001919650613442565b61347c91983d8091833e613474818361035f565b810190612f33565b963861332d565b509350505092919460005b83518110156137c057806135646135586134c68a848a6134dc8b6134cd6134bb60019b60208e0151612e31565b519687958693612e31565b5193610835565b90600052602052604060002090565b8a600083128015806137b5575b1561356a57506135326109fe93859361351f61354c976134cd6134cd966001600160a01b03166000526002602052604060002090565b61352a838254612db0565b905554612cc7565b946001600160a01b03166000526002602052604060002090565b90555b6134cd89610835565b60016000918281550155565b0161348e565b91949192905082156137ae57815b83156137a857508b925b156137985761359090613042565b8094546135b76109fe866134cd866001600160a01b03166000526002602052604060002090565b90556135ca836135c56130a8565b6137f6565b6135db816135d66130e1565b614962565b806135fd856134cd866001600160a01b03166000526002602052604060002090565b541061365d5750916134cd61058592613630836134cd613656976001600160a01b03166000526002602052604060002090565b61363b878254612db0565b90556001600160a01b03166000526002602052604060002090565b905561354f565b906136ed949161368884956134cd6136d4966001600160a01b03166000526002602052604060002090565b546136f7575b506136cf6136b3876134cd876001600160a01b03166000526005602052604060002090565b916136bc6103a2565b9384526001600160a01b03166020840152565b613130565b6001600160a01b03166000526007602052604060002090565b613656815461319c565b61376d91925061371e876134cd876001600160a01b03166000526002602052604060002090565b546137436109fe896134cd876001600160a01b03166000526002602052604060002090565b9055613766876134cd876001600160a01b03166000526002602052604060002090565b5490612cc7565b906000613791876134cd876001600160a01b03166000526002602052604060002090565b553861368e565b84546137a391612cc7565b613590565b92613582565b8b91613578565b5082548411156134e9565b505050506137de919250600060016137d78361085b565b015561085b565b6137e8815461319c565b9055600190565b94906131c7565b613838907f62ddffe5b5108385f7a590f100e1ee414ad9551a31f089e64e82998440785e1e926001600160a01b036040519384936040855260408501906110c5565b911660208301520390a1565b6001600160a01b03828116908216101561388e576040516bffffffffffffffffffffffff19606092831b811660208301529290911b90911660348201526107f88160488101612838565b6040516bffffffffffffffffffffffff19606093841b811660208301529190921b1660348201526107f88160488101612838565b906131975760018160008093550155565b80549060009060008155826138e757505050565b6001907f7fffffffffffffffffffffffffffffffffffffffffffffffffffffffffffffff84168403612cc25760005260206000209260011b8301925b8381106139305750505050565b808360029255838382015501613923565b8015612cc2576000190190565b9091613971836134cd846001600160a01b03166000526005602052604060002090565b54928315613b7d5761399a816134cd856001600160a01b03166000526002602052604060002090565b54906139bd816134cd866001600160a01b03166000526006602052604060002090565b54948215613b6d57945b6139f1816139ec846134cd896001600160a01b03166000526005602052604060002090565b611412565b5080549093908110613b2057613a276109fe846134cd6112376001613a188a548098612cc7565b9901546001600160a01b031690565b9055613a57613a51826139ec856134cd8a6001600160a01b03166000526005602052604060002090565b906138c2565b85613a6182612d94565b14613a9f57613a6f9061319c565b94613a8d856001600160a01b03166000526007602052604060002090565b613a978154613941565b9055946139c7565b506134cd92945092613b1a6107f89460009483613adc613ad7846134cd8a986001600160a01b03166000526005602052604060002090565b6138d3565b84955b613b00846134cd846001600160a01b03166000526002602052604060002090565b556001600160a01b03166000526006602052604060002090565b55612cc7565b916134cd6107f89685613b6485989a9796613b50866134cd6112376001613b1a9b9c01546001600160a01b031690565b613b5b828254612db0565b90558254612cc7565b90556000613adf565b9150506107f89250929092612cc7565b50915050600090565b600154906801000000000000000082101561030e57600182018060015582101561142e576103af9160016000527fb10e2d527612073b26eecdfd717e6a320cf44b4afac2b0732d9fcbe2b7fa0cf601906001600160a01b031673ffffffffffffffffffffffffffffffffffffffff19825416179055565b60405190613c0a82610327565b601082527f4e6f7420656e6f7567682066756e6473000000000000000000000000000000006020830152565b60405190613c4382610327565b601582527f4465706f736974656420746f206368616e6e656c2000000000000000000000006020830152565b80519160209060208301613c8a81516001600160a01b031690565b92613c95863361394e565b5060009360005b604080880180518051841015613e2a57613cd384613ccc613cbe828a95612e31565b51516001600160a01b031690565b9351612e31565b51015190613cf181613cec89516001600160a01b031690565b613844565b9282613d148d6134cd336001600160a01b03166000526002602052604060002090565b5410613e12576134cd84613df6948a8f94613ded968b613de5887f8a1fa734614ce1b935d8439d18b23444fb921bb370ec43ca8246788c4ee27f839460019e9d8f90836134cd613d6392610835565b613d84846134cd336001600160a01b03166000526002602052604060002090565b613d8f8b8254612cc7565b9055613db0613d9f8b8354612db0565b998a8355516001600160a01b031690565b6001600160a01b039788169a9088168b11613dfc575b5001549051968752602087015260408601529116929081906060820190565b0390a3610835565b546135d6613c36565b01613c9c565b613e0a838301918254612e45565b905538613dc6565b5050505050505050925090506107f8336135c5613bfd565b5050505050505092505050600190565b15613e4157565b606460405162461bcd60e51b815260206004820152601160248201527f44697370757465206e6f7420666f756e640000000000000000000000000000006044820152fd5b15613e8c57565b606460405162461bcd60e51b815260206004820152601460248201527f4469737075746520706572696f6420656e6465640000000000000000000000006044820152fd5b90602090818352805191613ef06060936060838701526080860190612fad565b9181810151601f1990613f0f6040958692848a830301848b0152612fad565b92015195606082828503019101528551938483528383019184808760051b8601019801966000916000955b888710613f4e575050505050505050505090565b9091929394959697989982828203018752888b516001600160a01b03815116835287613f85838301518885870152888601906110c5565b910151928881830391015281808451928381520193019087905b87818310613fc35750505050806001929c0197019701959897969493929190613f3a565b83958b6001949693955180518352848101518584015201518c82015201940192018b9291613f9f565b15613ff357565b606460405162461bcd60e51b815260206004820152601160248201527f496e76616c69642070726f6f66626f64790000000000000000000000000000006044820152fd5b90926140576080939695946002845260a0602085015260a08401906110c5565b95604083015260608201520152565b6040519061407382610327565b600b82527f656e636f6465645f6d73670000000000000000000000000000000000000000006020830152565b156140a657565b606460405162461bcd60e51b815260206004820152600e60248201527f496e76616c6964207369676e65720000000000000000000000000000000000006044820152fd5b156140f157565b606460405162461bcd60e51b815260206004820152601960248201527f4e6577206e6f6e6365206d7573742062652067726561746572000000000000006044820152fd5b6142e39061415361414d82516001600160a01b031690565b33613844565b81602080820151604083019081519460c08501916141718351151590565b606087016141f7815199886141cc60808c01958c60a0885191019e8f518581519101209260405196879687019b8c9492909160a196949286526020860152151560f81b60408501526041840152606183015260818201520190565b03946141e0601f199687810184528361035f565b60016141eb8861085b565b01549151902014613e3a565b6101608801805151909590156142e957505050946142b99261428e614280614295946142776142c29a61012087015161423c6142488d60405192839182019485613ed0565b0384810183528261035f565b5190209a61426b61010060e08a015199019c8d516040519a8b9485019788614037565b0390810187528661035f565b845190206159af565b92614289614066565b612dbd565b51906159f2565b6001600160a01b036142b16123a389516001600160a01b031690565b91161461409f565b519051116140ea565b81516001600160a01b031691610140610120820151910151915192336131ab565b50600190565b61436698506143399293979650614351955061435d945061430a9051151590565b6143266143216123a38d516001600160a01b031690565b331090565b901515149081159161436b575b50613e85565b51936101208801519360405193849182019586613ed0565b0390810183528261035f565b51902014613fec565b6142c2565b90505143101538614333565b9061438182610c93565b6040614390604051928361035f565b83825281936143a1601f1991610c93565b019160009160005b8481106143b7575050505050565b60209082516143c581610327565b858152826060818301528286010152016143a9565b906143e482610c93565b60406143f3604051928361035f565b8382528193614404601f1991610c93565b019160009060005b84811061441a575050505050565b6020908451614428816102f2565b84815282858183015260608783015282850101520161440c565b90815461444e81610c93565b9260409361445f604051918261035f565b82815280946020809201926000526020600020906000935b85851061448657505050505050565b600284600192845161449781610327565b865481526001600160a01b03858801541683820152815201930194019391614477565b90601f81116144c857505050565b6000916000526020600020906020601f850160051c83019410614506575b601f0160051c01915b8281106144fb57505050565b8181556001016144ef565b90925082906144e6565b90600854916801000000000000000083101561030e5761453860019360018101600855611b27565b613197578151815473ffffffffffffffffffffffffffffffffffffffff19166001600160a01b03919091161781556040600260209260208501516001820155019201519384519167ffffffffffffffff831161030e576145a28361459c8654611b62565b866144ba565b602091601f84116001146145e657505081906145d79394956000926145db575b50508160011b916000199060031b1c19161790565b9055565b0151905038806145c2565b95601f929192198416966145ff86600052602060002090565b936000915b89831061463d5750505083600195969710614624575b505050811b019055565b015160001960f88460031b161c1916905538808061461a565b838501518655948501949381019391810191614604565b9091908061468a57509061467f9061466a6103b1565b33815290600060208301526040820152614510565b6107f8600854612cb3565b6001600160a01b0361469b82611b27565b50541633036104355760026146af82611b27565b5001835167ffffffffffffffff811161030e576146d6816146d08454611b62565b846144ba565b602080601f831160011461470f5750819061470a939495966000926145db5750508160011b916000199060031b1c19161790565b905590565b90601f1983169661472585600052602060002090565b926000905b898210614764575050836001959697981061474b575b505050811b01905590565b015160001960f88460031b161c19169055388080614740565b8060018596829496860151815501950193019061472a565b6040519061478982610327565b600e82527f52656365697665642070726f6f660000000000000000000000000000000000006020830152565b90926140576080939695946001845260a0602085015260a08401906110c5565b906000916147ed61414d82516001600160a01b031690565b906147f96133a761477c565b6149376149316020926149238482016148ba6148af888351986148436040519a8b6148278482019283613ed0565b039b61483b601f199d8e810183528261035f565b519020615b3c565b6148a7604088019a61485b8c51848151910120615b3c565b6148648461085b565b54926143518d895160405161488c816148808782019485613ed0565b0387810183528261035f565b519020905183815191012090604051968794850198896147b5565b5190206159af565b6080850151906159f2565b956148e36148d26123a386516001600160a01b031690565b6001600160a01b0380991614612cf5565b6148f960016148f18a61085b565b015415612cf5565b600060016149068a61085b565b015583516001600160a01b031691516060850151915192336131ab565b50516001600160a01b031690565b9261085b565b549116337fd0b75b3c0e860b4e521684a9e2379ff5904dcf126bad4bd8619cfb3ff2e81827600080a4565b61499c907f941296a39ea107bde685522318a4b6c2b544904a5dd82a512748ca2cf839bef7926040519283926040845260408401906110c5565b9060208301520390a1565b90949391600082526149c560209660a08885015260a08401906110c5565b604091604084015260609183820360608501528780875193848152019601926000915b838310614a075750505050506107f89394506080818403910152612fad565b845180518952808b01518b8a0152808201518983015282015188830152608090970196938901936001909201916149e8565b60405190614a4682610327565b600b82527f456e636f646564206d73670000000000000000000000000000000000000000006020830152565b60405190614a7f82610327565b600f82527f496e76616c6964207369676e65722000000000000000000000000000000000006020830152565b15614ab257565b606460405162461bcd60e51b815260206004820152601760248201527f4e6f7420656e6f756768207065657220726573657276650000000000000000006044820152fd5b15614afd57565b606460405162461bcd60e51b815260206004820152601960248201527f4e6f7420656e6f7567682073656e6465722072657365727665000000000000006044820152fd5b15614b4857565b606460405162461bcd60e51b815260206004820152601560248201527f4e6f7420656e6f75676820636f6c6c61746572616c00000000000000000000006044820152fd5b90614ba161414d83516001600160a01b031690565b614baa8161085b565b546020906020850193845195614bfd614bf4604094614beb60408501519a614bdd6040519c8d9260208401958d876149a7565b03601f1981018c528b61035f565b895190206159af565b97614289614a39565b80516001600160a01b03169660609760608301906001600160a01b03614c276123a38451866159f2565b911603614e4657505060009160005b87518051821015614e345790614c4e81600193612e31565b51878101805187811215614e135750614c79614c7187516001600160a01b031690565b83519061394e565b50614cb6614ca4614c9461123789516001600160a01b031690565b8451600052602052604060002090565b54614caf8351613042565b1115614aab565b614cc08151613042565b614cea610585614cda6112378a516001600160a01b031690565b8551600052602052604060002090565b90555b51614cfd88830191825190612e45565b87811315614de057614d1083513361394e565b50614d3d81614d3561052c336001600160a01b03166000526002602052604060002090565b541015614af6565b614d60610585614cda336001600160a01b03166000526002602052604060002090565b90555b805187811215614dc85750614d8f614d7d614c948c610835565b54614d888351613042565b1115614b41565b51614d9f610585614c948c610835565b90555b614dc083614db78d840151936105758d610835565b01918254612e45565b905501614c36565b9050614dd96109fe614c948c610835565b9055614da2565b614de990613042565b614e0c6109fe614cda336001600160a01b03166000526002602052604060002090565b9055614d63565b614e2d6109fe614cda6112378a516001600160a01b031690565b9055614ced565b50509650505050506137de915061085b565b93509350509450614e669350614e5e925051906159f2565b6135c5614a72565b600090565b81601f82011215610435578035906020614e8483610c93565b936040614e94604051968761035f565b8486528286019183606080970286010194818611610435578401925b858410614ec1575050505050505090565b8684830312610435578487918451614ed8816102f2565b614ee187610450565b815282870135838201528587013586820152815201930192614eb0565b81601f82011215610435578035906020614f1783610c93565b936040614f27604051968761035f565b8486528286019183606080970286010194818611610435578401925b858410614f54575050505050505090565b8684830312610435578487918451614f6b816102f2565b8635815282870135838201528587013586820152815201930192614f43565b81601f8201121561043557803591602091614fa484610c93565b93614fb2604051958661035f565b808552838086019160051b8301019280841161043557848301915b848310614fdd5750505050505090565b823567ffffffffffffffff8111610435578691614fff848480948901016114a2565b815201920191614fcd565b81601f820112156104355780359160209161502484610c93565b93615032604051958661035f565b808552838086019160051b8301019280841161043557848301915b84831061505d5750505050505090565b823567ffffffffffffffff811161043557869161507f84848094890101611fdb565b81520192019161504d565b81601f82011215610435578035916020916150a484610c93565b936150b2604051958661035f565b808552838086019160051b8301019280841161043557848301915b8483106150dd5750505050505090565b823567ffffffffffffffff81116104355786916150ff84848094890101611ca8565b8152019201916150cd565b81601f820112156104355780359160209161512484610c93565b93615132604051958661035f565b808552838086019160051b8301019280841161043557848301915b84831061515d5750505050505090565b823567ffffffffffffffff811161043557869161517f848480948901016124dc565b81520192019161514d565b81601f82011215610435578035916020916151a484610c93565b936151b2604051958661035f565b808552838086019160051b8301019280841161043557848301915b8483106151dd5750505050505090565b823567ffffffffffffffff81116104355786916151ff848480948901016115c5565b8152019201916151cd565b9080601f8301121561043557813591602061522484610c93565b93604093615235604051968761035f565b818652828087019260061b85010193818511610435578301915b84831061525f5750505050505090565b858383031261043557838691825161527681610327565b85358152828601358382015281520192019161524f565b91909161014081840312610435576152a36103fe565b9267ffffffffffffffff823581811161043557826152c2918501614e6b565b8552602083013581811161043557826152dc918501614efe565b6020860152604083013581811161043557826152f9918501614e6b565b604086015260608301358181116104355782615316918501614f8a565b60608601526080830135818111610435578261533391850161500a565b608086015260a0830135818111610435578261535091850161508a565b60a086015260c0830135818111610435578261536d91850161510a565b60c086015260e0830135818111610435578261538a91850161518a565b60e08601526101009182840135918211610435576153a991840161520a565b908401526101208091013590830152565b156153c157565b606460405162461bcd60e51b815260206004820152600c60248201527f4e6f7420617070726f76656400000000000000000000000000000000000000006044820152fd5b6001548015615464576000198101908082101561142e577fb10e2d527612073b26eecdfd717e6a320cf44b4afac2b0732d9fcbe2b7fa0cf59060016000520173ffffffffffffffffffffffffffffffffffffffff198154169055600155565b634e487b7160e01b600052603160045260246000fd5b805160009291906001600160a01b03166154949033613844565b61549d8161085b565b549160208101908151809411156154b390612cf5565b604081019283516060830195865160405191829160208301946154d7928787614037565b0391601f199283810183526154ec908361035f565b815190206154f9906159af565b90615502614066565b9061550c91612dbd565b608084015161551a916159f2565b93835161552d906001600160a01b031690565b6001600160a01b03166001600160a01b038096161461554b9061409f565b6155548361085b565b600101541561556290612cf5565b51958551918451615579906001600160a01b031690565b6001600160a01b0316331061558d43612da2565b92519860a08701998a51604051806020810192836155aa9161081e565b0386810182526155ba908261035f565b5190209060405195869460208601986155fb958a9492909160a196949286526020860152151560f81b60408501526041840152606183015260818201520190565b03908101825261560b908261035f565b519020906156189061085b565b60010155516001600160a01b0316915192519060405192169180339261563e90826110ea565b037f86e7f5b969eded08fe0ea342b2c89a9e5a6cfe6f5803bb3aa464668d728ff02191a4565b9192849360749695927f990f4c22d4b046a9a7d673c4a252b906cadd4f3290465e297f998c28a449652b855260208501526bffffffffffffffffffffffff199060601b1660408401526054830137019060548201520190565b919082604091031261043557602082519201516107f8816115b0565b9392918060609160209360408852816040890152838801376000828288010152601f8019910116850101930152565b1561570f57565b606460405162461bcd60e51b815260206004820152601760248201527f496e76616c69642048616e6b6f207369676e61747572650000000000000000006044820152fd5b1561575a57565b606460405162461bcd60e51b815260206004820152601e60248201527f4e6f20656e74697479207265636f76657265642066726f6d2048616e6b6f00006044820152fd5b156157a557565b608460405162461bcd60e51b815260206004820152602260248201527f496e76616c6964206e6f6e636520286d7573742062652073657175656e74696160448201527f6c290000000000000000000000000000000000000000000000000000000000006064820152fd5b9060208282031261043557813567ffffffffffffffff8111610435576107f8920161528d565b6040519061584282610327565b60006020838281520152565b9061585882610c93565b604090615868604051918261035f565b8381528093615879601f1991610c93565b019160005b83811061588b5750505050565b602090825161589981610327565b6158a1615835565b81528260608183015282860101520161587e565b906158bf82610c93565b6158cc604051918261035f565b82815280926158dd601f1991610c93565b019060005b8281106158ee57505050565b6020906158f9615835565b828285010152016158e2565b9060405161591281610327565b602060018294805484520154910152565b61283861596a6103af926040519283917f41304fac0000000000000000000000000000000000000000000000000000000060208401526020602484015260448301906110c5565b615cf4565b6103af90604051907f2d5b6cb900000000000000000000000000000000000000000000000000000000602083015260248201526024815261596a816102f2565b60405160208101917f19457468657265756d205369676e6564204d6573736167653a0a3332000000008352603c820152603c81526159ec816102f2565b51902090565b906041815103615af8576020810151916060604083015192015160001a907f7fffffffffffffffffffffffffffffff5d576e7357a4501ddfe92f46681b20a08311615aa957615a7a600093602095601b85148015615a9f575b615a5490615d0f565b604051948594859094939260ff6060936080840197845216602083015260408201520152565b838052039060015afa15610655576000516107f86001600160a01b0382161515615d65565b50601c8514615a4b565b608460405162461bcd60e51b815260206004820152602260248201527f45434453413a20696e76616c6964207369676e6174757265202773272076616c604482015261756560f01b6064820152fd5b606460405162461bcd60e51b815260206004820152601f60248201527f45434453413a20696e76616c6964207369676e6174757265206c656e677468006044820152fd5b6103af90604051907f27b7cf8500000000000000000000000000000000000000000000000000000000602083015260248201526024815261596a816102f2565b905a90600160005b60808501518051821015615bb8576122006121fa83615ba293612e31565b615baf575b600101615b84565b60009150615ba7565b505091909260005b60a08201518051821015615bf45761220061224183615bde93612e31565b615beb575b600101615bc0565b60009350615be3565b505091909260005b60c08401518051821015615c305761220061228483615c1a93612e31565b615c27575b600101615bfc565b60009250615c1f565b505091909260005b60e08301518051821015615c6c576122006122c783615c5693612e31565b615c63575b600101615c38565b60009450615c5b565b505091909260005b60608501518051821015615ca85761220061230a83615c9293612e31565b615c9f575b600101615c74565b60009150615c97565b5050919092610120019081518015159081615cdb575b50615cc857505090565b600161237161236a61470a935a90612cc7565b615cec91506123956123a391611b27565b331438615cbe565b600080916020815191016a636f6e736f6c652e6c6f675afa50565b15615d1657565b608460405162461bcd60e51b815260206004820152602260248201527f45434453413a20696e76616c6964207369676e6174757265202776272076616c604482015261756560f01b6064820152fd5b15615d6c57565b606460405162461bcd60e51b815260206004820152601860248201527f45434453413a20696e76616c6964207369676e617475726500000000000000006044820152fdfea2646970667358221220173aa138f2459f15087f9ff0b38d9a844390e8a47c4429d6d0a3a9386fae64bf64736f6c63430008180033",
  "linkReferences": {},
  "deployedLinkReferences": {}
}