{
  "_format": "hh-sol-artifact-1",
  "contractName": "Depository",
  "sourceName": "contracts/Depository.sol",
  "abi": [
    {
      "inputs": [],
      "stateMutability": "nonpayable",
      "type": "constructor"
    },
    {
      "anonymous": false,
      "inputs": [
        {
          "components": [
            {
              "internalType": "bytes32",
              "name": "left",
              "type": "bytes32"
            },
            {
              "internalType": "bytes32",
              "name": "right",
              "type": "bytes32"
            },
            {
              "internalType": "uint256",
              "name": "tokenId",
              "type": "uint256"
            },
            {
              "internalType": "uint256",
              "name": "leftReserve",
              "type": "uint256"
            },
            {
              "internalType": "uint256",
              "name": "rightReserve",
              "type": "uint256"
            },
            {
              "internalType": "uint256",
              "name": "collateral",
              "type": "uint256"
            },
            {
              "internalType": "int256",
              "name": "ondelta",
              "type": "int256"
            }
          ],
          "indexed": false,
          "internalType": "struct Depository.Settled[]",
          "name": "",
          "type": "tuple[]"
        }
      ],
      "name": "ChannelSettled",
      "type": "event"
    },
    {
      "anonymous": false,
      "inputs": [
        {
          "indexed": true,
          "internalType": "bytes32",
          "name": "sender",
          "type": "bytes32"
        },
        {
          "indexed": true,
          "internalType": "bytes32",
          "name": "counterentity",
          "type": "bytes32"
        },
        {
          "indexed": true,
          "internalType": "uint256",
          "name": "cooperativeNonce",
          "type": "uint256"
        }
      ],
      "name": "CooperativeClose",
      "type": "event"
    },
    {
      "anonymous": false,
      "inputs": [
        {
          "indexed": true,
          "internalType": "bytes32",
          "name": "sender",
          "type": "bytes32"
        },
        {
          "indexed": true,
          "internalType": "bytes32",
          "name": "counterentity",
          "type": "bytes32"
        },
        {
          "indexed": true,
          "internalType": "uint256",
          "name": "disputeNonce",
          "type": "uint256"
        },
        {
          "indexed": false,
          "internalType": "bytes",
          "name": "initialArguments",
          "type": "bytes"
        }
      ],
      "name": "DisputeStarted",
      "type": "event"
    },
    {
      "anonymous": false,
      "inputs": [
        {
          "indexed": true,
          "internalType": "address",
          "name": "provider",
          "type": "address"
        }
      ],
      "name": "EntityProviderAdded",
      "type": "event"
    },
    {
      "anonymous": false,
      "inputs": [
        {
          "indexed": true,
          "internalType": "address",
          "name": "provider",
          "type": "address"
        }
      ],
      "name": "EntityProviderRemoved",
      "type": "event"
    },
    {
      "anonymous": false,
      "inputs": [
        {
          "indexed": false,
          "internalType": "string",
          "name": "",
          "type": "string"
        },
        {
          "indexed": false,
          "internalType": "address",
          "name": "",
          "type": "address"
        }
      ],
      "name": "LogAddress",
      "type": "event"
    },
    {
      "anonymous": false,
      "inputs": [
        {
          "indexed": false,
          "internalType": "string",
          "name": "",
          "type": "string"
        },
        {
          "indexed": false,
          "internalType": "bool",
          "name": "",
          "type": "bool"
        }
      ],
      "name": "LogBool",
      "type": "event"
    },
    {
      "anonymous": false,
      "inputs": [
        {
          "indexed": false,
          "internalType": "string",
          "name": "",
          "type": "string"
        },
        {
          "indexed": false,
          "internalType": "bytes",
          "name": "",
          "type": "bytes"
        }
      ],
      "name": "LogBytes",
      "type": "event"
    },
    {
      "anonymous": false,
      "inputs": [
        {
          "indexed": false,
          "internalType": "string",
          "name": "",
          "type": "string"
        },
        {
          "indexed": false,
          "internalType": "bytes32",
          "name": "",
          "type": "bytes32"
        }
      ],
      "name": "LogBytes32",
      "type": "event"
    },
    {
      "anonymous": false,
      "inputs": [
        {
          "indexed": false,
          "internalType": "string",
          "name": "",
          "type": "string"
        },
        {
          "indexed": false,
          "internalType": "int256",
          "name": "",
          "type": "int256"
        }
      ],
      "name": "LogInt",
      "type": "event"
    },
    {
      "anonymous": false,
      "inputs": [
        {
          "indexed": false,
          "internalType": "string",
          "name": "",
          "type": "string"
        },
        {
          "indexed": false,
          "internalType": "string",
          "name": "",
          "type": "string"
        }
      ],
      "name": "LogString",
      "type": "event"
    },
    {
      "anonymous": false,
      "inputs": [
        {
          "indexed": false,
          "internalType": "string",
          "name": "",
          "type": "string"
        },
        {
          "indexed": false,
          "internalType": "uint256",
          "name": "",
          "type": "uint256"
        }
      ],
      "name": "LogUint",
      "type": "event"
    },
    {
      "anonymous": false,
      "inputs": [
        {
          "indexed": true,
          "internalType": "bytes32",
          "name": "from",
          "type": "bytes32"
        },
        {
          "indexed": true,
          "internalType": "bytes32",
          "name": "to",
          "type": "bytes32"
        },
        {
          "indexed": true,
          "internalType": "uint256",
          "name": "tokenId",
          "type": "uint256"
        },
        {
          "indexed": false,
          "internalType": "uint256",
          "name": "amount",
          "type": "uint256"
        }
      ],
      "name": "ReserveTransferred",
      "type": "event"
    },
    {
      "anonymous": false,
      "inputs": [
        {
          "indexed": true,
          "internalType": "bytes32",
          "name": "entity",
          "type": "bytes32"
        },
        {
          "indexed": true,
          "internalType": "uint256",
          "name": "tokenId",
          "type": "uint256"
        },
        {
          "indexed": false,
          "internalType": "uint256",
          "name": "newBalance",
          "type": "uint256"
        }
      ],
      "name": "ReserveUpdated",
      "type": "event"
    },
    {
      "anonymous": false,
      "inputs": [
        {
          "indexed": true,
          "internalType": "bytes32",
          "name": "leftEntity",
          "type": "bytes32"
        },
        {
          "indexed": true,
          "internalType": "bytes32",
          "name": "rightEntity",
          "type": "bytes32"
        },
        {
          "indexed": true,
          "internalType": "uint256",
          "name": "tokenId",
          "type": "uint256"
        },
        {
          "indexed": false,
          "internalType": "uint256",
          "name": "leftReserve",
          "type": "uint256"
        },
        {
          "indexed": false,
          "internalType": "uint256",
          "name": "rightReserve",
          "type": "uint256"
        },
        {
          "indexed": false,
          "internalType": "uint256",
          "name": "collateral",
          "type": "uint256"
        },
        {
          "indexed": false,
          "internalType": "int256",
          "name": "ondelta",
          "type": "int256"
        }
      ],
      "name": "SettlementProcessed",
      "type": "event"
    },
    {
      "anonymous": false,
      "inputs": [
        {
          "indexed": true,
          "internalType": "bytes32",
          "name": "receivingEntity",
          "type": "bytes32"
        },
        {
          "indexed": true,
          "internalType": "bytes32",
          "name": "counterentity",
          "type": "bytes32"
        },
        {
          "indexed": false,
          "internalType": "uint256",
          "name": "collateral",
          "type": "uint256"
        },
        {
          "indexed": false,
          "internalType": "int256",
          "name": "ondelta",
          "type": "int256"
        },
        {
          "indexed": false,
          "internalType": "uint256",
          "name": "tokenId",
          "type": "uint256"
        }
      ],
      "name": "TransferReserveToCollateral",
      "type": "event"
    },
    {
      "inputs": [
        {
          "internalType": "bytes32",
          "name": "",
          "type": "bytes32"
        }
      ],
      "name": "_activeDebts",
      "outputs": [
        {
          "internalType": "uint256",
          "name": "",
          "type": "uint256"
        }
      ],
      "stateMutability": "view",
      "type": "function"
    },
    {
      "inputs": [
        {
          "internalType": "bytes",
          "name": "",
          "type": "bytes"
        }
      ],
      "name": "_channels",
      "outputs": [
        {
          "internalType": "uint256",
          "name": "cooperativeNonce",
          "type": "uint256"
        },
        {
          "internalType": "bytes32",
          "name": "disputeHash",
          "type": "bytes32"
        }
      ],
      "stateMutability": "view",
      "type": "function"
    },
    {
      "inputs": [
        {
          "internalType": "bytes",
          "name": "",
          "type": "bytes"
        },
        {
          "internalType": "uint256",
          "name": "",
          "type": "uint256"
        }
      ],
      "name": "_collaterals",
      "outputs": [
        {
          "internalType": "uint256",
          "name": "collateral",
          "type": "uint256"
        },
        {
          "internalType": "int256",
          "name": "ondelta",
          "type": "int256"
        }
      ],
      "stateMutability": "view",
      "type": "function"
    },
    {
      "inputs": [
        {
          "internalType": "bytes32",
          "name": "",
          "type": "bytes32"
        },
        {
          "internalType": "uint256",
          "name": "",
          "type": "uint256"
        }
      ],
      "name": "_debtIndex",
      "outputs": [
        {
          "internalType": "uint256",
          "name": "",
          "type": "uint256"
        }
      ],
      "stateMutability": "view",
      "type": "function"
    },
    {
      "inputs": [
        {
          "internalType": "bytes32",
          "name": "",
          "type": "bytes32"
        },
        {
          "internalType": "uint256",
          "name": "",
          "type": "uint256"
        },
        {
          "internalType": "uint256",
          "name": "",
          "type": "uint256"
        }
      ],
      "name": "_debts",
      "outputs": [
        {
          "internalType": "uint256",
          "name": "amount",
          "type": "uint256"
        },
        {
          "internalType": "bytes32",
          "name": "creditor",
          "type": "bytes32"
        }
      ],
      "stateMutability": "view",
      "type": "function"
    },
    {
      "inputs": [
        {
          "internalType": "uint256",
          "name": "",
          "type": "uint256"
        }
      ],
      "name": "_hubs",
      "outputs": [
        {
          "internalType": "bytes32",
          "name": "entityId",
          "type": "bytes32"
        },
        {
          "internalType": "uint256",
          "name": "gasused",
          "type": "uint256"
        },
        {
          "internalType": "string",
          "name": "uri",
          "type": "string"
        }
      ],
      "stateMutability": "view",
      "type": "function"
    },
    {
      "inputs": [
        {
          "internalType": "bytes32",
          "name": "",
          "type": "bytes32"
        },
        {
          "internalType": "uint256",
          "name": "",
          "type": "uint256"
        }
      ],
      "name": "_reserves",
      "outputs": [
        {
          "internalType": "uint256",
          "name": "",
          "type": "uint256"
        }
      ],
      "stateMutability": "view",
      "type": "function"
    },
    {
      "inputs": [
        {
          "internalType": "uint256",
          "name": "",
          "type": "uint256"
        }
      ],
      "name": "_tokens",
      "outputs": [
        {
          "internalType": "bytes32",
          "name": "",
          "type": "bytes32"
        }
      ],
      "stateMutability": "view",
      "type": "function"
    },
    {
      "inputs": [
        {
          "internalType": "address",
          "name": "provider",
          "type": "address"
        }
      ],
      "name": "addEntityProvider",
      "outputs": [],
      "stateMutability": "nonpayable",
      "type": "function"
    },
    {
      "inputs": [
        {
          "internalType": "address",
          "name": "",
          "type": "address"
        }
      ],
      "name": "approvedEntityProviders",
      "outputs": [
        {
          "internalType": "bool",
          "name": "",
          "type": "bool"
        }
      ],
      "stateMutability": "view",
      "type": "function"
    },
    {
      "inputs": [],
      "name": "debugBulkFundEntities",
      "outputs": [],
      "stateMutability": "nonpayable",
      "type": "function"
    },
    {
      "inputs": [
        {
          "internalType": "bytes32",
          "name": "entity",
          "type": "bytes32"
        },
        {
          "internalType": "uint256",
          "name": "tokenId",
          "type": "uint256"
        },
        {
          "internalType": "uint256",
          "name": "amount",
          "type": "uint256"
        }
      ],
      "name": "debugFundReserves",
      "outputs": [],
      "stateMutability": "nonpayable",
      "type": "function"
    },
    {
      "inputs": [
        {
          "internalType": "uint256",
          "name": "",
          "type": "uint256"
        }
      ],
      "name": "entityProvidersList",
      "outputs": [
        {
          "internalType": "address",
          "name": "",
          "type": "address"
        }
      ],
      "stateMutability": "view",
      "type": "function"
    },
    {
      "inputs": [
        {
          "internalType": "bytes32",
          "name": "",
          "type": "bytes32"
        }
      ],
      "name": "entityScores",
      "outputs": [
        {
          "internalType": "uint64",
          "name": "totalGasUsed",
          "type": "uint64"
        },
        {
          "internalType": "uint48",
          "name": "inDebtSince",
          "type": "uint48"
        },
        {
          "internalType": "uint32",
          "name": "totalActiveDebts",
          "type": "uint32"
        },
        {
          "internalType": "uint32",
          "name": "totalDisputes",
          "type": "uint32"
        },
        {
          "internalType": "uint32",
          "name": "successfulRepayments",
          "type": "uint32"
        },
        {
          "internalType": "uint32",
          "name": "cooperativeActions",
          "type": "uint32"
        }
      ],
      "stateMutability": "view",
      "type": "function"
    },
    {
      "inputs": [
        {
          "components": [
            {
              "internalType": "bytes32",
              "name": "entity",
              "type": "bytes32"
            },
            {
              "internalType": "bytes32",
              "name": "packedToken",
              "type": "bytes32"
            },
            {
              "internalType": "uint256",
              "name": "internalTokenId",
              "type": "uint256"
            },
            {
              "internalType": "uint256",
              "name": "amount",
              "type": "uint256"
            }
          ],
          "internalType": "struct Depository.ExternalTokenToReserve",
          "name": "params",
          "type": "tuple"
        }
      ],
      "name": "externalTokenToReserve",
      "outputs": [],
      "stateMutability": "nonpayable",
      "type": "function"
    },
    {
      "inputs": [],
      "name": "getApprovedProviders",
      "outputs": [
        {
          "internalType": "address[]",
          "name": "",
          "type": "address[]"
        }
      ],
      "stateMutability": "view",
      "type": "function"
    },
    {
      "inputs": [
        {
          "internalType": "address",
          "name": "entityProvider",
          "type": "address"
        },
        {
          "internalType": "uint256",
          "name": "externalTokenId",
          "type": "uint256"
        }
      ],
      "name": "getControlShareTokenId",
      "outputs": [
        {
          "internalType": "uint256",
          "name": "internalTokenId",
          "type": "uint256"
        }
      ],
      "stateMutability": "view",
      "type": "function"
    },
    {
      "inputs": [
        {
          "internalType": "bytes32",
          "name": "entity",
          "type": "bytes32"
        },
        {
          "internalType": "uint256",
          "name": "tokenId",
          "type": "uint256"
        }
      ],
      "name": "getDebts",
      "outputs": [
        {
          "components": [
            {
              "internalType": "uint256",
              "name": "amount",
              "type": "uint256"
            },
            {
              "internalType": "bytes32",
              "name": "creditor",
              "type": "bytes32"
            }
          ],
          "internalType": "struct Depository.Debt[]",
          "name": "allDebts",
          "type": "tuple[]"
        },
        {
          "internalType": "uint256",
          "name": "currentDebtIndex",
          "type": "uint256"
        }
      ],
      "stateMutability": "view",
      "type": "function"
    },
    {
      "inputs": [],
      "name": "getTokensLength",
      "outputs": [
        {
          "internalType": "uint256",
          "name": "",
          "type": "uint256"
        }
      ],
      "stateMutability": "view",
      "type": "function"
    },
    {
      "inputs": [
        {
          "internalType": "string",
          "name": "s",
          "type": "string"
        },
        {
          "internalType": "bytes",
          "name": "x",
          "type": "bytes"
        }
      ],
      "name": "log",
      "outputs": [],
      "stateMutability": "nonpayable",
      "type": "function"
    },
    {
      "inputs": [
        {
          "internalType": "string",
          "name": "s",
          "type": "string"
        },
        {
          "internalType": "address",
          "name": "x",
          "type": "address"
        }
      ],
      "name": "log",
      "outputs": [],
      "stateMutability": "nonpayable",
      "type": "function"
    },
    {
      "inputs": [
        {
          "internalType": "string",
          "name": "s",
          "type": "string"
        },
        {
          "internalType": "bytes32",
          "name": "x",
          "type": "bytes32"
        }
      ],
      "name": "log",
      "outputs": [],
      "stateMutability": "nonpayable",
      "type": "function"
    },
    {
      "inputs": [
        {
          "internalType": "string",
          "name": "s",
          "type": "string"
        },
        {
          "internalType": "int256",
          "name": "x",
          "type": "int256"
        }
      ],
      "name": "log",
      "outputs": [],
      "stateMutability": "nonpayable",
      "type": "function"
    },
    {
      "inputs": [
        {
          "internalType": "string",
          "name": "s",
          "type": "string"
        },
        {
          "internalType": "string",
          "name": "x",
          "type": "string"
        }
      ],
      "name": "log",
      "outputs": [],
      "stateMutability": "nonpayable",
      "type": "function"
    },
    {
      "inputs": [
        {
          "internalType": "string",
          "name": "s",
          "type": "string"
        },
        {
          "internalType": "uint256",
          "name": "x",
          "type": "uint256"
        }
      ],
      "name": "log",
      "outputs": [],
      "stateMutability": "nonpayable",
      "type": "function"
    },
    {
      "inputs": [
        {
          "internalType": "string",
          "name": "s",
          "type": "string"
        },
        {
          "internalType": "bool",
          "name": "x",
          "type": "bool"
        }
      ],
      "name": "log",
      "outputs": [],
      "stateMutability": "nonpayable",
      "type": "function"
    },
    {
      "inputs": [
        {
          "internalType": "bytes32",
          "name": "e1",
          "type": "bytes32"
        },
        {
          "internalType": "bytes32",
          "name": "e2",
          "type": "bytes32"
        }
      ],
      "name": "logChannel",
      "outputs": [],
      "stateMutability": "nonpayable",
      "type": "function"
    },
    {
      "inputs": [
        {
          "internalType": "uint8",
          "name": "tokenType",
          "type": "uint8"
        },
        {
          "internalType": "address",
          "name": "contractAddress",
          "type": "address"
        },
        {
          "internalType": "uint96",
          "name": "externalTokenId",
          "type": "uint96"
        }
      ],
      "name": "packTokenReference",
      "outputs": [
        {
          "internalType": "bytes32",
          "name": "",
          "type": "bytes32"
        }
      ],
      "stateMutability": "pure",
      "type": "function"
    },
    {
      "inputs": [
        {
          "internalType": "bytes32",
          "name": "counterpartyEntity",
          "type": "bytes32"
        },
        {
          "internalType": "uint256",
          "name": "tokenId",
          "type": "uint256"
        },
        {
          "internalType": "uint256",
          "name": "amount",
          "type": "uint256"
        }
      ],
      "name": "prefundAccount",
      "outputs": [
        {
          "internalType": "bool",
          "name": "",
          "type": "bool"
        }
      ],
      "stateMutability": "nonpayable",
      "type": "function"
    },
    {
      "inputs": [
        {
          "internalType": "bytes32",
          "name": "entity",
          "type": "bytes32"
        },
        {
          "components": [
            {
              "components": [
                {
                  "internalType": "bytes32",
                  "name": "receivingEntity",
                  "type": "bytes32"
                },
                {
                  "internalType": "uint256",
                  "name": "tokenId",
                  "type": "uint256"
                },
                {
                  "internalType": "uint256",
                  "name": "amount",
                  "type": "uint256"
                }
              ],
              "internalType": "struct Depository.ReserveToExternalToken[]",
              "name": "reserveToExternalToken",
              "type": "tuple[]"
            },
            {
              "components": [
                {
                  "internalType": "bytes32",
                  "name": "entity",
                  "type": "bytes32"
                },
                {
                  "internalType": "bytes32",
                  "name": "packedToken",
                  "type": "bytes32"
                },
                {
                  "internalType": "uint256",
                  "name": "internalTokenId",
                  "type": "uint256"
                },
                {
                  "internalType": "uint256",
                  "name": "amount",
                  "type": "uint256"
                }
              ],
              "internalType": "struct Depository.ExternalTokenToReserve[]",
              "name": "externalTokenToReserve",
              "type": "tuple[]"
            },
            {
              "components": [
                {
                  "internalType": "bytes32",
                  "name": "receivingEntity",
                  "type": "bytes32"
                },
                {
                  "internalType": "uint256",
                  "name": "tokenId",
                  "type": "uint256"
                },
                {
                  "internalType": "uint256",
                  "name": "amount",
                  "type": "uint256"
                }
              ],
              "internalType": "struct Depository.ReserveToReserve[]",
              "name": "reserveToReserve",
              "type": "tuple[]"
            },
            {
              "components": [
                {
                  "internalType": "uint256",
                  "name": "tokenId",
                  "type": "uint256"
                },
                {
                  "internalType": "bytes32",
                  "name": "receivingEntity",
                  "type": "bytes32"
                },
                {
                  "components": [
                    {
                      "internalType": "bytes32",
                      "name": "entity",
                      "type": "bytes32"
                    },
                    {
                      "internalType": "uint256",
                      "name": "amount",
                      "type": "uint256"
                    }
                  ],
                  "internalType": "struct Depository.AddrAmountPair[]",
                  "name": "pairs",
                  "type": "tuple[]"
                }
              ],
              "internalType": "struct Depository.ReserveToCollateral[]",
              "name": "reserveToCollateral",
              "type": "tuple[]"
            },
            {
              "components": [
                {
                  "internalType": "bytes32",
                  "name": "leftEntity",
                  "type": "bytes32"
                },
                {
                  "internalType": "bytes32",
                  "name": "rightEntity",
                  "type": "bytes32"
                },
                {
                  "components": [
                    {
                      "internalType": "uint256",
                      "name": "tokenId",
                      "type": "uint256"
                    },
                    {
                      "internalType": "int256",
                      "name": "leftDiff",
                      "type": "int256"
                    },
                    {
                      "internalType": "int256",
                      "name": "rightDiff",
                      "type": "int256"
                    },
                    {
                      "internalType": "int256",
                      "name": "collateralDiff",
                      "type": "int256"
                    },
                    {
                      "internalType": "int256",
                      "name": "ondeltaDiff",
                      "type": "int256"
                    }
                  ],
                  "internalType": "struct Depository.SettlementDiff[]",
                  "name": "diffs",
                  "type": "tuple[]"
                }
              ],
              "internalType": "struct Depository.Settlement[]",
              "name": "settlements",
              "type": "tuple[]"
            },
            {
              "components": [
                {
                  "internalType": "bytes32",
                  "name": "counterentity",
                  "type": "bytes32"
                },
                {
                  "components": [
                    {
                      "internalType": "uint256",
                      "name": "tokenId",
                      "type": "uint256"
                    },
                    {
                      "internalType": "int256",
                      "name": "peerReserveDiff",
                      "type": "int256"
                    },
                    {
                      "internalType": "int256",
                      "name": "collateralDiff",
                      "type": "int256"
                    },
                    {
                      "internalType": "int256",
                      "name": "ondeltaDiff",
                      "type": "int256"
                    }
                  ],
                  "internalType": "struct Depository.Diff[]",
                  "name": "diffs",
                  "type": "tuple[]"
                },
                {
                  "internalType": "uint256[]",
                  "name": "forgiveDebtsInTokenIds",
                  "type": "uint256[]"
                },
                {
                  "internalType": "bytes",
                  "name": "sig",
                  "type": "bytes"
                }
              ],
              "internalType": "struct Depository.CooperativeUpdate[]",
              "name": "cooperativeUpdate",
              "type": "tuple[]"
            },
            {
              "components": [
                {
                  "internalType": "bytes32",
                  "name": "counterentity",
                  "type": "bytes32"
                },
                {
                  "components": [
                    {
                      "internalType": "int256[]",
                      "name": "offdeltas",
                      "type": "int256[]"
                    },
                    {
                      "internalType": "uint256[]",
                      "name": "tokenIds",
                      "type": "uint256[]"
                    },
                    {
                      "components": [
                        {
                          "internalType": "address",
                          "name": "subcontractProviderAddress",
                          "type": "address"
                        },
                        {
                          "internalType": "bytes",
                          "name": "encodedBatch",
                          "type": "bytes"
                        },
                        {
                          "components": [
                            {
                              "internalType": "uint256",
                              "name": "deltaIndex",
                              "type": "uint256"
                            },
                            {
                              "internalType": "uint256",
                              "name": "rightAllowence",
                              "type": "uint256"
                            },
                            {
                              "internalType": "uint256",
                              "name": "leftAllowence",
                              "type": "uint256"
                            }
                          ],
                          "internalType": "struct Depository.Allowence[]",
                          "name": "allowences",
                          "type": "tuple[]"
                        }
                      ],
                      "internalType": "struct Depository.SubcontractClause[]",
                      "name": "subcontracts",
                      "type": "tuple[]"
                    }
                  ],
                  "internalType": "struct Depository.ProofBody",
                  "name": "proofbody",
                  "type": "tuple"
                },
                {
                  "internalType": "bytes",
                  "name": "initialArguments",
                  "type": "bytes"
                },
                {
                  "internalType": "bytes",
                  "name": "finalArguments",
                  "type": "bytes"
                },
                {
                  "internalType": "bytes",
                  "name": "sig",
                  "type": "bytes"
                }
              ],
              "internalType": "struct Depository.CooperativeDisputeProof[]",
              "name": "cooperativeDisputeProof",
              "type": "tuple[]"
            },
            {
              "components": [
                {
                  "internalType": "bytes32",
                  "name": "counterentity",
                  "type": "bytes32"
                },
                {
                  "internalType": "uint256",
                  "name": "cooperativeNonce",
                  "type": "uint256"
                },
                {
                  "internalType": "uint256",
                  "name": "disputeNonce",
                  "type": "uint256"
                },
                {
                  "internalType": "bytes32",
                  "name": "proofbodyHash",
                  "type": "bytes32"
                },
                {
                  "internalType": "bytes",
                  "name": "sig",
                  "type": "bytes"
                },
                {
                  "internalType": "bytes",
                  "name": "initialArguments",
                  "type": "bytes"
                }
              ],
              "internalType": "struct Depository.InitialDisputeProof[]",
              "name": "initialDisputeProof",
              "type": "tuple[]"
            },
            {
              "components": [
                {
                  "internalType": "bytes32",
                  "name": "counterentity",
                  "type": "bytes32"
                },
                {
                  "internalType": "uint256",
                  "name": "initialCooperativeNonce",
                  "type": "uint256"
                },
                {
                  "internalType": "uint256",
                  "name": "initialDisputeNonce",
                  "type": "uint256"
                },
                {
                  "internalType": "uint256",
                  "name": "disputeUntilBlock",
                  "type": "uint256"
                },
                {
                  "internalType": "bytes32",
                  "name": "initialProofbodyHash",
                  "type": "bytes32"
                },
                {
                  "internalType": "bytes",
                  "name": "initialArguments",
                  "type": "bytes"
                },
                {
                  "internalType": "bool",
                  "name": "startedByLeft",
                  "type": "bool"
                },
                {
                  "internalType": "uint256",
                  "name": "finalCooperativeNonce",
                  "type": "uint256"
                },
                {
                  "internalType": "uint256",
                  "name": "finalDisputeNonce",
                  "type": "uint256"
                },
                {
                  "components": [
                    {
                      "internalType": "int256[]",
                      "name": "offdeltas",
                      "type": "int256[]"
                    },
                    {
                      "internalType": "uint256[]",
                      "name": "tokenIds",
                      "type": "uint256[]"
                    },
                    {
                      "components": [
                        {
                          "internalType": "address",
                          "name": "subcontractProviderAddress",
                          "type": "address"
                        },
                        {
                          "internalType": "bytes",
                          "name": "encodedBatch",
                          "type": "bytes"
                        },
                        {
                          "components": [
                            {
                              "internalType": "uint256",
                              "name": "deltaIndex",
                              "type": "uint256"
                            },
                            {
                              "internalType": "uint256",
                              "name": "rightAllowence",
                              "type": "uint256"
                            },
                            {
                              "internalType": "uint256",
                              "name": "leftAllowence",
                              "type": "uint256"
                            }
                          ],
                          "internalType": "struct Depository.Allowence[]",
                          "name": "allowences",
                          "type": "tuple[]"
                        }
                      ],
                      "internalType": "struct Depository.SubcontractClause[]",
                      "name": "subcontracts",
                      "type": "tuple[]"
                    }
                  ],
                  "internalType": "struct Depository.ProofBody",
                  "name": "finalProofbody",
                  "type": "tuple"
                },
                {
                  "internalType": "bytes",
                  "name": "finalArguments",
                  "type": "bytes"
                },
                {
                  "internalType": "bytes",
                  "name": "sig",
                  "type": "bytes"
                }
              ],
              "internalType": "struct Depository.FinalDisputeProof[]",
              "name": "finalDisputeProof",
              "type": "tuple[]"
            },
            {
              "components": [
                {
                  "internalType": "uint256",
                  "name": "tokenId",
                  "type": "uint256"
                },
                {
                  "internalType": "uint256",
                  "name": "amount",
                  "type": "uint256"
                }
              ],
              "internalType": "struct Depository.TokenAmountPair[]",
              "name": "flashloans",
              "type": "tuple[]"
            },
            {
              "internalType": "uint256",
              "name": "hub_id",
              "type": "uint256"
            }
          ],
          "internalType": "struct Depository.Batch",
          "name": "batch",
          "type": "tuple"
        }
      ],
      "name": "processBatch",
      "outputs": [
        {
          "internalType": "bool",
          "name": "completeSuccess",
          "type": "bool"
        }
      ],
      "stateMutability": "nonpayable",
      "type": "function"
    },
    {
      "inputs": [
        {
          "internalType": "uint256",
          "name": "hub_id",
          "type": "uint256"
        },
        {
          "internalType": "string",
          "name": "new_uri",
          "type": "string"
        }
      ],
      "name": "registerHub",
      "outputs": [
        {
          "internalType": "uint256",
          "name": "",
          "type": "uint256"
        }
      ],
      "stateMutability": "nonpayable",
      "type": "function"
    },
    {
      "inputs": [
        {
          "internalType": "address",
          "name": "provider",
          "type": "address"
        }
      ],
      "name": "removeEntityProvider",
      "outputs": [],
      "stateMutability": "nonpayable",
      "type": "function"
    },
    {
      "inputs": [
        {
          "internalType": "bytes32",
          "name": "fromEntity",
          "type": "bytes32"
        },
        {
          "internalType": "bytes32",
          "name": "toEntity",
          "type": "bytes32"
        },
        {
          "internalType": "uint256",
          "name": "tokenId",
          "type": "uint256"
        },
        {
          "internalType": "uint256",
          "name": "amount",
          "type": "uint256"
        }
      ],
      "name": "reserveToReserve",
      "outputs": [
        {
          "internalType": "bool",
          "name": "",
          "type": "bool"
        }
      ],
      "stateMutability": "nonpayable",
      "type": "function"
    },
    {
      "inputs": [
        {
          "internalType": "bytes32",
          "name": "leftEntity",
          "type": "bytes32"
        },
        {
          "internalType": "bytes32",
          "name": "rightEntity",
          "type": "bytes32"
        },
        {
          "components": [
            {
              "internalType": "uint256",
              "name": "tokenId",
              "type": "uint256"
            },
            {
              "internalType": "int256",
              "name": "leftDiff",
              "type": "int256"
            },
            {
              "internalType": "int256",
              "name": "rightDiff",
              "type": "int256"
            },
            {
              "internalType": "int256",
              "name": "collateralDiff",
              "type": "int256"
            },
            {
              "internalType": "int256",
              "name": "ondeltaDiff",
              "type": "int256"
            }
          ],
          "internalType": "struct Depository.SettlementDiff[]",
          "name": "diffs",
          "type": "tuple[]"
        }
      ],
      "name": "settle",
      "outputs": [
        {
          "internalType": "bool",
          "name": "",
          "type": "bool"
        }
      ],
      "stateMutability": "nonpayable",
      "type": "function"
    },
    {
      "inputs": [
        {
          "internalType": "bytes32",
          "name": "",
          "type": "bytes32"
        }
      ],
      "name": "tokenToId",
      "outputs": [
        {
          "internalType": "uint256",
          "name": "",
          "type": "uint256"
        }
      ],
      "stateMutability": "view",
      "type": "function"
    },
    {
      "inputs": [
        {
          "internalType": "bytes32",
          "name": "packed",
          "type": "bytes32"
        }
      ],
      "name": "unpackTokenReference",
      "outputs": [
        {
          "internalType": "address",
          "name": "contractAddress",
          "type": "address"
        },
        {
          "internalType": "uint96",
          "name": "externalTokenId",
          "type": "uint96"
        },
        {
          "internalType": "uint8",
          "name": "tokenType",
          "type": "uint8"
        }
      ],
      "stateMutability": "pure",
      "type": "function"
    }
  ],
  "bytecode": "0x608034620003ef57600a5490680100000000000000009182811015620003d957600180820180600a55821015620003c357600093600a8552846020938482200155606084019360018060401b0381861081871117620003af57604095865286825284820190878252865191868301838110838211176200039b57885288835287840192835260095494851015620003735785850180600955851015620003875760098952868920600380960201935184555185840155600280930191518051918211620003735782548681811c9116801562000368575b8882101462000354579081601f849311620002ff575b508790601f83116001146200029b578a926200028f575b5050600019600383901b1c191690851b1790555b6200017c85516200012881620003f4565b603b81527f646562756742756c6b46756e64456e7469746965733a2066756e64696e672065868201527f6e74697469657320312d3230207769746820314d20746f6b656e7300000000008782015262000436565b825b6014811115620001e75785620001d9867f646562756742756c6b46756e64456e7469746965733a2066756e64696e672063835191620001bd83620003f4565b60278352820152666f6d706c65746560c81b8382015262000436565b51614a209081620004d58239f35b835b83811115620002045750620001fe9062000410565b6200017e565b8188528286528688208189528652868820805490670de0b6b3a764000082018092116200027b579062000275929155828952838752878920818a52875280837fab4d21442efe134c3d0c087e2b687e9593a1c09176f498d37873210cde052c45898b8d20548c51908152a362000410565b620001e9565b634e487b7160e01b8a52601160045260248afd5b01519050388062000103565b848b52888b208894509190601f1984168c5b8b828210620002e85750508411620002ce575b505050811b01905562000117565b015160001960f88460031b161c19169055388080620002c0565b8385015186558b97909501949384019301620002ad565b909150838a52878a20601f840160051c81019189851062000349575b84939291601f8a920160051c01915b8281106200033a575050620000ec565b8c81558594508991016200032a565b90915081906200031b565b634e487b7160e01b8a52602260045260248afd5b90607f1690620000d6565b634e487b7160e01b89526041600452602489fd5b634e487b7160e01b89526032600452602489fd5b634e487b7160e01b8a52604160045260248afd5b634e487b7160e01b87526041600452602487fd5b634e487b7160e01b600052603260045260246000fd5b634e487b7160e01b600052604160045260246000fd5b600080fd5b606081019081106001600160401b03821117620003d957604052565b6000198114620004205760010190565b634e487b7160e01b600052601160045260246000fd5b6040519060209082602081019263104c13eb60e21b84526020602483015282519283604484015260005b848110620004bc57505050808260006064601f9560839501015283199384910116810103604481018552011682019082821060018060401b03831117620003d957600092839260405251906a636f6e736f6c652e6c6f675afa50565b8181018301518782016064015286935082016200046056fe6080604052600436101561001257600080fd5b6000803560e01c80630dedd624146138a457806322c21577146135f057806323cdd8e81461357d578063266afe1b146134bd57806329ac1c4c1461333d57806331599c7d1461324a578063319af333146131c45780633692d61a1461316f5780633925cd4414612efd5780633ca6268e14612ea85780634174a93d14612e4e57806341e8379614612e395780634b5c427714612d9e57806358d642bc14612ca95780635ffefe5b14612afc5780636b79134d14612ad25780637508b91614612aa557806388a1cd7614612a5657806392cf61e5146129f0578063a034af42146129aa578063a09fd42b146128b2578063abc8d1ac14612876578063acd6f20814612849578063ad89991b146127d4578063b0c26ecf146127b6578063b60e72cc1461273f578063b9e94dd5146126f4578063bb2c250c14612676578063bfa4b7d91461260f578063c3b556351461258b578063d19fd92e14612561578063dd865c8b1461212e578063ddc3948014611fa0578063ec6d8e0614611f5d578063ed70554d14611f245763f0570b1b146101a957600080fd5b34611f21576003196040368201126114e3576001600160401b03602435116114e35761016060243560040191602435360301126114e3576101f06101eb61459d565b614900565b6101fb6101eb61459d565b6102066101eb61459d565b61024460405161021581613916565b601f81527f70726f6365737342617463682063616c6c6564207769746820656e74697479006020820152614900565b61024f600435614968565b61028d60405161025e81613916565b601d81527f62617463682e72657365727665546f526573657276652e6c656e6774680000006020820152614900565b6102a661029f604460243501836145d6565b90506149a9565b6102e46040516102b581613916565b600b81527f6d73672e73656e6465723a0000000000000000000000000000000000000000006020820152614900565b60008060405160208101907f2c2ecbc20000000000000000000000000000000000000000000000000000000082523360248201526024815261032581613944565b51906a636f6e736f6c652e6c6f675afa50610345604460243501826145d6565b9050611d26575b61038a60405161035b81613916565b601d81527f3d3d3d2043414c4c494e47205f70726f636573734261746368203d3d3d0000006020820152614900565b6040519061016082018281106001600160401b038211176116c357604052356001600160401b038111611cd8576024350136602382011215611cd8576103da90369060246004820135910161460b565b81526024803501356001600160401b038111611cd8576024350136602382011215611cd85760048101359061040e82613b3b565b9161041c6040519384613995565b80835260208301913660248360071b830101116114db579160248301925b60248360071b8201018410611cdc57505050506020820152604460243501356001600160401b038111611cd8576024350136602382011215611cd85761048a90369060246004820135910161460b565b60408201526001600160401b0360646024350135116114e3573660243560648101350160230112156114e357602435606481013501600401356104cc81613b3b565b906104da6040519283613995565b808252602082013660248360051b6064823501358235010101116114df576024803560648101350101905b60248360051b60648235013582350101018210611b9b5750505060608201526001600160401b0360846024350135116114e3573660243560848101350160230112156114e35761056060243560848101350160040135613b3b565b61056d6040519182613995565b60248035608481013501600481013580845260208401923660059290921b909201909101116116d9576024803560848101350101905b60248035608481013501600481013560051b01018210611b0357505060808201526001600160401b0360a46024350135116114e3573660243560a48101350160230112156114e35760243560a4810135016004013561060181613b3b565b9061060f6040519283613995565b808252602082013660248360051b60a4823501358235010101116114df576024803560a48101350101905b60248360051b60a4823501358235010101821061192d5750505060a08201526001600160401b0360c46024350135116114e3573660243560c48101350160230112156114e35760243560c4810135016004013561069681613b3b565b906106a46040519283613995565b808252602082013660248360051b60c4823501358235010101116114df576024803560c48101350101905b60248360051b60c482350135823501010182106117e65750505060c08201526001600160401b0360e46024350135116114e3573660243560e48101350160230112156114e35760243560e4810135016004013561072b81613b3b565b906107396040519283613995565b808252602082013660248360051b60e4823501358235010101116114df576024803560e48101350101905b60248360051b60e482350135823501010182106116dd5750505060e08201526001600160401b036101046024350135116114e357366024356101048101350160230112156114e3576107c26024356101048101350160040135613b3b565b6107cf6040519182613995565b6024803561010481013501600481013580845260208401923660059290921b909201909101116116d957602480356101048101350101905b6024803561010481013501600481013560051b010182106114e75750506101008201526001600160401b036101246024350135116114e357366024356101248101350160230112156114e357602435610124810135016004013561086a81613b3b565b906108786040519283613995565b80825260208201903660248260061b610124823501358235010101116114df57602480356101248101350101915b60248260061b61012482350135823501010183106114a657505050610120820152610144602435013561014082015261091d6040516108e481613944565b602181527f5f70726f636573734261746368207374617274696e6720666f7220656e7469746020820152607960f81b6040820152614900565b610928600435614968565b5a90600161099060405161093b81613944565b602c81527f50726f63657373696e672072657365727665546f52657365727665207472616e60208201527f736665727320636f756e743a00000000000000000000000000000000000000006040820152614900565b61099e6040830151516149a9565b83815b610ba3575b506109e56040516109b681613916565b601d81527f50726f63657373696e6720736574746c656d656e747320636f756e743a0000006020820152614900565b6109f36080830151516149a9565b835b60808301518051821015610acb57610a1082610ab592613ff8565b51610a4f604051610a2081613916565b601381527f536574746c656d656e74206265747765656e3a000000000000000000000000006020820152614900565b610a598151614968565b610a97604051610a6881613916565b600481527f616e643a000000000000000000000000000000000000000000000000000000006020820152614900565b6020810190610aa68251614968565b60408151925191015191614055565b15610ac3575b6001016109f5565b849150610abb565b85836001600160401b03610af888886101408101518015159081610b8d575b50610b5e575b505a90613c60565b166004358352600860205260408320908154906001600160401b03821601936001600160401b038511610b4a57506001600160401b0360209416906001600160401b0319161790556040519015158152f35b80634e487b7160e01b602492526011600452fd5b610b856001610b7b610140610b735a87613c60565b940151613a8b565b5001918254613c83565b905585610af0565b610b979150613a8b565b50546004351487610aea565b6040830151518110156114a157610bee604051610bbf81613916565b600f81527f5472616e7366657220696e6465783a00000000000000000000000000000000006020820152614900565b610bf7816149a9565b610c35604051610c0681613916565b600c81527f46726f6d20656e746974793a00000000000000000000000000000000000000006020820152614900565b610c40600435614968565b604051610c4c81613916565b610c80600a918281527f546f20656e746974793a000000000000000000000000000000000000000000006020820152614900565b610c98610c91836040870151613ff8565b5151614968565b604051610ca481613916565b610cd86009918281527f546f6b656e2049443a00000000000000000000000000000000000000000000006020820152614900565b610cf36020610ceb856040890151613ff8565b5101516149a9565b610d31604051610d0281613916565b600781527f416d6f756e743a000000000000000000000000000000000000000000000000006020820152614900565b610d436040610ceb8582890151613ff8565b610d51836040870151613ff8565b5191610d91604051610d6281613916565b601e81527f3d3d3d2072657365727665546f5265736572766520454e545259203d3d3d00006020820152614900565b610dcf604051610da081613916565b601d81527f72657365727665546f526573657276653a2066726f6d20656e746974790000006020820152614900565b610dda600435614968565b610e18604051610de981613916565b601b81527f72657365727665546f526573657276653a20746f20656e7469747900000000006020820152614900565b610e228351614968565b610e60604051610e3181613916565b601981527f72657365727665546f526573657276653a20746f6b656e4964000000000000006020820152614900565b610e6d60208401516149a9565b610eab604051610e7c81613916565b601881527f72657365727665546f526573657276653a20616d6f756e7400000000000000006020820152614900565b610eb860408401516149a9565b610ef6604051610ec781613916565b602081527f72657365727665546f526573657276653a2073656e6465722062616c616e63656020820152614900565b600435885260026020526040882060208401518952602052610f1b60408920546149a9565b610f59604051610f2a81613916565b601581527f3d3d3d2042414c414e434520434845434b203d3d3d00000000000000000000006020820152614900565b60043588526002602052604088206020840151895260205260408820546040840151111560001461138b575050610fc4604051610f9581613916565b601d81527f535543434553533a2042616c616e636520636865636b207061737365640000006020820152614900565b6004358652600260205260408620602082015187526020526040862054604082015111611321578291829161102d604051610ffe81613916565b601a81527f3d3d3d20455845435554494e47205452414e53464552203d3d3d0000000000006020820152614900565b6040810151600435895260026020526040892060208301518a5260205261105960408a20918254613c60565b905560408101518151895260026020526040892060208301518a5260205261108660408a20918254613c83565b90556110ec60405161109781613944565b602381527f72657365727665546f526573657276653a207472616e7366657220636f6d706c60208201527f65746500000000000000000000000000000000000000000000000000000000006040820152614900565b6111506040516110fb81613944565b602481527f72657365727665546f526573657276653a206e65772073656e6465722062616c60208201527f616e6365000000000000000000000000000000000000000000000000000000006040820152614900565b60043588526002602052604088206020820151895260205261117560408920546149a9565b6111d960405161118481613944565b602781527f72657365727665546f526573657276653a206e657720726563697069656e742060208201527f62616c616e6365000000000000000000000000000000000000000000000000006040820152614900565b80518852600260205260408820602082015189526020526111fd60408920546149a9565b6020810151600435895260026020526040892060208301518a526020526040892054906040519182527fab4d21442efe134c3d0c087e2b687e9593a1c09176f498d37873210cde052c459182602060043592a38151602083015191818b52600260205260408b2060208501518c52602052602060408c2054604051908152a38051604060208301519201516040519081527fae4812ebb7c47ac957e097b649541f0cd55d34b3576fb0db5739591d6f684367602060043592a461131a6040516112c581613944565b602181527f3d3d3d2072657365727665546f5265736572766520434f4d504c455445203d3d60208201527f3d000000000000000000000000000000000000000000000000000000000000006040820152614900565b01906109a1565b608460405162461bcd60e51b815260206004820152602160248201527f496e73756666696369656e742062616c616e636520666f72207472616e73666560448201527f72000000000000000000000000000000000000000000000000000000000000006064820152fd5b611430611477926113f66040516113a181613944565b602f81527f4641494c3a2042616c616e636520636865636b206661696c6564202d20696e7360208201527f756666696369656e742066756e647300000000000000000000000000000000006040820152614900565b6040519061140382613916565b81527f52657175697265643a00000000000000000000000000000000000000000000006020820152614900565b61143d60408401516149a9565b6040519061144a82613916565b81527f417661696c61626c653a000000000000000000000000000000000000000000006020820152614900565b60043586526002602052604086206020820151875260205261149c60408720546149a9565b610fc4565b6109a6565b6040833603126114db576040602060249282516114c281613916565b86358152828701358382015281520193019290506108a6565b8580fd5b8480fd5b5080fd5b81356001600160401b0381116114db57610180602435610104810135018201360360231901126114db5760405191826101808101106001600160401b03610180850111176116c3576101808301604090815260248035610104810135018401908101358552604481013560208601526064810135918501919091526084810135606085015260a481013560808501526001600160401b0360c490910135116116ba576115a6366024803561010481013501850160c481013501016139b6565b60a084015260243561010481013501820160e4013580151581036116be5760c0840152610104602435818101350183019081013560e08501526101248101356101008501526001600160401b0361014490910135116116ba5761161d366024803561010481013501850161014481013501016146e9565b6101208401526001600160401b036024356101048101350183016101640135116116ba5761165f366024803561010481013501850161016481013501016139b6565b6101408401526001600160401b036024356101048101350183016101840135116116ba5760209283926116a9903690602480356101048101350190910161018481013501016139b6565b610160820152815201910190610807565b8680fd5b600080fd5b634e487b7160e01b600052604160045260246000fd5b8380fd5b81356001600160401b0381116116ba5760c060243560e4810135018201360360231901126116ba57604051908160c08101106001600160401b0360c0840111176116c35760c0820160409081526024803560e481013501830190810135845260448101356020850152606481013591840191909152608481013560608401526001600160401b0360a490910135116117e25761178b366024803560e481013501840160a481013501016139b6565b60808301526001600160401b0360243560e481013501820160c40135116117e25760249260209283926117d0903690873560e4810135010160c48101350187016139b6565b60a08201528152019201919050610764565b8780fd5b81356001600160401b0381116116ba5760a060243560c4810135018201360360231901126116ba576040519061181b8261397a565b6024803560c48101350182019081013583526001600160401b03604490910135116117e25761185c366024803560c4810135018401604481013501016146e9565b60208301526001600160401b0360243560c481013501820160640135116117e257611899366024803560c4810135018401606481013501016139b6565b60408301526001600160401b0360243560c481013501820160840135116117e2576118d6366024803560c4810135018401608481013501016139b6565b60608301526001600160401b0360243560c481013501820160a40135116117e257602492602092839261191b903690873560c4810135010160a48101350187016139b6565b608082015281520192019190506106cf565b81356001600160401b0381116116ba57608060243560a4810135018201360360231901126116ba57604051906119628261395f565b6024803560a4810135018201908101358352604401356001600160401b038111611aff573660243560a481013501830182016043011215611aff576024803560a481013501830182010135906119b782613b3b565b916119c56040519384613995565b80835260208301913660448360071b838860a46024350135602435010101010111611afb5760243560a48101350185018101604401925b60448360071b838860a4602435013560243501010101018410611ab1575050505060208301526001600160401b0360243560a481013501820160640135116117e257611a5a366024803560a481013501840160648101350101614689565b60408301526001600160401b0360243560a481013501820160840135116117e2576024926020928392611a9f903690873560a4810135010160848101350187016139b6565b6060820152815201920191905061063a565b608084360312611af7576020608091604051611acc8161395f565b86358152828701358382015260408701356040820152606087013560608201528152019301926119fc565b8c80fd5b8b80fd5b8880fd5b81356001600160401b0381116114db5760606024356084810135018201360360231901126114db5760405191611b3883613944565b602480356084810135018301908101358452604481013560208501526001600160401b03606490910135116116ba576020928392611b8b9036906024803560848101350190910160648101350101613b52565b60408201528152019101906105a3565b81356001600160401b0381116116ba5760606024356064810135018201360360231901126116ba5760405190611bd082613944565b606460248035828101350183019081013584526044810135602085015201356001600160401b038111611aff5736602435606481013501830182016043011215611aff5760248035606481013501830182010135611c2d81613b3b565b92611c3b6040519485613995565b81845260208401923660448460061b838560646024350135602435010101010111611afb5760243560648101350182018101604401935b60448460061b83856064602435013560243501010101018510611ca75750505050506040820152815260209182019101610505565b604085360312611af75760206040918251611cc181613916565b873581528288013583820152815201940193611c72565b8280fd5b6080843603126116be5760806020602493604051611cf98161395f565b8735815282880135838201526040880135604082015260608089013590820152815201940193915061043a565b611d64604051611d3581613916565b601781527f4669727374207472616e736665722064657461696c733a0000000000000000006020820152614900565b611da2604051611d7381613916565b600c81527f2020746f20656e746974793a00000000000000000000000000000000000000006020820152614900565b611db1604460243501826145d6565b15611f0d57611dc09035614968565b611dfe604051611dcf81613916565b600a81527f2020746f6b656e49643a000000000000000000000000000000000000000000006020820152614900565b611e0d604460243501826145d6565b15611f0d576020611e1f9101356149a9565b611e5d604051611e2e81613916565b600981527f2020616d6f756e743a00000000000000000000000000000000000000000000006020820152614900565b611e6c604460243501826145d6565b15611f0d576040611e7e9101356149a9565b611ebc604051611e8d81613916565b601781527f53656e6465722063757272656e742062616c616e63653a0000000000000000006020820152614900565b6004358252600260205260408220611ed9604460243501836145d6565b15611ef957602001358352602052611ef460408320546149a9565b61034c565b602484634e487b7160e01b81526032600452fd5b602483634e487b7160e01b81526032600452fd5b80fd5b5034611f21576020366003190112611f215760043590600a54821015611f21576020611f4f83613c29565b90546040519160031b1c8152f35b5034611f21576020366003190112611f215760043590600154821015611f215760206001600160a01b03611f9084613bf2565b9190546040519260031b1c168152f35b5034611f21576020366003190112611f21576001600160a01b0380611fc3613a75565b168083528260205260ff604084205416156120ea57808352826020526040832060ff198154169055825b60018054808310156120e0579084918461200685613bf2565b949054600395861b1c161461202057505050600101611fed565b939491939092600019918281019081116120cc57906120528461204561207194613bf2565b905490891b1c1691613bf2565b9091906001600160a01b038084549260031b9316831b921b1916179055565b825480156120b857019261208484613bf2565b81939154921b1b19169055555b7f67c5a35d33d48c47ef33c82c62eda6254aad034fab4c51abe26a6d06ad174a348280a280f35b602487634e487b7160e01b81526031600452fd5b602488634e487b7160e01b81526011600452fd5b5050509050612091565b606460405162461bcd60e51b815260206004820152600c60248201527f4e6f7420617070726f76656400000000000000000000000000000000000000006044820152fd5b5034611f21576080366003190112611f215760405161214c8161395f565b600435808252602080830191602435835260443592856060604087019686885201926064358452801560001461255b575033945b8061253e57505080518652600b8352856040812054808752156124b7575b6121c360ff925b518060601c9160ff6affffffffffffffffffffff8360081c16921690565b91939091168061230d57505082516040516323b872dd60e01b8152336004820152306024820152604481019190915291849150829060649082908a906001600160a01b03165af19081156123025786916122cc575b501561228857907fab4d21442efe134c3d0c087e2b687e9593a1c09176f498d37873210cde052c45915b51838652600282526040862085518752825261226360408720918254613c83565b905583519383865260028252604086209051865281526040852054604051908152a380f35b6064826040519062461bcd60e51b82526004820152601960248201527f4552433230207472616e7366657246726f6d206661696c6564000000000000006044820152fd5b90508281813d83116122fb575b6122e38183613995565b810103126114db575180151581036114db5738612218565b503d6122d9565b6040513d88823e3d90fd5b93949391929091600181036123c057506001600160a01b0316803b15611cd8576040516323b872dd60e01b81523360048201523060248201526bffffffffffffffffffffffff92909216604483015282908290606490829084905af180156123b5576123a1575b50508160017fab4d21442efe134c3d0c087e2b687e9593a1c09176f498d37873210cde052c459352612242565b6123aa90613931565b6114df578438612374565b6040513d84823e3d90fd5b9394939192916002146123f9575b505050907fab4d21442efe134c3d0c087e2b687e9593a1c09176f498d37873210cde052c4591612242565b6001600160a01b031691835192803b15611cd8576bffffffffffffffffffffffff918360c49260405196879586947ff242432a000000000000000000000000000000000000000000000000000000008652336004870152306024870152166044850152606484015260a060848401528160a48401525af1801561230257612482575b85816123ce565b946124af7fab4d21442efe134c3d0c087e2b687e9593a1c09176f498d37873210cde052c45939296613931565b94909161247b565b508051600a546801000000000000000081101561252a578060016124de9201600a55613c29565b81549060031b906000198094831b921b1916179055600a549081019081116125165780865281518752600b845260408720558561219e565b602487634e487b7160e01b81526011600452fd5b602488634e487b7160e01b81526041600452fd5b60ff9261254d6121c392613c29565b90549060031b1c81526121a5565b94612180565b5034611f21576020366003190112611f215760406020916004358152600b83522054604051908152f35b5034611f21576040366003190112611f21576004356001600160401b0381116114e3576125bc9036906004016139b6565b602435801515809103611cd8577f4c34c2f9a78632f29fa59aaed5514cb742fd9fbcfd7ccc2c03c85f2bbc621c479161260391604051928392604084526040840190613b16565b9060208301520390a180f35b5034611f21576020366003190112611f2157600435906001600160401b038211611f21576040612659602061264736600487016139b6565b81845193828580945193849201613a0c565b810160038152030190206001815491015482519182526020820152f35b5034611f21576060366003190112611f215760043560ff81168091036114e35761269e613a5f565b90604435916bffffffffffffffffffffffff831683036116d95760ff82116116d957602093506cffffffffffffffffffffffff006040519360081b16906bffffffffffffffffffffffff199060601b1617178152f35b5034611f21576060366003190112611f2157604435906001600160401b038211611f2157602061273561272a3660048601613b52565b602435600435614055565b6040519015158152f35b5034611f21576040366003190112611f21576004356001600160401b0381116114e3576127a86127947f941296a39ea107bde685522318a4b6c2b544904a5dd82a512748ca2cf839bef79236906004016139b6565b604051918291604083526040830190613b16565b60243560208301520390a180f35b5034611f215780600319360112611f21576020600a54604051908152f35b5034611f21576020366003190112611f2157604060c09160043581526008602052205463ffffffff604051916001600160401b038116835265ffffffffffff8160401c166020840152818160701c166040840152818160901c166060840152818160b01c16608084015260d01c1660a0820152f35b5034611f2157604060209161285d36613a49565b9082526002845282822090825283522054604051908152f35b5034611f21576020366003190112611f215760ff60406020926001600160a01b0361289f613a75565b1681528084522054166040519015158152f35b5034611f215760209081600319360112611f21576004356009548110156114e3576128dc90613a8b565b508054906001906002600182015491018560405193868354936128fe85613adc565b80885294600181169081156129855750600114612949575b83886129458989612929828f0383613995565b6040519485948552840152606060408401526060830190613b16565b0390f35b908094939850528683205b82841061297257505050820190930192612929856129458438612916565b8054868501890152928701928101612954565b60ff1916858901525050505090151560051b8301019350612929856129458438612916565b5034611f21576040366003190112611f2157602435906001600160401b038211611f215760206129e86129e036600486016139b6565b600435613cd8565b604051908152f35b5034611f21576020366003190112611f215760606bffffffffffffffffffffffff60ff612a366004358060601c9160ff6affffffffffffffffffffff8360081c16921690565b9193906001600160a01b0360405195168552166020840152166040820152f35b5034611f2157612a6536613a2f565b918352600560205260408320908352602052604082208054821015611cd8578260209160409452209060011b016001815491015482519182526020820152f35b5034611f21576040602091612ab936613a49565b9082526006845282822090825283522054604051908152f35b5034611f21576020366003190112611f215760406020916004358152600783522054604051908152f35b5034611f2157612b0b36613a2f565b909160405191612b1a83613944565b60218352612b586020937f646562756746756e6452657365727665733a2066756e64696e6720656e74697485820152607960f81b6040820152614900565b612b6182614968565b612b9e604051612b7081613916565b601a81527f646562756746756e6452657365727665733a20746f6b656e496400000000000085820152614900565b612ba7846149a9565b612be4604051612bb681613916565b601981527f646562756746756e6452657365727665733a20616d6f756e740000000000000085820152614900565b612bed816149a9565b81855260028352604085208486528352612c0c60408620918254613c83565b90558084526002825260408420838552825282817fab4d21442efe134c3d0c087e2b687e9593a1c09176f498d37873210cde052c45846040882054604051908152a3612c8b604051612c5d81613916565b601e81527f646562756746756e6452657365727665733a206e65772062616c616e6365000084820152614900565b8352600281526040832091835252612ca660408220546149a9565b80f35b5034611f21576020366003190112611f2157612cc3613a75565b6001600160a01b038116908183528260205260ff604084205416612d5a578183528260205260408320600160ff1982541617905560015468010000000000000000811015612d465790612052826001612d1f9401600155613bf2565b7fc395b1bd803c744a815bc34a0426e5eaac03513b9d76bf237a734a004916499c8280a280f35b602484634e487b7160e01b81526041600452fd5b606460405162461bcd60e51b815260206004820152601060248201527f416c726561647920617070726f766564000000000000000000000000000000006044820152fd5b5034611f21576040366003190112611f21576001600160401b03600435818111611cd857612dd09036906004016139b6565b90602435908111611cd8577f27a8767ed172b48d7cf6dbb25d2840c5fa91ef78fa6e05c13c82763d099f03ca91612e33612e11612e259336906004016139b6565b604051938493604085526040850190613b16565b908382036020850152613b16565b0390a180f35b5034611f21576040366003190112611f215780f35b5034611f21576040366003190112611f215760406020916002612e6f613a75565b60601b6bffffffffffffffffffffffff191660243560081b6cffffffffffffffffffffffff001617178152600b83522054604051908152f35b5034611f21576040366003190112611f21576004356001600160401b0381116114e3576127a86127947f6a837ff3973aa4181e7b9f07756f8b7ee366dd85a36655d2cb42cd47f10b96389236906004016139b6565b5034611f21576080366003190112611f215760443560243560043560643582821461312b57818552600294602095808752604082208683528752826040832054106130e7579185858880604081967fae4812ebb7c47ac957e097b649541f0cd55d34b3576fb0db5739591d6f68436798612fa98351612f7b81613916565b601b81527f3d3d3d2044495245435420523252205452414e53464552203d3d3d000000000086820152614900565b612fb28b614968565b612fed8351612fc081613916565b8281527f746f00000000000000000000000000000000000000000000000000000000000086820152614900565b612ff686614968565b6130016101eb613c90565b61300a886149a9565b8a82528084528282208783528452828220613026898254613c60565b90558582528084528282208783528452828220613044898254613c83565b90558a82528084528282208783528452868b8484205485519081527fab4d21442efe134c3d0c087e2b687e9593a1c09176f498d37873210cde052c45978891a3858252835281812086825283522054604051908152a3604051908152a46130de6040516130b081613916565b601d81527f3d3d3d20523252205452414e5346455220434f4d504c455445203d3d3d00000083820152614900565b60405160018152f35b6064876040519062461bcd60e51b82526004820152601560248201527f496e73756666696369656e7420726573657276657300000000000000000000006044820152fd5b606460405162461bcd60e51b815260206004820152601760248201527f43616e6e6f74207472616e7366657220746f2073656c660000000000000000006044820152fd5b5034611f21576040366003190112611f21576004356001600160401b0381116114e3576127a86127947f02d93529bba9d141e5e06733c52c7e6fbcb1149586adb5c24064b522ab26f1d79236906004016139b6565b5034611f21576040366003190112611f21576004356001600160401b0381116114e35761323d6132197f62ddffe5b5108385f7a590f100e1ee414ad9551a31f089e64e82998440785e1e9236906004016139b6565b613221613a5f565b6001600160a01b03604051938493604085526040850190613b16565b911660208301520390a180f35b5034611f215761325936613a49565b919080825260209260068452604083208184528452604083205491835260058452604083209083528352604082209081549261329484613b3b565b936132a26040519586613995565b808552858501809483528683208784925b84841061330957505050505060405193604085019060408652518091526060850193915b8181106132ea5750505082938301520390f35b82518051865287015187860152604090940193918601916001016132d7565b60019160029160409a979a5161331e81613916565b85548152848601548382015281520192019201919088909794976132b3565b5034611f215780600319360112611f215760405161335a81613944565b603b81526133b46020917f646562756742756c6b46756e64456e7469746965733a2066756e64696e672065838201527f6e74697469657320312d3230207769746820314d20746f6b656e7300000000006040820152614900565b6001905b601482111561342657612ca691507f646562756742756c6b46756e64456e7469746965733a2066756e64696e672063604051916133f483613944565b602783528201527f6f6d706c657465000000000000000000000000000000000000000000000000006040820152614900565b60015b600381111561344357509061343d90613cc9565b906133b8565b828452600280835260408520828652835260408520805490670de0b6b3a7640000820180921161251657906134b893929155848652835260408520818652835280847fab4d21442efe134c3d0c087e2b687e9593a1c09176f498d37873210cde052c45856040892054604051908152a3613cc9565b613429565b5034611f215780600319360112611f215760405180916001906001549384845260208094018095600184527fb10e2d527612073b26eecdfd717e6a320cf44b4afac2b0732d9fcbe2b7fa0cf690845b8181106135615750505081613522910382613995565b6040519380850191818652518092526040850195925b8281106135455785870386f35b83516001600160a01b0316875295810195928101928401613538565b82546001600160a01b031684529287019291860191860161350c565b5034611f21576040366003190112611f21576001600160401b03600435818111611cd8576135af9036906004016139b6565b90602435908111611cd8577fe8407a0209fa99ec3a7228aff140c3d3e68bd279391739c7e0b65cd406cc93b591612e33612e11612e259336906004016139b6565b5034611f21576135ff36613a2f565b919081331461386057813310806000146138595733905b156138525782905b60405195602096878101908382528460408201526040815261363f81613944565b51902060405188810191825288815261365781613916565b33835260028952604083208684528952876040842054106137e9576130de979694926136d78a6137d99896947f36a23558c84aea8a6a7bbadf50a454e47507746fa69bf7cf58db85d9bdf063d89433855260028352604085208986528352604085206136c48d8254613c60565b9055604051938492839251928391613a0c565b810160048152030190208582528a528961374e6040832092600160406136fe8d8754613c83565b92838755888152600286528181208b8252865281812054958a825260028152828220908c835252205494015490604051948594859094939260609260808301968352602083015260408201520152565b0390a461378e60405161376081613916565b601281527f4163636f756e742070726566756e6465643a000000000000000000000000000087820152614900565b61379733614968565b6137d46040516137a681613916565b601481527f66756e646564206163636f756e7420776974683a00000000000000000000000087820152614900565b614968565b6137e46101eb613c90565b6149a9565b6084896040519062461bcd60e51b825260048201526024808201527f496e73756666696369656e7420726573657276657320666f722070726566756e60448201527f64696e67000000000000000000000000000000000000000000000000000000006064820152fd5b339061361e565b8290613616565b606460405162461bcd60e51b815260206004820152602060248201527f43616e6e6f742070726566756e64206163636f756e7420776974682073656c666044820152fd5b5034611f21576040366003190112611f21576004356001600160401b0381116114e3576040916138f060206138de859436906004016139b6565b81855193828580945193849201613a0c565b810160048152030190206024358252602052206001815491015482519182526020820152f35b604081019081106001600160401b038211176116c357604052565b6001600160401b0381116116c357604052565b606081019081106001600160401b038211176116c357604052565b608081019081106001600160401b038211176116c357604052565b60a081019081106001600160401b038211176116c357604052565b90601f801991011681019081106001600160401b038211176116c357604052565b81601f820112156116be578035906001600160401b0382116116c357604051926139ea601f8401601f191660200185613995565b828452602083830101116116be57816000926020809301838601378301015290565b60005b838110613a1f5750506000910152565b8181015183820152602001613a0f565b60609060031901126116be57600435906024359060443590565b60409060031901126116be576004359060243590565b602435906001600160a01b03821682036116be57565b600435906001600160a01b03821682036116be57565b600954811015613ac6576003906009600052027f6e1540171b6c0c960b71a7020d9f60077f6af931a8bbf590da0223dacf75c7af0190600090565b634e487b7160e01b600052603260045260246000fd5b90600182811c92168015613b0c575b6020831014613af657565b634e487b7160e01b600052602260045260246000fd5b91607f1691613aeb565b90602091613b2f81518092818552858086019101613a0c565b601f01601f1916010190565b6001600160401b0381116116c35760051b60200190565b81601f820112156116be578035906020613b6b83613b3b565b936040613b7b6040519687613995565b848652828601918360a0809702860101948186116116be578401925b858410613ba8575050505050505090565b86848303126116be578487918451613bbf8161397a565b86358152828701358382015285870135868201526060808801359082015260808088013590820152815201930192613b97565b600154811015613ac65760016000527fb10e2d527612073b26eecdfd717e6a320cf44b4afac2b0732d9fcbe2b7fa0cf60190600090565b600a54811015613ac657600a6000527fc65a7bb8d6351c1cf70c95a316cc6a92839c986682d98bc35f958f4883f9d2a80190600090565b91908203918211613c6d57565b634e487b7160e01b600052601160045260246000fd5b91908201809211613c6d57565b60405190613c9d82613916565b600782527f616d6f756e743a000000000000000000000000000000000000000000000000006020830152565b6000198114613c6d5760010190565b90919080613e8357509060405190613cef82613944565b338252602080830190600093848352604081019384526009549268010000000000000000841015613e5c57613d2b600194858101600955613a8b565b929092613e705790600292915182555184820155019251908151916001600160401b038311613e5c57613d5e8554613adc565b601f8111613e16575b5081601f8411600114613db357509282939183928794613da8575b50501b916000199060031b1c19161790555b600954600019810191908211610b4a575090565b015192503880613d82565b919083601f1981168789528489209489905b88838310613dfc5750505010613de3575b505050811b019055613d94565b015160001960f88460031b161c19169055388080613dd6565b858701518855909601959485019487935090810190613dc5565b858752828720601f850160051c810191848610613e52575b601f0160051c019085905b828110613e47575050613d67565b888155018590613e39565b9091508190613e2e565b602486634e487b7160e01b81526041600452fd5b602487634e487b7160e01b815280600452fd5b613e8c81613a8b565b50543303613fb4576002613e9f82613a8b565b500183516001600160401b0381116116c357613ebb8254613adc565b601f8111613f6a575b50602080601f8311600114613f0357508192939495600092613ef8575b50508160011b916000199060031b1c191617905590565b015190503880613ee1565b90601f19831696846000526020600020926000905b898210613f525750508360019596979810613f39575b505050811b01905590565b015160001960f88460031b161c19169055388080613f2e565b80600185968294968601518155019501930190613f18565b6000836000526020600020601f840160051c81019260208510613faa575b601f0160051c01915b828110613f9f575050613ec4565b818155600101613f91565b9092508290613f88565b606460405162461bcd60e51b815260206004820152601760248201527f53656e646572206973206e6f7420687562206f776e65720000000000000000006044820152fd5b8051821015613ac65760209160051b010190565b91909160008382019384129112908015821691151617613c6d57565b7f80000000000000000000000000000000000000000000000000000000000000008114613c6d5760000390565b92919080841461455957808410156144ef5760409384519260209384810190838252848882015287815261408881613944565b519020938651918183019586528183526140a183613916565b60005b81518110156144e2576140b78183613ff8565b5180519084810180516140cf8d84019182519061400c565b916140e0606085019384519061400c565b61449f57808e91516000811260001461446257508a600052600291828a5280600020876000528a52600020546141168251614028565b116143f8578e6141296141459251614028565b928c6000528a5280600020876000528a52600020918254613c60565b90555b8c8151600081126000146143bb575050896000526002908188528d6000208560005288528d6000205461417b8251614028565b11614352579061418e8e94939251614028565b908b6000528852836000208560005288526141ae84600020918254613c60565b90555b825190816141c38d8b51928391613a0c565b8201918881600494858152030190208560005288528a8a85600020958351600081126000146142fc57505050508354916141fd8251614028565b83106142b9575060019594938e6142b060808e966142478f976142417f36a23558c84aea8a6a7bbadf50a454e47507746fa69bf7cf58db85d9bdf063d89851614028565b90613c60565b85555b015161425a8a850191825461400c565b80915585600052600292838d5280600020896000528d52806000205493886000528d5280600020896000528d52806000205494549051948594859094939260609260808301968352602083015260408201520152565b0390a4016140a4565b60649150888f519162461bcd60e51b8352820152601760248201527f496e73756666696369656e7420636f6c6c61746572616c0000000000000000006044820152fd5b6142b0919295507f36a23558c84aea8a6a7bbadf50a454e47507746fa69bf7cf58db85d9bdf063d89450600199989793968160006080931361433f575b5061424a565b61434a908654613c83565b855538614339565b6084888f519062461bcd60e51b82526004820152602260248201527f526967687420656e7469747920696e73756666696369656e742072657365727660448201527f65730000000000000000000000000000000000000000000000000000000000006064820152fd5b9093929150600081136143cf575b506141b1565b8a60005260028852836000208560005288526143f084600020918254613c83565b9055386143c9565b506084888f519062461bcd60e51b82526004820152602160248201527f4c65667420656e7469747920696e73756666696369656e74207265736572766560448201527f73000000000000000000000000000000000000000000000000000000000000006064820152fd5b91905060008213614475575b5050614148565b614496908b60005260028a5280600020876000528a52600020918254613c83565b9055388d61446e565b6064888f519062461bcd60e51b82526004820152601760248201527f536574746c656d656e74206d7573742062616c616e63650000000000000000006044820152fd5b5060019750505050505050565b608460405162461bcd60e51b815260206004820152602860248201527f456e746974696573206d75737420626520696e206f7264657220286c6566742060448201527f3c207269676874290000000000000000000000000000000000000000000000006064820152fd5b606460405162461bcd60e51b815260206004820152601760248201527f43616e6e6f7420736574746c6520776974682073656c660000000000000000006044820152fd5b604051906145aa82613916565b601a82527f3d3d3d2070726f63657373426174636820454e545259203d3d3d0000000000006020830152565b903590601e19813603018212156116be57018035906001600160401b0382116116be576020019160608202360383136116be57565b92919261461782613b3b565b6040946146276040519283613995565b819584835260208093019160608096028501948186116116be57925b8584106146535750505050505050565b86848303126116be57848791845161466a81613944565b8635815282870135838201528587013586820152815201930192614643565b9080601f830112156116be5760209082356146a381613b3b565b936146b16040519586613995565b81855260208086019260051b8201019283116116be57602001905b8282106146da575050505090565b813581529083019083016146cc565b9190606080848303126116be5760409081519061470582613944565b819580356001600160401b03908181116116be5782019186601f840112156116be57823560209361473582613b3b565b9161474289519384613995565b808352858084019160051b830101918a83116116be5786809101915b8383106148f057505050508552828101358281116116be5787614782918301614689565b8386015285810135908282116116be57019086601f830112156116be578135906147ab82613b3b565b976147b88851998a613995565b82895284808a019360051b850101938185116116be57858101935b8585106147e65750505050505050500152565b84358481116116be57820188601f1982860301126116be578a519061480a82613944565b888101356001600160a01b03811681036116be5782528b8101358681116116be57858a614839928401016139b6565b8983015289810135908682116116be570184603f820112156116be5780898d92013561487061486782613b3b565b93519384613995565b8083528d8c8c85019202830101918783116116be57908e8c959396949201905b8682106148ab5750508394508d8201528152019401936147d3565b909193959294508c828903126116be578b8f91828f9351906148cc82613944565b853582528386013584830152808601359082015281520191018b9492959391614890565b823581529181019187910161475e565b600080916040516149558161494760208201947f41304fac000000000000000000000000000000000000000000000000000000008652602060248401526044830190613b16565b03601f198101835282613995565b51906a636f6e736f6c652e6c6f675afa50565b6000809160405160208101917f27b7cf8500000000000000000000000000000000000000000000000000000000835260248201526024815261495581613944565b6000809160405160208101917ff82c50f10000000000000000000000000000000000000000000000000000000083526024820152602481526149558161394456fea26469706673582212205da6e9a8d6fe93401d8681d463c5d1a528e01b69fb11edce1c712dea7b37ca4864736f6c63430008180033",
  "linkReferences": {},
  "deployedLinkReferences": {}
}