{
  "_format": "hh-sol-artifact-1",
  "contractName": "EntityProvider",
  "sourceName": "contracts/EntityProvider.sol",
  "abi": [
    {
      "inputs": [],
      "stateMutability": "nonpayable",
      "type": "constructor"
    },
    {
      "inputs": [
        {
          "internalType": "address",
          "name": "sender",
          "type": "address"
        },
        {
          "internalType": "uint256",
          "name": "balance",
          "type": "uint256"
        },
        {
          "internalType": "uint256",
          "name": "needed",
          "type": "uint256"
        },
        {
          "internalType": "uint256",
          "name": "tokenId",
          "type": "uint256"
        }
      ],
      "name": "ERC1155InsufficientBalance",
      "type": "error"
    },
    {
      "inputs": [
        {
          "internalType": "address",
          "name": "approver",
          "type": "address"
        }
      ],
      "name": "ERC1155InvalidApprover",
      "type": "error"
    },
    {
      "inputs": [
        {
          "internalType": "uint256",
          "name": "idsLength",
          "type": "uint256"
        },
        {
          "internalType": "uint256",
          "name": "valuesLength",
          "type": "uint256"
        }
      ],
      "name": "ERC1155InvalidArrayLength",
      "type": "error"
    },
    {
      "inputs": [
        {
          "internalType": "address",
          "name": "operator",
          "type": "address"
        }
      ],
      "name": "ERC1155InvalidOperator",
      "type": "error"
    },
    {
      "inputs": [
        {
          "internalType": "address",
          "name": "receiver",
          "type": "address"
        }
      ],
      "name": "ERC1155InvalidReceiver",
      "type": "error"
    },
    {
      "inputs": [
        {
          "internalType": "address",
          "name": "sender",
          "type": "address"
        }
      ],
      "name": "ERC1155InvalidSender",
      "type": "error"
    },
    {
      "inputs": [
        {
          "internalType": "address",
          "name": "operator",
          "type": "address"
        },
        {
          "internalType": "address",
          "name": "owner",
          "type": "address"
        }
      ],
      "name": "ERC1155MissingApprovalForAll",
      "type": "error"
    },
    {
      "anonymous": false,
      "inputs": [
        {
          "indexed": true,
          "internalType": "address",
          "name": "account",
          "type": "address"
        },
        {
          "indexed": true,
          "internalType": "address",
          "name": "operator",
          "type": "address"
        },
        {
          "indexed": false,
          "internalType": "bool",
          "name": "approved",
          "type": "bool"
        }
      ],
      "name": "ApprovalForAll",
      "type": "event"
    },
    {
      "anonymous": false,
      "inputs": [
        {
          "indexed": true,
          "internalType": "bytes32",
          "name": "entityId",
          "type": "bytes32"
        },
        {
          "indexed": false,
          "internalType": "bytes32",
          "name": "newBoardHash",
          "type": "bytes32"
        }
      ],
      "name": "BoardActivated",
      "type": "event"
    },
    {
      "anonymous": false,
      "inputs": [
        {
          "indexed": true,
          "internalType": "bytes32",
          "name": "entityId",
          "type": "bytes32"
        },
        {
          "indexed": false,
          "internalType": "bytes32",
          "name": "proposedBoardHash",
          "type": "bytes32"
        }
      ],
      "name": "BoardProposed",
      "type": "event"
    },
    {
      "anonymous": false,
      "inputs": [
        {
          "indexed": true,
          "internalType": "bytes32",
          "name": "entityId",
          "type": "bytes32"
        },
        {
          "indexed": true,
          "internalType": "uint256",
          "name": "entityNumber",
          "type": "uint256"
        },
        {
          "indexed": false,
          "internalType": "bytes32",
          "name": "boardHash",
          "type": "bytes32"
        }
      ],
      "name": "EntityRegistered",
      "type": "event"
    },
    {
      "anonymous": false,
      "inputs": [
        {
          "indexed": true,
          "internalType": "bytes32",
          "name": "entityId",
          "type": "bytes32"
        },
        {
          "indexed": false,
          "internalType": "uint256",
          "name": "controlTokenId",
          "type": "uint256"
        },
        {
          "indexed": false,
          "internalType": "uint256",
          "name": "dividendTokenId",
          "type": "uint256"
        }
      ],
      "name": "GovernanceEnabled",
      "type": "event"
    },
    {
      "anonymous": false,
      "inputs": [
        {
          "indexed": true,
          "internalType": "bytes32",
          "name": "entityId",
          "type": "bytes32"
        },
        {
          "indexed": false,
          "internalType": "bool",
          "name": "success",
          "type": "bool"
        },
        {
          "indexed": false,
          "internalType": "uint256",
          "name": "votingPower",
          "type": "uint256"
        }
      ],
      "name": "HankoClaimProcessed",
      "type": "event"
    },
    {
      "anonymous": false,
      "inputs": [
        {
          "indexed": true,
          "internalType": "bytes32",
          "name": "entityId",
          "type": "bytes32"
        },
        {
          "indexed": true,
          "internalType": "bytes32",
          "name": "hash",
          "type": "bytes32"
        }
      ],
      "name": "HankoVerified",
      "type": "event"
    },
    {
      "anonymous": false,
      "inputs": [
        {
          "indexed": true,
          "internalType": "string",
          "name": "name",
          "type": "string"
        },
        {
          "indexed": true,
          "internalType": "uint256",
          "name": "entityNumber",
          "type": "uint256"
        }
      ],
      "name": "NameAssigned",
      "type": "event"
    },
    {
      "anonymous": false,
      "inputs": [
        {
          "indexed": true,
          "internalType": "string",
          "name": "name",
          "type": "string"
        },
        {
          "indexed": true,
          "internalType": "uint256",
          "name": "fromNumber",
          "type": "uint256"
        },
        {
          "indexed": true,
          "internalType": "uint256",
          "name": "toNumber",
          "type": "uint256"
        }
      ],
      "name": "NameTransferred",
      "type": "event"
    },
    {
      "anonymous": false,
      "inputs": [
        {
          "indexed": true,
          "internalType": "bytes32",
          "name": "entityId",
          "type": "bytes32"
        },
        {
          "indexed": false,
          "internalType": "enum EntityProvider.ProposerType",
          "name": "cancelledBy",
          "type": "uint8"
        }
      ],
      "name": "ProposalCancelled",
      "type": "event"
    },
    {
      "anonymous": false,
      "inputs": [
        {
          "indexed": true,
          "internalType": "address",
          "name": "operator",
          "type": "address"
        },
        {
          "indexed": true,
          "internalType": "address",
          "name": "from",
          "type": "address"
        },
        {
          "indexed": true,
          "internalType": "address",
          "name": "to",
          "type": "address"
        },
        {
          "indexed": false,
          "internalType": "uint256[]",
          "name": "ids",
          "type": "uint256[]"
        },
        {
          "indexed": false,
          "internalType": "uint256[]",
          "name": "values",
          "type": "uint256[]"
        }
      ],
      "name": "TransferBatch",
      "type": "event"
    },
    {
      "anonymous": false,
      "inputs": [
        {
          "indexed": true,
          "internalType": "address",
          "name": "operator",
          "type": "address"
        },
        {
          "indexed": true,
          "internalType": "address",
          "name": "from",
          "type": "address"
        },
        {
          "indexed": true,
          "internalType": "address",
          "name": "to",
          "type": "address"
        },
        {
          "indexed": false,
          "internalType": "uint256",
          "name": "id",
          "type": "uint256"
        },
        {
          "indexed": false,
          "internalType": "uint256",
          "name": "value",
          "type": "uint256"
        }
      ],
      "name": "TransferSingle",
      "type": "event"
    },
    {
      "anonymous": false,
      "inputs": [
        {
          "indexed": false,
          "internalType": "string",
          "name": "value",
          "type": "string"
        },
        {
          "indexed": true,
          "internalType": "uint256",
          "name": "id",
          "type": "uint256"
        }
      ],
      "name": "URI",
      "type": "event"
    },
    {
      "inputs": [],
      "name": "FOUNDATION_ENTITY",
      "outputs": [
        {
          "internalType": "uint256",
          "name": "",
          "type": "uint256"
        }
      ],
      "stateMutability": "view",
      "type": "function"
    },
    {
      "inputs": [],
      "name": "TOTAL_CONTROL_SUPPLY",
      "outputs": [
        {
          "internalType": "uint256",
          "name": "",
          "type": "uint256"
        }
      ],
      "stateMutability": "view",
      "type": "function"
    },
    {
      "inputs": [],
      "name": "TOTAL_DIVIDEND_SUPPLY",
      "outputs": [
        {
          "internalType": "uint256",
          "name": "",
          "type": "uint256"
        }
      ],
      "stateMutability": "view",
      "type": "function"
    },
    {
      "inputs": [
        {
          "internalType": "bytes32",
          "name": "entityId",
          "type": "bytes32"
        }
      ],
      "name": "activateBoard",
      "outputs": [],
      "stateMutability": "nonpayable",
      "type": "function"
    },
    {
      "inputs": [
        {
          "internalType": "bytes32",
          "name": "",
          "type": "bytes32"
        }
      ],
      "name": "activeProposals",
      "outputs": [
        {
          "internalType": "bytes32",
          "name": "proposedBoardHash",
          "type": "bytes32"
        },
        {
          "internalType": "enum EntityProvider.ProposerType",
          "name": "proposerType",
          "type": "uint8"
        },
        {
          "internalType": "uint256",
          "name": "proposeBlock",
          "type": "uint256"
        },
        {
          "internalType": "uint256",
          "name": "activateBlock",
          "type": "uint256"
        },
        {
          "internalType": "bool",
          "name": "active",
          "type": "bool"
        }
      ],
      "stateMutability": "view",
      "type": "function"
    },
    {
      "inputs": [
        {
          "internalType": "string",
          "name": "name",
          "type": "string"
        },
        {
          "internalType": "uint256",
          "name": "entityNumber",
          "type": "uint256"
        }
      ],
      "name": "assignName",
      "outputs": [],
      "stateMutability": "nonpayable",
      "type": "function"
    },
    {
      "inputs": [
        {
          "internalType": "address",
          "name": "account",
          "type": "address"
        },
        {
          "internalType": "uint256",
          "name": "id",
          "type": "uint256"
        }
      ],
      "name": "balanceOf",
      "outputs": [
        {
          "internalType": "uint256",
          "name": "",
          "type": "uint256"
        }
      ],
      "stateMutability": "view",
      "type": "function"
    },
    {
      "inputs": [
        {
          "internalType": "address[]",
          "name": "accounts",
          "type": "address[]"
        },
        {
          "internalType": "uint256[]",
          "name": "ids",
          "type": "uint256[]"
        }
      ],
      "name": "balanceOfBatch",
      "outputs": [
        {
          "internalType": "uint256[]",
          "name": "",
          "type": "uint256[]"
        }
      ],
      "stateMutability": "view",
      "type": "function"
    },
    {
      "inputs": [
        {
          "internalType": "bytes[]",
          "name": "hankoDataArray",
          "type": "bytes[]"
        },
        {
          "internalType": "bytes32[]",
          "name": "hashes",
          "type": "bytes32[]"
        }
      ],
      "name": "batchVerifyHankoSignatures",
      "outputs": [
        {
          "internalType": "bytes32[]",
          "name": "entityIds",
          "type": "bytes32[]"
        },
        {
          "internalType": "bool[]",
          "name": "results",
          "type": "bool[]"
        }
      ],
      "stateMutability": "view",
      "type": "function"
    },
    {
      "inputs": [
        {
          "internalType": "bytes32",
          "name": "entityId",
          "type": "bytes32"
        },
        {
          "internalType": "enum EntityProvider.ProposerType",
          "name": "proposerType",
          "type": "uint8"
        },
        {
          "components": [
            {
              "internalType": "uint32",
              "name": "controlDelay",
              "type": "uint32"
            },
            {
              "internalType": "uint32",
              "name": "dividendDelay",
              "type": "uint32"
            },
            {
              "internalType": "uint32",
              "name": "foundationDelay",
              "type": "uint32"
            },
            {
              "internalType": "uint16",
              "name": "controlThreshold",
              "type": "uint16"
            }
          ],
          "internalType": "struct EntityProvider.EntityArticles",
          "name": "articles",
          "type": "tuple"
        }
      ],
      "name": "cancelBoardProposal",
      "outputs": [],
      "stateMutability": "nonpayable",
      "type": "function"
    },
    {
      "inputs": [
        {
          "internalType": "bytes32",
          "name": "",
          "type": "bytes32"
        }
      ],
      "name": "entities",
      "outputs": [
        {
          "internalType": "bytes32",
          "name": "currentBoardHash",
          "type": "bytes32"
        },
        {
          "internalType": "bytes32",
          "name": "proposedBoardHash",
          "type": "bytes32"
        },
        {
          "internalType": "uint256",
          "name": "activateAtBlock",
          "type": "uint256"
        },
        {
          "internalType": "uint256",
          "name": "registrationBlock",
          "type": "uint256"
        },
        {
          "internalType": "enum EntityProvider.ProposerType",
          "name": "proposerType",
          "type": "uint8"
        },
        {
          "internalType": "bytes32",
          "name": "articlesHash",
          "type": "bytes32"
        }
      ],
      "stateMutability": "view",
      "type": "function"
    },
    {
      "inputs": [
        {
          "internalType": "uint256",
          "name": "entityNumber",
          "type": "uint256"
        },
        {
          "internalType": "address",
          "name": "to",
          "type": "address"
        },
        {
          "internalType": "uint256",
          "name": "tokenId",
          "type": "uint256"
        },
        {
          "internalType": "uint256",
          "name": "amount",
          "type": "uint256"
        },
        {
          "internalType": "bytes",
          "name": "encodedBoard",
          "type": "bytes"
        },
        {
          "internalType": "bytes",
          "name": "encodedSignature",
          "type": "bytes"
        }
      ],
      "name": "entityTransferTokens",
      "outputs": [],
      "stateMutability": "nonpayable",
      "type": "function"
    },
    {
      "inputs": [
        {
          "internalType": "bytes32",
          "name": "boardHash",
          "type": "bytes32"
        },
        {
          "components": [
            {
              "internalType": "uint32",
              "name": "controlDelay",
              "type": "uint32"
            },
            {
              "internalType": "uint32",
              "name": "dividendDelay",
              "type": "uint32"
            },
            {
              "internalType": "uint32",
              "name": "foundationDelay",
              "type": "uint32"
            },
            {
              "internalType": "uint16",
              "name": "controlThreshold",
              "type": "uint16"
            }
          ],
          "internalType": "struct EntityProvider.EntityArticles",
          "name": "articles",
          "type": "tuple"
        }
      ],
      "name": "foundationRegisterEntity",
      "outputs": [
        {
          "internalType": "uint256",
          "name": "entityNumber",
          "type": "uint256"
        }
      ],
      "stateMutability": "nonpayable",
      "type": "function"
    },
    {
      "inputs": [
        {
          "internalType": "uint256",
          "name": "tokenId",
          "type": "uint256"
        }
      ],
      "name": "getEntityFromToken",
      "outputs": [
        {
          "internalType": "uint256",
          "name": "entityNumber",
          "type": "uint256"
        }
      ],
      "stateMutability": "pure",
      "type": "function"
    },
    {
      "inputs": [
        {
          "internalType": "bytes32",
          "name": "entityId",
          "type": "bytes32"
        }
      ],
      "name": "getEntityInfo",
      "outputs": [
        {
          "internalType": "bool",
          "name": "exists",
          "type": "bool"
        },
        {
          "internalType": "bytes32",
          "name": "currentBoardHash",
          "type": "bytes32"
        },
        {
          "internalType": "bytes32",
          "name": "proposedBoardHash",
          "type": "bytes32"
        },
        {
          "internalType": "uint256",
          "name": "registrationBlock",
          "type": "uint256"
        },
        {
          "internalType": "string",
          "name": "name",
          "type": "string"
        }
      ],
      "stateMutability": "view",
      "type": "function"
    },
    {
      "inputs": [
        {
          "internalType": "uint256",
          "name": "entityNumber",
          "type": "uint256"
        }
      ],
      "name": "getGovernanceInfo",
      "outputs": [
        {
          "internalType": "uint256",
          "name": "controlTokenId",
          "type": "uint256"
        },
        {
          "internalType": "uint256",
          "name": "dividendTokenId",
          "type": "uint256"
        },
        {
          "internalType": "uint256",
          "name": "controlSupply",
          "type": "uint256"
        },
        {
          "internalType": "uint256",
          "name": "dividendSupply",
          "type": "uint256"
        },
        {
          "internalType": "bool",
          "name": "hasActiveProposal",
          "type": "bool"
        },
        {
          "internalType": "bytes32",
          "name": "articlesHash",
          "type": "bytes32"
        }
      ],
      "stateMutability": "view",
      "type": "function"
    },
    {
      "inputs": [
        {
          "internalType": "uint256",
          "name": "entityNumber",
          "type": "uint256"
        }
      ],
      "name": "getTokenIds",
      "outputs": [
        {
          "internalType": "uint256",
          "name": "controlTokenId",
          "type": "uint256"
        },
        {
          "internalType": "uint256",
          "name": "dividendTokenId",
          "type": "uint256"
        }
      ],
      "stateMutability": "pure",
      "type": "function"
    },
    {
      "inputs": [
        {
          "internalType": "address",
          "name": "account",
          "type": "address"
        },
        {
          "internalType": "address",
          "name": "operator",
          "type": "address"
        }
      ],
      "name": "isApprovedForAll",
      "outputs": [
        {
          "internalType": "bool",
          "name": "",
          "type": "bool"
        }
      ],
      "stateMutability": "view",
      "type": "function"
    },
    {
      "inputs": [
        {
          "internalType": "address",
          "name": "",
          "type": "address"
        }
      ],
      "name": "nameQuota",
      "outputs": [
        {
          "internalType": "uint8",
          "name": "",
          "type": "uint8"
        }
      ],
      "stateMutability": "view",
      "type": "function"
    },
    {
      "inputs": [
        {
          "internalType": "string",
          "name": "",
          "type": "string"
        }
      ],
      "name": "nameToNumber",
      "outputs": [
        {
          "internalType": "uint256",
          "name": "",
          "type": "uint256"
        }
      ],
      "stateMutability": "view",
      "type": "function"
    },
    {
      "inputs": [],
      "name": "nextNumber",
      "outputs": [
        {
          "internalType": "uint256",
          "name": "",
          "type": "uint256"
        }
      ],
      "stateMutability": "view",
      "type": "function"
    },
    {
      "inputs": [
        {
          "internalType": "uint256",
          "name": "",
          "type": "uint256"
        }
      ],
      "name": "numberToName",
      "outputs": [
        {
          "internalType": "string",
          "name": "",
          "type": "string"
        }
      ],
      "stateMutability": "view",
      "type": "function"
    },
    {
      "inputs": [
        {
          "internalType": "bytes32",
          "name": "entityId",
          "type": "bytes32"
        },
        {
          "internalType": "bytes32",
          "name": "newBoardHash",
          "type": "bytes32"
        },
        {
          "internalType": "enum EntityProvider.ProposerType",
          "name": "proposerType",
          "type": "uint8"
        },
        {
          "components": [
            {
              "internalType": "uint32",
              "name": "controlDelay",
              "type": "uint32"
            },
            {
              "internalType": "uint32",
              "name": "dividendDelay",
              "type": "uint32"
            },
            {
              "internalType": "uint32",
              "name": "foundationDelay",
              "type": "uint32"
            },
            {
              "internalType": "uint16",
              "name": "controlThreshold",
              "type": "uint16"
            }
          ],
          "internalType": "struct EntityProvider.EntityArticles",
          "name": "articles",
          "type": "tuple"
        }
      ],
      "name": "proposeBoard",
      "outputs": [],
      "stateMutability": "nonpayable",
      "type": "function"
    },
    {
      "inputs": [
        {
          "internalType": "bytes",
          "name": "encodedBoard",
          "type": "bytes"
        },
        {
          "internalType": "bytes",
          "name": "encodedSignature",
          "type": "bytes"
        },
        {
          "internalType": "bytes32",
          "name": "hash",
          "type": "bytes32"
        }
      ],
      "name": "recoverEntity",
      "outputs": [
        {
          "internalType": "uint256",
          "name": "entityId",
          "type": "uint256"
        }
      ],
      "stateMutability": "view",
      "type": "function"
    },
    {
      "inputs": [
        {
          "internalType": "bytes32",
          "name": "boardHash",
          "type": "bytes32"
        }
      ],
      "name": "registerNumberedEntity",
      "outputs": [
        {
          "internalType": "uint256",
          "name": "entityNumber",
          "type": "uint256"
        }
      ],
      "stateMutability": "nonpayable",
      "type": "function"
    },
    {
      "inputs": [
        {
          "internalType": "string",
          "name": "",
          "type": "string"
        }
      ],
      "name": "reservedNames",
      "outputs": [
        {
          "internalType": "bool",
          "name": "",
          "type": "bool"
        }
      ],
      "stateMutability": "view",
      "type": "function"
    },
    {
      "inputs": [
        {
          "internalType": "string",
          "name": "identifier",
          "type": "string"
        }
      ],
      "name": "resolveEntityId",
      "outputs": [
        {
          "internalType": "bytes32",
          "name": "",
          "type": "bytes32"
        }
      ],
      "stateMutability": "view",
      "type": "function"
    },
    {
      "inputs": [
        {
          "internalType": "address",
          "name": "from",
          "type": "address"
        },
        {
          "internalType": "address",
          "name": "to",
          "type": "address"
        },
        {
          "internalType": "uint256[]",
          "name": "ids",
          "type": "uint256[]"
        },
        {
          "internalType": "uint256[]",
          "name": "values",
          "type": "uint256[]"
        },
        {
          "internalType": "bytes",
          "name": "data",
          "type": "bytes"
        }
      ],
      "name": "safeBatchTransferFrom",
      "outputs": [],
      "stateMutability": "nonpayable",
      "type": "function"
    },
    {
      "inputs": [
        {
          "internalType": "address",
          "name": "from",
          "type": "address"
        },
        {
          "internalType": "address",
          "name": "to",
          "type": "address"
        },
        {
          "internalType": "uint256",
          "name": "id",
          "type": "uint256"
        },
        {
          "internalType": "uint256",
          "name": "value",
          "type": "uint256"
        },
        {
          "internalType": "bytes",
          "name": "data",
          "type": "bytes"
        }
      ],
      "name": "safeTransferFrom",
      "outputs": [],
      "stateMutability": "nonpayable",
      "type": "function"
    },
    {
      "inputs": [
        {
          "internalType": "address",
          "name": "operator",
          "type": "address"
        },
        {
          "internalType": "bool",
          "name": "approved",
          "type": "bool"
        }
      ],
      "name": "setApprovalForAll",
      "outputs": [],
      "stateMutability": "nonpayable",
      "type": "function"
    },
    {
      "inputs": [
        {
          "internalType": "address",
          "name": "user",
          "type": "address"
        },
        {
          "internalType": "uint8",
          "name": "quota",
          "type": "uint8"
        }
      ],
      "name": "setNameQuota",
      "outputs": [],
      "stateMutability": "nonpayable",
      "type": "function"
    },
    {
      "inputs": [
        {
          "internalType": "string",
          "name": "name",
          "type": "string"
        },
        {
          "internalType": "bool",
          "name": "reserved",
          "type": "bool"
        }
      ],
      "name": "setReservedName",
      "outputs": [],
      "stateMutability": "nonpayable",
      "type": "function"
    },
    {
      "inputs": [
        {
          "internalType": "bytes4",
          "name": "interfaceId",
          "type": "bytes4"
        }
      ],
      "name": "supportsInterface",
      "outputs": [
        {
          "internalType": "bool",
          "name": "",
          "type": "bool"
        }
      ],
      "stateMutability": "view",
      "type": "function"
    },
    {
      "inputs": [
        {
          "internalType": "bytes32",
          "name": "",
          "type": "bytes32"
        }
      ],
      "name": "totalControlSupply",
      "outputs": [
        {
          "internalType": "uint256",
          "name": "",
          "type": "uint256"
        }
      ],
      "stateMutability": "view",
      "type": "function"
    },
    {
      "inputs": [
        {
          "internalType": "bytes32",
          "name": "",
          "type": "bytes32"
        }
      ],
      "name": "totalDividendSupply",
      "outputs": [
        {
          "internalType": "uint256",
          "name": "",
          "type": "uint256"
        }
      ],
      "stateMutability": "view",
      "type": "function"
    },
    {
      "inputs": [
        {
          "internalType": "string",
          "name": "name",
          "type": "string"
        },
        {
          "internalType": "uint256",
          "name": "newEntityNumber",
          "type": "uint256"
        }
      ],
      "name": "transferName",
      "outputs": [],
      "stateMutability": "nonpayable",
      "type": "function"
    },
    {
      "inputs": [
        {
          "internalType": "uint256",
          "name": "",
          "type": "uint256"
        }
      ],
      "name": "uri",
      "outputs": [
        {
          "internalType": "string",
          "name": "",
          "type": "string"
        }
      ],
      "stateMutability": "view",
      "type": "function"
    },
    {
      "inputs": [
        {
          "internalType": "bytes",
          "name": "hankoData",
          "type": "bytes"
        },
        {
          "internalType": "bytes32",
          "name": "hash",
          "type": "bytes32"
        }
      ],
      "name": "verifyHankoSignature",
      "outputs": [
        {
          "internalType": "bytes32",
          "name": "entityId",
          "type": "bytes32"
        },
        {
          "internalType": "bool",
          "name": "success",
          "type": "bool"
        }
      ],
      "stateMutability": "view",
      "type": "function"
    }
  ],
  "bytecode": "0x60406080815234620002a8576200001f6200001962000351565b6200062e565b6200002a6001600455565b6200005d62000050602860405167636f696e6261736560c01b8152600760088201522090565b805460ff19166001179055565b6200008362000050602860405167657468657265756d60c01b8152600760088201522090565b620000a7620000506027604051663134ba31b7b4b760c91b81526007808201522090565b620000cb620000506027604051660756e69737761760cc1b81526007808201522090565b620001b7620000d9620002ed565b6103e88152610bb860208201526000818401526033606082015282516200014b816200013c602082019485919091606061ffff81608084019563ffffffff8082511686528060208301511660208701526040820151166040860152015116910152565b03601f198101835282620002c3565b519020620001586200030d565b907fa1237dddbd29f99fde152257ccb2f783e434670afa247b2a52d81a326d4cf0ad8252600060208301526000848301524360608301526000608083015260a0820152620001b160016000526003602052604060002090565b6200039b565b60017f52629ba16cb44b809941f19e442f11a9973e93cc91be0d91df4afbe6e7c624ca6001600160ff1b0182620001f8620001f16200032d565b8262000402565b6200020d620002066200032d565b8362000402565b6001600052600a602052620002497fbbc70db1b6c7afd11e79c0fb0051300458f1a3acb8ee9789d9b6b26c61ad9bc75b66038d7ea4c680009055565b6001600052600b6020526200027e7f72c6bfb7988af3a1efa6568f02a999bc52252641c659d85961ca3d372b57d5cf6200023d565b84519081526020810191909152604090a26200029a6002600455565b516141949081620009fa8239f35b600080fd5b634e487b7160e01b600052604160045260246000fd5b601f909101601f19168101906001600160401b03821190821017620002e757604052565b620002ad565b60405190608082016001600160401b03811183821017620002e757604052565b6040519060c082016001600160401b03811183821017620002e757604052565b60405190602082016001600160401b03811183821017620002e75760405260008252565b60408051919082016001600160401b03811183821017620002e757604052602082527f68747470733a2f2f786c6e2e636f6d2f656e746974792f7b69647d2e6a736f6e6020830152565b908051825560208101516001830155604081015160028301556060810151600383015560048201906080810151906003821015620003ec5760059260a09260ff801983541691161790550151910155565b634e487b7160e01b600052602160045260246000fd5b9060405191600190818452602091602085019182526040850190808252606093606087019466038d7ea4c6800086526080880180604052885185518082036200057a57505050908291826000905b6200051a575b505050865114600014620004da5780600084517fc3d58168c5ae7397731d063d5bbf3d657854427343f4c083240f7aacaa2d0f62620004ab885160405191829133958360209093929193604081019481520152565b0390a45b855103620004cb5750620004c993505190519033620009c4565b565b915050620004c99233620008a7565b8060006040517f4a39dc06d4c0dbc64b70af90fd698a233a518aa5d07e595d983b8c0526c8f7fb33918062000511888d8362000783565b0390a4620004af565b8951811015620005745780849160051b8b016200056a62000561620005518688850151940151936000526000602052604060002090565b6001600052602052604060002090565b91825462000729565b9055018362000450565b62000456565b635b05999160e01b835260848b019190915260a48a0152604490fd5b90600182811c92168015620005c8575b6020831014620005b257565b634e487b7160e01b600052602260045260246000fd5b91607f1691620005a6565b601f8111620005e0575050565b60009060026000526020600020906020601f850160051c8301941062000623575b601f0160051c01915b8281106200061757505050565b8181556001016200060a565b909250829062000601565b80519091906001600160401b038111620002e7576200065a816200065460025462000596565b620005d3565b602080601f8311600114620006a15750819062000690939460009262000695575b50508160011b916000199060031b1c19161790565b600255565b0151905038806200067b565b6002600052601f198316949091907f405787fa12a823e0f2b7631cc41b3ba8828b3321ca811111fa75cd3aa3bb5ace926000905b87821062000710575050836001959610620006f6575b505050811b01600255565b015160001960f88460031b161c19169055388080620006eb565b80600185968294968601518155019501930190620006d5565b919082018092116200073757565b634e487b7160e01b600052601160045260246000fd5b90815180825260208080930193019160005b8281106200076e575050505090565b8351855293810193928101926001016200075f565b90916200079d620007ac936040845260408401906200074d565b9160208184039101526200074d565b90565b90816020910312620002a857516001600160e01b031981168103620002a85790565b919082519283825260005b848110620007fe575050826000602080949584010152601f8019910116010190565b602081830181015184830182015201620007dc565b9262000846620007ac9593620008559360018060a01b031686526000602087015260a0604087015260a08601906200074d565b9084820360608601526200074d565b916080818403910152620007d1565b3d15620008a2573d906001600160401b038211620002e7576040519162000896601f8201601f191660200184620002c3565b82523d6000602084013e565b606090565b929160013b620008b8575b50505050565b602091620008dd604051948593849363bc197c8160e01b988986526004860162000813565b0381600060015af16000918162000959575b506200092657620008ff62000864565b805190816200092157604051632bfa23e760e11b815260016004820152602490fd5b602001fd5b6001600160e01b03191603620009405738808080620008b2565b604051632bfa23e760e11b815260016004820152602490fd5b6200098191925060203d60201162000989575b620009788183620002c3565b810190620007af565b9038620008ef565b503d6200096c565b909260a092620007ac9594600180861b0316835260006020840152604083015260608201528160808201520190620007d1565b929160013b620009d45750505050565b602091620008dd604051948593849363f23a6e6160e01b98898652600486016200099156fe6080604052600436101561001257600080fd5b60003560e01c8062fdd58e1461027157806301ffc9a71461026c57806303db7616146101ea5780630e89341c146102675780630ebf19c6146102625780631e76fea51461025d5780631ed3d4401461025857806326760ce6146102535780632a20cc801461024e5780632eb2c2d6146102495780632fae4ffd14610244578063311cf8eb1461023f5780634e1273f41461023a578063504d23ea1461023557806357991d30146102305780635a7931c81461022b5780635b70ae4114610226578063680c3ff21461022157806368436f101461021c5780637ea397c8146102175780638193e00714610212578063820eec5f1461020d578063848202fe146102085780638aad0628146102035780638d197ec7146101fe5780638dbe6c38146101f95780639248cd43146101f4578063a22cb465146101ef578063a74f77e7146101ea578063c83fa48e146101e5578063cce41598146101e0578063d93e68d6146101db578063e1657b8a146101d6578063e5b338fd146101d1578063e8f48031146101cc578063e985e9c5146101c7578063edd2133b146101c25763f242432a146101bd57600080fd5b61208a565b611fbf565b611f3e565b611f22565b611eb4565b611daf565b611d53565b611bf7565b611a19565b6103d5565b611954565b6118c8565b6116d0565b611691565b611644565b6115f8565b611431565b6113f4565b611372565b61134c565b611233565b611207565b61119f565b61114a565b61112a565b61106f565b610ffe565b610fe6565b610e35565b610d48565b610bef565b610baf565b610957565b6106b1565b610453565b61031b565b6102bb565b600435906001600160a01b038216820361028c57565b600080fd5b602435906001600160a01b038216820361028c57565b35906001600160a01b038216820361028c57565b3461028c57604036600319011261028c5760206103006102d9610276565b602435600052600083526040600020906001600160a01b0316600052602052604060002090565b54604051908152f35b6001600160e01b031981160361028c57565b3461028c57602036600319011261028c5760206001600160e01b031960043561034381610309565b167fd9b67a260000000000000000000000000000000000000000000000000000000081149081156103ab575b8115610381575b506040519015158152f35b7f01ffc9a70000000000000000000000000000000000000000000000000000000091501438610376565b7f0e89341c000000000000000000000000000000000000000000000000000000008114915061036f565b3461028c57600036600319011261028c57602060405166038d7ea4c680008152f35b60005b83811061040a5750506000910152565b81810151838201526020016103fa565b90602091610433815180928185528580860191016103f7565b601f01601f1916010190565b90602061045092818152019061041a565b90565b3461028c5760208060031936011261028c5760405160009160025461047781610ad2565b8084529060019081811690811561050c57506001146104b1575b6104ad846104a1818803826105d3565b6040519182918261043f565b0390f35b600260009081529294507f405787fa12a823e0f2b7631cc41b3ba8828b3321ca811111fa75cd3aa3bb5ace5b8284106104f957505050816104ad936104a19282010193610491565b80548585018701529285019281016104dd565b60ff1916858501525050151560051b82010191506104a1816104ad610491565b634e487b7160e01b600052604160045260246000fd5b6080810190811067ffffffffffffffff82111761055e57604052565b61052c565b60c0810190811067ffffffffffffffff82111761055e57604052565b6060810190811067ffffffffffffffff82111761055e57604052565b60e0810190811067ffffffffffffffff82111761055e57604052565b6020810190811067ffffffffffffffff82111761055e57604052565b90601f8019910116810190811067ffffffffffffffff82111761055e57604052565b6040519061060282610563565b565b6040519061060282610542565b67ffffffffffffffff811161055e57601f01601f191660200190565b92919261063982610611565b9161064760405193846105d3565b82948184528183011161028c578281602093846000960137010152565b9080601f8301121561028c578160206104509335910161062d565b604060031982011261028c576004359067ffffffffffffffff821161028c576106aa91600401610664565b9060243590565b3461028c576106bf3661067f565b3360009081527fada5013122d395ba3c54772283fb069b10426056ef8ca54750cb9bb552a59e7d602052604081209092906106fd905b541515612181565b61070681610f9a565b54156107a95761072b610723836000526003602052604060002090565b5415156121cc565b61078261073782610f9a565b5491610755610750846000526006602052604060002090565b61225f565b8361075f82610f9a565b5561077d81610778866000526006602052604060002090565b6122ed565b6123c3565b7fea3298815689e7c88c8a95c13838806450c4cee965a7c33dda77b335f64565788480a480f35b606460405162461bcd60e51b815260206004820152601160248201527f4e616d65206e6f742061737369676e65640000000000000000000000000000006044820152fd5b60243590600382101561028c57565b60443590600382101561028c57565b359063ffffffff8216820361028c57565b359061ffff8216820361028c57565b608090604319011261028c576040519061084482610542565b8163ffffffff604435818116810361028c578252606435818116810361028c576020830152608435908116810361028c57604082015260a4359061ffff8216820361028c5760600152565b608090606319011261028c57604051906108a882610542565b8163ffffffff606435818116810361028c578252608435818116810361028c57602083015260a435908116810361028c57604082015260c4359061ffff8216820361028c5760600152565b608090602319011261028c576040519061090c82610542565b8163ffffffff602435818116810361028c578252604435818116810361028c576020830152606435908116810361028c5760408201526084359061ffff8216820361028c5760600152565b3461028c5760c036600319011261028c576004357f1022d6ed189b00c6d01d0bdfcc78a25b81a33fc04c61bc53abf2de6bbc60f375610acd6109976107ed565b610a5b6109a33661082b565b6109c26109ba876000526003602052604060002090565b5415156123e3565b6109e460016109db886000526003602052604060002090565b0154151561242e565b604051610a3a81610a2c602082019485919091606061ffff81608084019563ffffffff8082511686528060208301511660208701526040820151166040860152015116910152565b03601f1981018352826105d3565b5190206005610a53876000526003602052604060002090565b015414612479565b610a8d610a88610a826004610a7a886000526003602052604060002090565b015460ff1690565b83612f00565b6124c4565b60006001610aa5866000526003602052604060002090565b015560006002610abf866000526003602052604060002090565b01556040519182918261250f565b0390a2005b90600182811c92168015610b02575b6020831014610aec57565b634e487b7160e01b600052602260045260246000fd5b91607f1691610ae1565b90604051918260008254610b1f81610ad2565b90818452602094600191600181169081600014610b8d5750600114610b4e575b505050610602925003836105d3565b600090815285812095935091905b818310610b755750506106029350820101388080610b3f565b85548884018501529485019487945091830191610b5c565b9250505061060294925060ff191682840152151560051b820101388080610b3f565b3461028c57602036600319011261028c5760043560005260066020526104ad610bdb6040600020610b0c565b60405191829160208352602083019061041a565b3461028c57610bfd3661067f565b3360009081527fada5013122d395ba3c54772283fb069b10426056ef8ca54750cb9bb552a59e7d60205260408120909290610c37906106f5565b80518015159081610d3c575b5015610cf857610cc090610c646109ba846000526003602052604060002090565b610c77610c7082610f9a565b541561251f565b83610c94610c8f856000526006602052604060002090565b610b0c565b8051610ce7575b505082610ca782610f9a565b5561077d81610778856000526006602052604060002090565b7f0d74c26d085287bcf3070f20f8d884a204aa6f73949ab189d58abd345b1cac948380a380f35b610cf090610f9a565b558338610c9b565b606460405162461bcd60e51b815260206004820152601360248201527f496e76616c6964206e616d65206c656e677468000000000000000000000000006044820152fd5b60209150111538610c43565b3461028c5760208060031936011261028c5760c0906004359081600052600a815260408060002054600b83528160002054906009845260ff6004846000200154169260038552600581600020015494600160ff1b825197808952179087015285015260608401521515608083015260a0820152f35b67ffffffffffffffff811161055e5760051b60200190565b9080601f8301121561028c576020908235610def81610dbd565b93610dfd60405195866105d3565b81855260208086019260051b82010192831161028c57602001905b828210610e26575050505090565b81358152908301908301610e18565b3461028c5760a036600319011261028c57610e4e610276565b610e56610291565b906044359167ffffffffffffffff9081841161028c57610e7b60049436908601610dd5565b9060643583811161028c57610e939036908701610dd5565b9260843590811161028c57610eab9036908701610664565b936001600160a01b03808216903382141580610f3a575b610f0d57831615610ef55715610ede57610edc9550613b20565b005b602486600060405191626a0d4560e21b8352820152fd5b602487600060405191632bfa23e760e11b8352820152fd5b6040805163711bec9160e11b815233818b019081526001600160a01b038616602082015290918291010390fd5b5081600052600160205260ff610f67336040600020906001600160a01b0316600052602052604060002090565b541615610ec2565b602060031982011261028c576004359067ffffffffffffffff821161028c5761045091600401610664565b6020610fb39181604051938285809451938492016103f7565b8101600581520301902090565b6020610fd99181604051938285809451938492016103f7565b8101600781520301902090565b3461028c576020610300610ff936610f6f565b610f9a565b3461028c57602036600319011261028c57600435600052600a6020526020604060002054604051908152f35b90815180825260208080930193019160005b82811061104a575050505090565b83518552938101939281019260010161103c565b90602061045092818152019061102a565b3461028c57604036600319011261028c5760043567ffffffffffffffff80821161028c573660238301121561028c5781600401356110ac81610dbd565b926110ba60405194856105d3565b8184526020916024602086019160051b8301019136831161028c57602401905b828210611113578560243586811161028c576104ad91611101611107923690600401610dd5565b90612599565b6040519182918261105e565b83809161111f846102a7565b8152019101906110da565b3461028c57602061114261113d36610f6f565b61263e565b604051908152f35b3461028c57602036600319011261028c5760408051600435808252600160ff1b176020820152f35b6003111561117c57565b634e487b7160e01b600052602160045260246000fd5b90600382101561117c5752565b3461028c57602036600319011261028c57600435600052600960205260a0604060002080549060ff6001820154169060028101546111f460ff6004600385015494015416936040519586526020860190611192565b6040840152606083015215156080820152f35b3461028c57602036600319011261028c57600435600052600b6020526020604060002054604051908152f35b3461028c57602036600319011261028c576004356000908082526003602052611261604083205415156123e3565b808252600360205261127b6001604084200154151561242e565b61129e6002611294836000526003602052604060002090565b0154431015612653565b60016112b4826000526003602052604060002090565b01546112ca826000526003602052604060002090565b558160016112e2836000526003602052604060002090565b01558160026112fb836000526003602052604060002090565b01557f30b47f773c1d2a65ce0ef667c3b123d5abd927c62b56907569c0daf51cd65150611346611335836000526003602052604060002090565b546040519081529081906020820190565b0390a280f35b3461028c57602060ff61136661136136610f6f565b610fc0565b54166040519015158152f35b3461028c57604036600319011261028c5761138b610276565b60243560ff811680910361028c573360009081527fada5013122d395ba3c54772283fb069b10426056ef8ca54750cb9bb552a59e7d6020526040812090926001600160a01b03916113db906106f5565b1682526008602052604082209060ff1982541617905580f35b3461028c57602036600319011261028c576001600160a01b03611415610276565b166000526008602052602060ff60406000205416604051908152f35b3461028c5760e036600319011261028c576004357fc4e5e67fff3ba4bffbe07d84c897dbf61a0027b703754b45a5c9de6b58bfd793610acd60243561159c6114776107fc565b61154f63ffffffff61150e8361148c3661088f565b6114a36109ba8c6000526003602052604060002090565b6115098b6005610a5360405160208101906114f581610a2c8985919091606061ffff81608084019563ffffffff8082511686528060208301511660208701526040820151166040860152015116910152565b519020926000526003602052604060002090565b612f47565b1661151a81151561269e565b61152383611172565b600183036115db575b6001611542896000526003602052604060002090565b01546115ac575b43612768565b836001611566896000526003602052604060002090565b0155600261157e886000526003602052604060002090565b01556004611596876000526003602052604060002090565b01612775565b6040519081529081906020820190565b6115d66115d16115cb6004610a7a8c6000526003602052604060002090565b85612f00565b6126e9565b611549565b6115e483611172565b821561152c576115f383611172565b61152c565b3461028c57600036600319011261028c576020600454604051908152f35b9181601f8401121561028c5782359167ffffffffffffffff831161028c576020838186019501011161028c57565b3461028c57604036600319011261028c5760043567ffffffffffffffff811161028c5761168361167a6040923690600401611616565b60243591612a65565b825191825215156020820152f35b3461028c57602036600319011261028c5760206040517f7fffffffffffffffffffffffffffffffffffffffffffffffffffffffffffffff600435168152f35b3461028c5760a036600319011261028c576104ad6004356116f0366108f3565b3360009081527fada5013122d395ba3c54772283fb069b10426056ef8ca54750cb9bb552a59e7d602052604080822091939092917f52629ba16cb44b809941f19e442f11a9973e93cc91be0d91df4afbe6e7c624ca9161189c91611753906106f5565b6117f760045496879561176d6117688861290e565b600455565b87516117b481610a2c602082019485919091606061ffff81608084019563ffffffff8082511686528060208301511660208701526040820151166040860152015116910152565b5190206117bf6105f5565b918483528060208401528089840152436060840152608083015260a08201526117f2866000526003602052604060002090565b612cfe565b83807fc9234525033c1ac098f69b4dc192ce416b13f69ec0b6de127022496be73337fd81600160ff1b81179590946118536001600160a01b03851661184461183d612d48565b89836135a8565b8861184d612d48565b916135a8565b61187661186a85600052600a602052604060002090565b66038d7ea4c680009055565b61188d61186a85600052600b602052604060002090565b89519081529081906020820190565b0390a384519081526020810191909152604090a2519081529081906020820190565b8015150361028c57565b3461028c57604036600319011261028c5760043567ffffffffffffffff811161028c576118fc610edc913690600401610664565b6119436024359161190c836118be565b3360009081527fada5013122d395ba3c54772283fb069b10426056ef8ca54750cb9bb552a59e7d60205260409020611361906106f5565b9060ff801983541691151516179055565b3461028c57604036600319011261028c5761196d610276565b602435611979816118be565b6001600160a01b0382169182156119e857816119436119b8923360005260016020526040600020906001600160a01b0316600052602052604060002090565b60405190151581527f17307eab39ab6107e8899845ad3d59bd9653f200f220920489ca2b5937696c3160203392a3005b60246040517fced3e10000000000000000000000000000000000000000000000000000000000815260006004820152fd5b3461028c5760c036600319011261028c57600435611a35610291565b9060643560443567ffffffffffffffff60843581811161028c57611a5d903690600401611616565b919060a43591821161028c578592611a7c611aee933690600401611616565b9160405160208101907f454e544954595f5452414e534645520000000000000000000000000000000000825287602f8201526bffffffffffffffffffffffff198c60601b16604f8201528860638201528960838201524260a382015260a38152611ae58161059b565b51902093612e4f565b03611b0e57610edc936001600160a01b03611b07612d48565b9416613759565b606460405162461bcd60e51b815260206004820152601860248201527f496e76616c696420656e74697479207369676e617475726500000000000000006044820152fd5b9181601f8401121561028c5782359167ffffffffffffffff831161028c576020808501948460051b01011161028c57565b6040810190604081528251809252606081019160208094019060005b818110611be3575050508281830391015281808451928381520193019160005b828110611bcd575050505090565b8351151585529381019392810192600101611bbf565b825185529385019391850191600101611b9f565b3461028c5760408060031936011261028c5767ffffffffffffffff6004803582811161028c57611c2b903690600401611b52565b93909260243590811161028c57611c46903690600401611b52565b90611c52828714612d5b565b611c5b866128dc565b93611c65876128dc565b9660005b818110611c7e578551806104ad8b8a83611b83565b80611c8b8792848b612da6565b611c99838989969496612de8565b3593611cd0835195869384937f8aad06280000000000000000000000000000000000000000000000000000000085528a8501612e14565b0381305afa8015611d4e5760019282918c6000928392611d12575b50611d019293611cfa91612580565b9015159052565b611d0b828a612580565b5201611c69565b611d019350611cfa919250611d3c908c8d3d10611d47575b611d3481836105d3565b810190612df8565b909390929150611ceb565b503d611d2a565b612e43565b3461028c57606036600319011261028c5767ffffffffffffffff60043581811161028c57611d85903690600401611616565b919060243591821161028c57602092611da5611142933690600401611616565b9160443593612e4f565b3461028c57602036600319011261028c576104ad60043560045490611dd66117688361290e565b817f52629ba16cb44b809941f19e442f11a9973e93cc91be0d91df4afbe6e7c624ca61189c611e03610604565b6103e8815293610bb860208601526117f7604095611e248782016127109052565b603360608201528651611e7281610a2c602082019485919091606061ffff81608084019563ffffffff8082511686528060208301511660208701526040820151166040860152015116910152565b519020611e7d6105f5565b90838252600060208301526000888301524360608301526000608083015260a08201526117f2866000526003602052604060002090565b3461028c57602036600319011261028c57600435600052600360205260c06040600020805490611f1b6001820154916002810154600382015490600560ff600485015416930154946040519687526020870152604086015260608501526080840190611192565b60a0820152f35b3461028c57600036600319011261028c57602060405160018152f35b3461028c57604036600319011261028c57602060ff611366611f5e610276565b6001600160a01b03611f6e610291565b9116600052600184526040600020906001600160a01b0316600052602052604060002090565b919260a09361045096959215158452602084015260408301526060820152816080820152019061041a565b3461028c57602036600319011261028c576004356060908060005260036020526104ad60406000209260405192611ff584610563565b84548452600185015493602081019485526002860154604082015260056003870154966060830197885261203360ff60048301541660808501612cf2565b015460a08201525193519451908015158061207f575b61205e575b5060405194848695151586611f94565b612078919250610c8f906000526006602052604060002090565b903861204e565b506004548110612049565b3461028c5760a036600319011261028c576120a3610276565b6120ab610291565b60843567ffffffffffffffff811161028c576120cb903690600401610664565b906001600160a01b03831633811415908161211e575b506120f757610edc926064359160443591613759565b60405163711bec9160e11b81523360048201526001600160a01b0384166024820152604490fd5b9050600052600160205260ff61214b336040600020906001600160a01b0316600052602052604060002090565b541615386120e1565b61217d9160005260006020526040600020906001600160a01b0316600052602052604060002090565b5490565b1561218857565b606460405162461bcd60e51b815260206004820152601d60248201527f4f6e6c7920666f756e646174696f6e20746f6b656e20686f6c646572730000006044820152fd5b156121d357565b606460405162461bcd60e51b815260206004820152601b60248201527f54617267657420656e7469747920646f65736e277420657869737400000000006044820152fd5b818110612222575050565b60008155600101612217565b634e487b7160e01b600052601160045260246000fd5b908160061b918083046040149015171561225a57565b61222e565b6122698154610ad2565b9081612273575050565b81601f60009311600114612285575055565b9080839182526122a4601f60208420940160051c840160018501612217565b5555565b9190601f81116122b757505050565b610602926000526020600020906020601f840160051c830193106122e3575b601f0160051c0190612217565b90915081906122d6565b919091825167ffffffffffffffff811161055e576123158161230f8454610ad2565b846122a8565b602080601f83116001146123585750819061234993949560009261234d575b50508160011b916000199060031b1c19161790565b9055565b015190503880612334565b90601f1983169561236e85600052602060002090565b926000905b8882106123ab57505083600195969710612392575b505050811b019055565b015160001960f88460031b161c19169055388080612388565b80600185968294968601518155019501930190612373565b6123db906020604051928284809451938492016103f7565b810103902090565b156123ea57565b606460405162461bcd60e51b815260206004820152601460248201527f456e7469747920646f65736e27742065786973740000000000000000000000006044820152fd5b1561243557565b606460405162461bcd60e51b815260206004820152601160248201527f4e6f2070726f706f73656420626f6172640000000000000000000000000000006044820152fd5b1561248057565b606460405162461bcd60e51b815260206004820152601060248201527f496e76616c69642061727469636c6573000000000000000000000000000000006044820152fd5b156124cb57565b606460405162461bcd60e51b815260206004820152601b60248201527f43616e6e6f742063616e63656c20746869732070726f706f73616c00000000006044820152fd5b6020810192916106029190611192565b1561252657565b606460405162461bcd60e51b815260206004820152601560248201527f4e616d6520616c72656164792061737369676e656400000000000000000000006044820152fd5b634e487b7160e01b600052603260045260246000fd5b80518210156125945760209160051b010190565b61256a565b9190918051835180820361261c5750508051906125ce6125b883610dbd565b926125c660405194856105d3565b808452610dbd565b60209190601f1901368484013760005b8151811015612614578061260360019260051b85808287010151918a01015190612154565b61260d8287612580565b52016125de565b509193505050565b604051635b05999160e01b815260048101919091526024810191909152604490fd5b61264790610f9a565b54806104505750600090565b1561265a57565b606460405162461bcd60e51b815260206004820152601460248201527f44656c617920706572696f64206e6f74206d65740000000000000000000000006044820152fd5b156126a557565b606460405162461bcd60e51b815260206004820152601660248201527f50726f706f73657220747970652064697361626c6564000000000000000000006044820152fd5b156126f057565b608460405162461bcd60e51b815260206004820152602160248201527f43616e6e6f74206f76657272696465206578697374696e672070726f706f736160448201527f6c000000000000000000000000000000000000000000000000000000000000006064820152fd5b906007820180921161225a57565b9190820180921161225a57565b90600381101561117c5760ff80198354169116179055565b602091828282031261028c57813567ffffffffffffffff9283821161028c57019260609260608584031261028c576040928351956127ca8761057f565b803583811161028c57826127df918301610dd5565b87528381013583811161028c57826127f8918301610664565b84880152848101359083821161028c57019181601f8401121561028c5782359061282182610dbd565b9661282e875198896105d3565b828852858089019360051b8601019484861161028c57868101935b86851061285e57505050505050505082015290565b843584811161028c5782019060809081601f19848a03011261028c578a5161288581610542565b8a84013581528b84013587811161028c57898c6128a492870101610dd5565b8b820152858401359287841161028c57848d6128c78c8f80999881990101610dd5565b90840152013586820152815201940193612849565b906128e682610dbd565b6128f360405191826105d3565b8281528092612904601f1991610dbd565b0190602036910137565b600019811461225a5760010190565b1561292457565b608460405162461bcd60e51b815260206004820152602560248201527f436c61696d20696e64657865732f77656967687473206c656e677468206d697360448201527f6d617463680000000000000000000000000000000000000000000000000000006064820152fd5b1561299557565b606460405162461bcd60e51b815260206004820152601a60248201527f456e7469747920696e646578206f7574206f6620626f756e64730000000000006044820152fd5b60001981019190821161225a57565b9190820391821161225a57565b156129fc57565b608460405162461bcd60e51b8152602060048201526024808201527f5265666572656e63656420636c61696d20696e646578206f7574206f6620626f60448201527f756e6473000000000000000000000000000000000000000000000000000000006064820152fd5b612a749193929381019061278d565b90602090612a85602084015161303b565b805192612a9484865151612768565b92604091612aa9604088019586515190612768565b94612ab3876128dc565b96600096875b8751811015612b39576041612ace828a612580565b515114612ade575b600101612ab9565b612af2612aeb828a612580565b518d6131fe565b8a6001600160a01b038216612b09575b5050612ad6565b99612b2c612b3192612b1e836001969e612580565b906001600160a01b03169052565b61290e565b98908a612b02565b509497995094509496919096612b4e816128dc565b9860005b828110612cb8575050506000905b85518051831015612c815782612b7591612580565b5191612b8b612b84848c6133d0565b84516134ca565b50888301988951519a612ba48a86019c8d51511461291d565b6000998a5b8c518051821015612c5057612bc08f918390612580565b51612bcc8b821061298e565b89515180821015612be4575050506001905b01612ba9565b918d849f928e908d612bf98360019998612768565b821015612c1f5750505050612c1992612c129151612580565b5190612768565b9b612bde565b92612c41612c129593612c3c612c4a94612c199a975151906129e8565b6129e8565b905151116129f5565b51612580565b50509b50936060919992939a50015111612c705760010190979596612b60565b505050505050509050600090600090565b509750505050509150505180519081612c9e575050600090600090565b612caa612cb0926129d9565b90612580565b515190600190565b80612ce7612cdd612cd06001949c9e979d9c86612580565b516001600160a01b031690565b612b1e8388612580565b019997989299612b52565b600382101561117c5752565b90805182556020810151600183015560408101516002830155606081015160038301556080810151600381101561117c57600591612d4160a09260048601612775565b0151910155565b60405190612d55826105b7565b60008252565b15612d6257565b606460405162461bcd60e51b815260206004820152601560248201527f4172726179206c656e677468206d69736d6174636800000000000000000000006044820152fd5b91908110156125945760051b81013590601e198136030182121561028c57019081359167ffffffffffffffff831161028c57602001823603811361028c579190565b91908110156125945760051b0190565b919082604091031261028c5760208251920151610450816118be565b9392918060609160209360408852816040890152838801376000828288010152601f8019910116850101930152565b6040513d6000823e3d90fd5b612e5a36838361062d565b6020815191012094600180600454905b818110612e8f5750505091612e84939161ffff9593613a00565b166104505750600090565b80612ea584926000526003602052604060002090565b54151580612ee3575b612eb9575b01612e6a565b905061ffff612ecb8989898989613a00565b16612ed7578290612eb3565b97505050505050505090565b5089612ef9826000526003602052604060002090565b5414612eae565b600381101561117c5760018114612f3557612f1a81611172565b15612f255750600090565b80612f31600292611172565b1490565b5080612f42600192611172565b141590565b90600381101561117c5760018114612f7d5780612f65600292611172565b14612f705750600090565b6020015163ffffffff1690565b505163ffffffff1690565b604051612f94816105b7565b6000815290565b90612fa582610dbd565b612fb260405191826105d3565b8281528092612fc3601f1991610dbd565b019060005b828110612fd457505050565b806060602080938501015201612fc8565b60405190612ff28261057f565b6040808352366020840137565b6040519061300c82610542565b604182526060366020840137565b8051604010156125945760600190565b908151811015612594570160200190565b9061304582613d2d565b80156131e15761305481612244565b9061305e8161275a565b5061306881612f9b565b9360005b8281106130795750505050565b613081612fe5565b60005b604081106131ac57506130f16130f86130a08460031c88612768565b60019283916130e56130df6130b960078a16938b61302a565b517fff000000000000000000000000000000000000000000000000000000000000001690565b60f81c90565b9060ff809216901c1690565b1660ff1690565b6131a457601b915b613108612fff565b613112858b612580565b5261311d848a612580565b5060005b60408110613174575050509060019161316d7fff0000000000000000000000000000000000000000000000000000000000000061315e848b612580565b519260f81b1660001a9161301a565b530161306c565b808a61319d826131928961318c6130b98a988a61302a565b94612580565b519260001a9261302a565b5301613121565b601c91613100565b806131cd6130b96131c76001946131c288612244565b612768565b8761302a565b60001a6131da828561302a565b5301613084565b509050610450612f88565b60ff601b9116019060ff821161225a57565b9060418151036132a45760009160208201519260606040840151930151901a90601b8210613294575b60ff8216601b8114159081613288575b5061327f5761326b600093602095604051948594859094939260ff6060936080840197845216602083015260408201520152565b838052039060015afa15611d4e5760005190565b50505050600090565b601c9150141538613237565b9061329e906131ec565b90613227565b5050600090565b156132b257565b606460405162461bcd60e51b815260206004820152601f60248201527f5369676e6572732f77656967687473206c656e677468206d69736d61746368006044820152fd5b90815180825260208080930193019160005b828110613316575050505090565b835161ffff1685529381019392810192600101613308565b6020808252825161ffff16818301528083015160c06040840152805160e084018190526101008401959493929182019160005b8281106133bc575050505060c060a061338f8495966040610450960151601f198683030160608701526132f6565b606086015163ffffffff16608085015294608081015163ffffffff1684830152015163ffffffff16910152565b835188529681019692810192600101613361565b918251926133e56040840194855151146132ab565b6133ef81516128dc565b906133fa81516128dc565b9260005b8251811015613466578061342961341d61341d612cd060019588612580565b6001600160a01b031690565b6134338287612580565b5261346061344d613445838b51612580565b5161ffff1690565b6134578389612580565b9061ffff169052565b016133fe565b5094505091606061347a91015161ffff1690565b916134906134866105f5565b61ffff9094168452565b602083015260408201526000606082015260006080820152600060a08201526040516134c481610a2c60208201948561332e565b51902090565b80600052600360205260406000205480156000146135575750036134ed57600190565b608460405162461bcd60e51b815260206004820152602560248201527f4c617a7920656e746974793a204944206d75737420657175616c20626f61726460448201527f20686173680000000000000000000000000000000000000000000000000000006064820152fd5b9190500361356457600090565b606460405162461bcd60e51b815260206004820152601360248201527f426f6172642068617368206d69736d61746368000000000000000000000000006044820152fd5b9190916001600160a01b03811680156137415760405190600191828152602092602082019687526040820192818452606094606084019566038d7ea4c68000875260808501806040528551875180820361372557505050908391826000905b6136c3575b50505083511460001461368757600088517fc3d58168c5ae7397731d063d5bbf3d657854427343f4c083240f7aacaa2d0f6261365e885160405191829133958360209093929193604081019481520152565b0390a45b8151036136795750506106029351905191336140f2565b915091610602945033613ef4565b60006040517f4a39dc06d4c0dbc64b70af90fd698a233a518aa5d07e595d983b8c0526c8f7fb3391806136bb898983613e0b565b0390a4613662565b86518110156137205780849160051b880161371761370f8d6136f78789860151950151946000526000602052604060002090565b906001600160a01b0316600052602052604060002090565b918254612768565b90550183613607565b61360c565b635b05999160e01b8352608488019190915260a4870152604490fd5b6024604051632bfa23e760e11b815260006004820152fd5b939291906001600160a01b03808216156137415785161561379f576106029460405192600184526020840152604083019360018552606084015260808301604052613b20565b6024604051626a0d4560e21b815260006004820152fd5b9080601f8301121561028c5760209082356137d081610dbd565b936137de60405195866105d3565b81855260208086019260051b82010192831161028c57602001905b828210613807575050505090565b8380916138138461081c565b8152019101906137f9565b60208183031261028c57803567ffffffffffffffff9182821161028c57019160c08382031261028c5761384f6105f5565b926138598161081c565b8452602081013583811161028c5782613873918301610dd5565b6020850152604081013592831161028c5761389560a0926138c29483016137b6565b60408501526138a66060820161080b565b60608501526138b76080820161080b565b60808501520161080b565b60a082015290565b90602090818382031261028c57823567ffffffffffffffff9384821161028c570181601f8201121561028c57803561390181610dbd565b9461390f60405196876105d3565b818652848087019260051b8401019380851161028c57858401925b85841061393b575050505050505090565b833583811161028c578791613955848480948a0101610664565b81520193019261392a565b1561396757565b606460405162461bcd60e51b815260206004820152601c60248201527f426f61726420617272617973206c656e677468206d69736d61746368000000006044820152fd5b91909161ffff8080941691160191821161225a57565b90606461ffff8093160291821691820361225a57565b9061ffff8091169182156139ea57160490565b634e487b7160e01b600052601260045260246000fd5b93949290613a1490613a1d9381019061381e565b948101906138ca565b926020810192835151613a37604084019182515114613960565b6000928394845b87518051821080613b16575b15613ae35781613a5991612580565b51613a68613445838751612580565b906001600160a01b038b81831115613a8d575b50505050613a889061290e565b613a3e565b61341d613aa186613aa8939d96979d612580565b518a6131fe565b911614613ac7575b613a8891613abd916139ab565b969038808b613a7b565b9581613ad9613a8893613abd936139ab565b9791509150613ab0565b50509650929450505061ffff908183161561327f575161ffff16908316106132a457613b11610450926139c1565b6139d7565b5089518210613a4a565b94919091815184519081810361261c57505060005b8251811015613c39578060051b9060208083860101519287010151856001600160a01b0393848b16613b9a575b6001948216613b75575b50505001613b35565b613b90916136f761370f926000526000602052604060002090565b9055388581613b6c565b9192939050613bb78a6136f7846000526000602052604060002090565b54838110613be95791879184600196959403613be18d6136f7856000526000602052604060002090565b559450613b62565b6040517f03dee4c50000000000000000000000000000000000000000000000000000000081526001600160a01b038c16600482015260248101919091526044810184905260648101839052608490fd5b509491939290936001855114600014613ce4576020858101518382015160408051928352928201526001600160a01b03838116929086169133917fc3d58168c5ae7397731d063d5bbf3d657854427343f4c083240f7aacaa2d0f6291a45b6001600160a01b038116613cad575b5050505050565b8451600103613cd357602080613cc99601519201519233614127565b3880808080613ca6565b613cdf94919233613fef565b613cc9565b6001600160a01b03604051818316918516907f4a39dc06d4c0dbc64b70af90fd698a233a518aa5d07e595d983b8c0526c8f7fb339180613d25888c83613e0b565b0390a4613c97565b90815115613e055760015b613e80811115613dae575b60405162461bcd60e51b815260206004820152603560248201527f496e76616c6964207061636b6564207369676e6174757265206c656e6774682060448201527f2d2063616e6e6f742064657465637420636f756e7400000000000000000000006064820152608490fd5b8060061b8181046040148215171561225a57613ddc90613dd6613dd08461275a565b60031c90565b90612768565b835190808214613dfe5711613df957613df49061290e565b613d38565b613d43565b5090925050565b60009150565b9091613e226104509360408452604084019061102a565b91602081840391015261102a565b9081602091031261028c575161045081610309565b92613e7561045095936001600160a01b03613e83941686526000602087015260a0604087015260a086019061102a565b90848203606086015261102a565b91608081840391015261041a565b93906104509593613e7591613e83946001600160a01b03809216885216602087015260a0604087015260a086019061102a565b3d15613eef573d90613ed582610611565b91613ee360405193846105d3565b82523d6000602084013e565b606090565b9293919093843b613f06575050505050565b602091613f29604051948593849363bc197c8160e01b9889865260048601613e45565b038160006001600160a01b0388165af160009181613fbe575b50613f815782613f50613ec4565b8051919082613f7a57604051632bfa23e760e11b81526001600160a01b0383166004820152602490fd5b9050602001fd5b6001600160e01b03191603613f9b57503880808080613ca6565b604051632bfa23e760e11b81526001600160a01b03919091166004820152602490fd5b613fe191925060203d602011613fe8575b613fd981836105d3565b810190613e30565b9038613f42565b503d613fcf565b939290949194853b614004575b505050505050565b614027602093604051958694859463bc197c8160e01b998a875260048701613e91565b038160006001600160a01b0388165af160009181614069575b5061404e5782613f50613ec4565b6001600160e01b03191603613f9b5750388080808080613ffc565b61408391925060203d602011613fe857613fd981836105d3565b9038614040565b909260a0926001600160a01b0361045096951683526000602084015260408301526060820152816080820152019061041a565b919261045095949160a0946001600160a01b03809216855216602084015260408301526060820152816080820152019061041a565b9293919093843b614104575050505050565b602091613f29604051948593849363f23a6e6160e01b988986526004860161408a565b939290949194853b61413b57505050505050565b614027602093604051958694859463f23a6e6160e01b998a8752600487016140bd56fea264697066735822122068af5fde5e43239152a0ed4d9ae4b9aa223cc515dec418a212db19853021f24f64736f6c63430008180033",
  "linkReferences": {},
  "deployedLinkReferences": {}
}