{
  "_format": "hh-sol-artifact-1",
  "contractName": "Depository",
  "sourceName": "contracts/Depository.sol",
  "abi": [
    {
      "inputs": [],
      "stateMutability": "nonpayable",
      "type": "constructor"
    },
    {
      "anonymous": false,
      "inputs": [
        {
          "components": [
            {
              "internalType": "bytes32",
              "name": "left",
              "type": "bytes32"
            },
            {
              "internalType": "bytes32",
              "name": "right",
              "type": "bytes32"
            },
            {
              "internalType": "uint256",
              "name": "tokenId",
              "type": "uint256"
            },
            {
              "internalType": "uint256",
              "name": "leftReserve",
              "type": "uint256"
            },
            {
              "internalType": "uint256",
              "name": "rightReserve",
              "type": "uint256"
            },
            {
              "internalType": "uint256",
              "name": "collateral",
              "type": "uint256"
            },
            {
              "internalType": "int256",
              "name": "ondelta",
              "type": "int256"
            }
          ],
          "indexed": false,
          "internalType": "struct Depository.Settled[]",
          "name": "",
          "type": "tuple[]"
        }
      ],
      "name": "ChannelSettled",
      "type": "event"
    },
    {
      "anonymous": false,
      "inputs": [
        {
          "indexed": true,
          "internalType": "bytes32",
          "name": "sender",
          "type": "bytes32"
        },
        {
          "indexed": true,
          "internalType": "bytes32",
          "name": "counterentity",
          "type": "bytes32"
        },
        {
          "indexed": true,
          "internalType": "uint256",
          "name": "cooperativeNonce",
          "type": "uint256"
        }
      ],
      "name": "CooperativeClose",
      "type": "event"
    },
    {
      "anonymous": false,
      "inputs": [
        {
          "indexed": true,
          "internalType": "bytes32",
          "name": "sender",
          "type": "bytes32"
        },
        {
          "indexed": true,
          "internalType": "bytes32",
          "name": "counterentity",
          "type": "bytes32"
        },
        {
          "indexed": true,
          "internalType": "uint256",
          "name": "disputeNonce",
          "type": "uint256"
        },
        {
          "indexed": false,
          "internalType": "bytes",
          "name": "initialArguments",
          "type": "bytes"
        }
      ],
      "name": "DisputeStarted",
      "type": "event"
    },
    {
      "anonymous": false,
      "inputs": [
        {
          "indexed": true,
          "internalType": "address",
          "name": "provider",
          "type": "address"
        }
      ],
      "name": "EntityProviderAdded",
      "type": "event"
    },
    {
      "anonymous": false,
      "inputs": [
        {
          "indexed": true,
          "internalType": "address",
          "name": "provider",
          "type": "address"
        }
      ],
      "name": "EntityProviderRemoved",
      "type": "event"
    },
    {
      "anonymous": false,
      "inputs": [
        {
          "indexed": false,
          "internalType": "string",
          "name": "",
          "type": "string"
        },
        {
          "indexed": false,
          "internalType": "address",
          "name": "",
          "type": "address"
        }
      ],
      "name": "LogAddress",
      "type": "event"
    },
    {
      "anonymous": false,
      "inputs": [
        {
          "indexed": false,
          "internalType": "string",
          "name": "",
          "type": "string"
        },
        {
          "indexed": false,
          "internalType": "bool",
          "name": "",
          "type": "bool"
        }
      ],
      "name": "LogBool",
      "type": "event"
    },
    {
      "anonymous": false,
      "inputs": [
        {
          "indexed": false,
          "internalType": "string",
          "name": "",
          "type": "string"
        },
        {
          "indexed": false,
          "internalType": "bytes",
          "name": "",
          "type": "bytes"
        }
      ],
      "name": "LogBytes",
      "type": "event"
    },
    {
      "anonymous": false,
      "inputs": [
        {
          "indexed": false,
          "internalType": "string",
          "name": "",
          "type": "string"
        },
        {
          "indexed": false,
          "internalType": "bytes32",
          "name": "",
          "type": "bytes32"
        }
      ],
      "name": "LogBytes32",
      "type": "event"
    },
    {
      "anonymous": false,
      "inputs": [
        {
          "indexed": false,
          "internalType": "string",
          "name": "",
          "type": "string"
        },
        {
          "indexed": false,
          "internalType": "int256",
          "name": "",
          "type": "int256"
        }
      ],
      "name": "LogInt",
      "type": "event"
    },
    {
      "anonymous": false,
      "inputs": [
        {
          "indexed": false,
          "internalType": "string",
          "name": "",
          "type": "string"
        },
        {
          "indexed": false,
          "internalType": "string",
          "name": "",
          "type": "string"
        }
      ],
      "name": "LogString",
      "type": "event"
    },
    {
      "anonymous": false,
      "inputs": [
        {
          "indexed": false,
          "internalType": "string",
          "name": "",
          "type": "string"
        },
        {
          "indexed": false,
          "internalType": "uint256",
          "name": "",
          "type": "uint256"
        }
      ],
      "name": "LogUint",
      "type": "event"
    },
    {
      "anonymous": false,
      "inputs": [
        {
          "indexed": true,
          "internalType": "bytes32",
          "name": "from",
          "type": "bytes32"
        },
        {
          "indexed": true,
          "internalType": "bytes32",
          "name": "to",
          "type": "bytes32"
        },
        {
          "indexed": true,
          "internalType": "uint256",
          "name": "tokenId",
          "type": "uint256"
        },
        {
          "indexed": false,
          "internalType": "uint256",
          "name": "amount",
          "type": "uint256"
        }
      ],
      "name": "ReserveTransferred",
      "type": "event"
    },
    {
      "anonymous": false,
      "inputs": [
        {
          "indexed": true,
          "internalType": "bytes32",
          "name": "entity",
          "type": "bytes32"
        },
        {
          "indexed": true,
          "internalType": "uint256",
          "name": "tokenId",
          "type": "uint256"
        },
        {
          "indexed": false,
          "internalType": "uint256",
          "name": "newBalance",
          "type": "uint256"
        }
      ],
      "name": "ReserveUpdated",
      "type": "event"
    },
    {
      "anonymous": false,
      "inputs": [
        {
          "indexed": true,
          "internalType": "bytes32",
          "name": "leftEntity",
          "type": "bytes32"
        },
        {
          "indexed": true,
          "internalType": "bytes32",
          "name": "rightEntity",
          "type": "bytes32"
        },
        {
          "indexed": true,
          "internalType": "uint256",
          "name": "tokenId",
          "type": "uint256"
        },
        {
          "indexed": false,
          "internalType": "uint256",
          "name": "leftReserve",
          "type": "uint256"
        },
        {
          "indexed": false,
          "internalType": "uint256",
          "name": "rightReserve",
          "type": "uint256"
        },
        {
          "indexed": false,
          "internalType": "uint256",
          "name": "collateral",
          "type": "uint256"
        },
        {
          "indexed": false,
          "internalType": "int256",
          "name": "ondelta",
          "type": "int256"
        }
      ],
      "name": "SettlementProcessed",
      "type": "event"
    },
    {
      "anonymous": false,
      "inputs": [
        {
          "indexed": true,
          "internalType": "bytes32",
          "name": "receivingEntity",
          "type": "bytes32"
        },
        {
          "indexed": true,
          "internalType": "bytes32",
          "name": "counterentity",
          "type": "bytes32"
        },
        {
          "indexed": false,
          "internalType": "uint256",
          "name": "collateral",
          "type": "uint256"
        },
        {
          "indexed": false,
          "internalType": "int256",
          "name": "ondelta",
          "type": "int256"
        },
        {
          "indexed": false,
          "internalType": "uint256",
          "name": "tokenId",
          "type": "uint256"
        }
      ],
      "name": "TransferReserveToCollateral",
      "type": "event"
    },
    {
      "inputs": [
        {
          "internalType": "bytes32",
          "name": "",
          "type": "bytes32"
        }
      ],
      "name": "_activeDebts",
      "outputs": [
        {
          "internalType": "uint256",
          "name": "",
          "type": "uint256"
        }
      ],
      "stateMutability": "view",
      "type": "function"
    },
    {
      "inputs": [
        {
          "internalType": "bytes",
          "name": "",
          "type": "bytes"
        }
      ],
      "name": "_channels",
      "outputs": [
        {
          "internalType": "uint256",
          "name": "cooperativeNonce",
          "type": "uint256"
        },
        {
          "internalType": "bytes32",
          "name": "disputeHash",
          "type": "bytes32"
        }
      ],
      "stateMutability": "view",
      "type": "function"
    },
    {
      "inputs": [
        {
          "internalType": "bytes",
          "name": "",
          "type": "bytes"
        },
        {
          "internalType": "uint256",
          "name": "",
          "type": "uint256"
        }
      ],
      "name": "_collaterals",
      "outputs": [
        {
          "internalType": "uint256",
          "name": "collateral",
          "type": "uint256"
        },
        {
          "internalType": "int256",
          "name": "ondelta",
          "type": "int256"
        }
      ],
      "stateMutability": "view",
      "type": "function"
    },
    {
      "inputs": [
        {
          "internalType": "bytes32",
          "name": "",
          "type": "bytes32"
        },
        {
          "internalType": "uint256",
          "name": "",
          "type": "uint256"
        }
      ],
      "name": "_debtIndex",
      "outputs": [
        {
          "internalType": "uint256",
          "name": "",
          "type": "uint256"
        }
      ],
      "stateMutability": "view",
      "type": "function"
    },
    {
      "inputs": [
        {
          "internalType": "bytes32",
          "name": "",
          "type": "bytes32"
        },
        {
          "internalType": "uint256",
          "name": "",
          "type": "uint256"
        },
        {
          "internalType": "uint256",
          "name": "",
          "type": "uint256"
        }
      ],
      "name": "_debts",
      "outputs": [
        {
          "internalType": "uint256",
          "name": "amount",
          "type": "uint256"
        },
        {
          "internalType": "bytes32",
          "name": "creditor",
          "type": "bytes32"
        }
      ],
      "stateMutability": "view",
      "type": "function"
    },
    {
      "inputs": [
        {
          "internalType": "uint256",
          "name": "",
          "type": "uint256"
        }
      ],
      "name": "_hubs",
      "outputs": [
        {
          "internalType": "bytes32",
          "name": "entityId",
          "type": "bytes32"
        },
        {
          "internalType": "uint256",
          "name": "gasused",
          "type": "uint256"
        },
        {
          "internalType": "string",
          "name": "uri",
          "type": "string"
        }
      ],
      "stateMutability": "view",
      "type": "function"
    },
    {
      "inputs": [
        {
          "internalType": "bytes32",
          "name": "",
          "type": "bytes32"
        },
        {
          "internalType": "uint256",
          "name": "",
          "type": "uint256"
        }
      ],
      "name": "_reserves",
      "outputs": [
        {
          "internalType": "uint256",
          "name": "",
          "type": "uint256"
        }
      ],
      "stateMutability": "view",
      "type": "function"
    },
    {
      "inputs": [
        {
          "internalType": "uint256",
          "name": "",
          "type": "uint256"
        }
      ],
      "name": "_tokens",
      "outputs": [
        {
          "internalType": "bytes32",
          "name": "",
          "type": "bytes32"
        }
      ],
      "stateMutability": "view",
      "type": "function"
    },
    {
      "inputs": [
        {
          "internalType": "address",
          "name": "provider",
          "type": "address"
        }
      ],
      "name": "addEntityProvider",
      "outputs": [],
      "stateMutability": "nonpayable",
      "type": "function"
    },
    {
      "inputs": [
        {
          "internalType": "address",
          "name": "",
          "type": "address"
        }
      ],
      "name": "approvedEntityProviders",
      "outputs": [
        {
          "internalType": "bool",
          "name": "",
          "type": "bool"
        }
      ],
      "stateMutability": "view",
      "type": "function"
    },
    {
      "inputs": [
        {
          "internalType": "bytes32",
          "name": "e1",
          "type": "bytes32"
        },
        {
          "internalType": "bytes32",
          "name": "e2",
          "type": "bytes32"
        }
      ],
      "name": "channelKey",
      "outputs": [
        {
          "internalType": "bytes",
          "name": "",
          "type": "bytes"
        }
      ],
      "stateMutability": "pure",
      "type": "function"
    },
    {
      "inputs": [],
      "name": "debugBulkFundEntities",
      "outputs": [],
      "stateMutability": "nonpayable",
      "type": "function"
    },
    {
      "inputs": [
        {
          "internalType": "bytes32",
          "name": "entity",
          "type": "bytes32"
        },
        {
          "internalType": "uint256",
          "name": "tokenId",
          "type": "uint256"
        },
        {
          "internalType": "uint256",
          "name": "amount",
          "type": "uint256"
        }
      ],
      "name": "debugFundReserves",
      "outputs": [],
      "stateMutability": "nonpayable",
      "type": "function"
    },
    {
      "inputs": [
        {
          "internalType": "bytes32",
          "name": "entity",
          "type": "bytes32"
        },
        {
          "internalType": "uint256",
          "name": "tokenId",
          "type": "uint256"
        }
      ],
      "name": "enforceDebts",
      "outputs": [
        {
          "internalType": "uint256",
          "name": "totalDebts",
          "type": "uint256"
        }
      ],
      "stateMutability": "nonpayable",
      "type": "function"
    },
    {
      "inputs": [
        {
          "internalType": "uint256",
          "name": "",
          "type": "uint256"
        }
      ],
      "name": "entityProvidersList",
      "outputs": [
        {
          "internalType": "address",
          "name": "",
          "type": "address"
        }
      ],
      "stateMutability": "view",
      "type": "function"
    },
    {
      "inputs": [
        {
          "internalType": "bytes32",
          "name": "",
          "type": "bytes32"
        }
      ],
      "name": "entityScores",
      "outputs": [
        {
          "internalType": "uint64",
          "name": "totalGasUsed",
          "type": "uint64"
        },
        {
          "internalType": "uint48",
          "name": "inDebtSince",
          "type": "uint48"
        },
        {
          "internalType": "uint32",
          "name": "totalActiveDebts",
          "type": "uint32"
        },
        {
          "internalType": "uint32",
          "name": "totalDisputes",
          "type": "uint32"
        },
        {
          "internalType": "uint32",
          "name": "successfulRepayments",
          "type": "uint32"
        },
        {
          "internalType": "uint32",
          "name": "cooperativeActions",
          "type": "uint32"
        }
      ],
      "stateMutability": "view",
      "type": "function"
    },
    {
      "inputs": [
        {
          "components": [
            {
              "internalType": "bytes32",
              "name": "entity",
              "type": "bytes32"
            },
            {
              "internalType": "bytes32",
              "name": "packedToken",
              "type": "bytes32"
            },
            {
              "internalType": "uint256",
              "name": "internalTokenId",
              "type": "uint256"
            },
            {
              "internalType": "uint256",
              "name": "amount",
              "type": "uint256"
            }
          ],
          "internalType": "struct Depository.ExternalTokenToReserve",
          "name": "params",
          "type": "tuple"
        }
      ],
      "name": "externalTokenToReserve",
      "outputs": [],
      "stateMutability": "nonpayable",
      "type": "function"
    },
    {
      "inputs": [],
      "name": "getApprovedProviders",
      "outputs": [
        {
          "internalType": "address[]",
          "name": "",
          "type": "address[]"
        }
      ],
      "stateMutability": "view",
      "type": "function"
    },
    {
      "inputs": [
        {
          "internalType": "address",
          "name": "entityProvider",
          "type": "address"
        },
        {
          "internalType": "uint256",
          "name": "externalTokenId",
          "type": "uint256"
        }
      ],
      "name": "getControlShareTokenId",
      "outputs": [
        {
          "internalType": "uint256",
          "name": "internalTokenId",
          "type": "uint256"
        }
      ],
      "stateMutability": "view",
      "type": "function"
    },
    {
      "inputs": [
        {
          "internalType": "bytes32",
          "name": "entity",
          "type": "bytes32"
        },
        {
          "internalType": "uint256",
          "name": "tokenId",
          "type": "uint256"
        }
      ],
      "name": "getDebts",
      "outputs": [
        {
          "components": [
            {
              "internalType": "uint256",
              "name": "amount",
              "type": "uint256"
            },
            {
              "internalType": "bytes32",
              "name": "creditor",
              "type": "bytes32"
            }
          ],
          "internalType": "struct Depository.Debt[]",
          "name": "allDebts",
          "type": "tuple[]"
        },
        {
          "internalType": "uint256",
          "name": "currentDebtIndex",
          "type": "uint256"
        }
      ],
      "stateMutability": "view",
      "type": "function"
    },
    {
      "inputs": [],
      "name": "getTokensLength",
      "outputs": [
        {
          "internalType": "uint256",
          "name": "",
          "type": "uint256"
        }
      ],
      "stateMutability": "view",
      "type": "function"
    },
    {
      "inputs": [
        {
          "internalType": "string",
          "name": "s",
          "type": "string"
        },
        {
          "internalType": "bytes",
          "name": "x",
          "type": "bytes"
        }
      ],
      "name": "log",
      "outputs": [],
      "stateMutability": "nonpayable",
      "type": "function"
    },
    {
      "inputs": [
        {
          "internalType": "string",
          "name": "s",
          "type": "string"
        },
        {
          "internalType": "address",
          "name": "x",
          "type": "address"
        }
      ],
      "name": "log",
      "outputs": [],
      "stateMutability": "nonpayable",
      "type": "function"
    },
    {
      "inputs": [
        {
          "internalType": "string",
          "name": "s",
          "type": "string"
        },
        {
          "internalType": "bytes32",
          "name": "x",
          "type": "bytes32"
        }
      ],
      "name": "log",
      "outputs": [],
      "stateMutability": "nonpayable",
      "type": "function"
    },
    {
      "inputs": [
        {
          "internalType": "string",
          "name": "s",
          "type": "string"
        },
        {
          "internalType": "int256",
          "name": "x",
          "type": "int256"
        }
      ],
      "name": "log",
      "outputs": [],
      "stateMutability": "nonpayable",
      "type": "function"
    },
    {
      "inputs": [
        {
          "internalType": "string",
          "name": "s",
          "type": "string"
        },
        {
          "internalType": "string",
          "name": "x",
          "type": "string"
        }
      ],
      "name": "log",
      "outputs": [],
      "stateMutability": "nonpayable",
      "type": "function"
    },
    {
      "inputs": [
        {
          "internalType": "string",
          "name": "s",
          "type": "string"
        },
        {
          "internalType": "uint256",
          "name": "x",
          "type": "uint256"
        }
      ],
      "name": "log",
      "outputs": [],
      "stateMutability": "nonpayable",
      "type": "function"
    },
    {
      "inputs": [
        {
          "internalType": "string",
          "name": "s",
          "type": "string"
        },
        {
          "internalType": "bool",
          "name": "x",
          "type": "bool"
        }
      ],
      "name": "log",
      "outputs": [],
      "stateMutability": "nonpayable",
      "type": "function"
    },
    {
      "inputs": [
        {
          "internalType": "bytes32",
          "name": "e1",
          "type": "bytes32"
        },
        {
          "internalType": "bytes32",
          "name": "e2",
          "type": "bytes32"
        }
      ],
      "name": "logChannel",
      "outputs": [],
      "stateMutability": "nonpayable",
      "type": "function"
    },
    {
      "inputs": [
        {
          "internalType": "uint8",
          "name": "tokenType",
          "type": "uint8"
        },
        {
          "internalType": "address",
          "name": "contractAddress",
          "type": "address"
        },
        {
          "internalType": "uint96",
          "name": "externalTokenId",
          "type": "uint96"
        }
      ],
      "name": "packTokenReference",
      "outputs": [
        {
          "internalType": "bytes32",
          "name": "",
          "type": "bytes32"
        }
      ],
      "stateMutability": "pure",
      "type": "function"
    },
    {
      "inputs": [
        {
          "internalType": "bytes32",
          "name": "counterpartyEntity",
          "type": "bytes32"
        },
        {
          "internalType": "uint256",
          "name": "tokenId",
          "type": "uint256"
        },
        {
          "internalType": "uint256",
          "name": "amount",
          "type": "uint256"
        }
      ],
      "name": "prefundAccount",
      "outputs": [
        {
          "internalType": "bool",
          "name": "",
          "type": "bool"
        }
      ],
      "stateMutability": "nonpayable",
      "type": "function"
    },
    {
      "inputs": [
        {
          "internalType": "bytes32",
          "name": "entity",
          "type": "bytes32"
        },
        {
          "components": [
            {
              "components": [
                {
                  "internalType": "bytes32",
                  "name": "receivingEntity",
                  "type": "bytes32"
                },
                {
                  "internalType": "uint256",
                  "name": "tokenId",
                  "type": "uint256"
                },
                {
                  "internalType": "uint256",
                  "name": "amount",
                  "type": "uint256"
                }
              ],
              "internalType": "struct Depository.ReserveToExternalToken[]",
              "name": "reserveToExternalToken",
              "type": "tuple[]"
            },
            {
              "components": [
                {
                  "internalType": "bytes32",
                  "name": "entity",
                  "type": "bytes32"
                },
                {
                  "internalType": "bytes32",
                  "name": "packedToken",
                  "type": "bytes32"
                },
                {
                  "internalType": "uint256",
                  "name": "internalTokenId",
                  "type": "uint256"
                },
                {
                  "internalType": "uint256",
                  "name": "amount",
                  "type": "uint256"
                }
              ],
              "internalType": "struct Depository.ExternalTokenToReserve[]",
              "name": "externalTokenToReserve",
              "type": "tuple[]"
            },
            {
              "components": [
                {
                  "internalType": "bytes32",
                  "name": "receivingEntity",
                  "type": "bytes32"
                },
                {
                  "internalType": "uint256",
                  "name": "tokenId",
                  "type": "uint256"
                },
                {
                  "internalType": "uint256",
                  "name": "amount",
                  "type": "uint256"
                }
              ],
              "internalType": "struct Depository.ReserveToReserve[]",
              "name": "reserveToReserve",
              "type": "tuple[]"
            },
            {
              "components": [
                {
                  "internalType": "uint256",
                  "name": "tokenId",
                  "type": "uint256"
                },
                {
                  "internalType": "bytes32",
                  "name": "receivingEntity",
                  "type": "bytes32"
                },
                {
                  "components": [
                    {
                      "internalType": "bytes32",
                      "name": "entity",
                      "type": "bytes32"
                    },
                    {
                      "internalType": "uint256",
                      "name": "amount",
                      "type": "uint256"
                    }
                  ],
                  "internalType": "struct Depository.AddrAmountPair[]",
                  "name": "pairs",
                  "type": "tuple[]"
                }
              ],
              "internalType": "struct Depository.ReserveToCollateral[]",
              "name": "reserveToCollateral",
              "type": "tuple[]"
            },
            {
              "components": [
                {
                  "internalType": "bytes32",
                  "name": "leftEntity",
                  "type": "bytes32"
                },
                {
                  "internalType": "bytes32",
                  "name": "rightEntity",
                  "type": "bytes32"
                },
                {
                  "components": [
                    {
                      "internalType": "uint256",
                      "name": "tokenId",
                      "type": "uint256"
                    },
                    {
                      "internalType": "int256",
                      "name": "leftDiff",
                      "type": "int256"
                    },
                    {
                      "internalType": "int256",
                      "name": "rightDiff",
                      "type": "int256"
                    },
                    {
                      "internalType": "int256",
                      "name": "collateralDiff",
                      "type": "int256"
                    },
                    {
                      "internalType": "int256",
                      "name": "ondeltaDiff",
                      "type": "int256"
                    }
                  ],
                  "internalType": "struct Depository.SettlementDiff[]",
                  "name": "diffs",
                  "type": "tuple[]"
                }
              ],
              "internalType": "struct Depository.Settlement[]",
              "name": "settlements",
              "type": "tuple[]"
            },
            {
              "components": [
                {
                  "internalType": "bytes32",
                  "name": "counterentity",
                  "type": "bytes32"
                },
                {
                  "components": [
                    {
                      "internalType": "uint256",
                      "name": "tokenId",
                      "type": "uint256"
                    },
                    {
                      "internalType": "int256",
                      "name": "peerReserveDiff",
                      "type": "int256"
                    },
                    {
                      "internalType": "int256",
                      "name": "collateralDiff",
                      "type": "int256"
                    },
                    {
                      "internalType": "int256",
                      "name": "ondeltaDiff",
                      "type": "int256"
                    }
                  ],
                  "internalType": "struct Depository.Diff[]",
                  "name": "diffs",
                  "type": "tuple[]"
                },
                {
                  "internalType": "uint256[]",
                  "name": "forgiveDebtsInTokenIds",
                  "type": "uint256[]"
                },
                {
                  "internalType": "bytes",
                  "name": "sig",
                  "type": "bytes"
                }
              ],
              "internalType": "struct Depository.CooperativeUpdate[]",
              "name": "cooperativeUpdate",
              "type": "tuple[]"
            },
            {
              "components": [
                {
                  "internalType": "bytes32",
                  "name": "counterentity",
                  "type": "bytes32"
                },
                {
                  "components": [
                    {
                      "internalType": "int256[]",
                      "name": "offdeltas",
                      "type": "int256[]"
                    },
                    {
                      "internalType": "uint256[]",
                      "name": "tokenIds",
                      "type": "uint256[]"
                    },
                    {
                      "components": [
                        {
                          "internalType": "address",
                          "name": "subcontractProviderAddress",
                          "type": "address"
                        },
                        {
                          "internalType": "bytes",
                          "name": "encodedBatch",
                          "type": "bytes"
                        },
                        {
                          "components": [
                            {
                              "internalType": "uint256",
                              "name": "deltaIndex",
                              "type": "uint256"
                            },
                            {
                              "internalType": "uint256",
                              "name": "rightAllowence",
                              "type": "uint256"
                            },
                            {
                              "internalType": "uint256",
                              "name": "leftAllowence",
                              "type": "uint256"
                            }
                          ],
                          "internalType": "struct Depository.Allowence[]",
                          "name": "allowences",
                          "type": "tuple[]"
                        }
                      ],
                      "internalType": "struct Depository.SubcontractClause[]",
                      "name": "subcontracts",
                      "type": "tuple[]"
                    }
                  ],
                  "internalType": "struct Depository.ProofBody",
                  "name": "proofbody",
                  "type": "tuple"
                },
                {
                  "internalType": "bytes",
                  "name": "initialArguments",
                  "type": "bytes"
                },
                {
                  "internalType": "bytes",
                  "name": "finalArguments",
                  "type": "bytes"
                },
                {
                  "internalType": "bytes",
                  "name": "sig",
                  "type": "bytes"
                }
              ],
              "internalType": "struct Depository.CooperativeDisputeProof[]",
              "name": "cooperativeDisputeProof",
              "type": "tuple[]"
            },
            {
              "components": [
                {
                  "internalType": "bytes32",
                  "name": "counterentity",
                  "type": "bytes32"
                },
                {
                  "internalType": "uint256",
                  "name": "cooperativeNonce",
                  "type": "uint256"
                },
                {
                  "internalType": "uint256",
                  "name": "disputeNonce",
                  "type": "uint256"
                },
                {
                  "internalType": "bytes32",
                  "name": "proofbodyHash",
                  "type": "bytes32"
                },
                {
                  "internalType": "bytes",
                  "name": "sig",
                  "type": "bytes"
                },
                {
                  "internalType": "bytes",
                  "name": "initialArguments",
                  "type": "bytes"
                }
              ],
              "internalType": "struct Depository.InitialDisputeProof[]",
              "name": "initialDisputeProof",
              "type": "tuple[]"
            },
            {
              "components": [
                {
                  "internalType": "bytes32",
                  "name": "counterentity",
                  "type": "bytes32"
                },
                {
                  "internalType": "uint256",
                  "name": "initialCooperativeNonce",
                  "type": "uint256"
                },
                {
                  "internalType": "uint256",
                  "name": "initialDisputeNonce",
                  "type": "uint256"
                },
                {
                  "internalType": "uint256",
                  "name": "disputeUntilBlock",
                  "type": "uint256"
                },
                {
                  "internalType": "bytes32",
                  "name": "initialProofbodyHash",
                  "type": "bytes32"
                },
                {
                  "internalType": "bytes",
                  "name": "initialArguments",
                  "type": "bytes"
                },
                {
                  "internalType": "bool",
                  "name": "startedByLeft",
                  "type": "bool"
                },
                {
                  "internalType": "uint256",
                  "name": "finalCooperativeNonce",
                  "type": "uint256"
                },
                {
                  "internalType": "uint256",
                  "name": "finalDisputeNonce",
                  "type": "uint256"
                },
                {
                  "components": [
                    {
                      "internalType": "int256[]",
                      "name": "offdeltas",
                      "type": "int256[]"
                    },
                    {
                      "internalType": "uint256[]",
                      "name": "tokenIds",
                      "type": "uint256[]"
                    },
                    {
                      "components": [
                        {
                          "internalType": "address",
                          "name": "subcontractProviderAddress",
                          "type": "address"
                        },
                        {
                          "internalType": "bytes",
                          "name": "encodedBatch",
                          "type": "bytes"
                        },
                        {
                          "components": [
                            {
                              "internalType": "uint256",
                              "name": "deltaIndex",
                              "type": "uint256"
                            },
                            {
                              "internalType": "uint256",
                              "name": "rightAllowence",
                              "type": "uint256"
                            },
                            {
                              "internalType": "uint256",
                              "name": "leftAllowence",
                              "type": "uint256"
                            }
                          ],
                          "internalType": "struct Depository.Allowence[]",
                          "name": "allowences",
                          "type": "tuple[]"
                        }
                      ],
                      "internalType": "struct Depository.SubcontractClause[]",
                      "name": "subcontracts",
                      "type": "tuple[]"
                    }
                  ],
                  "internalType": "struct Depository.ProofBody",
                  "name": "finalProofbody",
                  "type": "tuple"
                },
                {
                  "internalType": "bytes",
                  "name": "finalArguments",
                  "type": "bytes"
                },
                {
                  "internalType": "bytes",
                  "name": "sig",
                  "type": "bytes"
                }
              ],
              "internalType": "struct Depository.FinalDisputeProof[]",
              "name": "finalDisputeProof",
              "type": "tuple[]"
            },
            {
              "components": [
                {
                  "internalType": "uint256",
                  "name": "tokenId",
                  "type": "uint256"
                },
                {
                  "internalType": "uint256",
                  "name": "amount",
                  "type": "uint256"
                }
              ],
              "internalType": "struct Depository.TokenAmountPair[]",
              "name": "flashloans",
              "type": "tuple[]"
            },
            {
              "internalType": "uint256",
              "name": "hub_id",
              "type": "uint256"
            }
          ],
          "internalType": "struct Depository.Batch",
          "name": "batch",
          "type": "tuple"
        }
      ],
      "name": "processBatch",
      "outputs": [
        {
          "internalType": "bool",
          "name": "completeSuccess",
          "type": "bool"
        }
      ],
      "stateMutability": "nonpayable",
      "type": "function"
    },
    {
      "inputs": [
        {
          "internalType": "uint256",
          "name": "hub_id",
          "type": "uint256"
        },
        {
          "internalType": "string",
          "name": "new_uri",
          "type": "string"
        }
      ],
      "name": "registerHub",
      "outputs": [
        {
          "internalType": "uint256",
          "name": "",
          "type": "uint256"
        }
      ],
      "stateMutability": "nonpayable",
      "type": "function"
    },
    {
      "inputs": [
        {
          "internalType": "address",
          "name": "provider",
          "type": "address"
        }
      ],
      "name": "removeEntityProvider",
      "outputs": [],
      "stateMutability": "nonpayable",
      "type": "function"
    },
    {
      "inputs": [
        {
          "internalType": "bytes32",
          "name": "fromEntity",
          "type": "bytes32"
        },
        {
          "internalType": "bytes32",
          "name": "toEntity",
          "type": "bytes32"
        },
        {
          "internalType": "uint256",
          "name": "tokenId",
          "type": "uint256"
        },
        {
          "internalType": "uint256",
          "name": "amount",
          "type": "uint256"
        }
      ],
      "name": "reserveToReserve",
      "outputs": [
        {
          "internalType": "bool",
          "name": "",
          "type": "bool"
        }
      ],
      "stateMutability": "nonpayable",
      "type": "function"
    },
    {
      "inputs": [
        {
          "internalType": "bytes32",
          "name": "leftEntity",
          "type": "bytes32"
        },
        {
          "internalType": "bytes32",
          "name": "rightEntity",
          "type": "bytes32"
        },
        {
          "components": [
            {
              "internalType": "uint256",
              "name": "tokenId",
              "type": "uint256"
            },
            {
              "internalType": "int256",
              "name": "leftDiff",
              "type": "int256"
            },
            {
              "internalType": "int256",
              "name": "rightDiff",
              "type": "int256"
            },
            {
              "internalType": "int256",
              "name": "collateralDiff",
              "type": "int256"
            },
            {
              "internalType": "int256",
              "name": "ondeltaDiff",
              "type": "int256"
            }
          ],
          "internalType": "struct Depository.SettlementDiff[]",
          "name": "diffs",
          "type": "tuple[]"
        }
      ],
      "name": "settle",
      "outputs": [
        {
          "internalType": "bool",
          "name": "",
          "type": "bool"
        }
      ],
      "stateMutability": "nonpayable",
      "type": "function"
    },
    {
      "inputs": [
        {
          "internalType": "bytes32",
          "name": "",
          "type": "bytes32"
        }
      ],
      "name": "tokenToId",
      "outputs": [
        {
          "internalType": "uint256",
          "name": "",
          "type": "uint256"
        }
      ],
      "stateMutability": "view",
      "type": "function"
    },
    {
      "inputs": [
        {
          "internalType": "bytes32",
          "name": "packed",
          "type": "bytes32"
        }
      ],
      "name": "unpackTokenReference",
      "outputs": [
        {
          "internalType": "address",
          "name": "contractAddress",
          "type": "address"
        },
        {
          "internalType": "uint96",
          "name": "externalTokenId",
          "type": "uint96"
        },
        {
          "internalType": "uint8",
          "name": "tokenType",
          "type": "uint8"
        }
      ],
      "stateMutability": "pure",
      "type": "function"
    }
  ],
  "bytecode": "0x608034620003ef57600a5490680100000000000000009182811015620003d957600180820180600a55821015620003c357600093600a8552846020938482200155606084019360018060401b0381861081871117620003af57604095865286825284820190878252865191868301838110838211176200039b57885288835287840192835260095494851015620003735785850180600955851015620003875760098952868920600380960201935184555185840155600280930191518051918211620003735782548681811c9116801562000368575b8882101462000354579081601f849311620002ff575b508790601f83116001146200029b578a926200028f575b5050600019600383901b1c191690851b1790555b6200017b85516200012881620003f4565b8681527f646562756742756c6b46756e64456e7469746965733a2066756e64696e672065868201527f6e74697469657320312d313030302077697468203130302045544820656163688782015262000436565b825b60c8811115620001e65785620001d8867f646562756742756c6b46756e64456e7469746965733a2066756e64696e672063835191620001bc83620003f4565b60278352820152666f6d706c65746560c81b8382015262000436565b51614e519081620004d58239f35b835b83811115620002035750620001fd9062000410565b6200017d565b818852828652868820818952865286882080549068056bc75e2d6310000082018092116200027b579062000275929155828952838752878920818a52875280837fab4d21442efe134c3d0c087e2b687e9593a1c09176f498d37873210cde052c45898b8d20548c51908152a362000410565b620001e8565b634e487b7160e01b8a52601160045260248afd5b01519050388062000103565b848b52888b208894509190601f1984168c5b8b828210620002e85750508411620002ce575b505050811b01905562000117565b015160001960f88460031b161c19169055388080620002c0565b8385015186558b97909501949384019301620002ad565b909150838a52878a20601f840160051c81019189851062000349575b84939291601f8a920160051c01915b8281106200033a575050620000ec565b8c81558594508991016200032a565b90915081906200031b565b634e487b7160e01b8a52602260045260248afd5b90607f1690620000d6565b634e487b7160e01b89526041600452602489fd5b634e487b7160e01b89526032600452602489fd5b634e487b7160e01b8a52604160045260248afd5b634e487b7160e01b87526041600452602487fd5b634e487b7160e01b600052603260045260246000fd5b634e487b7160e01b600052604160045260246000fd5b600080fd5b606081019081106001600160401b03821117620003d957604052565b6000198114620004205760010190565b634e487b7160e01b600052601160045260246000fd5b6040519060209082602081019263104c13eb60e21b84526020602483015282519283604484015260005b848110620004bc57505050808260006064601f9560839501015283199384910116810103604481018552011682019082821060018060401b03831117620003d957600092839260405251906a636f6e736f6c652e6c6f675afa50565b8181018301518782016064015286935082016200046056fe6080604052600436101561001257600080fd5b6000803560e01c80630dedd6241461394357806322c215771461368f57806323cdd8e81461361c578063266afe1b1461355c57806329ac1c4c146133db57806331599c7d146132e8578063319af333146132625780633692d61a1461320d5780633925cd4414612f9b5780633ca6268e14612f465780634174a93d14612eec57806341e8379614612ed85780634b5c427714612e3d57806358d642bc14612d485780635ffefe5b14612b9b5780636b79134d14612b715780637508b91614612b4457806388a1cd7614612af457806392cf61e514612a8e57806398f1774c14612a20578063a034af42146129e2578063a09fd42b146128ea578063abc8d1ac146128ae578063acd6f20814612881578063ad89991b1461280c578063b0c26ecf146127ee578063b60e72cc14612777578063b9e94dd51461272c578063bb2c250c146126ae578063bfa4b7d914612647578063c3b55635146125c3578063d19fd92e14612599578063dd865c8b14612166578063ddc3948014611fd8578063ec6d8e0614611f95578063ed70554d14611f5c578063f0570b1b146101e35763fc3c4c3e146101bf57600080fd5b346101e05760206101d86101d236613ae8565b906149bb565b604051908152f35b80fd5b50346101e05760031960403682011261151e576001600160401b036024351161151e57610160602435600401916024353603011261151e5761022b610226614658565b614d31565b610236610226614658565b610241610226614658565b61027f604051610250816139b5565b601f81527f70726f6365737342617463682063616c6c6564207769746820656e74697479006020820152614d31565b61028a600435614d99565b6102c8604051610299816139b5565b601d81527f62617463682e72657365727665546f526573657276652e6c656e6774680000006020820152614d31565b6102e16102da60446024350183614691565b9050614dda565b61031f6040516102f0816139b5565b600b81527f6d73672e73656e6465723a0000000000000000000000000000000000000000006020820152614d31565b60008060405160208101907f2c2ecbc200000000000000000000000000000000000000000000000000000000825233602482015260248152610360816139e3565b51906a636f6e736f6c652e6c6f675afa5061038060446024350182614691565b9050611d61575b6103c5604051610396816139b5565b601d81527f3d3d3d2043414c4c494e47205f70726f636573734261746368203d3d3d0000006020820152614d31565b6040519061016082018281106001600160401b038211176116fe57604052356001600160401b038111611d13576024350136602382011215611d13576104159036906024600482013591016146c6565b81526024803501356001600160401b038111611d13576024350136602382011215611d135760048101359061044982613bf6565b916104576040519384613a34565b80835260208301913660248360071b83010111611516579160248301925b60248360071b8201018410611d1757505050506020820152604460243501356001600160401b038111611d13576024350136602382011215611d13576104c59036906024600482013591016146c6565b60408201526001600160401b03606460243501351161151e5736602435606481013501602301121561151e576024356064810135016004013561050781613bf6565b906105156040519283613a34565b808252602082013660248360051b60648235013582350101011161151a576024803560648101350101905b60248360051b60648235013582350101018210611bd65750505060608201526001600160401b03608460243501351161151e5736602435608481013501602301121561151e5761059b60243560848101350160040135613bf6565b6105a86040519182613a34565b60248035608481013501600481013580845260208401923660059290921b90920190910111611714576024803560848101350101905b60248035608481013501600481013560051b01018210611b3e57505060808201526001600160401b0360a460243501351161151e573660243560a481013501602301121561151e5760243560a4810135016004013561063c81613bf6565b9061064a6040519283613a34565b808252602082013660248360051b60a48235013582350101011161151a576024803560a48101350101905b60248360051b60a482350135823501010182106119685750505060a08201526001600160401b0360c460243501351161151e573660243560c481013501602301121561151e5760243560c481013501600401356106d181613bf6565b906106df6040519283613a34565b808252602082013660248360051b60c48235013582350101011161151a576024803560c48101350101905b60248360051b60c482350135823501010182106118215750505060c08201526001600160401b0360e460243501351161151e573660243560e481013501602301121561151e5760243560e4810135016004013561076681613bf6565b906107746040519283613a34565b808252602082013660248360051b60e48235013582350101011161151a576024803560e48101350101905b60248360051b60e482350135823501010182106117185750505060e08201526001600160401b0361010460243501351161151e573660243561010481013501602301121561151e576107fd6024356101048101350160040135613bf6565b61080a6040519182613a34565b6024803561010481013501600481013580845260208401923660059290921b9092019091011161171457602480356101048101350101905b6024803561010481013501600481013560051b010182106115225750506101008201526001600160401b0361012460243501351161151e573660243561012481013501602301121561151e5760243561012481013501600401356108a581613bf6565b906108b36040519283613a34565b80825260208201903660248260061b6101248235013582350101011161151a57602480356101248101350101915b60248260061b61012482350135823501010183106114e157505050610120820152610144602435013561014082015261095860405161091f816139e3565b602181527f5f70726f636573734261746368207374617274696e6720666f7220656e7469746020820152607960f81b6040820152614d31565b610963600435614d99565b5a9060016109cb604051610976816139e3565b602c81527f50726f63657373696e672072657365727665546f52657365727665207472616e60208201527f736665727320636f756e743a00000000000000000000000000000000000000006040820152614d31565b6109d9604083015151614dda565b83815b610bde575b50610a206040516109f1816139b5565b601d81527f50726f63657373696e6720736574746c656d656e747320636f756e743a0000006020820152614d31565b610a2e608083015151614dda565b835b60808301518051821015610b0657610a4b82610af0926140b3565b51610a8a604051610a5b816139b5565b601381527f536574746c656d656e74206265747765656e3a000000000000000000000000006020820152614d31565b610a948151614d99565b610ad2604051610aa3816139b5565b600481527f616e643a000000000000000000000000000000000000000000000000000000006020820152614d31565b6020810190610ae18251614d99565b60408151925191015191614110565b15610afe575b600101610a30565b849150610af6565b85836001600160401b03610b3388886101408101518015159081610bc8575b50610b99575b505a90613d1b565b166004358352600860205260408320908154906001600160401b03821601936001600160401b038511610b8557506001600160401b0360209416906001600160401b0319161790556040519015158152f35b80634e487b7160e01b602492526011600452fd5b610bc06001610bb6610140610bae5a87613d1b565b940151613b81565b5001918254613d3e565b905585610b2b565b610bd29150613b81565b50546004351487610b25565b6040830151518110156114dc57610c29604051610bfa816139b5565b600f81527f5472616e7366657220696e6465783a00000000000000000000000000000000006020820152614d31565b610c3281614dda565b610c70604051610c41816139b5565b600c81527f46726f6d20656e746974793a00000000000000000000000000000000000000006020820152614d31565b610c7b600435614d99565b604051610c87816139b5565b610cbb600a918281527f546f20656e746974793a000000000000000000000000000000000000000000006020820152614d31565b610cd3610ccc8360408701516140b3565b5151614d99565b604051610cdf816139b5565b610d136009918281527f546f6b656e2049443a00000000000000000000000000000000000000000000006020820152614d31565b610d2e6020610d268560408901516140b3565b510151614dda565b610d6c604051610d3d816139b5565b600781527f416d6f756e743a000000000000000000000000000000000000000000000000006020820152614d31565b610d7e6040610d2685828901516140b3565b610d8c8360408701516140b3565b5191610dcc604051610d9d816139b5565b601e81527f3d3d3d2072657365727665546f5265736572766520454e545259203d3d3d00006020820152614d31565b610e0a604051610ddb816139b5565b601d81527f72657365727665546f526573657276653a2066726f6d20656e746974790000006020820152614d31565b610e15600435614d99565b610e53604051610e24816139b5565b601b81527f72657365727665546f526573657276653a20746f20656e7469747900000000006020820152614d31565b610e5d8351614d99565b610e9b604051610e6c816139b5565b601981527f72657365727665546f526573657276653a20746f6b656e4964000000000000006020820152614d31565b610ea86020840151614dda565b610ee6604051610eb7816139b5565b601881527f72657365727665546f526573657276653a20616d6f756e7400000000000000006020820152614d31565b610ef36040840151614dda565b610f31604051610f02816139b5565b602081527f72657365727665546f526573657276653a2073656e6465722062616c616e63656020820152614d31565b600435885260026020526040882060208401518952602052610f566040892054614dda565b610f94604051610f65816139b5565b601581527f3d3d3d2042414c414e434520434845434b203d3d3d00000000000000000000006020820152614d31565b6004358852600260205260408820602084015189526020526040882054604084015111156000146113c6575050610fff604051610fd0816139b5565b601d81527f535543434553533a2042616c616e636520636865636b207061737365640000006020820152614d31565b600435865260026020526040862060208201518752602052604086205460408201511161135c5782918291611068604051611039816139b5565b601a81527f3d3d3d20455845435554494e47205452414e53464552203d3d3d0000000000006020820152614d31565b6040810151600435895260026020526040892060208301518a5260205261109460408a20918254613d1b565b905560408101518151895260026020526040892060208301518a526020526110c160408a20918254613d3e565b90556111276040516110d2816139e3565b602381527f72657365727665546f526573657276653a207472616e7366657220636f6d706c60208201527f65746500000000000000000000000000000000000000000000000000000000006040820152614d31565b61118b604051611136816139e3565b602481527f72657365727665546f526573657276653a206e65772073656e6465722062616c60208201527f616e6365000000000000000000000000000000000000000000000000000000006040820152614d31565b6004358852600260205260408820602082015189526020526111b06040892054614dda565b6112146040516111bf816139e3565b602781527f72657365727665546f526573657276653a206e657720726563697069656e742060208201527f62616c616e6365000000000000000000000000000000000000000000000000006040820152614d31565b80518852600260205260408820602082015189526020526112386040892054614dda565b6020810151600435895260026020526040892060208301518a526020526040892054906040519182527fab4d21442efe134c3d0c087e2b687e9593a1c09176f498d37873210cde052c459182602060043592a38151602083015191818b52600260205260408b2060208501518c52602052602060408c2054604051908152a38051604060208301519201516040519081527fae4812ebb7c47ac957e097b649541f0cd55d34b3576fb0db5739591d6f684367602060043592a4611355604051611300816139e3565b602181527f3d3d3d2072657365727665546f5265736572766520434f4d504c455445203d3d60208201527f3d000000000000000000000000000000000000000000000000000000000000006040820152614d31565b01906109dc565b608460405162461bcd60e51b815260206004820152602160248201527f496e73756666696369656e742062616c616e636520666f72207472616e73666560448201527f72000000000000000000000000000000000000000000000000000000000000006064820152fd5b61146b6114b2926114316040516113dc816139e3565b602f81527f4641494c3a2042616c616e636520636865636b206661696c6564202d20696e7360208201527f756666696369656e742066756e647300000000000000000000000000000000006040820152614d31565b6040519061143e826139b5565b81527f52657175697265643a00000000000000000000000000000000000000000000006020820152614d31565b6114786040840151614dda565b60405190611485826139b5565b81527f417661696c61626c653a000000000000000000000000000000000000000000006020820152614d31565b6004358652600260205260408620602082015187526020526114d76040872054614dda565b610fff565b6109e1565b604083360312611516576040602060249282516114fd816139b5565b86358152828701358382015281520193019290506108e1565b8580fd5b8480fd5b5080fd5b81356001600160401b03811161151657610180602435610104810135018201360360231901126115165760405191826101808101106001600160401b03610180850111176116fe576101808301604090815260248035610104810135018401908101358552604481013560208601526064810135918501919091526084810135606085015260a481013560808501526001600160401b0360c490910135116116f5576115e1366024803561010481013501850160c48101350101613a55565b60a084015260243561010481013501820160e4013580151581036116f95760c0840152610104602435818101350183019081013560e08501526101248101356101008501526001600160401b0361014490910135116116f557611658366024803561010481013501850161014481013501016147a4565b6101208401526001600160401b036024356101048101350183016101640135116116f55761169a36602480356101048101350185016101648101350101613a55565b6101408401526001600160401b036024356101048101350183016101840135116116f55760209283926116e490369060248035610104810135019091016101848101350101613a55565b610160820152815201910190610842565b8680fd5b600080fd5b634e487b7160e01b600052604160045260246000fd5b8380fd5b81356001600160401b0381116116f55760c060243560e4810135018201360360231901126116f557604051908160c08101106001600160401b0360c0840111176116fe5760c0820160409081526024803560e481013501830190810135845260448101356020850152606481013591840191909152608481013560608401526001600160401b0360a4909101351161181d576117c6366024803560e481013501840160a48101350101613a55565b60808301526001600160401b0360243560e481013501820160c401351161181d57602492602092839261180b903690873560e4810135010160c4810135018701613a55565b60a0820152815201920191905061079f565b8780fd5b81356001600160401b0381116116f55760a060243560c4810135018201360360231901126116f5576040519061185682613a19565b6024803560c48101350182019081013583526001600160401b036044909101351161181d57611897366024803560c4810135018401604481013501016147a4565b60208301526001600160401b0360243560c4810135018201606401351161181d576118d4366024803560c481013501840160648101350101613a55565b60408301526001600160401b0360243560c4810135018201608401351161181d57611911366024803560c481013501840160848101350101613a55565b60608301526001600160401b0360243560c481013501820160a401351161181d576024926020928392611956903690873560c4810135010160a4810135018701613a55565b6080820152815201920191905061070a565b81356001600160401b0381116116f557608060243560a4810135018201360360231901126116f5576040519061199d826139fe565b6024803560a4810135018201908101358352604401356001600160401b038111611b3a573660243560a481013501830182016043011215611b3a576024803560a481013501830182010135906119f282613bf6565b91611a006040519384613a34565b80835260208301913660448360071b838860a46024350135602435010101010111611b365760243560a48101350185018101604401925b60448360071b838860a4602435013560243501010101018410611aec575050505060208301526001600160401b0360243560a4810135018201606401351161181d57611a95366024803560a481013501840160648101350101614744565b60408301526001600160401b0360243560a4810135018201608401351161181d576024926020928392611ada903690873560a481013501016084810135018701613a55565b60608201528152019201919050610675565b608084360312611b32576020608091604051611b07816139fe565b8635815282870135838201526040870135604082015260608701356060820152815201930192611a37565b8c80fd5b8b80fd5b8880fd5b81356001600160401b0381116115165760606024356084810135018201360360231901126115165760405191611b73836139e3565b602480356084810135018301908101358452604481013560208501526001600160401b03606490910135116116f5576020928392611bc69036906024803560848101350190910160648101350101613c0d565b60408201528152019101906105de565b81356001600160401b0381116116f55760606024356064810135018201360360231901126116f55760405190611c0b826139e3565b606460248035828101350183019081013584526044810135602085015201356001600160401b038111611b3a5736602435606481013501830182016043011215611b3a5760248035606481013501830182010135611c6881613bf6565b92611c766040519485613a34565b81845260208401923660448460061b838560646024350135602435010101010111611b365760243560648101350182018101604401935b60448460061b83856064602435013560243501010101018510611ce25750505050506040820152815260209182019101610540565b604085360312611b325760206040918251611cfc816139b5565b873581528288013583820152815201940193611cad565b8280fd5b6080843603126116f95760806020602493604051611d34816139fe565b87358152828801358382015260408801356040820152606080890135908201528152019401939150610475565b611d9f604051611d70816139b5565b601781527f4669727374207472616e736665722064657461696c733a0000000000000000006020820152614d31565b611ddd604051611dae816139b5565b600c81527f2020746f20656e746974793a00000000000000000000000000000000000000006020820152614d31565b611dec60446024350182614691565b15611f4857611dfb9035614d99565b611e39604051611e0a816139b5565b600a81527f2020746f6b656e49643a000000000000000000000000000000000000000000006020820152614d31565b611e4860446024350182614691565b15611f48576020611e5a910135614dda565b611e98604051611e69816139b5565b600981527f2020616d6f756e743a00000000000000000000000000000000000000000000006020820152614d31565b611ea760446024350182614691565b15611f48576040611eb9910135614dda565b611ef7604051611ec8816139b5565b601781527f53656e6465722063757272656e742062616c616e63653a0000000000000000006020820152614d31565b6004358252600260205260408220611f1460446024350183614691565b15611f3457602001358352602052611f2f6040832054614dda565b610387565b602484634e487b7160e01b81526032600452fd5b602483634e487b7160e01b81526032600452fd5b50346101e05760203660031901126101e05760043590600a548210156101e0576020611f8783613ce4565b90546040519160031b1c8152f35b50346101e05760203660031901126101e057600435906001548210156101e05760206001600160a01b03611fc884613cad565b9190546040519260031b1c168152f35b50346101e05760203660031901126101e0576001600160a01b0380611ffb613b14565b168083528260205260ff6040842054161561212257808352826020526040832060ff198154169055825b6001805480831015612118579084918461203e85613cad565b949054600395861b1c161461205857505050600101612025565b93949193909260001991828101908111612104579061208a8461207d6120a994613cad565b905490891b1c1691613cad565b9091906001600160a01b038084549260031b9316831b921b1916179055565b825480156120f05701926120bc84613cad565b81939154921b1b19169055555b7f67c5a35d33d48c47ef33c82c62eda6254aad034fab4c51abe26a6d06ad174a348280a280f35b602487634e487b7160e01b81526031600452fd5b602488634e487b7160e01b81526011600452fd5b50505090506120c9565b606460405162461bcd60e51b815260206004820152600c60248201527f4e6f7420617070726f76656400000000000000000000000000000000000000006044820152fd5b50346101e05760803660031901126101e057604051612184816139fe565b6004358082526020808301916024358352604435928560606040870196868852019260643584528015600014612593575033945b8061257657505080518652600b8352856040812054808752156124ef575b6121fb60ff925b518060601c9160ff6affffffffffffffffffffff8360081c16921690565b91939091168061234557505082516040516323b872dd60e01b8152336004820152306024820152604481019190915291849150829060649082908a906001600160a01b03165af190811561233a578691612304575b50156122c057907fab4d21442efe134c3d0c087e2b687e9593a1c09176f498d37873210cde052c45915b51838652600282526040862085518752825261229b60408720918254613d3e565b905583519383865260028252604086209051865281526040852054604051908152a380f35b6064826040519062461bcd60e51b82526004820152601960248201527f4552433230207472616e7366657246726f6d206661696c6564000000000000006044820152fd5b90508281813d8311612333575b61231b8183613a34565b81010312611516575180151581036115165738612250565b503d612311565b6040513d88823e3d90fd5b93949391929091600181036123f857506001600160a01b0316803b15611d13576040516323b872dd60e01b81523360048201523060248201526bffffffffffffffffffffffff92909216604483015282908290606490829084905af180156123ed576123d9575b50508160017fab4d21442efe134c3d0c087e2b687e9593a1c09176f498d37873210cde052c45935261227a565b6123e2906139d0565b61151a5784386123ac565b6040513d84823e3d90fd5b939493919291600214612431575b505050907fab4d21442efe134c3d0c087e2b687e9593a1c09176f498d37873210cde052c459161227a565b6001600160a01b031691835192803b15611d13576bffffffffffffffffffffffff918360c49260405196879586947ff242432a000000000000000000000000000000000000000000000000000000008652336004870152306024870152166044850152606484015260a060848401528160a48401525af1801561233a576124ba575b8581612406565b946124e77fab4d21442efe134c3d0c087e2b687e9593a1c09176f498d37873210cde052c459392966139d0565b9490916124b3565b508051600a5468010000000000000000811015612562578060016125169201600a55613ce4565b81549060031b906000198094831b921b1916179055600a5490810190811161254e5780865281518752600b84526040872055856121d6565b602487634e487b7160e01b81526011600452fd5b602488634e487b7160e01b81526041600452fd5b60ff926125856121fb92613ce4565b90549060031b1c81526121dd565b946121b8565b50346101e05760203660031901126101e05760406020916004358152600b83522054604051908152f35b50346101e05760403660031901126101e0576004356001600160401b03811161151e576125f4903690600401613a55565b602435801515809103611d13577f4c34c2f9a78632f29fa59aaed5514cb742fd9fbcfd7ccc2c03c85f2bbc621c479161263b91604051928392604084526040840190613b5c565b9060208301520390a180f35b50346101e05760203660031901126101e057600435906001600160401b0382116101e0576040612691602061267f3660048701613a55565b81845193828580945193849201613aab565b810160038152030190206001815491015482519182526020820152f35b50346101e05760603660031901126101e05760043560ff811680910361151e576126d6613afe565b90604435916bffffffffffffffffffffffff831683036117145760ff821161171457602093506cffffffffffffffffffffffff006040519360081b16906bffffffffffffffffffffffff199060601b1617178152f35b50346101e05760603660031901126101e057604435906001600160401b0382116101e057602061276d6127623660048601613c0d565b602435600435614110565b6040519015158152f35b50346101e05760403660031901126101e0576004356001600160401b03811161151e576127e06127cc7f941296a39ea107bde685522318a4b6c2b544904a5dd82a512748ca2cf839bef7923690600401613a55565b604051918291604083526040830190613b5c565b60243560208301520390a180f35b50346101e057806003193601126101e0576020600a54604051908152f35b50346101e05760203660031901126101e057604060c09160043581526008602052205463ffffffff604051916001600160401b038116835265ffffffffffff8160401c166020840152818160701c166040840152818160901c166060840152818160b01c16608084015260d01c1660a0820152f35b50346101e057604060209161289536613ae8565b9082526002845282822090825283522054604051908152f35b50346101e05760203660031901126101e05760ff60406020926001600160a01b036128d7613b14565b1681528084522054166040519015158152f35b50346101e057602090816003193601126101e05760043560095481101561151e5761291490613b81565b5080549060019060026001820154910185604051938683549361293685613bbc565b80885294600181169081156129bd5750600114612981575b838861297d8989612961828f0383613a34565b6040519485948552840152606060408401526060830190613b5c565b0390f35b908094939850528683205b8284106129aa575050508201909301926129618561297d843861294e565b805486850189015292870192810161298c565b60ff1916858901525050505090151560051b83010193506129618561297d843861294e565b50346101e05760403660031901126101e057602435906001600160401b0382116101e05760206101d8612a183660048601613a55565b600435613d93565b50346101e05761297d90612a3336613ae8565b90915080821015612a6d57604051916020830152604082015260408152612a59816139e3565b604051918291602083526020830190613b5c565b90604051916020830152604082015260408152612a89816139e3565b612a59565b50346101e05760203660031901126101e05760606bffffffffffffffffffffffff60ff612ad46004358060601c9160ff6affffffffffffffffffffff8360081c16921690565b9193906001600160a01b0360405195168552166020840152166040820152f35b50346101e057612b0336613ace565b92918252600560205260408220908252602052604081209081548310156101e0576040612b308484613b2a565b506001815491015482519182526020820152f35b50346101e0576040602091612b5836613ae8565b9082526006845282822090825283522054604051908152f35b50346101e05760203660031901126101e05760406020916004358152600783522054604051908152f35b50346101e057612baa36613ace565b909160405191612bb9836139e3565b60218352612bf76020937f646562756746756e6452657365727665733a2066756e64696e6720656e74697485820152607960f81b6040820152614d31565b612c0082614d99565b612c3d604051612c0f816139b5565b601a81527f646562756746756e6452657365727665733a20746f6b656e496400000000000085820152614d31565b612c4684614dda565b612c83604051612c55816139b5565b601981527f646562756746756e6452657365727665733a20616d6f756e740000000000000085820152614d31565b612c8c81614dda565b81855260028352604085208486528352612cab60408620918254613d3e565b90558084526002825260408420838552825282817fab4d21442efe134c3d0c087e2b687e9593a1c09176f498d37873210cde052c45846040882054604051908152a3612d2a604051612cfc816139b5565b601e81527f646562756746756e6452657365727665733a206e65772062616c616e6365000084820152614d31565b8352600281526040832091835252612d456040822054614dda565b80f35b50346101e05760203660031901126101e057612d62613b14565b6001600160a01b038116908183528260205260ff604084205416612df9578183528260205260408320600160ff1982541617905560015468010000000000000000811015612de5579061208a826001612dbe9401600155613cad565b7fc395b1bd803c744a815bc34a0426e5eaac03513b9d76bf237a734a004916499c8280a280f35b602484634e487b7160e01b81526041600452fd5b606460405162461bcd60e51b815260206004820152601060248201527f416c726561647920617070726f766564000000000000000000000000000000006044820152fd5b50346101e05760403660031901126101e0576001600160401b03600435818111611d1357612e6f903690600401613a55565b90602435908111611d13577f27a8767ed172b48d7cf6dbb25d2840c5fa91ef78fa6e05c13c82763d099f03ca91612ed2612eb0612ec4933690600401613a55565b604051938493604085526040850190613b5c565b908382036020850152613b5c565b0390a180f35b50346101e057612ee736613ae8565b505080f35b50346101e05760403660031901126101e05760406020916002612f0d613b14565b60601b6bffffffffffffffffffffffff191660243560081b6cffffffffffffffffffffffff001617178152600b83522054604051908152f35b50346101e05760403660031901126101e0576004356001600160401b03811161151e576127e06127cc7f6a837ff3973aa4181e7b9f07756f8b7ee366dd85a36655d2cb42cd47f10b9638923690600401613a55565b50346101e05760803660031901126101e0576044356024356004356064358282146131c95781855260029460209580875260408220868352875282604083205410613185579185858880604081967fae4812ebb7c47ac957e097b649541f0cd55d34b3576fb0db5739591d6f684367986130478351613019816139b5565b601b81527f3d3d3d2044495245435420523252205452414e53464552203d3d3d000000000086820152614d31565b6130508b614d99565b61308b835161305e816139b5565b8281527f746f00000000000000000000000000000000000000000000000000000000000086820152614d31565b61309486614d99565b61309f610226613d4b565b6130a888614dda565b8a825280845282822087835284528282206130c4898254613d1b565b905585825280845282822087835284528282206130e2898254613d3e565b90558a82528084528282208783528452868b8484205485519081527fab4d21442efe134c3d0c087e2b687e9593a1c09176f498d37873210cde052c45978891a3858252835281812086825283522054604051908152a3604051908152a461317c60405161314e816139b5565b601d81527f3d3d3d20523252205452414e5346455220434f4d504c455445203d3d3d00000083820152614d31565b60405160018152f35b6064876040519062461bcd60e51b82526004820152601560248201527f496e73756666696369656e7420726573657276657300000000000000000000006044820152fd5b606460405162461bcd60e51b815260206004820152601760248201527f43616e6e6f74207472616e7366657220746f2073656c660000000000000000006044820152fd5b50346101e05760403660031901126101e0576004356001600160401b03811161151e576127e06127cc7f02d93529bba9d141e5e06733c52c7e6fbcb1149586adb5c24064b522ab26f1d7923690600401613a55565b50346101e05760403660031901126101e0576004356001600160401b03811161151e576132db6132b77f62ddffe5b5108385f7a590f100e1ee414ad9551a31f089e64e82998440785e1e923690600401613a55565b6132bf613afe565b6001600160a01b03604051938493604085526040850190613b5c565b911660208301520390a180f35b50346101e0576132f736613ae8565b919080825260209260068452604083208184528452604083205491835260058452604083209083528352604082209081549261333284613bf6565b936133406040519586613a34565b808552858501809483528683208784925b8484106133a757505050505060405193604085019060408652518091526060850193915b8181106133885750505082938301520390f35b8251805186528701518786015260409094019391860191600101613375565b60019160029160409a979a516133bc816139b5565b8554815284860154838201528152019201920191908890979497613351565b50346101e057806003193601126101e0576040516133f8816139e3565b604081526134526020917f646562756742756c6b46756e64456e7469746965733a2066756e64696e672065838201527f6e74697469657320312d313030302077697468203130302045544820656163686040820152614d31565b6001905b60c88211156134c457612d4591507f646562756742756c6b46756e64456e7469746965733a2066756e64696e67206360405191613492836139e3565b602783528201527f6f6d706c657465000000000000000000000000000000000000000000000000006040820152614d31565b60015b60038111156134e15750906134db90613d84565b90613456565b82845260028083526040852082865283526040852080549068056bc75e2d63100000820180921161254e579061355793929155848652835260408520818652835280847fab4d21442efe134c3d0c087e2b687e9593a1c09176f498d37873210cde052c45856040892054604051908152a3613d84565b6134c7565b50346101e057806003193601126101e05760405180916001906001549384845260208094018095600184527fb10e2d527612073b26eecdfd717e6a320cf44b4afac2b0732d9fcbe2b7fa0cf690845b81811061360057505050816135c1910382613a34565b6040519380850191818652518092526040850195925b8281106135e45785870386f35b83516001600160a01b03168752958101959281019284016135d7565b82546001600160a01b03168452928701929186019186016135ab565b50346101e05760403660031901126101e0576001600160401b03600435818111611d135761364e903690600401613a55565b90602435908111611d13577fe8407a0209fa99ec3a7228aff140c3d3e68bd279391739c7e0b65cd406cc93b591612ed2612eb0612ec4933690600401613a55565b50346101e05761369e36613ace565b91908133146138ff57813310806000146138f85733905b156138f15782905b6040519560209687810190838252846040820152604081526136de816139e3565b5190206040518881019182528881526136f6816139b5565b33835260028952604083208684528952876040842054106138885761317c979694926137768a6138789896947f36a23558c84aea8a6a7bbadf50a454e47507746fa69bf7cf58db85d9bdf063d89433855260028352604085208986528352604085206137638d8254613d1b565b9055604051938492839251928391613aab565b810160048152030190208582528a52896137ed60408320926001604061379d8d8754613d3e565b92838755888152600286528181208b8252865281812054958a825260028152828220908c835252205494015490604051948594859094939260609260808301968352602083015260408201520152565b0390a461382d6040516137ff816139b5565b601281527f4163636f756e742070726566756e6465643a000000000000000000000000000087820152614d31565b61383633614d99565b613873604051613845816139b5565b601481527f66756e646564206163636f756e7420776974683a00000000000000000000000087820152614d31565b614d99565b613883610226613d4b565b614dda565b6084896040519062461bcd60e51b825260048201526024808201527f496e73756666696369656e7420726573657276657320666f722070726566756e60448201527f64696e67000000000000000000000000000000000000000000000000000000006064820152fd5b33906136bd565b82906136b5565b606460405162461bcd60e51b815260206004820152602060248201527f43616e6e6f742070726566756e64206163636f756e7420776974682073656c666044820152fd5b50346101e05760403660031901126101e0576004356001600160401b03811161151e5760409161398f602061397d85943690600401613a55565b81855193828580945193849201613aab565b810160048152030190206024358252602052206001815491015482519182526020820152f35b604081019081106001600160401b038211176116fe57604052565b6001600160401b0381116116fe57604052565b606081019081106001600160401b038211176116fe57604052565b608081019081106001600160401b038211176116fe57604052565b60a081019081106001600160401b038211176116fe57604052565b90601f801991011681019081106001600160401b038211176116fe57604052565b81601f820112156116f9578035906001600160401b0382116116fe5760405192613a89601f8401601f191660200185613a34565b828452602083830101116116f957816000926020809301838601378301015290565b60005b838110613abe5750506000910152565b8181015183820152602001613aae565b60609060031901126116f957600435906024359060443590565b60409060031901126116f9576004359060243590565b602435906001600160a01b03821682036116f957565b600435906001600160a01b03821682036116f957565b8054821015613b465760005260206000209060011b0190600090565b634e487b7160e01b600052603260045260246000fd5b90602091613b7581518092818552858086019101613aab565b601f01601f1916010190565b600954811015613b46576003906009600052027f6e1540171b6c0c960b71a7020d9f60077f6af931a8bbf590da0223dacf75c7af0190600090565b90600182811c92168015613bec575b6020831014613bd657565b634e487b7160e01b600052602260045260246000fd5b91607f1691613bcb565b6001600160401b0381116116fe5760051b60200190565b81601f820112156116f9578035906020613c2683613bf6565b936040613c366040519687613a34565b848652828601918360a0809702860101948186116116f9578401925b858410613c63575050505050505090565b86848303126116f9578487918451613c7a81613a19565b86358152828701358382015285870135868201526060808801359082015260808088013590820152815201930192613c52565b600154811015613b465760016000527fb10e2d527612073b26eecdfd717e6a320cf44b4afac2b0732d9fcbe2b7fa0cf60190600090565b600a54811015613b4657600a6000527fc65a7bb8d6351c1cf70c95a316cc6a92839c986682d98bc35f958f4883f9d2a80190600090565b91908203918211613d2857565b634e487b7160e01b600052601160045260246000fd5b91908201809211613d2857565b60405190613d58826139b5565b600782527f616d6f756e743a000000000000000000000000000000000000000000000000006020830152565b6000198114613d285760010190565b90919080613f3e57509060405190613daa826139e3565b338252602080830190600093848352604081019384526009549268010000000000000000841015613f1757613de6600194858101600955613b81565b929092613f2b5790600292915182555184820155019251908151916001600160401b038311613f1757613e198554613bbc565b601f8111613ed1575b5081601f8411600114613e6e57509282939183928794613e63575b50501b916000199060031b1c19161790555b600954600019810191908211610b85575090565b015192503880613e3d565b919083601f1981168789528489209489905b88838310613eb75750505010613e9e575b505050811b019055613e4f565b015160001960f88460031b161c19169055388080613e91565b858701518855909601959485019487935090810190613e80565b858752828720601f850160051c810191848610613f0d575b601f0160051c019085905b828110613f02575050613e22565b888155018590613ef4565b9091508190613ee9565b602486634e487b7160e01b81526041600452fd5b602487634e487b7160e01b815280600452fd5b613f4781613b81565b5054330361406f576002613f5a82613b81565b500183516001600160401b0381116116fe57613f768254613bbc565b601f8111614025575b50602080601f8311600114613fbe57508192939495600092613fb3575b50508160011b916000199060031b1c191617905590565b015190503880613f9c565b90601f19831696846000526020600020926000905b89821061400d5750508360019596979810613ff4575b505050811b01905590565b015160001960f88460031b161c19169055388080613fe9565b80600185968294968601518155019501930190613fd3565b6000836000526020600020601f840160051c81019260208510614065575b601f0160051c01915b82811061405a575050613f7f565b81815560010161404c565b9092508290614043565b606460405162461bcd60e51b815260206004820152601760248201527f53656e646572206973206e6f7420687562206f776e65720000000000000000006044820152fd5b8051821015613b465760209160051b010190565b91909160008382019384129112908015821691151617613d2857565b7f80000000000000000000000000000000000000000000000000000000000000008114613d285760000390565b92919080841461461457808410156145aa57604093845192602093848101908382528488820152878152614143816139e3565b5190209386519181830195865281835261415c836139b5565b60005b815181101561459d5761417281836140b3565b51805190848101805161418a8d8401918251906140c7565b9161419b60608501938451906140c7565b61455a57808e91516000811260001461451d57508a600052600291828a5280600020876000528a52600020546141d182516140e3565b116144b3578e6141e461420092516140e3565b928c6000528a5280600020876000528a52600020918254613d1b565b90555b8c815160008112600014614476575050896000526002908188528d6000208560005288528d6000205461423682516140e3565b1161440d57906142498e949392516140e3565b908b60005288528360002085600052885261426984600020918254613d1b565b90555b8251908161427e8d8b51928391613aab565b8201918881600494858152030190208560005288528a8a85600020958351600081126000146143b757505050508354916142b882516140e3565b8310614374575060019594938e61436b60808e966143028f976142fc7f36a23558c84aea8a6a7bbadf50a454e47507746fa69bf7cf58db85d9bdf063d898516140e3565b90613d1b565b85555b01516143158a85019182546140c7565b80915585600052600292838d5280600020896000528d52806000205493886000528d5280600020896000528d52806000205494549051948594859094939260609260808301968352602083015260408201520152565b0390a40161415f565b60649150888f519162461bcd60e51b8352820152601760248201527f496e73756666696369656e7420636f6c6c61746572616c0000000000000000006044820152fd5b61436b919295507f36a23558c84aea8a6a7bbadf50a454e47507746fa69bf7cf58db85d9bdf063d8945060019998979396816000608093136143fa575b50614305565b614405908654613d3e565b8555386143f4565b6084888f519062461bcd60e51b82526004820152602260248201527f526967687420656e7469747920696e73756666696369656e742072657365727660448201527f65730000000000000000000000000000000000000000000000000000000000006064820152fd5b90939291506000811361448a575b5061426c565b8a60005260028852836000208560005288526144ab84600020918254613d3e565b905538614484565b506084888f519062461bcd60e51b82526004820152602160248201527f4c65667420656e7469747920696e73756666696369656e74207265736572766560448201527f73000000000000000000000000000000000000000000000000000000000000006064820152fd5b91905060008213614530575b5050614203565b614551908b60005260028a5280600020876000528a52600020918254613d3e565b9055388d614529565b6064888f519062461bcd60e51b82526004820152601760248201527f536574746c656d656e74206d7573742062616c616e63650000000000000000006044820152fd5b5060019750505050505050565b608460405162461bcd60e51b815260206004820152602860248201527f456e746974696573206d75737420626520696e206f7264657220286c6566742060448201527f3c207269676874290000000000000000000000000000000000000000000000006064820152fd5b606460405162461bcd60e51b815260206004820152601760248201527f43616e6e6f7420736574746c6520776974682073656c660000000000000000006044820152fd5b60405190614665826139b5565b601a82527f3d3d3d2070726f63657373426174636820454e545259203d3d3d0000000000006020830152565b903590601e19813603018212156116f957018035906001600160401b0382116116f9576020019160608202360383136116f957565b9291926146d282613bf6565b6040946146e26040519283613a34565b819584835260208093019160608096028501948186116116f957925b85841061470e5750505050505050565b86848303126116f9578487918451614725816139e3565b86358152828701358382015285870135868201528152019301926146fe565b9080601f830112156116f957602090823561475e81613bf6565b9361476c6040519586613a34565b81855260208086019260051b8201019283116116f957602001905b828210614795575050505090565b81358152908301908301614787565b9190606080848303126116f9576040908151906147c0826139e3565b819580356001600160401b03908181116116f95782019186601f840112156116f95782356020936147f082613bf6565b916147fd89519384613a34565b808352858084019160051b830101918a83116116f95786809101915b8383106149ab57505050508552828101358281116116f9578761483d918301614744565b8386015285810135908282116116f957019086601f830112156116f95781359061486682613bf6565b976148738851998a613a34565b82895284808a019360051b850101938185116116f957858101935b8585106148a15750505050505050500152565b84358481116116f957820188601f1982860301126116f9578a51906148c5826139e3565b888101356001600160a01b03811681036116f95782528b8101358681116116f957858a6148f492840101613a55565b8983015289810135908682116116f9570184603f820112156116f95780898d92013561492b61492282613bf6565b93519384613a34565b8083528d8c8c85019202830101918783116116f957908e8c959396949201905b8682106149665750508394508d82015281520194019361488e565b909193959294508c828903126116f9578b8f91828f935190614987826139e3565b853582528386013584830152808601359082015281520191018b949295939161494b565b8235815291810191879101614819565b909160009282845260059260209160058352604093848720828852845284872054958615614d285783885260029260028652868920818a5286528689205493858a5260068752878a20828b528752878a2054948015614d1557945b868b52838852888b20838c528852614a30818a8d20613b2a565b5080549096908110614cd05790614a89818b8e8c9587614a528d548093613d1b565b976001809e01548452528d838320908a845252614a73838320918254613d3e565b90558b8152888d528181208882528d5220613b2a565b614cbd5787818e8093550155878c5260088952898c209687549763ffffffff607090808b831c169a8b15614ca7576000199b8c01831b71ffffffff0000000000000000000000000000169160b07fffffffffffffffffffffffffffff00000000ffffffffffffffffffffffffffff83168417811c8216808314614c8e57908779ffffffff000000000000000000000000000000000000000000009201901b169384847fffffffffffff00000000ffffffff00000000ffffffffffffffffffffffffffff85161717908187551c1615614c5f575b50505050808201808311614b97578c14614bab5750614b7a90613d84565b95878c5260078952898c209081548015614b975701905594614a16565b60248e634e487b7160e01b81526011600452fd5b929396505096939850899592979997838752845289862085875284528986209081549187815582614c12575b50505050918391614c0f9798938795965b81855260028352858520848652835285852055835260068152838320918352522055613d1b565b90565b7f7fffffffffffffffffffffffffffffffffffffffffffffffffffffffffffffff8316830361210457875284872091811b8201915b82811015614bd7578088859255888382015501614c47565b7fffffffffffff00000000ffffffff00000000000000000000ffffffffffffffff161717905538808080614b5c565b505050505060248f634e487b7160e01b81526011600452fd5b505060248f634e487b7160e01b81526011600452fd5b60248d634e487b7160e01b815280600452fd5b614c0f9a98939450614d0d90829a979298936001849e989e0154885285528787208688528552878720614d04828254613d3e565b90558254613d1b565b905583614be8565b50505050955092505050614c0f91613d1b565b50945050505050565b60008091604051614d8681614d7860208201947f41304fac000000000000000000000000000000000000000000000000000000008652602060248401526044830190613b5c565b03601f198101835282613a34565b51906a636f6e736f6c652e6c6f675afa50565b6000809160405160208101917f27b7cf85000000000000000000000000000000000000000000000000000000008352602482015260248152614d86816139e3565b6000809160405160208101917ff82c50f1000000000000000000000000000000000000000000000000000000008352602482015260248152614d86816139e356fea264697066735822122046fd87605daa54d971c945b0a219c9fd3210fb804c0602bf4f0a631d78b55f0e64736f6c63430008180033",
  "linkReferences": {},
  "deployedLinkReferences": {}
}