{
  "_format": "hh-sol-artifact-1",
  "contractName": "Depository",
  "sourceName": "contracts/Depository.sol",
  "abi": [
    {
      "inputs": [],
      "stateMutability": "nonpayable",
      "type": "constructor"
    },
    {
      "anonymous": false,
      "inputs": [
        {
          "components": [
            {
              "internalType": "address",
              "name": "left",
              "type": "address"
            },
            {
              "internalType": "address",
              "name": "right",
              "type": "address"
            },
            {
              "internalType": "uint256",
              "name": "tokenId",
              "type": "uint256"
            },
            {
              "internalType": "uint256",
              "name": "leftReserve",
              "type": "uint256"
            },
            {
              "internalType": "uint256",
              "name": "rightReserve",
              "type": "uint256"
            },
            {
              "internalType": "uint256",
              "name": "collateral",
              "type": "uint256"
            },
            {
              "internalType": "int256",
              "name": "ondelta",
              "type": "int256"
            }
          ],
          "indexed": false,
          "internalType": "struct Depository.Settled[]",
          "name": "",
          "type": "tuple[]"
        }
      ],
      "name": "ChannelSettled",
      "type": "event"
    },
    {
      "anonymous": false,
      "inputs": [
        {
          "indexed": true,
          "internalType": "address",
          "name": "entityProvider",
          "type": "address"
        },
        {
          "indexed": true,
          "internalType": "address",
          "name": "fromEntity",
          "type": "address"
        },
        {
          "indexed": true,
          "internalType": "uint256",
          "name": "tokenId",
          "type": "uint256"
        },
        {
          "indexed": false,
          "internalType": "uint256",
          "name": "amount",
          "type": "uint256"
        },
        {
          "indexed": false,
          "internalType": "bytes",
          "name": "data",
          "type": "bytes"
        }
      ],
      "name": "ControlSharesReceived",
      "type": "event"
    },
    {
      "anonymous": false,
      "inputs": [
        {
          "indexed": true,
          "internalType": "address",
          "name": "from",
          "type": "address"
        },
        {
          "indexed": true,
          "internalType": "address",
          "name": "to",
          "type": "address"
        },
        {
          "indexed": true,
          "internalType": "uint256",
          "name": "internalTokenId",
          "type": "uint256"
        },
        {
          "indexed": false,
          "internalType": "uint256",
          "name": "amount",
          "type": "uint256"
        },
        {
          "indexed": false,
          "internalType": "string",
          "name": "purpose",
          "type": "string"
        }
      ],
      "name": "ControlSharesTransferred",
      "type": "event"
    },
    {
      "anonymous": false,
      "inputs": [
        {
          "indexed": true,
          "internalType": "address",
          "name": "sender",
          "type": "address"
        },
        {
          "indexed": true,
          "internalType": "address",
          "name": "peer",
          "type": "address"
        },
        {
          "indexed": true,
          "internalType": "uint256",
          "name": "cooperativeNonce",
          "type": "uint256"
        }
      ],
      "name": "CooperativeClose",
      "type": "event"
    },
    {
      "anonymous": false,
      "inputs": [
        {
          "indexed": true,
          "internalType": "address",
          "name": "sender",
          "type": "address"
        },
        {
          "indexed": true,
          "internalType": "address",
          "name": "peer",
          "type": "address"
        },
        {
          "indexed": true,
          "internalType": "uint256",
          "name": "disputeNonce",
          "type": "uint256"
        },
        {
          "indexed": false,
          "internalType": "bytes",
          "name": "initialArguments",
          "type": "bytes"
        }
      ],
      "name": "DisputeStarted",
      "type": "event"
    },
    {
      "anonymous": false,
      "inputs": [
        {
          "indexed": true,
          "internalType": "address",
          "name": "provider",
          "type": "address"
        }
      ],
      "name": "EntityProviderAdded",
      "type": "event"
    },
    {
      "anonymous": false,
      "inputs": [
        {
          "indexed": true,
          "internalType": "address",
          "name": "provider",
          "type": "address"
        }
      ],
      "name": "EntityProviderRemoved",
      "type": "event"
    },
    {
      "anonymous": false,
      "inputs": [
        {
          "indexed": true,
          "internalType": "bytes32",
          "name": "entityId",
          "type": "bytes32"
        },
        {
          "indexed": true,
          "internalType": "bytes32",
          "name": "hankoHash",
          "type": "bytes32"
        },
        {
          "indexed": false,
          "internalType": "uint256",
          "name": "nonce",
          "type": "uint256"
        },
        {
          "indexed": false,
          "internalType": "bool",
          "name": "success",
          "type": "bool"
        }
      ],
      "name": "HankoBatchProcessed",
      "type": "event"
    },
    {
      "anonymous": false,
      "inputs": [
        {
          "indexed": false,
          "internalType": "string",
          "name": "",
          "type": "string"
        },
        {
          "indexed": false,
          "internalType": "address",
          "name": "",
          "type": "address"
        }
      ],
      "name": "LogAddress",
      "type": "event"
    },
    {
      "anonymous": false,
      "inputs": [
        {
          "indexed": false,
          "internalType": "string",
          "name": "",
          "type": "string"
        },
        {
          "indexed": false,
          "internalType": "bool",
          "name": "",
          "type": "bool"
        }
      ],
      "name": "LogBool",
      "type": "event"
    },
    {
      "anonymous": false,
      "inputs": [
        {
          "indexed": false,
          "internalType": "string",
          "name": "",
          "type": "string"
        },
        {
          "indexed": false,
          "internalType": "bytes",
          "name": "",
          "type": "bytes"
        }
      ],
      "name": "LogBytes",
      "type": "event"
    },
    {
      "anonymous": false,
      "inputs": [
        {
          "indexed": false,
          "internalType": "string",
          "name": "",
          "type": "string"
        },
        {
          "indexed": false,
          "internalType": "bytes32",
          "name": "",
          "type": "bytes32"
        }
      ],
      "name": "LogBytes32",
      "type": "event"
    },
    {
      "anonymous": false,
      "inputs": [
        {
          "indexed": false,
          "internalType": "string",
          "name": "",
          "type": "string"
        },
        {
          "indexed": false,
          "internalType": "int256",
          "name": "",
          "type": "int256"
        }
      ],
      "name": "LogInt",
      "type": "event"
    },
    {
      "anonymous": false,
      "inputs": [
        {
          "indexed": false,
          "internalType": "string",
          "name": "",
          "type": "string"
        },
        {
          "indexed": false,
          "internalType": "string",
          "name": "",
          "type": "string"
        }
      ],
      "name": "LogString",
      "type": "event"
    },
    {
      "anonymous": false,
      "inputs": [
        {
          "indexed": false,
          "internalType": "string",
          "name": "",
          "type": "string"
        },
        {
          "indexed": false,
          "internalType": "uint256",
          "name": "",
          "type": "uint256"
        }
      ],
      "name": "LogUint",
      "type": "event"
    },
    {
      "anonymous": false,
      "inputs": [
        {
          "indexed": true,
          "internalType": "address",
          "name": "receiver",
          "type": "address"
        },
        {
          "indexed": true,
          "internalType": "address",
          "name": "addr",
          "type": "address"
        },
        {
          "indexed": false,
          "internalType": "uint256",
          "name": "collateral",
          "type": "uint256"
        },
        {
          "indexed": false,
          "internalType": "int256",
          "name": "ondelta",
          "type": "int256"
        },
        {
          "indexed": false,
          "internalType": "uint256",
          "name": "tokenId",
          "type": "uint256"
        }
      ],
      "name": "TransferReserveToCollateral",
      "type": "event"
    },
    {
      "inputs": [],
      "name": "DOMAIN_SEPARATOR",
      "outputs": [
        {
          "internalType": "bytes32",
          "name": "",
          "type": "bytes32"
        }
      ],
      "stateMutability": "view",
      "type": "function"
    },
    {
      "inputs": [
        {
          "internalType": "address",
          "name": "entity",
          "type": "address"
        }
      ],
      "name": "_activeDebts",
      "outputs": [
        {
          "internalType": "uint256",
          "name": "",
          "type": "uint256"
        }
      ],
      "stateMutability": "view",
      "type": "function"
    },
    {
      "inputs": [
        {
          "internalType": "bytes",
          "name": "channelKey",
          "type": "bytes"
        }
      ],
      "name": "_channels",
      "outputs": [
        {
          "internalType": "uint256",
          "name": "cooperativeNonce",
          "type": "uint256"
        },
        {
          "internalType": "bytes32",
          "name": "disputeHash",
          "type": "bytes32"
        }
      ],
      "stateMutability": "view",
      "type": "function"
    },
    {
      "inputs": [
        {
          "internalType": "bytes",
          "name": "channelKey",
          "type": "bytes"
        },
        {
          "internalType": "uint256",
          "name": "tokenId",
          "type": "uint256"
        }
      ],
      "name": "_collaterals",
      "outputs": [
        {
          "internalType": "uint256",
          "name": "collateral",
          "type": "uint256"
        },
        {
          "internalType": "int256",
          "name": "ondelta",
          "type": "int256"
        }
      ],
      "stateMutability": "view",
      "type": "function"
    },
    {
      "inputs": [
        {
          "internalType": "address",
          "name": "entity",
          "type": "address"
        },
        {
          "internalType": "uint256",
          "name": "tokenId",
          "type": "uint256"
        }
      ],
      "name": "_debtIndex",
      "outputs": [
        {
          "internalType": "uint256",
          "name": "",
          "type": "uint256"
        }
      ],
      "stateMutability": "view",
      "type": "function"
    },
    {
      "inputs": [
        {
          "internalType": "address",
          "name": "entity",
          "type": "address"
        },
        {
          "internalType": "uint256",
          "name": "tokenId",
          "type": "uint256"
        },
        {
          "internalType": "uint256",
          "name": "",
          "type": "uint256"
        }
      ],
      "name": "_debts",
      "outputs": [
        {
          "internalType": "uint256",
          "name": "amount",
          "type": "uint256"
        },
        {
          "internalType": "address",
          "name": "creditor",
          "type": "address"
        }
      ],
      "stateMutability": "view",
      "type": "function"
    },
    {
      "inputs": [
        {
          "internalType": "uint256",
          "name": "",
          "type": "uint256"
        }
      ],
      "name": "_hubs",
      "outputs": [
        {
          "internalType": "address",
          "name": "addr",
          "type": "address"
        },
        {
          "internalType": "uint256",
          "name": "gasused",
          "type": "uint256"
        },
        {
          "internalType": "string",
          "name": "uri",
          "type": "string"
        }
      ],
      "stateMutability": "view",
      "type": "function"
    },
    {
      "inputs": [
        {
          "internalType": "address",
          "name": "entity",
          "type": "address"
        },
        {
          "internalType": "uint256",
          "name": "tokenId",
          "type": "uint256"
        }
      ],
      "name": "_reserves",
      "outputs": [
        {
          "internalType": "uint256",
          "name": "",
          "type": "uint256"
        }
      ],
      "stateMutability": "view",
      "type": "function"
    },
    {
      "inputs": [
        {
          "internalType": "uint256",
          "name": "",
          "type": "uint256"
        }
      ],
      "name": "_tokens",
      "outputs": [
        {
          "internalType": "bytes32",
          "name": "",
          "type": "bytes32"
        }
      ],
      "stateMutability": "view",
      "type": "function"
    },
    {
      "inputs": [
        {
          "internalType": "address",
          "name": "provider",
          "type": "address"
        }
      ],
      "name": "addEntityProvider",
      "outputs": [],
      "stateMutability": "nonpayable",
      "type": "function"
    },
    {
      "inputs": [
        {
          "internalType": "address",
          "name": "",
          "type": "address"
        }
      ],
      "name": "approvedEntityProviders",
      "outputs": [
        {
          "internalType": "bool",
          "name": "",
          "type": "bool"
        }
      ],
      "stateMutability": "view",
      "type": "function"
    },
    {
      "inputs": [
        {
          "internalType": "address",
          "name": "a1",
          "type": "address"
        },
        {
          "internalType": "address",
          "name": "a2",
          "type": "address"
        }
      ],
      "name": "channelKey",
      "outputs": [
        {
          "internalType": "bytes",
          "name": "",
          "type": "bytes"
        }
      ],
      "stateMutability": "pure",
      "type": "function"
    },
    {
      "inputs": [
        {
          "internalType": "address",
          "name": "peer",
          "type": "address"
        },
        {
          "internalType": "uint256",
          "name": "tokenId",
          "type": "uint256"
        },
        {
          "internalType": "uint256",
          "name": "amount",
          "type": "uint256"
        },
        {
          "internalType": "bytes",
          "name": "signature",
          "type": "bytes"
        }
      ],
      "name": "collateralToReserve",
      "outputs": [],
      "stateMutability": "nonpayable",
      "type": "function"
    },
    {
      "inputs": [
        {
          "components": [
            {
              "internalType": "address",
              "name": "peer",
              "type": "address"
            },
            {
              "components": [
                {
                  "internalType": "int256[]",
                  "name": "offdeltas",
                  "type": "int256[]"
                },
                {
                  "internalType": "uint256[]",
                  "name": "tokenIds",
                  "type": "uint256[]"
                },
                {
                  "components": [
                    {
                      "internalType": "address",
                      "name": "subcontractProviderAddress",
                      "type": "address"
                    },
                    {
                      "internalType": "bytes",
                      "name": "encodedBatch",
                      "type": "bytes"
                    },
                    {
                      "components": [
                        {
                          "internalType": "uint256",
                          "name": "deltaIndex",
                          "type": "uint256"
                        },
                        {
                          "internalType": "uint256",
                          "name": "rightAllowence",
                          "type": "uint256"
                        },
                        {
                          "internalType": "uint256",
                          "name": "leftAllowence",
                          "type": "uint256"
                        }
                      ],
                      "internalType": "struct Depository.Allowence[]",
                      "name": "allowences",
                      "type": "tuple[]"
                    }
                  ],
                  "internalType": "struct Depository.SubcontractClause[]",
                  "name": "subcontracts",
                  "type": "tuple[]"
                }
              ],
              "internalType": "struct Depository.ProofBody",
              "name": "proofbody",
              "type": "tuple"
            },
            {
              "internalType": "bytes",
              "name": "initialArguments",
              "type": "bytes"
            },
            {
              "internalType": "bytes",
              "name": "finalArguments",
              "type": "bytes"
            },
            {
              "internalType": "bytes",
              "name": "sig",
              "type": "bytes"
            }
          ],
          "internalType": "struct Depository.CooperativeDisputeProof",
          "name": "params",
          "type": "tuple"
        }
      ],
      "name": "cooperativeDisputeProof",
      "outputs": [
        {
          "internalType": "bool",
          "name": "",
          "type": "bool"
        }
      ],
      "stateMutability": "nonpayable",
      "type": "function"
    },
    {
      "inputs": [
        {
          "components": [
            {
              "internalType": "address",
              "name": "peer",
              "type": "address"
            },
            {
              "components": [
                {
                  "internalType": "uint256",
                  "name": "tokenId",
                  "type": "uint256"
                },
                {
                  "internalType": "int256",
                  "name": "peerReserveDiff",
                  "type": "int256"
                },
                {
                  "internalType": "int256",
                  "name": "collateralDiff",
                  "type": "int256"
                },
                {
                  "internalType": "int256",
                  "name": "ondeltaDiff",
                  "type": "int256"
                }
              ],
              "internalType": "struct Depository.Diff[]",
              "name": "diffs",
              "type": "tuple[]"
            },
            {
              "internalType": "uint256[]",
              "name": "forgiveDebtsInTokenIds",
              "type": "uint256[]"
            },
            {
              "internalType": "bytes",
              "name": "sig",
              "type": "bytes"
            }
          ],
          "internalType": "struct Depository.CooperativeUpdate",
          "name": "params",
          "type": "tuple"
        }
      ],
      "name": "cooperativeUpdate",
      "outputs": [
        {
          "internalType": "bool",
          "name": "",
          "type": "bool"
        }
      ],
      "stateMutability": "nonpayable",
      "type": "function"
    },
    {
      "inputs": [
        {
          "internalType": "address",
          "name": "addr",
          "type": "address"
        },
        {
          "internalType": "uint256",
          "name": "tokenId",
          "type": "uint256"
        }
      ],
      "name": "enforceDebts",
      "outputs": [
        {
          "internalType": "uint256",
          "name": "totalDebts",
          "type": "uint256"
        }
      ],
      "stateMutability": "nonpayable",
      "type": "function"
    },
    {
      "inputs": [
        {
          "internalType": "address",
          "name": "",
          "type": "address"
        }
      ],
      "name": "entityNonces",
      "outputs": [
        {
          "internalType": "uint256",
          "name": "",
          "type": "uint256"
        }
      ],
      "stateMutability": "view",
      "type": "function"
    },
    {
      "inputs": [
        {
          "internalType": "uint256",
          "name": "",
          "type": "uint256"
        }
      ],
      "name": "entityProvidersList",
      "outputs": [
        {
          "internalType": "address",
          "name": "",
          "type": "address"
        }
      ],
      "stateMutability": "view",
      "type": "function"
    },
    {
      "inputs": [
        {
          "components": [
            {
              "internalType": "bytes32",
              "name": "packedToken",
              "type": "bytes32"
            },
            {
              "internalType": "uint256",
              "name": "internalTokenId",
              "type": "uint256"
            },
            {
              "internalType": "uint256",
              "name": "amount",
              "type": "uint256"
            }
          ],
          "internalType": "struct Depository.ExternalTokenToReserve",
          "name": "params",
          "type": "tuple"
        }
      ],
      "name": "externalTokenToReserve",
      "outputs": [],
      "stateMutability": "nonpayable",
      "type": "function"
    },
    {
      "inputs": [
        {
          "components": [
            {
              "internalType": "address",
              "name": "peer",
              "type": "address"
            },
            {
              "internalType": "uint256",
              "name": "initialCooperativeNonce",
              "type": "uint256"
            },
            {
              "internalType": "uint256",
              "name": "initialDisputeNonce",
              "type": "uint256"
            },
            {
              "internalType": "uint256",
              "name": "disputeUntilBlock",
              "type": "uint256"
            },
            {
              "internalType": "bytes32",
              "name": "initialProofbodyHash",
              "type": "bytes32"
            },
            {
              "internalType": "bytes",
              "name": "initialArguments",
              "type": "bytes"
            },
            {
              "internalType": "bool",
              "name": "startedByLeft",
              "type": "bool"
            },
            {
              "internalType": "uint256",
              "name": "finalCooperativeNonce",
              "type": "uint256"
            },
            {
              "internalType": "uint256",
              "name": "finalDisputeNonce",
              "type": "uint256"
            },
            {
              "components": [
                {
                  "internalType": "int256[]",
                  "name": "offdeltas",
                  "type": "int256[]"
                },
                {
                  "internalType": "uint256[]",
                  "name": "tokenIds",
                  "type": "uint256[]"
                },
                {
                  "components": [
                    {
                      "internalType": "address",
                      "name": "subcontractProviderAddress",
                      "type": "address"
                    },
                    {
                      "internalType": "bytes",
                      "name": "encodedBatch",
                      "type": "bytes"
                    },
                    {
                      "components": [
                        {
                          "internalType": "uint256",
                          "name": "deltaIndex",
                          "type": "uint256"
                        },
                        {
                          "internalType": "uint256",
                          "name": "rightAllowence",
                          "type": "uint256"
                        },
                        {
                          "internalType": "uint256",
                          "name": "leftAllowence",
                          "type": "uint256"
                        }
                      ],
                      "internalType": "struct Depository.Allowence[]",
                      "name": "allowences",
                      "type": "tuple[]"
                    }
                  ],
                  "internalType": "struct Depository.SubcontractClause[]",
                  "name": "subcontracts",
                  "type": "tuple[]"
                }
              ],
              "internalType": "struct Depository.ProofBody",
              "name": "finalProofbody",
              "type": "tuple"
            },
            {
              "internalType": "bytes",
              "name": "finalArguments",
              "type": "bytes"
            },
            {
              "internalType": "bytes",
              "name": "sig",
              "type": "bytes"
            }
          ],
          "internalType": "struct Depository.FinalDisputeProof",
          "name": "params",
          "type": "tuple"
        }
      ],
      "name": "finalDisputeProof",
      "outputs": [
        {
          "internalType": "bool",
          "name": "",
          "type": "bool"
        }
      ],
      "stateMutability": "nonpayable",
      "type": "function"
    },
    {
      "inputs": [
        {
          "internalType": "address",
          "name": "entity1",
          "type": "address"
        },
        {
          "internalType": "address",
          "name": "entity2",
          "type": "address"
        },
        {
          "components": [
            {
              "internalType": "int256[]",
              "name": "offdeltas",
              "type": "int256[]"
            },
            {
              "internalType": "uint256[]",
              "name": "tokenIds",
              "type": "uint256[]"
            },
            {
              "components": [
                {
                  "internalType": "address",
                  "name": "subcontractProviderAddress",
                  "type": "address"
                },
                {
                  "internalType": "bytes",
                  "name": "encodedBatch",
                  "type": "bytes"
                },
                {
                  "components": [
                    {
                      "internalType": "uint256",
                      "name": "deltaIndex",
                      "type": "uint256"
                    },
                    {
                      "internalType": "uint256",
                      "name": "rightAllowence",
                      "type": "uint256"
                    },
                    {
                      "internalType": "uint256",
                      "name": "leftAllowence",
                      "type": "uint256"
                    }
                  ],
                  "internalType": "struct Depository.Allowence[]",
                  "name": "allowences",
                  "type": "tuple[]"
                }
              ],
              "internalType": "struct Depository.SubcontractClause[]",
              "name": "subcontracts",
              "type": "tuple[]"
            }
          ],
          "internalType": "struct Depository.ProofBody",
          "name": "proofbody",
          "type": "tuple"
        },
        {
          "internalType": "bytes",
          "name": "arguments1",
          "type": "bytes"
        },
        {
          "internalType": "bytes",
          "name": "arguments2",
          "type": "bytes"
        }
      ],
      "name": "finalizeChannel",
      "outputs": [
        {
          "internalType": "bool",
          "name": "",
          "type": "bool"
        }
      ],
      "stateMutability": "nonpayable",
      "type": "function"
    },
    {
      "inputs": [],
      "name": "getApprovedProviders",
      "outputs": [
        {
          "internalType": "address[]",
          "name": "",
          "type": "address[]"
        }
      ],
      "stateMutability": "view",
      "type": "function"
    },
    {
      "inputs": [
        {
          "internalType": "address",
          "name": "addr",
          "type": "address"
        },
        {
          "internalType": "address[]",
          "name": "peers",
          "type": "address[]"
        },
        {
          "internalType": "uint256[]",
          "name": "tokenIds",
          "type": "uint256[]"
        }
      ],
      "name": "getChannels",
      "outputs": [
        {
          "components": [
            {
              "components": [
                {
                  "internalType": "uint256",
                  "name": "cooperativeNonce",
                  "type": "uint256"
                },
                {
                  "internalType": "bytes32",
                  "name": "disputeHash",
                  "type": "bytes32"
                }
              ],
              "internalType": "struct Depository.ChannelInfo",
              "name": "channel",
              "type": "tuple"
            },
            {
              "components": [
                {
                  "internalType": "uint256",
                  "name": "collateral",
                  "type": "uint256"
                },
                {
                  "internalType": "int256",
                  "name": "ondelta",
                  "type": "int256"
                }
              ],
              "internalType": "struct Depository.ChannelCollateral[]",
              "name": "collaterals",
              "type": "tuple[]"
            }
          ],
          "internalType": "struct Depository.ChannelReturn[]",
          "name": "response",
          "type": "tuple[]"
        }
      ],
      "stateMutability": "view",
      "type": "function"
    },
    {
      "inputs": [
        {
          "internalType": "address",
          "name": "entityProvider",
          "type": "address"
        },
        {
          "internalType": "uint256",
          "name": "externalTokenId",
          "type": "uint256"
        }
      ],
      "name": "getControlShareTokenId",
      "outputs": [
        {
          "internalType": "uint256",
          "name": "internalTokenId",
          "type": "uint256"
        }
      ],
      "stateMutability": "view",
      "type": "function"
    },
    {
      "inputs": [
        {
          "internalType": "address",
          "name": "addr",
          "type": "address"
        },
        {
          "internalType": "uint256",
          "name": "tokenId",
          "type": "uint256"
        }
      ],
      "name": "getDebts",
      "outputs": [
        {
          "components": [
            {
              "internalType": "uint256",
              "name": "amount",
              "type": "uint256"
            },
            {
              "internalType": "address",
              "name": "creditor",
              "type": "address"
            }
          ],
          "internalType": "struct Depository.Debt[]",
          "name": "allDebts",
          "type": "tuple[]"
        },
        {
          "internalType": "uint256",
          "name": "currentDebtIndex",
          "type": "uint256"
        }
      ],
      "stateMutability": "view",
      "type": "function"
    },
    {
      "inputs": [],
      "name": "getTokensLength",
      "outputs": [
        {
          "internalType": "uint256",
          "name": "",
          "type": "uint256"
        }
      ],
      "stateMutability": "view",
      "type": "function"
    },
    {
      "inputs": [
        {
          "internalType": "address[]",
          "name": "addrs",
          "type": "address[]"
        },
        {
          "internalType": "uint256[]",
          "name": "tokenIds",
          "type": "uint256[]"
        }
      ],
      "name": "getUsers",
      "outputs": [
        {
          "components": [
            {
              "internalType": "uint256",
              "name": "ETH_balance",
              "type": "uint256"
            },
            {
              "components": [
                {
                  "internalType": "uint256",
                  "name": "reserve",
                  "type": "uint256"
                },
                {
                  "internalType": "uint256",
                  "name": "debtIndex",
                  "type": "uint256"
                },
                {
                  "components": [
                    {
                      "internalType": "uint256",
                      "name": "amount",
                      "type": "uint256"
                    },
                    {
                      "internalType": "address",
                      "name": "creditor",
                      "type": "address"
                    }
                  ],
                  "internalType": "struct Depository.Debt[]",
                  "name": "debts",
                  "type": "tuple[]"
                }
              ],
              "internalType": "struct Depository.TokenReserveDebts[]",
              "name": "tokens",
              "type": "tuple[]"
            }
          ],
          "internalType": "struct Depository.UserReturn[]",
          "name": "response",
          "type": "tuple[]"
        }
      ],
      "stateMutability": "view",
      "type": "function"
    },
    {
      "inputs": [
        {
          "components": [
            {
              "internalType": "address",
              "name": "peer",
              "type": "address"
            },
            {
              "internalType": "uint256",
              "name": "cooperativeNonce",
              "type": "uint256"
            },
            {
              "internalType": "uint256",
              "name": "disputeNonce",
              "type": "uint256"
            },
            {
              "internalType": "bytes32",
              "name": "proofbodyHash",
              "type": "bytes32"
            },
            {
              "internalType": "bytes",
              "name": "sig",
              "type": "bytes"
            },
            {
              "internalType": "bytes",
              "name": "initialArguments",
              "type": "bytes"
            }
          ],
          "internalType": "struct Depository.InitialDisputeProof",
          "name": "params",
          "type": "tuple"
        }
      ],
      "name": "initialDisputeProof",
      "outputs": [
        {
          "internalType": "bool",
          "name": "",
          "type": "bool"
        }
      ],
      "stateMutability": "nonpayable",
      "type": "function"
    },
    {
      "inputs": [
        {
          "internalType": "string",
          "name": "s",
          "type": "string"
        },
        {
          "internalType": "bytes",
          "name": "x",
          "type": "bytes"
        }
      ],
      "name": "log",
      "outputs": [],
      "stateMutability": "nonpayable",
      "type": "function"
    },
    {
      "inputs": [
        {
          "internalType": "string",
          "name": "s",
          "type": "string"
        },
        {
          "internalType": "address",
          "name": "x",
          "type": "address"
        }
      ],
      "name": "log",
      "outputs": [],
      "stateMutability": "nonpayable",
      "type": "function"
    },
    {
      "inputs": [
        {
          "internalType": "string",
          "name": "s",
          "type": "string"
        },
        {
          "internalType": "bytes32",
          "name": "x",
          "type": "bytes32"
        }
      ],
      "name": "log",
      "outputs": [],
      "stateMutability": "nonpayable",
      "type": "function"
    },
    {
      "inputs": [
        {
          "internalType": "string",
          "name": "s",
          "type": "string"
        },
        {
          "internalType": "int256",
          "name": "x",
          "type": "int256"
        }
      ],
      "name": "log",
      "outputs": [],
      "stateMutability": "nonpayable",
      "type": "function"
    },
    {
      "inputs": [
        {
          "internalType": "string",
          "name": "s",
          "type": "string"
        },
        {
          "internalType": "string",
          "name": "x",
          "type": "string"
        }
      ],
      "name": "log",
      "outputs": [],
      "stateMutability": "nonpayable",
      "type": "function"
    },
    {
      "inputs": [
        {
          "internalType": "string",
          "name": "s",
          "type": "string"
        },
        {
          "internalType": "uint256",
          "name": "x",
          "type": "uint256"
        }
      ],
      "name": "log",
      "outputs": [],
      "stateMutability": "nonpayable",
      "type": "function"
    },
    {
      "inputs": [
        {
          "internalType": "string",
          "name": "s",
          "type": "string"
        },
        {
          "internalType": "bool",
          "name": "x",
          "type": "bool"
        }
      ],
      "name": "log",
      "outputs": [],
      "stateMutability": "nonpayable",
      "type": "function"
    },
    {
      "inputs": [
        {
          "internalType": "address",
          "name": "a1",
          "type": "address"
        },
        {
          "internalType": "address",
          "name": "a2",
          "type": "address"
        }
      ],
      "name": "logChannel",
      "outputs": [],
      "stateMutability": "nonpayable",
      "type": "function"
    },
    {
      "inputs": [
        {
          "internalType": "address",
          "name": "operator",
          "type": "address"
        },
        {
          "internalType": "address",
          "name": "from",
          "type": "address"
        },
        {
          "internalType": "uint256",
          "name": "id",
          "type": "uint256"
        },
        {
          "internalType": "uint256",
          "name": "value",
          "type": "uint256"
        },
        {
          "internalType": "bytes",
          "name": "data",
          "type": "bytes"
        }
      ],
      "name": "onERC1155Received",
      "outputs": [
        {
          "internalType": "bytes4",
          "name": "",
          "type": "bytes4"
        }
      ],
      "stateMutability": "nonpayable",
      "type": "function"
    },
    {
      "inputs": [
        {
          "internalType": "uint8",
          "name": "tokenType",
          "type": "uint8"
        },
        {
          "internalType": "address",
          "name": "contractAddress",
          "type": "address"
        },
        {
          "internalType": "uint96",
          "name": "externalTokenId",
          "type": "uint96"
        }
      ],
      "name": "packTokenReference",
      "outputs": [
        {
          "internalType": "bytes32",
          "name": "",
          "type": "bytes32"
        }
      ],
      "stateMutability": "pure",
      "type": "function"
    },
    {
      "inputs": [
        {
          "components": [
            {
              "components": [
                {
                  "internalType": "address",
                  "name": "receiver",
                  "type": "address"
                },
                {
                  "internalType": "uint256",
                  "name": "tokenId",
                  "type": "uint256"
                },
                {
                  "internalType": "uint256",
                  "name": "amount",
                  "type": "uint256"
                }
              ],
              "internalType": "struct Depository.ReserveToExternalToken[]",
              "name": "reserveToExternalToken",
              "type": "tuple[]"
            },
            {
              "components": [
                {
                  "internalType": "bytes32",
                  "name": "packedToken",
                  "type": "bytes32"
                },
                {
                  "internalType": "uint256",
                  "name": "internalTokenId",
                  "type": "uint256"
                },
                {
                  "internalType": "uint256",
                  "name": "amount",
                  "type": "uint256"
                }
              ],
              "internalType": "struct Depository.ExternalTokenToReserve[]",
              "name": "externalTokenToReserve",
              "type": "tuple[]"
            },
            {
              "components": [
                {
                  "internalType": "address",
                  "name": "receiver",
                  "type": "address"
                },
                {
                  "internalType": "uint256",
                  "name": "tokenId",
                  "type": "uint256"
                },
                {
                  "internalType": "uint256",
                  "name": "amount",
                  "type": "uint256"
                }
              ],
              "internalType": "struct Depository.ReserveToReserve[]",
              "name": "reserveToReserve",
              "type": "tuple[]"
            },
            {
              "components": [
                {
                  "internalType": "uint256",
                  "name": "tokenId",
                  "type": "uint256"
                },
                {
                  "internalType": "address",
                  "name": "receiver",
                  "type": "address"
                },
                {
                  "components": [
                    {
                      "internalType": "address",
                      "name": "addr",
                      "type": "address"
                    },
                    {
                      "internalType": "uint256",
                      "name": "amount",
                      "type": "uint256"
                    }
                  ],
                  "internalType": "struct Depository.AddrAmountPair[]",
                  "name": "pairs",
                  "type": "tuple[]"
                }
              ],
              "internalType": "struct Depository.ReserveToCollateral[]",
              "name": "reserveToCollateral",
              "type": "tuple[]"
            },
            {
              "components": [
                {
                  "internalType": "address",
                  "name": "peer",
                  "type": "address"
                },
                {
                  "components": [
                    {
                      "internalType": "uint256",
                      "name": "tokenId",
                      "type": "uint256"
                    },
                    {
                      "internalType": "int256",
                      "name": "peerReserveDiff",
                      "type": "int256"
                    },
                    {
                      "internalType": "int256",
                      "name": "collateralDiff",
                      "type": "int256"
                    },
                    {
                      "internalType": "int256",
                      "name": "ondeltaDiff",
                      "type": "int256"
                    }
                  ],
                  "internalType": "struct Depository.Diff[]",
                  "name": "diffs",
                  "type": "tuple[]"
                },
                {
                  "internalType": "uint256[]",
                  "name": "forgiveDebtsInTokenIds",
                  "type": "uint256[]"
                },
                {
                  "internalType": "bytes",
                  "name": "sig",
                  "type": "bytes"
                }
              ],
              "internalType": "struct Depository.CooperativeUpdate[]",
              "name": "cooperativeUpdate",
              "type": "tuple[]"
            },
            {
              "components": [
                {
                  "internalType": "address",
                  "name": "peer",
                  "type": "address"
                },
                {
                  "components": [
                    {
                      "internalType": "int256[]",
                      "name": "offdeltas",
                      "type": "int256[]"
                    },
                    {
                      "internalType": "uint256[]",
                      "name": "tokenIds",
                      "type": "uint256[]"
                    },
                    {
                      "components": [
                        {
                          "internalType": "address",
                          "name": "subcontractProviderAddress",
                          "type": "address"
                        },
                        {
                          "internalType": "bytes",
                          "name": "encodedBatch",
                          "type": "bytes"
                        },
                        {
                          "components": [
                            {
                              "internalType": "uint256",
                              "name": "deltaIndex",
                              "type": "uint256"
                            },
                            {
                              "internalType": "uint256",
                              "name": "rightAllowence",
                              "type": "uint256"
                            },
                            {
                              "internalType": "uint256",
                              "name": "leftAllowence",
                              "type": "uint256"
                            }
                          ],
                          "internalType": "struct Depository.Allowence[]",
                          "name": "allowences",
                          "type": "tuple[]"
                        }
                      ],
                      "internalType": "struct Depository.SubcontractClause[]",
                      "name": "subcontracts",
                      "type": "tuple[]"
                    }
                  ],
                  "internalType": "struct Depository.ProofBody",
                  "name": "proofbody",
                  "type": "tuple"
                },
                {
                  "internalType": "bytes",
                  "name": "initialArguments",
                  "type": "bytes"
                },
                {
                  "internalType": "bytes",
                  "name": "finalArguments",
                  "type": "bytes"
                },
                {
                  "internalType": "bytes",
                  "name": "sig",
                  "type": "bytes"
                }
              ],
              "internalType": "struct Depository.CooperativeDisputeProof[]",
              "name": "cooperativeDisputeProof",
              "type": "tuple[]"
            },
            {
              "components": [
                {
                  "internalType": "address",
                  "name": "peer",
                  "type": "address"
                },
                {
                  "internalType": "uint256",
                  "name": "cooperativeNonce",
                  "type": "uint256"
                },
                {
                  "internalType": "uint256",
                  "name": "disputeNonce",
                  "type": "uint256"
                },
                {
                  "internalType": "bytes32",
                  "name": "proofbodyHash",
                  "type": "bytes32"
                },
                {
                  "internalType": "bytes",
                  "name": "sig",
                  "type": "bytes"
                },
                {
                  "internalType": "bytes",
                  "name": "initialArguments",
                  "type": "bytes"
                }
              ],
              "internalType": "struct Depository.InitialDisputeProof[]",
              "name": "initialDisputeProof",
              "type": "tuple[]"
            },
            {
              "components": [
                {
                  "internalType": "address",
                  "name": "peer",
                  "type": "address"
                },
                {
                  "internalType": "uint256",
                  "name": "initialCooperativeNonce",
                  "type": "uint256"
                },
                {
                  "internalType": "uint256",
                  "name": "initialDisputeNonce",
                  "type": "uint256"
                },
                {
                  "internalType": "uint256",
                  "name": "disputeUntilBlock",
                  "type": "uint256"
                },
                {
                  "internalType": "bytes32",
                  "name": "initialProofbodyHash",
                  "type": "bytes32"
                },
                {
                  "internalType": "bytes",
                  "name": "initialArguments",
                  "type": "bytes"
                },
                {
                  "internalType": "bool",
                  "name": "startedByLeft",
                  "type": "bool"
                },
                {
                  "internalType": "uint256",
                  "name": "finalCooperativeNonce",
                  "type": "uint256"
                },
                {
                  "internalType": "uint256",
                  "name": "finalDisputeNonce",
                  "type": "uint256"
                },
                {
                  "components": [
                    {
                      "internalType": "int256[]",
                      "name": "offdeltas",
                      "type": "int256[]"
                    },
                    {
                      "internalType": "uint256[]",
                      "name": "tokenIds",
                      "type": "uint256[]"
                    },
                    {
                      "components": [
                        {
                          "internalType": "address",
                          "name": "subcontractProviderAddress",
                          "type": "address"
                        },
                        {
                          "internalType": "bytes",
                          "name": "encodedBatch",
                          "type": "bytes"
                        },
                        {
                          "components": [
                            {
                              "internalType": "uint256",
                              "name": "deltaIndex",
                              "type": "uint256"
                            },
                            {
                              "internalType": "uint256",
                              "name": "rightAllowence",
                              "type": "uint256"
                            },
                            {
                              "internalType": "uint256",
                              "name": "leftAllowence",
                              "type": "uint256"
                            }
                          ],
                          "internalType": "struct Depository.Allowence[]",
                          "name": "allowences",
                          "type": "tuple[]"
                        }
                      ],
                      "internalType": "struct Depository.SubcontractClause[]",
                      "name": "subcontracts",
                      "type": "tuple[]"
                    }
                  ],
                  "internalType": "struct Depository.ProofBody",
                  "name": "finalProofbody",
                  "type": "tuple"
                },
                {
                  "internalType": "bytes",
                  "name": "finalArguments",
                  "type": "bytes"
                },
                {
                  "internalType": "bytes",
                  "name": "sig",
                  "type": "bytes"
                }
              ],
              "internalType": "struct Depository.FinalDisputeProof[]",
              "name": "finalDisputeProof",
              "type": "tuple[]"
            },
            {
              "components": [
                {
                  "internalType": "uint256",
                  "name": "tokenId",
                  "type": "uint256"
                },
                {
                  "internalType": "uint256",
                  "name": "amount",
                  "type": "uint256"
                }
              ],
              "internalType": "struct Depository.TokenAmountPair[]",
              "name": "flashloans",
              "type": "tuple[]"
            },
            {
              "internalType": "uint256",
              "name": "hub_id",
              "type": "uint256"
            }
          ],
          "internalType": "struct Depository.Batch",
          "name": "batch",
          "type": "tuple"
        }
      ],
      "name": "processBatch",
      "outputs": [
        {
          "internalType": "bool",
          "name": "completeSuccess",
          "type": "bool"
        }
      ],
      "stateMutability": "nonpayable",
      "type": "function"
    },
    {
      "inputs": [
        {
          "internalType": "bytes",
          "name": "encodedBatch",
          "type": "bytes"
        },
        {
          "internalType": "address",
          "name": "entityProvider",
          "type": "address"
        },
        {
          "internalType": "bytes",
          "name": "hankoData",
          "type": "bytes"
        },
        {
          "internalType": "uint256",
          "name": "nonce",
          "type": "uint256"
        }
      ],
      "name": "processBatchWithHanko",
      "outputs": [
        {
          "internalType": "bool",
          "name": "completeSuccess",
          "type": "bool"
        }
      ],
      "stateMutability": "nonpayable",
      "type": "function"
    },
    {
      "inputs": [
        {
          "internalType": "uint256",
          "name": "hub_id",
          "type": "uint256"
        },
        {
          "internalType": "string",
          "name": "new_uri",
          "type": "string"
        }
      ],
      "name": "registerHub",
      "outputs": [
        {
          "internalType": "uint256",
          "name": "",
          "type": "uint256"
        }
      ],
      "stateMutability": "nonpayable",
      "type": "function"
    },
    {
      "inputs": [
        {
          "internalType": "address",
          "name": "provider",
          "type": "address"
        }
      ],
      "name": "removeEntityProvider",
      "outputs": [],
      "stateMutability": "nonpayable",
      "type": "function"
    },
    {
      "inputs": [
        {
          "components": [
            {
              "internalType": "uint256",
              "name": "tokenId",
              "type": "uint256"
            },
            {
              "internalType": "address",
              "name": "receiver",
              "type": "address"
            },
            {
              "components": [
                {
                  "internalType": "address",
                  "name": "addr",
                  "type": "address"
                },
                {
                  "internalType": "uint256",
                  "name": "amount",
                  "type": "uint256"
                }
              ],
              "internalType": "struct Depository.AddrAmountPair[]",
              "name": "pairs",
              "type": "tuple[]"
            }
          ],
          "internalType": "struct Depository.ReserveToCollateral",
          "name": "params",
          "type": "tuple"
        }
      ],
      "name": "reserveToCollateral",
      "outputs": [
        {
          "internalType": "bool",
          "name": "completeSuccess",
          "type": "bool"
        }
      ],
      "stateMutability": "nonpayable",
      "type": "function"
    },
    {
      "inputs": [
        {
          "internalType": "address",
          "name": "peer",
          "type": "address"
        },
        {
          "internalType": "uint256",
          "name": "tokenId",
          "type": "uint256"
        },
        {
          "internalType": "uint256",
          "name": "amount",
          "type": "uint256"
        }
      ],
      "name": "reserveToCollateralUnilateral",
      "outputs": [],
      "stateMutability": "nonpayable",
      "type": "function"
    },
    {
      "inputs": [
        {
          "components": [
            {
              "internalType": "address",
              "name": "receiver",
              "type": "address"
            },
            {
              "internalType": "uint256",
              "name": "tokenId",
              "type": "uint256"
            },
            {
              "internalType": "uint256",
              "name": "amount",
              "type": "uint256"
            }
          ],
          "internalType": "struct Depository.ReserveToExternalToken",
          "name": "params",
          "type": "tuple"
        }
      ],
      "name": "reserveToExternalToken",
      "outputs": [],
      "stateMutability": "nonpayable",
      "type": "function"
    },
    {
      "inputs": [
        {
          "components": [
            {
              "internalType": "address",
              "name": "receiver",
              "type": "address"
            },
            {
              "internalType": "uint256",
              "name": "tokenId",
              "type": "uint256"
            },
            {
              "internalType": "uint256",
              "name": "amount",
              "type": "uint256"
            }
          ],
          "internalType": "struct Depository.ReserveToReserve",
          "name": "params",
          "type": "tuple"
        }
      ],
      "name": "reserveToReserve",
      "outputs": [],
      "stateMutability": "nonpayable",
      "type": "function"
    },
    {
      "inputs": [
        {
          "internalType": "bytes32",
          "name": "",
          "type": "bytes32"
        }
      ],
      "name": "tokenToId",
      "outputs": [
        {
          "internalType": "uint256",
          "name": "",
          "type": "uint256"
        }
      ],
      "stateMutability": "view",
      "type": "function"
    },
    {
      "inputs": [
        {
          "internalType": "address",
          "name": "to",
          "type": "address"
        },
        {
          "internalType": "uint256",
          "name": "internalTokenId",
          "type": "uint256"
        },
        {
          "internalType": "uint256",
          "name": "amount",
          "type": "uint256"
        },
        {
          "internalType": "string",
          "name": "purpose",
          "type": "string"
        }
      ],
      "name": "transferControlShares",
      "outputs": [],
      "stateMutability": "nonpayable",
      "type": "function"
    },
    {
      "inputs": [
        {
          "internalType": "bytes32",
          "name": "packed",
          "type": "bytes32"
        }
      ],
      "name": "unpackTokenReference",
      "outputs": [
        {
          "internalType": "address",
          "name": "contractAddress",
          "type": "address"
        },
        {
          "internalType": "uint96",
          "name": "externalTokenId",
          "type": "uint96"
        },
        {
          "internalType": "uint8",
          "name": "tokenType",
          "type": "uint8"
        }
      ],
      "stateMutability": "pure",
      "type": "function"
    }
  ],
  "bytecode": "0x608034620002cb57600954680100000000000000009182821015620002b5576001808301806009558310156200029f57600960009081527f6e1540171b6c0c960b71a7020d9f60077f6af931a8bbf590da0223dacf75c7af9093018390556020926001600160401b039260608101848111828210176200028b576040528181528481018281526040519686880188811087821117620002775760405283885260408301978852600854908110156200026357848101806008558110156200024f5790600292916008855260038886209102019160018060a01b0390511660018060a01b0319835416178255518482015501945180519384116200023b5785548381811c9116801562000230575b868210146200021c57601f8111620001d1575b508491601f85116001146200016a5793945084929190836200015e575b50501b916000199060031b1c19161790555b6040516168809081620002d18239f35b0151925038806200013c565b86815285812093958591601f198316915b88838310620001b657505050106200019c575b505050811b0190556200014e565b015160001960f88460031b161c191690553880806200018e565b8587015188559096019594850194879350908101906200017b565b868352858320601f860160051c81019187871062000211575b601f0160051c019084905b828110620002055750506200011f565b848155018490620001f5565b9091508190620001ea565b634e487b7160e01b83526022600452602483fd5b90607f16906200010c565b634e487b7160e01b82526041600452602482fd5b634e487b7160e01b84526032600452602484fd5b634e487b7160e01b84526041600452602484fd5b634e487b7160e01b85526041600452602485fd5b634e487b7160e01b83526041600452602483fd5b634e487b7160e01b600052603260045260246000fd5b634e487b7160e01b600052604160045260246000fd5b600080fdfe6080604052600436101561001257600080fd5b60003560e01c806304aaa1e1146103275780630dedd6241461032257806315ab7c5f1461031d5780631e1c13b31461031857806323cdd8e814610313578063266afe1b1461030e5780632cfaaa7a14610309578063319af333146103045780633644e515146102ff5780633692d61a146102fa5780633c4deb11146102f55780633ca6268e146102f05780633ee01625146102eb5780634109eedf146102e65780634174a93d146102e15780634b5c4277146102dc57806358d642bc146102d7578063768843e1146102d257806376ace773146102cd5780637aa6422f146102c8578063805bd697146102c357806392cf61e5146102be5780639304677d146102b95780639645ee10146102b4578063a034af42146102af578063a09fd42b146102aa578063a56c7bf7146102a5578063a7d074de146102a0578063abc8d1ac1461029b578063b0c26ecf14610296578063b60e72cc14610291578063bb2c250c1461028c578063bf52638c14610287578063bfa4b7d914610282578063c3b556351461027d578063d19fd92e14610278578063d1cb4dc314610273578063d7f6d8741461026e578063db5772f514610269578063ddc3948014610264578063e479f93d1461025f578063e97c685d1461025a578063ec6d8e0614610255578063ed70554d14610250578063f23a6e611461024b578063fb552dca14610246578063fbfe1b5714610241578063fe4ece541461023c5763ffc9fd471461023757600080fd5b61317a565b613085565b612e05565b612dbd565b612c25565b612bd4565b612b7a565b6129ff565b6129c4565b61281c565b6125f8565b61257e565b612543565b612414565b612392565b612344565b612322565b6122a6565b612269565b61224b565b61220c565b6121c4565b612189565b612004565b611f2c565b611d6e565b611b9a565b611b35565b611afa565b6119ae565b611886565b61172d565b611653565b6115b9565b611557565b611528565b611460565b61140b565b6113ca565b61131e565b6112e3565b6112a1565b611209565b610e9e565b610e40565b610b9b565b6109c6565b6108f1565b610515565b634e487b7160e01b600052604160045260246000fd5b6060810190811067ffffffffffffffff82111761035e57604052565b61032c565b67ffffffffffffffff811161035e57604052565b6040810190811067ffffffffffffffff82111761035e57604052565b6080810190811067ffffffffffffffff82111761035e57604052565b90601f8019910116810190811067ffffffffffffffff82111761035e57604052565b60405190610180820182811067ffffffffffffffff82111761035e57604052565b604051906103ff82610377565b565b604051906103ff82610342565b6040519060a0820182811067ffffffffffffffff82111761035e57604052565b6040519060c0820182811067ffffffffffffffff82111761035e57604052565b6040519060e0820182811067ffffffffffffffff82111761035e57604052565b60405190610140820182811067ffffffffffffffff82111761035e57604052565b600435906001600160a01b03821682036104a557565b600080fd5b602435906001600160a01b03821682036104a557565b35906001600160a01b03821682036104a557565b60609060031901126104a557604051906104ed82610342565b816004356001600160a01b03811681036104a557815260243560208201526040604435910152565b346104a55760603660031901126104a55761052f366104d4565b6020810161053e815133614064565b5060ff61057861055b6105518451612b0c565b90549060031b1c90565b8060601c9160ff6affffffffffffffffffffff8360081c16921690565b6105ac61059c94929394336001600160a01b03166000526002602052604060002090565b8651600052602052604060002090565b54946105bf6040880196875111156132b1565b6105fd6105f58751926105e5336001600160a01b03166000526002602052604060002090565b9051600052602052604060002090565b918254613326565b905516806106ca5750509060209161061f61067794516001600160a01b031690565b91519160006001600160a01b036040518097819682957fa9059cbb00000000000000000000000000000000000000000000000000000000845260048401602090939291936001600160a01b0360408201951681520152565b0393165af180156106c55761069491600091610696575b50613354565b005b6106b8915060203d6020116106be575b6106b081836103af565b81019061333f565b3861068e565b503d6106a6565b613333565b909291906001810361076257506106f391506001600160a01b031692516001600160a01b031690565b823b156104a5576040516323b872dd60e01b81523060048201526001600160a01b039190911660248201526bffffffffffffffffffffffff919091166044820152906000908290606490829084905af180156106c55761074f57005b8061075c61069492610363565b80610e93565b60021461076b57005b6001600160a01b03610786911693516001600160a01b031690565b905192803b156104a557604051637921219560e11b81523060048201526001600160a01b039290921660248301526bffffffffffffffffffffffff929092166044820152606481019290925260a06084830152600060a4830181905290829060c490829084905af180156106c55761074f57005b67ffffffffffffffff811161035e57601f01601f191660200190565b929192610822826107fa565b9161083060405193846103af565b8294818452818301116104a5578281602093846000960137010152565b9080601f830112156104a55781602061086893359101610816565b90565b60005b83811061087e5750506000910152565b818101518382015260200161086e565b906108a16020928281519485920161086b565b0190565b60206108be91816040519382858094519384920161086b565b8101600481520301902090565b60206108e491816040519382858094519384920161086b565b8101600381520301902090565b346104a55760403660031901126104a55760043567ffffffffffffffff81116104a55761092561092a91369060040161084d565b6108a5565b6024356000526020526040806000206001815491015482519182526020820152f35b9181601f840112156104a55782359167ffffffffffffffff83116104a557602083818601950101116104a557565b9060806003198301126104a5576004356001600160a01b03811681036104a5579160243591604435916064359067ffffffffffffffff82116104a5576109c29160040161094c565b9091565b346104a557610a8a610a987f8a1fa734614ce1b935d8439d18b23444fb921bb370ec43ca8246788c4ee27f83610aa8610adc610aa0610acd610925610aae610a0d3661097a565b93829d819d84610a23879e979c9596151561335b565b6040519283918d602084019633889290607d94927f434f4c4c41544552414c5f544f5f52455345525645000000000000000000000085526bffffffffffffffffffffffff19809260601b16601586015260601b166029840152603d830152605d8201520190565b03601f1981018352826103af565b5190206163bd565b923691610816565b90616400565b6001600160a01b038089169891610ac7911689146133a6565b33613f5a565b90600052602052604060002090565b93610af4818654610aef828210156133f1565b613326565b8555610b1782610acd336001600160a01b03166000526002602052604060002090565b610b22828254613458565b9055833310610b54575b508354600190940154604080519586526020860191909152840152339280606081015b0390a3005b610b6360018601918254613465565b905538610b2c565b60609060031901126104a55760405190610b8482610342565b600435825260243560208301526044356040830152565b346104a55760603660031901126104a557610bb536610b6b565b602081019081518015600014610e2d5750610bdb8151600052600a602052604060002090565b5480835215610dfa575b60ff610c0982518060601c9160ff6affffffffffffffffffffff8360081c16921690565b90921680610cbf575060408381015190516323b872dd60e01b815233600482015230602482015260448101919091529150602090829060649082906000906001600160a01b03165af180156106c557610c9c92610c74604092610c9494600091610ca0575b506134cb565b0151926105e5336001600160a01b03166000526002602052604060002090565b918254613458565b9055005b610cb9915060203d6020116106be576106b081836103af565b38610c6e565b60018103610d4a57506001600160a01b0316803b156104a5576040516323b872dd60e01b81523360048201523060248201526bffffffffffffffffffffffff9290921660448301526000908290606490829084905af180156106c557610c9c92610c9492604092610d37575b50600182820152610c74565b8061075c610d4492610363565b38610d2b565b600214610d62575b5050610c946040610c9c92610c74565b6001600160a01b0316906040830151823b156104a557604051637921219560e11b81523360048201523060248201526bffffffffffffffffffffffff929092166044830152606482015260a06084820152600060a482018190529091829060c490829084905af180156106c557610c9c92610c9492604092610de7575b509250610d52565b8061075c610df492610363565b38610ddf565b610e04815161347e565b610e0f600954613312565b808352610e278251600052600a602052604060002090565b55610be5565b610551610e3991612b0c565b8152610be5565b346104a55760403660031901126104a55767ffffffffffffffff6004358181116104a557610e7290369060040161084d565b6024359182116104a557610e8d61069492369060040161084d565b90613516565b60009103126104a557565b346104a557600080600319360112610f5f5760405180916001906001549384845260208094018095600184527fb10e2d527612073b26eecdfd717e6a320cf44b4afac2b0732d9fcbe2b7fa0cf690845b818110610f435750505081610f049103826103af565b6040519380850191818652518092526040850195925b828110610f275785870386f35b83516001600160a01b0316875295810195928101928401610f1a565b82546001600160a01b0316845292870192918601918601610eee565b80fd5b67ffffffffffffffff811161035e5760051b60200190565b9080601f830112156104a5576020908235610f9481610f62565b93610fa260405195866103af565b81855260208086019260051b8201019283116104a557602001905b828210610fcb575050505090565b81358152908301908301610fbd565b81601f820112156104a557803591602090610ff484610f62565b936040611003815196876103af565b818652838087019260051b860101928084116104a557848601925b84841061102f575050505050505090565b67ffffffffffffffff84358181116104a55788019060609081601f1984870301126104a55785519261106084610342565b61106b8a82016104c0565b8452868101358281116104a557868b6110869284010161084d565b8a850152828101359182116104a557019084603f830112156104a55788820135916110b083610f62565b926110bd885194856103af565b80845287838c86019202830101918783116104a55791888c969492979593015b8181106110f9575050508394508682015281520193019261101e565b91809496508289989294969803126104a5578b84918a5161111981610342565b8435815282850135838201528b8501358c8201528152019101918b9593919694926110dd565b91906060838203126104a5576040519061115882610342565b819380359167ffffffffffffffff928381116104a557820181601f820112156104a557803560209161118982610f62565b9161119760405193846103af565b808352838084019160051b830101918583116104a55784809101915b8383106111f957505050508552808301358481116104a557826111d7918501610f7a565b9085015260408201359283116104a5576040926111f49201610fda565b910152565b82358152918101918591016111b3565b346104a55760a03660031901126104a55761122261048f565b61122a6104aa565b9067ffffffffffffffff906044358281116104a55761124d90369060040161113f565b6064358381116104a55761126590369060040161084d565b906084359384116104a55761129d9461128561128b95369060040161084d565b936138eb565b60405190151581529081906020820190565b0390f35b346104a55760403660031901126104a55760043567ffffffffffffffff81116104a5576112d561069491369060040161084d565b6112dd6104aa565b90613f0c565b346104a55760003660031901126104a55760206040517f990f4c22d4b046a9a7d673c4a252b906cadd4f3290465e297f998c28a449652b8152f35b346104a55760403660031901126104a55760043567ffffffffffffffff81116104a5576113876113737f02d93529bba9d141e5e06733c52c7e6fbcb1149586adb5c24064b522ab26f1d792369060040161084d565b604051918291604083526040830190611394565b60243560208301520390a1005b906020916113ad8151809281855285808601910161086b565b601f01601f1916010190565b906020610868928181520190611394565b346104a55760403660031901126104a55761129d6113f76113e961048f565b6113f16104aa565b90613f5a565b604051918291602083526020830190611394565b346104a55760403660031901126104a55760043567ffffffffffffffff81116104a5576113876113737f6a837ff3973aa4181e7b9f07756f8b7ee366dd85a36655d2cb42cd47f10b963892369060040161084d565b346104a55760603660031901126104a55761147a366104d4565b602081019061148a825133614064565b5060009133835260026020526040832081518452602052604083205460408301918251809210611524576105e561150661151f94610c94946114f56105f56114e5336001600160a01b03166000526002602052604060002090565b8751600052602052604060002090565b90555195516001600160a01b031690565b6001600160a01b03166000526002602052604060002090565b905580f35b8480fd5b346104a55760403660031901126104a557602061154f61154661048f565b60243590614064565b604051908152f35b346104a55760403660031901126104a5576115a161157361048f565b60601b6bffffffffffffffffffffffff191660243560081b6cffffffffffffffffffffffff00161760021790565b600052600a6020526020604060002054604051908152f35b346104a55760403660031901126104a55767ffffffffffffffff6004358181116104a5576115eb90369060040161084d565b906024359081116104a5577f27a8767ed172b48d7cf6dbb25d2840c5fa91ef78fa6e05c13c82763d099f03ca9161164e61162c61164093369060040161084d565b604051938493604085526040850190611394565b908382036020850152611394565b0390a1005b346104a55760203660031901126104a55761166c61048f565b6001600160a01b0381166000918183528260205260ff6040842054166116e957806116bd6116b06116c2936001600160a01b03166000526000602052604060002090565b805460ff19166001179055565b61429c565b7fc395b1bd803c744a815bc34a0426e5eaac03513b9d76bf237a734a004916499c8280a280f35b606460405162461bcd60e51b815260206004820152601060248201527f416c726561647920617070726f766564000000000000000000000000000000006044820152fd5b346104a5577fb27368fa5e091451f133ee63c16745b5f4037723830f29b1b9d5cb70b98c787861175c3661097a565b61176b84959496929633614064565b506000953387526002602052604087208688526020526117918460408920541015614313565b61180186610acd6001600160a01b038816976117ae89151561435e565b6117ba338a14156143a9565b6117db83610acd336001600160a01b03166000526002602052604060002090565b6117e6898254613326565b90556001600160a01b03166000526002602052604060002090565b61180c858254613458565b905561181f604051928392339684614415565b0390a480f35b60609060031901126104a5576004356001600160a01b03811681036104a557906024359060443590565b634e487b7160e01b600052603260045260246000fd5b80548210156118815760005260206000209060011b0190600090565b61184f565b346104a55761189436611825565b916001600160a01b03918260009216825260056020526040822090825260205260408120908154841015610f5f57506040926118cf91611865565b5090600182549201541682519182526020820152f35b91906060838203126104a557604080516118fe81610342565b8094803582526020906119128282016104c0565b82840152838101359067ffffffffffffffff82116104a557019084601f830112156104a557813561194281610f62565b9561194f865197886103af565b818752828088019260061b850101938185116104a5578301915b8483106119795750505050500152565b86838303126104a557838791825161199081610377565b611999866104c0565b81528286013583820152815201920191611969565b346104a55760203660031901126104a55760043567ffffffffffffffff81116104a5576119e96119e460209236906004016118e5565b61449e565b6040519015158152f35b801515036104a557565b35906103ff826119f3565b9190610180838203126104a557611a1d6103d1565b92611a27816104c0565b84526020810135602085015260408101356040850152606081013560608501526080810135608085015260a08101359167ffffffffffffffff928381116104a55781611a7491840161084d565b60a0860152611a8560c083016119fd565b60c086015260e082013560e08601526101008083013590860152610120808301358481116104a55782611ab991850161113f565b90860152610140808301358481116104a55782611ad791850161084d565b9086015261016092838301359081116104a557611af4920161084d565b90830152565b346104a55760203660031901126104a55760043567ffffffffffffffff81116104a5576119e9611b306020923690600401611a08565b614964565b346104a55760203660031901126104a55760606bffffffffffffffffffffffff60ff611b7a6004358060601c9160ff6affffffffffffffffffffff8360081c16921690565b9193906001600160a01b0360405195168552166020840152166040820152f35b346104a55760203660031901126104a5576001600160a01b03611bbb61048f565b16600052600b6020526020604060002054604051908152f35b9080601f830112156104a5576020908235611bee81610f62565b93611bfc60405195866103af565b81855260208086019260051b8201019283116104a557602001905b828210611c25575050505090565b838091611c31846104c0565b815201910190611c17565b90815180825260208080930193019160005b828110611c5c575050505090565b8351805186528201516001600160a01b03168583015260409094019392810192600101611c4e565b602080820190808352835180925260409283810160059483818660051b850101970195600080945b878610611cbf5750505050505050505090565b909192939495969798603f19828203018652878a5181878401918051855201519287838201528351809252606091828201918484838b1b83010196019388905b8b848310611d255750505050505050806001929b01960196019497969593929190611cac565b96611d5d8883899b818a9c6001989a9c8a9c88999b605f19908603019052518051845287810151888501520151938201520190611c3c565b9801960192018d9594929391611cff565b346104a5576040806003193601126104a55767ffffffffffffffff906004358281116104a557611da2903690600401611bd4565b916024359081116104a557611dbb903690600401610f7a565b611dc58351614ba0565b6000906000905b8551821015611f1c57611def611de2838861358a565b516001600160a01b031690565b94853193611dfd8651614c03565b94611e066103f2565b90815260209586820152611e1a858561358a565b52611e25848461358a565b50805b8651811015611f0b5780611f04600192611e71611e588c6001600160a01b03166000526002602052604060002090565b611e62838d61358a565b51600052602052604060002090565b54611ee18c611ecc8d611e6286611ec6611eab611ea1876001600160a01b03166000526006602052604060002090565b611e62848761358a565b54956001600160a01b03166000526005602052604060002090565b9261358a565b90611ed5610401565b9384528c840152614c6b565b8782015289611ef08a8a61358a565b51015190611efe838361358a565b5261358a565b5001611e28565b509350945094906001019094611dcc565b61129d9060405191829182611c84565b346104a55760403660031901126104a55760243567ffffffffffffffff81116104a55761154f611f62602092369060040161084d565b600435614e7d565b600854811015611881576003906008600052027ff3f7a9fe364faab93b216da50a3214154f22a0a2b415b23a84c8169e8b636ee30190600090565b90600182811c92168015611fd5575b6020831014611fbf57565b634e487b7160e01b600052602260045260246000fd5b91607f1691611fb4565b61086893926001600160a01b0360609316825260208201528160408201520190611394565b346104a5576020806003193601126104a5576004356008548110156104a55761202c90611f6a565b50906001600160a01b03825416906001600260018501549401916040519260009281549161205983611fa5565b80875292600181169081156120c9575060011461208f575b878761129d88612083818a03826103af565b60405193849384611fdf565b6000908152838120939450925b8284106120b6575050508201016120838261129d38612071565b805486850186015292840192810161209c565b60ff191685880152505050151560051b83010190506120838261129d38612071565b91909160a0818403126104a55761210061040e565b9261210a826104c0565b845267ffffffffffffffff60208301358181116104a5578261212d91850161113f565b602086015260408301358181116104a5578261214a91850161084d565b604086015260608301358181116104a5578261216791850161084d565b606086015260808301359081116104a557612182920161084d565b6080830152565b346104a55760203660031901126104a55760043567ffffffffffffffff81116104a5576119e96121bf60209236906004016120eb565b614ffe565b346104a55760403660031901126104a5576001600160a01b036121e561048f565b16600052600660205260406000206024356000526020526020604060002054604051908152f35b346104a55760203660031901126104a5576001600160a01b0361222d61048f565b166000526000602052602060ff604060002054166040519015158152f35b346104a55760003660031901126104a5576020600954604051908152f35b346104a55760403660031901126104a55760043567ffffffffffffffff81116104a55761229d61069491369060040161084d565b60243590615183565b346104a55760603660031901126104a55760043560ff81168091036104a5576122cd6104aa565b90604435906bffffffffffffffffffffffff821682036104a55760ff81116104a5576020926cffffffffffffffffffffffff006040519360081b16906bffffffffffffffffffffffff199060601b1617178152f35b346104a55760403660031901126104a55761233b61048f565b506106946104aa565b346104a55760203660031901126104a55760043567ffffffffffffffff81116104a55761237f61237a604092369060040161084d565b6108cb565b6001815491015482519182526020820152f35b346104a55760403660031901126104a55760043567ffffffffffffffff81116104a5576124076123e77f4c34c2f9a78632f29fa59aaed5514cb742fd9fbcfd7ccc2c03c85f2bbc621c4792369060040161084d565b6024356123f3816119f3565b604051928392604084526040840190611394565b90151560208301520390a1005b346104a55760203660031901126104a557600435600052600a6020526020604060002054604051908152f35b9190608080848303126104a55760409384519261245c84610393565b8395612467836104c0565b855267ffffffffffffffff936020848101358681116104a55785019184601f840112156104a55782359261249a84610f62565b936124a7865195866103af565b808552838086019160071b830101918783116104a5578401905b8282106125035750505050860152808301358481116104a557826124e6918501610f7a565b9085015260608201359283116104a5576060926111f4920161084d565b83828903126104a557848491885161251a81610393565b843581528285013583820152898501358a820152606080860135908201528152019101906124c1565b346104a55760203660031901126104a55760043567ffffffffffffffff81116104a5576119e96125796020923690600401612440565b6154ca565b346104a5576040806003193601126104a55761259861048f565b906125da816001600160a01b03602435941693600090858252600660205282822081835260205282822054958252600560205282822090825260205220614c6b565b916125ee8251938385948552840190611c3c565b9060208301520390f35b346104a5576003196020368201126104a5576004359067ffffffffffffffff82116104a5576101409082360301126104a557612638903690600401615cee565b5a600160009160808401925b8351805182101561267f5761266561265f836126699361358a565b516154ca565b1590565b612676575b600101612644565b6000925061266e565b50508360009160a08201925b835180518210156126c2576126656126a6836126ac9361358a565b51614ffe565b6126b9575b60010161268b565b600094506126b1565b50508360009160c08401925b83518051821015612705576126656126e9836126ef9361358a565b51615edb565b6126fc575b6001016126ce565b600092506126f4565b50508360009160e08201925b835180518210156127485761266561272c836127329361358a565b51614964565b61273f575b600101612711565b60009450612737565b50508360009160608401925b8351805182101561278b5761266561276f836127759361358a565b5161449e565b612782575b600101612754565b6000925061277a565b61129d8484610120890190815180151590816127e9575b506127bc575b505060405190151581529081906020820190565b60016127d66127cf6127e0935a90613326565b9351611f6a565b5001918254613458565b905582806127a8565b61281491506127fa61280891611f6a565b50546001600160a01b031690565b6001600160a01b031690565b3314856127a2565b346104a55760203660031901126104a55761283561048f565b6001600160a01b0380821661288a612880600094838652856020526128676128626040882060ff90541690565b615e1b565b6001600160a01b03166000526000602052604060002090565b805460ff19169055565b825b600154808210156129385782846128b86128a585612b43565b90546001600160a01b039160031b1c1690565b16146128c7575060010161288c565b6129099293506128e46128a56128df6128ea93613312565b612b43565b91612b43565b9091906001600160a01b038084549260031b9316831b921b1916179055565b612911615e66565b7f67c5a35d33d48c47ef33c82c62eda6254aad034fab4c51abe26a6d06ad174a348280a280f35b50509050612911565b91909160c0818403126104a55761295661042e565b92612960826104c0565b8452602082013560208501526040820135604085015260608201356060850152608082013567ffffffffffffffff908181116104a557826129a291850161084d565b608086015260a08301359081116104a5576129bd920161084d565b60a0830152565b346104a55760203660031901126104a55760043567ffffffffffffffff81116104a5576119e96129fa6020923690600401612941565b615edb565b346104a5577f8a1fa734614ce1b935d8439d18b23444fb921bb370ec43ca8246788c4ee27f83612a2e36611825565b9290612a3b84151561335b565b612a458133614064565b50612a7384612a6b83610acd336001600160a01b03166000526002602052604060002090565b5410156160c5565b612a9481610acd336001600160a01b03166000526002602052604060002090565b612a9f858254613326565b90556001612ab482610acd6109258733613f5a565b6001600160a01b03612ac7878354613458565b958683551695863310612af6575b50015460408051948552602085019190915283015233918060608101610b4f565b612b0483830191825461359e565b905538612ad5565b6009548110156118815760096000527f6e1540171b6c0c960b71a7020d9f60077f6af931a8bbf590da0223dacf75c7af0190600090565b6001548110156118815760016000527fb10e2d527612073b26eecdfd717e6a320cf44b4afac2b0732d9fcbe2b7fa0cf60190600090565b346104a55760203660031901126104a5576004356001548110156104a5576001600160a01b0360209160016000527fb10e2d527612073b26eecdfd717e6a320cf44b4afac2b0732d9fcbe2b7fa0cf6015416604051908152f35b346104a55760203660031901126104a5576004356009548110156104a55760209060096000527f6e1540171b6c0c960b71a7020d9f60077f6af931a8bbf590da0223dacf75c7af0154604051908152f35b346104a55760a03660031901126104a557612c3e61048f565b50612c476104aa565b6044359060643560843567ffffffffffffffff81116104a557612c6e90369060040161094c565b612c98612c91949294336001600160a01b03166000526000602052604060002090565b5460ff1690565b612cc8575b6040517ff23a6e61000000000000000000000000000000000000000000000000000000008152602090f35b7f3905abcd1f9797e8b4e20f9d468f6f971cf334c5f5c1d4665eacec0ce947c678916001600160a01b0391612d7d90612d603360601b6bffffffffffffffffffffffff191660088a901b6cffffffffffffffffffffffff001617600217612d3981600052600a602052604060002090565b54908115612d8a575b50610acd856001600160a01b03166000526002602052604060002090565b612d6b878254613458565b90556040519384931696339684614415565b0390a43880808080612c9d565b612db69150612d988161347e565b612da3600954613312565b918291600052600a602052604060002090565b5538612d42565b346104a55760403660031901126104a5576001600160a01b03612dde61048f565b16600052600260205260406000206024356000526020526020604060002054604051908152f35b346104a55760803660031901126104a55767ffffffffffffffff6004358181116104a557612e3790369060040161094c565b90612e406104aa565b926044359081116104a557612e5990369060040161094c565b9091606435936001600160a01b038096169384600052600060205260409460ff86600020541615613042579085612ede94939281516020810190612ea581610a8a8d898b304689616110565b51902090825180809881947f8aad06280000000000000000000000000000000000000000000000000000000083528b8860048501616185565b03915afa9081156106c55761129d98889260009689600092612fce575b505092612f9e612f4d7fbd6e57133956b4a3944b483a9e595b4aab16071cf15a39384fdb1b7015865aab9794612fac9794612f38612fa7986161a2565b612f438b15156161ed565b8a169a3691610816565b6020815191012098612f85612f7e612f78836001600160a01b0316600052600b602052604060002090565b5461343c565b8414616238565b6001600160a01b0316600052600b602052604060002090565b558101906162a9565b616616565b8451958652801515602087015294604090a35190151581529081906020820190565b612f389850612fa79592507fbd6e57133956b4a3944b483a9e595b4aab16071cf15a39384fdb1b7015865aab9794612fac9794613027612f9e9484612f4d95903d1061303b575b61301f81836103af565b810190616169565b9b909b959850509497509497505089612efb565b503d613015565b6064865162461bcd60e51b815260206004820152601560248201527f50726f7669646572206e6f7420617070726f76656400000000000000000000006044820152fd5b346104a55760203660031901126104a5576001600160a01b036130a661048f565b1660005260076020526020604060002054604051908152f35b6020808201908083528351809252604092604081018260408560051b840101960194600080935b8685106130f857505050505050505090565b9091929394959697603f198282030185528689518160806060948286820194818151805185520151828401520151958982015285518094520193019085905b878183106131595750505050806001929a0195019501939695949291906130e6565b83958560019496939551805183520151838201520194019201899291613137565b346104a55760603660031901126104a55761319361048f565b67ffffffffffffffff6024358181116104a5576131b4903690600401611bd4565b906044359081116104a5576131ce83913690600401610f7a565b6131d883516162e8565b906000906000905b85518210156132a3576131ff6131f9611de2848961358a565b86613f5a565b94613209866108cb565b93613214835161634f565b946132266132206103f2565b9161639f565b815260209586820152613239858861358a565b52613244848761358a565b50805b8351811015613292578061328b81896132818a6132788b8f8c611e6260019b611ec6613272946108a5565b9461358a565b5101519161639f565b611efe838361358a565b5001613247565b5090955092506001909101906131e0565b6040518061129d86826130bf565b156132b857565b606460405162461bcd60e51b815260206004820152601260248201527f4e6f7420656e6f756768207265736572766500000000000000000000000000006044820152fd5b634e487b7160e01b600052601160045260246000fd5b60001981019190821161332157565b6132fc565b9190820391821161332157565b6040513d6000823e3d90fd5b908160209103126104a55751610868816119f3565b156104a557565b1561336257565b606460405162461bcd60e51b815260206004820152601760248201527f416d6f756e74206d75737420626520706f7369746976650000000000000000006044820152fd5b156133ad57565b606460405162461bcd60e51b815260206004820152601160248201527f496e76616c6964207369676e61747572650000000000000000000000000000006044820152fd5b156133f857565b606460405162461bcd60e51b815260206004820152601760248201527f496e73756666696369656e7420636f6c6c61746572616c0000000000000000006044820152fd5b906001820180921161332157565b906014820180921161332157565b9190820180921161332157565b8181039291600013801582851316918412161761332157565b6009546801000000000000000081101561035e5760018101806009558110156118815760096000527f6e1540171b6c0c960b71a7020d9f60077f6af931a8bbf590da0223dacf75c7af0155565b156134d257565b606460405162461bcd60e51b815260206004820152601960248201527f4552433230207472616e7366657246726f6d206661696c6564000000000000006044820152fd5b611640906135537fe8407a0209fa99ec3a7228aff140c3d3e68bd279391739c7e0b65cd406cc93b593604051938493604085526040850190611394565b0390a1565b9061356282610f62565b61356f60405191826103af565b8281528092613580601f1991610f62565b0190602036910137565b80518210156118815760209160051b010190565b9190916000838201938412911290801582169115161761332157565b60209081818403126104a557805167ffffffffffffffff918282116104a557019083601f830112156104a55781516135f181610f62565b9460409261360260405197886103af565b828752858088019360051b860101948286116104a557868101935b86851061362f57505050505050505090565b84518381116104a55782019084603f830112156104a5578882015190613654826107fa565b613660895191826103af565b828152868984860101116104a5576136818b949385948b868501910161086b565b81520194019361361d565b60209081818403126104a55780519067ffffffffffffffff82116104a557019180601f840112156104a55782516136c281610f62565b936136d060405195866103af565b818552838086019260051b8201019283116104a5578301905b8282106136f7575050505090565b815181529083019083016136e9565b90815180825260208080930193019160005b828110613726575050505090565b835185529381019392810192600101613718565b92613766610868959361375861377494608088526080880190613706565b908682036020880152611394565b908482036040860152611394565b916060818403910152611394565b7f800000000000000000000000000000000000000000000000000000000000000081146133215760000390565b604051906137bc82610377565b600c82527f5570646174652064656c746100000000000000000000000000000000000000006020830152565b604051906137f582610377565b600982527f67657473206465627400000000000000000000000000000000000000000000006020830152565b6040519061382e82610377565b600482527f64656274000000000000000000000000000000000000000000000000000000006020830152565b634e487b7160e01b600052600060045260246000fd5b80546801000000000000000081101561035e5761389291600182018155611865565b6138d75760016001600160a01b036020846103ff955185550151169101906001600160a01b031673ffffffffffffffffffffffffffffffffffffffff19825416179055565b61385a565b60001981146133215760010190565b9294926001600160a01b038281169082161015613f0557909493905b6040516bffffffffffffffffffffffff19606083811b8216602084015288901b166034820152602881529561393d6048886103af565b613948845151613558565b9460005b865181101561399b5760019061398a826139766139688d6108a5565b611e628560208d015161358a565b0154613983838a5161358a565b519061359e565b613994828a61358a565b520161394c565b50956139b96139c991989394929598602080825183010191016135ba565b91602080825183010191016135ba565b6000935b60408901518051861015613bc357856139e59161358a565b51986139fe6128086128088c516001600160a01b031690565b96600060208c015198613a11898861358a565b5190613a1d8a8861358a565b519a838d613a5a6040519e8f96879586947f18c323f20000000000000000000000000000000000000000000000000000000086526004860161373a565b03925af19788156106c557600098613ba0575b508751895103613b8f5798996040019860005b8a518051821015613b72579089613abe8c613ab7613aad613aa38660019861358a565b519485519061358a565b519184519061358a565b5190613465565b600081139081613b64575b8115613b3d575b8115613b34575b50613b2e57613aec613ae76137af565b61654a565b613b01613afb8d83519061358a565b51616596565b613b0f613afb82518d61358a565b613b26613b1d82518d61358a565b5191518d61358a565b525b01613a80565b50613b28565b90501538613ad7565b90506000811280613b4f575b90613ad0565b50613b5981613782565b604083015110613b49565b602083015181119150613ac9565b5050949298509460019196509892985b01939791969092946139cd565b949298939950946001919650613b82565b613bbc91983d8091833e613bb481836103af565b81019061368c565b9638613a6d565b509350505092919460005b8351811015613ed65780613c95613c89613c068a848a613c0d8b610acd613bfb60019b60208e015161358a565b51968795869361358a565b51936108a5565b8a60008312801580613ecb575b15613c9b5750613c63610c94938593613c50613c7d97610acd610acd966001600160a01b03166000526002602052604060002090565b613c5b838254613458565b905554613326565b946001600160a01b03166000526002602052604060002090565b90555b610acd896108a5565b60016000918281550155565b01613bce565b9194919290508215613ec457815b8315613ebe57508b925b15613eae57613cc190613782565b809454613ce8610c9486610acd866001600160a01b03166000526002602052604060002090565b9055613cfb83613cf66137e8565b613f0c565b613d0c81613d07613821565b615183565b80613d2e85610acd866001600160a01b03166000526002602052604060002090565b5410613d73575091610acd6105f592613d6183610acd613d6c976001600160a01b03166000526002602052604060002090565b6117e6878254613458565b9055613c80565b90613e039491613d9e8495610acd613dea966001600160a01b03166000526002602052604060002090565b54613e0d575b50613de5613dc987610acd876001600160a01b03166000526005602052604060002090565b91613dd26103f2565b9384526001600160a01b03166020840152565b613870565b6001600160a01b03166000526007602052604060002090565b613d6c81546138dc565b613e83919250613e3487610acd876001600160a01b03166000526002602052604060002090565b54613e59610c9489610acd876001600160a01b03166000526002602052604060002090565b9055613e7c87610acd876001600160a01b03166000526002602052604060002090565b5490613326565b906000613ea787610acd876001600160a01b03166000526002602052604060002090565b5538613da4565b8454613eb991613326565b613cc1565b92613cb3565b8b91613ca9565b508254841115613c1a565b50505050613ef491925060006001613eed836108cb565b01556108cb565b613efe81546138dc565b9055600190565b9490613907565b613f4e907f62ddffe5b5108385f7a590f100e1ee414ad9551a31f089e64e82998440785e1e926001600160a01b03604051938493604085526040850190611394565b911660208301520390a1565b6001600160a01b038281169082161015613fa4576040516bffffffffffffffffffffffff19606092831b811660208301529290911b90911660348201526108688160488101610a8a565b6040516bffffffffffffffffffffffff19606093841b811660208301529190921b1660348201526108688160488101610a8a565b906138d75760018160008093550155565b8054906000906000815582613ffd57505050565b6001907f7fffffffffffffffffffffffffffffffffffffffffffffffffffffffffffffff841684036133215760005260206000209260011b8301925b8381106140465750505050565b808360029255838382015501614039565b8015613321576000190190565b909161408783610acd846001600160a01b03166000526005602052604060002090565b54928315614293576140b081610acd856001600160a01b03166000526002602052604060002090565b54906140d381610acd866001600160a01b03166000526006602052604060002090565b5494821561428357945b6141078161410284610acd896001600160a01b03166000526005602052604060002090565b611865565b50805490939081106142365761413d610c9484610acd611506600161412e8a548098613326565b9901546001600160a01b031690565b905561416d6141678261410285610acd8a6001600160a01b03166000526005602052604060002090565b90613fd8565b856141778261343c565b146141b557614185906138dc565b946141a3856001600160a01b03166000526007602052604060002090565b6141ad8154614057565b9055946140dd565b50610acd9294509261423061086894600094836141f26141ed84610acd8a986001600160a01b03166000526005602052604060002090565b613fe9565b84955b61421684610acd846001600160a01b03166000526002602052604060002090565b556001600160a01b03166000526006602052604060002090565b55613326565b91610acd610868968561427a85989a979661426686610acd61150660016142309b9c01546001600160a01b031690565b614271828254613458565b90558254613326565b905560006141f5565b9150506108689250929092613326565b50915050600090565b600154906801000000000000000082101561035e576001820180600155821015611881576103ff9160016000527fb10e2d527612073b26eecdfd717e6a320cf44b4afac2b0732d9fcbe2b7fa0cf601906001600160a01b031673ffffffffffffffffffffffffffffffffffffffff19825416179055565b1561431a57565b606460405162461bcd60e51b815260206004820152601b60248201527f496e73756666696369656e7420636f6e74726f6c2073686172657300000000006044820152fd5b1561436557565b606460405162461bcd60e51b815260206004820152601160248201527f496e76616c696420726563697069656e740000000000000000000000000000006044820152fd5b156143b057565b606460405162461bcd60e51b815260206004820152601760248201527f43616e6e6f74207472616e7366657220746f2073656c660000000000000000006044820152fd5b908060209392818452848401376000828201840152601f01601f1916010190565b6040906108689492815281602082015201916143f4565b6040519061443982610377565b601082527f4e6f7420656e6f7567682066756e6473000000000000000000000000000000006020830152565b6040519061447282610377565b601582527f4465706f736974656420746f206368616e6e656c2000000000000000000000006020830152565b805191602090602083016144b981516001600160a01b031690565b926144c48633614064565b5060009360005b60408088018051805184101561465957614502846144fb6144ed828a9561358a565b51516001600160a01b031690565b935161358a565b510151906145208161451b89516001600160a01b031690565b613f5a565b92826145438d610acd336001600160a01b03166000526002602052604060002090565b541061464157610acd84614625948a8f9461461c968b614614887f8a1fa734614ce1b935d8439d18b23444fb921bb370ec43ca8246788c4ee27f839460019e9d8f9083610acd614592926108a5565b6145b384610acd336001600160a01b03166000526002602052604060002090565b6145be8b8254613326565b90556145df6145ce8b8354613458565b998a8355516001600160a01b031690565b6001600160a01b039788169a9088168b1161462b575b5001549051968752602087015260408601529116929081906060820190565b0390a36108a5565b54613d07614465565b016144cb565b61463983830191825461359e565b9055386145f5565b50505050505050509250905061086833613cf661442c565b5050505050505092505050600190565b1561467057565b606460405162461bcd60e51b815260206004820152601160248201527f44697370757465206e6f7420666f756e640000000000000000000000000000006044820152fd5b156146bb57565b606460405162461bcd60e51b815260206004820152601460248201527f4469737075746520706572696f6420656e6465640000000000000000000000006044820152fd5b9060209081835280519161471f6060936060838701526080860190613706565b9181810151601f199061473e6040958692848a830301848b0152613706565b92015195606082828503019101528551938483528383019184808760051b8601019801966000916000955b88871061477d575050505050505050505090565b9091929394959697989982828203018752888b516001600160a01b038151168352876147b483830151888587015288860190611394565b910151928881830391015281808451928381520193019087905b878183106147f25750505050806001929c0197019701959897969493929190614769565b83958b6001949693955180518352848101518584015201518c82015201940192018b92916147ce565b1561482257565b606460405162461bcd60e51b815260206004820152601160248201527f496e76616c69642070726f6f66626f64790000000000000000000000000000006044820152fd5b90926148866080939695946002845260a0602085015260a0840190611394565b95604083015260608201520152565b604051906148a282610377565b600b82527f656e636f6465645f6d73670000000000000000000000000000000000000000006020830152565b156148d557565b606460405162461bcd60e51b815260206004820152600e60248201527f496e76616c6964207369676e65720000000000000000000000000000000000006044820152fd5b1561492057565b606460405162461bcd60e51b815260206004820152601960248201527f4e6577206e6f6e6365206d7573742062652067726561746572000000000000006044820152fd5b614b0c9061497c610ac782516001600160a01b031690565b81602080820151604083019081519460c085019161499a8351151590565b60608701614a20815199886149f560808c01958c60a0885191019e8f518581519101209260405196879687019b8c9492909160a196949286526020860152151560f81b60408501526041840152606183015260818201520190565b0394614a09601f19968781018452836103af565b6001614a14886108cb565b01549151902014614669565b610160880180515190959015614b125750505094614ae292614ab7614aa9614abe94614aa0614aeb9a610120870151614a65614a718d604051928391820194856146ff565b038481018352826103af565b5190209a614a9461010060e08a015199019c8d516040519a8b9485019788614866565b039081018752866103af565b845190206163bd565b92614ab2614895565b613516565b5190616400565b6001600160a01b03614ada61280889516001600160a01b031690565b9116146148ce565b51905111614919565b81516001600160a01b031691610140610120820151910151915192336138eb565b50600190565b614b8f9850614b629293979650614b7a9550614b869450614b339051151590565b614b4f614b4a6128088d516001600160a01b031690565b331090565b9015151490811591614b94575b506146b4565b519361012088015193604051938491820195866146ff565b039081018352826103af565b5190201461481b565b614aeb565b90505143101538614b5c565b90614baa82610f62565b6040614bb960405192836103af565b8382528193614bca601f1991610f62565b019160009160005b848110614be0575050505050565b6020908251614bee81610377565b85815282606081830152828601015201614bd2565b90614c0d82610f62565b6040614c1c60405192836103af565b8382528193614c2d601f1991610f62565b019160009060005b848110614c43575050505050565b6020908451614c5181610342565b848152828581830152606087830152828501015201614c35565b908154614c7781610f62565b92604093614c8860405191826103af565b82815280946020809201926000526020600020906000935b858510614caf57505050505050565b6002846001928451614cc081610377565b865481526001600160a01b03858801541683820152815201930194019391614ca0565b90601f8111614cf157505050565b6000916000526020600020906020601f850160051c83019410614d2f575b601f0160051c01915b828110614d2457505050565b818155600101614d18565b9092508290614d0f565b90600854916801000000000000000083101561035e57614d6160019360018101600855611f6a565b6138d7578151815473ffffffffffffffffffffffffffffffffffffffff19166001600160a01b03919091161781556040600260209260208501516001820155019201519384519167ffffffffffffffff831161035e57614dcb83614dc58654611fa5565b86614ce3565b602091601f8411600114614e0f5750508190614e00939495600092614e04575b50508160011b916000199060031b1c19161790565b9055565b015190503880614deb565b95601f92919219841696614e2886600052602060002090565b936000915b898310614e665750505083600195969710614e4d575b505050811b019055565b015160001960f88460031b161c19169055388080614e43565b838501518655948501949381019391810191614e2d565b90919080614eb3575090614ea890614e93610401565b33815290600060208301526040820152614d39565b610868600854613312565b6001600160a01b03614ec482611f6a565b50541633036104a5576002614ed882611f6a565b5001835167ffffffffffffffff811161035e57614eff81614ef98454611fa5565b84614ce3565b602080601f8311600114614f3857508190614f3393949596600092614e045750508160011b916000199060031b1c19161790565b905590565b90601f19831696614f4e85600052602060002090565b926000905b898210614f8d5750508360019596979810614f74575b505050811b01905590565b015160001960f88460031b161c19169055388080614f69565b80600185968294968601518155019501930190614f53565b60405190614fb282610377565b600e82527f52656365697665642070726f6f660000000000000000000000000000000000006020830152565b90926148866080939695946001845260a0602085015260a0840190611394565b90600091615016610ac782516001600160a01b031690565b90615022613ae7614fa5565b6151586151526020926151448482016150db6150d08883519861506c6040519a8b61505084820192836146ff565b039b615064601f199d8e81018352826103af565b5190206165d6565b610a98604088019a6150848c518481519101206165d6565b61508d846108cb565b5492614b7a8d89516040516150b5816150a987820194856146ff565b038781018352826103af565b51902090518381519101209060405196879485019889614fde565b608085015190616400565b956151046150f361280886516001600160a01b031690565b6001600160a01b0380991614613354565b61511a60016151128a6108cb565b015415613354565b600060016151278a6108cb565b015583516001600160a01b031691516060850151915192336138eb565b50516001600160a01b031690565b926108cb565b549116337fd0b75b3c0e860b4e521684a9e2379ff5904dcf126bad4bd8619cfb3ff2e81827600080a4565b6151bd907f941296a39ea107bde685522318a4b6c2b544904a5dd82a512748ca2cf839bef792604051928392604084526040840190611394565b9060208301520390a1565b90949391600082526151e660209660a08885015260a0840190611394565b604091604084015260609183820360608501528780875193848152019601926000915b8383106152285750505050506108689394506080818403910152613706565b845180518952808b01518b8a015280820151898301528201518883015260809097019693890193600190920191615209565b6040519061526782610377565b600b82527f456e636f646564206d73670000000000000000000000000000000000000000006020830152565b604051906152a082610377565b600f82527f496e76616c6964207369676e65722000000000000000000000000000000000006020830152565b906152d682610f62565b60406152e560405192836103af565b83825281936152f6601f1991610f62565b019060005b8281106153085750505050565b81519060e082019180831067ffffffffffffffff84111761035e57602092845260008152826000818301526000858301526000606083015260006080830152600060a0830152600060c08301528287010152016152fb565b1561536757565b606460405162461bcd60e51b815260206004820152601960248201527f4e6f7420656e6f7567682073656e6465722072657365727665000000000000006044820152fd5b156153b257565b606460405162461bcd60e51b815260206004820152601760248201527f4e6f7420656e6f756768207065657220726573657276650000000000000000006044820152fd5b156153fd57565b606460405162461bcd60e51b815260206004820152601560248201527f4e6f7420656e6f75676820636f6c6c61746572616c00000000000000000000006044820152fd5b60208082019080835283518092528060408094019401926000905b83821061546b57505050505090565b845180516001600160a01b0390811688528185015116878501528082015187830152606080820151908801526080808201519088015260a0808201519088015260c0908101519087015260e0909501949382019360019091019061545c565b906154df610ac783516001600160a01b031690565b82516001600160a01b0390811691338311156158c65733925b615501826108cb565b54926020926020880197885161555461554b60409861554260408601519461553460405196879260208401958b876151c8565b03601f1981018652856103af565b835190206163bd565b91614ab261525a565b81516001600160a01b0316936060946060840191615576612808845186616400565b91160361589f57505061558a8951516152cc565b9760005b8a5180518210156158495790898989818a898b6155ad8860019a61358a565b516156fb8c610acd83519586928a860190846155d86155d384519d8a019d8e519061359e565b613782565b9261560e6155fd83610acd336001600160a01b03166000526002602052604060002090565b5461560786613782565b1115615360565b80516000811215615824575081610acd6115066156796105f594615645615687976156408a516001600160a01b031690565b614064565b5061567361566186610acd6115068c516001600160a01b031690565b5461566c8351613782565b11156153ab565b51613782565b95516001600160a01b031690565b90555b6000811215615800576156d0906156a18533614064565b506155d36156c686610acd336001600160a01b03166000526002602052604060002090565b5461560783613782565b6156f46105f585610acd336001600160a01b03166000526002602052604060002090565b90556108a5565b948051600081126000146157ed575061572f906157298754916156736157218251613782565b8410156153f6565b90613326565b85555b01519461574389850196875461359e565b8096556157bb61576a83610acd8a6001600160a01b03166000526002602052604060002090565b549361578d84610acd836001600160a01b03166000526002602052604060002090565b549554966157ab61579c61044e565b6001600160a01b03909b168b52565b8901906001600160a01b03169052565b8601528a850152608084015260a083015260c08201526157db828d61358a565b526157e6818c61358a565b500161558e565b6157f991508654613458565b8555615732565b6156f4610c9485610acd336001600160a01b03166000526002602052604060002090565b92610c94915091610acd61150661584294516001600160a01b031690565b905561568a565b5050985050945050505050613ef4918051615865575b506108cb565b6158967feb8e48bf4d0f44158522ea730d20e905b181b9db283bcfd7ac9ac5c580a049409160405191829182615441565b0390a13861585f565b95509550505050506158c19394506158b992505190616400565b613cf6615293565b600090565b336154f8565b81601f820112156104a55780359060206158e583610f62565b9360406158f560405196876103af565b84865282860191836060809702860101948186116104a5578401925b858410615922575050505050505090565b86848303126104a557848791845161593981610342565b615942876104c0565b815282870135838201528587013586820152815201930192615911565b81601f820112156104a557803590602061597883610f62565b93604061598860405196876103af565b84865282860191836060809702860101948186116104a5578401925b8584106159b5575050505050505090565b86848303126104a55784879184516159cc81610342565b86358152828701358382015285870135868201528152019301926159a4565b81601f820112156104a557803591602091615a0584610f62565b93615a1360405195866103af565b808552838086019160051b830101928084116104a557848301915b848310615a3e5750505050505090565b823567ffffffffffffffff81116104a5578691615a60848480948901016118e5565b815201920191615a2e565b81601f820112156104a557803591602091615a8584610f62565b93615a9360405195866103af565b808552838086019160051b830101928084116104a557848301915b848310615abe5750505050505090565b823567ffffffffffffffff81116104a5578691615ae084848094890101612440565b815201920191615aae565b81601f820112156104a557803591602091615b0584610f62565b93615b1360405195866103af565b808552838086019160051b830101928084116104a557848301915b848310615b3e5750505050505090565b823567ffffffffffffffff81116104a5578691615b60848480948901016120eb565b815201920191615b2e565b81601f820112156104a557803591602091615b8584610f62565b93615b9360405195866103af565b808552838086019160051b830101928084116104a557848301915b848310615bbe5750505050505090565b823567ffffffffffffffff81116104a5578691615be084848094890101612941565b815201920191615bae565b81601f820112156104a557803591602091615c0584610f62565b93615c1360405195866103af565b808552838086019160051b830101928084116104a557848301915b848310615c3e5750505050505090565b823567ffffffffffffffff81116104a5578691615c6084848094890101611a08565b815201920191615c2e565b9080601f830112156104a5578135916020615c8584610f62565b93604093615c9660405196876103af565b818652828087019260061b850101938185116104a5578301915b848310615cc05750505050505090565b85838303126104a5578386918251615cd781610377565b853581528286013583820152815201920191615cb0565b919091610140818403126104a557615d0461046e565b9267ffffffffffffffff82358181116104a55782615d239185016158cc565b855260208301358181116104a55782615d3d91850161595f565b602086015260408301358181116104a55782615d5a9185016158cc565b604086015260608301358181116104a55782615d779185016159eb565b606086015260808301358181116104a55782615d94918501615a6b565b608086015260a08301358181116104a55782615db1918501615aeb565b60a086015260c08301358181116104a55782615dce918501615b6b565b60c086015260e08301358181116104a55782615deb918501615beb565b60e086015261010091828401359182116104a557615e0a918401615c6b565b908401526101208091013590830152565b15615e2257565b606460405162461bcd60e51b815260206004820152600c60248201527f4e6f7420617070726f76656400000000000000000000000000000000000000006044820152fd5b6001548015615ec55760001981019080821015611881577fb10e2d527612073b26eecdfd717e6a320cf44b4afac2b0732d9fcbe2b7fa0cf59060016000520173ffffffffffffffffffffffffffffffffffffffff198154169055600155565b634e487b7160e01b600052603160045260246000fd5b805160009291906001600160a01b0316615ef59033613f5a565b615efe816108cb565b54916020810190815180941115615f1490613354565b60408101928351606083019586516040519182916020830194615f38928787614866565b0391601f19928381018352615f4d90836103af565b81519020615f5a906163bd565b90615f63614895565b90615f6d91613516565b6080840151615f7b91616400565b938351615f8e906001600160a01b031690565b6001600160a01b03166001600160a01b0380961614615fac906148ce565b615fb5836108cb565b6001015415615fc390613354565b51958551918451615fda906001600160a01b031690565b6001600160a01b03163310615fee4361344a565b92519860a08701998a516040518060208101928361600b9161088e565b03868101825261601b90826103af565b51902090604051958694602086019861605c958a9492909160a196949286526020860152151560f81b60408501526041840152606183015260818201520190565b03908101825261606c90826103af565b51902090616079906108cb565b60010155516001600160a01b0316915192519060405192169180339261609f90826113b9565b037f86e7f5b969eded08fe0ea342b2c89a9e5a6cfe6f5803bb3aa464668d728ff02191a4565b156160cc57565b606460405162461bcd60e51b815260206004820152601460248201527f496e73756666696369656e7420726573657276650000000000000000000000006044820152fd5b9192849360749695927f990f4c22d4b046a9a7d673c4a252b906cadd4f3290465e297f998c28a449652b855260208501526bffffffffffffffffffffffff199060601b1660408401526054830137019060548201520190565b91908260409103126104a55760208251920151610868816119f3565b93929160209161619d916040875260408701916143f4565b930152565b156161a957565b606460405162461bcd60e51b815260206004820152601760248201527f496e76616c69642048616e6b6f207369676e61747572650000000000000000006044820152fd5b156161f457565b606460405162461bcd60e51b815260206004820152601e60248201527f4e6f20656e74697479207265636f76657265642066726f6d2048616e6b6f00006044820152fd5b1561623f57565b608460405162461bcd60e51b815260206004820152602260248201527f496e76616c6964206e6f6e636520286d7573742062652073657175656e74696160448201527f6c290000000000000000000000000000000000000000000000000000000000006064820152fd5b906020828203126104a557813567ffffffffffffffff81116104a5576108689201615cee565b604051906162dc82610377565b60006020838281520152565b906162f282610f62565b60409061630260405191826103af565b8381528093616313601f1991610f62565b019160005b8381106163255750505050565b602090825161633381610377565b61633b6162cf565b815282606081830152828601015201616318565b9061635982610f62565b61636660405191826103af565b8281528092616377601f1991610f62565b019060005b82811061638857505050565b6020906163936162cf565b8282850101520161637c565b906040516163ac81610377565b602060018294805484520154910152565b60405160208101917f19457468657265756d205369676e6564204d6573736167653a0a3332000000008352603c820152603c81526163fa81610342565b51902090565b906041815103616506576020810151916060604083015192015160001a907f7fffffffffffffffffffffffffffffff5d576e7357a4501ddfe92f46681b20a083116164b757616488600093602095601b851480156164ad575b6164629061678e565b604051948594859094939260ff6060936080840197845216602083015260408201520152565b838052039060015afa156106c5576000516108686001600160a01b03821615156167e4565b50601c8514616459565b608460405162461bcd60e51b815260206004820152602260248201527f45434453413a20696e76616c6964207369676e6174757265202773272076616c604482015261756560f01b6064820152fd5b606460405162461bcd60e51b815260206004820152601f60248201527f45434453413a20696e76616c6964207369676e6174757265206c656e677468006044820152fd5b610a8a6165916103ff926040519283917f41304fac000000000000000000000000000000000000000000000000000000006020840152602060248401526044830190611394565b61682f565b6103ff90604051907f2d5b6cb900000000000000000000000000000000000000000000000000000000602083015260248201526024815261659181610342565b6103ff90604051907f27b7cf8500000000000000000000000000000000000000000000000000000000602083015260248201526024815261659181610342565b905a90600160005b608085015180518210156166525761266561265f8361663c9361358a565b616649575b60010161661e565b60009150616641565b505091909260005b60a0820151805182101561668e576126656126a6836166789361358a565b616685575b60010161665a565b6000935061667d565b505091909260005b60c084015180518210156166ca576126656126e9836166b49361358a565b6166c1575b600101616696565b600092506166b9565b505091909260005b60e083015180518210156167065761266561272c836166f09361358a565b6166fd575b6001016166d2565b600094506166f5565b505091909260005b606085015180518210156167425761266561276f8361672c9361358a565b616739575b60010161670e565b60009150616731565b5050919092610120019081518015159081616775575b5061676257505090565b60016127d66127cf614f33935a90613326565b61678691506127fa61280891611f6a565b331438616758565b1561679557565b608460405162461bcd60e51b815260206004820152602260248201527f45434453413a20696e76616c6964207369676e6174757265202776272076616c604482015261756560f01b6064820152fd5b156167eb57565b606460405162461bcd60e51b815260206004820152601860248201527f45434453413a20696e76616c6964207369676e617475726500000000000000006044820152fd5b600080916020815191016a636f6e736f6c652e6c6f675afa5056fea26469706673582212200b37076641e374ef5271184a940ce56dd3ae179df37449080dd5bddf7d7f348e64736f6c63430008180033",
  "linkReferences": {},
  "deployedLinkReferences": {}
}