{
  "_format": "hh-sol-artifact-1",
  "contractName": "EntityProvider",
  "sourceName": "contracts/EntityProvider.sol",
  "abi": [
    {
      "inputs": [],
      "stateMutability": "nonpayable",
      "type": "constructor"
    },
    {
      "inputs": [
        {
          "internalType": "address",
          "name": "sender",
          "type": "address"
        },
        {
          "internalType": "uint256",
          "name": "balance",
          "type": "uint256"
        },
        {
          "internalType": "uint256",
          "name": "needed",
          "type": "uint256"
        },
        {
          "internalType": "uint256",
          "name": "tokenId",
          "type": "uint256"
        }
      ],
      "name": "ERC1155InsufficientBalance",
      "type": "error"
    },
    {
      "inputs": [
        {
          "internalType": "address",
          "name": "approver",
          "type": "address"
        }
      ],
      "name": "ERC1155InvalidApprover",
      "type": "error"
    },
    {
      "inputs": [
        {
          "internalType": "uint256",
          "name": "idsLength",
          "type": "uint256"
        },
        {
          "internalType": "uint256",
          "name": "valuesLength",
          "type": "uint256"
        }
      ],
      "name": "ERC1155InvalidArrayLength",
      "type": "error"
    },
    {
      "inputs": [
        {
          "internalType": "address",
          "name": "operator",
          "type": "address"
        }
      ],
      "name": "ERC1155InvalidOperator",
      "type": "error"
    },
    {
      "inputs": [
        {
          "internalType": "address",
          "name": "receiver",
          "type": "address"
        }
      ],
      "name": "ERC1155InvalidReceiver",
      "type": "error"
    },
    {
      "inputs": [
        {
          "internalType": "address",
          "name": "sender",
          "type": "address"
        }
      ],
      "name": "ERC1155InvalidSender",
      "type": "error"
    },
    {
      "inputs": [
        {
          "internalType": "address",
          "name": "operator",
          "type": "address"
        },
        {
          "internalType": "address",
          "name": "owner",
          "type": "address"
        }
      ],
      "name": "ERC1155MissingApprovalForAll",
      "type": "error"
    },
    {
      "anonymous": false,
      "inputs": [
        {
          "indexed": true,
          "internalType": "address",
          "name": "account",
          "type": "address"
        },
        {
          "indexed": true,
          "internalType": "address",
          "name": "operator",
          "type": "address"
        },
        {
          "indexed": false,
          "internalType": "bool",
          "name": "approved",
          "type": "bool"
        }
      ],
      "name": "ApprovalForAll",
      "type": "event"
    },
    {
      "anonymous": false,
      "inputs": [
        {
          "indexed": true,
          "internalType": "bytes32",
          "name": "entityId",
          "type": "bytes32"
        },
        {
          "indexed": false,
          "internalType": "bytes32",
          "name": "newBoardHash",
          "type": "bytes32"
        }
      ],
      "name": "BoardActivated",
      "type": "event"
    },
    {
      "anonymous": false,
      "inputs": [
        {
          "indexed": true,
          "internalType": "bytes32",
          "name": "entityId",
          "type": "bytes32"
        },
        {
          "indexed": false,
          "internalType": "bytes32",
          "name": "proposedBoardHash",
          "type": "bytes32"
        }
      ],
      "name": "BoardProposed",
      "type": "event"
    },
    {
      "anonymous": false,
      "inputs": [
        {
          "indexed": true,
          "internalType": "bytes32",
          "name": "entityId",
          "type": "bytes32"
        },
        {
          "indexed": true,
          "internalType": "address",
          "name": "depository",
          "type": "address"
        },
        {
          "indexed": false,
          "internalType": "uint256",
          "name": "controlAmount",
          "type": "uint256"
        },
        {
          "indexed": false,
          "internalType": "uint256",
          "name": "dividendAmount",
          "type": "uint256"
        },
        {
          "indexed": false,
          "internalType": "string",
          "name": "purpose",
          "type": "string"
        }
      ],
      "name": "ControlSharesReleased",
      "type": "event"
    },
    {
      "anonymous": false,
      "inputs": [
        {
          "indexed": true,
          "internalType": "bytes32",
          "name": "entityId",
          "type": "bytes32"
        },
        {
          "indexed": true,
          "internalType": "uint256",
          "name": "entityNumber",
          "type": "uint256"
        },
        {
          "indexed": false,
          "internalType": "bytes32",
          "name": "boardHash",
          "type": "bytes32"
        }
      ],
      "name": "EntityRegistered",
      "type": "event"
    },
    {
      "anonymous": false,
      "inputs": [
        {
          "indexed": true,
          "internalType": "bytes32",
          "name": "entityId",
          "type": "bytes32"
        },
        {
          "indexed": false,
          "internalType": "uint256",
          "name": "controlTokenId",
          "type": "uint256"
        },
        {
          "indexed": false,
          "internalType": "uint256",
          "name": "dividendTokenId",
          "type": "uint256"
        }
      ],
      "name": "GovernanceEnabled",
      "type": "event"
    },
    {
      "anonymous": false,
      "inputs": [
        {
          "indexed": true,
          "internalType": "bytes32",
          "name": "entityId",
          "type": "bytes32"
        },
        {
          "indexed": false,
          "internalType": "bool",
          "name": "success",
          "type": "bool"
        },
        {
          "indexed": false,
          "internalType": "uint256",
          "name": "votingPower",
          "type": "uint256"
        }
      ],
      "name": "HankoClaimProcessed",
      "type": "event"
    },
    {
      "anonymous": false,
      "inputs": [
        {
          "indexed": true,
          "internalType": "bytes32",
          "name": "entityId",
          "type": "bytes32"
        },
        {
          "indexed": true,
          "internalType": "bytes32",
          "name": "hash",
          "type": "bytes32"
        }
      ],
      "name": "HankoVerified",
      "type": "event"
    },
    {
      "anonymous": false,
      "inputs": [
        {
          "indexed": true,
          "internalType": "string",
          "name": "name",
          "type": "string"
        },
        {
          "indexed": true,
          "internalType": "uint256",
          "name": "entityNumber",
          "type": "uint256"
        }
      ],
      "name": "NameAssigned",
      "type": "event"
    },
    {
      "anonymous": false,
      "inputs": [
        {
          "indexed": true,
          "internalType": "string",
          "name": "name",
          "type": "string"
        },
        {
          "indexed": true,
          "internalType": "uint256",
          "name": "fromNumber",
          "type": "uint256"
        },
        {
          "indexed": true,
          "internalType": "uint256",
          "name": "toNumber",
          "type": "uint256"
        }
      ],
      "name": "NameTransferred",
      "type": "event"
    },
    {
      "anonymous": false,
      "inputs": [
        {
          "indexed": true,
          "internalType": "bytes32",
          "name": "entityId",
          "type": "bytes32"
        },
        {
          "indexed": false,
          "internalType": "enum EntityProvider.ProposerType",
          "name": "cancelledBy",
          "type": "uint8"
        }
      ],
      "name": "ProposalCancelled",
      "type": "event"
    },
    {
      "anonymous": false,
      "inputs": [
        {
          "indexed": true,
          "internalType": "address",
          "name": "operator",
          "type": "address"
        },
        {
          "indexed": true,
          "internalType": "address",
          "name": "from",
          "type": "address"
        },
        {
          "indexed": true,
          "internalType": "address",
          "name": "to",
          "type": "address"
        },
        {
          "indexed": false,
          "internalType": "uint256[]",
          "name": "ids",
          "type": "uint256[]"
        },
        {
          "indexed": false,
          "internalType": "uint256[]",
          "name": "values",
          "type": "uint256[]"
        }
      ],
      "name": "TransferBatch",
      "type": "event"
    },
    {
      "anonymous": false,
      "inputs": [
        {
          "indexed": true,
          "internalType": "address",
          "name": "operator",
          "type": "address"
        },
        {
          "indexed": true,
          "internalType": "address",
          "name": "from",
          "type": "address"
        },
        {
          "indexed": true,
          "internalType": "address",
          "name": "to",
          "type": "address"
        },
        {
          "indexed": false,
          "internalType": "uint256",
          "name": "id",
          "type": "uint256"
        },
        {
          "indexed": false,
          "internalType": "uint256",
          "name": "value",
          "type": "uint256"
        }
      ],
      "name": "TransferSingle",
      "type": "event"
    },
    {
      "anonymous": false,
      "inputs": [
        {
          "indexed": false,
          "internalType": "string",
          "name": "value",
          "type": "string"
        },
        {
          "indexed": true,
          "internalType": "uint256",
          "name": "id",
          "type": "uint256"
        }
      ],
      "name": "URI",
      "type": "event"
    },
    {
      "inputs": [],
      "name": "FOUNDATION_ENTITY",
      "outputs": [
        {
          "internalType": "uint256",
          "name": "",
          "type": "uint256"
        }
      ],
      "stateMutability": "view",
      "type": "function"
    },
    {
      "inputs": [],
      "name": "TOTAL_CONTROL_SUPPLY",
      "outputs": [
        {
          "internalType": "uint256",
          "name": "",
          "type": "uint256"
        }
      ],
      "stateMutability": "view",
      "type": "function"
    },
    {
      "inputs": [],
      "name": "TOTAL_DIVIDEND_SUPPLY",
      "outputs": [
        {
          "internalType": "uint256",
          "name": "",
          "type": "uint256"
        }
      ],
      "stateMutability": "view",
      "type": "function"
    },
    {
      "inputs": [
        {
          "internalType": "bytes32",
          "name": "entityId",
          "type": "bytes32"
        }
      ],
      "name": "activateBoard",
      "outputs": [],
      "stateMutability": "nonpayable",
      "type": "function"
    },
    {
      "inputs": [
        {
          "internalType": "bytes32",
          "name": "",
          "type": "bytes32"
        }
      ],
      "name": "activeProposals",
      "outputs": [
        {
          "internalType": "bytes32",
          "name": "proposedBoardHash",
          "type": "bytes32"
        },
        {
          "internalType": "enum EntityProvider.ProposerType",
          "name": "proposerType",
          "type": "uint8"
        },
        {
          "internalType": "uint256",
          "name": "proposeBlock",
          "type": "uint256"
        },
        {
          "internalType": "uint256",
          "name": "activateBlock",
          "type": "uint256"
        },
        {
          "internalType": "bool",
          "name": "active",
          "type": "bool"
        }
      ],
      "stateMutability": "view",
      "type": "function"
    },
    {
      "inputs": [
        {
          "internalType": "string",
          "name": "name",
          "type": "string"
        },
        {
          "internalType": "uint256",
          "name": "entityNumber",
          "type": "uint256"
        }
      ],
      "name": "assignName",
      "outputs": [],
      "stateMutability": "nonpayable",
      "type": "function"
    },
    {
      "inputs": [
        {
          "internalType": "address",
          "name": "account",
          "type": "address"
        },
        {
          "internalType": "uint256",
          "name": "id",
          "type": "uint256"
        }
      ],
      "name": "balanceOf",
      "outputs": [
        {
          "internalType": "uint256",
          "name": "",
          "type": "uint256"
        }
      ],
      "stateMutability": "view",
      "type": "function"
    },
    {
      "inputs": [
        {
          "internalType": "address[]",
          "name": "accounts",
          "type": "address[]"
        },
        {
          "internalType": "uint256[]",
          "name": "ids",
          "type": "uint256[]"
        }
      ],
      "name": "balanceOfBatch",
      "outputs": [
        {
          "internalType": "uint256[]",
          "name": "",
          "type": "uint256[]"
        }
      ],
      "stateMutability": "view",
      "type": "function"
    },
    {
      "inputs": [
        {
          "internalType": "bytes[]",
          "name": "hankoDataArray",
          "type": "bytes[]"
        },
        {
          "internalType": "bytes32[]",
          "name": "hashes",
          "type": "bytes32[]"
        }
      ],
      "name": "batchVerifyHankoSignatures",
      "outputs": [
        {
          "internalType": "bytes32[]",
          "name": "entityIds",
          "type": "bytes32[]"
        },
        {
          "internalType": "bool[]",
          "name": "results",
          "type": "bool[]"
        }
      ],
      "stateMutability": "view",
      "type": "function"
    },
    {
      "inputs": [
        {
          "internalType": "bytes32",
          "name": "entityId",
          "type": "bytes32"
        },
        {
          "internalType": "enum EntityProvider.ProposerType",
          "name": "proposerType",
          "type": "uint8"
        },
        {
          "components": [
            {
              "internalType": "uint32",
              "name": "controlDelay",
              "type": "uint32"
            },
            {
              "internalType": "uint32",
              "name": "dividendDelay",
              "type": "uint32"
            },
            {
              "internalType": "uint32",
              "name": "foundationDelay",
              "type": "uint32"
            },
            {
              "internalType": "uint16",
              "name": "controlThreshold",
              "type": "uint16"
            }
          ],
          "internalType": "struct EntityProvider.EntityArticles",
          "name": "articles",
          "type": "tuple"
        }
      ],
      "name": "cancelBoardProposal",
      "outputs": [],
      "stateMutability": "nonpayable",
      "type": "function"
    },
    {
      "inputs": [
        {
          "internalType": "bytes32",
          "name": "",
          "type": "bytes32"
        }
      ],
      "name": "entities",
      "outputs": [
        {
          "internalType": "bytes32",
          "name": "currentBoardHash",
          "type": "bytes32"
        },
        {
          "internalType": "bytes32",
          "name": "proposedBoardHash",
          "type": "bytes32"
        },
        {
          "internalType": "uint256",
          "name": "activateAtBlock",
          "type": "uint256"
        },
        {
          "internalType": "uint256",
          "name": "registrationBlock",
          "type": "uint256"
        },
        {
          "internalType": "enum EntityProvider.ProposerType",
          "name": "proposerType",
          "type": "uint8"
        },
        {
          "internalType": "bytes32",
          "name": "articlesHash",
          "type": "bytes32"
        }
      ],
      "stateMutability": "view",
      "type": "function"
    },
    {
      "inputs": [
        {
          "internalType": "uint256",
          "name": "entityNumber",
          "type": "uint256"
        },
        {
          "internalType": "address",
          "name": "to",
          "type": "address"
        },
        {
          "internalType": "uint256",
          "name": "tokenId",
          "type": "uint256"
        },
        {
          "internalType": "uint256",
          "name": "amount",
          "type": "uint256"
        },
        {
          "internalType": "bytes",
          "name": "encodedBoard",
          "type": "bytes"
        },
        {
          "internalType": "bytes",
          "name": "encodedSignature",
          "type": "bytes"
        }
      ],
      "name": "entityTransferTokens",
      "outputs": [],
      "stateMutability": "nonpayable",
      "type": "function"
    },
    {
      "inputs": [
        {
          "internalType": "bytes32",
          "name": "boardHash",
          "type": "bytes32"
        },
        {
          "components": [
            {
              "internalType": "uint32",
              "name": "controlDelay",
              "type": "uint32"
            },
            {
              "internalType": "uint32",
              "name": "dividendDelay",
              "type": "uint32"
            },
            {
              "internalType": "uint32",
              "name": "foundationDelay",
              "type": "uint32"
            },
            {
              "internalType": "uint16",
              "name": "controlThreshold",
              "type": "uint16"
            }
          ],
          "internalType": "struct EntityProvider.EntityArticles",
          "name": "articles",
          "type": "tuple"
        }
      ],
      "name": "foundationRegisterEntity",
      "outputs": [
        {
          "internalType": "uint256",
          "name": "entityNumber",
          "type": "uint256"
        }
      ],
      "stateMutability": "nonpayable",
      "type": "function"
    },
    {
      "inputs": [
        {
          "internalType": "uint256",
          "name": "tokenId",
          "type": "uint256"
        }
      ],
      "name": "getEntityFromToken",
      "outputs": [
        {
          "internalType": "uint256",
          "name": "entityNumber",
          "type": "uint256"
        }
      ],
      "stateMutability": "pure",
      "type": "function"
    },
    {
      "inputs": [
        {
          "internalType": "bytes32",
          "name": "entityId",
          "type": "bytes32"
        }
      ],
      "name": "getEntityInfo",
      "outputs": [
        {
          "internalType": "bool",
          "name": "exists",
          "type": "bool"
        },
        {
          "internalType": "bytes32",
          "name": "currentBoardHash",
          "type": "bytes32"
        },
        {
          "internalType": "bytes32",
          "name": "proposedBoardHash",
          "type": "bytes32"
        },
        {
          "internalType": "uint256",
          "name": "registrationBlock",
          "type": "uint256"
        },
        {
          "internalType": "string",
          "name": "name",
          "type": "string"
        }
      ],
      "stateMutability": "view",
      "type": "function"
    },
    {
      "inputs": [
        {
          "internalType": "uint256",
          "name": "entityNumber",
          "type": "uint256"
        }
      ],
      "name": "getGovernanceInfo",
      "outputs": [
        {
          "internalType": "uint256",
          "name": "controlTokenId",
          "type": "uint256"
        },
        {
          "internalType": "uint256",
          "name": "dividendTokenId",
          "type": "uint256"
        },
        {
          "internalType": "uint256",
          "name": "controlSupply",
          "type": "uint256"
        },
        {
          "internalType": "uint256",
          "name": "dividendSupply",
          "type": "uint256"
        },
        {
          "internalType": "bool",
          "name": "hasActiveProposal",
          "type": "bool"
        },
        {
          "internalType": "bytes32",
          "name": "articlesHash",
          "type": "bytes32"
        }
      ],
      "stateMutability": "view",
      "type": "function"
    },
    {
      "inputs": [
        {
          "internalType": "uint256",
          "name": "entityNumber",
          "type": "uint256"
        }
      ],
      "name": "getTokenIds",
      "outputs": [
        {
          "internalType": "uint256",
          "name": "controlTokenId",
          "type": "uint256"
        },
        {
          "internalType": "uint256",
          "name": "dividendTokenId",
          "type": "uint256"
        }
      ],
      "stateMutability": "pure",
      "type": "function"
    },
    {
      "inputs": [
        {
          "internalType": "address",
          "name": "account",
          "type": "address"
        },
        {
          "internalType": "address",
          "name": "operator",
          "type": "address"
        }
      ],
      "name": "isApprovedForAll",
      "outputs": [
        {
          "internalType": "bool",
          "name": "",
          "type": "bool"
        }
      ],
      "stateMutability": "view",
      "type": "function"
    },
    {
      "inputs": [
        {
          "internalType": "address",
          "name": "",
          "type": "address"
        }
      ],
      "name": "nameQuota",
      "outputs": [
        {
          "internalType": "uint8",
          "name": "",
          "type": "uint8"
        }
      ],
      "stateMutability": "view",
      "type": "function"
    },
    {
      "inputs": [
        {
          "internalType": "string",
          "name": "",
          "type": "string"
        }
      ],
      "name": "nameToNumber",
      "outputs": [
        {
          "internalType": "uint256",
          "name": "",
          "type": "uint256"
        }
      ],
      "stateMutability": "view",
      "type": "function"
    },
    {
      "inputs": [],
      "name": "nextNumber",
      "outputs": [
        {
          "internalType": "uint256",
          "name": "",
          "type": "uint256"
        }
      ],
      "stateMutability": "view",
      "type": "function"
    },
    {
      "inputs": [
        {
          "internalType": "uint256",
          "name": "",
          "type": "uint256"
        }
      ],
      "name": "numberToName",
      "outputs": [
        {
          "internalType": "string",
          "name": "",
          "type": "string"
        }
      ],
      "stateMutability": "view",
      "type": "function"
    },
    {
      "inputs": [
        {
          "internalType": "bytes32",
          "name": "entityId",
          "type": "bytes32"
        },
        {
          "internalType": "bytes32",
          "name": "newBoardHash",
          "type": "bytes32"
        },
        {
          "internalType": "enum EntityProvider.ProposerType",
          "name": "proposerType",
          "type": "uint8"
        },
        {
          "components": [
            {
              "internalType": "uint32",
              "name": "controlDelay",
              "type": "uint32"
            },
            {
              "internalType": "uint32",
              "name": "dividendDelay",
              "type": "uint32"
            },
            {
              "internalType": "uint32",
              "name": "foundationDelay",
              "type": "uint32"
            },
            {
              "internalType": "uint16",
              "name": "controlThreshold",
              "type": "uint16"
            }
          ],
          "internalType": "struct EntityProvider.EntityArticles",
          "name": "articles",
          "type": "tuple"
        }
      ],
      "name": "proposeBoard",
      "outputs": [],
      "stateMutability": "nonpayable",
      "type": "function"
    },
    {
      "inputs": [
        {
          "internalType": "bytes",
          "name": "encodedBoard",
          "type": "bytes"
        },
        {
          "internalType": "bytes",
          "name": "encodedSignature",
          "type": "bytes"
        },
        {
          "internalType": "bytes32",
          "name": "hash",
          "type": "bytes32"
        }
      ],
      "name": "recoverEntity",
      "outputs": [
        {
          "internalType": "uint256",
          "name": "entityId",
          "type": "uint256"
        }
      ],
      "stateMutability": "view",
      "type": "function"
    },
    {
      "inputs": [
        {
          "internalType": "bytes32",
          "name": "boardHash",
          "type": "bytes32"
        }
      ],
      "name": "registerNumberedEntity",
      "outputs": [
        {
          "internalType": "uint256",
          "name": "entityNumber",
          "type": "uint256"
        }
      ],
      "stateMutability": "nonpayable",
      "type": "function"
    },
    {
      "inputs": [
        {
          "internalType": "uint256",
          "name": "entityNumber",
          "type": "uint256"
        },
        {
          "internalType": "address",
          "name": "depository",
          "type": "address"
        },
        {
          "internalType": "uint256",
          "name": "controlAmount",
          "type": "uint256"
        },
        {
          "internalType": "uint256",
          "name": "dividendAmount",
          "type": "uint256"
        },
        {
          "internalType": "string",
          "name": "purpose",
          "type": "string"
        },
        {
          "internalType": "bytes",
          "name": "encodedBoard",
          "type": "bytes"
        },
        {
          "internalType": "bytes",
          "name": "encodedSignature",
          "type": "bytes"
        }
      ],
      "name": "releaseControlShares",
      "outputs": [],
      "stateMutability": "nonpayable",
      "type": "function"
    },
    {
      "inputs": [
        {
          "internalType": "string",
          "name": "",
          "type": "string"
        }
      ],
      "name": "reservedNames",
      "outputs": [
        {
          "internalType": "bool",
          "name": "",
          "type": "bool"
        }
      ],
      "stateMutability": "view",
      "type": "function"
    },
    {
      "inputs": [
        {
          "internalType": "string",
          "name": "identifier",
          "type": "string"
        }
      ],
      "name": "resolveEntityId",
      "outputs": [
        {
          "internalType": "bytes32",
          "name": "",
          "type": "bytes32"
        }
      ],
      "stateMutability": "view",
      "type": "function"
    },
    {
      "inputs": [
        {
          "internalType": "address",
          "name": "from",
          "type": "address"
        },
        {
          "internalType": "address",
          "name": "to",
          "type": "address"
        },
        {
          "internalType": "uint256[]",
          "name": "ids",
          "type": "uint256[]"
        },
        {
          "internalType": "uint256[]",
          "name": "values",
          "type": "uint256[]"
        },
        {
          "internalType": "bytes",
          "name": "data",
          "type": "bytes"
        }
      ],
      "name": "safeBatchTransferFrom",
      "outputs": [],
      "stateMutability": "nonpayable",
      "type": "function"
    },
    {
      "inputs": [
        {
          "internalType": "address",
          "name": "from",
          "type": "address"
        },
        {
          "internalType": "address",
          "name": "to",
          "type": "address"
        },
        {
          "internalType": "uint256",
          "name": "id",
          "type": "uint256"
        },
        {
          "internalType": "uint256",
          "name": "value",
          "type": "uint256"
        },
        {
          "internalType": "bytes",
          "name": "data",
          "type": "bytes"
        }
      ],
      "name": "safeTransferFrom",
      "outputs": [],
      "stateMutability": "nonpayable",
      "type": "function"
    },
    {
      "inputs": [
        {
          "internalType": "address",
          "name": "operator",
          "type": "address"
        },
        {
          "internalType": "bool",
          "name": "approved",
          "type": "bool"
        }
      ],
      "name": "setApprovalForAll",
      "outputs": [],
      "stateMutability": "nonpayable",
      "type": "function"
    },
    {
      "inputs": [
        {
          "internalType": "address",
          "name": "user",
          "type": "address"
        },
        {
          "internalType": "uint8",
          "name": "quota",
          "type": "uint8"
        }
      ],
      "name": "setNameQuota",
      "outputs": [],
      "stateMutability": "nonpayable",
      "type": "function"
    },
    {
      "inputs": [
        {
          "internalType": "string",
          "name": "name",
          "type": "string"
        },
        {
          "internalType": "bool",
          "name": "reserved",
          "type": "bool"
        }
      ],
      "name": "setReservedName",
      "outputs": [],
      "stateMutability": "nonpayable",
      "type": "function"
    },
    {
      "inputs": [
        {
          "internalType": "bytes4",
          "name": "interfaceId",
          "type": "bytes4"
        }
      ],
      "name": "supportsInterface",
      "outputs": [
        {
          "internalType": "bool",
          "name": "",
          "type": "bool"
        }
      ],
      "stateMutability": "view",
      "type": "function"
    },
    {
      "inputs": [
        {
          "internalType": "bytes32",
          "name": "",
          "type": "bytes32"
        }
      ],
      "name": "totalControlSupply",
      "outputs": [
        {
          "internalType": "uint256",
          "name": "",
          "type": "uint256"
        }
      ],
      "stateMutability": "view",
      "type": "function"
    },
    {
      "inputs": [
        {
          "internalType": "bytes32",
          "name": "",
          "type": "bytes32"
        }
      ],
      "name": "totalDividendSupply",
      "outputs": [
        {
          "internalType": "uint256",
          "name": "",
          "type": "uint256"
        }
      ],
      "stateMutability": "view",
      "type": "function"
    },
    {
      "inputs": [
        {
          "internalType": "string",
          "name": "name",
          "type": "string"
        },
        {
          "internalType": "uint256",
          "name": "newEntityNumber",
          "type": "uint256"
        }
      ],
      "name": "transferName",
      "outputs": [],
      "stateMutability": "nonpayable",
      "type": "function"
    },
    {
      "inputs": [
        {
          "internalType": "uint256",
          "name": "",
          "type": "uint256"
        }
      ],
      "name": "uri",
      "outputs": [
        {
          "internalType": "string",
          "name": "",
          "type": "string"
        }
      ],
      "stateMutability": "view",
      "type": "function"
    },
    {
      "inputs": [
        {
          "internalType": "bytes",
          "name": "hankoData",
          "type": "bytes"
        },
        {
          "internalType": "bytes32",
          "name": "hash",
          "type": "bytes32"
        }
      ],
      "name": "verifyHankoSignature",
      "outputs": [
        {
          "internalType": "bytes32",
          "name": "entityId",
          "type": "bytes32"
        },
        {
          "internalType": "bool",
          "name": "success",
          "type": "bool"
        }
      ],
      "stateMutability": "view",
      "type": "function"
    }
  ],
  "bytecode": "0x60406080815234620002a8576200001f6200001962000351565b6200062e565b6200002a6001600455565b6200005d62000050602860405167636f696e6261736560c01b8152600760088201522090565b805460ff19166001179055565b6200008362000050602860405167657468657265756d60c01b8152600760088201522090565b620000a7620000506027604051663134ba31b7b4b760c91b81526007808201522090565b620000cb620000506027604051660756e69737761760cc1b81526007808201522090565b620001b7620000d9620002ed565b6103e88152610bb860208201526000818401526033606082015282516200014b816200013c602082019485919091606061ffff81608084019563ffffffff8082511686528060208301511660208701526040820151166040860152015116910152565b03601f198101835282620002c3565b519020620001586200030d565b907fa1237dddbd29f99fde152257ccb2f783e434670afa247b2a52d81a326d4cf0ad8252600060208301526000848301524360608301526000608083015260a0820152620001b160016000526003602052604060002090565b6200039b565b60017f52629ba16cb44b809941f19e442f11a9973e93cc91be0d91df4afbe6e7c624ca6001600160ff1b0182620001f8620001f16200032d565b8262000402565b6200020d620002066200032d565b8362000402565b6001600052600a602052620002497fbbc70db1b6c7afd11e79c0fb0051300458f1a3acb8ee9789d9b6b26c61ad9bc75b66038d7ea4c680009055565b6001600052600b6020526200027e7f72c6bfb7988af3a1efa6568f02a999bc52252641c659d85961ca3d372b57d5cf6200023d565b84519081526020810191909152604090a26200029a6002600455565b516146869081620009fa8239f35b600080fd5b634e487b7160e01b600052604160045260246000fd5b601f909101601f19168101906001600160401b03821190821017620002e757604052565b620002ad565b60405190608082016001600160401b03811183821017620002e757604052565b6040519060c082016001600160401b03811183821017620002e757604052565b60405190602082016001600160401b03811183821017620002e75760405260008252565b60408051919082016001600160401b03811183821017620002e757604052602082527f68747470733a2f2f786c6e2e636f6d2f656e746974792f7b69647d2e6a736f6e6020830152565b908051825560208101516001830155604081015160028301556060810151600383015560048201906080810151906003821015620003ec5760059260a09260ff801983541691161790550151910155565b634e487b7160e01b600052602160045260246000fd5b9060405191600190818452602091602085019182526040850190808252606093606087019466038d7ea4c6800086526080880180604052885185518082036200057a57505050908291826000905b6200051a575b505050865114600014620004da5780600084517fc3d58168c5ae7397731d063d5bbf3d657854427343f4c083240f7aacaa2d0f62620004ab885160405191829133958360209093929193604081019481520152565b0390a45b855103620004cb5750620004c993505190519033620009c4565b565b915050620004c99233620008a7565b8060006040517f4a39dc06d4c0dbc64b70af90fd698a233a518aa5d07e595d983b8c0526c8f7fb33918062000511888d8362000783565b0390a4620004af565b8951811015620005745780849160051b8b016200056a62000561620005518688850151940151936000526000602052604060002090565b6001600052602052604060002090565b91825462000729565b9055018362000450565b62000456565b635b05999160e01b835260848b019190915260a48a0152604490fd5b90600182811c92168015620005c8575b6020831014620005b257565b634e487b7160e01b600052602260045260246000fd5b91607f1691620005a6565b601f8111620005e0575050565b60009060026000526020600020906020601f850160051c8301941062000623575b601f0160051c01915b8281106200061757505050565b8181556001016200060a565b909250829062000601565b80519091906001600160401b038111620002e7576200065a816200065460025462000596565b620005d3565b602080601f8311600114620006a15750819062000690939460009262000695575b50508160011b916000199060031b1c19161790565b600255565b0151905038806200067b565b6002600052601f198316949091907f405787fa12a823e0f2b7631cc41b3ba8828b3321ca811111fa75cd3aa3bb5ace926000905b87821062000710575050836001959610620006f6575b505050811b01600255565b015160001960f88460031b161c19169055388080620006eb565b80600185968294968601518155019501930190620006d5565b919082018092116200073757565b634e487b7160e01b600052601160045260246000fd5b90815180825260208080930193019160005b8281106200076e575050505090565b8351855293810193928101926001016200075f565b90916200079d620007ac936040845260408401906200074d565b9160208184039101526200074d565b90565b90816020910312620002a857516001600160e01b031981168103620002a85790565b919082519283825260005b848110620007fe575050826000602080949584010152601f8019910116010190565b602081830181015184830182015201620007dc565b9262000846620007ac9593620008559360018060a01b031686526000602087015260a0604087015260a08601906200074d565b9084820360608601526200074d565b916080818403910152620007d1565b3d15620008a2573d906001600160401b038211620002e7576040519162000896601f8201601f191660200184620002c3565b82523d6000602084013e565b606090565b929160013b620008b8575b50505050565b602091620008dd604051948593849363bc197c8160e01b988986526004860162000813565b0381600060015af16000918162000959575b506200092657620008ff62000864565b805190816200092157604051632bfa23e760e11b815260016004820152602490fd5b602001fd5b6001600160e01b03191603620009405738808080620008b2565b604051632bfa23e760e11b815260016004820152602490fd5b6200098191925060203d60201162000989575b620009788183620002c3565b810190620007af565b9038620008ef565b503d6200096c565b909260a092620007ac9594600180861b0316835260006020840152604083015260608201528160808201520190620007d1565b929160013b620009d45750505050565b602091620008dd604051948593849363f23a6e6160e01b98898652600486016200099156fe6080604052600436101561001257600080fd5b60003560e01c8062fdd58e1461028157806301ffc9a71461027c57806303db7616146101f55780630e89341c146102775780630ebf19c6146102725780631e76fea51461026d5780631ed3d4401461026857806326760ce6146102635780632a20cc801461025e5780632eb2c2d6146102595780632fae4ffd14610254578063311cf8eb1461024f5780634e1273f41461024a578063504d23ea1461024557806357991d30146102405780635a7931c81461023b5780635b70ae41146102365780636702bc7714610231578063680c3ff21461022c57806368436f10146102275780637ea397c8146102225780638193e0071461021d578063820eec5f14610218578063848202fe146102135780638aad06281461020e5780638d197ec7146102095780638dbe6c38146102045780639248cd43146101ff578063a22cb465146101fa578063a74f77e7146101f5578063c83fa48e146101f0578063cce41598146101eb578063d93e68d6146101e6578063e1657b8a146101e1578063e5b338fd146101dc578063e8f48031146101d7578063e985e9c5146101d2578063edd2133b146101cd5763f242432a146101c857600080fd5b6120e8565b61201d565b611f9c565b611f80565b611f12565b611e0d565b611db1565b611c55565b611aae565b6103e5565b6119e9565b61195d565b611765565b611726565b6116d9565b6116bb565b6114f4565b6114b7565b611435565b61140f565b6112f6565b611271565b611217565b6111af565b61115a565b61113a565b61107f565b61100e565b610ff6565b610e45565b610d58565b610bff565b610bbf565b610967565b6106c1565b610463565b61032b565b6102cb565b600435906001600160a01b038216820361029c57565b600080fd5b602435906001600160a01b038216820361029c57565b35906001600160a01b038216820361029c57565b3461029c57604036600319011261029c5760206103106102e9610286565b602435600052600083526040600020906001600160a01b0316600052602052604060002090565b54604051908152f35b6001600160e01b031981160361029c57565b3461029c57602036600319011261029c5760206001600160e01b031960043561035381610319565b167fd9b67a260000000000000000000000000000000000000000000000000000000081149081156103bb575b8115610391575b506040519015158152f35b7f01ffc9a70000000000000000000000000000000000000000000000000000000091501438610386565b7f0e89341c000000000000000000000000000000000000000000000000000000008114915061037f565b3461029c57600036600319011261029c57602060405166038d7ea4c680008152f35b60005b83811061041a5750506000910152565b818101518382015260200161040a565b9060209161044381518092818552858086019101610407565b601f01601f1916010190565b90602061046092818152019061042a565b90565b3461029c5760208060031936011261029c5760405160009160025461048781610ae2565b8084529060019081811690811561051c57506001146104c1575b6104bd846104b1818803826105e3565b6040519182918261044f565b0390f35b600260009081529294507f405787fa12a823e0f2b7631cc41b3ba8828b3321ca811111fa75cd3aa3bb5ace5b82841061050957505050816104bd936104b192820101936104a1565b80548585018701529285019281016104ed565b60ff1916858501525050151560051b82010191506104b1816104bd6104a1565b634e487b7160e01b600052604160045260246000fd5b6080810190811067ffffffffffffffff82111761056e57604052565b61053c565b60c0810190811067ffffffffffffffff82111761056e57604052565b6060810190811067ffffffffffffffff82111761056e57604052565b60e0810190811067ffffffffffffffff82111761056e57604052565b6020810190811067ffffffffffffffff82111761056e57604052565b90601f8019910116810190811067ffffffffffffffff82111761056e57604052565b6040519061061282610573565b565b6040519061061282610552565b67ffffffffffffffff811161056e57601f01601f191660200190565b92919261064982610621565b9161065760405193846105e3565b82948184528183011161029c578281602093846000960137010152565b9080601f8301121561029c578160206104609335910161063d565b604060031982011261029c576004359067ffffffffffffffff821161029c576106ba91600401610674565b9060243590565b3461029c576106cf3661068f565b3360009081527fada5013122d395ba3c54772283fb069b10426056ef8ca54750cb9bb552a59e7d6020526040812090929061070d905b5415156121df565b61071681610faa565b54156107b95761073b610733836000526003602052604060002090565b54151561222a565b61079261074782610faa565b5491610765610760846000526006602052604060002090565b6122bd565b8361076f82610faa565b5561078d81610788866000526006602052604060002090565b61234b565b612421565b7fea3298815689e7c88c8a95c13838806450c4cee965a7c33dda77b335f64565788480a480f35b606460405162461bcd60e51b815260206004820152601160248201527f4e616d65206e6f742061737369676e65640000000000000000000000000000006044820152fd5b60243590600382101561029c57565b60443590600382101561029c57565b359063ffffffff8216820361029c57565b359061ffff8216820361029c57565b608090604319011261029c576040519061085482610552565b8163ffffffff604435818116810361029c578252606435818116810361029c576020830152608435908116810361029c57604082015260a4359061ffff8216820361029c5760600152565b608090606319011261029c57604051906108b882610552565b8163ffffffff606435818116810361029c578252608435818116810361029c57602083015260a435908116810361029c57604082015260c4359061ffff8216820361029c5760600152565b608090602319011261029c576040519061091c82610552565b8163ffffffff602435818116810361029c578252604435818116810361029c576020830152606435908116810361029c5760408201526084359061ffff8216820361029c5760600152565b3461029c5760c036600319011261029c576004357f1022d6ed189b00c6d01d0bdfcc78a25b81a33fc04c61bc53abf2de6bbc60f375610add6109a76107fd565b610a6b6109b33661083b565b6109d26109ca876000526003602052604060002090565b541515612441565b6109f460016109eb886000526003602052604060002090565b0154151561248c565b604051610a4a81610a3c602082019485919091606061ffff81608084019563ffffffff8082511686528060208301511660208701526040820151166040860152015116910152565b03601f1981018352826105e3565b5190206005610a63876000526003602052604060002090565b0154146124d7565b610a9d610a98610a926004610a8a886000526003602052604060002090565b015460ff1690565b8361340a565b612522565b60006001610ab5866000526003602052604060002090565b015560006002610acf866000526003602052604060002090565b01556040519182918261256d565b0390a2005b90600182811c92168015610b12575b6020831014610afc57565b634e487b7160e01b600052602260045260246000fd5b91607f1691610af1565b90604051918260008254610b2f81610ae2565b90818452602094600191600181169081600014610b9d5750600114610b5e575b505050610612925003836105e3565b600090815285812095935091905b818310610b855750506106129350820101388080610b4f565b85548884018501529485019487945091830191610b6c565b9250505061061294925060ff191682840152151560051b820101388080610b4f565b3461029c57602036600319011261029c5760043560005260066020526104bd610beb6040600020610b1c565b60405191829160208352602083019061042a565b3461029c57610c0d3661068f565b3360009081527fada5013122d395ba3c54772283fb069b10426056ef8ca54750cb9bb552a59e7d60205260408120909290610c4790610705565b80518015159081610d4c575b5015610d0857610cd090610c746109ca846000526003602052604060002090565b610c87610c8082610faa565b541561257d565b83610ca4610c9f856000526006602052604060002090565b610b1c565b8051610cf7575b505082610cb782610faa565b5561078d81610788856000526006602052604060002090565b7f0d74c26d085287bcf3070f20f8d884a204aa6f73949ab189d58abd345b1cac948380a380f35b610d0090610faa565b558338610cab565b606460405162461bcd60e51b815260206004820152601360248201527f496e76616c6964206e616d65206c656e677468000000000000000000000000006044820152fd5b60209150111538610c53565b3461029c5760208060031936011261029c5760c0906004359081600052600a815260408060002054600b83528160002054906009845260ff6004846000200154169260038552600581600020015494600160ff1b825197808952179087015285015260608401521515608083015260a0820152f35b67ffffffffffffffff811161056e5760051b60200190565b9080601f8301121561029c576020908235610dff81610dcd565b93610e0d60405195866105e3565b81855260208086019260051b82010192831161029c57602001905b828210610e36575050505090565b81358152908301908301610e28565b3461029c5760a036600319011261029c57610e5e610286565b610e666102a1565b906044359167ffffffffffffffff9081841161029c57610e8b60049436908601610de5565b9060643583811161029c57610ea39036908701610de5565b9260843590811161029c57610ebb9036908701610674565b936001600160a01b03808216903382141580610f4a575b610f1d57831615610f055715610eee57610eec9550614012565b005b602486600060405191626a0d4560e21b8352820152fd5b602487600060405191632bfa23e760e11b8352820152fd5b6040805163711bec9160e11b815233818b019081526001600160a01b038616602082015290918291010390fd5b5081600052600160205260ff610f77336040600020906001600160a01b0316600052602052604060002090565b541615610ed2565b602060031982011261029c576004359067ffffffffffffffff821161029c5761046091600401610674565b6020610fc3918160405193828580945193849201610407565b8101600581520301902090565b6020610fe9918160405193828580945193849201610407565b8101600781520301902090565b3461029c57602061031061100936610f7f565b610faa565b3461029c57602036600319011261029c57600435600052600a6020526020604060002054604051908152f35b90815180825260208080930193019160005b82811061105a575050505090565b83518552938101939281019260010161104c565b90602061046092818152019061103a565b3461029c57604036600319011261029c5760043567ffffffffffffffff80821161029c573660238301121561029c5781600401356110bc81610dcd565b926110ca60405194856105e3565b8184526020916024602086019160051b8301019136831161029c57602401905b828210611123578560243586811161029c576104bd91611111611117923690600401610de5565b906125f7565b6040519182918261106e565b83809161112f846102b7565b8152019101906110ea565b3461029c57602061115261114d36610f7f565b61269c565b604051908152f35b3461029c57602036600319011261029c5760408051600435808252600160ff1b176020820152f35b6003111561118c57565b634e487b7160e01b600052602160045260246000fd5b90600382101561118c5752565b3461029c57602036600319011261029c57600435600052600960205260a0604060002080549060ff60018201541690600281015461120460ff60046003850154940154169360405195865260208601906111a2565b6040840152606083015215156080820152f35b3461029c57602036600319011261029c57600435600052600b6020526020604060002054604051908152f35b9181601f8401121561029c5782359167ffffffffffffffff831161029c576020838186019501011161029c57565b3461029c5760e036600319011261029c5761128a6102a1565b67ffffffffffffffff9060843582811161029c576112ac903690600401611243565b60a49291923584811161029c576112c7903690600401611243565b9160c43595861161029c576112e3610eec963690600401611243565b95909460643590604435906004356128ef565b3461029c57602036600319011261029c57600435600090808252600360205261132460408320541515612441565b808252600360205261133e6001604084200154151561248c565b6113616002611357836000526003602052604060002090565b0154431015612b0f565b6001611377826000526003602052604060002090565b015461138d826000526003602052604060002090565b558160016113a5836000526003602052604060002090565b01558160026113be836000526003602052604060002090565b01557f30b47f773c1d2a65ce0ef667c3b123d5abd927c62b56907569c0daf51cd651506114096113f8836000526003602052604060002090565b546040519081529081906020820190565b0390a280f35b3461029c57602060ff61142961142436610f7f565b610fd0565b54166040519015158152f35b3461029c57604036600319011261029c5761144e610286565b60243560ff811680910361029c573360009081527fada5013122d395ba3c54772283fb069b10426056ef8ca54750cb9bb552a59e7d6020526040812090926001600160a01b039161149e90610705565b1682526008602052604082209060ff1982541617905580f35b3461029c57602036600319011261029c576001600160a01b036114d8610286565b166000526008602052602060ff60406000205416604051908152f35b3461029c5760e036600319011261029c576004357fc4e5e67fff3ba4bffbe07d84c897dbf61a0027b703754b45a5c9de6b58bfd793610add60243561165f61153a61080c565b61161263ffffffff6115d18361154f3661089f565b6115666109ca8c6000526003602052604060002090565b6115cc8b6005610a6360405160208101906115b881610a3c8985919091606061ffff81608084019563ffffffff8082511686528060208301511660208701526040820151166040860152015116910152565b519020926000526003602052604060002090565b6134c6565b166115dd811515612b5a565b6115e683611182565b6001830361169e575b6001611605896000526003602052604060002090565b015461166f575b43612c24565b836001611629896000526003602052604060002090565b01556002611641886000526003602052604060002090565b01556004611659876000526003602052604060002090565b01612c31565b6040519081529081906020820190565b61169961169461168e6004610a8a8c6000526003602052604060002090565b8561340a565b612ba5565b61160c565b6116a783611182565b82156115ef576116b683611182565b6115ef565b3461029c57600036600319011261029c576020600454604051908152f35b3461029c57604036600319011261029c5760043567ffffffffffffffff811161029c5761171861170f6040923690600401611243565b60243591612f81565b825191825215156020820152f35b3461029c57602036600319011261029c5760206040517f7fffffffffffffffffffffffffffffffffffffffffffffffffffffffffffffff600435168152f35b3461029c5760a036600319011261029c576104bd60043561178536610903565b3360009081527fada5013122d395ba3c54772283fb069b10426056ef8ca54750cb9bb552a59e7d602052604080822091939092917f52629ba16cb44b809941f19e442f11a9973e93cc91be0d91df4afbe6e7c624ca91611931916117e890610705565b61188c6004549687956118026117fd88612e2a565b600455565b875161184981610a3c602082019485919091606061ffff81608084019563ffffffff8082511686528060208301511660208701526040820151166040860152015116910152565b519020611854610605565b918483528060208401528089840152436060840152608083015260a0820152611887866000526003602052604060002090565b61321a565b83807fc9234525033c1ac098f69b4dc192ce416b13f69ec0b6de127022496be73337fd81600160ff1b81179590946118e86001600160a01b0385166118d96118d2613264565b8983613b27565b886118e2613264565b91613b27565b61190b6118ff85600052600a602052604060002090565b66038d7ea4c680009055565b6119226118ff85600052600b602052604060002090565b89519081529081906020820190565b0390a384519081526020810191909152604090a2519081529081906020820190565b8015150361029c57565b3461029c57604036600319011261029c5760043567ffffffffffffffff811161029c57611991610eec913690600401610674565b6119d8602435916119a183611953565b3360009081527fada5013122d395ba3c54772283fb069b10426056ef8ca54750cb9bb552a59e7d6020526040902061142490610705565b9060ff801983541691151516179055565b3461029c57604036600319011261029c57611a02610286565b602435611a0e81611953565b6001600160a01b038216918215611a7d57816119d8611a4d923360005260016020526040600020906001600160a01b0316600052602052604060002090565b60405190151581527f17307eab39ab6107e8899845ad3d59bd9653f200f220920489ca2b5937696c3160203392a3005b60246040517fced3e10000000000000000000000000000000000000000000000000000000000815260006004820152fd5b3461029c5760c036600319011261029c57600435611aca6102a1565b90604435606435906084359367ffffffffffffffff9485811161029c57611af5903690600401611243565b60a43596871161029c57611b8b611b91928792611b19610eec9a3690600401611243565b9160405160208101907f454e544954595f5452414e534645520000000000000000000000000000000000825287602f8201526bffffffffffffffffffffffff198a60601b16604f8201528a60638201528b60838201524260a382015260a38152611b82816105ab565b51902093613359565b14612747565b6001600160a01b0360405194611ba6866105c7565b6000865216613451565b9181601f8401121561029c5782359167ffffffffffffffff831161029c576020808501948460051b01011161029c57565b6040810190604081528251809252606081019160208094019060005b818110611c41575050508281830391015281808451928381520193019160005b828110611c2b575050505090565b8351151585529381019392810192600101611c1d565b825185529385019391850191600101611bfd565b3461029c5760408060031936011261029c5767ffffffffffffffff6004803582811161029c57611c89903690600401611bb0565b93909260243590811161029c57611ca4903690600401611bb0565b90611cb0828714613277565b611cb986612df8565b93611cc387612df8565b9660005b818110611cdc578551806104bd8b8a83611be1565b80611ce98792848b6132c2565b611cf7838989969496613304565b3593611d2e835195869384937f8aad06280000000000000000000000000000000000000000000000000000000085528a8501613330565b0381305afa8015611dac5760019282918c6000928392611d70575b50611d5f9293611d58916125de565b9015159052565b611d69828a6125de565b5201611cc7565b611d5f9350611d58919250611d9a908c8d3d10611da5575b611d9281836105e3565b810190613314565b909390929150611d49565b503d611d88565b61334d565b3461029c57606036600319011261029c5767ffffffffffffffff60043581811161029c57611de3903690600401611243565b919060243591821161029c57602092611e03611152933690600401611243565b9160443593613359565b3461029c57602036600319011261029c576104bd60043560045490611e346117fd83612e2a565b817f52629ba16cb44b809941f19e442f11a9973e93cc91be0d91df4afbe6e7c624ca611931611e61610614565b6103e8815293610bb8602086015261188c604095611e828782016127109052565b603360608201528651611ed081610a3c602082019485919091606061ffff81608084019563ffffffff8082511686528060208301511660208701526040820151166040860152015116910152565b519020611edb610605565b90838252600060208301526000888301524360608301526000608083015260a0820152611887866000526003602052604060002090565b3461029c57602036600319011261029c57600435600052600360205260c06040600020805490611f796001820154916002810154600382015490600560ff6004850154169301549460405196875260208701526040860152606085015260808401906111a2565b60a0820152f35b3461029c57600036600319011261029c57602060405160018152f35b3461029c57604036600319011261029c57602060ff611429611fbc610286565b6001600160a01b03611fcc6102a1565b9116600052600184526040600020906001600160a01b0316600052602052604060002090565b919260a09361046096959215158452602084015260408301526060820152816080820152019061042a565b3461029c57602036600319011261029c576004356060908060005260036020526104bd6040600020926040519261205384610573565b84548452600185015493602081019485526002860154604082015260056003870154966060830197885261209160ff6004830154166080850161320e565b015460a0820152519351945190801515806120dd575b6120bc575b5060405194848695151586611ff2565b6120d6919250610c9f906000526006602052604060002090565b90386120ac565b5060045481106120a7565b3461029c5760a036600319011261029c57612101610286565b6121096102a1565b60843567ffffffffffffffff811161029c57612129903690600401610674565b906001600160a01b03831633811415908161217c575b5061215557610eec926064359160443591613451565b60405163711bec9160e11b81523360048201526001600160a01b0384166024820152604490fd5b9050600052600160205260ff6121a9336040600020906001600160a01b0316600052602052604060002090565b5416153861213f565b6121db9160005260006020526040600020906001600160a01b0316600052602052604060002090565b5490565b156121e657565b606460405162461bcd60e51b815260206004820152601d60248201527f4f6e6c7920666f756e646174696f6e20746f6b656e20686f6c646572730000006044820152fd5b1561223157565b606460405162461bcd60e51b815260206004820152601b60248201527f54617267657420656e7469747920646f65736e277420657869737400000000006044820152fd5b818110612280575050565b60008155600101612275565b634e487b7160e01b600052601160045260246000fd5b908160061b91808304604014901517156122b857565b61228c565b6122c78154610ae2565b90816122d1575050565b81601f600093116001146122e3575055565b908083918252612302601f60208420940160051c840160018501612275565b5555565b9190601f811161231557505050565b610612926000526020600020906020601f840160051c83019310612341575b601f0160051c0190612275565b9091508190612334565b919091825167ffffffffffffffff811161056e576123738161236d8454610ae2565b84612306565b602080601f83116001146123b6575081906123a79394956000926123ab575b50508160011b916000199060031b1c19161790565b9055565b015190503880612392565b90601f198316956123cc85600052602060002090565b926000905b888210612409575050836001959697106123f0575b505050811b019055565b015160001960f88460031b161c191690553880806123e6565b806001859682949686015181550195019301906123d1565b61243990602060405192828480945193849201610407565b810103902090565b1561244857565b606460405162461bcd60e51b815260206004820152601460248201527f456e7469747920646f65736e27742065786973740000000000000000000000006044820152fd5b1561249357565b606460405162461bcd60e51b815260206004820152601160248201527f4e6f2070726f706f73656420626f6172640000000000000000000000000000006044820152fd5b156124de57565b606460405162461bcd60e51b815260206004820152601060248201527f496e76616c69642061727469636c6573000000000000000000000000000000006044820152fd5b1561252957565b606460405162461bcd60e51b815260206004820152601b60248201527f43616e6e6f742063616e63656c20746869732070726f706f73616c00000000006044820152fd5b60208101929161061291906111a2565b1561258457565b606460405162461bcd60e51b815260206004820152601560248201527f4e616d6520616c72656164792061737369676e656400000000000000000000006044820152fd5b634e487b7160e01b600052603260045260246000fd5b80518210156125f25760209160051b010190565b6125c8565b9190918051835180820361267a57505080519061262c61261683610dcd565b9261262460405194856105e3565b808452610dcd565b60209190601f1901368484013760005b8151811015612672578061266160019260051b85808287010151918a010151906121b2565b61266b82876125de565b520161263c565b509193505050565b604051635b05999160e01b815260048101919091526024810191909152604490fd5b6126a590610faa565b54806104605750600090565b156126b857565b606460405162461bcd60e51b815260206004820152601a60248201527f496e76616c6964206465706f7369746f727920616464726573730000000000006044820152fd5b1561270357565b606460405162461bcd60e51b815260206004820152601860248201527f4d7573742072656c6561736520736f6d6520746f6b656e7300000000000000006044820152fd5b1561274e57565b606460405162461bcd60e51b815260206004820152601860248201527f496e76616c696420656e74697479207369676e617475726500000000000000006044820152fd5b1561279957565b606460405162461bcd60e51b815260206004820152601b60248201527f496e73756666696369656e7420636f6e74726f6c20746f6b656e7300000000006044820152fd5b908060209392818452848401376000828201840152601f01601f1916010190565b9160806104609360408152601560408201527f434f4e54524f4c5f53484152455f52454c454153450000000000000000000000606082015281602082015201916127dd565b1561284a57565b606460405162461bcd60e51b815260206004820152601c60248201527f496e73756666696369656e74206469766964656e6420746f6b656e73000000006044820152fd5b9160806104609360408152601660408201527f4449564944454e445f53484152455f52454c4541534500000000000000000000606082015281602082015201916127dd565b61046094926060928252602082015281604082015201916127dd565b979481612a078a611b8b6001600160a01b039a879e859b7ff49b3b7be24475e2415d445c296967f90953e7daabd954e5be9f28f80b4689239e8c9a8f9c6129f3612a389f8c9f90612948849f9261297b931615156126b1565b8415159d8e8615612b06575b61295d906126fc565b6129746109ca8d6000526003602052604060002090565b369161063d565b602081519101209a6040519b8c93602085019542938d889492909160ca9694927f52454c454153455f434f4e54524f4c5f53484152455300000000000000000000875260168701526bffffffffffffffffffffffff199060601b166036860152604a850152606a840152608a83015260aa8201520190565b0398611b82601f199a8b81018352826105e3565b8988169183908c8c600160ff1b811792612aae575b50508882612a3d575b50505050506040519586951698856128d3565b0390a3565b84612a7d84612a75612aa498612a5d876000526000602052604060002090565b906001600160a01b0316600052602052604060002090565b541015612843565b612a9f6040519586612a938c8c6020840161288e565b039081018752866105e3565b613451565b3880828188612a25565b81612ad6612aff93612ace89612a5d866000526000602052604060002090565b541015612792565b60405191612af883612aec8d8d602084016127fe565b038881018552846105e3565b8c88613451565b8c38612a1c565b50841515612954565b15612b1657565b606460405162461bcd60e51b815260206004820152601460248201527f44656c617920706572696f64206e6f74206d65740000000000000000000000006044820152fd5b15612b6157565b606460405162461bcd60e51b815260206004820152601660248201527f50726f706f73657220747970652064697361626c6564000000000000000000006044820152fd5b15612bac57565b608460405162461bcd60e51b815260206004820152602160248201527f43616e6e6f74206f76657272696465206578697374696e672070726f706f736160448201527f6c000000000000000000000000000000000000000000000000000000000000006064820152fd5b90600782018092116122b857565b919082018092116122b857565b90600381101561118c5760ff80198354169116179055565b9080601f8301121561029c576020908235612c6381610dcd565b93612c7160405195866105e3565b81855260208086019260051b82010192831161029c57602001905b828210612c9a575050505090565b81358152908301908301612c8c565b602091828282031261029c57813567ffffffffffffffff9283821161029c57019260609260608584031261029c57604092835195612ce68761058f565b803583811161029c5782612cfb918301612c49565b87528381013583811161029c5782612d14918301610674565b84880152848101359083821161029c57019181601f8401121561029c57823590612d3d82610dcd565b96612d4a875198896105e3565b828852858089019360051b8601019484861161029c57868101935b868510612d7a57505050505050505082015290565b843584811161029c5782019060809081601f19848a03011261029c578a51612da181610552565b8a84013581528b84013587811161029c57898c612dc092870101610de5565b8b820152858401359287841161029c57848d612de38c8f80999881990101610de5565b90840152013586820152815201940193612d65565b90612e0282610dcd565b612e0f60405191826105e3565b8281528092612e20601f1991610dcd565b0190602036910137565b60001981146122b85760010190565b15612e4057565b608460405162461bcd60e51b815260206004820152602560248201527f436c61696d20696e64657865732f77656967687473206c656e677468206d697360448201527f6d617463680000000000000000000000000000000000000000000000000000006064820152fd5b15612eb157565b606460405162461bcd60e51b815260206004820152601a60248201527f456e7469747920696e646578206f7574206f6620626f756e64730000000000006044820152fd5b6000198101919082116122b857565b919082039182116122b857565b15612f1857565b608460405162461bcd60e51b8152602060048201526024808201527f5265666572656e63656420636c61696d20696e646578206f7574206f6620626f60448201527f756e6473000000000000000000000000000000000000000000000000000000006064820152fd5b612f9091939293810190612ca9565b90602090612fa160208401516135ba565b805192612fb084865151612c24565b92604091612fc5604088019586515190612c24565b94612fcf87612df8565b96600096875b8751811015613055576041612fea828a6125de565b515114612ffa575b600101612fd5565b61300e613007828a6125de565b518d61377d565b8a6001600160a01b038216613025575b5050612ff2565b9961304861304d9261303a836001969e6125de565b906001600160a01b03169052565b612e2a565b98908a61301e565b50949799509450949691909661306a81612df8565b9860005b8281106131d4575050506000905b8551805183101561319d5782613091916125de565b51916130a76130a0848c61394f565b8451613a49565b50888301988951519a6130c08a86019c8d515114612e39565b6000998a5b8c51805182101561316c576130dc8f9183906125de565b516130e88b8210612eaa565b89515180821015613100575050506001905b016130c5565b918d849f928e908d6131158360019998612c24565b82101561313b57505050506131359261312e91516125de565b5190612c24565b9b6130fa565b9261315d61312e9593613158613166946131359a97515190612f04565b612f04565b90515111612f11565b516125de565b50509b50936060919992939a5001511161318c576001019097959661307c565b505050505050509050600090600090565b5097505050505091505051805190816131ba575050600090600090565b6131c66131cc92612ef5565b906125de565b515190600190565b806132036131f96131ec6001949c9e979d9c866125de565b516001600160a01b031690565b61303a83886125de565b01999798929961306e565b600382101561118c5752565b90805182556020810151600183015560408101516002830155606081015160038301556080810151600381101561118c5760059161325d60a09260048601612c31565b0151910155565b60405190613271826105c7565b60008252565b1561327e57565b606460405162461bcd60e51b815260206004820152601560248201527f4172726179206c656e677468206d69736d6174636800000000000000000000006044820152fd5b91908110156125f25760051b81013590601e198136030182121561029c57019081359167ffffffffffffffff831161029c57602001823603811361029c579190565b91908110156125f25760051b0190565b919082604091031261029c576020825192015161046081611953565b939291602091613348916040875260408701916127dd565b930152565b6040513d6000823e3d90fd5b61336436838361063d565b6020815191012094600180600454905b818110613399575050509161338e939161ffff9593613ef2565b166104605750600090565b806133af84926000526003602052604060002090565b541515806133ed575b6133c3575b01613374565b905061ffff6133d58989898989613ef2565b166133e15782906133bd565b97505050505050505090565b5089613403826000526003602052604060002090565b54146133b8565b600381101561118c576001811461343f5761342481611182565b1561342f5750600090565b8061343b600292611182565b1490565b508061344c600192611182565b141590565b939291906001600160a01b03808216156134ae57851615613497576106129460405192600184526020840152604083019360018552606084015260808301604052614012565b6024604051626a0d4560e21b815260006004820152fd5b6024604051632bfa23e760e11b815260006004820152fd5b90600381101561118c57600181146134fc57806134e4600292611182565b146134ef5750600090565b6020015163ffffffff1690565b505163ffffffff1690565b604051613513816105c7565b6000815290565b9061352482610dcd565b61353160405191826105e3565b8281528092613542601f1991610dcd565b019060005b82811061355357505050565b806060602080938501015201613547565b604051906135718261058f565b6040808352366020840137565b6040519061358b82610552565b604182526060366020840137565b8051604010156125f25760600190565b9081518110156125f2570160200190565b906135c48261421f565b8015613760576135d3816122a2565b906135dd81612c16565b506135e78161351a565b9360005b8281106135f85750505050565b613600613564565b60005b6040811061372b575061367061367761361f8460031c88612c24565b600192839161366461365e61363860078a16938b6135a9565b517fff000000000000000000000000000000000000000000000000000000000000001690565b60f81c90565b9060ff809216901c1690565b1660ff1690565b61372357601b915b61368761357e565b613691858b6125de565b5261369c848a6125de565b5060005b604081106136f357505050906001916136ec7fff000000000000000000000000000000000000000000000000000000000000006136dd848b6125de565b519260f81b1660001a91613599565b53016135eb565b808a61371c826137118961370b6136388a988a6135a9565b946125de565b519260001a926135a9565b53016136a0565b601c9161367f565b8061374c613638613746600194613741886122a2565b612c24565b876135a9565b60001a61375982856135a9565b5301613603565b509050610460613507565b60ff601b9116019060ff82116122b857565b9060418151036138235760009160208201519260606040840151930151901a90601b8210613813575b60ff8216601b8114159081613807575b506137fe576137ea600093602095604051948594859094939260ff6060936080840197845216602083015260408201520152565b838052039060015afa15611dac5760005190565b50505050600090565b601c91501415386137b6565b9061381d9061376b565b906137a6565b5050600090565b1561383157565b606460405162461bcd60e51b815260206004820152601f60248201527f5369676e6572732f77656967687473206c656e677468206d69736d61746368006044820152fd5b90815180825260208080930193019160005b828110613895575050505090565b835161ffff1685529381019392810192600101613887565b6020808252825161ffff16818301528083015160c06040840152805160e084018190526101008401959493929182019160005b82811061393b575050505060c060a061390e8495966040610460960151601f19868303016060870152613875565b606086015163ffffffff16608085015294608081015163ffffffff1684830152015163ffffffff16910152565b8351885296810196928101926001016138e0565b9182519261396460408401948551511461382a565b61396e8151612df8565b906139798151612df8565b9260005b82518110156139e557806139a861399c61399c6131ec600195886125de565b6001600160a01b031690565b6139b282876125de565b526139df6139cc6139c4838b516125de565b5161ffff1690565b6139d683896125de565b9061ffff169052565b0161397d565b509450509160606139f991015161ffff1690565b91613a0f613a05610605565b61ffff9094168452565b602083015260408201526000606082015260006080820152600060a0820152604051613a4381610a3c6020820194856138ad565b51902090565b8060005260036020526040600020548015600014613ad6575003613a6c57600190565b608460405162461bcd60e51b815260206004820152602560248201527f4c617a7920656e746974793a204944206d75737420657175616c20626f61726460448201527f20686173680000000000000000000000000000000000000000000000000000006064820152fd5b91905003613ae357600090565b606460405162461bcd60e51b815260206004820152601360248201527f426f6172642068617368206d69736d61746368000000000000000000000000006044820152fd5b9190916001600160a01b03811680156134ae5760405190600191828152602092602082019687526040820192818452606094606084019566038d7ea4c680008752608085018060405285518751808203613c8c57505050908391826000905b613c42575b505050835114600014613c0657600088517fc3d58168c5ae7397731d063d5bbf3d657854427343f4c083240f7aacaa2d0f62613bdd885160405191829133958360209093929193604081019481520152565b0390a45b815103613bf85750506106129351905191336145e4565b9150916106129450336143e6565b60006040517f4a39dc06d4c0dbc64b70af90fd698a233a518aa5d07e595d983b8c0526c8f7fb339180613c3a8989836142fd565b0390a4613be1565b8651811015613c875780849160051b8801613c7e613c768d612a5d8789860151950151946000526000602052604060002090565b918254612c24565b90550183613b86565b613b8b565b635b05999160e01b8352608488019190915260a4870152604490fd5b9080601f8301121561029c576020908235613cc281610dcd565b93613cd060405195866105e3565b81855260208086019260051b82010192831161029c57602001905b828210613cf9575050505090565b838091613d058461082c565b815201910190613ceb565b60208183031261029c57803567ffffffffffffffff9182821161029c57019160c08382031261029c57613d41610605565b92613d4b8161082c565b8452602081013583811161029c5782613d65918301612c49565b6020850152604081013592831161029c57613d8760a092613db4948301613ca8565b6040850152613d986060820161081b565b6060850152613da96080820161081b565b60808501520161081b565b60a082015290565b90602090818382031261029c57823567ffffffffffffffff9384821161029c570181601f8201121561029c578035613df381610dcd565b94613e0160405196876105e3565b818652848087019260051b8401019380851161029c57858401925b858410613e2d575050505050505090565b833583811161029c578791613e47848480948a0101610674565b815201930192613e1c565b15613e5957565b606460405162461bcd60e51b815260206004820152601c60248201527f426f61726420617272617973206c656e677468206d69736d61746368000000006044820152fd5b91909161ffff808094169116019182116122b857565b90606461ffff809316029182169182036122b857565b9061ffff809116918215613edc57160490565b634e487b7160e01b600052601260045260246000fd5b93949290613f0690613f0f93810190613d10565b94810190613dbc565b926020810192835151613f29604084019182515114613e52565b6000928394845b87518051821080614008575b15613fd55781613f4b916125de565b51613f5a6139c48387516125de565b906001600160a01b038b81831115613f7f575b50505050613f7a90612e2a565b613f30565b61399c613f9386613f9a939d96979d6125de565b518a61377d565b911614613fb9575b613f7a91613faf91613e9d565b969038808b613f6d565b9581613fcb613f7a93613faf93613e9d565b9791509150613fa2565b50509650929450505061ffff90818316156137fe575161ffff16908316106138235761400361046092613eb3565b613ec9565b5089518210613f3c565b94919091815184519081810361267a57505060005b825181101561412b578060051b9060208083860101519287010151856001600160a01b0393848b1661408c575b6001948216614067575b50505001614027565b61408291612a5d613c76926000526000602052604060002090565b905538858161405e565b91929390506140a98a612a5d846000526000602052604060002090565b548381106140db57918791846001969594036140d38d612a5d856000526000602052604060002090565b559450614054565b6040517f03dee4c50000000000000000000000000000000000000000000000000000000081526001600160a01b038c16600482015260248101919091526044810184905260648101839052608490fd5b5094919392909360018551146000146141d6576020858101518382015160408051928352928201526001600160a01b03838116929086169133917fc3d58168c5ae7397731d063d5bbf3d657854427343f4c083240f7aacaa2d0f6291a45b6001600160a01b03811661419f575b5050505050565b84516001036141c5576020806141bb9601519201519233614619565b3880808080614198565b6141d1949192336144e1565b6141bb565b6001600160a01b03604051818316918516907f4a39dc06d4c0dbc64b70af90fd698a233a518aa5d07e595d983b8c0526c8f7fb339180614217888c836142fd565b0390a4614189565b908151156142f75760015b613e808111156142a0575b60405162461bcd60e51b815260206004820152603560248201527f496e76616c6964207061636b6564207369676e6174757265206c656e6774682060448201527f2d2063616e6e6f742064657465637420636f756e7400000000000000000000006064820152608490fd5b8060061b818104604014821517156122b8576142ce906142c86142c284612c16565b60031c90565b90612c24565b8351908082146142f057116142eb576142e690612e2a565b61422a565b614235565b5090925050565b60009150565b90916143146104609360408452604084019061103a565b91602081840391015261103a565b9081602091031261029c575161046081610319565b9261436761046095936001600160a01b03614375941686526000602087015260a0604087015260a086019061103a565b90848203606086015261103a565b91608081840391015261042a565b9390610460959361436791614375946001600160a01b03809216885216602087015260a0604087015260a086019061103a565b3d156143e1573d906143c782610621565b916143d560405193846105e3565b82523d6000602084013e565b606090565b9293919093843b6143f8575050505050565b60209161441b604051948593849363bc197c8160e01b9889865260048601614337565b038160006001600160a01b0388165af1600091816144b0575b5061447357826144426143b6565b805191908261446c57604051632bfa23e760e11b81526001600160a01b0383166004820152602490fd5b6020915001fd5b6001600160e01b0319160361448d57503880808080614198565b604051632bfa23e760e11b81526001600160a01b03919091166004820152602490fd5b6144d391925060203d6020116144da575b6144cb81836105e3565b810190614322565b9038614434565b503d6144c1565b939290949194853b6144f6575b505050505050565b614519602093604051958694859463bc197c8160e01b998a875260048701614383565b038160006001600160a01b0388165af16000918161455b575b5061454057826144426143b6565b6001600160e01b0319160361448d57503880808080806144ee565b61457591925060203d6020116144da576144cb81836105e3565b9038614532565b909260a0926001600160a01b0361046096951683526000602084015260408301526060820152816080820152019061042a565b919261046095949160a0946001600160a01b03809216855216602084015260408301526060820152816080820152019061042a565b9293919093843b6145f6575050505050565b60209161441b604051948593849363f23a6e6160e01b988986526004860161457c565b939290949194853b61462d57505050505050565b614519602093604051958694859463f23a6e6160e01b998a8752600487016145af56fea264697066735822122021b4d02f5acd9ff4f939f498ae71b89827c7ad6e133e8a9bdbb205bc7872a53864736f6c63430008180033",
  "linkReferences": {},
  "deployedLinkReferences": {}
}