{
  "_format": "hh-sol-artifact-1",
  "contractName": "Depository",
  "sourceName": "contracts/Depository.sol",
  "abi": [
    {
      "inputs": [],
      "stateMutability": "nonpayable",
      "type": "constructor"
    },
    {
      "anonymous": false,
      "inputs": [
        {
          "components": [
            {
              "internalType": "bytes32",
              "name": "left",
              "type": "bytes32"
            },
            {
              "internalType": "bytes32",
              "name": "right",
              "type": "bytes32"
            },
            {
              "internalType": "uint256",
              "name": "tokenId",
              "type": "uint256"
            },
            {
              "internalType": "uint256",
              "name": "leftReserve",
              "type": "uint256"
            },
            {
              "internalType": "uint256",
              "name": "rightReserve",
              "type": "uint256"
            },
            {
              "internalType": "uint256",
              "name": "collateral",
              "type": "uint256"
            },
            {
              "internalType": "int256",
              "name": "ondelta",
              "type": "int256"
            }
          ],
          "indexed": false,
          "internalType": "struct Depository.Settled[]",
          "name": "",
          "type": "tuple[]"
        }
      ],
      "name": "ChannelSettled",
      "type": "event"
    },
    {
      "anonymous": false,
      "inputs": [
        {
          "indexed": true,
          "internalType": "bytes32",
          "name": "sender",
          "type": "bytes32"
        },
        {
          "indexed": true,
          "internalType": "bytes32",
          "name": "counterentity",
          "type": "bytes32"
        },
        {
          "indexed": true,
          "internalType": "uint256",
          "name": "cooperativeNonce",
          "type": "uint256"
        }
      ],
      "name": "CooperativeClose",
      "type": "event"
    },
    {
      "anonymous": false,
      "inputs": [
        {
          "indexed": true,
          "internalType": "bytes32",
          "name": "sender",
          "type": "bytes32"
        },
        {
          "indexed": true,
          "internalType": "bytes32",
          "name": "counterentity",
          "type": "bytes32"
        },
        {
          "indexed": true,
          "internalType": "uint256",
          "name": "disputeNonce",
          "type": "uint256"
        },
        {
          "indexed": false,
          "internalType": "bytes",
          "name": "initialArguments",
          "type": "bytes"
        }
      ],
      "name": "DisputeStarted",
      "type": "event"
    },
    {
      "anonymous": false,
      "inputs": [
        {
          "indexed": true,
          "internalType": "address",
          "name": "provider",
          "type": "address"
        }
      ],
      "name": "EntityProviderAdded",
      "type": "event"
    },
    {
      "anonymous": false,
      "inputs": [
        {
          "indexed": true,
          "internalType": "address",
          "name": "provider",
          "type": "address"
        }
      ],
      "name": "EntityProviderRemoved",
      "type": "event"
    },
    {
      "anonymous": false,
      "inputs": [
        {
          "indexed": false,
          "internalType": "string",
          "name": "",
          "type": "string"
        },
        {
          "indexed": false,
          "internalType": "address",
          "name": "",
          "type": "address"
        }
      ],
      "name": "LogAddress",
      "type": "event"
    },
    {
      "anonymous": false,
      "inputs": [
        {
          "indexed": false,
          "internalType": "string",
          "name": "",
          "type": "string"
        },
        {
          "indexed": false,
          "internalType": "bool",
          "name": "",
          "type": "bool"
        }
      ],
      "name": "LogBool",
      "type": "event"
    },
    {
      "anonymous": false,
      "inputs": [
        {
          "indexed": false,
          "internalType": "string",
          "name": "",
          "type": "string"
        },
        {
          "indexed": false,
          "internalType": "bytes",
          "name": "",
          "type": "bytes"
        }
      ],
      "name": "LogBytes",
      "type": "event"
    },
    {
      "anonymous": false,
      "inputs": [
        {
          "indexed": false,
          "internalType": "string",
          "name": "",
          "type": "string"
        },
        {
          "indexed": false,
          "internalType": "bytes32",
          "name": "",
          "type": "bytes32"
        }
      ],
      "name": "LogBytes32",
      "type": "event"
    },
    {
      "anonymous": false,
      "inputs": [
        {
          "indexed": false,
          "internalType": "string",
          "name": "",
          "type": "string"
        },
        {
          "indexed": false,
          "internalType": "int256",
          "name": "",
          "type": "int256"
        }
      ],
      "name": "LogInt",
      "type": "event"
    },
    {
      "anonymous": false,
      "inputs": [
        {
          "indexed": false,
          "internalType": "string",
          "name": "",
          "type": "string"
        },
        {
          "indexed": false,
          "internalType": "string",
          "name": "",
          "type": "string"
        }
      ],
      "name": "LogString",
      "type": "event"
    },
    {
      "anonymous": false,
      "inputs": [
        {
          "indexed": false,
          "internalType": "string",
          "name": "",
          "type": "string"
        },
        {
          "indexed": false,
          "internalType": "uint256",
          "name": "",
          "type": "uint256"
        }
      ],
      "name": "LogUint",
      "type": "event"
    },
    {
      "anonymous": false,
      "inputs": [
        {
          "indexed": true,
          "internalType": "bytes32",
          "name": "from",
          "type": "bytes32"
        },
        {
          "indexed": true,
          "internalType": "bytes32",
          "name": "to",
          "type": "bytes32"
        },
        {
          "indexed": true,
          "internalType": "uint256",
          "name": "tokenId",
          "type": "uint256"
        },
        {
          "indexed": false,
          "internalType": "uint256",
          "name": "amount",
          "type": "uint256"
        }
      ],
      "name": "ReserveTransferred",
      "type": "event"
    },
    {
      "anonymous": false,
      "inputs": [
        {
          "indexed": true,
          "internalType": "bytes32",
          "name": "entity",
          "type": "bytes32"
        },
        {
          "indexed": true,
          "internalType": "uint256",
          "name": "tokenId",
          "type": "uint256"
        },
        {
          "indexed": false,
          "internalType": "uint256",
          "name": "newBalance",
          "type": "uint256"
        }
      ],
      "name": "ReserveUpdated",
      "type": "event"
    },
    {
      "anonymous": false,
      "inputs": [
        {
          "indexed": true,
          "internalType": "bytes32",
          "name": "receivingEntity",
          "type": "bytes32"
        },
        {
          "indexed": true,
          "internalType": "bytes32",
          "name": "counterentity",
          "type": "bytes32"
        },
        {
          "indexed": false,
          "internalType": "uint256",
          "name": "collateral",
          "type": "uint256"
        },
        {
          "indexed": false,
          "internalType": "int256",
          "name": "ondelta",
          "type": "int256"
        },
        {
          "indexed": false,
          "internalType": "uint256",
          "name": "tokenId",
          "type": "uint256"
        }
      ],
      "name": "TransferReserveToCollateral",
      "type": "event"
    },
    {
      "inputs": [
        {
          "internalType": "bytes32",
          "name": "",
          "type": "bytes32"
        }
      ],
      "name": "_activeDebts",
      "outputs": [
        {
          "internalType": "uint256",
          "name": "",
          "type": "uint256"
        }
      ],
      "stateMutability": "view",
      "type": "function"
    },
    {
      "inputs": [
        {
          "internalType": "bytes",
          "name": "",
          "type": "bytes"
        }
      ],
      "name": "_channels",
      "outputs": [
        {
          "internalType": "uint256",
          "name": "cooperativeNonce",
          "type": "uint256"
        },
        {
          "internalType": "bytes32",
          "name": "disputeHash",
          "type": "bytes32"
        }
      ],
      "stateMutability": "view",
      "type": "function"
    },
    {
      "inputs": [
        {
          "internalType": "bytes",
          "name": "",
          "type": "bytes"
        },
        {
          "internalType": "uint256",
          "name": "",
          "type": "uint256"
        }
      ],
      "name": "_collaterals",
      "outputs": [
        {
          "internalType": "uint256",
          "name": "collateral",
          "type": "uint256"
        },
        {
          "internalType": "int256",
          "name": "ondelta",
          "type": "int256"
        }
      ],
      "stateMutability": "view",
      "type": "function"
    },
    {
      "inputs": [
        {
          "internalType": "bytes32",
          "name": "",
          "type": "bytes32"
        },
        {
          "internalType": "uint256",
          "name": "",
          "type": "uint256"
        }
      ],
      "name": "_debtIndex",
      "outputs": [
        {
          "internalType": "uint256",
          "name": "",
          "type": "uint256"
        }
      ],
      "stateMutability": "view",
      "type": "function"
    },
    {
      "inputs": [
        {
          "internalType": "bytes32",
          "name": "",
          "type": "bytes32"
        },
        {
          "internalType": "uint256",
          "name": "",
          "type": "uint256"
        },
        {
          "internalType": "uint256",
          "name": "",
          "type": "uint256"
        }
      ],
      "name": "_debts",
      "outputs": [
        {
          "internalType": "uint256",
          "name": "amount",
          "type": "uint256"
        },
        {
          "internalType": "bytes32",
          "name": "creditor",
          "type": "bytes32"
        }
      ],
      "stateMutability": "view",
      "type": "function"
    },
    {
      "inputs": [
        {
          "internalType": "uint256",
          "name": "",
          "type": "uint256"
        }
      ],
      "name": "_hubs",
      "outputs": [
        {
          "internalType": "bytes32",
          "name": "entityId",
          "type": "bytes32"
        },
        {
          "internalType": "uint256",
          "name": "gasused",
          "type": "uint256"
        },
        {
          "internalType": "string",
          "name": "uri",
          "type": "string"
        }
      ],
      "stateMutability": "view",
      "type": "function"
    },
    {
      "inputs": [
        {
          "internalType": "bytes32",
          "name": "",
          "type": "bytes32"
        },
        {
          "internalType": "uint256",
          "name": "",
          "type": "uint256"
        }
      ],
      "name": "_reserves",
      "outputs": [
        {
          "internalType": "uint256",
          "name": "",
          "type": "uint256"
        }
      ],
      "stateMutability": "view",
      "type": "function"
    },
    {
      "inputs": [
        {
          "internalType": "uint256",
          "name": "",
          "type": "uint256"
        }
      ],
      "name": "_tokens",
      "outputs": [
        {
          "internalType": "bytes32",
          "name": "",
          "type": "bytes32"
        }
      ],
      "stateMutability": "view",
      "type": "function"
    },
    {
      "inputs": [
        {
          "internalType": "address",
          "name": "provider",
          "type": "address"
        }
      ],
      "name": "addEntityProvider",
      "outputs": [],
      "stateMutability": "nonpayable",
      "type": "function"
    },
    {
      "inputs": [
        {
          "internalType": "address",
          "name": "",
          "type": "address"
        }
      ],
      "name": "approvedEntityProviders",
      "outputs": [
        {
          "internalType": "bool",
          "name": "",
          "type": "bool"
        }
      ],
      "stateMutability": "view",
      "type": "function"
    },
    {
      "inputs": [],
      "name": "debugBulkFundEntities",
      "outputs": [],
      "stateMutability": "nonpayable",
      "type": "function"
    },
    {
      "inputs": [
        {
          "internalType": "bytes32",
          "name": "entity",
          "type": "bytes32"
        },
        {
          "internalType": "uint256",
          "name": "tokenId",
          "type": "uint256"
        },
        {
          "internalType": "uint256",
          "name": "amount",
          "type": "uint256"
        }
      ],
      "name": "debugFundReserves",
      "outputs": [],
      "stateMutability": "nonpayable",
      "type": "function"
    },
    {
      "inputs": [
        {
          "internalType": "uint256",
          "name": "",
          "type": "uint256"
        }
      ],
      "name": "entityProvidersList",
      "outputs": [
        {
          "internalType": "address",
          "name": "",
          "type": "address"
        }
      ],
      "stateMutability": "view",
      "type": "function"
    },
    {
      "inputs": [
        {
          "internalType": "bytes32",
          "name": "",
          "type": "bytes32"
        }
      ],
      "name": "entityScores",
      "outputs": [
        {
          "internalType": "uint64",
          "name": "totalGasUsed",
          "type": "uint64"
        },
        {
          "internalType": "uint48",
          "name": "inDebtSince",
          "type": "uint48"
        },
        {
          "internalType": "uint32",
          "name": "totalActiveDebts",
          "type": "uint32"
        },
        {
          "internalType": "uint32",
          "name": "totalDisputes",
          "type": "uint32"
        },
        {
          "internalType": "uint32",
          "name": "successfulRepayments",
          "type": "uint32"
        },
        {
          "internalType": "uint32",
          "name": "cooperativeActions",
          "type": "uint32"
        }
      ],
      "stateMutability": "view",
      "type": "function"
    },
    {
      "inputs": [
        {
          "components": [
            {
              "internalType": "bytes32",
              "name": "entity",
              "type": "bytes32"
            },
            {
              "internalType": "bytes32",
              "name": "packedToken",
              "type": "bytes32"
            },
            {
              "internalType": "uint256",
              "name": "internalTokenId",
              "type": "uint256"
            },
            {
              "internalType": "uint256",
              "name": "amount",
              "type": "uint256"
            }
          ],
          "internalType": "struct Depository.ExternalTokenToReserve",
          "name": "params",
          "type": "tuple"
        }
      ],
      "name": "externalTokenToReserve",
      "outputs": [],
      "stateMutability": "nonpayable",
      "type": "function"
    },
    {
      "inputs": [],
      "name": "getApprovedProviders",
      "outputs": [
        {
          "internalType": "address[]",
          "name": "",
          "type": "address[]"
        }
      ],
      "stateMutability": "view",
      "type": "function"
    },
    {
      "inputs": [
        {
          "internalType": "address",
          "name": "entityProvider",
          "type": "address"
        },
        {
          "internalType": "uint256",
          "name": "externalTokenId",
          "type": "uint256"
        }
      ],
      "name": "getControlShareTokenId",
      "outputs": [
        {
          "internalType": "uint256",
          "name": "internalTokenId",
          "type": "uint256"
        }
      ],
      "stateMutability": "view",
      "type": "function"
    },
    {
      "inputs": [
        {
          "internalType": "bytes32",
          "name": "entity",
          "type": "bytes32"
        },
        {
          "internalType": "uint256",
          "name": "tokenId",
          "type": "uint256"
        }
      ],
      "name": "getDebts",
      "outputs": [
        {
          "components": [
            {
              "internalType": "uint256",
              "name": "amount",
              "type": "uint256"
            },
            {
              "internalType": "bytes32",
              "name": "creditor",
              "type": "bytes32"
            }
          ],
          "internalType": "struct Depository.Debt[]",
          "name": "allDebts",
          "type": "tuple[]"
        },
        {
          "internalType": "uint256",
          "name": "currentDebtIndex",
          "type": "uint256"
        }
      ],
      "stateMutability": "view",
      "type": "function"
    },
    {
      "inputs": [],
      "name": "getTokensLength",
      "outputs": [
        {
          "internalType": "uint256",
          "name": "",
          "type": "uint256"
        }
      ],
      "stateMutability": "view",
      "type": "function"
    },
    {
      "inputs": [
        {
          "internalType": "string",
          "name": "s",
          "type": "string"
        },
        {
          "internalType": "bytes",
          "name": "x",
          "type": "bytes"
        }
      ],
      "name": "log",
      "outputs": [],
      "stateMutability": "nonpayable",
      "type": "function"
    },
    {
      "inputs": [
        {
          "internalType": "string",
          "name": "s",
          "type": "string"
        },
        {
          "internalType": "address",
          "name": "x",
          "type": "address"
        }
      ],
      "name": "log",
      "outputs": [],
      "stateMutability": "nonpayable",
      "type": "function"
    },
    {
      "inputs": [
        {
          "internalType": "string",
          "name": "s",
          "type": "string"
        },
        {
          "internalType": "bytes32",
          "name": "x",
          "type": "bytes32"
        }
      ],
      "name": "log",
      "outputs": [],
      "stateMutability": "nonpayable",
      "type": "function"
    },
    {
      "inputs": [
        {
          "internalType": "string",
          "name": "s",
          "type": "string"
        },
        {
          "internalType": "int256",
          "name": "x",
          "type": "int256"
        }
      ],
      "name": "log",
      "outputs": [],
      "stateMutability": "nonpayable",
      "type": "function"
    },
    {
      "inputs": [
        {
          "internalType": "string",
          "name": "s",
          "type": "string"
        },
        {
          "internalType": "string",
          "name": "x",
          "type": "string"
        }
      ],
      "name": "log",
      "outputs": [],
      "stateMutability": "nonpayable",
      "type": "function"
    },
    {
      "inputs": [
        {
          "internalType": "string",
          "name": "s",
          "type": "string"
        },
        {
          "internalType": "uint256",
          "name": "x",
          "type": "uint256"
        }
      ],
      "name": "log",
      "outputs": [],
      "stateMutability": "nonpayable",
      "type": "function"
    },
    {
      "inputs": [
        {
          "internalType": "string",
          "name": "s",
          "type": "string"
        },
        {
          "internalType": "bool",
          "name": "x",
          "type": "bool"
        }
      ],
      "name": "log",
      "outputs": [],
      "stateMutability": "nonpayable",
      "type": "function"
    },
    {
      "inputs": [
        {
          "internalType": "bytes32",
          "name": "e1",
          "type": "bytes32"
        },
        {
          "internalType": "bytes32",
          "name": "e2",
          "type": "bytes32"
        }
      ],
      "name": "logChannel",
      "outputs": [],
      "stateMutability": "nonpayable",
      "type": "function"
    },
    {
      "inputs": [
        {
          "internalType": "uint8",
          "name": "tokenType",
          "type": "uint8"
        },
        {
          "internalType": "address",
          "name": "contractAddress",
          "type": "address"
        },
        {
          "internalType": "uint96",
          "name": "externalTokenId",
          "type": "uint96"
        }
      ],
      "name": "packTokenReference",
      "outputs": [
        {
          "internalType": "bytes32",
          "name": "",
          "type": "bytes32"
        }
      ],
      "stateMutability": "pure",
      "type": "function"
    },
    {
      "inputs": [
        {
          "internalType": "bytes32",
          "name": "entity",
          "type": "bytes32"
        },
        {
          "components": [
            {
              "components": [
                {
                  "internalType": "bytes32",
                  "name": "receivingEntity",
                  "type": "bytes32"
                },
                {
                  "internalType": "uint256",
                  "name": "tokenId",
                  "type": "uint256"
                },
                {
                  "internalType": "uint256",
                  "name": "amount",
                  "type": "uint256"
                }
              ],
              "internalType": "struct Depository.ReserveToExternalToken[]",
              "name": "reserveToExternalToken",
              "type": "tuple[]"
            },
            {
              "components": [
                {
                  "internalType": "bytes32",
                  "name": "entity",
                  "type": "bytes32"
                },
                {
                  "internalType": "bytes32",
                  "name": "packedToken",
                  "type": "bytes32"
                },
                {
                  "internalType": "uint256",
                  "name": "internalTokenId",
                  "type": "uint256"
                },
                {
                  "internalType": "uint256",
                  "name": "amount",
                  "type": "uint256"
                }
              ],
              "internalType": "struct Depository.ExternalTokenToReserve[]",
              "name": "externalTokenToReserve",
              "type": "tuple[]"
            },
            {
              "components": [
                {
                  "internalType": "bytes32",
                  "name": "receivingEntity",
                  "type": "bytes32"
                },
                {
                  "internalType": "uint256",
                  "name": "tokenId",
                  "type": "uint256"
                },
                {
                  "internalType": "uint256",
                  "name": "amount",
                  "type": "uint256"
                }
              ],
              "internalType": "struct Depository.ReserveToReserve[]",
              "name": "reserveToReserve",
              "type": "tuple[]"
            },
            {
              "components": [
                {
                  "internalType": "uint256",
                  "name": "tokenId",
                  "type": "uint256"
                },
                {
                  "internalType": "bytes32",
                  "name": "receivingEntity",
                  "type": "bytes32"
                },
                {
                  "components": [
                    {
                      "internalType": "bytes32",
                      "name": "entity",
                      "type": "bytes32"
                    },
                    {
                      "internalType": "uint256",
                      "name": "amount",
                      "type": "uint256"
                    }
                  ],
                  "internalType": "struct Depository.AddrAmountPair[]",
                  "name": "pairs",
                  "type": "tuple[]"
                }
              ],
              "internalType": "struct Depository.ReserveToCollateral[]",
              "name": "reserveToCollateral",
              "type": "tuple[]"
            },
            {
              "components": [
                {
                  "internalType": "bytes32",
                  "name": "counterentity",
                  "type": "bytes32"
                },
                {
                  "components": [
                    {
                      "internalType": "uint256",
                      "name": "tokenId",
                      "type": "uint256"
                    },
                    {
                      "internalType": "int256",
                      "name": "peerReserveDiff",
                      "type": "int256"
                    },
                    {
                      "internalType": "int256",
                      "name": "collateralDiff",
                      "type": "int256"
                    },
                    {
                      "internalType": "int256",
                      "name": "ondeltaDiff",
                      "type": "int256"
                    }
                  ],
                  "internalType": "struct Depository.Diff[]",
                  "name": "diffs",
                  "type": "tuple[]"
                },
                {
                  "internalType": "uint256[]",
                  "name": "forgiveDebtsInTokenIds",
                  "type": "uint256[]"
                },
                {
                  "internalType": "bytes",
                  "name": "sig",
                  "type": "bytes"
                }
              ],
              "internalType": "struct Depository.CooperativeUpdate[]",
              "name": "cooperativeUpdate",
              "type": "tuple[]"
            },
            {
              "components": [
                {
                  "internalType": "bytes32",
                  "name": "counterentity",
                  "type": "bytes32"
                },
                {
                  "components": [
                    {
                      "internalType": "int256[]",
                      "name": "offdeltas",
                      "type": "int256[]"
                    },
                    {
                      "internalType": "uint256[]",
                      "name": "tokenIds",
                      "type": "uint256[]"
                    },
                    {
                      "components": [
                        {
                          "internalType": "address",
                          "name": "subcontractProviderAddress",
                          "type": "address"
                        },
                        {
                          "internalType": "bytes",
                          "name": "encodedBatch",
                          "type": "bytes"
                        },
                        {
                          "components": [
                            {
                              "internalType": "uint256",
                              "name": "deltaIndex",
                              "type": "uint256"
                            },
                            {
                              "internalType": "uint256",
                              "name": "rightAllowence",
                              "type": "uint256"
                            },
                            {
                              "internalType": "uint256",
                              "name": "leftAllowence",
                              "type": "uint256"
                            }
                          ],
                          "internalType": "struct Depository.Allowence[]",
                          "name": "allowences",
                          "type": "tuple[]"
                        }
                      ],
                      "internalType": "struct Depository.SubcontractClause[]",
                      "name": "subcontracts",
                      "type": "tuple[]"
                    }
                  ],
                  "internalType": "struct Depository.ProofBody",
                  "name": "proofbody",
                  "type": "tuple"
                },
                {
                  "internalType": "bytes",
                  "name": "initialArguments",
                  "type": "bytes"
                },
                {
                  "internalType": "bytes",
                  "name": "finalArguments",
                  "type": "bytes"
                },
                {
                  "internalType": "bytes",
                  "name": "sig",
                  "type": "bytes"
                }
              ],
              "internalType": "struct Depository.CooperativeDisputeProof[]",
              "name": "cooperativeDisputeProof",
              "type": "tuple[]"
            },
            {
              "components": [
                {
                  "internalType": "bytes32",
                  "name": "counterentity",
                  "type": "bytes32"
                },
                {
                  "internalType": "uint256",
                  "name": "cooperativeNonce",
                  "type": "uint256"
                },
                {
                  "internalType": "uint256",
                  "name": "disputeNonce",
                  "type": "uint256"
                },
                {
                  "internalType": "bytes32",
                  "name": "proofbodyHash",
                  "type": "bytes32"
                },
                {
                  "internalType": "bytes",
                  "name": "sig",
                  "type": "bytes"
                },
                {
                  "internalType": "bytes",
                  "name": "initialArguments",
                  "type": "bytes"
                }
              ],
              "internalType": "struct Depository.InitialDisputeProof[]",
              "name": "initialDisputeProof",
              "type": "tuple[]"
            },
            {
              "components": [
                {
                  "internalType": "bytes32",
                  "name": "counterentity",
                  "type": "bytes32"
                },
                {
                  "internalType": "uint256",
                  "name": "initialCooperativeNonce",
                  "type": "uint256"
                },
                {
                  "internalType": "uint256",
                  "name": "initialDisputeNonce",
                  "type": "uint256"
                },
                {
                  "internalType": "uint256",
                  "name": "disputeUntilBlock",
                  "type": "uint256"
                },
                {
                  "internalType": "bytes32",
                  "name": "initialProofbodyHash",
                  "type": "bytes32"
                },
                {
                  "internalType": "bytes",
                  "name": "initialArguments",
                  "type": "bytes"
                },
                {
                  "internalType": "bool",
                  "name": "startedByLeft",
                  "type": "bool"
                },
                {
                  "internalType": "uint256",
                  "name": "finalCooperativeNonce",
                  "type": "uint256"
                },
                {
                  "internalType": "uint256",
                  "name": "finalDisputeNonce",
                  "type": "uint256"
                },
                {
                  "components": [
                    {
                      "internalType": "int256[]",
                      "name": "offdeltas",
                      "type": "int256[]"
                    },
                    {
                      "internalType": "uint256[]",
                      "name": "tokenIds",
                      "type": "uint256[]"
                    },
                    {
                      "components": [
                        {
                          "internalType": "address",
                          "name": "subcontractProviderAddress",
                          "type": "address"
                        },
                        {
                          "internalType": "bytes",
                          "name": "encodedBatch",
                          "type": "bytes"
                        },
                        {
                          "components": [
                            {
                              "internalType": "uint256",
                              "name": "deltaIndex",
                              "type": "uint256"
                            },
                            {
                              "internalType": "uint256",
                              "name": "rightAllowence",
                              "type": "uint256"
                            },
                            {
                              "internalType": "uint256",
                              "name": "leftAllowence",
                              "type": "uint256"
                            }
                          ],
                          "internalType": "struct Depository.Allowence[]",
                          "name": "allowences",
                          "type": "tuple[]"
                        }
                      ],
                      "internalType": "struct Depository.SubcontractClause[]",
                      "name": "subcontracts",
                      "type": "tuple[]"
                    }
                  ],
                  "internalType": "struct Depository.ProofBody",
                  "name": "finalProofbody",
                  "type": "tuple"
                },
                {
                  "internalType": "bytes",
                  "name": "finalArguments",
                  "type": "bytes"
                },
                {
                  "internalType": "bytes",
                  "name": "sig",
                  "type": "bytes"
                }
              ],
              "internalType": "struct Depository.FinalDisputeProof[]",
              "name": "finalDisputeProof",
              "type": "tuple[]"
            },
            {
              "components": [
                {
                  "internalType": "uint256",
                  "name": "tokenId",
                  "type": "uint256"
                },
                {
                  "internalType": "uint256",
                  "name": "amount",
                  "type": "uint256"
                }
              ],
              "internalType": "struct Depository.TokenAmountPair[]",
              "name": "flashloans",
              "type": "tuple[]"
            },
            {
              "internalType": "uint256",
              "name": "hub_id",
              "type": "uint256"
            }
          ],
          "internalType": "struct Depository.Batch",
          "name": "batch",
          "type": "tuple"
        }
      ],
      "name": "processBatch",
      "outputs": [
        {
          "internalType": "bool",
          "name": "completeSuccess",
          "type": "bool"
        }
      ],
      "stateMutability": "nonpayable",
      "type": "function"
    },
    {
      "inputs": [
        {
          "internalType": "uint256",
          "name": "hub_id",
          "type": "uint256"
        },
        {
          "internalType": "string",
          "name": "new_uri",
          "type": "string"
        }
      ],
      "name": "registerHub",
      "outputs": [
        {
          "internalType": "uint256",
          "name": "",
          "type": "uint256"
        }
      ],
      "stateMutability": "nonpayable",
      "type": "function"
    },
    {
      "inputs": [
        {
          "internalType": "address",
          "name": "provider",
          "type": "address"
        }
      ],
      "name": "removeEntityProvider",
      "outputs": [],
      "stateMutability": "nonpayable",
      "type": "function"
    },
    {
      "inputs": [
        {
          "internalType": "bytes32",
          "name": "",
          "type": "bytes32"
        }
      ],
      "name": "tokenToId",
      "outputs": [
        {
          "internalType": "uint256",
          "name": "",
          "type": "uint256"
        }
      ],
      "stateMutability": "view",
      "type": "function"
    },
    {
      "inputs": [
        {
          "internalType": "bytes32",
          "name": "packed",
          "type": "bytes32"
        }
      ],
      "name": "unpackTokenReference",
      "outputs": [
        {
          "internalType": "address",
          "name": "contractAddress",
          "type": "address"
        },
        {
          "internalType": "uint96",
          "name": "externalTokenId",
          "type": "uint96"
        },
        {
          "internalType": "uint8",
          "name": "tokenType",
          "type": "uint8"
        }
      ],
      "stateMutability": "pure",
      "type": "function"
    }
  ],
  "bytecode": "0x608034620003ef57600a5490680100000000000000009182811015620003d957600180820180600a55821015620003c357600093600a8552846020938482200155606084019360018060401b0381861081871117620003af57604095865286825284820190878252865191868301838110838211176200039b57885288835287840192835260095494851015620003735785850180600955851015620003875760098952868920600380960201935184555185840155600280930191518051918211620003735782548681811c9116801562000368575b8882101462000354579081601f849311620002ff575b508790601f83116001146200029b578a926200028f575b5050600019600383901b1c191690851b1790555b6200017c85516200012881620003f4565b603b81527f646562756742756c6b46756e64456e7469746965733a2066756e64696e672065868201527f6e74697469657320312d3230207769746820314d20746f6b656e7300000000008782015262000436565b825b6014811115620001e75785620001d9867f646562756742756c6b46756e64456e7469746965733a2066756e64696e672063835191620001bd83620003f4565b60278352820152666f6d706c65746560c81b8382015262000436565b5161360a9081620004d58239f35b835b83811115620002045750620001fe9062000410565b6200017e565b8188528286528688208189528652868820805490670de0b6b3a764000082018092116200027b579062000275929155828952838752878920818a52875280837fab4d21442efe134c3d0c087e2b687e9593a1c09176f498d37873210cde052c45898b8d20548c51908152a362000410565b620001e9565b634e487b7160e01b8a52601160045260248afd5b01519050388062000103565b848b52888b208894509190601f1984168c5b8b828210620002e85750508411620002ce575b505050811b01905562000117565b015160001960f88460031b161c19169055388080620002c0565b8385015186558b97909501949384019301620002ad565b909150838a52878a20601f840160051c81019189851062000349575b84939291601f8a920160051c01915b8281106200033a575050620000ec565b8c81558594508991016200032a565b90915081906200031b565b634e487b7160e01b8a52602260045260248afd5b90607f1690620000d6565b634e487b7160e01b89526041600452602489fd5b634e487b7160e01b89526032600452602489fd5b634e487b7160e01b8a52604160045260248afd5b634e487b7160e01b87526041600452602487fd5b634e487b7160e01b600052603260045260246000fd5b634e487b7160e01b600052604160045260246000fd5b600080fd5b606081019081106001600160401b03821117620003d957604052565b6000198114620004205760010190565b634e487b7160e01b600052601160045260246000fd5b6040519060209082602081019263104c13eb60e21b84526020602483015282519283604484015260005b848110620004bc57505050808260006064601f9560839501015283199384910116810103604481018552011682019082821060018060401b03831117620003d957600092839260405251906a636f6e736f6c652e6c6f675afa50565b8181018301518782016064015286935082016200046056fe6080604052600436101561001257600080fd5b6000803560e01c80630dedd62414612b5b57806323cdd8e814612ae7578063266afe1b14612a2757806329ac1c4c146128a757806331599c7d146127b4578063319af3331461272d5780633692d61a146126d75780633ca6268e146126815780633e2601ff146110dd5780634174a93d1461108357806341e837961461106e5780634b5c427714610fd257806358d642bc14610edd5780635ffefe5b14610d305780636b79134d14610d065780637508b91614610cd957806388a1cd7614610c8a57806392cf61e514610c24578063a034af4214610bdd578063a09fd42b14610ae5578063abc8d1ac14610aa9578063acd6f20814610a7c578063ad89991b14610a06578063b0c26ecf146109e8578063b60e72cc14610970578063bb2c250c146108ee578063bfa4b7d914610886578063c3b55635146107fd578063d19fd92e146107d3578063dd865c8b14610394578063ddc3948014610206578063ec6d8e06146101c35763ed70554d1461018857600080fd5b346101c05760203660031901126101c05760043590600a548210156101c05760206101b283612e30565b90546040519160031b1c8152f35b80fd5b50346101c05760203660031901126101c057600435906001548210156101c05760206001600160a01b036101f684612df9565b9190546040519260031b1c168152f35b50346101c05760203660031901126101c0576001600160a01b0380610229612d19565b168083528260205260ff6040842054161561035057808352826020526040832060ff198154169055825b6001805480831015610346579084918461026c85612df9565b949054600395861b1c161461028657505050600101610253565b9394919390926000199182810190811161033257906102b8846102ab6102d794612df9565b905490891b1c1691612df9565b9091906001600160a01b038084549260031b9316831b921b1916179055565b8254801561031e5701926102ea84612df9565b81939154921b1b19169055555b7f67c5a35d33d48c47ef33c82c62eda6254aad034fab4c51abe26a6d06ad174a348280a280f35b602487634e487b7160e01b81526031600452fd5b602488634e487b7160e01b81526011600452fd5b50505090506102f7565b606460405162461bcd60e51b815260206004820152600c60248201527f4e6f7420617070726f76656400000000000000000000000000000000000000006044820152fd5b50346101c05760803660031901126101c0576040516103b281612c1c565b60043580825260208083019160243583526044359285606060408701968688520192606435845280156000146107cd575033945b806107b057505080518652600b835285604081205480875215610729575b61042960ff925b518060601c9160ff6affffffffffffffffffffff8360081c16921690565b91939091168061057757505082516040516323b872dd60e01b8152336004820152306024820152604481019190915291849150829060649082908a906001600160a01b03165af190811561056c578691610532575b50156104ee57907fab4d21442efe134c3d0c087e2b687e9593a1c09176f498d37873210cde052c45915b5183865260028252604086208551875282526104c960408720918254612e8c565b905583519383865260028252604086209051865281526040852054604051908152a380f35b6064826040519062461bcd60e51b82526004820152601960248201527f4552433230207472616e7366657246726f6d206661696c6564000000000000006044820152fd5b90508281813d8311610565575b6105498183612c4c565b8101031261056157518015158103610561573861047e565b8580fd5b503d61053f565b6040513d88823e3d90fd5b939493919290916001810361063257506001600160a01b0316803b1561062e576040516323b872dd60e01b81523360048201523060248201526bffffffffffffffffffffffff92909216604483015282908290606490829084905af180156106235761060b575b50508160017fab4d21442efe134c3d0c087e2b687e9593a1c09176f498d37873210cde052c4593526104a8565b61061490612c38565b61061f5784386105de565b8480fd5b6040513d84823e3d90fd5b8280fd5b93949391929160021461066b575b505050907fab4d21442efe134c3d0c087e2b687e9593a1c09176f498d37873210cde052c45916104a8565b6001600160a01b031691835192803b1561062e576bffffffffffffffffffffffff918360c49260405196879586947ff242432a000000000000000000000000000000000000000000000000000000008652336004870152306024870152166044850152606484015260a060848401528160a48401525af1801561056c576106f4575b8581610640565b946107217fab4d21442efe134c3d0c087e2b687e9593a1c09176f498d37873210cde052c45939296612c38565b9490916106ed565b508051600a546801000000000000000081101561079c578060016107509201600a55612e30565b81549060031b906000198094831b921b1916179055600a549081019081116107885780865281518752600b8452604087205585610404565b602487634e487b7160e01b81526011600452fd5b602488634e487b7160e01b81526041600452fd5b60ff926107bf61042992612e30565b90549060031b1c815261040b565b946103e6565b50346101c05760203660031901126101c05760406020916004358152600b83522054604051908152f35b50346101c05760403660031901126101c05760043567ffffffffffffffff81116108825761082f903690600401612c6e565b60243580151580910361062e577f4c34c2f9a78632f29fa59aaed5514cb742fd9fbcfd7ccc2c03c85f2bbc621c479161087691604051928392604084526040840190612dd4565b9060208301520390a180f35b5080fd5b50346101c05760203660031901126101c0576004359067ffffffffffffffff82116101c05760406108d160206108bf3660048701612c6e565b81845193828580945193849201612cca565b810160038152030190206001815491015482519182526020820152f35b50346101c05760603660031901126101c05760043560ff811680910361088257610916612d03565b90604435916bffffffffffffffffffffffff8316830361096c5760ff821161096c57602093506cffffffffffffffffffffffff006040519360081b16906bffffffffffffffffffffffff199060601b1617178152f35b8380fd5b50346101c05760403660031901126101c05760043567ffffffffffffffff8111610882576109da6109c67f941296a39ea107bde685522318a4b6c2b544904a5dd82a512748ca2cf839bef7923690600401612c6e565b604051918291604083526040830190612dd4565b60243560208301520390a180f35b50346101c057806003193601126101c0576020600a54604051908152f35b50346101c05760203660031901126101c057604060c09160043581526008602052205463ffffffff6040519167ffffffffffffffff8116835265ffffffffffff8160401c166020840152818160701c166040840152818160901c166060840152818160b01c16608084015260d01c1660a0820152f35b50346101c0576040602091610a9036612ced565b9082526002845282822090825283522054604051908152f35b50346101c05760203660031901126101c05760ff60406020926001600160a01b03610ad2612d19565b1681528084522054166040519015158152f35b50346101c057602090816003193601126101c05760043560095481101561088257610b0f90612d49565b50805490600190600260018201549101856040519386835493610b3185612d9a565b8088529460018116908115610bb85750600114610b7c575b8388610b788989610b5c828f0383612c4c565b6040519485948552840152606060408401526060830190612dd4565b0390f35b908094939850528683205b828410610ba557505050820190930192610b5c85610b788438610b49565b8054868501890152928701928101610b87565b60ff1916858901525050505090151560051b8301019350610b5c85610b788438610b49565b50346101c05760403660031901126101c0576024359067ffffffffffffffff82116101c0576020610c1c610c143660048601612c6e565b6004356131b4565b604051908152f35b50346101c05760203660031901126101c05760606bffffffffffffffffffffffff60ff610c6a6004358060601c9160ff6affffffffffffffffffffff8360081c16921690565b9193906001600160a01b0360405195168552166020840152166040820152f35b50346101c057610c9936612d2f565b91835260056020526040832090835260205260408220805482101561062e578260209160409452209060011b016001815491015482519182526020820152f35b50346101c0576040602091610ced36612ced565b9082526006845282822090825283522054604051908152f35b50346101c05760203660031901126101c05760406020916004358152600783522054604051908152f35b50346101c057610d3f36612d2f565b909160405191610d4e83612c00565b60218352610d8c6020937f646562756746756e6452657365727665733a2066756e64696e6720656e74697485820152607960f81b60408201526134d6565b610d958261353e565b610dd2604051610da481612bce565b601a81527f646562756746756e6452657365727665733a20746f6b656e4964000000000000858201526134d6565b610ddb8461357f565b610e18604051610dea81612bce565b601981527f646562756746756e6452657365727665733a20616d6f756e7400000000000000858201526134d6565b610e218161357f565b81855260028352604085208486528352610e4060408620918254612e8c565b90558084526002825260408420838552825282817fab4d21442efe134c3d0c087e2b687e9593a1c09176f498d37873210cde052c45846040882054604051908152a3610ebf604051610e9181612bce565b601e81527f646562756746756e6452657365727665733a206e65772062616c616e63650000848201526134d6565b8352600281526040832091835252610eda604082205461357f565b80f35b50346101c05760203660031901126101c057610ef7612d19565b6001600160a01b038116908183528260205260ff604084205416610f8e578183528260205260408320600160ff1982541617905560015468010000000000000000811015610f7a57906102b8826001610f539401600155612df9565b7fc395b1bd803c744a815bc34a0426e5eaac03513b9d76bf237a734a004916499c8280a280f35b602484634e487b7160e01b81526041600452fd5b606460405162461bcd60e51b815260206004820152601060248201527f416c726561647920617070726f766564000000000000000000000000000000006044820152fd5b50346101c05760403660031901126101c05767ffffffffffffffff60043581811161062e57611005903690600401612c6e565b9060243590811161062e577f27a8767ed172b48d7cf6dbb25d2840c5fa91ef78fa6e05c13c82763d099f03ca9161106861104661105a933690600401612c6e565b604051938493604085526040850190612dd4565b908382036020850152612dd4565b0390a180f35b50346101c05760403660031901126101c05780f35b50346101c05760403660031901126101c057604060209160026110a4612d19565b60601b6bffffffffffffffffffffffff191660243560081b6cffffffffffffffffffffffff001617178152600b83522054604051908152f35b50346101c0576003196040368201126108825767ffffffffffffffff60243511610882576101406024353603918201126108825761114f60405161112081612bce565b601f81527f70726f6365737342617463682063616c6c6564207769746820656e746974790060208201526134d6565b61115a60043561353e565b61119860405161116981612bce565b601d81527f62617463682e72657365727665546f526573657276652e6c656e67746800000060208201526134d6565b602219016024356044013512156101c05767ffffffffffffffff60243560448101350160040135116101c05760248035604481013501600481013560600236039101136101c0576111f46024356044810135016004013561357f565b6040518061014081011067ffffffffffffffff6101408301111761266d57610140810160405267ffffffffffffffff60243560040135116108825736602360243560040135602435010112156108825761125e366004602480358281013501918201359101612eb1565b815267ffffffffffffffff60248035013511610882573660236024803501356024350101121561088257600460248035013560243501013561129f81612e99565b906112ad6040519283612c4c565b80825260208201903660248260071b818035013582350101011161061f5760248035808201350101915b60248260071b81803501358235010101831061262357505050602082015267ffffffffffffffff60446024350135116108825736602435604481013501602301121561088257611337366024803560448101350160048101359101612eb1565b604082015267ffffffffffffffff606460243501351161088257366024356064810135016023011215610882576024356064810135016004013561137a81612e99565b906113886040519283612c4c565b808252602082013660248360051b60648235013582350101011161061f576024803560648101350101905b60248360051b606482350135823501010182106124e457505050606082015267ffffffffffffffff608460243501351161088257366024356084810135016023011215610882576024356084810135016004013561141081612e99565b9061141e6040519283612c4c565b808252602082013660248360051b60848235013582350101011161061f576024803560848101350101905b60248360051b6084823501358235010101821061230757505050608082015267ffffffffffffffff60a4602435013511610882573660243560a48101350160230112156108825760243560a481013501600401356114a681612e99565b906114b46040519283612c4c565b808252602082013660248360051b60a48235013582350101011161061f576024803560a48101350101905b60248360051b60a482350135823501010182106121a15750505060a082015267ffffffffffffffff60c4602435013511610882573660243560c48101350160230112156108825760243560c4810135016004013561153c81612e99565b9061154a6040519283612c4c565b808252602082013660248360051b60c48235013582350101011161061f576024803560c48101350101905b60248360051b60c482350135823501010182106120955750505060c082015267ffffffffffffffff60e4602435013511610882573660243560e48101350160230112156108825760243560e481013501600401356115d281612e99565b906115e06040519283612c4c565b808252602082013660248360051b60e48235013582350101011161061f576024803560e48101350101905b60248360051b60e48235013582350101018210611ebb5750505060e0820152610104602435013567ffffffffffffffff811161062e57366023826024350101121561062e576004816024350101359061166382612e99565b916116716040519384612c4c565b80835260208301913660248360061b83823501010111610561579160248381350101925b60248360061b8282350101018410611e82575050505061010082015261012460243501356101208201526117076040516116ce81612c00565b602181527f5f70726f636573734261746368207374617274696e6720666f7220656e7469746020820152607960f81b60408201526134d6565b61171260043561353e565b5a9061177860405161172381612c00565b602c81527f50726f63657373696e672072657365727665546f52657365727665207472616e60208201527f736665727320636f756e743a000000000000000000000000000000000000000060408201526134d6565b61178660408201515161357f565b825b604082015151811015611da8576117d36040516117a481612bce565b600f81527f5472616e7366657220696e6465783a000000000000000000000000000000000060208201526134d6565b6117dc8161357f565b61181a6040516117eb81612bce565b600c81527f46726f6d20656e746974793a000000000000000000000000000000000000000060208201526134d6565b61182560043561353e565b61186360405161183481612bce565b600a81527f546f20656e746974793a0000000000000000000000000000000000000000000060208201526134d6565b61187b6118748260408501516135c0565b515161353e565b6118b960405161188a81612bce565b600981527f546f6b656e2049443a000000000000000000000000000000000000000000000060208201526134d6565b6118d460206118cc8360408601516135c0565b51015161357f565b6119126040516118e381612bce565b600781527f416d6f756e743a0000000000000000000000000000000000000000000000000060208201526134d6565b61192460406118cc83828601516135c0565b6119328160408401516135c0565b519061197260405161194381612bce565b601d81527f72657365727665546f526573657276653a2066726f6d20656e7469747900000060208201526134d6565b61197d60043561353e565b6119bb60405161198c81612bce565b601b81527f72657365727665546f526573657276653a20746f20656e74697479000000000060208201526134d6565b6119c5825161353e565b611a036040516119d481612bce565b601981527f72657365727665546f526573657276653a20746f6b656e49640000000000000060208201526134d6565b611a10602083015161357f565b611a4e604051611a1f81612bce565b601881527f72657365727665546f526573657276653a20616d6f756e74000000000000000060208201526134d6565b611a5b604083015161357f565b611a99604051611a6a81612bce565b602081527f72657365727665546f526573657276653a2073656e6465722062616c616e636560208201526134d6565b600435855260026020526040852060208301518652602052611abe604086205461357f565b6004358552600260205260408520602083015186526020526040852054604083015111611d3e578160406001930151600435875260026020526040872060208301518852602052611b14604088209182546131a7565b905560408101518151875260026020526040872060208301518852602052611b4160408820918254612e8c565b9055611ba7604051611b5281612c00565b602381527f72657365727665546f526573657276653a207472616e7366657220636f6d706c60208201527f657465000000000000000000000000000000000000000000000000000000000060408201526134d6565b611c0b604051611bb681612c00565b602481527f72657365727665546f526573657276653a206e65772073656e6465722062616c60208201527f616e63650000000000000000000000000000000000000000000000000000000060408201526134d6565b600435865260026020526040862060208201518752602052611c30604087205461357f565b611c94604051611c3f81612c00565b602781527f72657365727665546f526573657276653a206e657720726563697069656e742060208201527f62616c616e63650000000000000000000000000000000000000000000000000060408201526134d6565b8051865260026020526040862060208201518752602052611cb8604087205461357f565b60208101516004358752600260205260408720602083015188526020526040872054906040519182527fab4d21442efe134c3d0c087e2b687e9593a1c09176f498d37873210cde052c459182602060043592a38151906020830151928289526002602052602060408a20910151895260205260206040892054604051908152a301611788565b608460405162461bcd60e51b815260206004820152602160248201527f496e73756666696369656e742062616c616e636520666f72207472616e73666560448201527f72000000000000000000000000000000000000000000000000000000000000006064820152fd5b5067ffffffffffffffff91611dd5916101208101518015159081611e6c575b50611e3d575b505a906131a7565b1660043582526008602052604082209182549167ffffffffffffffff8316019067ffffffffffffffff8211611e29575067ffffffffffffffff169067ffffffffffffffff1916179055602060405160018152f35b80634e487b7160e01b602492526011600452fd5b611e646001611e5a610120611e525a876131a7565b940151612d49565b5001918254612e8c565b905538611dcd565b611e769150612d49565b50546004351438611dc7565b604084360312611eb757604060206024938251611e9e81612bce565b8735815282880135838201528152019401939150611695565b8680fd5b813567ffffffffffffffff8111611eb75761018060243560e481013501820136036023190112611eb757604051908161018081011067ffffffffffffffff6101808401111761079c57610180820160409081526024803560e4810135018301908101358452604481013560208501526064810135918401919091526084810135606084015260a4810135608084015267ffffffffffffffff60c4909101351161209157611f7a366024803560e481013501840160c48101350101612c6e565b60a083015260e460243581810135018201013580151590036120915760e4602435818101350182019081013560c084015261010481013560e084015261012481013561010084015267ffffffffffffffff610144909101351161209157611ff4366024803560e48101350184016101448101350101612f8f565b61012083015267ffffffffffffffff60243560e481013501820161016401351161209157612035366024803560e48101350184016101648101350101612c6e565b61014083015267ffffffffffffffff60243560e481013501820161018401351161209157602492602092839261207e903690873560e48101350101610184810135018701612c6e565b610160820152815201920191905061160b565b8780fd5b813567ffffffffffffffff8111611eb75760c060243560c481013501820136036023190112611eb757604051908160c081011067ffffffffffffffff60c08401111761079c5760c0820160409081526024803560c4810135018301908101358452604481013560208501526064810135918401919091526084810135606084015267ffffffffffffffff60a4909101351161209157612146366024803560c481013501840160a48101350101612c6e565b608083015267ffffffffffffffff60c482816024350135602435010101351161209157602492602092839261218f90369060c48835818101350190910190810135018701612c6e565b60a08201528152019201919050611575565b813567ffffffffffffffff8111611eb75760a060243560a481013501820136036023190112611eb757604051908160a081011067ffffffffffffffff60a08401111761079c5760a082016040526024803560a481013501820190810135835267ffffffffffffffff6044909101351161209157612230366024803560a481013501840160448101350101612f8f565b602083015267ffffffffffffffff60243560a481013501820160640135116120915761226e366024803560a481013501840160648101350101612c6e565b604083015267ffffffffffffffff60243560a48101350182016084013511612091576122ac366024803560a481013501840160848101350101612c6e565b606083015267ffffffffffffffff60a48281602435013560243501010135116120915760249260209283926122f590369060a48835818101350190910190810135018701612c6e565b608082015281520192019190506114df565b813567ffffffffffffffff8111611eb7576080602435608481013501820136036023190112611eb7576040519061233d82612c1c565b6024803560848101350182019081013583526044013567ffffffffffffffff81116124e057366024356084810135018301820160430112156124e057602480356084810135018301820101359061239382612e99565b916123a16040519384612c4c565b80835260208301913660448360071b8388608460243501356024350101010101116124dc5760243560848101350185018101604401925b60448360071b838860846024350135602435010101010184106124925750505050602083015267ffffffffffffffff60243560848101350182016064013511612091576124373660248035608481013501840160648101350101612f2f565b604083015267ffffffffffffffff608482816024350135602435010101351161209157602492602092839261248090369060848835818101350190910190810135018701612c6e565b60608201528152019201919050611449565b6080843603126124d85760206080916040516124ad81612c1c565b86358152828701358382015260408701356040820152606087013560608201528152019301926123d8565b8c80fd5b8b80fd5b8880fd5b813567ffffffffffffffff8111611eb7576060602435606481013501820136036023190112611eb7576040519061251a82612c00565b6064602480358281013501830190810135845260448101356020850152013567ffffffffffffffff81116124e057366024356064810135018301820160430112156124e0576024803560648101350183018201013561257881612e99565b926125866040519485612c4c565b81845260208401923660448460061b8385606460243501356024350101010101116124dc5760243560648101350182018101604401935b60448460061b838560646024350135602435010101010185106125f257505050505060408201528152602091820191016113b3565b6040853603126124d8576020604091825161260c81612bce565b8735815282880135838201528152019401936125bd565b608083360312610561576080602060249260405161264081612c1c565b863581528287013583820152604087013560408201526060870135606082015281520193019290506112d7565b602482634e487b7160e01b81526041600452fd5b50346101c05760403660031901126101c05760043567ffffffffffffffff8111610882576109da6109c67f6a837ff3973aa4181e7b9f07756f8b7ee366dd85a36655d2cb42cd47f10b9638923690600401612c6e565b50346101c05760403660031901126101c05760043567ffffffffffffffff8111610882576109da6109c67f02d93529bba9d141e5e06733c52c7e6fbcb1149586adb5c24064b522ab26f1d7923690600401612c6e565b50346101c05760403660031901126101c05760043567ffffffffffffffff8111610882576127a76127837f62ddffe5b5108385f7a590f100e1ee414ad9551a31f089e64e82998440785e1e923690600401612c6e565b61278b612d03565b6001600160a01b03604051938493604085526040850190612dd4565b911660208301520390a180f35b50346101c0576127c336612ced565b91908082526020926006845260408320818452845260408320549183526005845260408320908352835260408220908154926127fe84612e99565b9361280c6040519586612c4c565b808552858501809483528683208784925b84841061287357505050505060405193604085019060408652518091526060850193915b8181106128545750505082938301520390f35b8251805186528701518786015260409094019391860191600101612841565b60019160029160409a979a5161288881612bce565b855481528486015483820152815201920192019190889097949761281d565b50346101c057806003193601126101c0576040516128c481612c00565b603b815261291e6020917f646562756742756c6b46756e64456e7469746965733a2066756e64696e672065838201527f6e74697469657320312d3230207769746820314d20746f6b656e73000000000060408201526134d6565b6001905b601482111561299057610eda91507f646562756742756c6b46756e64456e7469746965733a2066756e64696e6720636040519161295e83612c00565b602783528201527f6f6d706c6574650000000000000000000000000000000000000000000000000060408201526134d6565b60015b60038111156129ad5750906129a790612e67565b90612922565b828452600280835260408520828652835260408520805490670de0b6b3a764000082018092116107885790612a2293929155848652835260408520818652835280847fab4d21442efe134c3d0c087e2b687e9593a1c09176f498d37873210cde052c45856040892054604051908152a3612e67565b612993565b50346101c057806003193601126101c05760405180916001906001549384845260208094018095600184527fb10e2d527612073b26eecdfd717e6a320cf44b4afac2b0732d9fcbe2b7fa0cf690845b818110612acb5750505081612a8c910382612c4c565b6040519380850191818652518092526040850195925b828110612aaf5785870386f35b83516001600160a01b0316875295810195928101928401612aa2565b82546001600160a01b0316845292870192918601918601612a76565b50346101c05760403660031901126101c05767ffffffffffffffff60043581811161062e57612b1a903690600401612c6e565b9060243590811161062e577fe8407a0209fa99ec3a7228aff140c3d3e68bd279391739c7e0b65cd406cc93b59161106861104661105a933690600401612c6e565b50346101c05760403660031901126101c05760043567ffffffffffffffff811161088257604091612ba86020612b9685943690600401612c6e565b81855193828580945193849201612cca565b810160048152030190206024358252602052206001815491015482519182526020820152f35b6040810190811067ffffffffffffffff821117612bea57604052565b634e487b7160e01b600052604160045260246000fd5b6060810190811067ffffffffffffffff821117612bea57604052565b6080810190811067ffffffffffffffff821117612bea57604052565b67ffffffffffffffff8111612bea57604052565b90601f8019910116810190811067ffffffffffffffff821117612bea57604052565b81601f82011215612cc55780359067ffffffffffffffff8211612bea5760405192612ca3601f8401601f191660200185612c4c565b82845260208383010111612cc557816000926020809301838601378301015290565b600080fd5b60005b838110612cdd5750506000910152565b8181015183820152602001612ccd565b6040906003190112612cc5576004359060243590565b602435906001600160a01b0382168203612cc557565b600435906001600160a01b0382168203612cc557565b6060906003190112612cc557600435906024359060443590565b600954811015612d84576003906009600052027f6e1540171b6c0c960b71a7020d9f60077f6af931a8bbf590da0223dacf75c7af0190600090565b634e487b7160e01b600052603260045260246000fd5b90600182811c92168015612dca575b6020831014612db457565b634e487b7160e01b600052602260045260246000fd5b91607f1691612da9565b90602091612ded81518092818552858086019101612cca565b601f01601f1916010190565b600154811015612d845760016000527fb10e2d527612073b26eecdfd717e6a320cf44b4afac2b0732d9fcbe2b7fa0cf60190600090565b600a54811015612d8457600a6000527fc65a7bb8d6351c1cf70c95a316cc6a92839c986682d98bc35f958f4883f9d2a80190600090565b6000198114612e765760010190565b634e487b7160e01b600052601160045260246000fd5b91908201809211612e7657565b67ffffffffffffffff8111612bea5760051b60200190565b929192612ebd82612e99565b604094612ecd6040519283612c4c565b81958483526020809301916060809602850194818611612cc557925b858410612ef95750505050505050565b8684830312612cc5578487918451612f1081612c00565b8635815282870135838201528587013586820152815201930192612ee9565b9080601f83011215612cc5576020908235612f4981612e99565b93612f576040519586612c4c565b81855260208086019260051b820101928311612cc557602001905b828210612f80575050505090565b81358152908301908301612f72565b919060608084830312612cc557604090815190612fab82612c00565b8195803567ffffffffffffffff90818111612cc55782019186601f84011215612cc5578235602093612fdc82612e99565b91612fe989519384612c4c565b808352858084019160051b830101918a8311612cc55786809101915b8383106131975750505050855282810135828111612cc55787613029918301612f2f565b838601528581013590828211612cc557019086601f83011215612cc55781359061305282612e99565b9761305f8851998a612c4c565b82895284808a019360051b85010193818511612cc557858101935b85851061308d5750505050505050500152565b8435848111612cc557820188601f198286030112612cc5578a51906130b182612c00565b888101356001600160a01b0381168103612cc55782528b810135868111612cc557858a6130e092840101612c6e565b898301528981013590868211612cc5570184603f82011215612cc55780898d92013561311761310e82612e99565b93519384612c4c565b8083528d8c8c8501920283010191878311612cc557908e8c959396949201905b8682106131525750508394508d82015281520194019361307a565b909193959294508c82890312612cc5578b8f91828f93519061317382612c00565b853582528386013584830152808601359082015281520191018b9492959391613137565b8235815291810191879101613005565b91908203918211612e7657565b90919080613360575090604051906131cb82612c00565b33825260208083019060009384835260408101938452600954926801000000000000000084101561333957613207600194858101600955612d49565b92909261334d57906002929151825551848201550192519081519167ffffffffffffffff83116133395761323b8554612d9a565b601f81116132f3575b5081601f841160011461329057509282939183928794613285575b50501b916000199060031b1c19161790555b600954600019810191908211611e29575090565b01519250388061325f565b919083601f1981168789528489209489905b888383106132d957505050106132c0575b505050811b019055613271565b015160001960f88460031b161c191690553880806132b3565b8587015188559096019594850194879350908101906132a2565b858752828720601f850160051c81019184861061332f575b601f0160051c019085905b828110613324575050613244565b888155018590613316565b909150819061330b565b602486634e487b7160e01b81526041600452fd5b602487634e487b7160e01b815280600452fd5b61336981612d49565b5054330361349257600261337c82612d49565b5001835167ffffffffffffffff8111612bea576133998254612d9a565b601f8111613448575b50602080601f83116001146133e1575081929394956000926133d6575b50508160011b916000199060031b1c191617905590565b0151905038806133bf565b90601f19831696846000526020600020926000905b8982106134305750508360019596979810613417575b505050811b01905590565b015160001960f88460031b161c1916905538808061340c565b806001859682949686015181550195019301906133f6565b6000836000526020600020601f840160051c81019260208510613488575b601f0160051c01915b82811061347d5750506133a2565b81815560010161346f565b9092508290613466565b606460405162461bcd60e51b815260206004820152601760248201527f53656e646572206973206e6f7420687562206f776e65720000000000000000006044820152fd5b6000809160405161352b8161351d60208201947f41304fac000000000000000000000000000000000000000000000000000000008652602060248401526044830190612dd4565b03601f198101835282612c4c565b51906a636f6e736f6c652e6c6f675afa50565b6000809160405160208101917f27b7cf8500000000000000000000000000000000000000000000000000000000835260248201526024815261352b81612c00565b6000809160405160208101917ff82c50f100000000000000000000000000000000000000000000000000000000835260248201526024815261352b81612c00565b8051821015612d845760209160051b01019056fea26469706673582212201105864ac725742b540ac79adfbde4d90f901e965c7a070f7621cc2d393b559264736f6c63430008180033",
  "linkReferences": {},
  "deployedLinkReferences": {}
}