{
  "_format": "hh-sol-artifact-1",
  "contractName": "Depository",
  "sourceName": "contracts/Depository.sol",
  "abi": [
    {
      "inputs": [],
      "stateMutability": "nonpayable",
      "type": "constructor"
    },
    {
      "anonymous": false,
      "inputs": [
        {
          "indexed": true,
          "internalType": "address",
          "name": "sender",
          "type": "address"
        },
        {
          "indexed": true,
          "internalType": "address",
          "name": "peer",
          "type": "address"
        },
        {
          "indexed": true,
          "internalType": "uint256",
          "name": "cooperativeNonce",
          "type": "uint256"
        }
      ],
      "name": "CooperativeClose",
      "type": "event"
    },
    {
      "anonymous": false,
      "inputs": [
        {
          "indexed": true,
          "internalType": "address",
          "name": "sender",
          "type": "address"
        },
        {
          "indexed": true,
          "internalType": "address",
          "name": "peer",
          "type": "address"
        },
        {
          "indexed": true,
          "internalType": "uint256",
          "name": "disputeNonce",
          "type": "uint256"
        },
        {
          "indexed": false,
          "internalType": "bytes",
          "name": "initialArguments",
          "type": "bytes"
        }
      ],
      "name": "DisputeStarted",
      "type": "event"
    },
    {
      "anonymous": false,
      "inputs": [
        {
          "indexed": true,
          "internalType": "address",
          "name": "provider",
          "type": "address"
        }
      ],
      "name": "EntityProviderAdded",
      "type": "event"
    },
    {
      "anonymous": false,
      "inputs": [
        {
          "indexed": true,
          "internalType": "address",
          "name": "provider",
          "type": "address"
        }
      ],
      "name": "EntityProviderRemoved",
      "type": "event"
    },
    {
      "anonymous": false,
      "inputs": [
        {
          "indexed": false,
          "internalType": "string",
          "name": "",
          "type": "string"
        },
        {
          "indexed": false,
          "internalType": "address",
          "name": "",
          "type": "address"
        }
      ],
      "name": "LogAddress",
      "type": "event"
    },
    {
      "anonymous": false,
      "inputs": [
        {
          "indexed": false,
          "internalType": "string",
          "name": "",
          "type": "string"
        },
        {
          "indexed": false,
          "internalType": "bool",
          "name": "",
          "type": "bool"
        }
      ],
      "name": "LogBool",
      "type": "event"
    },
    {
      "anonymous": false,
      "inputs": [
        {
          "indexed": false,
          "internalType": "string",
          "name": "",
          "type": "string"
        },
        {
          "indexed": false,
          "internalType": "bytes",
          "name": "",
          "type": "bytes"
        }
      ],
      "name": "LogBytes",
      "type": "event"
    },
    {
      "anonymous": false,
      "inputs": [
        {
          "indexed": false,
          "internalType": "string",
          "name": "",
          "type": "string"
        },
        {
          "indexed": false,
          "internalType": "bytes32",
          "name": "",
          "type": "bytes32"
        }
      ],
      "name": "LogBytes32",
      "type": "event"
    },
    {
      "anonymous": false,
      "inputs": [
        {
          "indexed": false,
          "internalType": "string",
          "name": "",
          "type": "string"
        },
        {
          "indexed": false,
          "internalType": "int256",
          "name": "",
          "type": "int256"
        }
      ],
      "name": "LogInt",
      "type": "event"
    },
    {
      "anonymous": false,
      "inputs": [
        {
          "indexed": false,
          "internalType": "string",
          "name": "",
          "type": "string"
        },
        {
          "indexed": false,
          "internalType": "string",
          "name": "",
          "type": "string"
        }
      ],
      "name": "LogString",
      "type": "event"
    },
    {
      "anonymous": false,
      "inputs": [
        {
          "indexed": false,
          "internalType": "string",
          "name": "",
          "type": "string"
        },
        {
          "indexed": false,
          "internalType": "uint256",
          "name": "",
          "type": "uint256"
        }
      ],
      "name": "LogUint",
      "type": "event"
    },
    {
      "anonymous": false,
      "inputs": [
        {
          "indexed": true,
          "internalType": "address",
          "name": "receiver",
          "type": "address"
        },
        {
          "indexed": true,
          "internalType": "address",
          "name": "addr",
          "type": "address"
        },
        {
          "indexed": false,
          "internalType": "uint256",
          "name": "collateral",
          "type": "uint256"
        },
        {
          "indexed": false,
          "internalType": "int256",
          "name": "ondelta",
          "type": "int256"
        },
        {
          "indexed": false,
          "internalType": "uint256",
          "name": "tokenId",
          "type": "uint256"
        }
      ],
      "name": "TransferReserveToCollateral",
      "type": "event"
    },
    {
      "inputs": [
        {
          "internalType": "address",
          "name": "entity",
          "type": "address"
        }
      ],
      "name": "_activeDebts",
      "outputs": [
        {
          "internalType": "uint256",
          "name": "",
          "type": "uint256"
        }
      ],
      "stateMutability": "view",
      "type": "function"
    },
    {
      "inputs": [
        {
          "internalType": "bytes",
          "name": "channelKey",
          "type": "bytes"
        }
      ],
      "name": "_channels",
      "outputs": [
        {
          "internalType": "uint256",
          "name": "cooperativeNonce",
          "type": "uint256"
        },
        {
          "internalType": "bytes32",
          "name": "disputeHash",
          "type": "bytes32"
        }
      ],
      "stateMutability": "view",
      "type": "function"
    },
    {
      "inputs": [
        {
          "internalType": "bytes",
          "name": "channelKey",
          "type": "bytes"
        },
        {
          "internalType": "uint256",
          "name": "tokenId",
          "type": "uint256"
        }
      ],
      "name": "_collaterals",
      "outputs": [
        {
          "internalType": "uint256",
          "name": "collateral",
          "type": "uint256"
        },
        {
          "internalType": "int256",
          "name": "ondelta",
          "type": "int256"
        }
      ],
      "stateMutability": "view",
      "type": "function"
    },
    {
      "inputs": [
        {
          "internalType": "address",
          "name": "entity",
          "type": "address"
        },
        {
          "internalType": "uint256",
          "name": "tokenId",
          "type": "uint256"
        }
      ],
      "name": "_debtIndex",
      "outputs": [
        {
          "internalType": "uint256",
          "name": "",
          "type": "uint256"
        }
      ],
      "stateMutability": "view",
      "type": "function"
    },
    {
      "inputs": [
        {
          "internalType": "address",
          "name": "entity",
          "type": "address"
        },
        {
          "internalType": "uint256",
          "name": "tokenId",
          "type": "uint256"
        },
        {
          "internalType": "uint256",
          "name": "",
          "type": "uint256"
        }
      ],
      "name": "_debts",
      "outputs": [
        {
          "internalType": "uint256",
          "name": "amount",
          "type": "uint256"
        },
        {
          "internalType": "address",
          "name": "creditor",
          "type": "address"
        }
      ],
      "stateMutability": "view",
      "type": "function"
    },
    {
      "inputs": [
        {
          "internalType": "uint256",
          "name": "",
          "type": "uint256"
        }
      ],
      "name": "_hubs",
      "outputs": [
        {
          "internalType": "address",
          "name": "addr",
          "type": "address"
        },
        {
          "internalType": "uint256",
          "name": "gasused",
          "type": "uint256"
        },
        {
          "internalType": "string",
          "name": "uri",
          "type": "string"
        }
      ],
      "stateMutability": "view",
      "type": "function"
    },
    {
      "inputs": [
        {
          "internalType": "address",
          "name": "entity",
          "type": "address"
        },
        {
          "internalType": "uint256",
          "name": "tokenId",
          "type": "uint256"
        }
      ],
      "name": "_reserves",
      "outputs": [
        {
          "internalType": "uint256",
          "name": "",
          "type": "uint256"
        }
      ],
      "stateMutability": "view",
      "type": "function"
    },
    {
      "inputs": [
        {
          "internalType": "uint256",
          "name": "",
          "type": "uint256"
        }
      ],
      "name": "_tokens",
      "outputs": [
        {
          "internalType": "bytes32",
          "name": "",
          "type": "bytes32"
        }
      ],
      "stateMutability": "view",
      "type": "function"
    },
    {
      "inputs": [
        {
          "internalType": "address",
          "name": "provider",
          "type": "address"
        }
      ],
      "name": "addEntityProvider",
      "outputs": [],
      "stateMutability": "nonpayable",
      "type": "function"
    },
    {
      "inputs": [
        {
          "internalType": "address",
          "name": "",
          "type": "address"
        }
      ],
      "name": "approvedEntityProviders",
      "outputs": [
        {
          "internalType": "bool",
          "name": "",
          "type": "bool"
        }
      ],
      "stateMutability": "view",
      "type": "function"
    },
    {
      "inputs": [
        {
          "internalType": "address",
          "name": "a1",
          "type": "address"
        },
        {
          "internalType": "address",
          "name": "a2",
          "type": "address"
        }
      ],
      "name": "channelKey",
      "outputs": [
        {
          "internalType": "bytes",
          "name": "",
          "type": "bytes"
        }
      ],
      "stateMutability": "pure",
      "type": "function"
    },
    {
      "inputs": [
        {
          "components": [
            {
              "internalType": "address",
              "name": "peer",
              "type": "address"
            },
            {
              "components": [
                {
                  "internalType": "int256[]",
                  "name": "offdeltas",
                  "type": "int256[]"
                },
                {
                  "internalType": "uint256[]",
                  "name": "tokenIds",
                  "type": "uint256[]"
                },
                {
                  "components": [
                    {
                      "internalType": "address",
                      "name": "subcontractProviderAddress",
                      "type": "address"
                    },
                    {
                      "internalType": "bytes",
                      "name": "encodedBatch",
                      "type": "bytes"
                    },
                    {
                      "components": [
                        {
                          "internalType": "uint256",
                          "name": "deltaIndex",
                          "type": "uint256"
                        },
                        {
                          "internalType": "uint256",
                          "name": "rightAllowence",
                          "type": "uint256"
                        },
                        {
                          "internalType": "uint256",
                          "name": "leftAllowence",
                          "type": "uint256"
                        }
                      ],
                      "internalType": "struct Depository.Allowence[]",
                      "name": "allowences",
                      "type": "tuple[]"
                    }
                  ],
                  "internalType": "struct Depository.SubcontractClause[]",
                  "name": "subcontracts",
                  "type": "tuple[]"
                }
              ],
              "internalType": "struct Depository.ProofBody",
              "name": "proofbody",
              "type": "tuple"
            },
            {
              "internalType": "bytes",
              "name": "initialArguments",
              "type": "bytes"
            },
            {
              "internalType": "bytes",
              "name": "finalArguments",
              "type": "bytes"
            },
            {
              "internalType": "bytes",
              "name": "sig",
              "type": "bytes"
            }
          ],
          "internalType": "struct Depository.CooperativeDisputeProof",
          "name": "params",
          "type": "tuple"
        }
      ],
      "name": "cooperativeDisputeProof",
      "outputs": [
        {
          "internalType": "bool",
          "name": "",
          "type": "bool"
        }
      ],
      "stateMutability": "nonpayable",
      "type": "function"
    },
    {
      "inputs": [
        {
          "components": [
            {
              "internalType": "address",
              "name": "peer",
              "type": "address"
            },
            {
              "components": [
                {
                  "internalType": "uint256",
                  "name": "tokenId",
                  "type": "uint256"
                },
                {
                  "internalType": "int256",
                  "name": "peerReserveDiff",
                  "type": "int256"
                },
                {
                  "internalType": "int256",
                  "name": "collateralDiff",
                  "type": "int256"
                },
                {
                  "internalType": "int256",
                  "name": "ondeltaDiff",
                  "type": "int256"
                }
              ],
              "internalType": "struct Depository.Diff[]",
              "name": "diffs",
              "type": "tuple[]"
            },
            {
              "internalType": "uint256[]",
              "name": "forgiveDebtsInTokenIds",
              "type": "uint256[]"
            },
            {
              "internalType": "bytes",
              "name": "sig",
              "type": "bytes"
            }
          ],
          "internalType": "struct Depository.CooperativeUpdate",
          "name": "params",
          "type": "tuple"
        }
      ],
      "name": "cooperativeUpdate",
      "outputs": [
        {
          "internalType": "bool",
          "name": "",
          "type": "bool"
        }
      ],
      "stateMutability": "nonpayable",
      "type": "function"
    },
    {
      "inputs": [
        {
          "internalType": "address",
          "name": "addr",
          "type": "address"
        },
        {
          "internalType": "uint256",
          "name": "tokenId",
          "type": "uint256"
        }
      ],
      "name": "enforceDebts",
      "outputs": [
        {
          "internalType": "uint256",
          "name": "totalDebts",
          "type": "uint256"
        }
      ],
      "stateMutability": "nonpayable",
      "type": "function"
    },
    {
      "inputs": [
        {
          "internalType": "uint256",
          "name": "",
          "type": "uint256"
        }
      ],
      "name": "entityProvidersList",
      "outputs": [
        {
          "internalType": "address",
          "name": "",
          "type": "address"
        }
      ],
      "stateMutability": "view",
      "type": "function"
    },
    {
      "inputs": [
        {
          "components": [
            {
              "internalType": "bytes32",
              "name": "packedToken",
              "type": "bytes32"
            },
            {
              "internalType": "uint256",
              "name": "internalTokenId",
              "type": "uint256"
            },
            {
              "internalType": "uint256",
              "name": "amount",
              "type": "uint256"
            }
          ],
          "internalType": "struct Depository.ExternalTokenToReserve",
          "name": "params",
          "type": "tuple"
        }
      ],
      "name": "externalTokenToReserve",
      "outputs": [],
      "stateMutability": "nonpayable",
      "type": "function"
    },
    {
      "inputs": [
        {
          "components": [
            {
              "internalType": "address",
              "name": "peer",
              "type": "address"
            },
            {
              "internalType": "uint256",
              "name": "initialCooperativeNonce",
              "type": "uint256"
            },
            {
              "internalType": "uint256",
              "name": "initialDisputeNonce",
              "type": "uint256"
            },
            {
              "internalType": "uint256",
              "name": "disputeUntilBlock",
              "type": "uint256"
            },
            {
              "internalType": "bytes32",
              "name": "initialProofbodyHash",
              "type": "bytes32"
            },
            {
              "internalType": "bytes",
              "name": "initialArguments",
              "type": "bytes"
            },
            {
              "internalType": "bool",
              "name": "startedByLeft",
              "type": "bool"
            },
            {
              "internalType": "uint256",
              "name": "finalCooperativeNonce",
              "type": "uint256"
            },
            {
              "internalType": "uint256",
              "name": "finalDisputeNonce",
              "type": "uint256"
            },
            {
              "components": [
                {
                  "internalType": "int256[]",
                  "name": "offdeltas",
                  "type": "int256[]"
                },
                {
                  "internalType": "uint256[]",
                  "name": "tokenIds",
                  "type": "uint256[]"
                },
                {
                  "components": [
                    {
                      "internalType": "address",
                      "name": "subcontractProviderAddress",
                      "type": "address"
                    },
                    {
                      "internalType": "bytes",
                      "name": "encodedBatch",
                      "type": "bytes"
                    },
                    {
                      "components": [
                        {
                          "internalType": "uint256",
                          "name": "deltaIndex",
                          "type": "uint256"
                        },
                        {
                          "internalType": "uint256",
                          "name": "rightAllowence",
                          "type": "uint256"
                        },
                        {
                          "internalType": "uint256",
                          "name": "leftAllowence",
                          "type": "uint256"
                        }
                      ],
                      "internalType": "struct Depository.Allowence[]",
                      "name": "allowences",
                      "type": "tuple[]"
                    }
                  ],
                  "internalType": "struct Depository.SubcontractClause[]",
                  "name": "subcontracts",
                  "type": "tuple[]"
                }
              ],
              "internalType": "struct Depository.ProofBody",
              "name": "finalProofbody",
              "type": "tuple"
            },
            {
              "internalType": "bytes",
              "name": "finalArguments",
              "type": "bytes"
            },
            {
              "internalType": "bytes",
              "name": "sig",
              "type": "bytes"
            }
          ],
          "internalType": "struct Depository.FinalDisputeProof",
          "name": "params",
          "type": "tuple"
        }
      ],
      "name": "finalDisputeProof",
      "outputs": [
        {
          "internalType": "bool",
          "name": "",
          "type": "bool"
        }
      ],
      "stateMutability": "nonpayable",
      "type": "function"
    },
    {
      "inputs": [
        {
          "internalType": "address",
          "name": "entity1",
          "type": "address"
        },
        {
          "internalType": "address",
          "name": "entity2",
          "type": "address"
        },
        {
          "components": [
            {
              "internalType": "int256[]",
              "name": "offdeltas",
              "type": "int256[]"
            },
            {
              "internalType": "uint256[]",
              "name": "tokenIds",
              "type": "uint256[]"
            },
            {
              "components": [
                {
                  "internalType": "address",
                  "name": "subcontractProviderAddress",
                  "type": "address"
                },
                {
                  "internalType": "bytes",
                  "name": "encodedBatch",
                  "type": "bytes"
                },
                {
                  "components": [
                    {
                      "internalType": "uint256",
                      "name": "deltaIndex",
                      "type": "uint256"
                    },
                    {
                      "internalType": "uint256",
                      "name": "rightAllowence",
                      "type": "uint256"
                    },
                    {
                      "internalType": "uint256",
                      "name": "leftAllowence",
                      "type": "uint256"
                    }
                  ],
                  "internalType": "struct Depository.Allowence[]",
                  "name": "allowences",
                  "type": "tuple[]"
                }
              ],
              "internalType": "struct Depository.SubcontractClause[]",
              "name": "subcontracts",
              "type": "tuple[]"
            }
          ],
          "internalType": "struct Depository.ProofBody",
          "name": "proofbody",
          "type": "tuple"
        },
        {
          "internalType": "bytes",
          "name": "arguments1",
          "type": "bytes"
        },
        {
          "internalType": "bytes",
          "name": "arguments2",
          "type": "bytes"
        }
      ],
      "name": "finalizeChannel",
      "outputs": [
        {
          "internalType": "bool",
          "name": "",
          "type": "bool"
        }
      ],
      "stateMutability": "nonpayable",
      "type": "function"
    },
    {
      "inputs": [],
      "name": "getApprovedProviders",
      "outputs": [
        {
          "internalType": "address[]",
          "name": "",
          "type": "address[]"
        }
      ],
      "stateMutability": "view",
      "type": "function"
    },
    {
      "inputs": [
        {
          "internalType": "address",
          "name": "addr",
          "type": "address"
        },
        {
          "internalType": "address[]",
          "name": "peers",
          "type": "address[]"
        },
        {
          "internalType": "uint256[]",
          "name": "tokenIds",
          "type": "uint256[]"
        }
      ],
      "name": "getChannels",
      "outputs": [
        {
          "components": [
            {
              "components": [
                {
                  "internalType": "uint256",
                  "name": "cooperativeNonce",
                  "type": "uint256"
                },
                {
                  "internalType": "bytes32",
                  "name": "disputeHash",
                  "type": "bytes32"
                }
              ],
              "internalType": "struct Depository.ChannelInfo",
              "name": "channel",
              "type": "tuple"
            },
            {
              "components": [
                {
                  "internalType": "uint256",
                  "name": "collateral",
                  "type": "uint256"
                },
                {
                  "internalType": "int256",
                  "name": "ondelta",
                  "type": "int256"
                }
              ],
              "internalType": "struct Depository.ChannelCollateral[]",
              "name": "collaterals",
              "type": "tuple[]"
            }
          ],
          "internalType": "struct Depository.ChannelReturn[]",
          "name": "response",
          "type": "tuple[]"
        }
      ],
      "stateMutability": "view",
      "type": "function"
    },
    {
      "inputs": [
        {
          "internalType": "address",
          "name": "addr",
          "type": "address"
        },
        {
          "internalType": "uint256",
          "name": "tokenId",
          "type": "uint256"
        }
      ],
      "name": "getDebts",
      "outputs": [
        {
          "components": [
            {
              "internalType": "uint256",
              "name": "amount",
              "type": "uint256"
            },
            {
              "internalType": "address",
              "name": "creditor",
              "type": "address"
            }
          ],
          "internalType": "struct Depository.Debt[]",
          "name": "allDebts",
          "type": "tuple[]"
        },
        {
          "internalType": "uint256",
          "name": "currentDebtIndex",
          "type": "uint256"
        }
      ],
      "stateMutability": "view",
      "type": "function"
    },
    {
      "inputs": [],
      "name": "getTokensLength",
      "outputs": [
        {
          "internalType": "uint256",
          "name": "",
          "type": "uint256"
        }
      ],
      "stateMutability": "view",
      "type": "function"
    },
    {
      "inputs": [
        {
          "internalType": "address[]",
          "name": "addrs",
          "type": "address[]"
        },
        {
          "internalType": "uint256[]",
          "name": "tokenIds",
          "type": "uint256[]"
        }
      ],
      "name": "getUsers",
      "outputs": [
        {
          "components": [
            {
              "internalType": "uint256",
              "name": "ETH_balance",
              "type": "uint256"
            },
            {
              "components": [
                {
                  "internalType": "uint256",
                  "name": "reserve",
                  "type": "uint256"
                },
                {
                  "internalType": "uint256",
                  "name": "debtIndex",
                  "type": "uint256"
                },
                {
                  "components": [
                    {
                      "internalType": "uint256",
                      "name": "amount",
                      "type": "uint256"
                    },
                    {
                      "internalType": "address",
                      "name": "creditor",
                      "type": "address"
                    }
                  ],
                  "internalType": "struct Depository.Debt[]",
                  "name": "debts",
                  "type": "tuple[]"
                }
              ],
              "internalType": "struct Depository.TokenReserveDebts[]",
              "name": "tokens",
              "type": "tuple[]"
            }
          ],
          "internalType": "struct Depository.UserReturn[]",
          "name": "response",
          "type": "tuple[]"
        }
      ],
      "stateMutability": "view",
      "type": "function"
    },
    {
      "inputs": [
        {
          "components": [
            {
              "internalType": "address",
              "name": "peer",
              "type": "address"
            },
            {
              "internalType": "uint256",
              "name": "cooperativeNonce",
              "type": "uint256"
            },
            {
              "internalType": "uint256",
              "name": "disputeNonce",
              "type": "uint256"
            },
            {
              "internalType": "bytes32",
              "name": "proofbodyHash",
              "type": "bytes32"
            },
            {
              "internalType": "bytes",
              "name": "sig",
              "type": "bytes"
            },
            {
              "internalType": "bytes",
              "name": "initialArguments",
              "type": "bytes"
            }
          ],
          "internalType": "struct Depository.InitialDisputeProof",
          "name": "params",
          "type": "tuple"
        }
      ],
      "name": "initialDisputeProof",
      "outputs": [
        {
          "internalType": "bool",
          "name": "",
          "type": "bool"
        }
      ],
      "stateMutability": "nonpayable",
      "type": "function"
    },
    {
      "inputs": [
        {
          "internalType": "string",
          "name": "s",
          "type": "string"
        },
        {
          "internalType": "bytes",
          "name": "x",
          "type": "bytes"
        }
      ],
      "name": "log",
      "outputs": [],
      "stateMutability": "nonpayable",
      "type": "function"
    },
    {
      "inputs": [
        {
          "internalType": "string",
          "name": "s",
          "type": "string"
        },
        {
          "internalType": "address",
          "name": "x",
          "type": "address"
        }
      ],
      "name": "log",
      "outputs": [],
      "stateMutability": "nonpayable",
      "type": "function"
    },
    {
      "inputs": [
        {
          "internalType": "string",
          "name": "s",
          "type": "string"
        },
        {
          "internalType": "bytes32",
          "name": "x",
          "type": "bytes32"
        }
      ],
      "name": "log",
      "outputs": [],
      "stateMutability": "nonpayable",
      "type": "function"
    },
    {
      "inputs": [
        {
          "internalType": "string",
          "name": "s",
          "type": "string"
        },
        {
          "internalType": "int256",
          "name": "x",
          "type": "int256"
        }
      ],
      "name": "log",
      "outputs": [],
      "stateMutability": "nonpayable",
      "type": "function"
    },
    {
      "inputs": [
        {
          "internalType": "string",
          "name": "s",
          "type": "string"
        },
        {
          "internalType": "string",
          "name": "x",
          "type": "string"
        }
      ],
      "name": "log",
      "outputs": [],
      "stateMutability": "nonpayable",
      "type": "function"
    },
    {
      "inputs": [
        {
          "internalType": "string",
          "name": "s",
          "type": "string"
        },
        {
          "internalType": "uint256",
          "name": "x",
          "type": "uint256"
        }
      ],
      "name": "log",
      "outputs": [],
      "stateMutability": "nonpayable",
      "type": "function"
    },
    {
      "inputs": [
        {
          "internalType": "string",
          "name": "s",
          "type": "string"
        },
        {
          "internalType": "bool",
          "name": "x",
          "type": "bool"
        }
      ],
      "name": "log",
      "outputs": [],
      "stateMutability": "nonpayable",
      "type": "function"
    },
    {
      "inputs": [
        {
          "internalType": "address",
          "name": "a1",
          "type": "address"
        },
        {
          "internalType": "address",
          "name": "a2",
          "type": "address"
        }
      ],
      "name": "logChannel",
      "outputs": [],
      "stateMutability": "nonpayable",
      "type": "function"
    },
    {
      "inputs": [
        {
          "internalType": "address",
          "name": "operator",
          "type": "address"
        },
        {
          "internalType": "address",
          "name": "from",
          "type": "address"
        },
        {
          "internalType": "uint256",
          "name": "id",
          "type": "uint256"
        },
        {
          "internalType": "uint256",
          "name": "value",
          "type": "uint256"
        },
        {
          "internalType": "bytes",
          "name": "data",
          "type": "bytes"
        }
      ],
      "name": "onERC1155Received",
      "outputs": [
        {
          "internalType": "bytes4",
          "name": "",
          "type": "bytes4"
        }
      ],
      "stateMutability": "nonpayable",
      "type": "function"
    },
    {
      "inputs": [
        {
          "internalType": "uint8",
          "name": "tokenType",
          "type": "uint8"
        },
        {
          "internalType": "address",
          "name": "contractAddress",
          "type": "address"
        },
        {
          "internalType": "uint96",
          "name": "externalTokenId",
          "type": "uint96"
        }
      ],
      "name": "packTokenReference",
      "outputs": [
        {
          "internalType": "bytes32",
          "name": "",
          "type": "bytes32"
        }
      ],
      "stateMutability": "pure",
      "type": "function"
    },
    {
      "inputs": [
        {
          "components": [
            {
              "components": [
                {
                  "internalType": "address",
                  "name": "receiver",
                  "type": "address"
                },
                {
                  "internalType": "uint256",
                  "name": "tokenId",
                  "type": "uint256"
                },
                {
                  "internalType": "uint256",
                  "name": "amount",
                  "type": "uint256"
                }
              ],
              "internalType": "struct Depository.ReserveToExternalToken[]",
              "name": "reserveToExternalToken",
              "type": "tuple[]"
            },
            {
              "components": [
                {
                  "internalType": "bytes32",
                  "name": "packedToken",
                  "type": "bytes32"
                },
                {
                  "internalType": "uint256",
                  "name": "internalTokenId",
                  "type": "uint256"
                },
                {
                  "internalType": "uint256",
                  "name": "amount",
                  "type": "uint256"
                }
              ],
              "internalType": "struct Depository.ExternalTokenToReserve[]",
              "name": "externalTokenToReserve",
              "type": "tuple[]"
            },
            {
              "components": [
                {
                  "internalType": "address",
                  "name": "receiver",
                  "type": "address"
                },
                {
                  "internalType": "uint256",
                  "name": "tokenId",
                  "type": "uint256"
                },
                {
                  "internalType": "uint256",
                  "name": "amount",
                  "type": "uint256"
                }
              ],
              "internalType": "struct Depository.ReserveToReserve[]",
              "name": "reserveToReserve",
              "type": "tuple[]"
            },
            {
              "components": [
                {
                  "internalType": "uint256",
                  "name": "tokenId",
                  "type": "uint256"
                },
                {
                  "internalType": "address",
                  "name": "receiver",
                  "type": "address"
                },
                {
                  "components": [
                    {
                      "internalType": "address",
                      "name": "addr",
                      "type": "address"
                    },
                    {
                      "internalType": "uint256",
                      "name": "amount",
                      "type": "uint256"
                    }
                  ],
                  "internalType": "struct Depository.AddrAmountPair[]",
                  "name": "pairs",
                  "type": "tuple[]"
                }
              ],
              "internalType": "struct Depository.ReserveToCollateral[]",
              "name": "reserveToCollateral",
              "type": "tuple[]"
            },
            {
              "components": [
                {
                  "internalType": "address",
                  "name": "peer",
                  "type": "address"
                },
                {
                  "components": [
                    {
                      "internalType": "uint256",
                      "name": "tokenId",
                      "type": "uint256"
                    },
                    {
                      "internalType": "int256",
                      "name": "peerReserveDiff",
                      "type": "int256"
                    },
                    {
                      "internalType": "int256",
                      "name": "collateralDiff",
                      "type": "int256"
                    },
                    {
                      "internalType": "int256",
                      "name": "ondeltaDiff",
                      "type": "int256"
                    }
                  ],
                  "internalType": "struct Depository.Diff[]",
                  "name": "diffs",
                  "type": "tuple[]"
                },
                {
                  "internalType": "uint256[]",
                  "name": "forgiveDebtsInTokenIds",
                  "type": "uint256[]"
                },
                {
                  "internalType": "bytes",
                  "name": "sig",
                  "type": "bytes"
                }
              ],
              "internalType": "struct Depository.CooperativeUpdate[]",
              "name": "cooperativeUpdate",
              "type": "tuple[]"
            },
            {
              "components": [
                {
                  "internalType": "address",
                  "name": "peer",
                  "type": "address"
                },
                {
                  "components": [
                    {
                      "internalType": "int256[]",
                      "name": "offdeltas",
                      "type": "int256[]"
                    },
                    {
                      "internalType": "uint256[]",
                      "name": "tokenIds",
                      "type": "uint256[]"
                    },
                    {
                      "components": [
                        {
                          "internalType": "address",
                          "name": "subcontractProviderAddress",
                          "type": "address"
                        },
                        {
                          "internalType": "bytes",
                          "name": "encodedBatch",
                          "type": "bytes"
                        },
                        {
                          "components": [
                            {
                              "internalType": "uint256",
                              "name": "deltaIndex",
                              "type": "uint256"
                            },
                            {
                              "internalType": "uint256",
                              "name": "rightAllowence",
                              "type": "uint256"
                            },
                            {
                              "internalType": "uint256",
                              "name": "leftAllowence",
                              "type": "uint256"
                            }
                          ],
                          "internalType": "struct Depository.Allowence[]",
                          "name": "allowences",
                          "type": "tuple[]"
                        }
                      ],
                      "internalType": "struct Depository.SubcontractClause[]",
                      "name": "subcontracts",
                      "type": "tuple[]"
                    }
                  ],
                  "internalType": "struct Depository.ProofBody",
                  "name": "proofbody",
                  "type": "tuple"
                },
                {
                  "internalType": "bytes",
                  "name": "initialArguments",
                  "type": "bytes"
                },
                {
                  "internalType": "bytes",
                  "name": "finalArguments",
                  "type": "bytes"
                },
                {
                  "internalType": "bytes",
                  "name": "sig",
                  "type": "bytes"
                }
              ],
              "internalType": "struct Depository.CooperativeDisputeProof[]",
              "name": "cooperativeDisputeProof",
              "type": "tuple[]"
            },
            {
              "components": [
                {
                  "internalType": "address",
                  "name": "peer",
                  "type": "address"
                },
                {
                  "internalType": "uint256",
                  "name": "cooperativeNonce",
                  "type": "uint256"
                },
                {
                  "internalType": "uint256",
                  "name": "disputeNonce",
                  "type": "uint256"
                },
                {
                  "internalType": "bytes32",
                  "name": "proofbodyHash",
                  "type": "bytes32"
                },
                {
                  "internalType": "bytes",
                  "name": "sig",
                  "type": "bytes"
                },
                {
                  "internalType": "bytes",
                  "name": "initialArguments",
                  "type": "bytes"
                }
              ],
              "internalType": "struct Depository.InitialDisputeProof[]",
              "name": "initialDisputeProof",
              "type": "tuple[]"
            },
            {
              "components": [
                {
                  "internalType": "address",
                  "name": "peer",
                  "type": "address"
                },
                {
                  "internalType": "uint256",
                  "name": "initialCooperativeNonce",
                  "type": "uint256"
                },
                {
                  "internalType": "uint256",
                  "name": "initialDisputeNonce",
                  "type": "uint256"
                },
                {
                  "internalType": "uint256",
                  "name": "disputeUntilBlock",
                  "type": "uint256"
                },
                {
                  "internalType": "bytes32",
                  "name": "initialProofbodyHash",
                  "type": "bytes32"
                },
                {
                  "internalType": "bytes",
                  "name": "initialArguments",
                  "type": "bytes"
                },
                {
                  "internalType": "bool",
                  "name": "startedByLeft",
                  "type": "bool"
                },
                {
                  "internalType": "uint256",
                  "name": "finalCooperativeNonce",
                  "type": "uint256"
                },
                {
                  "internalType": "uint256",
                  "name": "finalDisputeNonce",
                  "type": "uint256"
                },
                {
                  "components": [
                    {
                      "internalType": "int256[]",
                      "name": "offdeltas",
                      "type": "int256[]"
                    },
                    {
                      "internalType": "uint256[]",
                      "name": "tokenIds",
                      "type": "uint256[]"
                    },
                    {
                      "components": [
                        {
                          "internalType": "address",
                          "name": "subcontractProviderAddress",
                          "type": "address"
                        },
                        {
                          "internalType": "bytes",
                          "name": "encodedBatch",
                          "type": "bytes"
                        },
                        {
                          "components": [
                            {
                              "internalType": "uint256",
                              "name": "deltaIndex",
                              "type": "uint256"
                            },
                            {
                              "internalType": "uint256",
                              "name": "rightAllowence",
                              "type": "uint256"
                            },
                            {
                              "internalType": "uint256",
                              "name": "leftAllowence",
                              "type": "uint256"
                            }
                          ],
                          "internalType": "struct Depository.Allowence[]",
                          "name": "allowences",
                          "type": "tuple[]"
                        }
                      ],
                      "internalType": "struct Depository.SubcontractClause[]",
                      "name": "subcontracts",
                      "type": "tuple[]"
                    }
                  ],
                  "internalType": "struct Depository.ProofBody",
                  "name": "finalProofbody",
                  "type": "tuple"
                },
                {
                  "internalType": "bytes",
                  "name": "finalArguments",
                  "type": "bytes"
                },
                {
                  "internalType": "bytes",
                  "name": "sig",
                  "type": "bytes"
                }
              ],
              "internalType": "struct Depository.FinalDisputeProof[]",
              "name": "finalDisputeProof",
              "type": "tuple[]"
            },
            {
              "components": [
                {
                  "internalType": "uint256",
                  "name": "tokenId",
                  "type": "uint256"
                },
                {
                  "internalType": "uint256",
                  "name": "amount",
                  "type": "uint256"
                }
              ],
              "internalType": "struct Depository.TokenAmountPair[]",
              "name": "flashloans",
              "type": "tuple[]"
            },
            {
              "internalType": "uint256",
              "name": "hub_id",
              "type": "uint256"
            }
          ],
          "internalType": "struct Depository.Batch",
          "name": "batch",
          "type": "tuple"
        }
      ],
      "name": "processBatch",
      "outputs": [
        {
          "internalType": "bool",
          "name": "completeSuccess",
          "type": "bool"
        }
      ],
      "stateMutability": "nonpayable",
      "type": "function"
    },
    {
      "inputs": [
        {
          "internalType": "bytes",
          "name": "encodedBatch",
          "type": "bytes"
        },
        {
          "internalType": "address",
          "name": "entityProvider",
          "type": "address"
        },
        {
          "internalType": "uint256",
          "name": "entityNumber",
          "type": "uint256"
        },
        {
          "internalType": "bytes",
          "name": "encodedBoard",
          "type": "bytes"
        },
        {
          "internalType": "bytes",
          "name": "encodedSignature",
          "type": "bytes"
        }
      ],
      "name": "processBatchAsEntity",
      "outputs": [
        {
          "internalType": "bool",
          "name": "completeSuccess",
          "type": "bool"
        }
      ],
      "stateMutability": "nonpayable",
      "type": "function"
    },
    {
      "inputs": [
        {
          "internalType": "uint256",
          "name": "hub_id",
          "type": "uint256"
        },
        {
          "internalType": "string",
          "name": "new_uri",
          "type": "string"
        }
      ],
      "name": "registerHub",
      "outputs": [
        {
          "internalType": "uint256",
          "name": "",
          "type": "uint256"
        }
      ],
      "stateMutability": "nonpayable",
      "type": "function"
    },
    {
      "inputs": [
        {
          "internalType": "address",
          "name": "provider",
          "type": "address"
        }
      ],
      "name": "removeEntityProvider",
      "outputs": [],
      "stateMutability": "nonpayable",
      "type": "function"
    },
    {
      "inputs": [
        {
          "components": [
            {
              "internalType": "uint256",
              "name": "tokenId",
              "type": "uint256"
            },
            {
              "internalType": "address",
              "name": "receiver",
              "type": "address"
            },
            {
              "components": [
                {
                  "internalType": "address",
                  "name": "addr",
                  "type": "address"
                },
                {
                  "internalType": "uint256",
                  "name": "amount",
                  "type": "uint256"
                }
              ],
              "internalType": "struct Depository.AddrAmountPair[]",
              "name": "pairs",
              "type": "tuple[]"
            }
          ],
          "internalType": "struct Depository.ReserveToCollateral",
          "name": "params",
          "type": "tuple"
        }
      ],
      "name": "reserveToCollateral",
      "outputs": [
        {
          "internalType": "bool",
          "name": "completeSuccess",
          "type": "bool"
        }
      ],
      "stateMutability": "nonpayable",
      "type": "function"
    },
    {
      "inputs": [
        {
          "components": [
            {
              "internalType": "address",
              "name": "receiver",
              "type": "address"
            },
            {
              "internalType": "uint256",
              "name": "tokenId",
              "type": "uint256"
            },
            {
              "internalType": "uint256",
              "name": "amount",
              "type": "uint256"
            }
          ],
          "internalType": "struct Depository.ReserveToExternalToken",
          "name": "params",
          "type": "tuple"
        }
      ],
      "name": "reserveToExternalToken",
      "outputs": [],
      "stateMutability": "nonpayable",
      "type": "function"
    },
    {
      "inputs": [
        {
          "components": [
            {
              "internalType": "address",
              "name": "receiver",
              "type": "address"
            },
            {
              "internalType": "uint256",
              "name": "tokenId",
              "type": "uint256"
            },
            {
              "internalType": "uint256",
              "name": "amount",
              "type": "uint256"
            }
          ],
          "internalType": "struct Depository.ReserveToReserve",
          "name": "params",
          "type": "tuple"
        }
      ],
      "name": "reserveToReserve",
      "outputs": [],
      "stateMutability": "nonpayable",
      "type": "function"
    },
    {
      "inputs": [
        {
          "internalType": "bytes32",
          "name": "packed",
          "type": "bytes32"
        }
      ],
      "name": "unpackTokenReference",
      "outputs": [
        {
          "internalType": "address",
          "name": "contractAddress",
          "type": "address"
        },
        {
          "internalType": "uint96",
          "name": "externalTokenId",
          "type": "uint96"
        },
        {
          "internalType": "uint8",
          "name": "tokenType",
          "type": "uint8"
        }
      ],
      "stateMutability": "pure",
      "type": "function"
    }
  ],
  "bytecode": "0x608034620002cb57600954680100000000000000009182821015620002b5576001808301806009558310156200029f57600960009081527f6e1540171b6c0c960b71a7020d9f60077f6af931a8bbf590da0223dacf75c7af9093018390556020926001600160401b039260608101848111828210176200028b576040528181528481018281526040519686880188811087821117620002775760405283885260408301978852600854908110156200026357848101806008558110156200024f5790600292916008855260038886209102019160018060a01b0390511660018060a01b0319835416178255518482015501945180519384116200023b5785548381811c9116801562000230575b868210146200021c57601f8111620001d1575b508491601f85116001146200016a5793945084929190836200015e575b50501b916000199060031b1c19161790555b604051615b649081620002d18239f35b0151925038806200013c565b86815285812093958591601f198316915b88838310620001b657505050106200019c575b505050811b0190556200014e565b015160001960f88460031b161c191690553880806200018e565b8587015188559096019594850194879350908101906200017b565b868352858320601f860160051c81019187871062000211575b601f0160051c019084905b828110620002055750506200011f565b848155018490620001f5565b9091508190620001ea565b634e487b7160e01b83526022600452602483fd5b90607f16906200010c565b634e487b7160e01b82526041600452602482fd5b634e487b7160e01b84526032600452602484fd5b634e487b7160e01b84526041600452602484fd5b634e487b7160e01b85526041600452602485fd5b634e487b7160e01b83526041600452602483fd5b634e487b7160e01b600052603260045260246000fd5b634e487b7160e01b600052604160045260246000fd5b600080fdfe6080604052600436101561001257600080fd5b60003560e01c806304aaa1e1146102b75780630dedd624146102b25780631e1c13b3146102ad57806323cdd8e8146102a8578063266afe1b146102a35780632cfaaa7a1461029e578063319af333146102995780633692d61a146102945780633c4deb111461028f5780633ca6268e1461028a5780633ee01625146102855780634109eedf146102805780634b5c42771461027b57806356e447af1461027657806358d642bc1461027157806376ace7731461026c5780637aa6422f14610267578063805bd6971461026257806392cf61e51461025d5780639645ee1014610258578063a034af4214610253578063a09fd42b1461024e578063a56c7bf714610249578063a7d074de14610244578063abc8d1ac1461023f578063b0c26ecf1461023a578063b60e72cc14610235578063bb2c250c14610230578063bf52638c1461022b578063bfa4b7d914610226578063c3b5563514610221578063d1cb4dc31461021c578063d7f6d87414610217578063db5772f514610212578063ddc394801461020d578063e479f93d14610208578063ec6d8e0614610203578063ed70554d146101fe578063f23a6e61146101f9578063fb552dca146101f4578063fe4ece54146101ef5763ffc9fd47146101ea57600080fd5b61287a565b612785565b61273d565b6126ce565b61267d565b612623565b61257a565b6123d2565b6121ae565b612134565b6120f9565b611f74565b611f26565b611f04565b611e7e565b611e41565b611e23565b611de4565b611d9c565b611d61565b611bdc565b611b04565b611946565b611747565b61170c565b6115c0565b611488565b611377565b6112f5565b61122d565b6111fe565b611136565b6110e1565b6110a0565b610ff4565b610fb2565b610f1a565b610baf565b610b51565b6108ec565b610861565b610485565b634e487b7160e01b600052604160045260246000fd5b6060810190811067ffffffffffffffff8211176102ee57604052565b6102bc565b67ffffffffffffffff81116102ee57604052565b6040810190811067ffffffffffffffff8211176102ee57604052565b6080810190811067ffffffffffffffff8211176102ee57604052565b90601f8019910116810190811067ffffffffffffffff8211176102ee57604052565b60405190610180820182811067ffffffffffffffff8211176102ee57604052565b6040519061038f82610307565b565b6040519061038f826102d2565b6040519060a0820182811067ffffffffffffffff8211176102ee57604052565b6040519060c0820182811067ffffffffffffffff8211176102ee57604052565b60405190610140820182811067ffffffffffffffff8211176102ee57604052565b600435906001600160a01b038216820361041557565b600080fd5b602435906001600160a01b038216820361041557565b35906001600160a01b038216820361041557565b6060906003190112610415576040519061045d826102d2565b816004356001600160a01b038116810361041557815260243560208201526040604435910152565b346104155760603660031901126104155761049f36610444565b602081016104ae8151336136b7565b5060ff6104e86104cb6104c184516125b5565b90549060031b1c90565b8060601c9160ff6affffffffffffffffffffff8360081c16921690565b61051c61050c94929394336001600160a01b03166000526002602052604060002090565b8651600052602052604060002090565b549461052f6040880196875111156129b1565b61056d610565875192610555336001600160a01b03166000526002602052604060002090565b9051600052602052604060002090565b918254612a26565b9055168061063a5750509060209161058f6105e794516001600160a01b031690565b91519160006001600160a01b036040518097819682957fa9059cbb00000000000000000000000000000000000000000000000000000000845260048401602090939291936001600160a01b0360408201951681520152565b0393165af180156106355761060491600091610606575b50612a54565b005b610628915060203d60201161062e575b610620818361033f565b810190612a3f565b386105fe565b503d610616565b612a33565b90929190600181036106d2575061066391506001600160a01b031692516001600160a01b031690565b823b15610415576040516323b872dd60e01b81523060048201526001600160a01b039190911660248201526bffffffffffffffffffffffff919091166044820152906000908290606490829084905af18015610635576106bf57005b806106cc610604926102f3565b80610ba4565b6002146106db57005b6001600160a01b036106f6911693516001600160a01b031690565b905192803b1561041557604051637921219560e11b81523060048201526001600160a01b039290921660248301526bffffffffffffffffffffffff929092166044820152606481019290925260a06084830152600060a4830181905290829060c490829084905af18015610635576106bf57005b67ffffffffffffffff81116102ee57601f01601f191660200190565b9291926107928261076a565b916107a0604051938461033f565b829481845281830111610415578281602093846000960137010152565b9080601f83011215610415578160206107d893359101610786565b90565b60005b8381106107ee5750506000910152565b81810151838201526020016107de565b90610811602092828151948592016107db565b0190565b602061082e9181604051938285809451938492016107db565b8101600481520301902090565b60206108549181604051938285809451938492016107db565b8101600381520301902090565b346104155760403660031901126104155760043567ffffffffffffffff81116104155761089561089a9136906004016107bd565b610815565b6024356000526020526040806000206001815491015482519182526020820152f35b606090600319011261041557604051906108d5826102d2565b600435825260243560208301526044356040830152565b3461041557606036600319011261041557610906366108bc565b602081019081518015600014610b3e57506109218151612a5b565b61092c600954612a12565b82525b60ff61095382518060601c9160ff6affffffffffffffffffffff8360081c16921690565b90921680610a09575060408381015190516323b872dd60e01b815233600482015230602482015260448101919091529150602090829060649082906000906001600160a01b03165af18015610635576109e6926109be6040926109de946000916109ea575b50612aa8565b015192610555336001600160a01b03166000526002602052604060002090565b918254612b0f565b9055005b610a03915060203d60201161062e57610620818361033f565b386109b8565b60018103610a8e57506001600160a01b0316803b15610415576040516323b872dd60e01b81523360048201523060248201526bffffffffffffffffffffffff9290921660448301526000908290606490829084905af18015610635576109e6926109de92604092610a7b575b506109be565b806106cc610a88926102f3565b38610a75565b600214610aa6575b50506109de60406109e6926109be565b6001600160a01b0316906040830151823b1561041557604051637921219560e11b81523360048201523060248201526bffffffffffffffffffffffff929092166044830152606482015260a06084820152600060a482018190529091829060c490829084905af18015610635576109e6926109de92604092610b2b575b509250610a96565b806106cc610b38926102f3565b38610b23565b6104c1610b4a916125b5565b815261092f565b346104155760403660031901126104155767ffffffffffffffff60043581811161041557610b839036906004016107bd565b60243591821161041557610b9e6106049236906004016107bd565b90612b1c565b600091031261041557565b3461041557600080600319360112610c705760405180916001906001549384845260208094018095600184527fb10e2d527612073b26eecdfd717e6a320cf44b4afac2b0732d9fcbe2b7fa0cf690845b818110610c545750505081610c1591038261033f565b6040519380850191818652518092526040850195925b828110610c385785870386f35b83516001600160a01b0316875295810195928101928401610c2b565b82546001600160a01b0316845292870192918601918601610bff565b80fd5b67ffffffffffffffff81116102ee5760051b60200190565b9080601f83011215610415576020908235610ca581610c73565b93610cb3604051958661033f565b81855260208086019260051b82010192831161041557602001905b828210610cdc575050505090565b81358152908301908301610cce565b81601f8201121561041557803591602090610d0584610c73565b936040610d148151968761033f565b818652838087019260051b8601019280841161041557848601925b848410610d40575050505050505090565b67ffffffffffffffff84358181116104155788019060609081601f19848703011261041557855192610d71846102d2565b610d7c8a8201610430565b84528681013582811161041557868b610d97928401016107bd565b8a8501528281013591821161041557019084603f83011215610415578882013591610dc183610c73565b92610dce8851948561033f565b80845287838c86019202830101918783116104155791888c969492979593015b818110610e0a5750505083945086820152815201930192610d2f565b9180949650828998929496980312610415578b84918a51610e2a816102d2565b8435815282850135838201528b8501358c8201528152019101918b959391969492610dee565b91906060838203126104155760405190610e69826102d2565b819380359167ffffffffffffffff9283811161041557820181601f82011215610415578035602091610e9a82610c73565b91610ea8604051938461033f565b808352838084019160051b830101918583116104155784809101915b838310610f0a57505050508552808301358481116104155782610ee8918501610c8b565b90850152604082013592831161041557604092610f059201610ceb565b910152565b8235815291810191859101610ec4565b346104155760a036600319011261041557610f336103ff565b610f3b61041a565b9067ffffffffffffffff9060443582811161041557610f5e903690600401610e50565b60643583811161041557610f769036906004016107bd565b9060843593841161041557610fae94610f96610f9c9536906004016107bd565b93612f0a565b60405190151581529081906020820190565b0390f35b346104155760403660031901126104155760043567ffffffffffffffff811161041557610fe66106049136906004016107bd565b610fee61041a565b90613555565b346104155760403660031901126104155760043567ffffffffffffffff81116104155761105d6110497f02d93529bba9d141e5e06733c52c7e6fbcb1149586adb5c24064b522ab26f1d79236906004016107bd565b60405191829160408352604083019061106a565b60243560208301520390a1005b90602091611083815180928185528580860191016107db565b601f01601f1916010190565b9060206107d892818152019061106a565b3461041557604036600319011261041557610fae6110cd6110bf6103ff565b6110c761041a565b906135a3565b60405191829160208352602083019061106a565b346104155760403660031901126104155760043567ffffffffffffffff81116104155761105d6110497f6a837ff3973aa4181e7b9f07756f8b7ee366dd85a36655d2cb42cd47f10b96389236906004016107bd565b346104155760603660031901126104155761115036610444565b60208101906111608251336136b7565b50600091338352600260205260408320815184526020526040832054604083019182518092106111fa576105556111dc6111f5946109de946111cb6105656111bb336001600160a01b03166000526002602052604060002090565b8751600052602052604060002090565b90555195516001600160a01b031690565b6001600160a01b03166000526002602052604060002090565b905580f35b8480fd5b3461041557604036600319011261041557602061122561121c6103ff565b602435906136b7565b604051908152f35b346104155760403660031901126104155767ffffffffffffffff6004358181116104155761125f9036906004016107bd565b90602435908111610415577f27a8767ed172b48d7cf6dbb25d2840c5fa91ef78fa6e05c13c82763d099f03ca916112c26112a06112b49336906004016107bd565b60405193849360408552604085019061106a565b90838203602085015261106a565b0390a1005b9181601f840112156104155782359167ffffffffffffffff8311610415576020838186019501011161041557565b346104155760a03660031901126104155767ffffffffffffffff600435818111610415576113279036906004016112c7565b61133292919261041a565b906064358381116104155761134b9036906004016112c7565b9060843594851161041557610fae9561136b610f9c9636906004016112c7565b959094604435926138ef565b34610415576020366003190112610415576113906103ff565b6001600160a01b0381166000918183528260205260ff60408420541661140d57806113e16113d46113e6936001600160a01b03166000526000602052604060002090565b805460ff19166001179055565b614024565b7fc395b1bd803c744a815bc34a0426e5eaac03513b9d76bf237a734a004916499c8280a280f35b606460405162461bcd60e51b815260206004820152601060248201527f416c726561647920617070726f766564000000000000000000000000000000006044820152fd5b634e487b7160e01b600052603260045260246000fd5b80548210156114835760005260206000209060011b0190600090565b611451565b34610415576060366003190112610415576114a16103ff565b604435906001600160a01b039081600091168152600560205260408120602435825260205260408120908154841015610c7057506040926114e191611467565b5090600182549201541682519182526020820152f35b91906060838203126104155760408051611510816102d2565b809480358252602090611524828201610430565b82840152838101359067ffffffffffffffff821161041557019084601f8301121561041557813561155481610c73565b956115618651978861033f565b818752828088019260061b85010193818511610415578301915b84831061158b5750505050500152565b86838303126104155783879182516115a281610307565b6115ab86610430565b8152828601358382015281520192019161157b565b346104155760203660031901126104155760043567ffffffffffffffff8111610415576115fb6115f660209236906004016114f7565b61410d565b6040519015158152f35b8015150361041557565b359061038f82611605565b9190610180838203126104155761162f610361565b9261163981610430565b84526020810135602085015260408101356040850152606081013560608501526080810135608085015260a08101359167ffffffffffffffff9283811161041557816116869184016107bd565b60a086015261169760c0830161160f565b60c086015260e082013560e086015261010080830135908601526101208083013584811161041557826116cb918501610e50565b908601526101408083013584811161041557826116e99185016107bd565b9086015261016092838301359081116104155761170692016107bd565b90830152565b346104155760203660031901126104155760043567ffffffffffffffff8111610415576115fb611742602092369060040161161a565b6145d3565b346104155760203660031901126104155760606bffffffffffffffffffffffff60ff61178c6004358060601c9160ff6affffffffffffffffffffff8360081c16921690565b9193906001600160a01b0360405195168552166020840152166040820152f35b9080601f830112156104155760209082356117c681610c73565b936117d4604051958661033f565b81855260208086019260051b82010192831161041557602001905b8282106117fd575050505090565b83809161180984610430565b8152019101906117ef565b90815180825260208080930193019160005b828110611834575050505090565b8351805186528201516001600160a01b03168583015260409094019392810192600101611826565b602080820190808352835180925260409283810160059483818660051b850101970195600080945b8786106118975750505050505050505090565b909192939495969798603f19828203018652878a5181878401918051855201519287838201528351809252606091828201918484838b1b83010196019388905b8b8483106118fd5750505050505050806001929b01960196019497969593929190611884565b966119358883899b818a9c6001989a9c8a9c88999b605f19908603019052518051845287810151888501520151938201520190611814565b9801960192018d95949293916118d7565b34610415576040806003193601126104155767ffffffffffffffff906004358281116104155761197a9036906004016117ac565b9160243590811161041557611993903690600401610c8b565b61199d8351614815565b6000906000905b8551821015611af4576119c76119ba8388612b90565b516001600160a01b031690565b948531936119d58651614878565b946119de610382565b908152602095868201526119f28585612b90565b526119fd8484612b90565b50805b8651811015611ae35780611adc600192611a49611a308c6001600160a01b03166000526002602052604060002090565b611a3a838d612b90565b51600052602052604060002090565b54611ab98c611aa48d611a3a86611a9e611a83611a79876001600160a01b03166000526006602052604060002090565b611a3a8487612b90565b54956001600160a01b03166000526005602052604060002090565b92612b90565b90611aad610391565b9384528c8401526148e0565b8782015289611ac88a8a612b90565b51015190611ad68383612b90565b52612b90565b5001611a00565b5093509450949060010190946119a4565b610fae906040519182918261185c565b346104155760403660031901126104155760243567ffffffffffffffff811161041557611225611b3a60209236906004016107bd565b600435614af2565b600854811015611483576003906008600052027ff3f7a9fe364faab93b216da50a3214154f22a0a2b415b23a84c8169e8b636ee30190600090565b90600182811c92168015611bad575b6020831014611b9757565b634e487b7160e01b600052602260045260246000fd5b91607f1691611b8c565b6107d893926001600160a01b036060931682526020820152816040820152019061106a565b34610415576020806003193601126104155760043560085481101561041557611c0490611b42565b50906001600160a01b038254169060016002600185015494019160405192600092815491611c3183611b7d565b8087529260018116908115611ca15750600114611c67575b8787610fae88611c5b818a038261033f565b60405193849384611bb7565b6000908152838120939450925b828410611c8e57505050820101611c5b82610fae38611c49565b8054868501860152928401928101611c74565b60ff191685880152505050151560051b8301019050611c5b82610fae38611c49565b91909160a08184031261041557611cd861039e565b92611ce282610430565b845267ffffffffffffffff60208301358181116104155782611d05918501610e50565b602086015260408301358181116104155782611d229185016107bd565b604086015260608301358181116104155782611d3f9185016107bd565b6060860152608083013590811161041557611d5a92016107bd565b6080830152565b346104155760203660031901126104155760043567ffffffffffffffff8111610415576115fb611d976020923690600401611cc3565b614c73565b34610415576040366003190112610415576001600160a01b03611dbd6103ff565b16600052600660205260406000206024356000526020526020604060002054604051908152f35b34610415576020366003190112610415576001600160a01b03611e056103ff565b166000526000602052602060ff604060002054166040519015158152f35b34610415576000366003190112610415576020600954604051908152f35b346104155760403660031901126104155760043567ffffffffffffffff811161041557611e756106049136906004016107bd565b60243590614e00565b346104155760603660031901126104155760043560ff811680910361041557611ea561041a565b604435906bffffffffffffffffffffffff821682036104155760ff8311610415576cffffffffffffffffffffffff0092610fae9160405194859460081b16906bffffffffffffffffffffffff199060601b161717829190602083019252565b3461041557604036600319011261041557611f1d6103ff565b5061060461041a565b346104155760203660031901126104155760043567ffffffffffffffff811161041557611f61611f5c60409236906004016107bd565b61083b565b6001815491015482519182526020820152f35b346104155760403660031901126104155760043567ffffffffffffffff811161041557611fe9611fc97f4c34c2f9a78632f29fa59aaed5514cb742fd9fbcfd7ccc2c03c85f2bbc621c479236906004016107bd565b602435611fd581611605565b60405192839260408452604084019061106a565b90151560208301520390a1005b9190608080848303126104155760409384519261201284610323565b839561201d83610430565b855267ffffffffffffffff936020848101358681116104155785019184601f840112156104155782359261205084610c73565b9361205d8651958661033f565b808552838086019160071b83010191878311610415578401905b8282106120b9575050505086015280830135848111610415578261209c918501610c8b565b90850152606082013592831161041557606092610f0592016107bd565b83828903126104155784849188516120d081610323565b843581528285013583820152898501358a82015260608086013590820152815201910190612077565b346104155760203660031901126104155760043567ffffffffffffffff8111610415576115fb61212f6020923690600401611ff6565b61502a565b34610415576040806003193601126104155761214e6103ff565b90612190816001600160a01b036024359416936000908582526006602052828220818352602052828220549582526005602052828220908252602052206148e0565b916121a48251938385948552840190611814565b9060208301520390f35b3461041557600319602036820112610415576004359067ffffffffffffffff821161041557610140908236030112610415576121ee903690600401613ed1565b5a600160009160808401925b835180518210156122355761221b6122158361221f93612b90565b5161502a565b1590565b61222c575b6001016121fa565b60009250612224565b50508360009160a08201925b835180518210156122785761221b61225c8361226293612b90565b51614c73565b61226f575b600101612241565b60009450612267565b50508360009160c08401925b835180518210156122bb5761221b61229f836122a593612b90565b516153c9565b6122b2575b600101612284565b600092506122aa565b50508360009160e08201925b835180518210156122fe5761221b6122e2836122e893612b90565b516145d3565b6122f5575b6001016122c7565b600094506122ed565b50508360009160608401925b835180518210156123415761221b6123258361232b93612b90565b5161410d565b612338575b60010161230a565b60009250612330565b610fae84846101208901908151801515908161239f575b50612372575b505060405190151581529081906020820190565b600161238c612385612396935a90612a26565b9351611b42565b5001918254612b0f565b9055828061235e565b6123ca91506123b06123be91611b42565b50546001600160a01b031690565b6001600160a01b031690565b331485612358565b34610415576020366003190112610415576123eb6103ff565b6001600160a01b038082166124406124366000948386528560205261241d6124186040882060ff90541690565b615309565b6001600160a01b03166000526000602052604060002090565b805460ff19169055565b825b600154808210156124ee57828461246e61245b856125ec565b90546001600160a01b039160031b1c1690565b161461247d5750600101612442565b6124bf92935061249a61245b6124956124a093612a12565b6125ec565b916125ec565b9091906001600160a01b038084549260031b9316831b921b1916179055565b6124c7615354565b7f67c5a35d33d48c47ef33c82c62eda6254aad034fab4c51abe26a6d06ad174a348280a280f35b505090506124c7565b91909160c0818403126104155761250c6103be565b9261251682610430565b8452602082013560208501526040820135604085015260608201356060850152608082013567ffffffffffffffff9081811161041557826125589185016107bd565b608086015260a08301359081116104155761257392016107bd565b60a0830152565b346104155760203660031901126104155760043567ffffffffffffffff8111610415576115fb6125b060209236906004016124f7565b6153c9565b6009548110156114835760096000527f6e1540171b6c0c960b71a7020d9f60077f6af931a8bbf590da0223dacf75c7af0190600090565b6001548110156114835760016000527fb10e2d527612073b26eecdfd717e6a320cf44b4afac2b0732d9fcbe2b7fa0cf60190600090565b3461041557602036600319011261041557600435600154811015610415576001600160a01b0360209160016000527fb10e2d527612073b26eecdfd717e6a320cf44b4afac2b0732d9fcbe2b7fa0cf6015416604051908152f35b34610415576020366003190112610415576004356009548110156104155760209060096000527f6e1540171b6c0c960b71a7020d9f60077f6af931a8bbf590da0223dacf75c7af0154604051908152f35b346104155760a0366003190112610415576126e76103ff565b506126f061041a565b5060843567ffffffffffffffff8111610415576127119036906004016112c7565b505060206040517ff23a6e61000000000000000000000000000000000000000000000000000000008152f35b34610415576040366003190112610415576001600160a01b0361275e6103ff565b16600052600260205260406000206024356000526020526020604060002054604051908152f35b34610415576020366003190112610415576001600160a01b036127a66103ff565b1660005260076020526020604060002054604051908152f35b6020808201908083528351809252604092604081018260408560051b840101960194600080935b8685106127f857505050505050505090565b9091929394959697603f198282030185528689518160806060948286820194818151805185520151828401520151958982015285518094520193019085905b878183106128595750505050806001929a0195019501939695949291906127e6565b83958560019496939551805183520151838201520194019201899291612837565b34610415576060366003190112610415576128936103ff565b67ffffffffffffffff602435818111610415576128b49036906004016117ac565b90604435908111610415576128ce83913690600401610c8b565b6128d883516155cc565b906000906000905b85518210156129a3576128ff6128f96119ba8489612b90565b866135a3565b946129098661083b565b936129148351615633565b94612926612920610382565b91615683565b8152602095868201526129398588612b90565b526129448487612b90565b50805b8351811015612992578061298b81896129818a6129788b8f8c611a3a60019b611a9e61297294610815565b94612b90565b51015191615683565b611ad68383612b90565b5001612947565b5090955092506001909101906128e0565b60405180610fae86826127bf565b156129b857565b606460405162461bcd60e51b815260206004820152601260248201527f4e6f7420656e6f756768207265736572766500000000000000000000000000006044820152fd5b634e487b7160e01b600052601160045260246000fd5b600019810191908211612a2157565b6129fc565b91908203918211612a2157565b6040513d6000823e3d90fd5b9081602091031261041557516107d881611605565b1561041557565b600954680100000000000000008110156102ee5760018101806009558110156114835760096000527f6e1540171b6c0c960b71a7020d9f60077f6af931a8bbf590da0223dacf75c7af0155565b15612aaf57565b606460405162461bcd60e51b815260206004820152600460248201527f4661696c000000000000000000000000000000000000000000000000000000006044820152fd5b9060018201809211612a2157565b9060148201809211612a2157565b91908201809211612a2157565b6112b490612b597fe8407a0209fa99ec3a7228aff140c3d3e68bd279391739c7e0b65cd406cc93b59360405193849360408552604085019061106a565b0390a1565b90612b6882610c73565b612b75604051918261033f565b8281528092612b86601f1991610c73565b0190602036910137565b80518210156114835760209160051b010190565b91909160008382019384129112908015821691151617612a2157565b602090818184031261041557805167ffffffffffffffff9182821161041557019083601f83011215610415578151612bf781610c73565b94604092612c08604051978861033f565b828752858088019360051b8601019482861161041557868101935b868510612c3557505050505050505090565b84518381116104155782019084603f83011215610415578882015190612c5a8261076a565b612c668951918261033f565b8281528689848601011161041557612c878b949385948b86850191016107db565b815201940193612c23565b60209081818403126104155780519067ffffffffffffffff821161041557019180601f84011215610415578251612cc881610c73565b93612cd6604051958661033f565b818552838086019260051b820101928311610415578301905b828210612cfd575050505090565b81518152908301908301612cef565b90815180825260208080930193019160005b828110612d2c575050505090565b835185529381019392810192600101612d1e565b92612d6c6107d89593612d5e612d7a94608088526080880190612d0c565b90868203602088015261106a565b90848203604086015261106a565b91606081840391015261106a565b81810392916000138015828513169184121617612a2157565b7f80000000000000000000000000000000000000000000000000000000000000008114612a215760000390565b60405190612ddb82610307565b600c82527f5570646174652064656c746100000000000000000000000000000000000000006020830152565b60405190612e1482610307565b600982527f67657473206465627400000000000000000000000000000000000000000000006020830152565b60405190612e4d82610307565b600482527f64656274000000000000000000000000000000000000000000000000000000006020830152565b634e487b7160e01b600052600060045260246000fd5b8054680100000000000000008110156102ee57612eb191600182018155611467565b612ef65760016001600160a01b0360208461038f955185550151169101906001600160a01b031673ffffffffffffffffffffffffffffffffffffffff19825416179055565b612e79565b6000198114612a215760010190565b9294926001600160a01b03828116908216101561354e57909493905b6040516bffffffffffffffffffffffff19606083811b8216602084015288901b1660348201526028815295612f5c60488861033f565b612f67845151612b5e565b9460005b8651811015612fba57600190612fa982612f95612f878d610815565b611a3a8560208d0151612b90565b0154612fa2838a51612b90565b5190612ba4565b612fb3828a612b90565b5201612f6b565b5095612fd8612fe89198939492959860208082518301019101612bc0565b9160208082518301019101612bc0565b6000935b604089015180518610156131e2578561300491612b90565b519861301d6123be6123be8c516001600160a01b031690565b96600060208c0151986130308988612b90565b519061303c8a88612b90565b519a838d6130796040519e8f96879586947f18c323f200000000000000000000000000000000000000000000000000000000865260048601612d40565b03925af1978815610635576000986131bf575b5087518951036131ae5798996040019860005b8a5180518210156131915790896130dd8c6130d66130cc6130c286600198612b90565b5194855190612b90565b5191845190612b90565b5190612d88565b600081139081613183575b811561315c575b8115613153575b5061314d5761310b613106612dce565b6156a1565b61312061311a8d835190612b90565b516156ed565b61312e61311a82518d612b90565b61314561313c82518d612b90565b5191518d612b90565b525b0161309f565b50613147565b905015386130f6565b9050600081128061316e575b906130ef565b5061317881612da1565b604083015110613168565b6020830151811191506130e8565b5050949298509460019196509892985b0193979196909294612fec565b9492989399509460019196506131a1565b6131db91983d8091833e6131d3818361033f565b810190612c92565b963861308c565b509350505092919460005b835181101561351f57806132c36132b76132258a848a61323b8b61322c61321a60019b60208e0151612b90565b519687958693612b90565b5193610815565b90600052602052604060002090565b8a60008312801580613514575b156132c957506132916109de93859361327e6132ab9761322c61322c966001600160a01b03166000526002602052604060002090565b613289838254612b0f565b905554612a26565b946001600160a01b03166000526002602052604060002090565b90555b61322c89610815565b60016000918281550155565b016131ed565b919491929050821561350d57815b831561350757508b925b156134f7576132ef90612da1565b8094546133166109de8661322c866001600160a01b03166000526002602052604060002090565b905561332983613324612e07565b613555565b61333a81613335612e40565b614e00565b8061335c8561322c866001600160a01b03166000526002602052604060002090565b54106133bc57509161322c6105659261338f8361322c6133b5976001600160a01b03166000526002602052604060002090565b61339a878254612b0f565b90556001600160a01b03166000526002602052604060002090565b90556132ae565b9061344c94916133e7849561322c613433966001600160a01b03166000526002602052604060002090565b54613456575b5061342e6134128761322c876001600160a01b03166000526005602052604060002090565b9161341b610382565b9384526001600160a01b03166020840152565b612e8f565b6001600160a01b03166000526007602052604060002090565b6133b58154612efb565b6134cc91925061347d8761322c876001600160a01b03166000526002602052604060002090565b546134a26109de8961322c876001600160a01b03166000526002602052604060002090565b90556134c58761322c876001600160a01b03166000526002602052604060002090565b5490612a26565b9060006134f08761322c876001600160a01b03166000526002602052604060002090565b55386133ed565b845461350291612a26565b6132ef565b926132e1565b8b916132d7565b508254841115613248565b5050505061353d919250600060016135368361083b565b015561083b565b6135478154612efb565b9055600190565b9490612f26565b613597907f62ddffe5b5108385f7a590f100e1ee414ad9551a31f089e64e82998440785e1e926001600160a01b0360405193849360408552604085019061106a565b911660208301520390a1565b6001600160a01b0382811690821610156135f7576040516bffffffffffffffffffffffff19606092831b811660208301529290911b90911660348201526107d881604881015b03601f19810183528261033f565b6040516bffffffffffffffffffffffff19606093841b811660208301529190921b1660348201526107d881604881016135e9565b90612ef65760018160008093550155565b805490600090600081558261365057505050565b6001907f7fffffffffffffffffffffffffffffffffffffffffffffffffffffffffffffff84168403612a215760005260206000209260011b8301925b8381106136995750505050565b80836002925583838201550161368c565b8015612a21576000190190565b90916136da8361322c846001600160a01b03166000526005602052604060002090565b549283156138e6576137038161322c856001600160a01b03166000526002602052604060002090565b54906137268161322c866001600160a01b03166000526006602052604060002090565b549482156138d657945b61375a816137558461322c896001600160a01b03166000526005602052604060002090565b611467565b5080549093908110613889576137906109de8461322c6111dc60016137818a548098612a26565b9901546001600160a01b031690565b90556137c06137ba826137558561322c8a6001600160a01b03166000526005602052604060002090565b9061362b565b856137ca82612af3565b14613808576137d890612efb565b946137f6856001600160a01b03166000526007602052604060002090565b61380081546136aa565b905594613730565b5061322c929450926138836107d894600094836138456138408461322c8a986001600160a01b03166000526005602052604060002090565b61363c565b84955b6138698461322c846001600160a01b03166000526002602052604060002090565b556001600160a01b03166000526006602052604060002090565b55612a26565b9161322c6107d896856138cd85989a97966138b98661322c6111dc60016138839b9c01546001600160a01b031690565b6138c4828254612b0f565b90558254612a26565b90556000613848565b9150506107d89250929092612a26565b50915050600090565b94916001600160a01b0390979693979491941691826000526020936000855260ff60406000205416156139f0579184939161397793613989613932368a8c610786565b878151910120916040519b8c97889687967fd93e68d6000000000000000000000000000000000000000000000000000000008852606060048901526064880191613a43565b85810360031901602487015291613a43565b90604483015203915afa948515610635576107d8956139be956139b6936000926139c3575b505014613a64565b810190613ffe565b61572d565b6139e29250803d106139e9575b6139da818361033f565b810190613a34565b38806139ae565b503d6139d0565b6064856040519062461bcd60e51b82526004820152601560248201527f50726f7669646572206e6f7420617070726f76656400000000000000000000006044820152fd5b90816020910312610415575190565b908060209392818452848401376000828201840152601f01601f1916010190565b15613a6b57565b606460405162461bcd60e51b815260206004820152601860248201527f496e76616c696420656e74697479207369676e617475726500000000000000006044820152fd5b81601f82011215610415578035906020613ac883610c73565b936040613ad8604051968761033f565b8486528286019183606080970286010194818611610415578401925b858410613b05575050505050505090565b8684830312610415578487918451613b1c816102d2565b613b2587610430565b815282870135838201528587013586820152815201930192613af4565b81601f82011215610415578035906020613b5b83610c73565b936040613b6b604051968761033f565b8486528286019183606080970286010194818611610415578401925b858410613b98575050505050505090565b8684830312610415578487918451613baf816102d2565b8635815282870135838201528587013586820152815201930192613b87565b81601f8201121561041557803591602091613be884610c73565b93613bf6604051958661033f565b808552838086019160051b8301019280841161041557848301915b848310613c215750505050505090565b823567ffffffffffffffff8111610415578691613c43848480948901016114f7565b815201920191613c11565b81601f8201121561041557803591602091613c6884610c73565b93613c76604051958661033f565b808552838086019160051b8301019280841161041557848301915b848310613ca15750505050505090565b823567ffffffffffffffff8111610415578691613cc384848094890101611ff6565b815201920191613c91565b81601f8201121561041557803591602091613ce884610c73565b93613cf6604051958661033f565b808552838086019160051b8301019280841161041557848301915b848310613d215750505050505090565b823567ffffffffffffffff8111610415578691613d4384848094890101611cc3565b815201920191613d11565b81601f8201121561041557803591602091613d6884610c73565b93613d76604051958661033f565b808552838086019160051b8301019280841161041557848301915b848310613da15750505050505090565b823567ffffffffffffffff8111610415578691613dc3848480948901016124f7565b815201920191613d91565b81601f8201121561041557803591602091613de884610c73565b93613df6604051958661033f565b808552838086019160051b8301019280841161041557848301915b848310613e215750505050505090565b823567ffffffffffffffff8111610415578691613e438484809489010161161a565b815201920191613e11565b9080601f83011215610415578135916020613e6884610c73565b93604093613e79604051968761033f565b818652828087019260061b85010193818511610415578301915b848310613ea35750505050505090565b8583830312610415578386918251613eba81610307565b853581528286013583820152815201920191613e93565b9190916101408184031261041557613ee76103de565b9267ffffffffffffffff82358181116104155782613f06918501613aaf565b855260208301358181116104155782613f20918501613b42565b602086015260408301358181116104155782613f3d918501613aaf565b604086015260608301358181116104155782613f5a918501613bce565b606086015260808301358181116104155782613f77918501613c4e565b608086015260a08301358181116104155782613f94918501613cce565b60a086015260c08301358181116104155782613fb1918501613d4e565b60c086015260e08301358181116104155782613fce918501613dce565b60e0860152610100918284013591821161041557613fed918401613e4e565b908401526101208091013590830152565b9060208282031261041557813567ffffffffffffffff8111610415576107d89201613ed1565b60015490680100000000000000008210156102ee5760018201806001558210156114835761038f9160016000527fb10e2d527612073b26eecdfd717e6a320cf44b4afac2b0732d9fcbe2b7fa0cf601906001600160a01b031673ffffffffffffffffffffffffffffffffffffffff19825416179055565b604051906140a882610307565b601082527f4e6f7420656e6f7567682066756e6473000000000000000000000000000000006020830152565b604051906140e182610307565b601582527f4465706f736974656420746f206368616e6e656c2000000000000000000000006020830152565b8051916020906020830161412881516001600160a01b031690565b9261413386336136b7565b5060009360005b6040808801805180518410156142c8576141718461416a61415c828a95612b90565b51516001600160a01b031690565b9351612b90565b5101519061418f8161418a89516001600160a01b031690565b6135a3565b92826141b28d61322c336001600160a01b03166000526002602052604060002090565b54106142b05761322c84614294948a8f9461428b968b614283887f8a1fa734614ce1b935d8439d18b23444fb921bb370ec43ca8246788c4ee27f839460019e9d8f908361322c61420192610815565b6142228461322c336001600160a01b03166000526002602052604060002090565b61422d8b8254612a26565b905561424e61423d8b8354612b0f565b998a8355516001600160a01b031690565b6001600160a01b039788169a9088168b1161429a575b5001549051968752602087015260408601529116929081906060820190565b0390a3610815565b546133356140d4565b0161413a565b6142a8838301918254612ba4565b905538614264565b5050505050505050925090506107d83361332461409b565b5050505050505092505050600190565b156142df57565b606460405162461bcd60e51b815260206004820152601160248201527f44697370757465206e6f7420666f756e640000000000000000000000000000006044820152fd5b1561432a57565b606460405162461bcd60e51b815260206004820152601460248201527f4469737075746520706572696f6420656e6465640000000000000000000000006044820152fd5b9060209081835280519161438e6060936060838701526080860190612d0c565b9181810151601f19906143ad6040958692848a830301848b0152612d0c565b92015195606082828503019101528551938483528383019184808760051b8601019801966000916000955b8887106143ec575050505050505050505090565b9091929394959697989982828203018752888b516001600160a01b038151168352876144238383015188858701528886019061106a565b910151928881830391015281808451928381520193019087905b878183106144615750505050806001929c01970197019598979694939291906143d8565b83958b6001949693955180518352848101518584015201518c82015201940192018b929161443d565b1561449157565b606460405162461bcd60e51b815260206004820152601160248201527f496e76616c69642070726f6f66626f64790000000000000000000000000000006044820152fd5b90926144f56080939695946002845260a0602085015260a084019061106a565b95604083015260608201520152565b6040519061451182610307565b600b82527f656e636f6465645f6d73670000000000000000000000000000000000000000006020830152565b1561454457565b606460405162461bcd60e51b815260206004820152600e60248201527f496e76616c6964207369676e65720000000000000000000000000000000000006044820152fd5b1561458f57565b606460405162461bcd60e51b815260206004820152601960248201527f4e6577206e6f6e6365206d7573742062652067726561746572000000000000006044820152fd5b614781906145f16145eb82516001600160a01b031690565b336135a3565b81602080820151604083019081519460c085019161460f8351151590565b606087016146958151998861466a60808c01958c60a0885191019e8f518581519101209260405196879687019b8c9492909160a196949286526020860152151560f81b60408501526041840152606183015260818201520190565b039461467e601f199687810184528361033f565b60016146898861083b565b015491519020146142d8565b61016088018051519095901561478757505050946147579261472c61471e614733946147156147609a6101208701516146da6146e68d6040519283918201948561436e565b0384810183528261033f565b5190209a61470961010060e08a015199019c8d516040519a8b94850197886144d5565b0390810187528661033f565b845190206158a5565b92614727614504565b612b1c565b51906158e8565b6001600160a01b0361474f6123be89516001600160a01b031690565b91161461453d565b51905111614588565b81516001600160a01b03169161014061012082015191015191519233612f0a565b50600190565b61480498506147d792939796506147ef95506147fb94506147a89051151590565b6147c46147bf6123be8d516001600160a01b031690565b331090565b9015151490811591614809575b50614323565b5193610120880151936040519384918201958661436e565b0390810183528261033f565b5190201461448a565b614760565b905051431015386147d1565b9061481f82610c73565b604061482e604051928361033f565b838252819361483f601f1991610c73565b019160009160005b848110614855575050505050565b602090825161486381610307565b85815282606081830152828601015201614847565b9061488282610c73565b6040614891604051928361033f565b83825281936148a2601f1991610c73565b019160009060005b8481106148b8575050505050565b60209084516148c6816102d2565b8481528285818301526060878301528285010152016148aa565b9081546148ec81610c73565b926040936148fd604051918261033f565b82815280946020809201926000526020600020906000935b85851061492457505050505050565b600284600192845161493581610307565b865481526001600160a01b03858801541683820152815201930194019391614915565b90601f811161496657505050565b6000916000526020600020906020601f850160051c830194106149a4575b601f0160051c01915b82811061499957505050565b81815560010161498d565b9092508290614984565b9060085491680100000000000000008310156102ee576149d660019360018101600855611b42565b612ef6578151815473ffffffffffffffffffffffffffffffffffffffff19166001600160a01b03919091161781556040600260209260208501516001820155019201519384519167ffffffffffffffff83116102ee57614a4083614a3a8654611b7d565b86614958565b602091601f8411600114614a845750508190614a75939495600092614a79575b50508160011b916000199060031b1c19161790565b9055565b015190503880614a60565b95601f92919219841696614a9d86600052602060002090565b936000915b898310614adb5750505083600195969710614ac2575b505050811b019055565b015160001960f88460031b161c19169055388080614ab8565b838501518655948501949381019391810191614aa2565b90919080614b28575090614b1d90614b08610391565b338152906000602083015260408201526149ae565b6107d8600854612a12565b6001600160a01b03614b3982611b42565b5054163303610415576002614b4d82611b42565b5001835167ffffffffffffffff81116102ee57614b7481614b6e8454611b7d565b84614958565b602080601f8311600114614bad57508190614ba893949596600092614a795750508160011b916000199060031b1c19161790565b905590565b90601f19831696614bc385600052602060002090565b926000905b898210614c025750508360019596979810614be9575b505050811b01905590565b015160001960f88460031b161c19169055388080614bde565b80600185968294968601518155019501930190614bc8565b60405190614c2782610307565b600e82527f52656365697665642070726f6f660000000000000000000000000000000000006020830152565b90926144f56080939695946001845260a0602085015260a084019061106a565b90600091614c8b6145eb82516001600160a01b031690565b90614c97613106614c1a565b614dd5614dcf602092614dc1848201614d58614d4d88835198614ce16040519a8b614cc5848201928361436e565b039b614cd9601f199d8e810183528261033f565b519020615a32565b614d45604088019a614cf98c51848151910120615a32565b614d028461083b565b54926147ef8d8951604051614d2a81614d1e878201948561436e565b0387810183528261033f565b51902090518381519101209060405196879485019889614c53565b5190206158a5565b6080850151906158e8565b95614d81614d706123be86516001600160a01b031690565b6001600160a01b0380991614612a54565b614d976001614d8f8a61083b565b015415612a54565b60006001614da48a61083b565b015583516001600160a01b03169151606085015191519233612f0a565b50516001600160a01b031690565b9261083b565b549116337fd0b75b3c0e860b4e521684a9e2379ff5904dcf126bad4bd8619cfb3ff2e81827600080a4565b614e3a907f941296a39ea107bde685522318a4b6c2b544904a5dd82a512748ca2cf839bef79260405192839260408452604084019061106a565b9060208301520390a1565b9094939160008252614e6360209660a08885015260a084019061106a565b604091604084015260609183820360608501528780875193848152019601926000915b838310614ea55750505050506107d89394506080818403910152612d0c565b845180518952808b01518b8a015280820151898301528201518883015260809097019693890193600190920191614e86565b60405190614ee482610307565b600b82527f456e636f646564206d73670000000000000000000000000000000000000000006020830152565b60405190614f1d82610307565b600f82527f496e76616c6964207369676e65722000000000000000000000000000000000006020830152565b15614f5057565b606460405162461bcd60e51b815260206004820152601760248201527f4e6f7420656e6f756768207065657220726573657276650000000000000000006044820152fd5b15614f9b57565b606460405162461bcd60e51b815260206004820152601960248201527f4e6f7420656e6f7567682073656e6465722072657365727665000000000000006044820152fd5b15614fe657565b606460405162461bcd60e51b815260206004820152601560248201527f4e6f7420656e6f75676820636f6c6c61746572616c00000000000000000000006044820152fd5b9061503f6145eb83516001600160a01b031690565b6150488161083b565b54602090602085019384519561509b61509260409461508960408501519a61507b6040519c8d9260208401958d87614e45565b03601f1981018c528b61033f565b895190206158a5565b97614727614ed7565b80516001600160a01b03169660609760608301906001600160a01b036150c56123be8451866158e8565b9116036152e457505060009160005b875180518210156152d257906150ec81600193612b90565b518781018051878112156152b1575061511761510f87516001600160a01b031690565b8351906136b7565b506151546151426151326111dc89516001600160a01b031690565b8451600052602052604060002090565b5461514d8351612da1565b1115614f49565b61515e8151612da1565b6151886105656151786111dc8a516001600160a01b031690565b8551600052602052604060002090565b90555b5161519b88830191825190612ba4565b8781131561527e576151ae8351336136b7565b506151db816151d361050c336001600160a01b03166000526002602052604060002090565b541015614f94565b6151fe610565615178336001600160a01b03166000526002602052604060002090565b90555b805187811215615266575061522d61521b6151328c610815565b546152268351612da1565b1115614fdf565b5161523d6105656151328c610815565b90555b61525e836152558d840151936105558d610815565b01918254612ba4565b9055016150d4565b90506152776109de6151328c610815565b9055615240565b61528790612da1565b6152aa6109de615178336001600160a01b03166000526002602052604060002090565b9055615201565b6152cb6109de6151786111dc8a516001600160a01b031690565b905561518b565b505096505050505061353d915061083b565b9350935050945061530493506152fc925051906158e8565b613324614f10565b600090565b1561531057565b606460405162461bcd60e51b815260206004820152600c60248201527f4e6f7420617070726f76656400000000000000000000000000000000000000006044820152fd5b60015480156153b35760001981019080821015611483577fb10e2d527612073b26eecdfd717e6a320cf44b4afac2b0732d9fcbe2b7fa0cf59060016000520173ffffffffffffffffffffffffffffffffffffffff198154169055600155565b634e487b7160e01b600052603160045260246000fd5b805160009291906001600160a01b03166153e390336135a3565b6153ec8161083b565b5491602081019081518094111561540290612a54565b604081019283516060830195865160405191829160208301946154269287876144d5565b0391601f1992838101835261543b908361033f565b81519020615448906158a5565b90615451614504565b9061545b91612b1c565b6080840151615469916158e8565b93835161547c906001600160a01b031690565b6001600160a01b03166001600160a01b038096161461549a9061453d565b6154a38361083b565b60010154156154b190612a54565b519585519184516154c8906001600160a01b031690565b6001600160a01b031633106154dc43612b01565b92519860a08701998a51604051806020810192836154f9916107fe565b038681018252615509908261033f565b51902090604051958694602086019861554a958a9492909160a196949286526020860152151560f81b60408501526041840152606183015260818201520190565b03908101825261555a908261033f565b519020906155679061083b565b60010155516001600160a01b0316915192519060405192169180339261558d908261108f565b037f86e7f5b969eded08fe0ea342b2c89a9e5a6cfe6f5803bb3aa464668d728ff02191a4565b604051906155c082610307565b60006020838281520152565b906155d682610c73565b6040906155e6604051918261033f565b83815280936155f7601f1991610c73565b019160005b8381106156095750505050565b602090825161561781610307565b61561f6155b3565b8152826060818301528286010152016155fc565b9061563d82610c73565b61564a604051918261033f565b828152809261565b601f1991610c73565b019060005b82811061566c57505050565b6020906156776155b3565b82828501015201615660565b9060405161569081610307565b602060018294805484520154910152565b6135e96156e861038f926040519283917f41304fac00000000000000000000000000000000000000000000000000000000602084015260206024840152604483019061106a565b615a72565b61038f90604051907f2d5b6cb90000000000000000000000000000000000000000000000000000000060208301526024820152602481526156e8816102d2565b905a90600160005b608085015180518210156157695761221b6122158361575393612b90565b615760575b600101615735565b60009150615758565b505091909260005b60a082015180518210156157a55761221b61225c8361578f93612b90565b61579c575b600101615771565b60009350615794565b505091909260005b60c084015180518210156157e15761221b61229f836157cb93612b90565b6157d8575b6001016157ad565b600092506157d0565b505091909260005b60e0830151805182101561581d5761221b6122e28361580793612b90565b615814575b6001016157e9565b6000945061580c565b505091909260005b606085015180518210156158595761221b6123258361584393612b90565b615850575b600101615825565b60009150615848565b505091909261012001908151801515908161588c575b5061587957505090565b600161238c612385614ba8935a90612a26565b61589d91506123b06123be91611b42565b33143861586f565b60405160208101917f19457468657265756d205369676e6564204d6573736167653a0a3332000000008352603c820152603c81526158e2816102d2565b51902090565b9060418151036159ee576020810151916060604083015192015160001a907f7fffffffffffffffffffffffffffffff5d576e7357a4501ddfe92f46681b20a0831161599f57615970600093602095601b85148015615995575b61594a90615a8d565b604051948594859094939260ff6060936080840197845216602083015260408201520152565b838052039060015afa15610635576000516107d86001600160a01b0382161515615ae3565b50601c8514615941565b608460405162461bcd60e51b815260206004820152602260248201527f45434453413a20696e76616c6964207369676e6174757265202773272076616c604482015261756560f01b6064820152fd5b606460405162461bcd60e51b815260206004820152601f60248201527f45434453413a20696e76616c6964207369676e6174757265206c656e677468006044820152fd5b61038f90604051907f27b7cf850000000000000000000000000000000000000000000000000000000060208301526024820152602481526156e8816102d2565b600080916020815191016a636f6e736f6c652e6c6f675afa50565b15615a9457565b608460405162461bcd60e51b815260206004820152602260248201527f45434453413a20696e76616c6964207369676e6174757265202776272076616c604482015261756560f01b6064820152fd5b15615aea57565b606460405162461bcd60e51b815260206004820152601860248201527f45434453413a20696e76616c6964207369676e617475726500000000000000006044820152fdfea2646970667358221220fa1f633082b669d1e8190bd102074276284db3c9a6f7eceaf392bd21b5c486f164736f6c63430008180033",
  "linkReferences": {},
  "deployedLinkReferences": {}
}