{
  "_format": "hh-sol-artifact-1",
  "contractName": "Depository",
  "sourceName": "contracts/Depository.sol",
  "abi": [
    {
      "inputs": [],
      "stateMutability": "nonpayable",
      "type": "constructor"
    },
    {
      "anonymous": false,
      "inputs": [
        {
          "indexed": true,
          "internalType": "address",
          "name": "entityProvider",
          "type": "address"
        },
        {
          "indexed": true,
          "internalType": "address",
          "name": "fromEntity",
          "type": "address"
        },
        {
          "indexed": true,
          "internalType": "uint256",
          "name": "tokenId",
          "type": "uint256"
        },
        {
          "indexed": false,
          "internalType": "uint256",
          "name": "amount",
          "type": "uint256"
        },
        {
          "indexed": false,
          "internalType": "bytes",
          "name": "data",
          "type": "bytes"
        }
      ],
      "name": "ControlSharesReceived",
      "type": "event"
    },
    {
      "anonymous": false,
      "inputs": [
        {
          "indexed": true,
          "internalType": "address",
          "name": "from",
          "type": "address"
        },
        {
          "indexed": true,
          "internalType": "address",
          "name": "to",
          "type": "address"
        },
        {
          "indexed": true,
          "internalType": "uint256",
          "name": "internalTokenId",
          "type": "uint256"
        },
        {
          "indexed": false,
          "internalType": "uint256",
          "name": "amount",
          "type": "uint256"
        },
        {
          "indexed": false,
          "internalType": "string",
          "name": "purpose",
          "type": "string"
        }
      ],
      "name": "ControlSharesTransferred",
      "type": "event"
    },
    {
      "anonymous": false,
      "inputs": [
        {
          "indexed": true,
          "internalType": "address",
          "name": "sender",
          "type": "address"
        },
        {
          "indexed": true,
          "internalType": "address",
          "name": "peer",
          "type": "address"
        },
        {
          "indexed": true,
          "internalType": "uint256",
          "name": "cooperativeNonce",
          "type": "uint256"
        }
      ],
      "name": "CooperativeClose",
      "type": "event"
    },
    {
      "anonymous": false,
      "inputs": [
        {
          "indexed": true,
          "internalType": "address",
          "name": "sender",
          "type": "address"
        },
        {
          "indexed": true,
          "internalType": "address",
          "name": "peer",
          "type": "address"
        },
        {
          "indexed": true,
          "internalType": "uint256",
          "name": "disputeNonce",
          "type": "uint256"
        },
        {
          "indexed": false,
          "internalType": "bytes",
          "name": "initialArguments",
          "type": "bytes"
        }
      ],
      "name": "DisputeStarted",
      "type": "event"
    },
    {
      "anonymous": false,
      "inputs": [
        {
          "indexed": true,
          "internalType": "address",
          "name": "provider",
          "type": "address"
        }
      ],
      "name": "EntityProviderAdded",
      "type": "event"
    },
    {
      "anonymous": false,
      "inputs": [
        {
          "indexed": true,
          "internalType": "address",
          "name": "provider",
          "type": "address"
        }
      ],
      "name": "EntityProviderRemoved",
      "type": "event"
    },
    {
      "anonymous": false,
      "inputs": [
        {
          "indexed": true,
          "internalType": "bytes32",
          "name": "entityId",
          "type": "bytes32"
        },
        {
          "indexed": true,
          "internalType": "bytes32",
          "name": "hankoHash",
          "type": "bytes32"
        },
        {
          "indexed": false,
          "internalType": "uint256",
          "name": "nonce",
          "type": "uint256"
        },
        {
          "indexed": false,
          "internalType": "bool",
          "name": "success",
          "type": "bool"
        }
      ],
      "name": "HankoBatchProcessed",
      "type": "event"
    },
    {
      "anonymous": false,
      "inputs": [
        {
          "indexed": false,
          "internalType": "string",
          "name": "",
          "type": "string"
        },
        {
          "indexed": false,
          "internalType": "address",
          "name": "",
          "type": "address"
        }
      ],
      "name": "LogAddress",
      "type": "event"
    },
    {
      "anonymous": false,
      "inputs": [
        {
          "indexed": false,
          "internalType": "string",
          "name": "",
          "type": "string"
        },
        {
          "indexed": false,
          "internalType": "bool",
          "name": "",
          "type": "bool"
        }
      ],
      "name": "LogBool",
      "type": "event"
    },
    {
      "anonymous": false,
      "inputs": [
        {
          "indexed": false,
          "internalType": "string",
          "name": "",
          "type": "string"
        },
        {
          "indexed": false,
          "internalType": "bytes",
          "name": "",
          "type": "bytes"
        }
      ],
      "name": "LogBytes",
      "type": "event"
    },
    {
      "anonymous": false,
      "inputs": [
        {
          "indexed": false,
          "internalType": "string",
          "name": "",
          "type": "string"
        },
        {
          "indexed": false,
          "internalType": "bytes32",
          "name": "",
          "type": "bytes32"
        }
      ],
      "name": "LogBytes32",
      "type": "event"
    },
    {
      "anonymous": false,
      "inputs": [
        {
          "indexed": false,
          "internalType": "string",
          "name": "",
          "type": "string"
        },
        {
          "indexed": false,
          "internalType": "int256",
          "name": "",
          "type": "int256"
        }
      ],
      "name": "LogInt",
      "type": "event"
    },
    {
      "anonymous": false,
      "inputs": [
        {
          "indexed": false,
          "internalType": "string",
          "name": "",
          "type": "string"
        },
        {
          "indexed": false,
          "internalType": "string",
          "name": "",
          "type": "string"
        }
      ],
      "name": "LogString",
      "type": "event"
    },
    {
      "anonymous": false,
      "inputs": [
        {
          "indexed": false,
          "internalType": "string",
          "name": "",
          "type": "string"
        },
        {
          "indexed": false,
          "internalType": "uint256",
          "name": "",
          "type": "uint256"
        }
      ],
      "name": "LogUint",
      "type": "event"
    },
    {
      "anonymous": false,
      "inputs": [
        {
          "indexed": true,
          "internalType": "address",
          "name": "receiver",
          "type": "address"
        },
        {
          "indexed": true,
          "internalType": "address",
          "name": "addr",
          "type": "address"
        },
        {
          "indexed": false,
          "internalType": "uint256",
          "name": "collateral",
          "type": "uint256"
        },
        {
          "indexed": false,
          "internalType": "int256",
          "name": "ondelta",
          "type": "int256"
        },
        {
          "indexed": false,
          "internalType": "uint256",
          "name": "tokenId",
          "type": "uint256"
        }
      ],
      "name": "TransferReserveToCollateral",
      "type": "event"
    },
    {
      "inputs": [],
      "name": "DOMAIN_SEPARATOR",
      "outputs": [
        {
          "internalType": "bytes32",
          "name": "",
          "type": "bytes32"
        }
      ],
      "stateMutability": "view",
      "type": "function"
    },
    {
      "inputs": [
        {
          "internalType": "address",
          "name": "entity",
          "type": "address"
        }
      ],
      "name": "_activeDebts",
      "outputs": [
        {
          "internalType": "uint256",
          "name": "",
          "type": "uint256"
        }
      ],
      "stateMutability": "view",
      "type": "function"
    },
    {
      "inputs": [
        {
          "internalType": "bytes",
          "name": "channelKey",
          "type": "bytes"
        }
      ],
      "name": "_channels",
      "outputs": [
        {
          "internalType": "uint256",
          "name": "cooperativeNonce",
          "type": "uint256"
        },
        {
          "internalType": "bytes32",
          "name": "disputeHash",
          "type": "bytes32"
        }
      ],
      "stateMutability": "view",
      "type": "function"
    },
    {
      "inputs": [
        {
          "internalType": "bytes",
          "name": "channelKey",
          "type": "bytes"
        },
        {
          "internalType": "uint256",
          "name": "tokenId",
          "type": "uint256"
        }
      ],
      "name": "_collaterals",
      "outputs": [
        {
          "internalType": "uint256",
          "name": "collateral",
          "type": "uint256"
        },
        {
          "internalType": "int256",
          "name": "ondelta",
          "type": "int256"
        }
      ],
      "stateMutability": "view",
      "type": "function"
    },
    {
      "inputs": [
        {
          "internalType": "address",
          "name": "entity",
          "type": "address"
        },
        {
          "internalType": "uint256",
          "name": "tokenId",
          "type": "uint256"
        }
      ],
      "name": "_debtIndex",
      "outputs": [
        {
          "internalType": "uint256",
          "name": "",
          "type": "uint256"
        }
      ],
      "stateMutability": "view",
      "type": "function"
    },
    {
      "inputs": [
        {
          "internalType": "address",
          "name": "entity",
          "type": "address"
        },
        {
          "internalType": "uint256",
          "name": "tokenId",
          "type": "uint256"
        },
        {
          "internalType": "uint256",
          "name": "",
          "type": "uint256"
        }
      ],
      "name": "_debts",
      "outputs": [
        {
          "internalType": "uint256",
          "name": "amount",
          "type": "uint256"
        },
        {
          "internalType": "address",
          "name": "creditor",
          "type": "address"
        }
      ],
      "stateMutability": "view",
      "type": "function"
    },
    {
      "inputs": [
        {
          "internalType": "uint256",
          "name": "",
          "type": "uint256"
        }
      ],
      "name": "_hubs",
      "outputs": [
        {
          "internalType": "address",
          "name": "addr",
          "type": "address"
        },
        {
          "internalType": "uint256",
          "name": "gasused",
          "type": "uint256"
        },
        {
          "internalType": "string",
          "name": "uri",
          "type": "string"
        }
      ],
      "stateMutability": "view",
      "type": "function"
    },
    {
      "inputs": [
        {
          "internalType": "address",
          "name": "entity",
          "type": "address"
        },
        {
          "internalType": "uint256",
          "name": "tokenId",
          "type": "uint256"
        }
      ],
      "name": "_reserves",
      "outputs": [
        {
          "internalType": "uint256",
          "name": "",
          "type": "uint256"
        }
      ],
      "stateMutability": "view",
      "type": "function"
    },
    {
      "inputs": [
        {
          "internalType": "uint256",
          "name": "",
          "type": "uint256"
        }
      ],
      "name": "_tokens",
      "outputs": [
        {
          "internalType": "bytes32",
          "name": "",
          "type": "bytes32"
        }
      ],
      "stateMutability": "view",
      "type": "function"
    },
    {
      "inputs": [
        {
          "internalType": "address",
          "name": "provider",
          "type": "address"
        }
      ],
      "name": "addEntityProvider",
      "outputs": [],
      "stateMutability": "nonpayable",
      "type": "function"
    },
    {
      "inputs": [
        {
          "internalType": "address",
          "name": "",
          "type": "address"
        }
      ],
      "name": "approvedEntityProviders",
      "outputs": [
        {
          "internalType": "bool",
          "name": "",
          "type": "bool"
        }
      ],
      "stateMutability": "view",
      "type": "function"
    },
    {
      "inputs": [
        {
          "internalType": "address",
          "name": "a1",
          "type": "address"
        },
        {
          "internalType": "address",
          "name": "a2",
          "type": "address"
        }
      ],
      "name": "channelKey",
      "outputs": [
        {
          "internalType": "bytes",
          "name": "",
          "type": "bytes"
        }
      ],
      "stateMutability": "pure",
      "type": "function"
    },
    {
      "inputs": [
        {
          "components": [
            {
              "internalType": "address",
              "name": "peer",
              "type": "address"
            },
            {
              "components": [
                {
                  "internalType": "int256[]",
                  "name": "offdeltas",
                  "type": "int256[]"
                },
                {
                  "internalType": "uint256[]",
                  "name": "tokenIds",
                  "type": "uint256[]"
                },
                {
                  "components": [
                    {
                      "internalType": "address",
                      "name": "subcontractProviderAddress",
                      "type": "address"
                    },
                    {
                      "internalType": "bytes",
                      "name": "encodedBatch",
                      "type": "bytes"
                    },
                    {
                      "components": [
                        {
                          "internalType": "uint256",
                          "name": "deltaIndex",
                          "type": "uint256"
                        },
                        {
                          "internalType": "uint256",
                          "name": "rightAllowence",
                          "type": "uint256"
                        },
                        {
                          "internalType": "uint256",
                          "name": "leftAllowence",
                          "type": "uint256"
                        }
                      ],
                      "internalType": "struct Depository.Allowence[]",
                      "name": "allowences",
                      "type": "tuple[]"
                    }
                  ],
                  "internalType": "struct Depository.SubcontractClause[]",
                  "name": "subcontracts",
                  "type": "tuple[]"
                }
              ],
              "internalType": "struct Depository.ProofBody",
              "name": "proofbody",
              "type": "tuple"
            },
            {
              "internalType": "bytes",
              "name": "initialArguments",
              "type": "bytes"
            },
            {
              "internalType": "bytes",
              "name": "finalArguments",
              "type": "bytes"
            },
            {
              "internalType": "bytes",
              "name": "sig",
              "type": "bytes"
            }
          ],
          "internalType": "struct Depository.CooperativeDisputeProof",
          "name": "params",
          "type": "tuple"
        }
      ],
      "name": "cooperativeDisputeProof",
      "outputs": [
        {
          "internalType": "bool",
          "name": "",
          "type": "bool"
        }
      ],
      "stateMutability": "nonpayable",
      "type": "function"
    },
    {
      "inputs": [
        {
          "components": [
            {
              "internalType": "address",
              "name": "peer",
              "type": "address"
            },
            {
              "components": [
                {
                  "internalType": "uint256",
                  "name": "tokenId",
                  "type": "uint256"
                },
                {
                  "internalType": "int256",
                  "name": "peerReserveDiff",
                  "type": "int256"
                },
                {
                  "internalType": "int256",
                  "name": "collateralDiff",
                  "type": "int256"
                },
                {
                  "internalType": "int256",
                  "name": "ondeltaDiff",
                  "type": "int256"
                }
              ],
              "internalType": "struct Depository.Diff[]",
              "name": "diffs",
              "type": "tuple[]"
            },
            {
              "internalType": "uint256[]",
              "name": "forgiveDebtsInTokenIds",
              "type": "uint256[]"
            },
            {
              "internalType": "bytes",
              "name": "sig",
              "type": "bytes"
            }
          ],
          "internalType": "struct Depository.CooperativeUpdate",
          "name": "params",
          "type": "tuple"
        }
      ],
      "name": "cooperativeUpdate",
      "outputs": [
        {
          "internalType": "bool",
          "name": "",
          "type": "bool"
        }
      ],
      "stateMutability": "nonpayable",
      "type": "function"
    },
    {
      "inputs": [
        {
          "internalType": "address",
          "name": "addr",
          "type": "address"
        },
        {
          "internalType": "uint256",
          "name": "tokenId",
          "type": "uint256"
        }
      ],
      "name": "enforceDebts",
      "outputs": [
        {
          "internalType": "uint256",
          "name": "totalDebts",
          "type": "uint256"
        }
      ],
      "stateMutability": "nonpayable",
      "type": "function"
    },
    {
      "inputs": [
        {
          "internalType": "address",
          "name": "",
          "type": "address"
        }
      ],
      "name": "entityNonces",
      "outputs": [
        {
          "internalType": "uint256",
          "name": "",
          "type": "uint256"
        }
      ],
      "stateMutability": "view",
      "type": "function"
    },
    {
      "inputs": [
        {
          "internalType": "uint256",
          "name": "",
          "type": "uint256"
        }
      ],
      "name": "entityProvidersList",
      "outputs": [
        {
          "internalType": "address",
          "name": "",
          "type": "address"
        }
      ],
      "stateMutability": "view",
      "type": "function"
    },
    {
      "inputs": [
        {
          "components": [
            {
              "internalType": "bytes32",
              "name": "packedToken",
              "type": "bytes32"
            },
            {
              "internalType": "uint256",
              "name": "internalTokenId",
              "type": "uint256"
            },
            {
              "internalType": "uint256",
              "name": "amount",
              "type": "uint256"
            }
          ],
          "internalType": "struct Depository.ExternalTokenToReserve",
          "name": "params",
          "type": "tuple"
        }
      ],
      "name": "externalTokenToReserve",
      "outputs": [],
      "stateMutability": "nonpayable",
      "type": "function"
    },
    {
      "inputs": [
        {
          "components": [
            {
              "internalType": "address",
              "name": "peer",
              "type": "address"
            },
            {
              "internalType": "uint256",
              "name": "initialCooperativeNonce",
              "type": "uint256"
            },
            {
              "internalType": "uint256",
              "name": "initialDisputeNonce",
              "type": "uint256"
            },
            {
              "internalType": "uint256",
              "name": "disputeUntilBlock",
              "type": "uint256"
            },
            {
              "internalType": "bytes32",
              "name": "initialProofbodyHash",
              "type": "bytes32"
            },
            {
              "internalType": "bytes",
              "name": "initialArguments",
              "type": "bytes"
            },
            {
              "internalType": "bool",
              "name": "startedByLeft",
              "type": "bool"
            },
            {
              "internalType": "uint256",
              "name": "finalCooperativeNonce",
              "type": "uint256"
            },
            {
              "internalType": "uint256",
              "name": "finalDisputeNonce",
              "type": "uint256"
            },
            {
              "components": [
                {
                  "internalType": "int256[]",
                  "name": "offdeltas",
                  "type": "int256[]"
                },
                {
                  "internalType": "uint256[]",
                  "name": "tokenIds",
                  "type": "uint256[]"
                },
                {
                  "components": [
                    {
                      "internalType": "address",
                      "name": "subcontractProviderAddress",
                      "type": "address"
                    },
                    {
                      "internalType": "bytes",
                      "name": "encodedBatch",
                      "type": "bytes"
                    },
                    {
                      "components": [
                        {
                          "internalType": "uint256",
                          "name": "deltaIndex",
                          "type": "uint256"
                        },
                        {
                          "internalType": "uint256",
                          "name": "rightAllowence",
                          "type": "uint256"
                        },
                        {
                          "internalType": "uint256",
                          "name": "leftAllowence",
                          "type": "uint256"
                        }
                      ],
                      "internalType": "struct Depository.Allowence[]",
                      "name": "allowences",
                      "type": "tuple[]"
                    }
                  ],
                  "internalType": "struct Depository.SubcontractClause[]",
                  "name": "subcontracts",
                  "type": "tuple[]"
                }
              ],
              "internalType": "struct Depository.ProofBody",
              "name": "finalProofbody",
              "type": "tuple"
            },
            {
              "internalType": "bytes",
              "name": "finalArguments",
              "type": "bytes"
            },
            {
              "internalType": "bytes",
              "name": "sig",
              "type": "bytes"
            }
          ],
          "internalType": "struct Depository.FinalDisputeProof",
          "name": "params",
          "type": "tuple"
        }
      ],
      "name": "finalDisputeProof",
      "outputs": [
        {
          "internalType": "bool",
          "name": "",
          "type": "bool"
        }
      ],
      "stateMutability": "nonpayable",
      "type": "function"
    },
    {
      "inputs": [
        {
          "internalType": "address",
          "name": "entity1",
          "type": "address"
        },
        {
          "internalType": "address",
          "name": "entity2",
          "type": "address"
        },
        {
          "components": [
            {
              "internalType": "int256[]",
              "name": "offdeltas",
              "type": "int256[]"
            },
            {
              "internalType": "uint256[]",
              "name": "tokenIds",
              "type": "uint256[]"
            },
            {
              "components": [
                {
                  "internalType": "address",
                  "name": "subcontractProviderAddress",
                  "type": "address"
                },
                {
                  "internalType": "bytes",
                  "name": "encodedBatch",
                  "type": "bytes"
                },
                {
                  "components": [
                    {
                      "internalType": "uint256",
                      "name": "deltaIndex",
                      "type": "uint256"
                    },
                    {
                      "internalType": "uint256",
                      "name": "rightAllowence",
                      "type": "uint256"
                    },
                    {
                      "internalType": "uint256",
                      "name": "leftAllowence",
                      "type": "uint256"
                    }
                  ],
                  "internalType": "struct Depository.Allowence[]",
                  "name": "allowences",
                  "type": "tuple[]"
                }
              ],
              "internalType": "struct Depository.SubcontractClause[]",
              "name": "subcontracts",
              "type": "tuple[]"
            }
          ],
          "internalType": "struct Depository.ProofBody",
          "name": "proofbody",
          "type": "tuple"
        },
        {
          "internalType": "bytes",
          "name": "arguments1",
          "type": "bytes"
        },
        {
          "internalType": "bytes",
          "name": "arguments2",
          "type": "bytes"
        }
      ],
      "name": "finalizeChannel",
      "outputs": [
        {
          "internalType": "bool",
          "name": "",
          "type": "bool"
        }
      ],
      "stateMutability": "nonpayable",
      "type": "function"
    },
    {
      "inputs": [],
      "name": "getApprovedProviders",
      "outputs": [
        {
          "internalType": "address[]",
          "name": "",
          "type": "address[]"
        }
      ],
      "stateMutability": "view",
      "type": "function"
    },
    {
      "inputs": [
        {
          "internalType": "address",
          "name": "addr",
          "type": "address"
        },
        {
          "internalType": "address[]",
          "name": "peers",
          "type": "address[]"
        },
        {
          "internalType": "uint256[]",
          "name": "tokenIds",
          "type": "uint256[]"
        }
      ],
      "name": "getChannels",
      "outputs": [
        {
          "components": [
            {
              "components": [
                {
                  "internalType": "uint256",
                  "name": "cooperativeNonce",
                  "type": "uint256"
                },
                {
                  "internalType": "bytes32",
                  "name": "disputeHash",
                  "type": "bytes32"
                }
              ],
              "internalType": "struct Depository.ChannelInfo",
              "name": "channel",
              "type": "tuple"
            },
            {
              "components": [
                {
                  "internalType": "uint256",
                  "name": "collateral",
                  "type": "uint256"
                },
                {
                  "internalType": "int256",
                  "name": "ondelta",
                  "type": "int256"
                }
              ],
              "internalType": "struct Depository.ChannelCollateral[]",
              "name": "collaterals",
              "type": "tuple[]"
            }
          ],
          "internalType": "struct Depository.ChannelReturn[]",
          "name": "response",
          "type": "tuple[]"
        }
      ],
      "stateMutability": "view",
      "type": "function"
    },
    {
      "inputs": [
        {
          "internalType": "address",
          "name": "entityProvider",
          "type": "address"
        },
        {
          "internalType": "uint256",
          "name": "externalTokenId",
          "type": "uint256"
        }
      ],
      "name": "getControlShareTokenId",
      "outputs": [
        {
          "internalType": "uint256",
          "name": "internalTokenId",
          "type": "uint256"
        }
      ],
      "stateMutability": "view",
      "type": "function"
    },
    {
      "inputs": [
        {
          "internalType": "address",
          "name": "addr",
          "type": "address"
        },
        {
          "internalType": "uint256",
          "name": "tokenId",
          "type": "uint256"
        }
      ],
      "name": "getDebts",
      "outputs": [
        {
          "components": [
            {
              "internalType": "uint256",
              "name": "amount",
              "type": "uint256"
            },
            {
              "internalType": "address",
              "name": "creditor",
              "type": "address"
            }
          ],
          "internalType": "struct Depository.Debt[]",
          "name": "allDebts",
          "type": "tuple[]"
        },
        {
          "internalType": "uint256",
          "name": "currentDebtIndex",
          "type": "uint256"
        }
      ],
      "stateMutability": "view",
      "type": "function"
    },
    {
      "inputs": [],
      "name": "getTokensLength",
      "outputs": [
        {
          "internalType": "uint256",
          "name": "",
          "type": "uint256"
        }
      ],
      "stateMutability": "view",
      "type": "function"
    },
    {
      "inputs": [
        {
          "internalType": "address[]",
          "name": "addrs",
          "type": "address[]"
        },
        {
          "internalType": "uint256[]",
          "name": "tokenIds",
          "type": "uint256[]"
        }
      ],
      "name": "getUsers",
      "outputs": [
        {
          "components": [
            {
              "internalType": "uint256",
              "name": "ETH_balance",
              "type": "uint256"
            },
            {
              "components": [
                {
                  "internalType": "uint256",
                  "name": "reserve",
                  "type": "uint256"
                },
                {
                  "internalType": "uint256",
                  "name": "debtIndex",
                  "type": "uint256"
                },
                {
                  "components": [
                    {
                      "internalType": "uint256",
                      "name": "amount",
                      "type": "uint256"
                    },
                    {
                      "internalType": "address",
                      "name": "creditor",
                      "type": "address"
                    }
                  ],
                  "internalType": "struct Depository.Debt[]",
                  "name": "debts",
                  "type": "tuple[]"
                }
              ],
              "internalType": "struct Depository.TokenReserveDebts[]",
              "name": "tokens",
              "type": "tuple[]"
            }
          ],
          "internalType": "struct Depository.UserReturn[]",
          "name": "response",
          "type": "tuple[]"
        }
      ],
      "stateMutability": "view",
      "type": "function"
    },
    {
      "inputs": [
        {
          "components": [
            {
              "internalType": "address",
              "name": "peer",
              "type": "address"
            },
            {
              "internalType": "uint256",
              "name": "cooperativeNonce",
              "type": "uint256"
            },
            {
              "internalType": "uint256",
              "name": "disputeNonce",
              "type": "uint256"
            },
            {
              "internalType": "bytes32",
              "name": "proofbodyHash",
              "type": "bytes32"
            },
            {
              "internalType": "bytes",
              "name": "sig",
              "type": "bytes"
            },
            {
              "internalType": "bytes",
              "name": "initialArguments",
              "type": "bytes"
            }
          ],
          "internalType": "struct Depository.InitialDisputeProof",
          "name": "params",
          "type": "tuple"
        }
      ],
      "name": "initialDisputeProof",
      "outputs": [
        {
          "internalType": "bool",
          "name": "",
          "type": "bool"
        }
      ],
      "stateMutability": "nonpayable",
      "type": "function"
    },
    {
      "inputs": [
        {
          "internalType": "string",
          "name": "s",
          "type": "string"
        },
        {
          "internalType": "bytes",
          "name": "x",
          "type": "bytes"
        }
      ],
      "name": "log",
      "outputs": [],
      "stateMutability": "nonpayable",
      "type": "function"
    },
    {
      "inputs": [
        {
          "internalType": "string",
          "name": "s",
          "type": "string"
        },
        {
          "internalType": "address",
          "name": "x",
          "type": "address"
        }
      ],
      "name": "log",
      "outputs": [],
      "stateMutability": "nonpayable",
      "type": "function"
    },
    {
      "inputs": [
        {
          "internalType": "string",
          "name": "s",
          "type": "string"
        },
        {
          "internalType": "bytes32",
          "name": "x",
          "type": "bytes32"
        }
      ],
      "name": "log",
      "outputs": [],
      "stateMutability": "nonpayable",
      "type": "function"
    },
    {
      "inputs": [
        {
          "internalType": "string",
          "name": "s",
          "type": "string"
        },
        {
          "internalType": "int256",
          "name": "x",
          "type": "int256"
        }
      ],
      "name": "log",
      "outputs": [],
      "stateMutability": "nonpayable",
      "type": "function"
    },
    {
      "inputs": [
        {
          "internalType": "string",
          "name": "s",
          "type": "string"
        },
        {
          "internalType": "string",
          "name": "x",
          "type": "string"
        }
      ],
      "name": "log",
      "outputs": [],
      "stateMutability": "nonpayable",
      "type": "function"
    },
    {
      "inputs": [
        {
          "internalType": "string",
          "name": "s",
          "type": "string"
        },
        {
          "internalType": "uint256",
          "name": "x",
          "type": "uint256"
        }
      ],
      "name": "log",
      "outputs": [],
      "stateMutability": "nonpayable",
      "type": "function"
    },
    {
      "inputs": [
        {
          "internalType": "string",
          "name": "s",
          "type": "string"
        },
        {
          "internalType": "bool",
          "name": "x",
          "type": "bool"
        }
      ],
      "name": "log",
      "outputs": [],
      "stateMutability": "nonpayable",
      "type": "function"
    },
    {
      "inputs": [
        {
          "internalType": "address",
          "name": "a1",
          "type": "address"
        },
        {
          "internalType": "address",
          "name": "a2",
          "type": "address"
        }
      ],
      "name": "logChannel",
      "outputs": [],
      "stateMutability": "nonpayable",
      "type": "function"
    },
    {
      "inputs": [
        {
          "internalType": "address",
          "name": "operator",
          "type": "address"
        },
        {
          "internalType": "address",
          "name": "from",
          "type": "address"
        },
        {
          "internalType": "uint256",
          "name": "id",
          "type": "uint256"
        },
        {
          "internalType": "uint256",
          "name": "value",
          "type": "uint256"
        },
        {
          "internalType": "bytes",
          "name": "data",
          "type": "bytes"
        }
      ],
      "name": "onERC1155Received",
      "outputs": [
        {
          "internalType": "bytes4",
          "name": "",
          "type": "bytes4"
        }
      ],
      "stateMutability": "nonpayable",
      "type": "function"
    },
    {
      "inputs": [
        {
          "internalType": "uint8",
          "name": "tokenType",
          "type": "uint8"
        },
        {
          "internalType": "address",
          "name": "contractAddress",
          "type": "address"
        },
        {
          "internalType": "uint96",
          "name": "externalTokenId",
          "type": "uint96"
        }
      ],
      "name": "packTokenReference",
      "outputs": [
        {
          "internalType": "bytes32",
          "name": "",
          "type": "bytes32"
        }
      ],
      "stateMutability": "pure",
      "type": "function"
    },
    {
      "inputs": [
        {
          "components": [
            {
              "components": [
                {
                  "internalType": "address",
                  "name": "receiver",
                  "type": "address"
                },
                {
                  "internalType": "uint256",
                  "name": "tokenId",
                  "type": "uint256"
                },
                {
                  "internalType": "uint256",
                  "name": "amount",
                  "type": "uint256"
                }
              ],
              "internalType": "struct Depository.ReserveToExternalToken[]",
              "name": "reserveToExternalToken",
              "type": "tuple[]"
            },
            {
              "components": [
                {
                  "internalType": "bytes32",
                  "name": "packedToken",
                  "type": "bytes32"
                },
                {
                  "internalType": "uint256",
                  "name": "internalTokenId",
                  "type": "uint256"
                },
                {
                  "internalType": "uint256",
                  "name": "amount",
                  "type": "uint256"
                }
              ],
              "internalType": "struct Depository.ExternalTokenToReserve[]",
              "name": "externalTokenToReserve",
              "type": "tuple[]"
            },
            {
              "components": [
                {
                  "internalType": "address",
                  "name": "receiver",
                  "type": "address"
                },
                {
                  "internalType": "uint256",
                  "name": "tokenId",
                  "type": "uint256"
                },
                {
                  "internalType": "uint256",
                  "name": "amount",
                  "type": "uint256"
                }
              ],
              "internalType": "struct Depository.ReserveToReserve[]",
              "name": "reserveToReserve",
              "type": "tuple[]"
            },
            {
              "components": [
                {
                  "internalType": "uint256",
                  "name": "tokenId",
                  "type": "uint256"
                },
                {
                  "internalType": "address",
                  "name": "receiver",
                  "type": "address"
                },
                {
                  "components": [
                    {
                      "internalType": "address",
                      "name": "addr",
                      "type": "address"
                    },
                    {
                      "internalType": "uint256",
                      "name": "amount",
                      "type": "uint256"
                    }
                  ],
                  "internalType": "struct Depository.AddrAmountPair[]",
                  "name": "pairs",
                  "type": "tuple[]"
                }
              ],
              "internalType": "struct Depository.ReserveToCollateral[]",
              "name": "reserveToCollateral",
              "type": "tuple[]"
            },
            {
              "components": [
                {
                  "internalType": "address",
                  "name": "peer",
                  "type": "address"
                },
                {
                  "components": [
                    {
                      "internalType": "uint256",
                      "name": "tokenId",
                      "type": "uint256"
                    },
                    {
                      "internalType": "int256",
                      "name": "peerReserveDiff",
                      "type": "int256"
                    },
                    {
                      "internalType": "int256",
                      "name": "collateralDiff",
                      "type": "int256"
                    },
                    {
                      "internalType": "int256",
                      "name": "ondeltaDiff",
                      "type": "int256"
                    }
                  ],
                  "internalType": "struct Depository.Diff[]",
                  "name": "diffs",
                  "type": "tuple[]"
                },
                {
                  "internalType": "uint256[]",
                  "name": "forgiveDebtsInTokenIds",
                  "type": "uint256[]"
                },
                {
                  "internalType": "bytes",
                  "name": "sig",
                  "type": "bytes"
                }
              ],
              "internalType": "struct Depository.CooperativeUpdate[]",
              "name": "cooperativeUpdate",
              "type": "tuple[]"
            },
            {
              "components": [
                {
                  "internalType": "address",
                  "name": "peer",
                  "type": "address"
                },
                {
                  "components": [
                    {
                      "internalType": "int256[]",
                      "name": "offdeltas",
                      "type": "int256[]"
                    },
                    {
                      "internalType": "uint256[]",
                      "name": "tokenIds",
                      "type": "uint256[]"
                    },
                    {
                      "components": [
                        {
                          "internalType": "address",
                          "name": "subcontractProviderAddress",
                          "type": "address"
                        },
                        {
                          "internalType": "bytes",
                          "name": "encodedBatch",
                          "type": "bytes"
                        },
                        {
                          "components": [
                            {
                              "internalType": "uint256",
                              "name": "deltaIndex",
                              "type": "uint256"
                            },
                            {
                              "internalType": "uint256",
                              "name": "rightAllowence",
                              "type": "uint256"
                            },
                            {
                              "internalType": "uint256",
                              "name": "leftAllowence",
                              "type": "uint256"
                            }
                          ],
                          "internalType": "struct Depository.Allowence[]",
                          "name": "allowences",
                          "type": "tuple[]"
                        }
                      ],
                      "internalType": "struct Depository.SubcontractClause[]",
                      "name": "subcontracts",
                      "type": "tuple[]"
                    }
                  ],
                  "internalType": "struct Depository.ProofBody",
                  "name": "proofbody",
                  "type": "tuple"
                },
                {
                  "internalType": "bytes",
                  "name": "initialArguments",
                  "type": "bytes"
                },
                {
                  "internalType": "bytes",
                  "name": "finalArguments",
                  "type": "bytes"
                },
                {
                  "internalType": "bytes",
                  "name": "sig",
                  "type": "bytes"
                }
              ],
              "internalType": "struct Depository.CooperativeDisputeProof[]",
              "name": "cooperativeDisputeProof",
              "type": "tuple[]"
            },
            {
              "components": [
                {
                  "internalType": "address",
                  "name": "peer",
                  "type": "address"
                },
                {
                  "internalType": "uint256",
                  "name": "cooperativeNonce",
                  "type": "uint256"
                },
                {
                  "internalType": "uint256",
                  "name": "disputeNonce",
                  "type": "uint256"
                },
                {
                  "internalType": "bytes32",
                  "name": "proofbodyHash",
                  "type": "bytes32"
                },
                {
                  "internalType": "bytes",
                  "name": "sig",
                  "type": "bytes"
                },
                {
                  "internalType": "bytes",
                  "name": "initialArguments",
                  "type": "bytes"
                }
              ],
              "internalType": "struct Depository.InitialDisputeProof[]",
              "name": "initialDisputeProof",
              "type": "tuple[]"
            },
            {
              "components": [
                {
                  "internalType": "address",
                  "name": "peer",
                  "type": "address"
                },
                {
                  "internalType": "uint256",
                  "name": "initialCooperativeNonce",
                  "type": "uint256"
                },
                {
                  "internalType": "uint256",
                  "name": "initialDisputeNonce",
                  "type": "uint256"
                },
                {
                  "internalType": "uint256",
                  "name": "disputeUntilBlock",
                  "type": "uint256"
                },
                {
                  "internalType": "bytes32",
                  "name": "initialProofbodyHash",
                  "type": "bytes32"
                },
                {
                  "internalType": "bytes",
                  "name": "initialArguments",
                  "type": "bytes"
                },
                {
                  "internalType": "bool",
                  "name": "startedByLeft",
                  "type": "bool"
                },
                {
                  "internalType": "uint256",
                  "name": "finalCooperativeNonce",
                  "type": "uint256"
                },
                {
                  "internalType": "uint256",
                  "name": "finalDisputeNonce",
                  "type": "uint256"
                },
                {
                  "components": [
                    {
                      "internalType": "int256[]",
                      "name": "offdeltas",
                      "type": "int256[]"
                    },
                    {
                      "internalType": "uint256[]",
                      "name": "tokenIds",
                      "type": "uint256[]"
                    },
                    {
                      "components": [
                        {
                          "internalType": "address",
                          "name": "subcontractProviderAddress",
                          "type": "address"
                        },
                        {
                          "internalType": "bytes",
                          "name": "encodedBatch",
                          "type": "bytes"
                        },
                        {
                          "components": [
                            {
                              "internalType": "uint256",
                              "name": "deltaIndex",
                              "type": "uint256"
                            },
                            {
                              "internalType": "uint256",
                              "name": "rightAllowence",
                              "type": "uint256"
                            },
                            {
                              "internalType": "uint256",
                              "name": "leftAllowence",
                              "type": "uint256"
                            }
                          ],
                          "internalType": "struct Depository.Allowence[]",
                          "name": "allowences",
                          "type": "tuple[]"
                        }
                      ],
                      "internalType": "struct Depository.SubcontractClause[]",
                      "name": "subcontracts",
                      "type": "tuple[]"
                    }
                  ],
                  "internalType": "struct Depository.ProofBody",
                  "name": "finalProofbody",
                  "type": "tuple"
                },
                {
                  "internalType": "bytes",
                  "name": "finalArguments",
                  "type": "bytes"
                },
                {
                  "internalType": "bytes",
                  "name": "sig",
                  "type": "bytes"
                }
              ],
              "internalType": "struct Depository.FinalDisputeProof[]",
              "name": "finalDisputeProof",
              "type": "tuple[]"
            },
            {
              "components": [
                {
                  "internalType": "uint256",
                  "name": "tokenId",
                  "type": "uint256"
                },
                {
                  "internalType": "uint256",
                  "name": "amount",
                  "type": "uint256"
                }
              ],
              "internalType": "struct Depository.TokenAmountPair[]",
              "name": "flashloans",
              "type": "tuple[]"
            },
            {
              "internalType": "uint256",
              "name": "hub_id",
              "type": "uint256"
            }
          ],
          "internalType": "struct Depository.Batch",
          "name": "batch",
          "type": "tuple"
        }
      ],
      "name": "processBatch",
      "outputs": [
        {
          "internalType": "bool",
          "name": "completeSuccess",
          "type": "bool"
        }
      ],
      "stateMutability": "nonpayable",
      "type": "function"
    },
    {
      "inputs": [
        {
          "internalType": "bytes",
          "name": "encodedBatch",
          "type": "bytes"
        },
        {
          "internalType": "address",
          "name": "entityProvider",
          "type": "address"
        },
        {
          "internalType": "bytes",
          "name": "hankoData",
          "type": "bytes"
        },
        {
          "internalType": "uint256",
          "name": "nonce",
          "type": "uint256"
        }
      ],
      "name": "processBatchWithHanko",
      "outputs": [
        {
          "internalType": "bool",
          "name": "completeSuccess",
          "type": "bool"
        }
      ],
      "stateMutability": "nonpayable",
      "type": "function"
    },
    {
      "inputs": [
        {
          "internalType": "uint256",
          "name": "hub_id",
          "type": "uint256"
        },
        {
          "internalType": "string",
          "name": "new_uri",
          "type": "string"
        }
      ],
      "name": "registerHub",
      "outputs": [
        {
          "internalType": "uint256",
          "name": "",
          "type": "uint256"
        }
      ],
      "stateMutability": "nonpayable",
      "type": "function"
    },
    {
      "inputs": [
        {
          "internalType": "address",
          "name": "provider",
          "type": "address"
        }
      ],
      "name": "removeEntityProvider",
      "outputs": [],
      "stateMutability": "nonpayable",
      "type": "function"
    },
    {
      "inputs": [
        {
          "components": [
            {
              "internalType": "uint256",
              "name": "tokenId",
              "type": "uint256"
            },
            {
              "internalType": "address",
              "name": "receiver",
              "type": "address"
            },
            {
              "components": [
                {
                  "internalType": "address",
                  "name": "addr",
                  "type": "address"
                },
                {
                  "internalType": "uint256",
                  "name": "amount",
                  "type": "uint256"
                }
              ],
              "internalType": "struct Depository.AddrAmountPair[]",
              "name": "pairs",
              "type": "tuple[]"
            }
          ],
          "internalType": "struct Depository.ReserveToCollateral",
          "name": "params",
          "type": "tuple"
        }
      ],
      "name": "reserveToCollateral",
      "outputs": [
        {
          "internalType": "bool",
          "name": "completeSuccess",
          "type": "bool"
        }
      ],
      "stateMutability": "nonpayable",
      "type": "function"
    },
    {
      "inputs": [
        {
          "components": [
            {
              "internalType": "address",
              "name": "receiver",
              "type": "address"
            },
            {
              "internalType": "uint256",
              "name": "tokenId",
              "type": "uint256"
            },
            {
              "internalType": "uint256",
              "name": "amount",
              "type": "uint256"
            }
          ],
          "internalType": "struct Depository.ReserveToExternalToken",
          "name": "params",
          "type": "tuple"
        }
      ],
      "name": "reserveToExternalToken",
      "outputs": [],
      "stateMutability": "nonpayable",
      "type": "function"
    },
    {
      "inputs": [
        {
          "components": [
            {
              "internalType": "address",
              "name": "receiver",
              "type": "address"
            },
            {
              "internalType": "uint256",
              "name": "tokenId",
              "type": "uint256"
            },
            {
              "internalType": "uint256",
              "name": "amount",
              "type": "uint256"
            }
          ],
          "internalType": "struct Depository.ReserveToReserve",
          "name": "params",
          "type": "tuple"
        }
      ],
      "name": "reserveToReserve",
      "outputs": [],
      "stateMutability": "nonpayable",
      "type": "function"
    },
    {
      "inputs": [
        {
          "internalType": "bytes32",
          "name": "",
          "type": "bytes32"
        }
      ],
      "name": "tokenToId",
      "outputs": [
        {
          "internalType": "uint256",
          "name": "",
          "type": "uint256"
        }
      ],
      "stateMutability": "view",
      "type": "function"
    },
    {
      "inputs": [
        {
          "internalType": "address",
          "name": "to",
          "type": "address"
        },
        {
          "internalType": "uint256",
          "name": "internalTokenId",
          "type": "uint256"
        },
        {
          "internalType": "uint256",
          "name": "amount",
          "type": "uint256"
        },
        {
          "internalType": "string",
          "name": "purpose",
          "type": "string"
        }
      ],
      "name": "transferControlShares",
      "outputs": [],
      "stateMutability": "nonpayable",
      "type": "function"
    },
    {
      "inputs": [
        {
          "internalType": "bytes32",
          "name": "packed",
          "type": "bytes32"
        }
      ],
      "name": "unpackTokenReference",
      "outputs": [
        {
          "internalType": "address",
          "name": "contractAddress",
          "type": "address"
        },
        {
          "internalType": "uint96",
          "name": "externalTokenId",
          "type": "uint96"
        },
        {
          "internalType": "uint8",
          "name": "tokenType",
          "type": "uint8"
        }
      ],
      "stateMutability": "pure",
      "type": "function"
    }
  ],
  "bytecode": "0x608034620002cb57600954680100000000000000009182821015620002b5576001808301806009558310156200029f57600960009081527f6e1540171b6c0c960b71a7020d9f60077f6af931a8bbf590da0223dacf75c7af9093018390556020926001600160401b039260608101848111828210176200028b576040528181528481018281526040519686880188811087821117620002775760405283885260408301978852600854908110156200026357848101806008558110156200024f5790600292916008855260038886209102019160018060a01b0390511660018060a01b0319835416178255518482015501945180519384116200023b5785548381811c9116801562000230575b868210146200021c57601f8111620001d1575b508491601f85116001146200016a5793945084929190836200015e575b50501b916000199060031b1c19161790555b6040516162169081620002d18239f35b0151925038806200013c565b86815285812093958591601f198316915b88838310620001b657505050106200019c575b505050811b0190556200014e565b015160001960f88460031b161c191690553880806200018e565b8587015188559096019594850194879350908101906200017b565b868352858320601f860160051c81019187871062000211575b601f0160051c019084905b828110620002055750506200011f565b848155018490620001f5565b9091508190620001ea565b634e487b7160e01b83526022600452602483fd5b90607f16906200010c565b634e487b7160e01b82526041600452602482fd5b634e487b7160e01b84526032600452602484fd5b634e487b7160e01b84526041600452602484fd5b634e487b7160e01b85526041600452602485fd5b634e487b7160e01b83526041600452602483fd5b634e487b7160e01b600052603260045260246000fd5b634e487b7160e01b600052604160045260246000fd5b600080fdfe6080604052600436101561001257600080fd5b60003560e01c806304aaa1e1146103075780630dedd624146103025780631e1c13b3146102fd57806323cdd8e8146102f8578063266afe1b146102f35780632cfaaa7a146102ee578063319af333146102e95780633644e515146102e45780633692d61a146102df5780633c4deb11146102da5780633ca6268e146102d55780633ee01625146102d05780634109eedf146102cb5780634174a93d146102c65780634b5c4277146102c157806358d642bc146102bc578063768843e1146102b757806376ace773146102b25780637aa6422f146102ad578063805bd697146102a857806392cf61e5146102a35780639304677d1461029e5780639645ee1014610299578063a034af4214610294578063a09fd42b1461028f578063a56c7bf71461028a578063a7d074de14610285578063abc8d1ac14610280578063b0c26ecf1461027b578063b60e72cc14610276578063bb2c250c14610271578063bf52638c1461026c578063bfa4b7d914610267578063c3b5563514610262578063d19fd92e1461025d578063d1cb4dc314610258578063d7f6d87414610253578063db5772f51461024e578063ddc3948014610249578063e479f93d14610244578063ec6d8e061461023f578063ed70554d1461023a578063f23a6e6114610235578063fb552dca14610230578063fbfe1b571461022b578063fe4ece54146102265763ffc9fd471461022157600080fd5b612e6e565b612d79565b612aeb565b612aa3565b61290b565b6128ba565b612860565b6127b7565b61260f565b6123eb565b612371565b612336565b612207565b612185565b612137565b612115565b612099565b61205c565b61203e565b611fff565b611fb7565b611f7c565b611df7565b611d1f565b611b61565b61198d565b611928565b6118ed565b6117a1565b611669565b6114f6565b6113ee565b611354565b6112f2565b6112c3565b6111fb565b6111a6565b611165565b6110b9565b61107e565b61103c565b610fa4565b610c39565b610bdb565b61093c565b6108b1565b6104d5565b634e487b7160e01b600052604160045260246000fd5b6060810190811067ffffffffffffffff82111761033e57604052565b61030c565b67ffffffffffffffff811161033e57604052565b6040810190811067ffffffffffffffff82111761033e57604052565b6080810190811067ffffffffffffffff82111761033e57604052565b90601f8019910116810190811067ffffffffffffffff82111761033e57604052565b60405190610180820182811067ffffffffffffffff82111761033e57604052565b604051906103df82610357565b565b604051906103df82610322565b6040519060a0820182811067ffffffffffffffff82111761033e57604052565b6040519060c0820182811067ffffffffffffffff82111761033e57604052565b60405190610140820182811067ffffffffffffffff82111761033e57604052565b600435906001600160a01b038216820361046557565b600080fd5b602435906001600160a01b038216820361046557565b35906001600160a01b038216820361046557565b606090600319011261046557604051906104ad82610322565b816004356001600160a01b038116810361046557815260243560208201526040604435910152565b34610465576060366003190112610465576104ef36610494565b602081016104fe815133613c77565b5060ff61053861051b61051184516127f2565b90549060031b1c90565b8060601c9160ff6affffffffffffffffffffff8360081c16921690565b61056c61055c94929394336001600160a01b03166000526002602052604060002090565b8651600052602052604060002090565b549461057f604088019687511115612fa5565b6105bd6105b58751926105a5336001600160a01b03166000526002602052604060002090565b9051600052602052604060002090565b91825461301a565b9055168061068a575050906020916105df61063794516001600160a01b031690565b91519160006001600160a01b036040518097819682957fa9059cbb00000000000000000000000000000000000000000000000000000000845260048401602090939291936001600160a01b0360408201951681520152565b0393165af180156106855761065491600091610656575b50613048565b005b610678915060203d60201161067e575b610670818361038f565b810190613033565b3861064e565b503d610666565b613027565b909291906001810361072257506106b391506001600160a01b031692516001600160a01b031690565b823b15610465576040516323b872dd60e01b81523060048201526001600160a01b039190911660248201526bffffffffffffffffffffffff919091166044820152906000908290606490829084905af180156106855761070f57005b8061071c61065492610343565b80610c2e565b60021461072b57005b6001600160a01b03610746911693516001600160a01b031690565b905192803b1561046557604051637921219560e11b81523060048201526001600160a01b039290921660248301526bffffffffffffffffffffffff929092166044820152606481019290925260a06084830152600060a4830181905290829060c490829084905af180156106855761070f57005b67ffffffffffffffff811161033e57601f01601f191660200190565b9291926107e2826107ba565b916107f0604051938461038f565b829481845281830111610465578281602093846000960137010152565b9080601f8301121561046557816020610828933591016107d6565b90565b60005b83811061083e5750506000910152565b818101518382015260200161082e565b906108616020928281519485920161082b565b0190565b602061087e91816040519382858094519384920161082b565b8101600481520301902090565b60206108a491816040519382858094519384920161082b565b8101600381520301902090565b346104655760403660031901126104655760043567ffffffffffffffff8111610465576108e56108ea91369060040161080d565b610865565b6024356000526020526040806000206001815491015482519182526020820152f35b6060906003190112610465576040519061092582610322565b600435825260243560208301526044356040830152565b34610465576060366003190112610465576109563661090c565b602081019081518015600014610bc8575061097c8151600052600a602052604060002090565b5480835215610b95575b60ff6109aa82518060601c9160ff6affffffffffffffffffffff8360081c16921690565b90921680610a60575060408381015190516323b872dd60e01b815233600482015230602482015260448101919091529150602090829060649082906000906001600160a01b03165af1801561068557610a3d92610a15604092610a3594600091610a41575b5061309c565b0151926105a5336001600160a01b03166000526002602052604060002090565b918254613103565b9055005b610a5a915060203d60201161067e57610670818361038f565b38610a0f565b60018103610ae557506001600160a01b0316803b15610465576040516323b872dd60e01b81523360048201523060248201526bffffffffffffffffffffffff9290921660448301526000908290606490829084905af1801561068557610a3d92610a3592604092610ad2575b50610a15565b8061071c610adf92610343565b38610acc565b600214610afd575b5050610a356040610a3d92610a15565b6001600160a01b0316906040830151823b1561046557604051637921219560e11b81523360048201523060248201526bffffffffffffffffffffffff929092166044830152606482015260a06084820152600060a482018190529091829060c490829084905af1801561068557610a3d92610a3592604092610b82575b509250610aed565b8061071c610b8f92610343565b38610b7a565b610b9f815161304f565b610baa600954613006565b808352610bc28251600052600a602052604060002090565b55610986565b610511610bd4916127f2565b8152610986565b346104655760403660031901126104655767ffffffffffffffff60043581811161046557610c0d90369060040161080d565b60243591821161046557610c2861065492369060040161080d565b90613110565b600091031261046557565b3461046557600080600319360112610cfa5760405180916001906001549384845260208094018095600184527fb10e2d527612073b26eecdfd717e6a320cf44b4afac2b0732d9fcbe2b7fa0cf690845b818110610cde5750505081610c9f91038261038f565b6040519380850191818652518092526040850195925b828110610cc25785870386f35b83516001600160a01b0316875295810195928101928401610cb5565b82546001600160a01b0316845292870192918601918601610c89565b80fd5b67ffffffffffffffff811161033e5760051b60200190565b9080601f83011215610465576020908235610d2f81610cfd565b93610d3d604051958661038f565b81855260208086019260051b82010192831161046557602001905b828210610d66575050505090565b81358152908301908301610d58565b81601f8201121561046557803591602090610d8f84610cfd565b936040610d9e8151968761038f565b818652838087019260051b8601019280841161046557848601925b848410610dca575050505050505090565b67ffffffffffffffff84358181116104655788019060609081601f19848703011261046557855192610dfb84610322565b610e068a8201610480565b84528681013582811161046557868b610e219284010161080d565b8a8501528281013591821161046557019084603f83011215610465578882013591610e4b83610cfd565b92610e588851948561038f565b80845287838c86019202830101918783116104655791888c969492979593015b818110610e945750505083945086820152815201930192610db9565b9180949650828998929496980312610465578b84918a51610eb481610322565b8435815282850135838201528b8501358c8201528152019101918b959391969492610e78565b91906060838203126104655760405190610ef382610322565b819380359167ffffffffffffffff9283811161046557820181601f82011215610465578035602091610f2482610cfd565b91610f32604051938461038f565b808352838084019160051b830101918583116104655784809101915b838310610f9457505050508552808301358481116104655782610f72918501610d15565b90850152604082013592831161046557604092610f8f9201610d75565b910152565b8235815291810191859101610f4e565b346104655760a036600319011261046557610fbd61044f565b610fc561046a565b9067ffffffffffffffff9060443582811161046557610fe8903690600401610eda565b6064358381116104655761100090369060040161080d565b90608435938411610465576110389461102061102695369060040161080d565b936134fe565b60405190151581529081906020820190565b0390f35b346104655760403660031901126104655760043567ffffffffffffffff81116104655761107061065491369060040161080d565b61107861046a565b90613b1f565b346104655760003660031901126104655760206040517f990f4c22d4b046a9a7d673c4a252b906cadd4f3290465e297f998c28a449652b8152f35b346104655760403660031901126104655760043567ffffffffffffffff81116104655761112261110e7f02d93529bba9d141e5e06733c52c7e6fbcb1149586adb5c24064b522ab26f1d792369060040161080d565b60405191829160408352604083019061112f565b60243560208301520390a1005b906020916111488151809281855285808601910161082b565b601f01601f1916010190565b90602061082892818152019061112f565b346104655760403660031901126104655761103861119261118461044f565b61118c61046a565b90613b6d565b60405191829160208352602083019061112f565b346104655760403660031901126104655760043567ffffffffffffffff81116104655761112261110e7f6a837ff3973aa4181e7b9f07756f8b7ee366dd85a36655d2cb42cd47f10b963892369060040161080d565b346104655760603660031901126104655761121536610494565b6020810190611225825133613c77565b50600091338352600260205260408320815184526020526040832054604083019182518092106112bf576105a56112a16112ba94610a35946112906105b5611280336001600160a01b03166000526002602052604060002090565b8751600052602052604060002090565b90555195516001600160a01b031690565b6001600160a01b03166000526002602052604060002090565b905580f35b8480fd5b346104655760403660031901126104655760206112ea6112e161044f565b60243590613c77565b604051908152f35b346104655760403660031901126104655761133c61130e61044f565b60601b6bffffffffffffffffffffffff191660243560081b6cffffffffffffffffffffffff00161760021790565b600052600a6020526020604060002054604051908152f35b346104655760403660031901126104655767ffffffffffffffff6004358181116104655761138690369060040161080d565b90602435908111610465577f27a8767ed172b48d7cf6dbb25d2840c5fa91ef78fa6e05c13c82763d099f03ca916113e96113c76113db93369060040161080d565b60405193849360408552604085019061112f565b90838203602085015261112f565b0390a1005b346104655760203660031901126104655761140761044f565b6001600160a01b0381166000918183528260205260ff604084205416611484578061145861144b61145d936001600160a01b03166000526000602052604060002090565b805460ff19166001179055565b613eaf565b7fc395b1bd803c744a815bc34a0426e5eaac03513b9d76bf237a734a004916499c8280a280f35b606460405162461bcd60e51b815260206004820152601060248201527f416c726561647920617070726f766564000000000000000000000000000000006044820152fd5b9181601f840112156104655782359167ffffffffffffffff8311610465576020838186019501011161046557565b346104655760803660031901126104655761150f61044f565b6024359060443560643567ffffffffffffffff8111610465576115577fb27368fa5e091451f133ee63c16745b5f4037723830f29b1b9d5cb70b98c78789136906004016114c8565b906115628633613c77565b503360005260026020526115908461158888604060002090600052602052604060002090565b541015613f26565b61160f866115da6001600160a01b038816976115ad891515613f71565b6115b9338a1415613fbc565b6115e9836115da336001600160a01b03166000526002602052604060002090565b90600052602052604060002090565b6115f489825461301a565b90556001600160a01b03166000526002602052604060002090565b61161a858254613103565b905561162d604051928392339684614028565b0390a4005b634e487b7160e01b600052603260045260246000fd5b80548210156116645760005260206000209060011b0190600090565b611632565b346104655760603660031901126104655761168261044f565b604435906001600160a01b039081600091168152600560205260408120602435825260205260408120908154841015610cfa57506040926116c291611648565b5090600182549201541682519182526020820152f35b919060608382031261046557604080516116f181610322565b809480358252602090611705828201610480565b82840152838101359067ffffffffffffffff821161046557019084601f8301121561046557813561173581610cfd565b956117428651978861038f565b818752828088019260061b85010193818511610465578301915b84831061176c5750505050500152565b868383031261046557838791825161178381610357565b61178c86610480565b8152828601358382015281520192019161175c565b346104655760203660031901126104655760043567ffffffffffffffff8111610465576117dc6117d760209236906004016116d8565b6140b1565b6040519015158152f35b8015150361046557565b35906103df826117e6565b919061018083820312610465576118106103b1565b9261181a81610480565b84526020810135602085015260408101356040850152606081013560608501526080810135608085015260a08101359167ffffffffffffffff92838111610465578161186791840161080d565b60a086015261187860c083016117f0565b60c086015260e082013560e086015261010080830135908601526101208083013584811161046557826118ac918501610eda565b908601526101408083013584811161046557826118ca91850161080d565b908601526101609283830135908111610465576118e7920161080d565b90830152565b346104655760203660031901126104655760043567ffffffffffffffff8111610465576117dc61192360209236906004016117fb565b614577565b346104655760203660031901126104655760606bffffffffffffffffffffffff60ff61196d6004358060601c9160ff6affffffffffffffffffffff8360081c16921690565b9193906001600160a01b0360405195168552166020840152166040820152f35b34610465576020366003190112610465576001600160a01b036119ae61044f565b16600052600b6020526020604060002054604051908152f35b9080601f830112156104655760209082356119e181610cfd565b936119ef604051958661038f565b81855260208086019260051b82010192831161046557602001905b828210611a18575050505090565b838091611a2484610480565b815201910190611a0a565b90815180825260208080930193019160005b828110611a4f575050505090565b8351805186528201516001600160a01b03168583015260409094019392810192600101611a41565b602080820190808352835180925260409283810160059483818660051b850101970195600080945b878610611ab25750505050505050505090565b909192939495969798603f19828203018652878a5181878401918051855201519287838201528351809252606091828201918484838b1b83010196019388905b8b848310611b185750505050505050806001929b01960196019497969593929190611a9f565b96611b508883899b818a9c6001989a9c8a9c88999b605f19908603019052518051845287810151888501520151938201520190611a2f565b9801960192018d9594929391611af2565b34610465576040806003193601126104655767ffffffffffffffff9060043582811161046557611b959036906004016119c7565b9160243590811161046557611bae903690600401610d15565b611bb883516147b9565b6000906000905b8551821015611d0f57611be2611bd58388613184565b516001600160a01b031690565b94853193611bf0865161481c565b94611bf96103d2565b90815260209586820152611c0d8585613184565b52611c188484613184565b50805b8651811015611cfe5780611cf7600192611c64611c4b8c6001600160a01b03166000526002602052604060002090565b611c55838d613184565b51600052602052604060002090565b54611cd48c611cbf8d611c5586611cb9611c9e611c94876001600160a01b03166000526006602052604060002090565b611c558487613184565b54956001600160a01b03166000526005602052604060002090565b92613184565b90611cc86103e1565b9384528c840152614884565b8782015289611ce38a8a613184565b51015190611cf18383613184565b52613184565b5001611c1b565b509350945094906001019094611bbf565b6110389060405191829182611a77565b346104655760403660031901126104655760243567ffffffffffffffff8111610465576112ea611d55602092369060040161080d565b600435614a96565b600854811015611664576003906008600052027ff3f7a9fe364faab93b216da50a3214154f22a0a2b415b23a84c8169e8b636ee30190600090565b90600182811c92168015611dc8575b6020831014611db257565b634e487b7160e01b600052602260045260246000fd5b91607f1691611da7565b61082893926001600160a01b036060931682526020820152816040820152019061112f565b34610465576020806003193601126104655760043560085481101561046557611e1f90611d5d565b50906001600160a01b038254169060016002600185015494019160405192600092815491611e4c83611d98565b8087529260018116908115611ebc5750600114611e82575b878761103888611e76818a038261038f565b60405193849384611dd2565b6000908152838120939450925b828410611ea957505050820101611e768261103838611e64565b8054868501860152928401928101611e8f565b60ff191685880152505050151560051b8301019050611e768261103838611e64565b91909160a08184031261046557611ef36103ee565b92611efd82610480565b845267ffffffffffffffff60208301358181116104655782611f20918501610eda565b602086015260408301358181116104655782611f3d91850161080d565b604086015260608301358181116104655782611f5a91850161080d565b6060860152608083013590811161046557611f75920161080d565b6080830152565b346104655760203660031901126104655760043567ffffffffffffffff8111610465576117dc611fb26020923690600401611ede565b614c17565b34610465576040366003190112610465576001600160a01b03611fd861044f565b16600052600660205260406000206024356000526020526020604060002054604051908152f35b34610465576020366003190112610465576001600160a01b0361202061044f565b166000526000602052602060ff604060002054166040519015158152f35b34610465576000366003190112610465576020600954604051908152f35b346104655760403660031901126104655760043567ffffffffffffffff81116104655761209061065491369060040161080d565b60243590614da4565b346104655760603660031901126104655760043560ff8116809103610465576120c061046a565b90604435906bffffffffffffffffffffffff821682036104655760ff8111610465576020926cffffffffffffffffffffffff006040519360081b16906bffffffffffffffffffffffff199060601b1617178152f35b346104655760403660031901126104655761212e61044f565b5061065461046a565b346104655760203660031901126104655760043567ffffffffffffffff81116104655761217261216d604092369060040161080d565b61088b565b6001815491015482519182526020820152f35b346104655760403660031901126104655760043567ffffffffffffffff8111610465576121fa6121da7f4c34c2f9a78632f29fa59aaed5514cb742fd9fbcfd7ccc2c03c85f2bbc621c4792369060040161080d565b6024356121e6816117e6565b60405192839260408452604084019061112f565b90151560208301520390a1005b3461046557602036600319011261046557600435600052600a6020526020604060002054604051908152f35b9190608080848303126104655760409384519261224f84610373565b839561225a83610480565b855267ffffffffffffffff936020848101358681116104655785019184601f840112156104655782359261228d84610cfd565b9361229a8651958661038f565b808552838086019160071b83010191878311610465578401905b8282106122f657505050508601528083013584811161046557826122d9918501610d15565b90850152606082013592831161046557606092610f8f920161080d565b838289031261046557848491885161230d81610373565b843581528285013583820152898501358a820152606080860135908201528152019101906122b4565b346104655760203660031901126104655760043567ffffffffffffffff8111610465576117dc61236c6020923690600401612233565b614fce565b34610465576040806003193601126104655761238b61044f565b906123cd816001600160a01b03602435941693600090858252600660205282822081835260205282822054958252600560205282822090825260205220614884565b916123e18251938385948552840190611a2f565b9060208301520390f35b3461046557600319602036820112610465576004359067ffffffffffffffff8211610465576101409082360301126104655761242b9036906004016156cf565b5a600160009160808401925b83518051821015612472576124586124528361245c93613184565b51614fce565b1590565b612469575b600101612437565b60009250612461565b50508360009160a08201925b835180518210156124b5576124586124998361249f93613184565b51614c17565b6124ac575b60010161247e565b600094506124a4565b50508360009160c08401925b835180518210156124f8576124586124dc836124e293613184565b516158bc565b6124ef575b6001016124c1565b600092506124e7565b50508360009160e08201925b8351805182101561253b5761245861251f8361252593613184565b51614577565b612532575b600101612504565b6000945061252a565b50508360009160608401925b8351805182101561257e576124586125628361256893613184565b516140b1565b612575575b600101612547565b6000925061256d565b6110388484610120890190815180151590816125dc575b506125af575b505060405190151581529081906020820190565b60016125c96125c26125d3935a9061301a565b9351611d5d565b5001918254613103565b9055828061259b565b61260791506125ed6125fb91611d5d565b50546001600160a01b031690565b6001600160a01b031690565b331485612595565b346104655760203660031901126104655761262861044f565b6001600160a01b0380821661267d6126736000948386528560205261265a6126556040882060ff90541690565b6157fc565b6001600160a01b03166000526000602052604060002090565b805460ff19169055565b825b6001548082101561272b5782846126ab61269885612829565b90546001600160a01b039160031b1c1690565b16146126ba575060010161267f565b6126fc9293506126d76126986126d26126dd93613006565b612829565b91612829565b9091906001600160a01b038084549260031b9316831b921b1916179055565b612704615847565b7f67c5a35d33d48c47ef33c82c62eda6254aad034fab4c51abe26a6d06ad174a348280a280f35b50509050612704565b91909160c0818403126104655761274961040e565b9261275382610480565b8452602082013560208501526040820135604085015260608201356060850152608082013567ffffffffffffffff90818111610465578261279591850161080d565b608086015260a0830135908111610465576127b0920161080d565b60a0830152565b346104655760203660031901126104655760043567ffffffffffffffff8111610465576117dc6127ed6020923690600401612734565b6158bc565b6009548110156116645760096000527f6e1540171b6c0c960b71a7020d9f60077f6af931a8bbf590da0223dacf75c7af0190600090565b6001548110156116645760016000527fb10e2d527612073b26eecdfd717e6a320cf44b4afac2b0732d9fcbe2b7fa0cf60190600090565b3461046557602036600319011261046557600435600154811015610465576001600160a01b0360209160016000527fb10e2d527612073b26eecdfd717e6a320cf44b4afac2b0732d9fcbe2b7fa0cf6015416604051908152f35b34610465576020366003190112610465576004356009548110156104655760209060096000527f6e1540171b6c0c960b71a7020d9f60077f6af931a8bbf590da0223dacf75c7af0154604051908152f35b346104655760a03660031901126104655761292461044f565b5061292d61046a565b6044359060643560843567ffffffffffffffff8111610465576129549036906004016114c8565b61297e612977949294336001600160a01b03166000526000602052604060002090565b5460ff1690565b6129ae575b6040517ff23a6e61000000000000000000000000000000000000000000000000000000008152602090f35b7f3905abcd1f9797e8b4e20f9d468f6f971cf334c5f5c1d4665eacec0ce947c678916001600160a01b0391612a6390612a463360601b6bffffffffffffffffffffffff191660088a901b6cffffffffffffffffffffffff001617600217612a1f81600052600a602052604060002090565b54908115612a70575b506115da856001600160a01b03166000526002602052604060002090565b612a51878254613103565b90556040519384931696339684614028565b0390a43880808080612983565b612a9c9150612a7e8161304f565b612a89600954613006565b918291600052600a602052604060002090565b5538612a28565b34610465576040366003190112610465576001600160a01b03612ac461044f565b16600052600260205260406000206024356000526020526020604060002054604051908152f35b346104655760803660031901126104655767ffffffffffffffff60043581811161046557612b1d9036906004016114c8565b90612b2661046a565b9260443590811161046557612b3f9036906004016114c8565b9091606435936001600160a01b038096169384600052600060205260409460ff86600020541615612d36579085612bd294939281516020810190612b9981612b8b8d898b304689615aa6565b03601f19810183528261038f565b51902090825180809881947f8aad06280000000000000000000000000000000000000000000000000000000083528b8860048501615b1b565b03915afa9081156106855761103898889260009689600092612cc2575b505092612c92612c417fbd6e57133956b4a3944b483a9e595b4aab16071cf15a39384fdb1b7015865aab9794612ca09794612c2c612c9b98615b38565b612c378b1515615b83565b8a169a36916107d6565b6020815191012098612c79612c72612c6c836001600160a01b0316600052600b602052604060002090565b546130e7565b8414615bce565b6001600160a01b0316600052600b602052604060002090565b55810190615c3f565b615fac565b8451958652801515602087015294604090a35190151581529081906020820190565b612c2c9850612c9b9592507fbd6e57133956b4a3944b483a9e595b4aab16071cf15a39384fdb1b7015865aab9794612ca09794612d1b612c929484612c4195903d10612d2f575b612d13818361038f565b810190615aff565b9b909b959850509497509497505089612bef565b503d612d09565b6064865162461bcd60e51b815260206004820152601560248201527f50726f7669646572206e6f7420617070726f76656400000000000000000000006044820152fd5b34610465576020366003190112610465576001600160a01b03612d9a61044f565b1660005260076020526020604060002054604051908152f35b6020808201908083528351809252604092604081018260408560051b840101960194600080935b868510612dec57505050505050505090565b9091929394959697603f198282030185528689518160806060948286820194818151805185520151828401520151958982015285518094520193019085905b87818310612e4d5750505050806001929a019501950193969594929190612dda565b83958560019496939551805183520151838201520194019201899291612e2b565b3461046557606036600319011261046557612e8761044f565b67ffffffffffffffff60243581811161046557612ea89036906004016119c7565b9060443590811161046557612ec283913690600401610d15565b612ecc8351615c7e565b906000906000905b8551821015612f9757612ef3612eed611bd58489613184565b86613b6d565b94612efd8661088b565b93612f088351615ce5565b94612f1a612f146103d2565b91615d35565b815260209586820152612f2d8588613184565b52612f388487613184565b50805b8351811015612f865780612f7f8189612f758a612f6c8b8f8c611c5560019b611cb9612f6694610865565b94613184565b51015191615d35565b611cf18383613184565b5001612f3b565b509095509250600190910190612ed4565b604051806110388682612db3565b15612fac57565b606460405162461bcd60e51b815260206004820152601260248201527f4e6f7420656e6f756768207265736572766500000000000000000000000000006044820152fd5b634e487b7160e01b600052601160045260246000fd5b60001981019190821161301557565b612ff0565b9190820391821161301557565b6040513d6000823e3d90fd5b908160209103126104655751610828816117e6565b1561046557565b6009546801000000000000000081101561033e5760018101806009558110156116645760096000527f6e1540171b6c0c960b71a7020d9f60077f6af931a8bbf590da0223dacf75c7af0155565b156130a357565b606460405162461bcd60e51b815260206004820152600460248201527f4661696c000000000000000000000000000000000000000000000000000000006044820152fd5b906001820180921161301557565b906014820180921161301557565b9190820180921161301557565b6113db9061314d7fe8407a0209fa99ec3a7228aff140c3d3e68bd279391739c7e0b65cd406cc93b59360405193849360408552604085019061112f565b0390a1565b9061315c82610cfd565b613169604051918261038f565b828152809261317a601f1991610cfd565b0190602036910137565b80518210156116645760209160051b010190565b9190916000838201938412911290801582169115161761301557565b602090818184031261046557805167ffffffffffffffff9182821161046557019083601f830112156104655781516131eb81610cfd565b946040926131fc604051978861038f565b828752858088019360051b8601019482861161046557868101935b86851061322957505050505050505090565b84518381116104655782019084603f8301121561046557888201519061324e826107ba565b61325a8951918261038f565b828152868984860101116104655761327b8b949385948b868501910161082b565b815201940193613217565b60209081818403126104655780519067ffffffffffffffff821161046557019180601f840112156104655782516132bc81610cfd565b936132ca604051958661038f565b818552838086019260051b820101928311610465578301905b8282106132f1575050505090565b815181529083019083016132e3565b90815180825260208080930193019160005b828110613320575050505090565b835185529381019392810192600101613312565b92613360610828959361335261336e94608088526080880190613300565b90868203602088015261112f565b90848203604086015261112f565b91606081840391015261112f565b8181039291600013801582851316918412161761301557565b7f800000000000000000000000000000000000000000000000000000000000000081146130155760000390565b604051906133cf82610357565b600c82527f5570646174652064656c746100000000000000000000000000000000000000006020830152565b6040519061340882610357565b600982527f67657473206465627400000000000000000000000000000000000000000000006020830152565b6040519061344182610357565b600482527f64656274000000000000000000000000000000000000000000000000000000006020830152565b634e487b7160e01b600052600060045260246000fd5b80546801000000000000000081101561033e576134a591600182018155611648565b6134ea5760016001600160a01b036020846103df955185550151169101906001600160a01b031673ffffffffffffffffffffffffffffffffffffffff19825416179055565b61346d565b60001981146130155760010190565b9294926001600160a01b038281169082161015613b1857909493905b6040516bffffffffffffffffffffffff19606083811b8216602084015288901b166034820152602881529561355060488861038f565b61355b845151613152565b9460005b86518110156135ae5760019061359d8261358961357b8d610865565b611c558560208d0151613184565b0154613596838a51613184565b5190613198565b6135a7828a613184565b520161355f565b50956135cc6135dc91989394929598602080825183010191016131b4565b91602080825183010191016131b4565b6000935b604089015180518610156137d657856135f891613184565b51986136116125fb6125fb8c516001600160a01b031690565b96600060208c0151986136248988613184565b51906136308a88613184565b519a838d61366d6040519e8f96879586947f18c323f200000000000000000000000000000000000000000000000000000000865260048601613334565b03925af1978815610685576000986137b3575b5087518951036137a25798996040019860005b8a5180518210156137855790896136d18c6136ca6136c06136b686600198613184565b5194855190613184565b5191845190613184565b519061337c565b600081139081613777575b8115613750575b8115613747575b50613741576136ff6136fa6133c2565b615d53565b61371461370e8d835190613184565b51615d9f565b61372261370e82518d613184565b61373961373082518d613184565b5191518d613184565b525b01613693565b5061373b565b905015386136ea565b90506000811280613762575b906136e3565b5061376c81613395565b60408301511061375c565b6020830151811191506136dc565b5050949298509460019196509892985b01939791969092946135e0565b949298939950946001919650613795565b6137cf91983d8091833e6137c7818361038f565b810190613286565b9638613680565b509350505092919460005b8351811015613ae957806138a861389c6138198a848a6138208b6115da61380e60019b60208e0151613184565b519687958693613184565b5193610865565b8a60008312801580613ade575b156138ae5750613876610a35938593613863613890976115da6115da966001600160a01b03166000526002602052604060002090565b61386e838254613103565b90555461301a565b946001600160a01b03166000526002602052604060002090565b90555b6115da89610865565b60016000918281550155565b016137e1565b9194919290508215613ad757815b8315613ad157508b925b15613ac1576138d490613395565b8094546138fb610a35866115da866001600160a01b03166000526002602052604060002090565b905561390e836139096133fb565b613b1f565b61391f8161391a613434565b614da4565b80613941856115da866001600160a01b03166000526002602052604060002090565b54106139865750916115da6105b592613974836115da61397f976001600160a01b03166000526002602052604060002090565b6115f4878254613103565b9055613893565b90613a1694916139b184956115da6139fd966001600160a01b03166000526002602052604060002090565b54613a20575b506139f86139dc876115da876001600160a01b03166000526005602052604060002090565b916139e56103d2565b9384526001600160a01b03166020840152565b613483565b6001600160a01b03166000526007602052604060002090565b61397f81546134ef565b613a96919250613a47876115da876001600160a01b03166000526002602052604060002090565b54613a6c610a35896115da876001600160a01b03166000526002602052604060002090565b9055613a8f876115da876001600160a01b03166000526002602052604060002090565b549061301a565b906000613aba876115da876001600160a01b03166000526002602052604060002090565b55386139b7565b8454613acc9161301a565b6138d4565b926138c6565b8b916138bc565b50825484111561382d565b50505050613b0791925060006001613b008361088b565b015561088b565b613b1181546134ef565b9055600190565b949061351a565b613b61907f62ddffe5b5108385f7a590f100e1ee414ad9551a31f089e64e82998440785e1e926001600160a01b0360405193849360408552604085019061112f565b911660208301520390a1565b6001600160a01b038281169082161015613bb7576040516bffffffffffffffffffffffff19606092831b811660208301529290911b90911660348201526108288160488101612b8b565b6040516bffffffffffffffffffffffff19606093841b811660208301529190921b1660348201526108288160488101612b8b565b906134ea5760018160008093550155565b8054906000906000815582613c1057505050565b6001907f7fffffffffffffffffffffffffffffffffffffffffffffffffffffffffffffff841684036130155760005260206000209260011b8301925b838110613c595750505050565b808360029255838382015501613c4c565b8015613015576000190190565b9091613c9a836115da846001600160a01b03166000526005602052604060002090565b54928315613ea657613cc3816115da856001600160a01b03166000526002602052604060002090565b5490613ce6816115da866001600160a01b03166000526006602052604060002090565b54948215613e9657945b613d1a81613d15846115da896001600160a01b03166000526005602052604060002090565b611648565b5080549093908110613e4957613d50610a35846115da6112a16001613d418a54809861301a565b9901546001600160a01b031690565b9055613d80613d7a82613d15856115da8a6001600160a01b03166000526005602052604060002090565b90613beb565b85613d8a826130e7565b14613dc857613d98906134ef565b94613db6856001600160a01b03166000526007602052604060002090565b613dc08154613c6a565b905594613cf0565b506115da92945092613e436108289460009483613e05613e00846115da8a986001600160a01b03166000526005602052604060002090565b613bfc565b84955b613e29846115da846001600160a01b03166000526002602052604060002090565b556001600160a01b03166000526006602052604060002090565b5561301a565b916115da6108289685613e8d85989a9796613e79866115da6112a16001613e439b9c01546001600160a01b031690565b613e84828254613103565b9055825461301a565b90556000613e08565b915050610828925092909261301a565b50915050600090565b600154906801000000000000000082101561033e576001820180600155821015611664576103df9160016000527fb10e2d527612073b26eecdfd717e6a320cf44b4afac2b0732d9fcbe2b7fa0cf601906001600160a01b031673ffffffffffffffffffffffffffffffffffffffff19825416179055565b15613f2d57565b606460405162461bcd60e51b815260206004820152601b60248201527f496e73756666696369656e7420636f6e74726f6c2073686172657300000000006044820152fd5b15613f7857565b606460405162461bcd60e51b815260206004820152601160248201527f496e76616c696420726563697069656e740000000000000000000000000000006044820152fd5b15613fc357565b606460405162461bcd60e51b815260206004820152601760248201527f43616e6e6f74207472616e7366657220746f2073656c660000000000000000006044820152fd5b908060209392818452848401376000828201840152601f01601f1916010190565b604090610828949281528160208201520191614007565b6040519061404c82610357565b601082527f4e6f7420656e6f7567682066756e6473000000000000000000000000000000006020830152565b6040519061408582610357565b601582527f4465706f736974656420746f206368616e6e656c2000000000000000000000006020830152565b805191602090602083016140cc81516001600160a01b031690565b926140d78633613c77565b5060009360005b60408088018051805184101561426c576141158461410e614100828a95613184565b51516001600160a01b031690565b9351613184565b510151906141338161412e89516001600160a01b031690565b613b6d565b92826141568d6115da336001600160a01b03166000526002602052604060002090565b5410614254576115da84614238948a8f9461422f968b614227887f8a1fa734614ce1b935d8439d18b23444fb921bb370ec43ca8246788c4ee27f839460019e9d8f90836115da6141a592610865565b6141c6846115da336001600160a01b03166000526002602052604060002090565b6141d18b825461301a565b90556141f26141e18b8354613103565b998a8355516001600160a01b031690565b6001600160a01b039788169a9088168b1161423e575b5001549051968752602087015260408601529116929081906060820190565b0390a3610865565b5461391a614078565b016140de565b61424c838301918254613198565b905538614208565b5050505050505050925090506108283361390961403f565b5050505050505092505050600190565b1561428357565b606460405162461bcd60e51b815260206004820152601160248201527f44697370757465206e6f7420666f756e640000000000000000000000000000006044820152fd5b156142ce57565b606460405162461bcd60e51b815260206004820152601460248201527f4469737075746520706572696f6420656e6465640000000000000000000000006044820152fd5b906020908183528051916143326060936060838701526080860190613300565b9181810151601f19906143516040958692848a830301848b0152613300565b92015195606082828503019101528551938483528383019184808760051b8601019801966000916000955b888710614390575050505050505050505090565b9091929394959697989982828203018752888b516001600160a01b038151168352876143c78383015188858701528886019061112f565b910151928881830391015281808451928381520193019087905b878183106144055750505050806001929c019701970195989796949392919061437c565b83958b6001949693955180518352848101518584015201518c82015201940192018b92916143e1565b1561443557565b606460405162461bcd60e51b815260206004820152601160248201527f496e76616c69642070726f6f66626f64790000000000000000000000000000006044820152fd5b90926144996080939695946002845260a0602085015260a084019061112f565b95604083015260608201520152565b604051906144b582610357565b600b82527f656e636f6465645f6d73670000000000000000000000000000000000000000006020830152565b156144e857565b606460405162461bcd60e51b815260206004820152600e60248201527f496e76616c6964207369676e65720000000000000000000000000000000000006044820152fd5b1561453357565b606460405162461bcd60e51b815260206004820152601960248201527f4e6577206e6f6e6365206d7573742062652067726561746572000000000000006044820152fd5b6147259061459561458f82516001600160a01b031690565b33613b6d565b81602080820151604083019081519460c08501916145b38351151590565b606087016146398151998861460e60808c01958c60a0885191019e8f518581519101209260405196879687019b8c9492909160a196949286526020860152151560f81b60408501526041840152606183015260818201520190565b0394614622601f199687810184528361038f565b600161462d8861088b565b0154915190201461427c565b61016088018051519095901561472b57505050946146fb926146d06146c26146d7946146b96147049a61012087015161467e61468a8d60405192839182019485614312565b0384810183528261038f565b5190209a6146ad61010060e08a015199019c8d516040519a8b9485019788614479565b0390810187528661038f565b84519020615ddf565b926146cb6144a8565b613110565b5190615e22565b6001600160a01b036146f36125fb89516001600160a01b031690565b9116146144e1565b5190511161452c565b81516001600160a01b031691610140610120820151910151915192336134fe565b50600190565b6147a8985061477b9293979650614793955061479f945061474c9051151590565b6147686147636125fb8d516001600160a01b031690565b331090565b90151514908115916147ad575b506142c7565b51936101208801519360405193849182019586614312565b0390810183528261038f565b5190201461442e565b614704565b90505143101538614775565b906147c382610cfd565b60406147d2604051928361038f565b83825281936147e3601f1991610cfd565b019160009160005b8481106147f9575050505050565b602090825161480781610357565b858152826060818301528286010152016147eb565b9061482682610cfd565b6040614835604051928361038f565b8382528193614846601f1991610cfd565b019160009060005b84811061485c575050505050565b602090845161486a81610322565b84815282858183015260608783015282850101520161484e565b90815461489081610cfd565b926040936148a1604051918261038f565b82815280946020809201926000526020600020906000935b8585106148c857505050505050565b60028460019284516148d981610357565b865481526001600160a01b038588015416838201528152019301940193916148b9565b90601f811161490a57505050565b6000916000526020600020906020601f850160051c83019410614948575b601f0160051c01915b82811061493d57505050565b818155600101614931565b9092508290614928565b90600854916801000000000000000083101561033e5761497a60019360018101600855611d5d565b6134ea578151815473ffffffffffffffffffffffffffffffffffffffff19166001600160a01b03919091161781556040600260209260208501516001820155019201519384519167ffffffffffffffff831161033e576149e4836149de8654611d98565b866148fc565b602091601f8411600114614a285750508190614a19939495600092614a1d575b50508160011b916000199060031b1c19161790565b9055565b015190503880614a04565b95601f92919219841696614a4186600052602060002090565b936000915b898310614a7f5750505083600195969710614a66575b505050811b019055565b015160001960f88460031b161c19169055388080614a5c565b838501518655948501949381019391810191614a46565b90919080614acc575090614ac190614aac6103e1565b33815290600060208301526040820152614952565b610828600854613006565b6001600160a01b03614add82611d5d565b5054163303610465576002614af182611d5d565b5001835167ffffffffffffffff811161033e57614b1881614b128454611d98565b846148fc565b602080601f8311600114614b5157508190614b4c93949596600092614a1d5750508160011b916000199060031b1c19161790565b905590565b90601f19831696614b6785600052602060002090565b926000905b898210614ba65750508360019596979810614b8d575b505050811b01905590565b015160001960f88460031b161c19169055388080614b82565b80600185968294968601518155019501930190614b6c565b60405190614bcb82610357565b600e82527f52656365697665642070726f6f660000000000000000000000000000000000006020830152565b90926144996080939695946001845260a0602085015260a084019061112f565b90600091614c2f61458f82516001600160a01b031690565b90614c3b6136fa614bbe565b614d79614d73602092614d65848201614cfc614cf188835198614c856040519a8b614c698482019283614312565b039b614c7d601f199d8e810183528261038f565b519020615f6c565b614ce9604088019a614c9d8c51848151910120615f6c565b614ca68461088b565b54926147938d8951604051614cce81614cc28782019485614312565b0387810183528261038f565b51902090518381519101209060405196879485019889614bf7565b519020615ddf565b608085015190615e22565b95614d25614d146125fb86516001600160a01b031690565b6001600160a01b0380991614613048565b614d3b6001614d338a61088b565b015415613048565b60006001614d488a61088b565b015583516001600160a01b031691516060850151915192336134fe565b50516001600160a01b031690565b9261088b565b549116337fd0b75b3c0e860b4e521684a9e2379ff5904dcf126bad4bd8619cfb3ff2e81827600080a4565b614dde907f941296a39ea107bde685522318a4b6c2b544904a5dd82a512748ca2cf839bef79260405192839260408452604084019061112f565b9060208301520390a1565b9094939160008252614e0760209660a08885015260a084019061112f565b604091604084015260609183820360608501528780875193848152019601926000915b838310614e495750505050506108289394506080818403910152613300565b845180518952808b01518b8a015280820151898301528201518883015260809097019693890193600190920191614e2a565b60405190614e8882610357565b600b82527f456e636f646564206d73670000000000000000000000000000000000000000006020830152565b60405190614ec182610357565b600f82527f496e76616c6964207369676e65722000000000000000000000000000000000006020830152565b15614ef457565b606460405162461bcd60e51b815260206004820152601760248201527f4e6f7420656e6f756768207065657220726573657276650000000000000000006044820152fd5b15614f3f57565b606460405162461bcd60e51b815260206004820152601960248201527f4e6f7420656e6f7567682073656e6465722072657365727665000000000000006044820152fd5b15614f8a57565b606460405162461bcd60e51b815260206004820152601560248201527f4e6f7420656e6f75676820636f6c6c61746572616c00000000000000000000006044820152fd5b90614fe361458f83516001600160a01b031690565b614fec8161088b565b54602090602085019384519561503f61503660409461502d60408501519a61501f6040519c8d9260208401958d87614de9565b03601f1981018c528b61038f565b89519020615ddf565b976146cb614e7b565b80516001600160a01b03169660609760608301906001600160a01b036150696125fb845186615e22565b91160361528857505060009160005b87518051821015615276579061509081600193613184565b5187810180518781121561525557506150bb6150b387516001600160a01b031690565b835190613c77565b506150f86150e66150d66112a189516001600160a01b031690565b8451600052602052604060002090565b546150f18351613395565b1115614eed565b6151028151613395565b61512c6105b561511c6112a18a516001600160a01b031690565b8551600052602052604060002090565b90555b5161513f88830191825190613198565b8781131561522257615152835133613c77565b5061517f8161517761055c336001600160a01b03166000526002602052604060002090565b541015614f38565b6151a26105b561511c336001600160a01b03166000526002602052604060002090565b90555b80518781121561520a57506151d16151bf6150d68c610865565b546151ca8351613395565b1115614f83565b516151e16105b56150d68c610865565b90555b615202836151f98d840151936105a58d610865565b01918254613198565b905501615078565b905061521b610a356150d68c610865565b90556151e4565b61522b90613395565b61524e610a3561511c336001600160a01b03166000526002602052604060002090565b90556151a5565b61526f610a3561511c6112a18a516001600160a01b031690565b905561512f565b5050965050505050613b07915061088b565b935093505094506152a893506152a092505190615e22565b613909614eb4565b600090565b81601f820112156104655780359060206152c683610cfd565b9360406152d6604051968761038f565b8486528286019183606080970286010194818611610465578401925b858410615303575050505050505090565b868483031261046557848791845161531a81610322565b61532387610480565b8152828701358382015285870135868201528152019301926152f2565b81601f8201121561046557803590602061535983610cfd565b936040615369604051968761038f565b8486528286019183606080970286010194818611610465578401925b858410615396575050505050505090565b86848303126104655784879184516153ad81610322565b8635815282870135838201528587013586820152815201930192615385565b81601f82011215610465578035916020916153e684610cfd565b936153f4604051958661038f565b808552838086019160051b8301019280841161046557848301915b84831061541f5750505050505090565b823567ffffffffffffffff8111610465578691615441848480948901016116d8565b81520192019161540f565b81601f820112156104655780359160209161546684610cfd565b93615474604051958661038f565b808552838086019160051b8301019280841161046557848301915b84831061549f5750505050505090565b823567ffffffffffffffff81116104655786916154c184848094890101612233565b81520192019161548f565b81601f82011215610465578035916020916154e684610cfd565b936154f4604051958661038f565b808552838086019160051b8301019280841161046557848301915b84831061551f5750505050505090565b823567ffffffffffffffff811161046557869161554184848094890101611ede565b81520192019161550f565b81601f820112156104655780359160209161556684610cfd565b93615574604051958661038f565b808552838086019160051b8301019280841161046557848301915b84831061559f5750505050505090565b823567ffffffffffffffff81116104655786916155c184848094890101612734565b81520192019161558f565b81601f82011215610465578035916020916155e684610cfd565b936155f4604051958661038f565b808552838086019160051b8301019280841161046557848301915b84831061561f5750505050505090565b823567ffffffffffffffff8111610465578691615641848480948901016117fb565b81520192019161560f565b9080601f8301121561046557813591602061566684610cfd565b93604093615677604051968761038f565b818652828087019260061b85010193818511610465578301915b8483106156a15750505050505090565b85838303126104655783869182516156b881610357565b853581528286013583820152815201920191615691565b91909161014081840312610465576156e561042e565b9267ffffffffffffffff823581811161046557826157049185016152ad565b85526020830135818111610465578261571e918501615340565b60208601526040830135818111610465578261573b9185016152ad565b6040860152606083013581811161046557826157589185016153cc565b60608601526080830135818111610465578261577591850161544c565b608086015260a083013581811161046557826157929185016154cc565b60a086015260c083013581811161046557826157af91850161554c565b60c086015260e083013581811161046557826157cc9185016155cc565b60e08601526101009182840135918211610465576157eb91840161564c565b908401526101208091013590830152565b1561580357565b606460405162461bcd60e51b815260206004820152600c60248201527f4e6f7420617070726f76656400000000000000000000000000000000000000006044820152fd5b60015480156158a65760001981019080821015611664577fb10e2d527612073b26eecdfd717e6a320cf44b4afac2b0732d9fcbe2b7fa0cf59060016000520173ffffffffffffffffffffffffffffffffffffffff198154169055600155565b634e487b7160e01b600052603160045260246000fd5b805160009291906001600160a01b03166158d69033613b6d565b6158df8161088b565b549160208101908151809411156158f590613048565b60408101928351606083019586516040519182916020830194615919928787614479565b0391601f1992838101835261592e908361038f565b8151902061593b90615ddf565b906159446144a8565b9061594e91613110565b608084015161595c91615e22565b93835161596f906001600160a01b031690565b6001600160a01b03166001600160a01b038096161461598d906144e1565b6159968361088b565b60010154156159a490613048565b519585519184516159bb906001600160a01b031690565b6001600160a01b031633106159cf436130f5565b92519860a08701998a51604051806020810192836159ec9161084e565b0386810182526159fc908261038f565b519020906040519586946020860198615a3d958a9492909160a196949286526020860152151560f81b60408501526041840152606183015260818201520190565b039081018252615a4d908261038f565b51902090615a5a9061088b565b60010155516001600160a01b03169151925190604051921691803392615a809082611154565b037f86e7f5b969eded08fe0ea342b2c89a9e5a6cfe6f5803bb3aa464668d728ff02191a4565b9192849360749695927f990f4c22d4b046a9a7d673c4a252b906cadd4f3290465e297f998c28a449652b855260208501526bffffffffffffffffffffffff199060601b1660408401526054830137019060548201520190565b91908260409103126104655760208251920151610828816117e6565b939291602091615b3391604087526040870191614007565b930152565b15615b3f57565b606460405162461bcd60e51b815260206004820152601760248201527f496e76616c69642048616e6b6f207369676e61747572650000000000000000006044820152fd5b15615b8a57565b606460405162461bcd60e51b815260206004820152601e60248201527f4e6f20656e74697479207265636f76657265642066726f6d2048616e6b6f00006044820152fd5b15615bd557565b608460405162461bcd60e51b815260206004820152602260248201527f496e76616c6964206e6f6e636520286d7573742062652073657175656e74696160448201527f6c290000000000000000000000000000000000000000000000000000000000006064820152fd5b9060208282031261046557813567ffffffffffffffff81116104655761082892016156cf565b60405190615c7282610357565b60006020838281520152565b90615c8882610cfd565b604090615c98604051918261038f565b8381528093615ca9601f1991610cfd565b019160005b838110615cbb5750505050565b6020908251615cc981610357565b615cd1615c65565b815282606081830152828601015201615cae565b90615cef82610cfd565b615cfc604051918261038f565b8281528092615d0d601f1991610cfd565b019060005b828110615d1e57505050565b602090615d29615c65565b82828501015201615d12565b90604051615d4281610357565b602060018294805484520154910152565b612b8b615d9a6103df926040519283917f41304fac00000000000000000000000000000000000000000000000000000000602084015260206024840152604483019061112f565b616124565b6103df90604051907f2d5b6cb9000000000000000000000000000000000000000000000000000000006020830152602482015260248152615d9a81610322565b60405160208101917f19457468657265756d205369676e6564204d6573736167653a0a3332000000008352603c820152603c8152615e1c81610322565b51902090565b906041815103615f28576020810151916060604083015192015160001a907f7fffffffffffffffffffffffffffffff5d576e7357a4501ddfe92f46681b20a08311615ed957615eaa600093602095601b85148015615ecf575b615e849061613f565b604051948594859094939260ff6060936080840197845216602083015260408201520152565b838052039060015afa15610685576000516108286001600160a01b0382161515616195565b50601c8514615e7b565b608460405162461bcd60e51b815260206004820152602260248201527f45434453413a20696e76616c6964207369676e6174757265202773272076616c604482015261756560f01b6064820152fd5b606460405162461bcd60e51b815260206004820152601f60248201527f45434453413a20696e76616c6964207369676e6174757265206c656e677468006044820152fd5b6103df90604051907f27b7cf85000000000000000000000000000000000000000000000000000000006020830152602482015260248152615d9a81610322565b905a90600160005b60808501518051821015615fe85761245861245283615fd293613184565b615fdf575b600101615fb4565b60009150615fd7565b505091909260005b60a08201518051821015616024576124586124998361600e93613184565b61601b575b600101615ff0565b60009350616013565b505091909260005b60c08401518051821015616060576124586124dc8361604a93613184565b616057575b60010161602c565b6000925061604f565b505091909260005b60e0830151805182101561609c5761245861251f8361608693613184565b616093575b600101616068565b6000945061608b565b505091909260005b606085015180518210156160d857612458612562836160c293613184565b6160cf575b6001016160a4565b600091506160c7565b505091909261012001908151801515908161610b575b506160f857505090565b60016125c96125c2614b4c935a9061301a565b61611c91506125ed6125fb91611d5d565b3314386160ee565b600080916020815191016a636f6e736f6c652e6c6f675afa50565b1561614657565b608460405162461bcd60e51b815260206004820152602260248201527f45434453413a20696e76616c6964207369676e6174757265202776272076616c604482015261756560f01b6064820152fd5b1561619c57565b606460405162461bcd60e51b815260206004820152601860248201527f45434453413a20696e76616c6964207369676e617475726500000000000000006044820152fdfea26469706673582212200f15f55a0702bbd0cbe0521ccf6c85369bb361755a337d2cea8e98022549bdc064736f6c63430008180033",
  "linkReferences": {},
  "deployedLinkReferences": {}
}