{
  "_format": "hh-sol-artifact-1",
  "contractName": "SubcontractProvider",
  "sourceName": "contracts/SubcontractProvider.sol",
  "abi": [
    {
      "inputs": [],
      "stateMutability": "nonpayable",
      "type": "constructor"
    },
    {
      "anonymous": false,
      "inputs": [
        {
          "indexed": false,
          "internalType": "string",
          "name": "",
          "type": "string"
        },
        {
          "indexed": false,
          "internalType": "address",
          "name": "",
          "type": "address"
        }
      ],
      "name": "LogAddress",
      "type": "event"
    },
    {
      "anonymous": false,
      "inputs": [
        {
          "indexed": false,
          "internalType": "string",
          "name": "",
          "type": "string"
        },
        {
          "indexed": false,
          "internalType": "bool",
          "name": "",
          "type": "bool"
        }
      ],
      "name": "LogBool",
      "type": "event"
    },
    {
      "anonymous": false,
      "inputs": [
        {
          "indexed": false,
          "internalType": "string",
          "name": "",
          "type": "string"
        },
        {
          "indexed": false,
          "internalType": "bytes",
          "name": "",
          "type": "bytes"
        }
      ],
      "name": "LogBytes",
      "type": "event"
    },
    {
      "anonymous": false,
      "inputs": [
        {
          "indexed": false,
          "internalType": "string",
          "name": "",
          "type": "string"
        },
        {
          "indexed": false,
          "internalType": "bytes32",
          "name": "",
          "type": "bytes32"
        }
      ],
      "name": "LogBytes32",
      "type": "event"
    },
    {
      "anonymous": false,
      "inputs": [
        {
          "indexed": false,
          "internalType": "string",
          "name": "",
          "type": "string"
        },
        {
          "indexed": false,
          "internalType": "int256",
          "name": "",
          "type": "int256"
        }
      ],
      "name": "LogInt",
      "type": "event"
    },
    {
      "anonymous": false,
      "inputs": [
        {
          "indexed": false,
          "internalType": "string",
          "name": "",
          "type": "string"
        },
        {
          "indexed": false,
          "internalType": "string",
          "name": "",
          "type": "string"
        }
      ],
      "name": "LogString",
      "type": "event"
    },
    {
      "anonymous": false,
      "inputs": [
        {
          "indexed": false,
          "internalType": "string",
          "name": "",
          "type": "string"
        },
        {
          "indexed": false,
          "internalType": "uint256",
          "name": "",
          "type": "uint256"
        }
      ],
      "name": "LogUint",
      "type": "event"
    },
    {
      "inputs": [
        {
          "internalType": "int256[]",
          "name": "deltas",
          "type": "int256[]"
        },
        {
          "internalType": "bytes",
          "name": "encodedBatch",
          "type": "bytes"
        },
        {
          "internalType": "bytes",
          "name": "leftArguments",
          "type": "bytes"
        },
        {
          "internalType": "bytes",
          "name": "rightArguments",
          "type": "bytes"
        }
      ],
      "name": "applyBatch",
      "outputs": [
        {
          "internalType": "int256[]",
          "name": "",
          "type": "int256[]"
        }
      ],
      "stateMutability": "nonpayable",
      "type": "function"
    },
    {
      "inputs": [
        {
          "internalType": "bytes32",
          "name": "hash",
          "type": "bytes32"
        }
      ],
      "name": "cleanSecret",
      "outputs": [],
      "stateMutability": "nonpayable",
      "type": "function"
    },
    {
      "inputs": [
        {
          "components": [
            {
              "components": [
                {
                  "internalType": "uint256",
                  "name": "deltaIndex",
                  "type": "uint256"
                },
                {
                  "internalType": "int256",
                  "name": "amount",
                  "type": "int256"
                },
                {
                  "internalType": "uint256",
                  "name": "revealedUntilBlock",
                  "type": "uint256"
                },
                {
                  "internalType": "bytes32",
                  "name": "hash",
                  "type": "bytes32"
                }
              ],
              "internalType": "struct SubcontractProvider.Payment[]",
              "name": "payment",
              "type": "tuple[]"
            },
            {
              "components": [
                {
                  "internalType": "bool",
                  "name": "ownerIsLeft",
                  "type": "bool"
                },
                {
                  "internalType": "uint256",
                  "name": "addDeltaIndex",
                  "type": "uint256"
                },
                {
                  "internalType": "uint256",
                  "name": "addAmount",
                  "type": "uint256"
                },
                {
                  "internalType": "uint256",
                  "name": "subDeltaIndex",
                  "type": "uint256"
                },
                {
                  "internalType": "uint256",
                  "name": "subAmount",
                  "type": "uint256"
                }
              ],
              "internalType": "struct SubcontractProvider.Swap[]",
              "name": "swap",
              "type": "tuple[]"
            }
          ],
          "internalType": "struct SubcontractProvider.Batch",
          "name": "b",
          "type": "tuple"
        }
      ],
      "name": "encodeBatch",
      "outputs": [
        {
          "internalType": "bytes",
          "name": "",
          "type": "bytes"
        }
      ],
      "stateMutability": "pure",
      "type": "function"
    },
    {
      "inputs": [
        {
          "internalType": "bytes32",
          "name": "",
          "type": "bytes32"
        }
      ],
      "name": "hashToBlock",
      "outputs": [
        {
          "internalType": "uint256",
          "name": "",
          "type": "uint256"
        }
      ],
      "stateMutability": "view",
      "type": "function"
    },
    {
      "inputs": [
        {
          "internalType": "string",
          "name": "s",
          "type": "string"
        },
        {
          "internalType": "bytes",
          "name": "x",
          "type": "bytes"
        }
      ],
      "name": "log",
      "outputs": [],
      "stateMutability": "nonpayable",
      "type": "function"
    },
    {
      "inputs": [
        {
          "internalType": "string",
          "name": "s",
          "type": "string"
        },
        {
          "internalType": "address",
          "name": "x",
          "type": "address"
        }
      ],
      "name": "log",
      "outputs": [],
      "stateMutability": "nonpayable",
      "type": "function"
    },
    {
      "inputs": [
        {
          "internalType": "string",
          "name": "s",
          "type": "string"
        },
        {
          "internalType": "bytes32",
          "name": "x",
          "type": "bytes32"
        }
      ],
      "name": "log",
      "outputs": [],
      "stateMutability": "nonpayable",
      "type": "function"
    },
    {
      "inputs": [
        {
          "internalType": "string",
          "name": "s",
          "type": "string"
        },
        {
          "internalType": "int256",
          "name": "x",
          "type": "int256"
        }
      ],
      "name": "log",
      "outputs": [],
      "stateMutability": "nonpayable",
      "type": "function"
    },
    {
      "inputs": [
        {
          "internalType": "string",
          "name": "s",
          "type": "string"
        },
        {
          "internalType": "string",
          "name": "x",
          "type": "string"
        }
      ],
      "name": "log",
      "outputs": [],
      "stateMutability": "nonpayable",
      "type": "function"
    },
    {
      "inputs": [
        {
          "internalType": "string",
          "name": "s",
          "type": "string"
        },
        {
          "internalType": "uint256",
          "name": "x",
          "type": "uint256"
        }
      ],
      "name": "log",
      "outputs": [],
      "stateMutability": "nonpayable",
      "type": "function"
    },
    {
      "inputs": [
        {
          "internalType": "string",
          "name": "s",
          "type": "string"
        },
        {
          "internalType": "bool",
          "name": "x",
          "type": "bool"
        }
      ],
      "name": "log",
      "outputs": [],
      "stateMutability": "nonpayable",
      "type": "function"
    },
    {
      "inputs": [
        {
          "internalType": "string",
          "name": "_msg",
          "type": "string"
        },
        {
          "internalType": "int256[]",
          "name": "deltas",
          "type": "int256[]"
        }
      ],
      "name": "logDeltas",
      "outputs": [],
      "stateMutability": "nonpayable",
      "type": "function"
    },
    {
      "inputs": [
        {
          "internalType": "bytes32",
          "name": "secret",
          "type": "bytes32"
        }
      ],
      "name": "revealSecret",
      "outputs": [],
      "stateMutability": "nonpayable",
      "type": "function"
    }
  ],
  "bytecode": "0x608034620001b25763ffffffff60015560406001600160401b03828201818111848210176200019c578252601683526020907f52657665616c696e672048544c43207365637265743a000000000000000000008285015282518281019163104c13eb60e21b83526024958487840152828151918260448301528660005b8481106200018357505050808260006064601f95608395010152831993849101168101036044810185520116820190828210908211176200016e5760009392868580809581958a52516a636f6e736f6c652e6c6f6794855afa5086519083808784016327b7cf8560e01b948582528285820152848152620000fd81620001b7565b5190865afa508751868101908582528781526200011a81620001d3565b519020908851918783019384528183015281526200013881620001b7565b51915afa508251818101908382528281526200015481620001d3565b519020825252438160002055516112699081620001f08239f35b85634e487b7160e01b60005260416004526000fd5b828101820151878201606401528693508891016200007c565b634e487b7160e01b600052604160045260246000fd5b600080fd5b606081019081106001600160401b038211176200019c57604052565b604081019081106001600160401b038211176200019c5760405256fe608060405260048036101561001357600080fd5b60003560e01c806318c323f21461083157806323cdd8e8146107b1578063319af33314610726578063322d0ac7146106d25780633692d61a1461067d57806337d6d073146106025780633ca6268e146105ad5780634b5c42771461051757806351672fac146104ec5780636030754514610449578063b60e72cc146103d3578063c3b55635146103515763fd287b5d146100ac57600080fd5b3461030757602060031981813601126103075782359067ffffffffffffffff9081831161030757604090833603011261030757604051916100ec83610cee565b8085013582811161030757810136602382011215610307578581013561011181610d96565b9161011f6040519384610d74565b81835260248784019260071b8201019036821161030757602401915b81831061030c575050508352602481013591821161030757019236602385011215610307578301359061016d82610d96565b9361017b6040519586610d74565b828552838501602460a08095028301019136831161030757939593602401905b8282106102ad5750505082810191825260405193849184808401526080936080840191519160408086015282518091528660a0860193019060005b8882821061027857505050505191606090603f198584030160608601528680855194858152019401956000925b88858510610238578790610220828903601f198101845283610d74565b610234604051928284938452830190610eae565b0390f35b8851805115158852808201518883015260408082015190890152808301518884015283015187840152979097019689965094820194600190930192610203565b835180518752818101518288015260408082015190880152606090810151908701528a975094880194909201916001016101d6565b8682979597360312610307578585916040516102c881610d3c565b6102d185610ea1565b8152828501358382015260408501356040820152606080860135908201526080808601359082015281520191019095939561019b565b600080fd5b608083360312610307578760809160405161032681610d20565b853581528286013583820152604086013560408201526060808701359082015281520192019161013b565b50346103075760403660031901126103075780359067ffffffffffffffff82116103075761038191369101610e83565b602435801515809103610307577f4c34c2f9a78632f29fa59aaed5514cb742fd9fbcfd7ccc2c03c85f2bbc621c47916103c891604051928392604084526040840190610eae565b9060208301520390a1005b50346103075760403660031901126103075780359067ffffffffffffffff82116103075761042861043c917f941296a39ea107bde685522318a4b6c2b544904a5dd82a512748ca2cf839bef793369101610e83565b604051918291604083526040830190610eae565b60243560208301520390a1005b503461030757602080600319360112610307576000913561049d60405161046f81610cee565b601681527f52657665616c696e672048544c43207365637265743a000000000000000000008482015261118a565b6104a6816111f2565b6104c7604051838101908382528481526104bf81610cee565b5190206111f2565b6040518281019182528281526104dc81610cee565b5190208252526040600020439055005b5034610307576020366003190112610307573560005260006020526020604060002054604051908152f35b50346103075760403660031901126103075767ffffffffffffffff8135818111610307576105489036908401610e83565b602435918211610307576105a86105867f27a8767ed172b48d7cf6dbb25d2840c5fa91ef78fa6e05c13c82763d099f03ca9461059a94369101610e83565b604051938493604085526040850190610eae565b908382036020850152610eae565b0390a1005b50346103075760403660031901126103075780359067ffffffffffffffff82116103075761042861043c917f6a837ff3973aa4181e7b9f07756f8b7ee366dd85a36655d2cb42cd47f10b963893369101610e83565b50346103075760203660031901126103075780359081600052600060205260406000205490811515918261064d575b505061063957005b600052600060205260006040812055600080f35b9091506201869f194301914383116106685750103880610631565b601190634e487b7160e01b6000525260246000fd5b50346103075760403660031901126103075780359067ffffffffffffffff82116103075761042861043c917f02d93529bba9d141e5e06733c52c7e6fbcb1149586adb5c24064b522ab26f1d793369101610e83565b50346103075760403660031901126103075767ffffffffffffffff8135818111610307576107039036908401610e83565b90602435908111610307576107249261071e91369101610dae565b90610f92565b005b50346103075760403660031901126103075780359067ffffffffffffffff82116103075761075691369101610e83565b60243573ffffffffffffffffffffffffffffffffffffffff8116809103610307577f62ddffe5b5108385f7a590f100e1ee414ad9551a31f089e64e82998440785e1e916103c891604051928392604084526040840190610eae565b50346103075760403660031901126103075767ffffffffffffffff8135818111610307576107e29036908401610e83565b6024359182116103075736602383011215610307576105a86105867fe8407a0209fa99ec3a7228aff140c3d3e68bd279391739c7e0b65cd406cc93b59484602461059a96369301359101610e3c565b503461030757608036600319011261030757803567ffffffffffffffff8111610307576108619036908301610dae565b60243567ffffffffffffffff8111610307576108809036908401610e0e565b60449391933567ffffffffffffffff8111610307576108a29036908401610e0e565b60649291923567ffffffffffffffff8111610307576108c49036908601610e0e565b939091602088858101031261030757873567ffffffffffffffff8111610307578801604081868b01031261030757604051986108ff8a610cee565b813567ffffffffffffffff8111610307578201868201601f8201121561030757803561092a81610d96565b916109386040519384610d74565b81835260208084019260071b82010190898501821161030757602001915b818310610ca6575050508a5260208201359567ffffffffffffffff871161030757808201601f88850101121561030757868301359161099483610d96565b976109a2604051998a610d74565b8389526020890194838301602060a087028484010101116103075780820160200195915b602060a0870282840101018710610c4857505050505050506109ff92916109f69160208a01958652810190610eee565b93810190610eee565b60005b86518051821015610a2a5790610a24610a1d82600194610f68565b5188611085565b01610a02565b5050849360009160006001958691600154925b610a88575b50505050505050604051906020820160208352835180915260206040840194019060005b818110610a735784860385f35b82518652602095860195909201918301610a66565b869896518051821015610c3f5781610a9f91610f68565b51805115610c0457610b4484610b1563ffffffff610abd8b88610f68565b515b16610aff8c604051610ad081610cee565b600b81527f4265666f726520737761700000000000000000000000000000000000000000006020820152610f92565b8b610b39610b1a85610b158560408b0151611157565b61116a565b610b33602089015191610b2d8386610f68565b51611053565b92610f68565b526080850151611157565b6060820151610b53818b610f68565b5160008382039312818412811691841390151617610bef57610b75908a610f68565b52610bb588604051610b8681610cee565b600a81527f41667465722073776170000000000000000000000000000000000000000000006020820152610f92565b51610bc6575b959795870187610a3d565b94976000198914610bda5797870194610bbb565b601185634e487b7160e01b6000525260246000fd5b601188634e487b7160e01b6000525260246000fd5b868203828111610c2a5784610b1563ffffffff610c24610b44948a610f68565b51610abf565b601187634e487b7160e01b6000525260246000fd5b50869850610a42565b60a08786860103126103075760a08060208095604051610c6781610d3c565b610c708c610ea1565b8152828c01358382015260408c013560408201526060808d01359082015260808c013560808201528152019801979350506109c6565b6080838b87010312610307576020608091604051610cc381610d20565b8535815282860135838201526040860135604082015260608087013590820152815201920191610956565b6040810190811067ffffffffffffffff821117610d0a57604052565b634e487b7160e01b600052604160045260246000fd5b6080810190811067ffffffffffffffff821117610d0a57604052565b60a0810190811067ffffffffffffffff821117610d0a57604052565b6060810190811067ffffffffffffffff821117610d0a57604052565b90601f8019910116810190811067ffffffffffffffff821117610d0a57604052565b67ffffffffffffffff8111610d0a5760051b60200190565b9080601f83011215610307576020908235610dc881610d96565b93610dd66040519586610d74565b81855260208086019260051b82010192831161030757602001905b828210610dff575050505090565b81358152908301908301610df1565b9181601f840112156103075782359167ffffffffffffffff8311610307576020838186019501011161030757565b92919267ffffffffffffffff8211610d0a5760405191610e66601f8201601f191660200184610d74565b829481845281830111610307578281602093846000960137010152565b9080601f8301121561030757816020610e9e93359101610e3c565b90565b3590811515820361030757565b919082519283825260005b848110610eda575050826000602080949584010152601f8019910116010190565b602081830181015184830182015201610eb9565b60209081818403126103075780359067ffffffffffffffff821161030757019180601f84011215610307578235610f2481610d96565b93610f326040519586610d74565b818552838086019260051b820101928311610307578301905b828210610f59575050505090565b81358152908301908301610f4b565b8051821015610f7c5760209160051b010190565b634e487b7160e01b600052603260045260246000fd5b610f9e9092919261118a565b6000805b835181101561100f57808280610fba60019488610f68565b5160405160208101917f2d5b6cb9000000000000000000000000000000000000000000000000000000008352602490818301528152610ff881610d58565b51906a636f6e736f6c652e6c6f675afa5001610fa2565b5050905061105160405161102281610cee565b601481527f3d3d3d3d3d3d3d3d3d3d3d3d3d3d3d3d3d3d3d3d000000000000000000000000602082015261118a565b565b9190916000838201938412911290801582169115161761106f57565b634e487b7160e01b600052601160045260246000fd5b606082015160005260006020526040600020548015908115611149575b5061114557611051916110ea826040516110bb81610cee565b600e81527f4265666f7265207061796d656e740000000000000000000000000000000000006020820152610f92565b6111096111026020830151925192610b2d8486610f68565b9183610f68565b5260405161111681610cee565b600d81527f4166746572207061796d656e74000000000000000000000000000000000000006020820152610f92565b5050565b9050604083015110386110a2565b8181029291811591840414171561106f57565b8115611174570490565b634e487b7160e01b600052601260045260246000fd5b600080916040516111df816111d160208201947f41304fac000000000000000000000000000000000000000000000000000000008652602060248401526044830190610eae565b03601f198101835282610d74565b51906a636f6e736f6c652e6c6f675afa50565b6000809160405160208101917f27b7cf850000000000000000000000000000000000000000000000000000000083526024820152602481526111df81610d5856fea264697066735822122012a7a1abfc518bbf9e9c1a40127e253e9240bbf73757c5df1b4dae628a4e1c9564736f6c63430008180033",
  "linkReferences": {},
  "deployedLinkReferences": {}
}