{
  "_format": "hh-sol-artifact-1",
  "contractName": "EntityProvider",
  "sourceName": "contracts/EntityProvider.sol",
  "abi": [
    {
      "inputs": [],
      "stateMutability": "nonpayable",
      "type": "constructor"
    },
    {
      "inputs": [
        {
          "internalType": "address",
          "name": "sender",
          "type": "address"
        },
        {
          "internalType": "uint256",
          "name": "balance",
          "type": "uint256"
        },
        {
          "internalType": "uint256",
          "name": "needed",
          "type": "uint256"
        },
        {
          "internalType": "uint256",
          "name": "tokenId",
          "type": "uint256"
        }
      ],
      "name": "ERC1155InsufficientBalance",
      "type": "error"
    },
    {
      "inputs": [
        {
          "internalType": "address",
          "name": "approver",
          "type": "address"
        }
      ],
      "name": "ERC1155InvalidApprover",
      "type": "error"
    },
    {
      "inputs": [
        {
          "internalType": "uint256",
          "name": "idsLength",
          "type": "uint256"
        },
        {
          "internalType": "uint256",
          "name": "valuesLength",
          "type": "uint256"
        }
      ],
      "name": "ERC1155InvalidArrayLength",
      "type": "error"
    },
    {
      "inputs": [
        {
          "internalType": "address",
          "name": "operator",
          "type": "address"
        }
      ],
      "name": "ERC1155InvalidOperator",
      "type": "error"
    },
    {
      "inputs": [
        {
          "internalType": "address",
          "name": "receiver",
          "type": "address"
        }
      ],
      "name": "ERC1155InvalidReceiver",
      "type": "error"
    },
    {
      "inputs": [
        {
          "internalType": "address",
          "name": "sender",
          "type": "address"
        }
      ],
      "name": "ERC1155InvalidSender",
      "type": "error"
    },
    {
      "inputs": [
        {
          "internalType": "address",
          "name": "operator",
          "type": "address"
        },
        {
          "internalType": "address",
          "name": "owner",
          "type": "address"
        }
      ],
      "name": "ERC1155MissingApprovalForAll",
      "type": "error"
    },
    {
      "anonymous": false,
      "inputs": [
        {
          "indexed": true,
          "internalType": "address",
          "name": "account",
          "type": "address"
        },
        {
          "indexed": true,
          "internalType": "address",
          "name": "operator",
          "type": "address"
        },
        {
          "indexed": false,
          "internalType": "bool",
          "name": "approved",
          "type": "bool"
        }
      ],
      "name": "ApprovalForAll",
      "type": "event"
    },
    {
      "anonymous": false,
      "inputs": [
        {
          "indexed": true,
          "internalType": "bytes32",
          "name": "entityId",
          "type": "bytes32"
        },
        {
          "indexed": false,
          "internalType": "bytes32",
          "name": "newBoardHash",
          "type": "bytes32"
        }
      ],
      "name": "BoardActivated",
      "type": "event"
    },
    {
      "anonymous": false,
      "inputs": [
        {
          "indexed": true,
          "internalType": "bytes32",
          "name": "entityId",
          "type": "bytes32"
        },
        {
          "indexed": false,
          "internalType": "bytes32",
          "name": "proposedBoardHash",
          "type": "bytes32"
        }
      ],
      "name": "BoardProposed",
      "type": "event"
    },
    {
      "anonymous": false,
      "inputs": [
        {
          "indexed": true,
          "internalType": "bytes32",
          "name": "entityId",
          "type": "bytes32"
        },
        {
          "indexed": true,
          "internalType": "uint256",
          "name": "entityNumber",
          "type": "uint256"
        },
        {
          "indexed": false,
          "internalType": "bytes32",
          "name": "boardHash",
          "type": "bytes32"
        }
      ],
      "name": "EntityRegistered",
      "type": "event"
    },
    {
      "anonymous": false,
      "inputs": [
        {
          "indexed": true,
          "internalType": "bytes32",
          "name": "entityId",
          "type": "bytes32"
        },
        {
          "indexed": false,
          "internalType": "uint256",
          "name": "controlTokenId",
          "type": "uint256"
        },
        {
          "indexed": false,
          "internalType": "uint256",
          "name": "dividendTokenId",
          "type": "uint256"
        }
      ],
      "name": "GovernanceEnabled",
      "type": "event"
    },
    {
      "anonymous": false,
      "inputs": [
        {
          "indexed": true,
          "internalType": "bytes32",
          "name": "entityId",
          "type": "bytes32"
        },
        {
          "indexed": false,
          "internalType": "bool",
          "name": "success",
          "type": "bool"
        },
        {
          "indexed": false,
          "internalType": "uint256",
          "name": "votingPower",
          "type": "uint256"
        }
      ],
      "name": "HankoClaimProcessed",
      "type": "event"
    },
    {
      "anonymous": false,
      "inputs": [
        {
          "indexed": true,
          "internalType": "bytes32",
          "name": "entityId",
          "type": "bytes32"
        },
        {
          "indexed": true,
          "internalType": "bytes32",
          "name": "hash",
          "type": "bytes32"
        }
      ],
      "name": "HankoVerified",
      "type": "event"
    },
    {
      "anonymous": false,
      "inputs": [
        {
          "indexed": true,
          "internalType": "string",
          "name": "name",
          "type": "string"
        },
        {
          "indexed": true,
          "internalType": "uint256",
          "name": "entityNumber",
          "type": "uint256"
        }
      ],
      "name": "NameAssigned",
      "type": "event"
    },
    {
      "anonymous": false,
      "inputs": [
        {
          "indexed": true,
          "internalType": "string",
          "name": "name",
          "type": "string"
        },
        {
          "indexed": true,
          "internalType": "uint256",
          "name": "fromNumber",
          "type": "uint256"
        },
        {
          "indexed": true,
          "internalType": "uint256",
          "name": "toNumber",
          "type": "uint256"
        }
      ],
      "name": "NameTransferred",
      "type": "event"
    },
    {
      "anonymous": false,
      "inputs": [
        {
          "indexed": true,
          "internalType": "bytes32",
          "name": "entityId",
          "type": "bytes32"
        },
        {
          "indexed": false,
          "internalType": "enum EntityProvider.ProposerType",
          "name": "cancelledBy",
          "type": "uint8"
        }
      ],
      "name": "ProposalCancelled",
      "type": "event"
    },
    {
      "anonymous": false,
      "inputs": [
        {
          "indexed": true,
          "internalType": "bytes32",
          "name": "entityId",
          "type": "bytes32"
        },
        {
          "indexed": false,
          "internalType": "bytes32",
          "name": "oldQuorum",
          "type": "bytes32"
        },
        {
          "indexed": false,
          "internalType": "bytes32",
          "name": "newQuorum",
          "type": "bytes32"
        }
      ],
      "name": "QuorumReplaced",
      "type": "event"
    },
    {
      "anonymous": false,
      "inputs": [
        {
          "indexed": true,
          "internalType": "bytes32",
          "name": "entityId",
          "type": "bytes32"
        },
        {
          "indexed": false,
          "internalType": "bytes32",
          "name": "newQuorum",
          "type": "bytes32"
        },
        {
          "indexed": false,
          "internalType": "enum EntityProvider.ProposerType",
          "name": "proposerType",
          "type": "uint8"
        },
        {
          "indexed": false,
          "internalType": "uint256",
          "name": "executeBlock",
          "type": "uint256"
        }
      ],
      "name": "QuorumReplacementProposed",
      "type": "event"
    },
    {
      "anonymous": false,
      "inputs": [
        {
          "indexed": true,
          "internalType": "address",
          "name": "operator",
          "type": "address"
        },
        {
          "indexed": true,
          "internalType": "address",
          "name": "from",
          "type": "address"
        },
        {
          "indexed": true,
          "internalType": "address",
          "name": "to",
          "type": "address"
        },
        {
          "indexed": false,
          "internalType": "uint256[]",
          "name": "ids",
          "type": "uint256[]"
        },
        {
          "indexed": false,
          "internalType": "uint256[]",
          "name": "values",
          "type": "uint256[]"
        }
      ],
      "name": "TransferBatch",
      "type": "event"
    },
    {
      "anonymous": false,
      "inputs": [
        {
          "indexed": true,
          "internalType": "address",
          "name": "operator",
          "type": "address"
        },
        {
          "indexed": true,
          "internalType": "address",
          "name": "from",
          "type": "address"
        },
        {
          "indexed": true,
          "internalType": "address",
          "name": "to",
          "type": "address"
        },
        {
          "indexed": false,
          "internalType": "uint256",
          "name": "id",
          "type": "uint256"
        },
        {
          "indexed": false,
          "internalType": "uint256",
          "name": "value",
          "type": "uint256"
        }
      ],
      "name": "TransferSingle",
      "type": "event"
    },
    {
      "anonymous": false,
      "inputs": [
        {
          "indexed": false,
          "internalType": "string",
          "name": "value",
          "type": "string"
        },
        {
          "indexed": true,
          "internalType": "uint256",
          "name": "id",
          "type": "uint256"
        }
      ],
      "name": "URI",
      "type": "event"
    },
    {
      "inputs": [],
      "name": "FOUNDATION_ENTITY",
      "outputs": [
        {
          "internalType": "uint256",
          "name": "",
          "type": "uint256"
        }
      ],
      "stateMutability": "view",
      "type": "function"
    },
    {
      "inputs": [],
      "name": "TOTAL_CONTROL_SUPPLY",
      "outputs": [
        {
          "internalType": "uint256",
          "name": "",
          "type": "uint256"
        }
      ],
      "stateMutability": "view",
      "type": "function"
    },
    {
      "inputs": [],
      "name": "TOTAL_DIVIDEND_SUPPLY",
      "outputs": [
        {
          "internalType": "uint256",
          "name": "",
          "type": "uint256"
        }
      ],
      "stateMutability": "view",
      "type": "function"
    },
    {
      "inputs": [
        {
          "internalType": "uint256",
          "name": "",
          "type": "uint256"
        }
      ],
      "name": "activateAtBlock",
      "outputs": [
        {
          "internalType": "uint256",
          "name": "",
          "type": "uint256"
        }
      ],
      "stateMutability": "view",
      "type": "function"
    },
    {
      "inputs": [
        {
          "internalType": "bytes32",
          "name": "entityId",
          "type": "bytes32"
        }
      ],
      "name": "activateBoard",
      "outputs": [],
      "stateMutability": "nonpayable",
      "type": "function"
    },
    {
      "inputs": [
        {
          "internalType": "bytes32",
          "name": "",
          "type": "bytes32"
        }
      ],
      "name": "activeProposals",
      "outputs": [
        {
          "internalType": "bytes32",
          "name": "proposedQuorum",
          "type": "bytes32"
        },
        {
          "internalType": "enum EntityProvider.ProposerType",
          "name": "proposerType",
          "type": "uint8"
        },
        {
          "internalType": "uint256",
          "name": "proposeBlock",
          "type": "uint256"
        },
        {
          "internalType": "bool",
          "name": "active",
          "type": "bool"
        }
      ],
      "stateMutability": "view",
      "type": "function"
    },
    {
      "inputs": [
        {
          "internalType": "string",
          "name": "name",
          "type": "string"
        },
        {
          "internalType": "uint256",
          "name": "entityNumber",
          "type": "uint256"
        }
      ],
      "name": "assignName",
      "outputs": [],
      "stateMutability": "nonpayable",
      "type": "function"
    },
    {
      "inputs": [
        {
          "internalType": "address",
          "name": "account",
          "type": "address"
        },
        {
          "internalType": "uint256",
          "name": "id",
          "type": "uint256"
        }
      ],
      "name": "balanceOf",
      "outputs": [
        {
          "internalType": "uint256",
          "name": "",
          "type": "uint256"
        }
      ],
      "stateMutability": "view",
      "type": "function"
    },
    {
      "inputs": [
        {
          "internalType": "address[]",
          "name": "accounts",
          "type": "address[]"
        },
        {
          "internalType": "uint256[]",
          "name": "ids",
          "type": "uint256[]"
        }
      ],
      "name": "balanceOfBatch",
      "outputs": [
        {
          "internalType": "uint256[]",
          "name": "",
          "type": "uint256[]"
        }
      ],
      "stateMutability": "view",
      "type": "function"
    },
    {
      "inputs": [
        {
          "internalType": "bytes[]",
          "name": "hankoDataArray",
          "type": "bytes[]"
        },
        {
          "internalType": "bytes32[]",
          "name": "hashes",
          "type": "bytes32[]"
        }
      ],
      "name": "batchVerifyHankoSignatures",
      "outputs": [
        {
          "internalType": "bytes32[]",
          "name": "entityIds",
          "type": "bytes32[]"
        },
        {
          "internalType": "bool[]",
          "name": "results",
          "type": "bool[]"
        }
      ],
      "stateMutability": "view",
      "type": "function"
    },
    {
      "inputs": [
        {
          "internalType": "bytes32",
          "name": "",
          "type": "bytes32"
        }
      ],
      "name": "entities",
      "outputs": [
        {
          "internalType": "bytes32",
          "name": "currentBoardHash",
          "type": "bytes32"
        },
        {
          "internalType": "bytes32",
          "name": "proposedAuthenticatorHash",
          "type": "bytes32"
        },
        {
          "internalType": "uint256",
          "name": "registrationBlock",
          "type": "uint256"
        },
        {
          "internalType": "bool",
          "name": "exists",
          "type": "bool"
        },
        {
          "internalType": "bytes32",
          "name": "articlesHash",
          "type": "bytes32"
        }
      ],
      "stateMutability": "view",
      "type": "function"
    },
    {
      "inputs": [
        {
          "internalType": "uint256",
          "name": "entityNumber",
          "type": "uint256"
        },
        {
          "internalType": "address",
          "name": "to",
          "type": "address"
        },
        {
          "internalType": "uint256",
          "name": "tokenId",
          "type": "uint256"
        },
        {
          "internalType": "uint256",
          "name": "amount",
          "type": "uint256"
        },
        {
          "internalType": "bytes",
          "name": "encodedBoard",
          "type": "bytes"
        },
        {
          "internalType": "bytes",
          "name": "encodedSignature",
          "type": "bytes"
        }
      ],
      "name": "entityTransferTokens",
      "outputs": [],
      "stateMutability": "nonpayable",
      "type": "function"
    },
    {
      "inputs": [
        {
          "internalType": "uint256",
          "name": "entityNumber",
          "type": "uint256"
        },
        {
          "internalType": "address[]",
          "name": "supporters",
          "type": "address[]"
        },
        {
          "components": [
            {
              "internalType": "uint32",
              "name": "controlDelay",
              "type": "uint32"
            },
            {
              "internalType": "uint32",
              "name": "dividendDelay",
              "type": "uint32"
            },
            {
              "internalType": "uint32",
              "name": "foundationDelay",
              "type": "uint32"
            },
            {
              "internalType": "uint16",
              "name": "controlThreshold",
              "type": "uint16"
            }
          ],
          "internalType": "struct EntityProvider.EntityArticles",
          "name": "articles",
          "type": "tuple"
        }
      ],
      "name": "executeQuorumReplacement",
      "outputs": [],
      "stateMutability": "nonpayable",
      "type": "function"
    },
    {
      "inputs": [
        {
          "internalType": "bytes32",
          "name": "boardHash",
          "type": "bytes32"
        },
        {
          "components": [
            {
              "internalType": "uint32",
              "name": "controlDelay",
              "type": "uint32"
            },
            {
              "internalType": "uint32",
              "name": "dividendDelay",
              "type": "uint32"
            },
            {
              "internalType": "uint32",
              "name": "foundationDelay",
              "type": "uint32"
            },
            {
              "internalType": "uint16",
              "name": "controlThreshold",
              "type": "uint16"
            }
          ],
          "internalType": "struct EntityProvider.EntityArticles",
          "name": "articles",
          "type": "tuple"
        }
      ],
      "name": "foundationRegisterEntity",
      "outputs": [
        {
          "internalType": "uint256",
          "name": "entityNumber",
          "type": "uint256"
        }
      ],
      "stateMutability": "nonpayable",
      "type": "function"
    },
    {
      "inputs": [
        {
          "internalType": "uint256",
          "name": "tokenId",
          "type": "uint256"
        }
      ],
      "name": "getEntityFromToken",
      "outputs": [
        {
          "internalType": "uint256",
          "name": "entityNumber",
          "type": "uint256"
        }
      ],
      "stateMutability": "pure",
      "type": "function"
    },
    {
      "inputs": [
        {
          "internalType": "bytes32",
          "name": "entityId",
          "type": "bytes32"
        }
      ],
      "name": "getEntityInfo",
      "outputs": [
        {
          "internalType": "bool",
          "name": "exists",
          "type": "bool"
        },
        {
          "internalType": "bytes32",
          "name": "currentBoardHash",
          "type": "bytes32"
        },
        {
          "internalType": "bytes32",
          "name": "proposedBoardHash",
          "type": "bytes32"
        },
        {
          "internalType": "uint256",
          "name": "registrationBlock",
          "type": "uint256"
        },
        {
          "internalType": "string",
          "name": "name",
          "type": "string"
        }
      ],
      "stateMutability": "view",
      "type": "function"
    },
    {
      "inputs": [
        {
          "internalType": "uint256",
          "name": "entityNumber",
          "type": "uint256"
        }
      ],
      "name": "getGovernanceInfo",
      "outputs": [
        {
          "internalType": "uint256",
          "name": "controlTokenId",
          "type": "uint256"
        },
        {
          "internalType": "uint256",
          "name": "dividendTokenId",
          "type": "uint256"
        },
        {
          "internalType": "uint256",
          "name": "controlSupply",
          "type": "uint256"
        },
        {
          "internalType": "uint256",
          "name": "dividendSupply",
          "type": "uint256"
        },
        {
          "internalType": "bool",
          "name": "hasActiveProposal",
          "type": "bool"
        },
        {
          "internalType": "bytes32",
          "name": "articlesHash",
          "type": "bytes32"
        }
      ],
      "stateMutability": "view",
      "type": "function"
    },
    {
      "inputs": [
        {
          "internalType": "uint256",
          "name": "entityNumber",
          "type": "uint256"
        }
      ],
      "name": "getTokenIds",
      "outputs": [
        {
          "internalType": "uint256",
          "name": "controlTokenId",
          "type": "uint256"
        },
        {
          "internalType": "uint256",
          "name": "dividendTokenId",
          "type": "uint256"
        }
      ],
      "stateMutability": "pure",
      "type": "function"
    },
    {
      "inputs": [
        {
          "internalType": "address",
          "name": "account",
          "type": "address"
        },
        {
          "internalType": "address",
          "name": "operator",
          "type": "address"
        }
      ],
      "name": "isApprovedForAll",
      "outputs": [
        {
          "internalType": "bool",
          "name": "",
          "type": "bool"
        }
      ],
      "stateMutability": "view",
      "type": "function"
    },
    {
      "inputs": [
        {
          "internalType": "bytes",
          "name": "hankoData",
          "type": "bytes"
        },
        {
          "internalType": "bytes32",
          "name": "hash",
          "type": "bytes32"
        }
      ],
      "name": "isValidHankoSignature",
      "outputs": [
        {
          "internalType": "bool",
          "name": "valid",
          "type": "bool"
        }
      ],
      "stateMutability": "view",
      "type": "function"
    },
    {
      "inputs": [
        {
          "internalType": "bytes32",
          "name": "_hash",
          "type": "bytes32"
        },
        {
          "internalType": "bytes32",
          "name": "entityId",
          "type": "bytes32"
        },
        {
          "internalType": "bytes",
          "name": "encodedBoard",
          "type": "bytes"
        },
        {
          "internalType": "bytes",
          "name": "encodedSignature",
          "type": "bytes"
        }
      ],
      "name": "isValidSignature",
      "outputs": [
        {
          "internalType": "uint16",
          "name": "",
          "type": "uint16"
        }
      ],
      "stateMutability": "view",
      "type": "function"
    },
    {
      "inputs": [
        {
          "internalType": "address",
          "name": "",
          "type": "address"
        }
      ],
      "name": "nameQuota",
      "outputs": [
        {
          "internalType": "uint8",
          "name": "",
          "type": "uint8"
        }
      ],
      "stateMutability": "view",
      "type": "function"
    },
    {
      "inputs": [
        {
          "internalType": "string",
          "name": "",
          "type": "string"
        }
      ],
      "name": "nameToNumber",
      "outputs": [
        {
          "internalType": "uint256",
          "name": "",
          "type": "uint256"
        }
      ],
      "stateMutability": "view",
      "type": "function"
    },
    {
      "inputs": [],
      "name": "nextNumber",
      "outputs": [
        {
          "internalType": "uint256",
          "name": "",
          "type": "uint256"
        }
      ],
      "stateMutability": "view",
      "type": "function"
    },
    {
      "inputs": [
        {
          "internalType": "uint256",
          "name": "",
          "type": "uint256"
        }
      ],
      "name": "numberToName",
      "outputs": [
        {
          "internalType": "string",
          "name": "",
          "type": "string"
        }
      ],
      "stateMutability": "view",
      "type": "function"
    },
    {
      "inputs": [
        {
          "internalType": "bytes32",
          "name": "entityId",
          "type": "bytes32"
        },
        {
          "internalType": "bytes32",
          "name": "newBoardHash",
          "type": "bytes32"
        }
      ],
      "name": "proposeBoard",
      "outputs": [],
      "stateMutability": "nonpayable",
      "type": "function"
    },
    {
      "inputs": [
        {
          "internalType": "uint256",
          "name": "entityNumber",
          "type": "uint256"
        },
        {
          "internalType": "bytes32",
          "name": "newQuorum",
          "type": "bytes32"
        },
        {
          "internalType": "enum EntityProvider.ProposerType",
          "name": "proposerType",
          "type": "uint8"
        },
        {
          "components": [
            {
              "internalType": "uint32",
              "name": "controlDelay",
              "type": "uint32"
            },
            {
              "internalType": "uint32",
              "name": "dividendDelay",
              "type": "uint32"
            },
            {
              "internalType": "uint32",
              "name": "foundationDelay",
              "type": "uint32"
            },
            {
              "internalType": "uint16",
              "name": "controlThreshold",
              "type": "uint16"
            }
          ],
          "internalType": "struct EntityProvider.EntityArticles",
          "name": "articles",
          "type": "tuple"
        }
      ],
      "name": "proposeQuorumReplacement",
      "outputs": [],
      "stateMutability": "nonpayable",
      "type": "function"
    },
    {
      "inputs": [
        {
          "internalType": "bytes",
          "name": "encodedBoard",
          "type": "bytes"
        },
        {
          "internalType": "bytes",
          "name": "encodedSignature",
          "type": "bytes"
        },
        {
          "internalType": "bytes32",
          "name": "hash",
          "type": "bytes32"
        }
      ],
      "name": "recoverEntity",
      "outputs": [
        {
          "internalType": "uint256",
          "name": "entityId",
          "type": "uint256"
        }
      ],
      "stateMutability": "view",
      "type": "function"
    },
    {
      "inputs": [
        {
          "internalType": "bytes32",
          "name": "boardHash",
          "type": "bytes32"
        }
      ],
      "name": "registerNumberedEntity",
      "outputs": [
        {
          "internalType": "uint256",
          "name": "entityNumber",
          "type": "uint256"
        }
      ],
      "stateMutability": "nonpayable",
      "type": "function"
    },
    {
      "inputs": [
        {
          "internalType": "string",
          "name": "",
          "type": "string"
        }
      ],
      "name": "reservedNames",
      "outputs": [
        {
          "internalType": "bool",
          "name": "",
          "type": "bool"
        }
      ],
      "stateMutability": "view",
      "type": "function"
    },
    {
      "inputs": [
        {
          "internalType": "string",
          "name": "identifier",
          "type": "string"
        }
      ],
      "name": "resolveEntityId",
      "outputs": [
        {
          "internalType": "bytes32",
          "name": "",
          "type": "bytes32"
        }
      ],
      "stateMutability": "view",
      "type": "function"
    },
    {
      "inputs": [
        {
          "internalType": "address",
          "name": "from",
          "type": "address"
        },
        {
          "internalType": "address",
          "name": "to",
          "type": "address"
        },
        {
          "internalType": "uint256[]",
          "name": "ids",
          "type": "uint256[]"
        },
        {
          "internalType": "uint256[]",
          "name": "values",
          "type": "uint256[]"
        },
        {
          "internalType": "bytes",
          "name": "data",
          "type": "bytes"
        }
      ],
      "name": "safeBatchTransferFrom",
      "outputs": [],
      "stateMutability": "nonpayable",
      "type": "function"
    },
    {
      "inputs": [
        {
          "internalType": "address",
          "name": "from",
          "type": "address"
        },
        {
          "internalType": "address",
          "name": "to",
          "type": "address"
        },
        {
          "internalType": "uint256",
          "name": "id",
          "type": "uint256"
        },
        {
          "internalType": "uint256",
          "name": "value",
          "type": "uint256"
        },
        {
          "internalType": "bytes",
          "name": "data",
          "type": "bytes"
        }
      ],
      "name": "safeTransferFrom",
      "outputs": [],
      "stateMutability": "nonpayable",
      "type": "function"
    },
    {
      "inputs": [
        {
          "internalType": "address",
          "name": "operator",
          "type": "address"
        },
        {
          "internalType": "bool",
          "name": "approved",
          "type": "bool"
        }
      ],
      "name": "setApprovalForAll",
      "outputs": [],
      "stateMutability": "nonpayable",
      "type": "function"
    },
    {
      "inputs": [
        {
          "internalType": "address",
          "name": "user",
          "type": "address"
        },
        {
          "internalType": "uint8",
          "name": "quota",
          "type": "uint8"
        }
      ],
      "name": "setNameQuota",
      "outputs": [],
      "stateMutability": "nonpayable",
      "type": "function"
    },
    {
      "inputs": [
        {
          "internalType": "string",
          "name": "name",
          "type": "string"
        },
        {
          "internalType": "bool",
          "name": "reserved",
          "type": "bool"
        }
      ],
      "name": "setReservedName",
      "outputs": [],
      "stateMutability": "nonpayable",
      "type": "function"
    },
    {
      "inputs": [
        {
          "internalType": "bytes4",
          "name": "interfaceId",
          "type": "bytes4"
        }
      ],
      "name": "supportsInterface",
      "outputs": [
        {
          "internalType": "bool",
          "name": "",
          "type": "bool"
        }
      ],
      "stateMutability": "view",
      "type": "function"
    },
    {
      "inputs": [
        {
          "internalType": "bytes32",
          "name": "",
          "type": "bytes32"
        }
      ],
      "name": "totalControlSupply",
      "outputs": [
        {
          "internalType": "uint256",
          "name": "",
          "type": "uint256"
        }
      ],
      "stateMutability": "view",
      "type": "function"
    },
    {
      "inputs": [
        {
          "internalType": "bytes32",
          "name": "",
          "type": "bytes32"
        }
      ],
      "name": "totalDividendSupply",
      "outputs": [
        {
          "internalType": "uint256",
          "name": "",
          "type": "uint256"
        }
      ],
      "stateMutability": "view",
      "type": "function"
    },
    {
      "inputs": [
        {
          "internalType": "string",
          "name": "name",
          "type": "string"
        },
        {
          "internalType": "uint256",
          "name": "newEntityNumber",
          "type": "uint256"
        }
      ],
      "name": "transferName",
      "outputs": [],
      "stateMutability": "nonpayable",
      "type": "function"
    },
    {
      "inputs": [
        {
          "internalType": "uint256",
          "name": "",
          "type": "uint256"
        }
      ],
      "name": "uri",
      "outputs": [
        {
          "internalType": "string",
          "name": "",
          "type": "string"
        }
      ],
      "stateMutability": "view",
      "type": "function"
    },
    {
      "inputs": [
        {
          "internalType": "bytes",
          "name": "hankoData",
          "type": "bytes"
        },
        {
          "internalType": "bytes32",
          "name": "hash",
          "type": "bytes32"
        }
      ],
      "name": "verifyHankoSignature",
      "outputs": [
        {
          "internalType": "bytes32",
          "name": "entityId",
          "type": "bytes32"
        },
        {
          "internalType": "bool",
          "name": "success",
          "type": "bool"
        }
      ],
      "stateMutability": "view",
      "type": "function"
    },
    {
      "inputs": [
        {
          "components": [
            {
              "internalType": "bytes32",
              "name": "entityId",
              "type": "bytes32"
            },
            {
              "internalType": "uint256[]",
              "name": "entityIndexes",
              "type": "uint256[]"
            },
            {
              "internalType": "uint256[]",
              "name": "weights",
              "type": "uint256[]"
            },
            {
              "internalType": "uint256",
              "name": "threshold",
              "type": "uint256"
            },
            {
              "internalType": "bytes32",
              "name": "expectedQuorumHash",
              "type": "bytes32"
            }
          ],
          "internalType": "struct EntityProvider.HankoClaim[]",
          "name": "claims",
          "type": "tuple[]"
        },
        {
          "internalType": "bytes32[]",
          "name": "yesEntities",
          "type": "bytes32[]"
        },
        {
          "internalType": "bytes32[]",
          "name": "noEntities",
          "type": "bytes32[]"
        }
      ],
      "name": "verifyQuorumClaims",
      "outputs": [
        {
          "internalType": "bytes32",
          "name": "entityId",
          "type": "bytes32"
        },
        {
          "internalType": "bool",
          "name": "success",
          "type": "bool"
        }
      ],
      "stateMutability": "view",
      "type": "function"
    }
  ],
  "bytecode": "0x604060808152346200035a576200001f6200001962000403565b62000679565b6200002a6001600455565b6200005d62000050602860405167636f696e6261736560c01b8152600760088201522090565b805460ff19166001179055565b6200008362000050602860405167657468657265756d60c01b8152600760088201522090565b620000a7620000506027604051663134ba31b7b4b760c91b81526007808201522090565b620000cb620000506027604051660756e69737761760cc1b81526007808201522090565b62000269620000d96200039f565b6103e88152610bb860208201526000818401526033606082015282516200014b816200013c602082019485919091606061ffff81608084019563ffffffff8082511686528060208301511660208701526040820151166040860152015116910152565b03601f19810183528262000375565b51902062000158620003bf565b7fa1237dddbd29f99fde152257ccb2f783e434670afa247b2a52d81a326d4cf0ad8152600060208083018281524387850152600160608501818152608086019687529352600390915282517fa15bc60c955c405d20d9149c709e2460f1c2d9a497496a7f46004d1772c3054c55517fa15bc60c955c405d20d9149c709e2460f1c2d9a497496a7f46004d1772c3054d556040909101517fa15bc60c955c405d20d9149c709e2460f1c2d9a497496a7f46004d1772c3054e55517fa15bc60c955c405d20d9149c709e2460f1c2d9a497496a7f46004d1772c3054f805460ff191691151560ff16919091179055517fa15bc60c955c405d20d9149c709e2460f1c2d9a497496a7f46004d1772c3055055565b60017f52629ba16cb44b809941f19e442f11a9973e93cc91be0d91df4afbe6e7c624ca6001600160ff1b0182620002aa620002a3620003df565b826200044d565b620002bf620002b8620003df565b836200044d565b6001600052600b602052620002fb7f72c6bfb7988af3a1efa6568f02a999bc52252641c659d85961ca3d372b57d5cf5b66038d7ea4c680009055565b6001600052600c602052620003307fd421a5181c571bba3f01190c922c3b2a896fc1d84e86c9f17ac10e67ebef8b5c620002ef565b84519081526020810191909152604090a26200034c6002600455565b51614d48908162000a458239f35b600080fd5b634e487b7160e01b600052604160045260246000fd5b601f909101601f19168101906001600160401b038211908210176200039957604052565b6200035f565b60405190608082016001600160401b038111838210176200039957604052565b6040519060a082016001600160401b038111838210176200039957604052565b60405190602082016001600160401b03811183821017620003995760405260008252565b60408051919082016001600160401b038111838210176200039957604052602082527f68747470733a2f2f786c6e2e636f6d2f656e746974792f7b69647d2e6a736f6e6020830152565b9060405191600190818452602091602085019182526040850190808252606093606087019466038d7ea4c680008652608088018060405288518551808203620005c557505050908291826000905b62000565575b505050865114600014620005255780600084517fc3d58168c5ae7397731d063d5bbf3d657854427343f4c083240f7aacaa2d0f62620004f6885160405191829133958360209093929193604081019481520152565b0390a45b855103620005165750620005149350519051903362000a0f565b565b915050620005149233620008f2565b8060006040517f4a39dc06d4c0dbc64b70af90fd698a233a518aa5d07e595d983b8c0526c8f7fb3391806200055c888d83620007ce565b0390a4620004fa565b8951811015620005bf5780849160051b8b01620005b5620005ac6200059c8688850151940151936000526000602052604060002090565b6001600052602052604060002090565b91825462000774565b905501836200049b565b620004a1565b635b05999160e01b835260848b019190915260a48a0152604490fd5b90600182811c9216801562000613575b6020831014620005fd57565b634e487b7160e01b600052602260045260246000fd5b91607f1691620005f1565b601f81116200062b575050565b60009060026000526020600020906020601f850160051c830194106200066e575b601f0160051c01915b8281106200066257505050565b81815560010162000655565b90925082906200064c565b80519091906001600160401b0381116200039957620006a5816200069f600254620005e1565b6200061e565b602080601f8311600114620006ec57508190620006db9394600092620006e0575b50508160011b916000199060031b1c19161790565b600255565b015190503880620006c6565b6002600052601f198316949091907f405787fa12a823e0f2b7631cc41b3ba8828b3321ca811111fa75cd3aa3bb5ace926000905b8782106200075b57505083600195961062000741575b505050811b01600255565b015160001960f88460031b161c1916905538808062000736565b8060018596829496860151815501950193019062000720565b919082018092116200078257565b634e487b7160e01b600052601160045260246000fd5b90815180825260208080930193019160005b828110620007b9575050505090565b835185529381019392810192600101620007aa565b9091620007e8620007f79360408452604084019062000798565b91602081840391015262000798565b90565b908160209103126200035a57516001600160e01b0319811681036200035a5790565b919082519283825260005b84811062000849575050826000602080949584010152601f8019910116010190565b60208183018101518483018201520162000827565b9262000891620007f79593620008a09360018060a01b031686526000602087015260a0604087015260a086019062000798565b90848203606086015262000798565b9160808184039101526200081c565b3d15620008ed573d906001600160401b038211620003995760405191620008e1601f8201601f19166020018462000375565b82523d6000602084013e565b606090565b929160013b62000903575b50505050565b60209162000928604051948593849363bc197c8160e01b98898652600486016200085e565b0381600060015af160009181620009a4575b5062000971576200094a620008af565b805190816200096c57604051632bfa23e760e11b815260016004820152602490fd5b602001fd5b6001600160e01b031916036200098b5738808080620008fd565b604051632bfa23e760e11b815260016004820152602490fd5b620009cc91925060203d602011620009d4575b620009c3818362000375565b810190620007fa565b90386200093a565b503d620009b7565b909260a092620007f79594600180861b03168352600060208401526040830152606082015281608082015201906200081c565b929160013b62000a1f5750505050565b60209162000928604051948593849363f23a6e6160e01b9889865260048601620009dc56fe6080604052600436101561001257600080fd5b60003560e01c8062fdd58e146102c157806301ffc9a7146102bc57806303db76161461022b5780630e89341c146102b75780630ebf19c6146102b257806310f8de9b146102ad57806311566566146102a85780631ed3d440146102a357806326760ce61461029e5780632a20cc80146102995780632eb2c2d6146102945780632fae4ffd1461028f578063311cf8eb1461028a57806333db6503146102855780634e1273f4146102805780634e4913851461027b578063504d23ea1461027657806354d7d39d1461027157806357991d301461026c5780635a7931c8146102675780635b70ae4114610262578063680c3ff21461025d57806368436f10146102585780637ea397c8146102535780638193e0071461024e578063848202fe146102495780638aad0628146102445780638d197ec71461023f5780638dbe6c381461023a5780639248cd4314610235578063a22cb46514610230578063a74f77e71461022b578063c83fa48e14610226578063cce4159814610221578063d93e68d61461021c578063df7309ea14610217578063e1657b8a14610212578063e199e9d11461020d578063e5b338fd14610208578063e8f4803114610203578063e985e9c5146101fe578063edd2133b146101f95763f242432a146101f457600080fd5b612411565b61235e565b6122dd565b6122c1565b612264565b61211c565b61209b565b612078565b61201c565b611ec0565b611d13565b610411565b611c4e565b611bc2565b6119ce565b61198f565b611978565b6118f9565b6118bc565b61183a565b611814565b61170d565b6116e1565b611683565b61162e565b611602565b6115e2565b611562565b61143e565b6111e7565b6111bb565b6111a3565b610ff2565b610f1d565b610dba565b610d7a565b610a91565b61085c565b610716565b61048f565b610357565b6102f7565b600435906001600160a01b03821682036102dc57565b600080fd5b602435906001600160a01b03821682036102dc57565b346102dc5760403660031901126102dc57602061033c6103156102c6565b602435600052600083526040600020906001600160a01b0316600052602052604060002090565b54604051908152f35b6001600160e01b03198116036102dc57565b346102dc5760203660031901126102dc5760206001600160e01b031960043561037f81610345565b167fd9b67a260000000000000000000000000000000000000000000000000000000081149081156103e7575b81156103bd575b506040519015158152f35b7f01ffc9a700000000000000000000000000000000000000000000000000000000915014386103b2565b7f0e89341c00000000000000000000000000000000000000000000000000000000811491506103ab565b346102dc5760003660031901126102dc57602060405166038d7ea4c680008152f35b60005b8381106104465750506000910152565b8181015183820152602001610436565b9060209161046f81518092818552858086019101610433565b601f01601f1916010190565b90602061048c928181520190610456565b90565b346102dc576020806003193601126102dc576040516000916002546104b381610c9d565b8084529060019081811690811561054857506001146104ed575b6104e9846104dd8188038261062b565b6040519182918261047b565b0390f35b600260009081529294507f405787fa12a823e0f2b7631cc41b3ba8828b3321ca811111fa75cd3aa3bb5ace5b82841061053557505050816104e9936104dd92820101936104cd565b8054858501870152928501928101610519565b60ff1916858501525050151560051b82010191506104dd816104e96104cd565b634e487b7160e01b600052604160045260246000fd5b6080810190811067ffffffffffffffff82111761059a57604052565b610568565b60a0810190811067ffffffffffffffff82111761059a57604052565b6060810190811067ffffffffffffffff82111761059a57604052565b6040810190811067ffffffffffffffff82111761059a57604052565b60e0810190811067ffffffffffffffff82111761059a57604052565b6020810190811067ffffffffffffffff82111761059a57604052565b90601f8019910116810190811067ffffffffffffffff82111761059a57604052565b6040519061065a8261057e565b565b6040519061065a8261059f565b6040519061065a826105d7565b67ffffffffffffffff811161059a57601f01601f191660200190565b92919261069e82610676565b916106ac604051938461062b565b8294818452818301116102dc578281602093846000960137010152565b9080601f830112156102dc5781602061048c93359101610692565b60406003198201126102dc576004359067ffffffffffffffff82116102dc5761070f916004016106c9565b9060243590565b346102dc57610724366106e4565b3360009081527fada5013122d395ba3c54772283fb069b10426056ef8ca54750cb9bb552a59e7d60205260408120909290610762905b541515612508565b61076b81611157565b54156108185761079a610795600361078d856000526003602052604060002090565b015460ff1690565b612553565b6107f16107a682611157565b54916107c46107bf846000526006602052604060002090565b6125e6565b836107ce82611157565b556107ec816107e7866000526006602052604060002090565b612674565b61274a565b7fea3298815689e7c88c8a95c13838806450c4cee965a7c33dda77b335f64565788480a480f35b606460405162461bcd60e51b815260206004820152601160248201527f4e616d65206e6f742061737369676e65640000000000000000000000000000006044820152fd5b346102dc5760403660031901126102dc57600435602435907fc4e5e67fff3ba4bffbe07d84c897dbf61a0027b703754b45a5c9de6b58bfd7936020600093838552600382526108b460ff60036040882001541661276a565b83855260038252806001604087200155604051908152a280f35b67ffffffffffffffff811161059a5760051b60200190565b9080601f830112156102dc576020908235610900816108ce565b9361090e604051958661062b565b81855260208086019260051b8201019283116102dc57602001905b828210610937575050505090565b81356001600160a01b03811681036102dc578152908301908301610929565b359061ffff821682036102dc57565b60809060431901126102dc576040519061097e8261057e565b8163ffffffff60443581811681036102dc57825260643581811681036102dc57602083015260843590811681036102dc57604082015260a4359061ffff821682036102dc5760600152565b60809060631901126102dc57604051906109e28261057e565b8163ffffffff60643581811681036102dc57825260843581811681036102dc57602083015260a43590811681036102dc57604082015260c4359061ffff821682036102dc5760600152565b60809060231901126102dc5760405190610a468261057e565b8163ffffffff60243581811681036102dc57825260443581811681036102dc57602083015260643590811681036102dc5760408201526084359061ffff821682036102dc5760600152565b346102dc5760c03660031901126102dc5760043560243567ffffffffffffffff81116102dc57610ae67faad02390be99940470b0d8891285d5bbf184aaa95efbcd142f79c84b1bb78ab89136906004016108e6565b610aef36610965565b90610b0484600052600a602052604060002090565b91610b1b610b16600385015460ff1690565b6127b5565b610b966040516020810190610b7581610b678685919091606061ffff81608084019563ffffffff8082511686528060208301511660208701526040820151166040860152015116910152565b03601f19810183528261062b565b5190206004610b8e886000526003602052604060002090565b015414612800565b600183015460ff16610bc8610bc0610bae83856138c9565b63ffffffff6002880154911690612859565b431015612866565b610bd181611656565b60018103610c745750610be49185613a3f565b610bf8836000526003602052604060002090565b54908054610c10856000526003602052604060002090565b5560006001610c29866000526003602052604060002090565b0155610c5a610c4285600052600a602052604060002090565b60036000918281558260018201558260028201550155565b54604080519283526020830191909152819081015b0390a2005b60029150610c8181611656565b14610c8d575b50610be4565b610c979084613974565b38610c87565b90600182811c92168015610ccd575b6020831014610cb757565b634e487b7160e01b600052602260045260246000fd5b91607f1691610cac565b90604051918260008254610cea81610c9d565b90818452602094600191600181169081600014610d585750600114610d19575b50505061065a9250038361062b565b600090815285812095935091905b818310610d4057505061065a9350820101388080610d0a565b85548884018501529485019487945091830191610d27565b9250505061065a94925060ff191682840152151560051b820101388080610d0a565b346102dc5760203660031901126102dc5760043560005260066020526104e9610da66040600020610cd7565b604051918291602083526020830190610456565b346102dc57610dc8366106e4565b3360009081527fada5013122d395ba3c54772283fb069b10426056ef8ca54750cb9bb552a59e7d60205260408120909290610e029061075a565b80518015159081610f11575b5015610ecd57610e9590610e39610e34600361078d866000526003602052604060002090565b61276a565b610e4c610e4582611157565b54156128b1565b83610e69610e64856000526006602052604060002090565b610cd7565b8051610ebc575b505082610e7c82611157565b556107ec816107e7856000526006602052604060002090565b7f0d74c26d085287bcf3070f20f8d884a204aa6f73949ab189d58abd345b1cac948380a380f35b610ec590611157565b558338610e70565b606460405162461bcd60e51b815260206004820152601360248201527f496e76616c6964206e616d65206c656e677468000000000000000000000000006044820152fd5b60209150111538610e0e565b346102dc576020806003193601126102dc5760c0906004359081600052600b815260408060002054600c8352816000205490600a845260ff6003846000200154169260038552600481600020015494600160ff1b825197808952179087015285015260608401521515608083015260a0820152f35b9080601f830112156102dc576020908235610fac816108ce565b93610fba604051958661062b565b81855260208086019260051b8201019283116102dc57602001905b828210610fe3575050505090565b81358152908301908301610fd5565b346102dc5760a03660031901126102dc5761100b6102c6565b6110136102e1565b906044359167ffffffffffffffff908184116102dc5761103860049436908601610f92565b906064358381116102dc576110509036908701610f92565b926084359081116102dc5761106890369087016106c9565b936001600160a01b038082169033821415806110f7575b6110ca578316156110b2571561109b5761109995506146d4565b005b602486600060405191626a0d4560e21b8352820152fd5b602487600060405191632bfa23e760e11b8352820152fd5b6040805163711bec9160e11b815233818b019081526001600160a01b038616602082015290918291010390fd5b5081600052600160205260ff611124336040600020906001600160a01b0316600052602052604060002090565b54161561107f565b60206003198201126102dc576004359067ffffffffffffffff82116102dc5761048c916004016106c9565b6020611170918160405193828580945193849201610433565b8101600581520301902090565b6020611196918160405193828580945193849201610433565b8101600781520301902090565b346102dc57602061033c6111b63661112c565b611157565b346102dc5760203660031901126102dc57600435600052600b6020526020604060002054604051908152f35b346102dc5760e03660031901126102dc5760043560243560443560048110156102dc577fffd4c6aa29344f2bd48f06964cd520dc5354cc8624483b11d6dd8054e27dd81891610c6f61135a63ffffffff6112ca85611244366109c9565b611260610e34600361078d8d6000526003602052604060002090565b6112c560405160208101906112ac81610b678685919091606061ffff81608084019563ffffffff8082511686528060208301511660208701526040820151166040860152015116910152565b5190206004610b8e8d6000526003602052604060002090565b6138c9565b166112d68115156128fc565b6112df85611656565b600185036113be576112f13388613b31565b61130587600052600a602052604060002090565b600381015460ff16611366575b5061135461131e61064d565b85815261132e87602083016129ed565b4360408201526001606082015261134f89600052600a602052604060002090565b6129f9565b43612859565b60405193849384612a46565b61138061137a600161138593015460ff1690565b87613ba7565b612992565b867f1022d6ed189b00c6d01d0bdfcc78a25b81a33fc04c61bc53abf2de6bbc60f375604051806113b589826129dd565b0390a238611312565b6113c785611656565b600285036113de576113d93388613ab5565b6112f1565b6113e785611656565b600385036112f1576113d93315612947565b90815180825260208080930193019160005b828110611419575050505090565b83518552938101939281019260010161140b565b90602061048c9281815201906113f9565b346102dc5760403660031901126102dc5767ffffffffffffffff6004358181116102dc576114709036906004016108e6565b906024359081116102dc57611489903690600401610f92565b908051825180820361150f5750508051916114bc6114a6846108ce565b936114b4604051958661062b565b8085526108ce565b602090601f1901368583013760005b835181101561150157806114f060019260051b848082890101519187010151906124db565b6114fa8288612a7a565b52016114cb565b604051806104e9878261142d565b604051635b05999160e01b815260048101919091526024810191909152604490fd5b9181601f840112156102dc5782359167ffffffffffffffff83116102dc576020808501948460051b0101116102dc57565b346102dc5760603660031901126102dc5767ffffffffffffffff6004358181116102dc57611594903690600401611531565b6024358381116102dc576115ac903690600401611531565b916044359485116102dc576115c86115d0953690600401611531565b949050612d90565b60408051928352901515602083015290f35b346102dc5760206115fa6115f53661112c565b612fd7565b604051908152f35b346102dc5760203660031901126102dc5760043560005260096020526020604060002054604051908152f35b346102dc5760203660031901126102dc5760408051600435808252600160ff1b176020820152f35b6004111561166057565b634e487b7160e01b600052602160045260246000fd5b9060048210156116605752565b346102dc5760203660031901126102dc57600435600052600a6020526080604060002080549060ff600182015416906116d360ff6003600284015493015416926040519485526020850190611676565b604083015215156060820152f35b346102dc5760203660031901126102dc57600435600052600c6020526020604060002054604051908152f35b346102dc5760203660031901126102dc57600435600090808252600360205261173f60ff60036040852001541661276a565b808252600360205261175960016040842001541515612fec565b600161176f826000526003602052604060002090565b0154611785826000526003602052604060002090565b5581600161179d836000526003602052604060002090565b0155620f424081106117f9575b7f30b47f773c1d2a65ce0ef667c3b123d5abd927c62b56907569c0daf51cd651506117f36117e2836000526003602052604060002090565b546040519081529081906020820190565b0390a280f35b4361180e826000526009602052604060002090565b556117aa565b346102dc57602060ff61182e6118293661112c565b61117d565b54166040519015158152f35b346102dc5760403660031901126102dc576118536102c6565b60243560ff81168091036102dc573360009081527fada5013122d395ba3c54772283fb069b10426056ef8ca54750cb9bb552a59e7d6020526040812090926001600160a01b03916118a39061075a565b1682526008602052604082209060ff1982541617905580f35b346102dc5760203660031901126102dc576001600160a01b036118dd6102c6565b166000526008602052602060ff60406000205416604051908152f35b346102dc5760003660031901126102dc576020600454604051908152f35b9181601f840112156102dc5782359167ffffffffffffffff83116102dc57602083818601950101116102dc57565b60406003198201126102dc576004359067ffffffffffffffff82116102dc5761197091600401611917565b909160243590565b346102dc576115d061198936611945565b9161325b565b346102dc5760203660031901126102dc5760206040517f7fffffffffffffffffffffffffffffffffffffffffffffffffffffffffffffff600435168152f35b346102dc5760a03660031901126102dc576104e9611af16004356119f136610a2d565b3360009081527fada5013122d395ba3c54772283fb069b10426056ef8ca54750cb9bb552a59e7d60205260409081902090927f52629ba16cb44b809941f19e442f11a9973e93cc91be0d91df4afbe6e7c624ca91611b969190611a539061075a565b600454958694611a6a611a6587613191565b600455565b8651611ab181610b67602082019485919091606061ffff81608084019563ffffffff8082511686528060208301511660208701526040820151166040860152015116910152565b519020611abc61065c565b83815260006020820152438882015260016060820152906080820152611aec866000526003602052604060002090565b61356a565b83807fc9234525033c1ac098f69b4dc192ce416b13f69ec0b6de127022496be73337fd81600160ff1b8117959094611b4d6001600160a01b038516611b3e611b376135ae565b8983614190565b88611b476135ae565b91614190565b611b70611b6485600052600b602052604060002090565b66038d7ea4c680009055565b611b87611b6485600052600c602052604060002090565b89519081529081906020820190565b0390a384519081526020810191909152604090a2519081529081906020820190565b801515036102dc57565b346102dc5760403660031901126102dc5760043567ffffffffffffffff81116102dc57611bf66110999136906004016106c9565b611c3d60243591611c0683611bb8565b3360009081527fada5013122d395ba3c54772283fb069b10426056ef8ca54750cb9bb552a59e7d602052604090206118299061075a565b9060ff801983541691151516179055565b346102dc5760403660031901126102dc57611c676102c6565b602435611c7381611bb8565b6001600160a01b038216918215611ce25781611c3d611cb2923360005260016020526040600020906001600160a01b0316600052602052604060002090565b60405190151581527f17307eab39ab6107e8899845ad3d59bd9653f200f220920489ca2b5937696c3160203392a3005b60246040517fced3e10000000000000000000000000000000000000000000000000000000000815260006004820152fd5b346102dc5760c03660031901126102dc57600435611d2f6102e1565b9060643560443567ffffffffffffffff6084358181116102dc57611d57903690600401611917565b919060a4359182116102dc578592611d76611de8933690600401611917565b9160405160208101907f454e544954595f5452414e534645520000000000000000000000000000000000825287602f8201526bffffffffffffffffffffffff198c60601b16604f8201528860638201528960838201524260a382015260a38152611ddf816105f3565b519020936136a5565b03611e0857611099936001600160a01b03611e016135ae565b9416614341565b606460405162461bcd60e51b815260206004820152601860248201527f496e76616c696420656e74697479207369676e617475726500000000000000006044820152fd5b6040810190604081528251809252606081019160208094019060005b818110611eac575050508281830391015281808451928381520193019160005b828110611e96575050505090565b8351151585529381019392810192600101611e88565b825185529385019391850191600101611e68565b346102dc576040806003193601126102dc5767ffffffffffffffff600480358281116102dc57611ef4903690600401611531565b9390926024359081116102dc57611f0f903690600401611531565b90611f1b8287146135c1565b611f2486612b07565b93611f2e87612b07565b9660005b818110611f47578551806104e98b8a83611e4c565b80611f548792848b61360c565b611f62838989969496612b39565b3593611f99835195869384937f8aad06280000000000000000000000000000000000000000000000000000000085528a850161366a565b0381305afa80156120175760019282918c6000928392611fdb575b50611fca9293611fc391612a7a565b9015159052565b611fd4828a612a7a565b5201611f32565b611fca9350611fc3919250612005908c8d3d10612010575b611ffd818361062b565b81019061364e565b909390929150611fb4565b503d611ff3565b613699565b346102dc5760603660031901126102dc5767ffffffffffffffff6004358181116102dc5761204e903690600401611917565b91906024359182116102dc5760209261206e6115fa933690600401611917565b91604435936136a5565b346102dc57602061209161208b36611945565b91613758565b6040519015158152f35b346102dc5760203660031901126102dc576104e9600435600454906120c2611a6583613191565b817f52629ba16cb44b809941f19e442f11a9973e93cc91be0d91df4afbe6e7c624ca611b966120ef61064d565b6103e8815293610bb86020860152611af16040956121108782016127109052565b60336060820152611a6a565b346102dc5760803660031901126102dc5760243567ffffffffffffffff6044358181116102dc57612151903690600401611917565b9290916064359081116102dc5761216c903690600401611917565b92909161217a368684610692565b602081519101209080600052600360205260ff600360406000200154166000146121e457916121c76104e996926121c06121cf9796956000526003602052604060002090565b541461387e565b6004356145af565b60405161ffff90911681529081906020820190565b93929193036121fa576104e9936121cf936121c7565b608460405162461bcd60e51b815260206004820152602560248201527f4c617a7920656e746974793a204944206d75737420657175616c20626f61726460448201527f20686173680000000000000000000000000000000000000000000000000000006064820152fd5b346102dc5760203660031901126102dc57600435600052600360205260a060406000208054906001810154906002810154600460ff6003840154169201549260405194855260208501526040840152151560608301526080820152f35b346102dc5760003660031901126102dc57602060405160018152f35b346102dc5760403660031901126102dc57602060ff61182e6122fd6102c6565b6001600160a01b0361230d6102e1565b9116600052600184526040600020906001600160a01b0316600052602052604060002090565b919260a09361048c969592151584526020840152604083015260608201528160808201520190610456565b346102dc5760203660031901126102dc5760043560608160005260036020526104e96040600020916040516123928161059f565b8354948582526001850154908160208401526002860154928360408201526080600460ff60038a015416151598896060850152015491015280151580612406575b6123e5575b5060405195869586612333565b6123ff919350610e64906000526006602052604060002090565b91386123d8565b5060045481106123d3565b346102dc5760a03660031901126102dc5761242a6102c6565b6124326102e1565b60843567ffffffffffffffff81116102dc576124529036906004016106c9565b906001600160a01b0383163381141590816124a5575b5061247e57611099926064359160443591614341565b60405163711bec9160e11b81523360048201526001600160a01b0384166024820152604490fd5b9050600052600160205260ff6124d2336040600020906001600160a01b0316600052602052604060002090565b54161538612468565b6125049160005260006020526040600020906001600160a01b0316600052602052604060002090565b5490565b1561250f57565b606460405162461bcd60e51b815260206004820152601d60248201527f4f6e6c7920666f756e646174696f6e20746f6b656e20686f6c646572730000006044820152fd5b1561255a57565b606460405162461bcd60e51b815260206004820152601b60248201527f54617267657420656e7469747920646f65736e277420657869737400000000006044820152fd5b8181106125a9575050565b6000815560010161259e565b634e487b7160e01b600052601160045260246000fd5b908160061b91808304604014901517156125e157565b6125b5565b6125f08154610c9d565b90816125fa575050565b81601f6000931160011461260c575055565b90808391825261262b601f60208420940160051c84016001850161259e565b5555565b9190601f811161263e57505050565b61065a926000526020600020906020601f840160051c8301931061266a575b601f0160051c019061259e565b909150819061265d565b919091825167ffffffffffffffff811161059a5761269c816126968454610c9d565b8461262f565b602080601f83116001146126df575081906126d09394956000926126d4575b50508160011b916000199060031b1c19161790565b9055565b0151905038806126bb565b90601f198316956126f585600052602060002090565b926000905b88821061273257505083600195969710612719575b505050811b019055565b015160001960f88460031b161c1916905538808061270f565b806001859682949686015181550195019301906126fa565b61276290602060405192828480945193849201610433565b810103902090565b1561277157565b606460405162461bcd60e51b815260206004820152601460248201527f456e7469747920646f65736e27742065786973740000000000000000000000006044820152fd5b156127bc57565b606460405162461bcd60e51b815260206004820152601260248201527f4e6f206163746976652070726f706f73616c00000000000000000000000000006044820152fd5b1561280757565b606460405162461bcd60e51b815260206004820152601060248201527f496e76616c69642061727469636c6573000000000000000000000000000000006044820152fd5b90600782018092116125e157565b919082018092116125e157565b1561286d57565b606460405162461bcd60e51b815260206004820152601060248201527f44656c6179206e6f7420706173736564000000000000000000000000000000006044820152fd5b156128b857565b606460405162461bcd60e51b815260206004820152601560248201527f4e616d6520616c72656164792061737369676e656400000000000000000000006044820152fd5b1561290357565b606460405162461bcd60e51b815260206004820152601660248201527f50726f706f73657220747970652064697361626c6564000000000000000000006044820152fd5b1561294e57565b606460405162461bcd60e51b815260206004820152600e60248201527f4e6f7420666f756e646174696f6e0000000000000000000000000000000000006044820152fd5b1561299957565b606460405162461bcd60e51b815260206004820152601f60248201527f43616e6e6f742063616e63656c206578697374696e672070726f706f73616c006044820152fd5b60208101929161065a9190611676565b60048210156116605752565b8151815560018101602083015160048110156116605761065a9360039260609260ff80198354169116179055604081015160028501550151151591019060ff801983541691151516179055565b612a60604092959493606083019683526020830190611676565b0152565b634e487b7160e01b600052603260045260246000fd5b8051821015612a8e5760209160051b010190565b612a64565b9190811015612a8e5760051b81013590609e19813603018212156102dc570190565b903590601e19813603018212156102dc570180359067ffffffffffffffff82116102dc57602001918160051b360383136102dc57565b6000198101919082116125e157565b919082039182116125e157565b90612b11826108ce565b612b1e604051918261062b565b8281528092612b2f601f19916108ce565b0190602036910137565b9190811015612a8e5760051b0190565b91909160a0818403126102dc5760405190612b638261059f565b81938135835260208201359167ffffffffffffffff928381116102dc5782612b8c918301610f92565b602085015260408101359283116102dc57612bad6080939284938301610f92565b6040850152606081013560608501520135910152565b61048c903690612b49565b15612bd557565b606460405162461bcd60e51b815260206004820152601560248201527f456e7469747920646f6573206e6f7420657869737400000000000000000000006044820152fd5b15612c2057565b608460405162461bcd60e51b8152602060048201526024808201527f5265616c2d74696d652071756f72756d20766572696669636174696f6e20666160448201527f696c6564000000000000000000000000000000000000000000000000000000006064820152fd5b15612c9057565b606460405162461bcd60e51b815260206004820152601d60248201527f45787065637465642071756f72756d2068617368206d69736d617463680000006044820152fd5b15612cdb57565b608460405162461bcd60e51b815260206004820152602560248201527f436c61696d20696e64657865732f77656967687473206c656e677468206d697360448201527f6d617463680000000000000000000000000000000000000000000000000000006064820152fd5b15612d4c57565b606460405162461bcd60e51b815260206004820152601460248201527f496e76616c696420656e7469747920696e6465780000000000000000000000006044820152fd5b929091938215612fca57819293949160005b858110612f645750612db381612b07565b9260005b828110612f0c5750505060005b848110612dea57505050509081612ddd612de393612aeb565b91612a93565b3590600190565b9091929395612e02612dfd838989612a93565b612bc3565b91612e25612e20600361078d86516000526003602052604060002090565b612bce565b612e5d612e328487613d6a565b612e5281612e4b87516000526003602052604060002090565b5414612c19565b608085015114612c89565b602083019687515198612e77604086019a8b515114612cd4565b600096875b8a518051821015612edc578a612e93838f93612a7a565b518a811015612ea9575050506001905b01612e7c565b83612ed693612ec96001969e94612ec38f612ecf96612afa565b10612d45565b51612a7a565b5190612859565b98612ea3565b5050985095919298509593926060015111612efe576001019491929394612dc4565b505050505050600090600090565b80612f59612f41612f35612f286001958b889e9d9c9b9e612b39565b356001600160a01b031690565b6001600160a01b031690565b612f4b838c612a7a565b906001600160a01b03169052565b019693949596612db7565b90600190612f7783888a9998979a612a93565b90612f8760209283810190612ab5565b60009150821115612fc25750612fae612fb692612fa5868a8c612a93565b90810190612ab5565b919050612afa565b91019592939495612da2565b915050612fb6565b5050505050600090600090565b612fe090611157565b548061048c5750600090565b15612ff357565b606460405162461bcd60e51b815260206004820152601160248201527f4e6f2070726f706f73656420626f6172640000000000000000000000000000006044820152fd5b81601f820112156102dc57803591602091613051846108ce565b9361305f604051958661062b565b808552838086019160051b830101928084116102dc57848301915b84831061308a5750505050505090565b823567ffffffffffffffff81116102dc5786916130ac84848094890101612b49565b81520192019161307a565b60209182828203126102dc57813567ffffffffffffffff928382116102dc5701916060838303126102dc57604051936130ef856105bb565b83358281116102dc57840183601f820112156102dc57803590613111826108ce565b9161311f604051938461062b565b808352838084019160051b830101918683116102dc5784809101915b83831061318157505050508552808401358281116102dc578361315f9186016106c9565b9085015260408301359081116102dc576131799201613037565b604082015290565b823581529181019185910161313b565b60001981146125e15760010190565b156131a757565b606460405162461bcd60e51b815260206004820152601a60248201527f456e7469747920696e646578206f7574206f6620626f756e64730000000000006044820152fd5b156131f257565b608460405162461bcd60e51b8152602060048201526024808201527f5265666572656e63656420636c61696d20696e646578206f7574206f6620626f60448201527f756e6473000000000000000000000000000000000000000000000000000000006064820152fd5b61326a919392938101906130b7565b60209061327a6020820151613f20565b80519361328985845151612859565b9260409461329e604083019586515190612859565b506132a887612b07565b95600095865b86518110156133205760416132c38289612a7a565b5151146132d3575b6001016132ae565b6132e76132e08289612a7a565b518c6140e3565b896001600160a01b0382166132fe575b50506132cb565b9861331361331892612f4b836001969d612a7a565b613191565b9790896132f7565b509395919450975095909561333481612b07565b9560005b82811061352c5750505061334d825151612b07565b946000965b835180518910156134b7578861336791612a7a565b5197613386612e20600361078d8c516000526003602052604060002090565b6133b76133938a85613d6a565b6133ac81612e4b8d516000526003602052604060002090565b60808b015114612c89565b85890197885151966133cf8c8c019889515114612cd4565b6000986133ea6133e188875151612859565b89515190612859565b958a5b8c518051821015613485578161340291612a7a565b5161340e8982106131a0565b875151808210156134255750506001905b016133ed565b9c8c8c849f600195948c8f928361343b91612859565b82101561345a575050505061345492612ecf9151612a7a565b9b61341f565b9261347c612ecf9593613477612ec9946134549a97515190612afa565b612afa565b905151116131eb565b50509b6001959b506060919d99506134aa93965099919901511115611fc38386612a7a565b0196909597949397613352565b50505050935050925060005b81518110156134fd576134e66134e26134dc8385612a7a565b51151590565b1590565b6134f2576001016134c3565b505050600090600090565b50505180519081613512575050600090600090565b61351e61352492612aeb565b90612a7a565b515190600190565b8061355d613553613546600194869e9a9b9e9d9c9d612a7a565b516001600160a01b031690565b612f4b838d612a7a565b0198959498979697613338565b9060806004918051845560208101516001850155604081015160028501556135a760608201511515600386019060ff801983541691151516179055565b0151910155565b604051906135bb8261060f565b60008252565b156135c857565b606460405162461bcd60e51b815260206004820152601560248201527f4172726179206c656e677468206d69736d6174636800000000000000000000006044820152fd5b9190811015612a8e5760051b81013590601e19813603018212156102dc57019081359167ffffffffffffffff83116102dc5760200182360381136102dc579190565b91908260409103126102dc576020825192015161048c81611bb8565b9392918060609160209360408852816040890152838801376000828288010152601f8019910116850101930152565b6040513d6000823e3d90fd5b6136b0368383610692565b6020815191012094600180600454905b8181106136e557505050916136da939161ffff95936145af565b1661048c5750600090565b80613700600361078d86946000526003602052604060002090565b8061373b575b613711575b016136c0565b905061ffff61372389898989896145af565b1661372f57829061370b565b97505050505050505090565b5089613751826000526003602052604060002090565b5414613706565b613767919392938101906130b7565b906137756020830151613f20565b60009160005b82518110156137d65760416137908285612a7a565b5151146137a0575b60010161377b565b6001600160a01b036137bc6137b58386612a7a565b51886140e3565b161561379857926137ce600191613191565b939050613798565b5093505090604060009101905b8151805182101561385857816137f891612a7a565b516138166134e2600361078d84516000526003602052604060002090565b908115613833575b5061382b576001016137e3565b505050600090565b9050608061384c82516000526003602052604060002090565b5491015114153861381e565b5050515115159081613874575b5061386f57600090565b600190565b9050151538613865565b1561388557565b606460405162461bcd60e51b815260206004820152601360248201527f426f6172642068617368206d69736d61746368000000000000000000000000006044820152fd5b906138d381611656565b6001811461391e576138e481611656565b6002811461391057806138f8600392611656565b146139035750600090565b6040015163ffffffff1690565b506020015163ffffffff1690565b505163ffffffff1690565b1561393057565b606460405162461bcd60e51b815260206004820152601d60248201527f496e73756666696369656e74206469766964656e6420737570706f72740000006044820152fd5b90600160ff1b8217906000936000945b82518610156139be576139aa846001600160a01b036139a38987612a7a565b51166124db565b81018091116125e157600190950194613984565b939250935050600052600c602052604060002054906033820291808304603314901517156125e157606461065a92041115613929565b156139fb57565b606460405162461bcd60e51b815260206004820152601c60248201527f496e73756666696369656e7420636f6e74726f6c20737570706f7274000000006044820152fd5b906000936000945b8251861015613a7a57613a66846001600160a01b036139a38987612a7a565b81018091116125e157600190950194613a47565b9291509350600052600b60205261ffff606060406000205493015116918281029281840414901517156125e157606461065a920411156139f4565b90600160ff1b613ae5921760005260006020526040600020906001600160a01b0316600052602052604060002090565b5415613aed57565b606460405162461bcd60e51b815260206004820152601260248201527f4e6f206469766964656e6420746f6b656e7300000000000000000000000000006044820152fd5b90613b5b9160005260006020526040600020906001600160a01b0316600052602052604060002090565b5415613b6357565b606460405162461bcd60e51b815260206004820152601160248201527f4e6f20636f6e74726f6c20746f6b656e730000000000000000000000000000006044820152fd5b613bb081611656565b60018114613c1457613bc181611656565b8015613bee5780613bd3600292611656565b14613bde5750600090565b80613bea600392611656565b1490565b50613bf881611656565b60028114908115613c07575090565b60039150613bea81611656565b5080613c21600192611656565b141590565b15613c2d57565b606460405162461bcd60e51b815260206004820152601f60248201527f5369676e6572732f77656967687473206c656e677468206d69736d61746368006044820152fd5b90613c7b826108ce565b604090613c8b604051918261062b565b8381528093613c9c601f19916108ce565b019160009060005b848110613cb2575050505050565b6020908251613cc0816105d7565b60608152828581830152828701015201613ca4565b90602080835260608301908061ffff93848151168287015201519360408080830152855180945260808201908360808660051b8501019701956000935b868510613d2457505050505050505090565b90919293949596978680600192607f198582030188528b5190828781613d5185518c86528c860190610456565b940151169101529a019501950193969594929190613d12565b8051613d8e6060604094613d85604082019485515114613c26565b015161ffff1690565b92613d998351613c71565b92613daf613da5610669565b61ffff9096168652565b6020956020860194855260005b8251811015613e4b5780613e4481613dd961354660019588612a7a565b613e038c610b678a5193849283016014916bffffffffffffffffffffffff199060601b1681520190565b613e31613e1c613e14848c51612a7a565b5161ffff1690565b613e24610669565b92835261ffff168d830152565b895190613e3e8383612a7a565b52612a7a565b5001613dbc565b50955050505050604051613e6781610b67602082019485613cd5565b51902090565b604051613e798161060f565b6000815290565b90613e8a826108ce565b613e97604051918261062b565b8281528092613ea8601f19916108ce565b019060005b828110613eb957505050565b806060602080938501015201613ead565b60405190613ed7826105bb565b6040808352366020840137565b60405190613ef18261057e565b604182526060366020840137565b805160401015612a8e5760600190565b908151811015612a8e570160200190565b90613f2a826148e1565b80156140c657613f39816125cb565b90613f438161284b565b50613f4d81613e80565b9360005b828110613f5e5750505050565b613f66613eca565b60005b604081106140915750613fd6613fdd613f858460031c88612859565b6001928391613fca613fc4613f9e60078a16938b613f0f565b517fff000000000000000000000000000000000000000000000000000000000000001690565b60f81c90565b9060ff809216901c1690565b1660ff1690565b61408957601b915b613fed613ee4565b613ff7858b612a7a565b52614002848a612a7a565b5060005b6040811061405957505050906001916140527fff00000000000000000000000000000000000000000000000000000000000000614043848b612a7a565b519260f81b1660001a91613eff565b5301613f51565b808a6140828261407789614071613f9e8a988a613f0f565b94612a7a565b519260001a92613f0f565b5301614006565b601c91613fe5565b806140b2613f9e6140ac6001946140a7886125cb565b612859565b87613f0f565b60001a6140bf8285613f0f565b5301613f69565b50905061048c613e6d565b60ff601b9116019060ff82116125e157565b9060418151036141895760009160208201519260606040840151930151901a90601b8210614179575b60ff8216601b811415908161416d575b5061416457614150600093602095604051948594859094939260ff6060936080840197845216602083015260408201520152565b838052039060015afa156120175760005190565b50505050600090565b601c915014153861411c565b90614183906140d1565b9061410c565b5050600090565b9190916001600160a01b03811680156143295760405190600191828152602092602082019687526040820192818452606094606084019566038d7ea4c68000875260808501806040528551875180820361430d57505050908391826000905b6142ab575b50505083511460001461426f57600088517fc3d58168c5ae7397731d063d5bbf3d657854427343f4c083240f7aacaa2d0f62614246885160405191829133958360209093929193604081019481520152565b0390a45b81510361426157505061065a935190519133614ca6565b91509161065a945033614aa8565b60006040517f4a39dc06d4c0dbc64b70af90fd698a233a518aa5d07e595d983b8c0526c8f7fb3391806142a38989836149bf565b0390a461424a565b86518110156143085780849160051b88016142ff6142f78d6142df8789860151950151946000526000602052604060002090565b906001600160a01b0316600052602052604060002090565b918254612859565b905501836141ef565b6141f4565b635b05999160e01b8352608488019190915260a4870152604490fd5b6024604051632bfa23e760e11b815260006004820152fd5b939291906001600160a01b0380821615614329578516156143875761065a94604051926001845260208401526040830193600185526060840152608083016040526146d4565b6024604051626a0d4560e21b815260006004820152fd5b90602080838303126102dc57823567ffffffffffffffff938482116102dc57019260409081858503126102dc578151946143d7866105d7565b6143e081610956565b865283810135908282116102dc57019184601f840112156102dc57823590614407826108ce565b956144148251978861062b565b828752858088019360051b860101948186116102dc57868101935b868510614443575050505050505082015290565b84358681116102dc5782019084601f1983860301126102dc57845190614468826105d7565b89830135918883116102dc57614492878561448a898f809998819901016106c9565b845201610956565b8382015281520194019361442f565b9060209081838203126102dc57823567ffffffffffffffff938482116102dc570181601f820112156102dc5780356144d8816108ce565b946144e6604051968761062b565b818652848087019260051b840101938085116102dc57858401925b858410614512575050505050505090565b83358381116102dc57879161452c848480948a01016106c9565b815201930192614501565b60208151910151906020811061454b575090565b6000199060200360031b1b1690565b91909161ffff808094169116019182116125e157565b90606461ffff809316029182169182036125e157565b9061ffff80911691821561459957160490565b634e487b7160e01b600052601260045260246000fd5b92906145c1906145ca9381019061439e565b938101906144a1565b60009081809460209660208201965b875180518210806146ca575b15614696576145f5828b92612a7a565b5180516014815114614613575b50505061460e90613191565b6145d9565b612f35612f35614625929a959a614537565b6001600160a01b03614644612f3561463d8c8c612a7a565b518d6140e3565b91161461466c575b015161460e916146619161ffff165b9061455a565b959050883880614602565b949161465b8261468a61460e9561465b614661968b015161ffff1690565b9792945092505061464c565b5050965092935093505061ffff9081831615614164575161ffff1690831610614189576146c561048c92614570565b614586565b50855182106145e5565b94919091815184519081810361150f57505060005b82518110156147ed578060051b9060208083860101519287010151856001600160a01b0393848b1661474e575b6001948216614729575b505050016146e9565b614744916142df6142f7926000526000602052604060002090565b9055388581614720565b919293905061476b8a6142df846000526000602052604060002090565b5483811061479d57918791846001969594036147958d6142df856000526000602052604060002090565b559450614716565b6040517f03dee4c50000000000000000000000000000000000000000000000000000000081526001600160a01b038c16600482015260248101919091526044810184905260648101839052608490fd5b509491939290936001855114600014614898576020858101518382015160408051928352928201526001600160a01b03838116929086169133917fc3d58168c5ae7397731d063d5bbf3d657854427343f4c083240f7aacaa2d0f6291a45b6001600160a01b038116614861575b5050505050565b84516001036148875760208061487d9601519201519233614cdb565b388080808061485a565b61489394919233614ba3565b61487d565b6001600160a01b03604051818316918516907f4a39dc06d4c0dbc64b70af90fd698a233a518aa5d07e595d983b8c0526c8f7fb3391806148d9888c836149bf565b0390a461484b565b908151156149b95760015b613e80811115614962575b60405162461bcd60e51b815260206004820152603560248201527f496e76616c6964207061636b6564207369676e6174757265206c656e6774682060448201527f2d2063616e6e6f742064657465637420636f756e7400000000000000000000006064820152608490fd5b8060061b818104604014821517156125e1576149909061498a6149848461284b565b60031c90565b90612859565b8351908082146149b257116149ad576149a890613191565b6148ec565b6148f7565b5090925050565b60009150565b90916149d661048c936040845260408401906113f9565b9160208184039101526113f9565b908160209103126102dc575161048c81610345565b92614a2961048c95936001600160a01b03614a37941686526000602087015260a0604087015260a08601906113f9565b9084820360608601526113f9565b916080818403910152610456565b939061048c9593614a2991614a37946001600160a01b03809216885216602087015260a0604087015260a08601906113f9565b3d15614aa3573d90614a8982610676565b91614a97604051938461062b565b82523d6000602084013e565b606090565b9293919093843b614aba575050505050565b602091614add604051948593849363bc197c8160e01b98898652600486016149f9565b038160006001600160a01b0388165af160009181614b72575b50614b355782614b04614a78565b8051919082614b2e57604051632bfa23e760e11b81526001600160a01b0383166004820152602490fd5b9050602001fd5b6001600160e01b03191603614b4f5750388080808061485a565b604051632bfa23e760e11b81526001600160a01b03919091166004820152602490fd5b614b9591925060203d602011614b9c575b614b8d818361062b565b8101906149e4565b9038614af6565b503d614b83565b939290949194853b614bb8575b505050505050565b614bdb602093604051958694859463bc197c8160e01b998a875260048701614a45565b038160006001600160a01b0388165af160009181614c1d575b50614c025782614b04614a78565b6001600160e01b03191603614b4f5750388080808080614bb0565b614c3791925060203d602011614b9c57614b8d818361062b565b9038614bf4565b909260a0926001600160a01b0361048c969516835260006020840152604083015260608201528160808201520190610456565b919261048c95949160a0946001600160a01b038092168552166020840152604083015260608201528160808201520190610456565b9293919093843b614cb8575050505050565b602091614add604051948593849363f23a6e6160e01b9889865260048601614c3e565b939290949194853b614cef57505050505050565b614bdb602093604051958694859463f23a6e6160e01b998a875260048701614c7156fea2646970667358221220102685eb4b45dbd5844e1d5392934242353c42e2f21bd9815b0287e5d40ea95d64736f6c63430008180033",
  "linkReferences": {},
  "deployedLinkReferences": {}
}