{"abi":[{"type":"function","name":"log","inputs":[{"name":"s","type":"string","internalType":"string"},{"name":"x","type":"bytes","internalType":"bytes"}],"outputs":[],"stateMutability":"nonpayable"},{"type":"function","name":"log","inputs":[{"name":"s","type":"string","internalType":"string"},{"name":"x","type":"address","internalType":"address"}],"outputs":[],"stateMutability":"nonpayable"},{"type":"function","name":"log","inputs":[{"name":"s","type":"string","internalType":"string"},{"name":"x","type":"bytes32","internalType":"bytes32"}],"outputs":[],"stateMutability":"nonpayable"},{"type":"function","name":"log","inputs":[{"name":"s","type":"string","internalType":"string"},{"name":"x","type":"int256","internalType":"int256"}],"outputs":[],"stateMutability":"nonpayable"},{"type":"function","name":"log","inputs":[{"name":"s","type":"string","internalType":"string"},{"name":"x","type":"string","internalType":"string"}],"outputs":[],"stateMutability":"nonpayable"},{"type":"function","name":"log","inputs":[{"name":"s","type":"string","internalType":"string"},{"name":"x","type":"uint256","internalType":"uint256"}],"outputs":[],"stateMutability":"nonpayable"},{"type":"function","name":"log","inputs":[{"name":"s","type":"string","internalType":"string"},{"name":"x","type":"bool","internalType":"bool"}],"outputs":[],"stateMutability":"nonpayable"},{"type":"event","name":"LogAddress","inputs":[{"name":"","type":"string","indexed":false,"internalType":"string"},{"name":"","type":"address","indexed":false,"internalType":"address"}],"anonymous":false},{"type":"event","name":"LogBool","inputs":[{"name":"","type":"string","indexed":false,"internalType":"string"},{"name":"","type":"bool","indexed":false,"internalType":"bool"}],"anonymous":false},{"type":"event","name":"LogBytes","inputs":[{"name":"","type":"string","indexed":false,"internalType":"string"},{"name":"","type":"bytes","indexed":false,"internalType":"bytes"}],"anonymous":false},{"type":"event","name":"LogBytes32","inputs":[{"name":"","type":"string","indexed":false,"internalType":"string"},{"name":"","type":"bytes32","indexed":false,"internalType":"bytes32"}],"anonymous":false},{"type":"event","name":"LogInt","inputs":[{"name":"","type":"string","indexed":false,"internalType":"string"},{"name":"","type":"int256","indexed":false,"internalType":"int256"}],"anonymous":false},{"type":"event","name":"LogString","inputs":[{"name":"","type":"string","indexed":false,"internalType":"string"},{"name":"","type":"string","indexed":false,"internalType":"string"}],"anonymous":false},{"type":"event","name":"LogUint","inputs":[{"name":"","type":"string","indexed":false,"internalType":"string"},{"name":"","type":"uint256","indexed":false,"internalType":"uint256"}],"anonymous":false}],"bytecode":{"object":"0x60808060405234610016576104a0908161001b8239f35b5f80fdfe604060808152600480361015610013575f80fd5b5f3560e01c806323cdd8e814610315578063319af3331461028f5780633692d61a1461023e5780633ca6268e146101ed5780634b5c42771461015a578063b60e72cc146100e85763c3b5563514610068575f80fd5b346100e457816003193601126100e45780359067ffffffffffffffff82116100e4576100969136910161040e565b602435918215158093036100e4577f4c34c2f9a78632f29fa59aaed5514cb742fd9fbcfd7ccc2c03c85f2bbc621c47926100d9825193838594855284019061042c565b9060208301520390a1005b5f80fd5b5090346100e457806003193601126100e457813567ffffffffffffffff81116100e4577f941296a39ea107bde685522318a4b6c2b544904a5dd82a512748ca2cf839bef7926101399136910161040e565b9061014d815192828493845283019061042c565b60243560208301520390a1005b50346100e457816003193601126100e45767ffffffffffffffff9181358381116100e45761018b903690840161040e565b916024359384116100e4576101c76101e8917f27a8767ed172b48d7cf6dbb25d2840c5fa91ef78fa6e05c13c82763d099f03ca9536910161040e565b6101da835194848695865285019061042c565b90838203602085015261042c565b0390a1005b5090346100e457806003193601126100e457813567ffffffffffffffff81116100e4577f6a837ff3973aa4181e7b9f07756f8b7ee366dd85a36655d2cb42cd47f10b9638926101399136910161040e565b5090346100e457806003193601126100e457813567ffffffffffffffff81116100e4577f02d93529bba9d141e5e06733c52c7e6fbcb1149586adb5c24064b522ab26f1d7926101399136910161040e565b50346100e457816003193601126100e45780359067ffffffffffffffff82116100e4576102be9136910161040e565b6024359173ffffffffffffffffffffffffffffffffffffffff83168093036100e4577f62ddffe5b5108385f7a590f100e1ee414ad9551a31f089e64e82998440785e1e926100d9825193838594855284019061042c565b50346100e457816003193601126100e45767ffffffffffffffff9181358381116100e457610346903690840161040e565b916024359384116100e457366023850112156100e4576101c76101e8918560247fe8407a0209fa99ec3a7228aff140c3d3e68bd279391739c7e0b65cd406cc93b5973693013591015b92919267ffffffffffffffff918281116103e15760405192601f8201601f19908116603f01168401908111848210176103e1576040528294818452818301116100e4578281602093845f960137010152565b7f4e487b71000000000000000000000000000000000000000000000000000000005f52604160045260245ffd5b9080601f830112156100e4578160206104299335910161038f565b90565b91908251928382525f5b848110610456575050825f602080949584010152601f8019910116010190565b60208183018101518483018201520161043656fea2646970667358221220900829dde17259d45719f0445cf93e3a94d3bf5553ce73b68a78548bd274df9f64736f6c63430008180033","linkReferences":{}},"methodIdentifiers":{"log(string,address)":"319af333","log(string,bool)":"c3b55635","log(string,bytes)":"23cdd8e8","log(string,bytes32)":"3692d61a","log(string,int256)":"3ca6268e","log(string,string)":"4b5c4277","log(string,uint256)":"b60e72cc"},"id":9}